{
	"contracts/kapai/Stakev1.sol": {
		"Stakev1": {
			"abi": [
				{
					"inputs": [],
					"name": "InvalidInitialization",
					"type": "error"
				},
				{
					"inputs": [],
					"name": "NotInitializing",
					"type": "error"
				},
				{
					"inputs": [
						{
							"internalType": "address",
							"name": "owner",
							"type": "address"
						}
					],
					"name": "OwnableInvalidOwner",
					"type": "error"
				},
				{
					"inputs": [
						{
							"internalType": "address",
							"name": "account",
							"type": "address"
						}
					],
					"name": "OwnableUnauthorizedAccount",
					"type": "error"
				},
				{
					"anonymous": false,
					"inputs": [
						{
							"indexed": false,
							"internalType": "uint64",
							"name": "version",
							"type": "uint64"
						}
					],
					"name": "Initialized",
					"type": "event"
				},
				{
					"anonymous": false,
					"inputs": [
						{
							"indexed": true,
							"internalType": "address",
							"name": "sender",
							"type": "address"
						},
						{
							"indexed": true,
							"internalType": "address",
							"name": "token",
							"type": "address"
						},
						{
							"indexed": false,
							"internalType": "uint256",
							"name": "amount",
							"type": "uint256"
						},
						{
							"indexed": false,
							"internalType": "string",
							"name": "error",
							"type": "string"
						}
					],
					"name": "LogTransferFailure",
					"type": "event"
				},
				{
					"anonymous": false,
					"inputs": [
						{
							"indexed": true,
							"internalType": "address",
							"name": "sender",
							"type": "address"
						},
						{
							"indexed": true,
							"internalType": "address",
							"name": "token",
							"type": "address"
						},
						{
							"indexed": false,
							"internalType": "uint256",
							"name": "amount",
							"type": "uint256"
						}
					],
					"name": "LogTransferSuccess",
					"type": "event"
				},
				{
					"anonymous": false,
					"inputs": [
						{
							"indexed": true,
							"internalType": "address",
							"name": "previousOwner",
							"type": "address"
						},
						{
							"indexed": true,
							"internalType": "address",
							"name": "newOwner",
							"type": "address"
						}
					],
					"name": "OwnershipTransferred",
					"type": "event"
				},
				{
					"anonymous": false,
					"inputs": [
						{
							"indexed": true,
							"internalType": "uint256",
							"name": "beishu",
							"type": "uint256"
						},
						{
							"indexed": true,
							"internalType": "uint256",
							"name": "ymii",
							"type": "uint256"
						},
						{
							"indexed": false,
							"internalType": "uint256",
							"name": "base",
							"type": "uint256"
						}
					],
					"name": "ymiiFanhuan",
					"type": "event"
				},
				{
					"inputs": [
						{
							"internalType": "address",
							"name": "user",
							"type": "address"
						}
					],
					"name": "UserStakeAB0",
					"outputs": [],
					"stateMutability": "nonpayable",
					"type": "function"
				},
				{
					"inputs": [],
					"name": "_aToken",
					"outputs": [
						{
							"internalType": "address",
							"name": "",
							"type": "address"
						}
					],
					"stateMutability": "view",
					"type": "function"
				},
				{
					"inputs": [],
					"name": "_adminToken",
					"outputs": [
						{
							"internalType": "address",
							"name": "",
							"type": "address"
						}
					],
					"stateMutability": "view",
					"type": "function"
				},
				{
					"inputs": [],
					"name": "_bToken",
					"outputs": [
						{
							"internalType": "address",
							"name": "",
							"type": "address"
						}
					],
					"stateMutability": "view",
					"type": "function"
				},
				{
					"inputs": [],
					"name": "_cToken",
					"outputs": [
						{
							"internalType": "address",
							"name": "",
							"type": "address"
						}
					],
					"stateMutability": "view",
					"type": "function"
				},
				{
					"inputs": [
						{
							"internalType": "address",
							"name": "",
							"type": "address"
						}
					],
					"name": "_inviteNum",
					"outputs": [
						{
							"internalType": "uint256",
							"name": "",
							"type": "uint256"
						}
					],
					"stateMutability": "view",
					"type": "function"
				},
				{
					"inputs": [
						{
							"internalType": "uint256",
							"name": "",
							"type": "uint256"
						}
					],
					"name": "_inviterList",
					"outputs": [
						{
							"internalType": "address",
							"name": "",
							"type": "address"
						}
					],
					"stateMutability": "view",
					"type": "function"
				},
				{
					"inputs": [
						{
							"internalType": "address",
							"name": "",
							"type": "address"
						}
					],
					"name": "_inviterMap",
					"outputs": [
						{
							"internalType": "address",
							"name": "",
							"type": "address"
						}
					],
					"stateMutability": "view",
					"type": "function"
				},
				{
					"inputs": [
						{
							"internalType": "address",
							"name": "",
							"type": "address"
						}
					],
					"name": "_inviterReward",
					"outputs": [
						{
							"internalType": "uint256",
							"name": "",
							"type": "uint256"
						}
					],
					"stateMutability": "view",
					"type": "function"
				},
				{
					"inputs": [],
					"name": "_lpPriceToken",
					"outputs": [
						{
							"internalType": "address",
							"name": "",
							"type": "address"
						}
					],
					"stateMutability": "view",
					"type": "function"
				},
				{
					"inputs": [],
					"name": "_lpPriceTokenNew",
					"outputs": [
						{
							"internalType": "address",
							"name": "",
							"type": "address"
						}
					],
					"stateMutability": "view",
					"type": "function"
				},
				{
					"inputs": [],
					"name": "_lpToken",
					"outputs": [
						{
							"internalType": "address",
							"name": "",
							"type": "address"
						}
					],
					"stateMutability": "view",
					"type": "function"
				},
				{
					"inputs": [],
					"name": "_proportion",
					"outputs": [
						{
							"internalType": "uint256",
							"name": "",
							"type": "uint256"
						}
					],
					"stateMutability": "view",
					"type": "function"
				},
				{
					"inputs": [],
					"name": "_rewardToken",
					"outputs": [
						{
							"internalType": "address",
							"name": "",
							"type": "address"
						}
					],
					"stateMutability": "view",
					"type": "function"
				},
				{
					"inputs": [],
					"name": "_stake1",
					"outputs": [
						{
							"internalType": "uint256",
							"name": "",
							"type": "uint256"
						}
					],
					"stateMutability": "view",
					"type": "function"
				},
				{
					"inputs": [],
					"name": "_stake3",
					"outputs": [
						{
							"internalType": "uint256",
							"name": "",
							"type": "uint256"
						}
					],
					"stateMutability": "view",
					"type": "function"
				},
				{
					"inputs": [],
					"name": "_stake5",
					"outputs": [
						{
							"internalType": "uint256",
							"name": "",
							"type": "uint256"
						}
					],
					"stateMutability": "view",
					"type": "function"
				},
				{
					"inputs": [],
					"name": "_stakeToken",
					"outputs": [
						{
							"internalType": "address",
							"name": "",
							"type": "address"
						}
					],
					"stateMutability": "view",
					"type": "function"
				},
				{
					"inputs": [
						{
							"internalType": "address",
							"name": "",
							"type": "address"
						}
					],
					"name": "_userBlacklist",
					"outputs": [
						{
							"internalType": "bool",
							"name": "",
							"type": "bool"
						}
					],
					"stateMutability": "view",
					"type": "function"
				},
				{
					"inputs": [
						{
							"internalType": "address",
							"name": "",
							"type": "address"
						}
					],
					"name": "_userEndClaimTime",
					"outputs": [
						{
							"internalType": "uint256",
							"name": "",
							"type": "uint256"
						}
					],
					"stateMutability": "view",
					"type": "function"
				},
				{
					"inputs": [
						{
							"internalType": "address",
							"name": "",
							"type": "address"
						}
					],
					"name": "_userLastClaimTime",
					"outputs": [
						{
							"internalType": "uint256",
							"name": "",
							"type": "uint256"
						}
					],
					"stateMutability": "view",
					"type": "function"
				},
				{
					"inputs": [
						{
							"internalType": "address",
							"name": "",
							"type": "address"
						}
					],
					"name": "_userMoonClaimNumber",
					"outputs": [
						{
							"internalType": "uint256",
							"name": "",
							"type": "uint256"
						}
					],
					"stateMutability": "view",
					"type": "function"
				},
				{
					"inputs": [
						{
							"internalType": "address",
							"name": "",
							"type": "address"
						}
					],
					"name": "_userMoonClaimTime",
					"outputs": [
						{
							"internalType": "uint256",
							"name": "",
							"type": "uint256"
						}
					],
					"stateMutability": "view",
					"type": "function"
				},
				{
					"inputs": [
						{
							"internalType": "address",
							"name": "",
							"type": "address"
						}
					],
					"name": "_userPower",
					"outputs": [
						{
							"internalType": "uint256",
							"name": "",
							"type": "uint256"
						}
					],
					"stateMutability": "view",
					"type": "function"
				},
				{
					"inputs": [
						{
							"internalType": "address",
							"name": "",
							"type": "address"
						}
					],
					"name": "_userStake",
					"outputs": [
						{
							"internalType": "uint256",
							"name": "",
							"type": "uint256"
						}
					],
					"stateMutability": "view",
					"type": "function"
				},
				{
					"inputs": [
						{
							"internalType": "address",
							"name": "",
							"type": "address"
						}
					],
					"name": "_userStakeA",
					"outputs": [
						{
							"internalType": "uint256",
							"name": "",
							"type": "uint256"
						}
					],
					"stateMutability": "view",
					"type": "function"
				},
				{
					"inputs": [
						{
							"internalType": "address",
							"name": "",
							"type": "address"
						}
					],
					"name": "_userStakeB",
					"outputs": [
						{
							"internalType": "uint256",
							"name": "",
							"type": "uint256"
						}
					],
					"stateMutability": "view",
					"type": "function"
				},
				{
					"inputs": [
						{
							"internalType": "address",
							"name": "",
							"type": "address"
						}
					],
					"name": "_userStakeMonthlyearnings",
					"outputs": [
						{
							"internalType": "uint256",
							"name": "",
							"type": "uint256"
						}
					],
					"stateMutability": "view",
					"type": "function"
				},
				{
					"inputs": [
						{
							"internalType": "address",
							"name": "",
							"type": "address"
						}
					],
					"name": "_userStakeStartTime",
					"outputs": [
						{
							"internalType": "uint256",
							"name": "",
							"type": "uint256"
						}
					],
					"stateMutability": "view",
					"type": "function"
				},
				{
					"inputs": [
						{
							"internalType": "address",
							"name": "",
							"type": "address"
						}
					],
					"name": "_userStakeTime",
					"outputs": [
						{
							"internalType": "uint256",
							"name": "",
							"type": "uint256"
						}
					],
					"stateMutability": "view",
					"type": "function"
				},
				{
					"inputs": [],
					"name": "_wei",
					"outputs": [
						{
							"internalType": "uint256",
							"name": "",
							"type": "uint256"
						}
					],
					"stateMutability": "view",
					"type": "function"
				},
				{
					"inputs": [],
					"name": "foo",
					"outputs": [],
					"stateMutability": "nonpayable",
					"type": "function"
				},
				{
					"inputs": [
						{
							"internalType": "uint256",
							"name": "index",
							"type": "uint256"
						}
					],
					"name": "getInvitationByIndex",
					"outputs": [
						{
							"internalType": "address",
							"name": "inviter",
							"type": "address"
						},
						{
							"internalType": "address",
							"name": "invitee",
							"type": "address"
						}
					],
					"stateMutability": "view",
					"type": "function"
				},
				{
					"inputs": [
						{
							"internalType": "uint256",
							"name": "startIndex",
							"type": "uint256"
						}
					],
					"name": "getInvitationsFromIndex",
					"outputs": [
						{
							"internalType": "address[]",
							"name": "invitees",
							"type": "address[]"
						},
						{
							"internalType": "address[]",
							"name": "inviters",
							"type": "address[]"
						},
						{
							"internalType": "uint256[]",
							"name": "userStakesA",
							"type": "uint256[]"
						},
						{
							"internalType": "uint256[]",
							"name": "userStakesB",
							"type": "uint256[]"
						},
						{
							"internalType": "uint256[]",
							"name": "userStakeStartTime",
							"type": "uint256[]"
						},
						{
							"internalType": "uint256[]",
							"name": "liuShuiIdNumber",
							"type": "uint256[]"
						}
					],
					"stateMutability": "view",
					"type": "function"
				},
				{
					"inputs": [],
					"name": "getInviteCount",
					"outputs": [
						{
							"internalType": "uint256",
							"name": "",
							"type": "uint256"
						}
					],
					"stateMutability": "view",
					"type": "function"
				},
				{
					"inputs": [
						{
							"internalType": "address",
							"name": "owner",
							"type": "address"
						}
					],
					"name": "initialize",
					"outputs": [],
					"stateMutability": "nonpayable",
					"type": "function"
				},
				{
					"inputs": [],
					"name": "isClaimStart",
					"outputs": [
						{
							"internalType": "bool",
							"name": "",
							"type": "bool"
						}
					],
					"stateMutability": "view",
					"type": "function"
				},
				{
					"inputs": [],
					"name": "isStakeStart",
					"outputs": [
						{
							"internalType": "bool",
							"name": "",
							"type": "bool"
						}
					],
					"stateMutability": "view",
					"type": "function"
				},
				{
					"inputs": [],
					"name": "owner",
					"outputs": [
						{
							"internalType": "address",
							"name": "",
							"type": "address"
						}
					],
					"stateMutability": "view",
					"type": "function"
				},
				{
					"inputs": [
						{
							"internalType": "address",
							"name": "user",
							"type": "address"
						},
						{
							"internalType": "uint256",
							"name": "MoonClaimNumber",
							"type": "uint256"
						}
					],
					"name": "ownerSetUseMoonClaimNumber",
					"outputs": [],
					"stateMutability": "nonpayable",
					"type": "function"
				},
				{
					"inputs": [
						{
							"internalType": "address",
							"name": "user",
							"type": "address"
						},
						{
							"internalType": "uint256",
							"name": "amount",
							"type": "uint256"
						},
						{
							"internalType": "uint256",
							"name": "amountA",
							"type": "uint256"
						},
						{
							"internalType": "uint256",
							"name": "amountB",
							"type": "uint256"
						},
						{
							"internalType": "uint256",
							"name": "stakeTime",
							"type": "uint256"
						},
						{
							"internalType": "uint256",
							"name": "stakeStartTime",
							"type": "uint256"
						},
						{
							"internalType": "uint256",
							"name": "userLastClaim",
							"type": "uint256"
						},
						{
							"internalType": "uint256",
							"name": "userPower",
							"type": "uint256"
						},
						{
							"internalType": "uint256",
							"name": "userEndClaimTime",
							"type": "uint256"
						},
						{
							"internalType": "uint256",
							"name": "userStakeMonthlyearnings",
							"type": "uint256"
						}
					],
					"name": "ownerSetUser",
					"outputs": [],
					"stateMutability": "nonpayable",
					"type": "function"
				},
				{
					"inputs": [
						{
							"internalType": "address",
							"name": "user",
							"type": "address"
						},
						{
							"internalType": "uint256",
							"name": "amount",
							"type": "uint256"
						},
						{
							"internalType": "uint256",
							"name": "amountA",
							"type": "uint256"
						},
						{
							"internalType": "uint256",
							"name": "amountB",
							"type": "uint256"
						}
					],
					"name": "ownerSetUser1",
					"outputs": [],
					"stateMutability": "nonpayable",
					"type": "function"
				},
				{
					"inputs": [
						{
							"internalType": "address",
							"name": "user",
							"type": "address"
						},
						{
							"internalType": "uint256",
							"name": "MoonClaimTime",
							"type": "uint256"
						}
					],
					"name": "ownerSetUserMoonClaimTime",
					"outputs": [],
					"stateMutability": "nonpayable",
					"type": "function"
				},
				{
					"inputs": [
						{
							"internalType": "address",
							"name": "user",
							"type": "address"
						}
					],
					"name": "ownerSetUserStakeAB0",
					"outputs": [],
					"stateMutability": "nonpayable",
					"type": "function"
				},
				{
					"inputs": [
						{
							"internalType": "address",
							"name": "user",
							"type": "address"
						},
						{
							"internalType": "uint256",
							"name": "stakeTime",
							"type": "uint256"
						}
					],
					"name": "ownerSetUserStakeTime",
					"outputs": [],
					"stateMutability": "nonpayable",
					"type": "function"
				},
				{
					"inputs": [],
					"name": "renounceOwnership",
					"outputs": [],
					"stateMutability": "nonpayable",
					"type": "function"
				},
				{
					"inputs": [
						{
							"internalType": "uint256",
							"name": "proportion_",
							"type": "uint256"
						}
					],
					"name": "setProportion",
					"outputs": [],
					"stateMutability": "nonpayable",
					"type": "function"
				},
				{
					"inputs": [
						{
							"internalType": "address",
							"name": "token",
							"type": "address"
						}
					],
					"name": "setStakeToken",
					"outputs": [],
					"stateMutability": "nonpayable",
					"type": "function"
				},
				{
					"inputs": [
						{
							"internalType": "bool",
							"name": "stakeStart",
							"type": "bool"
						},
						{
							"internalType": "bool",
							"name": "claimStart",
							"type": "bool"
						}
					],
					"name": "setStatus",
					"outputs": [],
					"stateMutability": "nonpayable",
					"type": "function"
				},
				{
					"inputs": [
						{
							"internalType": "address",
							"name": "user",
							"type": "address"
						}
					],
					"name": "setUserBlacklist",
					"outputs": [],
					"stateMutability": "nonpayable",
					"type": "function"
				},
				{
					"inputs": [
						{
							"internalType": "address",
							"name": "token",
							"type": "address"
						}
					],
					"name": "set_aToken",
					"outputs": [],
					"stateMutability": "nonpayable",
					"type": "function"
				},
				{
					"inputs": [
						{
							"internalType": "address",
							"name": "token",
							"type": "address"
						}
					],
					"name": "set_adminToken",
					"outputs": [],
					"stateMutability": "nonpayable",
					"type": "function"
				},
				{
					"inputs": [
						{
							"internalType": "address",
							"name": "token",
							"type": "address"
						}
					],
					"name": "set_bToken",
					"outputs": [],
					"stateMutability": "nonpayable",
					"type": "function"
				},
				{
					"inputs": [
						{
							"internalType": "address",
							"name": "token",
							"type": "address"
						}
					],
					"name": "set_cToken",
					"outputs": [],
					"stateMutability": "nonpayable",
					"type": "function"
				},
				{
					"inputs": [
						{
							"internalType": "address",
							"name": "token",
							"type": "address"
						}
					],
					"name": "set_lpToken",
					"outputs": [],
					"stateMutability": "nonpayable",
					"type": "function"
				},
				{
					"inputs": [
						{
							"internalType": "address",
							"name": "token",
							"type": "address"
						}
					],
					"name": "set_rewardToken",
					"outputs": [],
					"stateMutability": "nonpayable",
					"type": "function"
				},
				{
					"inputs": [
						{
							"internalType": "address",
							"name": "token",
							"type": "address"
						}
					],
					"name": "setlpPriceToken",
					"outputs": [],
					"stateMutability": "nonpayable",
					"type": "function"
				},
				{
					"inputs": [
						{
							"internalType": "uint256",
							"name": "amountA",
							"type": "uint256"
						},
						{
							"internalType": "uint256",
							"name": "amountB",
							"type": "uint256"
						},
						{
							"internalType": "address",
							"name": "inviter",
							"type": "address"
						},
						{
							"internalType": "uint256",
							"name": "time",
							"type": "uint256"
						}
					],
					"name": "stake",
					"outputs": [],
					"stateMutability": "nonpayable",
					"type": "function"
				},
				{
					"inputs": [
						{
							"internalType": "address",
							"name": "newOwner",
							"type": "address"
						}
					],
					"name": "transferOwnership",
					"outputs": [],
					"stateMutability": "nonpayable",
					"type": "function"
				},
				{
					"inputs": [],
					"name": "withdraw",
					"outputs": [],
					"stateMutability": "nonpayable",
					"type": "function"
				},
				{
					"inputs": [],
					"name": "words",
					"outputs": [
						{
							"internalType": "string",
							"name": "",
							"type": "string"
						}
					],
					"stateMutability": "view",
					"type": "function"
				}
			],
			"devdoc": {
				"errors": {
					"InvalidInitialization()": [
						{
							"details": "The contract is already initialized."
						}
					],
					"NotInitializing()": [
						{
							"details": "The contract is not initializing."
						}
					],
					"OwnableInvalidOwner(address)": [
						{
							"details": "The owner is not a valid owner account. (eg. `address(0)`)"
						}
					],
					"OwnableUnauthorizedAccount(address)": [
						{
							"details": "The caller account is not authorized to perform an operation."
						}
					]
				},
				"events": {
					"Initialized(uint64)": {
						"details": "Triggered when the contract has been initialized or reinitialized."
					}
				},
				"kind": "dev",
				"methods": {
					"owner()": {
						"details": "Returns the address of the current owner."
					},
					"renounceOwnership()": {
						"details": "Leaves the contract without owner. It will not be possible to call `onlyOwner` functions. Can only be called by the current owner. NOTE: Renouncing ownership will leave the contract without an owner, thereby disabling any functionality that is only available to the owner."
					},
					"transferOwnership(address)": {
						"details": "Transfers ownership of the contract to a new account (`newOwner`). Can only be called by the current owner."
					}
				},
				"version": 1
			},
			"evm": {
				"assembly": "    /* \"contracts/kapai/Stakev1.sol\":8089:21989  contract Stakev1 is Initializable,OwnableUpgradeable {... */\n  mstore(0x40, 0x80)\n    /* \"contracts/kapai/Stakev1.sol\":10036:10040  true */\n  0x01\n    /* \"contracts/kapai/Stakev1.sol\":10009:10040  bool public isStakeStart = true */\n  0x0a\n  exp(0x0100, 0x00)\n  dup2\n  sload\n  dup2\n  0xff\n  mul\n  not\n  and\n  swap1\n  dup4\n  iszero\n  iszero\n  mul\n  or\n  swap1\n  sstore\n  pop\n    /* \"contracts/kapai/Stakev1.sol\":10094:10098  true */\n  0x01\n    /* \"contracts/kapai/Stakev1.sol\":10067:10098  bool public isClaimStart = true */\n  0x0a\n  exp(0x0100, 0x01)\n  dup2\n  sload\n  dup2\n  0xff\n  mul\n  not\n  and\n  swap1\n  dup4\n  iszero\n  iszero\n  mul\n  or\n  swap1\n  sstore\n  pop\n    /* \"contracts/kapai/Stakev1.sol\":8089:21989  contract Stakev1 is Initializable,OwnableUpgradeable {... */\n  callvalue\n  dup1\n  iszero\n  tag_1\n  jumpi\n  0x00\n  dup1\n  revert\ntag_1:\n  pop\n  dataSize(sub_0)\n  dup1\n  dataOffset(sub_0)\n  0x00\n  codecopy\n  0x00\n  return\nstop\n\nsub_0: assembly {\n        /* \"contracts/kapai/Stakev1.sol\":8089:21989  contract Stakev1 is Initializable,OwnableUpgradeable {... */\n      mstore(0x40, 0x80)\n      callvalue\n      dup1\n      iszero\n      tag_1\n      jumpi\n      0x00\n      dup1\n      revert\n    tag_1:\n      pop\n      jumpi(tag_2, lt(calldatasize, 0x04))\n      shr(0xe0, calldataload(0x00))\n      dup1\n      0x7429a176\n      gt\n      tag_64\n      jumpi\n      dup1\n      0xa5dc47d2\n      gt\n      tag_65\n      jumpi\n      dup1\n      0xd2240fb9\n      gt\n      tag_66\n      jumpi\n      dup1\n      0xf2c31bd9\n      gt\n      tag_67\n      jumpi\n      dup1\n      0xf2c31bd9\n      eq\n      tag_60\n      jumpi\n      dup1\n      0xf2fde38b\n      eq\n      tag_61\n      jumpi\n      dup1\n      0xf3ef99bc\n      eq\n      tag_62\n      jumpi\n      dup1\n      0xfc1315b9\n      eq\n      tag_63\n      jumpi\n      jump(tag_2)\n    tag_67:\n      dup1\n      0xd2240fb9\n      eq\n      tag_56\n      jumpi\n      dup1\n      0xdd8158e0\n      eq\n      tag_57\n      jumpi\n      dup1\n      0xe53595ed\n      eq\n      tag_58\n      jumpi\n      dup1\n      0xe650d293\n      eq\n      tag_59\n      jumpi\n      jump(tag_2)\n    tag_66:\n      dup1\n      0xb59c6e0e\n      gt\n      tag_68\n      jumpi\n      dup1\n      0xb59c6e0e\n      eq\n      tag_52\n      jumpi\n      dup1\n      0xbef4533c\n      eq\n      tag_53\n      jumpi\n      dup1\n      0xc2985578\n      eq\n      tag_54\n      jumpi\n      dup1\n      0xc4d66de8\n      eq\n      tag_55\n      jumpi\n      jump(tag_2)\n    tag_68:\n      dup1\n      0xa5dc47d2\n      eq\n      tag_48\n      jumpi\n      dup1\n      0xa6b14d5a\n      eq\n      tag_49\n      jumpi\n      dup1\n      0xac0e5ed0\n      eq\n      tag_50\n      jumpi\n      dup1\n      0xb3c2eac1\n      eq\n      tag_51\n      jumpi\n      jump(tag_2)\n    tag_65:\n      dup1\n      0x8898870f\n      gt\n      tag_69\n      jumpi\n      dup1\n      0x9805fa74\n      gt\n      tag_70\n      jumpi\n      dup1\n      0x9805fa74\n      eq\n      tag_44\n      jumpi\n      dup1\n      0x9c83df3a\n      eq\n      tag_45\n      jumpi\n      dup1\n      0x9f6d4648\n      eq\n      tag_46\n      jumpi\n      dup1\n      0xa041e172\n      eq\n      tag_47\n      jumpi\n      jump(tag_2)\n    tag_70:\n      dup1\n      0x8898870f\n      eq\n      tag_40\n      jumpi\n      dup1\n      0x8ace0d0c\n      eq\n      tag_41\n      jumpi\n      dup1\n      0x8da5cb5b\n      eq\n      tag_42\n      jumpi\n      dup1\n      0x907b2210\n      eq\n      tag_43\n      jumpi\n      jump(tag_2)\n    tag_69:\n      dup1\n      0x7a1a959b\n      gt\n      tag_71\n      jumpi\n      dup1\n      0x7a1a959b\n      eq\n      tag_36\n      jumpi\n      dup1\n      0x7d4cbd57\n      eq\n      tag_37\n      jumpi\n      dup1\n      0x853e03e5\n      eq\n      tag_38\n      jumpi\n      dup1\n      0x877bcb16\n      eq\n      tag_39\n      jumpi\n      jump(tag_2)\n    tag_71:\n      dup1\n      0x7429a176\n      eq\n      tag_33\n      jumpi\n      dup1\n      0x7535b3e5\n      eq\n      tag_34\n      jumpi\n      dup1\n      0x7929e29f\n      eq\n      tag_35\n      jumpi\n      jump(tag_2)\n    tag_64:\n      dup1\n      0x26e8397f\n      gt\n      tag_72\n      jumpi\n      dup1\n      0x460199b3\n      gt\n      tag_73\n      jumpi\n      dup1\n      0x711563d4\n      gt\n      tag_74\n      jumpi\n      dup1\n      0x711563d4\n      eq\n      tag_29\n      jumpi\n      dup1\n      0x715018a6\n      eq\n      tag_30\n      jumpi\n      dup1\n      0x71ddda57\n      eq\n      tag_31\n      jumpi\n      dup1\n      0x72885c64\n      eq\n      tag_32\n      jumpi\n      jump(tag_2)\n    tag_74:\n      dup1\n      0x460199b3\n      eq\n      tag_25\n      jumpi\n      dup1\n      0x6b8de0bf\n      eq\n      tag_26\n      jumpi\n      dup1\n      0x6d37b382\n      eq\n      tag_27\n      jumpi\n      dup1\n      0x6f663610\n      eq\n      tag_28\n      jumpi\n      jump(tag_2)\n    tag_73:\n      dup1\n      0x2c301b76\n      gt\n      tag_75\n      jumpi\n      dup1\n      0x2c301b76\n      eq\n      tag_21\n      jumpi\n      dup1\n      0x2eae667d\n      eq\n      tag_22\n      jumpi\n      dup1\n      0x3375d043\n      eq\n      tag_23\n      jumpi\n      dup1\n      0x3ccfd60b\n      eq\n      tag_24\n      jumpi\n      jump(tag_2)\n    tag_75:\n      dup1\n      0x26e8397f\n      eq\n      tag_18\n      jumpi\n      dup1\n      0x28c4333e\n      eq\n      tag_19\n      jumpi\n      dup1\n      0x29d245aa\n      eq\n      tag_20\n      jumpi\n      jump(tag_2)\n    tag_72:\n      dup1\n      0x170f9fb4\n      gt\n      tag_76\n      jumpi\n      dup1\n      0x1e9be42e\n      gt\n      tag_77\n      jumpi\n      dup1\n      0x1e9be42e\n      eq\n      tag_14\n      jumpi\n      dup1\n      0x1f54dbfe\n      eq\n      tag_15\n      jumpi\n      dup1\n      0x1fe03e61\n      eq\n      tag_16\n      jumpi\n      dup1\n      0x264edc1d\n      eq\n      tag_17\n      jumpi\n      jump(tag_2)\n    tag_77:\n      dup1\n      0x170f9fb4\n      eq\n      tag_10\n      jumpi\n      dup1\n      0x18883877\n      eq\n      tag_11\n      jumpi\n      dup1\n      0x1896b2c4\n      eq\n      tag_12\n      jumpi\n      dup1\n      0x1e2a4d98\n      eq\n      tag_13\n      jumpi\n      jump(tag_2)\n    tag_76:\n      dup1\n      0x042737f6\n      gt\n      tag_78\n      jumpi\n      dup1\n      0x042737f6\n      eq\n      tag_6\n      jumpi\n      dup1\n      0x049108c6\n      eq\n      tag_7\n      jumpi\n      dup1\n      0x115a972e\n      eq\n      tag_8\n      jumpi\n      dup1\n      0x16c259e1\n      eq\n      tag_9\n      jumpi\n      jump(tag_2)\n    tag_78:\n      dup1\n      0x6cd200\n      eq\n      tag_3\n      jumpi\n      dup1\n      0x0356c98f\n      eq\n      tag_4\n      jumpi\n      dup1\n      0x0397d458\n      eq\n      tag_5\n      jumpi\n    tag_2:\n      0x00\n      dup1\n      revert\n        /* \"contracts/kapai/Stakev1.sol\":12557:12660  function setProportion(uint256 proportion_) public onlyOwner {... */\n    tag_3:\n      tag_79\n      0x04\n      dup1\n      calldatasize\n      sub\n      dup2\n      add\n      swap1\n      tag_80\n      swap2\n      swap1\n      tag_81\n      jump\t// in\n    tag_80:\n      tag_82\n      jump\t// in\n    tag_79:\n      stop\n        /* \"contracts/kapai/Stakev1.sol\":10899:10951  mapping(address => uint256) public _userEndClaimTime */\n    tag_4:\n      tag_83\n      0x04\n      dup1\n      calldatasize\n      sub\n      dup2\n      add\n      swap1\n      tag_84\n      swap2\n      swap1\n      tag_85\n      jump\t// in\n    tag_84:\n      tag_86\n      jump\t// in\n    tag_83:\n      mload(0x40)\n      tag_87\n      swap2\n      swap1\n      tag_88\n      jump\t// in\n    tag_87:\n      mload(0x40)\n      dup1\n      swap2\n      sub\n      swap1\n      return\n        /* \"contracts/kapai/Stakev1.sol\":12835:12926  function setStakeToken(address token) public onlyOwner {... */\n    tag_5:\n      tag_89\n      0x04\n      dup1\n      calldatasize\n      sub\n      dup2\n      add\n      swap1\n      tag_90\n      swap2\n      swap1\n      tag_85\n      jump\t// in\n    tag_90:\n      tag_91\n      jump\t// in\n    tag_89:\n      stop\n        /* \"contracts/kapai/Stakev1.sol\":14062:14329  function ownerSetUser1(... */\n    tag_6:\n      tag_92\n      0x04\n      dup1\n      calldatasize\n      sub\n      dup2\n      add\n      swap1\n      tag_93\n      swap2\n      swap1\n      tag_94\n      jump\t// in\n    tag_93:\n      tag_95\n      jump\t// in\n    tag_92:\n      stop\n        /* \"contracts/kapai/Stakev1.sol\":14370:14767  function ownerSetUserStakeAB0(... */\n    tag_7:\n      tag_96\n      0x04\n      dup1\n      calldatasize\n      sub\n      dup2\n      add\n      swap1\n      tag_97\n      swap2\n      swap1\n      tag_85\n      jump\t// in\n    tag_97:\n      tag_98\n      jump\t// in\n    tag_96:\n      stop\n        /* \"contracts/kapai/Stakev1.sol\":11044:11090  mapping(address => bool) public _userBlacklist */\n    tag_8:\n      tag_99\n      0x04\n      dup1\n      calldatasize\n      sub\n      dup2\n      add\n      swap1\n      tag_100\n      swap2\n      swap1\n      tag_85\n      jump\t// in\n    tag_100:\n      tag_101\n      jump\t// in\n    tag_99:\n      mload(0x40)\n      tag_102\n      swap2\n      swap1\n      tag_103\n      jump\t// in\n    tag_102:\n      mload(0x40)\n      dup1\n      swap2\n      sub\n      swap1\n      return\n        /* \"contracts/kapai/Stakev1.sol\":10720:10774  mapping(address => uint256) public _userStakeStartTime */\n    tag_9:\n      tag_104\n      0x04\n      dup1\n      calldatasize\n      sub\n      dup2\n      add\n      swap1\n      tag_105\n      swap2\n      swap1\n      tag_85\n      jump\t// in\n    tag_105:\n      tag_106\n      jump\t// in\n    tag_104:\n      mload(0x40)\n      tag_107\n      swap2\n      swap1\n      tag_88\n      jump\t// in\n    tag_107:\n      mload(0x40)\n      dup1\n      swap2\n      sub\n      swap1\n      return\n        /* \"contracts/kapai/Stakev1.sol\":11833:11919  function set_lpToken(address token) public onlyOwner {... */\n    tag_10:\n      tag_108\n      0x04\n      dup1\n      calldatasize\n      sub\n      dup2\n      add\n      swap1\n      tag_109\n      swap2\n      swap1\n      tag_85\n      jump\t// in\n    tag_109:\n      tag_110\n      jump\t// in\n    tag_108:\n      stop\n        /* \"contracts/kapai/Stakev1.sol\":9913:9935  uint256 public _stake5 */\n    tag_11:\n      tag_111\n      tag_112\n      jump\t// in\n    tag_111:\n      mload(0x40)\n      tag_113\n      swap2\n      swap1\n      tag_88\n      jump\t// in\n    tag_113:\n      mload(0x40)\n      dup1\n      swap2\n      sub\n      swap1\n      return\n        /* \"contracts/kapai/Stakev1.sol\":10348:10393  mapping(address => uint256) public _inviteNum */\n    tag_12:\n      tag_114\n      0x04\n      dup1\n      calldatasize\n      sub\n      dup2\n      add\n      swap1\n      tag_115\n      swap2\n      swap1\n      tag_85\n      jump\t// in\n    tag_115:\n      tag_116\n      jump\t// in\n    tag_114:\n      mload(0x40)\n      tag_117\n      swap2\n      swap1\n      tag_88\n      jump\t// in\n    tag_117:\n      mload(0x40)\n      dup1\n      swap2\n      sub\n      swap1\n      return\n        /* \"contracts/kapai/Stakev1.sol\":11692:11714  address public _cToken */\n    tag_13:\n      tag_118\n      tag_119\n      jump\t// in\n    tag_118:\n      mload(0x40)\n      tag_120\n      swap2\n      swap1\n      tag_121\n      jump\t// in\n    tag_120:\n      mload(0x40)\n      dup1\n      swap2\n      sub\n      swap1\n      return\n        /* \"contracts/kapai/Stakev1.sol\":11435:11488  mapping(address => uint256) public _userMoonClaimTime */\n    tag_14:\n      tag_122\n      0x04\n      dup1\n      calldatasize\n      sub\n      dup2\n      add\n      swap1\n      tag_123\n      swap2\n      swap1\n      tag_85\n      jump\t// in\n    tag_123:\n      tag_124\n      jump\t// in\n    tag_122:\n      mload(0x40)\n      tag_125\n      swap2\n      swap1\n      tag_88\n      jump\t// in\n    tag_125:\n      mload(0x40)\n      dup1\n      swap2\n      sub\n      swap1\n      return\n        /* \"contracts/kapai/Stakev1.sol\":11944:12029  function set_aToken(address token) public  onlyOwner {... */\n    tag_15:\n      tag_126\n      0x04\n      dup1\n      calldatasize\n      sub\n      dup2\n      add\n      swap1\n      tag_127\n      swap2\n      swap1\n      tag_85\n      jump\t// in\n    tag_127:\n      tag_128\n      jump\t// in\n    tag_126:\n      stop\n        /* \"contracts/kapai/Stakev1.sol\":15756:15952  function ownerSetUseMoonClaimNumber(... */\n    tag_16:\n      tag_129\n      0x04\n      dup1\n      calldatasize\n      sub\n      dup2\n      add\n      swap1\n      tag_130\n      swap2\n      swap1\n      tag_131\n      jump\t// in\n    tag_130:\n      tag_132\n      jump\t// in\n    tag_129:\n      stop\n        /* \"contracts/kapai/Stakev1.sol\":10211:10257  mapping(address => address) public _inviterMap */\n    tag_17:\n      tag_133\n      0x04\n      dup1\n      calldatasize\n      sub\n      dup2\n      add\n      swap1\n      tag_134\n      swap2\n      swap1\n      tag_85\n      jump\t// in\n    tag_134:\n      tag_135\n      jump\t// in\n    tag_133:\n      mload(0x40)\n      tag_136\n      swap2\n      swap1\n      tag_121\n      jump\t// in\n    tag_136:\n      mload(0x40)\n      dup1\n      swap2\n      sub\n      swap1\n      return\n        /* \"contracts/kapai/Stakev1.sol\":14813:15194  function UserStakeAB0(... */\n    tag_18:\n      tag_137\n      0x04\n      dup1\n      calldatasize\n      sub\n      dup2\n      add\n      swap1\n      tag_138\n      swap2\n      swap1\n      tag_85\n      jump\t// in\n    tag_138:\n      tag_139\n      jump\t// in\n    tag_137:\n      stop\n        /* \"contracts/kapai/Stakev1.sol\":12054:12138  function set_bToken(address token) public onlyOwner {... */\n    tag_19:\n      tag_140\n      0x04\n      dup1\n      calldatasize\n      sub\n      dup2\n      add\n      swap1\n      tag_141\n      swap2\n      swap1\n      tag_85\n      jump\t// in\n    tag_141:\n      tag_142\n      jump\t// in\n    tag_140:\n      stop\n        /* \"contracts/kapai/Stakev1.sol\":11328:11351  address public _lpToken */\n    tag_20:\n      tag_143\n      tag_144\n      jump\t// in\n    tag_143:\n      mload(0x40)\n      tag_145\n      swap2\n      swap1\n      tag_121\n      jump\t// in\n    tag_145:\n      mload(0x40)\n      dup1\n      swap2\n      sub\n      swap1\n      return\n        /* \"contracts/kapai/Stakev1.sol\":17294:17615  function getInvitationByIndex(uint256 index) external view returns (address inviter, address invitee) {... */\n    tag_21:\n      tag_146\n      0x04\n      dup1\n      calldatasize\n      sub\n      dup2\n      add\n      swap1\n      tag_147\n      swap2\n      swap1\n      tag_81\n      jump\t// in\n    tag_147:\n      tag_148\n      jump\t// in\n    tag_146:\n      mload(0x40)\n      tag_149\n      swap3\n      swap2\n      swap1\n      tag_150\n      jump\t// in\n    tag_149:\n      mload(0x40)\n      dup1\n      swap2\n      sub\n      swap1\n      return\n        /* \"contracts/kapai/Stakev1.sol\":9955:9981  uint256 public _proportion */\n    tag_22:\n      tag_151\n      tag_152\n      jump\t// in\n    tag_151:\n      mload(0x40)\n      tag_153\n      swap2\n      swap1\n      tag_88\n      jump\t// in\n    tag_153:\n      mload(0x40)\n      dup1\n      swap2\n      sub\n      swap1\n      return\n        /* \"contracts/kapai/Stakev1.sol\":9705:9727  address public _bToken */\n    tag_23:\n      tag_154\n      tag_155\n      jump\t// in\n    tag_154:\n      mload(0x40)\n      tag_156\n      swap2\n      swap1\n      tag_121\n      jump\t// in\n    tag_156:\n      mload(0x40)\n      dup1\n      swap2\n      sub\n      swap1\n      return\n        /* \"contracts/kapai/Stakev1.sol\":13124:13231  function withdraw() external onlyOwner {... */\n    tag_24:\n      tag_157\n      tag_158\n      jump\t// in\n    tag_157:\n      stop\n        /* \"contracts/kapai/Stakev1.sol\":12292:12384  function set_adminToken(address token) public onlyOwner {... */\n    tag_25:\n      tag_159\n      0x04\n      dup1\n      calldatasize\n      sub\n      dup2\n      add\n      swap1\n      tag_160\n      swap2\n      swap1\n      tag_85\n      jump\t// in\n    tag_160:\n      tag_161\n      jump\t// in\n    tag_159:\n      stop\n        /* \"contracts/kapai/Stakev1.sol\":9769:9795  address public _adminToken */\n    tag_26:\n      tag_162\n      tag_163\n      jump\t// in\n    tag_162:\n      mload(0x40)\n      tag_164\n      swap2\n      swap1\n      tag_121\n      jump\t// in\n    tag_164:\n      mload(0x40)\n      dup1\n      swap2\n      sub\n      swap1\n      return\n        /* \"contracts/kapai/Stakev1.sol\":12431:12526  function setlpPriceToken(address token) public onlyOwner {... */\n    tag_27:\n      tag_165\n      0x04\n      dup1\n      calldatasize\n      sub\n      dup2\n      add\n      swap1\n      tag_166\n      swap2\n      swap1\n      tag_85\n      jump\t// in\n    tag_166:\n      tag_167\n      jump\t// in\n    tag_165:\n      stop\n        /* \"contracts/kapai/Stakev1.sol\":11108:11168  mapping(address => uint256) public _userStakeMonthlyearnings */\n    tag_28:\n      tag_168\n      0x04\n      dup1\n      calldatasize\n      sub\n      dup2\n      add\n      swap1\n      tag_169\n      swap2\n      swap1\n      tag_85\n      jump\t// in\n    tag_169:\n      tag_170\n      jump\t// in\n    tag_168:\n      mload(0x40)\n      tag_171\n      swap2\n      swap1\n      tag_88\n      jump\t// in\n    tag_171:\n      mload(0x40)\n      dup1\n      swap2\n      sub\n      swap1\n      return\n        /* \"contracts/kapai/Stakev1.sol\":18118:21878  function stake(... */\n    tag_29:\n      tag_172\n      0x04\n      dup1\n      calldatasize\n      sub\n      dup2\n      add\n      swap1\n      tag_173\n      swap2\n      swap1\n      tag_174\n      jump\t// in\n    tag_173:\n      tag_175\n      jump\t// in\n    tag_172:\n      stop\n        /* \"@openzeppelin/contracts-upgradeable/access/OwnableUpgradeable.sol\":3155:3256  function renounceOwnership() public virtual onlyOwner {... */\n    tag_30:\n      tag_176\n      tag_177\n      jump\t// in\n    tag_176:\n      stop\n        /* \"contracts/kapai/Stakev1.sol\":9550:9576  address public _stakeToken */\n    tag_31:\n      tag_178\n      tag_179\n      jump\t// in\n    tag_178:\n      mload(0x40)\n      tag_180\n      swap2\n      swap1\n      tag_121\n      jump\t// in\n    tag_180:\n      mload(0x40)\n      dup1\n      swap2\n      sub\n      swap1\n      return\n        /* \"contracts/kapai/Stakev1.sol\":13270:14022  function ownerSetUser(... */\n    tag_32:\n      tag_181\n      0x04\n      dup1\n      calldatasize\n      sub\n      dup2\n      add\n      swap1\n      tag_182\n      swap2\n      swap1\n      tag_183\n      jump\t// in\n    tag_182:\n      tag_184\n      jump\t// in\n    tag_181:\n      stop\n        /* \"contracts/kapai/Stakev1.sol\":15262:15435  function ownerSetUserStakeTime(... */\n    tag_33:\n      tag_185\n      0x04\n      dup1\n      calldatasize\n      sub\n      dup2\n      add\n      swap1\n      tag_186\n      swap2\n      swap1\n      tag_131\n      jump\t// in\n    tag_186:\n      tag_187\n      jump\t// in\n    tag_185:\n      stop\n        /* \"contracts/kapai/Stakev1.sol\":12169:12263  function set_rewardToken(address token) public onlyOwner {... */\n    tag_34:\n      tag_188\n      0x04\n      dup1\n      calldatasize\n      sub\n      dup2\n      add\n      swap1\n      tag_189\n      swap2\n      swap1\n      tag_85\n      jump\t// in\n    tag_189:\n      tag_190\n      jump\t// in\n    tag_188:\n      stop\n        /* \"contracts/kapai/Stakev1.sol\":10807:10860  mapping(address => uint256) public _userLastClaimTime */\n    tag_35:\n      tag_191\n      0x04\n      dup1\n      calldatasize\n      sub\n      dup2\n      add\n      swap1\n      tag_192\n      swap2\n      swap1\n      tag_85\n      jump\t// in\n    tag_192:\n      tag_193\n      jump\t// in\n    tag_191:\n      mload(0x40)\n      tag_194\n      swap2\n      swap1\n      tag_88\n      jump\t// in\n    tag_194:\n      mload(0x40)\n      dup1\n      swap2\n      sub\n      swap1\n      return\n        /* \"contracts/kapai/Stakev1.sol\":9663:9685  address public _aToken */\n    tag_36:\n      tag_195\n      tag_196\n      jump\t// in\n    tag_195:\n      mload(0x40)\n      tag_197\n      swap2\n      swap1\n      tag_121\n      jump\t// in\n    tag_197:\n      mload(0x40)\n      dup1\n      swap2\n      sub\n      swap1\n      return\n        /* \"contracts/kapai/Stakev1.sol\":12687:12805  function setUserBlacklist(address user) public onlyOwner {... */\n    tag_37:\n      tag_198\n      0x04\n      dup1\n      calldatasize\n      sub\n      dup2\n      add\n      swap1\n      tag_199\n      swap2\n      swap1\n      tag_85\n      jump\t// in\n    tag_199:\n      tag_200\n      jump\t// in\n    tag_198:\n      stop\n        /* \"contracts/kapai/Stakev1.sol\":9871:9893  uint256 public _stake3 */\n    tag_38:\n      tag_201\n      tag_202\n      jump\t// in\n    tag_201:\n      mload(0x40)\n      tag_203\n      swap2\n      swap1\n      tag_88\n      jump\t// in\n    tag_203:\n      mload(0x40)\n      dup1\n      swap2\n      sub\n      swap1\n      return\n        /* \"contracts/kapai/Stakev1.sol\":11269:11300  address public _lpPriceTokenNew */\n    tag_39:\n      tag_204\n      tag_205\n      jump\t// in\n    tag_204:\n      mload(0x40)\n      tag_206\n      swap2\n      swap1\n      tag_121\n      jump\t// in\n    tag_206:\n      mload(0x40)\n      dup1\n      swap2\n      sub\n      swap1\n      return\n        /* \"contracts/kapai/Stakev1.sol\":10486:10532  mapping(address => uint256) public _userStakeA */\n    tag_40:\n      tag_207\n      0x04\n      dup1\n      calldatasize\n      sub\n      dup2\n      add\n      swap1\n      tag_208\n      swap2\n      swap1\n      tag_85\n      jump\t// in\n    tag_208:\n      tag_209\n      jump\t// in\n    tag_207:\n      mload(0x40)\n      tag_210\n      swap2\n      swap1\n      tag_88\n      jump\t// in\n    tag_210:\n      mload(0x40)\n      dup1\n      swap2\n      sub\n      swap1\n      return\n        /* \"contracts/kapai/Stakev1.sol\":10565:10611  mapping(address => uint256) public _userStakeB */\n    tag_41:\n      tag_211\n      0x04\n      dup1\n      calldatasize\n      sub\n      dup2\n      add\n      swap1\n      tag_212\n      swap2\n      swap1\n      tag_85\n      jump\t// in\n    tag_212:\n      tag_213\n      jump\t// in\n    tag_211:\n      mload(0x40)\n      tag_214\n      swap2\n      swap1\n      tag_88\n      jump\t// in\n    tag_214:\n      mload(0x40)\n      dup1\n      swap2\n      sub\n      swap1\n      return\n        /* \"@openzeppelin/contracts-upgradeable/access/OwnableUpgradeable.sol\":2441:2585  function owner() public view virtual returns (address) {... */\n    tag_42:\n      tag_215\n      tag_216\n      jump\t// in\n    tag_215:\n      mload(0x40)\n      tag_217\n      swap2\n      swap1\n      tag_121\n      jump\t// in\n    tag_217:\n      mload(0x40)\n      dup1\n      swap2\n      sub\n      swap1\n      return\n        /* \"contracts/kapai/Stakev1.sol\":11629:11658  address[] public _inviterList */\n    tag_43:\n      tag_218\n      0x04\n      dup1\n      calldatasize\n      sub\n      dup2\n      add\n      swap1\n      tag_219\n      swap2\n      swap1\n      tag_81\n      jump\t// in\n    tag_219:\n      tag_220\n      jump\t// in\n    tag_218:\n      mload(0x40)\n      tag_221\n      swap2\n      swap1\n      tag_121\n      jump\t// in\n    tag_221:\n      mload(0x40)\n      dup1\n      swap2\n      sub\n      swap1\n      return\n        /* \"contracts/kapai/Stakev1.sol\":10414:10459  mapping(address => uint256) public _userStake */\n    tag_44:\n      tag_222\n      0x04\n      dup1\n      calldatasize\n      sub\n      dup2\n      add\n      swap1\n      tag_223\n      swap2\n      swap1\n      tag_85\n      jump\t// in\n    tag_223:\n      tag_224\n      jump\t// in\n    tag_222:\n      mload(0x40)\n      tag_225\n      swap2\n      swap1\n      tag_88\n      jump\t// in\n    tag_225:\n      mload(0x40)\n      dup1\n      swap2\n      sub\n      swap1\n      return\n        /* \"contracts/kapai/Stakev1.sol\":16021:17245  function getInvitationsFromIndex(uint256 startIndex) external view returns (address[] memory invitees, address[] memory inviters, uint256[] memory userStakesA, uint256[] memory userStakesB, uint256[] memory userStakeStartTime, uint256[] memory liuShuiIdNumber) {... */\n    tag_45:\n      tag_226\n      0x04\n      dup1\n      calldatasize\n      sub\n      dup2\n      add\n      swap1\n      tag_227\n      swap2\n      swap1\n      tag_81\n      jump\t// in\n    tag_227:\n      tag_228\n      jump\t// in\n    tag_226:\n      mload(0x40)\n      tag_229\n      swap7\n      swap6\n      swap5\n      swap4\n      swap3\n      swap2\n      swap1\n      tag_230\n      jump\t// in\n    tag_229:\n      mload(0x40)\n      dup1\n      swap2\n      sub\n      swap1\n      return\n        /* \"contracts/kapai/Stakev1.sol\":21903:21987  function set_cToken(address token) public onlyOwner {... */\n    tag_46:\n      tag_231\n      0x04\n      dup1\n      calldatasize\n      sub\n      dup2\n      add\n      swap1\n      tag_232\n      swap2\n      swap1\n      tag_85\n      jump\t// in\n    tag_232:\n      tag_233\n      jump\t// in\n    tag_231:\n      stop\n        /* \"contracts/kapai/Stakev1.sol\":10644:10693  mapping(address => uint256) public _userStakeTime */\n    tag_47:\n      tag_234\n      0x04\n      dup1\n      calldatasize\n      sub\n      dup2\n      add\n      swap1\n      tag_235\n      swap2\n      swap1\n      tag_85\n      jump\t// in\n    tag_235:\n      tag_236\n      jump\t// in\n    tag_234:\n      mload(0x40)\n      tag_237\n      swap2\n      swap1\n      tag_88\n      jump\t// in\n    tag_237:\n      mload(0x40)\n      dup1\n      swap2\n      sub\n      swap1\n      return\n        /* \"contracts/kapai/Stakev1.sol\":11532:11587  mapping(address => uint256) public _userMoonClaimNumber */\n    tag_48:\n      tag_238\n      0x04\n      dup1\n      calldatasize\n      sub\n      dup2\n      add\n      swap1\n      tag_239\n      swap2\n      swap1\n      tag_85\n      jump\t// in\n    tag_239:\n      tag_240\n      jump\t// in\n    tag_238:\n      mload(0x40)\n      tag_241\n      swap2\n      swap1\n      tag_88\n      jump\t// in\n    tag_241:\n      mload(0x40)\n      dup1\n      swap2\n      sub\n      swap1\n      return\n        /* \"contracts/kapai/Stakev1.sol\":9829:9851  uint256 public _stake1 */\n    tag_49:\n      tag_242\n      tag_243\n      jump\t// in\n    tag_242:\n      mload(0x40)\n      tag_244\n      swap2\n      swap1\n      tag_88\n      jump\t// in\n    tag_244:\n      mload(0x40)\n      dup1\n      swap2\n      sub\n      swap1\n      return\n        /* \"contracts/kapai/Stakev1.sol\":11378:11397  uint256 public _wei */\n    tag_50:\n      tag_245\n      tag_246\n      jump\t// in\n    tag_245:\n      mload(0x40)\n      tag_247\n      swap2\n      swap1\n      tag_88\n      jump\t// in\n    tag_247:\n      mload(0x40)\n      dup1\n      swap2\n      sub\n      swap1\n      return\n        /* \"contracts/kapai/Stakev1.sol\":12950:13097  function setStatus(bool stakeStart, bool claimStart) public onlyOwner {... */\n    tag_51:\n      tag_248\n      0x04\n      dup1\n      calldatasize\n      sub\n      dup2\n      add\n      swap1\n      tag_249\n      swap2\n      swap1\n      tag_250\n      jump\t// in\n    tag_249:\n      tag_251\n      jump\t// in\n    tag_248:\n      stop\n        /* \"contracts/kapai/Stakev1.sol\":9501:9528  address public _rewardToken */\n    tag_52:\n      tag_252\n      tag_253\n      jump\t// in\n    tag_252:\n      mload(0x40)\n      tag_254\n      swap2\n      swap1\n      tag_121\n      jump\t// in\n    tag_254:\n      mload(0x40)\n      dup1\n      swap2\n      sub\n      swap1\n      return\n        /* \"contracts/kapai/Stakev1.sol\":10972:11017  mapping(address => uint256) public _userPower */\n    tag_53:\n      tag_255\n      0x04\n      dup1\n      calldatasize\n      sub\n      dup2\n      add\n      swap1\n      tag_256\n      swap2\n      swap1\n      tag_85\n      jump\t// in\n    tag_256:\n      tag_257\n      jump\t// in\n    tag_255:\n      mload(0x40)\n      tag_258\n      swap2\n      swap1\n      tag_88\n      jump\t// in\n    tag_258:\n      mload(0x40)\n      dup1\n      swap2\n      sub\n      swap1\n      return\n        /* \"contracts/kapai/Stakev1.sol\":11753:11805  function foo() public{... */\n    tag_54:\n      tag_259\n      tag_260\n      jump\t// in\n    tag_259:\n      stop\n        /* \"contracts/kapai/Stakev1.sol\":8148:9496  function initialize(address owner)public initializer{... */\n    tag_55:\n      tag_261\n      0x04\n      dup1\n      calldatasize\n      sub\n      dup2\n      add\n      swap1\n      tag_262\n      swap2\n      swap1\n      tag_85\n      jump\t// in\n    tag_262:\n      tag_263\n      jump\t// in\n    tag_261:\n      stop\n        /* \"contracts/kapai/Stakev1.sol\":15499:15688  function ownerSetUserMoonClaimTime(... */\n    tag_56:\n      tag_264\n      0x04\n      dup1\n      calldatasize\n      sub\n      dup2\n      add\n      swap1\n      tag_265\n      swap2\n      swap1\n      tag_131\n      jump\t// in\n    tag_265:\n      tag_266\n      jump\t// in\n    tag_264:\n      stop\n        /* \"contracts/kapai/Stakev1.sol\":10275:10324  mapping(address => uint256) public _inviterReward */\n    tag_57:\n      tag_267\n      0x04\n      dup1\n      calldatasize\n      sub\n      dup2\n      add\n      swap1\n      tag_268\n      swap2\n      swap1\n      tag_85\n      jump\t// in\n    tag_268:\n      tag_269\n      jump\t// in\n    tag_267:\n      mload(0x40)\n      tag_270\n      swap2\n      swap1\n      tag_88\n      jump\t// in\n    tag_270:\n      mload(0x40)\n      dup1\n      swap2\n      sub\n      swap1\n      return\n        /* \"contracts/kapai/Stakev1.sol\":9598:9626  address public _lpPriceToken */\n    tag_58:\n      tag_271\n      tag_272\n      jump\t// in\n    tag_271:\n      mload(0x40)\n      tag_273\n      swap2\n      swap1\n      tag_121\n      jump\t// in\n    tag_273:\n      mload(0x40)\n      dup1\n      swap2\n      sub\n      swap1\n      return\n        /* \"contracts/kapai/Stakev1.sol\":10067:10098  bool public isClaimStart = true */\n    tag_59:\n      tag_274\n      tag_275\n      jump\t// in\n    tag_274:\n      mload(0x40)\n      tag_276\n      swap2\n      swap1\n      tag_103\n      jump\t// in\n    tag_276:\n      mload(0x40)\n      dup1\n      swap2\n      sub\n      swap1\n      return\n        /* \"contracts/kapai/Stakev1.sol\":10131:10150  string public words */\n    tag_60:\n      tag_277\n      tag_278\n      jump\t// in\n    tag_277:\n      mload(0x40)\n      tag_279\n      swap2\n      swap1\n      tag_280\n      jump\t// in\n    tag_279:\n      mload(0x40)\n      dup1\n      swap2\n      sub\n      swap1\n      return\n        /* \"@openzeppelin/contracts-upgradeable/access/OwnableUpgradeable.sol\":3405:3620  function transferOwnership(address newOwner) public virtual onlyOwner {... */\n    tag_61:\n      tag_281\n      0x04\n      dup1\n      calldatasize\n      sub\n      dup2\n      add\n      swap1\n      tag_282\n      swap2\n      swap1\n      tag_85\n      jump\t// in\n    tag_282:\n      tag_283\n      jump\t// in\n    tag_281:\n      stop\n        /* \"contracts/kapai/Stakev1.sol\":10009:10040  bool public isStakeStart = true */\n    tag_62:\n      tag_284\n      tag_285\n      jump\t// in\n    tag_284:\n      mload(0x40)\n      tag_286\n      swap2\n      swap1\n      tag_103\n      jump\t// in\n    tag_286:\n      mload(0x40)\n      dup1\n      swap2\n      sub\n      swap1\n      return\n        /* \"contracts/kapai/Stakev1.sol\":17656:17757  function getInviteCount() external view returns (uint256) {... */\n    tag_63:\n      tag_287\n      tag_288\n      jump\t// in\n    tag_287:\n      mload(0x40)\n      tag_289\n      swap2\n      swap1\n      tag_88\n      jump\t// in\n    tag_289:\n      mload(0x40)\n      dup1\n      swap2\n      sub\n      swap1\n      return\n        /* \"contracts/kapai/Stakev1.sol\":12557:12660  function setProportion(uint256 proportion_) public onlyOwner {... */\n    tag_82:\n        /* \"@openzeppelin/contracts-upgradeable/access/OwnableUpgradeable.sol\":2334:2347  _checkOwner() */\n      tag_291\n        /* \"@openzeppelin/contracts-upgradeable/access/OwnableUpgradeable.sol\":2334:2345  _checkOwner */\n      tag_292\n        /* \"@openzeppelin/contracts-upgradeable/access/OwnableUpgradeable.sol\":2334:2347  _checkOwner() */\n      jump\t// in\n    tag_291:\n        /* \"contracts/kapai/Stakev1.sol\":12642:12653  proportion_ */\n      dup1\n        /* \"contracts/kapai/Stakev1.sol\":12628:12639  _proportion */\n      0x09\n        /* \"contracts/kapai/Stakev1.sol\":12628:12653  _proportion = proportion_ */\n      dup2\n      swap1\n      sstore\n      pop\n        /* \"contracts/kapai/Stakev1.sol\":12557:12660  function setProportion(uint256 proportion_) public onlyOwner {... */\n      pop\n      jump\t// out\n        /* \"contracts/kapai/Stakev1.sol\":10899:10951  mapping(address => uint256) public _userEndClaimTime */\n    tag_86:\n      mstore(0x20, 0x15)\n      dup1\n      0x00\n      mstore\n      keccak256(0x00, 0x40)\n      0x00\n      swap2\n      pop\n      swap1\n      pop\n      sload\n      dup2\n      jump\t// out\n        /* \"contracts/kapai/Stakev1.sol\":12835:12926  function setStakeToken(address token) public onlyOwner {... */\n    tag_91:\n        /* \"@openzeppelin/contracts-upgradeable/access/OwnableUpgradeable.sol\":2334:2347  _checkOwner() */\n      tag_295\n        /* \"@openzeppelin/contracts-upgradeable/access/OwnableUpgradeable.sol\":2334:2345  _checkOwner */\n      tag_292\n        /* \"@openzeppelin/contracts-upgradeable/access/OwnableUpgradeable.sol\":2334:2347  _checkOwner() */\n      jump\t// in\n    tag_295:\n        /* \"contracts/kapai/Stakev1.sol\":12914:12919  token */\n      dup1\n        /* \"contracts/kapai/Stakev1.sol\":12900:12911  _stakeToken */\n      0x01\n      0x00\n        /* \"contracts/kapai/Stakev1.sol\":12900:12919  _stakeToken = token */\n      0x0100\n      exp\n      dup2\n      sload\n      dup2\n      0xffffffffffffffffffffffffffffffffffffffff\n      mul\n      not\n      and\n      swap1\n      dup4\n      0xffffffffffffffffffffffffffffffffffffffff\n      and\n      mul\n      or\n      swap1\n      sstore\n      pop\n        /* \"contracts/kapai/Stakev1.sol\":12835:12926  function setStakeToken(address token) public onlyOwner {... */\n      pop\n      jump\t// out\n        /* \"contracts/kapai/Stakev1.sol\":14062:14329  function ownerSetUser1(... */\n    tag_95:\n        /* \"@openzeppelin/contracts-upgradeable/access/OwnableUpgradeable.sol\":2334:2347  _checkOwner() */\n      tag_298\n        /* \"@openzeppelin/contracts-upgradeable/access/OwnableUpgradeable.sol\":2334:2345  _checkOwner */\n      tag_292\n        /* \"@openzeppelin/contracts-upgradeable/access/OwnableUpgradeable.sol\":2334:2347  _checkOwner() */\n      jump\t// in\n    tag_298:\n        /* \"contracts/kapai/Stakev1.sol\":14234:14240  amount */\n      dup3\n        /* \"contracts/kapai/Stakev1.sol\":14215:14225  _userStake */\n      0x0f\n        /* \"contracts/kapai/Stakev1.sol\":14215:14231  _userStake[user] */\n      0x00\n        /* \"contracts/kapai/Stakev1.sol\":14226:14230  user */\n      dup7\n        /* \"contracts/kapai/Stakev1.sol\":14215:14231  _userStake[user] */\n      0xffffffffffffffffffffffffffffffffffffffff\n      and\n      0xffffffffffffffffffffffffffffffffffffffff\n      and\n      dup2\n      mstore\n      0x20\n      add\n      swap1\n      dup2\n      mstore\n      0x20\n      add\n      0x00\n      keccak256\n        /* \"contracts/kapai/Stakev1.sol\":14215:14240  _userStake[user] = amount */\n      dup2\n      swap1\n      sstore\n      pop\n        /* \"contracts/kapai/Stakev1.sol\":14270:14277  amountA */\n      dup2\n        /* \"contracts/kapai/Stakev1.sol\":14250:14261  _userStakeA */\n      0x10\n        /* \"contracts/kapai/Stakev1.sol\":14250:14267  _userStakeA[user] */\n      0x00\n        /* \"contracts/kapai/Stakev1.sol\":14262:14266  user */\n      dup7\n        /* \"contracts/kapai/Stakev1.sol\":14250:14267  _userStakeA[user] */\n      0xffffffffffffffffffffffffffffffffffffffff\n      and\n      0xffffffffffffffffffffffffffffffffffffffff\n      and\n      dup2\n      mstore\n      0x20\n      add\n      swap1\n      dup2\n      mstore\n      0x20\n      add\n      0x00\n      keccak256\n        /* \"contracts/kapai/Stakev1.sol\":14250:14277  _userStakeA[user] = amountA */\n      dup2\n      swap1\n      sstore\n      pop\n        /* \"contracts/kapai/Stakev1.sol\":14307:14314  amountB */\n      dup1\n        /* \"contracts/kapai/Stakev1.sol\":14287:14298  _userStakeB */\n      0x11\n        /* \"contracts/kapai/Stakev1.sol\":14287:14304  _userStakeB[user] */\n      0x00\n        /* \"contracts/kapai/Stakev1.sol\":14299:14303  user */\n      dup7\n        /* \"contracts/kapai/Stakev1.sol\":14287:14304  _userStakeB[user] */\n      0xffffffffffffffffffffffffffffffffffffffff\n      and\n      0xffffffffffffffffffffffffffffffffffffffff\n      and\n      dup2\n      mstore\n      0x20\n      add\n      swap1\n      dup2\n      mstore\n      0x20\n      add\n      0x00\n      keccak256\n        /* \"contracts/kapai/Stakev1.sol\":14287:14314  _userStakeB[user] = amountB */\n      dup2\n      swap1\n      sstore\n      pop\n        /* \"contracts/kapai/Stakev1.sol\":14062:14329  function ownerSetUser1(... */\n      pop\n      pop\n      pop\n      pop\n      jump\t// out\n        /* \"contracts/kapai/Stakev1.sol\":14370:14767  function ownerSetUserStakeAB0(... */\n    tag_98:\n        /* \"@openzeppelin/contracts-upgradeable/access/OwnableUpgradeable.sol\":2334:2347  _checkOwner() */\n      tag_301\n        /* \"@openzeppelin/contracts-upgradeable/access/OwnableUpgradeable.sol\":2334:2345  _checkOwner */\n      tag_292\n        /* \"@openzeppelin/contracts-upgradeable/access/OwnableUpgradeable.sol\":2334:2347  _checkOwner() */\n      jump\t// in\n    tag_301:\n        /* \"contracts/kapai/Stakev1.sol\":14474:14475  0 */\n      0x00\n        /* \"contracts/kapai/Stakev1.sol\":14455:14465  _userStake */\n      0x0f\n        /* \"contracts/kapai/Stakev1.sol\":14455:14471  _userStake[user] */\n      0x00\n        /* \"contracts/kapai/Stakev1.sol\":14466:14470  user */\n      dup4\n        /* \"contracts/kapai/Stakev1.sol\":14455:14471  _userStake[user] */\n      0xffffffffffffffffffffffffffffffffffffffff\n      and\n      0xffffffffffffffffffffffffffffffffffffffff\n      and\n      dup2\n      mstore\n      0x20\n      add\n      swap1\n      dup2\n      mstore\n      0x20\n      add\n      0x00\n      keccak256\n        /* \"contracts/kapai/Stakev1.sol\":14455:14475  _userStake[user] = 0 */\n      dup2\n      swap1\n      sstore\n      pop\n        /* \"contracts/kapai/Stakev1.sol\":14505:14506  0 */\n      0x00\n        /* \"contracts/kapai/Stakev1.sol\":14485:14496  _userStakeA */\n      0x10\n        /* \"contracts/kapai/Stakev1.sol\":14485:14502  _userStakeA[user] */\n      0x00\n        /* \"contracts/kapai/Stakev1.sol\":14497:14501  user */\n      dup4\n        /* \"contracts/kapai/Stakev1.sol\":14485:14502  _userStakeA[user] */\n      0xffffffffffffffffffffffffffffffffffffffff\n      and\n      0xffffffffffffffffffffffffffffffffffffffff\n      and\n      dup2\n      mstore\n      0x20\n      add\n      swap1\n      dup2\n      mstore\n      0x20\n      add\n      0x00\n      keccak256\n        /* \"contracts/kapai/Stakev1.sol\":14485:14506  _userStakeA[user] = 0 */\n      dup2\n      swap1\n      sstore\n      pop\n        /* \"contracts/kapai/Stakev1.sol\":14536:14537  0 */\n      0x00\n        /* \"contracts/kapai/Stakev1.sol\":14516:14527  _userStakeB */\n      0x11\n        /* \"contracts/kapai/Stakev1.sol\":14516:14533  _userStakeB[user] */\n      0x00\n        /* \"contracts/kapai/Stakev1.sol\":14528:14532  user */\n      dup4\n        /* \"contracts/kapai/Stakev1.sol\":14516:14533  _userStakeB[user] */\n      0xffffffffffffffffffffffffffffffffffffffff\n      and\n      0xffffffffffffffffffffffffffffffffffffffff\n      and\n      dup2\n      mstore\n      0x20\n      add\n      swap1\n      dup2\n      mstore\n      0x20\n      add\n      0x00\n      keccak256\n        /* \"contracts/kapai/Stakev1.sol\":14516:14537  _userStakeB[user] = 0 */\n      dup2\n      swap1\n      sstore\n      pop\n        /* \"contracts/kapai/Stakev1.sol\":14570:14571  0 */\n      0x00\n        /* \"contracts/kapai/Stakev1.sol\":14547:14561  _userStakeTime */\n      0x12\n        /* \"contracts/kapai/Stakev1.sol\":14547:14567  _userStakeTime[user] */\n      0x00\n        /* \"contracts/kapai/Stakev1.sol\":14562:14566  user */\n      dup4\n        /* \"contracts/kapai/Stakev1.sol\":14547:14567  _userStakeTime[user] */\n      0xffffffffffffffffffffffffffffffffffffffff\n      and\n      0xffffffffffffffffffffffffffffffffffffffff\n      and\n      dup2\n      mstore\n      0x20\n      add\n      swap1\n      dup2\n      mstore\n      0x20\n      add\n      0x00\n      keccak256\n        /* \"contracts/kapai/Stakev1.sol\":14547:14571  _userStakeTime[user] = 0 */\n      dup2\n      swap1\n      sstore\n      pop\n        /* \"contracts/kapai/Stakev1.sol\":14609:14610  0 */\n      0x00\n        /* \"contracts/kapai/Stakev1.sol\":14581:14600  _userStakeStartTime */\n      0x13\n        /* \"contracts/kapai/Stakev1.sol\":14581:14606  _userStakeStartTime[user] */\n      0x00\n        /* \"contracts/kapai/Stakev1.sol\":14601:14605  user */\n      dup4\n        /* \"contracts/kapai/Stakev1.sol\":14581:14606  _userStakeStartTime[user] */\n      0xffffffffffffffffffffffffffffffffffffffff\n      and\n      0xffffffffffffffffffffffffffffffffffffffff\n      and\n      dup2\n      mstore\n      0x20\n      add\n      swap1\n      dup2\n      mstore\n      0x20\n      add\n      0x00\n      keccak256\n        /* \"contracts/kapai/Stakev1.sol\":14581:14610  _userStakeStartTime[user] = 0 */\n      dup2\n      swap1\n      sstore\n      pop\n        /* \"contracts/kapai/Stakev1.sol\":14647:14648  0 */\n      0x00\n        /* \"contracts/kapai/Stakev1.sol\":14620:14638  _userLastClaimTime */\n      0x14\n        /* \"contracts/kapai/Stakev1.sol\":14620:14644  _userLastClaimTime[user] */\n      0x00\n        /* \"contracts/kapai/Stakev1.sol\":14639:14643  user */\n      dup4\n        /* \"contracts/kapai/Stakev1.sol\":14620:14644  _userLastClaimTime[user] */\n      0xffffffffffffffffffffffffffffffffffffffff\n      and\n      0xffffffffffffffffffffffffffffffffffffffff\n      and\n      dup2\n      mstore\n      0x20\n      add\n      swap1\n      dup2\n      mstore\n      0x20\n      add\n      0x00\n      keccak256\n        /* \"contracts/kapai/Stakev1.sol\":14620:14648  _userLastClaimTime[user] = 0 */\n      dup2\n      swap1\n      sstore\n      pop\n        /* \"contracts/kapai/Stakev1.sol\":14677:14678  0 */\n      0x00\n        /* \"contracts/kapai/Stakev1.sol\":14658:14668  _userPower */\n      0x16\n        /* \"contracts/kapai/Stakev1.sol\":14658:14674  _userPower[user] */\n      0x00\n        /* \"contracts/kapai/Stakev1.sol\":14669:14673  user */\n      dup4\n        /* \"contracts/kapai/Stakev1.sol\":14658:14674  _userPower[user] */\n      0xffffffffffffffffffffffffffffffffffffffff\n      and\n      0xffffffffffffffffffffffffffffffffffffffff\n      and\n      dup2\n      mstore\n      0x20\n      add\n      swap1\n      dup2\n      mstore\n      0x20\n      add\n      0x00\n      keccak256\n        /* \"contracts/kapai/Stakev1.sol\":14658:14678  _userPower[user] = 0 */\n      dup2\n      swap1\n      sstore\n      pop\n        /* \"contracts/kapai/Stakev1.sol\":14714:14715  0 */\n      0x00\n        /* \"contracts/kapai/Stakev1.sol\":14688:14705  _userEndClaimTime */\n      0x15\n        /* \"contracts/kapai/Stakev1.sol\":14688:14711  _userEndClaimTime[user] */\n      0x00\n        /* \"contracts/kapai/Stakev1.sol\":14706:14710  user */\n      dup4\n        /* \"contracts/kapai/Stakev1.sol\":14688:14711  _userEndClaimTime[user] */\n      0xffffffffffffffffffffffffffffffffffffffff\n      and\n      0xffffffffffffffffffffffffffffffffffffffff\n      and\n      dup2\n      mstore\n      0x20\n      add\n      swap1\n      dup2\n      mstore\n      0x20\n      add\n      0x00\n      keccak256\n        /* \"contracts/kapai/Stakev1.sol\":14688:14715  _userEndClaimTime[user] = 0 */\n      dup2\n      swap1\n      sstore\n      pop\n        /* \"contracts/kapai/Stakev1.sol\":14759:14760  0 */\n      0x00\n        /* \"contracts/kapai/Stakev1.sol\":14725:14750  _userStakeMonthlyearnings */\n      0x18\n        /* \"contracts/kapai/Stakev1.sol\":14725:14756  _userStakeMonthlyearnings[user] */\n      0x00\n        /* \"contracts/kapai/Stakev1.sol\":14751:14755  user */\n      dup4\n        /* \"contracts/kapai/Stakev1.sol\":14725:14756  _userStakeMonthlyearnings[user] */\n      0xffffffffffffffffffffffffffffffffffffffff\n      and\n      0xffffffffffffffffffffffffffffffffffffffff\n      and\n      dup2\n      mstore\n      0x20\n      add\n      swap1\n      dup2\n      mstore\n      0x20\n      add\n      0x00\n      keccak256\n        /* \"contracts/kapai/Stakev1.sol\":14725:14760  _userStakeMonthlyearnings[user] = 0 */\n      dup2\n      swap1\n      sstore\n      pop\n        /* \"contracts/kapai/Stakev1.sol\":14370:14767  function ownerSetUserStakeAB0(... */\n      pop\n      jump\t// out\n        /* \"contracts/kapai/Stakev1.sol\":11044:11090  mapping(address => bool) public _userBlacklist */\n    tag_101:\n      mstore(0x20, 0x17)\n      dup1\n      0x00\n      mstore\n      keccak256(0x00, 0x40)\n      0x00\n      swap2\n      pop\n      sload\n      swap1\n      0x0100\n      exp\n      swap1\n      div\n      0xff\n      and\n      dup2\n      jump\t// out\n        /* \"contracts/kapai/Stakev1.sol\":10720:10774  mapping(address => uint256) public _userStakeStartTime */\n    tag_106:\n      mstore(0x20, 0x13)\n      dup1\n      0x00\n      mstore\n      keccak256(0x00, 0x40)\n      0x00\n      swap2\n      pop\n      swap1\n      pop\n      sload\n      dup2\n      jump\t// out\n        /* \"contracts/kapai/Stakev1.sol\":11833:11919  function set_lpToken(address token) public onlyOwner {... */\n    tag_110:\n        /* \"@openzeppelin/contracts-upgradeable/access/OwnableUpgradeable.sol\":2334:2347  _checkOwner() */\n      tag_304\n        /* \"@openzeppelin/contracts-upgradeable/access/OwnableUpgradeable.sol\":2334:2345  _checkOwner */\n      tag_292\n        /* \"@openzeppelin/contracts-upgradeable/access/OwnableUpgradeable.sol\":2334:2347  _checkOwner() */\n      jump\t// in\n    tag_304:\n        /* \"contracts/kapai/Stakev1.sol\":11907:11912  token */\n      dup1\n        /* \"contracts/kapai/Stakev1.sol\":11896:11904  _lpToken */\n      0x1a\n      0x00\n        /* \"contracts/kapai/Stakev1.sol\":11896:11912  _lpToken = token */\n      0x0100\n      exp\n      dup2\n      sload\n      dup2\n      0xffffffffffffffffffffffffffffffffffffffff\n      mul\n      not\n      and\n      swap1\n      dup4\n      0xffffffffffffffffffffffffffffffffffffffff\n      and\n      mul\n      or\n      swap1\n      sstore\n      pop\n        /* \"contracts/kapai/Stakev1.sol\":11833:11919  function set_lpToken(address token) public onlyOwner {... */\n      pop\n      jump\t// out\n        /* \"contracts/kapai/Stakev1.sol\":9913:9935  uint256 public _stake5 */\n    tag_112:\n      sload(0x08)\n      dup2\n      jump\t// out\n        /* \"contracts/kapai/Stakev1.sol\":10348:10393  mapping(address => uint256) public _inviteNum */\n    tag_116:\n      mstore(0x20, 0x0e)\n      dup1\n      0x00\n      mstore\n      keccak256(0x00, 0x40)\n      0x00\n      swap2\n      pop\n      swap1\n      pop\n      sload\n      dup2\n      jump\t// out\n        /* \"contracts/kapai/Stakev1.sol\":11692:11714  address public _cToken */\n    tag_119:\n      0x1f\n      0x00\n      swap1\n      sload\n      swap1\n      0x0100\n      exp\n      swap1\n      div\n      0xffffffffffffffffffffffffffffffffffffffff\n      and\n      dup2\n      jump\t// out\n        /* \"contracts/kapai/Stakev1.sol\":11435:11488  mapping(address => uint256) public _userMoonClaimTime */\n    tag_124:\n      mstore(0x20, 0x1c)\n      dup1\n      0x00\n      mstore\n      keccak256(0x00, 0x40)\n      0x00\n      swap2\n      pop\n      swap1\n      pop\n      sload\n      dup2\n      jump\t// out\n        /* \"contracts/kapai/Stakev1.sol\":11944:12029  function set_aToken(address token) public  onlyOwner {... */\n    tag_128:\n        /* \"@openzeppelin/contracts-upgradeable/access/OwnableUpgradeable.sol\":2334:2347  _checkOwner() */\n      tag_307\n        /* \"@openzeppelin/contracts-upgradeable/access/OwnableUpgradeable.sol\":2334:2345  _checkOwner */\n      tag_292\n        /* \"@openzeppelin/contracts-upgradeable/access/OwnableUpgradeable.sol\":2334:2347  _checkOwner() */\n      jump\t// in\n    tag_307:\n        /* \"contracts/kapai/Stakev1.sol\":12017:12022  token */\n      dup1\n        /* \"contracts/kapai/Stakev1.sol\":12007:12014  _aToken */\n      0x03\n      0x00\n        /* \"contracts/kapai/Stakev1.sol\":12007:12022  _aToken = token */\n      0x0100\n      exp\n      dup2\n      sload\n      dup2\n      0xffffffffffffffffffffffffffffffffffffffff\n      mul\n      not\n      and\n      swap1\n      dup4\n      0xffffffffffffffffffffffffffffffffffffffff\n      and\n      mul\n      or\n      swap1\n      sstore\n      pop\n        /* \"contracts/kapai/Stakev1.sol\":11944:12029  function set_aToken(address token) public  onlyOwner {... */\n      pop\n      jump\t// out\n        /* \"contracts/kapai/Stakev1.sol\":15756:15952  function ownerSetUseMoonClaimNumber(... */\n    tag_132:\n        /* \"@openzeppelin/contracts-upgradeable/access/OwnableUpgradeable.sol\":2334:2347  _checkOwner() */\n      tag_310\n        /* \"@openzeppelin/contracts-upgradeable/access/OwnableUpgradeable.sol\":2334:2345  _checkOwner */\n      tag_292\n        /* \"@openzeppelin/contracts-upgradeable/access/OwnableUpgradeable.sol\":2334:2347  _checkOwner() */\n      jump\t// in\n    tag_310:\n        /* \"contracts/kapai/Stakev1.sol\":15923:15938  MoonClaimNumber */\n      dup1\n        /* \"contracts/kapai/Stakev1.sol\":15894:15914  _userMoonClaimNumber */\n      0x1d\n        /* \"contracts/kapai/Stakev1.sol\":15894:15920  _userMoonClaimNumber[user] */\n      0x00\n        /* \"contracts/kapai/Stakev1.sol\":15915:15919  user */\n      dup5\n        /* \"contracts/kapai/Stakev1.sol\":15894:15920  _userMoonClaimNumber[user] */\n      0xffffffffffffffffffffffffffffffffffffffff\n      and\n      0xffffffffffffffffffffffffffffffffffffffff\n      and\n      dup2\n      mstore\n      0x20\n      add\n      swap1\n      dup2\n      mstore\n      0x20\n      add\n      0x00\n      keccak256\n        /* \"contracts/kapai/Stakev1.sol\":15894:15938  _userMoonClaimNumber[user] = MoonClaimNumber */\n      dup2\n      swap1\n      sstore\n      pop\n        /* \"contracts/kapai/Stakev1.sol\":15756:15952  function ownerSetUseMoonClaimNumber(... */\n      pop\n      pop\n      jump\t// out\n        /* \"contracts/kapai/Stakev1.sol\":10211:10257  mapping(address => address) public _inviterMap */\n    tag_135:\n      mstore(0x20, 0x0c)\n      dup1\n      0x00\n      mstore\n      keccak256(0x00, 0x40)\n      0x00\n      swap2\n      pop\n      sload\n      swap1\n      0x0100\n      exp\n      swap1\n      div\n      0xffffffffffffffffffffffffffffffffffffffff\n      and\n      dup2\n      jump\t// out\n        /* \"contracts/kapai/Stakev1.sol\":14813:15194  function UserStakeAB0(... */\n    tag_139:\n        /* \"contracts/kapai/Stakev1.sol\":14901:14902  0 */\n      0x00\n        /* \"contracts/kapai/Stakev1.sol\":14882:14892  _userStake */\n      0x0f\n        /* \"contracts/kapai/Stakev1.sol\":14882:14898  _userStake[user] */\n      0x00\n        /* \"contracts/kapai/Stakev1.sol\":14893:14897  user */\n      dup4\n        /* \"contracts/kapai/Stakev1.sol\":14882:14898  _userStake[user] */\n      0xffffffffffffffffffffffffffffffffffffffff\n      and\n      0xffffffffffffffffffffffffffffffffffffffff\n      and\n      dup2\n      mstore\n      0x20\n      add\n      swap1\n      dup2\n      mstore\n      0x20\n      add\n      0x00\n      keccak256\n        /* \"contracts/kapai/Stakev1.sol\":14882:14902  _userStake[user] = 0 */\n      dup2\n      swap1\n      sstore\n      pop\n        /* \"contracts/kapai/Stakev1.sol\":14932:14933  0 */\n      0x00\n        /* \"contracts/kapai/Stakev1.sol\":14912:14923  _userStakeA */\n      0x10\n        /* \"contracts/kapai/Stakev1.sol\":14912:14929  _userStakeA[user] */\n      0x00\n        /* \"contracts/kapai/Stakev1.sol\":14924:14928  user */\n      dup4\n        /* \"contracts/kapai/Stakev1.sol\":14912:14929  _userStakeA[user] */\n      0xffffffffffffffffffffffffffffffffffffffff\n      and\n      0xffffffffffffffffffffffffffffffffffffffff\n      and\n      dup2\n      mstore\n      0x20\n      add\n      swap1\n      dup2\n      mstore\n      0x20\n      add\n      0x00\n      keccak256\n        /* \"contracts/kapai/Stakev1.sol\":14912:14933  _userStakeA[user] = 0 */\n      dup2\n      swap1\n      sstore\n      pop\n        /* \"contracts/kapai/Stakev1.sol\":14963:14964  0 */\n      0x00\n        /* \"contracts/kapai/Stakev1.sol\":14943:14954  _userStakeB */\n      0x11\n        /* \"contracts/kapai/Stakev1.sol\":14943:14960  _userStakeB[user] */\n      0x00\n        /* \"contracts/kapai/Stakev1.sol\":14955:14959  user */\n      dup4\n        /* \"contracts/kapai/Stakev1.sol\":14943:14960  _userStakeB[user] */\n      0xffffffffffffffffffffffffffffffffffffffff\n      and\n      0xffffffffffffffffffffffffffffffffffffffff\n      and\n      dup2\n      mstore\n      0x20\n      add\n      swap1\n      dup2\n      mstore\n      0x20\n      add\n      0x00\n      keccak256\n        /* \"contracts/kapai/Stakev1.sol\":14943:14964  _userStakeB[user] = 0 */\n      dup2\n      swap1\n      sstore\n      pop\n        /* \"contracts/kapai/Stakev1.sol\":14997:14998  0 */\n      0x00\n        /* \"contracts/kapai/Stakev1.sol\":14974:14988  _userStakeTime */\n      0x12\n        /* \"contracts/kapai/Stakev1.sol\":14974:14994  _userStakeTime[user] */\n      0x00\n        /* \"contracts/kapai/Stakev1.sol\":14989:14993  user */\n      dup4\n        /* \"contracts/kapai/Stakev1.sol\":14974:14994  _userStakeTime[user] */\n      0xffffffffffffffffffffffffffffffffffffffff\n      and\n      0xffffffffffffffffffffffffffffffffffffffff\n      and\n      dup2\n      mstore\n      0x20\n      add\n      swap1\n      dup2\n      mstore\n      0x20\n      add\n      0x00\n      keccak256\n        /* \"contracts/kapai/Stakev1.sol\":14974:14998  _userStakeTime[user] = 0 */\n      dup2\n      swap1\n      sstore\n      pop\n        /* \"contracts/kapai/Stakev1.sol\":15036:15037  0 */\n      0x00\n        /* \"contracts/kapai/Stakev1.sol\":15008:15027  _userStakeStartTime */\n      0x13\n        /* \"contracts/kapai/Stakev1.sol\":15008:15033  _userStakeStartTime[user] */\n      0x00\n        /* \"contracts/kapai/Stakev1.sol\":15028:15032  user */\n      dup4\n        /* \"contracts/kapai/Stakev1.sol\":15008:15033  _userStakeStartTime[user] */\n      0xffffffffffffffffffffffffffffffffffffffff\n      and\n      0xffffffffffffffffffffffffffffffffffffffff\n      and\n      dup2\n      mstore\n      0x20\n      add\n      swap1\n      dup2\n      mstore\n      0x20\n      add\n      0x00\n      keccak256\n        /* \"contracts/kapai/Stakev1.sol\":15008:15037  _userStakeStartTime[user] = 0 */\n      dup2\n      swap1\n      sstore\n      pop\n        /* \"contracts/kapai/Stakev1.sol\":15074:15075  0 */\n      0x00\n        /* \"contracts/kapai/Stakev1.sol\":15047:15065  _userLastClaimTime */\n      0x14\n        /* \"contracts/kapai/Stakev1.sol\":15047:15071  _userLastClaimTime[user] */\n      0x00\n        /* \"contracts/kapai/Stakev1.sol\":15066:15070  user */\n      dup4\n        /* \"contracts/kapai/Stakev1.sol\":15047:15071  _userLastClaimTime[user] */\n      0xffffffffffffffffffffffffffffffffffffffff\n      and\n      0xffffffffffffffffffffffffffffffffffffffff\n      and\n      dup2\n      mstore\n      0x20\n      add\n      swap1\n      dup2\n      mstore\n      0x20\n      add\n      0x00\n      keccak256\n        /* \"contracts/kapai/Stakev1.sol\":15047:15075  _userLastClaimTime[user] = 0 */\n      dup2\n      swap1\n      sstore\n      pop\n        /* \"contracts/kapai/Stakev1.sol\":15104:15105  0 */\n      0x00\n        /* \"contracts/kapai/Stakev1.sol\":15085:15095  _userPower */\n      0x16\n        /* \"contracts/kapai/Stakev1.sol\":15085:15101  _userPower[user] */\n      0x00\n        /* \"contracts/kapai/Stakev1.sol\":15096:15100  user */\n      dup4\n        /* \"contracts/kapai/Stakev1.sol\":15085:15101  _userPower[user] */\n      0xffffffffffffffffffffffffffffffffffffffff\n      and\n      0xffffffffffffffffffffffffffffffffffffffff\n      and\n      dup2\n      mstore\n      0x20\n      add\n      swap1\n      dup2\n      mstore\n      0x20\n      add\n      0x00\n      keccak256\n        /* \"contracts/kapai/Stakev1.sol\":15085:15105  _userPower[user] = 0 */\n      dup2\n      swap1\n      sstore\n      pop\n        /* \"contracts/kapai/Stakev1.sol\":15141:15142  0 */\n      0x00\n        /* \"contracts/kapai/Stakev1.sol\":15115:15132  _userEndClaimTime */\n      0x15\n        /* \"contracts/kapai/Stakev1.sol\":15115:15138  _userEndClaimTime[user] */\n      0x00\n        /* \"contracts/kapai/Stakev1.sol\":15133:15137  user */\n      dup4\n        /* \"contracts/kapai/Stakev1.sol\":15115:15138  _userEndClaimTime[user] */\n      0xffffffffffffffffffffffffffffffffffffffff\n      and\n      0xffffffffffffffffffffffffffffffffffffffff\n      and\n      dup2\n      mstore\n      0x20\n      add\n      swap1\n      dup2\n      mstore\n      0x20\n      add\n      0x00\n      keccak256\n        /* \"contracts/kapai/Stakev1.sol\":15115:15142  _userEndClaimTime[user] = 0 */\n      dup2\n      swap1\n      sstore\n      pop\n        /* \"contracts/kapai/Stakev1.sol\":15186:15187  0 */\n      0x00\n        /* \"contracts/kapai/Stakev1.sol\":15152:15177  _userStakeMonthlyearnings */\n      0x18\n        /* \"contracts/kapai/Stakev1.sol\":15152:15183  _userStakeMonthlyearnings[user] */\n      0x00\n        /* \"contracts/kapai/Stakev1.sol\":15178:15182  user */\n      dup4\n        /* \"contracts/kapai/Stakev1.sol\":15152:15183  _userStakeMonthlyearnings[user] */\n      0xffffffffffffffffffffffffffffffffffffffff\n      and\n      0xffffffffffffffffffffffffffffffffffffffff\n      and\n      dup2\n      mstore\n      0x20\n      add\n      swap1\n      dup2\n      mstore\n      0x20\n      add\n      0x00\n      keccak256\n        /* \"contracts/kapai/Stakev1.sol\":15152:15187  _userStakeMonthlyearnings[user] = 0 */\n      dup2\n      swap1\n      sstore\n      pop\n        /* \"contracts/kapai/Stakev1.sol\":14813:15194  function UserStakeAB0(... */\n      pop\n      jump\t// out\n        /* \"contracts/kapai/Stakev1.sol\":12054:12138  function set_bToken(address token) public onlyOwner {... */\n    tag_142:\n        /* \"@openzeppelin/contracts-upgradeable/access/OwnableUpgradeable.sol\":2334:2347  _checkOwner() */\n      tag_314\n        /* \"@openzeppelin/contracts-upgradeable/access/OwnableUpgradeable.sol\":2334:2345  _checkOwner */\n      tag_292\n        /* \"@openzeppelin/contracts-upgradeable/access/OwnableUpgradeable.sol\":2334:2347  _checkOwner() */\n      jump\t// in\n    tag_314:\n        /* \"contracts/kapai/Stakev1.sol\":12126:12131  token */\n      dup1\n        /* \"contracts/kapai/Stakev1.sol\":12116:12123  _bToken */\n      0x04\n      0x00\n        /* \"contracts/kapai/Stakev1.sol\":12116:12131  _bToken = token */\n      0x0100\n      exp\n      dup2\n      sload\n      dup2\n      0xffffffffffffffffffffffffffffffffffffffff\n      mul\n      not\n      and\n      swap1\n      dup4\n      0xffffffffffffffffffffffffffffffffffffffff\n      and\n      mul\n      or\n      swap1\n      sstore\n      pop\n        /* \"contracts/kapai/Stakev1.sol\":12054:12138  function set_bToken(address token) public onlyOwner {... */\n      pop\n      jump\t// out\n        /* \"contracts/kapai/Stakev1.sol\":11328:11351  address public _lpToken */\n    tag_144:\n      0x1a\n      0x00\n      swap1\n      sload\n      swap1\n      0x0100\n      exp\n      swap1\n      div\n      0xffffffffffffffffffffffffffffffffffffffff\n      and\n      dup2\n      jump\t// out\n        /* \"contracts/kapai/Stakev1.sol\":17294:17615  function getInvitationByIndex(uint256 index) external view returns (address inviter, address invitee) {... */\n    tag_148:\n        /* \"contracts/kapai/Stakev1.sol\":17362:17377  address inviter */\n      0x00\n        /* \"contracts/kapai/Stakev1.sol\":17379:17394  address invitee */\n      dup1\n        /* \"contracts/kapai/Stakev1.sol\":17422:17434  _inviterList */\n      0x1e\n        /* \"contracts/kapai/Stakev1.sol\":17422:17441  _inviterList.length */\n      dup1\n      sload\n      swap1\n      pop\n        /* \"contracts/kapai/Stakev1.sol\":17414:17419  index */\n      dup4\n        /* \"contracts/kapai/Stakev1.sol\":17414:17441  index < _inviterList.length */\n      lt\n        /* \"contracts/kapai/Stakev1.sol\":17406:17464  require(index < _inviterList.length, \"Index out of range\") */\n      tag_317\n      jumpi\n      mload(0x40)\n      0x08c379a000000000000000000000000000000000000000000000000000000000\n      dup2\n      mstore\n      0x04\n      add\n      tag_318\n      swap1\n      tag_319\n      jump\t// in\n    tag_318:\n      mload(0x40)\n      dup1\n      swap2\n      sub\n      swap1\n      revert\n    tag_317:\n        /* \"contracts/kapai/Stakev1.sol\":17483:17505  address inviteeAddress */\n      0x00\n        /* \"contracts/kapai/Stakev1.sol\":17508:17520  _inviterList */\n      0x1e\n        /* \"contracts/kapai/Stakev1.sol\":17521:17526  index */\n      dup5\n        /* \"contracts/kapai/Stakev1.sol\":17508:17527  _inviterList[index] */\n      dup2\n      sload\n      dup2\n      lt\n      tag_320\n      jumpi\n      tag_321\n      tag_322\n      jump\t// in\n    tag_321:\n    tag_320:\n      swap1\n      0x00\n      mstore\n      keccak256(0x00, 0x20)\n      add\n      0x00\n      swap1\n      sload\n      swap1\n      0x0100\n      exp\n      swap1\n      div\n      0xffffffffffffffffffffffffffffffffffffffff\n      and\n        /* \"contracts/kapai/Stakev1.sol\":17483:17527  address inviteeAddress = _inviterList[index] */\n      swap1\n      pop\n        /* \"contracts/kapai/Stakev1.sol\":17547:17561  inviteeAddress */\n      dup1\n        /* \"contracts/kapai/Stakev1.sol\":17537:17561  invitee = inviteeAddress */\n      swap2\n      pop\n        /* \"contracts/kapai/Stakev1.sol\":17581:17592  _inviterMap */\n      0x0c\n        /* \"contracts/kapai/Stakev1.sol\":17581:17608  _inviterMap[inviteeAddress] */\n      0x00\n        /* \"contracts/kapai/Stakev1.sol\":17593:17607  inviteeAddress */\n      dup3\n        /* \"contracts/kapai/Stakev1.sol\":17581:17608  _inviterMap[inviteeAddress] */\n      0xffffffffffffffffffffffffffffffffffffffff\n      and\n      0xffffffffffffffffffffffffffffffffffffffff\n      and\n      dup2\n      mstore\n      0x20\n      add\n      swap1\n      dup2\n      mstore\n      0x20\n      add\n      0x00\n      keccak256\n      0x00\n      swap1\n      sload\n      swap1\n      0x0100\n      exp\n      swap1\n      div\n      0xffffffffffffffffffffffffffffffffffffffff\n      and\n        /* \"contracts/kapai/Stakev1.sol\":17571:17608  inviter = _inviterMap[inviteeAddress] */\n      swap3\n      pop\n        /* \"contracts/kapai/Stakev1.sol\":17396:17615  {... */\n      pop\n        /* \"contracts/kapai/Stakev1.sol\":17294:17615  function getInvitationByIndex(uint256 index) external view returns (address inviter, address invitee) {... */\n      swap2\n      pop\n      swap2\n      jump\t// out\n        /* \"contracts/kapai/Stakev1.sol\":9955:9981  uint256 public _proportion */\n    tag_152:\n      sload(0x09)\n      dup2\n      jump\t// out\n        /* \"contracts/kapai/Stakev1.sol\":9705:9727  address public _bToken */\n    tag_155:\n      0x04\n      0x00\n      swap1\n      sload\n      swap1\n      0x0100\n      exp\n      swap1\n      div\n      0xffffffffffffffffffffffffffffffffffffffff\n      and\n      dup2\n      jump\t// out\n        /* \"contracts/kapai/Stakev1.sol\":13124:13231  function withdraw() external onlyOwner {... */\n    tag_158:\n        /* \"@openzeppelin/contracts-upgradeable/access/OwnableUpgradeable.sol\":2334:2347  _checkOwner() */\n      tag_325\n        /* \"@openzeppelin/contracts-upgradeable/access/OwnableUpgradeable.sol\":2334:2345  _checkOwner */\n      tag_292\n        /* \"@openzeppelin/contracts-upgradeable/access/OwnableUpgradeable.sol\":2334:2347  _checkOwner() */\n      jump\t// in\n    tag_325:\n        /* \"contracts/kapai/Stakev1.sol\":13181:13191  msg.sender */\n      caller\n        /* \"contracts/kapai/Stakev1.sol\":13173:13201  payable(msg.sender).transfer */\n      0xffffffffffffffffffffffffffffffffffffffff\n      and\n        /* \"contracts/kapai/Stakev1.sol\":13173:13224  payable(msg.sender).transfer(address(this).balance) */\n      0x08fc\n        /* \"contracts/kapai/Stakev1.sol\":13202:13223  address(this).balance */\n      selfbalance\n        /* \"contracts/kapai/Stakev1.sol\":13173:13224  payable(msg.sender).transfer(address(this).balance) */\n      swap1\n      dup2\n      iszero\n      mul\n      swap1\n      mload(0x40)\n      0x00\n      mload(0x40)\n      dup1\n      dup4\n      sub\n      dup2\n      dup6\n      dup9\n      dup9\n      call\n      swap4\n      pop\n      pop\n      pop\n      pop\n      iszero\n      dup1\n      iszero\n      tag_328\n      jumpi\n      returndatasize\n      0x00\n      dup1\n      returndatacopy\n      revert(0x00, returndatasize)\n    tag_328:\n      pop\n        /* \"contracts/kapai/Stakev1.sol\":13124:13231  function withdraw() external onlyOwner {... */\n      jump\t// out\n        /* \"contracts/kapai/Stakev1.sol\":12292:12384  function set_adminToken(address token) public onlyOwner {... */\n    tag_161:\n        /* \"@openzeppelin/contracts-upgradeable/access/OwnableUpgradeable.sol\":2334:2347  _checkOwner() */\n      tag_330\n        /* \"@openzeppelin/contracts-upgradeable/access/OwnableUpgradeable.sol\":2334:2345  _checkOwner */\n      tag_292\n        /* \"@openzeppelin/contracts-upgradeable/access/OwnableUpgradeable.sol\":2334:2347  _checkOwner() */\n      jump\t// in\n    tag_330:\n        /* \"contracts/kapai/Stakev1.sol\":12372:12377  token */\n      dup1\n        /* \"contracts/kapai/Stakev1.sol\":12358:12369  _adminToken */\n      0x05\n      0x00\n        /* \"contracts/kapai/Stakev1.sol\":12358:12377  _adminToken = token */\n      0x0100\n      exp\n      dup2\n      sload\n      dup2\n      0xffffffffffffffffffffffffffffffffffffffff\n      mul\n      not\n      and\n      swap1\n      dup4\n      0xffffffffffffffffffffffffffffffffffffffff\n      and\n      mul\n      or\n      swap1\n      sstore\n      pop\n        /* \"contracts/kapai/Stakev1.sol\":12292:12384  function set_adminToken(address token) public onlyOwner {... */\n      pop\n      jump\t// out\n        /* \"contracts/kapai/Stakev1.sol\":9769:9795  address public _adminToken */\n    tag_163:\n      0x05\n      0x00\n      swap1\n      sload\n      swap1\n      0x0100\n      exp\n      swap1\n      div\n      0xffffffffffffffffffffffffffffffffffffffff\n      and\n      dup2\n      jump\t// out\n        /* \"contracts/kapai/Stakev1.sol\":12431:12526  function setlpPriceToken(address token) public onlyOwner {... */\n    tag_167:\n        /* \"@openzeppelin/contracts-upgradeable/access/OwnableUpgradeable.sol\":2334:2347  _checkOwner() */\n      tag_333\n        /* \"@openzeppelin/contracts-upgradeable/access/OwnableUpgradeable.sol\":2334:2345  _checkOwner */\n      tag_292\n        /* \"@openzeppelin/contracts-upgradeable/access/OwnableUpgradeable.sol\":2334:2347  _checkOwner() */\n      jump\t// in\n    tag_333:\n        /* \"contracts/kapai/Stakev1.sol\":12514:12519  token */\n      dup1\n        /* \"contracts/kapai/Stakev1.sol\":12498:12511  _lpPriceToken */\n      0x02\n      0x00\n        /* \"contracts/kapai/Stakev1.sol\":12498:12519  _lpPriceToken = token */\n      0x0100\n      exp\n      dup2\n      sload\n      dup2\n      0xffffffffffffffffffffffffffffffffffffffff\n      mul\n      not\n      and\n      swap1\n      dup4\n      0xffffffffffffffffffffffffffffffffffffffff\n      and\n      mul\n      or\n      swap1\n      sstore\n      pop\n        /* \"contracts/kapai/Stakev1.sol\":12431:12526  function setlpPriceToken(address token) public onlyOwner {... */\n      pop\n      jump\t// out\n        /* \"contracts/kapai/Stakev1.sol\":11108:11168  mapping(address => uint256) public _userStakeMonthlyearnings */\n    tag_170:\n      mstore(0x20, 0x18)\n      dup1\n      0x00\n      mstore\n      keccak256(0x00, 0x40)\n      0x00\n      swap2\n      pop\n      swap1\n      pop\n      sload\n      dup2\n      jump\t// out\n        /* \"contracts/kapai/Stakev1.sol\":18118:21878  function stake(... */\n    tag_175:\n        /* \"contracts/kapai/Stakev1.sol\":18261:18273  isStakeStart */\n      0x0a\n      0x00\n      swap1\n      sload\n      swap1\n      0x0100\n      exp\n      swap1\n      div\n      0xff\n      and\n        /* \"contracts/kapai/Stakev1.sol\":18253:18287  require(isStakeStart, \"not start\") */\n      tag_336\n      jumpi\n      mload(0x40)\n      0x08c379a000000000000000000000000000000000000000000000000000000000\n      dup2\n      mstore\n      0x04\n      add\n      tag_337\n      swap1\n      tag_338\n      jump\t// in\n    tag_337:\n      mload(0x40)\n      dup1\n      swap2\n      sub\n      swap1\n      revert\n    tag_336:\n        /* \"contracts/kapai/Stakev1.sol\":18316:18326  msg.sender */\n      caller\n        /* \"contracts/kapai/Stakev1.sol\":18305:18326  inviter != msg.sender */\n      0xffffffffffffffffffffffffffffffffffffffff\n      and\n        /* \"contracts/kapai/Stakev1.sol\":18305:18312  inviter */\n      dup3\n        /* \"contracts/kapai/Stakev1.sol\":18305:18326  inviter != msg.sender */\n      0xffffffffffffffffffffffffffffffffffffffff\n      and\n      sub\n        /* \"contracts/kapai/Stakev1.sol\":18297:18351  require(inviter != msg.sender, \"inviter cant by self\") */\n      tag_339\n      jumpi\n      mload(0x40)\n      0x08c379a000000000000000000000000000000000000000000000000000000000\n      dup2\n      mstore\n      0x04\n      add\n      tag_340\n      swap1\n      tag_341\n      jump\t// in\n    tag_340:\n      mload(0x40)\n      dup1\n      swap2\n      sub\n      swap1\n      revert\n    tag_339:\n        /* \"contracts/kapai/Stakev1.sol\":18395:18396  0 */\n      0x00\n        /* \"contracts/kapai/Stakev1.sol\":18369:18379  _userStake */\n      0x0f\n        /* \"contracts/kapai/Stakev1.sol\":18369:18391  _userStake[msg.sender] */\n      0x00\n        /* \"contracts/kapai/Stakev1.sol\":18380:18390  msg.sender */\n      caller\n        /* \"contracts/kapai/Stakev1.sol\":18369:18391  _userStake[msg.sender] */\n      0xffffffffffffffffffffffffffffffffffffffff\n      and\n      0xffffffffffffffffffffffffffffffffffffffff\n      and\n      dup2\n      mstore\n      0x20\n      add\n      swap1\n      dup2\n      mstore\n      0x20\n      add\n      0x00\n      keccak256\n      sload\n        /* \"contracts/kapai/Stakev1.sol\":18369:18396  _userStake[msg.sender] == 0 */\n      eq\n        /* \"contracts/kapai/Stakev1.sol\":18361:18414  require(_userStake[msg.sender] == 0, \"already stake\") */\n      tag_342\n      jumpi\n      mload(0x40)\n      0x08c379a000000000000000000000000000000000000000000000000000000000\n      dup2\n      mstore\n      0x04\n      add\n      tag_343\n      swap1\n      tag_344\n      jump\t// in\n    tag_343:\n      mload(0x40)\n      dup1\n      swap2\n      sub\n      swap1\n      revert\n    tag_342:\n        /* \"contracts/kapai/Stakev1.sol\":18459:18460  0 */\n      0x00\n        /* \"contracts/kapai/Stakev1.sol\":18432:18443  _userStakeA */\n      0x10\n        /* \"contracts/kapai/Stakev1.sol\":18432:18455  _userStakeA[msg.sender] */\n      0x00\n        /* \"contracts/kapai/Stakev1.sol\":18444:18454  msg.sender */\n      caller\n        /* \"contracts/kapai/Stakev1.sol\":18432:18455  _userStakeA[msg.sender] */\n      0xffffffffffffffffffffffffffffffffffffffff\n      and\n      0xffffffffffffffffffffffffffffffffffffffff\n      and\n      dup2\n      mstore\n      0x20\n      add\n      swap1\n      dup2\n      mstore\n      0x20\n      add\n      0x00\n      keccak256\n      sload\n        /* \"contracts/kapai/Stakev1.sol\":18432:18460  _userStakeA[msg.sender] == 0 */\n      eq\n        /* \"contracts/kapai/Stakev1.sol\":18424:18482  require(_userStakeA[msg.sender] == 0, \"already stakeUsdt\") */\n      tag_345\n      jumpi\n      mload(0x40)\n      0x08c379a000000000000000000000000000000000000000000000000000000000\n      dup2\n      mstore\n      0x04\n      add\n      tag_346\n      swap1\n      tag_347\n      jump\t// in\n    tag_346:\n      mload(0x40)\n      dup1\n      swap2\n      sub\n      swap1\n      revert\n    tag_345:\n        /* \"contracts/kapai/Stakev1.sol\":18527:18528  0 */\n      0x00\n        /* \"contracts/kapai/Stakev1.sol\":18500:18511  _userStakeB */\n      0x11\n        /* \"contracts/kapai/Stakev1.sol\":18500:18523  _userStakeB[msg.sender] */\n      0x00\n        /* \"contracts/kapai/Stakev1.sol\":18512:18522  msg.sender */\n      caller\n        /* \"contracts/kapai/Stakev1.sol\":18500:18523  _userStakeB[msg.sender] */\n      0xffffffffffffffffffffffffffffffffffffffff\n      and\n      0xffffffffffffffffffffffffffffffffffffffff\n      and\n      dup2\n      mstore\n      0x20\n      add\n      swap1\n      dup2\n      mstore\n      0x20\n      add\n      0x00\n      keccak256\n      sload\n        /* \"contracts/kapai/Stakev1.sol\":18500:18528  _userStakeB[msg.sender] == 0 */\n      eq\n        /* \"contracts/kapai/Stakev1.sol\":18492:18549  require(_userStakeB[msg.sender] == 0, \"already stakeBdc\") */\n      tag_348\n      jumpi\n      mload(0x40)\n      0x08c379a000000000000000000000000000000000000000000000000000000000\n      dup2\n      mstore\n      0x04\n      add\n      tag_349\n      swap1\n      tag_350\n      jump\t// in\n    tag_349:\n      mload(0x40)\n      dup1\n      swap2\n      sub\n      swap1\n      revert\n    tag_348:\n        /* \"contracts/kapai/Stakev1.sol\":18585:18586  0 */\n      0x00\n        /* \"contracts/kapai/Stakev1.sol\":18575:18582  amountA */\n      dup5\n        /* \"contracts/kapai/Stakev1.sol\":18575:18586  amountA > 0 */\n      gt\n        /* \"contracts/kapai/Stakev1.sol\":18567:18603  require(amountA > 0, \"zero amountA\") */\n      tag_351\n      jumpi\n      mload(0x40)\n      0x08c379a000000000000000000000000000000000000000000000000000000000\n      dup2\n      mstore\n      0x04\n      add\n      tag_352\n      swap1\n      tag_353\n      jump\t// in\n    tag_352:\n      mload(0x40)\n      dup1\n      swap2\n      sub\n      swap1\n      revert\n    tag_351:\n        /* \"contracts/kapai/Stakev1.sol\":18631:18632  0 */\n      0x00\n        /* \"contracts/kapai/Stakev1.sol\":18621:18628  amountB */\n      dup4\n        /* \"contracts/kapai/Stakev1.sol\":18621:18632  amountB > 0 */\n      gt\n        /* \"contracts/kapai/Stakev1.sol\":18613:18649  require(amountB > 0, \"zero amountB\") */\n      tag_354\n      jumpi\n      mload(0x40)\n      0x08c379a000000000000000000000000000000000000000000000000000000000\n      dup2\n      mstore\n      0x04\n      add\n      tag_355\n      swap1\n      tag_356\n      jump\t// in\n    tag_355:\n      mload(0x40)\n      dup1\n      swap2\n      sub\n      swap1\n      revert\n    tag_354:\n        /* \"contracts/kapai/Stakev1.sol\":18688:18695  _stake1 */\n      sload(0x06)\n        /* \"contracts/kapai/Stakev1.sol\":18680:18684  time */\n      dup2\n        /* \"contracts/kapai/Stakev1.sol\":18680:18695  time == _stake1 */\n      eq\n        /* \"contracts/kapai/Stakev1.sol\":18680:18714  time == _stake1 || time == _stake3 */\n      dup1\n      tag_357\n      jumpi\n      pop\n        /* \"contracts/kapai/Stakev1.sol\":18707:18714  _stake3 */\n      sload(0x07)\n        /* \"contracts/kapai/Stakev1.sol\":18699:18703  time */\n      dup2\n        /* \"contracts/kapai/Stakev1.sol\":18699:18714  time == _stake3 */\n      eq\n        /* \"contracts/kapai/Stakev1.sol\":18680:18714  time == _stake1 || time == _stake3 */\n    tag_357:\n        /* \"contracts/kapai/Stakev1.sol\":18680:18733  time == _stake1 || time == _stake3 || time == _stake5 */\n      dup1\n      tag_358\n      jumpi\n      pop\n        /* \"contracts/kapai/Stakev1.sol\":18726:18733  _stake5 */\n      sload(0x08)\n        /* \"contracts/kapai/Stakev1.sol\":18718:18722  time */\n      dup2\n        /* \"contracts/kapai/Stakev1.sol\":18718:18733  time == _stake5 */\n      eq\n        /* \"contracts/kapai/Stakev1.sol\":18680:18733  time == _stake1 || time == _stake3 || time == _stake5 */\n    tag_358:\n        /* \"contracts/kapai/Stakev1.sol\":18659:18773  require(... */\n      tag_359\n      jumpi\n      mload(0x40)\n      0x08c379a000000000000000000000000000000000000000000000000000000000\n      dup2\n      mstore\n      0x04\n      add\n      tag_360\n      swap1\n      tag_361\n      jump\t// in\n    tag_360:\n      mload(0x40)\n      dup1\n      swap2\n      sub\n      swap1\n      revert\n    tag_359:\n        /* \"contracts/kapai/Stakev1.sol\":18814:18815  0 */\n      0x00\n        /* \"contracts/kapai/Stakev1.sol\":18795:18816  inviter != address(0) */\n      0xffffffffffffffffffffffffffffffffffffffff\n      and\n        /* \"contracts/kapai/Stakev1.sol\":18795:18802  inviter */\n      dup3\n        /* \"contracts/kapai/Stakev1.sol\":18795:18816  inviter != address(0) */\n      0xffffffffffffffffffffffffffffffffffffffff\n      and\n      eq\n        /* \"contracts/kapai/Stakev1.sol\":18791:19114  if (inviter != address(0)) {... */\n      tag_362\n      jumpi\n        /* \"contracts/kapai/Stakev1.sol\":18858:18865  inviter */\n      dup2\n        /* \"contracts/kapai/Stakev1.sol\":18832:18843  _inviterMap */\n      0x0c\n        /* \"contracts/kapai/Stakev1.sol\":18832:18855  _inviterMap[msg.sender] */\n      0x00\n        /* \"contracts/kapai/Stakev1.sol\":18844:18854  msg.sender */\n      caller\n        /* \"contracts/kapai/Stakev1.sol\":18832:18855  _inviterMap[msg.sender] */\n      0xffffffffffffffffffffffffffffffffffffffff\n      and\n      0xffffffffffffffffffffffffffffffffffffffff\n      and\n      dup2\n      mstore\n      0x20\n      add\n      swap1\n      dup2\n      mstore\n      0x20\n      add\n      0x00\n      keccak256\n      0x00\n        /* \"contracts/kapai/Stakev1.sol\":18832:18865  _inviterMap[msg.sender] = inviter */\n      0x0100\n      exp\n      dup2\n      sload\n      dup2\n      0xffffffffffffffffffffffffffffffffffffffff\n      mul\n      not\n      and\n      swap1\n      dup4\n      0xffffffffffffffffffffffffffffffffffffffff\n      and\n      mul\n      or\n      swap1\n      sstore\n      pop\n        /* \"contracts/kapai/Stakev1.sol\":19022:19023  1 */\n      0x01\n        /* \"contracts/kapai/Stakev1.sol\":18999:19009  _inviteNum */\n      0x0e\n        /* \"contracts/kapai/Stakev1.sol\":18999:19018  _inviteNum[inviter] */\n      0x00\n        /* \"contracts/kapai/Stakev1.sol\":19010:19017  inviter */\n      dup5\n        /* \"contracts/kapai/Stakev1.sol\":18999:19018  _inviteNum[inviter] */\n      0xffffffffffffffffffffffffffffffffffffffff\n      and\n      0xffffffffffffffffffffffffffffffffffffffff\n      and\n      dup2\n      mstore\n      0x20\n      add\n      swap1\n      dup2\n      mstore\n      0x20\n      add\n      0x00\n      keccak256\n      0x00\n        /* \"contracts/kapai/Stakev1.sol\":18999:19023  _inviteNum[inviter] += 1 */\n      dup3\n      dup3\n      sload\n      tag_363\n      swap2\n      swap1\n      tag_364\n      jump\t// in\n    tag_363:\n      swap3\n      pop\n      pop\n      dup2\n      swap1\n      sstore\n      pop\n        /* \"contracts/kapai/Stakev1.sol\":19037:19049  _inviterList */\n      0x1e\n        /* \"contracts/kapai/Stakev1.sol\":19055:19065  msg.sender */\n      caller\n        /* \"contracts/kapai/Stakev1.sol\":19037:19066  _inviterList.push(msg.sender) */\n      swap1\n      dup1\n      0x01\n      dup2\n      sload\n      add\n      dup1\n      dup3\n      sstore\n      dup1\n      swap2\n      pop\n      pop\n      0x01\n      swap1\n      sub\n      swap1\n      0x00\n      mstore\n      keccak256(0x00, 0x20)\n      add\n      0x00\n      swap1\n      swap2\n      swap1\n      swap2\n      swap1\n      swap2\n      0x0100\n      exp\n      dup2\n      sload\n      dup2\n      0xffffffffffffffffffffffffffffffffffffffff\n      mul\n      not\n      and\n      swap1\n      dup4\n      0xffffffffffffffffffffffffffffffffffffffff\n      and\n      mul\n      or\n      swap1\n      sstore\n      pop\n        /* \"contracts/kapai/Stakev1.sol\":18791:19114  if (inviter != address(0)) {... */\n    tag_362:\n        /* \"contracts/kapai/Stakev1.sol\":19170:19177  _aToken */\n      0x03\n      0x00\n      swap1\n      sload\n      swap1\n      0x0100\n      exp\n      swap1\n      div\n      0xffffffffffffffffffffffffffffffffffffffff\n      and\n        /* \"contracts/kapai/Stakev1.sol\":19163:19191  IERC20(_aToken).transferFrom */\n      0xffffffffffffffffffffffffffffffffffffffff\n      and\n      0x23b872dd\n        /* \"contracts/kapai/Stakev1.sol\":19192:19202  msg.sender */\n      caller\n        /* \"contracts/kapai/Stakev1.sol\":19212:19216  this */\n      address\n        /* \"contracts/kapai/Stakev1.sol\":19219:19226  amountA */\n      dup8\n        /* \"contracts/kapai/Stakev1.sol\":19163:19227  IERC20(_aToken).transferFrom(msg.sender, address(this), amountA) */\n      mload(0x40)\n      dup5\n      0xffffffff\n      and\n      0xe0\n      shl\n      dup2\n      mstore\n      0x04\n      add\n      tag_366\n      swap4\n      swap3\n      swap2\n      swap1\n      tag_367\n      jump\t// in\n    tag_366:\n      0x20\n      mload(0x40)\n      dup1\n      dup4\n      sub\n      dup2\n      0x00\n      dup8\n      gas\n      call\n      iszero\n      dup1\n      iszero\n      tag_369\n      jumpi\n      returndatasize\n      0x00\n      dup1\n      returndatacopy\n      revert(0x00, returndatasize)\n    tag_369:\n      pop\n      pop\n      pop\n      pop\n      mload(0x40)\n      returndatasize\n      not(0x1f)\n      0x1f\n      dup3\n      add\n      and\n      dup3\n      add\n      dup1\n      0x40\n      mstore\n      pop\n      dup2\n      add\n      swap1\n      tag_370\n      swap2\n      swap1\n      tag_371\n      jump\t// in\n    tag_370:\n      pop\n        /* \"contracts/kapai/Stakev1.sol\":19250:19257  _aToken */\n      0x03\n      0x00\n      swap1\n      sload\n      swap1\n      0x0100\n      exp\n      swap1\n      div\n      0xffffffffffffffffffffffffffffffffffffffff\n      and\n        /* \"contracts/kapai/Stakev1.sol\":19243:19267  IERC20(_aToken).transfer */\n      0xffffffffffffffffffffffffffffffffffffffff\n      and\n      0xa9059cbb\n        /* \"contracts/kapai/Stakev1.sol\":19268:19279  _adminToken */\n      0x05\n      0x00\n      swap1\n      sload\n      swap1\n      0x0100\n      exp\n      swap1\n      div\n      0xffffffffffffffffffffffffffffffffffffffff\n      and\n        /* \"contracts/kapai/Stakev1.sol\":19281:19288  amountA */\n      dup7\n        /* \"contracts/kapai/Stakev1.sol\":19243:19289  IERC20(_aToken).transfer(_adminToken, amountA) */\n      mload(0x40)\n      dup4\n      0xffffffff\n      and\n      0xe0\n      shl\n      dup2\n      mstore\n      0x04\n      add\n      tag_372\n      swap3\n      swap2\n      swap1\n      tag_373\n      jump\t// in\n    tag_372:\n      0x20\n      mload(0x40)\n      dup1\n      dup4\n      sub\n      dup2\n      0x00\n      dup8\n      gas\n      call\n      iszero\n      dup1\n      iszero\n      tag_375\n      jumpi\n      returndatasize\n      0x00\n      dup1\n      returndatacopy\n      revert(0x00, returndatasize)\n    tag_375:\n      pop\n      pop\n      pop\n      pop\n      mload(0x40)\n      returndatasize\n      not(0x1f)\n      0x1f\n      dup3\n      add\n      and\n      dup3\n      add\n      dup1\n      0x40\n      mstore\n      pop\n      dup2\n      add\n      swap1\n      tag_376\n      swap2\n      swap1\n      tag_371\n      jump\t// in\n    tag_376:\n      pop\n        /* \"contracts/kapai/Stakev1.sol\":19507:19514  _bToken */\n      0x04\n      0x00\n      swap1\n      sload\n      swap1\n      0x0100\n      exp\n      swap1\n      div\n      0xffffffffffffffffffffffffffffffffffffffff\n      and\n        /* \"contracts/kapai/Stakev1.sol\":19500:19528  IERC20(_bToken).transferFrom */\n      0xffffffffffffffffffffffffffffffffffffffff\n      and\n      0x23b872dd\n        /* \"contracts/kapai/Stakev1.sol\":19529:19539  msg.sender */\n      caller\n        /* \"contracts/kapai/Stakev1.sol\":19549:19553  this */\n      address\n        /* \"contracts/kapai/Stakev1.sol\":19556:19563  amountB */\n      dup7\n        /* \"contracts/kapai/Stakev1.sol\":19500:19564  IERC20(_bToken).transferFrom(msg.sender, address(this), amountB) */\n      mload(0x40)\n      dup5\n      0xffffffff\n      and\n      0xe0\n      shl\n      dup2\n      mstore\n      0x04\n      add\n      tag_377\n      swap4\n      swap3\n      swap2\n      swap1\n      tag_367\n      jump\t// in\n    tag_377:\n      0x20\n      mload(0x40)\n      dup1\n      dup4\n      sub\n      dup2\n      0x00\n      dup8\n      gas\n      call\n      swap3\n      pop\n      pop\n      pop\n      dup1\n      iszero\n      tag_378\n      jumpi\n      pop\n      mload(0x40)\n      returndatasize\n      not(0x1f)\n      0x1f\n      dup3\n      add\n      and\n      dup3\n      add\n      dup1\n      0x40\n      mstore\n      pop\n      dup2\n      add\n      swap1\n      tag_379\n      swap2\n      swap1\n      tag_371\n      jump\t// in\n    tag_379:\n      0x01\n    tag_378:\n        /* \"contracts/kapai/Stakev1.sol\":19496:20458  try IERC20(_bToken).transferFrom(msg.sender, address(this), amountB) returns (bool transferSuccess) {... */\n      tag_380\n      jumpi\n      tag_384\n      tag_385\n      jump\t// in\n    tag_384:\n      dup1\n      0x08c379a0\n      sub\n      tag_383\n      jumpi\n      pop\n      tag_386\n      tag_387\n      jump\t// in\n    tag_386:\n      dup1\n      tag_388\n      jumpi\n      pop\n      jump(tag_382)\n    tag_388:\n        /* \"contracts/kapai/Stakev1.sol\":20244:20251  _cToken */\n      0x1f\n      0x00\n      swap1\n      sload\n      swap1\n      0x0100\n      exp\n      swap1\n      div\n      0xffffffffffffffffffffffffffffffffffffffff\n      and\n        /* \"contracts/kapai/Stakev1.sol\":20237:20265  IERC20(_cToken).transferFrom */\n      0xffffffffffffffffffffffffffffffffffffffff\n      and\n      0x23b872dd\n        /* \"contracts/kapai/Stakev1.sol\":20266:20276  msg.sender */\n      caller\n        /* \"contracts/kapai/Stakev1.sol\":20286:20290  this */\n      address\n        /* \"contracts/kapai/Stakev1.sol\":20293:20300  amountB */\n      dup8\n        /* \"contracts/kapai/Stakev1.sol\":20237:20301  IERC20(_cToken).transferFrom(msg.sender, address(this), amountB) */\n      mload(0x40)\n      dup5\n      0xffffffff\n      and\n      0xe0\n      shl\n      dup2\n      mstore\n      0x04\n      add\n      tag_389\n      swap4\n      swap3\n      swap2\n      swap1\n      tag_367\n      jump\t// in\n    tag_389:\n      0x20\n      mload(0x40)\n      dup1\n      dup4\n      sub\n      dup2\n      0x00\n      dup8\n      gas\n      call\n      iszero\n      dup1\n      iszero\n      tag_391\n      jumpi\n      returndatasize\n      0x00\n      dup1\n      returndatacopy\n      revert(0x00, returndatasize)\n    tag_391:\n      pop\n      pop\n      pop\n      pop\n      mload(0x40)\n      returndatasize\n      not(0x1f)\n      0x1f\n      dup3\n      add\n      and\n      dup3\n      add\n      dup1\n      0x40\n      mstore\n      pop\n      dup2\n      add\n      swap1\n      tag_392\n      swap2\n      swap1\n      tag_371\n      jump\t// in\n    tag_392:\n      pop\n        /* \"contracts/kapai/Stakev1.sol\":20325:20332  _cToken */\n      0x1f\n      0x00\n      swap1\n      sload\n      swap1\n      0x0100\n      exp\n      swap1\n      div\n      0xffffffffffffffffffffffffffffffffffffffff\n      and\n        /* \"contracts/kapai/Stakev1.sol\":20318:20342  IERC20(_cToken).transfer */\n      0xffffffffffffffffffffffffffffffffffffffff\n      and\n      0xa9059cbb\n        /* \"contracts/kapai/Stakev1.sol\":20343:20354  _adminToken */\n      0x05\n      0x00\n      swap1\n      sload\n      swap1\n      0x0100\n      exp\n      swap1\n      div\n      0xffffffffffffffffffffffffffffffffffffffff\n      and\n        /* \"contracts/kapai/Stakev1.sol\":20356:20363  amountB */\n      dup7\n        /* \"contracts/kapai/Stakev1.sol\":20318:20364  IERC20(_cToken).transfer(_adminToken, amountB) */\n      mload(0x40)\n      dup4\n      0xffffffff\n      and\n      0xe0\n      shl\n      dup2\n      mstore\n      0x04\n      add\n      tag_393\n      swap3\n      swap2\n      swap1\n      tag_373\n      jump\t// in\n    tag_393:\n      0x20\n      mload(0x40)\n      dup1\n      dup4\n      sub\n      dup2\n      0x00\n      dup8\n      gas\n      call\n      iszero\n      dup1\n      iszero\n      tag_395\n      jumpi\n      returndatasize\n      0x00\n      dup1\n      returndatacopy\n      revert(0x00, returndatasize)\n    tag_395:\n      pop\n      pop\n      pop\n      pop\n      mload(0x40)\n      returndatasize\n      not(0x1f)\n      0x1f\n      dup3\n      add\n      and\n      dup3\n      add\n      dup1\n      0x40\n      mstore\n      pop\n      dup2\n      add\n      swap1\n      tag_396\n      swap2\n      swap1\n      tag_371\n      jump\t// in\n    tag_396:\n      pop\n        /* \"contracts/kapai/Stakev1.sol\":20414:20421  _bToken */\n      0x04\n      0x00\n      swap1\n      sload\n      swap1\n      0x0100\n      exp\n      swap1\n      div\n      0xffffffffffffffffffffffffffffffffffffffff\n      and\n        /* \"contracts/kapai/Stakev1.sol\":20383:20446  LogTransferFailure(msg.sender, _bToken, amountB, 'catch Error') */\n      0xffffffffffffffffffffffffffffffffffffffff\n      and\n        /* \"contracts/kapai/Stakev1.sol\":20402:20412  msg.sender */\n      caller\n        /* \"contracts/kapai/Stakev1.sol\":20383:20446  LogTransferFailure(msg.sender, _bToken, amountB, 'catch Error') */\n      0xffffffffffffffffffffffffffffffffffffffff\n      and\n      0xfd384bda386f236a7c2a9038a52a8ab786f1715f3e103a3f0fe74e2d225b3125\n        /* \"contracts/kapai/Stakev1.sol\":20423:20430  amountB */\n      dup7\n        /* \"contracts/kapai/Stakev1.sol\":20383:20446  LogTransferFailure(msg.sender, _bToken, amountB, 'catch Error') */\n      mload(0x40)\n      tag_397\n      swap2\n      swap1\n      tag_398\n      jump\t// in\n    tag_397:\n      mload(0x40)\n      dup1\n      swap2\n      sub\n      swap1\n      log3\n        /* \"contracts/kapai/Stakev1.sol\":20137:20458  catch Error(string memory) {... */\n      pop\n        /* \"contracts/kapai/Stakev1.sol\":19496:20458  try IERC20(_bToken).transferFrom(msg.sender, address(this), amountB) returns (bool transferSuccess) {... */\n      jump(tag_381)\n    tag_383:\n      pop\n    tag_382:\n      returndatasize\n      0x00\n      dup1\n      returndatacopy\n      revert(0x00, returndatasize)\n    tag_381:\n      jump(tag_399)\n    tag_380:\n        /* \"contracts/kapai/Stakev1.sol\":19614:19629  transferSuccess */\n      dup1\n        /* \"contracts/kapai/Stakev1.sol\":19610:19806  if (transferSuccess) {... */\n      iszero\n      tag_400\n      jumpi\n        /* \"contracts/kapai/Stakev1.sol\":19656:19663  _bToken */\n      0x04\n      0x00\n      swap1\n      sload\n      swap1\n      0x0100\n      exp\n      swap1\n      div\n      0xffffffffffffffffffffffffffffffffffffffff\n      and\n        /* \"contracts/kapai/Stakev1.sol\":19649:19673  IERC20(_bToken).transfer */\n      0xffffffffffffffffffffffffffffffffffffffff\n      and\n      0xa9059cbb\n        /* \"contracts/kapai/Stakev1.sol\":19674:19685  _adminToken */\n      0x05\n      0x00\n      swap1\n      sload\n      swap1\n      0x0100\n      exp\n      swap1\n      div\n      0xffffffffffffffffffffffffffffffffffffffff\n      and\n        /* \"contracts/kapai/Stakev1.sol\":19687:19694  amountB */\n      dup7\n        /* \"contracts/kapai/Stakev1.sol\":19649:19695  IERC20(_bToken).transfer(_adminToken, amountB) */\n      mload(0x40)\n      dup4\n      0xffffffff\n      and\n      0xe0\n      shl\n      dup2\n      mstore\n      0x04\n      add\n      tag_401\n      swap3\n      swap2\n      swap1\n      tag_373\n      jump\t// in\n    tag_401:\n      0x20\n      mload(0x40)\n      dup1\n      dup4\n      sub\n      dup2\n      0x00\n      dup8\n      gas\n      call\n      iszero\n      dup1\n      iszero\n      tag_403\n      jumpi\n      returndatasize\n      0x00\n      dup1\n      returndatacopy\n      revert(0x00, returndatasize)\n    tag_403:\n      pop\n      pop\n      pop\n      pop\n      mload(0x40)\n      returndatasize\n      not(0x1f)\n      0x1f\n      dup3\n      add\n      and\n      dup3\n      add\n      dup1\n      0x40\n      mstore\n      pop\n      dup2\n      add\n      swap1\n      tag_404\n      swap2\n      swap1\n      tag_371\n      jump\t// in\n    tag_404:\n      pop\n        /* \"contracts/kapai/Stakev1.sol\":19753:19760  _bToken */\n      0x04\n      0x00\n      swap1\n      sload\n      swap1\n      0x0100\n      exp\n      swap1\n      div\n      0xffffffffffffffffffffffffffffffffffffffff\n      and\n        /* \"contracts/kapai/Stakev1.sol\":19722:19789  LogTransferFailure(msg.sender, _bToken, amountB, 'transferSuccess') */\n      0xffffffffffffffffffffffffffffffffffffffff\n      and\n        /* \"contracts/kapai/Stakev1.sol\":19741:19751  msg.sender */\n      caller\n        /* \"contracts/kapai/Stakev1.sol\":19722:19789  LogTransferFailure(msg.sender, _bToken, amountB, 'transferSuccess') */\n      0xffffffffffffffffffffffffffffffffffffffff\n      and\n      0xfd384bda386f236a7c2a9038a52a8ab786f1715f3e103a3f0fe74e2d225b3125\n        /* \"contracts/kapai/Stakev1.sol\":19762:19769  amountB */\n      dup7\n        /* \"contracts/kapai/Stakev1.sol\":19722:19789  LogTransferFailure(msg.sender, _bToken, amountB, 'transferSuccess') */\n      mload(0x40)\n      tag_405\n      swap2\n      swap1\n      tag_406\n      jump\t// in\n    tag_405:\n      mload(0x40)\n      dup1\n      swap2\n      sub\n      swap1\n      log3\n        /* \"contracts/kapai/Stakev1.sol\":19610:19806  if (transferSuccess) {... */\n    tag_400:\n        /* \"contracts/kapai/Stakev1.sol\":19565:20136  returns (bool transferSuccess) {... */\n      pop\n        /* \"contracts/kapai/Stakev1.sol\":19496:20458  try IERC20(_bToken).transferFrom(msg.sender, address(this), amountB) returns (bool transferSuccess) {... */\n    tag_399:\n        /* \"contracts/kapai/Stakev1.sol\":21254:21273  uint256 t_blocktime */\n      0x00\n        /* \"contracts/kapai/Stakev1.sol\":21276:21291  block.timestamp */\n      timestamp\n        /* \"contracts/kapai/Stakev1.sol\":21254:21291  uint256 t_blocktime = block.timestamp */\n      swap1\n      pop\n        /* \"contracts/kapai/Stakev1.sol\":21327:21334  amountA */\n      dup5\n        /* \"contracts/kapai/Stakev1.sol\":21301:21312  _userStakeA */\n      0x10\n        /* \"contracts/kapai/Stakev1.sol\":21301:21324  _userStakeA[msg.sender] */\n      0x00\n        /* \"contracts/kapai/Stakev1.sol\":21313:21323  msg.sender */\n      caller\n        /* \"contracts/kapai/Stakev1.sol\":21301:21324  _userStakeA[msg.sender] */\n      0xffffffffffffffffffffffffffffffffffffffff\n      and\n      0xffffffffffffffffffffffffffffffffffffffff\n      and\n      dup2\n      mstore\n      0x20\n      add\n      swap1\n      dup2\n      mstore\n      0x20\n      add\n      0x00\n      keccak256\n        /* \"contracts/kapai/Stakev1.sol\":21301:21334  _userStakeA[msg.sender] = amountA */\n      dup2\n      swap1\n      sstore\n      pop\n        /* \"contracts/kapai/Stakev1.sol\":21370:21377  amountB */\n      dup4\n        /* \"contracts/kapai/Stakev1.sol\":21344:21355  _userStakeB */\n      0x11\n        /* \"contracts/kapai/Stakev1.sol\":21344:21367  _userStakeB[msg.sender] */\n      0x00\n        /* \"contracts/kapai/Stakev1.sol\":21356:21366  msg.sender */\n      caller\n        /* \"contracts/kapai/Stakev1.sol\":21344:21367  _userStakeB[msg.sender] */\n      0xffffffffffffffffffffffffffffffffffffffff\n      and\n      0xffffffffffffffffffffffffffffffffffffffff\n      and\n      dup2\n      mstore\n      0x20\n      add\n      swap1\n      dup2\n      mstore\n      0x20\n      add\n      0x00\n      keccak256\n        /* \"contracts/kapai/Stakev1.sol\":21344:21377  _userStakeB[msg.sender] = amountB */\n      dup2\n      swap1\n      sstore\n      pop\n        /* \"contracts/kapai/Stakev1.sol\":21431:21442  t_blocktime */\n      dup1\n        /* \"contracts/kapai/Stakev1.sol\":21397:21416  _userStakeStartTime */\n      0x13\n        /* \"contracts/kapai/Stakev1.sol\":21397:21428  _userStakeStartTime[msg.sender] */\n      0x00\n        /* \"contracts/kapai/Stakev1.sol\":21417:21427  msg.sender */\n      caller\n        /* \"contracts/kapai/Stakev1.sol\":21397:21428  _userStakeStartTime[msg.sender] */\n      0xffffffffffffffffffffffffffffffffffffffff\n      and\n      0xffffffffffffffffffffffffffffffffffffffff\n      and\n      dup2\n      mstore\n      0x20\n      add\n      swap1\n      dup2\n      mstore\n      0x20\n      add\n      0x00\n      keccak256\n        /* \"contracts/kapai/Stakev1.sol\":21397:21442  _userStakeStartTime[msg.sender] = t_blocktime */\n      dup2\n      swap1\n      sstore\n      pop\n        /* \"contracts/kapai/Stakev1.sol\":21484:21495  t_blocktime */\n      dup1\n        /* \"contracts/kapai/Stakev1.sol\":21452:21470  _userLastClaimTime */\n      0x14\n        /* \"contracts/kapai/Stakev1.sol\":21452:21482  _userLastClaimTime[msg.sender] */\n      0x00\n        /* \"contracts/kapai/Stakev1.sol\":21471:21481  msg.sender */\n      caller\n        /* \"contracts/kapai/Stakev1.sol\":21452:21482  _userLastClaimTime[msg.sender] */\n      0xffffffffffffffffffffffffffffffffffffffff\n      and\n      0xffffffffffffffffffffffffffffffffffffffff\n      and\n      dup2\n      mstore\n      0x20\n      add\n      swap1\n      dup2\n      mstore\n      0x20\n      add\n      0x00\n      keccak256\n        /* \"contracts/kapai/Stakev1.sol\":21452:21495  _userLastClaimTime[msg.sender]= t_blocktime */\n      dup2\n      swap1\n      sstore\n      pop\n        /* \"contracts/kapai/Stakev1.sol\":21551:21555  time */\n      dup2\n        /* \"contracts/kapai/Stakev1.sol\":21537:21548  t_blocktime */\n      dup2\n        /* \"contracts/kapai/Stakev1.sol\":21537:21555  t_blocktime + time */\n      tag_407\n      swap2\n      swap1\n      tag_364\n      jump\t// in\n    tag_407:\n        /* \"contracts/kapai/Stakev1.sol\":21505:21522  _userEndClaimTime */\n      0x15\n        /* \"contracts/kapai/Stakev1.sol\":21505:21534  _userEndClaimTime[msg.sender] */\n      0x00\n        /* \"contracts/kapai/Stakev1.sol\":21523:21533  msg.sender */\n      caller\n        /* \"contracts/kapai/Stakev1.sol\":21505:21534  _userEndClaimTime[msg.sender] */\n      0xffffffffffffffffffffffffffffffffffffffff\n      and\n      0xffffffffffffffffffffffffffffffffffffffff\n      and\n      dup2\n      mstore\n      0x20\n      add\n      swap1\n      dup2\n      mstore\n      0x20\n      add\n      0x00\n      keccak256\n        /* \"contracts/kapai/Stakev1.sol\":21505:21555  _userEndClaimTime[msg.sender] = t_blocktime + time */\n      dup2\n      swap1\n      sstore\n      pop\n        /* \"contracts/kapai/Stakev1.sol\":21594:21598  time */\n      dup2\n        /* \"contracts/kapai/Stakev1.sol\":21565:21579  _userStakeTime */\n      0x12\n        /* \"contracts/kapai/Stakev1.sol\":21565:21591  _userStakeTime[msg.sender] */\n      0x00\n        /* \"contracts/kapai/Stakev1.sol\":21580:21590  msg.sender */\n      caller\n        /* \"contracts/kapai/Stakev1.sol\":21565:21591  _userStakeTime[msg.sender] */\n      0xffffffffffffffffffffffffffffffffffffffff\n      and\n      0xffffffffffffffffffffffffffffffffffffffff\n      and\n      dup2\n      mstore\n      0x20\n      add\n      swap1\n      dup2\n      mstore\n      0x20\n      add\n      0x00\n      keccak256\n        /* \"contracts/kapai/Stakev1.sol\":21565:21598  _userStakeTime[msg.sender] = time */\n      dup2\n      swap1\n      sstore\n      pop\n        /* \"contracts/kapai/Stakev1.sol\":21693:21700  _stake1 */\n      sload(0x06)\n        /* \"contracts/kapai/Stakev1.sol\":21681:21692  t_blocktime */\n      dup2\n        /* \"contracts/kapai/Stakev1.sol\":21681:21700  t_blocktime+_stake1 */\n      tag_408\n      swap2\n      swap1\n      tag_364\n      jump\t// in\n    tag_408:\n        /* \"contracts/kapai/Stakev1.sol\":21650:21668  _userMoonClaimTime */\n      0x1c\n        /* \"contracts/kapai/Stakev1.sol\":21650:21680  _userMoonClaimTime[msg.sender] */\n      0x00\n        /* \"contracts/kapai/Stakev1.sol\":21669:21679  msg.sender */\n      caller\n        /* \"contracts/kapai/Stakev1.sol\":21650:21680  _userMoonClaimTime[msg.sender] */\n      0xffffffffffffffffffffffffffffffffffffffff\n      and\n      0xffffffffffffffffffffffffffffffffffffffff\n      and\n      dup2\n      mstore\n      0x20\n      add\n      swap1\n      dup2\n      mstore\n      0x20\n      add\n      0x00\n      keccak256\n        /* \"contracts/kapai/Stakev1.sol\":21650:21700  _userMoonClaimTime[msg.sender]=t_blocktime+_stake1 */\n      dup2\n      swap1\n      sstore\n      pop\n        /* \"contracts/kapai/Stakev1.sol\":21774:21775  0 */\n      0x00\n        /* \"contracts/kapai/Stakev1.sol\":21741:21761  _userMoonClaimNumber */\n      0x1d\n        /* \"contracts/kapai/Stakev1.sol\":21741:21773  _userMoonClaimNumber[msg.sender] */\n      0x00\n        /* \"contracts/kapai/Stakev1.sol\":21762:21772  msg.sender */\n      caller\n        /* \"contracts/kapai/Stakev1.sol\":21741:21773  _userMoonClaimNumber[msg.sender] */\n      0xffffffffffffffffffffffffffffffffffffffff\n      and\n      0xffffffffffffffffffffffffffffffffffffffff\n      and\n      dup2\n      mstore\n      0x20\n      add\n      swap1\n      dup2\n      mstore\n      0x20\n      add\n      0x00\n      keccak256\n        /* \"contracts/kapai/Stakev1.sol\":21741:21775  _userMoonClaimNumber[msg.sender]=0 */\n      dup2\n      swap1\n      sstore\n      pop\n        /* \"contracts/kapai/Stakev1.sol\":21845:21852  _bToken */\n      0x04\n      0x00\n      swap1\n      sload\n      swap1\n      0x0100\n      exp\n      swap1\n      div\n      0xffffffffffffffffffffffffffffffffffffffff\n      and\n        /* \"contracts/kapai/Stakev1.sol\":21814:21871  LogTransferFailure(msg.sender, _bToken, amountB, 'over ') */\n      0xffffffffffffffffffffffffffffffffffffffff\n      and\n        /* \"contracts/kapai/Stakev1.sol\":21833:21843  msg.sender */\n      caller\n        /* \"contracts/kapai/Stakev1.sol\":21814:21871  LogTransferFailure(msg.sender, _bToken, amountB, 'over ') */\n      0xffffffffffffffffffffffffffffffffffffffff\n      and\n      0xfd384bda386f236a7c2a9038a52a8ab786f1715f3e103a3f0fe74e2d225b3125\n        /* \"contracts/kapai/Stakev1.sol\":21854:21861  amountB */\n      dup7\n        /* \"contracts/kapai/Stakev1.sol\":21814:21871  LogTransferFailure(msg.sender, _bToken, amountB, 'over ') */\n      mload(0x40)\n      tag_409\n      swap2\n      swap1\n      tag_410\n      jump\t// in\n    tag_409:\n      mload(0x40)\n      dup1\n      swap2\n      sub\n      swap1\n      log3\n        /* \"contracts/kapai/Stakev1.sol\":18243:21878  {... */\n      pop\n        /* \"contracts/kapai/Stakev1.sol\":18118:21878  function stake(... */\n      pop\n      pop\n      pop\n      pop\n      jump\t// out\n        /* \"@openzeppelin/contracts-upgradeable/access/OwnableUpgradeable.sol\":3155:3256  function renounceOwnership() public virtual onlyOwner {... */\n    tag_177:\n        /* \"@openzeppelin/contracts-upgradeable/access/OwnableUpgradeable.sol\":2334:2347  _checkOwner() */\n      tag_412\n        /* \"@openzeppelin/contracts-upgradeable/access/OwnableUpgradeable.sol\":2334:2345  _checkOwner */\n      tag_292\n        /* \"@openzeppelin/contracts-upgradeable/access/OwnableUpgradeable.sol\":2334:2347  _checkOwner() */\n      jump\t// in\n    tag_412:\n        /* \"@openzeppelin/contracts-upgradeable/access/OwnableUpgradeable.sol\":3219:3249  _transferOwnership(address(0)) */\n      tag_414\n        /* \"@openzeppelin/contracts-upgradeable/access/OwnableUpgradeable.sol\":3246:3247  0 */\n      0x00\n        /* \"@openzeppelin/contracts-upgradeable/access/OwnableUpgradeable.sol\":3219:3237  _transferOwnership */\n      tag_415\n        /* \"@openzeppelin/contracts-upgradeable/access/OwnableUpgradeable.sol\":3219:3249  _transferOwnership(address(0)) */\n      jump\t// in\n    tag_414:\n        /* \"@openzeppelin/contracts-upgradeable/access/OwnableUpgradeable.sol\":3155:3256  function renounceOwnership() public virtual onlyOwner {... */\n      jump\t// out\n        /* \"contracts/kapai/Stakev1.sol\":9550:9576  address public _stakeToken */\n    tag_179:\n      0x01\n      0x00\n      swap1\n      sload\n      swap1\n      0x0100\n      exp\n      swap1\n      div\n      0xffffffffffffffffffffffffffffffffffffffff\n      and\n      dup2\n      jump\t// out\n        /* \"contracts/kapai/Stakev1.sol\":13270:14022  function ownerSetUser(... */\n    tag_184:\n        /* \"@openzeppelin/contracts-upgradeable/access/OwnableUpgradeable.sol\":2334:2347  _checkOwner() */\n      tag_417\n        /* \"@openzeppelin/contracts-upgradeable/access/OwnableUpgradeable.sol\":2334:2345  _checkOwner */\n      tag_292\n        /* \"@openzeppelin/contracts-upgradeable/access/OwnableUpgradeable.sol\":2334:2347  _checkOwner() */\n      jump\t// in\n    tag_417:\n        /* \"contracts/kapai/Stakev1.sol\":13633:13639  amount */\n      dup9\n        /* \"contracts/kapai/Stakev1.sol\":13614:13624  _userStake */\n      0x0f\n        /* \"contracts/kapai/Stakev1.sol\":13614:13630  _userStake[user] */\n      0x00\n        /* \"contracts/kapai/Stakev1.sol\":13625:13629  user */\n      dup13\n        /* \"contracts/kapai/Stakev1.sol\":13614:13630  _userStake[user] */\n      0xffffffffffffffffffffffffffffffffffffffff\n      and\n      0xffffffffffffffffffffffffffffffffffffffff\n      and\n      dup2\n      mstore\n      0x20\n      add\n      swap1\n      dup2\n      mstore\n      0x20\n      add\n      0x00\n      keccak256\n        /* \"contracts/kapai/Stakev1.sol\":13614:13639  _userStake[user] = amount */\n      dup2\n      swap1\n      sstore\n      pop\n        /* \"contracts/kapai/Stakev1.sol\":13669:13676  amountA */\n      dup8\n        /* \"contracts/kapai/Stakev1.sol\":13649:13660  _userStakeA */\n      0x10\n        /* \"contracts/kapai/Stakev1.sol\":13649:13666  _userStakeA[user] */\n      0x00\n        /* \"contracts/kapai/Stakev1.sol\":13661:13665  user */\n      dup13\n        /* \"contracts/kapai/Stakev1.sol\":13649:13666  _userStakeA[user] */\n      0xffffffffffffffffffffffffffffffffffffffff\n      and\n      0xffffffffffffffffffffffffffffffffffffffff\n      and\n      dup2\n      mstore\n      0x20\n      add\n      swap1\n      dup2\n      mstore\n      0x20\n      add\n      0x00\n      keccak256\n        /* \"contracts/kapai/Stakev1.sol\":13649:13676  _userStakeA[user] = amountA */\n      dup2\n      swap1\n      sstore\n      pop\n        /* \"contracts/kapai/Stakev1.sol\":13706:13713  amountB */\n      dup7\n        /* \"contracts/kapai/Stakev1.sol\":13686:13697  _userStakeB */\n      0x11\n        /* \"contracts/kapai/Stakev1.sol\":13686:13703  _userStakeB[user] */\n      0x00\n        /* \"contracts/kapai/Stakev1.sol\":13698:13702  user */\n      dup13\n        /* \"contracts/kapai/Stakev1.sol\":13686:13703  _userStakeB[user] */\n      0xffffffffffffffffffffffffffffffffffffffff\n      and\n      0xffffffffffffffffffffffffffffffffffffffff\n      and\n      dup2\n      mstore\n      0x20\n      add\n      swap1\n      dup2\n      mstore\n      0x20\n      add\n      0x00\n      keccak256\n        /* \"contracts/kapai/Stakev1.sol\":13686:13713  _userStakeB[user] = amountB */\n      dup2\n      swap1\n      sstore\n      pop\n        /* \"contracts/kapai/Stakev1.sol\":13746:13755  stakeTime */\n      dup6\n        /* \"contracts/kapai/Stakev1.sol\":13723:13737  _userStakeTime */\n      0x12\n        /* \"contracts/kapai/Stakev1.sol\":13723:13743  _userStakeTime[user] */\n      0x00\n        /* \"contracts/kapai/Stakev1.sol\":13738:13742  user */\n      dup13\n        /* \"contracts/kapai/Stakev1.sol\":13723:13743  _userStakeTime[user] */\n      0xffffffffffffffffffffffffffffffffffffffff\n      and\n      0xffffffffffffffffffffffffffffffffffffffff\n      and\n      dup2\n      mstore\n      0x20\n      add\n      swap1\n      dup2\n      mstore\n      0x20\n      add\n      0x00\n      keccak256\n        /* \"contracts/kapai/Stakev1.sol\":13723:13755  _userStakeTime[user] = stakeTime */\n      dup2\n      swap1\n      sstore\n      pop\n        /* \"contracts/kapai/Stakev1.sol\":13793:13807  stakeStartTime */\n      dup5\n        /* \"contracts/kapai/Stakev1.sol\":13765:13784  _userStakeStartTime */\n      0x13\n        /* \"contracts/kapai/Stakev1.sol\":13765:13790  _userStakeStartTime[user] */\n      0x00\n        /* \"contracts/kapai/Stakev1.sol\":13785:13789  user */\n      dup13\n        /* \"contracts/kapai/Stakev1.sol\":13765:13790  _userStakeStartTime[user] */\n      0xffffffffffffffffffffffffffffffffffffffff\n      and\n      0xffffffffffffffffffffffffffffffffffffffff\n      and\n      dup2\n      mstore\n      0x20\n      add\n      swap1\n      dup2\n      mstore\n      0x20\n      add\n      0x00\n      keccak256\n        /* \"contracts/kapai/Stakev1.sol\":13765:13807  _userStakeStartTime[user] = stakeStartTime */\n      dup2\n      swap1\n      sstore\n      pop\n        /* \"contracts/kapai/Stakev1.sol\":13844:13857  userLastClaim */\n      dup4\n        /* \"contracts/kapai/Stakev1.sol\":13817:13835  _userLastClaimTime */\n      0x14\n        /* \"contracts/kapai/Stakev1.sol\":13817:13841  _userLastClaimTime[user] */\n      0x00\n        /* \"contracts/kapai/Stakev1.sol\":13836:13840  user */\n      dup13\n        /* \"contracts/kapai/Stakev1.sol\":13817:13841  _userLastClaimTime[user] */\n      0xffffffffffffffffffffffffffffffffffffffff\n      and\n      0xffffffffffffffffffffffffffffffffffffffff\n      and\n      dup2\n      mstore\n      0x20\n      add\n      swap1\n      dup2\n      mstore\n      0x20\n      add\n      0x00\n      keccak256\n        /* \"contracts/kapai/Stakev1.sol\":13817:13857  _userLastClaimTime[user] = userLastClaim */\n      dup2\n      swap1\n      sstore\n      pop\n        /* \"contracts/kapai/Stakev1.sol\":13886:13895  userPower */\n      dup3\n        /* \"contracts/kapai/Stakev1.sol\":13867:13877  _userPower */\n      0x16\n        /* \"contracts/kapai/Stakev1.sol\":13867:13883  _userPower[user] */\n      0x00\n        /* \"contracts/kapai/Stakev1.sol\":13878:13882  user */\n      dup13\n        /* \"contracts/kapai/Stakev1.sol\":13867:13883  _userPower[user] */\n      0xffffffffffffffffffffffffffffffffffffffff\n      and\n      0xffffffffffffffffffffffffffffffffffffffff\n      and\n      dup2\n      mstore\n      0x20\n      add\n      swap1\n      dup2\n      mstore\n      0x20\n      add\n      0x00\n      keccak256\n        /* \"contracts/kapai/Stakev1.sol\":13867:13895  _userPower[user] = userPower */\n      dup2\n      swap1\n      sstore\n      pop\n        /* \"contracts/kapai/Stakev1.sol\":13931:13947  userEndClaimTime */\n      dup2\n        /* \"contracts/kapai/Stakev1.sol\":13905:13922  _userEndClaimTime */\n      0x15\n        /* \"contracts/kapai/Stakev1.sol\":13905:13928  _userEndClaimTime[user] */\n      0x00\n        /* \"contracts/kapai/Stakev1.sol\":13923:13927  user */\n      dup13\n        /* \"contracts/kapai/Stakev1.sol\":13905:13928  _userEndClaimTime[user] */\n      0xffffffffffffffffffffffffffffffffffffffff\n      and\n      0xffffffffffffffffffffffffffffffffffffffff\n      and\n      dup2\n      mstore\n      0x20\n      add\n      swap1\n      dup2\n      mstore\n      0x20\n      add\n      0x00\n      keccak256\n        /* \"contracts/kapai/Stakev1.sol\":13905:13947  _userEndClaimTime[user] = userEndClaimTime */\n      dup2\n      swap1\n      sstore\n      pop\n        /* \"contracts/kapai/Stakev1.sol\":13991:14015  userStakeMonthlyearnings */\n      dup1\n        /* \"contracts/kapai/Stakev1.sol\":13957:13982  _userStakeMonthlyearnings */\n      0x18\n        /* \"contracts/kapai/Stakev1.sol\":13957:13988  _userStakeMonthlyearnings[user] */\n      0x00\n        /* \"contracts/kapai/Stakev1.sol\":13983:13987  user */\n      dup13\n        /* \"contracts/kapai/Stakev1.sol\":13957:13988  _userStakeMonthlyearnings[user] */\n      0xffffffffffffffffffffffffffffffffffffffff\n      and\n      0xffffffffffffffffffffffffffffffffffffffff\n      and\n      dup2\n      mstore\n      0x20\n      add\n      swap1\n      dup2\n      mstore\n      0x20\n      add\n      0x00\n      keccak256\n        /* \"contracts/kapai/Stakev1.sol\":13957:14015  _userStakeMonthlyearnings[user] = userStakeMonthlyearnings */\n      dup2\n      swap1\n      sstore\n      pop\n        /* \"contracts/kapai/Stakev1.sol\":13270:14022  function ownerSetUser(... */\n      pop\n      pop\n      pop\n      pop\n      pop\n      pop\n      pop\n      pop\n      pop\n      pop\n      jump\t// out\n        /* \"contracts/kapai/Stakev1.sol\":15262:15435  function ownerSetUserStakeTime(... */\n    tag_187:\n        /* \"@openzeppelin/contracts-upgradeable/access/OwnableUpgradeable.sol\":2334:2347  _checkOwner() */\n      tag_420\n        /* \"@openzeppelin/contracts-upgradeable/access/OwnableUpgradeable.sol\":2334:2345  _checkOwner */\n      tag_292\n        /* \"@openzeppelin/contracts-upgradeable/access/OwnableUpgradeable.sol\":2334:2347  _checkOwner() */\n      jump\t// in\n    tag_420:\n        /* \"contracts/kapai/Stakev1.sol\":15412:15421  stakeTime */\n      dup1\n        /* \"contracts/kapai/Stakev1.sol\":15389:15403  _userStakeTime */\n      0x12\n        /* \"contracts/kapai/Stakev1.sol\":15389:15409  _userStakeTime[user] */\n      0x00\n        /* \"contracts/kapai/Stakev1.sol\":15404:15408  user */\n      dup5\n        /* \"contracts/kapai/Stakev1.sol\":15389:15409  _userStakeTime[user] */\n      0xffffffffffffffffffffffffffffffffffffffff\n      and\n      0xffffffffffffffffffffffffffffffffffffffff\n      and\n      dup2\n      mstore\n      0x20\n      add\n      swap1\n      dup2\n      mstore\n      0x20\n      add\n      0x00\n      keccak256\n        /* \"contracts/kapai/Stakev1.sol\":15389:15421  _userStakeTime[user] = stakeTime */\n      dup2\n      swap1\n      sstore\n      pop\n        /* \"contracts/kapai/Stakev1.sol\":15262:15435  function ownerSetUserStakeTime(... */\n      pop\n      pop\n      jump\t// out\n        /* \"contracts/kapai/Stakev1.sol\":12169:12263  function set_rewardToken(address token) public onlyOwner {... */\n    tag_190:\n        /* \"@openzeppelin/contracts-upgradeable/access/OwnableUpgradeable.sol\":2334:2347  _checkOwner() */\n      tag_423\n        /* \"@openzeppelin/contracts-upgradeable/access/OwnableUpgradeable.sol\":2334:2345  _checkOwner */\n      tag_292\n        /* \"@openzeppelin/contracts-upgradeable/access/OwnableUpgradeable.sol\":2334:2347  _checkOwner() */\n      jump\t// in\n    tag_423:\n        /* \"contracts/kapai/Stakev1.sol\":12251:12256  token */\n      dup1\n        /* \"contracts/kapai/Stakev1.sol\":12236:12248  _rewardToken */\n      0x00\n      dup1\n        /* \"contracts/kapai/Stakev1.sol\":12236:12256  _rewardToken = token */\n      0x0100\n      exp\n      dup2\n      sload\n      dup2\n      0xffffffffffffffffffffffffffffffffffffffff\n      mul\n      not\n      and\n      swap1\n      dup4\n      0xffffffffffffffffffffffffffffffffffffffff\n      and\n      mul\n      or\n      swap1\n      sstore\n      pop\n        /* \"contracts/kapai/Stakev1.sol\":12169:12263  function set_rewardToken(address token) public onlyOwner {... */\n      pop\n      jump\t// out\n        /* \"contracts/kapai/Stakev1.sol\":10807:10860  mapping(address => uint256) public _userLastClaimTime */\n    tag_193:\n      mstore(0x20, 0x14)\n      dup1\n      0x00\n      mstore\n      keccak256(0x00, 0x40)\n      0x00\n      swap2\n      pop\n      swap1\n      pop\n      sload\n      dup2\n      jump\t// out\n        /* \"contracts/kapai/Stakev1.sol\":9663:9685  address public _aToken */\n    tag_196:\n      0x03\n      0x00\n      swap1\n      sload\n      swap1\n      0x0100\n      exp\n      swap1\n      div\n      0xffffffffffffffffffffffffffffffffffffffff\n      and\n      dup2\n      jump\t// out\n        /* \"contracts/kapai/Stakev1.sol\":12687:12805  function setUserBlacklist(address user) public onlyOwner {... */\n    tag_200:\n        /* \"@openzeppelin/contracts-upgradeable/access/OwnableUpgradeable.sol\":2334:2347  _checkOwner() */\n      tag_426\n        /* \"@openzeppelin/contracts-upgradeable/access/OwnableUpgradeable.sol\":2334:2345  _checkOwner */\n      tag_292\n        /* \"@openzeppelin/contracts-upgradeable/access/OwnableUpgradeable.sol\":2334:2347  _checkOwner() */\n      jump\t// in\n    tag_426:\n        /* \"contracts/kapai/Stakev1.sol\":12778:12792  _userBlacklist */\n      0x17\n        /* \"contracts/kapai/Stakev1.sol\":12778:12798  _userBlacklist[user] */\n      0x00\n        /* \"contracts/kapai/Stakev1.sol\":12793:12797  user */\n      dup3\n        /* \"contracts/kapai/Stakev1.sol\":12778:12798  _userBlacklist[user] */\n      0xffffffffffffffffffffffffffffffffffffffff\n      and\n      0xffffffffffffffffffffffffffffffffffffffff\n      and\n      dup2\n      mstore\n      0x20\n      add\n      swap1\n      dup2\n      mstore\n      0x20\n      add\n      0x00\n      keccak256\n      0x00\n      swap1\n      sload\n      swap1\n      0x0100\n      exp\n      swap1\n      div\n      0xff\n      and\n        /* \"contracts/kapai/Stakev1.sol\":12777:12798  !_userBlacklist[user] */\n      iszero\n        /* \"contracts/kapai/Stakev1.sol\":12754:12768  _userBlacklist */\n      0x17\n        /* \"contracts/kapai/Stakev1.sol\":12754:12774  _userBlacklist[user] */\n      0x00\n        /* \"contracts/kapai/Stakev1.sol\":12769:12773  user */\n      dup4\n        /* \"contracts/kapai/Stakev1.sol\":12754:12774  _userBlacklist[user] */\n      0xffffffffffffffffffffffffffffffffffffffff\n      and\n      0xffffffffffffffffffffffffffffffffffffffff\n      and\n      dup2\n      mstore\n      0x20\n      add\n      swap1\n      dup2\n      mstore\n      0x20\n      add\n      0x00\n      keccak256\n      0x00\n        /* \"contracts/kapai/Stakev1.sol\":12754:12798  _userBlacklist[user] = !_userBlacklist[user] */\n      0x0100\n      exp\n      dup2\n      sload\n      dup2\n      0xff\n      mul\n      not\n      and\n      swap1\n      dup4\n      iszero\n      iszero\n      mul\n      or\n      swap1\n      sstore\n      pop\n        /* \"contracts/kapai/Stakev1.sol\":12687:12805  function setUserBlacklist(address user) public onlyOwner {... */\n      pop\n      jump\t// out\n        /* \"contracts/kapai/Stakev1.sol\":9871:9893  uint256 public _stake3 */\n    tag_202:\n      sload(0x07)\n      dup2\n      jump\t// out\n        /* \"contracts/kapai/Stakev1.sol\":11269:11300  address public _lpPriceTokenNew */\n    tag_205:\n      0x19\n      0x00\n      swap1\n      sload\n      swap1\n      0x0100\n      exp\n      swap1\n      div\n      0xffffffffffffffffffffffffffffffffffffffff\n      and\n      dup2\n      jump\t// out\n        /* \"contracts/kapai/Stakev1.sol\":10486:10532  mapping(address => uint256) public _userStakeA */\n    tag_209:\n      mstore(0x20, 0x10)\n      dup1\n      0x00\n      mstore\n      keccak256(0x00, 0x40)\n      0x00\n      swap2\n      pop\n      swap1\n      pop\n      sload\n      dup2\n      jump\t// out\n        /* \"contracts/kapai/Stakev1.sol\":10565:10611  mapping(address => uint256) public _userStakeB */\n    tag_213:\n      mstore(0x20, 0x11)\n      dup1\n      0x00\n      mstore\n      keccak256(0x00, 0x40)\n      0x00\n      swap2\n      pop\n      swap1\n      pop\n      sload\n      dup2\n      jump\t// out\n        /* \"@openzeppelin/contracts-upgradeable/access/OwnableUpgradeable.sol\":2441:2585  function owner() public view virtual returns (address) {... */\n    tag_216:\n        /* \"@openzeppelin/contracts-upgradeable/access/OwnableUpgradeable.sol\":2487:2494  address */\n      0x00\n        /* \"@openzeppelin/contracts-upgradeable/access/OwnableUpgradeable.sol\":2506:2530  OwnableStorage storage $ */\n      dup1\n        /* \"@openzeppelin/contracts-upgradeable/access/OwnableUpgradeable.sol\":2533:2553  _getOwnableStorage() */\n      tag_429\n        /* \"@openzeppelin/contracts-upgradeable/access/OwnableUpgradeable.sol\":2533:2551  _getOwnableStorage */\n      tag_430\n        /* \"@openzeppelin/contracts-upgradeable/access/OwnableUpgradeable.sol\":2533:2553  _getOwnableStorage() */\n      jump\t// in\n    tag_429:\n        /* \"@openzeppelin/contracts-upgradeable/access/OwnableUpgradeable.sol\":2506:2553  OwnableStorage storage $ = _getOwnableStorage() */\n      swap1\n      pop\n        /* \"@openzeppelin/contracts-upgradeable/access/OwnableUpgradeable.sol\":2570:2571  $ */\n      dup1\n        /* \"@openzeppelin/contracts-upgradeable/access/OwnableUpgradeable.sol\":2570:2578  $._owner */\n      0x00\n      add\n      0x00\n      swap1\n      sload\n      swap1\n      0x0100\n      exp\n      swap1\n      div\n      0xffffffffffffffffffffffffffffffffffffffff\n      and\n        /* \"@openzeppelin/contracts-upgradeable/access/OwnableUpgradeable.sol\":2563:2578  return $._owner */\n      swap2\n      pop\n      pop\n        /* \"@openzeppelin/contracts-upgradeable/access/OwnableUpgradeable.sol\":2441:2585  function owner() public view virtual returns (address) {... */\n      swap1\n      jump\t// out\n        /* \"contracts/kapai/Stakev1.sol\":11629:11658  address[] public _inviterList */\n    tag_220:\n      0x1e\n      dup2\n      dup2\n      sload\n      dup2\n      lt\n      tag_431\n      jumpi\n      0x00\n      dup1\n      revert\n    tag_431:\n      swap1\n      0x00\n      mstore\n      keccak256(0x00, 0x20)\n      add\n      0x00\n      swap2\n      pop\n      sload\n      swap1\n      0x0100\n      exp\n      swap1\n      div\n      0xffffffffffffffffffffffffffffffffffffffff\n      and\n      dup2\n      jump\t// out\n        /* \"contracts/kapai/Stakev1.sol\":10414:10459  mapping(address => uint256) public _userStake */\n    tag_224:\n      mstore(0x20, 0x0f)\n      dup1\n      0x00\n      mstore\n      keccak256(0x00, 0x40)\n      0x00\n      swap2\n      pop\n      swap1\n      pop\n      sload\n      dup2\n      jump\t// out\n        /* \"contracts/kapai/Stakev1.sol\":16021:17245  function getInvitationsFromIndex(uint256 startIndex) external view returns (address[] memory invitees, address[] memory inviters, uint256[] memory userStakesA, uint256[] memory userStakesB, uint256[] memory userStakeStartTime, uint256[] memory liuShuiIdNumber) {... */\n    tag_228:\n        /* \"contracts/kapai/Stakev1.sol\":16097:16122  address[] memory invitees */\n      0x60\n        /* \"contracts/kapai/Stakev1.sol\":16124:16149  address[] memory inviters */\n      dup1\n        /* \"contracts/kapai/Stakev1.sol\":16151:16179  uint256[] memory userStakesA */\n      0x60\n        /* \"contracts/kapai/Stakev1.sol\":16181:16209  uint256[] memory userStakesB */\n      dup1\n        /* \"contracts/kapai/Stakev1.sol\":16211:16246  uint256[] memory userStakeStartTime */\n      0x60\n        /* \"contracts/kapai/Stakev1.sol\":16248:16280  uint256[] memory liuShuiIdNumber */\n      dup1\n        /* \"contracts/kapai/Stakev1.sol\":16313:16325  _inviterList */\n      0x1e\n        /* \"contracts/kapai/Stakev1.sol\":16313:16332  _inviterList.length */\n      dup1\n      sload\n      swap1\n      pop\n        /* \"contracts/kapai/Stakev1.sol\":16300:16310  startIndex */\n      dup8\n        /* \"contracts/kapai/Stakev1.sol\":16300:16332  startIndex < _inviterList.length */\n      lt\n        /* \"contracts/kapai/Stakev1.sol\":16292:16361  require(startIndex < _inviterList.length, \"Start index out of range\") */\n      tag_434\n      jumpi\n      mload(0x40)\n      0x08c379a000000000000000000000000000000000000000000000000000000000\n      dup2\n      mstore\n      0x04\n      add\n      tag_435\n      swap1\n      tag_436\n      jump\t// in\n    tag_435:\n      mload(0x40)\n      dup1\n      swap2\n      sub\n      swap1\n      revert\n    tag_434:\n        /* \"contracts/kapai/Stakev1.sol\":16372:16385  uint256 count */\n      0x00\n        /* \"contracts/kapai/Stakev1.sol\":16410:16420  startIndex */\n      dup8\n        /* \"contracts/kapai/Stakev1.sol\":16388:16400  _inviterList */\n      0x1e\n        /* \"contracts/kapai/Stakev1.sol\":16388:16407  _inviterList.length */\n      dup1\n      sload\n      swap1\n      pop\n        /* \"contracts/kapai/Stakev1.sol\":16388:16420  _inviterList.length - startIndex */\n      tag_437\n      swap2\n      swap1\n      tag_438\n      jump\t// in\n    tag_437:\n        /* \"contracts/kapai/Stakev1.sol\":16372:16420  uint256 count = _inviterList.length - startIndex */\n      swap1\n      pop\n        /* \"contracts/kapai/Stakev1.sol\":16455:16460  count */\n      dup1\n        /* \"contracts/kapai/Stakev1.sol\":16441:16461  new address[](count) */\n      0xffffffffffffffff\n      dup2\n      gt\n      iszero\n      tag_439\n      jumpi\n      tag_440\n      tag_441\n      jump\t// in\n    tag_440:\n    tag_439:\n      mload(0x40)\n      swap1\n      dup1\n      dup3\n      mstore\n      dup1\n      0x20\n      mul\n      0x20\n      add\n      dup3\n      add\n      0x40\n      mstore\n      dup1\n      iszero\n      tag_442\n      jumpi\n      dup2\n      0x20\n      add\n      0x20\n      dup3\n      mul\n      dup1\n      calldatasize\n      dup4\n      calldatacopy\n      dup1\n      dup3\n      add\n      swap2\n      pop\n      pop\n      swap1\n      pop\n    tag_442:\n      pop\n        /* \"contracts/kapai/Stakev1.sol\":16430:16461  invitees = new address[](count) */\n      swap7\n      pop\n        /* \"contracts/kapai/Stakev1.sol\":16496:16501  count */\n      dup1\n        /* \"contracts/kapai/Stakev1.sol\":16482:16502  new address[](count) */\n      0xffffffffffffffff\n      dup2\n      gt\n      iszero\n      tag_443\n      jumpi\n      tag_444\n      tag_441\n      jump\t// in\n    tag_444:\n    tag_443:\n      mload(0x40)\n      swap1\n      dup1\n      dup3\n      mstore\n      dup1\n      0x20\n      mul\n      0x20\n      add\n      dup3\n      add\n      0x40\n      mstore\n      dup1\n      iszero\n      tag_445\n      jumpi\n      dup2\n      0x20\n      add\n      0x20\n      dup3\n      mul\n      dup1\n      calldatasize\n      dup4\n      calldatacopy\n      dup1\n      dup3\n      add\n      swap2\n      pop\n      pop\n      swap1\n      pop\n    tag_445:\n      pop\n        /* \"contracts/kapai/Stakev1.sol\":16471:16502  inviters = new address[](count) */\n      swap6\n      pop\n        /* \"contracts/kapai/Stakev1.sol\":16540:16545  count */\n      dup1\n        /* \"contracts/kapai/Stakev1.sol\":16526:16546  new uint256[](count) */\n      0xffffffffffffffff\n      dup2\n      gt\n      iszero\n      tag_446\n      jumpi\n      tag_447\n      tag_441\n      jump\t// in\n    tag_447:\n    tag_446:\n      mload(0x40)\n      swap1\n      dup1\n      dup3\n      mstore\n      dup1\n      0x20\n      mul\n      0x20\n      add\n      dup3\n      add\n      0x40\n      mstore\n      dup1\n      iszero\n      tag_448\n      jumpi\n      dup2\n      0x20\n      add\n      0x20\n      dup3\n      mul\n      dup1\n      calldatasize\n      dup4\n      calldatacopy\n      dup1\n      dup3\n      add\n      swap2\n      pop\n      pop\n      swap1\n      pop\n    tag_448:\n      pop\n        /* \"contracts/kapai/Stakev1.sol\":16512:16546  userStakesA = new uint256[](count) */\n      swap5\n      pop\n        /* \"contracts/kapai/Stakev1.sol\":16584:16589  count */\n      dup1\n        /* \"contracts/kapai/Stakev1.sol\":16570:16590  new uint256[](count) */\n      0xffffffffffffffff\n      dup2\n      gt\n      iszero\n      tag_449\n      jumpi\n      tag_450\n      tag_441\n      jump\t// in\n    tag_450:\n    tag_449:\n      mload(0x40)\n      swap1\n      dup1\n      dup3\n      mstore\n      dup1\n      0x20\n      mul\n      0x20\n      add\n      dup3\n      add\n      0x40\n      mstore\n      dup1\n      iszero\n      tag_451\n      jumpi\n      dup2\n      0x20\n      add\n      0x20\n      dup3\n      mul\n      dup1\n      calldatasize\n      dup4\n      calldatacopy\n      dup1\n      dup3\n      add\n      swap2\n      pop\n      pop\n      swap1\n      pop\n    tag_451:\n      pop\n        /* \"contracts/kapai/Stakev1.sol\":16556:16590  userStakesB = new uint256[](count) */\n      swap4\n      pop\n        /* \"contracts/kapai/Stakev1.sol\":16635:16640  count */\n      dup1\n        /* \"contracts/kapai/Stakev1.sol\":16621:16641  new uint256[](count) */\n      0xffffffffffffffff\n      dup2\n      gt\n      iszero\n      tag_452\n      jumpi\n      tag_453\n      tag_441\n      jump\t// in\n    tag_453:\n    tag_452:\n      mload(0x40)\n      swap1\n      dup1\n      dup3\n      mstore\n      dup1\n      0x20\n      mul\n      0x20\n      add\n      dup3\n      add\n      0x40\n      mstore\n      dup1\n      iszero\n      tag_454\n      jumpi\n      dup2\n      0x20\n      add\n      0x20\n      dup3\n      mul\n      dup1\n      calldatasize\n      dup4\n      calldatacopy\n      dup1\n      dup3\n      add\n      swap2\n      pop\n      pop\n      swap1\n      pop\n    tag_454:\n      pop\n        /* \"contracts/kapai/Stakev1.sol\":16600:16641  userStakeStartTime = new uint256[](count) */\n      swap3\n      pop\n        /* \"contracts/kapai/Stakev1.sol\":16683:16688  count */\n      dup1\n        /* \"contracts/kapai/Stakev1.sol\":16669:16689  new uint256[](count) */\n      0xffffffffffffffff\n      dup2\n      gt\n      iszero\n      tag_455\n      jumpi\n      tag_456\n      tag_441\n      jump\t// in\n    tag_456:\n    tag_455:\n      mload(0x40)\n      swap1\n      dup1\n      dup3\n      mstore\n      dup1\n      0x20\n      mul\n      0x20\n      add\n      dup3\n      add\n      0x40\n      mstore\n      dup1\n      iszero\n      tag_457\n      jumpi\n      dup2\n      0x20\n      add\n      0x20\n      dup3\n      mul\n      dup1\n      calldatasize\n      dup4\n      calldatacopy\n      dup1\n      dup3\n      add\n      swap2\n      pop\n      pop\n      swap1\n      pop\n    tag_457:\n      pop\n        /* \"contracts/kapai/Stakev1.sol\":16651:16689  liuShuiIdNumber = new uint256[](count) */\n      swap2\n      pop\n        /* \"contracts/kapai/Stakev1.sol\":16706:16715  uint256 i */\n      0x00\n        /* \"contracts/kapai/Stakev1.sol\":16718:16728  startIndex */\n      dup9\n        /* \"contracts/kapai/Stakev1.sol\":16706:16728  uint256 i = startIndex */\n      swap1\n      pop\n        /* \"contracts/kapai/Stakev1.sol\":16701:17239  for (uint256 i = startIndex; i < _inviterList.length; i++) {... */\n    tag_458:\n        /* \"contracts/kapai/Stakev1.sol\":16734:16746  _inviterList */\n      0x1e\n        /* \"contracts/kapai/Stakev1.sol\":16734:16753  _inviterList.length */\n      dup1\n      sload\n      swap1\n      pop\n        /* \"contracts/kapai/Stakev1.sol\":16730:16731  i */\n      dup2\n        /* \"contracts/kapai/Stakev1.sol\":16730:16753  i < _inviterList.length */\n      lt\n        /* \"contracts/kapai/Stakev1.sol\":16701:17239  for (uint256 i = startIndex; i < _inviterList.length; i++) {... */\n      iszero\n      tag_459\n      jumpi\n        /* \"contracts/kapai/Stakev1.sol\":16774:16796  address inviteeAddress */\n      0x00\n        /* \"contracts/kapai/Stakev1.sol\":16799:16811  _inviterList */\n      0x1e\n        /* \"contracts/kapai/Stakev1.sol\":16812:16813  i */\n      dup3\n        /* \"contracts/kapai/Stakev1.sol\":16799:16814  _inviterList[i] */\n      dup2\n      sload\n      dup2\n      lt\n      tag_461\n      jumpi\n      tag_462\n      tag_322\n      jump\t// in\n    tag_462:\n    tag_461:\n      swap1\n      0x00\n      mstore\n      keccak256(0x00, 0x20)\n      add\n      0x00\n      swap1\n      sload\n      swap1\n      0x0100\n      exp\n      swap1\n      div\n      0xffffffffffffffffffffffffffffffffffffffff\n      and\n        /* \"contracts/kapai/Stakev1.sol\":16774:16814  address inviteeAddress = _inviterList[i] */\n      swap1\n      pop\n        /* \"contracts/kapai/Stakev1.sol\":16855:16869  inviteeAddress */\n      dup1\n        /* \"contracts/kapai/Stakev1.sol\":16828:16836  invitees */\n      dup10\n        /* \"contracts/kapai/Stakev1.sol\":16841:16851  startIndex */\n      dup12\n        /* \"contracts/kapai/Stakev1.sol\":16837:16838  i */\n      dup5\n        /* \"contracts/kapai/Stakev1.sol\":16837:16851  i - startIndex */\n      tag_464\n      swap2\n      swap1\n      tag_438\n      jump\t// in\n    tag_464:\n        /* \"contracts/kapai/Stakev1.sol\":16828:16852  invitees[i - startIndex] */\n      dup2\n      mload\n      dup2\n      lt\n      tag_465\n      jumpi\n      tag_466\n      tag_322\n      jump\t// in\n    tag_466:\n    tag_465:\n      0x20\n      mul\n      0x20\n      add\n      add\n        /* \"contracts/kapai/Stakev1.sol\":16828:16869  invitees[i - startIndex] = inviteeAddress */\n      swap1\n      0xffffffffffffffffffffffffffffffffffffffff\n      and\n      swap1\n      dup2\n      0xffffffffffffffffffffffffffffffffffffffff\n      and\n      dup2\n      mstore\n      pop\n      pop\n        /* \"contracts/kapai/Stakev1.sol\":16910:16921  _inviterMap */\n      0x0c\n        /* \"contracts/kapai/Stakev1.sol\":16910:16937  _inviterMap[inviteeAddress] */\n      0x00\n        /* \"contracts/kapai/Stakev1.sol\":16922:16936  inviteeAddress */\n      dup3\n        /* \"contracts/kapai/Stakev1.sol\":16910:16937  _inviterMap[inviteeAddress] */\n      0xffffffffffffffffffffffffffffffffffffffff\n      and\n      0xffffffffffffffffffffffffffffffffffffffff\n      and\n      dup2\n      mstore\n      0x20\n      add\n      swap1\n      dup2\n      mstore\n      0x20\n      add\n      0x00\n      keccak256\n      0x00\n      swap1\n      sload\n      swap1\n      0x0100\n      exp\n      swap1\n      div\n      0xffffffffffffffffffffffffffffffffffffffff\n      and\n        /* \"contracts/kapai/Stakev1.sol\":16883:16891  inviters */\n      dup9\n        /* \"contracts/kapai/Stakev1.sol\":16896:16906  startIndex */\n      dup12\n        /* \"contracts/kapai/Stakev1.sol\":16892:16893  i */\n      dup5\n        /* \"contracts/kapai/Stakev1.sol\":16892:16906  i - startIndex */\n      tag_467\n      swap2\n      swap1\n      tag_438\n      jump\t// in\n    tag_467:\n        /* \"contracts/kapai/Stakev1.sol\":16883:16907  inviters[i - startIndex] */\n      dup2\n      mload\n      dup2\n      lt\n      tag_468\n      jumpi\n      tag_469\n      tag_322\n      jump\t// in\n    tag_469:\n    tag_468:\n      0x20\n      mul\n      0x20\n      add\n      add\n        /* \"contracts/kapai/Stakev1.sol\":16883:16937  inviters[i - startIndex] = _inviterMap[inviteeAddress] */\n      swap1\n      0xffffffffffffffffffffffffffffffffffffffff\n      and\n      swap1\n      dup2\n      0xffffffffffffffffffffffffffffffffffffffff\n      and\n      dup2\n      mstore\n      pop\n      pop\n        /* \"contracts/kapai/Stakev1.sol\":16981:16992  _userStakeA */\n      0x10\n        /* \"contracts/kapai/Stakev1.sol\":16981:17008  _userStakeA[inviteeAddress] */\n      0x00\n        /* \"contracts/kapai/Stakev1.sol\":16993:17007  inviteeAddress */\n      dup3\n        /* \"contracts/kapai/Stakev1.sol\":16981:17008  _userStakeA[inviteeAddress] */\n      0xffffffffffffffffffffffffffffffffffffffff\n      and\n      0xffffffffffffffffffffffffffffffffffffffff\n      and\n      dup2\n      mstore\n      0x20\n      add\n      swap1\n      dup2\n      mstore\n      0x20\n      add\n      0x00\n      keccak256\n      sload\n        /* \"contracts/kapai/Stakev1.sol\":16951:16962  userStakesA */\n      dup8\n        /* \"contracts/kapai/Stakev1.sol\":16967:16977  startIndex */\n      dup12\n        /* \"contracts/kapai/Stakev1.sol\":16963:16964  i */\n      dup5\n        /* \"contracts/kapai/Stakev1.sol\":16963:16977  i - startIndex */\n      tag_470\n      swap2\n      swap1\n      tag_438\n      jump\t// in\n    tag_470:\n        /* \"contracts/kapai/Stakev1.sol\":16951:16978  userStakesA[i - startIndex] */\n      dup2\n      mload\n      dup2\n      lt\n      tag_471\n      jumpi\n      tag_472\n      tag_322\n      jump\t// in\n    tag_472:\n    tag_471:\n      0x20\n      mul\n      0x20\n      add\n      add\n        /* \"contracts/kapai/Stakev1.sol\":16951:17008  userStakesA[i - startIndex] = _userStakeA[inviteeAddress] */\n      dup2\n      dup2\n      mstore\n      pop\n      pop\n        /* \"contracts/kapai/Stakev1.sol\":17052:17063  _userStakeB */\n      0x11\n        /* \"contracts/kapai/Stakev1.sol\":17052:17079  _userStakeB[inviteeAddress] */\n      0x00\n        /* \"contracts/kapai/Stakev1.sol\":17064:17078  inviteeAddress */\n      dup3\n        /* \"contracts/kapai/Stakev1.sol\":17052:17079  _userStakeB[inviteeAddress] */\n      0xffffffffffffffffffffffffffffffffffffffff\n      and\n      0xffffffffffffffffffffffffffffffffffffffff\n      and\n      dup2\n      mstore\n      0x20\n      add\n      swap1\n      dup2\n      mstore\n      0x20\n      add\n      0x00\n      keccak256\n      sload\n        /* \"contracts/kapai/Stakev1.sol\":17022:17033  userStakesB */\n      dup7\n        /* \"contracts/kapai/Stakev1.sol\":17038:17048  startIndex */\n      dup12\n        /* \"contracts/kapai/Stakev1.sol\":17034:17035  i */\n      dup5\n        /* \"contracts/kapai/Stakev1.sol\":17034:17048  i - startIndex */\n      tag_473\n      swap2\n      swap1\n      tag_438\n      jump\t// in\n    tag_473:\n        /* \"contracts/kapai/Stakev1.sol\":17022:17049  userStakesB[i - startIndex] */\n      dup2\n      mload\n      dup2\n      lt\n      tag_474\n      jumpi\n      tag_475\n      tag_322\n      jump\t// in\n    tag_475:\n    tag_474:\n      0x20\n      mul\n      0x20\n      add\n      add\n        /* \"contracts/kapai/Stakev1.sol\":17022:17079  userStakesB[i - startIndex] = _userStakeB[inviteeAddress] */\n      dup2\n      dup2\n      mstore\n      pop\n      pop\n        /* \"contracts/kapai/Stakev1.sol\":17129:17148  _userStakeStartTime */\n      0x13\n        /* \"contracts/kapai/Stakev1.sol\":17129:17164  _userStakeStartTime[inviteeAddress] */\n      0x00\n        /* \"contracts/kapai/Stakev1.sol\":17149:17163  inviteeAddress */\n      dup3\n        /* \"contracts/kapai/Stakev1.sol\":17129:17164  _userStakeStartTime[inviteeAddress] */\n      0xffffffffffffffffffffffffffffffffffffffff\n      and\n      0xffffffffffffffffffffffffffffffffffffffff\n      and\n      dup2\n      mstore\n      0x20\n      add\n      swap1\n      dup2\n      mstore\n      0x20\n      add\n      0x00\n      keccak256\n      sload\n        /* \"contracts/kapai/Stakev1.sol\":17093:17111  userStakeStartTime */\n      dup6\n        /* \"contracts/kapai/Stakev1.sol\":17116:17126  startIndex */\n      dup12\n        /* \"contracts/kapai/Stakev1.sol\":17112:17113  i */\n      dup5\n        /* \"contracts/kapai/Stakev1.sol\":17112:17126  i - startIndex */\n      tag_476\n      swap2\n      swap1\n      tag_438\n      jump\t// in\n    tag_476:\n        /* \"contracts/kapai/Stakev1.sol\":17093:17127  userStakeStartTime[i - startIndex] */\n      dup2\n      mload\n      dup2\n      lt\n      tag_477\n      jumpi\n      tag_478\n      tag_322\n      jump\t// in\n    tag_478:\n    tag_477:\n      0x20\n      mul\n      0x20\n      add\n      add\n        /* \"contracts/kapai/Stakev1.sol\":17093:17164  userStakeStartTime[i - startIndex] =_userStakeStartTime[inviteeAddress] */\n      dup2\n      dup2\n      mstore\n      pop\n      pop\n        /* \"contracts/kapai/Stakev1.sol\":17211:17212  i */\n      dup2\n        /* \"contracts/kapai/Stakev1.sol\":17178:17193  liuShuiIdNumber */\n      dup5\n        /* \"contracts/kapai/Stakev1.sol\":17198:17208  startIndex */\n      dup12\n        /* \"contracts/kapai/Stakev1.sol\":17194:17195  i */\n      dup5\n        /* \"contracts/kapai/Stakev1.sol\":17194:17208  i - startIndex */\n      tag_479\n      swap2\n      swap1\n      tag_438\n      jump\t// in\n    tag_479:\n        /* \"contracts/kapai/Stakev1.sol\":17178:17209  liuShuiIdNumber[i - startIndex] */\n      dup2\n      mload\n      dup2\n      lt\n      tag_480\n      jumpi\n      tag_481\n      tag_322\n      jump\t// in\n    tag_481:\n    tag_480:\n      0x20\n      mul\n      0x20\n      add\n      add\n        /* \"contracts/kapai/Stakev1.sol\":17178:17212  liuShuiIdNumber[i - startIndex] =i */\n      dup2\n      dup2\n      mstore\n      pop\n      pop\n        /* \"contracts/kapai/Stakev1.sol\":16760:17239  {... */\n      pop\n        /* \"contracts/kapai/Stakev1.sol\":16755:16758  i++ */\n      dup1\n      dup1\n      0x01\n      add\n      swap2\n      pop\n      pop\n        /* \"contracts/kapai/Stakev1.sol\":16701:17239  for (uint256 i = startIndex; i < _inviterList.length; i++) {... */\n      jump(tag_458)\n    tag_459:\n      pop\n        /* \"contracts/kapai/Stakev1.sol\":16282:17245  {... */\n      pop\n        /* \"contracts/kapai/Stakev1.sol\":16021:17245  function getInvitationsFromIndex(uint256 startIndex) external view returns (address[] memory invitees, address[] memory inviters, uint256[] memory userStakesA, uint256[] memory userStakesB, uint256[] memory userStakeStartTime, uint256[] memory liuShuiIdNumber) {... */\n      swap2\n      swap4\n      swap6\n      pop\n      swap2\n      swap4\n      swap6\n      jump\t// out\n        /* \"contracts/kapai/Stakev1.sol\":21903:21987  function set_cToken(address token) public onlyOwner {... */\n    tag_233:\n        /* \"@openzeppelin/contracts-upgradeable/access/OwnableUpgradeable.sol\":2334:2347  _checkOwner() */\n      tag_483\n        /* \"@openzeppelin/contracts-upgradeable/access/OwnableUpgradeable.sol\":2334:2345  _checkOwner */\n      tag_292\n        /* \"@openzeppelin/contracts-upgradeable/access/OwnableUpgradeable.sol\":2334:2347  _checkOwner() */\n      jump\t// in\n    tag_483:\n        /* \"contracts/kapai/Stakev1.sol\":21975:21980  token */\n      dup1\n        /* \"contracts/kapai/Stakev1.sol\":21965:21972  _cToken */\n      0x1f\n      0x00\n        /* \"contracts/kapai/Stakev1.sol\":21965:21980  _cToken = token */\n      0x0100\n      exp\n      dup2\n      sload\n      dup2\n      0xffffffffffffffffffffffffffffffffffffffff\n      mul\n      not\n      and\n      swap1\n      dup4\n      0xffffffffffffffffffffffffffffffffffffffff\n      and\n      mul\n      or\n      swap1\n      sstore\n      pop\n        /* \"contracts/kapai/Stakev1.sol\":21903:21987  function set_cToken(address token) public onlyOwner {... */\n      pop\n      jump\t// out\n        /* \"contracts/kapai/Stakev1.sol\":10644:10693  mapping(address => uint256) public _userStakeTime */\n    tag_236:\n      mstore(0x20, 0x12)\n      dup1\n      0x00\n      mstore\n      keccak256(0x00, 0x40)\n      0x00\n      swap2\n      pop\n      swap1\n      pop\n      sload\n      dup2\n      jump\t// out\n        /* \"contracts/kapai/Stakev1.sol\":11532:11587  mapping(address => uint256) public _userMoonClaimNumber */\n    tag_240:\n      mstore(0x20, 0x1d)\n      dup1\n      0x00\n      mstore\n      keccak256(0x00, 0x40)\n      0x00\n      swap2\n      pop\n      swap1\n      pop\n      sload\n      dup2\n      jump\t// out\n        /* \"contracts/kapai/Stakev1.sol\":9829:9851  uint256 public _stake1 */\n    tag_243:\n      sload(0x06)\n      dup2\n      jump\t// out\n        /* \"contracts/kapai/Stakev1.sol\":11378:11397  uint256 public _wei */\n    tag_246:\n      sload(0x1b)\n      dup2\n      jump\t// out\n        /* \"contracts/kapai/Stakev1.sol\":12950:13097  function setStatus(bool stakeStart, bool claimStart) public onlyOwner {... */\n    tag_251:\n        /* \"@openzeppelin/contracts-upgradeable/access/OwnableUpgradeable.sol\":2334:2347  _checkOwner() */\n      tag_486\n        /* \"@openzeppelin/contracts-upgradeable/access/OwnableUpgradeable.sol\":2334:2345  _checkOwner */\n      tag_292\n        /* \"@openzeppelin/contracts-upgradeable/access/OwnableUpgradeable.sol\":2334:2347  _checkOwner() */\n      jump\t// in\n    tag_486:\n        /* \"contracts/kapai/Stakev1.sol\":13045:13055  stakeStart */\n      dup2\n        /* \"contracts/kapai/Stakev1.sol\":13030:13042  isStakeStart */\n      0x0a\n      0x00\n        /* \"contracts/kapai/Stakev1.sol\":13030:13055  isStakeStart = stakeStart */\n      0x0100\n      exp\n      dup2\n      sload\n      dup2\n      0xff\n      mul\n      not\n      and\n      swap1\n      dup4\n      iszero\n      iszero\n      mul\n      or\n      swap1\n      sstore\n      pop\n        /* \"contracts/kapai/Stakev1.sol\":13080:13090  claimStart */\n      dup1\n        /* \"contracts/kapai/Stakev1.sol\":13065:13077  isClaimStart */\n      0x0a\n      0x01\n        /* \"contracts/kapai/Stakev1.sol\":13065:13090  isClaimStart = claimStart */\n      0x0100\n      exp\n      dup2\n      sload\n      dup2\n      0xff\n      mul\n      not\n      and\n      swap1\n      dup4\n      iszero\n      iszero\n      mul\n      or\n      swap1\n      sstore\n      pop\n        /* \"contracts/kapai/Stakev1.sol\":12950:13097  function setStatus(bool stakeStart, bool claimStart) public onlyOwner {... */\n      pop\n      pop\n      jump\t// out\n        /* \"contracts/kapai/Stakev1.sol\":9501:9528  address public _rewardToken */\n    tag_253:\n      0x00\n      dup1\n      sload\n      swap1\n      0x0100\n      exp\n      swap1\n      div\n      0xffffffffffffffffffffffffffffffffffffffff\n      and\n      dup2\n      jump\t// out\n        /* \"contracts/kapai/Stakev1.sol\":10972:11017  mapping(address => uint256) public _userPower */\n    tag_257:\n      mstore(0x20, 0x16)\n      dup1\n      0x00\n      mstore\n      keccak256(0x00, 0x40)\n      0x00\n      swap2\n      pop\n      swap1\n      pop\n      sload\n      dup2\n      jump\t// out\n        /* \"contracts/kapai/Stakev1.sol\":11753:11805  function foo() public{... */\n    tag_260:\n        /* \"contracts/kapai/Stakev1.sol\":11784:11798  words = \"news\" */\n      mload(0x40)\n      dup1\n      0x40\n      add\n      0x40\n      mstore\n      dup1\n      0x04\n      dup2\n      mstore\n      0x20\n      add\n      0x6e65777300000000000000000000000000000000000000000000000000000000\n      dup2\n      mstore\n      pop\n        /* \"contracts/kapai/Stakev1.sol\":11784:11789  words */\n      0x0b\n        /* \"contracts/kapai/Stakev1.sol\":11784:11798  words = \"news\" */\n      swap1\n      dup2\n      tag_489\n      swap2\n      swap1\n      tag_490\n      jump\t// in\n    tag_489:\n      pop\n        /* \"contracts/kapai/Stakev1.sol\":11753:11805  function foo() public{... */\n      jump\t// out\n        /* \"contracts/kapai/Stakev1.sol\":8148:9496  function initialize(address owner)public initializer{... */\n    tag_263:\n        /* \"@openzeppelin/contracts-upgradeable/proxy/utils/Initializable.sol\":4158:4188  InitializableStorage storage $ */\n      0x00\n        /* \"@openzeppelin/contracts-upgradeable/proxy/utils/Initializable.sol\":4191:4217  _getInitializableStorage() */\n      tag_492\n        /* \"@openzeppelin/contracts-upgradeable/proxy/utils/Initializable.sol\":4191:4215  _getInitializableStorage */\n      tag_493\n        /* \"@openzeppelin/contracts-upgradeable/proxy/utils/Initializable.sol\":4191:4217  _getInitializableStorage() */\n      jump\t// in\n    tag_492:\n        /* \"@openzeppelin/contracts-upgradeable/proxy/utils/Initializable.sol\":4158:4217  InitializableStorage storage $ = _getInitializableStorage() */\n      swap1\n      pop\n        /* \"@openzeppelin/contracts-upgradeable/proxy/utils/Initializable.sol\":4279:4298  bool isTopLevelCall */\n      0x00\n        /* \"@openzeppelin/contracts-upgradeable/proxy/utils/Initializable.sol\":4302:4303  $ */\n      dup2\n        /* \"@openzeppelin/contracts-upgradeable/proxy/utils/Initializable.sol\":4302:4317  $._initializing */\n      0x00\n      add\n      0x08\n      swap1\n      sload\n      swap1\n      0x0100\n      exp\n      swap1\n      div\n      0xff\n      and\n        /* \"@openzeppelin/contracts-upgradeable/proxy/utils/Initializable.sol\":4301:4317  !$._initializing */\n      iszero\n        /* \"@openzeppelin/contracts-upgradeable/proxy/utils/Initializable.sol\":4279:4317  bool isTopLevelCall = !$._initializing */\n      swap1\n      pop\n        /* \"@openzeppelin/contracts-upgradeable/proxy/utils/Initializable.sol\":4327:4345  uint64 initialized */\n      0x00\n        /* \"@openzeppelin/contracts-upgradeable/proxy/utils/Initializable.sol\":4348:4349  $ */\n      dup3\n        /* \"@openzeppelin/contracts-upgradeable/proxy/utils/Initializable.sol\":4348:4362  $._initialized */\n      0x00\n      add\n      0x00\n      swap1\n      sload\n      swap1\n      0x0100\n      exp\n      swap1\n      div\n      0xffffffffffffffff\n      and\n        /* \"@openzeppelin/contracts-upgradeable/proxy/utils/Initializable.sol\":4327:4362  uint64 initialized = $._initialized */\n      swap1\n      pop\n        /* \"@openzeppelin/contracts-upgradeable/proxy/utils/Initializable.sol\":4706:4723  bool initialSetup */\n      0x00\n        /* \"@openzeppelin/contracts-upgradeable/proxy/utils/Initializable.sol\":4741:4742  0 */\n      dup1\n        /* \"@openzeppelin/contracts-upgradeable/proxy/utils/Initializable.sol\":4726:4737  initialized */\n      dup3\n        /* \"@openzeppelin/contracts-upgradeable/proxy/utils/Initializable.sol\":4726:4742  initialized == 0 */\n      0xffffffffffffffff\n      and\n      eq\n        /* \"@openzeppelin/contracts-upgradeable/proxy/utils/Initializable.sol\":4726:4760  initialized == 0 && isTopLevelCall */\n      dup1\n      iszero\n      tag_494\n      jumpi\n      pop\n        /* \"@openzeppelin/contracts-upgradeable/proxy/utils/Initializable.sol\":4746:4760  isTopLevelCall */\n      dup3\n        /* \"@openzeppelin/contracts-upgradeable/proxy/utils/Initializable.sol\":4726:4760  initialized == 0 && isTopLevelCall */\n    tag_494:\n        /* \"@openzeppelin/contracts-upgradeable/proxy/utils/Initializable.sol\":4706:4760  bool initialSetup = initialized == 0 && isTopLevelCall */\n      swap1\n      pop\n        /* \"@openzeppelin/contracts-upgradeable/proxy/utils/Initializable.sol\":4770:4787  bool construction */\n      0x00\n        /* \"@openzeppelin/contracts-upgradeable/proxy/utils/Initializable.sol\":4805:4806  1 */\n      0x01\n        /* \"@openzeppelin/contracts-upgradeable/proxy/utils/Initializable.sol\":4790:4801  initialized */\n      dup4\n        /* \"@openzeppelin/contracts-upgradeable/proxy/utils/Initializable.sol\":4790:4806  initialized == 1 */\n      0xffffffffffffffff\n      and\n      eq\n        /* \"@openzeppelin/contracts-upgradeable/proxy/utils/Initializable.sol\":4790:4840  initialized == 1 && address(this).code.length == 0 */\n      dup1\n      iszero\n      tag_495\n      jumpi\n      pop\n        /* \"@openzeppelin/contracts-upgradeable/proxy/utils/Initializable.sol\":4839:4840  0 */\n      0x00\n        /* \"@openzeppelin/contracts-upgradeable/proxy/utils/Initializable.sol\":4818:4822  this */\n      address\n        /* \"@openzeppelin/contracts-upgradeable/proxy/utils/Initializable.sol\":4810:4835  address(this).code.length */\n      0xffffffffffffffffffffffffffffffffffffffff\n      and\n      extcodesize\n        /* \"@openzeppelin/contracts-upgradeable/proxy/utils/Initializable.sol\":4810:4840  address(this).code.length == 0 */\n      eq\n        /* \"@openzeppelin/contracts-upgradeable/proxy/utils/Initializable.sol\":4790:4840  initialized == 1 && address(this).code.length == 0 */\n    tag_495:\n        /* \"@openzeppelin/contracts-upgradeable/proxy/utils/Initializable.sol\":4770:4840  bool construction = initialized == 1 && address(this).code.length == 0 */\n      swap1\n      pop\n        /* \"@openzeppelin/contracts-upgradeable/proxy/utils/Initializable.sol\":4856:4868  initialSetup */\n      dup2\n        /* \"@openzeppelin/contracts-upgradeable/proxy/utils/Initializable.sol\":4855:4868  !initialSetup */\n      iszero\n        /* \"@openzeppelin/contracts-upgradeable/proxy/utils/Initializable.sol\":4855:4885  !initialSetup && !construction */\n      dup1\n      iszero\n      tag_496\n      jumpi\n      pop\n        /* \"@openzeppelin/contracts-upgradeable/proxy/utils/Initializable.sol\":4873:4885  construction */\n      dup1\n        /* \"@openzeppelin/contracts-upgradeable/proxy/utils/Initializable.sol\":4872:4885  !construction */\n      iszero\n        /* \"@openzeppelin/contracts-upgradeable/proxy/utils/Initializable.sol\":4855:4885  !initialSetup && !construction */\n    tag_496:\n        /* \"@openzeppelin/contracts-upgradeable/proxy/utils/Initializable.sol\":4851:4942  if (!initialSetup && !construction) {... */\n      iszero\n      tag_497\n      jumpi\n        /* \"@openzeppelin/contracts-upgradeable/proxy/utils/Initializable.sol\":4908:4931  InvalidInitialization() */\n      mload(0x40)\n      0xf92ee8a900000000000000000000000000000000000000000000000000000000\n      dup2\n      mstore\n      0x04\n      add\n      mload(0x40)\n      dup1\n      swap2\n      sub\n      swap1\n      revert\n        /* \"@openzeppelin/contracts-upgradeable/proxy/utils/Initializable.sol\":4851:4942  if (!initialSetup && !construction) {... */\n    tag_497:\n        /* \"@openzeppelin/contracts-upgradeable/proxy/utils/Initializable.sol\":4968:4969  1 */\n      0x01\n        /* \"@openzeppelin/contracts-upgradeable/proxy/utils/Initializable.sol\":4951:4952  $ */\n      dup6\n        /* \"@openzeppelin/contracts-upgradeable/proxy/utils/Initializable.sol\":4951:4965  $._initialized */\n      0x00\n      add\n      0x00\n        /* \"@openzeppelin/contracts-upgradeable/proxy/utils/Initializable.sol\":4951:4969  $._initialized = 1 */\n      0x0100\n      exp\n      dup2\n      sload\n      dup2\n      0xffffffffffffffff\n      mul\n      not\n      and\n      swap1\n      dup4\n      0xffffffffffffffff\n      and\n      mul\n      or\n      swap1\n      sstore\n      pop\n        /* \"@openzeppelin/contracts-upgradeable/proxy/utils/Initializable.sol\":4983:4997  isTopLevelCall */\n      dup4\n        /* \"@openzeppelin/contracts-upgradeable/proxy/utils/Initializable.sol\":4979:5046  if (isTopLevelCall) {... */\n      iszero\n      tag_498\n      jumpi\n        /* \"@openzeppelin/contracts-upgradeable/proxy/utils/Initializable.sol\":5031:5035  true */\n      0x01\n        /* \"@openzeppelin/contracts-upgradeable/proxy/utils/Initializable.sol\":5013:5014  $ */\n      dup6\n        /* \"@openzeppelin/contracts-upgradeable/proxy/utils/Initializable.sol\":5013:5028  $._initializing */\n      0x00\n      add\n      0x08\n        /* \"@openzeppelin/contracts-upgradeable/proxy/utils/Initializable.sol\":5013:5035  $._initializing = true */\n      0x0100\n      exp\n      dup2\n      sload\n      dup2\n      0xff\n      mul\n      not\n      and\n      swap1\n      dup4\n      iszero\n      iszero\n      mul\n      or\n      swap1\n      sstore\n      pop\n        /* \"@openzeppelin/contracts-upgradeable/proxy/utils/Initializable.sol\":4979:5046  if (isTopLevelCall) {... */\n    tag_498:\n        /* \"contracts/kapai/Stakev1.sol\":8204:8230  __Context_init_unchained() */\n      tag_500\n        /* \"contracts/kapai/Stakev1.sol\":8204:8228  __Context_init_unchained */\n      tag_501\n        /* \"contracts/kapai/Stakev1.sol\":8204:8230  __Context_init_unchained() */\n      jump\t// in\n    tag_500:\n        /* \"contracts/kapai/Stakev1.sol\":8234:8265  __Ownable_init_unchained(owner) */\n      tag_502\n        /* \"contracts/kapai/Stakev1.sol\":8259:8264  owner */\n      dup7\n        /* \"contracts/kapai/Stakev1.sol\":8234:8258  __Ownable_init_unchained */\n      tag_503\n        /* \"contracts/kapai/Stakev1.sol\":8234:8265  __Ownable_init_unchained(owner) */\n      jump\t// in\n    tag_502:\n        /* \"contracts/kapai/Stakev1.sol\":8311:8353  0x768a62a22b187EB350637e720ebC552D905c0331 */\n      0x768a62a22b187eb350637e720ebc552d905c0331\n        /* \"contracts/kapai/Stakev1.sol\":8296:8308  _rewardToken */\n      0x00\n      dup1\n        /* \"contracts/kapai/Stakev1.sol\":8296:8353  _rewardToken = 0x768a62a22b187EB350637e720ebC552D905c0331 */\n      0x0100\n      exp\n      dup2\n      sload\n      dup2\n      0xffffffffffffffffffffffffffffffffffffffff\n      mul\n      not\n      and\n      swap1\n      dup4\n      0xffffffffffffffffffffffffffffffffffffffff\n      and\n      mul\n      or\n      swap1\n      sstore\n      pop\n        /* \"contracts/kapai/Stakev1.sol\":8393:8435  0x6b6b2D8166D13b58155b8d454F239AE3691257A6 */\n      0x6b6b2d8166d13b58155b8d454f239ae3691257a6\n        /* \"contracts/kapai/Stakev1.sol\":8379:8390  _stakeToken */\n      0x01\n      0x00\n        /* \"contracts/kapai/Stakev1.sol\":8379:8435  _stakeToken = 0x6b6b2D8166D13b58155b8d454F239AE3691257A6 */\n      0x0100\n      exp\n      dup2\n      sload\n      dup2\n      0xffffffffffffffffffffffffffffffffffffffff\n      mul\n      not\n      and\n      swap1\n      dup4\n      0xffffffffffffffffffffffffffffffffffffffff\n      and\n      mul\n      or\n      swap1\n      sstore\n      pop\n        /* \"contracts/kapai/Stakev1.sol\":8476:8518  0xB1bF470A9720F8d2E49512DbbcCf7180e4Ac4679 */\n      0xb1bf470a9720f8d2e49512dbbccf7180e4ac4679\n        /* \"contracts/kapai/Stakev1.sol\":8460:8473  _lpPriceToken */\n      0x02\n      0x00\n        /* \"contracts/kapai/Stakev1.sol\":8460:8518  _lpPriceToken = 0xB1bF470A9720F8d2E49512DbbcCf7180e4Ac4679 */\n      0x0100\n      exp\n      dup2\n      sload\n      dup2\n      0xffffffffffffffffffffffffffffffffffffffff\n      mul\n      not\n      and\n      swap1\n      dup4\n      0xffffffffffffffffffffffffffffffffffffffff\n      and\n      mul\n      or\n      swap1\n      sstore\n      pop\n        /* \"contracts/kapai/Stakev1.sol\":8569:8611  0x768a62a22b187EB350637e720ebC552D905c0331 */\n      0x768a62a22b187eb350637e720ebc552d905c0331\n        /* \"contracts/kapai/Stakev1.sol\":8559:8566  _aToken */\n      0x03\n      0x00\n        /* \"contracts/kapai/Stakev1.sol\":8559:8611  _aToken = 0x768a62a22b187EB350637e720ebC552D905c0331 */\n      0x0100\n      exp\n      dup2\n      sload\n      dup2\n      0xffffffffffffffffffffffffffffffffffffffff\n      mul\n      not\n      and\n      swap1\n      dup4\n      0xffffffffffffffffffffffffffffffffffffffff\n      and\n      mul\n      or\n      swap1\n      sstore\n      pop\n        /* \"contracts/kapai/Stakev1.sol\":8689:8731  0xb0a36D088a29fE666b93464C96E33058fd885F99 */\n      0xb0a36d088a29fe666b93464c96e33058fd885f99\n        /* \"contracts/kapai/Stakev1.sol\":8679:8686  _bToken */\n      0x04\n      0x00\n        /* \"contracts/kapai/Stakev1.sol\":8679:8731  _bToken = 0xb0a36D088a29fE666b93464C96E33058fd885F99 */\n      0x0100\n      exp\n      dup2\n      sload\n      dup2\n      0xffffffffffffffffffffffffffffffffffffffff\n      mul\n      not\n      and\n      swap1\n      dup4\n      0xffffffffffffffffffffffffffffffffffffffff\n      and\n      mul\n      or\n      swap1\n      sstore\n      pop\n        /* \"contracts/kapai/Stakev1.sol\":8763:8805  0xb0a36D088a29fE666b93464C96E33058fd885F99 */\n      0xb0a36d088a29fe666b93464c96e33058fd885f99\n        /* \"contracts/kapai/Stakev1.sol\":8753:8760  _cToken */\n      0x1f\n      0x00\n        /* \"contracts/kapai/Stakev1.sol\":8753:8805  _cToken = 0xb0a36D088a29fE666b93464C96E33058fd885F99 */\n      0x0100\n      exp\n      dup2\n      sload\n      dup2\n      0xffffffffffffffffffffffffffffffffffffffff\n      mul\n      not\n      and\n      swap1\n      dup4\n      0xffffffffffffffffffffffffffffffffffffffff\n      and\n      mul\n      or\n      swap1\n      sstore\n      pop\n        /* \"contracts/kapai/Stakev1.sol\":8868:8910  0x466bebfDDEE7e03965c7b8c8a22db117B5b73aEc */\n      0x466bebfddee7e03965c7b8c8a22db117b5b73aec\n        /* \"contracts/kapai/Stakev1.sol\":8854:8865  _adminToken */\n      0x05\n      0x00\n        /* \"contracts/kapai/Stakev1.sol\":8854:8910  _adminToken = 0x466bebfDDEE7e03965c7b8c8a22db117B5b73aEc */\n      0x0100\n      exp\n      dup2\n      sload\n      dup2\n      0xffffffffffffffffffffffffffffffffffffffff\n      mul\n      not\n      and\n      swap1\n      dup4\n      0xffffffffffffffffffffffffffffffffffffffff\n      and\n      mul\n      or\n      swap1\n      sstore\n      pop\n        /* \"contracts/kapai/Stakev1.sol\":8957:8974  24 hours * 30 * 1 */\n      0x278d00\n        /* \"contracts/kapai/Stakev1.sol\":8947:8954  _stake1 */\n      0x06\n        /* \"contracts/kapai/Stakev1.sol\":8947:8974  _stake1 = 24 hours * 30 * 1 */\n      dup2\n      swap1\n      sstore\n      pop\n        /* \"contracts/kapai/Stakev1.sol\":9007:9024  24 hours * 30 * 3 */\n      0x76a700\n        /* \"contracts/kapai/Stakev1.sol\":8997:9004  _stake3 */\n      0x07\n        /* \"contracts/kapai/Stakev1.sol\":8997:9024  _stake3 = 24 hours * 30 * 3 */\n      dup2\n      swap1\n      sstore\n      pop\n        /* \"contracts/kapai/Stakev1.sol\":9057:9074  24 hours * 30 * 5 */\n      0xc5c100\n        /* \"contracts/kapai/Stakev1.sol\":9047:9054  _stake5 */\n      0x08\n        /* \"contracts/kapai/Stakev1.sol\":9047:9074  _stake5 = 24 hours * 30 * 5 */\n      dup2\n      swap1\n      sstore\n      pop\n        /* \"contracts/kapai/Stakev1.sol\":9111:9115  1000 */\n      0x03e8\n        /* \"contracts/kapai/Stakev1.sol\":9097:9108  _proportion */\n      0x09\n        /* \"contracts/kapai/Stakev1.sol\":9097:9115  _proportion = 1000 */\n      dup2\n      swap1\n      sstore\n      pop\n        /* \"contracts/kapai/Stakev1.sol\":9167:9209  0x02Fa571EdAd13043EE3f3676E65092c5000E3Ad0 */\n      0x02fa571edad13043ee3f3676e65092c5000e3ad0\n        /* \"contracts/kapai/Stakev1.sol\":9148:9164  _lpPriceTokenNew */\n      0x19\n      0x00\n        /* \"contracts/kapai/Stakev1.sol\":9148:9209  _lpPriceTokenNew = 0x02Fa571EdAd13043EE3f3676E65092c5000E3Ad0 */\n      0x0100\n      exp\n      dup2\n      sload\n      dup2\n      0xffffffffffffffffffffffffffffffffffffffff\n      mul\n      not\n      and\n      swap1\n      dup4\n      0xffffffffffffffffffffffffffffffffffffffff\n      and\n      mul\n      or\n      swap1\n      sstore\n      pop\n        /* \"contracts/kapai/Stakev1.sol\":9256:9298  0x6b6b2D8166D13b58155b8d454F239AE3691257A6 */\n      0x6b6b2d8166d13b58155b8d454f239ae3691257a6\n        /* \"contracts/kapai/Stakev1.sol\":9245:9253  _lpToken */\n      0x1a\n      0x00\n        /* \"contracts/kapai/Stakev1.sol\":9245:9298  _lpToken = 0x6b6b2D8166D13b58155b8d454F239AE3691257A6 */\n      0x0100\n      exp\n      dup2\n      sload\n      dup2\n      0xffffffffffffffffffffffffffffffffffffffff\n      mul\n      not\n      and\n      swap1\n      dup4\n      0xffffffffffffffffffffffffffffffffffffffff\n      and\n      mul\n      or\n      swap1\n      sstore\n      pop\n        /* \"contracts/kapai/Stakev1.sol\":9341:9360  1000000000000000000 */\n      0x0de0b6b3a7640000\n        /* \"contracts/kapai/Stakev1.sol\":9336:9340  _wei */\n      0x1b\n        /* \"contracts/kapai/Stakev1.sol\":9336:9360  _wei=1000000000000000000 */\n      dup2\n      swap1\n      sstore\n      pop\n        /* \"contracts/kapai/Stakev1.sol\":9418:9422  true */\n      0x01\n        /* \"contracts/kapai/Stakev1.sol\":9403:9415  isStakeStart */\n      0x0a\n      0x00\n        /* \"contracts/kapai/Stakev1.sol\":9403:9422  isStakeStart = true */\n      0x0100\n      exp\n      dup2\n      sload\n      dup2\n      0xff\n      mul\n      not\n      and\n      swap1\n      dup4\n      iszero\n      iszero\n      mul\n      or\n      swap1\n      sstore\n      pop\n        /* \"contracts/kapai/Stakev1.sol\":9463:9467  true */\n      0x01\n        /* \"contracts/kapai/Stakev1.sol\":9448:9460  isClaimStart */\n      0x0a\n      0x01\n        /* \"contracts/kapai/Stakev1.sol\":9448:9467  isClaimStart = true */\n      0x0100\n      exp\n      dup2\n      sload\n      dup2\n      0xff\n      mul\n      not\n      and\n      swap1\n      dup4\n      iszero\n      iszero\n      mul\n      or\n      swap1\n      sstore\n      pop\n        /* \"@openzeppelin/contracts-upgradeable/proxy/utils/Initializable.sol\":5070:5084  isTopLevelCall */\n      dup4\n        /* \"@openzeppelin/contracts-upgradeable/proxy/utils/Initializable.sol\":5066:5167  if (isTopLevelCall) {... */\n      iszero\n      tag_504\n      jumpi\n        /* \"@openzeppelin/contracts-upgradeable/proxy/utils/Initializable.sol\":5118:5123  false */\n      0x00\n        /* \"@openzeppelin/contracts-upgradeable/proxy/utils/Initializable.sol\":5100:5101  $ */\n      dup6\n        /* \"@openzeppelin/contracts-upgradeable/proxy/utils/Initializable.sol\":5100:5115  $._initializing */\n      0x00\n      add\n      0x08\n        /* \"@openzeppelin/contracts-upgradeable/proxy/utils/Initializable.sol\":5100:5123  $._initializing = false */\n      0x0100\n      exp\n      dup2\n      sload\n      dup2\n      0xff\n      mul\n      not\n      and\n      swap1\n      dup4\n      iszero\n      iszero\n      mul\n      or\n      swap1\n      sstore\n      pop\n        /* \"@openzeppelin/contracts-upgradeable/proxy/utils/Initializable.sol\":5142:5156  Initialized(1) */\n      0xc7f505b2f371ae2175ee4913f4499e1f2633a7b5936321eed1cdaeb6115181d2\n        /* \"@openzeppelin/contracts-upgradeable/proxy/utils/Initializable.sol\":5154:5155  1 */\n      0x01\n        /* \"@openzeppelin/contracts-upgradeable/proxy/utils/Initializable.sol\":5142:5156  Initialized(1) */\n      mload(0x40)\n      tag_505\n      swap2\n      swap1\n      tag_506\n      jump\t// in\n    tag_505:\n      mload(0x40)\n      dup1\n      swap2\n      sub\n      swap1\n      log1\n        /* \"@openzeppelin/contracts-upgradeable/proxy/utils/Initializable.sol\":5066:5167  if (isTopLevelCall) {... */\n    tag_504:\n        /* \"@openzeppelin/contracts-upgradeable/proxy/utils/Initializable.sol\":4092:5173  {... */\n      pop\n      pop\n      pop\n      pop\n      pop\n        /* \"contracts/kapai/Stakev1.sol\":8148:9496  function initialize(address owner)public initializer{... */\n      pop\n      jump\t// out\n        /* \"contracts/kapai/Stakev1.sol\":15499:15688  function ownerSetUserMoonClaimTime(... */\n    tag_266:\n        /* \"@openzeppelin/contracts-upgradeable/access/OwnableUpgradeable.sol\":2334:2347  _checkOwner() */\n      tag_508\n        /* \"@openzeppelin/contracts-upgradeable/access/OwnableUpgradeable.sol\":2334:2345  _checkOwner */\n      tag_292\n        /* \"@openzeppelin/contracts-upgradeable/access/OwnableUpgradeable.sol\":2334:2347  _checkOwner() */\n      jump\t// in\n    tag_508:\n        /* \"contracts/kapai/Stakev1.sol\":15661:15674  MoonClaimTime */\n      dup1\n        /* \"contracts/kapai/Stakev1.sol\":15634:15652  _userMoonClaimTime */\n      0x1c\n        /* \"contracts/kapai/Stakev1.sol\":15634:15658  _userMoonClaimTime[user] */\n      0x00\n        /* \"contracts/kapai/Stakev1.sol\":15653:15657  user */\n      dup5\n        /* \"contracts/kapai/Stakev1.sol\":15634:15658  _userMoonClaimTime[user] */\n      0xffffffffffffffffffffffffffffffffffffffff\n      and\n      0xffffffffffffffffffffffffffffffffffffffff\n      and\n      dup2\n      mstore\n      0x20\n      add\n      swap1\n      dup2\n      mstore\n      0x20\n      add\n      0x00\n      keccak256\n        /* \"contracts/kapai/Stakev1.sol\":15634:15674  _userMoonClaimTime[user] = MoonClaimTime */\n      dup2\n      swap1\n      sstore\n      pop\n        /* \"contracts/kapai/Stakev1.sol\":15499:15688  function ownerSetUserMoonClaimTime(... */\n      pop\n      pop\n      jump\t// out\n        /* \"contracts/kapai/Stakev1.sol\":10275:10324  mapping(address => uint256) public _inviterReward */\n    tag_269:\n      mstore(0x20, 0x0d)\n      dup1\n      0x00\n      mstore\n      keccak256(0x00, 0x40)\n      0x00\n      swap2\n      pop\n      swap1\n      pop\n      sload\n      dup2\n      jump\t// out\n        /* \"contracts/kapai/Stakev1.sol\":9598:9626  address public _lpPriceToken */\n    tag_272:\n      0x02\n      0x00\n      swap1\n      sload\n      swap1\n      0x0100\n      exp\n      swap1\n      div\n      0xffffffffffffffffffffffffffffffffffffffff\n      and\n      dup2\n      jump\t// out\n        /* \"contracts/kapai/Stakev1.sol\":10067:10098  bool public isClaimStart = true */\n    tag_275:\n      0x0a\n      0x01\n      swap1\n      sload\n      swap1\n      0x0100\n      exp\n      swap1\n      div\n      0xff\n      and\n      dup2\n      jump\t// out\n        /* \"contracts/kapai/Stakev1.sol\":10131:10150  string public words */\n    tag_278:\n      0x0b\n      dup1\n      sload\n      tag_510\n      swap1\n      tag_511\n      jump\t// in\n    tag_510:\n      dup1\n      0x1f\n      add\n      0x20\n      dup1\n      swap2\n      div\n      mul\n      0x20\n      add\n      mload(0x40)\n      swap1\n      dup2\n      add\n      0x40\n      mstore\n      dup1\n      swap3\n      swap2\n      swap1\n      dup2\n      dup2\n      mstore\n      0x20\n      add\n      dup3\n      dup1\n      sload\n      tag_512\n      swap1\n      tag_511\n      jump\t// in\n    tag_512:\n      dup1\n      iszero\n      tag_513\n      jumpi\n      dup1\n      0x1f\n      lt\n      tag_514\n      jumpi\n      0x0100\n      dup1\n      dup4\n      sload\n      div\n      mul\n      dup4\n      mstore\n      swap2\n      0x20\n      add\n      swap2\n      jump(tag_513)\n    tag_514:\n      dup3\n      add\n      swap2\n      swap1\n      0x00\n      mstore\n      keccak256(0x00, 0x20)\n      swap1\n    tag_515:\n      dup2\n      sload\n      dup2\n      mstore\n      swap1\n      0x01\n      add\n      swap1\n      0x20\n      add\n      dup1\n      dup4\n      gt\n      tag_515\n      jumpi\n      dup3\n      swap1\n      sub\n      0x1f\n      and\n      dup3\n      add\n      swap2\n    tag_513:\n      pop\n      pop\n      pop\n      pop\n      pop\n      dup2\n      jump\t// out\n        /* \"@openzeppelin/contracts-upgradeable/access/OwnableUpgradeable.sol\":3405:3620  function transferOwnership(address newOwner) public virtual onlyOwner {... */\n    tag_283:\n        /* \"@openzeppelin/contracts-upgradeable/access/OwnableUpgradeable.sol\":2334:2347  _checkOwner() */\n      tag_517\n        /* \"@openzeppelin/contracts-upgradeable/access/OwnableUpgradeable.sol\":2334:2345  _checkOwner */\n      tag_292\n        /* \"@openzeppelin/contracts-upgradeable/access/OwnableUpgradeable.sol\":2334:2347  _checkOwner() */\n      jump\t// in\n    tag_517:\n        /* \"@openzeppelin/contracts-upgradeable/access/OwnableUpgradeable.sol\":3509:3510  0 */\n      0x00\n        /* \"@openzeppelin/contracts-upgradeable/access/OwnableUpgradeable.sol\":3489:3511  newOwner == address(0) */\n      0xffffffffffffffffffffffffffffffffffffffff\n      and\n        /* \"@openzeppelin/contracts-upgradeable/access/OwnableUpgradeable.sol\":3489:3497  newOwner */\n      dup2\n        /* \"@openzeppelin/contracts-upgradeable/access/OwnableUpgradeable.sol\":3489:3511  newOwner == address(0) */\n      0xffffffffffffffffffffffffffffffffffffffff\n      and\n      sub\n        /* \"@openzeppelin/contracts-upgradeable/access/OwnableUpgradeable.sol\":3485:3576  if (newOwner == address(0)) {... */\n      tag_519\n      jumpi\n        /* \"@openzeppelin/contracts-upgradeable/access/OwnableUpgradeable.sol\":3562:3563  0 */\n      0x00\n        /* \"@openzeppelin/contracts-upgradeable/access/OwnableUpgradeable.sol\":3534:3565  OwnableInvalidOwner(address(0)) */\n      mload(0x40)\n      0x1e4fbdf700000000000000000000000000000000000000000000000000000000\n      dup2\n      mstore\n      0x04\n      add\n      tag_520\n      swap2\n      swap1\n      tag_121\n      jump\t// in\n    tag_520:\n      mload(0x40)\n      dup1\n      swap2\n      sub\n      swap1\n      revert\n        /* \"@openzeppelin/contracts-upgradeable/access/OwnableUpgradeable.sol\":3485:3576  if (newOwner == address(0)) {... */\n    tag_519:\n        /* \"@openzeppelin/contracts-upgradeable/access/OwnableUpgradeable.sol\":3585:3613  _transferOwnership(newOwner) */\n      tag_521\n        /* \"@openzeppelin/contracts-upgradeable/access/OwnableUpgradeable.sol\":3604:3612  newOwner */\n      dup2\n        /* \"@openzeppelin/contracts-upgradeable/access/OwnableUpgradeable.sol\":3585:3603  _transferOwnership */\n      tag_415\n        /* \"@openzeppelin/contracts-upgradeable/access/OwnableUpgradeable.sol\":3585:3613  _transferOwnership(newOwner) */\n      jump\t// in\n    tag_521:\n        /* \"@openzeppelin/contracts-upgradeable/access/OwnableUpgradeable.sol\":3405:3620  function transferOwnership(address newOwner) public virtual onlyOwner {... */\n      pop\n      jump\t// out\n        /* \"contracts/kapai/Stakev1.sol\":10009:10040  bool public isStakeStart = true */\n    tag_285:\n      0x0a\n      0x00\n      swap1\n      sload\n      swap1\n      0x0100\n      exp\n      swap1\n      div\n      0xff\n      and\n      dup2\n      jump\t// out\n        /* \"contracts/kapai/Stakev1.sol\":17656:17757  function getInviteCount() external view returns (uint256) {... */\n    tag_288:\n        /* \"contracts/kapai/Stakev1.sol\":17705:17712  uint256 */\n      0x00\n        /* \"contracts/kapai/Stakev1.sol\":17731:17743  _inviterList */\n      0x1e\n        /* \"contracts/kapai/Stakev1.sol\":17731:17750  _inviterList.length */\n      dup1\n      sload\n      swap1\n      pop\n        /* \"contracts/kapai/Stakev1.sol\":17724:17750  return _inviterList.length */\n      swap1\n      pop\n        /* \"contracts/kapai/Stakev1.sol\":17656:17757  function getInviteCount() external view returns (uint256) {... */\n      swap1\n      jump\t// out\n        /* \"@openzeppelin/contracts-upgradeable/access/OwnableUpgradeable.sol\":2658:2820  function _checkOwner() internal view virtual {... */\n    tag_292:\n        /* \"@openzeppelin/contracts-upgradeable/access/OwnableUpgradeable.sol\":2728:2740  _msgSender() */\n      tag_524\n        /* \"@openzeppelin/contracts-upgradeable/access/OwnableUpgradeable.sol\":2728:2738  _msgSender */\n      tag_525\n        /* \"@openzeppelin/contracts-upgradeable/access/OwnableUpgradeable.sol\":2728:2740  _msgSender() */\n      jump\t// in\n    tag_524:\n        /* \"@openzeppelin/contracts-upgradeable/access/OwnableUpgradeable.sol\":2717:2740  owner() != _msgSender() */\n      0xffffffffffffffffffffffffffffffffffffffff\n      and\n        /* \"@openzeppelin/contracts-upgradeable/access/OwnableUpgradeable.sol\":2717:2724  owner() */\n      tag_526\n        /* \"@openzeppelin/contracts-upgradeable/access/OwnableUpgradeable.sol\":2717:2722  owner */\n      tag_216\n        /* \"@openzeppelin/contracts-upgradeable/access/OwnableUpgradeable.sol\":2717:2724  owner() */\n      jump\t// in\n    tag_526:\n        /* \"@openzeppelin/contracts-upgradeable/access/OwnableUpgradeable.sol\":2717:2740  owner() != _msgSender() */\n      0xffffffffffffffffffffffffffffffffffffffff\n      and\n      eq\n        /* \"@openzeppelin/contracts-upgradeable/access/OwnableUpgradeable.sol\":2713:2814  if (owner() != _msgSender()) {... */\n      tag_527\n      jumpi\n        /* \"@openzeppelin/contracts-upgradeable/access/OwnableUpgradeable.sol\":2790:2802  _msgSender() */\n      tag_528\n        /* \"@openzeppelin/contracts-upgradeable/access/OwnableUpgradeable.sol\":2790:2800  _msgSender */\n      tag_525\n        /* \"@openzeppelin/contracts-upgradeable/access/OwnableUpgradeable.sol\":2790:2802  _msgSender() */\n      jump\t// in\n    tag_528:\n        /* \"@openzeppelin/contracts-upgradeable/access/OwnableUpgradeable.sol\":2763:2803  OwnableUnauthorizedAccount(_msgSender()) */\n      mload(0x40)\n      0x118cdaa700000000000000000000000000000000000000000000000000000000\n      dup2\n      mstore\n      0x04\n      add\n      tag_529\n      swap2\n      swap1\n      tag_121\n      jump\t// in\n    tag_529:\n      mload(0x40)\n      dup1\n      swap2\n      sub\n      swap1\n      revert\n        /* \"@openzeppelin/contracts-upgradeable/access/OwnableUpgradeable.sol\":2713:2814  if (owner() != _msgSender()) {... */\n    tag_527:\n        /* \"@openzeppelin/contracts-upgradeable/access/OwnableUpgradeable.sol\":2658:2820  function _checkOwner() internal view virtual {... */\n      jump\t// out\n        /* \"@openzeppelin/contracts-upgradeable/access/OwnableUpgradeable.sol\":3774:4022  function _transferOwnership(address newOwner) internal virtual {... */\n    tag_415:\n        /* \"@openzeppelin/contracts-upgradeable/access/OwnableUpgradeable.sol\":3847:3871  OwnableStorage storage $ */\n      0x00\n        /* \"@openzeppelin/contracts-upgradeable/access/OwnableUpgradeable.sol\":3874:3894  _getOwnableStorage() */\n      tag_531\n        /* \"@openzeppelin/contracts-upgradeable/access/OwnableUpgradeable.sol\":3874:3892  _getOwnableStorage */\n      tag_430\n        /* \"@openzeppelin/contracts-upgradeable/access/OwnableUpgradeable.sol\":3874:3894  _getOwnableStorage() */\n      jump\t// in\n    tag_531:\n        /* \"@openzeppelin/contracts-upgradeable/access/OwnableUpgradeable.sol\":3847:3894  OwnableStorage storage $ = _getOwnableStorage() */\n      swap1\n      pop\n        /* \"@openzeppelin/contracts-upgradeable/access/OwnableUpgradeable.sol\":3904:3920  address oldOwner */\n      0x00\n        /* \"@openzeppelin/contracts-upgradeable/access/OwnableUpgradeable.sol\":3923:3924  $ */\n      dup2\n        /* \"@openzeppelin/contracts-upgradeable/access/OwnableUpgradeable.sol\":3923:3931  $._owner */\n      0x00\n      add\n      0x00\n      swap1\n      sload\n      swap1\n      0x0100\n      exp\n      swap1\n      div\n      0xffffffffffffffffffffffffffffffffffffffff\n      and\n        /* \"@openzeppelin/contracts-upgradeable/access/OwnableUpgradeable.sol\":3904:3931  address oldOwner = $._owner */\n      swap1\n      pop\n        /* \"@openzeppelin/contracts-upgradeable/access/OwnableUpgradeable.sol\":3952:3960  newOwner */\n      dup3\n        /* \"@openzeppelin/contracts-upgradeable/access/OwnableUpgradeable.sol\":3941:3942  $ */\n      dup3\n        /* \"@openzeppelin/contracts-upgradeable/access/OwnableUpgradeable.sol\":3941:3949  $._owner */\n      0x00\n      add\n      0x00\n        /* \"@openzeppelin/contracts-upgradeable/access/OwnableUpgradeable.sol\":3941:3960  $._owner = newOwner */\n      0x0100\n      exp\n      dup2\n      sload\n      dup2\n      0xffffffffffffffffffffffffffffffffffffffff\n      mul\n      not\n      and\n      swap1\n      dup4\n      0xffffffffffffffffffffffffffffffffffffffff\n      and\n      mul\n      or\n      swap1\n      sstore\n      pop\n        /* \"@openzeppelin/contracts-upgradeable/access/OwnableUpgradeable.sol\":4006:4014  newOwner */\n      dup3\n        /* \"@openzeppelin/contracts-upgradeable/access/OwnableUpgradeable.sol\":3975:4015  OwnershipTransferred(oldOwner, newOwner) */\n      0xffffffffffffffffffffffffffffffffffffffff\n      and\n        /* \"@openzeppelin/contracts-upgradeable/access/OwnableUpgradeable.sol\":3996:4004  oldOwner */\n      dup2\n        /* \"@openzeppelin/contracts-upgradeable/access/OwnableUpgradeable.sol\":3975:4015  OwnershipTransferred(oldOwner, newOwner) */\n      0xffffffffffffffffffffffffffffffffffffffff\n      and\n      0x8be0079c531659141344cd1fd0a4f28419497f9722a3daafe3b4186f6b6457e0\n      mload(0x40)\n      mload(0x40)\n      dup1\n      swap2\n      sub\n      swap1\n      log3\n        /* \"@openzeppelin/contracts-upgradeable/access/OwnableUpgradeable.sol\":3837:4022  {... */\n      pop\n      pop\n        /* \"@openzeppelin/contracts-upgradeable/access/OwnableUpgradeable.sol\":3774:4022  function _transferOwnership(address newOwner) internal virtual {... */\n      pop\n      jump\t// out\n        /* \"@openzeppelin/contracts-upgradeable/access/OwnableUpgradeable.sol\":1192:1351  function _getOwnableStorage() private pure returns (OwnableStorage storage $) {... */\n    tag_430:\n        /* \"@openzeppelin/contracts-upgradeable/access/OwnableUpgradeable.sol\":1244:1268  OwnableStorage storage $ */\n      0x00\n        /* \"@openzeppelin/contracts-upgradeable/access/OwnableUpgradeable.sol\":1313:1335  OwnableStorageLocation */\n      0x9016d09d72d40fdae2fd8ceac6b6234c7706214fd39c1cd1e609a0528c199300\n        /* \"@openzeppelin/contracts-upgradeable/access/OwnableUpgradeable.sol\":1303:1335  $.slot := OwnableStorageLocation */\n      swap1\n      pop\n        /* \"@openzeppelin/contracts-upgradeable/access/OwnableUpgradeable.sol\":1192:1351  function _getOwnableStorage() private pure returns (OwnableStorage storage $) {... */\n      swap1\n      jump\t// out\n        /* \"@openzeppelin/contracts-upgradeable/proxy/utils/Initializable.sol\":8737:8907  function _getInitializableStorage() private pure returns (InitializableStorage storage $) {... */\n    tag_493:\n        /* \"@openzeppelin/contracts-upgradeable/proxy/utils/Initializable.sol\":8795:8825  InitializableStorage storage $ */\n      0x00\n        /* \"@openzeppelin/contracts-upgradeable/proxy/utils/Initializable.sol\":8870:8891  INITIALIZABLE_STORAGE */\n      0xf0c57e16840df040f15088dc2f81fe391c3923bec73e23a9662efc9c229c6a00\n        /* \"@openzeppelin/contracts-upgradeable/proxy/utils/Initializable.sol\":8860:8891  $.slot := INITIALIZABLE_STORAGE */\n      swap1\n      pop\n        /* \"@openzeppelin/contracts-upgradeable/proxy/utils/Initializable.sol\":8737:8907  function _getInitializableStorage() private pure returns (InitializableStorage storage $) {... */\n      swap1\n      jump\t// out\n        /* \"@openzeppelin/contracts-upgradeable/utils/ContextUpgradeable.sol\":813:882  function __Context_init_unchained() internal onlyInitializing {... */\n    tag_501:\n        /* \"@openzeppelin/contracts-upgradeable/proxy/utils/Initializable.sol\":6931:6951  _checkInitializing() */\n      tag_535\n        /* \"@openzeppelin/contracts-upgradeable/proxy/utils/Initializable.sol\":6931:6949  _checkInitializing */\n      tag_536\n        /* \"@openzeppelin/contracts-upgradeable/proxy/utils/Initializable.sol\":6931:6951  _checkInitializing() */\n      jump\t// in\n    tag_535:\n        /* \"@openzeppelin/contracts-upgradeable/utils/ContextUpgradeable.sol\":813:882  function __Context_init_unchained() internal onlyInitializing {... */\n      jump\t// out\n        /* \"@openzeppelin/contracts-upgradeable/access/OwnableUpgradeable.sol\":1980:2215  function __Ownable_init_unchained(address initialOwner) internal onlyInitializing {... */\n    tag_503:\n        /* \"@openzeppelin/contracts-upgradeable/proxy/utils/Initializable.sol\":6931:6951  _checkInitializing() */\n      tag_539\n        /* \"@openzeppelin/contracts-upgradeable/proxy/utils/Initializable.sol\":6931:6949  _checkInitializing */\n      tag_536\n        /* \"@openzeppelin/contracts-upgradeable/proxy/utils/Initializable.sol\":6931:6951  _checkInitializing() */\n      jump\t// in\n    tag_539:\n        /* \"@openzeppelin/contracts-upgradeable/access/OwnableUpgradeable.sol\":2100:2101  0 */\n      0x00\n        /* \"@openzeppelin/contracts-upgradeable/access/OwnableUpgradeable.sol\":2076:2102  initialOwner == address(0) */\n      0xffffffffffffffffffffffffffffffffffffffff\n      and\n        /* \"@openzeppelin/contracts-upgradeable/access/OwnableUpgradeable.sol\":2076:2088  initialOwner */\n      dup2\n        /* \"@openzeppelin/contracts-upgradeable/access/OwnableUpgradeable.sol\":2076:2102  initialOwner == address(0) */\n      0xffffffffffffffffffffffffffffffffffffffff\n      and\n      sub\n        /* \"@openzeppelin/contracts-upgradeable/access/OwnableUpgradeable.sol\":2072:2167  if (initialOwner == address(0)) {... */\n      tag_541\n      jumpi\n        /* \"@openzeppelin/contracts-upgradeable/access/OwnableUpgradeable.sol\":2153:2154  0 */\n      0x00\n        /* \"@openzeppelin/contracts-upgradeable/access/OwnableUpgradeable.sol\":2125:2156  OwnableInvalidOwner(address(0)) */\n      mload(0x40)\n      0x1e4fbdf700000000000000000000000000000000000000000000000000000000\n      dup2\n      mstore\n      0x04\n      add\n      tag_542\n      swap2\n      swap1\n      tag_121\n      jump\t// in\n    tag_542:\n      mload(0x40)\n      dup1\n      swap2\n      sub\n      swap1\n      revert\n        /* \"@openzeppelin/contracts-upgradeable/access/OwnableUpgradeable.sol\":2072:2167  if (initialOwner == address(0)) {... */\n    tag_541:\n        /* \"@openzeppelin/contracts-upgradeable/access/OwnableUpgradeable.sol\":2176:2208  _transferOwnership(initialOwner) */\n      tag_543\n        /* \"@openzeppelin/contracts-upgradeable/access/OwnableUpgradeable.sol\":2195:2207  initialOwner */\n      dup2\n        /* \"@openzeppelin/contracts-upgradeable/access/OwnableUpgradeable.sol\":2176:2194  _transferOwnership */\n      tag_415\n        /* \"@openzeppelin/contracts-upgradeable/access/OwnableUpgradeable.sol\":2176:2208  _transferOwnership(initialOwner) */\n      jump\t// in\n    tag_543:\n        /* \"@openzeppelin/contracts-upgradeable/access/OwnableUpgradeable.sol\":1980:2215  function __Ownable_init_unchained(address initialOwner) internal onlyInitializing {... */\n      pop\n      jump\t// out\n        /* \"@openzeppelin/contracts-upgradeable/utils/ContextUpgradeable.sol\":887:983  function _msgSender() internal view virtual returns (address) {... */\n    tag_525:\n        /* \"@openzeppelin/contracts-upgradeable/utils/ContextUpgradeable.sol\":940:947  address */\n      0x00\n        /* \"@openzeppelin/contracts-upgradeable/utils/ContextUpgradeable.sol\":966:976  msg.sender */\n      caller\n        /* \"@openzeppelin/contracts-upgradeable/utils/ContextUpgradeable.sol\":959:976  return msg.sender */\n      swap1\n      pop\n        /* \"@openzeppelin/contracts-upgradeable/utils/ContextUpgradeable.sol\":887:983  function _msgSender() internal view virtual returns (address) {... */\n      swap1\n      jump\t// out\n        /* \"@openzeppelin/contracts-upgradeable/proxy/utils/Initializable.sol\":7084:7225  function _checkInitializing() internal view virtual {... */\n    tag_536:\n        /* \"@openzeppelin/contracts-upgradeable/proxy/utils/Initializable.sol\":7151:7168  _isInitializing() */\n      tag_546\n        /* \"@openzeppelin/contracts-upgradeable/proxy/utils/Initializable.sol\":7151:7166  _isInitializing */\n      tag_547\n        /* \"@openzeppelin/contracts-upgradeable/proxy/utils/Initializable.sol\":7151:7168  _isInitializing() */\n      jump\t// in\n    tag_546:\n        /* \"@openzeppelin/contracts-upgradeable/proxy/utils/Initializable.sol\":7146:7219  if (!_isInitializing()) {... */\n      tag_548\n      jumpi\n        /* \"@openzeppelin/contracts-upgradeable/proxy/utils/Initializable.sol\":7191:7208  NotInitializing() */\n      mload(0x40)\n      0xd7e6bcf800000000000000000000000000000000000000000000000000000000\n      dup2\n      mstore\n      0x04\n      add\n      mload(0x40)\n      dup1\n      swap2\n      sub\n      swap1\n      revert\n        /* \"@openzeppelin/contracts-upgradeable/proxy/utils/Initializable.sol\":7146:7219  if (!_isInitializing()) {... */\n    tag_548:\n        /* \"@openzeppelin/contracts-upgradeable/proxy/utils/Initializable.sol\":7084:7225  function _checkInitializing() internal view virtual {... */\n      jump\t// out\n        /* \"@openzeppelin/contracts-upgradeable/proxy/utils/Initializable.sol\":8487:8607  function _isInitializing() internal view returns (bool) {... */\n    tag_547:\n        /* \"@openzeppelin/contracts-upgradeable/proxy/utils/Initializable.sol\":8537:8541  bool */\n      0x00\n        /* \"@openzeppelin/contracts-upgradeable/proxy/utils/Initializable.sol\":8560:8586  _getInitializableStorage() */\n      tag_550\n        /* \"@openzeppelin/contracts-upgradeable/proxy/utils/Initializable.sol\":8560:8584  _getInitializableStorage */\n      tag_493\n        /* \"@openzeppelin/contracts-upgradeable/proxy/utils/Initializable.sol\":8560:8586  _getInitializableStorage() */\n      jump\t// in\n    tag_550:\n        /* \"@openzeppelin/contracts-upgradeable/proxy/utils/Initializable.sol\":8560:8600  _getInitializableStorage()._initializing */\n      0x00\n      add\n      0x08\n      swap1\n      sload\n      swap1\n      0x0100\n      exp\n      swap1\n      div\n      0xff\n      and\n        /* \"@openzeppelin/contracts-upgradeable/proxy/utils/Initializable.sol\":8553:8600  return _getInitializableStorage()._initializing */\n      swap1\n      pop\n        /* \"@openzeppelin/contracts-upgradeable/proxy/utils/Initializable.sol\":8487:8607  function _isInitializing() internal view returns (bool) {... */\n      swap1\n      jump\t// out\n        /* \"#utility.yul\":7:82   */\n    tag_551:\n        /* \"#utility.yul\":40:46   */\n      0x00\n        /* \"#utility.yul\":73:75   */\n      0x40\n        /* \"#utility.yul\":67:76   */\n      mload\n        /* \"#utility.yul\":57:76   */\n      swap1\n      pop\n        /* \"#utility.yul\":7:82   */\n      swap1\n      jump\t// out\n        /* \"#utility.yul\":88:205   */\n    tag_552:\n        /* \"#utility.yul\":197:198   */\n      0x00\n        /* \"#utility.yul\":194:195   */\n      dup1\n        /* \"#utility.yul\":187:199   */\n      revert\n        /* \"#utility.yul\":334:411   */\n    tag_554:\n        /* \"#utility.yul\":371:378   */\n      0x00\n        /* \"#utility.yul\":400:405   */\n      dup2\n        /* \"#utility.yul\":389:405   */\n      swap1\n      pop\n        /* \"#utility.yul\":334:411   */\n      swap2\n      swap1\n      pop\n      jump\t// out\n        /* \"#utility.yul\":417:539   */\n    tag_555:\n        /* \"#utility.yul\":490:514   */\n      tag_642\n        /* \"#utility.yul\":508:513   */\n      dup2\n        /* \"#utility.yul\":490:514   */\n      tag_554\n      jump\t// in\n    tag_642:\n        /* \"#utility.yul\":483:488   */\n      dup2\n        /* \"#utility.yul\":480:515   */\n      eq\n        /* \"#utility.yul\":470:533   */\n      tag_643\n      jumpi\n        /* \"#utility.yul\":529:530   */\n      0x00\n        /* \"#utility.yul\":526:527   */\n      dup1\n        /* \"#utility.yul\":519:531   */\n      revert\n        /* \"#utility.yul\":470:533   */\n    tag_643:\n        /* \"#utility.yul\":417:539   */\n      pop\n      jump\t// out\n        /* \"#utility.yul\":545:684   */\n    tag_556:\n        /* \"#utility.yul\":591:596   */\n      0x00\n        /* \"#utility.yul\":629:635   */\n      dup2\n        /* \"#utility.yul\":616:636   */\n      calldataload\n        /* \"#utility.yul\":607:636   */\n      swap1\n      pop\n        /* \"#utility.yul\":645:678   */\n      tag_645\n        /* \"#utility.yul\":672:677   */\n      dup2\n        /* \"#utility.yul\":645:678   */\n      tag_555\n      jump\t// in\n    tag_645:\n        /* \"#utility.yul\":545:684   */\n      swap3\n      swap2\n      pop\n      pop\n      jump\t// out\n        /* \"#utility.yul\":690:1019   */\n    tag_81:\n        /* \"#utility.yul\":749:755   */\n      0x00\n        /* \"#utility.yul\":798:800   */\n      0x20\n        /* \"#utility.yul\":786:795   */\n      dup3\n        /* \"#utility.yul\":777:784   */\n      dup5\n        /* \"#utility.yul\":773:796   */\n      sub\n        /* \"#utility.yul\":769:801   */\n      slt\n        /* \"#utility.yul\":766:885   */\n      iszero\n      tag_647\n      jumpi\n        /* \"#utility.yul\":804:883   */\n      tag_648\n      tag_552\n      jump\t// in\n    tag_648:\n        /* \"#utility.yul\":766:885   */\n    tag_647:\n        /* \"#utility.yul\":924:925   */\n      0x00\n        /* \"#utility.yul\":949:1002   */\n      tag_649\n        /* \"#utility.yul\":994:1001   */\n      dup5\n        /* \"#utility.yul\":985:991   */\n      dup3\n        /* \"#utility.yul\":974:983   */\n      dup6\n        /* \"#utility.yul\":970:992   */\n      add\n        /* \"#utility.yul\":949:1002   */\n      tag_556\n      jump\t// in\n    tag_649:\n        /* \"#utility.yul\":939:1002   */\n      swap2\n      pop\n        /* \"#utility.yul\":895:1012   */\n      pop\n        /* \"#utility.yul\":690:1019   */\n      swap3\n      swap2\n      pop\n      pop\n      jump\t// out\n        /* \"#utility.yul\":1025:1151   */\n    tag_557:\n        /* \"#utility.yul\":1062:1069   */\n      0x00\n        /* \"#utility.yul\":1102:1144   */\n      0xffffffffffffffffffffffffffffffffffffffff\n        /* \"#utility.yul\":1095:1100   */\n      dup3\n        /* \"#utility.yul\":1091:1145   */\n      and\n        /* \"#utility.yul\":1080:1145   */\n      swap1\n      pop\n        /* \"#utility.yul\":1025:1151   */\n      swap2\n      swap1\n      pop\n      jump\t// out\n        /* \"#utility.yul\":1157:1253   */\n    tag_558:\n        /* \"#utility.yul\":1194:1201   */\n      0x00\n        /* \"#utility.yul\":1223:1247   */\n      tag_652\n        /* \"#utility.yul\":1241:1246   */\n      dup3\n        /* \"#utility.yul\":1223:1247   */\n      tag_557\n      jump\t// in\n    tag_652:\n        /* \"#utility.yul\":1212:1247   */\n      swap1\n      pop\n        /* \"#utility.yul\":1157:1253   */\n      swap2\n      swap1\n      pop\n      jump\t// out\n        /* \"#utility.yul\":1259:1381   */\n    tag_559:\n        /* \"#utility.yul\":1332:1356   */\n      tag_654\n        /* \"#utility.yul\":1350:1355   */\n      dup2\n        /* \"#utility.yul\":1332:1356   */\n      tag_558\n      jump\t// in\n    tag_654:\n        /* \"#utility.yul\":1325:1330   */\n      dup2\n        /* \"#utility.yul\":1322:1357   */\n      eq\n        /* \"#utility.yul\":1312:1375   */\n      tag_655\n      jumpi\n        /* \"#utility.yul\":1371:1372   */\n      0x00\n        /* \"#utility.yul\":1368:1369   */\n      dup1\n        /* \"#utility.yul\":1361:1373   */\n      revert\n        /* \"#utility.yul\":1312:1375   */\n    tag_655:\n        /* \"#utility.yul\":1259:1381   */\n      pop\n      jump\t// out\n        /* \"#utility.yul\":1387:1526   */\n    tag_560:\n        /* \"#utility.yul\":1433:1438   */\n      0x00\n        /* \"#utility.yul\":1471:1477   */\n      dup2\n        /* \"#utility.yul\":1458:1478   */\n      calldataload\n        /* \"#utility.yul\":1449:1478   */\n      swap1\n      pop\n        /* \"#utility.yul\":1487:1520   */\n      tag_657\n        /* \"#utility.yul\":1514:1519   */\n      dup2\n        /* \"#utility.yul\":1487:1520   */\n      tag_559\n      jump\t// in\n    tag_657:\n        /* \"#utility.yul\":1387:1526   */\n      swap3\n      swap2\n      pop\n      pop\n      jump\t// out\n        /* \"#utility.yul\":1532:1861   */\n    tag_85:\n        /* \"#utility.yul\":1591:1597   */\n      0x00\n        /* \"#utility.yul\":1640:1642   */\n      0x20\n        /* \"#utility.yul\":1628:1637   */\n      dup3\n        /* \"#utility.yul\":1619:1626   */\n      dup5\n        /* \"#utility.yul\":1615:1638   */\n      sub\n        /* \"#utility.yul\":1611:1643   */\n      slt\n        /* \"#utility.yul\":1608:1727   */\n      iszero\n      tag_659\n      jumpi\n        /* \"#utility.yul\":1646:1725   */\n      tag_660\n      tag_552\n      jump\t// in\n    tag_660:\n        /* \"#utility.yul\":1608:1727   */\n    tag_659:\n        /* \"#utility.yul\":1766:1767   */\n      0x00\n        /* \"#utility.yul\":1791:1844   */\n      tag_661\n        /* \"#utility.yul\":1836:1843   */\n      dup5\n        /* \"#utility.yul\":1827:1833   */\n      dup3\n        /* \"#utility.yul\":1816:1825   */\n      dup6\n        /* \"#utility.yul\":1812:1834   */\n      add\n        /* \"#utility.yul\":1791:1844   */\n      tag_560\n      jump\t// in\n    tag_661:\n        /* \"#utility.yul\":1781:1844   */\n      swap2\n      pop\n        /* \"#utility.yul\":1737:1854   */\n      pop\n        /* \"#utility.yul\":1532:1861   */\n      swap3\n      swap2\n      pop\n      pop\n      jump\t// out\n        /* \"#utility.yul\":1867:1985   */\n    tag_561:\n        /* \"#utility.yul\":1954:1978   */\n      tag_663\n        /* \"#utility.yul\":1972:1977   */\n      dup2\n        /* \"#utility.yul\":1954:1978   */\n      tag_554\n      jump\t// in\n    tag_663:\n        /* \"#utility.yul\":1949:1952   */\n      dup3\n        /* \"#utility.yul\":1942:1979   */\n      mstore\n        /* \"#utility.yul\":1867:1985   */\n      pop\n      pop\n      jump\t// out\n        /* \"#utility.yul\":1991:2213   */\n    tag_88:\n        /* \"#utility.yul\":2084:2088   */\n      0x00\n        /* \"#utility.yul\":2122:2124   */\n      0x20\n        /* \"#utility.yul\":2111:2120   */\n      dup3\n        /* \"#utility.yul\":2107:2125   */\n      add\n        /* \"#utility.yul\":2099:2125   */\n      swap1\n      pop\n        /* \"#utility.yul\":2135:2206   */\n      tag_665\n        /* \"#utility.yul\":2203:2204   */\n      0x00\n        /* \"#utility.yul\":2192:2201   */\n      dup4\n        /* \"#utility.yul\":2188:2205   */\n      add\n        /* \"#utility.yul\":2179:2185   */\n      dup5\n        /* \"#utility.yul\":2135:2206   */\n      tag_561\n      jump\t// in\n    tag_665:\n        /* \"#utility.yul\":1991:2213   */\n      swap3\n      swap2\n      pop\n      pop\n      jump\t// out\n        /* \"#utility.yul\":2219:2984   */\n    tag_94:\n        /* \"#utility.yul\":2305:2311   */\n      0x00\n        /* \"#utility.yul\":2313:2319   */\n      dup1\n        /* \"#utility.yul\":2321:2327   */\n      0x00\n        /* \"#utility.yul\":2329:2335   */\n      dup1\n        /* \"#utility.yul\":2378:2381   */\n      0x80\n        /* \"#utility.yul\":2366:2375   */\n      dup6\n        /* \"#utility.yul\":2357:2364   */\n      dup8\n        /* \"#utility.yul\":2353:2376   */\n      sub\n        /* \"#utility.yul\":2349:2382   */\n      slt\n        /* \"#utility.yul\":2346:2466   */\n      iszero\n      tag_667\n      jumpi\n        /* \"#utility.yul\":2385:2464   */\n      tag_668\n      tag_552\n      jump\t// in\n    tag_668:\n        /* \"#utility.yul\":2346:2466   */\n    tag_667:\n        /* \"#utility.yul\":2505:2506   */\n      0x00\n        /* \"#utility.yul\":2530:2583   */\n      tag_669\n        /* \"#utility.yul\":2575:2582   */\n      dup8\n        /* \"#utility.yul\":2566:2572   */\n      dup3\n        /* \"#utility.yul\":2555:2564   */\n      dup9\n        /* \"#utility.yul\":2551:2573   */\n      add\n        /* \"#utility.yul\":2530:2583   */\n      tag_560\n      jump\t// in\n    tag_669:\n        /* \"#utility.yul\":2520:2583   */\n      swap5\n      pop\n        /* \"#utility.yul\":2476:2593   */\n      pop\n        /* \"#utility.yul\":2632:2634   */\n      0x20\n        /* \"#utility.yul\":2658:2711   */\n      tag_670\n        /* \"#utility.yul\":2703:2710   */\n      dup8\n        /* \"#utility.yul\":2694:2700   */\n      dup3\n        /* \"#utility.yul\":2683:2692   */\n      dup9\n        /* \"#utility.yul\":2679:2701   */\n      add\n        /* \"#utility.yul\":2658:2711   */\n      tag_556\n      jump\t// in\n    tag_670:\n        /* \"#utility.yul\":2648:2711   */\n      swap4\n      pop\n        /* \"#utility.yul\":2603:2721   */\n      pop\n        /* \"#utility.yul\":2760:2762   */\n      0x40\n        /* \"#utility.yul\":2786:2839   */\n      tag_671\n        /* \"#utility.yul\":2831:2838   */\n      dup8\n        /* \"#utility.yul\":2822:2828   */\n      dup3\n        /* \"#utility.yul\":2811:2820   */\n      dup9\n        /* \"#utility.yul\":2807:2829   */\n      add\n        /* \"#utility.yul\":2786:2839   */\n      tag_556\n      jump\t// in\n    tag_671:\n        /* \"#utility.yul\":2776:2839   */\n      swap3\n      pop\n        /* \"#utility.yul\":2731:2849   */\n      pop\n        /* \"#utility.yul\":2888:2890   */\n      0x60\n        /* \"#utility.yul\":2914:2967   */\n      tag_672\n        /* \"#utility.yul\":2959:2966   */\n      dup8\n        /* \"#utility.yul\":2950:2956   */\n      dup3\n        /* \"#utility.yul\":2939:2948   */\n      dup9\n        /* \"#utility.yul\":2935:2957   */\n      add\n        /* \"#utility.yul\":2914:2967   */\n      tag_556\n      jump\t// in\n    tag_672:\n        /* \"#utility.yul\":2904:2967   */\n      swap2\n      pop\n        /* \"#utility.yul\":2859:2977   */\n      pop\n        /* \"#utility.yul\":2219:2984   */\n      swap3\n      swap6\n      swap2\n      swap5\n      pop\n      swap3\n      pop\n      jump\t// out\n        /* \"#utility.yul\":2990:3080   */\n    tag_562:\n        /* \"#utility.yul\":3024:3031   */\n      0x00\n        /* \"#utility.yul\":3067:3072   */\n      dup2\n        /* \"#utility.yul\":3060:3073   */\n      iszero\n        /* \"#utility.yul\":3053:3074   */\n      iszero\n        /* \"#utility.yul\":3042:3074   */\n      swap1\n      pop\n        /* \"#utility.yul\":2990:3080   */\n      swap2\n      swap1\n      pop\n      jump\t// out\n        /* \"#utility.yul\":3086:3195   */\n    tag_563:\n        /* \"#utility.yul\":3167:3188   */\n      tag_675\n        /* \"#utility.yul\":3182:3187   */\n      dup2\n        /* \"#utility.yul\":3167:3188   */\n      tag_562\n      jump\t// in\n    tag_675:\n        /* \"#utility.yul\":3162:3165   */\n      dup3\n        /* \"#utility.yul\":3155:3189   */\n      mstore\n        /* \"#utility.yul\":3086:3195   */\n      pop\n      pop\n      jump\t// out\n        /* \"#utility.yul\":3201:3411   */\n    tag_103:\n        /* \"#utility.yul\":3288:3292   */\n      0x00\n        /* \"#utility.yul\":3326:3328   */\n      0x20\n        /* \"#utility.yul\":3315:3324   */\n      dup3\n        /* \"#utility.yul\":3311:3329   */\n      add\n        /* \"#utility.yul\":3303:3329   */\n      swap1\n      pop\n        /* \"#utility.yul\":3339:3404   */\n      tag_677\n        /* \"#utility.yul\":3401:3402   */\n      0x00\n        /* \"#utility.yul\":3390:3399   */\n      dup4\n        /* \"#utility.yul\":3386:3403   */\n      add\n        /* \"#utility.yul\":3377:3383   */\n      dup5\n        /* \"#utility.yul\":3339:3404   */\n      tag_563\n      jump\t// in\n    tag_677:\n        /* \"#utility.yul\":3201:3411   */\n      swap3\n      swap2\n      pop\n      pop\n      jump\t// out\n        /* \"#utility.yul\":3417:3535   */\n    tag_564:\n        /* \"#utility.yul\":3504:3528   */\n      tag_679\n        /* \"#utility.yul\":3522:3527   */\n      dup2\n        /* \"#utility.yul\":3504:3528   */\n      tag_558\n      jump\t// in\n    tag_679:\n        /* \"#utility.yul\":3499:3502   */\n      dup3\n        /* \"#utility.yul\":3492:3529   */\n      mstore\n        /* \"#utility.yul\":3417:3535   */\n      pop\n      pop\n      jump\t// out\n        /* \"#utility.yul\":3541:3763   */\n    tag_121:\n        /* \"#utility.yul\":3634:3638   */\n      0x00\n        /* \"#utility.yul\":3672:3674   */\n      0x20\n        /* \"#utility.yul\":3661:3670   */\n      dup3\n        /* \"#utility.yul\":3657:3675   */\n      add\n        /* \"#utility.yul\":3649:3675   */\n      swap1\n      pop\n        /* \"#utility.yul\":3685:3756   */\n      tag_681\n        /* \"#utility.yul\":3753:3754   */\n      0x00\n        /* \"#utility.yul\":3742:3751   */\n      dup4\n        /* \"#utility.yul\":3738:3755   */\n      add\n        /* \"#utility.yul\":3729:3735   */\n      dup5\n        /* \"#utility.yul\":3685:3756   */\n      tag_564\n      jump\t// in\n    tag_681:\n        /* \"#utility.yul\":3541:3763   */\n      swap3\n      swap2\n      pop\n      pop\n      jump\t// out\n        /* \"#utility.yul\":3769:4243   */\n    tag_131:\n        /* \"#utility.yul\":3837:3843   */\n      0x00\n        /* \"#utility.yul\":3845:3851   */\n      dup1\n        /* \"#utility.yul\":3894:3896   */\n      0x40\n        /* \"#utility.yul\":3882:3891   */\n      dup4\n        /* \"#utility.yul\":3873:3880   */\n      dup6\n        /* \"#utility.yul\":3869:3892   */\n      sub\n        /* \"#utility.yul\":3865:3897   */\n      slt\n        /* \"#utility.yul\":3862:3981   */\n      iszero\n      tag_683\n      jumpi\n        /* \"#utility.yul\":3900:3979   */\n      tag_684\n      tag_552\n      jump\t// in\n    tag_684:\n        /* \"#utility.yul\":3862:3981   */\n    tag_683:\n        /* \"#utility.yul\":4020:4021   */\n      0x00\n        /* \"#utility.yul\":4045:4098   */\n      tag_685\n        /* \"#utility.yul\":4090:4097   */\n      dup6\n        /* \"#utility.yul\":4081:4087   */\n      dup3\n        /* \"#utility.yul\":4070:4079   */\n      dup7\n        /* \"#utility.yul\":4066:4088   */\n      add\n        /* \"#utility.yul\":4045:4098   */\n      tag_560\n      jump\t// in\n    tag_685:\n        /* \"#utility.yul\":4035:4098   */\n      swap3\n      pop\n        /* \"#utility.yul\":3991:4108   */\n      pop\n        /* \"#utility.yul\":4147:4149   */\n      0x20\n        /* \"#utility.yul\":4173:4226   */\n      tag_686\n        /* \"#utility.yul\":4218:4225   */\n      dup6\n        /* \"#utility.yul\":4209:4215   */\n      dup3\n        /* \"#utility.yul\":4198:4207   */\n      dup7\n        /* \"#utility.yul\":4194:4216   */\n      add\n        /* \"#utility.yul\":4173:4226   */\n      tag_556\n      jump\t// in\n    tag_686:\n        /* \"#utility.yul\":4163:4226   */\n      swap2\n      pop\n        /* \"#utility.yul\":4118:4236   */\n      pop\n        /* \"#utility.yul\":3769:4243   */\n      swap3\n      pop\n      swap3\n      swap1\n      pop\n      jump\t// out\n        /* \"#utility.yul\":4249:4581   */\n    tag_150:\n        /* \"#utility.yul\":4370:4374   */\n      0x00\n        /* \"#utility.yul\":4408:4410   */\n      0x40\n        /* \"#utility.yul\":4397:4406   */\n      dup3\n        /* \"#utility.yul\":4393:4411   */\n      add\n        /* \"#utility.yul\":4385:4411   */\n      swap1\n      pop\n        /* \"#utility.yul\":4421:4492   */\n      tag_688\n        /* \"#utility.yul\":4489:4490   */\n      0x00\n        /* \"#utility.yul\":4478:4487   */\n      dup4\n        /* \"#utility.yul\":4474:4491   */\n      add\n        /* \"#utility.yul\":4465:4471   */\n      dup6\n        /* \"#utility.yul\":4421:4492   */\n      tag_564\n      jump\t// in\n    tag_688:\n        /* \"#utility.yul\":4502:4574   */\n      tag_689\n        /* \"#utility.yul\":4570:4572   */\n      0x20\n        /* \"#utility.yul\":4559:4568   */\n      dup4\n        /* \"#utility.yul\":4555:4573   */\n      add\n        /* \"#utility.yul\":4546:4552   */\n      dup5\n        /* \"#utility.yul\":4502:4574   */\n      tag_564\n      jump\t// in\n    tag_689:\n        /* \"#utility.yul\":4249:4581   */\n      swap4\n      swap3\n      pop\n      pop\n      pop\n      jump\t// out\n        /* \"#utility.yul\":4587:5352   */\n    tag_174:\n        /* \"#utility.yul\":4673:4679   */\n      0x00\n        /* \"#utility.yul\":4681:4687   */\n      dup1\n        /* \"#utility.yul\":4689:4695   */\n      0x00\n        /* \"#utility.yul\":4697:4703   */\n      dup1\n        /* \"#utility.yul\":4746:4749   */\n      0x80\n        /* \"#utility.yul\":4734:4743   */\n      dup6\n        /* \"#utility.yul\":4725:4732   */\n      dup8\n        /* \"#utility.yul\":4721:4744   */\n      sub\n        /* \"#utility.yul\":4717:4750   */\n      slt\n        /* \"#utility.yul\":4714:4834   */\n      iszero\n      tag_691\n      jumpi\n        /* \"#utility.yul\":4753:4832   */\n      tag_692\n      tag_552\n      jump\t// in\n    tag_692:\n        /* \"#utility.yul\":4714:4834   */\n    tag_691:\n        /* \"#utility.yul\":4873:4874   */\n      0x00\n        /* \"#utility.yul\":4898:4951   */\n      tag_693\n        /* \"#utility.yul\":4943:4950   */\n      dup8\n        /* \"#utility.yul\":4934:4940   */\n      dup3\n        /* \"#utility.yul\":4923:4932   */\n      dup9\n        /* \"#utility.yul\":4919:4941   */\n      add\n        /* \"#utility.yul\":4898:4951   */\n      tag_556\n      jump\t// in\n    tag_693:\n        /* \"#utility.yul\":4888:4951   */\n      swap5\n      pop\n        /* \"#utility.yul\":4844:4961   */\n      pop\n        /* \"#utility.yul\":5000:5002   */\n      0x20\n        /* \"#utility.yul\":5026:5079   */\n      tag_694\n        /* \"#utility.yul\":5071:5078   */\n      dup8\n        /* \"#utility.yul\":5062:5068   */\n      dup3\n        /* \"#utility.yul\":5051:5060   */\n      dup9\n        /* \"#utility.yul\":5047:5069   */\n      add\n        /* \"#utility.yul\":5026:5079   */\n      tag_556\n      jump\t// in\n    tag_694:\n        /* \"#utility.yul\":5016:5079   */\n      swap4\n      pop\n        /* \"#utility.yul\":4971:5089   */\n      pop\n        /* \"#utility.yul\":5128:5130   */\n      0x40\n        /* \"#utility.yul\":5154:5207   */\n      tag_695\n        /* \"#utility.yul\":5199:5206   */\n      dup8\n        /* \"#utility.yul\":5190:5196   */\n      dup3\n        /* \"#utility.yul\":5179:5188   */\n      dup9\n        /* \"#utility.yul\":5175:5197   */\n      add\n        /* \"#utility.yul\":5154:5207   */\n      tag_560\n      jump\t// in\n    tag_695:\n        /* \"#utility.yul\":5144:5207   */\n      swap3\n      pop\n        /* \"#utility.yul\":5099:5217   */\n      pop\n        /* \"#utility.yul\":5256:5258   */\n      0x60\n        /* \"#utility.yul\":5282:5335   */\n      tag_696\n        /* \"#utility.yul\":5327:5334   */\n      dup8\n        /* \"#utility.yul\":5318:5324   */\n      dup3\n        /* \"#utility.yul\":5307:5316   */\n      dup9\n        /* \"#utility.yul\":5303:5325   */\n      add\n        /* \"#utility.yul\":5282:5335   */\n      tag_556\n      jump\t// in\n    tag_696:\n        /* \"#utility.yul\":5272:5335   */\n      swap2\n      pop\n        /* \"#utility.yul\":5227:5345   */\n      pop\n        /* \"#utility.yul\":4587:5352   */\n      swap3\n      swap6\n      swap2\n      swap5\n      pop\n      swap3\n      pop\n      jump\t// out\n        /* \"#utility.yul\":5358:6999   */\n    tag_183:\n        /* \"#utility.yul\":5498:5504   */\n      0x00\n        /* \"#utility.yul\":5506:5512   */\n      dup1\n        /* \"#utility.yul\":5514:5520   */\n      0x00\n        /* \"#utility.yul\":5522:5528   */\n      dup1\n        /* \"#utility.yul\":5530:5536   */\n      0x00\n        /* \"#utility.yul\":5538:5544   */\n      dup1\n        /* \"#utility.yul\":5546:5552   */\n      0x00\n        /* \"#utility.yul\":5554:5560   */\n      dup1\n        /* \"#utility.yul\":5562:5568   */\n      0x00\n        /* \"#utility.yul\":5570:5576   */\n      dup1\n        /* \"#utility.yul\":5619:5622   */\n      0x0140\n        /* \"#utility.yul\":5607:5616   */\n      dup12\n        /* \"#utility.yul\":5598:5605   */\n      dup14\n        /* \"#utility.yul\":5594:5617   */\n      sub\n        /* \"#utility.yul\":5590:5623   */\n      slt\n        /* \"#utility.yul\":5587:5707   */\n      iszero\n      tag_698\n      jumpi\n        /* \"#utility.yul\":5626:5705   */\n      tag_699\n      tag_552\n      jump\t// in\n    tag_699:\n        /* \"#utility.yul\":5587:5707   */\n    tag_698:\n        /* \"#utility.yul\":5746:5747   */\n      0x00\n        /* \"#utility.yul\":5771:5824   */\n      tag_700\n        /* \"#utility.yul\":5816:5823   */\n      dup14\n        /* \"#utility.yul\":5807:5813   */\n      dup3\n        /* \"#utility.yul\":5796:5805   */\n      dup15\n        /* \"#utility.yul\":5792:5814   */\n      add\n        /* \"#utility.yul\":5771:5824   */\n      tag_560\n      jump\t// in\n    tag_700:\n        /* \"#utility.yul\":5761:5824   */\n      swap11\n      pop\n        /* \"#utility.yul\":5717:5834   */\n      pop\n        /* \"#utility.yul\":5873:5875   */\n      0x20\n        /* \"#utility.yul\":5899:5952   */\n      tag_701\n        /* \"#utility.yul\":5944:5951   */\n      dup14\n        /* \"#utility.yul\":5935:5941   */\n      dup3\n        /* \"#utility.yul\":5924:5933   */\n      dup15\n        /* \"#utility.yul\":5920:5942   */\n      add\n        /* \"#utility.yul\":5899:5952   */\n      tag_556\n      jump\t// in\n    tag_701:\n        /* \"#utility.yul\":5889:5952   */\n      swap10\n      pop\n        /* \"#utility.yul\":5844:5962   */\n      pop\n        /* \"#utility.yul\":6001:6003   */\n      0x40\n        /* \"#utility.yul\":6027:6080   */\n      tag_702\n        /* \"#utility.yul\":6072:6079   */\n      dup14\n        /* \"#utility.yul\":6063:6069   */\n      dup3\n        /* \"#utility.yul\":6052:6061   */\n      dup15\n        /* \"#utility.yul\":6048:6070   */\n      add\n        /* \"#utility.yul\":6027:6080   */\n      tag_556\n      jump\t// in\n    tag_702:\n        /* \"#utility.yul\":6017:6080   */\n      swap9\n      pop\n        /* \"#utility.yul\":5972:6090   */\n      pop\n        /* \"#utility.yul\":6129:6131   */\n      0x60\n        /* \"#utility.yul\":6155:6208   */\n      tag_703\n        /* \"#utility.yul\":6200:6207   */\n      dup14\n        /* \"#utility.yul\":6191:6197   */\n      dup3\n        /* \"#utility.yul\":6180:6189   */\n      dup15\n        /* \"#utility.yul\":6176:6198   */\n      add\n        /* \"#utility.yul\":6155:6208   */\n      tag_556\n      jump\t// in\n    tag_703:\n        /* \"#utility.yul\":6145:6208   */\n      swap8\n      pop\n        /* \"#utility.yul\":6100:6218   */\n      pop\n        /* \"#utility.yul\":6257:6260   */\n      0x80\n        /* \"#utility.yul\":6284:6337   */\n      tag_704\n        /* \"#utility.yul\":6329:6336   */\n      dup14\n        /* \"#utility.yul\":6320:6326   */\n      dup3\n        /* \"#utility.yul\":6309:6318   */\n      dup15\n        /* \"#utility.yul\":6305:6327   */\n      add\n        /* \"#utility.yul\":6284:6337   */\n      tag_556\n      jump\t// in\n    tag_704:\n        /* \"#utility.yul\":6274:6337   */\n      swap7\n      pop\n        /* \"#utility.yul\":6228:6347   */\n      pop\n        /* \"#utility.yul\":6386:6389   */\n      0xa0\n        /* \"#utility.yul\":6413:6466   */\n      tag_705\n        /* \"#utility.yul\":6458:6465   */\n      dup14\n        /* \"#utility.yul\":6449:6455   */\n      dup3\n        /* \"#utility.yul\":6438:6447   */\n      dup15\n        /* \"#utility.yul\":6434:6456   */\n      add\n        /* \"#utility.yul\":6413:6466   */\n      tag_556\n      jump\t// in\n    tag_705:\n        /* \"#utility.yul\":6403:6466   */\n      swap6\n      pop\n        /* \"#utility.yul\":6357:6476   */\n      pop\n        /* \"#utility.yul\":6515:6518   */\n      0xc0\n        /* \"#utility.yul\":6542:6595   */\n      tag_706\n        /* \"#utility.yul\":6587:6594   */\n      dup14\n        /* \"#utility.yul\":6578:6584   */\n      dup3\n        /* \"#utility.yul\":6567:6576   */\n      dup15\n        /* \"#utility.yul\":6563:6585   */\n      add\n        /* \"#utility.yul\":6542:6595   */\n      tag_556\n      jump\t// in\n    tag_706:\n        /* \"#utility.yul\":6532:6595   */\n      swap5\n      pop\n        /* \"#utility.yul\":6486:6605   */\n      pop\n        /* \"#utility.yul\":6644:6647   */\n      0xe0\n        /* \"#utility.yul\":6671:6724   */\n      tag_707\n        /* \"#utility.yul\":6716:6723   */\n      dup14\n        /* \"#utility.yul\":6707:6713   */\n      dup3\n        /* \"#utility.yul\":6696:6705   */\n      dup15\n        /* \"#utility.yul\":6692:6714   */\n      add\n        /* \"#utility.yul\":6671:6724   */\n      tag_556\n      jump\t// in\n    tag_707:\n        /* \"#utility.yul\":6661:6724   */\n      swap4\n      pop\n        /* \"#utility.yul\":6615:6734   */\n      pop\n        /* \"#utility.yul\":6773:6776   */\n      0x0100\n        /* \"#utility.yul\":6800:6853   */\n      tag_708\n        /* \"#utility.yul\":6845:6852   */\n      dup14\n        /* \"#utility.yul\":6836:6842   */\n      dup3\n        /* \"#utility.yul\":6825:6834   */\n      dup15\n        /* \"#utility.yul\":6821:6843   */\n      add\n        /* \"#utility.yul\":6800:6853   */\n      tag_556\n      jump\t// in\n    tag_708:\n        /* \"#utility.yul\":6790:6853   */\n      swap3\n      pop\n        /* \"#utility.yul\":6744:6863   */\n      pop\n        /* \"#utility.yul\":6902:6905   */\n      0x0120\n        /* \"#utility.yul\":6929:6982   */\n      tag_709\n        /* \"#utility.yul\":6974:6981   */\n      dup14\n        /* \"#utility.yul\":6965:6971   */\n      dup3\n        /* \"#utility.yul\":6954:6963   */\n      dup15\n        /* \"#utility.yul\":6950:6972   */\n      add\n        /* \"#utility.yul\":6929:6982   */\n      tag_556\n      jump\t// in\n    tag_709:\n        /* \"#utility.yul\":6919:6982   */\n      swap2\n      pop\n        /* \"#utility.yul\":6873:6992   */\n      pop\n        /* \"#utility.yul\":5358:6999   */\n      swap3\n      swap6\n      swap9\n      swap12\n      swap2\n      swap5\n      swap8\n      swap11\n      pop\n      swap3\n      swap6\n      swap9\n      pop\n      jump\t// out\n        /* \"#utility.yul\":7005:7119   */\n    tag_565:\n        /* \"#utility.yul\":7072:7078   */\n      0x00\n        /* \"#utility.yul\":7106:7111   */\n      dup2\n        /* \"#utility.yul\":7100:7112   */\n      mload\n        /* \"#utility.yul\":7090:7112   */\n      swap1\n      pop\n        /* \"#utility.yul\":7005:7119   */\n      swap2\n      swap1\n      pop\n      jump\t// out\n        /* \"#utility.yul\":7125:7309   */\n    tag_566:\n        /* \"#utility.yul\":7224:7235   */\n      0x00\n        /* \"#utility.yul\":7258:7264   */\n      dup3\n        /* \"#utility.yul\":7253:7256   */\n      dup3\n        /* \"#utility.yul\":7246:7265   */\n      mstore\n        /* \"#utility.yul\":7298:7302   */\n      0x20\n        /* \"#utility.yul\":7293:7296   */\n      dup3\n        /* \"#utility.yul\":7289:7303   */\n      add\n        /* \"#utility.yul\":7274:7303   */\n      swap1\n      pop\n        /* \"#utility.yul\":7125:7309   */\n      swap3\n      swap2\n      pop\n      pop\n      jump\t// out\n        /* \"#utility.yul\":7315:7447   */\n    tag_567:\n        /* \"#utility.yul\":7382:7386   */\n      0x00\n        /* \"#utility.yul\":7405:7408   */\n      dup2\n        /* \"#utility.yul\":7397:7408   */\n      swap1\n      pop\n        /* \"#utility.yul\":7435:7439   */\n      0x20\n        /* \"#utility.yul\":7430:7433   */\n      dup3\n        /* \"#utility.yul\":7426:7440   */\n      add\n        /* \"#utility.yul\":7418:7440   */\n      swap1\n      pop\n        /* \"#utility.yul\":7315:7447   */\n      swap2\n      swap1\n      pop\n      jump\t// out\n        /* \"#utility.yul\":7453:7561   */\n    tag_568:\n        /* \"#utility.yul\":7530:7554   */\n      tag_714\n        /* \"#utility.yul\":7548:7553   */\n      dup2\n        /* \"#utility.yul\":7530:7554   */\n      tag_558\n      jump\t// in\n    tag_714:\n        /* \"#utility.yul\":7525:7528   */\n      dup3\n        /* \"#utility.yul\":7518:7555   */\n      mstore\n        /* \"#utility.yul\":7453:7561   */\n      pop\n      pop\n      jump\t// out\n        /* \"#utility.yul\":7567:7746   */\n    tag_569:\n        /* \"#utility.yul\":7636:7646   */\n      0x00\n        /* \"#utility.yul\":7657:7703   */\n      tag_716\n        /* \"#utility.yul\":7699:7702   */\n      dup4\n        /* \"#utility.yul\":7691:7697   */\n      dup4\n        /* \"#utility.yul\":7657:7703   */\n      tag_568\n      jump\t// in\n    tag_716:\n        /* \"#utility.yul\":7735:7739   */\n      0x20\n        /* \"#utility.yul\":7730:7733   */\n      dup4\n        /* \"#utility.yul\":7726:7740   */\n      add\n        /* \"#utility.yul\":7712:7740   */\n      swap1\n      pop\n        /* \"#utility.yul\":7567:7746   */\n      swap3\n      swap2\n      pop\n      pop\n      jump\t// out\n        /* \"#utility.yul\":7752:7865   */\n    tag_570:\n        /* \"#utility.yul\":7822:7826   */\n      0x00\n        /* \"#utility.yul\":7854:7858   */\n      0x20\n        /* \"#utility.yul\":7849:7852   */\n      dup3\n        /* \"#utility.yul\":7845:7859   */\n      add\n        /* \"#utility.yul\":7837:7859   */\n      swap1\n      pop\n        /* \"#utility.yul\":7752:7865   */\n      swap2\n      swap1\n      pop\n      jump\t// out\n        /* \"#utility.yul\":7901:8633   */\n    tag_571:\n        /* \"#utility.yul\":8020:8023   */\n      0x00\n        /* \"#utility.yul\":8049:8103   */\n      tag_719\n        /* \"#utility.yul\":8097:8102   */\n      dup3\n        /* \"#utility.yul\":8049:8103   */\n      tag_565\n      jump\t// in\n    tag_719:\n        /* \"#utility.yul\":8119:8205   */\n      tag_720\n        /* \"#utility.yul\":8198:8204   */\n      dup2\n        /* \"#utility.yul\":8193:8196   */\n      dup6\n        /* \"#utility.yul\":8119:8205   */\n      tag_566\n      jump\t// in\n    tag_720:\n        /* \"#utility.yul\":8112:8205   */\n      swap4\n      pop\n        /* \"#utility.yul\":8229:8285   */\n      tag_721\n        /* \"#utility.yul\":8279:8284   */\n      dup4\n        /* \"#utility.yul\":8229:8285   */\n      tag_567\n      jump\t// in\n    tag_721:\n        /* \"#utility.yul\":8308:8315   */\n      dup1\n        /* \"#utility.yul\":8339:8340   */\n      0x00\n        /* \"#utility.yul\":8324:8608   */\n    tag_722:\n        /* \"#utility.yul\":8349:8355   */\n      dup4\n        /* \"#utility.yul\":8346:8347   */\n      dup2\n        /* \"#utility.yul\":8343:8356   */\n      lt\n        /* \"#utility.yul\":8324:8608   */\n      iszero\n      tag_724\n      jumpi\n        /* \"#utility.yul\":8425:8431   */\n      dup2\n        /* \"#utility.yul\":8419:8432   */\n      mload\n        /* \"#utility.yul\":8452:8515   */\n      tag_725\n        /* \"#utility.yul\":8511:8514   */\n      dup9\n        /* \"#utility.yul\":8496:8509   */\n      dup3\n        /* \"#utility.yul\":8452:8515   */\n      tag_569\n      jump\t// in\n    tag_725:\n        /* \"#utility.yul\":8445:8515   */\n      swap8\n      pop\n        /* \"#utility.yul\":8538:8598   */\n      tag_726\n        /* \"#utility.yul\":8591:8597   */\n      dup4\n        /* \"#utility.yul\":8538:8598   */\n      tag_570\n      jump\t// in\n    tag_726:\n        /* \"#utility.yul\":8528:8598   */\n      swap3\n      pop\n        /* \"#utility.yul\":8384:8608   */\n      pop\n        /* \"#utility.yul\":8371:8372   */\n      0x01\n        /* \"#utility.yul\":8368:8369   */\n      dup2\n        /* \"#utility.yul\":8364:8373   */\n      add\n        /* \"#utility.yul\":8359:8373   */\n      swap1\n      pop\n        /* \"#utility.yul\":8324:8608   */\n      jump(tag_722)\n    tag_724:\n        /* \"#utility.yul\":8328:8342   */\n      pop\n        /* \"#utility.yul\":8624:8627   */\n      dup6\n        /* \"#utility.yul\":8617:8627   */\n      swap4\n      pop\n        /* \"#utility.yul\":8025:8633   */\n      pop\n      pop\n      pop\n        /* \"#utility.yul\":7901:8633   */\n      swap3\n      swap2\n      pop\n      pop\n      jump\t// out\n        /* \"#utility.yul\":8639:8753   */\n    tag_572:\n        /* \"#utility.yul\":8706:8712   */\n      0x00\n        /* \"#utility.yul\":8740:8745   */\n      dup2\n        /* \"#utility.yul\":8734:8746   */\n      mload\n        /* \"#utility.yul\":8724:8746   */\n      swap1\n      pop\n        /* \"#utility.yul\":8639:8753   */\n      swap2\n      swap1\n      pop\n      jump\t// out\n        /* \"#utility.yul\":8759:8943   */\n    tag_573:\n        /* \"#utility.yul\":8858:8869   */\n      0x00\n        /* \"#utility.yul\":8892:8898   */\n      dup3\n        /* \"#utility.yul\":8887:8890   */\n      dup3\n        /* \"#utility.yul\":8880:8899   */\n      mstore\n        /* \"#utility.yul\":8932:8936   */\n      0x20\n        /* \"#utility.yul\":8927:8930   */\n      dup3\n        /* \"#utility.yul\":8923:8937   */\n      add\n        /* \"#utility.yul\":8908:8937   */\n      swap1\n      pop\n        /* \"#utility.yul\":8759:8943   */\n      swap3\n      swap2\n      pop\n      pop\n      jump\t// out\n        /* \"#utility.yul\":8949:9081   */\n    tag_574:\n        /* \"#utility.yul\":9016:9020   */\n      0x00\n        /* \"#utility.yul\":9039:9042   */\n      dup2\n        /* \"#utility.yul\":9031:9042   */\n      swap1\n      pop\n        /* \"#utility.yul\":9069:9073   */\n      0x20\n        /* \"#utility.yul\":9064:9067   */\n      dup3\n        /* \"#utility.yul\":9060:9074   */\n      add\n        /* \"#utility.yul\":9052:9074   */\n      swap1\n      pop\n        /* \"#utility.yul\":8949:9081   */\n      swap2\n      swap1\n      pop\n      jump\t// out\n        /* \"#utility.yul\":9087:9195   */\n    tag_575:\n        /* \"#utility.yul\":9164:9188   */\n      tag_731\n        /* \"#utility.yul\":9182:9187   */\n      dup2\n        /* \"#utility.yul\":9164:9188   */\n      tag_554\n      jump\t// in\n    tag_731:\n        /* \"#utility.yul\":9159:9162   */\n      dup3\n        /* \"#utility.yul\":9152:9189   */\n      mstore\n        /* \"#utility.yul\":9087:9195   */\n      pop\n      pop\n      jump\t// out\n        /* \"#utility.yul\":9201:9380   */\n    tag_576:\n        /* \"#utility.yul\":9270:9280   */\n      0x00\n        /* \"#utility.yul\":9291:9337   */\n      tag_733\n        /* \"#utility.yul\":9333:9336   */\n      dup4\n        /* \"#utility.yul\":9325:9331   */\n      dup4\n        /* \"#utility.yul\":9291:9337   */\n      tag_575\n      jump\t// in\n    tag_733:\n        /* \"#utility.yul\":9369:9373   */\n      0x20\n        /* \"#utility.yul\":9364:9367   */\n      dup4\n        /* \"#utility.yul\":9360:9374   */\n      add\n        /* \"#utility.yul\":9346:9374   */\n      swap1\n      pop\n        /* \"#utility.yul\":9201:9380   */\n      swap3\n      swap2\n      pop\n      pop\n      jump\t// out\n        /* \"#utility.yul\":9386:9499   */\n    tag_577:\n        /* \"#utility.yul\":9456:9460   */\n      0x00\n        /* \"#utility.yul\":9488:9492   */\n      0x20\n        /* \"#utility.yul\":9483:9486   */\n      dup3\n        /* \"#utility.yul\":9479:9493   */\n      add\n        /* \"#utility.yul\":9471:9493   */\n      swap1\n      pop\n        /* \"#utility.yul\":9386:9499   */\n      swap2\n      swap1\n      pop\n      jump\t// out\n        /* \"#utility.yul\":9535:10267   */\n    tag_578:\n        /* \"#utility.yul\":9654:9657   */\n      0x00\n        /* \"#utility.yul\":9683:9737   */\n      tag_736\n        /* \"#utility.yul\":9731:9736   */\n      dup3\n        /* \"#utility.yul\":9683:9737   */\n      tag_572\n      jump\t// in\n    tag_736:\n        /* \"#utility.yul\":9753:9839   */\n      tag_737\n        /* \"#utility.yul\":9832:9838   */\n      dup2\n        /* \"#utility.yul\":9827:9830   */\n      dup6\n        /* \"#utility.yul\":9753:9839   */\n      tag_573\n      jump\t// in\n    tag_737:\n        /* \"#utility.yul\":9746:9839   */\n      swap4\n      pop\n        /* \"#utility.yul\":9863:9919   */\n      tag_738\n        /* \"#utility.yul\":9913:9918   */\n      dup4\n        /* \"#utility.yul\":9863:9919   */\n      tag_574\n      jump\t// in\n    tag_738:\n        /* \"#utility.yul\":9942:9949   */\n      dup1\n        /* \"#utility.yul\":9973:9974   */\n      0x00\n        /* \"#utility.yul\":9958:10242   */\n    tag_739:\n        /* \"#utility.yul\":9983:9989   */\n      dup4\n        /* \"#utility.yul\":9980:9981   */\n      dup2\n        /* \"#utility.yul\":9977:9990   */\n      lt\n        /* \"#utility.yul\":9958:10242   */\n      iszero\n      tag_741\n      jumpi\n        /* \"#utility.yul\":10059:10065   */\n      dup2\n        /* \"#utility.yul\":10053:10066   */\n      mload\n        /* \"#utility.yul\":10086:10149   */\n      tag_742\n        /* \"#utility.yul\":10145:10148   */\n      dup9\n        /* \"#utility.yul\":10130:10143   */\n      dup3\n        /* \"#utility.yul\":10086:10149   */\n      tag_576\n      jump\t// in\n    tag_742:\n        /* \"#utility.yul\":10079:10149   */\n      swap8\n      pop\n        /* \"#utility.yul\":10172:10232   */\n      tag_743\n        /* \"#utility.yul\":10225:10231   */\n      dup4\n        /* \"#utility.yul\":10172:10232   */\n      tag_577\n      jump\t// in\n    tag_743:\n        /* \"#utility.yul\":10162:10232   */\n      swap3\n      pop\n        /* \"#utility.yul\":10018:10242   */\n      pop\n        /* \"#utility.yul\":10005:10006   */\n      0x01\n        /* \"#utility.yul\":10002:10003   */\n      dup2\n        /* \"#utility.yul\":9998:10007   */\n      add\n        /* \"#utility.yul\":9993:10007   */\n      swap1\n      pop\n        /* \"#utility.yul\":9958:10242   */\n      jump(tag_739)\n    tag_741:\n        /* \"#utility.yul\":9962:9976   */\n      pop\n        /* \"#utility.yul\":10258:10261   */\n      dup6\n        /* \"#utility.yul\":10251:10261   */\n      swap4\n      pop\n        /* \"#utility.yul\":9659:10267   */\n      pop\n      pop\n      pop\n        /* \"#utility.yul\":9535:10267   */\n      swap3\n      swap2\n      pop\n      pop\n      jump\t// out\n        /* \"#utility.yul\":10273:11954   */\n    tag_230:\n        /* \"#utility.yul\":10806:10810   */\n      0x00\n        /* \"#utility.yul\":10844:10847   */\n      0xc0\n        /* \"#utility.yul\":10833:10842   */\n      dup3\n        /* \"#utility.yul\":10829:10848   */\n      add\n        /* \"#utility.yul\":10821:10848   */\n      swap1\n      pop\n        /* \"#utility.yul\":10894:10903   */\n      dup2\n        /* \"#utility.yul\":10888:10892   */\n      dup2\n        /* \"#utility.yul\":10884:10904   */\n      sub\n        /* \"#utility.yul\":10880:10881   */\n      0x00\n        /* \"#utility.yul\":10869:10878   */\n      dup4\n        /* \"#utility.yul\":10865:10882   */\n      add\n        /* \"#utility.yul\":10858:10905   */\n      mstore\n        /* \"#utility.yul\":10922:11030   */\n      tag_745\n        /* \"#utility.yul\":11025:11029   */\n      dup2\n        /* \"#utility.yul\":11016:11022   */\n      dup10\n        /* \"#utility.yul\":10922:11030   */\n      tag_571\n      jump\t// in\n    tag_745:\n        /* \"#utility.yul\":10914:11030   */\n      swap1\n      pop\n        /* \"#utility.yul\":11077:11086   */\n      dup2\n        /* \"#utility.yul\":11071:11075   */\n      dup2\n        /* \"#utility.yul\":11067:11087   */\n      sub\n        /* \"#utility.yul\":11062:11064   */\n      0x20\n        /* \"#utility.yul\":11051:11060   */\n      dup4\n        /* \"#utility.yul\":11047:11065   */\n      add\n        /* \"#utility.yul\":11040:11088   */\n      mstore\n        /* \"#utility.yul\":11105:11213   */\n      tag_746\n        /* \"#utility.yul\":11208:11212   */\n      dup2\n        /* \"#utility.yul\":11199:11205   */\n      dup9\n        /* \"#utility.yul\":11105:11213   */\n      tag_571\n      jump\t// in\n    tag_746:\n        /* \"#utility.yul\":11097:11213   */\n      swap1\n      pop\n        /* \"#utility.yul\":11260:11269   */\n      dup2\n        /* \"#utility.yul\":11254:11258   */\n      dup2\n        /* \"#utility.yul\":11250:11270   */\n      sub\n        /* \"#utility.yul\":11245:11247   */\n      0x40\n        /* \"#utility.yul\":11234:11243   */\n      dup4\n        /* \"#utility.yul\":11230:11248   */\n      add\n        /* \"#utility.yul\":11223:11271   */\n      mstore\n        /* \"#utility.yul\":11288:11396   */\n      tag_747\n        /* \"#utility.yul\":11391:11395   */\n      dup2\n        /* \"#utility.yul\":11382:11388   */\n      dup8\n        /* \"#utility.yul\":11288:11396   */\n      tag_578\n      jump\t// in\n    tag_747:\n        /* \"#utility.yul\":11280:11396   */\n      swap1\n      pop\n        /* \"#utility.yul\":11443:11452   */\n      dup2\n        /* \"#utility.yul\":11437:11441   */\n      dup2\n        /* \"#utility.yul\":11433:11453   */\n      sub\n        /* \"#utility.yul\":11428:11430   */\n      0x60\n        /* \"#utility.yul\":11417:11426   */\n      dup4\n        /* \"#utility.yul\":11413:11431   */\n      add\n        /* \"#utility.yul\":11406:11454   */\n      mstore\n        /* \"#utility.yul\":11471:11579   */\n      tag_748\n        /* \"#utility.yul\":11574:11578   */\n      dup2\n        /* \"#utility.yul\":11565:11571   */\n      dup7\n        /* \"#utility.yul\":11471:11579   */\n      tag_578\n      jump\t// in\n    tag_748:\n        /* \"#utility.yul\":11463:11579   */\n      swap1\n      pop\n        /* \"#utility.yul\":11627:11636   */\n      dup2\n        /* \"#utility.yul\":11621:11625   */\n      dup2\n        /* \"#utility.yul\":11617:11637   */\n      sub\n        /* \"#utility.yul\":11611:11614   */\n      0x80\n        /* \"#utility.yul\":11600:11609   */\n      dup4\n        /* \"#utility.yul\":11596:11615   */\n      add\n        /* \"#utility.yul\":11589:11638   */\n      mstore\n        /* \"#utility.yul\":11655:11763   */\n      tag_749\n        /* \"#utility.yul\":11758:11762   */\n      dup2\n        /* \"#utility.yul\":11749:11755   */\n      dup6\n        /* \"#utility.yul\":11655:11763   */\n      tag_578\n      jump\t// in\n    tag_749:\n        /* \"#utility.yul\":11647:11763   */\n      swap1\n      pop\n        /* \"#utility.yul\":11811:11820   */\n      dup2\n        /* \"#utility.yul\":11805:11809   */\n      dup2\n        /* \"#utility.yul\":11801:11821   */\n      sub\n        /* \"#utility.yul\":11795:11798   */\n      0xa0\n        /* \"#utility.yul\":11784:11793   */\n      dup4\n        /* \"#utility.yul\":11780:11799   */\n      add\n        /* \"#utility.yul\":11773:11822   */\n      mstore\n        /* \"#utility.yul\":11839:11947   */\n      tag_750\n        /* \"#utility.yul\":11942:11946   */\n      dup2\n        /* \"#utility.yul\":11933:11939   */\n      dup5\n        /* \"#utility.yul\":11839:11947   */\n      tag_578\n      jump\t// in\n    tag_750:\n        /* \"#utility.yul\":11831:11947   */\n      swap1\n      pop\n        /* \"#utility.yul\":10273:11954   */\n      swap8\n      swap7\n      pop\n      pop\n      pop\n      pop\n      pop\n      pop\n      pop\n      jump\t// out\n        /* \"#utility.yul\":11960:12076   */\n    tag_579:\n        /* \"#utility.yul\":12030:12051   */\n      tag_752\n        /* \"#utility.yul\":12045:12050   */\n      dup2\n        /* \"#utility.yul\":12030:12051   */\n      tag_562\n      jump\t// in\n    tag_752:\n        /* \"#utility.yul\":12023:12028   */\n      dup2\n        /* \"#utility.yul\":12020:12052   */\n      eq\n        /* \"#utility.yul\":12010:12070   */\n      tag_753\n      jumpi\n        /* \"#utility.yul\":12066:12067   */\n      0x00\n        /* \"#utility.yul\":12063:12064   */\n      dup1\n        /* \"#utility.yul\":12056:12068   */\n      revert\n        /* \"#utility.yul\":12010:12070   */\n    tag_753:\n        /* \"#utility.yul\":11960:12076   */\n      pop\n      jump\t// out\n        /* \"#utility.yul\":12082:12215   */\n    tag_580:\n        /* \"#utility.yul\":12125:12130   */\n      0x00\n        /* \"#utility.yul\":12163:12169   */\n      dup2\n        /* \"#utility.yul\":12150:12170   */\n      calldataload\n        /* \"#utility.yul\":12141:12170   */\n      swap1\n      pop\n        /* \"#utility.yul\":12179:12209   */\n      tag_755\n        /* \"#utility.yul\":12203:12208   */\n      dup2\n        /* \"#utility.yul\":12179:12209   */\n      tag_579\n      jump\t// in\n    tag_755:\n        /* \"#utility.yul\":12082:12215   */\n      swap3\n      swap2\n      pop\n      pop\n      jump\t// out\n        /* \"#utility.yul\":12221:12683   */\n    tag_250:\n        /* \"#utility.yul\":12283:12289   */\n      0x00\n        /* \"#utility.yul\":12291:12297   */\n      dup1\n        /* \"#utility.yul\":12340:12342   */\n      0x40\n        /* \"#utility.yul\":12328:12337   */\n      dup4\n        /* \"#utility.yul\":12319:12326   */\n      dup6\n        /* \"#utility.yul\":12315:12338   */\n      sub\n        /* \"#utility.yul\":12311:12343   */\n      slt\n        /* \"#utility.yul\":12308:12427   */\n      iszero\n      tag_757\n      jumpi\n        /* \"#utility.yul\":12346:12425   */\n      tag_758\n      tag_552\n      jump\t// in\n    tag_758:\n        /* \"#utility.yul\":12308:12427   */\n    tag_757:\n        /* \"#utility.yul\":12466:12467   */\n      0x00\n        /* \"#utility.yul\":12491:12541   */\n      tag_759\n        /* \"#utility.yul\":12533:12540   */\n      dup6\n        /* \"#utility.yul\":12524:12530   */\n      dup3\n        /* \"#utility.yul\":12513:12522   */\n      dup7\n        /* \"#utility.yul\":12509:12531   */\n      add\n        /* \"#utility.yul\":12491:12541   */\n      tag_580\n      jump\t// in\n    tag_759:\n        /* \"#utility.yul\":12481:12541   */\n      swap3\n      pop\n        /* \"#utility.yul\":12437:12551   */\n      pop\n        /* \"#utility.yul\":12590:12592   */\n      0x20\n        /* \"#utility.yul\":12616:12666   */\n      tag_760\n        /* \"#utility.yul\":12658:12665   */\n      dup6\n        /* \"#utility.yul\":12649:12655   */\n      dup3\n        /* \"#utility.yul\":12638:12647   */\n      dup7\n        /* \"#utility.yul\":12634:12656   */\n      add\n        /* \"#utility.yul\":12616:12666   */\n      tag_580\n      jump\t// in\n    tag_760:\n        /* \"#utility.yul\":12606:12666   */\n      swap2\n      pop\n        /* \"#utility.yul\":12561:12676   */\n      pop\n        /* \"#utility.yul\":12221:12683   */\n      swap3\n      pop\n      swap3\n      swap1\n      pop\n      jump\t// out\n        /* \"#utility.yul\":12689:12788   */\n    tag_581:\n        /* \"#utility.yul\":12741:12747   */\n      0x00\n        /* \"#utility.yul\":12775:12780   */\n      dup2\n        /* \"#utility.yul\":12769:12781   */\n      mload\n        /* \"#utility.yul\":12759:12781   */\n      swap1\n      pop\n        /* \"#utility.yul\":12689:12788   */\n      swap2\n      swap1\n      pop\n      jump\t// out\n        /* \"#utility.yul\":12794:12963   */\n    tag_582:\n        /* \"#utility.yul\":12878:12889   */\n      0x00\n        /* \"#utility.yul\":12912:12918   */\n      dup3\n        /* \"#utility.yul\":12907:12910   */\n      dup3\n        /* \"#utility.yul\":12900:12919   */\n      mstore\n        /* \"#utility.yul\":12952:12956   */\n      0x20\n        /* \"#utility.yul\":12947:12950   */\n      dup3\n        /* \"#utility.yul\":12943:12957   */\n      add\n        /* \"#utility.yul\":12928:12957   */\n      swap1\n      pop\n        /* \"#utility.yul\":12794:12963   */\n      swap3\n      swap2\n      pop\n      pop\n      jump\t// out\n        /* \"#utility.yul\":12969:13215   */\n    tag_583:\n        /* \"#utility.yul\":13050:13051   */\n      0x00\n        /* \"#utility.yul\":13060:13173   */\n    tag_764:\n        /* \"#utility.yul\":13074:13080   */\n      dup4\n        /* \"#utility.yul\":13071:13072   */\n      dup2\n        /* \"#utility.yul\":13068:13081   */\n      lt\n        /* \"#utility.yul\":13060:13173   */\n      iszero\n      tag_766\n      jumpi\n        /* \"#utility.yul\":13159:13160   */\n      dup1\n        /* \"#utility.yul\":13154:13157   */\n      dup3\n        /* \"#utility.yul\":13150:13161   */\n      add\n        /* \"#utility.yul\":13144:13162   */\n      mload\n        /* \"#utility.yul\":13140:13141   */\n      dup2\n        /* \"#utility.yul\":13135:13138   */\n      dup5\n        /* \"#utility.yul\":13131:13142   */\n      add\n        /* \"#utility.yul\":13124:13163   */\n      mstore\n        /* \"#utility.yul\":13096:13098   */\n      0x20\n        /* \"#utility.yul\":13093:13094   */\n      dup2\n        /* \"#utility.yul\":13089:13099   */\n      add\n        /* \"#utility.yul\":13084:13099   */\n      swap1\n      pop\n        /* \"#utility.yul\":13060:13173   */\n      jump(tag_764)\n    tag_766:\n        /* \"#utility.yul\":13207:13208   */\n      0x00\n        /* \"#utility.yul\":13198:13204   */\n      dup5\n        /* \"#utility.yul\":13193:13196   */\n      dup5\n        /* \"#utility.yul\":13189:13205   */\n      add\n        /* \"#utility.yul\":13182:13209   */\n      mstore\n        /* \"#utility.yul\":13031:13215   */\n      pop\n        /* \"#utility.yul\":12969:13215   */\n      pop\n      pop\n      pop\n      jump\t// out\n        /* \"#utility.yul\":13221:13323   */\n    tag_584:\n        /* \"#utility.yul\":13262:13268   */\n      0x00\n        /* \"#utility.yul\":13313:13315   */\n      0x1f\n        /* \"#utility.yul\":13309:13316   */\n      not\n        /* \"#utility.yul\":13304:13306   */\n      0x1f\n        /* \"#utility.yul\":13297:13302   */\n      dup4\n        /* \"#utility.yul\":13293:13307   */\n      add\n        /* \"#utility.yul\":13289:13317   */\n      and\n        /* \"#utility.yul\":13279:13317   */\n      swap1\n      pop\n        /* \"#utility.yul\":13221:13323   */\n      swap2\n      swap1\n      pop\n      jump\t// out\n        /* \"#utility.yul\":13329:13706   */\n    tag_585:\n        /* \"#utility.yul\":13417:13420   */\n      0x00\n        /* \"#utility.yul\":13445:13484   */\n      tag_769\n        /* \"#utility.yul\":13478:13483   */\n      dup3\n        /* \"#utility.yul\":13445:13484   */\n      tag_581\n      jump\t// in\n    tag_769:\n        /* \"#utility.yul\":13500:13571   */\n      tag_770\n        /* \"#utility.yul\":13564:13570   */\n      dup2\n        /* \"#utility.yul\":13559:13562   */\n      dup6\n        /* \"#utility.yul\":13500:13571   */\n      tag_582\n      jump\t// in\n    tag_770:\n        /* \"#utility.yul\":13493:13571   */\n      swap4\n      pop\n        /* \"#utility.yul\":13580:13645   */\n      tag_771\n        /* \"#utility.yul\":13638:13644   */\n      dup2\n        /* \"#utility.yul\":13633:13636   */\n      dup6\n        /* \"#utility.yul\":13626:13630   */\n      0x20\n        /* \"#utility.yul\":13619:13624   */\n      dup7\n        /* \"#utility.yul\":13615:13631   */\n      add\n        /* \"#utility.yul\":13580:13645   */\n      tag_583\n      jump\t// in\n    tag_771:\n        /* \"#utility.yul\":13670:13699   */\n      tag_772\n        /* \"#utility.yul\":13692:13698   */\n      dup2\n        /* \"#utility.yul\":13670:13699   */\n      tag_584\n      jump\t// in\n    tag_772:\n        /* \"#utility.yul\":13665:13668   */\n      dup5\n        /* \"#utility.yul\":13661:13700   */\n      add\n        /* \"#utility.yul\":13654:13700   */\n      swap2\n      pop\n        /* \"#utility.yul\":13421:13706   */\n      pop\n        /* \"#utility.yul\":13329:13706   */\n      swap3\n      swap2\n      pop\n      pop\n      jump\t// out\n        /* \"#utility.yul\":13712:14025   */\n    tag_280:\n        /* \"#utility.yul\":13825:13829   */\n      0x00\n        /* \"#utility.yul\":13863:13865   */\n      0x20\n        /* \"#utility.yul\":13852:13861   */\n      dup3\n        /* \"#utility.yul\":13848:13866   */\n      add\n        /* \"#utility.yul\":13840:13866   */\n      swap1\n      pop\n        /* \"#utility.yul\":13912:13921   */\n      dup2\n        /* \"#utility.yul\":13906:13910   */\n      dup2\n        /* \"#utility.yul\":13902:13922   */\n      sub\n        /* \"#utility.yul\":13898:13899   */\n      0x00\n        /* \"#utility.yul\":13887:13896   */\n      dup4\n        /* \"#utility.yul\":13883:13900   */\n      add\n        /* \"#utility.yul\":13876:13923   */\n      mstore\n        /* \"#utility.yul\":13940:14018   */\n      tag_774\n        /* \"#utility.yul\":14013:14017   */\n      dup2\n        /* \"#utility.yul\":14004:14010   */\n      dup5\n        /* \"#utility.yul\":13940:14018   */\n      tag_585\n      jump\t// in\n    tag_774:\n        /* \"#utility.yul\":13932:14018   */\n      swap1\n      pop\n        /* \"#utility.yul\":13712:14025   */\n      swap3\n      swap2\n      pop\n      pop\n      jump\t// out\n        /* \"#utility.yul\":14031:14199   */\n    tag_586:\n        /* \"#utility.yul\":14171:14191   */\n      0x496e646578206f7574206f662072616e67650000000000000000000000000000\n        /* \"#utility.yul\":14167:14168   */\n      0x00\n        /* \"#utility.yul\":14159:14165   */\n      dup3\n        /* \"#utility.yul\":14155:14169   */\n      add\n        /* \"#utility.yul\":14148:14192   */\n      mstore\n        /* \"#utility.yul\":14031:14199   */\n      pop\n      jump\t// out\n        /* \"#utility.yul\":14205:14571   */\n    tag_587:\n        /* \"#utility.yul\":14347:14350   */\n      0x00\n        /* \"#utility.yul\":14368:14435   */\n      tag_777\n        /* \"#utility.yul\":14432:14434   */\n      0x12\n        /* \"#utility.yul\":14427:14430   */\n      dup4\n        /* \"#utility.yul\":14368:14435   */\n      tag_582\n      jump\t// in\n    tag_777:\n        /* \"#utility.yul\":14361:14435   */\n      swap2\n      pop\n        /* \"#utility.yul\":14444:14537   */\n      tag_778\n        /* \"#utility.yul\":14533:14536   */\n      dup3\n        /* \"#utility.yul\":14444:14537   */\n      tag_586\n      jump\t// in\n    tag_778:\n        /* \"#utility.yul\":14562:14564   */\n      0x20\n        /* \"#utility.yul\":14557:14560   */\n      dup3\n        /* \"#utility.yul\":14553:14565   */\n      add\n        /* \"#utility.yul\":14546:14565   */\n      swap1\n      pop\n        /* \"#utility.yul\":14205:14571   */\n      swap2\n      swap1\n      pop\n      jump\t// out\n        /* \"#utility.yul\":14577:14996   */\n    tag_319:\n        /* \"#utility.yul\":14743:14747   */\n      0x00\n        /* \"#utility.yul\":14781:14783   */\n      0x20\n        /* \"#utility.yul\":14770:14779   */\n      dup3\n        /* \"#utility.yul\":14766:14784   */\n      add\n        /* \"#utility.yul\":14758:14784   */\n      swap1\n      pop\n        /* \"#utility.yul\":14830:14839   */\n      dup2\n        /* \"#utility.yul\":14824:14828   */\n      dup2\n        /* \"#utility.yul\":14820:14840   */\n      sub\n        /* \"#utility.yul\":14816:14817   */\n      0x00\n        /* \"#utility.yul\":14805:14814   */\n      dup4\n        /* \"#utility.yul\":14801:14818   */\n      add\n        /* \"#utility.yul\":14794:14841   */\n      mstore\n        /* \"#utility.yul\":14858:14989   */\n      tag_780\n        /* \"#utility.yul\":14984:14988   */\n      dup2\n        /* \"#utility.yul\":14858:14989   */\n      tag_587\n      jump\t// in\n    tag_780:\n        /* \"#utility.yul\":14850:14989   */\n      swap1\n      pop\n        /* \"#utility.yul\":14577:14996   */\n      swap2\n      swap1\n      pop\n      jump\t// out\n        /* \"#utility.yul\":15002:15182   */\n    tag_322:\n        /* \"#utility.yul\":15050:15127   */\n      0x4e487b7100000000000000000000000000000000000000000000000000000000\n        /* \"#utility.yul\":15047:15048   */\n      0x00\n        /* \"#utility.yul\":15040:15128   */\n      mstore\n        /* \"#utility.yul\":15147:15151   */\n      0x32\n        /* \"#utility.yul\":15144:15145   */\n      0x04\n        /* \"#utility.yul\":15137:15152   */\n      mstore\n        /* \"#utility.yul\":15171:15175   */\n      0x24\n        /* \"#utility.yul\":15168:15169   */\n      0x00\n        /* \"#utility.yul\":15161:15176   */\n      revert\n        /* \"#utility.yul\":15188:15347   */\n    tag_588:\n        /* \"#utility.yul\":15328:15339   */\n      0x6e6f742073746172740000000000000000000000000000000000000000000000\n        /* \"#utility.yul\":15324:15325   */\n      0x00\n        /* \"#utility.yul\":15316:15322   */\n      dup3\n        /* \"#utility.yul\":15312:15326   */\n      add\n        /* \"#utility.yul\":15305:15340   */\n      mstore\n        /* \"#utility.yul\":15188:15347   */\n      pop\n      jump\t// out\n        /* \"#utility.yul\":15353:15718   */\n    tag_589:\n        /* \"#utility.yul\":15495:15498   */\n      0x00\n        /* \"#utility.yul\":15516:15582   */\n      tag_784\n        /* \"#utility.yul\":15580:15581   */\n      0x09\n        /* \"#utility.yul\":15575:15578   */\n      dup4\n        /* \"#utility.yul\":15516:15582   */\n      tag_582\n      jump\t// in\n    tag_784:\n        /* \"#utility.yul\":15509:15582   */\n      swap2\n      pop\n        /* \"#utility.yul\":15591:15684   */\n      tag_785\n        /* \"#utility.yul\":15680:15683   */\n      dup3\n        /* \"#utility.yul\":15591:15684   */\n      tag_588\n      jump\t// in\n    tag_785:\n        /* \"#utility.yul\":15709:15711   */\n      0x20\n        /* \"#utility.yul\":15704:15707   */\n      dup3\n        /* \"#utility.yul\":15700:15712   */\n      add\n        /* \"#utility.yul\":15693:15712   */\n      swap1\n      pop\n        /* \"#utility.yul\":15353:15718   */\n      swap2\n      swap1\n      pop\n      jump\t// out\n        /* \"#utility.yul\":15724:16143   */\n    tag_338:\n        /* \"#utility.yul\":15890:15894   */\n      0x00\n        /* \"#utility.yul\":15928:15930   */\n      0x20\n        /* \"#utility.yul\":15917:15926   */\n      dup3\n        /* \"#utility.yul\":15913:15931   */\n      add\n        /* \"#utility.yul\":15905:15931   */\n      swap1\n      pop\n        /* \"#utility.yul\":15977:15986   */\n      dup2\n        /* \"#utility.yul\":15971:15975   */\n      dup2\n        /* \"#utility.yul\":15967:15987   */\n      sub\n        /* \"#utility.yul\":15963:15964   */\n      0x00\n        /* \"#utility.yul\":15952:15961   */\n      dup4\n        /* \"#utility.yul\":15948:15965   */\n      add\n        /* \"#utility.yul\":15941:15988   */\n      mstore\n        /* \"#utility.yul\":16005:16136   */\n      tag_787\n        /* \"#utility.yul\":16131:16135   */\n      dup2\n        /* \"#utility.yul\":16005:16136   */\n      tag_589\n      jump\t// in\n    tag_787:\n        /* \"#utility.yul\":15997:16136   */\n      swap1\n      pop\n        /* \"#utility.yul\":15724:16143   */\n      swap2\n      swap1\n      pop\n      jump\t// out\n        /* \"#utility.yul\":16149:16319   */\n    tag_590:\n        /* \"#utility.yul\":16289:16311   */\n      0x696e76697465722063616e742062792073656c66000000000000000000000000\n        /* \"#utility.yul\":16285:16286   */\n      0x00\n        /* \"#utility.yul\":16277:16283   */\n      dup3\n        /* \"#utility.yul\":16273:16287   */\n      add\n        /* \"#utility.yul\":16266:16312   */\n      mstore\n        /* \"#utility.yul\":16149:16319   */\n      pop\n      jump\t// out\n        /* \"#utility.yul\":16325:16691   */\n    tag_591:\n        /* \"#utility.yul\":16467:16470   */\n      0x00\n        /* \"#utility.yul\":16488:16555   */\n      tag_790\n        /* \"#utility.yul\":16552:16554   */\n      0x14\n        /* \"#utility.yul\":16547:16550   */\n      dup4\n        /* \"#utility.yul\":16488:16555   */\n      tag_582\n      jump\t// in\n    tag_790:\n        /* \"#utility.yul\":16481:16555   */\n      swap2\n      pop\n        /* \"#utility.yul\":16564:16657   */\n      tag_791\n        /* \"#utility.yul\":16653:16656   */\n      dup3\n        /* \"#utility.yul\":16564:16657   */\n      tag_590\n      jump\t// in\n    tag_791:\n        /* \"#utility.yul\":16682:16684   */\n      0x20\n        /* \"#utility.yul\":16677:16680   */\n      dup3\n        /* \"#utility.yul\":16673:16685   */\n      add\n        /* \"#utility.yul\":16666:16685   */\n      swap1\n      pop\n        /* \"#utility.yul\":16325:16691   */\n      swap2\n      swap1\n      pop\n      jump\t// out\n        /* \"#utility.yul\":16697:17116   */\n    tag_341:\n        /* \"#utility.yul\":16863:16867   */\n      0x00\n        /* \"#utility.yul\":16901:16903   */\n      0x20\n        /* \"#utility.yul\":16890:16899   */\n      dup3\n        /* \"#utility.yul\":16886:16904   */\n      add\n        /* \"#utility.yul\":16878:16904   */\n      swap1\n      pop\n        /* \"#utility.yul\":16950:16959   */\n      dup2\n        /* \"#utility.yul\":16944:16948   */\n      dup2\n        /* \"#utility.yul\":16940:16960   */\n      sub\n        /* \"#utility.yul\":16936:16937   */\n      0x00\n        /* \"#utility.yul\":16925:16934   */\n      dup4\n        /* \"#utility.yul\":16921:16938   */\n      add\n        /* \"#utility.yul\":16914:16961   */\n      mstore\n        /* \"#utility.yul\":16978:17109   */\n      tag_793\n        /* \"#utility.yul\":17104:17108   */\n      dup2\n        /* \"#utility.yul\":16978:17109   */\n      tag_591\n      jump\t// in\n    tag_793:\n        /* \"#utility.yul\":16970:17109   */\n      swap1\n      pop\n        /* \"#utility.yul\":16697:17116   */\n      swap2\n      swap1\n      pop\n      jump\t// out\n        /* \"#utility.yul\":17122:17285   */\n    tag_592:\n        /* \"#utility.yul\":17262:17277   */\n      0x616c7265616479207374616b6500000000000000000000000000000000000000\n        /* \"#utility.yul\":17258:17259   */\n      0x00\n        /* \"#utility.yul\":17250:17256   */\n      dup3\n        /* \"#utility.yul\":17246:17260   */\n      add\n        /* \"#utility.yul\":17239:17278   */\n      mstore\n        /* \"#utility.yul\":17122:17285   */\n      pop\n      jump\t// out\n        /* \"#utility.yul\":17291:17657   */\n    tag_593:\n        /* \"#utility.yul\":17433:17436   */\n      0x00\n        /* \"#utility.yul\":17454:17521   */\n      tag_796\n        /* \"#utility.yul\":17518:17520   */\n      0x0d\n        /* \"#utility.yul\":17513:17516   */\n      dup4\n        /* \"#utility.yul\":17454:17521   */\n      tag_582\n      jump\t// in\n    tag_796:\n        /* \"#utility.yul\":17447:17521   */\n      swap2\n      pop\n        /* \"#utility.yul\":17530:17623   */\n      tag_797\n        /* \"#utility.yul\":17619:17622   */\n      dup3\n        /* \"#utility.yul\":17530:17623   */\n      tag_592\n      jump\t// in\n    tag_797:\n        /* \"#utility.yul\":17648:17650   */\n      0x20\n        /* \"#utility.yul\":17643:17646   */\n      dup3\n        /* \"#utility.yul\":17639:17651   */\n      add\n        /* \"#utility.yul\":17632:17651   */\n      swap1\n      pop\n        /* \"#utility.yul\":17291:17657   */\n      swap2\n      swap1\n      pop\n      jump\t// out\n        /* \"#utility.yul\":17663:18082   */\n    tag_344:\n        /* \"#utility.yul\":17829:17833   */\n      0x00\n        /* \"#utility.yul\":17867:17869   */\n      0x20\n        /* \"#utility.yul\":17856:17865   */\n      dup3\n        /* \"#utility.yul\":17852:17870   */\n      add\n        /* \"#utility.yul\":17844:17870   */\n      swap1\n      pop\n        /* \"#utility.yul\":17916:17925   */\n      dup2\n        /* \"#utility.yul\":17910:17914   */\n      dup2\n        /* \"#utility.yul\":17906:17926   */\n      sub\n        /* \"#utility.yul\":17902:17903   */\n      0x00\n        /* \"#utility.yul\":17891:17900   */\n      dup4\n        /* \"#utility.yul\":17887:17904   */\n      add\n        /* \"#utility.yul\":17880:17927   */\n      mstore\n        /* \"#utility.yul\":17944:18075   */\n      tag_799\n        /* \"#utility.yul\":18070:18074   */\n      dup2\n        /* \"#utility.yul\":17944:18075   */\n      tag_593\n      jump\t// in\n    tag_799:\n        /* \"#utility.yul\":17936:18075   */\n      swap1\n      pop\n        /* \"#utility.yul\":17663:18082   */\n      swap2\n      swap1\n      pop\n      jump\t// out\n        /* \"#utility.yul\":18088:18255   */\n    tag_594:\n        /* \"#utility.yul\":18228:18247   */\n      0x616c7265616479207374616b6555736474000000000000000000000000000000\n        /* \"#utility.yul\":18224:18225   */\n      0x00\n        /* \"#utility.yul\":18216:18222   */\n      dup3\n        /* \"#utility.yul\":18212:18226   */\n      add\n        /* \"#utility.yul\":18205:18248   */\n      mstore\n        /* \"#utility.yul\":18088:18255   */\n      pop\n      jump\t// out\n        /* \"#utility.yul\":18261:18627   */\n    tag_595:\n        /* \"#utility.yul\":18403:18406   */\n      0x00\n        /* \"#utility.yul\":18424:18491   */\n      tag_802\n        /* \"#utility.yul\":18488:18490   */\n      0x11\n        /* \"#utility.yul\":18483:18486   */\n      dup4\n        /* \"#utility.yul\":18424:18491   */\n      tag_582\n      jump\t// in\n    tag_802:\n        /* \"#utility.yul\":18417:18491   */\n      swap2\n      pop\n        /* \"#utility.yul\":18500:18593   */\n      tag_803\n        /* \"#utility.yul\":18589:18592   */\n      dup3\n        /* \"#utility.yul\":18500:18593   */\n      tag_594\n      jump\t// in\n    tag_803:\n        /* \"#utility.yul\":18618:18620   */\n      0x20\n        /* \"#utility.yul\":18613:18616   */\n      dup3\n        /* \"#utility.yul\":18609:18621   */\n      add\n        /* \"#utility.yul\":18602:18621   */\n      swap1\n      pop\n        /* \"#utility.yul\":18261:18627   */\n      swap2\n      swap1\n      pop\n      jump\t// out\n        /* \"#utility.yul\":18633:19052   */\n    tag_347:\n        /* \"#utility.yul\":18799:18803   */\n      0x00\n        /* \"#utility.yul\":18837:18839   */\n      0x20\n        /* \"#utility.yul\":18826:18835   */\n      dup3\n        /* \"#utility.yul\":18822:18840   */\n      add\n        /* \"#utility.yul\":18814:18840   */\n      swap1\n      pop\n        /* \"#utility.yul\":18886:18895   */\n      dup2\n        /* \"#utility.yul\":18880:18884   */\n      dup2\n        /* \"#utility.yul\":18876:18896   */\n      sub\n        /* \"#utility.yul\":18872:18873   */\n      0x00\n        /* \"#utility.yul\":18861:18870   */\n      dup4\n        /* \"#utility.yul\":18857:18874   */\n      add\n        /* \"#utility.yul\":18850:18897   */\n      mstore\n        /* \"#utility.yul\":18914:19045   */\n      tag_805\n        /* \"#utility.yul\":19040:19044   */\n      dup2\n        /* \"#utility.yul\":18914:19045   */\n      tag_595\n      jump\t// in\n    tag_805:\n        /* \"#utility.yul\":18906:19045   */\n      swap1\n      pop\n        /* \"#utility.yul\":18633:19052   */\n      swap2\n      swap1\n      pop\n      jump\t// out\n        /* \"#utility.yul\":19058:19224   */\n    tag_596:\n        /* \"#utility.yul\":19198:19216   */\n      0x616c7265616479207374616b6542646300000000000000000000000000000000\n        /* \"#utility.yul\":19194:19195   */\n      0x00\n        /* \"#utility.yul\":19186:19192   */\n      dup3\n        /* \"#utility.yul\":19182:19196   */\n      add\n        /* \"#utility.yul\":19175:19217   */\n      mstore\n        /* \"#utility.yul\":19058:19224   */\n      pop\n      jump\t// out\n        /* \"#utility.yul\":19230:19596   */\n    tag_597:\n        /* \"#utility.yul\":19372:19375   */\n      0x00\n        /* \"#utility.yul\":19393:19460   */\n      tag_808\n        /* \"#utility.yul\":19457:19459   */\n      0x10\n        /* \"#utility.yul\":19452:19455   */\n      dup4\n        /* \"#utility.yul\":19393:19460   */\n      tag_582\n      jump\t// in\n    tag_808:\n        /* \"#utility.yul\":19386:19460   */\n      swap2\n      pop\n        /* \"#utility.yul\":19469:19562   */\n      tag_809\n        /* \"#utility.yul\":19558:19561   */\n      dup3\n        /* \"#utility.yul\":19469:19562   */\n      tag_596\n      jump\t// in\n    tag_809:\n        /* \"#utility.yul\":19587:19589   */\n      0x20\n        /* \"#utility.yul\":19582:19585   */\n      dup3\n        /* \"#utility.yul\":19578:19590   */\n      add\n        /* \"#utility.yul\":19571:19590   */\n      swap1\n      pop\n        /* \"#utility.yul\":19230:19596   */\n      swap2\n      swap1\n      pop\n      jump\t// out\n        /* \"#utility.yul\":19602:20021   */\n    tag_350:\n        /* \"#utility.yul\":19768:19772   */\n      0x00\n        /* \"#utility.yul\":19806:19808   */\n      0x20\n        /* \"#utility.yul\":19795:19804   */\n      dup3\n        /* \"#utility.yul\":19791:19809   */\n      add\n        /* \"#utility.yul\":19783:19809   */\n      swap1\n      pop\n        /* \"#utility.yul\":19855:19864   */\n      dup2\n        /* \"#utility.yul\":19849:19853   */\n      dup2\n        /* \"#utility.yul\":19845:19865   */\n      sub\n        /* \"#utility.yul\":19841:19842   */\n      0x00\n        /* \"#utility.yul\":19830:19839   */\n      dup4\n        /* \"#utility.yul\":19826:19843   */\n      add\n        /* \"#utility.yul\":19819:19866   */\n      mstore\n        /* \"#utility.yul\":19883:20014   */\n      tag_811\n        /* \"#utility.yul\":20009:20013   */\n      dup2\n        /* \"#utility.yul\":19883:20014   */\n      tag_597\n      jump\t// in\n    tag_811:\n        /* \"#utility.yul\":19875:20014   */\n      swap1\n      pop\n        /* \"#utility.yul\":19602:20021   */\n      swap2\n      swap1\n      pop\n      jump\t// out\n        /* \"#utility.yul\":20027:20189   */\n    tag_598:\n        /* \"#utility.yul\":20167:20181   */\n      0x7a65726f20616d6f756e74410000000000000000000000000000000000000000\n        /* \"#utility.yul\":20163:20164   */\n      0x00\n        /* \"#utility.yul\":20155:20161   */\n      dup3\n        /* \"#utility.yul\":20151:20165   */\n      add\n        /* \"#utility.yul\":20144:20182   */\n      mstore\n        /* \"#utility.yul\":20027:20189   */\n      pop\n      jump\t// out\n        /* \"#utility.yul\":20195:20561   */\n    tag_599:\n        /* \"#utility.yul\":20337:20340   */\n      0x00\n        /* \"#utility.yul\":20358:20425   */\n      tag_814\n        /* \"#utility.yul\":20422:20424   */\n      0x0c\n        /* \"#utility.yul\":20417:20420   */\n      dup4\n        /* \"#utility.yul\":20358:20425   */\n      tag_582\n      jump\t// in\n    tag_814:\n        /* \"#utility.yul\":20351:20425   */\n      swap2\n      pop\n        /* \"#utility.yul\":20434:20527   */\n      tag_815\n        /* \"#utility.yul\":20523:20526   */\n      dup3\n        /* \"#utility.yul\":20434:20527   */\n      tag_598\n      jump\t// in\n    tag_815:\n        /* \"#utility.yul\":20552:20554   */\n      0x20\n        /* \"#utility.yul\":20547:20550   */\n      dup3\n        /* \"#utility.yul\":20543:20555   */\n      add\n        /* \"#utility.yul\":20536:20555   */\n      swap1\n      pop\n        /* \"#utility.yul\":20195:20561   */\n      swap2\n      swap1\n      pop\n      jump\t// out\n        /* \"#utility.yul\":20567:20986   */\n    tag_353:\n        /* \"#utility.yul\":20733:20737   */\n      0x00\n        /* \"#utility.yul\":20771:20773   */\n      0x20\n        /* \"#utility.yul\":20760:20769   */\n      dup3\n        /* \"#utility.yul\":20756:20774   */\n      add\n        /* \"#utility.yul\":20748:20774   */\n      swap1\n      pop\n        /* \"#utility.yul\":20820:20829   */\n      dup2\n        /* \"#utility.yul\":20814:20818   */\n      dup2\n        /* \"#utility.yul\":20810:20830   */\n      sub\n        /* \"#utility.yul\":20806:20807   */\n      0x00\n        /* \"#utility.yul\":20795:20804   */\n      dup4\n        /* \"#utility.yul\":20791:20808   */\n      add\n        /* \"#utility.yul\":20784:20831   */\n      mstore\n        /* \"#utility.yul\":20848:20979   */\n      tag_817\n        /* \"#utility.yul\":20974:20978   */\n      dup2\n        /* \"#utility.yul\":20848:20979   */\n      tag_599\n      jump\t// in\n    tag_817:\n        /* \"#utility.yul\":20840:20979   */\n      swap1\n      pop\n        /* \"#utility.yul\":20567:20986   */\n      swap2\n      swap1\n      pop\n      jump\t// out\n        /* \"#utility.yul\":20992:21154   */\n    tag_600:\n        /* \"#utility.yul\":21132:21146   */\n      0x7a65726f20616d6f756e74420000000000000000000000000000000000000000\n        /* \"#utility.yul\":21128:21129   */\n      0x00\n        /* \"#utility.yul\":21120:21126   */\n      dup3\n        /* \"#utility.yul\":21116:21130   */\n      add\n        /* \"#utility.yul\":21109:21147   */\n      mstore\n        /* \"#utility.yul\":20992:21154   */\n      pop\n      jump\t// out\n        /* \"#utility.yul\":21160:21526   */\n    tag_601:\n        /* \"#utility.yul\":21302:21305   */\n      0x00\n        /* \"#utility.yul\":21323:21390   */\n      tag_820\n        /* \"#utility.yul\":21387:21389   */\n      0x0c\n        /* \"#utility.yul\":21382:21385   */\n      dup4\n        /* \"#utility.yul\":21323:21390   */\n      tag_582\n      jump\t// in\n    tag_820:\n        /* \"#utility.yul\":21316:21390   */\n      swap2\n      pop\n        /* \"#utility.yul\":21399:21492   */\n      tag_821\n        /* \"#utility.yul\":21488:21491   */\n      dup3\n        /* \"#utility.yul\":21399:21492   */\n      tag_600\n      jump\t// in\n    tag_821:\n        /* \"#utility.yul\":21517:21519   */\n      0x20\n        /* \"#utility.yul\":21512:21515   */\n      dup3\n        /* \"#utility.yul\":21508:21520   */\n      add\n        /* \"#utility.yul\":21501:21520   */\n      swap1\n      pop\n        /* \"#utility.yul\":21160:21526   */\n      swap2\n      swap1\n      pop\n      jump\t// out\n        /* \"#utility.yul\":21532:21951   */\n    tag_356:\n        /* \"#utility.yul\":21698:21702   */\n      0x00\n        /* \"#utility.yul\":21736:21738   */\n      0x20\n        /* \"#utility.yul\":21725:21734   */\n      dup3\n        /* \"#utility.yul\":21721:21739   */\n      add\n        /* \"#utility.yul\":21713:21739   */\n      swap1\n      pop\n        /* \"#utility.yul\":21785:21794   */\n      dup2\n        /* \"#utility.yul\":21779:21783   */\n      dup2\n        /* \"#utility.yul\":21775:21795   */\n      sub\n        /* \"#utility.yul\":21771:21772   */\n      0x00\n        /* \"#utility.yul\":21760:21769   */\n      dup4\n        /* \"#utility.yul\":21756:21773   */\n      add\n        /* \"#utility.yul\":21749:21796   */\n      mstore\n        /* \"#utility.yul\":21813:21944   */\n      tag_823\n        /* \"#utility.yul\":21939:21943   */\n      dup2\n        /* \"#utility.yul\":21813:21944   */\n      tag_601\n      jump\t// in\n    tag_823:\n        /* \"#utility.yul\":21805:21944   */\n      swap1\n      pop\n        /* \"#utility.yul\":21532:21951   */\n      swap2\n      swap1\n      pop\n      jump\t// out\n        /* \"#utility.yul\":21957:22121   */\n    tag_602:\n        /* \"#utility.yul\":22097:22113   */\n      0x6e6f742072696768742074696d65000000000000000000000000000000000000\n        /* \"#utility.yul\":22093:22094   */\n      0x00\n        /* \"#utility.yul\":22085:22091   */\n      dup3\n        /* \"#utility.yul\":22081:22095   */\n      add\n        /* \"#utility.yul\":22074:22114   */\n      mstore\n        /* \"#utility.yul\":21957:22121   */\n      pop\n      jump\t// out\n        /* \"#utility.yul\":22127:22493   */\n    tag_603:\n        /* \"#utility.yul\":22269:22272   */\n      0x00\n        /* \"#utility.yul\":22290:22357   */\n      tag_826\n        /* \"#utility.yul\":22354:22356   */\n      0x0e\n        /* \"#utility.yul\":22349:22352   */\n      dup4\n        /* \"#utility.yul\":22290:22357   */\n      tag_582\n      jump\t// in\n    tag_826:\n        /* \"#utility.yul\":22283:22357   */\n      swap2\n      pop\n        /* \"#utility.yul\":22366:22459   */\n      tag_827\n        /* \"#utility.yul\":22455:22458   */\n      dup3\n        /* \"#utility.yul\":22366:22459   */\n      tag_602\n      jump\t// in\n    tag_827:\n        /* \"#utility.yul\":22484:22486   */\n      0x20\n        /* \"#utility.yul\":22479:22482   */\n      dup3\n        /* \"#utility.yul\":22475:22487   */\n      add\n        /* \"#utility.yul\":22468:22487   */\n      swap1\n      pop\n        /* \"#utility.yul\":22127:22493   */\n      swap2\n      swap1\n      pop\n      jump\t// out\n        /* \"#utility.yul\":22499:22918   */\n    tag_361:\n        /* \"#utility.yul\":22665:22669   */\n      0x00\n        /* \"#utility.yul\":22703:22705   */\n      0x20\n        /* \"#utility.yul\":22692:22701   */\n      dup3\n        /* \"#utility.yul\":22688:22706   */\n      add\n        /* \"#utility.yul\":22680:22706   */\n      swap1\n      pop\n        /* \"#utility.yul\":22752:22761   */\n      dup2\n        /* \"#utility.yul\":22746:22750   */\n      dup2\n        /* \"#utility.yul\":22742:22762   */\n      sub\n        /* \"#utility.yul\":22738:22739   */\n      0x00\n        /* \"#utility.yul\":22727:22736   */\n      dup4\n        /* \"#utility.yul\":22723:22740   */\n      add\n        /* \"#utility.yul\":22716:22763   */\n      mstore\n        /* \"#utility.yul\":22780:22911   */\n      tag_829\n        /* \"#utility.yul\":22906:22910   */\n      dup2\n        /* \"#utility.yul\":22780:22911   */\n      tag_603\n      jump\t// in\n    tag_829:\n        /* \"#utility.yul\":22772:22911   */\n      swap1\n      pop\n        /* \"#utility.yul\":22499:22918   */\n      swap2\n      swap1\n      pop\n      jump\t// out\n        /* \"#utility.yul\":22924:23104   */\n    tag_604:\n        /* \"#utility.yul\":22972:23049   */\n      0x4e487b7100000000000000000000000000000000000000000000000000000000\n        /* \"#utility.yul\":22969:22970   */\n      0x00\n        /* \"#utility.yul\":22962:23050   */\n      mstore\n        /* \"#utility.yul\":23069:23073   */\n      0x11\n        /* \"#utility.yul\":23066:23067   */\n      0x04\n        /* \"#utility.yul\":23059:23074   */\n      mstore\n        /* \"#utility.yul\":23093:23097   */\n      0x24\n        /* \"#utility.yul\":23090:23091   */\n      0x00\n        /* \"#utility.yul\":23083:23098   */\n      revert\n        /* \"#utility.yul\":23110:23301   */\n    tag_364:\n        /* \"#utility.yul\":23150:23153   */\n      0x00\n        /* \"#utility.yul\":23169:23189   */\n      tag_832\n        /* \"#utility.yul\":23187:23188   */\n      dup3\n        /* \"#utility.yul\":23169:23189   */\n      tag_554\n      jump\t// in\n    tag_832:\n        /* \"#utility.yul\":23164:23189   */\n      swap2\n      pop\n        /* \"#utility.yul\":23203:23223   */\n      tag_833\n        /* \"#utility.yul\":23221:23222   */\n      dup4\n        /* \"#utility.yul\":23203:23223   */\n      tag_554\n      jump\t// in\n    tag_833:\n        /* \"#utility.yul\":23198:23223   */\n      swap3\n      pop\n        /* \"#utility.yul\":23246:23247   */\n      dup3\n        /* \"#utility.yul\":23243:23244   */\n      dup3\n        /* \"#utility.yul\":23239:23248   */\n      add\n        /* \"#utility.yul\":23232:23248   */\n      swap1\n      pop\n        /* \"#utility.yul\":23267:23270   */\n      dup1\n        /* \"#utility.yul\":23264:23265   */\n      dup3\n        /* \"#utility.yul\":23261:23271   */\n      gt\n        /* \"#utility.yul\":23258:23294   */\n      iszero\n      tag_834\n      jumpi\n        /* \"#utility.yul\":23274:23292   */\n      tag_835\n      tag_604\n      jump\t// in\n    tag_835:\n        /* \"#utility.yul\":23258:23294   */\n    tag_834:\n        /* \"#utility.yul\":23110:23301   */\n      swap3\n      swap2\n      pop\n      pop\n      jump\t// out\n        /* \"#utility.yul\":23307:23749   */\n    tag_367:\n        /* \"#utility.yul\":23456:23460   */\n      0x00\n        /* \"#utility.yul\":23494:23496   */\n      0x60\n        /* \"#utility.yul\":23483:23492   */\n      dup3\n        /* \"#utility.yul\":23479:23497   */\n      add\n        /* \"#utility.yul\":23471:23497   */\n      swap1\n      pop\n        /* \"#utility.yul\":23507:23578   */\n      tag_837\n        /* \"#utility.yul\":23575:23576   */\n      0x00\n        /* \"#utility.yul\":23564:23573   */\n      dup4\n        /* \"#utility.yul\":23560:23577   */\n      add\n        /* \"#utility.yul\":23551:23557   */\n      dup7\n        /* \"#utility.yul\":23507:23578   */\n      tag_564\n      jump\t// in\n    tag_837:\n        /* \"#utility.yul\":23588:23660   */\n      tag_838\n        /* \"#utility.yul\":23656:23658   */\n      0x20\n        /* \"#utility.yul\":23645:23654   */\n      dup4\n        /* \"#utility.yul\":23641:23659   */\n      add\n        /* \"#utility.yul\":23632:23638   */\n      dup6\n        /* \"#utility.yul\":23588:23660   */\n      tag_564\n      jump\t// in\n    tag_838:\n        /* \"#utility.yul\":23670:23742   */\n      tag_839\n        /* \"#utility.yul\":23738:23740   */\n      0x40\n        /* \"#utility.yul\":23727:23736   */\n      dup4\n        /* \"#utility.yul\":23723:23741   */\n      add\n        /* \"#utility.yul\":23714:23720   */\n      dup5\n        /* \"#utility.yul\":23670:23742   */\n      tag_561\n      jump\t// in\n    tag_839:\n        /* \"#utility.yul\":23307:23749   */\n      swap5\n      swap4\n      pop\n      pop\n      pop\n      pop\n      jump\t// out\n        /* \"#utility.yul\":23755:23892   */\n    tag_605:\n        /* \"#utility.yul\":23809:23814   */\n      0x00\n        /* \"#utility.yul\":23840:23846   */\n      dup2\n        /* \"#utility.yul\":23834:23847   */\n      mload\n        /* \"#utility.yul\":23825:23847   */\n      swap1\n      pop\n        /* \"#utility.yul\":23856:23886   */\n      tag_841\n        /* \"#utility.yul\":23880:23885   */\n      dup2\n        /* \"#utility.yul\":23856:23886   */\n      tag_579\n      jump\t// in\n    tag_841:\n        /* \"#utility.yul\":23755:23892   */\n      swap3\n      swap2\n      pop\n      pop\n      jump\t// out\n        /* \"#utility.yul\":23898:24243   */\n    tag_371:\n        /* \"#utility.yul\":23965:23971   */\n      0x00\n        /* \"#utility.yul\":24014:24016   */\n      0x20\n        /* \"#utility.yul\":24002:24011   */\n      dup3\n        /* \"#utility.yul\":23993:24000   */\n      dup5\n        /* \"#utility.yul\":23989:24012   */\n      sub\n        /* \"#utility.yul\":23985:24017   */\n      slt\n        /* \"#utility.yul\":23982:24101   */\n      iszero\n      tag_843\n      jumpi\n        /* \"#utility.yul\":24020:24099   */\n      tag_844\n      tag_552\n      jump\t// in\n    tag_844:\n        /* \"#utility.yul\":23982:24101   */\n    tag_843:\n        /* \"#utility.yul\":24140:24141   */\n      0x00\n        /* \"#utility.yul\":24165:24226   */\n      tag_845\n        /* \"#utility.yul\":24218:24225   */\n      dup5\n        /* \"#utility.yul\":24209:24215   */\n      dup3\n        /* \"#utility.yul\":24198:24207   */\n      dup6\n        /* \"#utility.yul\":24194:24216   */\n      add\n        /* \"#utility.yul\":24165:24226   */\n      tag_605\n      jump\t// in\n    tag_845:\n        /* \"#utility.yul\":24155:24226   */\n      swap2\n      pop\n        /* \"#utility.yul\":24111:24236   */\n      pop\n        /* \"#utility.yul\":23898:24243   */\n      swap3\n      swap2\n      pop\n      pop\n      jump\t// out\n        /* \"#utility.yul\":24249:24581   */\n    tag_373:\n        /* \"#utility.yul\":24370:24374   */\n      0x00\n        /* \"#utility.yul\":24408:24410   */\n      0x40\n        /* \"#utility.yul\":24397:24406   */\n      dup3\n        /* \"#utility.yul\":24393:24411   */\n      add\n        /* \"#utility.yul\":24385:24411   */\n      swap1\n      pop\n        /* \"#utility.yul\":24421:24492   */\n      tag_847\n        /* \"#utility.yul\":24489:24490   */\n      0x00\n        /* \"#utility.yul\":24478:24487   */\n      dup4\n        /* \"#utility.yul\":24474:24491   */\n      add\n        /* \"#utility.yul\":24465:24471   */\n      dup6\n        /* \"#utility.yul\":24421:24492   */\n      tag_564\n      jump\t// in\n    tag_847:\n        /* \"#utility.yul\":24502:24574   */\n      tag_848\n        /* \"#utility.yul\":24570:24572   */\n      0x20\n        /* \"#utility.yul\":24559:24568   */\n      dup4\n        /* \"#utility.yul\":24555:24573   */\n      add\n        /* \"#utility.yul\":24546:24552   */\n      dup5\n        /* \"#utility.yul\":24502:24574   */\n      tag_561\n      jump\t// in\n    tag_848:\n        /* \"#utility.yul\":24249:24581   */\n      swap4\n      swap3\n      pop\n      pop\n      pop\n      jump\t// out\n        /* \"#utility.yul\":24587:24693   */\n    tag_606:\n        /* \"#utility.yul\":24631:24639   */\n      0x00\n        /* \"#utility.yul\":24680:24685   */\n      dup2\n        /* \"#utility.yul\":24675:24678   */\n      0xe0\n        /* \"#utility.yul\":24671:24686   */\n      shr\n        /* \"#utility.yul\":24650:24686   */\n      swap1\n      pop\n        /* \"#utility.yul\":24587:24693   */\n      swap2\n      swap1\n      pop\n      jump\t// out\n        /* \"#utility.yul\":24699:24882   */\n    tag_385:\n        /* \"#utility.yul\":24734:24737   */\n      0x00\n        /* \"#utility.yul\":24772:24773   */\n      0x03\n        /* \"#utility.yul\":24754:24770   */\n      returndatasize\n        /* \"#utility.yul\":24751:24774   */\n      gt\n        /* \"#utility.yul\":24748:24876   */\n      iszero\n      tag_851\n      jumpi\n        /* \"#utility.yul\":24810:24811   */\n      0x04\n        /* \"#utility.yul\":24807:24808   */\n      0x00\n        /* \"#utility.yul\":24804:24805   */\n      dup1\n        /* \"#utility.yul\":24789:24812   */\n      returndatacopy\n        /* \"#utility.yul\":24832:24866   */\n      tag_852\n        /* \"#utility.yul\":24863:24864   */\n      0x00\n        /* \"#utility.yul\":24857:24865   */\n      mload\n        /* \"#utility.yul\":24832:24866   */\n      tag_606\n      jump\t// in\n    tag_852:\n        /* \"#utility.yul\":24825:24866   */\n      swap1\n      pop\n        /* \"#utility.yul\":24748:24876   */\n    tag_851:\n        /* \"#utility.yul\":24699:24882   */\n      swap1\n      jump\t// out\n        /* \"#utility.yul\":24888:25068   */\n    tag_441:\n        /* \"#utility.yul\":24936:25013   */\n      0x4e487b7100000000000000000000000000000000000000000000000000000000\n        /* \"#utility.yul\":24933:24934   */\n      0x00\n        /* \"#utility.yul\":24926:25014   */\n      mstore\n        /* \"#utility.yul\":25033:25037   */\n      0x41\n        /* \"#utility.yul\":25030:25031   */\n      0x04\n        /* \"#utility.yul\":25023:25038   */\n      mstore\n        /* \"#utility.yul\":25057:25061   */\n      0x24\n        /* \"#utility.yul\":25054:25055   */\n      0x00\n        /* \"#utility.yul\":25047:25062   */\n      revert\n        /* \"#utility.yul\":25074:25355   */\n    tag_607:\n        /* \"#utility.yul\":25157:25184   */\n      tag_855\n        /* \"#utility.yul\":25179:25183   */\n      dup3\n        /* \"#utility.yul\":25157:25184   */\n      tag_584\n      jump\t// in\n    tag_855:\n        /* \"#utility.yul\":25149:25155   */\n      dup2\n        /* \"#utility.yul\":25145:25185   */\n      add\n        /* \"#utility.yul\":25287:25293   */\n      dup2\n        /* \"#utility.yul\":25275:25285   */\n      dup2\n        /* \"#utility.yul\":25272:25294   */\n      lt\n        /* \"#utility.yul\":25251:25269   */\n      0xffffffffffffffff\n        /* \"#utility.yul\":25239:25249   */\n      dup3\n        /* \"#utility.yul\":25236:25270   */\n      gt\n        /* \"#utility.yul\":25233:25295   */\n      or\n        /* \"#utility.yul\":25230:25318   */\n      iszero\n      tag_856\n      jumpi\n        /* \"#utility.yul\":25298:25316   */\n      tag_857\n      tag_441\n      jump\t// in\n    tag_857:\n        /* \"#utility.yul\":25230:25318   */\n    tag_856:\n        /* \"#utility.yul\":25338:25348   */\n      dup1\n        /* \"#utility.yul\":25334:25336   */\n      0x40\n        /* \"#utility.yul\":25327:25349   */\n      mstore\n        /* \"#utility.yul\":25117:25355   */\n      pop\n        /* \"#utility.yul\":25074:25355   */\n      pop\n      pop\n      jump\t// out\n        /* \"#utility.yul\":25361:26072   */\n    tag_387:\n        /* \"#utility.yul\":25400:25403   */\n      0x00\n        /* \"#utility.yul\":25438:25442   */\n      0x44\n        /* \"#utility.yul\":25420:25436   */\n      returndatasize\n        /* \"#utility.yul\":25417:25443   */\n      lt\n        /* \"#utility.yul\":25446:25451   */\n      tag_858\n        /* \"#utility.yul\":25414:25453   */\n      jumpi\n        /* \"#utility.yul\":25475:25495   */\n      tag_860\n      tag_551\n      jump\t// in\n    tag_860:\n        /* \"#utility.yul\":25550:25551   */\n      0x04\n        /* \"#utility.yul\":25532:25548   */\n      returndatasize\n        /* \"#utility.yul\":25528:25552   */\n      sub\n        /* \"#utility.yul\":25525:25526   */\n      0x04\n        /* \"#utility.yul\":25519:25523   */\n      dup3\n        /* \"#utility.yul\":25504:25553   */\n      returndatacopy\n        /* \"#utility.yul\":25583:25587   */\n      dup1\n        /* \"#utility.yul\":25577:25588   */\n      mload\n        /* \"#utility.yul\":25682:25698   */\n      returndatasize\n        /* \"#utility.yul\":25675:25679   */\n      0x24\n        /* \"#utility.yul\":25667:25673   */\n      dup3\n        /* \"#utility.yul\":25663:25680   */\n      add\n        /* \"#utility.yul\":25660:25699   */\n      gt\n        /* \"#utility.yul\":25627:25645   */\n      0xffffffffffffffff\n        /* \"#utility.yul\":25619:25625   */\n      dup3\n        /* \"#utility.yul\":25616:25646   */\n      gt\n        /* \"#utility.yul\":25600:25713   */\n      or\n        /* \"#utility.yul\":25597:25743   */\n      iszero\n      tag_861\n      jumpi\n        /* \"#utility.yul\":25728:25733   */\n      pop\n      pop\n      jump(tag_858)\n        /* \"#utility.yul\":25597:25743   */\n    tag_861:\n        /* \"#utility.yul\":25774:25780   */\n      dup1\n        /* \"#utility.yul\":25768:25772   */\n      dup3\n        /* \"#utility.yul\":25764:25781   */\n      add\n        /* \"#utility.yul\":25810:25813   */\n      dup1\n        /* \"#utility.yul\":25804:25814   */\n      mload\n        /* \"#utility.yul\":25837:25855   */\n      0xffffffffffffffff\n        /* \"#utility.yul\":25829:25835   */\n      dup2\n        /* \"#utility.yul\":25826:25856   */\n      gt\n        /* \"#utility.yul\":25823:25866   */\n      iszero\n      tag_862\n      jumpi\n        /* \"#utility.yul\":25859:25864   */\n      pop\n      pop\n      pop\n      pop\n      jump(tag_858)\n        /* \"#utility.yul\":25823:25866   */\n    tag_862:\n        /* \"#utility.yul\":25907:25913   */\n      dup1\n        /* \"#utility.yul\":25900:25904   */\n      0x20\n        /* \"#utility.yul\":25895:25898   */\n      dup4\n        /* \"#utility.yul\":25891:25905   */\n      add\n        /* \"#utility.yul\":25887:25914   */\n      add\n        /* \"#utility.yul\":25966:25967   */\n      0x04\n        /* \"#utility.yul\":25948:25964   */\n      returndatasize\n        /* \"#utility.yul\":25944:25968   */\n      sub\n        /* \"#utility.yul\":25938:25942   */\n      dup6\n        /* \"#utility.yul\":25934:25969   */\n      add\n        /* \"#utility.yul\":25929:25932   */\n      dup2\n        /* \"#utility.yul\":25926:25970   */\n      gt\n        /* \"#utility.yul\":25923:25980   */\n      iszero\n      tag_863\n      jumpi\n        /* \"#utility.yul\":25973:25978   */\n      pop\n      pop\n      pop\n      pop\n      pop\n      jump(tag_858)\n        /* \"#utility.yul\":25923:25980   */\n    tag_863:\n        /* \"#utility.yul\":25990:26047   */\n      tag_864\n        /* \"#utility.yul\":26038:26044   */\n      dup3\n        /* \"#utility.yul\":26032:26036   */\n      0x20\n        /* \"#utility.yul\":26028:26045   */\n      add\n        /* \"#utility.yul\":26020:26026   */\n      dup6\n        /* \"#utility.yul\":26016:26046   */\n      add\n        /* \"#utility.yul\":26010:26014   */\n      dup7\n        /* \"#utility.yul\":25990:26047   */\n      tag_607\n      jump\t// in\n    tag_864:\n        /* \"#utility.yul\":26063:26066   */\n      dup3\n        /* \"#utility.yul\":26056:26066   */\n      swap6\n      pop\n        /* \"#utility.yul\":25404:26072   */\n      pop\n      pop\n      pop\n      pop\n      pop\n        /* \"#utility.yul\":25361:26072   */\n    tag_858:\n      swap1\n      jump\t// out\n        /* \"#utility.yul\":26078:26239   */\n    tag_608:\n        /* \"#utility.yul\":26218:26231   */\n      0x6361746368204572726f72000000000000000000000000000000000000000000\n        /* \"#utility.yul\":26214:26215   */\n      0x00\n        /* \"#utility.yul\":26206:26212   */\n      dup3\n        /* \"#utility.yul\":26202:26216   */\n      add\n        /* \"#utility.yul\":26195:26232   */\n      mstore\n        /* \"#utility.yul\":26078:26239   */\n      pop\n      jump\t// out\n        /* \"#utility.yul\":26245:26611   */\n    tag_609:\n        /* \"#utility.yul\":26387:26390   */\n      0x00\n        /* \"#utility.yul\":26408:26475   */\n      tag_867\n        /* \"#utility.yul\":26472:26474   */\n      0x0b\n        /* \"#utility.yul\":26467:26470   */\n      dup4\n        /* \"#utility.yul\":26408:26475   */\n      tag_582\n      jump\t// in\n    tag_867:\n        /* \"#utility.yul\":26401:26475   */\n      swap2\n      pop\n        /* \"#utility.yul\":26484:26577   */\n      tag_868\n        /* \"#utility.yul\":26573:26576   */\n      dup3\n        /* \"#utility.yul\":26484:26577   */\n      tag_608\n      jump\t// in\n    tag_868:\n        /* \"#utility.yul\":26602:26604   */\n      0x20\n        /* \"#utility.yul\":26597:26600   */\n      dup3\n        /* \"#utility.yul\":26593:26605   */\n      add\n        /* \"#utility.yul\":26586:26605   */\n      swap1\n      pop\n        /* \"#utility.yul\":26245:26611   */\n      swap2\n      swap1\n      pop\n      jump\t// out\n        /* \"#utility.yul\":26617:27146   */\n    tag_398:\n        /* \"#utility.yul\":26811:26815   */\n      0x00\n        /* \"#utility.yul\":26849:26851   */\n      0x40\n        /* \"#utility.yul\":26838:26847   */\n      dup3\n        /* \"#utility.yul\":26834:26852   */\n      add\n        /* \"#utility.yul\":26826:26852   */\n      swap1\n      pop\n        /* \"#utility.yul\":26862:26933   */\n      tag_870\n        /* \"#utility.yul\":26930:26931   */\n      0x00\n        /* \"#utility.yul\":26919:26928   */\n      dup4\n        /* \"#utility.yul\":26915:26932   */\n      add\n        /* \"#utility.yul\":26906:26912   */\n      dup5\n        /* \"#utility.yul\":26862:26933   */\n      tag_561\n      jump\t// in\n    tag_870:\n        /* \"#utility.yul\":26980:26989   */\n      dup2\n        /* \"#utility.yul\":26974:26978   */\n      dup2\n        /* \"#utility.yul\":26970:26990   */\n      sub\n        /* \"#utility.yul\":26965:26967   */\n      0x20\n        /* \"#utility.yul\":26954:26963   */\n      dup4\n        /* \"#utility.yul\":26950:26968   */\n      add\n        /* \"#utility.yul\":26943:26991   */\n      mstore\n        /* \"#utility.yul\":27008:27139   */\n      tag_871\n        /* \"#utility.yul\":27134:27138   */\n      dup2\n        /* \"#utility.yul\":27008:27139   */\n      tag_609\n      jump\t// in\n    tag_871:\n        /* \"#utility.yul\":27000:27139   */\n      swap1\n      pop\n        /* \"#utility.yul\":26617:27146   */\n      swap3\n      swap2\n      pop\n      pop\n      jump\t// out\n        /* \"#utility.yul\":27152:27317   */\n    tag_610:\n        /* \"#utility.yul\":27292:27309   */\n      0x7472616e73666572537563636573730000000000000000000000000000000000\n        /* \"#utility.yul\":27288:27289   */\n      0x00\n        /* \"#utility.yul\":27280:27286   */\n      dup3\n        /* \"#utility.yul\":27276:27290   */\n      add\n        /* \"#utility.yul\":27269:27310   */\n      mstore\n        /* \"#utility.yul\":27152:27317   */\n      pop\n      jump\t// out\n        /* \"#utility.yul\":27323:27689   */\n    tag_611:\n        /* \"#utility.yul\":27465:27468   */\n      0x00\n        /* \"#utility.yul\":27486:27553   */\n      tag_874\n        /* \"#utility.yul\":27550:27552   */\n      0x0f\n        /* \"#utility.yul\":27545:27548   */\n      dup4\n        /* \"#utility.yul\":27486:27553   */\n      tag_582\n      jump\t// in\n    tag_874:\n        /* \"#utility.yul\":27479:27553   */\n      swap2\n      pop\n        /* \"#utility.yul\":27562:27655   */\n      tag_875\n        /* \"#utility.yul\":27651:27654   */\n      dup3\n        /* \"#utility.yul\":27562:27655   */\n      tag_610\n      jump\t// in\n    tag_875:\n        /* \"#utility.yul\":27680:27682   */\n      0x20\n        /* \"#utility.yul\":27675:27678   */\n      dup3\n        /* \"#utility.yul\":27671:27683   */\n      add\n        /* \"#utility.yul\":27664:27683   */\n      swap1\n      pop\n        /* \"#utility.yul\":27323:27689   */\n      swap2\n      swap1\n      pop\n      jump\t// out\n        /* \"#utility.yul\":27695:28224   */\n    tag_406:\n        /* \"#utility.yul\":27889:27893   */\n      0x00\n        /* \"#utility.yul\":27927:27929   */\n      0x40\n        /* \"#utility.yul\":27916:27925   */\n      dup3\n        /* \"#utility.yul\":27912:27930   */\n      add\n        /* \"#utility.yul\":27904:27930   */\n      swap1\n      pop\n        /* \"#utility.yul\":27940:28011   */\n      tag_877\n        /* \"#utility.yul\":28008:28009   */\n      0x00\n        /* \"#utility.yul\":27997:28006   */\n      dup4\n        /* \"#utility.yul\":27993:28010   */\n      add\n        /* \"#utility.yul\":27984:27990   */\n      dup5\n        /* \"#utility.yul\":27940:28011   */\n      tag_561\n      jump\t// in\n    tag_877:\n        /* \"#utility.yul\":28058:28067   */\n      dup2\n        /* \"#utility.yul\":28052:28056   */\n      dup2\n        /* \"#utility.yul\":28048:28068   */\n      sub\n        /* \"#utility.yul\":28043:28045   */\n      0x20\n        /* \"#utility.yul\":28032:28041   */\n      dup4\n        /* \"#utility.yul\":28028:28046   */\n      add\n        /* \"#utility.yul\":28021:28069   */\n      mstore\n        /* \"#utility.yul\":28086:28217   */\n      tag_878\n        /* \"#utility.yul\":28212:28216   */\n      dup2\n        /* \"#utility.yul\":28086:28217   */\n      tag_611\n      jump\t// in\n    tag_878:\n        /* \"#utility.yul\":28078:28217   */\n      swap1\n      pop\n        /* \"#utility.yul\":27695:28224   */\n      swap3\n      swap2\n      pop\n      pop\n      jump\t// out\n        /* \"#utility.yul\":28230:28385   */\n    tag_612:\n        /* \"#utility.yul\":28370:28377   */\n      0x6f76657220000000000000000000000000000000000000000000000000000000\n        /* \"#utility.yul\":28366:28367   */\n      0x00\n        /* \"#utility.yul\":28358:28364   */\n      dup3\n        /* \"#utility.yul\":28354:28368   */\n      add\n        /* \"#utility.yul\":28347:28378   */\n      mstore\n        /* \"#utility.yul\":28230:28385   */\n      pop\n      jump\t// out\n        /* \"#utility.yul\":28391:28756   */\n    tag_613:\n        /* \"#utility.yul\":28533:28536   */\n      0x00\n        /* \"#utility.yul\":28554:28620   */\n      tag_881\n        /* \"#utility.yul\":28618:28619   */\n      0x05\n        /* \"#utility.yul\":28613:28616   */\n      dup4\n        /* \"#utility.yul\":28554:28620   */\n      tag_582\n      jump\t// in\n    tag_881:\n        /* \"#utility.yul\":28547:28620   */\n      swap2\n      pop\n        /* \"#utility.yul\":28629:28722   */\n      tag_882\n        /* \"#utility.yul\":28718:28721   */\n      dup3\n        /* \"#utility.yul\":28629:28722   */\n      tag_612\n      jump\t// in\n    tag_882:\n        /* \"#utility.yul\":28747:28749   */\n      0x20\n        /* \"#utility.yul\":28742:28745   */\n      dup3\n        /* \"#utility.yul\":28738:28750   */\n      add\n        /* \"#utility.yul\":28731:28750   */\n      swap1\n      pop\n        /* \"#utility.yul\":28391:28756   */\n      swap2\n      swap1\n      pop\n      jump\t// out\n        /* \"#utility.yul\":28762:29291   */\n    tag_410:\n        /* \"#utility.yul\":28956:28960   */\n      0x00\n        /* \"#utility.yul\":28994:28996   */\n      0x40\n        /* \"#utility.yul\":28983:28992   */\n      dup3\n        /* \"#utility.yul\":28979:28997   */\n      add\n        /* \"#utility.yul\":28971:28997   */\n      swap1\n      pop\n        /* \"#utility.yul\":29007:29078   */\n      tag_884\n        /* \"#utility.yul\":29075:29076   */\n      0x00\n        /* \"#utility.yul\":29064:29073   */\n      dup4\n        /* \"#utility.yul\":29060:29077   */\n      add\n        /* \"#utility.yul\":29051:29057   */\n      dup5\n        /* \"#utility.yul\":29007:29078   */\n      tag_561\n      jump\t// in\n    tag_884:\n        /* \"#utility.yul\":29125:29134   */\n      dup2\n        /* \"#utility.yul\":29119:29123   */\n      dup2\n        /* \"#utility.yul\":29115:29135   */\n      sub\n        /* \"#utility.yul\":29110:29112   */\n      0x20\n        /* \"#utility.yul\":29099:29108   */\n      dup4\n        /* \"#utility.yul\":29095:29113   */\n      add\n        /* \"#utility.yul\":29088:29136   */\n      mstore\n        /* \"#utility.yul\":29153:29284   */\n      tag_885\n        /* \"#utility.yul\":29279:29283   */\n      dup2\n        /* \"#utility.yul\":29153:29284   */\n      tag_613\n      jump\t// in\n    tag_885:\n        /* \"#utility.yul\":29145:29284   */\n      swap1\n      pop\n        /* \"#utility.yul\":28762:29291   */\n      swap3\n      swap2\n      pop\n      pop\n      jump\t// out\n        /* \"#utility.yul\":29297:29471   */\n    tag_614:\n        /* \"#utility.yul\":29437:29463   */\n      0x537461727420696e646578206f7574206f662072616e67650000000000000000\n        /* \"#utility.yul\":29433:29434   */\n      0x00\n        /* \"#utility.yul\":29425:29431   */\n      dup3\n        /* \"#utility.yul\":29421:29435   */\n      add\n        /* \"#utility.yul\":29414:29464   */\n      mstore\n        /* \"#utility.yul\":29297:29471   */\n      pop\n      jump\t// out\n        /* \"#utility.yul\":29477:29843   */\n    tag_615:\n        /* \"#utility.yul\":29619:29622   */\n      0x00\n        /* \"#utility.yul\":29640:29707   */\n      tag_888\n        /* \"#utility.yul\":29704:29706   */\n      0x18\n        /* \"#utility.yul\":29699:29702   */\n      dup4\n        /* \"#utility.yul\":29640:29707   */\n      tag_582\n      jump\t// in\n    tag_888:\n        /* \"#utility.yul\":29633:29707   */\n      swap2\n      pop\n        /* \"#utility.yul\":29716:29809   */\n      tag_889\n        /* \"#utility.yul\":29805:29808   */\n      dup3\n        /* \"#utility.yul\":29716:29809   */\n      tag_614\n      jump\t// in\n    tag_889:\n        /* \"#utility.yul\":29834:29836   */\n      0x20\n        /* \"#utility.yul\":29829:29832   */\n      dup3\n        /* \"#utility.yul\":29825:29837   */\n      add\n        /* \"#utility.yul\":29818:29837   */\n      swap1\n      pop\n        /* \"#utility.yul\":29477:29843   */\n      swap2\n      swap1\n      pop\n      jump\t// out\n        /* \"#utility.yul\":29849:30268   */\n    tag_436:\n        /* \"#utility.yul\":30015:30019   */\n      0x00\n        /* \"#utility.yul\":30053:30055   */\n      0x20\n        /* \"#utility.yul\":30042:30051   */\n      dup3\n        /* \"#utility.yul\":30038:30056   */\n      add\n        /* \"#utility.yul\":30030:30056   */\n      swap1\n      pop\n        /* \"#utility.yul\":30102:30111   */\n      dup2\n        /* \"#utility.yul\":30096:30100   */\n      dup2\n        /* \"#utility.yul\":30092:30112   */\n      sub\n        /* \"#utility.yul\":30088:30089   */\n      0x00\n        /* \"#utility.yul\":30077:30086   */\n      dup4\n        /* \"#utility.yul\":30073:30090   */\n      add\n        /* \"#utility.yul\":30066:30113   */\n      mstore\n        /* \"#utility.yul\":30130:30261   */\n      tag_891\n        /* \"#utility.yul\":30256:30260   */\n      dup2\n        /* \"#utility.yul\":30130:30261   */\n      tag_615\n      jump\t// in\n    tag_891:\n        /* \"#utility.yul\":30122:30261   */\n      swap1\n      pop\n        /* \"#utility.yul\":29849:30268   */\n      swap2\n      swap1\n      pop\n      jump\t// out\n        /* \"#utility.yul\":30274:30468   */\n    tag_438:\n        /* \"#utility.yul\":30314:30318   */\n      0x00\n        /* \"#utility.yul\":30334:30354   */\n      tag_893\n        /* \"#utility.yul\":30352:30353   */\n      dup3\n        /* \"#utility.yul\":30334:30354   */\n      tag_554\n      jump\t// in\n    tag_893:\n        /* \"#utility.yul\":30329:30354   */\n      swap2\n      pop\n        /* \"#utility.yul\":30368:30388   */\n      tag_894\n        /* \"#utility.yul\":30386:30387   */\n      dup4\n        /* \"#utility.yul\":30368:30388   */\n      tag_554\n      jump\t// in\n    tag_894:\n        /* \"#utility.yul\":30363:30388   */\n      swap3\n      pop\n        /* \"#utility.yul\":30412:30413   */\n      dup3\n        /* \"#utility.yul\":30409:30410   */\n      dup3\n        /* \"#utility.yul\":30405:30414   */\n      sub\n        /* \"#utility.yul\":30397:30414   */\n      swap1\n      pop\n        /* \"#utility.yul\":30436:30437   */\n      dup2\n        /* \"#utility.yul\":30430:30434   */\n      dup2\n        /* \"#utility.yul\":30427:30438   */\n      gt\n        /* \"#utility.yul\":30424:30461   */\n      iszero\n      tag_895\n      jumpi\n        /* \"#utility.yul\":30441:30459   */\n      tag_896\n      tag_604\n      jump\t// in\n    tag_896:\n        /* \"#utility.yul\":30424:30461   */\n    tag_895:\n        /* \"#utility.yul\":30274:30468   */\n      swap3\n      swap2\n      pop\n      pop\n      jump\t// out\n        /* \"#utility.yul\":30474:30654   */\n    tag_616:\n        /* \"#utility.yul\":30522:30599   */\n      0x4e487b7100000000000000000000000000000000000000000000000000000000\n        /* \"#utility.yul\":30519:30520   */\n      0x00\n        /* \"#utility.yul\":30512:30600   */\n      mstore\n        /* \"#utility.yul\":30619:30623   */\n      0x22\n        /* \"#utility.yul\":30616:30617   */\n      0x04\n        /* \"#utility.yul\":30609:30624   */\n      mstore\n        /* \"#utility.yul\":30643:30647   */\n      0x24\n        /* \"#utility.yul\":30640:30641   */\n      0x00\n        /* \"#utility.yul\":30633:30648   */\n      revert\n        /* \"#utility.yul\":30660:30980   */\n    tag_511:\n        /* \"#utility.yul\":30704:30710   */\n      0x00\n        /* \"#utility.yul\":30741:30742   */\n      0x02\n        /* \"#utility.yul\":30735:30739   */\n      dup3\n        /* \"#utility.yul\":30731:30743   */\n      div\n        /* \"#utility.yul\":30721:30743   */\n      swap1\n      pop\n        /* \"#utility.yul\":30788:30789   */\n      0x01\n        /* \"#utility.yul\":30782:30786   */\n      dup3\n        /* \"#utility.yul\":30778:30790   */\n      and\n        /* \"#utility.yul\":30809:30827   */\n      dup1\n        /* \"#utility.yul\":30799:30880   */\n      tag_899\n      jumpi\n        /* \"#utility.yul\":30865:30869   */\n      0x7f\n        /* \"#utility.yul\":30857:30863   */\n      dup3\n        /* \"#utility.yul\":30853:30870   */\n      and\n        /* \"#utility.yul\":30843:30870   */\n      swap2\n      pop\n        /* \"#utility.yul\":30799:30880   */\n    tag_899:\n        /* \"#utility.yul\":30927:30929   */\n      0x20\n        /* \"#utility.yul\":30919:30925   */\n      dup3\n        /* \"#utility.yul\":30916:30930   */\n      lt\n        /* \"#utility.yul\":30896:30914   */\n      dup2\n        /* \"#utility.yul\":30893:30931   */\n      sub\n        /* \"#utility.yul\":30890:30974   */\n      tag_900\n      jumpi\n        /* \"#utility.yul\":30946:30964   */\n      tag_901\n      tag_616\n      jump\t// in\n    tag_901:\n        /* \"#utility.yul\":30890:30974   */\n    tag_900:\n        /* \"#utility.yul\":30711:30980   */\n      pop\n        /* \"#utility.yul\":30660:30980   */\n      swap2\n      swap1\n      pop\n      jump\t// out\n        /* \"#utility.yul\":30986:31127   */\n    tag_617:\n        /* \"#utility.yul\":31035:31039   */\n      0x00\n        /* \"#utility.yul\":31058:31061   */\n      dup2\n        /* \"#utility.yul\":31050:31061   */\n      swap1\n      pop\n        /* \"#utility.yul\":31081:31084   */\n      dup2\n        /* \"#utility.yul\":31078:31079   */\n      0x00\n        /* \"#utility.yul\":31071:31085   */\n      mstore\n        /* \"#utility.yul\":31115:31119   */\n      0x20\n        /* \"#utility.yul\":31112:31113   */\n      0x00\n        /* \"#utility.yul\":31102:31120   */\n      keccak256\n        /* \"#utility.yul\":31094:31120   */\n      swap1\n      pop\n        /* \"#utility.yul\":30986:31127   */\n      swap2\n      swap1\n      pop\n      jump\t// out\n        /* \"#utility.yul\":31133:31226   */\n    tag_618:\n        /* \"#utility.yul\":31170:31176   */\n      0x00\n        /* \"#utility.yul\":31217:31219   */\n      0x20\n        /* \"#utility.yul\":31212:31214   */\n      0x1f\n        /* \"#utility.yul\":31205:31210   */\n      dup4\n        /* \"#utility.yul\":31201:31215   */\n      add\n        /* \"#utility.yul\":31197:31220   */\n      div\n        /* \"#utility.yul\":31187:31220   */\n      swap1\n      pop\n        /* \"#utility.yul\":31133:31226   */\n      swap2\n      swap1\n      pop\n      jump\t// out\n        /* \"#utility.yul\":31232:31339   */\n    tag_619:\n        /* \"#utility.yul\":31276:31284   */\n      0x00\n        /* \"#utility.yul\":31326:31331   */\n      dup3\n        /* \"#utility.yul\":31320:31324   */\n      dup3\n        /* \"#utility.yul\":31316:31332   */\n      shl\n        /* \"#utility.yul\":31295:31332   */\n      swap1\n      pop\n        /* \"#utility.yul\":31232:31339   */\n      swap3\n      swap2\n      pop\n      pop\n      jump\t// out\n        /* \"#utility.yul\":31345:31738   */\n    tag_620:\n        /* \"#utility.yul\":31414:31420   */\n      0x00\n        /* \"#utility.yul\":31464:31465   */\n      0x08\n        /* \"#utility.yul\":31452:31462   */\n      dup4\n        /* \"#utility.yul\":31448:31466   */\n      mul\n        /* \"#utility.yul\":31487:31584   */\n      tag_906\n        /* \"#utility.yul\":31517:31583   */\n      0xffffffffffffffffffffffffffffffffffffffffffffffffffffffffffffffff\n        /* \"#utility.yul\":31506:31515   */\n      dup3\n        /* \"#utility.yul\":31487:31584   */\n      tag_619\n      jump\t// in\n    tag_906:\n        /* \"#utility.yul\":31605:31644   */\n      tag_907\n        /* \"#utility.yul\":31635:31643   */\n      dup7\n        /* \"#utility.yul\":31624:31633   */\n      dup4\n        /* \"#utility.yul\":31605:31644   */\n      tag_619\n      jump\t// in\n    tag_907:\n        /* \"#utility.yul\":31593:31644   */\n      swap6\n      pop\n        /* \"#utility.yul\":31677:31681   */\n      dup1\n        /* \"#utility.yul\":31673:31682   */\n      not\n        /* \"#utility.yul\":31666:31671   */\n      dup5\n        /* \"#utility.yul\":31662:31683   */\n      and\n        /* \"#utility.yul\":31653:31683   */\n      swap4\n      pop\n        /* \"#utility.yul\":31726:31730   */\n      dup1\n        /* \"#utility.yul\":31716:31724   */\n      dup7\n        /* \"#utility.yul\":31712:31731   */\n      and\n        /* \"#utility.yul\":31705:31710   */\n      dup5\n        /* \"#utility.yul\":31702:31732   */\n      or\n        /* \"#utility.yul\":31692:31732   */\n      swap3\n      pop\n        /* \"#utility.yul\":31421:31738   */\n      pop\n      pop\n        /* \"#utility.yul\":31345:31738   */\n      swap4\n      swap3\n      pop\n      pop\n      pop\n      jump\t// out\n        /* \"#utility.yul\":31744:31804   */\n    tag_621:\n        /* \"#utility.yul\":31772:31775   */\n      0x00\n        /* \"#utility.yul\":31793:31798   */\n      dup2\n        /* \"#utility.yul\":31786:31798   */\n      swap1\n      pop\n        /* \"#utility.yul\":31744:31804   */\n      swap2\n      swap1\n      pop\n      jump\t// out\n        /* \"#utility.yul\":31810:31952   */\n    tag_622:\n        /* \"#utility.yul\":31860:31869   */\n      0x00\n        /* \"#utility.yul\":31893:31946   */\n      tag_910\n        /* \"#utility.yul\":31911:31945   */\n      tag_911\n        /* \"#utility.yul\":31920:31944   */\n      tag_912\n        /* \"#utility.yul\":31938:31943   */\n      dup5\n        /* \"#utility.yul\":31920:31944   */\n      tag_554\n      jump\t// in\n    tag_912:\n        /* \"#utility.yul\":31911:31945   */\n      tag_621\n      jump\t// in\n    tag_911:\n        /* \"#utility.yul\":31893:31946   */\n      tag_554\n      jump\t// in\n    tag_910:\n        /* \"#utility.yul\":31880:31946   */\n      swap1\n      pop\n        /* \"#utility.yul\":31810:31952   */\n      swap2\n      swap1\n      pop\n      jump\t// out\n        /* \"#utility.yul\":31958:32033   */\n    tag_623:\n        /* \"#utility.yul\":32001:32004   */\n      0x00\n        /* \"#utility.yul\":32022:32027   */\n      dup2\n        /* \"#utility.yul\":32015:32027   */\n      swap1\n      pop\n        /* \"#utility.yul\":31958:32033   */\n      swap2\n      swap1\n      pop\n      jump\t// out\n        /* \"#utility.yul\":32039:32308   */\n    tag_624:\n        /* \"#utility.yul\":32149:32188   */\n      tag_915\n        /* \"#utility.yul\":32180:32187   */\n      dup4\n        /* \"#utility.yul\":32149:32188   */\n      tag_622\n      jump\t// in\n    tag_915:\n        /* \"#utility.yul\":32210:32301   */\n      tag_916\n        /* \"#utility.yul\":32259:32300   */\n      tag_917\n        /* \"#utility.yul\":32283:32299   */\n      dup3\n        /* \"#utility.yul\":32259:32300   */\n      tag_623\n      jump\t// in\n    tag_917:\n        /* \"#utility.yul\":32251:32257   */\n      dup5\n        /* \"#utility.yul\":32244:32248   */\n      dup5\n        /* \"#utility.yul\":32238:32249   */\n      sload\n        /* \"#utility.yul\":32210:32301   */\n      tag_620\n      jump\t// in\n    tag_916:\n        /* \"#utility.yul\":32204:32208   */\n      dup3\n        /* \"#utility.yul\":32197:32302   */\n      sstore\n        /* \"#utility.yul\":32115:32308   */\n      pop\n        /* \"#utility.yul\":32039:32308   */\n      pop\n      pop\n      pop\n      jump\t// out\n        /* \"#utility.yul\":32314:32387   */\n    tag_625:\n        /* \"#utility.yul\":32359:32362   */\n      0x00\n        /* \"#utility.yul\":32314:32387   */\n      swap1\n      jump\t// out\n        /* \"#utility.yul\":32393:32582   */\n    tag_626:\n        /* \"#utility.yul\":32470:32502   */\n      tag_920\n      tag_625\n      jump\t// in\n    tag_920:\n        /* \"#utility.yul\":32511:32576   */\n      tag_921\n        /* \"#utility.yul\":32569:32575   */\n      dup2\n        /* \"#utility.yul\":32561:32567   */\n      dup5\n        /* \"#utility.yul\":32555:32559   */\n      dup5\n        /* \"#utility.yul\":32511:32576   */\n      tag_624\n      jump\t// in\n    tag_921:\n        /* \"#utility.yul\":32446:32582   */\n      pop\n        /* \"#utility.yul\":32393:32582   */\n      pop\n      pop\n      jump\t// out\n        /* \"#utility.yul\":32588:32774   */\n    tag_627:\n        /* \"#utility.yul\":32648:32768   */\n    tag_923:\n        /* \"#utility.yul\":32665:32668   */\n      dup2\n        /* \"#utility.yul\":32658:32663   */\n      dup2\n        /* \"#utility.yul\":32655:32669   */\n      lt\n        /* \"#utility.yul\":32648:32768   */\n      iszero\n      tag_925\n      jumpi\n        /* \"#utility.yul\":32719:32758   */\n      tag_926\n        /* \"#utility.yul\":32756:32757   */\n      0x00\n        /* \"#utility.yul\":32749:32754   */\n      dup3\n        /* \"#utility.yul\":32719:32758   */\n      tag_626\n      jump\t// in\n    tag_926:\n        /* \"#utility.yul\":32692:32693   */\n      0x01\n        /* \"#utility.yul\":32685:32690   */\n      dup2\n        /* \"#utility.yul\":32681:32694   */\n      add\n        /* \"#utility.yul\":32672:32694   */\n      swap1\n      pop\n        /* \"#utility.yul\":32648:32768   */\n      jump(tag_923)\n    tag_925:\n        /* \"#utility.yul\":32588:32774   */\n      pop\n      pop\n      jump\t// out\n        /* \"#utility.yul\":32780:33323   */\n    tag_628:\n        /* \"#utility.yul\":32881:32883   */\n      0x1f\n        /* \"#utility.yul\":32876:32879   */\n      dup3\n        /* \"#utility.yul\":32873:32884   */\n      gt\n        /* \"#utility.yul\":32870:33316   */\n      iszero\n      tag_928\n      jumpi\n        /* \"#utility.yul\":32915:32953   */\n      tag_929\n        /* \"#utility.yul\":32947:32952   */\n      dup2\n        /* \"#utility.yul\":32915:32953   */\n      tag_617\n      jump\t// in\n    tag_929:\n        /* \"#utility.yul\":32999:33028   */\n      tag_930\n        /* \"#utility.yul\":33017:33027   */\n      dup5\n        /* \"#utility.yul\":32999:33028   */\n      tag_618\n      jump\t// in\n    tag_930:\n        /* \"#utility.yul\":32989:32997   */\n      dup2\n        /* \"#utility.yul\":32985:33029   */\n      add\n        /* \"#utility.yul\":33182:33184   */\n      0x20\n        /* \"#utility.yul\":33170:33180   */\n      dup6\n        /* \"#utility.yul\":33167:33185   */\n      lt\n        /* \"#utility.yul\":33164:33213   */\n      iszero\n      tag_931\n      jumpi\n        /* \"#utility.yul\":33203:33211   */\n      dup2\n        /* \"#utility.yul\":33188:33211   */\n      swap1\n      pop\n        /* \"#utility.yul\":33164:33213   */\n    tag_931:\n        /* \"#utility.yul\":33226:33306   */\n      tag_932\n        /* \"#utility.yul\":33282:33304   */\n      tag_933\n        /* \"#utility.yul\":33300:33303   */\n      dup6\n        /* \"#utility.yul\":33282:33304   */\n      tag_618\n      jump\t// in\n    tag_933:\n        /* \"#utility.yul\":33272:33280   */\n      dup4\n        /* \"#utility.yul\":33268:33305   */\n      add\n        /* \"#utility.yul\":33255:33266   */\n      dup3\n        /* \"#utility.yul\":33226:33306   */\n      tag_627\n      jump\t// in\n    tag_932:\n        /* \"#utility.yul\":32885:33316   */\n      pop\n      pop\n        /* \"#utility.yul\":32870:33316   */\n    tag_928:\n        /* \"#utility.yul\":32780:33323   */\n      pop\n      pop\n      pop\n      jump\t// out\n        /* \"#utility.yul\":33329:33446   */\n    tag_629:\n        /* \"#utility.yul\":33383:33391   */\n      0x00\n        /* \"#utility.yul\":33433:33438   */\n      dup3\n        /* \"#utility.yul\":33427:33431   */\n      dup3\n        /* \"#utility.yul\":33423:33439   */\n      shr\n        /* \"#utility.yul\":33402:33439   */\n      swap1\n      pop\n        /* \"#utility.yul\":33329:33446   */\n      swap3\n      swap2\n      pop\n      pop\n      jump\t// out\n        /* \"#utility.yul\":33452:33621   */\n    tag_630:\n        /* \"#utility.yul\":33496:33502   */\n      0x00\n        /* \"#utility.yul\":33529:33580   */\n      tag_936\n        /* \"#utility.yul\":33577:33578   */\n      0x00\n        /* \"#utility.yul\":33573:33579   */\n      not\n        /* \"#utility.yul\":33565:33570   */\n      dup5\n        /* \"#utility.yul\":33562:33563   */\n      0x08\n        /* \"#utility.yul\":33558:33571   */\n      mul\n        /* \"#utility.yul\":33529:33580   */\n      tag_629\n      jump\t// in\n    tag_936:\n        /* \"#utility.yul\":33525:33581   */\n      not\n        /* \"#utility.yul\":33610:33614   */\n      dup1\n        /* \"#utility.yul\":33604:33608   */\n      dup4\n        /* \"#utility.yul\":33600:33615   */\n      and\n        /* \"#utility.yul\":33590:33615   */\n      swap2\n      pop\n        /* \"#utility.yul\":33503:33621   */\n      pop\n        /* \"#utility.yul\":33452:33621   */\n      swap3\n      swap2\n      pop\n      pop\n      jump\t// out\n        /* \"#utility.yul\":33626:33921   */\n    tag_631:\n        /* \"#utility.yul\":33702:33706   */\n      0x00\n        /* \"#utility.yul\":33848:33877   */\n      tag_938\n        /* \"#utility.yul\":33873:33876   */\n      dup4\n        /* \"#utility.yul\":33867:33871   */\n      dup4\n        /* \"#utility.yul\":33848:33877   */\n      tag_630\n      jump\t// in\n    tag_938:\n        /* \"#utility.yul\":33840:33877   */\n      swap2\n      pop\n        /* \"#utility.yul\":33910:33913   */\n      dup3\n        /* \"#utility.yul\":33907:33908   */\n      0x02\n        /* \"#utility.yul\":33903:33914   */\n      mul\n        /* \"#utility.yul\":33897:33901   */\n      dup3\n        /* \"#utility.yul\":33894:33915   */\n      or\n        /* \"#utility.yul\":33886:33915   */\n      swap1\n      pop\n        /* \"#utility.yul\":33626:33921   */\n      swap3\n      swap2\n      pop\n      pop\n      jump\t// out\n        /* \"#utility.yul\":33926:35321   */\n    tag_490:\n        /* \"#utility.yul\":34043:34080   */\n      tag_940\n        /* \"#utility.yul\":34076:34079   */\n      dup3\n        /* \"#utility.yul\":34043:34080   */\n      tag_581\n      jump\t// in\n    tag_940:\n        /* \"#utility.yul\":34145:34163   */\n      0xffffffffffffffff\n        /* \"#utility.yul\":34137:34143   */\n      dup2\n        /* \"#utility.yul\":34134:34164   */\n      gt\n        /* \"#utility.yul\":34131:34187   */\n      iszero\n      tag_941\n      jumpi\n        /* \"#utility.yul\":34167:34185   */\n      tag_942\n      tag_441\n      jump\t// in\n    tag_942:\n        /* \"#utility.yul\":34131:34187   */\n    tag_941:\n        /* \"#utility.yul\":34211:34249   */\n      tag_943\n        /* \"#utility.yul\":34243:34247   */\n      dup3\n        /* \"#utility.yul\":34237:34248   */\n      sload\n        /* \"#utility.yul\":34211:34249   */\n      tag_511\n      jump\t// in\n    tag_943:\n        /* \"#utility.yul\":34296:34363   */\n      tag_944\n        /* \"#utility.yul\":34356:34362   */\n      dup3\n        /* \"#utility.yul\":34348:34354   */\n      dup3\n        /* \"#utility.yul\":34342:34346   */\n      dup6\n        /* \"#utility.yul\":34296:34363   */\n      tag_628\n      jump\t// in\n    tag_944:\n        /* \"#utility.yul\":34390:34391   */\n      0x00\n        /* \"#utility.yul\":34414:34418   */\n      0x20\n        /* \"#utility.yul\":34401:34418   */\n      swap1\n      pop\n        /* \"#utility.yul\":34446:34448   */\n      0x1f\n        /* \"#utility.yul\":34438:34444   */\n      dup4\n        /* \"#utility.yul\":34435:34449   */\n      gt\n        /* \"#utility.yul\":34463:34464   */\n      0x01\n        /* \"#utility.yul\":34458:35076   */\n      dup2\n      eq\n      tag_946\n      jumpi\n        /* \"#utility.yul\":35120:35121   */\n      0x00\n        /* \"#utility.yul\":35137:35143   */\n      dup5\n        /* \"#utility.yul\":35134:35211   */\n      iszero\n      tag_947\n      jumpi\n        /* \"#utility.yul\":35186:35195   */\n      dup3\n        /* \"#utility.yul\":35181:35184   */\n      dup8\n        /* \"#utility.yul\":35177:35196   */\n      add\n        /* \"#utility.yul\":35171:35197   */\n      mload\n        /* \"#utility.yul\":35162:35197   */\n      swap1\n      pop\n        /* \"#utility.yul\":35134:35211   */\n    tag_947:\n        /* \"#utility.yul\":35237:35304   */\n      tag_948\n        /* \"#utility.yul\":35297:35303   */\n      dup6\n        /* \"#utility.yul\":35290:35295   */\n      dup3\n        /* \"#utility.yul\":35237:35304   */\n      tag_631\n      jump\t// in\n    tag_948:\n        /* \"#utility.yul\":35231:35235   */\n      dup7\n        /* \"#utility.yul\":35224:35305   */\n      sstore\n        /* \"#utility.yul\":35093:35315   */\n      pop\n        /* \"#utility.yul\":34428:35315   */\n      jump(tag_945)\n        /* \"#utility.yul\":34458:35076   */\n    tag_946:\n        /* \"#utility.yul\":34510:34514   */\n      0x1f\n        /* \"#utility.yul\":34506:34515   */\n      not\n        /* \"#utility.yul\":34498:34504   */\n      dup5\n        /* \"#utility.yul\":34494:34516   */\n      and\n        /* \"#utility.yul\":34544:34581   */\n      tag_949\n        /* \"#utility.yul\":34576:34580   */\n      dup7\n        /* \"#utility.yul\":34544:34581   */\n      tag_617\n      jump\t// in\n    tag_949:\n        /* \"#utility.yul\":34603:34604   */\n      0x00\n        /* \"#utility.yul\":34617:34825   */\n    tag_950:\n        /* \"#utility.yul\":34631:34638   */\n      dup3\n        /* \"#utility.yul\":34628:34629   */\n      dup2\n        /* \"#utility.yul\":34625:34639   */\n      lt\n        /* \"#utility.yul\":34617:34825   */\n      iszero\n      tag_952\n      jumpi\n        /* \"#utility.yul\":34710:34719   */\n      dup5\n        /* \"#utility.yul\":34705:34708   */\n      dup10\n        /* \"#utility.yul\":34701:34720   */\n      add\n        /* \"#utility.yul\":34695:34721   */\n      mload\n        /* \"#utility.yul\":34687:34693   */\n      dup3\n        /* \"#utility.yul\":34680:34722   */\n      sstore\n        /* \"#utility.yul\":34761:34762   */\n      0x01\n        /* \"#utility.yul\":34753:34759   */\n      dup3\n        /* \"#utility.yul\":34749:34763   */\n      add\n        /* \"#utility.yul\":34739:34763   */\n      swap2\n      pop\n        /* \"#utility.yul\":34808:34810   */\n      0x20\n        /* \"#utility.yul\":34797:34806   */\n      dup6\n        /* \"#utility.yul\":34793:34811   */\n      add\n        /* \"#utility.yul\":34780:34811   */\n      swap5\n      pop\n        /* \"#utility.yul\":34654:34658   */\n      0x20\n        /* \"#utility.yul\":34651:34652   */\n      dup2\n        /* \"#utility.yul\":34647:34659   */\n      add\n        /* \"#utility.yul\":34642:34659   */\n      swap1\n      pop\n        /* \"#utility.yul\":34617:34825   */\n      jump(tag_950)\n    tag_952:\n        /* \"#utility.yul\":34853:34859   */\n      dup7\n        /* \"#utility.yul\":34844:34851   */\n      dup4\n        /* \"#utility.yul\":34841:34860   */\n      lt\n        /* \"#utility.yul\":34838:35017   */\n      iszero\n      tag_953\n      jumpi\n        /* \"#utility.yul\":34911:34920   */\n      dup5\n        /* \"#utility.yul\":34906:34909   */\n      dup10\n        /* \"#utility.yul\":34902:34921   */\n      add\n        /* \"#utility.yul\":34896:34922   */\n      mload\n        /* \"#utility.yul\":34954:35002   */\n      tag_954\n        /* \"#utility.yul\":34996:35000   */\n      0x1f\n        /* \"#utility.yul\":34988:34994   */\n      dup10\n        /* \"#utility.yul\":34984:35001   */\n      and\n        /* \"#utility.yul\":34973:34982   */\n      dup3\n        /* \"#utility.yul\":34954:35002   */\n      tag_630\n      jump\t// in\n    tag_954:\n        /* \"#utility.yul\":34946:34952   */\n      dup4\n        /* \"#utility.yul\":34939:35003   */\n      sstore\n        /* \"#utility.yul\":34861:35017   */\n      pop\n        /* \"#utility.yul\":34838:35017   */\n    tag_953:\n        /* \"#utility.yul\":35063:35064   */\n      0x01\n        /* \"#utility.yul\":35059:35060   */\n      0x02\n        /* \"#utility.yul\":35051:35057   */\n      dup9\n        /* \"#utility.yul\":35047:35061   */\n      mul\n        /* \"#utility.yul\":35043:35065   */\n      add\n        /* \"#utility.yul\":35037:35041   */\n      dup9\n        /* \"#utility.yul\":35030:35066   */\n      sstore\n        /* \"#utility.yul\":34465:35076   */\n      pop\n      pop\n      pop\n        /* \"#utility.yul\":34428:35315   */\n    tag_945:\n      pop\n        /* \"#utility.yul\":34018:35321   */\n      pop\n      pop\n      pop\n        /* \"#utility.yul\":33926:35321   */\n      pop\n      pop\n      jump\t// out\n        /* \"#utility.yul\":35327:35412   */\n    tag_632:\n        /* \"#utility.yul\":35372:35379   */\n      0x00\n        /* \"#utility.yul\":35401:35406   */\n      dup2\n        /* \"#utility.yul\":35390:35406   */\n      swap1\n      pop\n        /* \"#utility.yul\":35327:35412   */\n      swap2\n      swap1\n      pop\n      jump\t// out\n        /* \"#utility.yul\":35418:35519   */\n    tag_633:\n        /* \"#utility.yul\":35454:35461   */\n      0x00\n        /* \"#utility.yul\":35494:35512   */\n      0xffffffffffffffff\n        /* \"#utility.yul\":35487:35492   */\n      dup3\n        /* \"#utility.yul\":35483:35513   */\n      and\n        /* \"#utility.yul\":35472:35513   */\n      swap1\n      pop\n        /* \"#utility.yul\":35418:35519   */\n      swap2\n      swap1\n      pop\n      jump\t// out\n        /* \"#utility.yul\":35525:35681   */\n    tag_634:\n        /* \"#utility.yul\":35582:35591   */\n      0x00\n        /* \"#utility.yul\":35615:35675   */\n      tag_958\n        /* \"#utility.yul\":35632:35674   */\n      tag_959\n        /* \"#utility.yul\":35641:35673   */\n      tag_960\n        /* \"#utility.yul\":35667:35672   */\n      dup5\n        /* \"#utility.yul\":35641:35673   */\n      tag_632\n      jump\t// in\n    tag_960:\n        /* \"#utility.yul\":35632:35674   */\n      tag_621\n      jump\t// in\n    tag_959:\n        /* \"#utility.yul\":35615:35675   */\n      tag_633\n      jump\t// in\n    tag_958:\n        /* \"#utility.yul\":35602:35675   */\n      swap1\n      pop\n        /* \"#utility.yul\":35525:35681   */\n      swap2\n      swap1\n      pop\n      jump\t// out\n        /* \"#utility.yul\":35687:35832   */\n    tag_635:\n        /* \"#utility.yul\":35781:35825   */\n      tag_962\n        /* \"#utility.yul\":35819:35824   */\n      dup2\n        /* \"#utility.yul\":35781:35825   */\n      tag_634\n      jump\t// in\n    tag_962:\n        /* \"#utility.yul\":35776:35779   */\n      dup3\n        /* \"#utility.yul\":35769:35826   */\n      mstore\n        /* \"#utility.yul\":35687:35832   */\n      pop\n      pop\n      jump\t// out\n        /* \"#utility.yul\":35838:36074   */\n    tag_506:\n        /* \"#utility.yul\":35938:35942   */\n      0x00\n        /* \"#utility.yul\":35976:35978   */\n      0x20\n        /* \"#utility.yul\":35965:35974   */\n      dup3\n        /* \"#utility.yul\":35961:35979   */\n      add\n        /* \"#utility.yul\":35953:35979   */\n      swap1\n      pop\n        /* \"#utility.yul\":35989:36067   */\n      tag_964\n        /* \"#utility.yul\":36064:36065   */\n      0x00\n        /* \"#utility.yul\":36053:36062   */\n      dup4\n        /* \"#utility.yul\":36049:36066   */\n      add\n        /* \"#utility.yul\":36040:36046   */\n      dup5\n        /* \"#utility.yul\":35989:36067   */\n      tag_635\n      jump\t// in\n    tag_964:\n        /* \"#utility.yul\":35838:36074   */\n      swap3\n      swap2\n      pop\n      pop\n      jump\t// out\n\n    auxdata: 0xa2646970667358221220b84a6b6613230aba8002e986126d32daec2384226751f5afd83fae333250a9d864736f6c63430008180033\n}\n",
				"bytecode": {
					"linkReferences": {},
					"object": "60806040526001600a5f6101000a81548160ff0219169083151502179055506001600a60016101000a81548160ff021916908315150217905550348015610044575f80fd5b506148d8806100525f395ff3fe608060405234801561000f575f80fd5b50600436106103ac575f3560e01c80637429a176116101f2578063a5dc47d211610118578063d2240fb9116100ab578063f2c31bd91161007a578063f2c31bd914610b44578063f2fde38b14610b62578063f3ef99bc14610b7e578063fc1315b914610b9c576103ac565b8063d2240fb914610abc578063dd8158e014610ad8578063e53595ed14610b08578063e650d29314610b26576103ac565b8063b59c6e0e116100e7578063b59c6e0e14610a48578063bef4533c14610a66578063c298557814610a96578063c4d66de814610aa0576103ac565b8063a5dc47d2146109c0578063a6b14d5a146109f0578063ac0e5ed014610a0e578063b3c2eac114610a2c576103ac565b80638898870f116101905780639805fa741161015f5780639805fa741461090f5780639c83df3a1461093f5780639f6d464814610974578063a041e17214610990576103ac565b80638898870f146108615780638ace0d0c146108915780638da5cb5b146108c1578063907b2210146108df576103ac565b80637a1a959b116101cc5780637a1a959b146107eb5780637d4cbd5714610809578063853e03e514610825578063877bcb1614610843576103ac565b80637429a176146107835780637535b3e51461079f5780637929e29f146107bb576103ac565b806326e8397f116102d7578063460199b311610275578063711563d411610244578063711563d414610723578063715018a61461073f57806371ddda571461074957806372885c6414610767576103ac565b8063460199b31461069d5780636b8de0bf146106b95780636d37b382146106d75780636f663610146106f3576103ac565b80632c301b76116102b15780632c301b76146106265780632eae667d146106575780633375d043146106755780633ccfd60b14610693576103ac565b806326e8397f146105d057806328c4333e146105ec57806329d245aa14610608576103ac565b8063170f9fb41161034f5780631e9be42e1161031e5780631e9be42e146105385780631f54dbfe146105685780631fe03e6114610584578063264edc1d146105a0576103ac565b8063170f9fb4146104b057806318883877146104cc5780631896b2c4146104ea5780631e2a4d981461051a576103ac565b8063042737f61161038b578063042737f614610418578063049108c614610434578063115a972e1461045057806316c259e114610480576103ac565b80626cd200146103b05780630356c98f146103cc5780630397d458146103fc575b5f80fd5b6103ca60048036038101906103c5919061374d565b610bba565b005b6103e660048036038101906103e191906137d2565b610bcc565b6040516103f3919061380c565b60405180910390f35b610416600480360381019061041191906137d2565b610be1565b005b610432600480360381019061042d9190613825565b610c2c565b005b61044e600480360381019061044991906137d2565b610d00565b005b61046a600480360381019061046591906137d2565b610f5d565b60405161047791906138a3565b60405180910390f35b61049a600480360381019061049591906137d2565b610f7a565b6040516104a7919061380c565b60405180910390f35b6104ca60048036038101906104c591906137d2565b610f8f565b005b6104d4610fda565b6040516104e1919061380c565b60405180910390f35b61050460048036038101906104ff91906137d2565b610fe0565b604051610511919061380c565b60405180910390f35b610522610ff5565b60405161052f91906138cb565b60405180910390f35b610552600480360381019061054d91906137d2565b61101a565b60405161055f919061380c565b60405180910390f35b610582600480360381019061057d91906137d2565b61102f565b005b61059e600480360381019061059991906138e4565b61107a565b005b6105ba60048036038101906105b591906137d2565b6110c8565b6040516105c791906138cb565b60405180910390f35b6105ea60048036038101906105e591906137d2565b6110f8565b005b610606600480360381019061060191906137d2565b61134d565b005b610610611398565b60405161061d91906138cb565b60405180910390f35b610640600480360381019061063b919061374d565b6113bd565b60405161064e929190613922565b60405180910390f35b61065f6114ad565b60405161066c919061380c565b60405180910390f35b61067d6114b3565b60405161068a91906138cb565b60405180910390f35b61069b6114d8565b005b6106b760048036038101906106b291906137d2565b611526565b005b6106c1611571565b6040516106ce91906138cb565b60405180910390f35b6106f160048036038101906106ec91906137d2565b611596565b005b61070d600480360381019061070891906137d2565b6115e1565b60405161071a919061380c565b60405180910390f35b61073d60048036038101906107389190613949565b6115f6565b005b610747612291565b005b6107516122a4565b60405161075e91906138cb565b60405180910390f35b610781600480360381019061077c91906139ad565b6122c9565b005b61079d600480360381019061079891906138e4565b61252f565b005b6107b960048036038101906107b491906137d2565b61257d565b005b6107d560048036038101906107d091906137d2565b6125c7565b6040516107e2919061380c565b60405180910390f35b6107f36125dc565b60405161080091906138cb565b60405180910390f35b610823600480360381019061081e91906137d2565b612601565b005b61082d6126aa565b60405161083a919061380c565b60405180910390f35b61084b6126b0565b60405161085891906138cb565b60405180910390f35b61087b600480360381019061087691906137d2565b6126d5565b604051610888919061380c565b60405180910390f35b6108ab60048036038101906108a691906137d2565b6126ea565b6040516108b8919061380c565b60405180910390f35b6108c96126ff565b6040516108d691906138cb565b60405180910390f35b6108f960048036038101906108f4919061374d565b612734565b60405161090691906138cb565b60405180910390f35b610929600480360381019061092491906137d2565b61276f565b604051610936919061380c565b60405180910390f35b6109596004803603810190610954919061374d565b612784565b60405161096b96959493929190613bf4565b60405180910390f35b61098e600480360381019061098991906137d2565b612c85565b005b6109aa60048036038101906109a591906137d2565b612cd0565b6040516109b7919061380c565b60405180910390f35b6109da60048036038101906109d591906137d2565b612ce5565b6040516109e7919061380c565b60405180910390f35b6109f8612cfa565b604051610a05919061380c565b60405180910390f35b610a16612d00565b604051610a23919061380c565b60405180910390f35b610a466004803603810190610a419190613ca7565b612d06565b005b610a50612d45565b604051610a5d91906138cb565b60405180910390f35b610a806004803603810190610a7b91906137d2565b612d68565b604051610a8d919061380c565b60405180910390f35b610a9e612d7d565b005b610aba6004803603810190610ab591906137d2565b612dc4565b005b610ad66004803603810190610ad191906138e4565b6132ab565b005b610af26004803603810190610aed91906137d2565b6132f9565b604051610aff919061380c565b60405180910390f35b610b1061330e565b604051610b1d91906138cb565b60405180910390f35b610b2e613333565b604051610b3b91906138a3565b60405180910390f35b610b4c613346565b604051610b599190613d6f565b60405180910390f35b610b7c6004803603810190610b7791906137d2565b6133d2565b005b610b86613456565b604051610b9391906138a3565b60405180910390f35b610ba4613468565b604051610bb1919061380c565b60405180910390f35b610bc2613474565b8060098190555050565b6015602052805f5260405f205f915090505481565b610be9613474565b8060015f6101000a81548173ffffffffffffffffffffffffffffffffffffffff021916908373ffffffffffffffffffffffffffffffffffffffff16021790555050565b610c34613474565b82600f5f8673ffffffffffffffffffffffffffffffffffffffff1673ffffffffffffffffffffffffffffffffffffffff1681526020019081526020015f20819055508160105f8673ffffffffffffffffffffffffffffffffffffffff1673ffffffffffffffffffffffffffffffffffffffff1681526020019081526020015f20819055508060115f8673ffffffffffffffffffffffffffffffffffffffff1673ffffffffffffffffffffffffffffffffffffffff1681526020019081526020015f208190555050505050565b610d08613474565b5f600f5f8373ffffffffffffffffffffffffffffffffffffffff1673ffffffffffffffffffffffffffffffffffffffff1681526020019081526020015f20819055505f60105f8373ffffffffffffffffffffffffffffffffffffffff1673ffffffffffffffffffffffffffffffffffffffff1681526020019081526020015f20819055505f60115f8373ffffffffffffffffffffffffffffffffffffffff1673ffffffffffffffffffffffffffffffffffffffff1681526020019081526020015f20819055505f60125f8373ffffffffffffffffffffffffffffffffffffffff1673ffffffffffffffffffffffffffffffffffffffff1681526020019081526020015f20819055505f60135f8373ffffffffffffffffffffffffffffffffffffffff1673ffffffffffffffffffffffffffffffffffffffff1681526020019081526020015f20819055505f60145f8373ffffffffffffffffffffffffffffffffffffffff1673ffffffffffffffffffffffffffffffffffffffff1681526020019081526020015f20819055505f60165f8373ffffffffffffffffffffffffffffffffffffffff1673ffffffffffffffffffffffffffffffffffffffff1681526020019081526020015f20819055505f60155f8373ffffffffffffffffffffffffffffffffffffffff1673ffffffffffffffffffffffffffffffffffffffff1681526020019081526020015f20819055505f60185f8373ffffffffffffffffffffffffffffffffffffffff1673ffffffffffffffffffffffffffffffffffffffff1681526020019081526020015f208190555050565b6017602052805f5260405f205f915054906101000a900460ff1681565b6013602052805f5260405f205f915090505481565b610f97613474565b80601a5f6101000a81548173ffffffffffffffffffffffffffffffffffffffff021916908373ffffffffffffffffffffffffffffffffffffffff16021790555050565b60085481565b600e602052805f5260405f205f915090505481565b601f5f9054906101000a900473ffffffffffffffffffffffffffffffffffffffff1681565b601c602052805f5260405f205f915090505481565b611037613474565b8060035f6101000a81548173ffffffffffffffffffffffffffffffffffffffff021916908373ffffffffffffffffffffffffffffffffffffffff16021790555050565b611082613474565b80601d5f8473ffffffffffffffffffffffffffffffffffffffff1673ffffffffffffffffffffffffffffffffffffffff1681526020019081526020015f20819055505050565b600c602052805f5260405f205f915054906101000a900473ffffffffffffffffffffffffffffffffffffffff1681565b5f600f5f8373ffffffffffffffffffffffffffffffffffffffff1673ffffffffffffffffffffffffffffffffffffffff1681526020019081526020015f20819055505f60105f8373ffffffffffffffffffffffffffffffffffffffff1673ffffffffffffffffffffffffffffffffffffffff1681526020019081526020015f20819055505f60115f8373ffffffffffffffffffffffffffffffffffffffff1673ffffffffffffffffffffffffffffffffffffffff1681526020019081526020015f20819055505f60125f8373ffffffffffffffffffffffffffffffffffffffff1673ffffffffffffffffffffffffffffffffffffffff1681526020019081526020015f20819055505f60135f8373ffffffffffffffffffffffffffffffffffffffff1673ffffffffffffffffffffffffffffffffffffffff1681526020019081526020015f20819055505f60145f8373ffffffffffffffffffffffffffffffffffffffff1673ffffffffffffffffffffffffffffffffffffffff1681526020019081526020015f20819055505f60165f8373ffffffffffffffffffffffffffffffffffffffff1673ffffffffffffffffffffffffffffffffffffffff1681526020019081526020015f20819055505f60155f8373ffffffffffffffffffffffffffffffffffffffff1673ffffffffffffffffffffffffffffffffffffffff1681526020019081526020015f20819055505f60185f8373ffffffffffffffffffffffffffffffffffffffff1673ffffffffffffffffffffffffffffffffffffffff1681526020019081526020015f208190555050565b611355613474565b8060045f6101000a81548173ffffffffffffffffffffffffffffffffffffffff021916908373ffffffffffffffffffffffffffffffffffffffff16021790555050565b601a5f9054906101000a900473ffffffffffffffffffffffffffffffffffffffff1681565b5f80601e805490508310611406576040517f08c379a00000000000000000000000000000000000000000000000000000000081526004016113fd90613dd9565b60405180910390fd5b5f601e848154811061141b5761141a613df7565b5b905f5260205f20015f9054906101000a900473ffffffffffffffffffffffffffffffffffffffff169050809150600c5f8273ffffffffffffffffffffffffffffffffffffffff1673ffffffffffffffffffffffffffffffffffffffff1681526020019081526020015f205f9054906101000a900473ffffffffffffffffffffffffffffffffffffffff16925050915091565b60095481565b60045f9054906101000a900473ffffffffffffffffffffffffffffffffffffffff1681565b6114e0613474565b3373ffffffffffffffffffffffffffffffffffffffff166108fc4790811502906040515f60405180830381858888f19350505050158015611523573d5f803e3d5ffd5b50565b61152e613474565b8060055f6101000a81548173ffffffffffffffffffffffffffffffffffffffff021916908373ffffffffffffffffffffffffffffffffffffffff16021790555050565b60055f9054906101000a900473ffffffffffffffffffffffffffffffffffffffff1681565b61159e613474565b8060025f6101000a81548173ffffffffffffffffffffffffffffffffffffffff021916908373ffffffffffffffffffffffffffffffffffffffff16021790555050565b6018602052805f5260405f205f915090505481565b600a5f9054906101000a900460ff16611644576040517f08c379a000000000000000000000000000000000000000000000000000000000815260040161163b90613e6e565b60405180910390fd5b3373ffffffffffffffffffffffffffffffffffffffff168273ffffffffffffffffffffffffffffffffffffffff16036116b2576040517f08c379a00000000000000000000000000000000000000000000000000000000081526004016116a990613ed6565b60405180910390fd5b5f600f5f3373ffffffffffffffffffffffffffffffffffffffff1673ffffffffffffffffffffffffffffffffffffffff1681526020019081526020015f205414611731576040517f08c379a000000000000000000000000000000000000000000000000000000000815260040161172890613f3e565b60405180910390fd5b5f60105f3373ffffffffffffffffffffffffffffffffffffffff1673ffffffffffffffffffffffffffffffffffffffff1681526020019081526020015f2054146117b0576040517f08c379a00000000000000000000000000000000000000000000000000000000081526004016117a790613fa6565b60405180910390fd5b5f60115f3373ffffffffffffffffffffffffffffffffffffffff1673ffffffffffffffffffffffffffffffffffffffff1681526020019081526020015f20541461182f576040517f08c379a00000000000000000000000000000000000000000000000000000000081526004016118269061400e565b60405180910390fd5b5f8411611871576040517f08c379a000000000000000000000000000000000000000000000000000000000815260040161186890614076565b60405180910390fd5b5f83116118b3576040517f08c379a00000000000000000000000000000000000000000000000000000000081526004016118aa906140de565b60405180910390fd5b6006548114806118c4575060075481145b806118d0575060085481145b61190f576040517f08c379a000000000000000000000000000000000000000000000000000000000815260040161190690614146565b60405180910390fd5b5f73ffffffffffffffffffffffffffffffffffffffff168273ffffffffffffffffffffffffffffffffffffffff1614611a725781600c5f3373ffffffffffffffffffffffffffffffffffffffff1673ffffffffffffffffffffffffffffffffffffffff1681526020019081526020015f205f6101000a81548173ffffffffffffffffffffffffffffffffffffffff021916908373ffffffffffffffffffffffffffffffffffffffff1602179055506001600e5f8473ffffffffffffffffffffffffffffffffffffffff1673ffffffffffffffffffffffffffffffffffffffff1681526020019081526020015f205f828254611a0a9190614191565b92505081905550601e33908060018154018082558091505060019003905f5260205f20015f9091909190916101000a81548173ffffffffffffffffffffffffffffffffffffffff021916908373ffffffffffffffffffffffffffffffffffffffff1602179055505b60035f9054906101000a900473ffffffffffffffffffffffffffffffffffffffff1673ffffffffffffffffffffffffffffffffffffffff166323b872dd3330876040518463ffffffff1660e01b8152600401611ad0939291906141c4565b6020604051808303815f875af1158015611aec573d5f803e3d5ffd5b505050506040513d601f19601f82011682018060405250810190611b10919061420d565b5060035f9054906101000a900473ffffffffffffffffffffffffffffffffffffffff1673ffffffffffffffffffffffffffffffffffffffff1663a9059cbb60055f9054906101000a900473ffffffffffffffffffffffffffffffffffffffff16866040518363ffffffff1660e01b8152600401611b8e929190614238565b6020604051808303815f875af1158015611baa573d5f803e3d5ffd5b505050506040513d601f19601f82011682018060405250810190611bce919061420d565b5060045f9054906101000a900473ffffffffffffffffffffffffffffffffffffffff1673ffffffffffffffffffffffffffffffffffffffff166323b872dd3330866040518463ffffffff1660e01b8152600401611c2d939291906141c4565b6020604051808303815f875af1925050508015611c6857506040513d601f19601f82011682018060405250810190611c65919061420d565b60015b611e8b57611c7461426b565b806308c379a003611e7c5750611c886142e8565b80611c935750611e7e565b601f5f9054906101000a900473ffffffffffffffffffffffffffffffffffffffff1673ffffffffffffffffffffffffffffffffffffffff166323b872dd3330876040518463ffffffff1660e01b8152600401611cf1939291906141c4565b6020604051808303815f875af1158015611d0d573d5f803e3d5ffd5b505050506040513d601f19601f82011682018060405250810190611d31919061420d565b50601f5f9054906101000a900473ffffffffffffffffffffffffffffffffffffffff1673ffffffffffffffffffffffffffffffffffffffff1663a9059cbb60055f9054906101000a900473ffffffffffffffffffffffffffffffffffffffff16866040518363ffffffff1660e01b8152600401611daf929190614238565b6020604051808303815f875af1158015611dcb573d5f803e3d5ffd5b505050506040513d601f19601f82011682018060405250810190611def919061420d565b5060045f9054906101000a900473ffffffffffffffffffffffffffffffffffffffff1673ffffffffffffffffffffffffffffffffffffffff163373ffffffffffffffffffffffffffffffffffffffff167ffd384bda386f236a7c2a9038a52a8ab786f1715f3e103a3f0fe74e2d225b312586604051611e6e91906143c1565b60405180910390a350611e86565b505b3d5f803e3d5ffd5b611fd8565b8015611fd65760045f9054906101000a900473ffffffffffffffffffffffffffffffffffffffff1673ffffffffffffffffffffffffffffffffffffffff1663a9059cbb60055f9054906101000a900473ffffffffffffffffffffffffffffffffffffffff16866040518363ffffffff1660e01b8152600401611f0e929190614238565b6020604051808303815f875af1158015611f2a573d5f803e3d5ffd5b505050506040513d601f19601f82011682018060405250810190611f4e919061420d565b5060045f9054906101000a900473ffffffffffffffffffffffffffffffffffffffff1673ffffffffffffffffffffffffffffffffffffffff163373ffffffffffffffffffffffffffffffffffffffff167ffd384bda386f236a7c2a9038a52a8ab786f1715f3e103a3f0fe74e2d225b312586604051611fcd9190614437565b60405180910390a35b505b5f4290508460105f3373ffffffffffffffffffffffffffffffffffffffff1673ffffffffffffffffffffffffffffffffffffffff1681526020019081526020015f20819055508360115f3373ffffffffffffffffffffffffffffffffffffffff1673ffffffffffffffffffffffffffffffffffffffff1681526020019081526020015f20819055508060135f3373ffffffffffffffffffffffffffffffffffffffff1673ffffffffffffffffffffffffffffffffffffffff1681526020019081526020015f20819055508060145f3373ffffffffffffffffffffffffffffffffffffffff1673ffffffffffffffffffffffffffffffffffffffff1681526020019081526020015f208190555081816120f09190614191565b60155f3373ffffffffffffffffffffffffffffffffffffffff1673ffffffffffffffffffffffffffffffffffffffff1681526020019081526020015f20819055508160125f3373ffffffffffffffffffffffffffffffffffffffff1673ffffffffffffffffffffffffffffffffffffffff1681526020019081526020015f2081905550600654816121819190614191565b601c5f3373ffffffffffffffffffffffffffffffffffffffff1673ffffffffffffffffffffffffffffffffffffffff1681526020019081526020015f20819055505f601d5f3373ffffffffffffffffffffffffffffffffffffffff1673ffffffffffffffffffffffffffffffffffffffff1681526020019081526020015f208190555060045f9054906101000a900473ffffffffffffffffffffffffffffffffffffffff1673ffffffffffffffffffffffffffffffffffffffff163373ffffffffffffffffffffffffffffffffffffffff167ffd384bda386f236a7c2a9038a52a8ab786f1715f3e103a3f0fe74e2d225b31258660405161228291906144ad565b60405180910390a35050505050565b612299613474565b6122a25f6134fb565b565b60015f9054906101000a900473ffffffffffffffffffffffffffffffffffffffff1681565b6122d1613474565b88600f5f8c73ffffffffffffffffffffffffffffffffffffffff1673ffffffffffffffffffffffffffffffffffffffff1681526020019081526020015f20819055508760105f8c73ffffffffffffffffffffffffffffffffffffffff1673ffffffffffffffffffffffffffffffffffffffff1681526020019081526020015f20819055508660115f8c73ffffffffffffffffffffffffffffffffffffffff1673ffffffffffffffffffffffffffffffffffffffff1681526020019081526020015f20819055508560125f8c73ffffffffffffffffffffffffffffffffffffffff1673ffffffffffffffffffffffffffffffffffffffff1681526020019081526020015f20819055508460135f8c73ffffffffffffffffffffffffffffffffffffffff1673ffffffffffffffffffffffffffffffffffffffff1681526020019081526020015f20819055508360145f8c73ffffffffffffffffffffffffffffffffffffffff1673ffffffffffffffffffffffffffffffffffffffff1681526020019081526020015f20819055508260165f8c73ffffffffffffffffffffffffffffffffffffffff1673ffffffffffffffffffffffffffffffffffffffff1681526020019081526020015f20819055508160155f8c73ffffffffffffffffffffffffffffffffffffffff1673ffffffffffffffffffffffffffffffffffffffff1681526020019081526020015f20819055508060185f8c73ffffffffffffffffffffffffffffffffffffffff1673ffffffffffffffffffffffffffffffffffffffff1681526020019081526020015f208190555050505050505050505050565b612537613474565b8060125f8473ffffffffffffffffffffffffffffffffffffffff1673ffffffffffffffffffffffffffffffffffffffff1681526020019081526020015f20819055505050565b612585613474565b805f806101000a81548173ffffffffffffffffffffffffffffffffffffffff021916908373ffffffffffffffffffffffffffffffffffffffff16021790555050565b6014602052805f5260405f205f915090505481565b60035f9054906101000a900473ffffffffffffffffffffffffffffffffffffffff1681565b612609613474565b60175f8273ffffffffffffffffffffffffffffffffffffffff1673ffffffffffffffffffffffffffffffffffffffff1681526020019081526020015f205f9054906101000a900460ff161560175f8373ffffffffffffffffffffffffffffffffffffffff1673ffffffffffffffffffffffffffffffffffffffff1681526020019081526020015f205f6101000a81548160ff02191690831515021790555050565b60075481565b60195f9054906101000a900473ffffffffffffffffffffffffffffffffffffffff1681565b6010602052805f5260405f205f915090505481565b6011602052805f5260405f205f915090505481565b5f806127096135cc565b9050805f015f9054906101000a900473ffffffffffffffffffffffffffffffffffffffff1691505090565b601e8181548110612743575f80fd5b905f5260205f20015f915054906101000a900473ffffffffffffffffffffffffffffffffffffffff1681565b600f602052805f5260405f205f915090505481565b606080606080606080601e8054905087106127d4576040517f08c379a00000000000000000000000000000000000000000000000000000000081526004016127cb90614523565b60405180910390fd5b5f87601e805490506127e69190614541565b90508067ffffffffffffffff8111156128025761280161428a565b5b6040519080825280602002602001820160405280156128305781602001602082028036833780820191505090505b5096508067ffffffffffffffff81111561284d5761284c61428a565b5b60405190808252806020026020018201604052801561287b5781602001602082028036833780820191505090505b5095508067ffffffffffffffff8111156128985761289761428a565b5b6040519080825280602002602001820160405280156128c65781602001602082028036833780820191505090505b5094508067ffffffffffffffff8111156128e3576128e261428a565b5b6040519080825280602002602001820160405280156129115781602001602082028036833780820191505090505b5093508067ffffffffffffffff81111561292e5761292d61428a565b5b60405190808252806020026020018201604052801561295c5781602001602082028036833780820191505090505b5092508067ffffffffffffffff8111156129795761297861428a565b5b6040519080825280602002602001820160405280156129a75781602001602082028036833780820191505090505b5091505f8890505b601e80549050811015612c7a575f601e82815481106129d1576129d0613df7565b5b905f5260205f20015f9054906101000a900473ffffffffffffffffffffffffffffffffffffffff16905080898b84612a099190614541565b81518110612a1a57612a19613df7565b5b602002602001019073ffffffffffffffffffffffffffffffffffffffff16908173ffffffffffffffffffffffffffffffffffffffff1681525050600c5f8273ffffffffffffffffffffffffffffffffffffffff1673ffffffffffffffffffffffffffffffffffffffff1681526020019081526020015f205f9054906101000a900473ffffffffffffffffffffffffffffffffffffffff16888b84612abe9190614541565b81518110612acf57612ace613df7565b5b602002602001019073ffffffffffffffffffffffffffffffffffffffff16908173ffffffffffffffffffffffffffffffffffffffff168152505060105f8273ffffffffffffffffffffffffffffffffffffffff1673ffffffffffffffffffffffffffffffffffffffff1681526020019081526020015f2054878b84612b549190614541565b81518110612b6557612b64613df7565b5b60200260200101818152505060115f8273ffffffffffffffffffffffffffffffffffffffff1673ffffffffffffffffffffffffffffffffffffffff1681526020019081526020015f2054868b84612bbc9190614541565b81518110612bcd57612bcc613df7565b5b60200260200101818152505060135f8273ffffffffffffffffffffffffffffffffffffffff1673ffffffffffffffffffffffffffffffffffffffff1681526020019081526020015f2054858b84612c249190614541565b81518110612c3557612c34613df7565b5b60200260200101818152505081848b84612c4f9190614541565b81518110612c6057612c5f613df7565b5b6020026020010181815250505080806001019150506129af565b505091939550919395565b612c8d613474565b80601f5f6101000a81548173ffffffffffffffffffffffffffffffffffffffff021916908373ffffffffffffffffffffffffffffffffffffffff16021790555050565b6012602052805f5260405f205f915090505481565b601d602052805f5260405f205f915090505481565b60065481565b601b5481565b612d0e613474565b81600a5f6101000a81548160ff02191690831515021790555080600a60016101000a81548160ff0219169083151502179055505050565b5f8054906101000a900473ffffffffffffffffffffffffffffffffffffffff1681565b6016602052805f5260405f205f915090505481565b6040518060400160405280600481526020017f6e65777300000000000000000000000000000000000000000000000000000000815250600b9081612dc1919061476e565b50565b5f612dcd6135f3565b90505f815f0160089054906101000a900460ff161590505f825f015f9054906101000a900467ffffffffffffffff1690505f808267ffffffffffffffff16148015612e155750825b90505f60018367ffffffffffffffff16148015612e4857505f3073ffffffffffffffffffffffffffffffffffffffff163b145b905081158015612e56575080155b15612e8d576040517ff92ee8a900000000000000000000000000000000000000000000000000000000815260040160405180910390fd5b6001855f015f6101000a81548167ffffffffffffffff021916908367ffffffffffffffff1602179055508315612eda576001855f0160086101000a81548160ff0219169083151502179055505b612ee261361a565b612eeb86613624565b73768a62a22b187eb350637e720ebc552d905c03315f806101000a81548173ffffffffffffffffffffffffffffffffffffffff021916908373ffffffffffffffffffffffffffffffffffffffff160217905550736b6b2d8166d13b58155b8d454f239ae3691257a660015f6101000a81548173ffffffffffffffffffffffffffffffffffffffff021916908373ffffffffffffffffffffffffffffffffffffffff16021790555073b1bf470a9720f8d2e49512dbbccf7180e4ac467960025f6101000a81548173ffffffffffffffffffffffffffffffffffffffff021916908373ffffffffffffffffffffffffffffffffffffffff16021790555073768a62a22b187eb350637e720ebc552d905c033160035f6101000a81548173ffffffffffffffffffffffffffffffffffffffff021916908373ffffffffffffffffffffffffffffffffffffffff16021790555073b0a36d088a29fe666b93464c96e33058fd885f9960045f6101000a81548173ffffffffffffffffffffffffffffffffffffffff021916908373ffffffffffffffffffffffffffffffffffffffff16021790555073b0a36d088a29fe666b93464c96e33058fd885f99601f5f6101000a81548173ffffffffffffffffffffffffffffffffffffffff021916908373ffffffffffffffffffffffffffffffffffffffff16021790555073466bebfddee7e03965c7b8c8a22db117b5b73aec60055f6101000a81548173ffffffffffffffffffffffffffffffffffffffff021916908373ffffffffffffffffffffffffffffffffffffffff16021790555062278d006006819055506276a70060078190555062c5c1006008819055506103e86009819055507302fa571edad13043ee3f3676e65092c5000e3ad060195f6101000a81548173ffffffffffffffffffffffffffffffffffffffff021916908373ffffffffffffffffffffffffffffffffffffffff160217905550736b6b2d8166d13b58155b8d454f239ae3691257a6601a5f6101000a81548173ffffffffffffffffffffffffffffffffffffffff021916908373ffffffffffffffffffffffffffffffffffffffff160217905550670de0b6b3a7640000601b819055506001600a5f6101000a81548160ff0219169083151502179055506001600a60016101000a81548160ff02191690831515021790555083156132a3575f855f0160086101000a81548160ff0219169083151502179055507fc7f505b2f371ae2175ee4913f4499e1f2633a7b5936321eed1cdaeb6115181d2600160405161329a9190614889565b60405180910390a15b505050505050565b6132b3613474565b80601c5f8473ffffffffffffffffffffffffffffffffffffffff1673ffffffffffffffffffffffffffffffffffffffff1681526020019081526020015f20819055505050565b600d602052805f5260405f205f915090505481565b60025f9054906101000a900473ffffffffffffffffffffffffffffffffffffffff1681565b600a60019054906101000a900460ff1681565b600b8054613353906145a1565b80601f016020809104026020016040519081016040528092919081815260200182805461337f906145a1565b80156133ca5780601f106133a1576101008083540402835291602001916133ca565b820191905f5260205f20905b8154815290600101906020018083116133ad57829003601f168201915b505050505081565b6133da613474565b5f73ffffffffffffffffffffffffffffffffffffffff168173ffffffffffffffffffffffffffffffffffffffff160361344a575f6040517f1e4fbdf700000000000000000000000000000000000000000000000000000000815260040161344191906138cb565b60405180910390fd5b613453816134fb565b50565b600a5f9054906101000a900460ff1681565b5f601e80549050905090565b61347c6136a8565b73ffffffffffffffffffffffffffffffffffffffff1661349a6126ff565b73ffffffffffffffffffffffffffffffffffffffff16146134f9576134bd6136a8565b6040517f118cdaa70000000000000000000000000000000000000000000000000000000081526004016134f091906138cb565b60405180910390fd5b565b5f6135046135cc565b90505f815f015f9054906101000a900473ffffffffffffffffffffffffffffffffffffffff16905082825f015f6101000a81548173ffffffffffffffffffffffffffffffffffffffff021916908373ffffffffffffffffffffffffffffffffffffffff1602179055508273ffffffffffffffffffffffffffffffffffffffff168173ffffffffffffffffffffffffffffffffffffffff167f8be0079c531659141344cd1fd0a4f28419497f9722a3daafe3b4186f6b6457e060405160405180910390a3505050565b5f7f9016d09d72d40fdae2fd8ceac6b6234c7706214fd39c1cd1e609a0528c199300905090565b5f7ff0c57e16840df040f15088dc2f81fe391c3923bec73e23a9662efc9c229c6a00905090565b6136226136af565b565b61362c6136af565b5f73ffffffffffffffffffffffffffffffffffffffff168173ffffffffffffffffffffffffffffffffffffffff160361369c575f6040517f1e4fbdf700000000000000000000000000000000000000000000000000000000815260040161369391906138cb565b60405180910390fd5b6136a5816134fb565b50565b5f33905090565b6136b76136ef565b6136ed576040517fd7e6bcf800000000000000000000000000000000000000000000000000000000815260040160405180910390fd5b565b5f6136f86135f3565b5f0160089054906101000a900460ff16905090565b5f604051905090565b5f80fd5b5f819050919050565b61372c8161371a565b8114613736575f80fd5b50565b5f8135905061374781613723565b92915050565b5f6020828403121561376257613761613716565b5b5f61376f84828501613739565b91505092915050565b5f73ffffffffffffffffffffffffffffffffffffffff82169050919050565b5f6137a182613778565b9050919050565b6137b181613797565b81146137bb575f80fd5b50565b5f813590506137cc816137a8565b92915050565b5f602082840312156137e7576137e6613716565b5b5f6137f4848285016137be565b91505092915050565b6138068161371a565b82525050565b5f60208201905061381f5f8301846137fd565b92915050565b5f805f806080858703121561383d5761383c613716565b5b5f61384a878288016137be565b945050602061385b87828801613739565b935050604061386c87828801613739565b925050606061387d87828801613739565b91505092959194509250565b5f8115159050919050565b61389d81613889565b82525050565b5f6020820190506138b65f830184613894565b92915050565b6138c581613797565b82525050565b5f6020820190506138de5f8301846138bc565b92915050565b5f80604083850312156138fa576138f9613716565b5b5f613907858286016137be565b925050602061391885828601613739565b9150509250929050565b5f6040820190506139355f8301856138bc565b61394260208301846138bc565b9392505050565b5f805f806080858703121561396157613960613716565b5b5f61396e87828801613739565b945050602061397f87828801613739565b9350506040613990878288016137be565b92505060606139a187828801613739565b91505092959194509250565b5f805f805f805f805f806101408b8d0312156139cc576139cb613716565b5b5f6139d98d828e016137be565b9a505060206139ea8d828e01613739565b99505060406139fb8d828e01613739565b9850506060613a0c8d828e01613739565b9750506080613a1d8d828e01613739565b96505060a0613a2e8d828e01613739565b95505060c0613a3f8d828e01613739565b94505060e0613a508d828e01613739565b935050610100613a628d828e01613739565b925050610120613a748d828e01613739565b9150509295989b9194979a5092959850565b5f81519050919050565b5f82825260208201905092915050565b5f819050602082019050919050565b613ab881613797565b82525050565b5f613ac98383613aaf565b60208301905092915050565b5f602082019050919050565b5f613aeb82613a86565b613af58185613a90565b9350613b0083613aa0565b805f5b83811015613b30578151613b178882613abe565b9750613b2283613ad5565b925050600181019050613b03565b5085935050505092915050565b5f81519050919050565b5f82825260208201905092915050565b5f819050602082019050919050565b613b6f8161371a565b82525050565b5f613b808383613b66565b60208301905092915050565b5f602082019050919050565b5f613ba282613b3d565b613bac8185613b47565b9350613bb783613b57565b805f5b83811015613be7578151613bce8882613b75565b9750613bd983613b8c565b925050600181019050613bba565b5085935050505092915050565b5f60c0820190508181035f830152613c0c8189613ae1565b90508181036020830152613c208188613ae1565b90508181036040830152613c348187613b98565b90508181036060830152613c488186613b98565b90508181036080830152613c5c8185613b98565b905081810360a0830152613c708184613b98565b9050979650505050505050565b613c8681613889565b8114613c90575f80fd5b50565b5f81359050613ca181613c7d565b92915050565b5f8060408385031215613cbd57613cbc613716565b5b5f613cca85828601613c93565b9250506020613cdb85828601613c93565b9150509250929050565b5f81519050919050565b5f82825260208201905092915050565b5f5b83811015613d1c578082015181840152602081019050613d01565b5f8484015250505050565b5f601f19601f8301169050919050565b5f613d4182613ce5565b613d4b8185613cef565b9350613d5b818560208601613cff565b613d6481613d27565b840191505092915050565b5f6020820190508181035f830152613d878184613d37565b905092915050565b7f496e646578206f7574206f662072616e676500000000000000000000000000005f82015250565b5f613dc3601283613cef565b9150613dce82613d8f565b602082019050919050565b5f6020820190508181035f830152613df081613db7565b9050919050565b7f4e487b71000000000000000000000000000000000000000000000000000000005f52603260045260245ffd5b7f6e6f7420737461727400000000000000000000000000000000000000000000005f82015250565b5f613e58600983613cef565b9150613e6382613e24565b602082019050919050565b5f6020820190508181035f830152613e8581613e4c565b9050919050565b7f696e76697465722063616e742062792073656c660000000000000000000000005f82015250565b5f613ec0601483613cef565b9150613ecb82613e8c565b602082019050919050565b5f6020820190508181035f830152613eed81613eb4565b9050919050565b7f616c7265616479207374616b65000000000000000000000000000000000000005f82015250565b5f613f28600d83613cef565b9150613f3382613ef4565b602082019050919050565b5f6020820190508181035f830152613f5581613f1c565b9050919050565b7f616c7265616479207374616b65557364740000000000000000000000000000005f82015250565b5f613f90601183613cef565b9150613f9b82613f5c565b602082019050919050565b5f6020820190508181035f830152613fbd81613f84565b9050919050565b7f616c7265616479207374616b65426463000000000000000000000000000000005f82015250565b5f613ff8601083613cef565b915061400382613fc4565b602082019050919050565b5f6020820190508181035f83015261402581613fec565b9050919050565b7f7a65726f20616d6f756e744100000000000000000000000000000000000000005f82015250565b5f614060600c83613cef565b915061406b8261402c565b602082019050919050565b5f6020820190508181035f83015261408d81614054565b9050919050565b7f7a65726f20616d6f756e744200000000000000000000000000000000000000005f82015250565b5f6140c8600c83613cef565b91506140d382614094565b602082019050919050565b5f6020820190508181035f8301526140f5816140bc565b9050919050565b7f6e6f742072696768742074696d650000000000000000000000000000000000005f82015250565b5f614130600e83613cef565b915061413b826140fc565b602082019050919050565b5f6020820190508181035f83015261415d81614124565b9050919050565b7f4e487b71000000000000000000000000000000000000000000000000000000005f52601160045260245ffd5b5f61419b8261371a565b91506141a68361371a565b92508282019050808211156141be576141bd614164565b5b92915050565b5f6060820190506141d75f8301866138bc565b6141e460208301856138bc565b6141f160408301846137fd565b949350505050565b5f8151905061420781613c7d565b92915050565b5f6020828403121561422257614221613716565b5b5f61422f848285016141f9565b91505092915050565b5f60408201905061424b5f8301856138bc565b61425860208301846137fd565b9392505050565b5f8160e01c9050919050565b5f60033d11156142875760045f803e6142845f5161425f565b90505b90565b7f4e487b71000000000000000000000000000000000000000000000000000000005f52604160045260245ffd5b6142c082613d27565b810181811067ffffffffffffffff821117156142df576142de61428a565b5b80604052505050565b5f60443d10614374576142f961370d565b60043d036004823e80513d602482011167ffffffffffffffff82111715614321575050614374565b808201805167ffffffffffffffff81111561433f5750505050614374565b80602083010160043d03850181111561435c575050505050614374565b61436b826020018501866142b7565b82955050505050505b90565b7f6361746368204572726f720000000000000000000000000000000000000000005f82015250565b5f6143ab600b83613cef565b91506143b682614377565b602082019050919050565b5f6040820190506143d45f8301846137fd565b81810360208301526143e58161439f565b905092915050565b7f7472616e736665725375636365737300000000000000000000000000000000005f82015250565b5f614421600f83613cef565b915061442c826143ed565b602082019050919050565b5f60408201905061444a5f8301846137fd565b818103602083015261445b81614415565b905092915050565b7f6f766572200000000000000000000000000000000000000000000000000000005f82015250565b5f614497600583613cef565b91506144a282614463565b602082019050919050565b5f6040820190506144c05f8301846137fd565b81810360208301526144d18161448b565b905092915050565b7f537461727420696e646578206f7574206f662072616e676500000000000000005f82015250565b5f61450d601883613cef565b9150614518826144d9565b602082019050919050565b5f6020820190508181035f83015261453a81614501565b9050919050565b5f61454b8261371a565b91506145568361371a565b925082820390508181111561456e5761456d614164565b5b92915050565b7f4e487b71000000000000000000000000000000000000000000000000000000005f52602260045260245ffd5b5f60028204905060018216806145b857607f821691505b6020821081036145cb576145ca614574565b5b50919050565b5f819050815f5260205f209050919050565b5f6020601f8301049050919050565b5f82821b905092915050565b5f6008830261462d7fffffffffffffffffffffffffffffffffffffffffffffffffffffffffffffffff826145f2565b61463786836145f2565b95508019841693508086168417925050509392505050565b5f819050919050565b5f61467261466d6146688461371a565b61464f565b61371a565b9050919050565b5f819050919050565b61468b83614658565b61469f61469782614679565b8484546145fe565b825550505050565b5f90565b6146b36146a7565b6146be818484614682565b505050565b5b818110156146e1576146d65f826146ab565b6001810190506146c4565b5050565b601f821115614726576146f7816145d1565b614700846145e3565b8101602085101561470f578190505b61472361471b856145e3565b8301826146c3565b50505b505050565b5f82821c905092915050565b5f6147465f198460080261472b565b1980831691505092915050565b5f61475e8383614737565b9150826002028217905092915050565b61477782613ce5565b67ffffffffffffffff8111156147905761478f61428a565b5b61479a82546145a1565b6147a58282856146e5565b5f60209050601f8311600181146147d6575f84156147c4578287015190505b6147ce8582614753565b865550614835565b601f1984166147e4866145d1565b5f5b8281101561480b578489015182556001820191506020850194506020810190506147e6565b868310156148285784890151614824601f891682614737565b8355505b6001600288020188555050505b505050505050565b5f819050919050565b5f67ffffffffffffffff82169050919050565b5f61487361486e6148698461483d565b61464f565b614846565b9050919050565b61488381614859565b82525050565b5f60208201905061489c5f83018461487a565b9291505056fea2646970667358221220b84a6b6613230aba8002e986126d32daec2384226751f5afd83fae333250a9d864736f6c63430008180033",
					"opcodes": "PUSH1 0x80 PUSH1 0x40 MSTORE PUSH1 0x1 PUSH1 0xA PUSH0 PUSH2 0x100 EXP DUP2 SLOAD DUP2 PUSH1 0xFF MUL NOT AND SWAP1 DUP4 ISZERO ISZERO MUL OR SWAP1 SSTORE POP PUSH1 0x1 PUSH1 0xA PUSH1 0x1 PUSH2 0x100 EXP DUP2 SLOAD DUP2 PUSH1 0xFF MUL NOT AND SWAP1 DUP4 ISZERO ISZERO MUL OR SWAP1 SSTORE POP CALLVALUE DUP1 ISZERO PUSH2 0x44 JUMPI PUSH0 DUP1 REVERT JUMPDEST POP PUSH2 0x48D8 DUP1 PUSH2 0x52 PUSH0 CODECOPY PUSH0 RETURN INVALID PUSH1 0x80 PUSH1 0x40 MSTORE CALLVALUE DUP1 ISZERO PUSH2 0xF JUMPI PUSH0 DUP1 REVERT JUMPDEST POP PUSH1 0x4 CALLDATASIZE LT PUSH2 0x3AC JUMPI PUSH0 CALLDATALOAD PUSH1 0xE0 SHR DUP1 PUSH4 0x7429A176 GT PUSH2 0x1F2 JUMPI DUP1 PUSH4 0xA5DC47D2 GT PUSH2 0x118 JUMPI DUP1 PUSH4 0xD2240FB9 GT PUSH2 0xAB JUMPI DUP1 PUSH4 0xF2C31BD9 GT PUSH2 0x7A JUMPI DUP1 PUSH4 0xF2C31BD9 EQ PUSH2 0xB44 JUMPI DUP1 PUSH4 0xF2FDE38B EQ PUSH2 0xB62 JUMPI DUP1 PUSH4 0xF3EF99BC EQ PUSH2 0xB7E JUMPI DUP1 PUSH4 0xFC1315B9 EQ PUSH2 0xB9C JUMPI PUSH2 0x3AC JUMP JUMPDEST DUP1 PUSH4 0xD2240FB9 EQ PUSH2 0xABC JUMPI DUP1 PUSH4 0xDD8158E0 EQ PUSH2 0xAD8 JUMPI DUP1 PUSH4 0xE53595ED EQ PUSH2 0xB08 JUMPI DUP1 PUSH4 0xE650D293 EQ PUSH2 0xB26 JUMPI PUSH2 0x3AC JUMP JUMPDEST DUP1 PUSH4 0xB59C6E0E GT PUSH2 0xE7 JUMPI DUP1 PUSH4 0xB59C6E0E EQ PUSH2 0xA48 JUMPI DUP1 PUSH4 0xBEF4533C EQ PUSH2 0xA66 JUMPI DUP1 PUSH4 0xC2985578 EQ PUSH2 0xA96 JUMPI DUP1 PUSH4 0xC4D66DE8 EQ PUSH2 0xAA0 JUMPI PUSH2 0x3AC JUMP JUMPDEST DUP1 PUSH4 0xA5DC47D2 EQ PUSH2 0x9C0 JUMPI DUP1 PUSH4 0xA6B14D5A EQ PUSH2 0x9F0 JUMPI DUP1 PUSH4 0xAC0E5ED0 EQ PUSH2 0xA0E JUMPI DUP1 PUSH4 0xB3C2EAC1 EQ PUSH2 0xA2C JUMPI PUSH2 0x3AC JUMP JUMPDEST DUP1 PUSH4 0x8898870F GT PUSH2 0x190 JUMPI DUP1 PUSH4 0x9805FA74 GT PUSH2 0x15F JUMPI DUP1 PUSH4 0x9805FA74 EQ PUSH2 0x90F JUMPI DUP1 PUSH4 0x9C83DF3A EQ PUSH2 0x93F JUMPI DUP1 PUSH4 0x9F6D4648 EQ PUSH2 0x974 JUMPI DUP1 PUSH4 0xA041E172 EQ PUSH2 0x990 JUMPI PUSH2 0x3AC JUMP JUMPDEST DUP1 PUSH4 0x8898870F EQ PUSH2 0x861 JUMPI DUP1 PUSH4 0x8ACE0D0C EQ PUSH2 0x891 JUMPI DUP1 PUSH4 0x8DA5CB5B EQ PUSH2 0x8C1 JUMPI DUP1 PUSH4 0x907B2210 EQ PUSH2 0x8DF JUMPI PUSH2 0x3AC JUMP JUMPDEST DUP1 PUSH4 0x7A1A959B GT PUSH2 0x1CC JUMPI DUP1 PUSH4 0x7A1A959B EQ PUSH2 0x7EB JUMPI DUP1 PUSH4 0x7D4CBD57 EQ PUSH2 0x809 JUMPI DUP1 PUSH4 0x853E03E5 EQ PUSH2 0x825 JUMPI DUP1 PUSH4 0x877BCB16 EQ PUSH2 0x843 JUMPI PUSH2 0x3AC JUMP JUMPDEST DUP1 PUSH4 0x7429A176 EQ PUSH2 0x783 JUMPI DUP1 PUSH4 0x7535B3E5 EQ PUSH2 0x79F JUMPI DUP1 PUSH4 0x7929E29F EQ PUSH2 0x7BB JUMPI PUSH2 0x3AC JUMP JUMPDEST DUP1 PUSH4 0x26E8397F GT PUSH2 0x2D7 JUMPI DUP1 PUSH4 0x460199B3 GT PUSH2 0x275 JUMPI DUP1 PUSH4 0x711563D4 GT PUSH2 0x244 JUMPI DUP1 PUSH4 0x711563D4 EQ PUSH2 0x723 JUMPI DUP1 PUSH4 0x715018A6 EQ PUSH2 0x73F JUMPI DUP1 PUSH4 0x71DDDA57 EQ PUSH2 0x749 JUMPI DUP1 PUSH4 0x72885C64 EQ PUSH2 0x767 JUMPI PUSH2 0x3AC JUMP JUMPDEST DUP1 PUSH4 0x460199B3 EQ PUSH2 0x69D JUMPI DUP1 PUSH4 0x6B8DE0BF EQ PUSH2 0x6B9 JUMPI DUP1 PUSH4 0x6D37B382 EQ PUSH2 0x6D7 JUMPI DUP1 PUSH4 0x6F663610 EQ PUSH2 0x6F3 JUMPI PUSH2 0x3AC JUMP JUMPDEST DUP1 PUSH4 0x2C301B76 GT PUSH2 0x2B1 JUMPI DUP1 PUSH4 0x2C301B76 EQ PUSH2 0x626 JUMPI DUP1 PUSH4 0x2EAE667D EQ PUSH2 0x657 JUMPI DUP1 PUSH4 0x3375D043 EQ PUSH2 0x675 JUMPI DUP1 PUSH4 0x3CCFD60B EQ PUSH2 0x693 JUMPI PUSH2 0x3AC JUMP JUMPDEST DUP1 PUSH4 0x26E8397F EQ PUSH2 0x5D0 JUMPI DUP1 PUSH4 0x28C4333E EQ PUSH2 0x5EC JUMPI DUP1 PUSH4 0x29D245AA EQ PUSH2 0x608 JUMPI PUSH2 0x3AC JUMP JUMPDEST DUP1 PUSH4 0x170F9FB4 GT PUSH2 0x34F JUMPI DUP1 PUSH4 0x1E9BE42E GT PUSH2 0x31E JUMPI DUP1 PUSH4 0x1E9BE42E EQ PUSH2 0x538 JUMPI DUP1 PUSH4 0x1F54DBFE EQ PUSH2 0x568 JUMPI DUP1 PUSH4 0x1FE03E61 EQ PUSH2 0x584 JUMPI DUP1 PUSH4 0x264EDC1D EQ PUSH2 0x5A0 JUMPI PUSH2 0x3AC JUMP JUMPDEST DUP1 PUSH4 0x170F9FB4 EQ PUSH2 0x4B0 JUMPI DUP1 PUSH4 0x18883877 EQ PUSH2 0x4CC JUMPI DUP1 PUSH4 0x1896B2C4 EQ PUSH2 0x4EA JUMPI DUP1 PUSH4 0x1E2A4D98 EQ PUSH2 0x51A JUMPI PUSH2 0x3AC JUMP JUMPDEST DUP1 PUSH4 0x42737F6 GT PUSH2 0x38B JUMPI DUP1 PUSH4 0x42737F6 EQ PUSH2 0x418 JUMPI DUP1 PUSH4 0x49108C6 EQ PUSH2 0x434 JUMPI DUP1 PUSH4 0x115A972E EQ PUSH2 0x450 JUMPI DUP1 PUSH4 0x16C259E1 EQ PUSH2 0x480 JUMPI PUSH2 0x3AC JUMP JUMPDEST DUP1 PUSH3 0x6CD200 EQ PUSH2 0x3B0 JUMPI DUP1 PUSH4 0x356C98F EQ PUSH2 0x3CC JUMPI DUP1 PUSH4 0x397D458 EQ PUSH2 0x3FC JUMPI JUMPDEST PUSH0 DUP1 REVERT JUMPDEST PUSH2 0x3CA PUSH1 0x4 DUP1 CALLDATASIZE SUB DUP2 ADD SWAP1 PUSH2 0x3C5 SWAP2 SWAP1 PUSH2 0x374D JUMP JUMPDEST PUSH2 0xBBA JUMP JUMPDEST STOP JUMPDEST PUSH2 0x3E6 PUSH1 0x4 DUP1 CALLDATASIZE SUB DUP2 ADD SWAP1 PUSH2 0x3E1 SWAP2 SWAP1 PUSH2 0x37D2 JUMP JUMPDEST PUSH2 0xBCC JUMP JUMPDEST PUSH1 0x40 MLOAD PUSH2 0x3F3 SWAP2 SWAP1 PUSH2 0x380C JUMP JUMPDEST PUSH1 0x40 MLOAD DUP1 SWAP2 SUB SWAP1 RETURN JUMPDEST PUSH2 0x416 PUSH1 0x4 DUP1 CALLDATASIZE SUB DUP2 ADD SWAP1 PUSH2 0x411 SWAP2 SWAP1 PUSH2 0x37D2 JUMP JUMPDEST PUSH2 0xBE1 JUMP JUMPDEST STOP JUMPDEST PUSH2 0x432 PUSH1 0x4 DUP1 CALLDATASIZE SUB DUP2 ADD SWAP1 PUSH2 0x42D SWAP2 SWAP1 PUSH2 0x3825 JUMP JUMPDEST PUSH2 0xC2C JUMP JUMPDEST STOP JUMPDEST PUSH2 0x44E PUSH1 0x4 DUP1 CALLDATASIZE SUB DUP2 ADD SWAP1 PUSH2 0x449 SWAP2 SWAP1 PUSH2 0x37D2 JUMP JUMPDEST PUSH2 0xD00 JUMP JUMPDEST STOP JUMPDEST PUSH2 0x46A PUSH1 0x4 DUP1 CALLDATASIZE SUB DUP2 ADD SWAP1 PUSH2 0x465 SWAP2 SWAP1 PUSH2 0x37D2 JUMP JUMPDEST PUSH2 0xF5D JUMP JUMPDEST PUSH1 0x40 MLOAD PUSH2 0x477 SWAP2 SWAP1 PUSH2 0x38A3 JUMP JUMPDEST PUSH1 0x40 MLOAD DUP1 SWAP2 SUB SWAP1 RETURN JUMPDEST PUSH2 0x49A PUSH1 0x4 DUP1 CALLDATASIZE SUB DUP2 ADD SWAP1 PUSH2 0x495 SWAP2 SWAP1 PUSH2 0x37D2 JUMP JUMPDEST PUSH2 0xF7A JUMP JUMPDEST PUSH1 0x40 MLOAD PUSH2 0x4A7 SWAP2 SWAP1 PUSH2 0x380C JUMP JUMPDEST PUSH1 0x40 MLOAD DUP1 SWAP2 SUB SWAP1 RETURN JUMPDEST PUSH2 0x4CA PUSH1 0x4 DUP1 CALLDATASIZE SUB DUP2 ADD SWAP1 PUSH2 0x4C5 SWAP2 SWAP1 PUSH2 0x37D2 JUMP JUMPDEST PUSH2 0xF8F JUMP JUMPDEST STOP JUMPDEST PUSH2 0x4D4 PUSH2 0xFDA JUMP JUMPDEST PUSH1 0x40 MLOAD PUSH2 0x4E1 SWAP2 SWAP1 PUSH2 0x380C JUMP JUMPDEST PUSH1 0x40 MLOAD DUP1 SWAP2 SUB SWAP1 RETURN JUMPDEST PUSH2 0x504 PUSH1 0x4 DUP1 CALLDATASIZE SUB DUP2 ADD SWAP1 PUSH2 0x4FF SWAP2 SWAP1 PUSH2 0x37D2 JUMP JUMPDEST PUSH2 0xFE0 JUMP JUMPDEST PUSH1 0x40 MLOAD PUSH2 0x511 SWAP2 SWAP1 PUSH2 0x380C JUMP JUMPDEST PUSH1 0x40 MLOAD DUP1 SWAP2 SUB SWAP1 RETURN JUMPDEST PUSH2 0x522 PUSH2 0xFF5 JUMP JUMPDEST PUSH1 0x40 MLOAD PUSH2 0x52F SWAP2 SWAP1 PUSH2 0x38CB JUMP JUMPDEST PUSH1 0x40 MLOAD DUP1 SWAP2 SUB SWAP1 RETURN JUMPDEST PUSH2 0x552 PUSH1 0x4 DUP1 CALLDATASIZE SUB DUP2 ADD SWAP1 PUSH2 0x54D SWAP2 SWAP1 PUSH2 0x37D2 JUMP JUMPDEST PUSH2 0x101A JUMP JUMPDEST PUSH1 0x40 MLOAD PUSH2 0x55F SWAP2 SWAP1 PUSH2 0x380C JUMP JUMPDEST PUSH1 0x40 MLOAD DUP1 SWAP2 SUB SWAP1 RETURN JUMPDEST PUSH2 0x582 PUSH1 0x4 DUP1 CALLDATASIZE SUB DUP2 ADD SWAP1 PUSH2 0x57D SWAP2 SWAP1 PUSH2 0x37D2 JUMP JUMPDEST PUSH2 0x102F JUMP JUMPDEST STOP JUMPDEST PUSH2 0x59E PUSH1 0x4 DUP1 CALLDATASIZE SUB DUP2 ADD SWAP1 PUSH2 0x599 SWAP2 SWAP1 PUSH2 0x38E4 JUMP JUMPDEST PUSH2 0x107A JUMP JUMPDEST STOP JUMPDEST PUSH2 0x5BA PUSH1 0x4 DUP1 CALLDATASIZE SUB DUP2 ADD SWAP1 PUSH2 0x5B5 SWAP2 SWAP1 PUSH2 0x37D2 JUMP JUMPDEST PUSH2 0x10C8 JUMP JUMPDEST PUSH1 0x40 MLOAD PUSH2 0x5C7 SWAP2 SWAP1 PUSH2 0x38CB JUMP JUMPDEST PUSH1 0x40 MLOAD DUP1 SWAP2 SUB SWAP1 RETURN JUMPDEST PUSH2 0x5EA PUSH1 0x4 DUP1 CALLDATASIZE SUB DUP2 ADD SWAP1 PUSH2 0x5E5 SWAP2 SWAP1 PUSH2 0x37D2 JUMP JUMPDEST PUSH2 0x10F8 JUMP JUMPDEST STOP JUMPDEST PUSH2 0x606 PUSH1 0x4 DUP1 CALLDATASIZE SUB DUP2 ADD SWAP1 PUSH2 0x601 SWAP2 SWAP1 PUSH2 0x37D2 JUMP JUMPDEST PUSH2 0x134D JUMP JUMPDEST STOP JUMPDEST PUSH2 0x610 PUSH2 0x1398 JUMP JUMPDEST PUSH1 0x40 MLOAD PUSH2 0x61D SWAP2 SWAP1 PUSH2 0x38CB JUMP JUMPDEST PUSH1 0x40 MLOAD DUP1 SWAP2 SUB SWAP1 RETURN JUMPDEST PUSH2 0x640 PUSH1 0x4 DUP1 CALLDATASIZE SUB DUP2 ADD SWAP1 PUSH2 0x63B SWAP2 SWAP1 PUSH2 0x374D JUMP JUMPDEST PUSH2 0x13BD JUMP JUMPDEST PUSH1 0x40 MLOAD PUSH2 0x64E SWAP3 SWAP2 SWAP1 PUSH2 0x3922 JUMP JUMPDEST PUSH1 0x40 MLOAD DUP1 SWAP2 SUB SWAP1 RETURN JUMPDEST PUSH2 0x65F PUSH2 0x14AD JUMP JUMPDEST PUSH1 0x40 MLOAD PUSH2 0x66C SWAP2 SWAP1 PUSH2 0x380C JUMP JUMPDEST PUSH1 0x40 MLOAD DUP1 SWAP2 SUB SWAP1 RETURN JUMPDEST PUSH2 0x67D PUSH2 0x14B3 JUMP JUMPDEST PUSH1 0x40 MLOAD PUSH2 0x68A SWAP2 SWAP1 PUSH2 0x38CB JUMP JUMPDEST PUSH1 0x40 MLOAD DUP1 SWAP2 SUB SWAP1 RETURN JUMPDEST PUSH2 0x69B PUSH2 0x14D8 JUMP JUMPDEST STOP JUMPDEST PUSH2 0x6B7 PUSH1 0x4 DUP1 CALLDATASIZE SUB DUP2 ADD SWAP1 PUSH2 0x6B2 SWAP2 SWAP1 PUSH2 0x37D2 JUMP JUMPDEST PUSH2 0x1526 JUMP JUMPDEST STOP JUMPDEST PUSH2 0x6C1 PUSH2 0x1571 JUMP JUMPDEST PUSH1 0x40 MLOAD PUSH2 0x6CE SWAP2 SWAP1 PUSH2 0x38CB JUMP JUMPDEST PUSH1 0x40 MLOAD DUP1 SWAP2 SUB SWAP1 RETURN JUMPDEST PUSH2 0x6F1 PUSH1 0x4 DUP1 CALLDATASIZE SUB DUP2 ADD SWAP1 PUSH2 0x6EC SWAP2 SWAP1 PUSH2 0x37D2 JUMP JUMPDEST PUSH2 0x1596 JUMP JUMPDEST STOP JUMPDEST PUSH2 0x70D PUSH1 0x4 DUP1 CALLDATASIZE SUB DUP2 ADD SWAP1 PUSH2 0x708 SWAP2 SWAP1 PUSH2 0x37D2 JUMP JUMPDEST PUSH2 0x15E1 JUMP JUMPDEST PUSH1 0x40 MLOAD PUSH2 0x71A SWAP2 SWAP1 PUSH2 0x380C JUMP JUMPDEST PUSH1 0x40 MLOAD DUP1 SWAP2 SUB SWAP1 RETURN JUMPDEST PUSH2 0x73D PUSH1 0x4 DUP1 CALLDATASIZE SUB DUP2 ADD SWAP1 PUSH2 0x738 SWAP2 SWAP1 PUSH2 0x3949 JUMP JUMPDEST PUSH2 0x15F6 JUMP JUMPDEST STOP JUMPDEST PUSH2 0x747 PUSH2 0x2291 JUMP JUMPDEST STOP JUMPDEST PUSH2 0x751 PUSH2 0x22A4 JUMP JUMPDEST PUSH1 0x40 MLOAD PUSH2 0x75E SWAP2 SWAP1 PUSH2 0x38CB JUMP JUMPDEST PUSH1 0x40 MLOAD DUP1 SWAP2 SUB SWAP1 RETURN JUMPDEST PUSH2 0x781 PUSH1 0x4 DUP1 CALLDATASIZE SUB DUP2 ADD SWAP1 PUSH2 0x77C SWAP2 SWAP1 PUSH2 0x39AD JUMP JUMPDEST PUSH2 0x22C9 JUMP JUMPDEST STOP JUMPDEST PUSH2 0x79D PUSH1 0x4 DUP1 CALLDATASIZE SUB DUP2 ADD SWAP1 PUSH2 0x798 SWAP2 SWAP1 PUSH2 0x38E4 JUMP JUMPDEST PUSH2 0x252F JUMP JUMPDEST STOP JUMPDEST PUSH2 0x7B9 PUSH1 0x4 DUP1 CALLDATASIZE SUB DUP2 ADD SWAP1 PUSH2 0x7B4 SWAP2 SWAP1 PUSH2 0x37D2 JUMP JUMPDEST PUSH2 0x257D JUMP JUMPDEST STOP JUMPDEST PUSH2 0x7D5 PUSH1 0x4 DUP1 CALLDATASIZE SUB DUP2 ADD SWAP1 PUSH2 0x7D0 SWAP2 SWAP1 PUSH2 0x37D2 JUMP JUMPDEST PUSH2 0x25C7 JUMP JUMPDEST PUSH1 0x40 MLOAD PUSH2 0x7E2 SWAP2 SWAP1 PUSH2 0x380C JUMP JUMPDEST PUSH1 0x40 MLOAD DUP1 SWAP2 SUB SWAP1 RETURN JUMPDEST PUSH2 0x7F3 PUSH2 0x25DC JUMP JUMPDEST PUSH1 0x40 MLOAD PUSH2 0x800 SWAP2 SWAP1 PUSH2 0x38CB JUMP JUMPDEST PUSH1 0x40 MLOAD DUP1 SWAP2 SUB SWAP1 RETURN JUMPDEST PUSH2 0x823 PUSH1 0x4 DUP1 CALLDATASIZE SUB DUP2 ADD SWAP1 PUSH2 0x81E SWAP2 SWAP1 PUSH2 0x37D2 JUMP JUMPDEST PUSH2 0x2601 JUMP JUMPDEST STOP JUMPDEST PUSH2 0x82D PUSH2 0x26AA JUMP JUMPDEST PUSH1 0x40 MLOAD PUSH2 0x83A SWAP2 SWAP1 PUSH2 0x380C JUMP JUMPDEST PUSH1 0x40 MLOAD DUP1 SWAP2 SUB SWAP1 RETURN JUMPDEST PUSH2 0x84B PUSH2 0x26B0 JUMP JUMPDEST PUSH1 0x40 MLOAD PUSH2 0x858 SWAP2 SWAP1 PUSH2 0x38CB JUMP JUMPDEST PUSH1 0x40 MLOAD DUP1 SWAP2 SUB SWAP1 RETURN JUMPDEST PUSH2 0x87B PUSH1 0x4 DUP1 CALLDATASIZE SUB DUP2 ADD SWAP1 PUSH2 0x876 SWAP2 SWAP1 PUSH2 0x37D2 JUMP JUMPDEST PUSH2 0x26D5 JUMP JUMPDEST PUSH1 0x40 MLOAD PUSH2 0x888 SWAP2 SWAP1 PUSH2 0x380C JUMP JUMPDEST PUSH1 0x40 MLOAD DUP1 SWAP2 SUB SWAP1 RETURN JUMPDEST PUSH2 0x8AB PUSH1 0x4 DUP1 CALLDATASIZE SUB DUP2 ADD SWAP1 PUSH2 0x8A6 SWAP2 SWAP1 PUSH2 0x37D2 JUMP JUMPDEST PUSH2 0x26EA JUMP JUMPDEST PUSH1 0x40 MLOAD PUSH2 0x8B8 SWAP2 SWAP1 PUSH2 0x380C JUMP JUMPDEST PUSH1 0x40 MLOAD DUP1 SWAP2 SUB SWAP1 RETURN JUMPDEST PUSH2 0x8C9 PUSH2 0x26FF JUMP JUMPDEST PUSH1 0x40 MLOAD PUSH2 0x8D6 SWAP2 SWAP1 PUSH2 0x38CB JUMP JUMPDEST PUSH1 0x40 MLOAD DUP1 SWAP2 SUB SWAP1 RETURN JUMPDEST PUSH2 0x8F9 PUSH1 0x4 DUP1 CALLDATASIZE SUB DUP2 ADD SWAP1 PUSH2 0x8F4 SWAP2 SWAP1 PUSH2 0x374D JUMP JUMPDEST PUSH2 0x2734 JUMP JUMPDEST PUSH1 0x40 MLOAD PUSH2 0x906 SWAP2 SWAP1 PUSH2 0x38CB JUMP JUMPDEST PUSH1 0x40 MLOAD DUP1 SWAP2 SUB SWAP1 RETURN JUMPDEST PUSH2 0x929 PUSH1 0x4 DUP1 CALLDATASIZE SUB DUP2 ADD SWAP1 PUSH2 0x924 SWAP2 SWAP1 PUSH2 0x37D2 JUMP JUMPDEST PUSH2 0x276F JUMP JUMPDEST PUSH1 0x40 MLOAD PUSH2 0x936 SWAP2 SWAP1 PUSH2 0x380C JUMP JUMPDEST PUSH1 0x40 MLOAD DUP1 SWAP2 SUB SWAP1 RETURN JUMPDEST PUSH2 0x959 PUSH1 0x4 DUP1 CALLDATASIZE SUB DUP2 ADD SWAP1 PUSH2 0x954 SWAP2 SWAP1 PUSH2 0x374D JUMP JUMPDEST PUSH2 0x2784 JUMP JUMPDEST PUSH1 0x40 MLOAD PUSH2 0x96B SWAP7 SWAP6 SWAP5 SWAP4 SWAP3 SWAP2 SWAP1 PUSH2 0x3BF4 JUMP JUMPDEST PUSH1 0x40 MLOAD DUP1 SWAP2 SUB SWAP1 RETURN JUMPDEST PUSH2 0x98E PUSH1 0x4 DUP1 CALLDATASIZE SUB DUP2 ADD SWAP1 PUSH2 0x989 SWAP2 SWAP1 PUSH2 0x37D2 JUMP JUMPDEST PUSH2 0x2C85 JUMP JUMPDEST STOP JUMPDEST PUSH2 0x9AA PUSH1 0x4 DUP1 CALLDATASIZE SUB DUP2 ADD SWAP1 PUSH2 0x9A5 SWAP2 SWAP1 PUSH2 0x37D2 JUMP JUMPDEST PUSH2 0x2CD0 JUMP JUMPDEST PUSH1 0x40 MLOAD PUSH2 0x9B7 SWAP2 SWAP1 PUSH2 0x380C JUMP JUMPDEST PUSH1 0x40 MLOAD DUP1 SWAP2 SUB SWAP1 RETURN JUMPDEST PUSH2 0x9DA PUSH1 0x4 DUP1 CALLDATASIZE SUB DUP2 ADD SWAP1 PUSH2 0x9D5 SWAP2 SWAP1 PUSH2 0x37D2 JUMP JUMPDEST PUSH2 0x2CE5 JUMP JUMPDEST PUSH1 0x40 MLOAD PUSH2 0x9E7 SWAP2 SWAP1 PUSH2 0x380C JUMP JUMPDEST PUSH1 0x40 MLOAD DUP1 SWAP2 SUB SWAP1 RETURN JUMPDEST PUSH2 0x9F8 PUSH2 0x2CFA JUMP JUMPDEST PUSH1 0x40 MLOAD PUSH2 0xA05 SWAP2 SWAP1 PUSH2 0x380C JUMP JUMPDEST PUSH1 0x40 MLOAD DUP1 SWAP2 SUB SWAP1 RETURN JUMPDEST PUSH2 0xA16 PUSH2 0x2D00 JUMP JUMPDEST PUSH1 0x40 MLOAD PUSH2 0xA23 SWAP2 SWAP1 PUSH2 0x380C JUMP JUMPDEST PUSH1 0x40 MLOAD DUP1 SWAP2 SUB SWAP1 RETURN JUMPDEST PUSH2 0xA46 PUSH1 0x4 DUP1 CALLDATASIZE SUB DUP2 ADD SWAP1 PUSH2 0xA41 SWAP2 SWAP1 PUSH2 0x3CA7 JUMP JUMPDEST PUSH2 0x2D06 JUMP JUMPDEST STOP JUMPDEST PUSH2 0xA50 PUSH2 0x2D45 JUMP JUMPDEST PUSH1 0x40 MLOAD PUSH2 0xA5D SWAP2 SWAP1 PUSH2 0x38CB JUMP JUMPDEST PUSH1 0x40 MLOAD DUP1 SWAP2 SUB SWAP1 RETURN JUMPDEST PUSH2 0xA80 PUSH1 0x4 DUP1 CALLDATASIZE SUB DUP2 ADD SWAP1 PUSH2 0xA7B SWAP2 SWAP1 PUSH2 0x37D2 JUMP JUMPDEST PUSH2 0x2D68 JUMP JUMPDEST PUSH1 0x40 MLOAD PUSH2 0xA8D SWAP2 SWAP1 PUSH2 0x380C JUMP JUMPDEST PUSH1 0x40 MLOAD DUP1 SWAP2 SUB SWAP1 RETURN JUMPDEST PUSH2 0xA9E PUSH2 0x2D7D JUMP JUMPDEST STOP JUMPDEST PUSH2 0xABA PUSH1 0x4 DUP1 CALLDATASIZE SUB DUP2 ADD SWAP1 PUSH2 0xAB5 SWAP2 SWAP1 PUSH2 0x37D2 JUMP JUMPDEST PUSH2 0x2DC4 JUMP JUMPDEST STOP JUMPDEST PUSH2 0xAD6 PUSH1 0x4 DUP1 CALLDATASIZE SUB DUP2 ADD SWAP1 PUSH2 0xAD1 SWAP2 SWAP1 PUSH2 0x38E4 JUMP JUMPDEST PUSH2 0x32AB JUMP JUMPDEST STOP JUMPDEST PUSH2 0xAF2 PUSH1 0x4 DUP1 CALLDATASIZE SUB DUP2 ADD SWAP1 PUSH2 0xAED SWAP2 SWAP1 PUSH2 0x37D2 JUMP JUMPDEST PUSH2 0x32F9 JUMP JUMPDEST PUSH1 0x40 MLOAD PUSH2 0xAFF SWAP2 SWAP1 PUSH2 0x380C JUMP JUMPDEST PUSH1 0x40 MLOAD DUP1 SWAP2 SUB SWAP1 RETURN JUMPDEST PUSH2 0xB10 PUSH2 0x330E JUMP JUMPDEST PUSH1 0x40 MLOAD PUSH2 0xB1D SWAP2 SWAP1 PUSH2 0x38CB JUMP JUMPDEST PUSH1 0x40 MLOAD DUP1 SWAP2 SUB SWAP1 RETURN JUMPDEST PUSH2 0xB2E PUSH2 0x3333 JUMP JUMPDEST PUSH1 0x40 MLOAD PUSH2 0xB3B SWAP2 SWAP1 PUSH2 0x38A3 JUMP JUMPDEST PUSH1 0x40 MLOAD DUP1 SWAP2 SUB SWAP1 RETURN JUMPDEST PUSH2 0xB4C PUSH2 0x3346 JUMP JUMPDEST PUSH1 0x40 MLOAD PUSH2 0xB59 SWAP2 SWAP1 PUSH2 0x3D6F JUMP JUMPDEST PUSH1 0x40 MLOAD DUP1 SWAP2 SUB SWAP1 RETURN JUMPDEST PUSH2 0xB7C PUSH1 0x4 DUP1 CALLDATASIZE SUB DUP2 ADD SWAP1 PUSH2 0xB77 SWAP2 SWAP1 PUSH2 0x37D2 JUMP JUMPDEST PUSH2 0x33D2 JUMP JUMPDEST STOP JUMPDEST PUSH2 0xB86 PUSH2 0x3456 JUMP JUMPDEST PUSH1 0x40 MLOAD PUSH2 0xB93 SWAP2 SWAP1 PUSH2 0x38A3 JUMP JUMPDEST PUSH1 0x40 MLOAD DUP1 SWAP2 SUB SWAP1 RETURN JUMPDEST PUSH2 0xBA4 PUSH2 0x3468 JUMP JUMPDEST PUSH1 0x40 MLOAD PUSH2 0xBB1 SWAP2 SWAP1 PUSH2 0x380C JUMP JUMPDEST PUSH1 0x40 MLOAD DUP1 SWAP2 SUB SWAP1 RETURN JUMPDEST PUSH2 0xBC2 PUSH2 0x3474 JUMP JUMPDEST DUP1 PUSH1 0x9 DUP2 SWAP1 SSTORE POP POP JUMP JUMPDEST PUSH1 0x15 PUSH1 0x20 MSTORE DUP1 PUSH0 MSTORE PUSH1 0x40 PUSH0 KECCAK256 PUSH0 SWAP2 POP SWAP1 POP SLOAD DUP2 JUMP JUMPDEST PUSH2 0xBE9 PUSH2 0x3474 JUMP JUMPDEST DUP1 PUSH1 0x1 PUSH0 PUSH2 0x100 EXP DUP2 SLOAD DUP2 PUSH20 0xFFFFFFFFFFFFFFFFFFFFFFFFFFFFFFFFFFFFFFFF MUL NOT AND SWAP1 DUP4 PUSH20 0xFFFFFFFFFFFFFFFFFFFFFFFFFFFFFFFFFFFFFFFF AND MUL OR SWAP1 SSTORE POP POP JUMP JUMPDEST PUSH2 0xC34 PUSH2 0x3474 JUMP JUMPDEST DUP3 PUSH1 0xF PUSH0 DUP7 PUSH20 0xFFFFFFFFFFFFFFFFFFFFFFFFFFFFFFFFFFFFFFFF AND PUSH20 0xFFFFFFFFFFFFFFFFFFFFFFFFFFFFFFFFFFFFFFFF AND DUP2 MSTORE PUSH1 0x20 ADD SWAP1 DUP2 MSTORE PUSH1 0x20 ADD PUSH0 KECCAK256 DUP2 SWAP1 SSTORE POP DUP2 PUSH1 0x10 PUSH0 DUP7 PUSH20 0xFFFFFFFFFFFFFFFFFFFFFFFFFFFFFFFFFFFFFFFF AND PUSH20 0xFFFFFFFFFFFFFFFFFFFFFFFFFFFFFFFFFFFFFFFF AND DUP2 MSTORE PUSH1 0x20 ADD SWAP1 DUP2 MSTORE PUSH1 0x20 ADD PUSH0 KECCAK256 DUP2 SWAP1 SSTORE POP DUP1 PUSH1 0x11 PUSH0 DUP7 PUSH20 0xFFFFFFFFFFFFFFFFFFFFFFFFFFFFFFFFFFFFFFFF AND PUSH20 0xFFFFFFFFFFFFFFFFFFFFFFFFFFFFFFFFFFFFFFFF AND DUP2 MSTORE PUSH1 0x20 ADD SWAP1 DUP2 MSTORE PUSH1 0x20 ADD PUSH0 KECCAK256 DUP2 SWAP1 SSTORE POP POP POP POP POP JUMP JUMPDEST PUSH2 0xD08 PUSH2 0x3474 JUMP JUMPDEST PUSH0 PUSH1 0xF PUSH0 DUP4 PUSH20 0xFFFFFFFFFFFFFFFFFFFFFFFFFFFFFFFFFFFFFFFF AND PUSH20 0xFFFFFFFFFFFFFFFFFFFFFFFFFFFFFFFFFFFFFFFF AND DUP2 MSTORE PUSH1 0x20 ADD SWAP1 DUP2 MSTORE PUSH1 0x20 ADD PUSH0 KECCAK256 DUP2 SWAP1 SSTORE POP PUSH0 PUSH1 0x10 PUSH0 DUP4 PUSH20 0xFFFFFFFFFFFFFFFFFFFFFFFFFFFFFFFFFFFFFFFF AND PUSH20 0xFFFFFFFFFFFFFFFFFFFFFFFFFFFFFFFFFFFFFFFF AND DUP2 MSTORE PUSH1 0x20 ADD SWAP1 DUP2 MSTORE PUSH1 0x20 ADD PUSH0 KECCAK256 DUP2 SWAP1 SSTORE POP PUSH0 PUSH1 0x11 PUSH0 DUP4 PUSH20 0xFFFFFFFFFFFFFFFFFFFFFFFFFFFFFFFFFFFFFFFF AND PUSH20 0xFFFFFFFFFFFFFFFFFFFFFFFFFFFFFFFFFFFFFFFF AND DUP2 MSTORE PUSH1 0x20 ADD SWAP1 DUP2 MSTORE PUSH1 0x20 ADD PUSH0 KECCAK256 DUP2 SWAP1 SSTORE POP PUSH0 PUSH1 0x12 PUSH0 DUP4 PUSH20 0xFFFFFFFFFFFFFFFFFFFFFFFFFFFFFFFFFFFFFFFF AND PUSH20 0xFFFFFFFFFFFFFFFFFFFFFFFFFFFFFFFFFFFFFFFF AND DUP2 MSTORE PUSH1 0x20 ADD SWAP1 DUP2 MSTORE PUSH1 0x20 ADD PUSH0 KECCAK256 DUP2 SWAP1 SSTORE POP PUSH0 PUSH1 0x13 PUSH0 DUP4 PUSH20 0xFFFFFFFFFFFFFFFFFFFFFFFFFFFFFFFFFFFFFFFF AND PUSH20 0xFFFFFFFFFFFFFFFFFFFFFFFFFFFFFFFFFFFFFFFF AND DUP2 MSTORE PUSH1 0x20 ADD SWAP1 DUP2 MSTORE PUSH1 0x20 ADD PUSH0 KECCAK256 DUP2 SWAP1 SSTORE POP PUSH0 PUSH1 0x14 PUSH0 DUP4 PUSH20 0xFFFFFFFFFFFFFFFFFFFFFFFFFFFFFFFFFFFFFFFF AND PUSH20 0xFFFFFFFFFFFFFFFFFFFFFFFFFFFFFFFFFFFFFFFF AND DUP2 MSTORE PUSH1 0x20 ADD SWAP1 DUP2 MSTORE PUSH1 0x20 ADD PUSH0 KECCAK256 DUP2 SWAP1 SSTORE POP PUSH0 PUSH1 0x16 PUSH0 DUP4 PUSH20 0xFFFFFFFFFFFFFFFFFFFFFFFFFFFFFFFFFFFFFFFF AND PUSH20 0xFFFFFFFFFFFFFFFFFFFFFFFFFFFFFFFFFFFFFFFF AND DUP2 MSTORE PUSH1 0x20 ADD SWAP1 DUP2 MSTORE PUSH1 0x20 ADD PUSH0 KECCAK256 DUP2 SWAP1 SSTORE POP PUSH0 PUSH1 0x15 PUSH0 DUP4 PUSH20 0xFFFFFFFFFFFFFFFFFFFFFFFFFFFFFFFFFFFFFFFF AND PUSH20 0xFFFFFFFFFFFFFFFFFFFFFFFFFFFFFFFFFFFFFFFF AND DUP2 MSTORE PUSH1 0x20 ADD SWAP1 DUP2 MSTORE PUSH1 0x20 ADD PUSH0 KECCAK256 DUP2 SWAP1 SSTORE POP PUSH0 PUSH1 0x18 PUSH0 DUP4 PUSH20 0xFFFFFFFFFFFFFFFFFFFFFFFFFFFFFFFFFFFFFFFF AND PUSH20 0xFFFFFFFFFFFFFFFFFFFFFFFFFFFFFFFFFFFFFFFF AND DUP2 MSTORE PUSH1 0x20 ADD SWAP1 DUP2 MSTORE PUSH1 0x20 ADD PUSH0 KECCAK256 DUP2 SWAP1 SSTORE POP POP JUMP JUMPDEST PUSH1 0x17 PUSH1 0x20 MSTORE DUP1 PUSH0 MSTORE PUSH1 0x40 PUSH0 KECCAK256 PUSH0 SWAP2 POP SLOAD SWAP1 PUSH2 0x100 EXP SWAP1 DIV PUSH1 0xFF AND DUP2 JUMP JUMPDEST PUSH1 0x13 PUSH1 0x20 MSTORE DUP1 PUSH0 MSTORE PUSH1 0x40 PUSH0 KECCAK256 PUSH0 SWAP2 POP SWAP1 POP SLOAD DUP2 JUMP JUMPDEST PUSH2 0xF97 PUSH2 0x3474 JUMP JUMPDEST DUP1 PUSH1 0x1A PUSH0 PUSH2 0x100 EXP DUP2 SLOAD DUP2 PUSH20 0xFFFFFFFFFFFFFFFFFFFFFFFFFFFFFFFFFFFFFFFF MUL NOT AND SWAP1 DUP4 PUSH20 0xFFFFFFFFFFFFFFFFFFFFFFFFFFFFFFFFFFFFFFFF AND MUL OR SWAP1 SSTORE POP POP JUMP JUMPDEST PUSH1 0x8 SLOAD DUP2 JUMP JUMPDEST PUSH1 0xE PUSH1 0x20 MSTORE DUP1 PUSH0 MSTORE PUSH1 0x40 PUSH0 KECCAK256 PUSH0 SWAP2 POP SWAP1 POP SLOAD DUP2 JUMP JUMPDEST PUSH1 0x1F PUSH0 SWAP1 SLOAD SWAP1 PUSH2 0x100 EXP SWAP1 DIV PUSH20 0xFFFFFFFFFFFFFFFFFFFFFFFFFFFFFFFFFFFFFFFF AND DUP2 JUMP JUMPDEST PUSH1 0x1C PUSH1 0x20 MSTORE DUP1 PUSH0 MSTORE PUSH1 0x40 PUSH0 KECCAK256 PUSH0 SWAP2 POP SWAP1 POP SLOAD DUP2 JUMP JUMPDEST PUSH2 0x1037 PUSH2 0x3474 JUMP JUMPDEST DUP1 PUSH1 0x3 PUSH0 PUSH2 0x100 EXP DUP2 SLOAD DUP2 PUSH20 0xFFFFFFFFFFFFFFFFFFFFFFFFFFFFFFFFFFFFFFFF MUL NOT AND SWAP1 DUP4 PUSH20 0xFFFFFFFFFFFFFFFFFFFFFFFFFFFFFFFFFFFFFFFF AND MUL OR SWAP1 SSTORE POP POP JUMP JUMPDEST PUSH2 0x1082 PUSH2 0x3474 JUMP JUMPDEST DUP1 PUSH1 0x1D PUSH0 DUP5 PUSH20 0xFFFFFFFFFFFFFFFFFFFFFFFFFFFFFFFFFFFFFFFF AND PUSH20 0xFFFFFFFFFFFFFFFFFFFFFFFFFFFFFFFFFFFFFFFF AND DUP2 MSTORE PUSH1 0x20 ADD SWAP1 DUP2 MSTORE PUSH1 0x20 ADD PUSH0 KECCAK256 DUP2 SWAP1 SSTORE POP POP POP JUMP JUMPDEST PUSH1 0xC PUSH1 0x20 MSTORE DUP1 PUSH0 MSTORE PUSH1 0x40 PUSH0 KECCAK256 PUSH0 SWAP2 POP SLOAD SWAP1 PUSH2 0x100 EXP SWAP1 DIV PUSH20 0xFFFFFFFFFFFFFFFFFFFFFFFFFFFFFFFFFFFFFFFF AND DUP2 JUMP JUMPDEST PUSH0 PUSH1 0xF PUSH0 DUP4 PUSH20 0xFFFFFFFFFFFFFFFFFFFFFFFFFFFFFFFFFFFFFFFF AND PUSH20 0xFFFFFFFFFFFFFFFFFFFFFFFFFFFFFFFFFFFFFFFF AND DUP2 MSTORE PUSH1 0x20 ADD SWAP1 DUP2 MSTORE PUSH1 0x20 ADD PUSH0 KECCAK256 DUP2 SWAP1 SSTORE POP PUSH0 PUSH1 0x10 PUSH0 DUP4 PUSH20 0xFFFFFFFFFFFFFFFFFFFFFFFFFFFFFFFFFFFFFFFF AND PUSH20 0xFFFFFFFFFFFFFFFFFFFFFFFFFFFFFFFFFFFFFFFF AND DUP2 MSTORE PUSH1 0x20 ADD SWAP1 DUP2 MSTORE PUSH1 0x20 ADD PUSH0 KECCAK256 DUP2 SWAP1 SSTORE POP PUSH0 PUSH1 0x11 PUSH0 DUP4 PUSH20 0xFFFFFFFFFFFFFFFFFFFFFFFFFFFFFFFFFFFFFFFF AND PUSH20 0xFFFFFFFFFFFFFFFFFFFFFFFFFFFFFFFFFFFFFFFF AND DUP2 MSTORE PUSH1 0x20 ADD SWAP1 DUP2 MSTORE PUSH1 0x20 ADD PUSH0 KECCAK256 DUP2 SWAP1 SSTORE POP PUSH0 PUSH1 0x12 PUSH0 DUP4 PUSH20 0xFFFFFFFFFFFFFFFFFFFFFFFFFFFFFFFFFFFFFFFF AND PUSH20 0xFFFFFFFFFFFFFFFFFFFFFFFFFFFFFFFFFFFFFFFF AND DUP2 MSTORE PUSH1 0x20 ADD SWAP1 DUP2 MSTORE PUSH1 0x20 ADD PUSH0 KECCAK256 DUP2 SWAP1 SSTORE POP PUSH0 PUSH1 0x13 PUSH0 DUP4 PUSH20 0xFFFFFFFFFFFFFFFFFFFFFFFFFFFFFFFFFFFFFFFF AND PUSH20 0xFFFFFFFFFFFFFFFFFFFFFFFFFFFFFFFFFFFFFFFF AND DUP2 MSTORE PUSH1 0x20 ADD SWAP1 DUP2 MSTORE PUSH1 0x20 ADD PUSH0 KECCAK256 DUP2 SWAP1 SSTORE POP PUSH0 PUSH1 0x14 PUSH0 DUP4 PUSH20 0xFFFFFFFFFFFFFFFFFFFFFFFFFFFFFFFFFFFFFFFF AND PUSH20 0xFFFFFFFFFFFFFFFFFFFFFFFFFFFFFFFFFFFFFFFF AND DUP2 MSTORE PUSH1 0x20 ADD SWAP1 DUP2 MSTORE PUSH1 0x20 ADD PUSH0 KECCAK256 DUP2 SWAP1 SSTORE POP PUSH0 PUSH1 0x16 PUSH0 DUP4 PUSH20 0xFFFFFFFFFFFFFFFFFFFFFFFFFFFFFFFFFFFFFFFF AND PUSH20 0xFFFFFFFFFFFFFFFFFFFFFFFFFFFFFFFFFFFFFFFF AND DUP2 MSTORE PUSH1 0x20 ADD SWAP1 DUP2 MSTORE PUSH1 0x20 ADD PUSH0 KECCAK256 DUP2 SWAP1 SSTORE POP PUSH0 PUSH1 0x15 PUSH0 DUP4 PUSH20 0xFFFFFFFFFFFFFFFFFFFFFFFFFFFFFFFFFFFFFFFF AND PUSH20 0xFFFFFFFFFFFFFFFFFFFFFFFFFFFFFFFFFFFFFFFF AND DUP2 MSTORE PUSH1 0x20 ADD SWAP1 DUP2 MSTORE PUSH1 0x20 ADD PUSH0 KECCAK256 DUP2 SWAP1 SSTORE POP PUSH0 PUSH1 0x18 PUSH0 DUP4 PUSH20 0xFFFFFFFFFFFFFFFFFFFFFFFFFFFFFFFFFFFFFFFF AND PUSH20 0xFFFFFFFFFFFFFFFFFFFFFFFFFFFFFFFFFFFFFFFF AND DUP2 MSTORE PUSH1 0x20 ADD SWAP1 DUP2 MSTORE PUSH1 0x20 ADD PUSH0 KECCAK256 DUP2 SWAP1 SSTORE POP POP JUMP JUMPDEST PUSH2 0x1355 PUSH2 0x3474 JUMP JUMPDEST DUP1 PUSH1 0x4 PUSH0 PUSH2 0x100 EXP DUP2 SLOAD DUP2 PUSH20 0xFFFFFFFFFFFFFFFFFFFFFFFFFFFFFFFFFFFFFFFF MUL NOT AND SWAP1 DUP4 PUSH20 0xFFFFFFFFFFFFFFFFFFFFFFFFFFFFFFFFFFFFFFFF AND MUL OR SWAP1 SSTORE POP POP JUMP JUMPDEST PUSH1 0x1A PUSH0 SWAP1 SLOAD SWAP1 PUSH2 0x100 EXP SWAP1 DIV PUSH20 0xFFFFFFFFFFFFFFFFFFFFFFFFFFFFFFFFFFFFFFFF AND DUP2 JUMP JUMPDEST PUSH0 DUP1 PUSH1 0x1E DUP1 SLOAD SWAP1 POP DUP4 LT PUSH2 0x1406 JUMPI PUSH1 0x40 MLOAD PUSH32 0x8C379A000000000000000000000000000000000000000000000000000000000 DUP2 MSTORE PUSH1 0x4 ADD PUSH2 0x13FD SWAP1 PUSH2 0x3DD9 JUMP JUMPDEST PUSH1 0x40 MLOAD DUP1 SWAP2 SUB SWAP1 REVERT JUMPDEST PUSH0 PUSH1 0x1E DUP5 DUP2 SLOAD DUP2 LT PUSH2 0x141B JUMPI PUSH2 0x141A PUSH2 0x3DF7 JUMP JUMPDEST JUMPDEST SWAP1 PUSH0 MSTORE PUSH1 0x20 PUSH0 KECCAK256 ADD PUSH0 SWAP1 SLOAD SWAP1 PUSH2 0x100 EXP SWAP1 DIV PUSH20 0xFFFFFFFFFFFFFFFFFFFFFFFFFFFFFFFFFFFFFFFF AND SWAP1 POP DUP1 SWAP2 POP PUSH1 0xC PUSH0 DUP3 PUSH20 0xFFFFFFFFFFFFFFFFFFFFFFFFFFFFFFFFFFFFFFFF AND PUSH20 0xFFFFFFFFFFFFFFFFFFFFFFFFFFFFFFFFFFFFFFFF AND DUP2 MSTORE PUSH1 0x20 ADD SWAP1 DUP2 MSTORE PUSH1 0x20 ADD PUSH0 KECCAK256 PUSH0 SWAP1 SLOAD SWAP1 PUSH2 0x100 EXP SWAP1 DIV PUSH20 0xFFFFFFFFFFFFFFFFFFFFFFFFFFFFFFFFFFFFFFFF AND SWAP3 POP POP SWAP2 POP SWAP2 JUMP JUMPDEST PUSH1 0x9 SLOAD DUP2 JUMP JUMPDEST PUSH1 0x4 PUSH0 SWAP1 SLOAD SWAP1 PUSH2 0x100 EXP SWAP1 DIV PUSH20 0xFFFFFFFFFFFFFFFFFFFFFFFFFFFFFFFFFFFFFFFF AND DUP2 JUMP JUMPDEST PUSH2 0x14E0 PUSH2 0x3474 JUMP JUMPDEST CALLER PUSH20 0xFFFFFFFFFFFFFFFFFFFFFFFFFFFFFFFFFFFFFFFF AND PUSH2 0x8FC SELFBALANCE SWAP1 DUP2 ISZERO MUL SWAP1 PUSH1 0x40 MLOAD PUSH0 PUSH1 0x40 MLOAD DUP1 DUP4 SUB DUP2 DUP6 DUP9 DUP9 CALL SWAP4 POP POP POP POP ISZERO DUP1 ISZERO PUSH2 0x1523 JUMPI RETURNDATASIZE PUSH0 DUP1 RETURNDATACOPY RETURNDATASIZE PUSH0 REVERT JUMPDEST POP JUMP JUMPDEST PUSH2 0x152E PUSH2 0x3474 JUMP JUMPDEST DUP1 PUSH1 0x5 PUSH0 PUSH2 0x100 EXP DUP2 SLOAD DUP2 PUSH20 0xFFFFFFFFFFFFFFFFFFFFFFFFFFFFFFFFFFFFFFFF MUL NOT AND SWAP1 DUP4 PUSH20 0xFFFFFFFFFFFFFFFFFFFFFFFFFFFFFFFFFFFFFFFF AND MUL OR SWAP1 SSTORE POP POP JUMP JUMPDEST PUSH1 0x5 PUSH0 SWAP1 SLOAD SWAP1 PUSH2 0x100 EXP SWAP1 DIV PUSH20 0xFFFFFFFFFFFFFFFFFFFFFFFFFFFFFFFFFFFFFFFF AND DUP2 JUMP JUMPDEST PUSH2 0x159E PUSH2 0x3474 JUMP JUMPDEST DUP1 PUSH1 0x2 PUSH0 PUSH2 0x100 EXP DUP2 SLOAD DUP2 PUSH20 0xFFFFFFFFFFFFFFFFFFFFFFFFFFFFFFFFFFFFFFFF MUL NOT AND SWAP1 DUP4 PUSH20 0xFFFFFFFFFFFFFFFFFFFFFFFFFFFFFFFFFFFFFFFF AND MUL OR SWAP1 SSTORE POP POP JUMP JUMPDEST PUSH1 0x18 PUSH1 0x20 MSTORE DUP1 PUSH0 MSTORE PUSH1 0x40 PUSH0 KECCAK256 PUSH0 SWAP2 POP SWAP1 POP SLOAD DUP2 JUMP JUMPDEST PUSH1 0xA PUSH0 SWAP1 SLOAD SWAP1 PUSH2 0x100 EXP SWAP1 DIV PUSH1 0xFF AND PUSH2 0x1644 JUMPI PUSH1 0x40 MLOAD PUSH32 0x8C379A000000000000000000000000000000000000000000000000000000000 DUP2 MSTORE PUSH1 0x4 ADD PUSH2 0x163B SWAP1 PUSH2 0x3E6E JUMP JUMPDEST PUSH1 0x40 MLOAD DUP1 SWAP2 SUB SWAP1 REVERT JUMPDEST CALLER PUSH20 0xFFFFFFFFFFFFFFFFFFFFFFFFFFFFFFFFFFFFFFFF AND DUP3 PUSH20 0xFFFFFFFFFFFFFFFFFFFFFFFFFFFFFFFFFFFFFFFF AND SUB PUSH2 0x16B2 JUMPI PUSH1 0x40 MLOAD PUSH32 0x8C379A000000000000000000000000000000000000000000000000000000000 DUP2 MSTORE PUSH1 0x4 ADD PUSH2 0x16A9 SWAP1 PUSH2 0x3ED6 JUMP JUMPDEST PUSH1 0x40 MLOAD DUP1 SWAP2 SUB SWAP1 REVERT JUMPDEST PUSH0 PUSH1 0xF PUSH0 CALLER PUSH20 0xFFFFFFFFFFFFFFFFFFFFFFFFFFFFFFFFFFFFFFFF AND PUSH20 0xFFFFFFFFFFFFFFFFFFFFFFFFFFFFFFFFFFFFFFFF AND DUP2 MSTORE PUSH1 0x20 ADD SWAP1 DUP2 MSTORE PUSH1 0x20 ADD PUSH0 KECCAK256 SLOAD EQ PUSH2 0x1731 JUMPI PUSH1 0x40 MLOAD PUSH32 0x8C379A000000000000000000000000000000000000000000000000000000000 DUP2 MSTORE PUSH1 0x4 ADD PUSH2 0x1728 SWAP1 PUSH2 0x3F3E JUMP JUMPDEST PUSH1 0x40 MLOAD DUP1 SWAP2 SUB SWAP1 REVERT JUMPDEST PUSH0 PUSH1 0x10 PUSH0 CALLER PUSH20 0xFFFFFFFFFFFFFFFFFFFFFFFFFFFFFFFFFFFFFFFF AND PUSH20 0xFFFFFFFFFFFFFFFFFFFFFFFFFFFFFFFFFFFFFFFF AND DUP2 MSTORE PUSH1 0x20 ADD SWAP1 DUP2 MSTORE PUSH1 0x20 ADD PUSH0 KECCAK256 SLOAD EQ PUSH2 0x17B0 JUMPI PUSH1 0x40 MLOAD PUSH32 0x8C379A000000000000000000000000000000000000000000000000000000000 DUP2 MSTORE PUSH1 0x4 ADD PUSH2 0x17A7 SWAP1 PUSH2 0x3FA6 JUMP JUMPDEST PUSH1 0x40 MLOAD DUP1 SWAP2 SUB SWAP1 REVERT JUMPDEST PUSH0 PUSH1 0x11 PUSH0 CALLER PUSH20 0xFFFFFFFFFFFFFFFFFFFFFFFFFFFFFFFFFFFFFFFF AND PUSH20 0xFFFFFFFFFFFFFFFFFFFFFFFFFFFFFFFFFFFFFFFF AND DUP2 MSTORE PUSH1 0x20 ADD SWAP1 DUP2 MSTORE PUSH1 0x20 ADD PUSH0 KECCAK256 SLOAD EQ PUSH2 0x182F JUMPI PUSH1 0x40 MLOAD PUSH32 0x8C379A000000000000000000000000000000000000000000000000000000000 DUP2 MSTORE PUSH1 0x4 ADD PUSH2 0x1826 SWAP1 PUSH2 0x400E JUMP JUMPDEST PUSH1 0x40 MLOAD DUP1 SWAP2 SUB SWAP1 REVERT JUMPDEST PUSH0 DUP5 GT PUSH2 0x1871 JUMPI PUSH1 0x40 MLOAD PUSH32 0x8C379A000000000000000000000000000000000000000000000000000000000 DUP2 MSTORE PUSH1 0x4 ADD PUSH2 0x1868 SWAP1 PUSH2 0x4076 JUMP JUMPDEST PUSH1 0x40 MLOAD DUP1 SWAP2 SUB SWAP1 REVERT JUMPDEST PUSH0 DUP4 GT PUSH2 0x18B3 JUMPI PUSH1 0x40 MLOAD PUSH32 0x8C379A000000000000000000000000000000000000000000000000000000000 DUP2 MSTORE PUSH1 0x4 ADD PUSH2 0x18AA SWAP1 PUSH2 0x40DE JUMP JUMPDEST PUSH1 0x40 MLOAD DUP1 SWAP2 SUB SWAP1 REVERT JUMPDEST PUSH1 0x6 SLOAD DUP2 EQ DUP1 PUSH2 0x18C4 JUMPI POP PUSH1 0x7 SLOAD DUP2 EQ JUMPDEST DUP1 PUSH2 0x18D0 JUMPI POP PUSH1 0x8 SLOAD DUP2 EQ JUMPDEST PUSH2 0x190F JUMPI PUSH1 0x40 MLOAD PUSH32 0x8C379A000000000000000000000000000000000000000000000000000000000 DUP2 MSTORE PUSH1 0x4 ADD PUSH2 0x1906 SWAP1 PUSH2 0x4146 JUMP JUMPDEST PUSH1 0x40 MLOAD DUP1 SWAP2 SUB SWAP1 REVERT JUMPDEST PUSH0 PUSH20 0xFFFFFFFFFFFFFFFFFFFFFFFFFFFFFFFFFFFFFFFF AND DUP3 PUSH20 0xFFFFFFFFFFFFFFFFFFFFFFFFFFFFFFFFFFFFFFFF AND EQ PUSH2 0x1A72 JUMPI DUP2 PUSH1 0xC PUSH0 CALLER PUSH20 0xFFFFFFFFFFFFFFFFFFFFFFFFFFFFFFFFFFFFFFFF AND PUSH20 0xFFFFFFFFFFFFFFFFFFFFFFFFFFFFFFFFFFFFFFFF AND DUP2 MSTORE PUSH1 0x20 ADD SWAP1 DUP2 MSTORE PUSH1 0x20 ADD PUSH0 KECCAK256 PUSH0 PUSH2 0x100 EXP DUP2 SLOAD DUP2 PUSH20 0xFFFFFFFFFFFFFFFFFFFFFFFFFFFFFFFFFFFFFFFF MUL NOT AND SWAP1 DUP4 PUSH20 0xFFFFFFFFFFFFFFFFFFFFFFFFFFFFFFFFFFFFFFFF AND MUL OR SWAP1 SSTORE POP PUSH1 0x1 PUSH1 0xE PUSH0 DUP5 PUSH20 0xFFFFFFFFFFFFFFFFFFFFFFFFFFFFFFFFFFFFFFFF AND PUSH20 0xFFFFFFFFFFFFFFFFFFFFFFFFFFFFFFFFFFFFFFFF AND DUP2 MSTORE PUSH1 0x20 ADD SWAP1 DUP2 MSTORE PUSH1 0x20 ADD PUSH0 KECCAK256 PUSH0 DUP3 DUP3 SLOAD PUSH2 0x1A0A SWAP2 SWAP1 PUSH2 0x4191 JUMP JUMPDEST SWAP3 POP POP DUP2 SWAP1 SSTORE POP PUSH1 0x1E CALLER SWAP1 DUP1 PUSH1 0x1 DUP2 SLOAD ADD DUP1 DUP3 SSTORE DUP1 SWAP2 POP POP PUSH1 0x1 SWAP1 SUB SWAP1 PUSH0 MSTORE PUSH1 0x20 PUSH0 KECCAK256 ADD PUSH0 SWAP1 SWAP2 SWAP1 SWAP2 SWAP1 SWAP2 PUSH2 0x100 EXP DUP2 SLOAD DUP2 PUSH20 0xFFFFFFFFFFFFFFFFFFFFFFFFFFFFFFFFFFFFFFFF MUL NOT AND SWAP1 DUP4 PUSH20 0xFFFFFFFFFFFFFFFFFFFFFFFFFFFFFFFFFFFFFFFF AND MUL OR SWAP1 SSTORE POP JUMPDEST PUSH1 0x3 PUSH0 SWAP1 SLOAD SWAP1 PUSH2 0x100 EXP SWAP1 DIV PUSH20 0xFFFFFFFFFFFFFFFFFFFFFFFFFFFFFFFFFFFFFFFF AND PUSH20 0xFFFFFFFFFFFFFFFFFFFFFFFFFFFFFFFFFFFFFFFF AND PUSH4 0x23B872DD CALLER ADDRESS DUP8 PUSH1 0x40 MLOAD DUP5 PUSH4 0xFFFFFFFF AND PUSH1 0xE0 SHL DUP2 MSTORE PUSH1 0x4 ADD PUSH2 0x1AD0 SWAP4 SWAP3 SWAP2 SWAP1 PUSH2 0x41C4 JUMP JUMPDEST PUSH1 0x20 PUSH1 0x40 MLOAD DUP1 DUP4 SUB DUP2 PUSH0 DUP8 GAS CALL ISZERO DUP1 ISZERO PUSH2 0x1AEC JUMPI RETURNDATASIZE PUSH0 DUP1 RETURNDATACOPY RETURNDATASIZE PUSH0 REVERT JUMPDEST POP POP POP POP PUSH1 0x40 MLOAD RETURNDATASIZE PUSH1 0x1F NOT PUSH1 0x1F DUP3 ADD AND DUP3 ADD DUP1 PUSH1 0x40 MSTORE POP DUP2 ADD SWAP1 PUSH2 0x1B10 SWAP2 SWAP1 PUSH2 0x420D JUMP JUMPDEST POP PUSH1 0x3 PUSH0 SWAP1 SLOAD SWAP1 PUSH2 0x100 EXP SWAP1 DIV PUSH20 0xFFFFFFFFFFFFFFFFFFFFFFFFFFFFFFFFFFFFFFFF AND PUSH20 0xFFFFFFFFFFFFFFFFFFFFFFFFFFFFFFFFFFFFFFFF AND PUSH4 0xA9059CBB PUSH1 0x5 PUSH0 SWAP1 SLOAD SWAP1 PUSH2 0x100 EXP SWAP1 DIV PUSH20 0xFFFFFFFFFFFFFFFFFFFFFFFFFFFFFFFFFFFFFFFF AND DUP7 PUSH1 0x40 MLOAD DUP4 PUSH4 0xFFFFFFFF AND PUSH1 0xE0 SHL DUP2 MSTORE PUSH1 0x4 ADD PUSH2 0x1B8E SWAP3 SWAP2 SWAP1 PUSH2 0x4238 JUMP JUMPDEST PUSH1 0x20 PUSH1 0x40 MLOAD DUP1 DUP4 SUB DUP2 PUSH0 DUP8 GAS CALL ISZERO DUP1 ISZERO PUSH2 0x1BAA JUMPI RETURNDATASIZE PUSH0 DUP1 RETURNDATACOPY RETURNDATASIZE PUSH0 REVERT JUMPDEST POP POP POP POP PUSH1 0x40 MLOAD RETURNDATASIZE PUSH1 0x1F NOT PUSH1 0x1F DUP3 ADD AND DUP3 ADD DUP1 PUSH1 0x40 MSTORE POP DUP2 ADD SWAP1 PUSH2 0x1BCE SWAP2 SWAP1 PUSH2 0x420D JUMP JUMPDEST POP PUSH1 0x4 PUSH0 SWAP1 SLOAD SWAP1 PUSH2 0x100 EXP SWAP1 DIV PUSH20 0xFFFFFFFFFFFFFFFFFFFFFFFFFFFFFFFFFFFFFFFF AND PUSH20 0xFFFFFFFFFFFFFFFFFFFFFFFFFFFFFFFFFFFFFFFF AND PUSH4 0x23B872DD CALLER ADDRESS DUP7 PUSH1 0x40 MLOAD DUP5 PUSH4 0xFFFFFFFF AND PUSH1 0xE0 SHL DUP2 MSTORE PUSH1 0x4 ADD PUSH2 0x1C2D SWAP4 SWAP3 SWAP2 SWAP1 PUSH2 0x41C4 JUMP JUMPDEST PUSH1 0x20 PUSH1 0x40 MLOAD DUP1 DUP4 SUB DUP2 PUSH0 DUP8 GAS CALL SWAP3 POP POP POP DUP1 ISZERO PUSH2 0x1C68 JUMPI POP PUSH1 0x40 MLOAD RETURNDATASIZE PUSH1 0x1F NOT PUSH1 0x1F DUP3 ADD AND DUP3 ADD DUP1 PUSH1 0x40 MSTORE POP DUP2 ADD SWAP1 PUSH2 0x1C65 SWAP2 SWAP1 PUSH2 0x420D JUMP JUMPDEST PUSH1 0x1 JUMPDEST PUSH2 0x1E8B JUMPI PUSH2 0x1C74 PUSH2 0x426B JUMP JUMPDEST DUP1 PUSH4 0x8C379A0 SUB PUSH2 0x1E7C JUMPI POP PUSH2 0x1C88 PUSH2 0x42E8 JUMP JUMPDEST DUP1 PUSH2 0x1C93 JUMPI POP PUSH2 0x1E7E JUMP JUMPDEST PUSH1 0x1F PUSH0 SWAP1 SLOAD SWAP1 PUSH2 0x100 EXP SWAP1 DIV PUSH20 0xFFFFFFFFFFFFFFFFFFFFFFFFFFFFFFFFFFFFFFFF AND PUSH20 0xFFFFFFFFFFFFFFFFFFFFFFFFFFFFFFFFFFFFFFFF AND PUSH4 0x23B872DD CALLER ADDRESS DUP8 PUSH1 0x40 MLOAD DUP5 PUSH4 0xFFFFFFFF AND PUSH1 0xE0 SHL DUP2 MSTORE PUSH1 0x4 ADD PUSH2 0x1CF1 SWAP4 SWAP3 SWAP2 SWAP1 PUSH2 0x41C4 JUMP JUMPDEST PUSH1 0x20 PUSH1 0x40 MLOAD DUP1 DUP4 SUB DUP2 PUSH0 DUP8 GAS CALL ISZERO DUP1 ISZERO PUSH2 0x1D0D JUMPI RETURNDATASIZE PUSH0 DUP1 RETURNDATACOPY RETURNDATASIZE PUSH0 REVERT JUMPDEST POP POP POP POP PUSH1 0x40 MLOAD RETURNDATASIZE PUSH1 0x1F NOT PUSH1 0x1F DUP3 ADD AND DUP3 ADD DUP1 PUSH1 0x40 MSTORE POP DUP2 ADD SWAP1 PUSH2 0x1D31 SWAP2 SWAP1 PUSH2 0x420D JUMP JUMPDEST POP PUSH1 0x1F PUSH0 SWAP1 SLOAD SWAP1 PUSH2 0x100 EXP SWAP1 DIV PUSH20 0xFFFFFFFFFFFFFFFFFFFFFFFFFFFFFFFFFFFFFFFF AND PUSH20 0xFFFFFFFFFFFFFFFFFFFFFFFFFFFFFFFFFFFFFFFF AND PUSH4 0xA9059CBB PUSH1 0x5 PUSH0 SWAP1 SLOAD SWAP1 PUSH2 0x100 EXP SWAP1 DIV PUSH20 0xFFFFFFFFFFFFFFFFFFFFFFFFFFFFFFFFFFFFFFFF AND DUP7 PUSH1 0x40 MLOAD DUP4 PUSH4 0xFFFFFFFF AND PUSH1 0xE0 SHL DUP2 MSTORE PUSH1 0x4 ADD PUSH2 0x1DAF SWAP3 SWAP2 SWAP1 PUSH2 0x4238 JUMP JUMPDEST PUSH1 0x20 PUSH1 0x40 MLOAD DUP1 DUP4 SUB DUP2 PUSH0 DUP8 GAS CALL ISZERO DUP1 ISZERO PUSH2 0x1DCB JUMPI RETURNDATASIZE PUSH0 DUP1 RETURNDATACOPY RETURNDATASIZE PUSH0 REVERT JUMPDEST POP POP POP POP PUSH1 0x40 MLOAD RETURNDATASIZE PUSH1 0x1F NOT PUSH1 0x1F DUP3 ADD AND DUP3 ADD DUP1 PUSH1 0x40 MSTORE POP DUP2 ADD SWAP1 PUSH2 0x1DEF SWAP2 SWAP1 PUSH2 0x420D JUMP JUMPDEST POP PUSH1 0x4 PUSH0 SWAP1 SLOAD SWAP1 PUSH2 0x100 EXP SWAP1 DIV PUSH20 0xFFFFFFFFFFFFFFFFFFFFFFFFFFFFFFFFFFFFFFFF AND PUSH20 0xFFFFFFFFFFFFFFFFFFFFFFFFFFFFFFFFFFFFFFFF AND CALLER PUSH20 0xFFFFFFFFFFFFFFFFFFFFFFFFFFFFFFFFFFFFFFFF AND PUSH32 0xFD384BDA386F236A7C2A9038A52A8AB786F1715F3E103A3F0FE74E2D225B3125 DUP7 PUSH1 0x40 MLOAD PUSH2 0x1E6E SWAP2 SWAP1 PUSH2 0x43C1 JUMP JUMPDEST PUSH1 0x40 MLOAD DUP1 SWAP2 SUB SWAP1 LOG3 POP PUSH2 0x1E86 JUMP JUMPDEST POP JUMPDEST RETURNDATASIZE PUSH0 DUP1 RETURNDATACOPY RETURNDATASIZE PUSH0 REVERT JUMPDEST PUSH2 0x1FD8 JUMP JUMPDEST DUP1 ISZERO PUSH2 0x1FD6 JUMPI PUSH1 0x4 PUSH0 SWAP1 SLOAD SWAP1 PUSH2 0x100 EXP SWAP1 DIV PUSH20 0xFFFFFFFFFFFFFFFFFFFFFFFFFFFFFFFFFFFFFFFF AND PUSH20 0xFFFFFFFFFFFFFFFFFFFFFFFFFFFFFFFFFFFFFFFF AND PUSH4 0xA9059CBB PUSH1 0x5 PUSH0 SWAP1 SLOAD SWAP1 PUSH2 0x100 EXP SWAP1 DIV PUSH20 0xFFFFFFFFFFFFFFFFFFFFFFFFFFFFFFFFFFFFFFFF AND DUP7 PUSH1 0x40 MLOAD DUP4 PUSH4 0xFFFFFFFF AND PUSH1 0xE0 SHL DUP2 MSTORE PUSH1 0x4 ADD PUSH2 0x1F0E SWAP3 SWAP2 SWAP1 PUSH2 0x4238 JUMP JUMPDEST PUSH1 0x20 PUSH1 0x40 MLOAD DUP1 DUP4 SUB DUP2 PUSH0 DUP8 GAS CALL ISZERO DUP1 ISZERO PUSH2 0x1F2A JUMPI RETURNDATASIZE PUSH0 DUP1 RETURNDATACOPY RETURNDATASIZE PUSH0 REVERT JUMPDEST POP POP POP POP PUSH1 0x40 MLOAD RETURNDATASIZE PUSH1 0x1F NOT PUSH1 0x1F DUP3 ADD AND DUP3 ADD DUP1 PUSH1 0x40 MSTORE POP DUP2 ADD SWAP1 PUSH2 0x1F4E SWAP2 SWAP1 PUSH2 0x420D JUMP JUMPDEST POP PUSH1 0x4 PUSH0 SWAP1 SLOAD SWAP1 PUSH2 0x100 EXP SWAP1 DIV PUSH20 0xFFFFFFFFFFFFFFFFFFFFFFFFFFFFFFFFFFFFFFFF AND PUSH20 0xFFFFFFFFFFFFFFFFFFFFFFFFFFFFFFFFFFFFFFFF AND CALLER PUSH20 0xFFFFFFFFFFFFFFFFFFFFFFFFFFFFFFFFFFFFFFFF AND PUSH32 0xFD384BDA386F236A7C2A9038A52A8AB786F1715F3E103A3F0FE74E2D225B3125 DUP7 PUSH1 0x40 MLOAD PUSH2 0x1FCD SWAP2 SWAP1 PUSH2 0x4437 JUMP JUMPDEST PUSH1 0x40 MLOAD DUP1 SWAP2 SUB SWAP1 LOG3 JUMPDEST POP JUMPDEST PUSH0 TIMESTAMP SWAP1 POP DUP5 PUSH1 0x10 PUSH0 CALLER PUSH20 0xFFFFFFFFFFFFFFFFFFFFFFFFFFFFFFFFFFFFFFFF AND PUSH20 0xFFFFFFFFFFFFFFFFFFFFFFFFFFFFFFFFFFFFFFFF AND DUP2 MSTORE PUSH1 0x20 ADD SWAP1 DUP2 MSTORE PUSH1 0x20 ADD PUSH0 KECCAK256 DUP2 SWAP1 SSTORE POP DUP4 PUSH1 0x11 PUSH0 CALLER PUSH20 0xFFFFFFFFFFFFFFFFFFFFFFFFFFFFFFFFFFFFFFFF AND PUSH20 0xFFFFFFFFFFFFFFFFFFFFFFFFFFFFFFFFFFFFFFFF AND DUP2 MSTORE PUSH1 0x20 ADD SWAP1 DUP2 MSTORE PUSH1 0x20 ADD PUSH0 KECCAK256 DUP2 SWAP1 SSTORE POP DUP1 PUSH1 0x13 PUSH0 CALLER PUSH20 0xFFFFFFFFFFFFFFFFFFFFFFFFFFFFFFFFFFFFFFFF AND PUSH20 0xFFFFFFFFFFFFFFFFFFFFFFFFFFFFFFFFFFFFFFFF AND DUP2 MSTORE PUSH1 0x20 ADD SWAP1 DUP2 MSTORE PUSH1 0x20 ADD PUSH0 KECCAK256 DUP2 SWAP1 SSTORE POP DUP1 PUSH1 0x14 PUSH0 CALLER PUSH20 0xFFFFFFFFFFFFFFFFFFFFFFFFFFFFFFFFFFFFFFFF AND PUSH20 0xFFFFFFFFFFFFFFFFFFFFFFFFFFFFFFFFFFFFFFFF AND DUP2 MSTORE PUSH1 0x20 ADD SWAP1 DUP2 MSTORE PUSH1 0x20 ADD PUSH0 KECCAK256 DUP2 SWAP1 SSTORE POP DUP2 DUP2 PUSH2 0x20F0 SWAP2 SWAP1 PUSH2 0x4191 JUMP JUMPDEST PUSH1 0x15 PUSH0 CALLER PUSH20 0xFFFFFFFFFFFFFFFFFFFFFFFFFFFFFFFFFFFFFFFF AND PUSH20 0xFFFFFFFFFFFFFFFFFFFFFFFFFFFFFFFFFFFFFFFF AND DUP2 MSTORE PUSH1 0x20 ADD SWAP1 DUP2 MSTORE PUSH1 0x20 ADD PUSH0 KECCAK256 DUP2 SWAP1 SSTORE POP DUP2 PUSH1 0x12 PUSH0 CALLER PUSH20 0xFFFFFFFFFFFFFFFFFFFFFFFFFFFFFFFFFFFFFFFF AND PUSH20 0xFFFFFFFFFFFFFFFFFFFFFFFFFFFFFFFFFFFFFFFF AND DUP2 MSTORE PUSH1 0x20 ADD SWAP1 DUP2 MSTORE PUSH1 0x20 ADD PUSH0 KECCAK256 DUP2 SWAP1 SSTORE POP PUSH1 0x6 SLOAD DUP2 PUSH2 0x2181 SWAP2 SWAP1 PUSH2 0x4191 JUMP JUMPDEST PUSH1 0x1C PUSH0 CALLER PUSH20 0xFFFFFFFFFFFFFFFFFFFFFFFFFFFFFFFFFFFFFFFF AND PUSH20 0xFFFFFFFFFFFFFFFFFFFFFFFFFFFFFFFFFFFFFFFF AND DUP2 MSTORE PUSH1 0x20 ADD SWAP1 DUP2 MSTORE PUSH1 0x20 ADD PUSH0 KECCAK256 DUP2 SWAP1 SSTORE POP PUSH0 PUSH1 0x1D PUSH0 CALLER PUSH20 0xFFFFFFFFFFFFFFFFFFFFFFFFFFFFFFFFFFFFFFFF AND PUSH20 0xFFFFFFFFFFFFFFFFFFFFFFFFFFFFFFFFFFFFFFFF AND DUP2 MSTORE PUSH1 0x20 ADD SWAP1 DUP2 MSTORE PUSH1 0x20 ADD PUSH0 KECCAK256 DUP2 SWAP1 SSTORE POP PUSH1 0x4 PUSH0 SWAP1 SLOAD SWAP1 PUSH2 0x100 EXP SWAP1 DIV PUSH20 0xFFFFFFFFFFFFFFFFFFFFFFFFFFFFFFFFFFFFFFFF AND PUSH20 0xFFFFFFFFFFFFFFFFFFFFFFFFFFFFFFFFFFFFFFFF AND CALLER PUSH20 0xFFFFFFFFFFFFFFFFFFFFFFFFFFFFFFFFFFFFFFFF AND PUSH32 0xFD384BDA386F236A7C2A9038A52A8AB786F1715F3E103A3F0FE74E2D225B3125 DUP7 PUSH1 0x40 MLOAD PUSH2 0x2282 SWAP2 SWAP1 PUSH2 0x44AD JUMP JUMPDEST PUSH1 0x40 MLOAD DUP1 SWAP2 SUB SWAP1 LOG3 POP POP POP POP POP JUMP JUMPDEST PUSH2 0x2299 PUSH2 0x3474 JUMP JUMPDEST PUSH2 0x22A2 PUSH0 PUSH2 0x34FB JUMP JUMPDEST JUMP JUMPDEST PUSH1 0x1 PUSH0 SWAP1 SLOAD SWAP1 PUSH2 0x100 EXP SWAP1 DIV PUSH20 0xFFFFFFFFFFFFFFFFFFFFFFFFFFFFFFFFFFFFFFFF AND DUP2 JUMP JUMPDEST PUSH2 0x22D1 PUSH2 0x3474 JUMP JUMPDEST DUP9 PUSH1 0xF PUSH0 DUP13 PUSH20 0xFFFFFFFFFFFFFFFFFFFFFFFFFFFFFFFFFFFFFFFF AND PUSH20 0xFFFFFFFFFFFFFFFFFFFFFFFFFFFFFFFFFFFFFFFF AND DUP2 MSTORE PUSH1 0x20 ADD SWAP1 DUP2 MSTORE PUSH1 0x20 ADD PUSH0 KECCAK256 DUP2 SWAP1 SSTORE POP DUP8 PUSH1 0x10 PUSH0 DUP13 PUSH20 0xFFFFFFFFFFFFFFFFFFFFFFFFFFFFFFFFFFFFFFFF AND PUSH20 0xFFFFFFFFFFFFFFFFFFFFFFFFFFFFFFFFFFFFFFFF AND DUP2 MSTORE PUSH1 0x20 ADD SWAP1 DUP2 MSTORE PUSH1 0x20 ADD PUSH0 KECCAK256 DUP2 SWAP1 SSTORE POP DUP7 PUSH1 0x11 PUSH0 DUP13 PUSH20 0xFFFFFFFFFFFFFFFFFFFFFFFFFFFFFFFFFFFFFFFF AND PUSH20 0xFFFFFFFFFFFFFFFFFFFFFFFFFFFFFFFFFFFFFFFF AND DUP2 MSTORE PUSH1 0x20 ADD SWAP1 DUP2 MSTORE PUSH1 0x20 ADD PUSH0 KECCAK256 DUP2 SWAP1 SSTORE POP DUP6 PUSH1 0x12 PUSH0 DUP13 PUSH20 0xFFFFFFFFFFFFFFFFFFFFFFFFFFFFFFFFFFFFFFFF AND PUSH20 0xFFFFFFFFFFFFFFFFFFFFFFFFFFFFFFFFFFFFFFFF AND DUP2 MSTORE PUSH1 0x20 ADD SWAP1 DUP2 MSTORE PUSH1 0x20 ADD PUSH0 KECCAK256 DUP2 SWAP1 SSTORE POP DUP5 PUSH1 0x13 PUSH0 DUP13 PUSH20 0xFFFFFFFFFFFFFFFFFFFFFFFFFFFFFFFFFFFFFFFF AND PUSH20 0xFFFFFFFFFFFFFFFFFFFFFFFFFFFFFFFFFFFFFFFF AND DUP2 MSTORE PUSH1 0x20 ADD SWAP1 DUP2 MSTORE PUSH1 0x20 ADD PUSH0 KECCAK256 DUP2 SWAP1 SSTORE POP DUP4 PUSH1 0x14 PUSH0 DUP13 PUSH20 0xFFFFFFFFFFFFFFFFFFFFFFFFFFFFFFFFFFFFFFFF AND PUSH20 0xFFFFFFFFFFFFFFFFFFFFFFFFFFFFFFFFFFFFFFFF AND DUP2 MSTORE PUSH1 0x20 ADD SWAP1 DUP2 MSTORE PUSH1 0x20 ADD PUSH0 KECCAK256 DUP2 SWAP1 SSTORE POP DUP3 PUSH1 0x16 PUSH0 DUP13 PUSH20 0xFFFFFFFFFFFFFFFFFFFFFFFFFFFFFFFFFFFFFFFF AND PUSH20 0xFFFFFFFFFFFFFFFFFFFFFFFFFFFFFFFFFFFFFFFF AND DUP2 MSTORE PUSH1 0x20 ADD SWAP1 DUP2 MSTORE PUSH1 0x20 ADD PUSH0 KECCAK256 DUP2 SWAP1 SSTORE POP DUP2 PUSH1 0x15 PUSH0 DUP13 PUSH20 0xFFFFFFFFFFFFFFFFFFFFFFFFFFFFFFFFFFFFFFFF AND PUSH20 0xFFFFFFFFFFFFFFFFFFFFFFFFFFFFFFFFFFFFFFFF AND DUP2 MSTORE PUSH1 0x20 ADD SWAP1 DUP2 MSTORE PUSH1 0x20 ADD PUSH0 KECCAK256 DUP2 SWAP1 SSTORE POP DUP1 PUSH1 0x18 PUSH0 DUP13 PUSH20 0xFFFFFFFFFFFFFFFFFFFFFFFFFFFFFFFFFFFFFFFF AND PUSH20 0xFFFFFFFFFFFFFFFFFFFFFFFFFFFFFFFFFFFFFFFF AND DUP2 MSTORE PUSH1 0x20 ADD SWAP1 DUP2 MSTORE PUSH1 0x20 ADD PUSH0 KECCAK256 DUP2 SWAP1 SSTORE POP POP POP POP POP POP POP POP POP POP POP JUMP JUMPDEST PUSH2 0x2537 PUSH2 0x3474 JUMP JUMPDEST DUP1 PUSH1 0x12 PUSH0 DUP5 PUSH20 0xFFFFFFFFFFFFFFFFFFFFFFFFFFFFFFFFFFFFFFFF AND PUSH20 0xFFFFFFFFFFFFFFFFFFFFFFFFFFFFFFFFFFFFFFFF AND DUP2 MSTORE PUSH1 0x20 ADD SWAP1 DUP2 MSTORE PUSH1 0x20 ADD PUSH0 KECCAK256 DUP2 SWAP1 SSTORE POP POP POP JUMP JUMPDEST PUSH2 0x2585 PUSH2 0x3474 JUMP JUMPDEST DUP1 PUSH0 DUP1 PUSH2 0x100 EXP DUP2 SLOAD DUP2 PUSH20 0xFFFFFFFFFFFFFFFFFFFFFFFFFFFFFFFFFFFFFFFF MUL NOT AND SWAP1 DUP4 PUSH20 0xFFFFFFFFFFFFFFFFFFFFFFFFFFFFFFFFFFFFFFFF AND MUL OR SWAP1 SSTORE POP POP JUMP JUMPDEST PUSH1 0x14 PUSH1 0x20 MSTORE DUP1 PUSH0 MSTORE PUSH1 0x40 PUSH0 KECCAK256 PUSH0 SWAP2 POP SWAP1 POP SLOAD DUP2 JUMP JUMPDEST PUSH1 0x3 PUSH0 SWAP1 SLOAD SWAP1 PUSH2 0x100 EXP SWAP1 DIV PUSH20 0xFFFFFFFFFFFFFFFFFFFFFFFFFFFFFFFFFFFFFFFF AND DUP2 JUMP JUMPDEST PUSH2 0x2609 PUSH2 0x3474 JUMP JUMPDEST PUSH1 0x17 PUSH0 DUP3 PUSH20 0xFFFFFFFFFFFFFFFFFFFFFFFFFFFFFFFFFFFFFFFF AND PUSH20 0xFFFFFFFFFFFFFFFFFFFFFFFFFFFFFFFFFFFFFFFF AND DUP2 MSTORE PUSH1 0x20 ADD SWAP1 DUP2 MSTORE PUSH1 0x20 ADD PUSH0 KECCAK256 PUSH0 SWAP1 SLOAD SWAP1 PUSH2 0x100 EXP SWAP1 DIV PUSH1 0xFF AND ISZERO PUSH1 0x17 PUSH0 DUP4 PUSH20 0xFFFFFFFFFFFFFFFFFFFFFFFFFFFFFFFFFFFFFFFF AND PUSH20 0xFFFFFFFFFFFFFFFFFFFFFFFFFFFFFFFFFFFFFFFF AND DUP2 MSTORE PUSH1 0x20 ADD SWAP1 DUP2 MSTORE PUSH1 0x20 ADD PUSH0 KECCAK256 PUSH0 PUSH2 0x100 EXP DUP2 SLOAD DUP2 PUSH1 0xFF MUL NOT AND SWAP1 DUP4 ISZERO ISZERO MUL OR SWAP1 SSTORE POP POP JUMP JUMPDEST PUSH1 0x7 SLOAD DUP2 JUMP JUMPDEST PUSH1 0x19 PUSH0 SWAP1 SLOAD SWAP1 PUSH2 0x100 EXP SWAP1 DIV PUSH20 0xFFFFFFFFFFFFFFFFFFFFFFFFFFFFFFFFFFFFFFFF AND DUP2 JUMP JUMPDEST PUSH1 0x10 PUSH1 0x20 MSTORE DUP1 PUSH0 MSTORE PUSH1 0x40 PUSH0 KECCAK256 PUSH0 SWAP2 POP SWAP1 POP SLOAD DUP2 JUMP JUMPDEST PUSH1 0x11 PUSH1 0x20 MSTORE DUP1 PUSH0 MSTORE PUSH1 0x40 PUSH0 KECCAK256 PUSH0 SWAP2 POP SWAP1 POP SLOAD DUP2 JUMP JUMPDEST PUSH0 DUP1 PUSH2 0x2709 PUSH2 0x35CC JUMP JUMPDEST SWAP1 POP DUP1 PUSH0 ADD PUSH0 SWAP1 SLOAD SWAP1 PUSH2 0x100 EXP SWAP1 DIV PUSH20 0xFFFFFFFFFFFFFFFFFFFFFFFFFFFFFFFFFFFFFFFF AND SWAP2 POP POP SWAP1 JUMP JUMPDEST PUSH1 0x1E DUP2 DUP2 SLOAD DUP2 LT PUSH2 0x2743 JUMPI PUSH0 DUP1 REVERT JUMPDEST SWAP1 PUSH0 MSTORE PUSH1 0x20 PUSH0 KECCAK256 ADD PUSH0 SWAP2 POP SLOAD SWAP1 PUSH2 0x100 EXP SWAP1 DIV PUSH20 0xFFFFFFFFFFFFFFFFFFFFFFFFFFFFFFFFFFFFFFFF AND DUP2 JUMP JUMPDEST PUSH1 0xF PUSH1 0x20 MSTORE DUP1 PUSH0 MSTORE PUSH1 0x40 PUSH0 KECCAK256 PUSH0 SWAP2 POP SWAP1 POP SLOAD DUP2 JUMP JUMPDEST PUSH1 0x60 DUP1 PUSH1 0x60 DUP1 PUSH1 0x60 DUP1 PUSH1 0x1E DUP1 SLOAD SWAP1 POP DUP8 LT PUSH2 0x27D4 JUMPI PUSH1 0x40 MLOAD PUSH32 0x8C379A000000000000000000000000000000000000000000000000000000000 DUP2 MSTORE PUSH1 0x4 ADD PUSH2 0x27CB SWAP1 PUSH2 0x4523 JUMP JUMPDEST PUSH1 0x40 MLOAD DUP1 SWAP2 SUB SWAP1 REVERT JUMPDEST PUSH0 DUP8 PUSH1 0x1E DUP1 SLOAD SWAP1 POP PUSH2 0x27E6 SWAP2 SWAP1 PUSH2 0x4541 JUMP JUMPDEST SWAP1 POP DUP1 PUSH8 0xFFFFFFFFFFFFFFFF DUP2 GT ISZERO PUSH2 0x2802 JUMPI PUSH2 0x2801 PUSH2 0x428A JUMP JUMPDEST JUMPDEST PUSH1 0x40 MLOAD SWAP1 DUP1 DUP3 MSTORE DUP1 PUSH1 0x20 MUL PUSH1 0x20 ADD DUP3 ADD PUSH1 0x40 MSTORE DUP1 ISZERO PUSH2 0x2830 JUMPI DUP2 PUSH1 0x20 ADD PUSH1 0x20 DUP3 MUL DUP1 CALLDATASIZE DUP4 CALLDATACOPY DUP1 DUP3 ADD SWAP2 POP POP SWAP1 POP JUMPDEST POP SWAP7 POP DUP1 PUSH8 0xFFFFFFFFFFFFFFFF DUP2 GT ISZERO PUSH2 0x284D JUMPI PUSH2 0x284C PUSH2 0x428A JUMP JUMPDEST JUMPDEST PUSH1 0x40 MLOAD SWAP1 DUP1 DUP3 MSTORE DUP1 PUSH1 0x20 MUL PUSH1 0x20 ADD DUP3 ADD PUSH1 0x40 MSTORE DUP1 ISZERO PUSH2 0x287B JUMPI DUP2 PUSH1 0x20 ADD PUSH1 0x20 DUP3 MUL DUP1 CALLDATASIZE DUP4 CALLDATACOPY DUP1 DUP3 ADD SWAP2 POP POP SWAP1 POP JUMPDEST POP SWAP6 POP DUP1 PUSH8 0xFFFFFFFFFFFFFFFF DUP2 GT ISZERO PUSH2 0x2898 JUMPI PUSH2 0x2897 PUSH2 0x428A JUMP JUMPDEST JUMPDEST PUSH1 0x40 MLOAD SWAP1 DUP1 DUP3 MSTORE DUP1 PUSH1 0x20 MUL PUSH1 0x20 ADD DUP3 ADD PUSH1 0x40 MSTORE DUP1 ISZERO PUSH2 0x28C6 JUMPI DUP2 PUSH1 0x20 ADD PUSH1 0x20 DUP3 MUL DUP1 CALLDATASIZE DUP4 CALLDATACOPY DUP1 DUP3 ADD SWAP2 POP POP SWAP1 POP JUMPDEST POP SWAP5 POP DUP1 PUSH8 0xFFFFFFFFFFFFFFFF DUP2 GT ISZERO PUSH2 0x28E3 JUMPI PUSH2 0x28E2 PUSH2 0x428A JUMP JUMPDEST JUMPDEST PUSH1 0x40 MLOAD SWAP1 DUP1 DUP3 MSTORE DUP1 PUSH1 0x20 MUL PUSH1 0x20 ADD DUP3 ADD PUSH1 0x40 MSTORE DUP1 ISZERO PUSH2 0x2911 JUMPI DUP2 PUSH1 0x20 ADD PUSH1 0x20 DUP3 MUL DUP1 CALLDATASIZE DUP4 CALLDATACOPY DUP1 DUP3 ADD SWAP2 POP POP SWAP1 POP JUMPDEST POP SWAP4 POP DUP1 PUSH8 0xFFFFFFFFFFFFFFFF DUP2 GT ISZERO PUSH2 0x292E JUMPI PUSH2 0x292D PUSH2 0x428A JUMP JUMPDEST JUMPDEST PUSH1 0x40 MLOAD SWAP1 DUP1 DUP3 MSTORE DUP1 PUSH1 0x20 MUL PUSH1 0x20 ADD DUP3 ADD PUSH1 0x40 MSTORE DUP1 ISZERO PUSH2 0x295C JUMPI DUP2 PUSH1 0x20 ADD PUSH1 0x20 DUP3 MUL DUP1 CALLDATASIZE DUP4 CALLDATACOPY DUP1 DUP3 ADD SWAP2 POP POP SWAP1 POP JUMPDEST POP SWAP3 POP DUP1 PUSH8 0xFFFFFFFFFFFFFFFF DUP2 GT ISZERO PUSH2 0x2979 JUMPI PUSH2 0x2978 PUSH2 0x428A JUMP JUMPDEST JUMPDEST PUSH1 0x40 MLOAD SWAP1 DUP1 DUP3 MSTORE DUP1 PUSH1 0x20 MUL PUSH1 0x20 ADD DUP3 ADD PUSH1 0x40 MSTORE DUP1 ISZERO PUSH2 0x29A7 JUMPI DUP2 PUSH1 0x20 ADD PUSH1 0x20 DUP3 MUL DUP1 CALLDATASIZE DUP4 CALLDATACOPY DUP1 DUP3 ADD SWAP2 POP POP SWAP1 POP JUMPDEST POP SWAP2 POP PUSH0 DUP9 SWAP1 POP JUMPDEST PUSH1 0x1E DUP1 SLOAD SWAP1 POP DUP2 LT ISZERO PUSH2 0x2C7A JUMPI PUSH0 PUSH1 0x1E DUP3 DUP2 SLOAD DUP2 LT PUSH2 0x29D1 JUMPI PUSH2 0x29D0 PUSH2 0x3DF7 JUMP JUMPDEST JUMPDEST SWAP1 PUSH0 MSTORE PUSH1 0x20 PUSH0 KECCAK256 ADD PUSH0 SWAP1 SLOAD SWAP1 PUSH2 0x100 EXP SWAP1 DIV PUSH20 0xFFFFFFFFFFFFFFFFFFFFFFFFFFFFFFFFFFFFFFFF AND SWAP1 POP DUP1 DUP10 DUP12 DUP5 PUSH2 0x2A09 SWAP2 SWAP1 PUSH2 0x4541 JUMP JUMPDEST DUP2 MLOAD DUP2 LT PUSH2 0x2A1A JUMPI PUSH2 0x2A19 PUSH2 0x3DF7 JUMP JUMPDEST JUMPDEST PUSH1 0x20 MUL PUSH1 0x20 ADD ADD SWAP1 PUSH20 0xFFFFFFFFFFFFFFFFFFFFFFFFFFFFFFFFFFFFFFFF AND SWAP1 DUP2 PUSH20 0xFFFFFFFFFFFFFFFFFFFFFFFFFFFFFFFFFFFFFFFF AND DUP2 MSTORE POP POP PUSH1 0xC PUSH0 DUP3 PUSH20 0xFFFFFFFFFFFFFFFFFFFFFFFFFFFFFFFFFFFFFFFF AND PUSH20 0xFFFFFFFFFFFFFFFFFFFFFFFFFFFFFFFFFFFFFFFF AND DUP2 MSTORE PUSH1 0x20 ADD SWAP1 DUP2 MSTORE PUSH1 0x20 ADD PUSH0 KECCAK256 PUSH0 SWAP1 SLOAD SWAP1 PUSH2 0x100 EXP SWAP1 DIV PUSH20 0xFFFFFFFFFFFFFFFFFFFFFFFFFFFFFFFFFFFFFFFF AND DUP9 DUP12 DUP5 PUSH2 0x2ABE SWAP2 SWAP1 PUSH2 0x4541 JUMP JUMPDEST DUP2 MLOAD DUP2 LT PUSH2 0x2ACF JUMPI PUSH2 0x2ACE PUSH2 0x3DF7 JUMP JUMPDEST JUMPDEST PUSH1 0x20 MUL PUSH1 0x20 ADD ADD SWAP1 PUSH20 0xFFFFFFFFFFFFFFFFFFFFFFFFFFFFFFFFFFFFFFFF AND SWAP1 DUP2 PUSH20 0xFFFFFFFFFFFFFFFFFFFFFFFFFFFFFFFFFFFFFFFF AND DUP2 MSTORE POP POP PUSH1 0x10 PUSH0 DUP3 PUSH20 0xFFFFFFFFFFFFFFFFFFFFFFFFFFFFFFFFFFFFFFFF AND PUSH20 0xFFFFFFFFFFFFFFFFFFFFFFFFFFFFFFFFFFFFFFFF AND DUP2 MSTORE PUSH1 0x20 ADD SWAP1 DUP2 MSTORE PUSH1 0x20 ADD PUSH0 KECCAK256 SLOAD DUP8 DUP12 DUP5 PUSH2 0x2B54 SWAP2 SWAP1 PUSH2 0x4541 JUMP JUMPDEST DUP2 MLOAD DUP2 LT PUSH2 0x2B65 JUMPI PUSH2 0x2B64 PUSH2 0x3DF7 JUMP JUMPDEST JUMPDEST PUSH1 0x20 MUL PUSH1 0x20 ADD ADD DUP2 DUP2 MSTORE POP POP PUSH1 0x11 PUSH0 DUP3 PUSH20 0xFFFFFFFFFFFFFFFFFFFFFFFFFFFFFFFFFFFFFFFF AND PUSH20 0xFFFFFFFFFFFFFFFFFFFFFFFFFFFFFFFFFFFFFFFF AND DUP2 MSTORE PUSH1 0x20 ADD SWAP1 DUP2 MSTORE PUSH1 0x20 ADD PUSH0 KECCAK256 SLOAD DUP7 DUP12 DUP5 PUSH2 0x2BBC SWAP2 SWAP1 PUSH2 0x4541 JUMP JUMPDEST DUP2 MLOAD DUP2 LT PUSH2 0x2BCD JUMPI PUSH2 0x2BCC PUSH2 0x3DF7 JUMP JUMPDEST JUMPDEST PUSH1 0x20 MUL PUSH1 0x20 ADD ADD DUP2 DUP2 MSTORE POP POP PUSH1 0x13 PUSH0 DUP3 PUSH20 0xFFFFFFFFFFFFFFFFFFFFFFFFFFFFFFFFFFFFFFFF AND PUSH20 0xFFFFFFFFFFFFFFFFFFFFFFFFFFFFFFFFFFFFFFFF AND DUP2 MSTORE PUSH1 0x20 ADD SWAP1 DUP2 MSTORE PUSH1 0x20 ADD PUSH0 KECCAK256 SLOAD DUP6 DUP12 DUP5 PUSH2 0x2C24 SWAP2 SWAP1 PUSH2 0x4541 JUMP JUMPDEST DUP2 MLOAD DUP2 LT PUSH2 0x2C35 JUMPI PUSH2 0x2C34 PUSH2 0x3DF7 JUMP JUMPDEST JUMPDEST PUSH1 0x20 MUL PUSH1 0x20 ADD ADD DUP2 DUP2 MSTORE POP POP DUP2 DUP5 DUP12 DUP5 PUSH2 0x2C4F SWAP2 SWAP1 PUSH2 0x4541 JUMP JUMPDEST DUP2 MLOAD DUP2 LT PUSH2 0x2C60 JUMPI PUSH2 0x2C5F PUSH2 0x3DF7 JUMP JUMPDEST JUMPDEST PUSH1 0x20 MUL PUSH1 0x20 ADD ADD DUP2 DUP2 MSTORE POP POP POP DUP1 DUP1 PUSH1 0x1 ADD SWAP2 POP POP PUSH2 0x29AF JUMP JUMPDEST POP POP SWAP2 SWAP4 SWAP6 POP SWAP2 SWAP4 SWAP6 JUMP JUMPDEST PUSH2 0x2C8D PUSH2 0x3474 JUMP JUMPDEST DUP1 PUSH1 0x1F PUSH0 PUSH2 0x100 EXP DUP2 SLOAD DUP2 PUSH20 0xFFFFFFFFFFFFFFFFFFFFFFFFFFFFFFFFFFFFFFFF MUL NOT AND SWAP1 DUP4 PUSH20 0xFFFFFFFFFFFFFFFFFFFFFFFFFFFFFFFFFFFFFFFF AND MUL OR SWAP1 SSTORE POP POP JUMP JUMPDEST PUSH1 0x12 PUSH1 0x20 MSTORE DUP1 PUSH0 MSTORE PUSH1 0x40 PUSH0 KECCAK256 PUSH0 SWAP2 POP SWAP1 POP SLOAD DUP2 JUMP JUMPDEST PUSH1 0x1D PUSH1 0x20 MSTORE DUP1 PUSH0 MSTORE PUSH1 0x40 PUSH0 KECCAK256 PUSH0 SWAP2 POP SWAP1 POP SLOAD DUP2 JUMP JUMPDEST PUSH1 0x6 SLOAD DUP2 JUMP JUMPDEST PUSH1 0x1B SLOAD DUP2 JUMP JUMPDEST PUSH2 0x2D0E PUSH2 0x3474 JUMP JUMPDEST DUP2 PUSH1 0xA PUSH0 PUSH2 0x100 EXP DUP2 SLOAD DUP2 PUSH1 0xFF MUL NOT AND SWAP1 DUP4 ISZERO ISZERO MUL OR SWAP1 SSTORE POP DUP1 PUSH1 0xA PUSH1 0x1 PUSH2 0x100 EXP DUP2 SLOAD DUP2 PUSH1 0xFF MUL NOT AND SWAP1 DUP4 ISZERO ISZERO MUL OR SWAP1 SSTORE POP POP POP JUMP JUMPDEST PUSH0 DUP1 SLOAD SWAP1 PUSH2 0x100 EXP SWAP1 DIV PUSH20 0xFFFFFFFFFFFFFFFFFFFFFFFFFFFFFFFFFFFFFFFF AND DUP2 JUMP JUMPDEST PUSH1 0x16 PUSH1 0x20 MSTORE DUP1 PUSH0 MSTORE PUSH1 0x40 PUSH0 KECCAK256 PUSH0 SWAP2 POP SWAP1 POP SLOAD DUP2 JUMP JUMPDEST PUSH1 0x40 MLOAD DUP1 PUSH1 0x40 ADD PUSH1 0x40 MSTORE DUP1 PUSH1 0x4 DUP2 MSTORE PUSH1 0x20 ADD PUSH32 0x6E65777300000000000000000000000000000000000000000000000000000000 DUP2 MSTORE POP PUSH1 0xB SWAP1 DUP2 PUSH2 0x2DC1 SWAP2 SWAP1 PUSH2 0x476E JUMP JUMPDEST POP JUMP JUMPDEST PUSH0 PUSH2 0x2DCD PUSH2 0x35F3 JUMP JUMPDEST SWAP1 POP PUSH0 DUP2 PUSH0 ADD PUSH1 0x8 SWAP1 SLOAD SWAP1 PUSH2 0x100 EXP SWAP1 DIV PUSH1 0xFF AND ISZERO SWAP1 POP PUSH0 DUP3 PUSH0 ADD PUSH0 SWAP1 SLOAD SWAP1 PUSH2 0x100 EXP SWAP1 DIV PUSH8 0xFFFFFFFFFFFFFFFF AND SWAP1 POP PUSH0 DUP1 DUP3 PUSH8 0xFFFFFFFFFFFFFFFF AND EQ DUP1 ISZERO PUSH2 0x2E15 JUMPI POP DUP3 JUMPDEST SWAP1 POP PUSH0 PUSH1 0x1 DUP4 PUSH8 0xFFFFFFFFFFFFFFFF AND EQ DUP1 ISZERO PUSH2 0x2E48 JUMPI POP PUSH0 ADDRESS PUSH20 0xFFFFFFFFFFFFFFFFFFFFFFFFFFFFFFFFFFFFFFFF AND EXTCODESIZE EQ JUMPDEST SWAP1 POP DUP2 ISZERO DUP1 ISZERO PUSH2 0x2E56 JUMPI POP DUP1 ISZERO JUMPDEST ISZERO PUSH2 0x2E8D JUMPI PUSH1 0x40 MLOAD PUSH32 0xF92EE8A900000000000000000000000000000000000000000000000000000000 DUP2 MSTORE PUSH1 0x4 ADD PUSH1 0x40 MLOAD DUP1 SWAP2 SUB SWAP1 REVERT JUMPDEST PUSH1 0x1 DUP6 PUSH0 ADD PUSH0 PUSH2 0x100 EXP DUP2 SLOAD DUP2 PUSH8 0xFFFFFFFFFFFFFFFF MUL NOT AND SWAP1 DUP4 PUSH8 0xFFFFFFFFFFFFFFFF AND MUL OR SWAP1 SSTORE POP DUP4 ISZERO PUSH2 0x2EDA JUMPI PUSH1 0x1 DUP6 PUSH0 ADD PUSH1 0x8 PUSH2 0x100 EXP DUP2 SLOAD DUP2 PUSH1 0xFF MUL NOT AND SWAP1 DUP4 ISZERO ISZERO MUL OR SWAP1 SSTORE POP JUMPDEST PUSH2 0x2EE2 PUSH2 0x361A JUMP JUMPDEST PUSH2 0x2EEB DUP7 PUSH2 0x3624 JUMP JUMPDEST PUSH20 0x768A62A22B187EB350637E720EBC552D905C0331 PUSH0 DUP1 PUSH2 0x100 EXP DUP2 SLOAD DUP2 PUSH20 0xFFFFFFFFFFFFFFFFFFFFFFFFFFFFFFFFFFFFFFFF MUL NOT AND SWAP1 DUP4 PUSH20 0xFFFFFFFFFFFFFFFFFFFFFFFFFFFFFFFFFFFFFFFF AND MUL OR SWAP1 SSTORE POP PUSH20 0x6B6B2D8166D13B58155B8D454F239AE3691257A6 PUSH1 0x1 PUSH0 PUSH2 0x100 EXP DUP2 SLOAD DUP2 PUSH20 0xFFFFFFFFFFFFFFFFFFFFFFFFFFFFFFFFFFFFFFFF MUL NOT AND SWAP1 DUP4 PUSH20 0xFFFFFFFFFFFFFFFFFFFFFFFFFFFFFFFFFFFFFFFF AND MUL OR SWAP1 SSTORE POP PUSH20 0xB1BF470A9720F8D2E49512DBBCCF7180E4AC4679 PUSH1 0x2 PUSH0 PUSH2 0x100 EXP DUP2 SLOAD DUP2 PUSH20 0xFFFFFFFFFFFFFFFFFFFFFFFFFFFFFFFFFFFFFFFF MUL NOT AND SWAP1 DUP4 PUSH20 0xFFFFFFFFFFFFFFFFFFFFFFFFFFFFFFFFFFFFFFFF AND MUL OR SWAP1 SSTORE POP PUSH20 0x768A62A22B187EB350637E720EBC552D905C0331 PUSH1 0x3 PUSH0 PUSH2 0x100 EXP DUP2 SLOAD DUP2 PUSH20 0xFFFFFFFFFFFFFFFFFFFFFFFFFFFFFFFFFFFFFFFF MUL NOT AND SWAP1 DUP4 PUSH20 0xFFFFFFFFFFFFFFFFFFFFFFFFFFFFFFFFFFFFFFFF AND MUL OR SWAP1 SSTORE POP PUSH20 0xB0A36D088A29FE666B93464C96E33058FD885F99 PUSH1 0x4 PUSH0 PUSH2 0x100 EXP DUP2 SLOAD DUP2 PUSH20 0xFFFFFFFFFFFFFFFFFFFFFFFFFFFFFFFFFFFFFFFF MUL NOT AND SWAP1 DUP4 PUSH20 0xFFFFFFFFFFFFFFFFFFFFFFFFFFFFFFFFFFFFFFFF AND MUL OR SWAP1 SSTORE POP PUSH20 0xB0A36D088A29FE666B93464C96E33058FD885F99 PUSH1 0x1F PUSH0 PUSH2 0x100 EXP DUP2 SLOAD DUP2 PUSH20 0xFFFFFFFFFFFFFFFFFFFFFFFFFFFFFFFFFFFFFFFF MUL NOT AND SWAP1 DUP4 PUSH20 0xFFFFFFFFFFFFFFFFFFFFFFFFFFFFFFFFFFFFFFFF AND MUL OR SWAP1 SSTORE POP PUSH20 0x466BEBFDDEE7E03965C7B8C8A22DB117B5B73AEC PUSH1 0x5 PUSH0 PUSH2 0x100 EXP DUP2 SLOAD DUP2 PUSH20 0xFFFFFFFFFFFFFFFFFFFFFFFFFFFFFFFFFFFFFFFF MUL NOT AND SWAP1 DUP4 PUSH20 0xFFFFFFFFFFFFFFFFFFFFFFFFFFFFFFFFFFFFFFFF AND MUL OR SWAP1 SSTORE POP PUSH3 0x278D00 PUSH1 0x6 DUP2 SWAP1 SSTORE POP PUSH3 0x76A700 PUSH1 0x7 DUP2 SWAP1 SSTORE POP PUSH3 0xC5C100 PUSH1 0x8 DUP2 SWAP1 SSTORE POP PUSH2 0x3E8 PUSH1 0x9 DUP2 SWAP1 SSTORE POP PUSH20 0x2FA571EDAD13043EE3F3676E65092C5000E3AD0 PUSH1 0x19 PUSH0 PUSH2 0x100 EXP DUP2 SLOAD DUP2 PUSH20 0xFFFFFFFFFFFFFFFFFFFFFFFFFFFFFFFFFFFFFFFF MUL NOT AND SWAP1 DUP4 PUSH20 0xFFFFFFFFFFFFFFFFFFFFFFFFFFFFFFFFFFFFFFFF AND MUL OR SWAP1 SSTORE POP PUSH20 0x6B6B2D8166D13B58155B8D454F239AE3691257A6 PUSH1 0x1A PUSH0 PUSH2 0x100 EXP DUP2 SLOAD DUP2 PUSH20 0xFFFFFFFFFFFFFFFFFFFFFFFFFFFFFFFFFFFFFFFF MUL NOT AND SWAP1 DUP4 PUSH20 0xFFFFFFFFFFFFFFFFFFFFFFFFFFFFFFFFFFFFFFFF AND MUL OR SWAP1 SSTORE POP PUSH8 0xDE0B6B3A7640000 PUSH1 0x1B DUP2 SWAP1 SSTORE POP PUSH1 0x1 PUSH1 0xA PUSH0 PUSH2 0x100 EXP DUP2 SLOAD DUP2 PUSH1 0xFF MUL NOT AND SWAP1 DUP4 ISZERO ISZERO MUL OR SWAP1 SSTORE POP PUSH1 0x1 PUSH1 0xA PUSH1 0x1 PUSH2 0x100 EXP DUP2 SLOAD DUP2 PUSH1 0xFF MUL NOT AND SWAP1 DUP4 ISZERO ISZERO MUL OR SWAP1 SSTORE POP DUP4 ISZERO PUSH2 0x32A3 JUMPI PUSH0 DUP6 PUSH0 ADD PUSH1 0x8 PUSH2 0x100 EXP DUP2 SLOAD DUP2 PUSH1 0xFF MUL NOT AND SWAP1 DUP4 ISZERO ISZERO MUL OR SWAP1 SSTORE POP PUSH32 0xC7F505B2F371AE2175EE4913F4499E1F2633A7B5936321EED1CDAEB6115181D2 PUSH1 0x1 PUSH1 0x40 MLOAD PUSH2 0x329A SWAP2 SWAP1 PUSH2 0x4889 JUMP JUMPDEST PUSH1 0x40 MLOAD DUP1 SWAP2 SUB SWAP1 LOG1 JUMPDEST POP POP POP POP POP POP JUMP JUMPDEST PUSH2 0x32B3 PUSH2 0x3474 JUMP JUMPDEST DUP1 PUSH1 0x1C PUSH0 DUP5 PUSH20 0xFFFFFFFFFFFFFFFFFFFFFFFFFFFFFFFFFFFFFFFF AND PUSH20 0xFFFFFFFFFFFFFFFFFFFFFFFFFFFFFFFFFFFFFFFF AND DUP2 MSTORE PUSH1 0x20 ADD SWAP1 DUP2 MSTORE PUSH1 0x20 ADD PUSH0 KECCAK256 DUP2 SWAP1 SSTORE POP POP POP JUMP JUMPDEST PUSH1 0xD PUSH1 0x20 MSTORE DUP1 PUSH0 MSTORE PUSH1 0x40 PUSH0 KECCAK256 PUSH0 SWAP2 POP SWAP1 POP SLOAD DUP2 JUMP JUMPDEST PUSH1 0x2 PUSH0 SWAP1 SLOAD SWAP1 PUSH2 0x100 EXP SWAP1 DIV PUSH20 0xFFFFFFFFFFFFFFFFFFFFFFFFFFFFFFFFFFFFFFFF AND DUP2 JUMP JUMPDEST PUSH1 0xA PUSH1 0x1 SWAP1 SLOAD SWAP1 PUSH2 0x100 EXP SWAP1 DIV PUSH1 0xFF AND DUP2 JUMP JUMPDEST PUSH1 0xB DUP1 SLOAD PUSH2 0x3353 SWAP1 PUSH2 0x45A1 JUMP JUMPDEST DUP1 PUSH1 0x1F ADD PUSH1 0x20 DUP1 SWAP2 DIV MUL PUSH1 0x20 ADD PUSH1 0x40 MLOAD SWAP1 DUP2 ADD PUSH1 0x40 MSTORE DUP1 SWAP3 SWAP2 SWAP1 DUP2 DUP2 MSTORE PUSH1 0x20 ADD DUP3 DUP1 SLOAD PUSH2 0x337F SWAP1 PUSH2 0x45A1 JUMP JUMPDEST DUP1 ISZERO PUSH2 0x33CA JUMPI DUP1 PUSH1 0x1F LT PUSH2 0x33A1 JUMPI PUSH2 0x100 DUP1 DUP4 SLOAD DIV MUL DUP4 MSTORE SWAP2 PUSH1 0x20 ADD SWAP2 PUSH2 0x33CA JUMP JUMPDEST DUP3 ADD SWAP2 SWAP1 PUSH0 MSTORE PUSH1 0x20 PUSH0 KECCAK256 SWAP1 JUMPDEST DUP2 SLOAD DUP2 MSTORE SWAP1 PUSH1 0x1 ADD SWAP1 PUSH1 0x20 ADD DUP1 DUP4 GT PUSH2 0x33AD JUMPI DUP3 SWAP1 SUB PUSH1 0x1F AND DUP3 ADD SWAP2 JUMPDEST POP POP POP POP POP DUP2 JUMP JUMPDEST PUSH2 0x33DA PUSH2 0x3474 JUMP JUMPDEST PUSH0 PUSH20 0xFFFFFFFFFFFFFFFFFFFFFFFFFFFFFFFFFFFFFFFF AND DUP2 PUSH20 0xFFFFFFFFFFFFFFFFFFFFFFFFFFFFFFFFFFFFFFFF AND SUB PUSH2 0x344A JUMPI PUSH0 PUSH1 0x40 MLOAD PUSH32 0x1E4FBDF700000000000000000000000000000000000000000000000000000000 DUP2 MSTORE PUSH1 0x4 ADD PUSH2 0x3441 SWAP2 SWAP1 PUSH2 0x38CB JUMP JUMPDEST PUSH1 0x40 MLOAD DUP1 SWAP2 SUB SWAP1 REVERT JUMPDEST PUSH2 0x3453 DUP2 PUSH2 0x34FB JUMP JUMPDEST POP JUMP JUMPDEST PUSH1 0xA PUSH0 SWAP1 SLOAD SWAP1 PUSH2 0x100 EXP SWAP1 DIV PUSH1 0xFF AND DUP2 JUMP JUMPDEST PUSH0 PUSH1 0x1E DUP1 SLOAD SWAP1 POP SWAP1 POP SWAP1 JUMP JUMPDEST PUSH2 0x347C PUSH2 0x36A8 JUMP JUMPDEST PUSH20 0xFFFFFFFFFFFFFFFFFFFFFFFFFFFFFFFFFFFFFFFF AND PUSH2 0x349A PUSH2 0x26FF JUMP JUMPDEST PUSH20 0xFFFFFFFFFFFFFFFFFFFFFFFFFFFFFFFFFFFFFFFF AND EQ PUSH2 0x34F9 JUMPI PUSH2 0x34BD PUSH2 0x36A8 JUMP JUMPDEST PUSH1 0x40 MLOAD PUSH32 0x118CDAA700000000000000000000000000000000000000000000000000000000 DUP2 MSTORE PUSH1 0x4 ADD PUSH2 0x34F0 SWAP2 SWAP1 PUSH2 0x38CB JUMP JUMPDEST PUSH1 0x40 MLOAD DUP1 SWAP2 SUB SWAP1 REVERT JUMPDEST JUMP JUMPDEST PUSH0 PUSH2 0x3504 PUSH2 0x35CC JUMP JUMPDEST SWAP1 POP PUSH0 DUP2 PUSH0 ADD PUSH0 SWAP1 SLOAD SWAP1 PUSH2 0x100 EXP SWAP1 DIV PUSH20 0xFFFFFFFFFFFFFFFFFFFFFFFFFFFFFFFFFFFFFFFF AND SWAP1 POP DUP3 DUP3 PUSH0 ADD PUSH0 PUSH2 0x100 EXP DUP2 SLOAD DUP2 PUSH20 0xFFFFFFFFFFFFFFFFFFFFFFFFFFFFFFFFFFFFFFFF MUL NOT AND SWAP1 DUP4 PUSH20 0xFFFFFFFFFFFFFFFFFFFFFFFFFFFFFFFFFFFFFFFF AND MUL OR SWAP1 SSTORE POP DUP3 PUSH20 0xFFFFFFFFFFFFFFFFFFFFFFFFFFFFFFFFFFFFFFFF AND DUP2 PUSH20 0xFFFFFFFFFFFFFFFFFFFFFFFFFFFFFFFFFFFFFFFF AND PUSH32 0x8BE0079C531659141344CD1FD0A4F28419497F9722A3DAAFE3B4186F6B6457E0 PUSH1 0x40 MLOAD PUSH1 0x40 MLOAD DUP1 SWAP2 SUB SWAP1 LOG3 POP POP POP JUMP JUMPDEST PUSH0 PUSH32 0x9016D09D72D40FDAE2FD8CEAC6B6234C7706214FD39C1CD1E609A0528C199300 SWAP1 POP SWAP1 JUMP JUMPDEST PUSH0 PUSH32 0xF0C57E16840DF040F15088DC2F81FE391C3923BEC73E23A9662EFC9C229C6A00 SWAP1 POP SWAP1 JUMP JUMPDEST PUSH2 0x3622 PUSH2 0x36AF JUMP JUMPDEST JUMP JUMPDEST PUSH2 0x362C PUSH2 0x36AF JUMP JUMPDEST PUSH0 PUSH20 0xFFFFFFFFFFFFFFFFFFFFFFFFFFFFFFFFFFFFFFFF AND DUP2 PUSH20 0xFFFFFFFFFFFFFFFFFFFFFFFFFFFFFFFFFFFFFFFF AND SUB PUSH2 0x369C JUMPI PUSH0 PUSH1 0x40 MLOAD PUSH32 0x1E4FBDF700000000000000000000000000000000000000000000000000000000 DUP2 MSTORE PUSH1 0x4 ADD PUSH2 0x3693 SWAP2 SWAP1 PUSH2 0x38CB JUMP JUMPDEST PUSH1 0x40 MLOAD DUP1 SWAP2 SUB SWAP1 REVERT JUMPDEST PUSH2 0x36A5 DUP2 PUSH2 0x34FB JUMP JUMPDEST POP JUMP JUMPDEST PUSH0 CALLER SWAP1 POP SWAP1 JUMP JUMPDEST PUSH2 0x36B7 PUSH2 0x36EF JUMP JUMPDEST PUSH2 0x36ED JUMPI PUSH1 0x40 MLOAD PUSH32 0xD7E6BCF800000000000000000000000000000000000000000000000000000000 DUP2 MSTORE PUSH1 0x4 ADD PUSH1 0x40 MLOAD DUP1 SWAP2 SUB SWAP1 REVERT JUMPDEST JUMP JUMPDEST PUSH0 PUSH2 0x36F8 PUSH2 0x35F3 JUMP JUMPDEST PUSH0 ADD PUSH1 0x8 SWAP1 SLOAD SWAP1 PUSH2 0x100 EXP SWAP1 DIV PUSH1 0xFF AND SWAP1 POP SWAP1 JUMP JUMPDEST PUSH0 PUSH1 0x40 MLOAD SWAP1 POP SWAP1 JUMP JUMPDEST PUSH0 DUP1 REVERT JUMPDEST PUSH0 DUP2 SWAP1 POP SWAP2 SWAP1 POP JUMP JUMPDEST PUSH2 0x372C DUP2 PUSH2 0x371A JUMP JUMPDEST DUP2 EQ PUSH2 0x3736 JUMPI PUSH0 DUP1 REVERT JUMPDEST POP JUMP JUMPDEST PUSH0 DUP2 CALLDATALOAD SWAP1 POP PUSH2 0x3747 DUP2 PUSH2 0x3723 JUMP JUMPDEST SWAP3 SWAP2 POP POP JUMP JUMPDEST PUSH0 PUSH1 0x20 DUP3 DUP5 SUB SLT ISZERO PUSH2 0x3762 JUMPI PUSH2 0x3761 PUSH2 0x3716 JUMP JUMPDEST JUMPDEST PUSH0 PUSH2 0x376F DUP5 DUP3 DUP6 ADD PUSH2 0x3739 JUMP JUMPDEST SWAP2 POP POP SWAP3 SWAP2 POP POP JUMP JUMPDEST PUSH0 PUSH20 0xFFFFFFFFFFFFFFFFFFFFFFFFFFFFFFFFFFFFFFFF DUP3 AND SWAP1 POP SWAP2 SWAP1 POP JUMP JUMPDEST PUSH0 PUSH2 0x37A1 DUP3 PUSH2 0x3778 JUMP JUMPDEST SWAP1 POP SWAP2 SWAP1 POP JUMP JUMPDEST PUSH2 0x37B1 DUP2 PUSH2 0x3797 JUMP JUMPDEST DUP2 EQ PUSH2 0x37BB JUMPI PUSH0 DUP1 REVERT JUMPDEST POP JUMP JUMPDEST PUSH0 DUP2 CALLDATALOAD SWAP1 POP PUSH2 0x37CC DUP2 PUSH2 0x37A8 JUMP JUMPDEST SWAP3 SWAP2 POP POP JUMP JUMPDEST PUSH0 PUSH1 0x20 DUP3 DUP5 SUB SLT ISZERO PUSH2 0x37E7 JUMPI PUSH2 0x37E6 PUSH2 0x3716 JUMP JUMPDEST JUMPDEST PUSH0 PUSH2 0x37F4 DUP5 DUP3 DUP6 ADD PUSH2 0x37BE JUMP JUMPDEST SWAP2 POP POP SWAP3 SWAP2 POP POP JUMP JUMPDEST PUSH2 0x3806 DUP2 PUSH2 0x371A JUMP JUMPDEST DUP3 MSTORE POP POP JUMP JUMPDEST PUSH0 PUSH1 0x20 DUP3 ADD SWAP1 POP PUSH2 0x381F PUSH0 DUP4 ADD DUP5 PUSH2 0x37FD JUMP JUMPDEST SWAP3 SWAP2 POP POP JUMP JUMPDEST PUSH0 DUP1 PUSH0 DUP1 PUSH1 0x80 DUP6 DUP8 SUB SLT ISZERO PUSH2 0x383D JUMPI PUSH2 0x383C PUSH2 0x3716 JUMP JUMPDEST JUMPDEST PUSH0 PUSH2 0x384A DUP8 DUP3 DUP9 ADD PUSH2 0x37BE JUMP JUMPDEST SWAP5 POP POP PUSH1 0x20 PUSH2 0x385B DUP8 DUP3 DUP9 ADD PUSH2 0x3739 JUMP JUMPDEST SWAP4 POP POP PUSH1 0x40 PUSH2 0x386C DUP8 DUP3 DUP9 ADD PUSH2 0x3739 JUMP JUMPDEST SWAP3 POP POP PUSH1 0x60 PUSH2 0x387D DUP8 DUP3 DUP9 ADD PUSH2 0x3739 JUMP JUMPDEST SWAP2 POP POP SWAP3 SWAP6 SWAP2 SWAP5 POP SWAP3 POP JUMP JUMPDEST PUSH0 DUP2 ISZERO ISZERO SWAP1 POP SWAP2 SWAP1 POP JUMP JUMPDEST PUSH2 0x389D DUP2 PUSH2 0x3889 JUMP JUMPDEST DUP3 MSTORE POP POP JUMP JUMPDEST PUSH0 PUSH1 0x20 DUP3 ADD SWAP1 POP PUSH2 0x38B6 PUSH0 DUP4 ADD DUP5 PUSH2 0x3894 JUMP JUMPDEST SWAP3 SWAP2 POP POP JUMP JUMPDEST PUSH2 0x38C5 DUP2 PUSH2 0x3797 JUMP JUMPDEST DUP3 MSTORE POP POP JUMP JUMPDEST PUSH0 PUSH1 0x20 DUP3 ADD SWAP1 POP PUSH2 0x38DE PUSH0 DUP4 ADD DUP5 PUSH2 0x38BC JUMP JUMPDEST SWAP3 SWAP2 POP POP JUMP JUMPDEST PUSH0 DUP1 PUSH1 0x40 DUP4 DUP6 SUB SLT ISZERO PUSH2 0x38FA JUMPI PUSH2 0x38F9 PUSH2 0x3716 JUMP JUMPDEST JUMPDEST PUSH0 PUSH2 0x3907 DUP6 DUP3 DUP7 ADD PUSH2 0x37BE JUMP JUMPDEST SWAP3 POP POP PUSH1 0x20 PUSH2 0x3918 DUP6 DUP3 DUP7 ADD PUSH2 0x3739 JUMP JUMPDEST SWAP2 POP POP SWAP3 POP SWAP3 SWAP1 POP JUMP JUMPDEST PUSH0 PUSH1 0x40 DUP3 ADD SWAP1 POP PUSH2 0x3935 PUSH0 DUP4 ADD DUP6 PUSH2 0x38BC JUMP JUMPDEST PUSH2 0x3942 PUSH1 0x20 DUP4 ADD DUP5 PUSH2 0x38BC JUMP JUMPDEST SWAP4 SWAP3 POP POP POP JUMP JUMPDEST PUSH0 DUP1 PUSH0 DUP1 PUSH1 0x80 DUP6 DUP8 SUB SLT ISZERO PUSH2 0x3961 JUMPI PUSH2 0x3960 PUSH2 0x3716 JUMP JUMPDEST JUMPDEST PUSH0 PUSH2 0x396E DUP8 DUP3 DUP9 ADD PUSH2 0x3739 JUMP JUMPDEST SWAP5 POP POP PUSH1 0x20 PUSH2 0x397F DUP8 DUP3 DUP9 ADD PUSH2 0x3739 JUMP JUMPDEST SWAP4 POP POP PUSH1 0x40 PUSH2 0x3990 DUP8 DUP3 DUP9 ADD PUSH2 0x37BE JUMP JUMPDEST SWAP3 POP POP PUSH1 0x60 PUSH2 0x39A1 DUP8 DUP3 DUP9 ADD PUSH2 0x3739 JUMP JUMPDEST SWAP2 POP POP SWAP3 SWAP6 SWAP2 SWAP5 POP SWAP3 POP JUMP JUMPDEST PUSH0 DUP1 PUSH0 DUP1 PUSH0 DUP1 PUSH0 DUP1 PUSH0 DUP1 PUSH2 0x140 DUP12 DUP14 SUB SLT ISZERO PUSH2 0x39CC JUMPI PUSH2 0x39CB PUSH2 0x3716 JUMP JUMPDEST JUMPDEST PUSH0 PUSH2 0x39D9 DUP14 DUP3 DUP15 ADD PUSH2 0x37BE JUMP JUMPDEST SWAP11 POP POP PUSH1 0x20 PUSH2 0x39EA DUP14 DUP3 DUP15 ADD PUSH2 0x3739 JUMP JUMPDEST SWAP10 POP POP PUSH1 0x40 PUSH2 0x39FB DUP14 DUP3 DUP15 ADD PUSH2 0x3739 JUMP JUMPDEST SWAP9 POP POP PUSH1 0x60 PUSH2 0x3A0C DUP14 DUP3 DUP15 ADD PUSH2 0x3739 JUMP JUMPDEST SWAP8 POP POP PUSH1 0x80 PUSH2 0x3A1D DUP14 DUP3 DUP15 ADD PUSH2 0x3739 JUMP JUMPDEST SWAP7 POP POP PUSH1 0xA0 PUSH2 0x3A2E DUP14 DUP3 DUP15 ADD PUSH2 0x3739 JUMP JUMPDEST SWAP6 POP POP PUSH1 0xC0 PUSH2 0x3A3F DUP14 DUP3 DUP15 ADD PUSH2 0x3739 JUMP JUMPDEST SWAP5 POP POP PUSH1 0xE0 PUSH2 0x3A50 DUP14 DUP3 DUP15 ADD PUSH2 0x3739 JUMP JUMPDEST SWAP4 POP POP PUSH2 0x100 PUSH2 0x3A62 DUP14 DUP3 DUP15 ADD PUSH2 0x3739 JUMP JUMPDEST SWAP3 POP POP PUSH2 0x120 PUSH2 0x3A74 DUP14 DUP3 DUP15 ADD PUSH2 0x3739 JUMP JUMPDEST SWAP2 POP POP SWAP3 SWAP6 SWAP9 SWAP12 SWAP2 SWAP5 SWAP8 SWAP11 POP SWAP3 SWAP6 SWAP9 POP JUMP JUMPDEST PUSH0 DUP2 MLOAD SWAP1 POP SWAP2 SWAP1 POP JUMP JUMPDEST PUSH0 DUP3 DUP3 MSTORE PUSH1 0x20 DUP3 ADD SWAP1 POP SWAP3 SWAP2 POP POP JUMP JUMPDEST PUSH0 DUP2 SWAP1 POP PUSH1 0x20 DUP3 ADD SWAP1 POP SWAP2 SWAP1 POP JUMP JUMPDEST PUSH2 0x3AB8 DUP2 PUSH2 0x3797 JUMP JUMPDEST DUP3 MSTORE POP POP JUMP JUMPDEST PUSH0 PUSH2 0x3AC9 DUP4 DUP4 PUSH2 0x3AAF JUMP JUMPDEST PUSH1 0x20 DUP4 ADD SWAP1 POP SWAP3 SWAP2 POP POP JUMP JUMPDEST PUSH0 PUSH1 0x20 DUP3 ADD SWAP1 POP SWAP2 SWAP1 POP JUMP JUMPDEST PUSH0 PUSH2 0x3AEB DUP3 PUSH2 0x3A86 JUMP JUMPDEST PUSH2 0x3AF5 DUP2 DUP6 PUSH2 0x3A90 JUMP JUMPDEST SWAP4 POP PUSH2 0x3B00 DUP4 PUSH2 0x3AA0 JUMP JUMPDEST DUP1 PUSH0 JUMPDEST DUP4 DUP2 LT ISZERO PUSH2 0x3B30 JUMPI DUP2 MLOAD PUSH2 0x3B17 DUP9 DUP3 PUSH2 0x3ABE JUMP JUMPDEST SWAP8 POP PUSH2 0x3B22 DUP4 PUSH2 0x3AD5 JUMP JUMPDEST SWAP3 POP POP PUSH1 0x1 DUP2 ADD SWAP1 POP PUSH2 0x3B03 JUMP JUMPDEST POP DUP6 SWAP4 POP POP POP POP SWAP3 SWAP2 POP POP JUMP JUMPDEST PUSH0 DUP2 MLOAD SWAP1 POP SWAP2 SWAP1 POP JUMP JUMPDEST PUSH0 DUP3 DUP3 MSTORE PUSH1 0x20 DUP3 ADD SWAP1 POP SWAP3 SWAP2 POP POP JUMP JUMPDEST PUSH0 DUP2 SWAP1 POP PUSH1 0x20 DUP3 ADD SWAP1 POP SWAP2 SWAP1 POP JUMP JUMPDEST PUSH2 0x3B6F DUP2 PUSH2 0x371A JUMP JUMPDEST DUP3 MSTORE POP POP JUMP JUMPDEST PUSH0 PUSH2 0x3B80 DUP4 DUP4 PUSH2 0x3B66 JUMP JUMPDEST PUSH1 0x20 DUP4 ADD SWAP1 POP SWAP3 SWAP2 POP POP JUMP JUMPDEST PUSH0 PUSH1 0x20 DUP3 ADD SWAP1 POP SWAP2 SWAP1 POP JUMP JUMPDEST PUSH0 PUSH2 0x3BA2 DUP3 PUSH2 0x3B3D JUMP JUMPDEST PUSH2 0x3BAC DUP2 DUP6 PUSH2 0x3B47 JUMP JUMPDEST SWAP4 POP PUSH2 0x3BB7 DUP4 PUSH2 0x3B57 JUMP JUMPDEST DUP1 PUSH0 JUMPDEST DUP4 DUP2 LT ISZERO PUSH2 0x3BE7 JUMPI DUP2 MLOAD PUSH2 0x3BCE DUP9 DUP3 PUSH2 0x3B75 JUMP JUMPDEST SWAP8 POP PUSH2 0x3BD9 DUP4 PUSH2 0x3B8C JUMP JUMPDEST SWAP3 POP POP PUSH1 0x1 DUP2 ADD SWAP1 POP PUSH2 0x3BBA JUMP JUMPDEST POP DUP6 SWAP4 POP POP POP POP SWAP3 SWAP2 POP POP JUMP JUMPDEST PUSH0 PUSH1 0xC0 DUP3 ADD SWAP1 POP DUP2 DUP2 SUB PUSH0 DUP4 ADD MSTORE PUSH2 0x3C0C DUP2 DUP10 PUSH2 0x3AE1 JUMP JUMPDEST SWAP1 POP DUP2 DUP2 SUB PUSH1 0x20 DUP4 ADD MSTORE PUSH2 0x3C20 DUP2 DUP9 PUSH2 0x3AE1 JUMP JUMPDEST SWAP1 POP DUP2 DUP2 SUB PUSH1 0x40 DUP4 ADD MSTORE PUSH2 0x3C34 DUP2 DUP8 PUSH2 0x3B98 JUMP JUMPDEST SWAP1 POP DUP2 DUP2 SUB PUSH1 0x60 DUP4 ADD MSTORE PUSH2 0x3C48 DUP2 DUP7 PUSH2 0x3B98 JUMP JUMPDEST SWAP1 POP DUP2 DUP2 SUB PUSH1 0x80 DUP4 ADD MSTORE PUSH2 0x3C5C DUP2 DUP6 PUSH2 0x3B98 JUMP JUMPDEST SWAP1 POP DUP2 DUP2 SUB PUSH1 0xA0 DUP4 ADD MSTORE PUSH2 0x3C70 DUP2 DUP5 PUSH2 0x3B98 JUMP JUMPDEST SWAP1 POP SWAP8 SWAP7 POP POP POP POP POP POP POP JUMP JUMPDEST PUSH2 0x3C86 DUP2 PUSH2 0x3889 JUMP JUMPDEST DUP2 EQ PUSH2 0x3C90 JUMPI PUSH0 DUP1 REVERT JUMPDEST POP JUMP JUMPDEST PUSH0 DUP2 CALLDATALOAD SWAP1 POP PUSH2 0x3CA1 DUP2 PUSH2 0x3C7D JUMP JUMPDEST SWAP3 SWAP2 POP POP JUMP JUMPDEST PUSH0 DUP1 PUSH1 0x40 DUP4 DUP6 SUB SLT ISZERO PUSH2 0x3CBD JUMPI PUSH2 0x3CBC PUSH2 0x3716 JUMP JUMPDEST JUMPDEST PUSH0 PUSH2 0x3CCA DUP6 DUP3 DUP7 ADD PUSH2 0x3C93 JUMP JUMPDEST SWAP3 POP POP PUSH1 0x20 PUSH2 0x3CDB DUP6 DUP3 DUP7 ADD PUSH2 0x3C93 JUMP JUMPDEST SWAP2 POP POP SWAP3 POP SWAP3 SWAP1 POP JUMP JUMPDEST PUSH0 DUP2 MLOAD SWAP1 POP SWAP2 SWAP1 POP JUMP JUMPDEST PUSH0 DUP3 DUP3 MSTORE PUSH1 0x20 DUP3 ADD SWAP1 POP SWAP3 SWAP2 POP POP JUMP JUMPDEST PUSH0 JUMPDEST DUP4 DUP2 LT ISZERO PUSH2 0x3D1C JUMPI DUP1 DUP3 ADD MLOAD DUP2 DUP5 ADD MSTORE PUSH1 0x20 DUP2 ADD SWAP1 POP PUSH2 0x3D01 JUMP JUMPDEST PUSH0 DUP5 DUP5 ADD MSTORE POP POP POP POP JUMP JUMPDEST PUSH0 PUSH1 0x1F NOT PUSH1 0x1F DUP4 ADD AND SWAP1 POP SWAP2 SWAP1 POP JUMP JUMPDEST PUSH0 PUSH2 0x3D41 DUP3 PUSH2 0x3CE5 JUMP JUMPDEST PUSH2 0x3D4B DUP2 DUP6 PUSH2 0x3CEF JUMP JUMPDEST SWAP4 POP PUSH2 0x3D5B DUP2 DUP6 PUSH1 0x20 DUP7 ADD PUSH2 0x3CFF JUMP JUMPDEST PUSH2 0x3D64 DUP2 PUSH2 0x3D27 JUMP JUMPDEST DUP5 ADD SWAP2 POP POP SWAP3 SWAP2 POP POP JUMP JUMPDEST PUSH0 PUSH1 0x20 DUP3 ADD SWAP1 POP DUP2 DUP2 SUB PUSH0 DUP4 ADD MSTORE PUSH2 0x3D87 DUP2 DUP5 PUSH2 0x3D37 JUMP JUMPDEST SWAP1 POP SWAP3 SWAP2 POP POP JUMP JUMPDEST PUSH32 0x496E646578206F7574206F662072616E67650000000000000000000000000000 PUSH0 DUP3 ADD MSTORE POP JUMP JUMPDEST PUSH0 PUSH2 0x3DC3 PUSH1 0x12 DUP4 PUSH2 0x3CEF JUMP JUMPDEST SWAP2 POP PUSH2 0x3DCE DUP3 PUSH2 0x3D8F JUMP JUMPDEST PUSH1 0x20 DUP3 ADD SWAP1 POP SWAP2 SWAP1 POP JUMP JUMPDEST PUSH0 PUSH1 0x20 DUP3 ADD SWAP1 POP DUP2 DUP2 SUB PUSH0 DUP4 ADD MSTORE PUSH2 0x3DF0 DUP2 PUSH2 0x3DB7 JUMP JUMPDEST SWAP1 POP SWAP2 SWAP1 POP JUMP JUMPDEST PUSH32 0x4E487B7100000000000000000000000000000000000000000000000000000000 PUSH0 MSTORE PUSH1 0x32 PUSH1 0x4 MSTORE PUSH1 0x24 PUSH0 REVERT JUMPDEST PUSH32 0x6E6F742073746172740000000000000000000000000000000000000000000000 PUSH0 DUP3 ADD MSTORE POP JUMP JUMPDEST PUSH0 PUSH2 0x3E58 PUSH1 0x9 DUP4 PUSH2 0x3CEF JUMP JUMPDEST SWAP2 POP PUSH2 0x3E63 DUP3 PUSH2 0x3E24 JUMP JUMPDEST PUSH1 0x20 DUP3 ADD SWAP1 POP SWAP2 SWAP1 POP JUMP JUMPDEST PUSH0 PUSH1 0x20 DUP3 ADD SWAP1 POP DUP2 DUP2 SUB PUSH0 DUP4 ADD MSTORE PUSH2 0x3E85 DUP2 PUSH2 0x3E4C JUMP JUMPDEST SWAP1 POP SWAP2 SWAP1 POP JUMP JUMPDEST PUSH32 0x696E76697465722063616E742062792073656C66000000000000000000000000 PUSH0 DUP3 ADD MSTORE POP JUMP JUMPDEST PUSH0 PUSH2 0x3EC0 PUSH1 0x14 DUP4 PUSH2 0x3CEF JUMP JUMPDEST SWAP2 POP PUSH2 0x3ECB DUP3 PUSH2 0x3E8C JUMP JUMPDEST PUSH1 0x20 DUP3 ADD SWAP1 POP SWAP2 SWAP1 POP JUMP JUMPDEST PUSH0 PUSH1 0x20 DUP3 ADD SWAP1 POP DUP2 DUP2 SUB PUSH0 DUP4 ADD MSTORE PUSH2 0x3EED DUP2 PUSH2 0x3EB4 JUMP JUMPDEST SWAP1 POP SWAP2 SWAP1 POP JUMP JUMPDEST PUSH32 0x616C7265616479207374616B6500000000000000000000000000000000000000 PUSH0 DUP3 ADD MSTORE POP JUMP JUMPDEST PUSH0 PUSH2 0x3F28 PUSH1 0xD DUP4 PUSH2 0x3CEF JUMP JUMPDEST SWAP2 POP PUSH2 0x3F33 DUP3 PUSH2 0x3EF4 JUMP JUMPDEST PUSH1 0x20 DUP3 ADD SWAP1 POP SWAP2 SWAP1 POP JUMP JUMPDEST PUSH0 PUSH1 0x20 DUP3 ADD SWAP1 POP DUP2 DUP2 SUB PUSH0 DUP4 ADD MSTORE PUSH2 0x3F55 DUP2 PUSH2 0x3F1C JUMP JUMPDEST SWAP1 POP SWAP2 SWAP1 POP JUMP JUMPDEST PUSH32 0x616C7265616479207374616B6555736474000000000000000000000000000000 PUSH0 DUP3 ADD MSTORE POP JUMP JUMPDEST PUSH0 PUSH2 0x3F90 PUSH1 0x11 DUP4 PUSH2 0x3CEF JUMP JUMPDEST SWAP2 POP PUSH2 0x3F9B DUP3 PUSH2 0x3F5C JUMP JUMPDEST PUSH1 0x20 DUP3 ADD SWAP1 POP SWAP2 SWAP1 POP JUMP JUMPDEST PUSH0 PUSH1 0x20 DUP3 ADD SWAP1 POP DUP2 DUP2 SUB PUSH0 DUP4 ADD MSTORE PUSH2 0x3FBD DUP2 PUSH2 0x3F84 JUMP JUMPDEST SWAP1 POP SWAP2 SWAP1 POP JUMP JUMPDEST PUSH32 0x616C7265616479207374616B6542646300000000000000000000000000000000 PUSH0 DUP3 ADD MSTORE POP JUMP JUMPDEST PUSH0 PUSH2 0x3FF8 PUSH1 0x10 DUP4 PUSH2 0x3CEF JUMP JUMPDEST SWAP2 POP PUSH2 0x4003 DUP3 PUSH2 0x3FC4 JUMP JUMPDEST PUSH1 0x20 DUP3 ADD SWAP1 POP SWAP2 SWAP1 POP JUMP JUMPDEST PUSH0 PUSH1 0x20 DUP3 ADD SWAP1 POP DUP2 DUP2 SUB PUSH0 DUP4 ADD MSTORE PUSH2 0x4025 DUP2 PUSH2 0x3FEC JUMP JUMPDEST SWAP1 POP SWAP2 SWAP1 POP JUMP JUMPDEST PUSH32 0x7A65726F20616D6F756E74410000000000000000000000000000000000000000 PUSH0 DUP3 ADD MSTORE POP JUMP JUMPDEST PUSH0 PUSH2 0x4060 PUSH1 0xC DUP4 PUSH2 0x3CEF JUMP JUMPDEST SWAP2 POP PUSH2 0x406B DUP3 PUSH2 0x402C JUMP JUMPDEST PUSH1 0x20 DUP3 ADD SWAP1 POP SWAP2 SWAP1 POP JUMP JUMPDEST PUSH0 PUSH1 0x20 DUP3 ADD SWAP1 POP DUP2 DUP2 SUB PUSH0 DUP4 ADD MSTORE PUSH2 0x408D DUP2 PUSH2 0x4054 JUMP JUMPDEST SWAP1 POP SWAP2 SWAP1 POP JUMP JUMPDEST PUSH32 0x7A65726F20616D6F756E74420000000000000000000000000000000000000000 PUSH0 DUP3 ADD MSTORE POP JUMP JUMPDEST PUSH0 PUSH2 0x40C8 PUSH1 0xC DUP4 PUSH2 0x3CEF JUMP JUMPDEST SWAP2 POP PUSH2 0x40D3 DUP3 PUSH2 0x4094 JUMP JUMPDEST PUSH1 0x20 DUP3 ADD SWAP1 POP SWAP2 SWAP1 POP JUMP JUMPDEST PUSH0 PUSH1 0x20 DUP3 ADD SWAP1 POP DUP2 DUP2 SUB PUSH0 DUP4 ADD MSTORE PUSH2 0x40F5 DUP2 PUSH2 0x40BC JUMP JUMPDEST SWAP1 POP SWAP2 SWAP1 POP JUMP JUMPDEST PUSH32 0x6E6F742072696768742074696D65000000000000000000000000000000000000 PUSH0 DUP3 ADD MSTORE POP JUMP JUMPDEST PUSH0 PUSH2 0x4130 PUSH1 0xE DUP4 PUSH2 0x3CEF JUMP JUMPDEST SWAP2 POP PUSH2 0x413B DUP3 PUSH2 0x40FC JUMP JUMPDEST PUSH1 0x20 DUP3 ADD SWAP1 POP SWAP2 SWAP1 POP JUMP JUMPDEST PUSH0 PUSH1 0x20 DUP3 ADD SWAP1 POP DUP2 DUP2 SUB PUSH0 DUP4 ADD MSTORE PUSH2 0x415D DUP2 PUSH2 0x4124 JUMP JUMPDEST SWAP1 POP SWAP2 SWAP1 POP JUMP JUMPDEST PUSH32 0x4E487B7100000000000000000000000000000000000000000000000000000000 PUSH0 MSTORE PUSH1 0x11 PUSH1 0x4 MSTORE PUSH1 0x24 PUSH0 REVERT JUMPDEST PUSH0 PUSH2 0x419B DUP3 PUSH2 0x371A JUMP JUMPDEST SWAP2 POP PUSH2 0x41A6 DUP4 PUSH2 0x371A JUMP JUMPDEST SWAP3 POP DUP3 DUP3 ADD SWAP1 POP DUP1 DUP3 GT ISZERO PUSH2 0x41BE JUMPI PUSH2 0x41BD PUSH2 0x4164 JUMP JUMPDEST JUMPDEST SWAP3 SWAP2 POP POP JUMP JUMPDEST PUSH0 PUSH1 0x60 DUP3 ADD SWAP1 POP PUSH2 0x41D7 PUSH0 DUP4 ADD DUP7 PUSH2 0x38BC JUMP JUMPDEST PUSH2 0x41E4 PUSH1 0x20 DUP4 ADD DUP6 PUSH2 0x38BC JUMP JUMPDEST PUSH2 0x41F1 PUSH1 0x40 DUP4 ADD DUP5 PUSH2 0x37FD JUMP JUMPDEST SWAP5 SWAP4 POP POP POP POP JUMP JUMPDEST PUSH0 DUP2 MLOAD SWAP1 POP PUSH2 0x4207 DUP2 PUSH2 0x3C7D JUMP JUMPDEST SWAP3 SWAP2 POP POP JUMP JUMPDEST PUSH0 PUSH1 0x20 DUP3 DUP5 SUB SLT ISZERO PUSH2 0x4222 JUMPI PUSH2 0x4221 PUSH2 0x3716 JUMP JUMPDEST JUMPDEST PUSH0 PUSH2 0x422F DUP5 DUP3 DUP6 ADD PUSH2 0x41F9 JUMP JUMPDEST SWAP2 POP POP SWAP3 SWAP2 POP POP JUMP JUMPDEST PUSH0 PUSH1 0x40 DUP3 ADD SWAP1 POP PUSH2 0x424B PUSH0 DUP4 ADD DUP6 PUSH2 0x38BC JUMP JUMPDEST PUSH2 0x4258 PUSH1 0x20 DUP4 ADD DUP5 PUSH2 0x37FD JUMP JUMPDEST SWAP4 SWAP3 POP POP POP JUMP JUMPDEST PUSH0 DUP2 PUSH1 0xE0 SHR SWAP1 POP SWAP2 SWAP1 POP JUMP JUMPDEST PUSH0 PUSH1 0x3 RETURNDATASIZE GT ISZERO PUSH2 0x4287 JUMPI PUSH1 0x4 PUSH0 DUP1 RETURNDATACOPY PUSH2 0x4284 PUSH0 MLOAD PUSH2 0x425F JUMP JUMPDEST SWAP1 POP JUMPDEST SWAP1 JUMP JUMPDEST PUSH32 0x4E487B7100000000000000000000000000000000000000000000000000000000 PUSH0 MSTORE PUSH1 0x41 PUSH1 0x4 MSTORE PUSH1 0x24 PUSH0 REVERT JUMPDEST PUSH2 0x42C0 DUP3 PUSH2 0x3D27 JUMP JUMPDEST DUP2 ADD DUP2 DUP2 LT PUSH8 0xFFFFFFFFFFFFFFFF DUP3 GT OR ISZERO PUSH2 0x42DF JUMPI PUSH2 0x42DE PUSH2 0x428A JUMP JUMPDEST JUMPDEST DUP1 PUSH1 0x40 MSTORE POP POP POP JUMP JUMPDEST PUSH0 PUSH1 0x44 RETURNDATASIZE LT PUSH2 0x4374 JUMPI PUSH2 0x42F9 PUSH2 0x370D JUMP JUMPDEST PUSH1 0x4 RETURNDATASIZE SUB PUSH1 0x4 DUP3 RETURNDATACOPY DUP1 MLOAD RETURNDATASIZE PUSH1 0x24 DUP3 ADD GT PUSH8 0xFFFFFFFFFFFFFFFF DUP3 GT OR ISZERO PUSH2 0x4321 JUMPI POP POP PUSH2 0x4374 JUMP JUMPDEST DUP1 DUP3 ADD DUP1 MLOAD PUSH8 0xFFFFFFFFFFFFFFFF DUP2 GT ISZERO PUSH2 0x433F JUMPI POP POP POP POP PUSH2 0x4374 JUMP JUMPDEST DUP1 PUSH1 0x20 DUP4 ADD ADD PUSH1 0x4 RETURNDATASIZE SUB DUP6 ADD DUP2 GT ISZERO PUSH2 0x435C JUMPI POP POP POP POP POP PUSH2 0x4374 JUMP JUMPDEST PUSH2 0x436B DUP3 PUSH1 0x20 ADD DUP6 ADD DUP7 PUSH2 0x42B7 JUMP JUMPDEST DUP3 SWAP6 POP POP POP POP POP POP JUMPDEST SWAP1 JUMP JUMPDEST PUSH32 0x6361746368204572726F72000000000000000000000000000000000000000000 PUSH0 DUP3 ADD MSTORE POP JUMP JUMPDEST PUSH0 PUSH2 0x43AB PUSH1 0xB DUP4 PUSH2 0x3CEF JUMP JUMPDEST SWAP2 POP PUSH2 0x43B6 DUP3 PUSH2 0x4377 JUMP JUMPDEST PUSH1 0x20 DUP3 ADD SWAP1 POP SWAP2 SWAP1 POP JUMP JUMPDEST PUSH0 PUSH1 0x40 DUP3 ADD SWAP1 POP PUSH2 0x43D4 PUSH0 DUP4 ADD DUP5 PUSH2 0x37FD JUMP JUMPDEST DUP2 DUP2 SUB PUSH1 0x20 DUP4 ADD MSTORE PUSH2 0x43E5 DUP2 PUSH2 0x439F JUMP JUMPDEST SWAP1 POP SWAP3 SWAP2 POP POP JUMP JUMPDEST PUSH32 0x7472616E73666572537563636573730000000000000000000000000000000000 PUSH0 DUP3 ADD MSTORE POP JUMP JUMPDEST PUSH0 PUSH2 0x4421 PUSH1 0xF DUP4 PUSH2 0x3CEF JUMP JUMPDEST SWAP2 POP PUSH2 0x442C DUP3 PUSH2 0x43ED JUMP JUMPDEST PUSH1 0x20 DUP3 ADD SWAP1 POP SWAP2 SWAP1 POP JUMP JUMPDEST PUSH0 PUSH1 0x40 DUP3 ADD SWAP1 POP PUSH2 0x444A PUSH0 DUP4 ADD DUP5 PUSH2 0x37FD JUMP JUMPDEST DUP2 DUP2 SUB PUSH1 0x20 DUP4 ADD MSTORE PUSH2 0x445B DUP2 PUSH2 0x4415 JUMP JUMPDEST SWAP1 POP SWAP3 SWAP2 POP POP JUMP JUMPDEST PUSH32 0x6F76657220000000000000000000000000000000000000000000000000000000 PUSH0 DUP3 ADD MSTORE POP JUMP JUMPDEST PUSH0 PUSH2 0x4497 PUSH1 0x5 DUP4 PUSH2 0x3CEF JUMP JUMPDEST SWAP2 POP PUSH2 0x44A2 DUP3 PUSH2 0x4463 JUMP JUMPDEST PUSH1 0x20 DUP3 ADD SWAP1 POP SWAP2 SWAP1 POP JUMP JUMPDEST PUSH0 PUSH1 0x40 DUP3 ADD SWAP1 POP PUSH2 0x44C0 PUSH0 DUP4 ADD DUP5 PUSH2 0x37FD JUMP JUMPDEST DUP2 DUP2 SUB PUSH1 0x20 DUP4 ADD MSTORE PUSH2 0x44D1 DUP2 PUSH2 0x448B JUMP JUMPDEST SWAP1 POP SWAP3 SWAP2 POP POP JUMP JUMPDEST PUSH32 0x537461727420696E646578206F7574206F662072616E67650000000000000000 PUSH0 DUP3 ADD MSTORE POP JUMP JUMPDEST PUSH0 PUSH2 0x450D PUSH1 0x18 DUP4 PUSH2 0x3CEF JUMP JUMPDEST SWAP2 POP PUSH2 0x4518 DUP3 PUSH2 0x44D9 JUMP JUMPDEST PUSH1 0x20 DUP3 ADD SWAP1 POP SWAP2 SWAP1 POP JUMP JUMPDEST PUSH0 PUSH1 0x20 DUP3 ADD SWAP1 POP DUP2 DUP2 SUB PUSH0 DUP4 ADD MSTORE PUSH2 0x453A DUP2 PUSH2 0x4501 JUMP JUMPDEST SWAP1 POP SWAP2 SWAP1 POP JUMP JUMPDEST PUSH0 PUSH2 0x454B DUP3 PUSH2 0x371A JUMP JUMPDEST SWAP2 POP PUSH2 0x4556 DUP4 PUSH2 0x371A JUMP JUMPDEST SWAP3 POP DUP3 DUP3 SUB SWAP1 POP DUP2 DUP2 GT ISZERO PUSH2 0x456E JUMPI PUSH2 0x456D PUSH2 0x4164 JUMP JUMPDEST JUMPDEST SWAP3 SWAP2 POP POP JUMP JUMPDEST PUSH32 0x4E487B7100000000000000000000000000000000000000000000000000000000 PUSH0 MSTORE PUSH1 0x22 PUSH1 0x4 MSTORE PUSH1 0x24 PUSH0 REVERT JUMPDEST PUSH0 PUSH1 0x2 DUP3 DIV SWAP1 POP PUSH1 0x1 DUP3 AND DUP1 PUSH2 0x45B8 JUMPI PUSH1 0x7F DUP3 AND SWAP2 POP JUMPDEST PUSH1 0x20 DUP3 LT DUP2 SUB PUSH2 0x45CB JUMPI PUSH2 0x45CA PUSH2 0x4574 JUMP JUMPDEST JUMPDEST POP SWAP2 SWAP1 POP JUMP JUMPDEST PUSH0 DUP2 SWAP1 POP DUP2 PUSH0 MSTORE PUSH1 0x20 PUSH0 KECCAK256 SWAP1 POP SWAP2 SWAP1 POP JUMP JUMPDEST PUSH0 PUSH1 0x20 PUSH1 0x1F DUP4 ADD DIV SWAP1 POP SWAP2 SWAP1 POP JUMP JUMPDEST PUSH0 DUP3 DUP3 SHL SWAP1 POP SWAP3 SWAP2 POP POP JUMP JUMPDEST PUSH0 PUSH1 0x8 DUP4 MUL PUSH2 0x462D PUSH32 0xFFFFFFFFFFFFFFFFFFFFFFFFFFFFFFFFFFFFFFFFFFFFFFFFFFFFFFFFFFFFFFFF DUP3 PUSH2 0x45F2 JUMP JUMPDEST PUSH2 0x4637 DUP7 DUP4 PUSH2 0x45F2 JUMP JUMPDEST SWAP6 POP DUP1 NOT DUP5 AND SWAP4 POP DUP1 DUP7 AND DUP5 OR SWAP3 POP POP POP SWAP4 SWAP3 POP POP POP JUMP JUMPDEST PUSH0 DUP2 SWAP1 POP SWAP2 SWAP1 POP JUMP JUMPDEST PUSH0 PUSH2 0x4672 PUSH2 0x466D PUSH2 0x4668 DUP5 PUSH2 0x371A JUMP JUMPDEST PUSH2 0x464F JUMP JUMPDEST PUSH2 0x371A JUMP JUMPDEST SWAP1 POP SWAP2 SWAP1 POP JUMP JUMPDEST PUSH0 DUP2 SWAP1 POP SWAP2 SWAP1 POP JUMP JUMPDEST PUSH2 0x468B DUP4 PUSH2 0x4658 JUMP JUMPDEST PUSH2 0x469F PUSH2 0x4697 DUP3 PUSH2 0x4679 JUMP JUMPDEST DUP5 DUP5 SLOAD PUSH2 0x45FE JUMP JUMPDEST DUP3 SSTORE POP POP POP POP JUMP JUMPDEST PUSH0 SWAP1 JUMP JUMPDEST PUSH2 0x46B3 PUSH2 0x46A7 JUMP JUMPDEST PUSH2 0x46BE DUP2 DUP5 DUP5 PUSH2 0x4682 JUMP JUMPDEST POP POP POP JUMP JUMPDEST JUMPDEST DUP2 DUP2 LT ISZERO PUSH2 0x46E1 JUMPI PUSH2 0x46D6 PUSH0 DUP3 PUSH2 0x46AB JUMP JUMPDEST PUSH1 0x1 DUP2 ADD SWAP1 POP PUSH2 0x46C4 JUMP JUMPDEST POP POP JUMP JUMPDEST PUSH1 0x1F DUP3 GT ISZERO PUSH2 0x4726 JUMPI PUSH2 0x46F7 DUP2 PUSH2 0x45D1 JUMP JUMPDEST PUSH2 0x4700 DUP5 PUSH2 0x45E3 JUMP JUMPDEST DUP2 ADD PUSH1 0x20 DUP6 LT ISZERO PUSH2 0x470F JUMPI DUP2 SWAP1 POP JUMPDEST PUSH2 0x4723 PUSH2 0x471B DUP6 PUSH2 0x45E3 JUMP JUMPDEST DUP4 ADD DUP3 PUSH2 0x46C3 JUMP JUMPDEST POP POP JUMPDEST POP POP POP JUMP JUMPDEST PUSH0 DUP3 DUP3 SHR SWAP1 POP SWAP3 SWAP2 POP POP JUMP JUMPDEST PUSH0 PUSH2 0x4746 PUSH0 NOT DUP5 PUSH1 0x8 MUL PUSH2 0x472B JUMP JUMPDEST NOT DUP1 DUP4 AND SWAP2 POP POP SWAP3 SWAP2 POP POP JUMP JUMPDEST PUSH0 PUSH2 0x475E DUP4 DUP4 PUSH2 0x4737 JUMP JUMPDEST SWAP2 POP DUP3 PUSH1 0x2 MUL DUP3 OR SWAP1 POP SWAP3 SWAP2 POP POP JUMP JUMPDEST PUSH2 0x4777 DUP3 PUSH2 0x3CE5 JUMP JUMPDEST PUSH8 0xFFFFFFFFFFFFFFFF DUP2 GT ISZERO PUSH2 0x4790 JUMPI PUSH2 0x478F PUSH2 0x428A JUMP JUMPDEST JUMPDEST PUSH2 0x479A DUP3 SLOAD PUSH2 0x45A1 JUMP JUMPDEST PUSH2 0x47A5 DUP3 DUP3 DUP6 PUSH2 0x46E5 JUMP JUMPDEST PUSH0 PUSH1 0x20 SWAP1 POP PUSH1 0x1F DUP4 GT PUSH1 0x1 DUP2 EQ PUSH2 0x47D6 JUMPI PUSH0 DUP5 ISZERO PUSH2 0x47C4 JUMPI DUP3 DUP8 ADD MLOAD SWAP1 POP JUMPDEST PUSH2 0x47CE DUP6 DUP3 PUSH2 0x4753 JUMP JUMPDEST DUP7 SSTORE POP PUSH2 0x4835 JUMP JUMPDEST PUSH1 0x1F NOT DUP5 AND PUSH2 0x47E4 DUP7 PUSH2 0x45D1 JUMP JUMPDEST PUSH0 JUMPDEST DUP3 DUP2 LT ISZERO PUSH2 0x480B JUMPI DUP5 DUP10 ADD MLOAD DUP3 SSTORE PUSH1 0x1 DUP3 ADD SWAP2 POP PUSH1 0x20 DUP6 ADD SWAP5 POP PUSH1 0x20 DUP2 ADD SWAP1 POP PUSH2 0x47E6 JUMP JUMPDEST DUP7 DUP4 LT ISZERO PUSH2 0x4828 JUMPI DUP5 DUP10 ADD MLOAD PUSH2 0x4824 PUSH1 0x1F DUP10 AND DUP3 PUSH2 0x4737 JUMP JUMPDEST DUP4 SSTORE POP JUMPDEST PUSH1 0x1 PUSH1 0x2 DUP9 MUL ADD DUP9 SSTORE POP POP POP JUMPDEST POP POP POP POP POP POP JUMP JUMPDEST PUSH0 DUP2 SWAP1 POP SWAP2 SWAP1 POP JUMP JUMPDEST PUSH0 PUSH8 0xFFFFFFFFFFFFFFFF DUP3 AND SWAP1 POP SWAP2 SWAP1 POP JUMP JUMPDEST PUSH0 PUSH2 0x4873 PUSH2 0x486E PUSH2 0x4869 DUP5 PUSH2 0x483D JUMP JUMPDEST PUSH2 0x464F JUMP JUMPDEST PUSH2 0x4846 JUMP JUMPDEST SWAP1 POP SWAP2 SWAP1 POP JUMP JUMPDEST PUSH2 0x4883 DUP2 PUSH2 0x4859 JUMP JUMPDEST DUP3 MSTORE POP POP JUMP JUMPDEST PUSH0 PUSH1 0x20 DUP3 ADD SWAP1 POP PUSH2 0x489C PUSH0 DUP4 ADD DUP5 PUSH2 0x487A JUMP JUMPDEST SWAP3 SWAP2 POP POP JUMP INVALID LOG2 PUSH5 0x6970667358 0x22 SLT KECCAK256 0xB8 BLOBBASEFEE PUSH12 0x6613230ABA8002E986126D32 0xDA 0xEC 0x23 DUP5 0x22 PUSH8 0x51F5AFD83FAE3332 POP 0xA9 0xD8 PUSH5 0x736F6C6343 STOP ADDMOD XOR STOP CALLER "
				},
				"gasEstimates": {
					"creation": {
						"codeDepositCost": "3729600",
						"executionCost": "52793",
						"totalCost": "3782393"
					},
					"external": {
						"UserStakeAB0(address)": "46427",
						"_aToken()": "2576",
						"_adminToken()": "2598",
						"_bToken()": "2620",
						"_cToken()": "2643",
						"_inviteNum(address)": "2915",
						"_inviterList(uint256)": "5078",
						"_inviterMap(address)": "infinite",
						"_inviterReward(address)": "2891",
						"_lpPriceToken()": "2619",
						"_lpPriceTokenNew()": "2642",
						"_lpToken()": "2621",
						"_proportion()": "2515",
						"_rewardToken()": "2572",
						"_stake1()": "2515",
						"_stake3()": "2537",
						"_stake5()": "2516",
						"_stakeToken()": "2619",
						"_userBlacklist(address)": "2946",
						"_userEndClaimTime(address)": "2894",
						"_userLastClaimTime(address)": "2915",
						"_userMoonClaimNumber(address)": "2870",
						"_userMoonClaimTime(address)": "2870",
						"_userPower(address)": "2891",
						"_userStake(address)": "2869",
						"_userStakeA(address)": "2870",
						"_userStakeB(address)": "2892",
						"_userStakeMonthlyearnings(address)": "2936",
						"_userStakeStartTime(address)": "2937",
						"_userStakeTime(address)": "2935",
						"_wei()": "2537",
						"foo()": "infinite",
						"getInvitationByIndex(uint256)": "infinite",
						"getInvitationsFromIndex(uint256)": "infinite",
						"getInviteCount()": "2572",
						"initialize(address)": "infinite",
						"isClaimStart()": "2650",
						"isStakeStart()": "2576",
						"owner()": "2679",
						"ownerSetUseMoonClaimNumber(address,uint256)": "infinite",
						"ownerSetUser(address,uint256,uint256,uint256,uint256,uint256,uint256,uint256,uint256,uint256)": "infinite",
						"ownerSetUser1(address,uint256,uint256,uint256)": "infinite",
						"ownerSetUserMoonClaimTime(address,uint256)": "infinite",
						"ownerSetUserStakeAB0(address)": "infinite",
						"ownerSetUserStakeTime(address,uint256)": "infinite",
						"renounceOwnership()": "infinite",
						"setProportion(uint256)": "infinite",
						"setStakeToken(address)": "infinite",
						"setStatus(bool,bool)": "infinite",
						"setUserBlacklist(address)": "infinite",
						"set_aToken(address)": "infinite",
						"set_adminToken(address)": "infinite",
						"set_bToken(address)": "infinite",
						"set_cToken(address)": "infinite",
						"set_lpToken(address)": "infinite",
						"set_rewardToken(address)": "infinite",
						"setlpPriceToken(address)": "infinite",
						"stake(uint256,uint256,address,uint256)": "infinite",
						"transferOwnership(address)": "infinite",
						"withdraw()": "infinite",
						"words()": "infinite"
					}
				},
				"methodIdentifiers": {
					"UserStakeAB0(address)": "26e8397f",
					"_aToken()": "7a1a959b",
					"_adminToken()": "6b8de0bf",
					"_bToken()": "3375d043",
					"_cToken()": "1e2a4d98",
					"_inviteNum(address)": "1896b2c4",
					"_inviterList(uint256)": "907b2210",
					"_inviterMap(address)": "264edc1d",
					"_inviterReward(address)": "dd8158e0",
					"_lpPriceToken()": "e53595ed",
					"_lpPriceTokenNew()": "877bcb16",
					"_lpToken()": "29d245aa",
					"_proportion()": "2eae667d",
					"_rewardToken()": "b59c6e0e",
					"_stake1()": "a6b14d5a",
					"_stake3()": "853e03e5",
					"_stake5()": "18883877",
					"_stakeToken()": "71ddda57",
					"_userBlacklist(address)": "115a972e",
					"_userEndClaimTime(address)": "0356c98f",
					"_userLastClaimTime(address)": "7929e29f",
					"_userMoonClaimNumber(address)": "a5dc47d2",
					"_userMoonClaimTime(address)": "1e9be42e",
					"_userPower(address)": "bef4533c",
					"_userStake(address)": "9805fa74",
					"_userStakeA(address)": "8898870f",
					"_userStakeB(address)": "8ace0d0c",
					"_userStakeMonthlyearnings(address)": "6f663610",
					"_userStakeStartTime(address)": "16c259e1",
					"_userStakeTime(address)": "a041e172",
					"_wei()": "ac0e5ed0",
					"foo()": "c2985578",
					"getInvitationByIndex(uint256)": "2c301b76",
					"getInvitationsFromIndex(uint256)": "9c83df3a",
					"getInviteCount()": "fc1315b9",
					"initialize(address)": "c4d66de8",
					"isClaimStart()": "e650d293",
					"isStakeStart()": "f3ef99bc",
					"owner()": "8da5cb5b",
					"ownerSetUseMoonClaimNumber(address,uint256)": "1fe03e61",
					"ownerSetUser(address,uint256,uint256,uint256,uint256,uint256,uint256,uint256,uint256,uint256)": "72885c64",
					"ownerSetUser1(address,uint256,uint256,uint256)": "042737f6",
					"ownerSetUserMoonClaimTime(address,uint256)": "d2240fb9",
					"ownerSetUserStakeAB0(address)": "049108c6",
					"ownerSetUserStakeTime(address,uint256)": "7429a176",
					"renounceOwnership()": "715018a6",
					"setProportion(uint256)": "006cd200",
					"setStakeToken(address)": "0397d458",
					"setStatus(bool,bool)": "b3c2eac1",
					"setUserBlacklist(address)": "7d4cbd57",
					"set_aToken(address)": "1f54dbfe",
					"set_adminToken(address)": "460199b3",
					"set_bToken(address)": "28c4333e",
					"set_cToken(address)": "9f6d4648",
					"set_lpToken(address)": "170f9fb4",
					"set_rewardToken(address)": "7535b3e5",
					"setlpPriceToken(address)": "6d37b382",
					"stake(uint256,uint256,address,uint256)": "711563d4",
					"transferOwnership(address)": "f2fde38b",
					"withdraw()": "3ccfd60b",
					"words()": "f2c31bd9"
				}
			},
			"storageLayout": {
				"storage": [
					{
						"astId": 1060,
						"contract": "contracts/kapai/Stakev1.sol:Stakev1",
						"label": "_rewardToken",
						"offset": 0,
						"slot": "0",
						"type": "t_address"
					},
					{
						"astId": 1062,
						"contract": "contracts/kapai/Stakev1.sol:Stakev1",
						"label": "_stakeToken",
						"offset": 0,
						"slot": "1",
						"type": "t_address"
					},
					{
						"astId": 1064,
						"contract": "contracts/kapai/Stakev1.sol:Stakev1",
						"label": "_lpPriceToken",
						"offset": 0,
						"slot": "2",
						"type": "t_address"
					},
					{
						"astId": 1066,
						"contract": "contracts/kapai/Stakev1.sol:Stakev1",
						"label": "_aToken",
						"offset": 0,
						"slot": "3",
						"type": "t_address"
					},
					{
						"astId": 1068,
						"contract": "contracts/kapai/Stakev1.sol:Stakev1",
						"label": "_bToken",
						"offset": 0,
						"slot": "4",
						"type": "t_address"
					},
					{
						"astId": 1070,
						"contract": "contracts/kapai/Stakev1.sol:Stakev1",
						"label": "_adminToken",
						"offset": 0,
						"slot": "5",
						"type": "t_address"
					},
					{
						"astId": 1072,
						"contract": "contracts/kapai/Stakev1.sol:Stakev1",
						"label": "_stake1",
						"offset": 0,
						"slot": "6",
						"type": "t_uint256"
					},
					{
						"astId": 1074,
						"contract": "contracts/kapai/Stakev1.sol:Stakev1",
						"label": "_stake3",
						"offset": 0,
						"slot": "7",
						"type": "t_uint256"
					},
					{
						"astId": 1076,
						"contract": "contracts/kapai/Stakev1.sol:Stakev1",
						"label": "_stake5",
						"offset": 0,
						"slot": "8",
						"type": "t_uint256"
					},
					{
						"astId": 1078,
						"contract": "contracts/kapai/Stakev1.sol:Stakev1",
						"label": "_proportion",
						"offset": 0,
						"slot": "9",
						"type": "t_uint256"
					},
					{
						"astId": 1081,
						"contract": "contracts/kapai/Stakev1.sol:Stakev1",
						"label": "isStakeStart",
						"offset": 0,
						"slot": "10",
						"type": "t_bool"
					},
					{
						"astId": 1084,
						"contract": "contracts/kapai/Stakev1.sol:Stakev1",
						"label": "isClaimStart",
						"offset": 1,
						"slot": "10",
						"type": "t_bool"
					},
					{
						"astId": 1086,
						"contract": "contracts/kapai/Stakev1.sol:Stakev1",
						"label": "words",
						"offset": 0,
						"slot": "11",
						"type": "t_string_storage"
					},
					{
						"astId": 1090,
						"contract": "contracts/kapai/Stakev1.sol:Stakev1",
						"label": "_inviterMap",
						"offset": 0,
						"slot": "12",
						"type": "t_mapping(t_address,t_address)"
					},
					{
						"astId": 1094,
						"contract": "contracts/kapai/Stakev1.sol:Stakev1",
						"label": "_inviterReward",
						"offset": 0,
						"slot": "13",
						"type": "t_mapping(t_address,t_uint256)"
					},
					{
						"astId": 1098,
						"contract": "contracts/kapai/Stakev1.sol:Stakev1",
						"label": "_inviteNum",
						"offset": 0,
						"slot": "14",
						"type": "t_mapping(t_address,t_uint256)"
					},
					{
						"astId": 1102,
						"contract": "contracts/kapai/Stakev1.sol:Stakev1",
						"label": "_userStake",
						"offset": 0,
						"slot": "15",
						"type": "t_mapping(t_address,t_uint256)"
					},
					{
						"astId": 1106,
						"contract": "contracts/kapai/Stakev1.sol:Stakev1",
						"label": "_userStakeA",
						"offset": 0,
						"slot": "16",
						"type": "t_mapping(t_address,t_uint256)"
					},
					{
						"astId": 1110,
						"contract": "contracts/kapai/Stakev1.sol:Stakev1",
						"label": "_userStakeB",
						"offset": 0,
						"slot": "17",
						"type": "t_mapping(t_address,t_uint256)"
					},
					{
						"astId": 1114,
						"contract": "contracts/kapai/Stakev1.sol:Stakev1",
						"label": "_userStakeTime",
						"offset": 0,
						"slot": "18",
						"type": "t_mapping(t_address,t_uint256)"
					},
					{
						"astId": 1118,
						"contract": "contracts/kapai/Stakev1.sol:Stakev1",
						"label": "_userStakeStartTime",
						"offset": 0,
						"slot": "19",
						"type": "t_mapping(t_address,t_uint256)"
					},
					{
						"astId": 1122,
						"contract": "contracts/kapai/Stakev1.sol:Stakev1",
						"label": "_userLastClaimTime",
						"offset": 0,
						"slot": "20",
						"type": "t_mapping(t_address,t_uint256)"
					},
					{
						"astId": 1126,
						"contract": "contracts/kapai/Stakev1.sol:Stakev1",
						"label": "_userEndClaimTime",
						"offset": 0,
						"slot": "21",
						"type": "t_mapping(t_address,t_uint256)"
					},
					{
						"astId": 1130,
						"contract": "contracts/kapai/Stakev1.sol:Stakev1",
						"label": "_userPower",
						"offset": 0,
						"slot": "22",
						"type": "t_mapping(t_address,t_uint256)"
					},
					{
						"astId": 1134,
						"contract": "contracts/kapai/Stakev1.sol:Stakev1",
						"label": "_userBlacklist",
						"offset": 0,
						"slot": "23",
						"type": "t_mapping(t_address,t_bool)"
					},
					{
						"astId": 1138,
						"contract": "contracts/kapai/Stakev1.sol:Stakev1",
						"label": "_userStakeMonthlyearnings",
						"offset": 0,
						"slot": "24",
						"type": "t_mapping(t_address,t_uint256)"
					},
					{
						"astId": 1140,
						"contract": "contracts/kapai/Stakev1.sol:Stakev1",
						"label": "_lpPriceTokenNew",
						"offset": 0,
						"slot": "25",
						"type": "t_address"
					},
					{
						"astId": 1142,
						"contract": "contracts/kapai/Stakev1.sol:Stakev1",
						"label": "_lpToken",
						"offset": 0,
						"slot": "26",
						"type": "t_address"
					},
					{
						"astId": 1144,
						"contract": "contracts/kapai/Stakev1.sol:Stakev1",
						"label": "_wei",
						"offset": 0,
						"slot": "27",
						"type": "t_uint256"
					},
					{
						"astId": 1148,
						"contract": "contracts/kapai/Stakev1.sol:Stakev1",
						"label": "_userMoonClaimTime",
						"offset": 0,
						"slot": "28",
						"type": "t_mapping(t_address,t_uint256)"
					},
					{
						"astId": 1152,
						"contract": "contracts/kapai/Stakev1.sol:Stakev1",
						"label": "_userMoonClaimNumber",
						"offset": 0,
						"slot": "29",
						"type": "t_mapping(t_address,t_uint256)"
					},
					{
						"astId": 1155,
						"contract": "contracts/kapai/Stakev1.sol:Stakev1",
						"label": "_inviterList",
						"offset": 0,
						"slot": "30",
						"type": "t_array(t_address)dyn_storage"
					},
					{
						"astId": 1157,
						"contract": "contracts/kapai/Stakev1.sol:Stakev1",
						"label": "_cToken",
						"offset": 0,
						"slot": "31",
						"type": "t_address"
					}
				],
				"types": {
					"t_address": {
						"encoding": "inplace",
						"label": "address",
						"numberOfBytes": "20"
					},
					"t_array(t_address)dyn_storage": {
						"base": "t_address",
						"encoding": "dynamic_array",
						"label": "address[]",
						"numberOfBytes": "32"
					},
					"t_bool": {
						"encoding": "inplace",
						"label": "bool",
						"numberOfBytes": "1"
					},
					"t_mapping(t_address,t_address)": {
						"encoding": "mapping",
						"key": "t_address",
						"label": "mapping(address => address)",
						"numberOfBytes": "32",
						"value": "t_address"
					},
					"t_mapping(t_address,t_bool)": {
						"encoding": "mapping",
						"key": "t_address",
						"label": "mapping(address => bool)",
						"numberOfBytes": "32",
						"value": "t_bool"
					},
					"t_mapping(t_address,t_uint256)": {
						"encoding": "mapping",
						"key": "t_address",
						"label": "mapping(address => uint256)",
						"numberOfBytes": "32",
						"value": "t_uint256"
					},
					"t_string_storage": {
						"encoding": "bytes",
						"label": "string",
						"numberOfBytes": "32"
					},
					"t_uint256": {
						"encoding": "inplace",
						"label": "uint256",
						"numberOfBytes": "32"
					}
				}
			},
			"userdoc": {
				"kind": "user",
				"methods": {},
				"version": 1
			}
		}
	}
}