{
  "_format": "hh-sol-artifact-1",
  "contractName": "dkContract",
  "sourceName": "contracts/dkContract.sol",
  "abi": [
    {
      "inputs": [
        {
          "internalType": "address",
          "name": "_tokenAddress",
          "type": "address"
        }
      ],
      "stateMutability": "nonpayable",
      "type": "constructor"
    },
    {
      "inputs": [
        {
          "internalType": "address",
          "name": "account",
          "type": "address"
        }
      ],
      "name": "balanceOf",
      "outputs": [
        {
          "internalType": "uint256",
          "name": "",
          "type": "uint256"
        }
      ],
      "stateMutability": "view",
      "type": "function"
    },
    {
      "inputs": [
        {
          "internalType": "uint256",
          "name": "_amount",
          "type": "uint256"
        }
      ],
      "name": "transFrom",
      "outputs": [],
      "stateMutability": "nonpayable",
      "type": "function"
    }
  ],
  "bytecode": "0x608060405234801561001057600080fd5b50604051610541380380610541833981810160405281019061003291906100db565b806000806101000a81548173ffffffffffffffffffffffffffffffffffffffff021916908373ffffffffffffffffffffffffffffffffffffffff16021790555050610108565b600080fd5b600073ffffffffffffffffffffffffffffffffffffffff82169050919050565b60006100a88261007d565b9050919050565b6100b88161009d565b81146100c357600080fd5b50565b6000815190506100d5816100af565b92915050565b6000602082840312156100f1576100f0610078565b5b60006100ff848285016100c6565b91505092915050565b61042a806101176000396000f3fe608060405234801561001057600080fd5b50600436106100365760003560e01c806370a082311461003b578063d86c5d561461006b575b600080fd5b61005560048036038101906100509190610232565b610087565b6040516100629190610278565b60405180910390f35b610085600480360381019061008091906102bf565b61012b565b005b60008060009054906101000a900473ffffffffffffffffffffffffffffffffffffffff1673ffffffffffffffffffffffffffffffffffffffff166370a08231836040518263ffffffff1660e01b81526004016100e391906102fb565b602060405180830381865afa158015610100573d6000803e3d6000fd5b505050506040513d601f19601f82011682018060405250810190610124919061032b565b9050919050565b60008054906101000a900473ffffffffffffffffffffffffffffffffffffffff1673ffffffffffffffffffffffffffffffffffffffff166323b872dd3330846040518463ffffffff1660e01b815260040161018893929190610358565b6020604051808303816000875af11580156101a7573d6000803e3d6000fd5b505050506040513d601f19601f820116820180604052508101906101cb91906103c7565b5050565b600080fd5b600073ffffffffffffffffffffffffffffffffffffffff82169050919050565b60006101ff826101d4565b9050919050565b61020f816101f4565b811461021a57600080fd5b50565b60008135905061022c81610206565b92915050565b600060208284031215610248576102476101cf565b5b60006102568482850161021d565b91505092915050565b6000819050919050565b6102728161025f565b82525050565b600060208201905061028d6000830184610269565b92915050565b61029c8161025f565b81146102a757600080fd5b50565b6000813590506102b981610293565b92915050565b6000602082840312156102d5576102d46101cf565b5b60006102e3848285016102aa565b91505092915050565b6102f5816101f4565b82525050565b600060208201905061031060008301846102ec565b92915050565b60008151905061032581610293565b92915050565b600060208284031215610341576103406101cf565b5b600061034f84828501610316565b91505092915050565b600060608201905061036d60008301866102ec565b61037a60208301856102ec565b6103876040830184610269565b949350505050565b60008115159050919050565b6103a48161038f565b81146103af57600080fd5b50565b6000815190506103c18161039b565b92915050565b6000602082840312156103dd576103dc6101cf565b5b60006103eb848285016103b2565b9150509291505056fea26469706673582212200a54275258a639d6619369c697ef255f18b99855898dac69caff9803f052edaf64736f6c63430008110033",
  "linkReferences": {},
  "deployedLinkReferences": {}
}