{
	"contracts/ebcTrans/Copy_stakeEbc.sol": {
		"Stake": {
			"abi": [
				{
					"anonymous": false,
					"inputs": [
						{
							"indexed": true,
							"internalType": "address",
							"name": "previousOwner",
							"type": "address"
						},
						{
							"indexed": true,
							"internalType": "address",
							"name": "newOwner",
							"type": "address"
						}
					],
					"name": "OwnershipTransferred",
					"type": "event"
				},
				{
					"inputs": [],
					"name": "_aToken",
					"outputs": [
						{
							"internalType": "address",
							"name": "",
							"type": "address"
						}
					],
					"stateMutability": "view",
					"type": "function"
				},
				{
					"inputs": [],
					"name": "_adminToken",
					"outputs": [
						{
							"internalType": "address",
							"name": "",
							"type": "address"
						}
					],
					"stateMutability": "view",
					"type": "function"
				},
				{
					"inputs": [],
					"name": "_bToken",
					"outputs": [
						{
							"internalType": "address",
							"name": "",
							"type": "address"
						}
					],
					"stateMutability": "view",
					"type": "function"
				},
				{
					"inputs": [
						{
							"internalType": "address",
							"name": "",
							"type": "address"
						}
					],
					"name": "_inviteNum",
					"outputs": [
						{
							"internalType": "uint256",
							"name": "",
							"type": "uint256"
						}
					],
					"stateMutability": "view",
					"type": "function"
				},
				{
					"inputs": [
						{
							"internalType": "address",
							"name": "",
							"type": "address"
						}
					],
					"name": "_inviterMap",
					"outputs": [
						{
							"internalType": "address",
							"name": "",
							"type": "address"
						}
					],
					"stateMutability": "view",
					"type": "function"
				},
				{
					"inputs": [
						{
							"internalType": "address",
							"name": "",
							"type": "address"
						}
					],
					"name": "_inviterReward",
					"outputs": [
						{
							"internalType": "uint256",
							"name": "",
							"type": "uint256"
						}
					],
					"stateMutability": "view",
					"type": "function"
				},
				{
					"inputs": [],
					"name": "_lpPriceToken",
					"outputs": [
						{
							"internalType": "address",
							"name": "",
							"type": "address"
						}
					],
					"stateMutability": "view",
					"type": "function"
				},
				{
					"inputs": [],
					"name": "_proportion",
					"outputs": [
						{
							"internalType": "uint256",
							"name": "",
							"type": "uint256"
						}
					],
					"stateMutability": "view",
					"type": "function"
				},
				{
					"inputs": [],
					"name": "_rewardToken",
					"outputs": [
						{
							"internalType": "address",
							"name": "",
							"type": "address"
						}
					],
					"stateMutability": "view",
					"type": "function"
				},
				{
					"inputs": [],
					"name": "_stake1",
					"outputs": [
						{
							"internalType": "uint256",
							"name": "",
							"type": "uint256"
						}
					],
					"stateMutability": "view",
					"type": "function"
				},
				{
					"inputs": [],
					"name": "_stake3",
					"outputs": [
						{
							"internalType": "uint256",
							"name": "",
							"type": "uint256"
						}
					],
					"stateMutability": "view",
					"type": "function"
				},
				{
					"inputs": [],
					"name": "_stake5",
					"outputs": [
						{
							"internalType": "uint256",
							"name": "",
							"type": "uint256"
						}
					],
					"stateMutability": "view",
					"type": "function"
				},
				{
					"inputs": [],
					"name": "_stakeToken",
					"outputs": [
						{
							"internalType": "address",
							"name": "",
							"type": "address"
						}
					],
					"stateMutability": "view",
					"type": "function"
				},
				{
					"inputs": [
						{
							"internalType": "address",
							"name": "",
							"type": "address"
						}
					],
					"name": "_userBlacklist",
					"outputs": [
						{
							"internalType": "bool",
							"name": "",
							"type": "bool"
						}
					],
					"stateMutability": "view",
					"type": "function"
				},
				{
					"inputs": [
						{
							"internalType": "address",
							"name": "",
							"type": "address"
						}
					],
					"name": "_userEndClaimTime",
					"outputs": [
						{
							"internalType": "uint256",
							"name": "",
							"type": "uint256"
						}
					],
					"stateMutability": "view",
					"type": "function"
				},
				{
					"inputs": [
						{
							"internalType": "address",
							"name": "",
							"type": "address"
						}
					],
					"name": "_userLastClaimTime",
					"outputs": [
						{
							"internalType": "uint256",
							"name": "",
							"type": "uint256"
						}
					],
					"stateMutability": "view",
					"type": "function"
				},
				{
					"inputs": [
						{
							"internalType": "address",
							"name": "",
							"type": "address"
						}
					],
					"name": "_userPower",
					"outputs": [
						{
							"internalType": "uint256",
							"name": "",
							"type": "uint256"
						}
					],
					"stateMutability": "view",
					"type": "function"
				},
				{
					"inputs": [
						{
							"internalType": "address",
							"name": "",
							"type": "address"
						}
					],
					"name": "_userStake",
					"outputs": [
						{
							"internalType": "uint256",
							"name": "",
							"type": "uint256"
						}
					],
					"stateMutability": "view",
					"type": "function"
				},
				{
					"inputs": [
						{
							"internalType": "address",
							"name": "",
							"type": "address"
						}
					],
					"name": "_userStakeB",
					"outputs": [
						{
							"internalType": "uint256",
							"name": "",
							"type": "uint256"
						}
					],
					"stateMutability": "view",
					"type": "function"
				},
				{
					"inputs": [
						{
							"internalType": "address",
							"name": "",
							"type": "address"
						}
					],
					"name": "_userStakeStartTime",
					"outputs": [
						{
							"internalType": "uint256",
							"name": "",
							"type": "uint256"
						}
					],
					"stateMutability": "view",
					"type": "function"
				},
				{
					"inputs": [
						{
							"internalType": "address",
							"name": "",
							"type": "address"
						}
					],
					"name": "_userStakeTime",
					"outputs": [
						{
							"internalType": "uint256",
							"name": "",
							"type": "uint256"
						}
					],
					"stateMutability": "view",
					"type": "function"
				},
				{
					"inputs": [
						{
							"internalType": "address",
							"name": "",
							"type": "address"
						}
					],
					"name": "_userStakeY",
					"outputs": [
						{
							"internalType": "uint256",
							"name": "",
							"type": "uint256"
						}
					],
					"stateMutability": "view",
					"type": "function"
				},
				{
					"inputs": [
						{
							"internalType": "uint256",
							"name": "amount",
							"type": "uint256"
						}
					],
					"name": "cancalStackOver",
					"outputs": [],
					"stateMutability": "nonpayable",
					"type": "function"
				},
				{
					"inputs": [
						{
							"internalType": "address",
							"name": "token",
							"type": "address"
						},
						{
							"internalType": "uint256",
							"name": "t_amount",
							"type": "uint256"
						}
					],
					"name": "claimReward_all",
					"outputs": [],
					"stateMutability": "nonpayable",
					"type": "function"
				},
				{
					"inputs": [],
					"name": "isClaimStart",
					"outputs": [
						{
							"internalType": "bool",
							"name": "",
							"type": "bool"
						}
					],
					"stateMutability": "view",
					"type": "function"
				},
				{
					"inputs": [],
					"name": "isStakeStart",
					"outputs": [
						{
							"internalType": "bool",
							"name": "",
							"type": "bool"
						}
					],
					"stateMutability": "view",
					"type": "function"
				},
				{
					"inputs": [],
					"name": "lpPrice",
					"outputs": [
						{
							"internalType": "uint256",
							"name": "",
							"type": "uint256"
						}
					],
					"stateMutability": "view",
					"type": "function"
				},
				{
					"inputs": [],
					"name": "owner",
					"outputs": [
						{
							"internalType": "address",
							"name": "",
							"type": "address"
						}
					],
					"stateMutability": "view",
					"type": "function"
				},
				{
					"inputs": [
						{
							"internalType": "address",
							"name": "user",
							"type": "address"
						},
						{
							"internalType": "uint256",
							"name": "amount",
							"type": "uint256"
						},
						{
							"internalType": "uint256",
							"name": "stakeTime",
							"type": "uint256"
						},
						{
							"internalType": "uint256",
							"name": "stakeStartTime",
							"type": "uint256"
						},
						{
							"internalType": "uint256",
							"name": "userLastClaim",
							"type": "uint256"
						},
						{
							"internalType": "uint256",
							"name": "userPower",
							"type": "uint256"
						},
						{
							"internalType": "uint256",
							"name": "userEndClaimTime",
							"type": "uint256"
						}
					],
					"name": "ownerSetUser",
					"outputs": [],
					"stateMutability": "nonpayable",
					"type": "function"
				},
				{
					"inputs": [
						{
							"internalType": "uint256",
							"name": "proportion_",
							"type": "uint256"
						}
					],
					"name": "setProportion",
					"outputs": [],
					"stateMutability": "nonpayable",
					"type": "function"
				},
				{
					"inputs": [
						{
							"internalType": "address",
							"name": "token",
							"type": "address"
						}
					],
					"name": "setStakeToken",
					"outputs": [],
					"stateMutability": "nonpayable",
					"type": "function"
				},
				{
					"inputs": [
						{
							"internalType": "bool",
							"name": "stakeStart",
							"type": "bool"
						},
						{
							"internalType": "bool",
							"name": "claimStart",
							"type": "bool"
						}
					],
					"name": "setStatus",
					"outputs": [],
					"stateMutability": "nonpayable",
					"type": "function"
				},
				{
					"inputs": [
						{
							"internalType": "address",
							"name": "user",
							"type": "address"
						}
					],
					"name": "setUserBlacklist",
					"outputs": [],
					"stateMutability": "nonpayable",
					"type": "function"
				},
				{
					"inputs": [
						{
							"internalType": "address",
							"name": "token",
							"type": "address"
						}
					],
					"name": "set_aToken",
					"outputs": [],
					"stateMutability": "nonpayable",
					"type": "function"
				},
				{
					"inputs": [
						{
							"internalType": "address",
							"name": "token",
							"type": "address"
						}
					],
					"name": "set_adminToken",
					"outputs": [],
					"stateMutability": "nonpayable",
					"type": "function"
				},
				{
					"inputs": [
						{
							"internalType": "address",
							"name": "token",
							"type": "address"
						}
					],
					"name": "set_bToken",
					"outputs": [],
					"stateMutability": "nonpayable",
					"type": "function"
				},
				{
					"inputs": [
						{
							"internalType": "address",
							"name": "token",
							"type": "address"
						}
					],
					"name": "set_rewardToken",
					"outputs": [],
					"stateMutability": "nonpayable",
					"type": "function"
				},
				{
					"inputs": [
						{
							"internalType": "address",
							"name": "token",
							"type": "address"
						}
					],
					"name": "setlpPriceToken",
					"outputs": [],
					"stateMutability": "nonpayable",
					"type": "function"
				},
				{
					"inputs": [
						{
							"internalType": "uint256",
							"name": "Yamount",
							"type": "uint256"
						},
						{
							"internalType": "uint256",
							"name": "Bamount",
							"type": "uint256"
						},
						{
							"internalType": "uint256",
							"name": "time",
							"type": "uint256"
						}
					],
					"name": "stakeYB",
					"outputs": [],
					"stateMutability": "nonpayable",
					"type": "function"
				},
				{
					"inputs": [
						{
							"internalType": "address",
							"name": "newOwner",
							"type": "address"
						}
					],
					"name": "transferOwnership",
					"outputs": [],
					"stateMutability": "nonpayable",
					"type": "function"
				},
				{
					"inputs": [],
					"name": "withdraw",
					"outputs": [],
					"stateMutability": "nonpayable",
					"type": "function"
				}
			],
			"devdoc": {
				"kind": "dev",
				"methods": {},
				"version": 1
			},
			"evm": {
				"assembly": "    /* \"contracts/ebcTrans/Copy_stakeEbc.sol\":8687:21090  contract Stake is Ownable {... */\n  mstore(0x40, 0x80)\n    /* \"contracts/ebcTrans/Copy_stakeEbc.sol\":8750:8792  0xf1f8e132f0a3F720b3b204D728A8ff316B182258 */\n  0xf1f8e132f0a3f720b3b204d728a8ff316b182258\n    /* \"contracts/ebcTrans/Copy_stakeEbc.sol\":8720:8792  address public _rewardToken = 0xf1f8e132f0a3F720b3b204D728A8ff316B182258 */\n  0x01\n  exp(0x0100, 0x00)\n  dup2\n  sload\n  dup2\n  0xffffffffffffffffffffffffffffffffffffffff\n  mul\n  not\n  and\n  swap1\n  dup4\n  0xffffffffffffffffffffffffffffffffffffffff\n  and\n  mul\n  or\n  swap1\n  sstore\n  pop\n    /* \"contracts/ebcTrans/Copy_stakeEbc.sol\":8843:8885  0x6b6b2D8166D13b58155b8d454F239AE3691257A6 */\n  0x6b6b2d8166d13b58155b8d454f239ae3691257a6\n    /* \"contracts/ebcTrans/Copy_stakeEbc.sol\":8814:8885  address public _stakeToken = 0x6b6b2D8166D13b58155b8d454F239AE3691257A6 */\n  0x02\n  exp(0x0100, 0x00)\n  dup2\n  sload\n  dup2\n  0xffffffffffffffffffffffffffffffffffffffff\n  mul\n  not\n  and\n  swap1\n  dup4\n  0xffffffffffffffffffffffffffffffffffffffff\n  and\n  mul\n  or\n  swap1\n  sstore\n  pop\n    /* \"contracts/ebcTrans/Copy_stakeEbc.sol\":8938:8980  0xB1bF470A9720F8d2E49512DbbcCf7180e4Ac4679 */\n  0xb1bf470a9720f8d2e49512dbbccf7180e4ac4679\n    /* \"contracts/ebcTrans/Copy_stakeEbc.sol\":8907:8980  address public _lpPriceToken = 0xB1bF470A9720F8d2E49512DbbcCf7180e4Ac4679 */\n  0x03\n  exp(0x0100, 0x00)\n  dup2\n  sload\n  dup2\n  0xffffffffffffffffffffffffffffffffffffffff\n  mul\n  not\n  and\n  swap1\n  dup4\n  0xffffffffffffffffffffffffffffffffffffffff\n  and\n  mul\n  or\n  swap1\n  sstore\n  pop\n    /* \"contracts/ebcTrans/Copy_stakeEbc.sol\":9231:9273  0x55d398326f99059fF775485246999027B3197955 */\n  0x55d398326f99059ff775485246999027b3197955\n    /* \"contracts/ebcTrans/Copy_stakeEbc.sol\":9206:9273  address public _aToken = 0x55d398326f99059fF775485246999027B3197955 */\n  0x04\n  exp(0x0100, 0x00)\n  dup2\n  sload\n  dup2\n  0xffffffffffffffffffffffffffffffffffffffff\n  mul\n  not\n  and\n  swap1\n  dup4\n  0xffffffffffffffffffffffffffffffffffffffff\n  and\n  mul\n  or\n  swap1\n  sstore\n  pop\n    /* \"contracts/ebcTrans/Copy_stakeEbc.sol\":9318:9360  0xd114D4436f714dE79F0CB7eB3DB28d873E60602e */\n  0xd114d4436f714de79f0cb7eb3db28d873e60602e\n    /* \"contracts/ebcTrans/Copy_stakeEbc.sol\":9293:9360  address public _bToken = 0xd114D4436f714dE79F0CB7eB3DB28d873E60602e */\n  0x05\n  exp(0x0100, 0x00)\n  dup2\n  sload\n  dup2\n  0xffffffffffffffffffffffffffffffffffffffff\n  mul\n  not\n  and\n  swap1\n  dup4\n  0xffffffffffffffffffffffffffffffffffffffff\n  and\n  mul\n  or\n  swap1\n  sstore\n  pop\n    /* \"contracts/ebcTrans/Copy_stakeEbc.sol\":9434:9476  0x641dc64BfbcdC419bcc7aFb0cE02D244155e1aC6 */\n  0x641dc64bfbcdc419bcc7afb0ce02d244155e1ac6\n    /* \"contracts/ebcTrans/Copy_stakeEbc.sol\":9405:9476  address public _adminToken = 0x641dc64BfbcdC419bcc7aFb0cE02D244155e1aC6 */\n  0x06\n  exp(0x0100, 0x00)\n  dup2\n  sload\n  dup2\n  0xffffffffffffffffffffffffffffffffffffffff\n  mul\n  not\n  and\n  swap1\n  dup4\n  0xffffffffffffffffffffffffffffffffffffffff\n  and\n  mul\n  or\n  swap1\n  sstore\n  pop\n    /* \"contracts/ebcTrans/Copy_stakeEbc.sol\":9703:9720  24 hours * 30 * 1 */\n  0x278d00\n    /* \"contracts/ebcTrans/Copy_stakeEbc.sol\":9678:9720  uint256 public _stake1 = 24 hours * 30 * 1 */\n  0x07\n  sstore\n    /* \"contracts/ebcTrans/Copy_stakeEbc.sol\":9765:9782  24 hours * 30 * 3 */\n  0x76a700\n    /* \"contracts/ebcTrans/Copy_stakeEbc.sol\":9740:9782  uint256 public _stake3 = 24 hours * 30 * 3 */\n  0x08\n  sstore\n    /* \"contracts/ebcTrans/Copy_stakeEbc.sol\":9827:9844  24 hours * 30 * 5 */\n  0xc5c100\n    /* \"contracts/ebcTrans/Copy_stakeEbc.sol\":9802:9844  uint256 public _stake5 = 24 hours * 30 * 5 */\n  0x09\n  sstore\n    /* \"contracts/ebcTrans/Copy_stakeEbc.sol\":9895:9899  1000 */\n  0x03e8\n    /* \"contracts/ebcTrans/Copy_stakeEbc.sol\":9866:9899  uint256 public _proportion = 1000 */\n  0x0a\n  sstore\n    /* \"contracts/ebcTrans/Copy_stakeEbc.sol\":10162:10166  true */\n  0x01\n    /* \"contracts/ebcTrans/Copy_stakeEbc.sol\":10135:10166  bool public isStakeStart = true */\n  0x0e\n  exp(0x0100, 0x00)\n  dup2\n  sload\n  dup2\n  0xff\n  mul\n  not\n  and\n  swap1\n  dup4\n  iszero\n  iszero\n  mul\n  or\n  swap1\n  sstore\n  pop\n    /* \"contracts/ebcTrans/Copy_stakeEbc.sol\":10221:10225  true */\n  0x01\n    /* \"contracts/ebcTrans/Copy_stakeEbc.sol\":10194:10225  bool public isClaimStart = true */\n  0x0e\n  exp(0x0100, 0x01)\n  dup2\n  sload\n  dup2\n  0xff\n  mul\n  not\n  and\n  swap1\n  dup4\n  iszero\n  iszero\n  mul\n  or\n  swap1\n  sstore\n  pop\n    /* \"contracts/ebcTrans/Copy_stakeEbc.sol\":8687:21090  contract Stake is Ownable {... */\n  callvalue\n  dup1\n  iszero\n  tag_1\n  jumpi\n  0x00\n  dup1\n  revert\ntag_1:\n  pop\n    /* \"contracts/ebcTrans/Copy_stakeEbc.sol\":1320:1337  address msgSender */\n  0x00\n    /* \"contracts/ebcTrans/Copy_stakeEbc.sol\":1340:1350  msg.sender */\n  caller\n    /* \"contracts/ebcTrans/Copy_stakeEbc.sol\":1320:1350  address msgSender = msg.sender */\n  swap1\n  pop\n    /* \"contracts/ebcTrans/Copy_stakeEbc.sol\":1370:1379  msgSender */\n  dup1\n    /* \"contracts/ebcTrans/Copy_stakeEbc.sol\":1361:1367  _owner */\n  0x00\n  dup1\n    /* \"contracts/ebcTrans/Copy_stakeEbc.sol\":1361:1379  _owner = msgSender */\n  0x0100\n  exp\n  dup2\n  sload\n  dup2\n  0xffffffffffffffffffffffffffffffffffffffff\n  mul\n  not\n  and\n  swap1\n  dup4\n  0xffffffffffffffffffffffffffffffffffffffff\n  and\n  mul\n  or\n  swap1\n  sstore\n  pop\n    /* \"contracts/ebcTrans/Copy_stakeEbc.sol\":1428:1437  msgSender */\n  dup1\n    /* \"contracts/ebcTrans/Copy_stakeEbc.sol\":1395:1438  OwnershipTransferred(address(0), msgSender) */\n  0xffffffffffffffffffffffffffffffffffffffff\n  and\n    /* \"contracts/ebcTrans/Copy_stakeEbc.sol\":1424:1425  0 */\n  0x00\n    /* \"contracts/ebcTrans/Copy_stakeEbc.sol\":1395:1438  OwnershipTransferred(address(0), msgSender) */\n  0xffffffffffffffffffffffffffffffffffffffff\n  and\n  0x8be0079c531659141344cd1fd0a4f28419497f9722a3daafe3b4186f6b6457e0\n  mload(0x40)\n  mload(0x40)\n  dup1\n  swap2\n  sub\n  swap1\n  log3\n    /* \"contracts/ebcTrans/Copy_stakeEbc.sol\":1309:1446  {... */\n  pop\n    /* \"contracts/ebcTrans/Copy_stakeEbc.sol\":8687:21090  contract Stake is Ownable {... */\n  dataSize(sub_0)\n  dup1\n  dataOffset(sub_0)\n  0x00\n  codecopy\n  0x00\n  return\nstop\n\nsub_0: assembly {\n        /* \"contracts/ebcTrans/Copy_stakeEbc.sol\":8687:21090  contract Stake is Ownable {... */\n      mstore(0x40, 0x80)\n      callvalue\n      dup1\n      iszero\n      tag_1\n      jumpi\n      0x00\n      dup1\n      revert\n    tag_1:\n      pop\n      jumpi(tag_2, lt(calldatasize, 0x04))\n      shr(0xe0, calldataload(0x00))\n      dup1\n      0x7929e29f\n      gt\n      tag_44\n      jumpi\n      dup1\n      0xa6f9a1d5\n      gt\n      tag_45\n      jumpi\n      dup1\n      0xe53595ed\n      gt\n      tag_46\n      jumpi\n      dup1\n      0xe53595ed\n      eq\n      tag_38\n      jumpi\n      dup1\n      0xe61ee218\n      eq\n      tag_39\n      jumpi\n      dup1\n      0xe650d293\n      eq\n      tag_40\n      jumpi\n      dup1\n      0xf2fde38b\n      eq\n      tag_41\n      jumpi\n      dup1\n      0xf3ef99bc\n      eq\n      tag_42\n      jumpi\n      dup1\n      0xf7a278bc\n      eq\n      tag_43\n      jumpi\n      jump(tag_2)\n    tag_46:\n      dup1\n      0xa6f9a1d5\n      eq\n      tag_33\n      jumpi\n      dup1\n      0xb3c2eac1\n      eq\n      tag_34\n      jumpi\n      dup1\n      0xb59c6e0e\n      eq\n      tag_35\n      jumpi\n      dup1\n      0xbef4533c\n      eq\n      tag_36\n      jumpi\n      dup1\n      0xdd8158e0\n      eq\n      tag_37\n      jumpi\n      jump(tag_2)\n    tag_45:\n      dup1\n      0x8da5cb5b\n      gt\n      tag_47\n      jumpi\n      dup1\n      0x8da5cb5b\n      eq\n      tag_28\n      jumpi\n      dup1\n      0x91f6963c\n      eq\n      tag_29\n      jumpi\n      dup1\n      0x9805fa74\n      eq\n      tag_30\n      jumpi\n      dup1\n      0xa041e172\n      eq\n      tag_31\n      jumpi\n      dup1\n      0xa6b14d5a\n      eq\n      tag_32\n      jumpi\n      jump(tag_2)\n    tag_47:\n      dup1\n      0x7929e29f\n      eq\n      tag_23\n      jumpi\n      dup1\n      0x7a1a959b\n      eq\n      tag_24\n      jumpi\n      dup1\n      0x7d4cbd57\n      eq\n      tag_25\n      jumpi\n      dup1\n      0x853e03e5\n      eq\n      tag_26\n      jumpi\n      dup1\n      0x8ace0d0c\n      eq\n      tag_27\n      jumpi\n      jump(tag_2)\n    tag_44:\n      dup1\n      0x28c4333e\n      gt\n      tag_48\n      jumpi\n      dup1\n      0x69f65dc2\n      gt\n      tag_49\n      jumpi\n      dup1\n      0x69f65dc2\n      eq\n      tag_18\n      jumpi\n      dup1\n      0x6b8de0bf\n      eq\n      tag_19\n      jumpi\n      dup1\n      0x6d37b382\n      eq\n      tag_20\n      jumpi\n      dup1\n      0x71ddda57\n      eq\n      tag_21\n      jumpi\n      dup1\n      0x7535b3e5\n      eq\n      tag_22\n      jumpi\n      jump(tag_2)\n    tag_49:\n      dup1\n      0x28c4333e\n      eq\n      tag_13\n      jumpi\n      dup1\n      0x2eae667d\n      eq\n      tag_14\n      jumpi\n      dup1\n      0x3375d043\n      eq\n      tag_15\n      jumpi\n      dup1\n      0x3ccfd60b\n      eq\n      tag_16\n      jumpi\n      dup1\n      0x460199b3\n      eq\n      tag_17\n      jumpi\n      jump(tag_2)\n    tag_48:\n      dup1\n      0x16c259e1\n      gt\n      tag_50\n      jumpi\n      dup1\n      0x16c259e1\n      eq\n      tag_8\n      jumpi\n      dup1\n      0x18883877\n      eq\n      tag_9\n      jumpi\n      dup1\n      0x1896b2c4\n      eq\n      tag_10\n      jumpi\n      dup1\n      0x1f54dbfe\n      eq\n      tag_11\n      jumpi\n      dup1\n      0x264edc1d\n      eq\n      tag_12\n      jumpi\n      jump(tag_2)\n    tag_50:\n      dup1\n      0x6cd200\n      eq\n      tag_3\n      jumpi\n      dup1\n      0x0356c98f\n      eq\n      tag_4\n      jumpi\n      dup1\n      0x0397d458\n      eq\n      tag_5\n      jumpi\n      dup1\n      0x0c280444\n      eq\n      tag_6\n      jumpi\n      dup1\n      0x115a972e\n      eq\n      tag_7\n      jumpi\n    tag_2:\n      0x00\n      dup1\n      revert\n        /* \"contracts/ebcTrans/Copy_stakeEbc.sol\":11618:11723  function setProportion(uint256 proportion_) public onlyOwner {... */\n    tag_3:\n      tag_51\n      0x04\n      dup1\n      calldatasize\n      sub\n      dup2\n      add\n      swap1\n      tag_52\n      swap2\n      swap1\n      tag_53\n      jump\t// in\n    tag_52:\n      tag_54\n      jump\t// in\n    tag_51:\n      stop\n        /* \"contracts/ebcTrans/Copy_stakeEbc.sol\":10740:10792  mapping(address => uint256) public _userEndClaimTime */\n    tag_4:\n      tag_55\n      0x04\n      dup1\n      calldatasize\n      sub\n      dup2\n      add\n      swap1\n      tag_56\n      swap2\n      swap1\n      tag_57\n      jump\t// in\n    tag_56:\n      tag_58\n      jump\t// in\n    tag_55:\n      mload(0x40)\n      tag_59\n      swap2\n      swap1\n      tag_60\n      jump\t// in\n    tag_59:\n      mload(0x40)\n      dup1\n      swap2\n      sub\n      swap1\n      return\n        /* \"contracts/ebcTrans/Copy_stakeEbc.sol\":11906:11999  function setStakeToken(address token) public onlyOwner {... */\n    tag_5:\n      tag_61\n      0x04\n      dup1\n      calldatasize\n      sub\n      dup2\n      add\n      swap1\n      tag_62\n      swap2\n      swap1\n      tag_57\n      jump\t// in\n    tag_62:\n      tag_63\n      jump\t// in\n    tag_61:\n      stop\n        /* \"contracts/ebcTrans/Copy_stakeEbc.sol\":20419:20651  function lpPrice() public view returns (uint256) {        ... */\n    tag_6:\n      tag_64\n      tag_65\n      jump\t// in\n    tag_64:\n      mload(0x40)\n      tag_66\n      swap2\n      swap1\n      tag_60\n      jump\t// in\n    tag_66:\n      mload(0x40)\n      dup1\n      swap2\n      sub\n      swap1\n      return\n        /* \"contracts/ebcTrans/Copy_stakeEbc.sol\":10889:10935  mapping(address => bool) public _userBlacklist */\n    tag_7:\n      tag_67\n      0x04\n      dup1\n      calldatasize\n      sub\n      dup2\n      add\n      swap1\n      tag_68\n      swap2\n      swap1\n      tag_57\n      jump\t// in\n    tag_68:\n      tag_69\n      jump\t// in\n    tag_67:\n      mload(0x40)\n      tag_70\n      swap2\n      swap1\n      tag_71\n      jump\t// in\n    tag_70:\n      mload(0x40)\n      dup1\n      swap2\n      sub\n      swap1\n      return\n        /* \"contracts/ebcTrans/Copy_stakeEbc.sol\":10559:10613  mapping(address => uint256) public _userStakeStartTime */\n    tag_8:\n      tag_72\n      0x04\n      dup1\n      calldatasize\n      sub\n      dup2\n      add\n      swap1\n      tag_73\n      swap2\n      swap1\n      tag_57\n      jump\t// in\n    tag_73:\n      tag_74\n      jump\t// in\n    tag_72:\n      mload(0x40)\n      tag_75\n      swap2\n      swap1\n      tag_60\n      jump\t// in\n    tag_75:\n      mload(0x40)\n      dup1\n      swap2\n      sub\n      swap1\n      return\n        /* \"contracts/ebcTrans/Copy_stakeEbc.sol\":9802:9844  uint256 public _stake5 = 24 hours * 30 * 5 */\n    tag_9:\n      tag_76\n      tag_77\n      jump\t// in\n    tag_76:\n      mload(0x40)\n      tag_78\n      swap2\n      swap1\n      tag_60\n      jump\t// in\n    tag_78:\n      mload(0x40)\n      dup1\n      swap2\n      sub\n      swap1\n      return\n        /* \"contracts/ebcTrans/Copy_stakeEbc.sol\":10066:10111  mapping(address => uint256) public _inviteNum */\n    tag_10:\n      tag_79\n      0x04\n      dup1\n      calldatasize\n      sub\n      dup2\n      add\n      swap1\n      tag_80\n      swap2\n      swap1\n      tag_57\n      jump\t// in\n    tag_80:\n      tag_81\n      jump\t// in\n    tag_79:\n      mload(0x40)\n      tag_82\n      swap2\n      swap1\n      tag_60\n      jump\t// in\n    tag_82:\n      mload(0x40)\n      dup1\n      swap2\n      sub\n      swap1\n      return\n        /* \"contracts/ebcTrans/Copy_stakeEbc.sol\":10980:11066  function set_aToken(address token) public onlyOwner {... */\n    tag_11:\n      tag_83\n      0x04\n      dup1\n      calldatasize\n      sub\n      dup2\n      add\n      swap1\n      tag_84\n      swap2\n      swap1\n      tag_57\n      jump\t// in\n    tag_84:\n      tag_85\n      jump\t// in\n    tag_83:\n      stop\n        /* \"contracts/ebcTrans/Copy_stakeEbc.sol\":9927:9973  mapping(address => address) public _inviterMap */\n    tag_12:\n      tag_86\n      0x04\n      dup1\n      calldatasize\n      sub\n      dup2\n      add\n      swap1\n      tag_87\n      swap2\n      swap1\n      tag_57\n      jump\t// in\n    tag_87:\n      tag_88\n      jump\t// in\n    tag_86:\n      mload(0x40)\n      tag_89\n      swap2\n      swap1\n      tag_90\n      jump\t// in\n    tag_89:\n      mload(0x40)\n      dup1\n      swap2\n      sub\n      swap1\n      return\n        /* \"contracts/ebcTrans/Copy_stakeEbc.sol\":11093:11179  function set_bToken(address token) public onlyOwner {... */\n    tag_13:\n      tag_91\n      0x04\n      dup1\n      calldatasize\n      sub\n      dup2\n      add\n      swap1\n      tag_92\n      swap2\n      swap1\n      tag_57\n      jump\t// in\n    tag_92:\n      tag_93\n      jump\t// in\n    tag_91:\n      stop\n        /* \"contracts/ebcTrans/Copy_stakeEbc.sol\":9866:9899  uint256 public _proportion = 1000 */\n    tag_14:\n      tag_94\n      tag_95\n      jump\t// in\n    tag_94:\n      mload(0x40)\n      tag_96\n      swap2\n      swap1\n      tag_60\n      jump\t// in\n    tag_96:\n      mload(0x40)\n      dup1\n      swap2\n      sub\n      swap1\n      return\n        /* \"contracts/ebcTrans/Copy_stakeEbc.sol\":9293:9360  address public _bToken = 0xd114D4436f714dE79F0CB7eB3DB28d873E60602e */\n    tag_15:\n      tag_97\n      tag_98\n      jump\t// in\n    tag_97:\n      mload(0x40)\n      tag_99\n      swap2\n      swap1\n      tag_90\n      jump\t// in\n    tag_99:\n      mload(0x40)\n      dup1\n      swap2\n      sub\n      swap1\n      return\n        /* \"contracts/ebcTrans/Copy_stakeEbc.sol\":19710:19819  function withdraw() external onlyOwner {... */\n    tag_16:\n      tag_100\n      tag_101\n      jump\t// in\n    tag_100:\n      stop\n        /* \"contracts/ebcTrans/Copy_stakeEbc.sol\":11343:11437  function set_adminToken(address token) public onlyOwner {... */\n    tag_17:\n      tag_102\n      0x04\n      dup1\n      calldatasize\n      sub\n      dup2\n      add\n      swap1\n      tag_103\n      swap2\n      swap1\n      tag_57\n      jump\t// in\n    tag_103:\n      tag_104\n      jump\t// in\n    tag_102:\n      stop\n        /* \"contracts/ebcTrans/Copy_stakeEbc.sol\":13856:14073  function claimReward_all(address token,uint256 t_amount) public onlyOwner{       ... */\n    tag_18:\n      tag_105\n      0x04\n      dup1\n      calldatasize\n      sub\n      dup2\n      add\n      swap1\n      tag_106\n      swap2\n      swap1\n      tag_107\n      jump\t// in\n    tag_106:\n      tag_108\n      jump\t// in\n    tag_105:\n      stop\n        /* \"contracts/ebcTrans/Copy_stakeEbc.sol\":9405:9476  address public _adminToken = 0x641dc64BfbcdC419bcc7aFb0cE02D244155e1aC6 */\n    tag_19:\n      tag_109\n      tag_110\n      jump\t// in\n    tag_109:\n      mload(0x40)\n      tag_111\n      swap2\n      swap1\n      tag_90\n      jump\t// in\n    tag_111:\n      mload(0x40)\n      dup1\n      swap2\n      sub\n      swap1\n      return\n        /* \"contracts/ebcTrans/Copy_stakeEbc.sol\":11488:11585  function setlpPriceToken(address token) public onlyOwner {... */\n    tag_20:\n      tag_112\n      0x04\n      dup1\n      calldatasize\n      sub\n      dup2\n      add\n      swap1\n      tag_113\n      swap2\n      swap1\n      tag_57\n      jump\t// in\n    tag_113:\n      tag_114\n      jump\t// in\n    tag_112:\n      stop\n        /* \"contracts/ebcTrans/Copy_stakeEbc.sol\":8814:8885  address public _stakeToken = 0x6b6b2D8166D13b58155b8d454F239AE3691257A6 */\n    tag_21:\n      tag_115\n      tag_116\n      jump\t// in\n    tag_115:\n      mload(0x40)\n      tag_117\n      swap2\n      swap1\n      tag_90\n      jump\t// in\n    tag_117:\n      mload(0x40)\n      dup1\n      swap2\n      sub\n      swap1\n      return\n        /* \"contracts/ebcTrans/Copy_stakeEbc.sol\":11214:11310  function set_rewardToken(address token) public onlyOwner {... */\n    tag_22:\n      tag_118\n      0x04\n      dup1\n      calldatasize\n      sub\n      dup2\n      add\n      swap1\n      tag_119\n      swap2\n      swap1\n      tag_57\n      jump\t// in\n    tag_119:\n      tag_120\n      jump\t// in\n    tag_118:\n      stop\n        /* \"contracts/ebcTrans/Copy_stakeEbc.sol\":10647:10700  mapping(address => uint256) public _userLastClaimTime */\n    tag_23:\n      tag_121\n      0x04\n      dup1\n      calldatasize\n      sub\n      dup2\n      add\n      swap1\n      tag_122\n      swap2\n      swap1\n      tag_57\n      jump\t// in\n    tag_122:\n      tag_123\n      jump\t// in\n    tag_121:\n      mload(0x40)\n      tag_124\n      swap2\n      swap1\n      tag_60\n      jump\t// in\n    tag_124:\n      mload(0x40)\n      dup1\n      swap2\n      sub\n      swap1\n      return\n        /* \"contracts/ebcTrans/Copy_stakeEbc.sol\":9206:9273  address public _aToken = 0x55d398326f99059fF775485246999027B3197955 */\n    tag_24:\n      tag_125\n      tag_126\n      jump\t// in\n    tag_125:\n      mload(0x40)\n      tag_127\n      swap2\n      swap1\n      tag_90\n      jump\t// in\n    tag_127:\n      mload(0x40)\n      dup1\n      swap2\n      sub\n      swap1\n      return\n        /* \"contracts/ebcTrans/Copy_stakeEbc.sol\":11752:11872  function setUserBlacklist(address user) public onlyOwner {... */\n    tag_25:\n      tag_128\n      0x04\n      dup1\n      calldatasize\n      sub\n      dup2\n      add\n      swap1\n      tag_129\n      swap2\n      swap1\n      tag_57\n      jump\t// in\n    tag_129:\n      tag_130\n      jump\t// in\n    tag_128:\n      stop\n        /* \"contracts/ebcTrans/Copy_stakeEbc.sol\":9740:9782  uint256 public _stake3 = 24 hours * 30 * 3 */\n    tag_26:\n      tag_131\n      tag_132\n      jump\t// in\n    tag_131:\n      mload(0x40)\n      tag_133\n      swap2\n      swap1\n      tag_60\n      jump\t// in\n    tag_133:\n      mload(0x40)\n      dup1\n      swap2\n      sub\n      swap1\n      return\n        /* \"contracts/ebcTrans/Copy_stakeEbc.sol\":10408:10454  mapping(address => uint256) public _userStakeB */\n    tag_27:\n      tag_134\n      0x04\n      dup1\n      calldatasize\n      sub\n      dup2\n      add\n      swap1\n      tag_135\n      swap2\n      swap1\n      tag_57\n      jump\t// in\n    tag_135:\n      tag_136\n      jump\t// in\n    tag_134:\n      mload(0x40)\n      tag_137\n      swap2\n      swap1\n      tag_60\n      jump\t// in\n    tag_137:\n      mload(0x40)\n      dup1\n      swap2\n      sub\n      swap1\n      return\n        /* \"contracts/ebcTrans/Copy_stakeEbc.sol\":1454:1533  function owner() public view returns (address) {... */\n    tag_28:\n      tag_138\n      tag_139\n      jump\t// in\n    tag_138:\n      mload(0x40)\n      tag_140\n      swap2\n      swap1\n      tag_90\n      jump\t// in\n    tag_140:\n      mload(0x40)\n      dup1\n      swap2\n      sub\n      swap1\n      return\n        /* \"contracts/ebcTrans/Copy_stakeEbc.sol\":20693:21087  function cancalStackOver(uint256 amount) public onlyOwner{      ... */\n    tag_29:\n      tag_141\n      0x04\n      dup1\n      calldatasize\n      sub\n      dup2\n      add\n      swap1\n      tag_142\n      swap2\n      swap1\n      tag_53\n      jump\t// in\n    tag_142:\n      tag_143\n      jump\t// in\n    tag_141:\n      stop\n        /* \"contracts/ebcTrans/Copy_stakeEbc.sol\":10261:10306  mapping(address => uint256) public _userStake */\n    tag_30:\n      tag_144\n      0x04\n      dup1\n      calldatasize\n      sub\n      dup2\n      add\n      swap1\n      tag_145\n      swap2\n      swap1\n      tag_57\n      jump\t// in\n    tag_145:\n      tag_146\n      jump\t// in\n    tag_144:\n      mload(0x40)\n      tag_147\n      swap2\n      swap1\n      tag_60\n      jump\t// in\n    tag_147:\n      mload(0x40)\n      dup1\n      swap2\n      sub\n      swap1\n      return\n        /* \"contracts/ebcTrans/Copy_stakeEbc.sol\":10482:10531  mapping(address => uint256) public _userStakeTime */\n    tag_31:\n      tag_148\n      0x04\n      dup1\n      calldatasize\n      sub\n      dup2\n      add\n      swap1\n      tag_149\n      swap2\n      swap1\n      tag_57\n      jump\t// in\n    tag_149:\n      tag_150\n      jump\t// in\n    tag_148:\n      mload(0x40)\n      tag_151\n      swap2\n      swap1\n      tag_60\n      jump\t// in\n    tag_151:\n      mload(0x40)\n      dup1\n      swap2\n      sub\n      swap1\n      return\n        /* \"contracts/ebcTrans/Copy_stakeEbc.sol\":9678:9720  uint256 public _stake1 = 24 hours * 30 * 1 */\n    tag_32:\n      tag_152\n      tag_153\n      jump\t// in\n    tag_152:\n      mload(0x40)\n      tag_154\n      swap2\n      swap1\n      tag_60\n      jump\t// in\n    tag_154:\n      mload(0x40)\n      dup1\n      swap2\n      sub\n      swap1\n      return\n        /* \"contracts/ebcTrans/Copy_stakeEbc.sol\":10334:10380  mapping(address => uint256) public _userStakeY */\n    tag_33:\n      tag_155\n      0x04\n      dup1\n      calldatasize\n      sub\n      dup2\n      add\n      swap1\n      tag_156\n      swap2\n      swap1\n      tag_57\n      jump\t// in\n    tag_156:\n      tag_157\n      jump\t// in\n    tag_155:\n      mload(0x40)\n      tag_158\n      swap2\n      swap1\n      tag_60\n      jump\t// in\n    tag_158:\n      mload(0x40)\n      dup1\n      swap2\n      sub\n      swap1\n      return\n        /* \"contracts/ebcTrans/Copy_stakeEbc.sol\":12027:12177  function setStatus(bool stakeStart, bool claimStart) public onlyOwner {... */\n    tag_34:\n      tag_159\n      0x04\n      dup1\n      calldatasize\n      sub\n      dup2\n      add\n      swap1\n      tag_160\n      swap2\n      swap1\n      tag_161\n      jump\t// in\n    tag_160:\n      tag_162\n      jump\t// in\n    tag_159:\n      stop\n        /* \"contracts/ebcTrans/Copy_stakeEbc.sol\":8720:8792  address public _rewardToken = 0xf1f8e132f0a3F720b3b204D728A8ff316B182258 */\n    tag_35:\n      tag_163\n      tag_164\n      jump\t// in\n    tag_163:\n      mload(0x40)\n      tag_165\n      swap2\n      swap1\n      tag_90\n      jump\t// in\n    tag_165:\n      mload(0x40)\n      dup1\n      swap2\n      sub\n      swap1\n      return\n        /* \"contracts/ebcTrans/Copy_stakeEbc.sol\":10814:10859  mapping(address => uint256) public _userPower */\n    tag_36:\n      tag_166\n      0x04\n      dup1\n      calldatasize\n      sub\n      dup2\n      add\n      swap1\n      tag_167\n      swap2\n      swap1\n      tag_57\n      jump\t// in\n    tag_167:\n      tag_168\n      jump\t// in\n    tag_166:\n      mload(0x40)\n      tag_169\n      swap2\n      swap1\n      tag_60\n      jump\t// in\n    tag_169:\n      mload(0x40)\n      dup1\n      swap2\n      sub\n      swap1\n      return\n        /* \"contracts/ebcTrans/Copy_stakeEbc.sol\":9992:10041  mapping(address => uint256) public _inviterReward */\n    tag_37:\n      tag_170\n      0x04\n      dup1\n      calldatasize\n      sub\n      dup2\n      add\n      swap1\n      tag_171\n      swap2\n      swap1\n      tag_57\n      jump\t// in\n    tag_171:\n      tag_172\n      jump\t// in\n    tag_170:\n      mload(0x40)\n      tag_173\n      swap2\n      swap1\n      tag_60\n      jump\t// in\n    tag_173:\n      mload(0x40)\n      dup1\n      swap2\n      sub\n      swap1\n      return\n        /* \"contracts/ebcTrans/Copy_stakeEbc.sol\":8907:8980  address public _lpPriceToken = 0xB1bF470A9720F8d2E49512DbbcCf7180e4Ac4679 */\n    tag_38:\n      tag_174\n      tag_175\n      jump\t// in\n    tag_174:\n      mload(0x40)\n      tag_176\n      swap2\n      swap1\n      tag_90\n      jump\t// in\n    tag_176:\n      mload(0x40)\n      dup1\n      swap2\n      sub\n      swap1\n      return\n        /* \"contracts/ebcTrans/Copy_stakeEbc.sol\":19860:20393  function ownerSetUser(... */\n    tag_39:\n      tag_177\n      0x04\n      dup1\n      calldatasize\n      sub\n      dup2\n      add\n      swap1\n      tag_178\n      swap2\n      swap1\n      tag_179\n      jump\t// in\n    tag_178:\n      tag_180\n      jump\t// in\n    tag_177:\n      stop\n        /* \"contracts/ebcTrans/Copy_stakeEbc.sol\":10194:10225  bool public isClaimStart = true */\n    tag_40:\n      tag_181\n      tag_182\n      jump\t// in\n    tag_181:\n      mload(0x40)\n      tag_183\n      swap2\n      swap1\n      tag_71\n      jump\t// in\n    tag_183:\n      mload(0x40)\n      dup1\n      swap2\n      sub\n      swap1\n      return\n        /* \"contracts/ebcTrans/Copy_stakeEbc.sol\":1662:1876  function transferOwnership(address newOwner) public virtual onlyOwner {... */\n    tag_41:\n      tag_184\n      0x04\n      dup1\n      calldatasize\n      sub\n      dup2\n      add\n      swap1\n      tag_185\n      swap2\n      swap1\n      tag_57\n      jump\t// in\n    tag_185:\n      tag_186\n      jump\t// in\n    tag_184:\n      stop\n        /* \"contracts/ebcTrans/Copy_stakeEbc.sol\":10135:10166  bool public isStakeStart = true */\n    tag_42:\n      tag_187\n      tag_188\n      jump\t// in\n    tag_187:\n      mload(0x40)\n      tag_189\n      swap2\n      swap1\n      tag_71\n      jump\t// in\n    tag_189:\n      mload(0x40)\n      dup1\n      swap2\n      sub\n      swap1\n      return\n        /* \"contracts/ebcTrans/Copy_stakeEbc.sol\":12203:13827  function stakeYB(... */\n    tag_43:\n      tag_190\n      0x04\n      dup1\n      calldatasize\n      sub\n      dup2\n      add\n      swap1\n      tag_191\n      swap2\n      swap1\n      tag_192\n      jump\t// in\n    tag_191:\n      tag_193\n      jump\t// in\n    tag_190:\n      stop\n        /* \"contracts/ebcTrans/Copy_stakeEbc.sol\":11618:11723  function setProportion(uint256 proportion_) public onlyOwner {... */\n    tag_54:\n        /* \"contracts/ebcTrans/Copy_stakeEbc.sol\":1591:1601  msg.sender */\n      caller\n        /* \"contracts/ebcTrans/Copy_stakeEbc.sol\":1581:1601  _owner == msg.sender */\n      0xffffffffffffffffffffffffffffffffffffffff\n      and\n        /* \"contracts/ebcTrans/Copy_stakeEbc.sol\":1581:1587  _owner */\n      0x00\n      dup1\n      sload\n      swap1\n      0x0100\n      exp\n      swap1\n      div\n      0xffffffffffffffffffffffffffffffffffffffff\n      and\n        /* \"contracts/ebcTrans/Copy_stakeEbc.sol\":1581:1601  _owner == msg.sender */\n      0xffffffffffffffffffffffffffffffffffffffff\n      and\n      eq\n        /* \"contracts/ebcTrans/Copy_stakeEbc.sol\":1581:1623  _owner == msg.sender||_owner == msg.sender */\n      dup1\n      tag_195\n      jumpi\n      pop\n        /* \"contracts/ebcTrans/Copy_stakeEbc.sol\":1613:1623  msg.sender */\n      caller\n        /* \"contracts/ebcTrans/Copy_stakeEbc.sol\":1603:1623  _owner == msg.sender */\n      0xffffffffffffffffffffffffffffffffffffffff\n      and\n        /* \"contracts/ebcTrans/Copy_stakeEbc.sol\":1603:1609  _owner */\n      0x00\n      dup1\n      sload\n      swap1\n      0x0100\n      exp\n      swap1\n      div\n      0xffffffffffffffffffffffffffffffffffffffff\n      and\n        /* \"contracts/ebcTrans/Copy_stakeEbc.sol\":1603:1623  _owner == msg.sender */\n      0xffffffffffffffffffffffffffffffffffffffff\n      and\n      eq\n        /* \"contracts/ebcTrans/Copy_stakeEbc.sol\":1581:1623  _owner == msg.sender||_owner == msg.sender */\n    tag_195:\n        /* \"contracts/ebcTrans/Copy_stakeEbc.sol\":1573:1634  require(_owner == msg.sender||_owner == msg.sender, \"!owner\") */\n      tag_196\n      jumpi\n      mload(0x40)\n      0x08c379a000000000000000000000000000000000000000000000000000000000\n      dup2\n      mstore\n      0x04\n      add\n      tag_197\n      swap1\n      tag_198\n      jump\t// in\n    tag_197:\n      mload(0x40)\n      dup1\n      swap2\n      sub\n      swap1\n      revert\n    tag_196:\n        /* \"contracts/ebcTrans/Copy_stakeEbc.sol\":11704:11715  proportion_ */\n      dup1\n        /* \"contracts/ebcTrans/Copy_stakeEbc.sol\":11690:11701  _proportion */\n      0x0a\n        /* \"contracts/ebcTrans/Copy_stakeEbc.sol\":11690:11715  _proportion = proportion_ */\n      dup2\n      swap1\n      sstore\n      pop\n        /* \"contracts/ebcTrans/Copy_stakeEbc.sol\":11618:11723  function setProportion(uint256 proportion_) public onlyOwner {... */\n      pop\n      jump\t// out\n        /* \"contracts/ebcTrans/Copy_stakeEbc.sol\":10740:10792  mapping(address => uint256) public _userEndClaimTime */\n    tag_58:\n      mstore(0x20, 0x15)\n      dup1\n      0x00\n      mstore\n      keccak256(0x00, 0x40)\n      0x00\n      swap2\n      pop\n      swap1\n      pop\n      sload\n      dup2\n      jump\t// out\n        /* \"contracts/ebcTrans/Copy_stakeEbc.sol\":11906:11999  function setStakeToken(address token) public onlyOwner {... */\n    tag_63:\n        /* \"contracts/ebcTrans/Copy_stakeEbc.sol\":1591:1601  msg.sender */\n      caller\n        /* \"contracts/ebcTrans/Copy_stakeEbc.sol\":1581:1601  _owner == msg.sender */\n      0xffffffffffffffffffffffffffffffffffffffff\n      and\n        /* \"contracts/ebcTrans/Copy_stakeEbc.sol\":1581:1587  _owner */\n      0x00\n      dup1\n      sload\n      swap1\n      0x0100\n      exp\n      swap1\n      div\n      0xffffffffffffffffffffffffffffffffffffffff\n      and\n        /* \"contracts/ebcTrans/Copy_stakeEbc.sol\":1581:1601  _owner == msg.sender */\n      0xffffffffffffffffffffffffffffffffffffffff\n      and\n      eq\n        /* \"contracts/ebcTrans/Copy_stakeEbc.sol\":1581:1623  _owner == msg.sender||_owner == msg.sender */\n      dup1\n      tag_201\n      jumpi\n      pop\n        /* \"contracts/ebcTrans/Copy_stakeEbc.sol\":1613:1623  msg.sender */\n      caller\n        /* \"contracts/ebcTrans/Copy_stakeEbc.sol\":1603:1623  _owner == msg.sender */\n      0xffffffffffffffffffffffffffffffffffffffff\n      and\n        /* \"contracts/ebcTrans/Copy_stakeEbc.sol\":1603:1609  _owner */\n      0x00\n      dup1\n      sload\n      swap1\n      0x0100\n      exp\n      swap1\n      div\n      0xffffffffffffffffffffffffffffffffffffffff\n      and\n        /* \"contracts/ebcTrans/Copy_stakeEbc.sol\":1603:1623  _owner == msg.sender */\n      0xffffffffffffffffffffffffffffffffffffffff\n      and\n      eq\n        /* \"contracts/ebcTrans/Copy_stakeEbc.sol\":1581:1623  _owner == msg.sender||_owner == msg.sender */\n    tag_201:\n        /* \"contracts/ebcTrans/Copy_stakeEbc.sol\":1573:1634  require(_owner == msg.sender||_owner == msg.sender, \"!owner\") */\n      tag_202\n      jumpi\n      mload(0x40)\n      0x08c379a000000000000000000000000000000000000000000000000000000000\n      dup2\n      mstore\n      0x04\n      add\n      tag_203\n      swap1\n      tag_198\n      jump\t// in\n    tag_203:\n      mload(0x40)\n      dup1\n      swap2\n      sub\n      swap1\n      revert\n    tag_202:\n        /* \"contracts/ebcTrans/Copy_stakeEbc.sol\":11986:11991  token */\n      dup1\n        /* \"contracts/ebcTrans/Copy_stakeEbc.sol\":11972:11983  _stakeToken */\n      0x02\n      0x00\n        /* \"contracts/ebcTrans/Copy_stakeEbc.sol\":11972:11991  _stakeToken = token */\n      0x0100\n      exp\n      dup2\n      sload\n      dup2\n      0xffffffffffffffffffffffffffffffffffffffff\n      mul\n      not\n      and\n      swap1\n      dup4\n      0xffffffffffffffffffffffffffffffffffffffff\n      and\n      mul\n      or\n      swap1\n      sstore\n      pop\n        /* \"contracts/ebcTrans/Copy_stakeEbc.sol\":11906:11999  function setStakeToken(address token) public onlyOwner {... */\n      pop\n      jump\t// out\n        /* \"contracts/ebcTrans/Copy_stakeEbc.sol\":20419:20651  function lpPrice() public view returns (uint256) {        ... */\n    tag_65:\n        /* \"contracts/ebcTrans/Copy_stakeEbc.sol\":20459:20466  uint256 */\n      0x00\n        /* \"contracts/ebcTrans/Copy_stakeEbc.sol\":20487:20500  uint256 price */\n      dup1\n        /* \"contracts/ebcTrans/Copy_stakeEbc.sol\":20508:20521  _lpPriceToken */\n      0x03\n      0x00\n      swap1\n      sload\n      swap1\n      0x0100\n      exp\n      swap1\n      div\n      0xffffffffffffffffffffffffffffffffffffffff\n      and\n        /* \"contracts/ebcTrans/Copy_stakeEbc.sol\":20501:20530  stake1(_lpPriceToken).lpPrice */\n      0xffffffffffffffffffffffffffffffffffffffff\n      and\n      0x0c280444\n        /* \"contracts/ebcTrans/Copy_stakeEbc.sol\":20501:20532  stake1(_lpPriceToken).lpPrice() */\n      mload(0x40)\n      dup2\n      0xffffffff\n      and\n      0xe0\n      shl\n      dup2\n      mstore\n      0x04\n      add\n      0x20\n      mload(0x40)\n      dup1\n      dup4\n      sub\n      dup2\n      dup7\n      gas\n      staticcall\n      iszero\n      dup1\n      iszero\n      tag_207\n      jumpi\n      returndatasize\n      0x00\n      dup1\n      returndatacopy\n      revert(0x00, returndatasize)\n    tag_207:\n      pop\n      pop\n      pop\n      pop\n      mload(0x40)\n      returndatasize\n      not(0x1f)\n      0x1f\n      dup3\n      add\n      and\n      dup3\n      add\n      dup1\n      0x40\n      mstore\n      pop\n      dup2\n      add\n      swap1\n      tag_208\n      swap2\n      swap1\n      tag_209\n      jump\t// in\n    tag_208:\n        /* \"contracts/ebcTrans/Copy_stakeEbc.sol\":20487:20532  uint256 price=stake1(_lpPriceToken).lpPrice() */\n      swap1\n      pop\n        /* \"contracts/ebcTrans/Copy_stakeEbc.sol\":20638:20643  price */\n      dup1\n        /* \"contracts/ebcTrans/Copy_stakeEbc.sol\":20631:20643  return price */\n      swap2\n      pop\n      pop\n        /* \"contracts/ebcTrans/Copy_stakeEbc.sol\":20419:20651  function lpPrice() public view returns (uint256) {        ... */\n      swap1\n      jump\t// out\n        /* \"contracts/ebcTrans/Copy_stakeEbc.sol\":10889:10935  mapping(address => bool) public _userBlacklist */\n    tag_69:\n      mstore(0x20, 0x17)\n      dup1\n      0x00\n      mstore\n      keccak256(0x00, 0x40)\n      0x00\n      swap2\n      pop\n      sload\n      swap1\n      0x0100\n      exp\n      swap1\n      div\n      0xff\n      and\n      dup2\n      jump\t// out\n        /* \"contracts/ebcTrans/Copy_stakeEbc.sol\":10559:10613  mapping(address => uint256) public _userStakeStartTime */\n    tag_74:\n      mstore(0x20, 0x13)\n      dup1\n      0x00\n      mstore\n      keccak256(0x00, 0x40)\n      0x00\n      swap2\n      pop\n      swap1\n      pop\n      sload\n      dup2\n      jump\t// out\n        /* \"contracts/ebcTrans/Copy_stakeEbc.sol\":9802:9844  uint256 public _stake5 = 24 hours * 30 * 5 */\n    tag_77:\n      sload(0x09)\n      dup2\n      jump\t// out\n        /* \"contracts/ebcTrans/Copy_stakeEbc.sol\":10066:10111  mapping(address => uint256) public _inviteNum */\n    tag_81:\n      mstore(0x20, 0x0d)\n      dup1\n      0x00\n      mstore\n      keccak256(0x00, 0x40)\n      0x00\n      swap2\n      pop\n      swap1\n      pop\n      sload\n      dup2\n      jump\t// out\n        /* \"contracts/ebcTrans/Copy_stakeEbc.sol\":10980:11066  function set_aToken(address token) public onlyOwner {... */\n    tag_85:\n        /* \"contracts/ebcTrans/Copy_stakeEbc.sol\":1591:1601  msg.sender */\n      caller\n        /* \"contracts/ebcTrans/Copy_stakeEbc.sol\":1581:1601  _owner == msg.sender */\n      0xffffffffffffffffffffffffffffffffffffffff\n      and\n        /* \"contracts/ebcTrans/Copy_stakeEbc.sol\":1581:1587  _owner */\n      0x00\n      dup1\n      sload\n      swap1\n      0x0100\n      exp\n      swap1\n      div\n      0xffffffffffffffffffffffffffffffffffffffff\n      and\n        /* \"contracts/ebcTrans/Copy_stakeEbc.sol\":1581:1601  _owner == msg.sender */\n      0xffffffffffffffffffffffffffffffffffffffff\n      and\n      eq\n        /* \"contracts/ebcTrans/Copy_stakeEbc.sol\":1581:1623  _owner == msg.sender||_owner == msg.sender */\n      dup1\n      tag_211\n      jumpi\n      pop\n        /* \"contracts/ebcTrans/Copy_stakeEbc.sol\":1613:1623  msg.sender */\n      caller\n        /* \"contracts/ebcTrans/Copy_stakeEbc.sol\":1603:1623  _owner == msg.sender */\n      0xffffffffffffffffffffffffffffffffffffffff\n      and\n        /* \"contracts/ebcTrans/Copy_stakeEbc.sol\":1603:1609  _owner */\n      0x00\n      dup1\n      sload\n      swap1\n      0x0100\n      exp\n      swap1\n      div\n      0xffffffffffffffffffffffffffffffffffffffff\n      and\n        /* \"contracts/ebcTrans/Copy_stakeEbc.sol\":1603:1623  _owner == msg.sender */\n      0xffffffffffffffffffffffffffffffffffffffff\n      and\n      eq\n        /* \"contracts/ebcTrans/Copy_stakeEbc.sol\":1581:1623  _owner == msg.sender||_owner == msg.sender */\n    tag_211:\n        /* \"contracts/ebcTrans/Copy_stakeEbc.sol\":1573:1634  require(_owner == msg.sender||_owner == msg.sender, \"!owner\") */\n      tag_212\n      jumpi\n      mload(0x40)\n      0x08c379a000000000000000000000000000000000000000000000000000000000\n      dup2\n      mstore\n      0x04\n      add\n      tag_213\n      swap1\n      tag_198\n      jump\t// in\n    tag_213:\n      mload(0x40)\n      dup1\n      swap2\n      sub\n      swap1\n      revert\n    tag_212:\n        /* \"contracts/ebcTrans/Copy_stakeEbc.sol\":11053:11058  token */\n      dup1\n        /* \"contracts/ebcTrans/Copy_stakeEbc.sol\":11043:11050  _aToken */\n      0x04\n      0x00\n        /* \"contracts/ebcTrans/Copy_stakeEbc.sol\":11043:11058  _aToken = token */\n      0x0100\n      exp\n      dup2\n      sload\n      dup2\n      0xffffffffffffffffffffffffffffffffffffffff\n      mul\n      not\n      and\n      swap1\n      dup4\n      0xffffffffffffffffffffffffffffffffffffffff\n      and\n      mul\n      or\n      swap1\n      sstore\n      pop\n        /* \"contracts/ebcTrans/Copy_stakeEbc.sol\":10980:11066  function set_aToken(address token) public onlyOwner {... */\n      pop\n      jump\t// out\n        /* \"contracts/ebcTrans/Copy_stakeEbc.sol\":9927:9973  mapping(address => address) public _inviterMap */\n    tag_88:\n      mstore(0x20, 0x0b)\n      dup1\n      0x00\n      mstore\n      keccak256(0x00, 0x40)\n      0x00\n      swap2\n      pop\n      sload\n      swap1\n      0x0100\n      exp\n      swap1\n      div\n      0xffffffffffffffffffffffffffffffffffffffff\n      and\n      dup2\n      jump\t// out\n        /* \"contracts/ebcTrans/Copy_stakeEbc.sol\":11093:11179  function set_bToken(address token) public onlyOwner {... */\n    tag_93:\n        /* \"contracts/ebcTrans/Copy_stakeEbc.sol\":1591:1601  msg.sender */\n      caller\n        /* \"contracts/ebcTrans/Copy_stakeEbc.sol\":1581:1601  _owner == msg.sender */\n      0xffffffffffffffffffffffffffffffffffffffff\n      and\n        /* \"contracts/ebcTrans/Copy_stakeEbc.sol\":1581:1587  _owner */\n      0x00\n      dup1\n      sload\n      swap1\n      0x0100\n      exp\n      swap1\n      div\n      0xffffffffffffffffffffffffffffffffffffffff\n      and\n        /* \"contracts/ebcTrans/Copy_stakeEbc.sol\":1581:1601  _owner == msg.sender */\n      0xffffffffffffffffffffffffffffffffffffffff\n      and\n      eq\n        /* \"contracts/ebcTrans/Copy_stakeEbc.sol\":1581:1623  _owner == msg.sender||_owner == msg.sender */\n      dup1\n      tag_216\n      jumpi\n      pop\n        /* \"contracts/ebcTrans/Copy_stakeEbc.sol\":1613:1623  msg.sender */\n      caller\n        /* \"contracts/ebcTrans/Copy_stakeEbc.sol\":1603:1623  _owner == msg.sender */\n      0xffffffffffffffffffffffffffffffffffffffff\n      and\n        /* \"contracts/ebcTrans/Copy_stakeEbc.sol\":1603:1609  _owner */\n      0x00\n      dup1\n      sload\n      swap1\n      0x0100\n      exp\n      swap1\n      div\n      0xffffffffffffffffffffffffffffffffffffffff\n      and\n        /* \"contracts/ebcTrans/Copy_stakeEbc.sol\":1603:1623  _owner == msg.sender */\n      0xffffffffffffffffffffffffffffffffffffffff\n      and\n      eq\n        /* \"contracts/ebcTrans/Copy_stakeEbc.sol\":1581:1623  _owner == msg.sender||_owner == msg.sender */\n    tag_216:\n        /* \"contracts/ebcTrans/Copy_stakeEbc.sol\":1573:1634  require(_owner == msg.sender||_owner == msg.sender, \"!owner\") */\n      tag_217\n      jumpi\n      mload(0x40)\n      0x08c379a000000000000000000000000000000000000000000000000000000000\n      dup2\n      mstore\n      0x04\n      add\n      tag_218\n      swap1\n      tag_198\n      jump\t// in\n    tag_218:\n      mload(0x40)\n      dup1\n      swap2\n      sub\n      swap1\n      revert\n    tag_217:\n        /* \"contracts/ebcTrans/Copy_stakeEbc.sol\":11166:11171  token */\n      dup1\n        /* \"contracts/ebcTrans/Copy_stakeEbc.sol\":11156:11163  _bToken */\n      0x05\n      0x00\n        /* \"contracts/ebcTrans/Copy_stakeEbc.sol\":11156:11171  _bToken = token */\n      0x0100\n      exp\n      dup2\n      sload\n      dup2\n      0xffffffffffffffffffffffffffffffffffffffff\n      mul\n      not\n      and\n      swap1\n      dup4\n      0xffffffffffffffffffffffffffffffffffffffff\n      and\n      mul\n      or\n      swap1\n      sstore\n      pop\n        /* \"contracts/ebcTrans/Copy_stakeEbc.sol\":11093:11179  function set_bToken(address token) public onlyOwner {... */\n      pop\n      jump\t// out\n        /* \"contracts/ebcTrans/Copy_stakeEbc.sol\":9866:9899  uint256 public _proportion = 1000 */\n    tag_95:\n      sload(0x0a)\n      dup2\n      jump\t// out\n        /* \"contracts/ebcTrans/Copy_stakeEbc.sol\":9293:9360  address public _bToken = 0xd114D4436f714dE79F0CB7eB3DB28d873E60602e */\n    tag_98:\n      0x05\n      0x00\n      swap1\n      sload\n      swap1\n      0x0100\n      exp\n      swap1\n      div\n      0xffffffffffffffffffffffffffffffffffffffff\n      and\n      dup2\n      jump\t// out\n        /* \"contracts/ebcTrans/Copy_stakeEbc.sol\":19710:19819  function withdraw() external onlyOwner {... */\n    tag_101:\n        /* \"contracts/ebcTrans/Copy_stakeEbc.sol\":1591:1601  msg.sender */\n      caller\n        /* \"contracts/ebcTrans/Copy_stakeEbc.sol\":1581:1601  _owner == msg.sender */\n      0xffffffffffffffffffffffffffffffffffffffff\n      and\n        /* \"contracts/ebcTrans/Copy_stakeEbc.sol\":1581:1587  _owner */\n      0x00\n      dup1\n      sload\n      swap1\n      0x0100\n      exp\n      swap1\n      div\n      0xffffffffffffffffffffffffffffffffffffffff\n      and\n        /* \"contracts/ebcTrans/Copy_stakeEbc.sol\":1581:1601  _owner == msg.sender */\n      0xffffffffffffffffffffffffffffffffffffffff\n      and\n      eq\n        /* \"contracts/ebcTrans/Copy_stakeEbc.sol\":1581:1623  _owner == msg.sender||_owner == msg.sender */\n      dup1\n      tag_221\n      jumpi\n      pop\n        /* \"contracts/ebcTrans/Copy_stakeEbc.sol\":1613:1623  msg.sender */\n      caller\n        /* \"contracts/ebcTrans/Copy_stakeEbc.sol\":1603:1623  _owner == msg.sender */\n      0xffffffffffffffffffffffffffffffffffffffff\n      and\n        /* \"contracts/ebcTrans/Copy_stakeEbc.sol\":1603:1609  _owner */\n      0x00\n      dup1\n      sload\n      swap1\n      0x0100\n      exp\n      swap1\n      div\n      0xffffffffffffffffffffffffffffffffffffffff\n      and\n        /* \"contracts/ebcTrans/Copy_stakeEbc.sol\":1603:1623  _owner == msg.sender */\n      0xffffffffffffffffffffffffffffffffffffffff\n      and\n      eq\n        /* \"contracts/ebcTrans/Copy_stakeEbc.sol\":1581:1623  _owner == msg.sender||_owner == msg.sender */\n    tag_221:\n        /* \"contracts/ebcTrans/Copy_stakeEbc.sol\":1573:1634  require(_owner == msg.sender||_owner == msg.sender, \"!owner\") */\n      tag_222\n      jumpi\n      mload(0x40)\n      0x08c379a000000000000000000000000000000000000000000000000000000000\n      dup2\n      mstore\n      0x04\n      add\n      tag_223\n      swap1\n      tag_198\n      jump\t// in\n    tag_223:\n      mload(0x40)\n      dup1\n      swap2\n      sub\n      swap1\n      revert\n    tag_222:\n        /* \"contracts/ebcTrans/Copy_stakeEbc.sol\":19768:19778  msg.sender */\n      caller\n        /* \"contracts/ebcTrans/Copy_stakeEbc.sol\":19760:19788  payable(msg.sender).transfer */\n      0xffffffffffffffffffffffffffffffffffffffff\n      and\n        /* \"contracts/ebcTrans/Copy_stakeEbc.sol\":19760:19811  payable(msg.sender).transfer(address(this).balance) */\n      0x08fc\n        /* \"contracts/ebcTrans/Copy_stakeEbc.sol\":19789:19810  address(this).balance */\n      selfbalance\n        /* \"contracts/ebcTrans/Copy_stakeEbc.sol\":19760:19811  payable(msg.sender).transfer(address(this).balance) */\n      swap1\n      dup2\n      iszero\n      mul\n      swap1\n      mload(0x40)\n      0x00\n      mload(0x40)\n      dup1\n      dup4\n      sub\n      dup2\n      dup6\n      dup9\n      dup9\n      call\n      swap4\n      pop\n      pop\n      pop\n      pop\n      iszero\n      dup1\n      iszero\n      tag_226\n      jumpi\n      returndatasize\n      0x00\n      dup1\n      returndatacopy\n      revert(0x00, returndatasize)\n    tag_226:\n      pop\n        /* \"contracts/ebcTrans/Copy_stakeEbc.sol\":19710:19819  function withdraw() external onlyOwner {... */\n      jump\t// out\n        /* \"contracts/ebcTrans/Copy_stakeEbc.sol\":11343:11437  function set_adminToken(address token) public onlyOwner {... */\n    tag_104:\n        /* \"contracts/ebcTrans/Copy_stakeEbc.sol\":1591:1601  msg.sender */\n      caller\n        /* \"contracts/ebcTrans/Copy_stakeEbc.sol\":1581:1601  _owner == msg.sender */\n      0xffffffffffffffffffffffffffffffffffffffff\n      and\n        /* \"contracts/ebcTrans/Copy_stakeEbc.sol\":1581:1587  _owner */\n      0x00\n      dup1\n      sload\n      swap1\n      0x0100\n      exp\n      swap1\n      div\n      0xffffffffffffffffffffffffffffffffffffffff\n      and\n        /* \"contracts/ebcTrans/Copy_stakeEbc.sol\":1581:1601  _owner == msg.sender */\n      0xffffffffffffffffffffffffffffffffffffffff\n      and\n      eq\n        /* \"contracts/ebcTrans/Copy_stakeEbc.sol\":1581:1623  _owner == msg.sender||_owner == msg.sender */\n      dup1\n      tag_228\n      jumpi\n      pop\n        /* \"contracts/ebcTrans/Copy_stakeEbc.sol\":1613:1623  msg.sender */\n      caller\n        /* \"contracts/ebcTrans/Copy_stakeEbc.sol\":1603:1623  _owner == msg.sender */\n      0xffffffffffffffffffffffffffffffffffffffff\n      and\n        /* \"contracts/ebcTrans/Copy_stakeEbc.sol\":1603:1609  _owner */\n      0x00\n      dup1\n      sload\n      swap1\n      0x0100\n      exp\n      swap1\n      div\n      0xffffffffffffffffffffffffffffffffffffffff\n      and\n        /* \"contracts/ebcTrans/Copy_stakeEbc.sol\":1603:1623  _owner == msg.sender */\n      0xffffffffffffffffffffffffffffffffffffffff\n      and\n      eq\n        /* \"contracts/ebcTrans/Copy_stakeEbc.sol\":1581:1623  _owner == msg.sender||_owner == msg.sender */\n    tag_228:\n        /* \"contracts/ebcTrans/Copy_stakeEbc.sol\":1573:1634  require(_owner == msg.sender||_owner == msg.sender, \"!owner\") */\n      tag_229\n      jumpi\n      mload(0x40)\n      0x08c379a000000000000000000000000000000000000000000000000000000000\n      dup2\n      mstore\n      0x04\n      add\n      tag_230\n      swap1\n      tag_198\n      jump\t// in\n    tag_230:\n      mload(0x40)\n      dup1\n      swap2\n      sub\n      swap1\n      revert\n    tag_229:\n        /* \"contracts/ebcTrans/Copy_stakeEbc.sol\":11424:11429  token */\n      dup1\n        /* \"contracts/ebcTrans/Copy_stakeEbc.sol\":11410:11421  _adminToken */\n      0x06\n      0x00\n        /* \"contracts/ebcTrans/Copy_stakeEbc.sol\":11410:11429  _adminToken = token */\n      0x0100\n      exp\n      dup2\n      sload\n      dup2\n      0xffffffffffffffffffffffffffffffffffffffff\n      mul\n      not\n      and\n      swap1\n      dup4\n      0xffffffffffffffffffffffffffffffffffffffff\n      and\n      mul\n      or\n      swap1\n      sstore\n      pop\n        /* \"contracts/ebcTrans/Copy_stakeEbc.sol\":11343:11437  function set_adminToken(address token) public onlyOwner {... */\n      pop\n      jump\t// out\n        /* \"contracts/ebcTrans/Copy_stakeEbc.sol\":13856:14073  function claimReward_all(address token,uint256 t_amount) public onlyOwner{       ... */\n    tag_108:\n        /* \"contracts/ebcTrans/Copy_stakeEbc.sol\":1591:1601  msg.sender */\n      caller\n        /* \"contracts/ebcTrans/Copy_stakeEbc.sol\":1581:1601  _owner == msg.sender */\n      0xffffffffffffffffffffffffffffffffffffffff\n      and\n        /* \"contracts/ebcTrans/Copy_stakeEbc.sol\":1581:1587  _owner */\n      0x00\n      dup1\n      sload\n      swap1\n      0x0100\n      exp\n      swap1\n      div\n      0xffffffffffffffffffffffffffffffffffffffff\n      and\n        /* \"contracts/ebcTrans/Copy_stakeEbc.sol\":1581:1601  _owner == msg.sender */\n      0xffffffffffffffffffffffffffffffffffffffff\n      and\n      eq\n        /* \"contracts/ebcTrans/Copy_stakeEbc.sol\":1581:1623  _owner == msg.sender||_owner == msg.sender */\n      dup1\n      tag_233\n      jumpi\n      pop\n        /* \"contracts/ebcTrans/Copy_stakeEbc.sol\":1613:1623  msg.sender */\n      caller\n        /* \"contracts/ebcTrans/Copy_stakeEbc.sol\":1603:1623  _owner == msg.sender */\n      0xffffffffffffffffffffffffffffffffffffffff\n      and\n        /* \"contracts/ebcTrans/Copy_stakeEbc.sol\":1603:1609  _owner */\n      0x00\n      dup1\n      sload\n      swap1\n      0x0100\n      exp\n      swap1\n      div\n      0xffffffffffffffffffffffffffffffffffffffff\n      and\n        /* \"contracts/ebcTrans/Copy_stakeEbc.sol\":1603:1623  _owner == msg.sender */\n      0xffffffffffffffffffffffffffffffffffffffff\n      and\n      eq\n        /* \"contracts/ebcTrans/Copy_stakeEbc.sol\":1581:1623  _owner == msg.sender||_owner == msg.sender */\n    tag_233:\n        /* \"contracts/ebcTrans/Copy_stakeEbc.sol\":1573:1634  require(_owner == msg.sender||_owner == msg.sender, \"!owner\") */\n      tag_234\n      jumpi\n      mload(0x40)\n      0x08c379a000000000000000000000000000000000000000000000000000000000\n      dup2\n      mstore\n      0x04\n      add\n      tag_235\n      swap1\n      tag_198\n      jump\t// in\n    tag_235:\n      mload(0x40)\n      dup1\n      swap2\n      sub\n      swap1\n      revert\n    tag_234:\n        /* \"contracts/ebcTrans/Copy_stakeEbc.sol\":14020:14025  token */\n      dup2\n        /* \"contracts/ebcTrans/Copy_stakeEbc.sol\":14013:14035  IERC20(token).transfer */\n      0xffffffffffffffffffffffffffffffffffffffff\n      and\n      0xa9059cbb\n        /* \"contracts/ebcTrans/Copy_stakeEbc.sol\":14036:14046  msg.sender */\n      caller\n        /* \"contracts/ebcTrans/Copy_stakeEbc.sol\":14048:14056  t_amount */\n      dup4\n        /* \"contracts/ebcTrans/Copy_stakeEbc.sol\":14013:14057  IERC20(token).transfer(msg.sender, t_amount) */\n      mload(0x40)\n      dup4\n      0xffffffff\n      and\n      0xe0\n      shl\n      dup2\n      mstore\n      0x04\n      add\n      tag_237\n      swap3\n      swap2\n      swap1\n      tag_238\n      jump\t// in\n    tag_237:\n      0x20\n      mload(0x40)\n      dup1\n      dup4\n      sub\n      dup2\n      0x00\n      dup8\n      gas\n      call\n      iszero\n      dup1\n      iszero\n      tag_240\n      jumpi\n      returndatasize\n      0x00\n      dup1\n      returndatacopy\n      revert(0x00, returndatasize)\n    tag_240:\n      pop\n      pop\n      pop\n      pop\n      mload(0x40)\n      returndatasize\n      not(0x1f)\n      0x1f\n      dup3\n      add\n      and\n      dup3\n      add\n      dup1\n      0x40\n      mstore\n      pop\n      dup2\n      add\n      swap1\n      tag_241\n      swap2\n      swap1\n      tag_242\n      jump\t// in\n    tag_241:\n      pop\n        /* \"contracts/ebcTrans/Copy_stakeEbc.sol\":13856:14073  function claimReward_all(address token,uint256 t_amount) public onlyOwner{       ... */\n      pop\n      pop\n      jump\t// out\n        /* \"contracts/ebcTrans/Copy_stakeEbc.sol\":9405:9476  address public _adminToken = 0x641dc64BfbcdC419bcc7aFb0cE02D244155e1aC6 */\n    tag_110:\n      0x06\n      0x00\n      swap1\n      sload\n      swap1\n      0x0100\n      exp\n      swap1\n      div\n      0xffffffffffffffffffffffffffffffffffffffff\n      and\n      dup2\n      jump\t// out\n        /* \"contracts/ebcTrans/Copy_stakeEbc.sol\":11488:11585  function setlpPriceToken(address token) public onlyOwner {... */\n    tag_114:\n        /* \"contracts/ebcTrans/Copy_stakeEbc.sol\":1591:1601  msg.sender */\n      caller\n        /* \"contracts/ebcTrans/Copy_stakeEbc.sol\":1581:1601  _owner == msg.sender */\n      0xffffffffffffffffffffffffffffffffffffffff\n      and\n        /* \"contracts/ebcTrans/Copy_stakeEbc.sol\":1581:1587  _owner */\n      0x00\n      dup1\n      sload\n      swap1\n      0x0100\n      exp\n      swap1\n      div\n      0xffffffffffffffffffffffffffffffffffffffff\n      and\n        /* \"contracts/ebcTrans/Copy_stakeEbc.sol\":1581:1601  _owner == msg.sender */\n      0xffffffffffffffffffffffffffffffffffffffff\n      and\n      eq\n        /* \"contracts/ebcTrans/Copy_stakeEbc.sol\":1581:1623  _owner == msg.sender||_owner == msg.sender */\n      dup1\n      tag_244\n      jumpi\n      pop\n        /* \"contracts/ebcTrans/Copy_stakeEbc.sol\":1613:1623  msg.sender */\n      caller\n        /* \"contracts/ebcTrans/Copy_stakeEbc.sol\":1603:1623  _owner == msg.sender */\n      0xffffffffffffffffffffffffffffffffffffffff\n      and\n        /* \"contracts/ebcTrans/Copy_stakeEbc.sol\":1603:1609  _owner */\n      0x00\n      dup1\n      sload\n      swap1\n      0x0100\n      exp\n      swap1\n      div\n      0xffffffffffffffffffffffffffffffffffffffff\n      and\n        /* \"contracts/ebcTrans/Copy_stakeEbc.sol\":1603:1623  _owner == msg.sender */\n      0xffffffffffffffffffffffffffffffffffffffff\n      and\n      eq\n        /* \"contracts/ebcTrans/Copy_stakeEbc.sol\":1581:1623  _owner == msg.sender||_owner == msg.sender */\n    tag_244:\n        /* \"contracts/ebcTrans/Copy_stakeEbc.sol\":1573:1634  require(_owner == msg.sender||_owner == msg.sender, \"!owner\") */\n      tag_245\n      jumpi\n      mload(0x40)\n      0x08c379a000000000000000000000000000000000000000000000000000000000\n      dup2\n      mstore\n      0x04\n      add\n      tag_246\n      swap1\n      tag_198\n      jump\t// in\n    tag_246:\n      mload(0x40)\n      dup1\n      swap2\n      sub\n      swap1\n      revert\n    tag_245:\n        /* \"contracts/ebcTrans/Copy_stakeEbc.sol\":11572:11577  token */\n      dup1\n        /* \"contracts/ebcTrans/Copy_stakeEbc.sol\":11556:11569  _lpPriceToken */\n      0x03\n      0x00\n        /* \"contracts/ebcTrans/Copy_stakeEbc.sol\":11556:11577  _lpPriceToken = token */\n      0x0100\n      exp\n      dup2\n      sload\n      dup2\n      0xffffffffffffffffffffffffffffffffffffffff\n      mul\n      not\n      and\n      swap1\n      dup4\n      0xffffffffffffffffffffffffffffffffffffffff\n      and\n      mul\n      or\n      swap1\n      sstore\n      pop\n        /* \"contracts/ebcTrans/Copy_stakeEbc.sol\":11488:11585  function setlpPriceToken(address token) public onlyOwner {... */\n      pop\n      jump\t// out\n        /* \"contracts/ebcTrans/Copy_stakeEbc.sol\":8814:8885  address public _stakeToken = 0x6b6b2D8166D13b58155b8d454F239AE3691257A6 */\n    tag_116:\n      0x02\n      0x00\n      swap1\n      sload\n      swap1\n      0x0100\n      exp\n      swap1\n      div\n      0xffffffffffffffffffffffffffffffffffffffff\n      and\n      dup2\n      jump\t// out\n        /* \"contracts/ebcTrans/Copy_stakeEbc.sol\":11214:11310  function set_rewardToken(address token) public onlyOwner {... */\n    tag_120:\n        /* \"contracts/ebcTrans/Copy_stakeEbc.sol\":1591:1601  msg.sender */\n      caller\n        /* \"contracts/ebcTrans/Copy_stakeEbc.sol\":1581:1601  _owner == msg.sender */\n      0xffffffffffffffffffffffffffffffffffffffff\n      and\n        /* \"contracts/ebcTrans/Copy_stakeEbc.sol\":1581:1587  _owner */\n      0x00\n      dup1\n      sload\n      swap1\n      0x0100\n      exp\n      swap1\n      div\n      0xffffffffffffffffffffffffffffffffffffffff\n      and\n        /* \"contracts/ebcTrans/Copy_stakeEbc.sol\":1581:1601  _owner == msg.sender */\n      0xffffffffffffffffffffffffffffffffffffffff\n      and\n      eq\n        /* \"contracts/ebcTrans/Copy_stakeEbc.sol\":1581:1623  _owner == msg.sender||_owner == msg.sender */\n      dup1\n      tag_249\n      jumpi\n      pop\n        /* \"contracts/ebcTrans/Copy_stakeEbc.sol\":1613:1623  msg.sender */\n      caller\n        /* \"contracts/ebcTrans/Copy_stakeEbc.sol\":1603:1623  _owner == msg.sender */\n      0xffffffffffffffffffffffffffffffffffffffff\n      and\n        /* \"contracts/ebcTrans/Copy_stakeEbc.sol\":1603:1609  _owner */\n      0x00\n      dup1\n      sload\n      swap1\n      0x0100\n      exp\n      swap1\n      div\n      0xffffffffffffffffffffffffffffffffffffffff\n      and\n        /* \"contracts/ebcTrans/Copy_stakeEbc.sol\":1603:1623  _owner == msg.sender */\n      0xffffffffffffffffffffffffffffffffffffffff\n      and\n      eq\n        /* \"contracts/ebcTrans/Copy_stakeEbc.sol\":1581:1623  _owner == msg.sender||_owner == msg.sender */\n    tag_249:\n        /* \"contracts/ebcTrans/Copy_stakeEbc.sol\":1573:1634  require(_owner == msg.sender||_owner == msg.sender, \"!owner\") */\n      tag_250\n      jumpi\n      mload(0x40)\n      0x08c379a000000000000000000000000000000000000000000000000000000000\n      dup2\n      mstore\n      0x04\n      add\n      tag_251\n      swap1\n      tag_198\n      jump\t// in\n    tag_251:\n      mload(0x40)\n      dup1\n      swap2\n      sub\n      swap1\n      revert\n    tag_250:\n        /* \"contracts/ebcTrans/Copy_stakeEbc.sol\":11297:11302  token */\n      dup1\n        /* \"contracts/ebcTrans/Copy_stakeEbc.sol\":11282:11294  _rewardToken */\n      0x01\n      0x00\n        /* \"contracts/ebcTrans/Copy_stakeEbc.sol\":11282:11302  _rewardToken = token */\n      0x0100\n      exp\n      dup2\n      sload\n      dup2\n      0xffffffffffffffffffffffffffffffffffffffff\n      mul\n      not\n      and\n      swap1\n      dup4\n      0xffffffffffffffffffffffffffffffffffffffff\n      and\n      mul\n      or\n      swap1\n      sstore\n      pop\n        /* \"contracts/ebcTrans/Copy_stakeEbc.sol\":11214:11310  function set_rewardToken(address token) public onlyOwner {... */\n      pop\n      jump\t// out\n        /* \"contracts/ebcTrans/Copy_stakeEbc.sol\":10647:10700  mapping(address => uint256) public _userLastClaimTime */\n    tag_123:\n      mstore(0x20, 0x14)\n      dup1\n      0x00\n      mstore\n      keccak256(0x00, 0x40)\n      0x00\n      swap2\n      pop\n      swap1\n      pop\n      sload\n      dup2\n      jump\t// out\n        /* \"contracts/ebcTrans/Copy_stakeEbc.sol\":9206:9273  address public _aToken = 0x55d398326f99059fF775485246999027B3197955 */\n    tag_126:\n      0x04\n      0x00\n      swap1\n      sload\n      swap1\n      0x0100\n      exp\n      swap1\n      div\n      0xffffffffffffffffffffffffffffffffffffffff\n      and\n      dup2\n      jump\t// out\n        /* \"contracts/ebcTrans/Copy_stakeEbc.sol\":11752:11872  function setUserBlacklist(address user) public onlyOwner {... */\n    tag_130:\n        /* \"contracts/ebcTrans/Copy_stakeEbc.sol\":1591:1601  msg.sender */\n      caller\n        /* \"contracts/ebcTrans/Copy_stakeEbc.sol\":1581:1601  _owner == msg.sender */\n      0xffffffffffffffffffffffffffffffffffffffff\n      and\n        /* \"contracts/ebcTrans/Copy_stakeEbc.sol\":1581:1587  _owner */\n      0x00\n      dup1\n      sload\n      swap1\n      0x0100\n      exp\n      swap1\n      div\n      0xffffffffffffffffffffffffffffffffffffffff\n      and\n        /* \"contracts/ebcTrans/Copy_stakeEbc.sol\":1581:1601  _owner == msg.sender */\n      0xffffffffffffffffffffffffffffffffffffffff\n      and\n      eq\n        /* \"contracts/ebcTrans/Copy_stakeEbc.sol\":1581:1623  _owner == msg.sender||_owner == msg.sender */\n      dup1\n      tag_254\n      jumpi\n      pop\n        /* \"contracts/ebcTrans/Copy_stakeEbc.sol\":1613:1623  msg.sender */\n      caller\n        /* \"contracts/ebcTrans/Copy_stakeEbc.sol\":1603:1623  _owner == msg.sender */\n      0xffffffffffffffffffffffffffffffffffffffff\n      and\n        /* \"contracts/ebcTrans/Copy_stakeEbc.sol\":1603:1609  _owner */\n      0x00\n      dup1\n      sload\n      swap1\n      0x0100\n      exp\n      swap1\n      div\n      0xffffffffffffffffffffffffffffffffffffffff\n      and\n        /* \"contracts/ebcTrans/Copy_stakeEbc.sol\":1603:1623  _owner == msg.sender */\n      0xffffffffffffffffffffffffffffffffffffffff\n      and\n      eq\n        /* \"contracts/ebcTrans/Copy_stakeEbc.sol\":1581:1623  _owner == msg.sender||_owner == msg.sender */\n    tag_254:\n        /* \"contracts/ebcTrans/Copy_stakeEbc.sol\":1573:1634  require(_owner == msg.sender||_owner == msg.sender, \"!owner\") */\n      tag_255\n      jumpi\n      mload(0x40)\n      0x08c379a000000000000000000000000000000000000000000000000000000000\n      dup2\n      mstore\n      0x04\n      add\n      tag_256\n      swap1\n      tag_198\n      jump\t// in\n    tag_256:\n      mload(0x40)\n      dup1\n      swap2\n      sub\n      swap1\n      revert\n    tag_255:\n        /* \"contracts/ebcTrans/Copy_stakeEbc.sol\":11844:11858  _userBlacklist */\n      0x17\n        /* \"contracts/ebcTrans/Copy_stakeEbc.sol\":11844:11864  _userBlacklist[user] */\n      0x00\n        /* \"contracts/ebcTrans/Copy_stakeEbc.sol\":11859:11863  user */\n      dup3\n        /* \"contracts/ebcTrans/Copy_stakeEbc.sol\":11844:11864  _userBlacklist[user] */\n      0xffffffffffffffffffffffffffffffffffffffff\n      and\n      0xffffffffffffffffffffffffffffffffffffffff\n      and\n      dup2\n      mstore\n      0x20\n      add\n      swap1\n      dup2\n      mstore\n      0x20\n      add\n      0x00\n      keccak256\n      0x00\n      swap1\n      sload\n      swap1\n      0x0100\n      exp\n      swap1\n      div\n      0xff\n      and\n        /* \"contracts/ebcTrans/Copy_stakeEbc.sol\":11843:11864  !_userBlacklist[user] */\n      iszero\n        /* \"contracts/ebcTrans/Copy_stakeEbc.sol\":11820:11834  _userBlacklist */\n      0x17\n        /* \"contracts/ebcTrans/Copy_stakeEbc.sol\":11820:11840  _userBlacklist[user] */\n      0x00\n        /* \"contracts/ebcTrans/Copy_stakeEbc.sol\":11835:11839  user */\n      dup4\n        /* \"contracts/ebcTrans/Copy_stakeEbc.sol\":11820:11840  _userBlacklist[user] */\n      0xffffffffffffffffffffffffffffffffffffffff\n      and\n      0xffffffffffffffffffffffffffffffffffffffff\n      and\n      dup2\n      mstore\n      0x20\n      add\n      swap1\n      dup2\n      mstore\n      0x20\n      add\n      0x00\n      keccak256\n      0x00\n        /* \"contracts/ebcTrans/Copy_stakeEbc.sol\":11820:11864  _userBlacklist[user] = !_userBlacklist[user] */\n      0x0100\n      exp\n      dup2\n      sload\n      dup2\n      0xff\n      mul\n      not\n      and\n      swap1\n      dup4\n      iszero\n      iszero\n      mul\n      or\n      swap1\n      sstore\n      pop\n        /* \"contracts/ebcTrans/Copy_stakeEbc.sol\":11752:11872  function setUserBlacklist(address user) public onlyOwner {... */\n      pop\n      jump\t// out\n        /* \"contracts/ebcTrans/Copy_stakeEbc.sol\":9740:9782  uint256 public _stake3 = 24 hours * 30 * 3 */\n    tag_132:\n      sload(0x08)\n      dup2\n      jump\t// out\n        /* \"contracts/ebcTrans/Copy_stakeEbc.sol\":10408:10454  mapping(address => uint256) public _userStakeB */\n    tag_136:\n      mstore(0x20, 0x11)\n      dup1\n      0x00\n      mstore\n      keccak256(0x00, 0x40)\n      0x00\n      swap2\n      pop\n      swap1\n      pop\n      sload\n      dup2\n      jump\t// out\n        /* \"contracts/ebcTrans/Copy_stakeEbc.sol\":1454:1533  function owner() public view returns (address) {... */\n    tag_139:\n        /* \"contracts/ebcTrans/Copy_stakeEbc.sol\":1492:1499  address */\n      0x00\n        /* \"contracts/ebcTrans/Copy_stakeEbc.sol\":1519:1525  _owner */\n      dup1\n      0x00\n      swap1\n      sload\n      swap1\n      0x0100\n      exp\n      swap1\n      div\n      0xffffffffffffffffffffffffffffffffffffffff\n      and\n        /* \"contracts/ebcTrans/Copy_stakeEbc.sol\":1512:1525  return _owner */\n      swap1\n      pop\n        /* \"contracts/ebcTrans/Copy_stakeEbc.sol\":1454:1533  function owner() public view returns (address) {... */\n      swap1\n      jump\t// out\n        /* \"contracts/ebcTrans/Copy_stakeEbc.sol\":20693:21087  function cancalStackOver(uint256 amount) public onlyOwner{      ... */\n    tag_143:\n        /* \"contracts/ebcTrans/Copy_stakeEbc.sol\":1591:1601  msg.sender */\n      caller\n        /* \"contracts/ebcTrans/Copy_stakeEbc.sol\":1581:1601  _owner == msg.sender */\n      0xffffffffffffffffffffffffffffffffffffffff\n      and\n        /* \"contracts/ebcTrans/Copy_stakeEbc.sol\":1581:1587  _owner */\n      0x00\n      dup1\n      sload\n      swap1\n      0x0100\n      exp\n      swap1\n      div\n      0xffffffffffffffffffffffffffffffffffffffff\n      and\n        /* \"contracts/ebcTrans/Copy_stakeEbc.sol\":1581:1601  _owner == msg.sender */\n      0xffffffffffffffffffffffffffffffffffffffff\n      and\n      eq\n        /* \"contracts/ebcTrans/Copy_stakeEbc.sol\":1581:1623  _owner == msg.sender||_owner == msg.sender */\n      dup1\n      tag_260\n      jumpi\n      pop\n        /* \"contracts/ebcTrans/Copy_stakeEbc.sol\":1613:1623  msg.sender */\n      caller\n        /* \"contracts/ebcTrans/Copy_stakeEbc.sol\":1603:1623  _owner == msg.sender */\n      0xffffffffffffffffffffffffffffffffffffffff\n      and\n        /* \"contracts/ebcTrans/Copy_stakeEbc.sol\":1603:1609  _owner */\n      0x00\n      dup1\n      sload\n      swap1\n      0x0100\n      exp\n      swap1\n      div\n      0xffffffffffffffffffffffffffffffffffffffff\n      and\n        /* \"contracts/ebcTrans/Copy_stakeEbc.sol\":1603:1623  _owner == msg.sender */\n      0xffffffffffffffffffffffffffffffffffffffff\n      and\n      eq\n        /* \"contracts/ebcTrans/Copy_stakeEbc.sol\":1581:1623  _owner == msg.sender||_owner == msg.sender */\n    tag_260:\n        /* \"contracts/ebcTrans/Copy_stakeEbc.sol\":1573:1634  require(_owner == msg.sender||_owner == msg.sender, \"!owner\") */\n      tag_261\n      jumpi\n      mload(0x40)\n      0x08c379a000000000000000000000000000000000000000000000000000000000\n      dup2\n      mstore\n      0x04\n      add\n      tag_262\n      swap1\n      tag_198\n      jump\t// in\n    tag_262:\n      mload(0x40)\n      dup1\n      swap2\n      sub\n      swap1\n      revert\n    tag_261:\n        /* \"contracts/ebcTrans/Copy_stakeEbc.sol\":20800:20801  0 */\n      0x00\n        /* \"contracts/ebcTrans/Copy_stakeEbc.sol\":20775:20785  _userStake */\n      0x0f\n        /* \"contracts/ebcTrans/Copy_stakeEbc.sol\":20775:20797  _userStake[msg.sender] */\n      0x00\n        /* \"contracts/ebcTrans/Copy_stakeEbc.sol\":20786:20796  msg.sender */\n      caller\n        /* \"contracts/ebcTrans/Copy_stakeEbc.sol\":20775:20797  _userStake[msg.sender] */\n      0xffffffffffffffffffffffffffffffffffffffff\n      and\n      0xffffffffffffffffffffffffffffffffffffffff\n      and\n      dup2\n      mstore\n      0x20\n      add\n      swap1\n      dup2\n      mstore\n      0x20\n      add\n      0x00\n      keccak256\n      sload\n        /* \"contracts/ebcTrans/Copy_stakeEbc.sol\":20775:20801  _userStake[msg.sender] > 0 */\n      gt\n        /* \"contracts/ebcTrans/Copy_stakeEbc.sol\":20767:20815  require(_userStake[msg.sender] > 0, \"not stake\") */\n      tag_264\n      jumpi\n      mload(0x40)\n      0x08c379a000000000000000000000000000000000000000000000000000000000\n      dup2\n      mstore\n      0x04\n      add\n      tag_265\n      swap1\n      tag_266\n      jump\t// in\n    tag_265:\n      mload(0x40)\n      dup1\n      swap2\n      sub\n      swap1\n      revert\n    tag_264:\n        /* \"contracts/ebcTrans/Copy_stakeEbc.sol\":20833:20844  _stakeToken */\n      0x02\n      0x00\n      swap1\n      sload\n      swap1\n      0x0100\n      exp\n      swap1\n      div\n      0xffffffffffffffffffffffffffffffffffffffff\n      and\n        /* \"contracts/ebcTrans/Copy_stakeEbc.sol\":20826:20854  IERC20(_stakeToken).transfer */\n      0xffffffffffffffffffffffffffffffffffffffff\n      and\n      0xa9059cbb\n        /* \"contracts/ebcTrans/Copy_stakeEbc.sol\":20855:20865  msg.sender */\n      caller\n        /* \"contracts/ebcTrans/Copy_stakeEbc.sol\":20867:20873  amount */\n      dup4\n        /* \"contracts/ebcTrans/Copy_stakeEbc.sol\":20826:20874  IERC20(_stakeToken).transfer(msg.sender, amount) */\n      mload(0x40)\n      dup4\n      0xffffffff\n      and\n      0xe0\n      shl\n      dup2\n      mstore\n      0x04\n      add\n      tag_267\n      swap3\n      swap2\n      swap1\n      tag_238\n      jump\t// in\n    tag_267:\n      0x20\n      mload(0x40)\n      dup1\n      dup4\n      sub\n      dup2\n      0x00\n      dup8\n      gas\n      call\n      iszero\n      dup1\n      iszero\n      tag_269\n      jumpi\n      returndatasize\n      0x00\n      dup1\n      returndatacopy\n      revert(0x00, returndatasize)\n    tag_269:\n      pop\n      pop\n      pop\n      pop\n      mload(0x40)\n      returndatasize\n      not(0x1f)\n      0x1f\n      dup3\n      add\n      and\n      dup3\n      add\n      dup1\n      0x40\n      mstore\n      pop\n      dup2\n      add\n      swap1\n      tag_270\n      swap2\n      swap1\n      tag_242\n      jump\t// in\n    tag_270:\n      pop\n        /* \"contracts/ebcTrans/Copy_stakeEbc.sol\":20910:20911  0 */\n      0x00\n        /* \"contracts/ebcTrans/Copy_stakeEbc.sol\":20885:20895  _userStake */\n      0x0f\n        /* \"contracts/ebcTrans/Copy_stakeEbc.sol\":20885:20907  _userStake[msg.sender] */\n      0x00\n        /* \"contracts/ebcTrans/Copy_stakeEbc.sol\":20896:20906  msg.sender */\n      caller\n        /* \"contracts/ebcTrans/Copy_stakeEbc.sol\":20885:20907  _userStake[msg.sender] */\n      0xffffffffffffffffffffffffffffffffffffffff\n      and\n      0xffffffffffffffffffffffffffffffffffffffff\n      and\n      dup2\n      mstore\n      0x20\n      add\n      swap1\n      dup2\n      mstore\n      0x20\n      add\n      0x00\n      keccak256\n        /* \"contracts/ebcTrans/Copy_stakeEbc.sol\":20885:20911  _userStake[msg.sender] = 0 */\n      dup2\n      swap1\n      sstore\n      pop\n        /* \"contracts/ebcTrans/Copy_stakeEbc.sol\":20956:20957  0 */\n      0x00\n        /* \"contracts/ebcTrans/Copy_stakeEbc.sol\":20922:20941  _userStakeStartTime */\n      0x13\n        /* \"contracts/ebcTrans/Copy_stakeEbc.sol\":20922:20953  _userStakeStartTime[msg.sender] */\n      0x00\n        /* \"contracts/ebcTrans/Copy_stakeEbc.sol\":20942:20952  msg.sender */\n      caller\n        /* \"contracts/ebcTrans/Copy_stakeEbc.sol\":20922:20953  _userStakeStartTime[msg.sender] */\n      0xffffffffffffffffffffffffffffffffffffffff\n      and\n      0xffffffffffffffffffffffffffffffffffffffff\n      and\n      dup2\n      mstore\n      0x20\n      add\n      swap1\n      dup2\n      mstore\n      0x20\n      add\n      0x00\n      keccak256\n        /* \"contracts/ebcTrans/Copy_stakeEbc.sol\":20922:20957  _userStakeStartTime[msg.sender] = 0 */\n      dup2\n      swap1\n      sstore\n      pop\n        /* \"contracts/ebcTrans/Copy_stakeEbc.sol\":21000:21001  0 */\n      0x00\n        /* \"contracts/ebcTrans/Copy_stakeEbc.sol\":20968:20985  _userEndClaimTime */\n      0x15\n        /* \"contracts/ebcTrans/Copy_stakeEbc.sol\":20968:20997  _userEndClaimTime[msg.sender] */\n      0x00\n        /* \"contracts/ebcTrans/Copy_stakeEbc.sol\":20986:20996  msg.sender */\n      caller\n        /* \"contracts/ebcTrans/Copy_stakeEbc.sol\":20968:20997  _userEndClaimTime[msg.sender] */\n      0xffffffffffffffffffffffffffffffffffffffff\n      and\n      0xffffffffffffffffffffffffffffffffffffffff\n      and\n      dup2\n      mstore\n      0x20\n      add\n      swap1\n      dup2\n      mstore\n      0x20\n      add\n      0x00\n      keccak256\n        /* \"contracts/ebcTrans/Copy_stakeEbc.sol\":20968:21001  _userEndClaimTime[msg.sender] = 0 */\n      dup2\n      swap1\n      sstore\n      pop\n        /* \"contracts/ebcTrans/Copy_stakeEbc.sol\":21041:21042  0 */\n      0x00\n        /* \"contracts/ebcTrans/Copy_stakeEbc.sol\":21012:21026  _userStakeTime */\n      0x12\n        /* \"contracts/ebcTrans/Copy_stakeEbc.sol\":21012:21038  _userStakeTime[msg.sender] */\n      0x00\n        /* \"contracts/ebcTrans/Copy_stakeEbc.sol\":21027:21037  msg.sender */\n      caller\n        /* \"contracts/ebcTrans/Copy_stakeEbc.sol\":21012:21038  _userStakeTime[msg.sender] */\n      0xffffffffffffffffffffffffffffffffffffffff\n      and\n      0xffffffffffffffffffffffffffffffffffffffff\n      and\n      dup2\n      mstore\n      0x20\n      add\n      swap1\n      dup2\n      mstore\n      0x20\n      add\n      0x00\n      keccak256\n        /* \"contracts/ebcTrans/Copy_stakeEbc.sol\":21012:21042  _userStakeTime[msg.sender] = 0 */\n      dup2\n      swap1\n      sstore\n      pop\n        /* \"contracts/ebcTrans/Copy_stakeEbc.sol\":21078:21079  0 */\n      0x00\n        /* \"contracts/ebcTrans/Copy_stakeEbc.sol\":21053:21063  _userPower */\n      0x16\n        /* \"contracts/ebcTrans/Copy_stakeEbc.sol\":21053:21075  _userPower[msg.sender] */\n      0x00\n        /* \"contracts/ebcTrans/Copy_stakeEbc.sol\":21064:21074  msg.sender */\n      caller\n        /* \"contracts/ebcTrans/Copy_stakeEbc.sol\":21053:21075  _userPower[msg.sender] */\n      0xffffffffffffffffffffffffffffffffffffffff\n      and\n      0xffffffffffffffffffffffffffffffffffffffff\n      and\n      dup2\n      mstore\n      0x20\n      add\n      swap1\n      dup2\n      mstore\n      0x20\n      add\n      0x00\n      keccak256\n        /* \"contracts/ebcTrans/Copy_stakeEbc.sol\":21053:21079  _userPower[msg.sender] = 0 */\n      dup2\n      swap1\n      sstore\n      pop\n        /* \"contracts/ebcTrans/Copy_stakeEbc.sol\":20693:21087  function cancalStackOver(uint256 amount) public onlyOwner{      ... */\n      pop\n      jump\t// out\n        /* \"contracts/ebcTrans/Copy_stakeEbc.sol\":10261:10306  mapping(address => uint256) public _userStake */\n    tag_146:\n      mstore(0x20, 0x0f)\n      dup1\n      0x00\n      mstore\n      keccak256(0x00, 0x40)\n      0x00\n      swap2\n      pop\n      swap1\n      pop\n      sload\n      dup2\n      jump\t// out\n        /* \"contracts/ebcTrans/Copy_stakeEbc.sol\":10482:10531  mapping(address => uint256) public _userStakeTime */\n    tag_150:\n      mstore(0x20, 0x12)\n      dup1\n      0x00\n      mstore\n      keccak256(0x00, 0x40)\n      0x00\n      swap2\n      pop\n      swap1\n      pop\n      sload\n      dup2\n      jump\t// out\n        /* \"contracts/ebcTrans/Copy_stakeEbc.sol\":9678:9720  uint256 public _stake1 = 24 hours * 30 * 1 */\n    tag_153:\n      sload(0x07)\n      dup2\n      jump\t// out\n        /* \"contracts/ebcTrans/Copy_stakeEbc.sol\":10334:10380  mapping(address => uint256) public _userStakeY */\n    tag_157:\n      mstore(0x20, 0x10)\n      dup1\n      0x00\n      mstore\n      keccak256(0x00, 0x40)\n      0x00\n      swap2\n      pop\n      swap1\n      pop\n      sload\n      dup2\n      jump\t// out\n        /* \"contracts/ebcTrans/Copy_stakeEbc.sol\":12027:12177  function setStatus(bool stakeStart, bool claimStart) public onlyOwner {... */\n    tag_162:\n        /* \"contracts/ebcTrans/Copy_stakeEbc.sol\":1591:1601  msg.sender */\n      caller\n        /* \"contracts/ebcTrans/Copy_stakeEbc.sol\":1581:1601  _owner == msg.sender */\n      0xffffffffffffffffffffffffffffffffffffffff\n      and\n        /* \"contracts/ebcTrans/Copy_stakeEbc.sol\":1581:1587  _owner */\n      0x00\n      dup1\n      sload\n      swap1\n      0x0100\n      exp\n      swap1\n      div\n      0xffffffffffffffffffffffffffffffffffffffff\n      and\n        /* \"contracts/ebcTrans/Copy_stakeEbc.sol\":1581:1601  _owner == msg.sender */\n      0xffffffffffffffffffffffffffffffffffffffff\n      and\n      eq\n        /* \"contracts/ebcTrans/Copy_stakeEbc.sol\":1581:1623  _owner == msg.sender||_owner == msg.sender */\n      dup1\n      tag_272\n      jumpi\n      pop\n        /* \"contracts/ebcTrans/Copy_stakeEbc.sol\":1613:1623  msg.sender */\n      caller\n        /* \"contracts/ebcTrans/Copy_stakeEbc.sol\":1603:1623  _owner == msg.sender */\n      0xffffffffffffffffffffffffffffffffffffffff\n      and\n        /* \"contracts/ebcTrans/Copy_stakeEbc.sol\":1603:1609  _owner */\n      0x00\n      dup1\n      sload\n      swap1\n      0x0100\n      exp\n      swap1\n      div\n      0xffffffffffffffffffffffffffffffffffffffff\n      and\n        /* \"contracts/ebcTrans/Copy_stakeEbc.sol\":1603:1623  _owner == msg.sender */\n      0xffffffffffffffffffffffffffffffffffffffff\n      and\n      eq\n        /* \"contracts/ebcTrans/Copy_stakeEbc.sol\":1581:1623  _owner == msg.sender||_owner == msg.sender */\n    tag_272:\n        /* \"contracts/ebcTrans/Copy_stakeEbc.sol\":1573:1634  require(_owner == msg.sender||_owner == msg.sender, \"!owner\") */\n      tag_273\n      jumpi\n      mload(0x40)\n      0x08c379a000000000000000000000000000000000000000000000000000000000\n      dup2\n      mstore\n      0x04\n      add\n      tag_274\n      swap1\n      tag_198\n      jump\t// in\n    tag_274:\n      mload(0x40)\n      dup1\n      swap2\n      sub\n      swap1\n      revert\n    tag_273:\n        /* \"contracts/ebcTrans/Copy_stakeEbc.sol\":12123:12133  stakeStart */\n      dup2\n        /* \"contracts/ebcTrans/Copy_stakeEbc.sol\":12108:12120  isStakeStart */\n      0x0e\n      0x00\n        /* \"contracts/ebcTrans/Copy_stakeEbc.sol\":12108:12133  isStakeStart = stakeStart */\n      0x0100\n      exp\n      dup2\n      sload\n      dup2\n      0xff\n      mul\n      not\n      and\n      swap1\n      dup4\n      iszero\n      iszero\n      mul\n      or\n      swap1\n      sstore\n      pop\n        /* \"contracts/ebcTrans/Copy_stakeEbc.sol\":12159:12169  claimStart */\n      dup1\n        /* \"contracts/ebcTrans/Copy_stakeEbc.sol\":12144:12156  isClaimStart */\n      0x0e\n      0x01\n        /* \"contracts/ebcTrans/Copy_stakeEbc.sol\":12144:12169  isClaimStart = claimStart */\n      0x0100\n      exp\n      dup2\n      sload\n      dup2\n      0xff\n      mul\n      not\n      and\n      swap1\n      dup4\n      iszero\n      iszero\n      mul\n      or\n      swap1\n      sstore\n      pop\n        /* \"contracts/ebcTrans/Copy_stakeEbc.sol\":12027:12177  function setStatus(bool stakeStart, bool claimStart) public onlyOwner {... */\n      pop\n      pop\n      jump\t// out\n        /* \"contracts/ebcTrans/Copy_stakeEbc.sol\":8720:8792  address public _rewardToken = 0xf1f8e132f0a3F720b3b204D728A8ff316B182258 */\n    tag_164:\n      0x01\n      0x00\n      swap1\n      sload\n      swap1\n      0x0100\n      exp\n      swap1\n      div\n      0xffffffffffffffffffffffffffffffffffffffff\n      and\n      dup2\n      jump\t// out\n        /* \"contracts/ebcTrans/Copy_stakeEbc.sol\":10814:10859  mapping(address => uint256) public _userPower */\n    tag_168:\n      mstore(0x20, 0x16)\n      dup1\n      0x00\n      mstore\n      keccak256(0x00, 0x40)\n      0x00\n      swap2\n      pop\n      swap1\n      pop\n      sload\n      dup2\n      jump\t// out\n        /* \"contracts/ebcTrans/Copy_stakeEbc.sol\":9992:10041  mapping(address => uint256) public _inviterReward */\n    tag_172:\n      mstore(0x20, 0x0c)\n      dup1\n      0x00\n      mstore\n      keccak256(0x00, 0x40)\n      0x00\n      swap2\n      pop\n      swap1\n      pop\n      sload\n      dup2\n      jump\t// out\n        /* \"contracts/ebcTrans/Copy_stakeEbc.sol\":8907:8980  address public _lpPriceToken = 0xB1bF470A9720F8d2E49512DbbcCf7180e4Ac4679 */\n    tag_175:\n      0x03\n      0x00\n      swap1\n      sload\n      swap1\n      0x0100\n      exp\n      swap1\n      div\n      0xffffffffffffffffffffffffffffffffffffffff\n      and\n      dup2\n      jump\t// out\n        /* \"contracts/ebcTrans/Copy_stakeEbc.sol\":19860:20393  function ownerSetUser(... */\n    tag_180:\n        /* \"contracts/ebcTrans/Copy_stakeEbc.sol\":1591:1601  msg.sender */\n      caller\n        /* \"contracts/ebcTrans/Copy_stakeEbc.sol\":1581:1601  _owner == msg.sender */\n      0xffffffffffffffffffffffffffffffffffffffff\n      and\n        /* \"contracts/ebcTrans/Copy_stakeEbc.sol\":1581:1587  _owner */\n      0x00\n      dup1\n      sload\n      swap1\n      0x0100\n      exp\n      swap1\n      div\n      0xffffffffffffffffffffffffffffffffffffffff\n      and\n        /* \"contracts/ebcTrans/Copy_stakeEbc.sol\":1581:1601  _owner == msg.sender */\n      0xffffffffffffffffffffffffffffffffffffffff\n      and\n      eq\n        /* \"contracts/ebcTrans/Copy_stakeEbc.sol\":1581:1623  _owner == msg.sender||_owner == msg.sender */\n      dup1\n      tag_277\n      jumpi\n      pop\n        /* \"contracts/ebcTrans/Copy_stakeEbc.sol\":1613:1623  msg.sender */\n      caller\n        /* \"contracts/ebcTrans/Copy_stakeEbc.sol\":1603:1623  _owner == msg.sender */\n      0xffffffffffffffffffffffffffffffffffffffff\n      and\n        /* \"contracts/ebcTrans/Copy_stakeEbc.sol\":1603:1609  _owner */\n      0x00\n      dup1\n      sload\n      swap1\n      0x0100\n      exp\n      swap1\n      div\n      0xffffffffffffffffffffffffffffffffffffffff\n      and\n        /* \"contracts/ebcTrans/Copy_stakeEbc.sol\":1603:1623  _owner == msg.sender */\n      0xffffffffffffffffffffffffffffffffffffffff\n      and\n      eq\n        /* \"contracts/ebcTrans/Copy_stakeEbc.sol\":1581:1623  _owner == msg.sender||_owner == msg.sender */\n    tag_277:\n        /* \"contracts/ebcTrans/Copy_stakeEbc.sol\":1573:1634  require(_owner == msg.sender||_owner == msg.sender, \"!owner\") */\n      tag_278\n      jumpi\n      mload(0x40)\n      0x08c379a000000000000000000000000000000000000000000000000000000000\n      dup2\n      mstore\n      0x04\n      add\n      tag_279\n      swap1\n      tag_198\n      jump\t// in\n    tag_279:\n      mload(0x40)\n      dup1\n      swap2\n      sub\n      swap1\n      revert\n    tag_278:\n        /* \"contracts/ebcTrans/Copy_stakeEbc.sol\":20140:20146  amount */\n      dup6\n        /* \"contracts/ebcTrans/Copy_stakeEbc.sol\":20121:20131  _userStake */\n      0x0f\n        /* \"contracts/ebcTrans/Copy_stakeEbc.sol\":20121:20137  _userStake[user] */\n      0x00\n        /* \"contracts/ebcTrans/Copy_stakeEbc.sol\":20132:20136  user */\n      dup10\n        /* \"contracts/ebcTrans/Copy_stakeEbc.sol\":20121:20137  _userStake[user] */\n      0xffffffffffffffffffffffffffffffffffffffff\n      and\n      0xffffffffffffffffffffffffffffffffffffffff\n      and\n      dup2\n      mstore\n      0x20\n      add\n      swap1\n      dup2\n      mstore\n      0x20\n      add\n      0x00\n      keccak256\n        /* \"contracts/ebcTrans/Copy_stakeEbc.sol\":20121:20146  _userStake[user] = amount */\n      dup2\n      swap1\n      sstore\n      pop\n        /* \"contracts/ebcTrans/Copy_stakeEbc.sol\":20180:20189  stakeTime */\n      dup5\n        /* \"contracts/ebcTrans/Copy_stakeEbc.sol\":20157:20171  _userStakeTime */\n      0x12\n        /* \"contracts/ebcTrans/Copy_stakeEbc.sol\":20157:20177  _userStakeTime[user] */\n      0x00\n        /* \"contracts/ebcTrans/Copy_stakeEbc.sol\":20172:20176  user */\n      dup10\n        /* \"contracts/ebcTrans/Copy_stakeEbc.sol\":20157:20177  _userStakeTime[user] */\n      0xffffffffffffffffffffffffffffffffffffffff\n      and\n      0xffffffffffffffffffffffffffffffffffffffff\n      and\n      dup2\n      mstore\n      0x20\n      add\n      swap1\n      dup2\n      mstore\n      0x20\n      add\n      0x00\n      keccak256\n        /* \"contracts/ebcTrans/Copy_stakeEbc.sol\":20157:20189  _userStakeTime[user] = stakeTime */\n      dup2\n      swap1\n      sstore\n      pop\n        /* \"contracts/ebcTrans/Copy_stakeEbc.sol\":20228:20242  stakeStartTime */\n      dup4\n        /* \"contracts/ebcTrans/Copy_stakeEbc.sol\":20200:20219  _userStakeStartTime */\n      0x13\n        /* \"contracts/ebcTrans/Copy_stakeEbc.sol\":20200:20225  _userStakeStartTime[user] */\n      0x00\n        /* \"contracts/ebcTrans/Copy_stakeEbc.sol\":20220:20224  user */\n      dup10\n        /* \"contracts/ebcTrans/Copy_stakeEbc.sol\":20200:20225  _userStakeStartTime[user] */\n      0xffffffffffffffffffffffffffffffffffffffff\n      and\n      0xffffffffffffffffffffffffffffffffffffffff\n      and\n      dup2\n      mstore\n      0x20\n      add\n      swap1\n      dup2\n      mstore\n      0x20\n      add\n      0x00\n      keccak256\n        /* \"contracts/ebcTrans/Copy_stakeEbc.sol\":20200:20242  _userStakeStartTime[user] = stakeStartTime */\n      dup2\n      swap1\n      sstore\n      pop\n        /* \"contracts/ebcTrans/Copy_stakeEbc.sol\":20280:20293  userLastClaim */\n      dup3\n        /* \"contracts/ebcTrans/Copy_stakeEbc.sol\":20253:20271  _userLastClaimTime */\n      0x14\n        /* \"contracts/ebcTrans/Copy_stakeEbc.sol\":20253:20277  _userLastClaimTime[user] */\n      0x00\n        /* \"contracts/ebcTrans/Copy_stakeEbc.sol\":20272:20276  user */\n      dup10\n        /* \"contracts/ebcTrans/Copy_stakeEbc.sol\":20253:20277  _userLastClaimTime[user] */\n      0xffffffffffffffffffffffffffffffffffffffff\n      and\n      0xffffffffffffffffffffffffffffffffffffffff\n      and\n      dup2\n      mstore\n      0x20\n      add\n      swap1\n      dup2\n      mstore\n      0x20\n      add\n      0x00\n      keccak256\n        /* \"contracts/ebcTrans/Copy_stakeEbc.sol\":20253:20293  _userLastClaimTime[user] = userLastClaim */\n      dup2\n      swap1\n      sstore\n      pop\n        /* \"contracts/ebcTrans/Copy_stakeEbc.sol\":20323:20332  userPower */\n      dup2\n        /* \"contracts/ebcTrans/Copy_stakeEbc.sol\":20304:20314  _userPower */\n      0x16\n        /* \"contracts/ebcTrans/Copy_stakeEbc.sol\":20304:20320  _userPower[user] */\n      0x00\n        /* \"contracts/ebcTrans/Copy_stakeEbc.sol\":20315:20319  user */\n      dup10\n        /* \"contracts/ebcTrans/Copy_stakeEbc.sol\":20304:20320  _userPower[user] */\n      0xffffffffffffffffffffffffffffffffffffffff\n      and\n      0xffffffffffffffffffffffffffffffffffffffff\n      and\n      dup2\n      mstore\n      0x20\n      add\n      swap1\n      dup2\n      mstore\n      0x20\n      add\n      0x00\n      keccak256\n        /* \"contracts/ebcTrans/Copy_stakeEbc.sol\":20304:20332  _userPower[user] = userPower */\n      dup2\n      swap1\n      sstore\n      pop\n        /* \"contracts/ebcTrans/Copy_stakeEbc.sol\":20369:20385  userEndClaimTime */\n      dup1\n        /* \"contracts/ebcTrans/Copy_stakeEbc.sol\":20343:20360  _userEndClaimTime */\n      0x15\n        /* \"contracts/ebcTrans/Copy_stakeEbc.sol\":20343:20366  _userEndClaimTime[user] */\n      0x00\n        /* \"contracts/ebcTrans/Copy_stakeEbc.sol\":20361:20365  user */\n      dup10\n        /* \"contracts/ebcTrans/Copy_stakeEbc.sol\":20343:20366  _userEndClaimTime[user] */\n      0xffffffffffffffffffffffffffffffffffffffff\n      and\n      0xffffffffffffffffffffffffffffffffffffffff\n      and\n      dup2\n      mstore\n      0x20\n      add\n      swap1\n      dup2\n      mstore\n      0x20\n      add\n      0x00\n      keccak256\n        /* \"contracts/ebcTrans/Copy_stakeEbc.sol\":20343:20385  _userEndClaimTime[user] = userEndClaimTime */\n      dup2\n      swap1\n      sstore\n      pop\n        /* \"contracts/ebcTrans/Copy_stakeEbc.sol\":19860:20393  function ownerSetUser(... */\n      pop\n      pop\n      pop\n      pop\n      pop\n      pop\n      pop\n      jump\t// out\n        /* \"contracts/ebcTrans/Copy_stakeEbc.sol\":10194:10225  bool public isClaimStart = true */\n    tag_182:\n      0x0e\n      0x01\n      swap1\n      sload\n      swap1\n      0x0100\n      exp\n      swap1\n      div\n      0xff\n      and\n      dup2\n      jump\t// out\n        /* \"contracts/ebcTrans/Copy_stakeEbc.sol\":1662:1876  function transferOwnership(address newOwner) public virtual onlyOwner {... */\n    tag_186:\n        /* \"contracts/ebcTrans/Copy_stakeEbc.sol\":1591:1601  msg.sender */\n      caller\n        /* \"contracts/ebcTrans/Copy_stakeEbc.sol\":1581:1601  _owner == msg.sender */\n      0xffffffffffffffffffffffffffffffffffffffff\n      and\n        /* \"contracts/ebcTrans/Copy_stakeEbc.sol\":1581:1587  _owner */\n      0x00\n      dup1\n      sload\n      swap1\n      0x0100\n      exp\n      swap1\n      div\n      0xffffffffffffffffffffffffffffffffffffffff\n      and\n        /* \"contracts/ebcTrans/Copy_stakeEbc.sol\":1581:1601  _owner == msg.sender */\n      0xffffffffffffffffffffffffffffffffffffffff\n      and\n      eq\n        /* \"contracts/ebcTrans/Copy_stakeEbc.sol\":1581:1623  _owner == msg.sender||_owner == msg.sender */\n      dup1\n      tag_282\n      jumpi\n      pop\n        /* \"contracts/ebcTrans/Copy_stakeEbc.sol\":1613:1623  msg.sender */\n      caller\n        /* \"contracts/ebcTrans/Copy_stakeEbc.sol\":1603:1623  _owner == msg.sender */\n      0xffffffffffffffffffffffffffffffffffffffff\n      and\n        /* \"contracts/ebcTrans/Copy_stakeEbc.sol\":1603:1609  _owner */\n      0x00\n      dup1\n      sload\n      swap1\n      0x0100\n      exp\n      swap1\n      div\n      0xffffffffffffffffffffffffffffffffffffffff\n      and\n        /* \"contracts/ebcTrans/Copy_stakeEbc.sol\":1603:1623  _owner == msg.sender */\n      0xffffffffffffffffffffffffffffffffffffffff\n      and\n      eq\n        /* \"contracts/ebcTrans/Copy_stakeEbc.sol\":1581:1623  _owner == msg.sender||_owner == msg.sender */\n    tag_282:\n        /* \"contracts/ebcTrans/Copy_stakeEbc.sol\":1573:1634  require(_owner == msg.sender||_owner == msg.sender, \"!owner\") */\n      tag_283\n      jumpi\n      mload(0x40)\n      0x08c379a000000000000000000000000000000000000000000000000000000000\n      dup2\n      mstore\n      0x04\n      add\n      tag_284\n      swap1\n      tag_198\n      jump\t// in\n    tag_284:\n      mload(0x40)\n      dup1\n      swap2\n      sub\n      swap1\n      revert\n    tag_283:\n        /* \"contracts/ebcTrans/Copy_stakeEbc.sol\":1771:1772  0 */\n      0x00\n        /* \"contracts/ebcTrans/Copy_stakeEbc.sol\":1751:1773  newOwner != address(0) */\n      0xffffffffffffffffffffffffffffffffffffffff\n      and\n        /* \"contracts/ebcTrans/Copy_stakeEbc.sol\":1751:1759  newOwner */\n      dup2\n        /* \"contracts/ebcTrans/Copy_stakeEbc.sol\":1751:1773  newOwner != address(0) */\n      0xffffffffffffffffffffffffffffffffffffffff\n      and\n      sub\n        /* \"contracts/ebcTrans/Copy_stakeEbc.sol\":1743:1786  require(newOwner != address(0), \"new is 0\") */\n      tag_286\n      jumpi\n      mload(0x40)\n      0x08c379a000000000000000000000000000000000000000000000000000000000\n      dup2\n      mstore\n      0x04\n      add\n      tag_287\n      swap1\n      tag_288\n      jump\t// in\n    tag_287:\n      mload(0x40)\n      dup1\n      swap2\n      sub\n      swap1\n      revert\n    tag_286:\n        /* \"contracts/ebcTrans/Copy_stakeEbc.sol\":1831:1839  newOwner */\n      dup1\n        /* \"contracts/ebcTrans/Copy_stakeEbc.sol\":1802:1840  OwnershipTransferred(_owner, newOwner) */\n      0xffffffffffffffffffffffffffffffffffffffff\n      and\n        /* \"contracts/ebcTrans/Copy_stakeEbc.sol\":1823:1829  _owner */\n      0x00\n      dup1\n      sload\n      swap1\n      0x0100\n      exp\n      swap1\n      div\n      0xffffffffffffffffffffffffffffffffffffffff\n      and\n        /* \"contracts/ebcTrans/Copy_stakeEbc.sol\":1802:1840  OwnershipTransferred(_owner, newOwner) */\n      0xffffffffffffffffffffffffffffffffffffffff\n      and\n      0x8be0079c531659141344cd1fd0a4f28419497f9722a3daafe3b4186f6b6457e0\n      mload(0x40)\n      mload(0x40)\n      dup1\n      swap2\n      sub\n      swap1\n      log3\n        /* \"contracts/ebcTrans/Copy_stakeEbc.sol\":1860:1868  newOwner */\n      dup1\n        /* \"contracts/ebcTrans/Copy_stakeEbc.sol\":1851:1857  _owner */\n      0x00\n      dup1\n        /* \"contracts/ebcTrans/Copy_stakeEbc.sol\":1851:1868  _owner = newOwner */\n      0x0100\n      exp\n      dup2\n      sload\n      dup2\n      0xffffffffffffffffffffffffffffffffffffffff\n      mul\n      not\n      and\n      swap1\n      dup4\n      0xffffffffffffffffffffffffffffffffffffffff\n      and\n      mul\n      or\n      swap1\n      sstore\n      pop\n        /* \"contracts/ebcTrans/Copy_stakeEbc.sol\":1662:1876  function transferOwnership(address newOwner) public virtual onlyOwner {... */\n      pop\n      jump\t// out\n        /* \"contracts/ebcTrans/Copy_stakeEbc.sol\":10135:10166  bool public isStakeStart = true */\n    tag_188:\n      0x0e\n      0x00\n      swap1\n      sload\n      swap1\n      0x0100\n      exp\n      swap1\n      div\n      0xff\n      and\n      dup2\n      jump\t// out\n        /* \"contracts/ebcTrans/Copy_stakeEbc.sol\":12203:13827  function stakeYB(... */\n    tag_193:\n        /* \"contracts/ebcTrans/Copy_stakeEbc.sol\":12357:12369  isStakeStart */\n      0x0e\n      0x00\n      swap1\n      sload\n      swap1\n      0x0100\n      exp\n      swap1\n      div\n      0xff\n      and\n        /* \"contracts/ebcTrans/Copy_stakeEbc.sol\":12349:12383  require(isStakeStart, \"not start\") */\n      tag_290\n      jumpi\n      mload(0x40)\n      0x08c379a000000000000000000000000000000000000000000000000000000000\n      dup2\n      mstore\n      0x04\n      add\n      tag_291\n      swap1\n      tag_292\n      jump\t// in\n    tag_291:\n      mload(0x40)\n      dup1\n      swap2\n      sub\n      swap1\n      revert\n    tag_290:\n        /* \"contracts/ebcTrans/Copy_stakeEbc.sol\":12564:12565  0 */\n      0x00\n        /* \"contracts/ebcTrans/Copy_stakeEbc.sol\":12537:12548  _userStakeY */\n      0x10\n        /* \"contracts/ebcTrans/Copy_stakeEbc.sol\":12537:12560  _userStakeY[msg.sender] */\n      0x00\n        /* \"contracts/ebcTrans/Copy_stakeEbc.sol\":12549:12559  msg.sender */\n      caller\n        /* \"contracts/ebcTrans/Copy_stakeEbc.sol\":12537:12560  _userStakeY[msg.sender] */\n      0xffffffffffffffffffffffffffffffffffffffff\n      and\n      0xffffffffffffffffffffffffffffffffffffffff\n      and\n      dup2\n      mstore\n      0x20\n      add\n      swap1\n      dup2\n      mstore\n      0x20\n      add\n      0x00\n      keccak256\n      sload\n        /* \"contracts/ebcTrans/Copy_stakeEbc.sol\":12537:12565  _userStakeY[msg.sender] == 0 */\n      eq\n        /* \"contracts/ebcTrans/Copy_stakeEbc.sol\":12529:12584  require(_userStakeY[msg.sender] == 0, \"already stakeY\") */\n      tag_293\n      jumpi\n      mload(0x40)\n      0x08c379a000000000000000000000000000000000000000000000000000000000\n      dup2\n      mstore\n      0x04\n      add\n      tag_294\n      swap1\n      tag_295\n      jump\t// in\n    tag_294:\n      mload(0x40)\n      dup1\n      swap2\n      sub\n      swap1\n      revert\n    tag_293:\n        /* \"contracts/ebcTrans/Copy_stakeEbc.sol\":12630:12631  0 */\n      0x00\n        /* \"contracts/ebcTrans/Copy_stakeEbc.sol\":12603:12614  _userStakeB */\n      0x11\n        /* \"contracts/ebcTrans/Copy_stakeEbc.sol\":12603:12626  _userStakeB[msg.sender] */\n      0x00\n        /* \"contracts/ebcTrans/Copy_stakeEbc.sol\":12615:12625  msg.sender */\n      caller\n        /* \"contracts/ebcTrans/Copy_stakeEbc.sol\":12603:12626  _userStakeB[msg.sender] */\n      0xffffffffffffffffffffffffffffffffffffffff\n      and\n      0xffffffffffffffffffffffffffffffffffffffff\n      and\n      dup2\n      mstore\n      0x20\n      add\n      swap1\n      dup2\n      mstore\n      0x20\n      add\n      0x00\n      keccak256\n      sload\n        /* \"contracts/ebcTrans/Copy_stakeEbc.sol\":12603:12631  _userStakeB[msg.sender] == 0 */\n      eq\n        /* \"contracts/ebcTrans/Copy_stakeEbc.sol\":12595:12650  require(_userStakeB[msg.sender] == 0, \"already stakeB\") */\n      tag_296\n      jumpi\n      mload(0x40)\n      0x08c379a000000000000000000000000000000000000000000000000000000000\n      dup2\n      mstore\n      0x04\n      add\n      tag_297\n      swap1\n      tag_298\n      jump\t// in\n    tag_297:\n      mload(0x40)\n      dup1\n      swap2\n      sub\n      swap1\n      revert\n    tag_296:\n        /* \"contracts/ebcTrans/Copy_stakeEbc.sol\":12679:12680  0 */\n      0x00\n        /* \"contracts/ebcTrans/Copy_stakeEbc.sol\":12669:12676  Yamount */\n      dup4\n        /* \"contracts/ebcTrans/Copy_stakeEbc.sol\":12669:12680  Yamount > 0 */\n      gt\n        /* \"contracts/ebcTrans/Copy_stakeEbc.sol\":12661:12697  require(Yamount > 0, \"zero Yamount\") */\n      tag_299\n      jumpi\n      mload(0x40)\n      0x08c379a000000000000000000000000000000000000000000000000000000000\n      dup2\n      mstore\n      0x04\n      add\n      tag_300\n      swap1\n      tag_301\n      jump\t// in\n    tag_300:\n      mload(0x40)\n      dup1\n      swap2\n      sub\n      swap1\n      revert\n    tag_299:\n        /* \"contracts/ebcTrans/Copy_stakeEbc.sol\":12726:12727  0 */\n      0x00\n        /* \"contracts/ebcTrans/Copy_stakeEbc.sol\":12716:12723  Bamount */\n      dup3\n        /* \"contracts/ebcTrans/Copy_stakeEbc.sol\":12716:12727  Bamount > 0 */\n      gt\n        /* \"contracts/ebcTrans/Copy_stakeEbc.sol\":12708:12744  require(Bamount > 0, \"zero Bamount\") */\n      tag_302\n      jumpi\n      mload(0x40)\n      0x08c379a000000000000000000000000000000000000000000000000000000000\n      dup2\n      mstore\n      0x04\n      add\n      tag_303\n      swap1\n      tag_304\n      jump\t// in\n    tag_303:\n      mload(0x40)\n      dup1\n      swap2\n      sub\n      swap1\n      revert\n    tag_302:\n        /* \"contracts/ebcTrans/Copy_stakeEbc.sol\":12771:12778  _stake5 */\n      sload(0x09)\n        /* \"contracts/ebcTrans/Copy_stakeEbc.sol\":12763:12767  time */\n      dup2\n        /* \"contracts/ebcTrans/Copy_stakeEbc.sol\":12763:12778  time == _stake5 */\n      eq\n        /* \"contracts/ebcTrans/Copy_stakeEbc.sol\":12755:12796  require(time == _stake5,\"not right time\") */\n      tag_305\n      jumpi\n      mload(0x40)\n      0x08c379a000000000000000000000000000000000000000000000000000000000\n      dup2\n      mstore\n      0x04\n      add\n      tag_306\n      swap1\n      tag_307\n      jump\t// in\n    tag_306:\n      mload(0x40)\n      dup1\n      swap2\n      sub\n      swap1\n      revert\n    tag_305:\n        /* \"contracts/ebcTrans/Copy_stakeEbc.sol\":12807:12819  uint256 base */\n      0x00\n        /* \"contracts/ebcTrans/Copy_stakeEbc.sol\":12822:12823  1 */\n      0x01\n        /* \"contracts/ebcTrans/Copy_stakeEbc.sol\":12807:12823  uint256 base = 1 */\n      swap1\n      pop\n        /* \"contracts/ebcTrans/Copy_stakeEbc.sol\":13041:13048  _aToken */\n      0x04\n      0x00\n      swap1\n      sload\n      swap1\n      0x0100\n      exp\n      swap1\n      div\n      0xffffffffffffffffffffffffffffffffffffffff\n      and\n        /* \"contracts/ebcTrans/Copy_stakeEbc.sol\":13034:13062  IERC20(_aToken).transferFrom */\n      0xffffffffffffffffffffffffffffffffffffffff\n      and\n      0x23b872dd\n        /* \"contracts/ebcTrans/Copy_stakeEbc.sol\":13063:13073  msg.sender */\n      caller\n        /* \"contracts/ebcTrans/Copy_stakeEbc.sol\":13083:13087  this */\n      address\n        /* \"contracts/ebcTrans/Copy_stakeEbc.sol\":13090:13097  Yamount */\n      dup8\n        /* \"contracts/ebcTrans/Copy_stakeEbc.sol\":13034:13098  IERC20(_aToken).transferFrom(msg.sender, address(this), Yamount) */\n      mload(0x40)\n      dup5\n      0xffffffff\n      and\n      0xe0\n      shl\n      dup2\n      mstore\n      0x04\n      add\n      tag_308\n      swap4\n      swap3\n      swap2\n      swap1\n      tag_309\n      jump\t// in\n    tag_308:\n      0x20\n      mload(0x40)\n      dup1\n      dup4\n      sub\n      dup2\n      0x00\n      dup8\n      gas\n      call\n      iszero\n      dup1\n      iszero\n      tag_311\n      jumpi\n      returndatasize\n      0x00\n      dup1\n      returndatacopy\n      revert(0x00, returndatasize)\n    tag_311:\n      pop\n      pop\n      pop\n      pop\n      mload(0x40)\n      returndatasize\n      not(0x1f)\n      0x1f\n      dup3\n      add\n      and\n      dup3\n      add\n      dup1\n      0x40\n      mstore\n      pop\n      dup2\n      add\n      swap1\n      tag_312\n      swap2\n      swap1\n      tag_242\n      jump\t// in\n    tag_312:\n      pop\n        /* \"contracts/ebcTrans/Copy_stakeEbc.sol\":13124:13131  _bToken */\n      0x05\n      0x00\n      swap1\n      sload\n      swap1\n      0x0100\n      exp\n      swap1\n      div\n      0xffffffffffffffffffffffffffffffffffffffff\n      and\n        /* \"contracts/ebcTrans/Copy_stakeEbc.sol\":13117:13145  IERC20(_bToken).transferFrom */\n      0xffffffffffffffffffffffffffffffffffffffff\n      and\n      0x23b872dd\n        /* \"contracts/ebcTrans/Copy_stakeEbc.sol\":13146:13156  msg.sender */\n      caller\n        /* \"contracts/ebcTrans/Copy_stakeEbc.sol\":13166:13170  this */\n      address\n        /* \"contracts/ebcTrans/Copy_stakeEbc.sol\":13173:13180  Bamount */\n      dup7\n        /* \"contracts/ebcTrans/Copy_stakeEbc.sol\":13117:13181  IERC20(_bToken).transferFrom(msg.sender, address(this), Bamount) */\n      mload(0x40)\n      dup5\n      0xffffffff\n      and\n      0xe0\n      shl\n      dup2\n      mstore\n      0x04\n      add\n      tag_313\n      swap4\n      swap3\n      swap2\n      swap1\n      tag_309\n      jump\t// in\n    tag_313:\n      0x20\n      mload(0x40)\n      dup1\n      dup4\n      sub\n      dup2\n      0x00\n      dup8\n      gas\n      call\n      iszero\n      dup1\n      iszero\n      tag_315\n      jumpi\n      returndatasize\n      0x00\n      dup1\n      returndatacopy\n      revert(0x00, returndatasize)\n    tag_315:\n      pop\n      pop\n      pop\n      pop\n      mload(0x40)\n      returndatasize\n      not(0x1f)\n      0x1f\n      dup3\n      add\n      and\n      dup3\n      add\n      dup1\n      0x40\n      mstore\n      pop\n      dup2\n      add\n      swap1\n      tag_316\n      swap2\n      swap1\n      tag_242\n      jump\t// in\n    tag_316:\n      pop\n        /* \"contracts/ebcTrans/Copy_stakeEbc.sol\":13366:13373  _aToken */\n      0x04\n      0x00\n      swap1\n      sload\n      swap1\n      0x0100\n      exp\n      swap1\n      div\n      0xffffffffffffffffffffffffffffffffffffffff\n      and\n        /* \"contracts/ebcTrans/Copy_stakeEbc.sol\":13359:13383  IERC20(_aToken).transfer */\n      0xffffffffffffffffffffffffffffffffffffffff\n      and\n      0xa9059cbb\n        /* \"contracts/ebcTrans/Copy_stakeEbc.sol\":13384:13395  _adminToken */\n      0x06\n      0x00\n      swap1\n      sload\n      swap1\n      0x0100\n      exp\n      swap1\n      div\n      0xffffffffffffffffffffffffffffffffffffffff\n      and\n        /* \"contracts/ebcTrans/Copy_stakeEbc.sol\":13397:13404  Yamount */\n      dup7\n        /* \"contracts/ebcTrans/Copy_stakeEbc.sol\":13359:13405  IERC20(_aToken).transfer(_adminToken, Yamount) */\n      mload(0x40)\n      dup4\n      0xffffffff\n      and\n      0xe0\n      shl\n      dup2\n      mstore\n      0x04\n      add\n      tag_317\n      swap3\n      swap2\n      swap1\n      tag_238\n      jump\t// in\n    tag_317:\n      0x20\n      mload(0x40)\n      dup1\n      dup4\n      sub\n      dup2\n      0x00\n      dup8\n      gas\n      call\n      iszero\n      dup1\n      iszero\n      tag_319\n      jumpi\n      returndatasize\n      0x00\n      dup1\n      returndatacopy\n      revert(0x00, returndatasize)\n    tag_319:\n      pop\n      pop\n      pop\n      pop\n      mload(0x40)\n      returndatasize\n      not(0x1f)\n      0x1f\n      dup3\n      add\n      and\n      dup3\n      add\n      dup1\n      0x40\n      mstore\n      pop\n      dup2\n      add\n      swap1\n      tag_320\n      swap2\n      swap1\n      tag_242\n      jump\t// in\n    tag_320:\n      pop\n        /* \"contracts/ebcTrans/Copy_stakeEbc.sol\":13423:13430  _bToken */\n      0x05\n      0x00\n      swap1\n      sload\n      swap1\n      0x0100\n      exp\n      swap1\n      div\n      0xffffffffffffffffffffffffffffffffffffffff\n      and\n        /* \"contracts/ebcTrans/Copy_stakeEbc.sol\":13416:13440  IERC20(_bToken).transfer */\n      0xffffffffffffffffffffffffffffffffffffffff\n      and\n      0xa9059cbb\n        /* \"contracts/ebcTrans/Copy_stakeEbc.sol\":13441:13452  _adminToken */\n      0x06\n      0x00\n      swap1\n      sload\n      swap1\n      0x0100\n      exp\n      swap1\n      div\n      0xffffffffffffffffffffffffffffffffffffffff\n      and\n        /* \"contracts/ebcTrans/Copy_stakeEbc.sol\":13454:13461  Bamount */\n      dup6\n        /* \"contracts/ebcTrans/Copy_stakeEbc.sol\":13416:13462  IERC20(_bToken).transfer(_adminToken, Bamount) */\n      mload(0x40)\n      dup4\n      0xffffffff\n      and\n      0xe0\n      shl\n      dup2\n      mstore\n      0x04\n      add\n      tag_321\n      swap3\n      swap2\n      swap1\n      tag_238\n      jump\t// in\n    tag_321:\n      0x20\n      mload(0x40)\n      dup1\n      dup4\n      sub\n      dup2\n      0x00\n      dup8\n      gas\n      call\n      iszero\n      dup1\n      iszero\n      tag_323\n      jumpi\n      returndatasize\n      0x00\n      dup1\n      returndatacopy\n      revert(0x00, returndatasize)\n    tag_323:\n      pop\n      pop\n      pop\n      pop\n      mload(0x40)\n      returndatasize\n      not(0x1f)\n      0x1f\n      dup3\n      add\n      and\n      dup3\n      add\n      dup1\n      0x40\n      mstore\n      pop\n      dup2\n      add\n      swap1\n      tag_324\n      swap2\n      swap1\n      tag_242\n      jump\t// in\n    tag_324:\n      pop\n        /* \"contracts/ebcTrans/Copy_stakeEbc.sol\":13501:13508  Yamount */\n      dup4\n        /* \"contracts/ebcTrans/Copy_stakeEbc.sol\":13475:13486  _userStakeY */\n      0x10\n        /* \"contracts/ebcTrans/Copy_stakeEbc.sol\":13475:13498  _userStakeY[msg.sender] */\n      0x00\n        /* \"contracts/ebcTrans/Copy_stakeEbc.sol\":13487:13497  msg.sender */\n      caller\n        /* \"contracts/ebcTrans/Copy_stakeEbc.sol\":13475:13498  _userStakeY[msg.sender] */\n      0xffffffffffffffffffffffffffffffffffffffff\n      and\n      0xffffffffffffffffffffffffffffffffffffffff\n      and\n      dup2\n      mstore\n      0x20\n      add\n      swap1\n      dup2\n      mstore\n      0x20\n      add\n      0x00\n      keccak256\n        /* \"contracts/ebcTrans/Copy_stakeEbc.sol\":13475:13508  _userStakeY[msg.sender] = Yamount */\n      dup2\n      swap1\n      sstore\n      pop\n        /* \"contracts/ebcTrans/Copy_stakeEbc.sol\":13545:13552  Bamount */\n      dup3\n        /* \"contracts/ebcTrans/Copy_stakeEbc.sol\":13519:13530  _userStakeB */\n      0x11\n        /* \"contracts/ebcTrans/Copy_stakeEbc.sol\":13519:13542  _userStakeB[msg.sender] */\n      0x00\n        /* \"contracts/ebcTrans/Copy_stakeEbc.sol\":13531:13541  msg.sender */\n      caller\n        /* \"contracts/ebcTrans/Copy_stakeEbc.sol\":13519:13542  _userStakeB[msg.sender] */\n      0xffffffffffffffffffffffffffffffffffffffff\n      and\n      0xffffffffffffffffffffffffffffffffffffffff\n      and\n      dup2\n      mstore\n      0x20\n      add\n      swap1\n      dup2\n      mstore\n      0x20\n      add\n      0x00\n      keccak256\n        /* \"contracts/ebcTrans/Copy_stakeEbc.sol\":13519:13552  _userStakeB[msg.sender] = Bamount */\n      dup2\n      swap1\n      sstore\n      pop\n        /* \"contracts/ebcTrans/Copy_stakeEbc.sol\":13597:13612  block.timestamp */\n      timestamp\n        /* \"contracts/ebcTrans/Copy_stakeEbc.sol\":13563:13582  _userStakeStartTime */\n      0x13\n        /* \"contracts/ebcTrans/Copy_stakeEbc.sol\":13563:13594  _userStakeStartTime[msg.sender] */\n      0x00\n        /* \"contracts/ebcTrans/Copy_stakeEbc.sol\":13583:13593  msg.sender */\n      caller\n        /* \"contracts/ebcTrans/Copy_stakeEbc.sol\":13563:13594  _userStakeStartTime[msg.sender] */\n      0xffffffffffffffffffffffffffffffffffffffff\n      and\n      0xffffffffffffffffffffffffffffffffffffffff\n      and\n      dup2\n      mstore\n      0x20\n      add\n      swap1\n      dup2\n      mstore\n      0x20\n      add\n      0x00\n      keccak256\n        /* \"contracts/ebcTrans/Copy_stakeEbc.sol\":13563:13612  _userStakeStartTime[msg.sender] = block.timestamp */\n      dup2\n      swap1\n      sstore\n      pop\n        /* \"contracts/ebcTrans/Copy_stakeEbc.sol\":13655:13670  block.timestamp */\n      timestamp\n        /* \"contracts/ebcTrans/Copy_stakeEbc.sol\":13623:13641  _userLastClaimTime */\n      0x14\n        /* \"contracts/ebcTrans/Copy_stakeEbc.sol\":13623:13653  _userLastClaimTime[msg.sender] */\n      0x00\n        /* \"contracts/ebcTrans/Copy_stakeEbc.sol\":13642:13652  msg.sender */\n      caller\n        /* \"contracts/ebcTrans/Copy_stakeEbc.sol\":13623:13653  _userLastClaimTime[msg.sender] */\n      0xffffffffffffffffffffffffffffffffffffffff\n      and\n      0xffffffffffffffffffffffffffffffffffffffff\n      and\n      dup2\n      mstore\n      0x20\n      add\n      swap1\n      dup2\n      mstore\n      0x20\n      add\n      0x00\n      keccak256\n        /* \"contracts/ebcTrans/Copy_stakeEbc.sol\":13623:13670  _userLastClaimTime[msg.sender]= block.timestamp */\n      dup2\n      swap1\n      sstore\n      pop\n        /* \"contracts/ebcTrans/Copy_stakeEbc.sol\":13731:13735  time */\n      dup2\n        /* \"contracts/ebcTrans/Copy_stakeEbc.sol\":13713:13728  block.timestamp */\n      timestamp\n        /* \"contracts/ebcTrans/Copy_stakeEbc.sol\":13713:13735  block.timestamp + time */\n      tag_325\n      swap2\n      swap1\n      tag_326\n      jump\t// in\n    tag_325:\n        /* \"contracts/ebcTrans/Copy_stakeEbc.sol\":13681:13698  _userEndClaimTime */\n      0x15\n        /* \"contracts/ebcTrans/Copy_stakeEbc.sol\":13681:13710  _userEndClaimTime[msg.sender] */\n      0x00\n        /* \"contracts/ebcTrans/Copy_stakeEbc.sol\":13699:13709  msg.sender */\n      caller\n        /* \"contracts/ebcTrans/Copy_stakeEbc.sol\":13681:13710  _userEndClaimTime[msg.sender] */\n      0xffffffffffffffffffffffffffffffffffffffff\n      and\n      0xffffffffffffffffffffffffffffffffffffffff\n      and\n      dup2\n      mstore\n      0x20\n      add\n      swap1\n      dup2\n      mstore\n      0x20\n      add\n      0x00\n      keccak256\n        /* \"contracts/ebcTrans/Copy_stakeEbc.sol\":13681:13735  _userEndClaimTime[msg.sender] = block.timestamp + time */\n      dup2\n      swap1\n      sstore\n      pop\n        /* \"contracts/ebcTrans/Copy_stakeEbc.sol\":13775:13779  time */\n      dup2\n        /* \"contracts/ebcTrans/Copy_stakeEbc.sol\":13746:13760  _userStakeTime */\n      0x12\n        /* \"contracts/ebcTrans/Copy_stakeEbc.sol\":13746:13772  _userStakeTime[msg.sender] */\n      0x00\n        /* \"contracts/ebcTrans/Copy_stakeEbc.sol\":13761:13771  msg.sender */\n      caller\n        /* \"contracts/ebcTrans/Copy_stakeEbc.sol\":13746:13772  _userStakeTime[msg.sender] */\n      0xffffffffffffffffffffffffffffffffffffffff\n      and\n      0xffffffffffffffffffffffffffffffffffffffff\n      and\n      dup2\n      mstore\n      0x20\n      add\n      swap1\n      dup2\n      mstore\n      0x20\n      add\n      0x00\n      keccak256\n        /* \"contracts/ebcTrans/Copy_stakeEbc.sol\":13746:13779  _userStakeTime[msg.sender] = time */\n      dup2\n      swap1\n      sstore\n      pop\n        /* \"contracts/ebcTrans/Copy_stakeEbc.sol\":13815:13819  base */\n      dup1\n        /* \"contracts/ebcTrans/Copy_stakeEbc.sol\":13790:13800  _userPower */\n      0x16\n        /* \"contracts/ebcTrans/Copy_stakeEbc.sol\":13790:13812  _userPower[msg.sender] */\n      0x00\n        /* \"contracts/ebcTrans/Copy_stakeEbc.sol\":13801:13811  msg.sender */\n      caller\n        /* \"contracts/ebcTrans/Copy_stakeEbc.sol\":13790:13812  _userPower[msg.sender] */\n      0xffffffffffffffffffffffffffffffffffffffff\n      and\n      0xffffffffffffffffffffffffffffffffffffffff\n      and\n      dup2\n      mstore\n      0x20\n      add\n      swap1\n      dup2\n      mstore\n      0x20\n      add\n      0x00\n      keccak256\n        /* \"contracts/ebcTrans/Copy_stakeEbc.sol\":13790:13819  _userPower[msg.sender] = base */\n      dup2\n      swap1\n      sstore\n      pop\n        /* \"contracts/ebcTrans/Copy_stakeEbc.sol\":12338:13827  {... */\n      pop\n        /* \"contracts/ebcTrans/Copy_stakeEbc.sol\":12203:13827  function stakeYB(... */\n      pop\n      pop\n      pop\n      jump\t// out\n        /* \"#utility.yul\":88:205   */\n    tag_328:\n        /* \"#utility.yul\":197:198   */\n      0x00\n        /* \"#utility.yul\":194:195   */\n      dup1\n        /* \"#utility.yul\":187:199   */\n      revert\n        /* \"#utility.yul\":334:411   */\n    tag_330:\n        /* \"#utility.yul\":371:378   */\n      0x00\n        /* \"#utility.yul\":400:405   */\n      dup2\n        /* \"#utility.yul\":389:405   */\n      swap1\n      pop\n        /* \"#utility.yul\":334:411   */\n      swap2\n      swap1\n      pop\n      jump\t// out\n        /* \"#utility.yul\":417:539   */\n    tag_331:\n        /* \"#utility.yul\":490:514   */\n      tag_371\n        /* \"#utility.yul\":508:513   */\n      dup2\n        /* \"#utility.yul\":490:514   */\n      tag_330\n      jump\t// in\n    tag_371:\n        /* \"#utility.yul\":483:488   */\n      dup2\n        /* \"#utility.yul\":480:515   */\n      eq\n        /* \"#utility.yul\":470:533   */\n      tag_372\n      jumpi\n        /* \"#utility.yul\":529:530   */\n      0x00\n        /* \"#utility.yul\":526:527   */\n      dup1\n        /* \"#utility.yul\":519:531   */\n      revert\n        /* \"#utility.yul\":470:533   */\n    tag_372:\n        /* \"#utility.yul\":417:539   */\n      pop\n      jump\t// out\n        /* \"#utility.yul\":545:684   */\n    tag_332:\n        /* \"#utility.yul\":591:596   */\n      0x00\n        /* \"#utility.yul\":629:635   */\n      dup2\n        /* \"#utility.yul\":616:636   */\n      calldataload\n        /* \"#utility.yul\":607:636   */\n      swap1\n      pop\n        /* \"#utility.yul\":645:678   */\n      tag_374\n        /* \"#utility.yul\":672:677   */\n      dup2\n        /* \"#utility.yul\":645:678   */\n      tag_331\n      jump\t// in\n    tag_374:\n        /* \"#utility.yul\":545:684   */\n      swap3\n      swap2\n      pop\n      pop\n      jump\t// out\n        /* \"#utility.yul\":690:1019   */\n    tag_53:\n        /* \"#utility.yul\":749:755   */\n      0x00\n        /* \"#utility.yul\":798:800   */\n      0x20\n        /* \"#utility.yul\":786:795   */\n      dup3\n        /* \"#utility.yul\":777:784   */\n      dup5\n        /* \"#utility.yul\":773:796   */\n      sub\n        /* \"#utility.yul\":769:801   */\n      slt\n        /* \"#utility.yul\":766:885   */\n      iszero\n      tag_376\n      jumpi\n        /* \"#utility.yul\":804:883   */\n      tag_377\n      tag_328\n      jump\t// in\n    tag_377:\n        /* \"#utility.yul\":766:885   */\n    tag_376:\n        /* \"#utility.yul\":924:925   */\n      0x00\n        /* \"#utility.yul\":949:1002   */\n      tag_378\n        /* \"#utility.yul\":994:1001   */\n      dup5\n        /* \"#utility.yul\":985:991   */\n      dup3\n        /* \"#utility.yul\":974:983   */\n      dup6\n        /* \"#utility.yul\":970:992   */\n      add\n        /* \"#utility.yul\":949:1002   */\n      tag_332\n      jump\t// in\n    tag_378:\n        /* \"#utility.yul\":939:1002   */\n      swap2\n      pop\n        /* \"#utility.yul\":895:1012   */\n      pop\n        /* \"#utility.yul\":690:1019   */\n      swap3\n      swap2\n      pop\n      pop\n      jump\t// out\n        /* \"#utility.yul\":1025:1151   */\n    tag_333:\n        /* \"#utility.yul\":1062:1069   */\n      0x00\n        /* \"#utility.yul\":1102:1144   */\n      0xffffffffffffffffffffffffffffffffffffffff\n        /* \"#utility.yul\":1095:1100   */\n      dup3\n        /* \"#utility.yul\":1091:1145   */\n      and\n        /* \"#utility.yul\":1080:1145   */\n      swap1\n      pop\n        /* \"#utility.yul\":1025:1151   */\n      swap2\n      swap1\n      pop\n      jump\t// out\n        /* \"#utility.yul\":1157:1253   */\n    tag_334:\n        /* \"#utility.yul\":1194:1201   */\n      0x00\n        /* \"#utility.yul\":1223:1247   */\n      tag_381\n        /* \"#utility.yul\":1241:1246   */\n      dup3\n        /* \"#utility.yul\":1223:1247   */\n      tag_333\n      jump\t// in\n    tag_381:\n        /* \"#utility.yul\":1212:1247   */\n      swap1\n      pop\n        /* \"#utility.yul\":1157:1253   */\n      swap2\n      swap1\n      pop\n      jump\t// out\n        /* \"#utility.yul\":1259:1381   */\n    tag_335:\n        /* \"#utility.yul\":1332:1356   */\n      tag_383\n        /* \"#utility.yul\":1350:1355   */\n      dup2\n        /* \"#utility.yul\":1332:1356   */\n      tag_334\n      jump\t// in\n    tag_383:\n        /* \"#utility.yul\":1325:1330   */\n      dup2\n        /* \"#utility.yul\":1322:1357   */\n      eq\n        /* \"#utility.yul\":1312:1375   */\n      tag_384\n      jumpi\n        /* \"#utility.yul\":1371:1372   */\n      0x00\n        /* \"#utility.yul\":1368:1369   */\n      dup1\n        /* \"#utility.yul\":1361:1373   */\n      revert\n        /* \"#utility.yul\":1312:1375   */\n    tag_384:\n        /* \"#utility.yul\":1259:1381   */\n      pop\n      jump\t// out\n        /* \"#utility.yul\":1387:1526   */\n    tag_336:\n        /* \"#utility.yul\":1433:1438   */\n      0x00\n        /* \"#utility.yul\":1471:1477   */\n      dup2\n        /* \"#utility.yul\":1458:1478   */\n      calldataload\n        /* \"#utility.yul\":1449:1478   */\n      swap1\n      pop\n        /* \"#utility.yul\":1487:1520   */\n      tag_386\n        /* \"#utility.yul\":1514:1519   */\n      dup2\n        /* \"#utility.yul\":1487:1520   */\n      tag_335\n      jump\t// in\n    tag_386:\n        /* \"#utility.yul\":1387:1526   */\n      swap3\n      swap2\n      pop\n      pop\n      jump\t// out\n        /* \"#utility.yul\":1532:1861   */\n    tag_57:\n        /* \"#utility.yul\":1591:1597   */\n      0x00\n        /* \"#utility.yul\":1640:1642   */\n      0x20\n        /* \"#utility.yul\":1628:1637   */\n      dup3\n        /* \"#utility.yul\":1619:1626   */\n      dup5\n        /* \"#utility.yul\":1615:1638   */\n      sub\n        /* \"#utility.yul\":1611:1643   */\n      slt\n        /* \"#utility.yul\":1608:1727   */\n      iszero\n      tag_388\n      jumpi\n        /* \"#utility.yul\":1646:1725   */\n      tag_389\n      tag_328\n      jump\t// in\n    tag_389:\n        /* \"#utility.yul\":1608:1727   */\n    tag_388:\n        /* \"#utility.yul\":1766:1767   */\n      0x00\n        /* \"#utility.yul\":1791:1844   */\n      tag_390\n        /* \"#utility.yul\":1836:1843   */\n      dup5\n        /* \"#utility.yul\":1827:1833   */\n      dup3\n        /* \"#utility.yul\":1816:1825   */\n      dup6\n        /* \"#utility.yul\":1812:1834   */\n      add\n        /* \"#utility.yul\":1791:1844   */\n      tag_336\n      jump\t// in\n    tag_390:\n        /* \"#utility.yul\":1781:1844   */\n      swap2\n      pop\n        /* \"#utility.yul\":1737:1854   */\n      pop\n        /* \"#utility.yul\":1532:1861   */\n      swap3\n      swap2\n      pop\n      pop\n      jump\t// out\n        /* \"#utility.yul\":1867:1985   */\n    tag_337:\n        /* \"#utility.yul\":1954:1978   */\n      tag_392\n        /* \"#utility.yul\":1972:1977   */\n      dup2\n        /* \"#utility.yul\":1954:1978   */\n      tag_330\n      jump\t// in\n    tag_392:\n        /* \"#utility.yul\":1949:1952   */\n      dup3\n        /* \"#utility.yul\":1942:1979   */\n      mstore\n        /* \"#utility.yul\":1867:1985   */\n      pop\n      pop\n      jump\t// out\n        /* \"#utility.yul\":1991:2213   */\n    tag_60:\n        /* \"#utility.yul\":2084:2088   */\n      0x00\n        /* \"#utility.yul\":2122:2124   */\n      0x20\n        /* \"#utility.yul\":2111:2120   */\n      dup3\n        /* \"#utility.yul\":2107:2125   */\n      add\n        /* \"#utility.yul\":2099:2125   */\n      swap1\n      pop\n        /* \"#utility.yul\":2135:2206   */\n      tag_394\n        /* \"#utility.yul\":2203:2204   */\n      0x00\n        /* \"#utility.yul\":2192:2201   */\n      dup4\n        /* \"#utility.yul\":2188:2205   */\n      add\n        /* \"#utility.yul\":2179:2185   */\n      dup5\n        /* \"#utility.yul\":2135:2206   */\n      tag_337\n      jump\t// in\n    tag_394:\n        /* \"#utility.yul\":1991:2213   */\n      swap3\n      swap2\n      pop\n      pop\n      jump\t// out\n        /* \"#utility.yul\":2219:2309   */\n    tag_338:\n        /* \"#utility.yul\":2253:2260   */\n      0x00\n        /* \"#utility.yul\":2296:2301   */\n      dup2\n        /* \"#utility.yul\":2289:2302   */\n      iszero\n        /* \"#utility.yul\":2282:2303   */\n      iszero\n        /* \"#utility.yul\":2271:2303   */\n      swap1\n      pop\n        /* \"#utility.yul\":2219:2309   */\n      swap2\n      swap1\n      pop\n      jump\t// out\n        /* \"#utility.yul\":2315:2424   */\n    tag_339:\n        /* \"#utility.yul\":2396:2417   */\n      tag_397\n        /* \"#utility.yul\":2411:2416   */\n      dup2\n        /* \"#utility.yul\":2396:2417   */\n      tag_338\n      jump\t// in\n    tag_397:\n        /* \"#utility.yul\":2391:2394   */\n      dup3\n        /* \"#utility.yul\":2384:2418   */\n      mstore\n        /* \"#utility.yul\":2315:2424   */\n      pop\n      pop\n      jump\t// out\n        /* \"#utility.yul\":2430:2640   */\n    tag_71:\n        /* \"#utility.yul\":2517:2521   */\n      0x00\n        /* \"#utility.yul\":2555:2557   */\n      0x20\n        /* \"#utility.yul\":2544:2553   */\n      dup3\n        /* \"#utility.yul\":2540:2558   */\n      add\n        /* \"#utility.yul\":2532:2558   */\n      swap1\n      pop\n        /* \"#utility.yul\":2568:2633   */\n      tag_399\n        /* \"#utility.yul\":2630:2631   */\n      0x00\n        /* \"#utility.yul\":2619:2628   */\n      dup4\n        /* \"#utility.yul\":2615:2632   */\n      add\n        /* \"#utility.yul\":2606:2612   */\n      dup5\n        /* \"#utility.yul\":2568:2633   */\n      tag_339\n      jump\t// in\n    tag_399:\n        /* \"#utility.yul\":2430:2640   */\n      swap3\n      swap2\n      pop\n      pop\n      jump\t// out\n        /* \"#utility.yul\":2646:2764   */\n    tag_340:\n        /* \"#utility.yul\":2733:2757   */\n      tag_401\n        /* \"#utility.yul\":2751:2756   */\n      dup2\n        /* \"#utility.yul\":2733:2757   */\n      tag_334\n      jump\t// in\n    tag_401:\n        /* \"#utility.yul\":2728:2731   */\n      dup3\n        /* \"#utility.yul\":2721:2758   */\n      mstore\n        /* \"#utility.yul\":2646:2764   */\n      pop\n      pop\n      jump\t// out\n        /* \"#utility.yul\":2770:2992   */\n    tag_90:\n        /* \"#utility.yul\":2863:2867   */\n      0x00\n        /* \"#utility.yul\":2901:2903   */\n      0x20\n        /* \"#utility.yul\":2890:2899   */\n      dup3\n        /* \"#utility.yul\":2886:2904   */\n      add\n        /* \"#utility.yul\":2878:2904   */\n      swap1\n      pop\n        /* \"#utility.yul\":2914:2985   */\n      tag_403\n        /* \"#utility.yul\":2982:2983   */\n      0x00\n        /* \"#utility.yul\":2971:2980   */\n      dup4\n        /* \"#utility.yul\":2967:2984   */\n      add\n        /* \"#utility.yul\":2958:2964   */\n      dup5\n        /* \"#utility.yul\":2914:2985   */\n      tag_340\n      jump\t// in\n    tag_403:\n        /* \"#utility.yul\":2770:2992   */\n      swap3\n      swap2\n      pop\n      pop\n      jump\t// out\n        /* \"#utility.yul\":2998:3472   */\n    tag_107:\n        /* \"#utility.yul\":3066:3072   */\n      0x00\n        /* \"#utility.yul\":3074:3080   */\n      dup1\n        /* \"#utility.yul\":3123:3125   */\n      0x40\n        /* \"#utility.yul\":3111:3120   */\n      dup4\n        /* \"#utility.yul\":3102:3109   */\n      dup6\n        /* \"#utility.yul\":3098:3121   */\n      sub\n        /* \"#utility.yul\":3094:3126   */\n      slt\n        /* \"#utility.yul\":3091:3210   */\n      iszero\n      tag_405\n      jumpi\n        /* \"#utility.yul\":3129:3208   */\n      tag_406\n      tag_328\n      jump\t// in\n    tag_406:\n        /* \"#utility.yul\":3091:3210   */\n    tag_405:\n        /* \"#utility.yul\":3249:3250   */\n      0x00\n        /* \"#utility.yul\":3274:3327   */\n      tag_407\n        /* \"#utility.yul\":3319:3326   */\n      dup6\n        /* \"#utility.yul\":3310:3316   */\n      dup3\n        /* \"#utility.yul\":3299:3308   */\n      dup7\n        /* \"#utility.yul\":3295:3317   */\n      add\n        /* \"#utility.yul\":3274:3327   */\n      tag_336\n      jump\t// in\n    tag_407:\n        /* \"#utility.yul\":3264:3327   */\n      swap3\n      pop\n        /* \"#utility.yul\":3220:3337   */\n      pop\n        /* \"#utility.yul\":3376:3378   */\n      0x20\n        /* \"#utility.yul\":3402:3455   */\n      tag_408\n        /* \"#utility.yul\":3447:3454   */\n      dup6\n        /* \"#utility.yul\":3438:3444   */\n      dup3\n        /* \"#utility.yul\":3427:3436   */\n      dup7\n        /* \"#utility.yul\":3423:3445   */\n      add\n        /* \"#utility.yul\":3402:3455   */\n      tag_332\n      jump\t// in\n    tag_408:\n        /* \"#utility.yul\":3392:3455   */\n      swap2\n      pop\n        /* \"#utility.yul\":3347:3465   */\n      pop\n        /* \"#utility.yul\":2998:3472   */\n      swap3\n      pop\n      swap3\n      swap1\n      pop\n      jump\t// out\n        /* \"#utility.yul\":3478:3594   */\n    tag_341:\n        /* \"#utility.yul\":3548:3569   */\n      tag_410\n        /* \"#utility.yul\":3563:3568   */\n      dup2\n        /* \"#utility.yul\":3548:3569   */\n      tag_338\n      jump\t// in\n    tag_410:\n        /* \"#utility.yul\":3541:3546   */\n      dup2\n        /* \"#utility.yul\":3538:3570   */\n      eq\n        /* \"#utility.yul\":3528:3588   */\n      tag_411\n      jumpi\n        /* \"#utility.yul\":3584:3585   */\n      0x00\n        /* \"#utility.yul\":3581:3582   */\n      dup1\n        /* \"#utility.yul\":3574:3586   */\n      revert\n        /* \"#utility.yul\":3528:3588   */\n    tag_411:\n        /* \"#utility.yul\":3478:3594   */\n      pop\n      jump\t// out\n        /* \"#utility.yul\":3600:3733   */\n    tag_342:\n        /* \"#utility.yul\":3643:3648   */\n      0x00\n        /* \"#utility.yul\":3681:3687   */\n      dup2\n        /* \"#utility.yul\":3668:3688   */\n      calldataload\n        /* \"#utility.yul\":3659:3688   */\n      swap1\n      pop\n        /* \"#utility.yul\":3697:3727   */\n      tag_413\n        /* \"#utility.yul\":3721:3726   */\n      dup2\n        /* \"#utility.yul\":3697:3727   */\n      tag_341\n      jump\t// in\n    tag_413:\n        /* \"#utility.yul\":3600:3733   */\n      swap3\n      swap2\n      pop\n      pop\n      jump\t// out\n        /* \"#utility.yul\":3739:4201   */\n    tag_161:\n        /* \"#utility.yul\":3801:3807   */\n      0x00\n        /* \"#utility.yul\":3809:3815   */\n      dup1\n        /* \"#utility.yul\":3858:3860   */\n      0x40\n        /* \"#utility.yul\":3846:3855   */\n      dup4\n        /* \"#utility.yul\":3837:3844   */\n      dup6\n        /* \"#utility.yul\":3833:3856   */\n      sub\n        /* \"#utility.yul\":3829:3861   */\n      slt\n        /* \"#utility.yul\":3826:3945   */\n      iszero\n      tag_415\n      jumpi\n        /* \"#utility.yul\":3864:3943   */\n      tag_416\n      tag_328\n      jump\t// in\n    tag_416:\n        /* \"#utility.yul\":3826:3945   */\n    tag_415:\n        /* \"#utility.yul\":3984:3985   */\n      0x00\n        /* \"#utility.yul\":4009:4059   */\n      tag_417\n        /* \"#utility.yul\":4051:4058   */\n      dup6\n        /* \"#utility.yul\":4042:4048   */\n      dup3\n        /* \"#utility.yul\":4031:4040   */\n      dup7\n        /* \"#utility.yul\":4027:4049   */\n      add\n        /* \"#utility.yul\":4009:4059   */\n      tag_342\n      jump\t// in\n    tag_417:\n        /* \"#utility.yul\":3999:4059   */\n      swap3\n      pop\n        /* \"#utility.yul\":3955:4069   */\n      pop\n        /* \"#utility.yul\":4108:4110   */\n      0x20\n        /* \"#utility.yul\":4134:4184   */\n      tag_418\n        /* \"#utility.yul\":4176:4183   */\n      dup6\n        /* \"#utility.yul\":4167:4173   */\n      dup3\n        /* \"#utility.yul\":4156:4165   */\n      dup7\n        /* \"#utility.yul\":4152:4174   */\n      add\n        /* \"#utility.yul\":4134:4184   */\n      tag_342\n      jump\t// in\n    tag_418:\n        /* \"#utility.yul\":4124:4184   */\n      swap2\n      pop\n        /* \"#utility.yul\":4079:4194   */\n      pop\n        /* \"#utility.yul\":3739:4201   */\n      swap3\n      pop\n      swap3\n      swap1\n      pop\n      jump\t// out\n        /* \"#utility.yul\":4207:5410   */\n    tag_179:\n        /* \"#utility.yul\":4320:4326   */\n      0x00\n        /* \"#utility.yul\":4328:4334   */\n      dup1\n        /* \"#utility.yul\":4336:4342   */\n      0x00\n        /* \"#utility.yul\":4344:4350   */\n      dup1\n        /* \"#utility.yul\":4352:4358   */\n      0x00\n        /* \"#utility.yul\":4360:4366   */\n      dup1\n        /* \"#utility.yul\":4368:4374   */\n      0x00\n        /* \"#utility.yul\":4417:4420   */\n      0xe0\n        /* \"#utility.yul\":4405:4414   */\n      dup9\n        /* \"#utility.yul\":4396:4403   */\n      dup11\n        /* \"#utility.yul\":4392:4415   */\n      sub\n        /* \"#utility.yul\":4388:4421   */\n      slt\n        /* \"#utility.yul\":4385:4505   */\n      iszero\n      tag_420\n      jumpi\n        /* \"#utility.yul\":4424:4503   */\n      tag_421\n      tag_328\n      jump\t// in\n    tag_421:\n        /* \"#utility.yul\":4385:4505   */\n    tag_420:\n        /* \"#utility.yul\":4544:4545   */\n      0x00\n        /* \"#utility.yul\":4569:4622   */\n      tag_422\n        /* \"#utility.yul\":4614:4621   */\n      dup11\n        /* \"#utility.yul\":4605:4611   */\n      dup3\n        /* \"#utility.yul\":4594:4603   */\n      dup12\n        /* \"#utility.yul\":4590:4612   */\n      add\n        /* \"#utility.yul\":4569:4622   */\n      tag_336\n      jump\t// in\n    tag_422:\n        /* \"#utility.yul\":4559:4622   */\n      swap8\n      pop\n        /* \"#utility.yul\":4515:4632   */\n      pop\n        /* \"#utility.yul\":4671:4673   */\n      0x20\n        /* \"#utility.yul\":4697:4750   */\n      tag_423\n        /* \"#utility.yul\":4742:4749   */\n      dup11\n        /* \"#utility.yul\":4733:4739   */\n      dup3\n        /* \"#utility.yul\":4722:4731   */\n      dup12\n        /* \"#utility.yul\":4718:4740   */\n      add\n        /* \"#utility.yul\":4697:4750   */\n      tag_332\n      jump\t// in\n    tag_423:\n        /* \"#utility.yul\":4687:4750   */\n      swap7\n      pop\n        /* \"#utility.yul\":4642:4760   */\n      pop\n        /* \"#utility.yul\":4799:4801   */\n      0x40\n        /* \"#utility.yul\":4825:4878   */\n      tag_424\n        /* \"#utility.yul\":4870:4877   */\n      dup11\n        /* \"#utility.yul\":4861:4867   */\n      dup3\n        /* \"#utility.yul\":4850:4859   */\n      dup12\n        /* \"#utility.yul\":4846:4868   */\n      add\n        /* \"#utility.yul\":4825:4878   */\n      tag_332\n      jump\t// in\n    tag_424:\n        /* \"#utility.yul\":4815:4878   */\n      swap6\n      pop\n        /* \"#utility.yul\":4770:4888   */\n      pop\n        /* \"#utility.yul\":4927:4929   */\n      0x60\n        /* \"#utility.yul\":4953:5006   */\n      tag_425\n        /* \"#utility.yul\":4998:5005   */\n      dup11\n        /* \"#utility.yul\":4989:4995   */\n      dup3\n        /* \"#utility.yul\":4978:4987   */\n      dup12\n        /* \"#utility.yul\":4974:4996   */\n      add\n        /* \"#utility.yul\":4953:5006   */\n      tag_332\n      jump\t// in\n    tag_425:\n        /* \"#utility.yul\":4943:5006   */\n      swap5\n      pop\n        /* \"#utility.yul\":4898:5016   */\n      pop\n        /* \"#utility.yul\":5055:5058   */\n      0x80\n        /* \"#utility.yul\":5082:5135   */\n      tag_426\n        /* \"#utility.yul\":5127:5134   */\n      dup11\n        /* \"#utility.yul\":5118:5124   */\n      dup3\n        /* \"#utility.yul\":5107:5116   */\n      dup12\n        /* \"#utility.yul\":5103:5125   */\n      add\n        /* \"#utility.yul\":5082:5135   */\n      tag_332\n      jump\t// in\n    tag_426:\n        /* \"#utility.yul\":5072:5135   */\n      swap4\n      pop\n        /* \"#utility.yul\":5026:5145   */\n      pop\n        /* \"#utility.yul\":5184:5187   */\n      0xa0\n        /* \"#utility.yul\":5211:5264   */\n      tag_427\n        /* \"#utility.yul\":5256:5263   */\n      dup11\n        /* \"#utility.yul\":5247:5253   */\n      dup3\n        /* \"#utility.yul\":5236:5245   */\n      dup12\n        /* \"#utility.yul\":5232:5254   */\n      add\n        /* \"#utility.yul\":5211:5264   */\n      tag_332\n      jump\t// in\n    tag_427:\n        /* \"#utility.yul\":5201:5264   */\n      swap3\n      pop\n        /* \"#utility.yul\":5155:5274   */\n      pop\n        /* \"#utility.yul\":5313:5316   */\n      0xc0\n        /* \"#utility.yul\":5340:5393   */\n      tag_428\n        /* \"#utility.yul\":5385:5392   */\n      dup11\n        /* \"#utility.yul\":5376:5382   */\n      dup3\n        /* \"#utility.yul\":5365:5374   */\n      dup12\n        /* \"#utility.yul\":5361:5383   */\n      add\n        /* \"#utility.yul\":5340:5393   */\n      tag_332\n      jump\t// in\n    tag_428:\n        /* \"#utility.yul\":5330:5393   */\n      swap2\n      pop\n        /* \"#utility.yul\":5284:5403   */\n      pop\n        /* \"#utility.yul\":4207:5410   */\n      swap3\n      swap6\n      swap9\n      swap2\n      swap5\n      swap8\n      pop\n      swap3\n      swap6\n      pop\n      jump\t// out\n        /* \"#utility.yul\":5416:6035   */\n    tag_192:\n        /* \"#utility.yul\":5493:5499   */\n      0x00\n        /* \"#utility.yul\":5501:5507   */\n      dup1\n        /* \"#utility.yul\":5509:5515   */\n      0x00\n        /* \"#utility.yul\":5558:5560   */\n      0x60\n        /* \"#utility.yul\":5546:5555   */\n      dup5\n        /* \"#utility.yul\":5537:5544   */\n      dup7\n        /* \"#utility.yul\":5533:5556   */\n      sub\n        /* \"#utility.yul\":5529:5561   */\n      slt\n        /* \"#utility.yul\":5526:5645   */\n      iszero\n      tag_430\n      jumpi\n        /* \"#utility.yul\":5564:5643   */\n      tag_431\n      tag_328\n      jump\t// in\n    tag_431:\n        /* \"#utility.yul\":5526:5645   */\n    tag_430:\n        /* \"#utility.yul\":5684:5685   */\n      0x00\n        /* \"#utility.yul\":5709:5762   */\n      tag_432\n        /* \"#utility.yul\":5754:5761   */\n      dup7\n        /* \"#utility.yul\":5745:5751   */\n      dup3\n        /* \"#utility.yul\":5734:5743   */\n      dup8\n        /* \"#utility.yul\":5730:5752   */\n      add\n        /* \"#utility.yul\":5709:5762   */\n      tag_332\n      jump\t// in\n    tag_432:\n        /* \"#utility.yul\":5699:5762   */\n      swap4\n      pop\n        /* \"#utility.yul\":5655:5772   */\n      pop\n        /* \"#utility.yul\":5811:5813   */\n      0x20\n        /* \"#utility.yul\":5837:5890   */\n      tag_433\n        /* \"#utility.yul\":5882:5889   */\n      dup7\n        /* \"#utility.yul\":5873:5879   */\n      dup3\n        /* \"#utility.yul\":5862:5871   */\n      dup8\n        /* \"#utility.yul\":5858:5880   */\n      add\n        /* \"#utility.yul\":5837:5890   */\n      tag_332\n      jump\t// in\n    tag_433:\n        /* \"#utility.yul\":5827:5890   */\n      swap3\n      pop\n        /* \"#utility.yul\":5782:5900   */\n      pop\n        /* \"#utility.yul\":5939:5941   */\n      0x40\n        /* \"#utility.yul\":5965:6018   */\n      tag_434\n        /* \"#utility.yul\":6010:6017   */\n      dup7\n        /* \"#utility.yul\":6001:6007   */\n      dup3\n        /* \"#utility.yul\":5990:5999   */\n      dup8\n        /* \"#utility.yul\":5986:6008   */\n      add\n        /* \"#utility.yul\":5965:6018   */\n      tag_332\n      jump\t// in\n    tag_434:\n        /* \"#utility.yul\":5955:6018   */\n      swap2\n      pop\n        /* \"#utility.yul\":5910:6028   */\n      pop\n        /* \"#utility.yul\":5416:6035   */\n      swap3\n      pop\n      swap3\n      pop\n      swap3\n      jump\t// out\n        /* \"#utility.yul\":6041:6210   */\n    tag_343:\n        /* \"#utility.yul\":6125:6136   */\n      0x00\n        /* \"#utility.yul\":6159:6165   */\n      dup3\n        /* \"#utility.yul\":6154:6157   */\n      dup3\n        /* \"#utility.yul\":6147:6166   */\n      mstore\n        /* \"#utility.yul\":6199:6203   */\n      0x20\n        /* \"#utility.yul\":6194:6197   */\n      dup3\n        /* \"#utility.yul\":6190:6204   */\n      add\n        /* \"#utility.yul\":6175:6204   */\n      swap1\n      pop\n        /* \"#utility.yul\":6041:6210   */\n      swap3\n      swap2\n      pop\n      pop\n      jump\t// out\n        /* \"#utility.yul\":6216:6372   */\n    tag_344:\n        /* \"#utility.yul\":6356:6364   */\n      0x216f776e65720000000000000000000000000000000000000000000000000000\n        /* \"#utility.yul\":6352:6353   */\n      0x00\n        /* \"#utility.yul\":6344:6350   */\n      dup3\n        /* \"#utility.yul\":6340:6354   */\n      add\n        /* \"#utility.yul\":6333:6365   */\n      mstore\n        /* \"#utility.yul\":6216:6372   */\n      pop\n      jump\t// out\n        /* \"#utility.yul\":6378:6743   */\n    tag_345:\n        /* \"#utility.yul\":6520:6523   */\n      0x00\n        /* \"#utility.yul\":6541:6607   */\n      tag_438\n        /* \"#utility.yul\":6605:6606   */\n      0x06\n        /* \"#utility.yul\":6600:6603   */\n      dup4\n        /* \"#utility.yul\":6541:6607   */\n      tag_343\n      jump\t// in\n    tag_438:\n        /* \"#utility.yul\":6534:6607   */\n      swap2\n      pop\n        /* \"#utility.yul\":6616:6709   */\n      tag_439\n        /* \"#utility.yul\":6705:6708   */\n      dup3\n        /* \"#utility.yul\":6616:6709   */\n      tag_344\n      jump\t// in\n    tag_439:\n        /* \"#utility.yul\":6734:6736   */\n      0x20\n        /* \"#utility.yul\":6729:6732   */\n      dup3\n        /* \"#utility.yul\":6725:6737   */\n      add\n        /* \"#utility.yul\":6718:6737   */\n      swap1\n      pop\n        /* \"#utility.yul\":6378:6743   */\n      swap2\n      swap1\n      pop\n      jump\t// out\n        /* \"#utility.yul\":6749:7168   */\n    tag_198:\n        /* \"#utility.yul\":6915:6919   */\n      0x00\n        /* \"#utility.yul\":6953:6955   */\n      0x20\n        /* \"#utility.yul\":6942:6951   */\n      dup3\n        /* \"#utility.yul\":6938:6956   */\n      add\n        /* \"#utility.yul\":6930:6956   */\n      swap1\n      pop\n        /* \"#utility.yul\":7002:7011   */\n      dup2\n        /* \"#utility.yul\":6996:7000   */\n      dup2\n        /* \"#utility.yul\":6992:7012   */\n      sub\n        /* \"#utility.yul\":6988:6989   */\n      0x00\n        /* \"#utility.yul\":6977:6986   */\n      dup4\n        /* \"#utility.yul\":6973:6990   */\n      add\n        /* \"#utility.yul\":6966:7013   */\n      mstore\n        /* \"#utility.yul\":7030:7161   */\n      tag_441\n        /* \"#utility.yul\":7156:7160   */\n      dup2\n        /* \"#utility.yul\":7030:7161   */\n      tag_345\n      jump\t// in\n    tag_441:\n        /* \"#utility.yul\":7022:7161   */\n      swap1\n      pop\n        /* \"#utility.yul\":6749:7168   */\n      swap2\n      swap1\n      pop\n      jump\t// out\n        /* \"#utility.yul\":7174:7317   */\n    tag_346:\n        /* \"#utility.yul\":7231:7236   */\n      0x00\n        /* \"#utility.yul\":7262:7268   */\n      dup2\n        /* \"#utility.yul\":7256:7269   */\n      mload\n        /* \"#utility.yul\":7247:7269   */\n      swap1\n      pop\n        /* \"#utility.yul\":7278:7311   */\n      tag_443\n        /* \"#utility.yul\":7305:7310   */\n      dup2\n        /* \"#utility.yul\":7278:7311   */\n      tag_331\n      jump\t// in\n    tag_443:\n        /* \"#utility.yul\":7174:7317   */\n      swap3\n      swap2\n      pop\n      pop\n      jump\t// out\n        /* \"#utility.yul\":7323:7674   */\n    tag_209:\n        /* \"#utility.yul\":7393:7399   */\n      0x00\n        /* \"#utility.yul\":7442:7444   */\n      0x20\n        /* \"#utility.yul\":7430:7439   */\n      dup3\n        /* \"#utility.yul\":7421:7428   */\n      dup5\n        /* \"#utility.yul\":7417:7440   */\n      sub\n        /* \"#utility.yul\":7413:7445   */\n      slt\n        /* \"#utility.yul\":7410:7529   */\n      iszero\n      tag_445\n      jumpi\n        /* \"#utility.yul\":7448:7527   */\n      tag_446\n      tag_328\n      jump\t// in\n    tag_446:\n        /* \"#utility.yul\":7410:7529   */\n    tag_445:\n        /* \"#utility.yul\":7568:7569   */\n      0x00\n        /* \"#utility.yul\":7593:7657   */\n      tag_447\n        /* \"#utility.yul\":7649:7656   */\n      dup5\n        /* \"#utility.yul\":7640:7646   */\n      dup3\n        /* \"#utility.yul\":7629:7638   */\n      dup6\n        /* \"#utility.yul\":7625:7647   */\n      add\n        /* \"#utility.yul\":7593:7657   */\n      tag_346\n      jump\t// in\n    tag_447:\n        /* \"#utility.yul\":7583:7657   */\n      swap2\n      pop\n        /* \"#utility.yul\":7539:7667   */\n      pop\n        /* \"#utility.yul\":7323:7674   */\n      swap3\n      swap2\n      pop\n      pop\n      jump\t// out\n        /* \"#utility.yul\":7680:8012   */\n    tag_238:\n        /* \"#utility.yul\":7801:7805   */\n      0x00\n        /* \"#utility.yul\":7839:7841   */\n      0x40\n        /* \"#utility.yul\":7828:7837   */\n      dup3\n        /* \"#utility.yul\":7824:7842   */\n      add\n        /* \"#utility.yul\":7816:7842   */\n      swap1\n      pop\n        /* \"#utility.yul\":7852:7923   */\n      tag_449\n        /* \"#utility.yul\":7920:7921   */\n      0x00\n        /* \"#utility.yul\":7909:7918   */\n      dup4\n        /* \"#utility.yul\":7905:7922   */\n      add\n        /* \"#utility.yul\":7896:7902   */\n      dup6\n        /* \"#utility.yul\":7852:7923   */\n      tag_340\n      jump\t// in\n    tag_449:\n        /* \"#utility.yul\":7933:8005   */\n      tag_450\n        /* \"#utility.yul\":8001:8003   */\n      0x20\n        /* \"#utility.yul\":7990:7999   */\n      dup4\n        /* \"#utility.yul\":7986:8004   */\n      add\n        /* \"#utility.yul\":7977:7983   */\n      dup5\n        /* \"#utility.yul\":7933:8005   */\n      tag_337\n      jump\t// in\n    tag_450:\n        /* \"#utility.yul\":7680:8012   */\n      swap4\n      swap3\n      pop\n      pop\n      pop\n      jump\t// out\n        /* \"#utility.yul\":8018:8155   */\n    tag_347:\n        /* \"#utility.yul\":8072:8077   */\n      0x00\n        /* \"#utility.yul\":8103:8109   */\n      dup2\n        /* \"#utility.yul\":8097:8110   */\n      mload\n        /* \"#utility.yul\":8088:8110   */\n      swap1\n      pop\n        /* \"#utility.yul\":8119:8149   */\n      tag_452\n        /* \"#utility.yul\":8143:8148   */\n      dup2\n        /* \"#utility.yul\":8119:8149   */\n      tag_341\n      jump\t// in\n    tag_452:\n        /* \"#utility.yul\":8018:8155   */\n      swap3\n      swap2\n      pop\n      pop\n      jump\t// out\n        /* \"#utility.yul\":8161:8506   */\n    tag_242:\n        /* \"#utility.yul\":8228:8234   */\n      0x00\n        /* \"#utility.yul\":8277:8279   */\n      0x20\n        /* \"#utility.yul\":8265:8274   */\n      dup3\n        /* \"#utility.yul\":8256:8263   */\n      dup5\n        /* \"#utility.yul\":8252:8275   */\n      sub\n        /* \"#utility.yul\":8248:8280   */\n      slt\n        /* \"#utility.yul\":8245:8364   */\n      iszero\n      tag_454\n      jumpi\n        /* \"#utility.yul\":8283:8362   */\n      tag_455\n      tag_328\n      jump\t// in\n    tag_455:\n        /* \"#utility.yul\":8245:8364   */\n    tag_454:\n        /* \"#utility.yul\":8403:8404   */\n      0x00\n        /* \"#utility.yul\":8428:8489   */\n      tag_456\n        /* \"#utility.yul\":8481:8488   */\n      dup5\n        /* \"#utility.yul\":8472:8478   */\n      dup3\n        /* \"#utility.yul\":8461:8470   */\n      dup6\n        /* \"#utility.yul\":8457:8479   */\n      add\n        /* \"#utility.yul\":8428:8489   */\n      tag_347\n      jump\t// in\n    tag_456:\n        /* \"#utility.yul\":8418:8489   */\n      swap2\n      pop\n        /* \"#utility.yul\":8374:8499   */\n      pop\n        /* \"#utility.yul\":8161:8506   */\n      swap3\n      swap2\n      pop\n      pop\n      jump\t// out\n        /* \"#utility.yul\":8512:8671   */\n    tag_348:\n        /* \"#utility.yul\":8652:8663   */\n      0x6e6f74207374616b650000000000000000000000000000000000000000000000\n        /* \"#utility.yul\":8648:8649   */\n      0x00\n        /* \"#utility.yul\":8640:8646   */\n      dup3\n        /* \"#utility.yul\":8636:8650   */\n      add\n        /* \"#utility.yul\":8629:8664   */\n      mstore\n        /* \"#utility.yul\":8512:8671   */\n      pop\n      jump\t// out\n        /* \"#utility.yul\":8677:9042   */\n    tag_349:\n        /* \"#utility.yul\":8819:8822   */\n      0x00\n        /* \"#utility.yul\":8840:8906   */\n      tag_459\n        /* \"#utility.yul\":8904:8905   */\n      0x09\n        /* \"#utility.yul\":8899:8902   */\n      dup4\n        /* \"#utility.yul\":8840:8906   */\n      tag_343\n      jump\t// in\n    tag_459:\n        /* \"#utility.yul\":8833:8906   */\n      swap2\n      pop\n        /* \"#utility.yul\":8915:9008   */\n      tag_460\n        /* \"#utility.yul\":9004:9007   */\n      dup3\n        /* \"#utility.yul\":8915:9008   */\n      tag_348\n      jump\t// in\n    tag_460:\n        /* \"#utility.yul\":9033:9035   */\n      0x20\n        /* \"#utility.yul\":9028:9031   */\n      dup3\n        /* \"#utility.yul\":9024:9036   */\n      add\n        /* \"#utility.yul\":9017:9036   */\n      swap1\n      pop\n        /* \"#utility.yul\":8677:9042   */\n      swap2\n      swap1\n      pop\n      jump\t// out\n        /* \"#utility.yul\":9048:9467   */\n    tag_266:\n        /* \"#utility.yul\":9214:9218   */\n      0x00\n        /* \"#utility.yul\":9252:9254   */\n      0x20\n        /* \"#utility.yul\":9241:9250   */\n      dup3\n        /* \"#utility.yul\":9237:9255   */\n      add\n        /* \"#utility.yul\":9229:9255   */\n      swap1\n      pop\n        /* \"#utility.yul\":9301:9310   */\n      dup2\n        /* \"#utility.yul\":9295:9299   */\n      dup2\n        /* \"#utility.yul\":9291:9311   */\n      sub\n        /* \"#utility.yul\":9287:9288   */\n      0x00\n        /* \"#utility.yul\":9276:9285   */\n      dup4\n        /* \"#utility.yul\":9272:9289   */\n      add\n        /* \"#utility.yul\":9265:9312   */\n      mstore\n        /* \"#utility.yul\":9329:9460   */\n      tag_462\n        /* \"#utility.yul\":9455:9459   */\n      dup2\n        /* \"#utility.yul\":9329:9460   */\n      tag_349\n      jump\t// in\n    tag_462:\n        /* \"#utility.yul\":9321:9460   */\n      swap1\n      pop\n        /* \"#utility.yul\":9048:9467   */\n      swap2\n      swap1\n      pop\n      jump\t// out\n        /* \"#utility.yul\":9473:9631   */\n    tag_350:\n        /* \"#utility.yul\":9613:9623   */\n      0x6e65772069732030000000000000000000000000000000000000000000000000\n        /* \"#utility.yul\":9609:9610   */\n      0x00\n        /* \"#utility.yul\":9601:9607   */\n      dup3\n        /* \"#utility.yul\":9597:9611   */\n      add\n        /* \"#utility.yul\":9590:9624   */\n      mstore\n        /* \"#utility.yul\":9473:9631   */\n      pop\n      jump\t// out\n        /* \"#utility.yul\":9637:10002   */\n    tag_351:\n        /* \"#utility.yul\":9779:9782   */\n      0x00\n        /* \"#utility.yul\":9800:9866   */\n      tag_465\n        /* \"#utility.yul\":9864:9865   */\n      0x08\n        /* \"#utility.yul\":9859:9862   */\n      dup4\n        /* \"#utility.yul\":9800:9866   */\n      tag_343\n      jump\t// in\n    tag_465:\n        /* \"#utility.yul\":9793:9866   */\n      swap2\n      pop\n        /* \"#utility.yul\":9875:9968   */\n      tag_466\n        /* \"#utility.yul\":9964:9967   */\n      dup3\n        /* \"#utility.yul\":9875:9968   */\n      tag_350\n      jump\t// in\n    tag_466:\n        /* \"#utility.yul\":9993:9995   */\n      0x20\n        /* \"#utility.yul\":9988:9991   */\n      dup3\n        /* \"#utility.yul\":9984:9996   */\n      add\n        /* \"#utility.yul\":9977:9996   */\n      swap1\n      pop\n        /* \"#utility.yul\":9637:10002   */\n      swap2\n      swap1\n      pop\n      jump\t// out\n        /* \"#utility.yul\":10008:10427   */\n    tag_288:\n        /* \"#utility.yul\":10174:10178   */\n      0x00\n        /* \"#utility.yul\":10212:10214   */\n      0x20\n        /* \"#utility.yul\":10201:10210   */\n      dup3\n        /* \"#utility.yul\":10197:10215   */\n      add\n        /* \"#utility.yul\":10189:10215   */\n      swap1\n      pop\n        /* \"#utility.yul\":10261:10270   */\n      dup2\n        /* \"#utility.yul\":10255:10259   */\n      dup2\n        /* \"#utility.yul\":10251:10271   */\n      sub\n        /* \"#utility.yul\":10247:10248   */\n      0x00\n        /* \"#utility.yul\":10236:10245   */\n      dup4\n        /* \"#utility.yul\":10232:10249   */\n      add\n        /* \"#utility.yul\":10225:10272   */\n      mstore\n        /* \"#utility.yul\":10289:10420   */\n      tag_468\n        /* \"#utility.yul\":10415:10419   */\n      dup2\n        /* \"#utility.yul\":10289:10420   */\n      tag_351\n      jump\t// in\n    tag_468:\n        /* \"#utility.yul\":10281:10420   */\n      swap1\n      pop\n        /* \"#utility.yul\":10008:10427   */\n      swap2\n      swap1\n      pop\n      jump\t// out\n        /* \"#utility.yul\":10433:10592   */\n    tag_352:\n        /* \"#utility.yul\":10573:10584   */\n      0x6e6f742073746172740000000000000000000000000000000000000000000000\n        /* \"#utility.yul\":10569:10570   */\n      0x00\n        /* \"#utility.yul\":10561:10567   */\n      dup3\n        /* \"#utility.yul\":10557:10571   */\n      add\n        /* \"#utility.yul\":10550:10585   */\n      mstore\n        /* \"#utility.yul\":10433:10592   */\n      pop\n      jump\t// out\n        /* \"#utility.yul\":10598:10963   */\n    tag_353:\n        /* \"#utility.yul\":10740:10743   */\n      0x00\n        /* \"#utility.yul\":10761:10827   */\n      tag_471\n        /* \"#utility.yul\":10825:10826   */\n      0x09\n        /* \"#utility.yul\":10820:10823   */\n      dup4\n        /* \"#utility.yul\":10761:10827   */\n      tag_343\n      jump\t// in\n    tag_471:\n        /* \"#utility.yul\":10754:10827   */\n      swap2\n      pop\n        /* \"#utility.yul\":10836:10929   */\n      tag_472\n        /* \"#utility.yul\":10925:10928   */\n      dup3\n        /* \"#utility.yul\":10836:10929   */\n      tag_352\n      jump\t// in\n    tag_472:\n        /* \"#utility.yul\":10954:10956   */\n      0x20\n        /* \"#utility.yul\":10949:10952   */\n      dup3\n        /* \"#utility.yul\":10945:10957   */\n      add\n        /* \"#utility.yul\":10938:10957   */\n      swap1\n      pop\n        /* \"#utility.yul\":10598:10963   */\n      swap2\n      swap1\n      pop\n      jump\t// out\n        /* \"#utility.yul\":10969:11388   */\n    tag_292:\n        /* \"#utility.yul\":11135:11139   */\n      0x00\n        /* \"#utility.yul\":11173:11175   */\n      0x20\n        /* \"#utility.yul\":11162:11171   */\n      dup3\n        /* \"#utility.yul\":11158:11176   */\n      add\n        /* \"#utility.yul\":11150:11176   */\n      swap1\n      pop\n        /* \"#utility.yul\":11222:11231   */\n      dup2\n        /* \"#utility.yul\":11216:11220   */\n      dup2\n        /* \"#utility.yul\":11212:11232   */\n      sub\n        /* \"#utility.yul\":11208:11209   */\n      0x00\n        /* \"#utility.yul\":11197:11206   */\n      dup4\n        /* \"#utility.yul\":11193:11210   */\n      add\n        /* \"#utility.yul\":11186:11233   */\n      mstore\n        /* \"#utility.yul\":11250:11381   */\n      tag_474\n        /* \"#utility.yul\":11376:11380   */\n      dup2\n        /* \"#utility.yul\":11250:11381   */\n      tag_353\n      jump\t// in\n    tag_474:\n        /* \"#utility.yul\":11242:11381   */\n      swap1\n      pop\n        /* \"#utility.yul\":10969:11388   */\n      swap2\n      swap1\n      pop\n      jump\t// out\n        /* \"#utility.yul\":11394:11558   */\n    tag_354:\n        /* \"#utility.yul\":11534:11550   */\n      0x616c7265616479207374616b6559000000000000000000000000000000000000\n        /* \"#utility.yul\":11530:11531   */\n      0x00\n        /* \"#utility.yul\":11522:11528   */\n      dup3\n        /* \"#utility.yul\":11518:11532   */\n      add\n        /* \"#utility.yul\":11511:11551   */\n      mstore\n        /* \"#utility.yul\":11394:11558   */\n      pop\n      jump\t// out\n        /* \"#utility.yul\":11564:11930   */\n    tag_355:\n        /* \"#utility.yul\":11706:11709   */\n      0x00\n        /* \"#utility.yul\":11727:11794   */\n      tag_477\n        /* \"#utility.yul\":11791:11793   */\n      0x0e\n        /* \"#utility.yul\":11786:11789   */\n      dup4\n        /* \"#utility.yul\":11727:11794   */\n      tag_343\n      jump\t// in\n    tag_477:\n        /* \"#utility.yul\":11720:11794   */\n      swap2\n      pop\n        /* \"#utility.yul\":11803:11896   */\n      tag_478\n        /* \"#utility.yul\":11892:11895   */\n      dup3\n        /* \"#utility.yul\":11803:11896   */\n      tag_354\n      jump\t// in\n    tag_478:\n        /* \"#utility.yul\":11921:11923   */\n      0x20\n        /* \"#utility.yul\":11916:11919   */\n      dup3\n        /* \"#utility.yul\":11912:11924   */\n      add\n        /* \"#utility.yul\":11905:11924   */\n      swap1\n      pop\n        /* \"#utility.yul\":11564:11930   */\n      swap2\n      swap1\n      pop\n      jump\t// out\n        /* \"#utility.yul\":11936:12355   */\n    tag_295:\n        /* \"#utility.yul\":12102:12106   */\n      0x00\n        /* \"#utility.yul\":12140:12142   */\n      0x20\n        /* \"#utility.yul\":12129:12138   */\n      dup3\n        /* \"#utility.yul\":12125:12143   */\n      add\n        /* \"#utility.yul\":12117:12143   */\n      swap1\n      pop\n        /* \"#utility.yul\":12189:12198   */\n      dup2\n        /* \"#utility.yul\":12183:12187   */\n      dup2\n        /* \"#utility.yul\":12179:12199   */\n      sub\n        /* \"#utility.yul\":12175:12176   */\n      0x00\n        /* \"#utility.yul\":12164:12173   */\n      dup4\n        /* \"#utility.yul\":12160:12177   */\n      add\n        /* \"#utility.yul\":12153:12200   */\n      mstore\n        /* \"#utility.yul\":12217:12348   */\n      tag_480\n        /* \"#utility.yul\":12343:12347   */\n      dup2\n        /* \"#utility.yul\":12217:12348   */\n      tag_355\n      jump\t// in\n    tag_480:\n        /* \"#utility.yul\":12209:12348   */\n      swap1\n      pop\n        /* \"#utility.yul\":11936:12355   */\n      swap2\n      swap1\n      pop\n      jump\t// out\n        /* \"#utility.yul\":12361:12525   */\n    tag_356:\n        /* \"#utility.yul\":12501:12517   */\n      0x616c7265616479207374616b6542000000000000000000000000000000000000\n        /* \"#utility.yul\":12497:12498   */\n      0x00\n        /* \"#utility.yul\":12489:12495   */\n      dup3\n        /* \"#utility.yul\":12485:12499   */\n      add\n        /* \"#utility.yul\":12478:12518   */\n      mstore\n        /* \"#utility.yul\":12361:12525   */\n      pop\n      jump\t// out\n        /* \"#utility.yul\":12531:12897   */\n    tag_357:\n        /* \"#utility.yul\":12673:12676   */\n      0x00\n        /* \"#utility.yul\":12694:12761   */\n      tag_483\n        /* \"#utility.yul\":12758:12760   */\n      0x0e\n        /* \"#utility.yul\":12753:12756   */\n      dup4\n        /* \"#utility.yul\":12694:12761   */\n      tag_343\n      jump\t// in\n    tag_483:\n        /* \"#utility.yul\":12687:12761   */\n      swap2\n      pop\n        /* \"#utility.yul\":12770:12863   */\n      tag_484\n        /* \"#utility.yul\":12859:12862   */\n      dup3\n        /* \"#utility.yul\":12770:12863   */\n      tag_356\n      jump\t// in\n    tag_484:\n        /* \"#utility.yul\":12888:12890   */\n      0x20\n        /* \"#utility.yul\":12883:12886   */\n      dup3\n        /* \"#utility.yul\":12879:12891   */\n      add\n        /* \"#utility.yul\":12872:12891   */\n      swap1\n      pop\n        /* \"#utility.yul\":12531:12897   */\n      swap2\n      swap1\n      pop\n      jump\t// out\n        /* \"#utility.yul\":12903:13322   */\n    tag_298:\n        /* \"#utility.yul\":13069:13073   */\n      0x00\n        /* \"#utility.yul\":13107:13109   */\n      0x20\n        /* \"#utility.yul\":13096:13105   */\n      dup3\n        /* \"#utility.yul\":13092:13110   */\n      add\n        /* \"#utility.yul\":13084:13110   */\n      swap1\n      pop\n        /* \"#utility.yul\":13156:13165   */\n      dup2\n        /* \"#utility.yul\":13150:13154   */\n      dup2\n        /* \"#utility.yul\":13146:13166   */\n      sub\n        /* \"#utility.yul\":13142:13143   */\n      0x00\n        /* \"#utility.yul\":13131:13140   */\n      dup4\n        /* \"#utility.yul\":13127:13144   */\n      add\n        /* \"#utility.yul\":13120:13167   */\n      mstore\n        /* \"#utility.yul\":13184:13315   */\n      tag_486\n        /* \"#utility.yul\":13310:13314   */\n      dup2\n        /* \"#utility.yul\":13184:13315   */\n      tag_357\n      jump\t// in\n    tag_486:\n        /* \"#utility.yul\":13176:13315   */\n      swap1\n      pop\n        /* \"#utility.yul\":12903:13322   */\n      swap2\n      swap1\n      pop\n      jump\t// out\n        /* \"#utility.yul\":13328:13490   */\n    tag_358:\n        /* \"#utility.yul\":13468:13482   */\n      0x7a65726f2059616d6f756e740000000000000000000000000000000000000000\n        /* \"#utility.yul\":13464:13465   */\n      0x00\n        /* \"#utility.yul\":13456:13462   */\n      dup3\n        /* \"#utility.yul\":13452:13466   */\n      add\n        /* \"#utility.yul\":13445:13483   */\n      mstore\n        /* \"#utility.yul\":13328:13490   */\n      pop\n      jump\t// out\n        /* \"#utility.yul\":13496:13862   */\n    tag_359:\n        /* \"#utility.yul\":13638:13641   */\n      0x00\n        /* \"#utility.yul\":13659:13726   */\n      tag_489\n        /* \"#utility.yul\":13723:13725   */\n      0x0c\n        /* \"#utility.yul\":13718:13721   */\n      dup4\n        /* \"#utility.yul\":13659:13726   */\n      tag_343\n      jump\t// in\n    tag_489:\n        /* \"#utility.yul\":13652:13726   */\n      swap2\n      pop\n        /* \"#utility.yul\":13735:13828   */\n      tag_490\n        /* \"#utility.yul\":13824:13827   */\n      dup3\n        /* \"#utility.yul\":13735:13828   */\n      tag_358\n      jump\t// in\n    tag_490:\n        /* \"#utility.yul\":13853:13855   */\n      0x20\n        /* \"#utility.yul\":13848:13851   */\n      dup3\n        /* \"#utility.yul\":13844:13856   */\n      add\n        /* \"#utility.yul\":13837:13856   */\n      swap1\n      pop\n        /* \"#utility.yul\":13496:13862   */\n      swap2\n      swap1\n      pop\n      jump\t// out\n        /* \"#utility.yul\":13868:14287   */\n    tag_301:\n        /* \"#utility.yul\":14034:14038   */\n      0x00\n        /* \"#utility.yul\":14072:14074   */\n      0x20\n        /* \"#utility.yul\":14061:14070   */\n      dup3\n        /* \"#utility.yul\":14057:14075   */\n      add\n        /* \"#utility.yul\":14049:14075   */\n      swap1\n      pop\n        /* \"#utility.yul\":14121:14130   */\n      dup2\n        /* \"#utility.yul\":14115:14119   */\n      dup2\n        /* \"#utility.yul\":14111:14131   */\n      sub\n        /* \"#utility.yul\":14107:14108   */\n      0x00\n        /* \"#utility.yul\":14096:14105   */\n      dup4\n        /* \"#utility.yul\":14092:14109   */\n      add\n        /* \"#utility.yul\":14085:14132   */\n      mstore\n        /* \"#utility.yul\":14149:14280   */\n      tag_492\n        /* \"#utility.yul\":14275:14279   */\n      dup2\n        /* \"#utility.yul\":14149:14280   */\n      tag_359\n      jump\t// in\n    tag_492:\n        /* \"#utility.yul\":14141:14280   */\n      swap1\n      pop\n        /* \"#utility.yul\":13868:14287   */\n      swap2\n      swap1\n      pop\n      jump\t// out\n        /* \"#utility.yul\":14293:14455   */\n    tag_360:\n        /* \"#utility.yul\":14433:14447   */\n      0x7a65726f2042616d6f756e740000000000000000000000000000000000000000\n        /* \"#utility.yul\":14429:14430   */\n      0x00\n        /* \"#utility.yul\":14421:14427   */\n      dup3\n        /* \"#utility.yul\":14417:14431   */\n      add\n        /* \"#utility.yul\":14410:14448   */\n      mstore\n        /* \"#utility.yul\":14293:14455   */\n      pop\n      jump\t// out\n        /* \"#utility.yul\":14461:14827   */\n    tag_361:\n        /* \"#utility.yul\":14603:14606   */\n      0x00\n        /* \"#utility.yul\":14624:14691   */\n      tag_495\n        /* \"#utility.yul\":14688:14690   */\n      0x0c\n        /* \"#utility.yul\":14683:14686   */\n      dup4\n        /* \"#utility.yul\":14624:14691   */\n      tag_343\n      jump\t// in\n    tag_495:\n        /* \"#utility.yul\":14617:14691   */\n      swap2\n      pop\n        /* \"#utility.yul\":14700:14793   */\n      tag_496\n        /* \"#utility.yul\":14789:14792   */\n      dup3\n        /* \"#utility.yul\":14700:14793   */\n      tag_360\n      jump\t// in\n    tag_496:\n        /* \"#utility.yul\":14818:14820   */\n      0x20\n        /* \"#utility.yul\":14813:14816   */\n      dup3\n        /* \"#utility.yul\":14809:14821   */\n      add\n        /* \"#utility.yul\":14802:14821   */\n      swap1\n      pop\n        /* \"#utility.yul\":14461:14827   */\n      swap2\n      swap1\n      pop\n      jump\t// out\n        /* \"#utility.yul\":14833:15252   */\n    tag_304:\n        /* \"#utility.yul\":14999:15003   */\n      0x00\n        /* \"#utility.yul\":15037:15039   */\n      0x20\n        /* \"#utility.yul\":15026:15035   */\n      dup3\n        /* \"#utility.yul\":15022:15040   */\n      add\n        /* \"#utility.yul\":15014:15040   */\n      swap1\n      pop\n        /* \"#utility.yul\":15086:15095   */\n      dup2\n        /* \"#utility.yul\":15080:15084   */\n      dup2\n        /* \"#utility.yul\":15076:15096   */\n      sub\n        /* \"#utility.yul\":15072:15073   */\n      0x00\n        /* \"#utility.yul\":15061:15070   */\n      dup4\n        /* \"#utility.yul\":15057:15074   */\n      add\n        /* \"#utility.yul\":15050:15097   */\n      mstore\n        /* \"#utility.yul\":15114:15245   */\n      tag_498\n        /* \"#utility.yul\":15240:15244   */\n      dup2\n        /* \"#utility.yul\":15114:15245   */\n      tag_361\n      jump\t// in\n    tag_498:\n        /* \"#utility.yul\":15106:15245   */\n      swap1\n      pop\n        /* \"#utility.yul\":14833:15252   */\n      swap2\n      swap1\n      pop\n      jump\t// out\n        /* \"#utility.yul\":15258:15422   */\n    tag_362:\n        /* \"#utility.yul\":15398:15414   */\n      0x6e6f742072696768742074696d65000000000000000000000000000000000000\n        /* \"#utility.yul\":15394:15395   */\n      0x00\n        /* \"#utility.yul\":15386:15392   */\n      dup3\n        /* \"#utility.yul\":15382:15396   */\n      add\n        /* \"#utility.yul\":15375:15415   */\n      mstore\n        /* \"#utility.yul\":15258:15422   */\n      pop\n      jump\t// out\n        /* \"#utility.yul\":15428:15794   */\n    tag_363:\n        /* \"#utility.yul\":15570:15573   */\n      0x00\n        /* \"#utility.yul\":15591:15658   */\n      tag_501\n        /* \"#utility.yul\":15655:15657   */\n      0x0e\n        /* \"#utility.yul\":15650:15653   */\n      dup4\n        /* \"#utility.yul\":15591:15658   */\n      tag_343\n      jump\t// in\n    tag_501:\n        /* \"#utility.yul\":15584:15658   */\n      swap2\n      pop\n        /* \"#utility.yul\":15667:15760   */\n      tag_502\n        /* \"#utility.yul\":15756:15759   */\n      dup3\n        /* \"#utility.yul\":15667:15760   */\n      tag_362\n      jump\t// in\n    tag_502:\n        /* \"#utility.yul\":15785:15787   */\n      0x20\n        /* \"#utility.yul\":15780:15783   */\n      dup3\n        /* \"#utility.yul\":15776:15788   */\n      add\n        /* \"#utility.yul\":15769:15788   */\n      swap1\n      pop\n        /* \"#utility.yul\":15428:15794   */\n      swap2\n      swap1\n      pop\n      jump\t// out\n        /* \"#utility.yul\":15800:16219   */\n    tag_307:\n        /* \"#utility.yul\":15966:15970   */\n      0x00\n        /* \"#utility.yul\":16004:16006   */\n      0x20\n        /* \"#utility.yul\":15993:16002   */\n      dup3\n        /* \"#utility.yul\":15989:16007   */\n      add\n        /* \"#utility.yul\":15981:16007   */\n      swap1\n      pop\n        /* \"#utility.yul\":16053:16062   */\n      dup2\n        /* \"#utility.yul\":16047:16051   */\n      dup2\n        /* \"#utility.yul\":16043:16063   */\n      sub\n        /* \"#utility.yul\":16039:16040   */\n      0x00\n        /* \"#utility.yul\":16028:16037   */\n      dup4\n        /* \"#utility.yul\":16024:16041   */\n      add\n        /* \"#utility.yul\":16017:16064   */\n      mstore\n        /* \"#utility.yul\":16081:16212   */\n      tag_504\n        /* \"#utility.yul\":16207:16211   */\n      dup2\n        /* \"#utility.yul\":16081:16212   */\n      tag_363\n      jump\t// in\n    tag_504:\n        /* \"#utility.yul\":16073:16212   */\n      swap1\n      pop\n        /* \"#utility.yul\":15800:16219   */\n      swap2\n      swap1\n      pop\n      jump\t// out\n        /* \"#utility.yul\":16225:16667   */\n    tag_309:\n        /* \"#utility.yul\":16374:16378   */\n      0x00\n        /* \"#utility.yul\":16412:16414   */\n      0x60\n        /* \"#utility.yul\":16401:16410   */\n      dup3\n        /* \"#utility.yul\":16397:16415   */\n      add\n        /* \"#utility.yul\":16389:16415   */\n      swap1\n      pop\n        /* \"#utility.yul\":16425:16496   */\n      tag_506\n        /* \"#utility.yul\":16493:16494   */\n      0x00\n        /* \"#utility.yul\":16482:16491   */\n      dup4\n        /* \"#utility.yul\":16478:16495   */\n      add\n        /* \"#utility.yul\":16469:16475   */\n      dup7\n        /* \"#utility.yul\":16425:16496   */\n      tag_340\n      jump\t// in\n    tag_506:\n        /* \"#utility.yul\":16506:16578   */\n      tag_507\n        /* \"#utility.yul\":16574:16576   */\n      0x20\n        /* \"#utility.yul\":16563:16572   */\n      dup4\n        /* \"#utility.yul\":16559:16577   */\n      add\n        /* \"#utility.yul\":16550:16556   */\n      dup6\n        /* \"#utility.yul\":16506:16578   */\n      tag_340\n      jump\t// in\n    tag_507:\n        /* \"#utility.yul\":16588:16660   */\n      tag_508\n        /* \"#utility.yul\":16656:16658   */\n      0x40\n        /* \"#utility.yul\":16645:16654   */\n      dup4\n        /* \"#utility.yul\":16641:16659   */\n      add\n        /* \"#utility.yul\":16632:16638   */\n      dup5\n        /* \"#utility.yul\":16588:16660   */\n      tag_337\n      jump\t// in\n    tag_508:\n        /* \"#utility.yul\":16225:16667   */\n      swap5\n      swap4\n      pop\n      pop\n      pop\n      pop\n      jump\t// out\n        /* \"#utility.yul\":16673:16853   */\n    tag_364:\n        /* \"#utility.yul\":16721:16798   */\n      0x4e487b7100000000000000000000000000000000000000000000000000000000\n        /* \"#utility.yul\":16718:16719   */\n      0x00\n        /* \"#utility.yul\":16711:16799   */\n      mstore\n        /* \"#utility.yul\":16818:16822   */\n      0x11\n        /* \"#utility.yul\":16815:16816   */\n      0x04\n        /* \"#utility.yul\":16808:16823   */\n      mstore\n        /* \"#utility.yul\":16842:16846   */\n      0x24\n        /* \"#utility.yul\":16839:16840   */\n      0x00\n        /* \"#utility.yul\":16832:16847   */\n      revert\n        /* \"#utility.yul\":16859:17050   */\n    tag_326:\n        /* \"#utility.yul\":16899:16902   */\n      0x00\n        /* \"#utility.yul\":16918:16938   */\n      tag_511\n        /* \"#utility.yul\":16936:16937   */\n      dup3\n        /* \"#utility.yul\":16918:16938   */\n      tag_330\n      jump\t// in\n    tag_511:\n        /* \"#utility.yul\":16913:16938   */\n      swap2\n      pop\n        /* \"#utility.yul\":16952:16972   */\n      tag_512\n        /* \"#utility.yul\":16970:16971   */\n      dup4\n        /* \"#utility.yul\":16952:16972   */\n      tag_330\n      jump\t// in\n    tag_512:\n        /* \"#utility.yul\":16947:16972   */\n      swap3\n      pop\n        /* \"#utility.yul\":16995:16996   */\n      dup3\n        /* \"#utility.yul\":16992:16993   */\n      dup3\n        /* \"#utility.yul\":16988:16997   */\n      add\n        /* \"#utility.yul\":16981:16997   */\n      swap1\n      pop\n        /* \"#utility.yul\":17016:17019   */\n      dup1\n        /* \"#utility.yul\":17013:17014   */\n      dup3\n        /* \"#utility.yul\":17010:17020   */\n      gt\n        /* \"#utility.yul\":17007:17043   */\n      iszero\n      tag_513\n      jumpi\n        /* \"#utility.yul\":17023:17041   */\n      tag_514\n      tag_364\n      jump\t// in\n    tag_514:\n        /* \"#utility.yul\":17007:17043   */\n    tag_513:\n        /* \"#utility.yul\":16859:17050   */\n      swap3\n      swap2\n      pop\n      pop\n      jump\t// out\n\n    auxdata: 0xa264697066735822122075a504f9af1a258384c2be10d935d9482268057316479c59bfa9e1d1b589824364736f6c63430008130033\n}\n",
				"bytecode": {
					"linkReferences": {},
					"object": "608060405273f1f8e132f0a3f720b3b204d728a8ff316b182258600160006101000a81548173ffffffffffffffffffffffffffffffffffffffff021916908373ffffffffffffffffffffffffffffffffffffffff160217905550736b6b2d8166d13b58155b8d454f239ae3691257a6600260006101000a81548173ffffffffffffffffffffffffffffffffffffffff021916908373ffffffffffffffffffffffffffffffffffffffff16021790555073b1bf470a9720f8d2e49512dbbccf7180e4ac4679600360006101000a81548173ffffffffffffffffffffffffffffffffffffffff021916908373ffffffffffffffffffffffffffffffffffffffff1602179055507355d398326f99059ff775485246999027b3197955600460006101000a81548173ffffffffffffffffffffffffffffffffffffffff021916908373ffffffffffffffffffffffffffffffffffffffff16021790555073d114d4436f714de79f0cb7eb3db28d873e60602e600560006101000a81548173ffffffffffffffffffffffffffffffffffffffff021916908373ffffffffffffffffffffffffffffffffffffffff16021790555073641dc64bfbcdc419bcc7afb0ce02d244155e1ac6600660006101000a81548173ffffffffffffffffffffffffffffffffffffffff021916908373ffffffffffffffffffffffffffffffffffffffff16021790555062278d006007556276a70060085562c5c1006009556103e8600a556001600e60006101000a81548160ff0219169083151502179055506001600e60016101000a81548160ff02191690831515021790555034801561025f57600080fd5b506000339050806000806101000a81548173ffffffffffffffffffffffffffffffffffffffff021916908373ffffffffffffffffffffffffffffffffffffffff1602179055508073ffffffffffffffffffffffffffffffffffffffff16600073ffffffffffffffffffffffffffffffffffffffff167f8be0079c531659141344cd1fd0a4f28419497f9722a3daafe3b4186f6b6457e060405160405180910390a350612f5d806103106000396000f3fe608060405234801561001057600080fd5b50600436106102525760003560e01c80637929e29f11610146578063a6f9a1d5116100c3578063e53595ed11610087578063e53595ed1461071f578063e61ee2181461073d578063e650d29314610759578063f2fde38b14610777578063f3ef99bc14610793578063f7a278bc146107b157610252565b8063a6f9a1d514610655578063b3c2eac114610685578063b59c6e0e146106a1578063bef4533c146106bf578063dd8158e0146106ef57610252565b80638da5cb5b1161010a5780638da5cb5b1461059d57806391f6963c146105bb5780639805fa74146105d7578063a041e17214610607578063a6b14d5a1461063757610252565b80637929e29f146104e55780637a1a959b146105155780637d4cbd5714610533578063853e03e51461054f5780638ace0d0c1461056d57610252565b806328c4333e116101d457806369f65dc21161019857806369f65dc2146104555780636b8de0bf146104715780636d37b3821461048f57806371ddda57146104ab5780637535b3e5146104c957610252565b806328c4333e146103d75780632eae667d146103f35780633375d043146104115780633ccfd60b1461042f578063460199b31461043957610252565b806316c259e11161021b57806316c259e11461030d578063188838771461033d5780631896b2c41461035b5780631f54dbfe1461038b578063264edc1d146103a757610252565b80626cd200146102575780630356c98f146102735780630397d458146102a35780630c280444146102bf578063115a972e146102dd575b600080fd5b610271600480360381019061026c9190612720565b6107cd565b005b61028d600480360381019061028891906127ab565b6108bb565b60405161029a91906127e7565b60405180910390f35b6102bd60048036038101906102b891906127ab565b6108d3565b005b6102c76109fb565b6040516102d491906127e7565b60405180910390f35b6102f760048036038101906102f291906127ab565b610a98565b604051610304919061281d565b60405180910390f35b610327600480360381019061032291906127ab565b610ab8565b60405161033491906127e7565b60405180910390f35b610345610ad0565b60405161035291906127e7565b60405180910390f35b610375600480360381019061037091906127ab565b610ad6565b60405161038291906127e7565b60405180910390f35b6103a560048036038101906103a091906127ab565b610aee565b005b6103c160048036038101906103bc91906127ab565b610c16565b6040516103ce9190612847565b60405180910390f35b6103f160048036038101906103ec91906127ab565b610c49565b005b6103fb610d71565b60405161040891906127e7565b60405180910390f35b610419610d77565b6040516104269190612847565b60405180910390f35b610437610d9d565b005b610453600480360381019061044e91906127ab565b610eca565b005b61046f600480360381019061046a9190612862565b610ff2565b005b610479611159565b6040516104869190612847565b60405180910390f35b6104a960048036038101906104a491906127ab565b61117f565b005b6104b36112a7565b6040516104c09190612847565b60405180910390f35b6104e360048036038101906104de91906127ab565b6112cd565b005b6104ff60048036038101906104fa91906127ab565b6113f5565b60405161050c91906127e7565b60405180910390f35b61051d61140d565b60405161052a9190612847565b60405180910390f35b61054d600480360381019061054891906127ab565b611433565b005b6105576115be565b60405161056491906127e7565b60405180910390f35b610587600480360381019061058291906127ab565b6115c4565b60405161059491906127e7565b60405180910390f35b6105a56115dc565b6040516105b29190612847565b60405180910390f35b6105d560048036038101906105d09190612720565b611605565b005b6105f160048036038101906105ec91906127ab565b611968565b6040516105fe91906127e7565b60405180910390f35b610621600480360381019061061c91906127ab565b611980565b60405161062e91906127e7565b60405180910390f35b61063f611998565b60405161064c91906127e7565b60405180910390f35b61066f600480360381019061066a91906127ab565b61199e565b60405161067c91906127e7565b60405180910390f35b61069f600480360381019061069a91906128ce565b6119b6565b005b6106a9611ad2565b6040516106b69190612847565b60405180910390f35b6106d960048036038101906106d491906127ab565b611af8565b6040516106e691906127e7565b60405180910390f35b610709600480360381019061070491906127ab565b611b10565b60405161071691906127e7565b60405180910390f35b610727611b28565b6040516107349190612847565b60405180910390f35b6107576004803603810190610752919061290e565b611b4e565b005b610761611dd3565b60405161076e919061281d565b60405180910390f35b610791600480360381019061078c91906127ab565b611de6565b005b61079b611ff6565b6040516107a8919061281d565b60405180910390f35b6107cb60048036038101906107c691906129b0565b612009565b005b3373ffffffffffffffffffffffffffffffffffffffff1660008054906101000a900473ffffffffffffffffffffffffffffffffffffffff1673ffffffffffffffffffffffffffffffffffffffff16148061087257503373ffffffffffffffffffffffffffffffffffffffff1660008054906101000a900473ffffffffffffffffffffffffffffffffffffffff1673ffffffffffffffffffffffffffffffffffffffff16145b6108b1576040517f08c379a00000000000000000000000000000000000000000000000000000000081526004016108a890612a60565b60405180910390fd5b80600a8190555050565b60156020528060005260406000206000915090505481565b3373ffffffffffffffffffffffffffffffffffffffff1660008054906101000a900473ffffffffffffffffffffffffffffffffffffffff1673ffffffffffffffffffffffffffffffffffffffff16148061097857503373ffffffffffffffffffffffffffffffffffffffff1660008054906101000a900473ffffffffffffffffffffffffffffffffffffffff1673ffffffffffffffffffffffffffffffffffffffff16145b6109b7576040517f08c379a00000000000000000000000000000000000000000000000000000000081526004016109ae90612a60565b60405180910390fd5b80600260006101000a81548173ffffffffffffffffffffffffffffffffffffffff021916908373ffffffffffffffffffffffffffffffffffffffff16021790555050565b600080600360009054906101000a900473ffffffffffffffffffffffffffffffffffffffff1673ffffffffffffffffffffffffffffffffffffffff16630c2804446040518163ffffffff1660e01b8152600401602060405180830381865afa158015610a6b573d6000803e3d6000fd5b505050506040513d601f19601f82011682018060405250810190610a8f9190612a95565b90508091505090565b60176020528060005260406000206000915054906101000a900460ff1681565b60136020528060005260406000206000915090505481565b60095481565b600d6020528060005260406000206000915090505481565b3373ffffffffffffffffffffffffffffffffffffffff1660008054906101000a900473ffffffffffffffffffffffffffffffffffffffff1673ffffffffffffffffffffffffffffffffffffffff161480610b9357503373ffffffffffffffffffffffffffffffffffffffff1660008054906101000a900473ffffffffffffffffffffffffffffffffffffffff1673ffffffffffffffffffffffffffffffffffffffff16145b610bd2576040517f08c379a0000000000000000000000000000000000000000000000000000000008152600401610bc990612a60565b60405180910390fd5b80600460006101000a81548173ffffffffffffffffffffffffffffffffffffffff021916908373ffffffffffffffffffffffffffffffffffffffff16021790555050565b600b6020528060005260406000206000915054906101000a900473ffffffffffffffffffffffffffffffffffffffff1681565b3373ffffffffffffffffffffffffffffffffffffffff1660008054906101000a900473ffffffffffffffffffffffffffffffffffffffff1673ffffffffffffffffffffffffffffffffffffffff161480610cee57503373ffffffffffffffffffffffffffffffffffffffff1660008054906101000a900473ffffffffffffffffffffffffffffffffffffffff1673ffffffffffffffffffffffffffffffffffffffff16145b610d2d576040517f08c379a0000000000000000000000000000000000000000000000000000000008152600401610d2490612a60565b60405180910390fd5b80600560006101000a81548173ffffffffffffffffffffffffffffffffffffffff021916908373ffffffffffffffffffffffffffffffffffffffff16021790555050565b600a5481565b600560009054906101000a900473ffffffffffffffffffffffffffffffffffffffff1681565b3373ffffffffffffffffffffffffffffffffffffffff1660008054906101000a900473ffffffffffffffffffffffffffffffffffffffff1673ffffffffffffffffffffffffffffffffffffffff161480610e4257503373ffffffffffffffffffffffffffffffffffffffff1660008054906101000a900473ffffffffffffffffffffffffffffffffffffffff1673ffffffffffffffffffffffffffffffffffffffff16145b610e81576040517f08c379a0000000000000000000000000000000000000000000000000000000008152600401610e7890612a60565b60405180910390fd5b3373ffffffffffffffffffffffffffffffffffffffff166108fc479081150290604051600060405180830381858888f19350505050158015610ec7573d6000803e3d6000fd5b50565b3373ffffffffffffffffffffffffffffffffffffffff1660008054906101000a900473ffffffffffffffffffffffffffffffffffffffff1673ffffffffffffffffffffffffffffffffffffffff161480610f6f57503373ffffffffffffffffffffffffffffffffffffffff1660008054906101000a900473ffffffffffffffffffffffffffffffffffffffff1673ffffffffffffffffffffffffffffffffffffffff16145b610fae576040517f08c379a0000000000000000000000000000000000000000000000000000000008152600401610fa590612a60565b60405180910390fd5b80600660006101000a81548173ffffffffffffffffffffffffffffffffffffffff021916908373ffffffffffffffffffffffffffffffffffffffff16021790555050565b3373ffffffffffffffffffffffffffffffffffffffff1660008054906101000a900473ffffffffffffffffffffffffffffffffffffffff1673ffffffffffffffffffffffffffffffffffffffff16148061109757503373ffffffffffffffffffffffffffffffffffffffff1660008054906101000a900473ffffffffffffffffffffffffffffffffffffffff1673ffffffffffffffffffffffffffffffffffffffff16145b6110d6576040517f08c379a00000000000000000000000000000000000000000000000000000000081526004016110cd90612a60565b60405180910390fd5b8173ffffffffffffffffffffffffffffffffffffffff1663a9059cbb33836040518363ffffffff1660e01b8152600401611111929190612ac2565b6020604051808303816000875af1158015611130573d6000803e3d6000fd5b505050506040513d601f19601f820116820180604052508101906111549190612b00565b505050565b600660009054906101000a900473ffffffffffffffffffffffffffffffffffffffff1681565b3373ffffffffffffffffffffffffffffffffffffffff1660008054906101000a900473ffffffffffffffffffffffffffffffffffffffff1673ffffffffffffffffffffffffffffffffffffffff16148061122457503373ffffffffffffffffffffffffffffffffffffffff1660008054906101000a900473ffffffffffffffffffffffffffffffffffffffff1673ffffffffffffffffffffffffffffffffffffffff16145b611263576040517f08c379a000000000000000000000000000000000000000000000000000000000815260040161125a90612a60565b60405180910390fd5b80600360006101000a81548173ffffffffffffffffffffffffffffffffffffffff021916908373ffffffffffffffffffffffffffffffffffffffff16021790555050565b600260009054906101000a900473ffffffffffffffffffffffffffffffffffffffff1681565b3373ffffffffffffffffffffffffffffffffffffffff1660008054906101000a900473ffffffffffffffffffffffffffffffffffffffff1673ffffffffffffffffffffffffffffffffffffffff16148061137257503373ffffffffffffffffffffffffffffffffffffffff1660008054906101000a900473ffffffffffffffffffffffffffffffffffffffff1673ffffffffffffffffffffffffffffffffffffffff16145b6113b1576040517f08c379a00000000000000000000000000000000000000000000000000000000081526004016113a890612a60565b60405180910390fd5b80600160006101000a81548173ffffffffffffffffffffffffffffffffffffffff021916908373ffffffffffffffffffffffffffffffffffffffff16021790555050565b60146020528060005260406000206000915090505481565b600460009054906101000a900473ffffffffffffffffffffffffffffffffffffffff1681565b3373ffffffffffffffffffffffffffffffffffffffff1660008054906101000a900473ffffffffffffffffffffffffffffffffffffffff1673ffffffffffffffffffffffffffffffffffffffff1614806114d857503373ffffffffffffffffffffffffffffffffffffffff1660008054906101000a900473ffffffffffffffffffffffffffffffffffffffff1673ffffffffffffffffffffffffffffffffffffffff16145b611517576040517f08c379a000000000000000000000000000000000000000000000000000000000815260040161150e90612a60565b60405180910390fd5b601760008273ffffffffffffffffffffffffffffffffffffffff1673ffffffffffffffffffffffffffffffffffffffff16815260200190815260200160002060009054906101000a900460ff1615601760008373ffffffffffffffffffffffffffffffffffffffff1673ffffffffffffffffffffffffffffffffffffffff16815260200190815260200160002060006101000a81548160ff02191690831515021790555050565b60085481565b60116020528060005260406000206000915090505481565b60008060009054906101000a900473ffffffffffffffffffffffffffffffffffffffff16905090565b3373ffffffffffffffffffffffffffffffffffffffff1660008054906101000a900473ffffffffffffffffffffffffffffffffffffffff1673ffffffffffffffffffffffffffffffffffffffff1614806116aa57503373ffffffffffffffffffffffffffffffffffffffff1660008054906101000a900473ffffffffffffffffffffffffffffffffffffffff1673ffffffffffffffffffffffffffffffffffffffff16145b6116e9576040517f08c379a00000000000000000000000000000000000000000000000000000000081526004016116e090612a60565b60405180910390fd5b6000600f60003373ffffffffffffffffffffffffffffffffffffffff1673ffffffffffffffffffffffffffffffffffffffff168152602001908152602001600020541161176b576040517f08c379a000000000000000000000000000000000000000000000000000000000815260040161176290612b79565b60405180910390fd5b600260009054906101000a900473ffffffffffffffffffffffffffffffffffffffff1673ffffffffffffffffffffffffffffffffffffffff1663a9059cbb33836040518363ffffffff1660e01b81526004016117c8929190612ac2565b6020604051808303816000875af11580156117e7573d6000803e3d6000fd5b505050506040513d601f19601f8201168201806040525081019061180b9190612b00565b506000600f60003373ffffffffffffffffffffffffffffffffffffffff1673ffffffffffffffffffffffffffffffffffffffff168152602001908152602001600020819055506000601360003373ffffffffffffffffffffffffffffffffffffffff1673ffffffffffffffffffffffffffffffffffffffff168152602001908152602001600020819055506000601560003373ffffffffffffffffffffffffffffffffffffffff1673ffffffffffffffffffffffffffffffffffffffff168152602001908152602001600020819055506000601260003373ffffffffffffffffffffffffffffffffffffffff1673ffffffffffffffffffffffffffffffffffffffff168152602001908152602001600020819055506000601660003373ffffffffffffffffffffffffffffffffffffffff1673ffffffffffffffffffffffffffffffffffffffff1681526020019081526020016000208190555050565b600f6020528060005260406000206000915090505481565b60126020528060005260406000206000915090505481565b60075481565b60106020528060005260406000206000915090505481565b3373ffffffffffffffffffffffffffffffffffffffff1660008054906101000a900473ffffffffffffffffffffffffffffffffffffffff1673ffffffffffffffffffffffffffffffffffffffff161480611a5b57503373ffffffffffffffffffffffffffffffffffffffff1660008054906101000a900473ffffffffffffffffffffffffffffffffffffffff1673ffffffffffffffffffffffffffffffffffffffff16145b611a9a576040517f08c379a0000000000000000000000000000000000000000000000000000000008152600401611a9190612a60565b60405180910390fd5b81600e60006101000a81548160ff02191690831515021790555080600e60016101000a81548160ff0219169083151502179055505050565b600160009054906101000a900473ffffffffffffffffffffffffffffffffffffffff1681565b60166020528060005260406000206000915090505481565b600c6020528060005260406000206000915090505481565b600360009054906101000a900473ffffffffffffffffffffffffffffffffffffffff1681565b3373ffffffffffffffffffffffffffffffffffffffff1660008054906101000a900473ffffffffffffffffffffffffffffffffffffffff1673ffffffffffffffffffffffffffffffffffffffff161480611bf357503373ffffffffffffffffffffffffffffffffffffffff1660008054906101000a900473ffffffffffffffffffffffffffffffffffffffff1673ffffffffffffffffffffffffffffffffffffffff16145b611c32576040517f08c379a0000000000000000000000000000000000000000000000000000000008152600401611c2990612a60565b60405180910390fd5b85600f60008973ffffffffffffffffffffffffffffffffffffffff1673ffffffffffffffffffffffffffffffffffffffff1681526020019081526020016000208190555084601260008973ffffffffffffffffffffffffffffffffffffffff1673ffffffffffffffffffffffffffffffffffffffff1681526020019081526020016000208190555083601360008973ffffffffffffffffffffffffffffffffffffffff1673ffffffffffffffffffffffffffffffffffffffff1681526020019081526020016000208190555082601460008973ffffffffffffffffffffffffffffffffffffffff1673ffffffffffffffffffffffffffffffffffffffff1681526020019081526020016000208190555081601660008973ffffffffffffffffffffffffffffffffffffffff1673ffffffffffffffffffffffffffffffffffffffff1681526020019081526020016000208190555080601560008973ffffffffffffffffffffffffffffffffffffffff1673ffffffffffffffffffffffffffffffffffffffff1681526020019081526020016000208190555050505050505050565b600e60019054906101000a900460ff1681565b3373ffffffffffffffffffffffffffffffffffffffff1660008054906101000a900473ffffffffffffffffffffffffffffffffffffffff1673ffffffffffffffffffffffffffffffffffffffff161480611e8b57503373ffffffffffffffffffffffffffffffffffffffff1660008054906101000a900473ffffffffffffffffffffffffffffffffffffffff1673ffffffffffffffffffffffffffffffffffffffff16145b611eca576040517f08c379a0000000000000000000000000000000000000000000000000000000008152600401611ec190612a60565b60405180910390fd5b600073ffffffffffffffffffffffffffffffffffffffff168173ffffffffffffffffffffffffffffffffffffffff1603611f39576040517f08c379a0000000000000000000000000000000000000000000000000000000008152600401611f3090612be5565b60405180910390fd5b8073ffffffffffffffffffffffffffffffffffffffff1660008054906101000a900473ffffffffffffffffffffffffffffffffffffffff1673ffffffffffffffffffffffffffffffffffffffff167f8be0079c531659141344cd1fd0a4f28419497f9722a3daafe3b4186f6b6457e060405160405180910390a3806000806101000a81548173ffffffffffffffffffffffffffffffffffffffff021916908373ffffffffffffffffffffffffffffffffffffffff16021790555050565b600e60009054906101000a900460ff1681565b600e60009054906101000a900460ff16612058576040517f08c379a000000000000000000000000000000000000000000000000000000000815260040161204f90612c51565b60405180910390fd5b6000601060003373ffffffffffffffffffffffffffffffffffffffff1673ffffffffffffffffffffffffffffffffffffffff16815260200190815260200160002054146120da576040517f08c379a00000000000000000000000000000000000000000000000000000000081526004016120d190612cbd565b60405180910390fd5b6000601160003373ffffffffffffffffffffffffffffffffffffffff1673ffffffffffffffffffffffffffffffffffffffff168152602001908152602001600020541461215c576040517f08c379a000000000000000000000000000000000000000000000000000000000815260040161215390612d29565b60405180910390fd5b6000831161219f576040517f08c379a000000000000000000000000000000000000000000000000000000000815260040161219690612d95565b60405180910390fd5b600082116121e2576040517f08c379a00000000000000000000000000000000000000000000000000000000081526004016121d990612e01565b60405180910390fd5b6009548114612226576040517f08c379a000000000000000000000000000000000000000000000000000000000815260040161221d90612e6d565b60405180910390fd5b600060019050600460009054906101000a900473ffffffffffffffffffffffffffffffffffffffff1673ffffffffffffffffffffffffffffffffffffffff166323b872dd3330876040518463ffffffff1660e01b815260040161228b93929190612e8d565b6020604051808303816000875af11580156122aa573d6000803e3d6000fd5b505050506040513d601f19601f820116820180604052508101906122ce9190612b00565b50600560009054906101000a900473ffffffffffffffffffffffffffffffffffffffff1673ffffffffffffffffffffffffffffffffffffffff166323b872dd3330866040518463ffffffff1660e01b815260040161232e93929190612e8d565b6020604051808303816000875af115801561234d573d6000803e3d6000fd5b505050506040513d601f19601f820116820180604052508101906123719190612b00565b50600460009054906101000a900473ffffffffffffffffffffffffffffffffffffffff1673ffffffffffffffffffffffffffffffffffffffff1663a9059cbb600660009054906101000a900473ffffffffffffffffffffffffffffffffffffffff16866040518363ffffffff1660e01b81526004016123f1929190612ac2565b6020604051808303816000875af1158015612410573d6000803e3d6000fd5b505050506040513d601f19601f820116820180604052508101906124349190612b00565b50600560009054906101000a900473ffffffffffffffffffffffffffffffffffffffff1673ffffffffffffffffffffffffffffffffffffffff1663a9059cbb600660009054906101000a900473ffffffffffffffffffffffffffffffffffffffff16856040518363ffffffff1660e01b81526004016124b4929190612ac2565b6020604051808303816000875af11580156124d3573d6000803e3d6000fd5b505050506040513d601f19601f820116820180604052508101906124f79190612b00565b5083601060003373ffffffffffffffffffffffffffffffffffffffff1673ffffffffffffffffffffffffffffffffffffffff1681526020019081526020016000208190555082601160003373ffffffffffffffffffffffffffffffffffffffff1673ffffffffffffffffffffffffffffffffffffffff1681526020019081526020016000208190555042601360003373ffffffffffffffffffffffffffffffffffffffff1673ffffffffffffffffffffffffffffffffffffffff1681526020019081526020016000208190555042601460003373ffffffffffffffffffffffffffffffffffffffff1673ffffffffffffffffffffffffffffffffffffffff1681526020019081526020016000208190555081426126149190612ef3565b601560003373ffffffffffffffffffffffffffffffffffffffff1673ffffffffffffffffffffffffffffffffffffffff1681526020019081526020016000208190555081601260003373ffffffffffffffffffffffffffffffffffffffff1673ffffffffffffffffffffffffffffffffffffffff1681526020019081526020016000208190555080601660003373ffffffffffffffffffffffffffffffffffffffff1673ffffffffffffffffffffffffffffffffffffffff1681526020019081526020016000208190555050505050565b600080fd5b6000819050919050565b6126fd816126ea565b811461270857600080fd5b50565b60008135905061271a816126f4565b92915050565b600060208284031215612736576127356126e5565b5b60006127448482850161270b565b91505092915050565b600073ffffffffffffffffffffffffffffffffffffffff82169050919050565b60006127788261274d565b9050919050565b6127888161276d565b811461279357600080fd5b50565b6000813590506127a58161277f565b92915050565b6000602082840312156127c1576127c06126e5565b5b60006127cf84828501612796565b91505092915050565b6127e1816126ea565b82525050565b60006020820190506127fc60008301846127d8565b92915050565b60008115159050919050565b61281781612802565b82525050565b6000602082019050612832600083018461280e565b92915050565b6128418161276d565b82525050565b600060208201905061285c6000830184612838565b92915050565b60008060408385031215612879576128786126e5565b5b600061288785828601612796565b92505060206128988582860161270b565b9150509250929050565b6128ab81612802565b81146128b657600080fd5b50565b6000813590506128c8816128a2565b92915050565b600080604083850312156128e5576128e46126e5565b5b60006128f3858286016128b9565b9250506020612904858286016128b9565b9150509250929050565b600080600080600080600060e0888a03121561292d5761292c6126e5565b5b600061293b8a828b01612796565b975050602061294c8a828b0161270b565b965050604061295d8a828b0161270b565b955050606061296e8a828b0161270b565b945050608061297f8a828b0161270b565b93505060a06129908a828b0161270b565b92505060c06129a18a828b0161270b565b91505092959891949750929550565b6000806000606084860312156129c9576129c86126e5565b5b60006129d78682870161270b565b93505060206129e88682870161270b565b92505060406129f98682870161270b565b9150509250925092565b600082825260208201905092915050565b7f216f776e65720000000000000000000000000000000000000000000000000000600082015250565b6000612a4a600683612a03565b9150612a5582612a14565b602082019050919050565b60006020820190508181036000830152612a7981612a3d565b9050919050565b600081519050612a8f816126f4565b92915050565b600060208284031215612aab57612aaa6126e5565b5b6000612ab984828501612a80565b91505092915050565b6000604082019050612ad76000830185612838565b612ae460208301846127d8565b9392505050565b600081519050612afa816128a2565b92915050565b600060208284031215612b1657612b156126e5565b5b6000612b2484828501612aeb565b91505092915050565b7f6e6f74207374616b650000000000000000000000000000000000000000000000600082015250565b6000612b63600983612a03565b9150612b6e82612b2d565b602082019050919050565b60006020820190508181036000830152612b9281612b56565b9050919050565b7f6e65772069732030000000000000000000000000000000000000000000000000600082015250565b6000612bcf600883612a03565b9150612bda82612b99565b602082019050919050565b60006020820190508181036000830152612bfe81612bc2565b9050919050565b7f6e6f742073746172740000000000000000000000000000000000000000000000600082015250565b6000612c3b600983612a03565b9150612c4682612c05565b602082019050919050565b60006020820190508181036000830152612c6a81612c2e565b9050919050565b7f616c7265616479207374616b6559000000000000000000000000000000000000600082015250565b6000612ca7600e83612a03565b9150612cb282612c71565b602082019050919050565b60006020820190508181036000830152612cd681612c9a565b9050919050565b7f616c7265616479207374616b6542000000000000000000000000000000000000600082015250565b6000612d13600e83612a03565b9150612d1e82612cdd565b602082019050919050565b60006020820190508181036000830152612d4281612d06565b9050919050565b7f7a65726f2059616d6f756e740000000000000000000000000000000000000000600082015250565b6000612d7f600c83612a03565b9150612d8a82612d49565b602082019050919050565b60006020820190508181036000830152612dae81612d72565b9050919050565b7f7a65726f2042616d6f756e740000000000000000000000000000000000000000600082015250565b6000612deb600c83612a03565b9150612df682612db5565b602082019050919050565b60006020820190508181036000830152612e1a81612dde565b9050919050565b7f6e6f742072696768742074696d65000000000000000000000000000000000000600082015250565b6000612e57600e83612a03565b9150612e6282612e21565b602082019050919050565b60006020820190508181036000830152612e8681612e4a565b9050919050565b6000606082019050612ea26000830186612838565b612eaf6020830185612838565b612ebc60408301846127d8565b949350505050565b7f4e487b7100000000000000000000000000000000000000000000000000000000600052601160045260246000fd5b6000612efe826126ea565b9150612f09836126ea565b9250828201905080821115612f2157612f20612ec4565b5b9291505056fea264697066735822122075a504f9af1a258384c2be10d935d9482268057316479c59bfa9e1d1b589824364736f6c63430008130033",
					"opcodes": "PUSH1 0x80 PUSH1 0x40 MSTORE PUSH20 0xF1F8E132F0A3F720B3B204D728A8FF316B182258 PUSH1 0x1 PUSH1 0x0 PUSH2 0x100 EXP DUP2 SLOAD DUP2 PUSH20 0xFFFFFFFFFFFFFFFFFFFFFFFFFFFFFFFFFFFFFFFF MUL NOT AND SWAP1 DUP4 PUSH20 0xFFFFFFFFFFFFFFFFFFFFFFFFFFFFFFFFFFFFFFFF AND MUL OR SWAP1 SSTORE POP PUSH20 0x6B6B2D8166D13B58155B8D454F239AE3691257A6 PUSH1 0x2 PUSH1 0x0 PUSH2 0x100 EXP DUP2 SLOAD DUP2 PUSH20 0xFFFFFFFFFFFFFFFFFFFFFFFFFFFFFFFFFFFFFFFF MUL NOT AND SWAP1 DUP4 PUSH20 0xFFFFFFFFFFFFFFFFFFFFFFFFFFFFFFFFFFFFFFFF AND MUL OR SWAP1 SSTORE POP PUSH20 0xB1BF470A9720F8D2E49512DBBCCF7180E4AC4679 PUSH1 0x3 PUSH1 0x0 PUSH2 0x100 EXP DUP2 SLOAD DUP2 PUSH20 0xFFFFFFFFFFFFFFFFFFFFFFFFFFFFFFFFFFFFFFFF MUL NOT AND SWAP1 DUP4 PUSH20 0xFFFFFFFFFFFFFFFFFFFFFFFFFFFFFFFFFFFFFFFF AND MUL OR SWAP1 SSTORE POP PUSH20 0x55D398326F99059FF775485246999027B3197955 PUSH1 0x4 PUSH1 0x0 PUSH2 0x100 EXP DUP2 SLOAD DUP2 PUSH20 0xFFFFFFFFFFFFFFFFFFFFFFFFFFFFFFFFFFFFFFFF MUL NOT AND SWAP1 DUP4 PUSH20 0xFFFFFFFFFFFFFFFFFFFFFFFFFFFFFFFFFFFFFFFF AND MUL OR SWAP1 SSTORE POP PUSH20 0xD114D4436F714DE79F0CB7EB3DB28D873E60602E PUSH1 0x5 PUSH1 0x0 PUSH2 0x100 EXP DUP2 SLOAD DUP2 PUSH20 0xFFFFFFFFFFFFFFFFFFFFFFFFFFFFFFFFFFFFFFFF MUL NOT AND SWAP1 DUP4 PUSH20 0xFFFFFFFFFFFFFFFFFFFFFFFFFFFFFFFFFFFFFFFF AND MUL OR SWAP1 SSTORE POP PUSH20 0x641DC64BFBCDC419BCC7AFB0CE02D244155E1AC6 PUSH1 0x6 PUSH1 0x0 PUSH2 0x100 EXP DUP2 SLOAD DUP2 PUSH20 0xFFFFFFFFFFFFFFFFFFFFFFFFFFFFFFFFFFFFFFFF MUL NOT AND SWAP1 DUP4 PUSH20 0xFFFFFFFFFFFFFFFFFFFFFFFFFFFFFFFFFFFFFFFF AND MUL OR SWAP1 SSTORE POP PUSH3 0x278D00 PUSH1 0x7 SSTORE PUSH3 0x76A700 PUSH1 0x8 SSTORE PUSH3 0xC5C100 PUSH1 0x9 SSTORE PUSH2 0x3E8 PUSH1 0xA SSTORE PUSH1 0x1 PUSH1 0xE PUSH1 0x0 PUSH2 0x100 EXP DUP2 SLOAD DUP2 PUSH1 0xFF MUL NOT AND SWAP1 DUP4 ISZERO ISZERO MUL OR SWAP1 SSTORE POP PUSH1 0x1 PUSH1 0xE PUSH1 0x1 PUSH2 0x100 EXP DUP2 SLOAD DUP2 PUSH1 0xFF MUL NOT AND SWAP1 DUP4 ISZERO ISZERO MUL OR SWAP1 SSTORE POP CALLVALUE DUP1 ISZERO PUSH2 0x25F JUMPI PUSH1 0x0 DUP1 REVERT JUMPDEST POP PUSH1 0x0 CALLER SWAP1 POP DUP1 PUSH1 0x0 DUP1 PUSH2 0x100 EXP DUP2 SLOAD DUP2 PUSH20 0xFFFFFFFFFFFFFFFFFFFFFFFFFFFFFFFFFFFFFFFF MUL NOT AND SWAP1 DUP4 PUSH20 0xFFFFFFFFFFFFFFFFFFFFFFFFFFFFFFFFFFFFFFFF AND MUL OR SWAP1 SSTORE POP DUP1 PUSH20 0xFFFFFFFFFFFFFFFFFFFFFFFFFFFFFFFFFFFFFFFF AND PUSH1 0x0 PUSH20 0xFFFFFFFFFFFFFFFFFFFFFFFFFFFFFFFFFFFFFFFF AND PUSH32 0x8BE0079C531659141344CD1FD0A4F28419497F9722A3DAAFE3B4186F6B6457E0 PUSH1 0x40 MLOAD PUSH1 0x40 MLOAD DUP1 SWAP2 SUB SWAP1 LOG3 POP PUSH2 0x2F5D DUP1 PUSH2 0x310 PUSH1 0x0 CODECOPY PUSH1 0x0 RETURN INVALID PUSH1 0x80 PUSH1 0x40 MSTORE CALLVALUE DUP1 ISZERO PUSH2 0x10 JUMPI PUSH1 0x0 DUP1 REVERT JUMPDEST POP PUSH1 0x4 CALLDATASIZE LT PUSH2 0x252 JUMPI PUSH1 0x0 CALLDATALOAD PUSH1 0xE0 SHR DUP1 PUSH4 0x7929E29F GT PUSH2 0x146 JUMPI DUP1 PUSH4 0xA6F9A1D5 GT PUSH2 0xC3 JUMPI DUP1 PUSH4 0xE53595ED GT PUSH2 0x87 JUMPI DUP1 PUSH4 0xE53595ED EQ PUSH2 0x71F JUMPI DUP1 PUSH4 0xE61EE218 EQ PUSH2 0x73D JUMPI DUP1 PUSH4 0xE650D293 EQ PUSH2 0x759 JUMPI DUP1 PUSH4 0xF2FDE38B EQ PUSH2 0x777 JUMPI DUP1 PUSH4 0xF3EF99BC EQ PUSH2 0x793 JUMPI DUP1 PUSH4 0xF7A278BC EQ PUSH2 0x7B1 JUMPI PUSH2 0x252 JUMP JUMPDEST DUP1 PUSH4 0xA6F9A1D5 EQ PUSH2 0x655 JUMPI DUP1 PUSH4 0xB3C2EAC1 EQ PUSH2 0x685 JUMPI DUP1 PUSH4 0xB59C6E0E EQ PUSH2 0x6A1 JUMPI DUP1 PUSH4 0xBEF4533C EQ PUSH2 0x6BF JUMPI DUP1 PUSH4 0xDD8158E0 EQ PUSH2 0x6EF JUMPI PUSH2 0x252 JUMP JUMPDEST DUP1 PUSH4 0x8DA5CB5B GT PUSH2 0x10A JUMPI DUP1 PUSH4 0x8DA5CB5B EQ PUSH2 0x59D JUMPI DUP1 PUSH4 0x91F6963C EQ PUSH2 0x5BB JUMPI DUP1 PUSH4 0x9805FA74 EQ PUSH2 0x5D7 JUMPI DUP1 PUSH4 0xA041E172 EQ PUSH2 0x607 JUMPI DUP1 PUSH4 0xA6B14D5A EQ PUSH2 0x637 JUMPI PUSH2 0x252 JUMP JUMPDEST DUP1 PUSH4 0x7929E29F EQ PUSH2 0x4E5 JUMPI DUP1 PUSH4 0x7A1A959B EQ PUSH2 0x515 JUMPI DUP1 PUSH4 0x7D4CBD57 EQ PUSH2 0x533 JUMPI DUP1 PUSH4 0x853E03E5 EQ PUSH2 0x54F JUMPI DUP1 PUSH4 0x8ACE0D0C EQ PUSH2 0x56D JUMPI PUSH2 0x252 JUMP JUMPDEST DUP1 PUSH4 0x28C4333E GT PUSH2 0x1D4 JUMPI DUP1 PUSH4 0x69F65DC2 GT PUSH2 0x198 JUMPI DUP1 PUSH4 0x69F65DC2 EQ PUSH2 0x455 JUMPI DUP1 PUSH4 0x6B8DE0BF EQ PUSH2 0x471 JUMPI DUP1 PUSH4 0x6D37B382 EQ PUSH2 0x48F JUMPI DUP1 PUSH4 0x71DDDA57 EQ PUSH2 0x4AB JUMPI DUP1 PUSH4 0x7535B3E5 EQ PUSH2 0x4C9 JUMPI PUSH2 0x252 JUMP JUMPDEST DUP1 PUSH4 0x28C4333E EQ PUSH2 0x3D7 JUMPI DUP1 PUSH4 0x2EAE667D EQ PUSH2 0x3F3 JUMPI DUP1 PUSH4 0x3375D043 EQ PUSH2 0x411 JUMPI DUP1 PUSH4 0x3CCFD60B EQ PUSH2 0x42F JUMPI DUP1 PUSH4 0x460199B3 EQ PUSH2 0x439 JUMPI PUSH2 0x252 JUMP JUMPDEST DUP1 PUSH4 0x16C259E1 GT PUSH2 0x21B JUMPI DUP1 PUSH4 0x16C259E1 EQ PUSH2 0x30D JUMPI DUP1 PUSH4 0x18883877 EQ PUSH2 0x33D JUMPI DUP1 PUSH4 0x1896B2C4 EQ PUSH2 0x35B JUMPI DUP1 PUSH4 0x1F54DBFE EQ PUSH2 0x38B JUMPI DUP1 PUSH4 0x264EDC1D EQ PUSH2 0x3A7 JUMPI PUSH2 0x252 JUMP JUMPDEST DUP1 PUSH3 0x6CD200 EQ PUSH2 0x257 JUMPI DUP1 PUSH4 0x356C98F EQ PUSH2 0x273 JUMPI DUP1 PUSH4 0x397D458 EQ PUSH2 0x2A3 JUMPI DUP1 PUSH4 0xC280444 EQ PUSH2 0x2BF JUMPI DUP1 PUSH4 0x115A972E EQ PUSH2 0x2DD JUMPI JUMPDEST PUSH1 0x0 DUP1 REVERT JUMPDEST PUSH2 0x271 PUSH1 0x4 DUP1 CALLDATASIZE SUB DUP2 ADD SWAP1 PUSH2 0x26C SWAP2 SWAP1 PUSH2 0x2720 JUMP JUMPDEST PUSH2 0x7CD JUMP JUMPDEST STOP JUMPDEST PUSH2 0x28D PUSH1 0x4 DUP1 CALLDATASIZE SUB DUP2 ADD SWAP1 PUSH2 0x288 SWAP2 SWAP1 PUSH2 0x27AB JUMP JUMPDEST PUSH2 0x8BB JUMP JUMPDEST PUSH1 0x40 MLOAD PUSH2 0x29A SWAP2 SWAP1 PUSH2 0x27E7 JUMP JUMPDEST PUSH1 0x40 MLOAD DUP1 SWAP2 SUB SWAP1 RETURN JUMPDEST PUSH2 0x2BD PUSH1 0x4 DUP1 CALLDATASIZE SUB DUP2 ADD SWAP1 PUSH2 0x2B8 SWAP2 SWAP1 PUSH2 0x27AB JUMP JUMPDEST PUSH2 0x8D3 JUMP JUMPDEST STOP JUMPDEST PUSH2 0x2C7 PUSH2 0x9FB JUMP JUMPDEST PUSH1 0x40 MLOAD PUSH2 0x2D4 SWAP2 SWAP1 PUSH2 0x27E7 JUMP JUMPDEST PUSH1 0x40 MLOAD DUP1 SWAP2 SUB SWAP1 RETURN JUMPDEST PUSH2 0x2F7 PUSH1 0x4 DUP1 CALLDATASIZE SUB DUP2 ADD SWAP1 PUSH2 0x2F2 SWAP2 SWAP1 PUSH2 0x27AB JUMP JUMPDEST PUSH2 0xA98 JUMP JUMPDEST PUSH1 0x40 MLOAD PUSH2 0x304 SWAP2 SWAP1 PUSH2 0x281D JUMP JUMPDEST PUSH1 0x40 MLOAD DUP1 SWAP2 SUB SWAP1 RETURN JUMPDEST PUSH2 0x327 PUSH1 0x4 DUP1 CALLDATASIZE SUB DUP2 ADD SWAP1 PUSH2 0x322 SWAP2 SWAP1 PUSH2 0x27AB JUMP JUMPDEST PUSH2 0xAB8 JUMP JUMPDEST PUSH1 0x40 MLOAD PUSH2 0x334 SWAP2 SWAP1 PUSH2 0x27E7 JUMP JUMPDEST PUSH1 0x40 MLOAD DUP1 SWAP2 SUB SWAP1 RETURN JUMPDEST PUSH2 0x345 PUSH2 0xAD0 JUMP JUMPDEST PUSH1 0x40 MLOAD PUSH2 0x352 SWAP2 SWAP1 PUSH2 0x27E7 JUMP JUMPDEST PUSH1 0x40 MLOAD DUP1 SWAP2 SUB SWAP1 RETURN JUMPDEST PUSH2 0x375 PUSH1 0x4 DUP1 CALLDATASIZE SUB DUP2 ADD SWAP1 PUSH2 0x370 SWAP2 SWAP1 PUSH2 0x27AB JUMP JUMPDEST PUSH2 0xAD6 JUMP JUMPDEST PUSH1 0x40 MLOAD PUSH2 0x382 SWAP2 SWAP1 PUSH2 0x27E7 JUMP JUMPDEST PUSH1 0x40 MLOAD DUP1 SWAP2 SUB SWAP1 RETURN JUMPDEST PUSH2 0x3A5 PUSH1 0x4 DUP1 CALLDATASIZE SUB DUP2 ADD SWAP1 PUSH2 0x3A0 SWAP2 SWAP1 PUSH2 0x27AB JUMP JUMPDEST PUSH2 0xAEE JUMP JUMPDEST STOP JUMPDEST PUSH2 0x3C1 PUSH1 0x4 DUP1 CALLDATASIZE SUB DUP2 ADD SWAP1 PUSH2 0x3BC SWAP2 SWAP1 PUSH2 0x27AB JUMP JUMPDEST PUSH2 0xC16 JUMP JUMPDEST PUSH1 0x40 MLOAD PUSH2 0x3CE SWAP2 SWAP1 PUSH2 0x2847 JUMP JUMPDEST PUSH1 0x40 MLOAD DUP1 SWAP2 SUB SWAP1 RETURN JUMPDEST PUSH2 0x3F1 PUSH1 0x4 DUP1 CALLDATASIZE SUB DUP2 ADD SWAP1 PUSH2 0x3EC SWAP2 SWAP1 PUSH2 0x27AB JUMP JUMPDEST PUSH2 0xC49 JUMP JUMPDEST STOP JUMPDEST PUSH2 0x3FB PUSH2 0xD71 JUMP JUMPDEST PUSH1 0x40 MLOAD PUSH2 0x408 SWAP2 SWAP1 PUSH2 0x27E7 JUMP JUMPDEST PUSH1 0x40 MLOAD DUP1 SWAP2 SUB SWAP1 RETURN JUMPDEST PUSH2 0x419 PUSH2 0xD77 JUMP JUMPDEST PUSH1 0x40 MLOAD PUSH2 0x426 SWAP2 SWAP1 PUSH2 0x2847 JUMP JUMPDEST PUSH1 0x40 MLOAD DUP1 SWAP2 SUB SWAP1 RETURN JUMPDEST PUSH2 0x437 PUSH2 0xD9D JUMP JUMPDEST STOP JUMPDEST PUSH2 0x453 PUSH1 0x4 DUP1 CALLDATASIZE SUB DUP2 ADD SWAP1 PUSH2 0x44E SWAP2 SWAP1 PUSH2 0x27AB JUMP JUMPDEST PUSH2 0xECA JUMP JUMPDEST STOP JUMPDEST PUSH2 0x46F PUSH1 0x4 DUP1 CALLDATASIZE SUB DUP2 ADD SWAP1 PUSH2 0x46A SWAP2 SWAP1 PUSH2 0x2862 JUMP JUMPDEST PUSH2 0xFF2 JUMP JUMPDEST STOP JUMPDEST PUSH2 0x479 PUSH2 0x1159 JUMP JUMPDEST PUSH1 0x40 MLOAD PUSH2 0x486 SWAP2 SWAP1 PUSH2 0x2847 JUMP JUMPDEST PUSH1 0x40 MLOAD DUP1 SWAP2 SUB SWAP1 RETURN JUMPDEST PUSH2 0x4A9 PUSH1 0x4 DUP1 CALLDATASIZE SUB DUP2 ADD SWAP1 PUSH2 0x4A4 SWAP2 SWAP1 PUSH2 0x27AB JUMP JUMPDEST PUSH2 0x117F JUMP JUMPDEST STOP JUMPDEST PUSH2 0x4B3 PUSH2 0x12A7 JUMP JUMPDEST PUSH1 0x40 MLOAD PUSH2 0x4C0 SWAP2 SWAP1 PUSH2 0x2847 JUMP JUMPDEST PUSH1 0x40 MLOAD DUP1 SWAP2 SUB SWAP1 RETURN JUMPDEST PUSH2 0x4E3 PUSH1 0x4 DUP1 CALLDATASIZE SUB DUP2 ADD SWAP1 PUSH2 0x4DE SWAP2 SWAP1 PUSH2 0x27AB JUMP JUMPDEST PUSH2 0x12CD JUMP JUMPDEST STOP JUMPDEST PUSH2 0x4FF PUSH1 0x4 DUP1 CALLDATASIZE SUB DUP2 ADD SWAP1 PUSH2 0x4FA SWAP2 SWAP1 PUSH2 0x27AB JUMP JUMPDEST PUSH2 0x13F5 JUMP JUMPDEST PUSH1 0x40 MLOAD PUSH2 0x50C SWAP2 SWAP1 PUSH2 0x27E7 JUMP JUMPDEST PUSH1 0x40 MLOAD DUP1 SWAP2 SUB SWAP1 RETURN JUMPDEST PUSH2 0x51D PUSH2 0x140D JUMP JUMPDEST PUSH1 0x40 MLOAD PUSH2 0x52A SWAP2 SWAP1 PUSH2 0x2847 JUMP JUMPDEST PUSH1 0x40 MLOAD DUP1 SWAP2 SUB SWAP1 RETURN JUMPDEST PUSH2 0x54D PUSH1 0x4 DUP1 CALLDATASIZE SUB DUP2 ADD SWAP1 PUSH2 0x548 SWAP2 SWAP1 PUSH2 0x27AB JUMP JUMPDEST PUSH2 0x1433 JUMP JUMPDEST STOP JUMPDEST PUSH2 0x557 PUSH2 0x15BE JUMP JUMPDEST PUSH1 0x40 MLOAD PUSH2 0x564 SWAP2 SWAP1 PUSH2 0x27E7 JUMP JUMPDEST PUSH1 0x40 MLOAD DUP1 SWAP2 SUB SWAP1 RETURN JUMPDEST PUSH2 0x587 PUSH1 0x4 DUP1 CALLDATASIZE SUB DUP2 ADD SWAP1 PUSH2 0x582 SWAP2 SWAP1 PUSH2 0x27AB JUMP JUMPDEST PUSH2 0x15C4 JUMP JUMPDEST PUSH1 0x40 MLOAD PUSH2 0x594 SWAP2 SWAP1 PUSH2 0x27E7 JUMP JUMPDEST PUSH1 0x40 MLOAD DUP1 SWAP2 SUB SWAP1 RETURN JUMPDEST PUSH2 0x5A5 PUSH2 0x15DC JUMP JUMPDEST PUSH1 0x40 MLOAD PUSH2 0x5B2 SWAP2 SWAP1 PUSH2 0x2847 JUMP JUMPDEST PUSH1 0x40 MLOAD DUP1 SWAP2 SUB SWAP1 RETURN JUMPDEST PUSH2 0x5D5 PUSH1 0x4 DUP1 CALLDATASIZE SUB DUP2 ADD SWAP1 PUSH2 0x5D0 SWAP2 SWAP1 PUSH2 0x2720 JUMP JUMPDEST PUSH2 0x1605 JUMP JUMPDEST STOP JUMPDEST PUSH2 0x5F1 PUSH1 0x4 DUP1 CALLDATASIZE SUB DUP2 ADD SWAP1 PUSH2 0x5EC SWAP2 SWAP1 PUSH2 0x27AB JUMP JUMPDEST PUSH2 0x1968 JUMP JUMPDEST PUSH1 0x40 MLOAD PUSH2 0x5FE SWAP2 SWAP1 PUSH2 0x27E7 JUMP JUMPDEST PUSH1 0x40 MLOAD DUP1 SWAP2 SUB SWAP1 RETURN JUMPDEST PUSH2 0x621 PUSH1 0x4 DUP1 CALLDATASIZE SUB DUP2 ADD SWAP1 PUSH2 0x61C SWAP2 SWAP1 PUSH2 0x27AB JUMP JUMPDEST PUSH2 0x1980 JUMP JUMPDEST PUSH1 0x40 MLOAD PUSH2 0x62E SWAP2 SWAP1 PUSH2 0x27E7 JUMP JUMPDEST PUSH1 0x40 MLOAD DUP1 SWAP2 SUB SWAP1 RETURN JUMPDEST PUSH2 0x63F PUSH2 0x1998 JUMP JUMPDEST PUSH1 0x40 MLOAD PUSH2 0x64C SWAP2 SWAP1 PUSH2 0x27E7 JUMP JUMPDEST PUSH1 0x40 MLOAD DUP1 SWAP2 SUB SWAP1 RETURN JUMPDEST PUSH2 0x66F PUSH1 0x4 DUP1 CALLDATASIZE SUB DUP2 ADD SWAP1 PUSH2 0x66A SWAP2 SWAP1 PUSH2 0x27AB JUMP JUMPDEST PUSH2 0x199E JUMP JUMPDEST PUSH1 0x40 MLOAD PUSH2 0x67C SWAP2 SWAP1 PUSH2 0x27E7 JUMP JUMPDEST PUSH1 0x40 MLOAD DUP1 SWAP2 SUB SWAP1 RETURN JUMPDEST PUSH2 0x69F PUSH1 0x4 DUP1 CALLDATASIZE SUB DUP2 ADD SWAP1 PUSH2 0x69A SWAP2 SWAP1 PUSH2 0x28CE JUMP JUMPDEST PUSH2 0x19B6 JUMP JUMPDEST STOP JUMPDEST PUSH2 0x6A9 PUSH2 0x1AD2 JUMP JUMPDEST PUSH1 0x40 MLOAD PUSH2 0x6B6 SWAP2 SWAP1 PUSH2 0x2847 JUMP JUMPDEST PUSH1 0x40 MLOAD DUP1 SWAP2 SUB SWAP1 RETURN JUMPDEST PUSH2 0x6D9 PUSH1 0x4 DUP1 CALLDATASIZE SUB DUP2 ADD SWAP1 PUSH2 0x6D4 SWAP2 SWAP1 PUSH2 0x27AB JUMP JUMPDEST PUSH2 0x1AF8 JUMP JUMPDEST PUSH1 0x40 MLOAD PUSH2 0x6E6 SWAP2 SWAP1 PUSH2 0x27E7 JUMP JUMPDEST PUSH1 0x40 MLOAD DUP1 SWAP2 SUB SWAP1 RETURN JUMPDEST PUSH2 0x709 PUSH1 0x4 DUP1 CALLDATASIZE SUB DUP2 ADD SWAP1 PUSH2 0x704 SWAP2 SWAP1 PUSH2 0x27AB JUMP JUMPDEST PUSH2 0x1B10 JUMP JUMPDEST PUSH1 0x40 MLOAD PUSH2 0x716 SWAP2 SWAP1 PUSH2 0x27E7 JUMP JUMPDEST PUSH1 0x40 MLOAD DUP1 SWAP2 SUB SWAP1 RETURN JUMPDEST PUSH2 0x727 PUSH2 0x1B28 JUMP JUMPDEST PUSH1 0x40 MLOAD PUSH2 0x734 SWAP2 SWAP1 PUSH2 0x2847 JUMP JUMPDEST PUSH1 0x40 MLOAD DUP1 SWAP2 SUB SWAP1 RETURN JUMPDEST PUSH2 0x757 PUSH1 0x4 DUP1 CALLDATASIZE SUB DUP2 ADD SWAP1 PUSH2 0x752 SWAP2 SWAP1 PUSH2 0x290E JUMP JUMPDEST PUSH2 0x1B4E JUMP JUMPDEST STOP JUMPDEST PUSH2 0x761 PUSH2 0x1DD3 JUMP JUMPDEST PUSH1 0x40 MLOAD PUSH2 0x76E SWAP2 SWAP1 PUSH2 0x281D JUMP JUMPDEST PUSH1 0x40 MLOAD DUP1 SWAP2 SUB SWAP1 RETURN JUMPDEST PUSH2 0x791 PUSH1 0x4 DUP1 CALLDATASIZE SUB DUP2 ADD SWAP1 PUSH2 0x78C SWAP2 SWAP1 PUSH2 0x27AB JUMP JUMPDEST PUSH2 0x1DE6 JUMP JUMPDEST STOP JUMPDEST PUSH2 0x79B PUSH2 0x1FF6 JUMP JUMPDEST PUSH1 0x40 MLOAD PUSH2 0x7A8 SWAP2 SWAP1 PUSH2 0x281D JUMP JUMPDEST PUSH1 0x40 MLOAD DUP1 SWAP2 SUB SWAP1 RETURN JUMPDEST PUSH2 0x7CB PUSH1 0x4 DUP1 CALLDATASIZE SUB DUP2 ADD SWAP1 PUSH2 0x7C6 SWAP2 SWAP1 PUSH2 0x29B0 JUMP JUMPDEST PUSH2 0x2009 JUMP JUMPDEST STOP JUMPDEST CALLER PUSH20 0xFFFFFFFFFFFFFFFFFFFFFFFFFFFFFFFFFFFFFFFF AND PUSH1 0x0 DUP1 SLOAD SWAP1 PUSH2 0x100 EXP SWAP1 DIV PUSH20 0xFFFFFFFFFFFFFFFFFFFFFFFFFFFFFFFFFFFFFFFF AND PUSH20 0xFFFFFFFFFFFFFFFFFFFFFFFFFFFFFFFFFFFFFFFF AND EQ DUP1 PUSH2 0x872 JUMPI POP CALLER PUSH20 0xFFFFFFFFFFFFFFFFFFFFFFFFFFFFFFFFFFFFFFFF AND PUSH1 0x0 DUP1 SLOAD SWAP1 PUSH2 0x100 EXP SWAP1 DIV PUSH20 0xFFFFFFFFFFFFFFFFFFFFFFFFFFFFFFFFFFFFFFFF AND PUSH20 0xFFFFFFFFFFFFFFFFFFFFFFFFFFFFFFFFFFFFFFFF AND EQ JUMPDEST PUSH2 0x8B1 JUMPI PUSH1 0x40 MLOAD PUSH32 0x8C379A000000000000000000000000000000000000000000000000000000000 DUP2 MSTORE PUSH1 0x4 ADD PUSH2 0x8A8 SWAP1 PUSH2 0x2A60 JUMP JUMPDEST PUSH1 0x40 MLOAD DUP1 SWAP2 SUB SWAP1 REVERT JUMPDEST DUP1 PUSH1 0xA DUP2 SWAP1 SSTORE POP POP JUMP JUMPDEST PUSH1 0x15 PUSH1 0x20 MSTORE DUP1 PUSH1 0x0 MSTORE PUSH1 0x40 PUSH1 0x0 KECCAK256 PUSH1 0x0 SWAP2 POP SWAP1 POP SLOAD DUP2 JUMP JUMPDEST CALLER PUSH20 0xFFFFFFFFFFFFFFFFFFFFFFFFFFFFFFFFFFFFFFFF AND PUSH1 0x0 DUP1 SLOAD SWAP1 PUSH2 0x100 EXP SWAP1 DIV PUSH20 0xFFFFFFFFFFFFFFFFFFFFFFFFFFFFFFFFFFFFFFFF AND PUSH20 0xFFFFFFFFFFFFFFFFFFFFFFFFFFFFFFFFFFFFFFFF AND EQ DUP1 PUSH2 0x978 JUMPI POP CALLER PUSH20 0xFFFFFFFFFFFFFFFFFFFFFFFFFFFFFFFFFFFFFFFF AND PUSH1 0x0 DUP1 SLOAD SWAP1 PUSH2 0x100 EXP SWAP1 DIV PUSH20 0xFFFFFFFFFFFFFFFFFFFFFFFFFFFFFFFFFFFFFFFF AND PUSH20 0xFFFFFFFFFFFFFFFFFFFFFFFFFFFFFFFFFFFFFFFF AND EQ JUMPDEST PUSH2 0x9B7 JUMPI PUSH1 0x40 MLOAD PUSH32 0x8C379A000000000000000000000000000000000000000000000000000000000 DUP2 MSTORE PUSH1 0x4 ADD PUSH2 0x9AE SWAP1 PUSH2 0x2A60 JUMP JUMPDEST PUSH1 0x40 MLOAD DUP1 SWAP2 SUB SWAP1 REVERT JUMPDEST DUP1 PUSH1 0x2 PUSH1 0x0 PUSH2 0x100 EXP DUP2 SLOAD DUP2 PUSH20 0xFFFFFFFFFFFFFFFFFFFFFFFFFFFFFFFFFFFFFFFF MUL NOT AND SWAP1 DUP4 PUSH20 0xFFFFFFFFFFFFFFFFFFFFFFFFFFFFFFFFFFFFFFFF AND MUL OR SWAP1 SSTORE POP POP JUMP JUMPDEST PUSH1 0x0 DUP1 PUSH1 0x3 PUSH1 0x0 SWAP1 SLOAD SWAP1 PUSH2 0x100 EXP SWAP1 DIV PUSH20 0xFFFFFFFFFFFFFFFFFFFFFFFFFFFFFFFFFFFFFFFF AND PUSH20 0xFFFFFFFFFFFFFFFFFFFFFFFFFFFFFFFFFFFFFFFF AND PUSH4 0xC280444 PUSH1 0x40 MLOAD DUP2 PUSH4 0xFFFFFFFF AND PUSH1 0xE0 SHL DUP2 MSTORE PUSH1 0x4 ADD PUSH1 0x20 PUSH1 0x40 MLOAD DUP1 DUP4 SUB DUP2 DUP7 GAS STATICCALL ISZERO DUP1 ISZERO PUSH2 0xA6B JUMPI RETURNDATASIZE PUSH1 0x0 DUP1 RETURNDATACOPY RETURNDATASIZE PUSH1 0x0 REVERT JUMPDEST POP POP POP POP PUSH1 0x40 MLOAD RETURNDATASIZE PUSH1 0x1F NOT PUSH1 0x1F DUP3 ADD AND DUP3 ADD DUP1 PUSH1 0x40 MSTORE POP DUP2 ADD SWAP1 PUSH2 0xA8F SWAP2 SWAP1 PUSH2 0x2A95 JUMP JUMPDEST SWAP1 POP DUP1 SWAP2 POP POP SWAP1 JUMP JUMPDEST PUSH1 0x17 PUSH1 0x20 MSTORE DUP1 PUSH1 0x0 MSTORE PUSH1 0x40 PUSH1 0x0 KECCAK256 PUSH1 0x0 SWAP2 POP SLOAD SWAP1 PUSH2 0x100 EXP SWAP1 DIV PUSH1 0xFF AND DUP2 JUMP JUMPDEST PUSH1 0x13 PUSH1 0x20 MSTORE DUP1 PUSH1 0x0 MSTORE PUSH1 0x40 PUSH1 0x0 KECCAK256 PUSH1 0x0 SWAP2 POP SWAP1 POP SLOAD DUP2 JUMP JUMPDEST PUSH1 0x9 SLOAD DUP2 JUMP JUMPDEST PUSH1 0xD PUSH1 0x20 MSTORE DUP1 PUSH1 0x0 MSTORE PUSH1 0x40 PUSH1 0x0 KECCAK256 PUSH1 0x0 SWAP2 POP SWAP1 POP SLOAD DUP2 JUMP JUMPDEST CALLER PUSH20 0xFFFFFFFFFFFFFFFFFFFFFFFFFFFFFFFFFFFFFFFF AND PUSH1 0x0 DUP1 SLOAD SWAP1 PUSH2 0x100 EXP SWAP1 DIV PUSH20 0xFFFFFFFFFFFFFFFFFFFFFFFFFFFFFFFFFFFFFFFF AND PUSH20 0xFFFFFFFFFFFFFFFFFFFFFFFFFFFFFFFFFFFFFFFF AND EQ DUP1 PUSH2 0xB93 JUMPI POP CALLER PUSH20 0xFFFFFFFFFFFFFFFFFFFFFFFFFFFFFFFFFFFFFFFF AND PUSH1 0x0 DUP1 SLOAD SWAP1 PUSH2 0x100 EXP SWAP1 DIV PUSH20 0xFFFFFFFFFFFFFFFFFFFFFFFFFFFFFFFFFFFFFFFF AND PUSH20 0xFFFFFFFFFFFFFFFFFFFFFFFFFFFFFFFFFFFFFFFF AND EQ JUMPDEST PUSH2 0xBD2 JUMPI PUSH1 0x40 MLOAD PUSH32 0x8C379A000000000000000000000000000000000000000000000000000000000 DUP2 MSTORE PUSH1 0x4 ADD PUSH2 0xBC9 SWAP1 PUSH2 0x2A60 JUMP JUMPDEST PUSH1 0x40 MLOAD DUP1 SWAP2 SUB SWAP1 REVERT JUMPDEST DUP1 PUSH1 0x4 PUSH1 0x0 PUSH2 0x100 EXP DUP2 SLOAD DUP2 PUSH20 0xFFFFFFFFFFFFFFFFFFFFFFFFFFFFFFFFFFFFFFFF MUL NOT AND SWAP1 DUP4 PUSH20 0xFFFFFFFFFFFFFFFFFFFFFFFFFFFFFFFFFFFFFFFF AND MUL OR SWAP1 SSTORE POP POP JUMP JUMPDEST PUSH1 0xB PUSH1 0x20 MSTORE DUP1 PUSH1 0x0 MSTORE PUSH1 0x40 PUSH1 0x0 KECCAK256 PUSH1 0x0 SWAP2 POP SLOAD SWAP1 PUSH2 0x100 EXP SWAP1 DIV PUSH20 0xFFFFFFFFFFFFFFFFFFFFFFFFFFFFFFFFFFFFFFFF AND DUP2 JUMP JUMPDEST CALLER PUSH20 0xFFFFFFFFFFFFFFFFFFFFFFFFFFFFFFFFFFFFFFFF AND PUSH1 0x0 DUP1 SLOAD SWAP1 PUSH2 0x100 EXP SWAP1 DIV PUSH20 0xFFFFFFFFFFFFFFFFFFFFFFFFFFFFFFFFFFFFFFFF AND PUSH20 0xFFFFFFFFFFFFFFFFFFFFFFFFFFFFFFFFFFFFFFFF AND EQ DUP1 PUSH2 0xCEE JUMPI POP CALLER PUSH20 0xFFFFFFFFFFFFFFFFFFFFFFFFFFFFFFFFFFFFFFFF AND PUSH1 0x0 DUP1 SLOAD SWAP1 PUSH2 0x100 EXP SWAP1 DIV PUSH20 0xFFFFFFFFFFFFFFFFFFFFFFFFFFFFFFFFFFFFFFFF AND PUSH20 0xFFFFFFFFFFFFFFFFFFFFFFFFFFFFFFFFFFFFFFFF AND EQ JUMPDEST PUSH2 0xD2D JUMPI PUSH1 0x40 MLOAD PUSH32 0x8C379A000000000000000000000000000000000000000000000000000000000 DUP2 MSTORE PUSH1 0x4 ADD PUSH2 0xD24 SWAP1 PUSH2 0x2A60 JUMP JUMPDEST PUSH1 0x40 MLOAD DUP1 SWAP2 SUB SWAP1 REVERT JUMPDEST DUP1 PUSH1 0x5 PUSH1 0x0 PUSH2 0x100 EXP DUP2 SLOAD DUP2 PUSH20 0xFFFFFFFFFFFFFFFFFFFFFFFFFFFFFFFFFFFFFFFF MUL NOT AND SWAP1 DUP4 PUSH20 0xFFFFFFFFFFFFFFFFFFFFFFFFFFFFFFFFFFFFFFFF AND MUL OR SWAP1 SSTORE POP POP JUMP JUMPDEST PUSH1 0xA SLOAD DUP2 JUMP JUMPDEST PUSH1 0x5 PUSH1 0x0 SWAP1 SLOAD SWAP1 PUSH2 0x100 EXP SWAP1 DIV PUSH20 0xFFFFFFFFFFFFFFFFFFFFFFFFFFFFFFFFFFFFFFFF AND DUP2 JUMP JUMPDEST CALLER PUSH20 0xFFFFFFFFFFFFFFFFFFFFFFFFFFFFFFFFFFFFFFFF AND PUSH1 0x0 DUP1 SLOAD SWAP1 PUSH2 0x100 EXP SWAP1 DIV PUSH20 0xFFFFFFFFFFFFFFFFFFFFFFFFFFFFFFFFFFFFFFFF AND PUSH20 0xFFFFFFFFFFFFFFFFFFFFFFFFFFFFFFFFFFFFFFFF AND EQ DUP1 PUSH2 0xE42 JUMPI POP CALLER PUSH20 0xFFFFFFFFFFFFFFFFFFFFFFFFFFFFFFFFFFFFFFFF AND PUSH1 0x0 DUP1 SLOAD SWAP1 PUSH2 0x100 EXP SWAP1 DIV PUSH20 0xFFFFFFFFFFFFFFFFFFFFFFFFFFFFFFFFFFFFFFFF AND PUSH20 0xFFFFFFFFFFFFFFFFFFFFFFFFFFFFFFFFFFFFFFFF AND EQ JUMPDEST PUSH2 0xE81 JUMPI PUSH1 0x40 MLOAD PUSH32 0x8C379A000000000000000000000000000000000000000000000000000000000 DUP2 MSTORE PUSH1 0x4 ADD PUSH2 0xE78 SWAP1 PUSH2 0x2A60 JUMP JUMPDEST PUSH1 0x40 MLOAD DUP1 SWAP2 SUB SWAP1 REVERT JUMPDEST CALLER PUSH20 0xFFFFFFFFFFFFFFFFFFFFFFFFFFFFFFFFFFFFFFFF AND PUSH2 0x8FC SELFBALANCE SWAP1 DUP2 ISZERO MUL SWAP1 PUSH1 0x40 MLOAD PUSH1 0x0 PUSH1 0x40 MLOAD DUP1 DUP4 SUB DUP2 DUP6 DUP9 DUP9 CALL SWAP4 POP POP POP POP ISZERO DUP1 ISZERO PUSH2 0xEC7 JUMPI RETURNDATASIZE PUSH1 0x0 DUP1 RETURNDATACOPY RETURNDATASIZE PUSH1 0x0 REVERT JUMPDEST POP JUMP JUMPDEST CALLER PUSH20 0xFFFFFFFFFFFFFFFFFFFFFFFFFFFFFFFFFFFFFFFF AND PUSH1 0x0 DUP1 SLOAD SWAP1 PUSH2 0x100 EXP SWAP1 DIV PUSH20 0xFFFFFFFFFFFFFFFFFFFFFFFFFFFFFFFFFFFFFFFF AND PUSH20 0xFFFFFFFFFFFFFFFFFFFFFFFFFFFFFFFFFFFFFFFF AND EQ DUP1 PUSH2 0xF6F JUMPI POP CALLER PUSH20 0xFFFFFFFFFFFFFFFFFFFFFFFFFFFFFFFFFFFFFFFF AND PUSH1 0x0 DUP1 SLOAD SWAP1 PUSH2 0x100 EXP SWAP1 DIV PUSH20 0xFFFFFFFFFFFFFFFFFFFFFFFFFFFFFFFFFFFFFFFF AND PUSH20 0xFFFFFFFFFFFFFFFFFFFFFFFFFFFFFFFFFFFFFFFF AND EQ JUMPDEST PUSH2 0xFAE JUMPI PUSH1 0x40 MLOAD PUSH32 0x8C379A000000000000000000000000000000000000000000000000000000000 DUP2 MSTORE PUSH1 0x4 ADD PUSH2 0xFA5 SWAP1 PUSH2 0x2A60 JUMP JUMPDEST PUSH1 0x40 MLOAD DUP1 SWAP2 SUB SWAP1 REVERT JUMPDEST DUP1 PUSH1 0x6 PUSH1 0x0 PUSH2 0x100 EXP DUP2 SLOAD DUP2 PUSH20 0xFFFFFFFFFFFFFFFFFFFFFFFFFFFFFFFFFFFFFFFF MUL NOT AND SWAP1 DUP4 PUSH20 0xFFFFFFFFFFFFFFFFFFFFFFFFFFFFFFFFFFFFFFFF AND MUL OR SWAP1 SSTORE POP POP JUMP JUMPDEST CALLER PUSH20 0xFFFFFFFFFFFFFFFFFFFFFFFFFFFFFFFFFFFFFFFF AND PUSH1 0x0 DUP1 SLOAD SWAP1 PUSH2 0x100 EXP SWAP1 DIV PUSH20 0xFFFFFFFFFFFFFFFFFFFFFFFFFFFFFFFFFFFFFFFF AND PUSH20 0xFFFFFFFFFFFFFFFFFFFFFFFFFFFFFFFFFFFFFFFF AND EQ DUP1 PUSH2 0x1097 JUMPI POP CALLER PUSH20 0xFFFFFFFFFFFFFFFFFFFFFFFFFFFFFFFFFFFFFFFF AND PUSH1 0x0 DUP1 SLOAD SWAP1 PUSH2 0x100 EXP SWAP1 DIV PUSH20 0xFFFFFFFFFFFFFFFFFFFFFFFFFFFFFFFFFFFFFFFF AND PUSH20 0xFFFFFFFFFFFFFFFFFFFFFFFFFFFFFFFFFFFFFFFF AND EQ JUMPDEST PUSH2 0x10D6 JUMPI PUSH1 0x40 MLOAD PUSH32 0x8C379A000000000000000000000000000000000000000000000000000000000 DUP2 MSTORE PUSH1 0x4 ADD PUSH2 0x10CD SWAP1 PUSH2 0x2A60 JUMP JUMPDEST PUSH1 0x40 MLOAD DUP1 SWAP2 SUB SWAP1 REVERT JUMPDEST DUP2 PUSH20 0xFFFFFFFFFFFFFFFFFFFFFFFFFFFFFFFFFFFFFFFF AND PUSH4 0xA9059CBB CALLER DUP4 PUSH1 0x40 MLOAD DUP4 PUSH4 0xFFFFFFFF AND PUSH1 0xE0 SHL DUP2 MSTORE PUSH1 0x4 ADD PUSH2 0x1111 SWAP3 SWAP2 SWAP1 PUSH2 0x2AC2 JUMP JUMPDEST PUSH1 0x20 PUSH1 0x40 MLOAD DUP1 DUP4 SUB DUP2 PUSH1 0x0 DUP8 GAS CALL ISZERO DUP1 ISZERO PUSH2 0x1130 JUMPI RETURNDATASIZE PUSH1 0x0 DUP1 RETURNDATACOPY RETURNDATASIZE PUSH1 0x0 REVERT JUMPDEST POP POP POP POP PUSH1 0x40 MLOAD RETURNDATASIZE PUSH1 0x1F NOT PUSH1 0x1F DUP3 ADD AND DUP3 ADD DUP1 PUSH1 0x40 MSTORE POP DUP2 ADD SWAP1 PUSH2 0x1154 SWAP2 SWAP1 PUSH2 0x2B00 JUMP JUMPDEST POP POP POP JUMP JUMPDEST PUSH1 0x6 PUSH1 0x0 SWAP1 SLOAD SWAP1 PUSH2 0x100 EXP SWAP1 DIV PUSH20 0xFFFFFFFFFFFFFFFFFFFFFFFFFFFFFFFFFFFFFFFF AND DUP2 JUMP JUMPDEST CALLER PUSH20 0xFFFFFFFFFFFFFFFFFFFFFFFFFFFFFFFFFFFFFFFF AND PUSH1 0x0 DUP1 SLOAD SWAP1 PUSH2 0x100 EXP SWAP1 DIV PUSH20 0xFFFFFFFFFFFFFFFFFFFFFFFFFFFFFFFFFFFFFFFF AND PUSH20 0xFFFFFFFFFFFFFFFFFFFFFFFFFFFFFFFFFFFFFFFF AND EQ DUP1 PUSH2 0x1224 JUMPI POP CALLER PUSH20 0xFFFFFFFFFFFFFFFFFFFFFFFFFFFFFFFFFFFFFFFF AND PUSH1 0x0 DUP1 SLOAD SWAP1 PUSH2 0x100 EXP SWAP1 DIV PUSH20 0xFFFFFFFFFFFFFFFFFFFFFFFFFFFFFFFFFFFFFFFF AND PUSH20 0xFFFFFFFFFFFFFFFFFFFFFFFFFFFFFFFFFFFFFFFF AND EQ JUMPDEST PUSH2 0x1263 JUMPI PUSH1 0x40 MLOAD PUSH32 0x8C379A000000000000000000000000000000000000000000000000000000000 DUP2 MSTORE PUSH1 0x4 ADD PUSH2 0x125A SWAP1 PUSH2 0x2A60 JUMP JUMPDEST PUSH1 0x40 MLOAD DUP1 SWAP2 SUB SWAP1 REVERT JUMPDEST DUP1 PUSH1 0x3 PUSH1 0x0 PUSH2 0x100 EXP DUP2 SLOAD DUP2 PUSH20 0xFFFFFFFFFFFFFFFFFFFFFFFFFFFFFFFFFFFFFFFF MUL NOT AND SWAP1 DUP4 PUSH20 0xFFFFFFFFFFFFFFFFFFFFFFFFFFFFFFFFFFFFFFFF AND MUL OR SWAP1 SSTORE POP POP JUMP JUMPDEST PUSH1 0x2 PUSH1 0x0 SWAP1 SLOAD SWAP1 PUSH2 0x100 EXP SWAP1 DIV PUSH20 0xFFFFFFFFFFFFFFFFFFFFFFFFFFFFFFFFFFFFFFFF AND DUP2 JUMP JUMPDEST CALLER PUSH20 0xFFFFFFFFFFFFFFFFFFFFFFFFFFFFFFFFFFFFFFFF AND PUSH1 0x0 DUP1 SLOAD SWAP1 PUSH2 0x100 EXP SWAP1 DIV PUSH20 0xFFFFFFFFFFFFFFFFFFFFFFFFFFFFFFFFFFFFFFFF AND PUSH20 0xFFFFFFFFFFFFFFFFFFFFFFFFFFFFFFFFFFFFFFFF AND EQ DUP1 PUSH2 0x1372 JUMPI POP CALLER PUSH20 0xFFFFFFFFFFFFFFFFFFFFFFFFFFFFFFFFFFFFFFFF AND PUSH1 0x0 DUP1 SLOAD SWAP1 PUSH2 0x100 EXP SWAP1 DIV PUSH20 0xFFFFFFFFFFFFFFFFFFFFFFFFFFFFFFFFFFFFFFFF AND PUSH20 0xFFFFFFFFFFFFFFFFFFFFFFFFFFFFFFFFFFFFFFFF AND EQ JUMPDEST PUSH2 0x13B1 JUMPI PUSH1 0x40 MLOAD PUSH32 0x8C379A000000000000000000000000000000000000000000000000000000000 DUP2 MSTORE PUSH1 0x4 ADD PUSH2 0x13A8 SWAP1 PUSH2 0x2A60 JUMP JUMPDEST PUSH1 0x40 MLOAD DUP1 SWAP2 SUB SWAP1 REVERT JUMPDEST DUP1 PUSH1 0x1 PUSH1 0x0 PUSH2 0x100 EXP DUP2 SLOAD DUP2 PUSH20 0xFFFFFFFFFFFFFFFFFFFFFFFFFFFFFFFFFFFFFFFF MUL NOT AND SWAP1 DUP4 PUSH20 0xFFFFFFFFFFFFFFFFFFFFFFFFFFFFFFFFFFFFFFFF AND MUL OR SWAP1 SSTORE POP POP JUMP JUMPDEST PUSH1 0x14 PUSH1 0x20 MSTORE DUP1 PUSH1 0x0 MSTORE PUSH1 0x40 PUSH1 0x0 KECCAK256 PUSH1 0x0 SWAP2 POP SWAP1 POP SLOAD DUP2 JUMP JUMPDEST PUSH1 0x4 PUSH1 0x0 SWAP1 SLOAD SWAP1 PUSH2 0x100 EXP SWAP1 DIV PUSH20 0xFFFFFFFFFFFFFFFFFFFFFFFFFFFFFFFFFFFFFFFF AND DUP2 JUMP JUMPDEST CALLER PUSH20 0xFFFFFFFFFFFFFFFFFFFFFFFFFFFFFFFFFFFFFFFF AND PUSH1 0x0 DUP1 SLOAD SWAP1 PUSH2 0x100 EXP SWAP1 DIV PUSH20 0xFFFFFFFFFFFFFFFFFFFFFFFFFFFFFFFFFFFFFFFF AND PUSH20 0xFFFFFFFFFFFFFFFFFFFFFFFFFFFFFFFFFFFFFFFF AND EQ DUP1 PUSH2 0x14D8 JUMPI POP CALLER PUSH20 0xFFFFFFFFFFFFFFFFFFFFFFFFFFFFFFFFFFFFFFFF AND PUSH1 0x0 DUP1 SLOAD SWAP1 PUSH2 0x100 EXP SWAP1 DIV PUSH20 0xFFFFFFFFFFFFFFFFFFFFFFFFFFFFFFFFFFFFFFFF AND PUSH20 0xFFFFFFFFFFFFFFFFFFFFFFFFFFFFFFFFFFFFFFFF AND EQ JUMPDEST PUSH2 0x1517 JUMPI PUSH1 0x40 MLOAD PUSH32 0x8C379A000000000000000000000000000000000000000000000000000000000 DUP2 MSTORE PUSH1 0x4 ADD PUSH2 0x150E SWAP1 PUSH2 0x2A60 JUMP JUMPDEST PUSH1 0x40 MLOAD DUP1 SWAP2 SUB SWAP1 REVERT JUMPDEST PUSH1 0x17 PUSH1 0x0 DUP3 PUSH20 0xFFFFFFFFFFFFFFFFFFFFFFFFFFFFFFFFFFFFFFFF AND PUSH20 0xFFFFFFFFFFFFFFFFFFFFFFFFFFFFFFFFFFFFFFFF AND DUP2 MSTORE PUSH1 0x20 ADD SWAP1 DUP2 MSTORE PUSH1 0x20 ADD PUSH1 0x0 KECCAK256 PUSH1 0x0 SWAP1 SLOAD SWAP1 PUSH2 0x100 EXP SWAP1 DIV PUSH1 0xFF AND ISZERO PUSH1 0x17 PUSH1 0x0 DUP4 PUSH20 0xFFFFFFFFFFFFFFFFFFFFFFFFFFFFFFFFFFFFFFFF AND PUSH20 0xFFFFFFFFFFFFFFFFFFFFFFFFFFFFFFFFFFFFFFFF AND DUP2 MSTORE PUSH1 0x20 ADD SWAP1 DUP2 MSTORE PUSH1 0x20 ADD PUSH1 0x0 KECCAK256 PUSH1 0x0 PUSH2 0x100 EXP DUP2 SLOAD DUP2 PUSH1 0xFF MUL NOT AND SWAP1 DUP4 ISZERO ISZERO MUL OR SWAP1 SSTORE POP POP JUMP JUMPDEST PUSH1 0x8 SLOAD DUP2 JUMP JUMPDEST PUSH1 0x11 PUSH1 0x20 MSTORE DUP1 PUSH1 0x0 MSTORE PUSH1 0x40 PUSH1 0x0 KECCAK256 PUSH1 0x0 SWAP2 POP SWAP1 POP SLOAD DUP2 JUMP JUMPDEST PUSH1 0x0 DUP1 PUSH1 0x0 SWAP1 SLOAD SWAP1 PUSH2 0x100 EXP SWAP1 DIV PUSH20 0xFFFFFFFFFFFFFFFFFFFFFFFFFFFFFFFFFFFFFFFF AND SWAP1 POP SWAP1 JUMP JUMPDEST CALLER PUSH20 0xFFFFFFFFFFFFFFFFFFFFFFFFFFFFFFFFFFFFFFFF AND PUSH1 0x0 DUP1 SLOAD SWAP1 PUSH2 0x100 EXP SWAP1 DIV PUSH20 0xFFFFFFFFFFFFFFFFFFFFFFFFFFFFFFFFFFFFFFFF AND PUSH20 0xFFFFFFFFFFFFFFFFFFFFFFFFFFFFFFFFFFFFFFFF AND EQ DUP1 PUSH2 0x16AA JUMPI POP CALLER PUSH20 0xFFFFFFFFFFFFFFFFFFFFFFFFFFFFFFFFFFFFFFFF AND PUSH1 0x0 DUP1 SLOAD SWAP1 PUSH2 0x100 EXP SWAP1 DIV PUSH20 0xFFFFFFFFFFFFFFFFFFFFFFFFFFFFFFFFFFFFFFFF AND PUSH20 0xFFFFFFFFFFFFFFFFFFFFFFFFFFFFFFFFFFFFFFFF AND EQ JUMPDEST PUSH2 0x16E9 JUMPI PUSH1 0x40 MLOAD PUSH32 0x8C379A000000000000000000000000000000000000000000000000000000000 DUP2 MSTORE PUSH1 0x4 ADD PUSH2 0x16E0 SWAP1 PUSH2 0x2A60 JUMP JUMPDEST PUSH1 0x40 MLOAD DUP1 SWAP2 SUB SWAP1 REVERT JUMPDEST PUSH1 0x0 PUSH1 0xF PUSH1 0x0 CALLER PUSH20 0xFFFFFFFFFFFFFFFFFFFFFFFFFFFFFFFFFFFFFFFF AND PUSH20 0xFFFFFFFFFFFFFFFFFFFFFFFFFFFFFFFFFFFFFFFF AND DUP2 MSTORE PUSH1 0x20 ADD SWAP1 DUP2 MSTORE PUSH1 0x20 ADD PUSH1 0x0 KECCAK256 SLOAD GT PUSH2 0x176B JUMPI PUSH1 0x40 MLOAD PUSH32 0x8C379A000000000000000000000000000000000000000000000000000000000 DUP2 MSTORE PUSH1 0x4 ADD PUSH2 0x1762 SWAP1 PUSH2 0x2B79 JUMP JUMPDEST PUSH1 0x40 MLOAD DUP1 SWAP2 SUB SWAP1 REVERT JUMPDEST PUSH1 0x2 PUSH1 0x0 SWAP1 SLOAD SWAP1 PUSH2 0x100 EXP SWAP1 DIV PUSH20 0xFFFFFFFFFFFFFFFFFFFFFFFFFFFFFFFFFFFFFFFF AND PUSH20 0xFFFFFFFFFFFFFFFFFFFFFFFFFFFFFFFFFFFFFFFF AND PUSH4 0xA9059CBB CALLER DUP4 PUSH1 0x40 MLOAD DUP4 PUSH4 0xFFFFFFFF AND PUSH1 0xE0 SHL DUP2 MSTORE PUSH1 0x4 ADD PUSH2 0x17C8 SWAP3 SWAP2 SWAP1 PUSH2 0x2AC2 JUMP JUMPDEST PUSH1 0x20 PUSH1 0x40 MLOAD DUP1 DUP4 SUB DUP2 PUSH1 0x0 DUP8 GAS CALL ISZERO DUP1 ISZERO PUSH2 0x17E7 JUMPI RETURNDATASIZE PUSH1 0x0 DUP1 RETURNDATACOPY RETURNDATASIZE PUSH1 0x0 REVERT JUMPDEST POP POP POP POP PUSH1 0x40 MLOAD RETURNDATASIZE PUSH1 0x1F NOT PUSH1 0x1F DUP3 ADD AND DUP3 ADD DUP1 PUSH1 0x40 MSTORE POP DUP2 ADD SWAP1 PUSH2 0x180B SWAP2 SWAP1 PUSH2 0x2B00 JUMP JUMPDEST POP PUSH1 0x0 PUSH1 0xF PUSH1 0x0 CALLER PUSH20 0xFFFFFFFFFFFFFFFFFFFFFFFFFFFFFFFFFFFFFFFF AND PUSH20 0xFFFFFFFFFFFFFFFFFFFFFFFFFFFFFFFFFFFFFFFF AND DUP2 MSTORE PUSH1 0x20 ADD SWAP1 DUP2 MSTORE PUSH1 0x20 ADD PUSH1 0x0 KECCAK256 DUP2 SWAP1 SSTORE POP PUSH1 0x0 PUSH1 0x13 PUSH1 0x0 CALLER PUSH20 0xFFFFFFFFFFFFFFFFFFFFFFFFFFFFFFFFFFFFFFFF AND PUSH20 0xFFFFFFFFFFFFFFFFFFFFFFFFFFFFFFFFFFFFFFFF AND DUP2 MSTORE PUSH1 0x20 ADD SWAP1 DUP2 MSTORE PUSH1 0x20 ADD PUSH1 0x0 KECCAK256 DUP2 SWAP1 SSTORE POP PUSH1 0x0 PUSH1 0x15 PUSH1 0x0 CALLER PUSH20 0xFFFFFFFFFFFFFFFFFFFFFFFFFFFFFFFFFFFFFFFF AND PUSH20 0xFFFFFFFFFFFFFFFFFFFFFFFFFFFFFFFFFFFFFFFF AND DUP2 MSTORE PUSH1 0x20 ADD SWAP1 DUP2 MSTORE PUSH1 0x20 ADD PUSH1 0x0 KECCAK256 DUP2 SWAP1 SSTORE POP PUSH1 0x0 PUSH1 0x12 PUSH1 0x0 CALLER PUSH20 0xFFFFFFFFFFFFFFFFFFFFFFFFFFFFFFFFFFFFFFFF AND PUSH20 0xFFFFFFFFFFFFFFFFFFFFFFFFFFFFFFFFFFFFFFFF AND DUP2 MSTORE PUSH1 0x20 ADD SWAP1 DUP2 MSTORE PUSH1 0x20 ADD PUSH1 0x0 KECCAK256 DUP2 SWAP1 SSTORE POP PUSH1 0x0 PUSH1 0x16 PUSH1 0x0 CALLER PUSH20 0xFFFFFFFFFFFFFFFFFFFFFFFFFFFFFFFFFFFFFFFF AND PUSH20 0xFFFFFFFFFFFFFFFFFFFFFFFFFFFFFFFFFFFFFFFF AND DUP2 MSTORE PUSH1 0x20 ADD SWAP1 DUP2 MSTORE PUSH1 0x20 ADD PUSH1 0x0 KECCAK256 DUP2 SWAP1 SSTORE POP POP JUMP JUMPDEST PUSH1 0xF PUSH1 0x20 MSTORE DUP1 PUSH1 0x0 MSTORE PUSH1 0x40 PUSH1 0x0 KECCAK256 PUSH1 0x0 SWAP2 POP SWAP1 POP SLOAD DUP2 JUMP JUMPDEST PUSH1 0x12 PUSH1 0x20 MSTORE DUP1 PUSH1 0x0 MSTORE PUSH1 0x40 PUSH1 0x0 KECCAK256 PUSH1 0x0 SWAP2 POP SWAP1 POP SLOAD DUP2 JUMP JUMPDEST PUSH1 0x7 SLOAD DUP2 JUMP JUMPDEST PUSH1 0x10 PUSH1 0x20 MSTORE DUP1 PUSH1 0x0 MSTORE PUSH1 0x40 PUSH1 0x0 KECCAK256 PUSH1 0x0 SWAP2 POP SWAP1 POP SLOAD DUP2 JUMP JUMPDEST CALLER PUSH20 0xFFFFFFFFFFFFFFFFFFFFFFFFFFFFFFFFFFFFFFFF AND PUSH1 0x0 DUP1 SLOAD SWAP1 PUSH2 0x100 EXP SWAP1 DIV PUSH20 0xFFFFFFFFFFFFFFFFFFFFFFFFFFFFFFFFFFFFFFFF AND PUSH20 0xFFFFFFFFFFFFFFFFFFFFFFFFFFFFFFFFFFFFFFFF AND EQ DUP1 PUSH2 0x1A5B JUMPI POP CALLER PUSH20 0xFFFFFFFFFFFFFFFFFFFFFFFFFFFFFFFFFFFFFFFF AND PUSH1 0x0 DUP1 SLOAD SWAP1 PUSH2 0x100 EXP SWAP1 DIV PUSH20 0xFFFFFFFFFFFFFFFFFFFFFFFFFFFFFFFFFFFFFFFF AND PUSH20 0xFFFFFFFFFFFFFFFFFFFFFFFFFFFFFFFFFFFFFFFF AND EQ JUMPDEST PUSH2 0x1A9A JUMPI PUSH1 0x40 MLOAD PUSH32 0x8C379A000000000000000000000000000000000000000000000000000000000 DUP2 MSTORE PUSH1 0x4 ADD PUSH2 0x1A91 SWAP1 PUSH2 0x2A60 JUMP JUMPDEST PUSH1 0x40 MLOAD DUP1 SWAP2 SUB SWAP1 REVERT JUMPDEST DUP2 PUSH1 0xE PUSH1 0x0 PUSH2 0x100 EXP DUP2 SLOAD DUP2 PUSH1 0xFF MUL NOT AND SWAP1 DUP4 ISZERO ISZERO MUL OR SWAP1 SSTORE POP DUP1 PUSH1 0xE PUSH1 0x1 PUSH2 0x100 EXP DUP2 SLOAD DUP2 PUSH1 0xFF MUL NOT AND SWAP1 DUP4 ISZERO ISZERO MUL OR SWAP1 SSTORE POP POP POP JUMP JUMPDEST PUSH1 0x1 PUSH1 0x0 SWAP1 SLOAD SWAP1 PUSH2 0x100 EXP SWAP1 DIV PUSH20 0xFFFFFFFFFFFFFFFFFFFFFFFFFFFFFFFFFFFFFFFF AND DUP2 JUMP JUMPDEST PUSH1 0x16 PUSH1 0x20 MSTORE DUP1 PUSH1 0x0 MSTORE PUSH1 0x40 PUSH1 0x0 KECCAK256 PUSH1 0x0 SWAP2 POP SWAP1 POP SLOAD DUP2 JUMP JUMPDEST PUSH1 0xC PUSH1 0x20 MSTORE DUP1 PUSH1 0x0 MSTORE PUSH1 0x40 PUSH1 0x0 KECCAK256 PUSH1 0x0 SWAP2 POP SWAP1 POP SLOAD DUP2 JUMP JUMPDEST PUSH1 0x3 PUSH1 0x0 SWAP1 SLOAD SWAP1 PUSH2 0x100 EXP SWAP1 DIV PUSH20 0xFFFFFFFFFFFFFFFFFFFFFFFFFFFFFFFFFFFFFFFF AND DUP2 JUMP JUMPDEST CALLER PUSH20 0xFFFFFFFFFFFFFFFFFFFFFFFFFFFFFFFFFFFFFFFF AND PUSH1 0x0 DUP1 SLOAD SWAP1 PUSH2 0x100 EXP SWAP1 DIV PUSH20 0xFFFFFFFFFFFFFFFFFFFFFFFFFFFFFFFFFFFFFFFF AND PUSH20 0xFFFFFFFFFFFFFFFFFFFFFFFFFFFFFFFFFFFFFFFF AND EQ DUP1 PUSH2 0x1BF3 JUMPI POP CALLER PUSH20 0xFFFFFFFFFFFFFFFFFFFFFFFFFFFFFFFFFFFFFFFF AND PUSH1 0x0 DUP1 SLOAD SWAP1 PUSH2 0x100 EXP SWAP1 DIV PUSH20 0xFFFFFFFFFFFFFFFFFFFFFFFFFFFFFFFFFFFFFFFF AND PUSH20 0xFFFFFFFFFFFFFFFFFFFFFFFFFFFFFFFFFFFFFFFF AND EQ JUMPDEST PUSH2 0x1C32 JUMPI PUSH1 0x40 MLOAD PUSH32 0x8C379A000000000000000000000000000000000000000000000000000000000 DUP2 MSTORE PUSH1 0x4 ADD PUSH2 0x1C29 SWAP1 PUSH2 0x2A60 JUMP JUMPDEST PUSH1 0x40 MLOAD DUP1 SWAP2 SUB SWAP1 REVERT JUMPDEST DUP6 PUSH1 0xF PUSH1 0x0 DUP10 PUSH20 0xFFFFFFFFFFFFFFFFFFFFFFFFFFFFFFFFFFFFFFFF AND PUSH20 0xFFFFFFFFFFFFFFFFFFFFFFFFFFFFFFFFFFFFFFFF AND DUP2 MSTORE PUSH1 0x20 ADD SWAP1 DUP2 MSTORE PUSH1 0x20 ADD PUSH1 0x0 KECCAK256 DUP2 SWAP1 SSTORE POP DUP5 PUSH1 0x12 PUSH1 0x0 DUP10 PUSH20 0xFFFFFFFFFFFFFFFFFFFFFFFFFFFFFFFFFFFFFFFF AND PUSH20 0xFFFFFFFFFFFFFFFFFFFFFFFFFFFFFFFFFFFFFFFF AND DUP2 MSTORE PUSH1 0x20 ADD SWAP1 DUP2 MSTORE PUSH1 0x20 ADD PUSH1 0x0 KECCAK256 DUP2 SWAP1 SSTORE POP DUP4 PUSH1 0x13 PUSH1 0x0 DUP10 PUSH20 0xFFFFFFFFFFFFFFFFFFFFFFFFFFFFFFFFFFFFFFFF AND PUSH20 0xFFFFFFFFFFFFFFFFFFFFFFFFFFFFFFFFFFFFFFFF AND DUP2 MSTORE PUSH1 0x20 ADD SWAP1 DUP2 MSTORE PUSH1 0x20 ADD PUSH1 0x0 KECCAK256 DUP2 SWAP1 SSTORE POP DUP3 PUSH1 0x14 PUSH1 0x0 DUP10 PUSH20 0xFFFFFFFFFFFFFFFFFFFFFFFFFFFFFFFFFFFFFFFF AND PUSH20 0xFFFFFFFFFFFFFFFFFFFFFFFFFFFFFFFFFFFFFFFF AND DUP2 MSTORE PUSH1 0x20 ADD SWAP1 DUP2 MSTORE PUSH1 0x20 ADD PUSH1 0x0 KECCAK256 DUP2 SWAP1 SSTORE POP DUP2 PUSH1 0x16 PUSH1 0x0 DUP10 PUSH20 0xFFFFFFFFFFFFFFFFFFFFFFFFFFFFFFFFFFFFFFFF AND PUSH20 0xFFFFFFFFFFFFFFFFFFFFFFFFFFFFFFFFFFFFFFFF AND DUP2 MSTORE PUSH1 0x20 ADD SWAP1 DUP2 MSTORE PUSH1 0x20 ADD PUSH1 0x0 KECCAK256 DUP2 SWAP1 SSTORE POP DUP1 PUSH1 0x15 PUSH1 0x0 DUP10 PUSH20 0xFFFFFFFFFFFFFFFFFFFFFFFFFFFFFFFFFFFFFFFF AND PUSH20 0xFFFFFFFFFFFFFFFFFFFFFFFFFFFFFFFFFFFFFFFF AND DUP2 MSTORE PUSH1 0x20 ADD SWAP1 DUP2 MSTORE PUSH1 0x20 ADD PUSH1 0x0 KECCAK256 DUP2 SWAP1 SSTORE POP POP POP POP POP POP POP POP JUMP JUMPDEST PUSH1 0xE PUSH1 0x1 SWAP1 SLOAD SWAP1 PUSH2 0x100 EXP SWAP1 DIV PUSH1 0xFF AND DUP2 JUMP JUMPDEST CALLER PUSH20 0xFFFFFFFFFFFFFFFFFFFFFFFFFFFFFFFFFFFFFFFF AND PUSH1 0x0 DUP1 SLOAD SWAP1 PUSH2 0x100 EXP SWAP1 DIV PUSH20 0xFFFFFFFFFFFFFFFFFFFFFFFFFFFFFFFFFFFFFFFF AND PUSH20 0xFFFFFFFFFFFFFFFFFFFFFFFFFFFFFFFFFFFFFFFF AND EQ DUP1 PUSH2 0x1E8B JUMPI POP CALLER PUSH20 0xFFFFFFFFFFFFFFFFFFFFFFFFFFFFFFFFFFFFFFFF AND PUSH1 0x0 DUP1 SLOAD SWAP1 PUSH2 0x100 EXP SWAP1 DIV PUSH20 0xFFFFFFFFFFFFFFFFFFFFFFFFFFFFFFFFFFFFFFFF AND PUSH20 0xFFFFFFFFFFFFFFFFFFFFFFFFFFFFFFFFFFFFFFFF AND EQ JUMPDEST PUSH2 0x1ECA JUMPI PUSH1 0x40 MLOAD PUSH32 0x8C379A000000000000000000000000000000000000000000000000000000000 DUP2 MSTORE PUSH1 0x4 ADD PUSH2 0x1EC1 SWAP1 PUSH2 0x2A60 JUMP JUMPDEST PUSH1 0x40 MLOAD DUP1 SWAP2 SUB SWAP1 REVERT JUMPDEST PUSH1 0x0 PUSH20 0xFFFFFFFFFFFFFFFFFFFFFFFFFFFFFFFFFFFFFFFF AND DUP2 PUSH20 0xFFFFFFFFFFFFFFFFFFFFFFFFFFFFFFFFFFFFFFFF AND SUB PUSH2 0x1F39 JUMPI PUSH1 0x40 MLOAD PUSH32 0x8C379A000000000000000000000000000000000000000000000000000000000 DUP2 MSTORE PUSH1 0x4 ADD PUSH2 0x1F30 SWAP1 PUSH2 0x2BE5 JUMP JUMPDEST PUSH1 0x40 MLOAD DUP1 SWAP2 SUB SWAP1 REVERT JUMPDEST DUP1 PUSH20 0xFFFFFFFFFFFFFFFFFFFFFFFFFFFFFFFFFFFFFFFF AND PUSH1 0x0 DUP1 SLOAD SWAP1 PUSH2 0x100 EXP SWAP1 DIV PUSH20 0xFFFFFFFFFFFFFFFFFFFFFFFFFFFFFFFFFFFFFFFF AND PUSH20 0xFFFFFFFFFFFFFFFFFFFFFFFFFFFFFFFFFFFFFFFF AND PUSH32 0x8BE0079C531659141344CD1FD0A4F28419497F9722A3DAAFE3B4186F6B6457E0 PUSH1 0x40 MLOAD PUSH1 0x40 MLOAD DUP1 SWAP2 SUB SWAP1 LOG3 DUP1 PUSH1 0x0 DUP1 PUSH2 0x100 EXP DUP2 SLOAD DUP2 PUSH20 0xFFFFFFFFFFFFFFFFFFFFFFFFFFFFFFFFFFFFFFFF MUL NOT AND SWAP1 DUP4 PUSH20 0xFFFFFFFFFFFFFFFFFFFFFFFFFFFFFFFFFFFFFFFF AND MUL OR SWAP1 SSTORE POP POP JUMP JUMPDEST PUSH1 0xE PUSH1 0x0 SWAP1 SLOAD SWAP1 PUSH2 0x100 EXP SWAP1 DIV PUSH1 0xFF AND DUP2 JUMP JUMPDEST PUSH1 0xE PUSH1 0x0 SWAP1 SLOAD SWAP1 PUSH2 0x100 EXP SWAP1 DIV PUSH1 0xFF AND PUSH2 0x2058 JUMPI PUSH1 0x40 MLOAD PUSH32 0x8C379A000000000000000000000000000000000000000000000000000000000 DUP2 MSTORE PUSH1 0x4 ADD PUSH2 0x204F SWAP1 PUSH2 0x2C51 JUMP JUMPDEST PUSH1 0x40 MLOAD DUP1 SWAP2 SUB SWAP1 REVERT JUMPDEST PUSH1 0x0 PUSH1 0x10 PUSH1 0x0 CALLER PUSH20 0xFFFFFFFFFFFFFFFFFFFFFFFFFFFFFFFFFFFFFFFF AND PUSH20 0xFFFFFFFFFFFFFFFFFFFFFFFFFFFFFFFFFFFFFFFF AND DUP2 MSTORE PUSH1 0x20 ADD SWAP1 DUP2 MSTORE PUSH1 0x20 ADD PUSH1 0x0 KECCAK256 SLOAD EQ PUSH2 0x20DA JUMPI PUSH1 0x40 MLOAD PUSH32 0x8C379A000000000000000000000000000000000000000000000000000000000 DUP2 MSTORE PUSH1 0x4 ADD PUSH2 0x20D1 SWAP1 PUSH2 0x2CBD JUMP JUMPDEST PUSH1 0x40 MLOAD DUP1 SWAP2 SUB SWAP1 REVERT JUMPDEST PUSH1 0x0 PUSH1 0x11 PUSH1 0x0 CALLER PUSH20 0xFFFFFFFFFFFFFFFFFFFFFFFFFFFFFFFFFFFFFFFF AND PUSH20 0xFFFFFFFFFFFFFFFFFFFFFFFFFFFFFFFFFFFFFFFF AND DUP2 MSTORE PUSH1 0x20 ADD SWAP1 DUP2 MSTORE PUSH1 0x20 ADD PUSH1 0x0 KECCAK256 SLOAD EQ PUSH2 0x215C JUMPI PUSH1 0x40 MLOAD PUSH32 0x8C379A000000000000000000000000000000000000000000000000000000000 DUP2 MSTORE PUSH1 0x4 ADD PUSH2 0x2153 SWAP1 PUSH2 0x2D29 JUMP JUMPDEST PUSH1 0x40 MLOAD DUP1 SWAP2 SUB SWAP1 REVERT JUMPDEST PUSH1 0x0 DUP4 GT PUSH2 0x219F JUMPI PUSH1 0x40 MLOAD PUSH32 0x8C379A000000000000000000000000000000000000000000000000000000000 DUP2 MSTORE PUSH1 0x4 ADD PUSH2 0x2196 SWAP1 PUSH2 0x2D95 JUMP JUMPDEST PUSH1 0x40 MLOAD DUP1 SWAP2 SUB SWAP1 REVERT JUMPDEST PUSH1 0x0 DUP3 GT PUSH2 0x21E2 JUMPI PUSH1 0x40 MLOAD PUSH32 0x8C379A000000000000000000000000000000000000000000000000000000000 DUP2 MSTORE PUSH1 0x4 ADD PUSH2 0x21D9 SWAP1 PUSH2 0x2E01 JUMP JUMPDEST PUSH1 0x40 MLOAD DUP1 SWAP2 SUB SWAP1 REVERT JUMPDEST PUSH1 0x9 SLOAD DUP2 EQ PUSH2 0x2226 JUMPI PUSH1 0x40 MLOAD PUSH32 0x8C379A000000000000000000000000000000000000000000000000000000000 DUP2 MSTORE PUSH1 0x4 ADD PUSH2 0x221D SWAP1 PUSH2 0x2E6D JUMP JUMPDEST PUSH1 0x40 MLOAD DUP1 SWAP2 SUB SWAP1 REVERT JUMPDEST PUSH1 0x0 PUSH1 0x1 SWAP1 POP PUSH1 0x4 PUSH1 0x0 SWAP1 SLOAD SWAP1 PUSH2 0x100 EXP SWAP1 DIV PUSH20 0xFFFFFFFFFFFFFFFFFFFFFFFFFFFFFFFFFFFFFFFF AND PUSH20 0xFFFFFFFFFFFFFFFFFFFFFFFFFFFFFFFFFFFFFFFF AND PUSH4 0x23B872DD CALLER ADDRESS DUP8 PUSH1 0x40 MLOAD DUP5 PUSH4 0xFFFFFFFF AND PUSH1 0xE0 SHL DUP2 MSTORE PUSH1 0x4 ADD PUSH2 0x228B SWAP4 SWAP3 SWAP2 SWAP1 PUSH2 0x2E8D JUMP JUMPDEST PUSH1 0x20 PUSH1 0x40 MLOAD DUP1 DUP4 SUB DUP2 PUSH1 0x0 DUP8 GAS CALL ISZERO DUP1 ISZERO PUSH2 0x22AA JUMPI RETURNDATASIZE PUSH1 0x0 DUP1 RETURNDATACOPY RETURNDATASIZE PUSH1 0x0 REVERT JUMPDEST POP POP POP POP PUSH1 0x40 MLOAD RETURNDATASIZE PUSH1 0x1F NOT PUSH1 0x1F DUP3 ADD AND DUP3 ADD DUP1 PUSH1 0x40 MSTORE POP DUP2 ADD SWAP1 PUSH2 0x22CE SWAP2 SWAP1 PUSH2 0x2B00 JUMP JUMPDEST POP PUSH1 0x5 PUSH1 0x0 SWAP1 SLOAD SWAP1 PUSH2 0x100 EXP SWAP1 DIV PUSH20 0xFFFFFFFFFFFFFFFFFFFFFFFFFFFFFFFFFFFFFFFF AND PUSH20 0xFFFFFFFFFFFFFFFFFFFFFFFFFFFFFFFFFFFFFFFF AND PUSH4 0x23B872DD CALLER ADDRESS DUP7 PUSH1 0x40 MLOAD DUP5 PUSH4 0xFFFFFFFF AND PUSH1 0xE0 SHL DUP2 MSTORE PUSH1 0x4 ADD PUSH2 0x232E SWAP4 SWAP3 SWAP2 SWAP1 PUSH2 0x2E8D JUMP JUMPDEST PUSH1 0x20 PUSH1 0x40 MLOAD DUP1 DUP4 SUB DUP2 PUSH1 0x0 DUP8 GAS CALL ISZERO DUP1 ISZERO PUSH2 0x234D JUMPI RETURNDATASIZE PUSH1 0x0 DUP1 RETURNDATACOPY RETURNDATASIZE PUSH1 0x0 REVERT JUMPDEST POP POP POP POP PUSH1 0x40 MLOAD RETURNDATASIZE PUSH1 0x1F NOT PUSH1 0x1F DUP3 ADD AND DUP3 ADD DUP1 PUSH1 0x40 MSTORE POP DUP2 ADD SWAP1 PUSH2 0x2371 SWAP2 SWAP1 PUSH2 0x2B00 JUMP JUMPDEST POP PUSH1 0x4 PUSH1 0x0 SWAP1 SLOAD SWAP1 PUSH2 0x100 EXP SWAP1 DIV PUSH20 0xFFFFFFFFFFFFFFFFFFFFFFFFFFFFFFFFFFFFFFFF AND PUSH20 0xFFFFFFFFFFFFFFFFFFFFFFFFFFFFFFFFFFFFFFFF AND PUSH4 0xA9059CBB PUSH1 0x6 PUSH1 0x0 SWAP1 SLOAD SWAP1 PUSH2 0x100 EXP SWAP1 DIV PUSH20 0xFFFFFFFFFFFFFFFFFFFFFFFFFFFFFFFFFFFFFFFF AND DUP7 PUSH1 0x40 MLOAD DUP4 PUSH4 0xFFFFFFFF AND PUSH1 0xE0 SHL DUP2 MSTORE PUSH1 0x4 ADD PUSH2 0x23F1 SWAP3 SWAP2 SWAP1 PUSH2 0x2AC2 JUMP JUMPDEST PUSH1 0x20 PUSH1 0x40 MLOAD DUP1 DUP4 SUB DUP2 PUSH1 0x0 DUP8 GAS CALL ISZERO DUP1 ISZERO PUSH2 0x2410 JUMPI RETURNDATASIZE PUSH1 0x0 DUP1 RETURNDATACOPY RETURNDATASIZE PUSH1 0x0 REVERT JUMPDEST POP POP POP POP PUSH1 0x40 MLOAD RETURNDATASIZE PUSH1 0x1F NOT PUSH1 0x1F DUP3 ADD AND DUP3 ADD DUP1 PUSH1 0x40 MSTORE POP DUP2 ADD SWAP1 PUSH2 0x2434 SWAP2 SWAP1 PUSH2 0x2B00 JUMP JUMPDEST POP PUSH1 0x5 PUSH1 0x0 SWAP1 SLOAD SWAP1 PUSH2 0x100 EXP SWAP1 DIV PUSH20 0xFFFFFFFFFFFFFFFFFFFFFFFFFFFFFFFFFFFFFFFF AND PUSH20 0xFFFFFFFFFFFFFFFFFFFFFFFFFFFFFFFFFFFFFFFF AND PUSH4 0xA9059CBB PUSH1 0x6 PUSH1 0x0 SWAP1 SLOAD SWAP1 PUSH2 0x100 EXP SWAP1 DIV PUSH20 0xFFFFFFFFFFFFFFFFFFFFFFFFFFFFFFFFFFFFFFFF AND DUP6 PUSH1 0x40 MLOAD DUP4 PUSH4 0xFFFFFFFF AND PUSH1 0xE0 SHL DUP2 MSTORE PUSH1 0x4 ADD PUSH2 0x24B4 SWAP3 SWAP2 SWAP1 PUSH2 0x2AC2 JUMP JUMPDEST PUSH1 0x20 PUSH1 0x40 MLOAD DUP1 DUP4 SUB DUP2 PUSH1 0x0 DUP8 GAS CALL ISZERO DUP1 ISZERO PUSH2 0x24D3 JUMPI RETURNDATASIZE PUSH1 0x0 DUP1 RETURNDATACOPY RETURNDATASIZE PUSH1 0x0 REVERT JUMPDEST POP POP POP POP PUSH1 0x40 MLOAD RETURNDATASIZE PUSH1 0x1F NOT PUSH1 0x1F DUP3 ADD AND DUP3 ADD DUP1 PUSH1 0x40 MSTORE POP DUP2 ADD SWAP1 PUSH2 0x24F7 SWAP2 SWAP1 PUSH2 0x2B00 JUMP JUMPDEST POP DUP4 PUSH1 0x10 PUSH1 0x0 CALLER PUSH20 0xFFFFFFFFFFFFFFFFFFFFFFFFFFFFFFFFFFFFFFFF AND PUSH20 0xFFFFFFFFFFFFFFFFFFFFFFFFFFFFFFFFFFFFFFFF AND DUP2 MSTORE PUSH1 0x20 ADD SWAP1 DUP2 MSTORE PUSH1 0x20 ADD PUSH1 0x0 KECCAK256 DUP2 SWAP1 SSTORE POP DUP3 PUSH1 0x11 PUSH1 0x0 CALLER PUSH20 0xFFFFFFFFFFFFFFFFFFFFFFFFFFFFFFFFFFFFFFFF AND PUSH20 0xFFFFFFFFFFFFFFFFFFFFFFFFFFFFFFFFFFFFFFFF AND DUP2 MSTORE PUSH1 0x20 ADD SWAP1 DUP2 MSTORE PUSH1 0x20 ADD PUSH1 0x0 KECCAK256 DUP2 SWAP1 SSTORE POP TIMESTAMP PUSH1 0x13 PUSH1 0x0 CALLER PUSH20 0xFFFFFFFFFFFFFFFFFFFFFFFFFFFFFFFFFFFFFFFF AND PUSH20 0xFFFFFFFFFFFFFFFFFFFFFFFFFFFFFFFFFFFFFFFF AND DUP2 MSTORE PUSH1 0x20 ADD SWAP1 DUP2 MSTORE PUSH1 0x20 ADD PUSH1 0x0 KECCAK256 DUP2 SWAP1 SSTORE POP TIMESTAMP PUSH1 0x14 PUSH1 0x0 CALLER PUSH20 0xFFFFFFFFFFFFFFFFFFFFFFFFFFFFFFFFFFFFFFFF AND PUSH20 0xFFFFFFFFFFFFFFFFFFFFFFFFFFFFFFFFFFFFFFFF AND DUP2 MSTORE PUSH1 0x20 ADD SWAP1 DUP2 MSTORE PUSH1 0x20 ADD PUSH1 0x0 KECCAK256 DUP2 SWAP1 SSTORE POP DUP2 TIMESTAMP PUSH2 0x2614 SWAP2 SWAP1 PUSH2 0x2EF3 JUMP JUMPDEST PUSH1 0x15 PUSH1 0x0 CALLER PUSH20 0xFFFFFFFFFFFFFFFFFFFFFFFFFFFFFFFFFFFFFFFF AND PUSH20 0xFFFFFFFFFFFFFFFFFFFFFFFFFFFFFFFFFFFFFFFF AND DUP2 MSTORE PUSH1 0x20 ADD SWAP1 DUP2 MSTORE PUSH1 0x20 ADD PUSH1 0x0 KECCAK256 DUP2 SWAP1 SSTORE POP DUP2 PUSH1 0x12 PUSH1 0x0 CALLER PUSH20 0xFFFFFFFFFFFFFFFFFFFFFFFFFFFFFFFFFFFFFFFF AND PUSH20 0xFFFFFFFFFFFFFFFFFFFFFFFFFFFFFFFFFFFFFFFF AND DUP2 MSTORE PUSH1 0x20 ADD SWAP1 DUP2 MSTORE PUSH1 0x20 ADD PUSH1 0x0 KECCAK256 DUP2 SWAP1 SSTORE POP DUP1 PUSH1 0x16 PUSH1 0x0 CALLER PUSH20 0xFFFFFFFFFFFFFFFFFFFFFFFFFFFFFFFFFFFFFFFF AND PUSH20 0xFFFFFFFFFFFFFFFFFFFFFFFFFFFFFFFFFFFFFFFF AND DUP2 MSTORE PUSH1 0x20 ADD SWAP1 DUP2 MSTORE PUSH1 0x20 ADD PUSH1 0x0 KECCAK256 DUP2 SWAP1 SSTORE POP POP POP POP POP JUMP JUMPDEST PUSH1 0x0 DUP1 REVERT JUMPDEST PUSH1 0x0 DUP2 SWAP1 POP SWAP2 SWAP1 POP JUMP JUMPDEST PUSH2 0x26FD DUP2 PUSH2 0x26EA JUMP JUMPDEST DUP2 EQ PUSH2 0x2708 JUMPI PUSH1 0x0 DUP1 REVERT JUMPDEST POP JUMP JUMPDEST PUSH1 0x0 DUP2 CALLDATALOAD SWAP1 POP PUSH2 0x271A DUP2 PUSH2 0x26F4 JUMP JUMPDEST SWAP3 SWAP2 POP POP JUMP JUMPDEST PUSH1 0x0 PUSH1 0x20 DUP3 DUP5 SUB SLT ISZERO PUSH2 0x2736 JUMPI PUSH2 0x2735 PUSH2 0x26E5 JUMP JUMPDEST JUMPDEST PUSH1 0x0 PUSH2 0x2744 DUP5 DUP3 DUP6 ADD PUSH2 0x270B JUMP JUMPDEST SWAP2 POP POP SWAP3 SWAP2 POP POP JUMP JUMPDEST PUSH1 0x0 PUSH20 0xFFFFFFFFFFFFFFFFFFFFFFFFFFFFFFFFFFFFFFFF DUP3 AND SWAP1 POP SWAP2 SWAP1 POP JUMP JUMPDEST PUSH1 0x0 PUSH2 0x2778 DUP3 PUSH2 0x274D JUMP JUMPDEST SWAP1 POP SWAP2 SWAP1 POP JUMP JUMPDEST PUSH2 0x2788 DUP2 PUSH2 0x276D JUMP JUMPDEST DUP2 EQ PUSH2 0x2793 JUMPI PUSH1 0x0 DUP1 REVERT JUMPDEST POP JUMP JUMPDEST PUSH1 0x0 DUP2 CALLDATALOAD SWAP1 POP PUSH2 0x27A5 DUP2 PUSH2 0x277F JUMP JUMPDEST SWAP3 SWAP2 POP POP JUMP JUMPDEST PUSH1 0x0 PUSH1 0x20 DUP3 DUP5 SUB SLT ISZERO PUSH2 0x27C1 JUMPI PUSH2 0x27C0 PUSH2 0x26E5 JUMP JUMPDEST JUMPDEST PUSH1 0x0 PUSH2 0x27CF DUP5 DUP3 DUP6 ADD PUSH2 0x2796 JUMP JUMPDEST SWAP2 POP POP SWAP3 SWAP2 POP POP JUMP JUMPDEST PUSH2 0x27E1 DUP2 PUSH2 0x26EA JUMP JUMPDEST DUP3 MSTORE POP POP JUMP JUMPDEST PUSH1 0x0 PUSH1 0x20 DUP3 ADD SWAP1 POP PUSH2 0x27FC PUSH1 0x0 DUP4 ADD DUP5 PUSH2 0x27D8 JUMP JUMPDEST SWAP3 SWAP2 POP POP JUMP JUMPDEST PUSH1 0x0 DUP2 ISZERO ISZERO SWAP1 POP SWAP2 SWAP1 POP JUMP JUMPDEST PUSH2 0x2817 DUP2 PUSH2 0x2802 JUMP JUMPDEST DUP3 MSTORE POP POP JUMP JUMPDEST PUSH1 0x0 PUSH1 0x20 DUP3 ADD SWAP1 POP PUSH2 0x2832 PUSH1 0x0 DUP4 ADD DUP5 PUSH2 0x280E JUMP JUMPDEST SWAP3 SWAP2 POP POP JUMP JUMPDEST PUSH2 0x2841 DUP2 PUSH2 0x276D JUMP JUMPDEST DUP3 MSTORE POP POP JUMP JUMPDEST PUSH1 0x0 PUSH1 0x20 DUP3 ADD SWAP1 POP PUSH2 0x285C PUSH1 0x0 DUP4 ADD DUP5 PUSH2 0x2838 JUMP JUMPDEST SWAP3 SWAP2 POP POP JUMP JUMPDEST PUSH1 0x0 DUP1 PUSH1 0x40 DUP4 DUP6 SUB SLT ISZERO PUSH2 0x2879 JUMPI PUSH2 0x2878 PUSH2 0x26E5 JUMP JUMPDEST JUMPDEST PUSH1 0x0 PUSH2 0x2887 DUP6 DUP3 DUP7 ADD PUSH2 0x2796 JUMP JUMPDEST SWAP3 POP POP PUSH1 0x20 PUSH2 0x2898 DUP6 DUP3 DUP7 ADD PUSH2 0x270B JUMP JUMPDEST SWAP2 POP POP SWAP3 POP SWAP3 SWAP1 POP JUMP JUMPDEST PUSH2 0x28AB DUP2 PUSH2 0x2802 JUMP JUMPDEST DUP2 EQ PUSH2 0x28B6 JUMPI PUSH1 0x0 DUP1 REVERT JUMPDEST POP JUMP JUMPDEST PUSH1 0x0 DUP2 CALLDATALOAD SWAP1 POP PUSH2 0x28C8 DUP2 PUSH2 0x28A2 JUMP JUMPDEST SWAP3 SWAP2 POP POP JUMP JUMPDEST PUSH1 0x0 DUP1 PUSH1 0x40 DUP4 DUP6 SUB SLT ISZERO PUSH2 0x28E5 JUMPI PUSH2 0x28E4 PUSH2 0x26E5 JUMP JUMPDEST JUMPDEST PUSH1 0x0 PUSH2 0x28F3 DUP6 DUP3 DUP7 ADD PUSH2 0x28B9 JUMP JUMPDEST SWAP3 POP POP PUSH1 0x20 PUSH2 0x2904 DUP6 DUP3 DUP7 ADD PUSH2 0x28B9 JUMP JUMPDEST SWAP2 POP POP SWAP3 POP SWAP3 SWAP1 POP JUMP JUMPDEST PUSH1 0x0 DUP1 PUSH1 0x0 DUP1 PUSH1 0x0 DUP1 PUSH1 0x0 PUSH1 0xE0 DUP9 DUP11 SUB SLT ISZERO PUSH2 0x292D JUMPI PUSH2 0x292C PUSH2 0x26E5 JUMP JUMPDEST JUMPDEST PUSH1 0x0 PUSH2 0x293B DUP11 DUP3 DUP12 ADD PUSH2 0x2796 JUMP JUMPDEST SWAP8 POP POP PUSH1 0x20 PUSH2 0x294C DUP11 DUP3 DUP12 ADD PUSH2 0x270B JUMP JUMPDEST SWAP7 POP POP PUSH1 0x40 PUSH2 0x295D DUP11 DUP3 DUP12 ADD PUSH2 0x270B JUMP JUMPDEST SWAP6 POP POP PUSH1 0x60 PUSH2 0x296E DUP11 DUP3 DUP12 ADD PUSH2 0x270B JUMP JUMPDEST SWAP5 POP POP PUSH1 0x80 PUSH2 0x297F DUP11 DUP3 DUP12 ADD PUSH2 0x270B JUMP JUMPDEST SWAP4 POP POP PUSH1 0xA0 PUSH2 0x2990 DUP11 DUP3 DUP12 ADD PUSH2 0x270B JUMP JUMPDEST SWAP3 POP POP PUSH1 0xC0 PUSH2 0x29A1 DUP11 DUP3 DUP12 ADD PUSH2 0x270B JUMP JUMPDEST SWAP2 POP POP SWAP3 SWAP6 SWAP9 SWAP2 SWAP5 SWAP8 POP SWAP3 SWAP6 POP JUMP JUMPDEST PUSH1 0x0 DUP1 PUSH1 0x0 PUSH1 0x60 DUP5 DUP7 SUB SLT ISZERO PUSH2 0x29C9 JUMPI PUSH2 0x29C8 PUSH2 0x26E5 JUMP JUMPDEST JUMPDEST PUSH1 0x0 PUSH2 0x29D7 DUP7 DUP3 DUP8 ADD PUSH2 0x270B JUMP JUMPDEST SWAP4 POP POP PUSH1 0x20 PUSH2 0x29E8 DUP7 DUP3 DUP8 ADD PUSH2 0x270B JUMP JUMPDEST SWAP3 POP POP PUSH1 0x40 PUSH2 0x29F9 DUP7 DUP3 DUP8 ADD PUSH2 0x270B JUMP JUMPDEST SWAP2 POP POP SWAP3 POP SWAP3 POP SWAP3 JUMP JUMPDEST PUSH1 0x0 DUP3 DUP3 MSTORE PUSH1 0x20 DUP3 ADD SWAP1 POP SWAP3 SWAP2 POP POP JUMP JUMPDEST PUSH32 0x216F776E65720000000000000000000000000000000000000000000000000000 PUSH1 0x0 DUP3 ADD MSTORE POP JUMP JUMPDEST PUSH1 0x0 PUSH2 0x2A4A PUSH1 0x6 DUP4 PUSH2 0x2A03 JUMP JUMPDEST SWAP2 POP PUSH2 0x2A55 DUP3 PUSH2 0x2A14 JUMP JUMPDEST PUSH1 0x20 DUP3 ADD SWAP1 POP SWAP2 SWAP1 POP JUMP JUMPDEST PUSH1 0x0 PUSH1 0x20 DUP3 ADD SWAP1 POP DUP2 DUP2 SUB PUSH1 0x0 DUP4 ADD MSTORE PUSH2 0x2A79 DUP2 PUSH2 0x2A3D JUMP JUMPDEST SWAP1 POP SWAP2 SWAP1 POP JUMP JUMPDEST PUSH1 0x0 DUP2 MLOAD SWAP1 POP PUSH2 0x2A8F DUP2 PUSH2 0x26F4 JUMP JUMPDEST SWAP3 SWAP2 POP POP JUMP JUMPDEST PUSH1 0x0 PUSH1 0x20 DUP3 DUP5 SUB SLT ISZERO PUSH2 0x2AAB JUMPI PUSH2 0x2AAA PUSH2 0x26E5 JUMP JUMPDEST JUMPDEST PUSH1 0x0 PUSH2 0x2AB9 DUP5 DUP3 DUP6 ADD PUSH2 0x2A80 JUMP JUMPDEST SWAP2 POP POP SWAP3 SWAP2 POP POP JUMP JUMPDEST PUSH1 0x0 PUSH1 0x40 DUP3 ADD SWAP1 POP PUSH2 0x2AD7 PUSH1 0x0 DUP4 ADD DUP6 PUSH2 0x2838 JUMP JUMPDEST PUSH2 0x2AE4 PUSH1 0x20 DUP4 ADD DUP5 PUSH2 0x27D8 JUMP JUMPDEST SWAP4 SWAP3 POP POP POP JUMP JUMPDEST PUSH1 0x0 DUP2 MLOAD SWAP1 POP PUSH2 0x2AFA DUP2 PUSH2 0x28A2 JUMP JUMPDEST SWAP3 SWAP2 POP POP JUMP JUMPDEST PUSH1 0x0 PUSH1 0x20 DUP3 DUP5 SUB SLT ISZERO PUSH2 0x2B16 JUMPI PUSH2 0x2B15 PUSH2 0x26E5 JUMP JUMPDEST JUMPDEST PUSH1 0x0 PUSH2 0x2B24 DUP5 DUP3 DUP6 ADD PUSH2 0x2AEB JUMP JUMPDEST SWAP2 POP POP SWAP3 SWAP2 POP POP JUMP JUMPDEST PUSH32 0x6E6F74207374616B650000000000000000000000000000000000000000000000 PUSH1 0x0 DUP3 ADD MSTORE POP JUMP JUMPDEST PUSH1 0x0 PUSH2 0x2B63 PUSH1 0x9 DUP4 PUSH2 0x2A03 JUMP JUMPDEST SWAP2 POP PUSH2 0x2B6E DUP3 PUSH2 0x2B2D JUMP JUMPDEST PUSH1 0x20 DUP3 ADD SWAP1 POP SWAP2 SWAP1 POP JUMP JUMPDEST PUSH1 0x0 PUSH1 0x20 DUP3 ADD SWAP1 POP DUP2 DUP2 SUB PUSH1 0x0 DUP4 ADD MSTORE PUSH2 0x2B92 DUP2 PUSH2 0x2B56 JUMP JUMPDEST SWAP1 POP SWAP2 SWAP1 POP JUMP JUMPDEST PUSH32 0x6E65772069732030000000000000000000000000000000000000000000000000 PUSH1 0x0 DUP3 ADD MSTORE POP JUMP JUMPDEST PUSH1 0x0 PUSH2 0x2BCF PUSH1 0x8 DUP4 PUSH2 0x2A03 JUMP JUMPDEST SWAP2 POP PUSH2 0x2BDA DUP3 PUSH2 0x2B99 JUMP JUMPDEST PUSH1 0x20 DUP3 ADD SWAP1 POP SWAP2 SWAP1 POP JUMP JUMPDEST PUSH1 0x0 PUSH1 0x20 DUP3 ADD SWAP1 POP DUP2 DUP2 SUB PUSH1 0x0 DUP4 ADD MSTORE PUSH2 0x2BFE DUP2 PUSH2 0x2BC2 JUMP JUMPDEST SWAP1 POP SWAP2 SWAP1 POP JUMP JUMPDEST PUSH32 0x6E6F742073746172740000000000000000000000000000000000000000000000 PUSH1 0x0 DUP3 ADD MSTORE POP JUMP JUMPDEST PUSH1 0x0 PUSH2 0x2C3B PUSH1 0x9 DUP4 PUSH2 0x2A03 JUMP JUMPDEST SWAP2 POP PUSH2 0x2C46 DUP3 PUSH2 0x2C05 JUMP JUMPDEST PUSH1 0x20 DUP3 ADD SWAP1 POP SWAP2 SWAP1 POP JUMP JUMPDEST PUSH1 0x0 PUSH1 0x20 DUP3 ADD SWAP1 POP DUP2 DUP2 SUB PUSH1 0x0 DUP4 ADD MSTORE PUSH2 0x2C6A DUP2 PUSH2 0x2C2E JUMP JUMPDEST SWAP1 POP SWAP2 SWAP1 POP JUMP JUMPDEST PUSH32 0x616C7265616479207374616B6559000000000000000000000000000000000000 PUSH1 0x0 DUP3 ADD MSTORE POP JUMP JUMPDEST PUSH1 0x0 PUSH2 0x2CA7 PUSH1 0xE DUP4 PUSH2 0x2A03 JUMP JUMPDEST SWAP2 POP PUSH2 0x2CB2 DUP3 PUSH2 0x2C71 JUMP JUMPDEST PUSH1 0x20 DUP3 ADD SWAP1 POP SWAP2 SWAP1 POP JUMP JUMPDEST PUSH1 0x0 PUSH1 0x20 DUP3 ADD SWAP1 POP DUP2 DUP2 SUB PUSH1 0x0 DUP4 ADD MSTORE PUSH2 0x2CD6 DUP2 PUSH2 0x2C9A JUMP JUMPDEST SWAP1 POP SWAP2 SWAP1 POP JUMP JUMPDEST PUSH32 0x616C7265616479207374616B6542000000000000000000000000000000000000 PUSH1 0x0 DUP3 ADD MSTORE POP JUMP JUMPDEST PUSH1 0x0 PUSH2 0x2D13 PUSH1 0xE DUP4 PUSH2 0x2A03 JUMP JUMPDEST SWAP2 POP PUSH2 0x2D1E DUP3 PUSH2 0x2CDD JUMP JUMPDEST PUSH1 0x20 DUP3 ADD SWAP1 POP SWAP2 SWAP1 POP JUMP JUMPDEST PUSH1 0x0 PUSH1 0x20 DUP3 ADD SWAP1 POP DUP2 DUP2 SUB PUSH1 0x0 DUP4 ADD MSTORE PUSH2 0x2D42 DUP2 PUSH2 0x2D06 JUMP JUMPDEST SWAP1 POP SWAP2 SWAP1 POP JUMP JUMPDEST PUSH32 0x7A65726F2059616D6F756E740000000000000000000000000000000000000000 PUSH1 0x0 DUP3 ADD MSTORE POP JUMP JUMPDEST PUSH1 0x0 PUSH2 0x2D7F PUSH1 0xC DUP4 PUSH2 0x2A03 JUMP JUMPDEST SWAP2 POP PUSH2 0x2D8A DUP3 PUSH2 0x2D49 JUMP JUMPDEST PUSH1 0x20 DUP3 ADD SWAP1 POP SWAP2 SWAP1 POP JUMP JUMPDEST PUSH1 0x0 PUSH1 0x20 DUP3 ADD SWAP1 POP DUP2 DUP2 SUB PUSH1 0x0 DUP4 ADD MSTORE PUSH2 0x2DAE DUP2 PUSH2 0x2D72 JUMP JUMPDEST SWAP1 POP SWAP2 SWAP1 POP JUMP JUMPDEST PUSH32 0x7A65726F2042616D6F756E740000000000000000000000000000000000000000 PUSH1 0x0 DUP3 ADD MSTORE POP JUMP JUMPDEST PUSH1 0x0 PUSH2 0x2DEB PUSH1 0xC DUP4 PUSH2 0x2A03 JUMP JUMPDEST SWAP2 POP PUSH2 0x2DF6 DUP3 PUSH2 0x2DB5 JUMP JUMPDEST PUSH1 0x20 DUP3 ADD SWAP1 POP SWAP2 SWAP1 POP JUMP JUMPDEST PUSH1 0x0 PUSH1 0x20 DUP3 ADD SWAP1 POP DUP2 DUP2 SUB PUSH1 0x0 DUP4 ADD MSTORE PUSH2 0x2E1A DUP2 PUSH2 0x2DDE JUMP JUMPDEST SWAP1 POP SWAP2 SWAP1 POP JUMP JUMPDEST PUSH32 0x6E6F742072696768742074696D65000000000000000000000000000000000000 PUSH1 0x0 DUP3 ADD MSTORE POP JUMP JUMPDEST PUSH1 0x0 PUSH2 0x2E57 PUSH1 0xE DUP4 PUSH2 0x2A03 JUMP JUMPDEST SWAP2 POP PUSH2 0x2E62 DUP3 PUSH2 0x2E21 JUMP JUMPDEST PUSH1 0x20 DUP3 ADD SWAP1 POP SWAP2 SWAP1 POP JUMP JUMPDEST PUSH1 0x0 PUSH1 0x20 DUP3 ADD SWAP1 POP DUP2 DUP2 SUB PUSH1 0x0 DUP4 ADD MSTORE PUSH2 0x2E86 DUP2 PUSH2 0x2E4A JUMP JUMPDEST SWAP1 POP SWAP2 SWAP1 POP JUMP JUMPDEST PUSH1 0x0 PUSH1 0x60 DUP3 ADD SWAP1 POP PUSH2 0x2EA2 PUSH1 0x0 DUP4 ADD DUP7 PUSH2 0x2838 JUMP JUMPDEST PUSH2 0x2EAF PUSH1 0x20 DUP4 ADD DUP6 PUSH2 0x2838 JUMP JUMPDEST PUSH2 0x2EBC PUSH1 0x40 DUP4 ADD DUP5 PUSH2 0x27D8 JUMP JUMPDEST SWAP5 SWAP4 POP POP POP POP JUMP JUMPDEST PUSH32 0x4E487B7100000000000000000000000000000000000000000000000000000000 PUSH1 0x0 MSTORE PUSH1 0x11 PUSH1 0x4 MSTORE PUSH1 0x24 PUSH1 0x0 REVERT JUMPDEST PUSH1 0x0 PUSH2 0x2EFE DUP3 PUSH2 0x26EA JUMP JUMPDEST SWAP2 POP PUSH2 0x2F09 DUP4 PUSH2 0x26EA JUMP JUMPDEST SWAP3 POP DUP3 DUP3 ADD SWAP1 POP DUP1 DUP3 GT ISZERO PUSH2 0x2F21 JUMPI PUSH2 0x2F20 PUSH2 0x2EC4 JUMP JUMPDEST JUMPDEST SWAP3 SWAP2 POP POP JUMP INVALID LOG2 PUSH5 0x6970667358 0x22 SLT KECCAK256 PUSH22 0xA504F9AF1A258384C2BE10D935D9482268057316479C MSIZE 0xBF 0xA9 0xE1 0xD1 0xB5 DUP10 DUP3 NUMBER PUSH5 0x736F6C6343 STOP ADDMOD SGT STOP CALLER "
				},
				"gasEstimates": {
					"creation": {
						"codeDepositCost": "2425000",
						"executionCost": "311039",
						"totalCost": "2736039"
					},
					"external": {
						"_aToken()": "2582",
						"_adminToken()": "2581",
						"_bToken()": "2604",
						"_inviteNum(address)": "2904",
						"_inviterMap(address)": "infinite",
						"_inviterReward(address)": "2947",
						"_lpPriceToken()": "2558",
						"_proportion()": "2497",
						"_rewardToken()": "2603",
						"_stake1()": "2562",
						"_stake3()": "2541",
						"_stake5()": "2497",
						"_stakeToken()": "2625",
						"_userBlacklist(address)": "2980",
						"_userEndClaimTime(address)": "2883",
						"_userLastClaimTime(address)": "2860",
						"_userPower(address)": "2925",
						"_userStake(address)": "2903",
						"_userStakeB(address)": "2948",
						"_userStakeStartTime(address)": "2860",
						"_userStakeTime(address)": "2925",
						"_userStakeY(address)": "2859",
						"cancalStackOver(uint256)": "infinite",
						"claimReward_all(address,uint256)": "infinite",
						"isClaimStart()": "2609",
						"isStakeStart()": "2603",
						"lpPrice()": "infinite",
						"owner()": "2567",
						"ownerSetUser(address,uint256,uint256,uint256,uint256,uint256,uint256)": "infinite",
						"setProportion(uint256)": "26906",
						"setStakeToken(address)": "29152",
						"setStatus(bool,bool)": "infinite",
						"setUserBlacklist(address)": "31470",
						"set_aToken(address)": "29173",
						"set_adminToken(address)": "29195",
						"set_bToken(address)": "29107",
						"set_rewardToken(address)": "29194",
						"setlpPriceToken(address)": "29150",
						"stakeYB(uint256,uint256,uint256)": "infinite",
						"transferOwnership(address)": "32884",
						"withdraw()": "infinite"
					}
				},
				"methodIdentifiers": {
					"_aToken()": "7a1a959b",
					"_adminToken()": "6b8de0bf",
					"_bToken()": "3375d043",
					"_inviteNum(address)": "1896b2c4",
					"_inviterMap(address)": "264edc1d",
					"_inviterReward(address)": "dd8158e0",
					"_lpPriceToken()": "e53595ed",
					"_proportion()": "2eae667d",
					"_rewardToken()": "b59c6e0e",
					"_stake1()": "a6b14d5a",
					"_stake3()": "853e03e5",
					"_stake5()": "18883877",
					"_stakeToken()": "71ddda57",
					"_userBlacklist(address)": "115a972e",
					"_userEndClaimTime(address)": "0356c98f",
					"_userLastClaimTime(address)": "7929e29f",
					"_userPower(address)": "bef4533c",
					"_userStake(address)": "9805fa74",
					"_userStakeB(address)": "8ace0d0c",
					"_userStakeStartTime(address)": "16c259e1",
					"_userStakeTime(address)": "a041e172",
					"_userStakeY(address)": "a6f9a1d5",
					"cancalStackOver(uint256)": "91f6963c",
					"claimReward_all(address,uint256)": "69f65dc2",
					"isClaimStart()": "e650d293",
					"isStakeStart()": "f3ef99bc",
					"lpPrice()": "0c280444",
					"owner()": "8da5cb5b",
					"ownerSetUser(address,uint256,uint256,uint256,uint256,uint256,uint256)": "e61ee218",
					"setProportion(uint256)": "006cd200",
					"setStakeToken(address)": "0397d458",
					"setStatus(bool,bool)": "b3c2eac1",
					"setUserBlacklist(address)": "7d4cbd57",
					"set_aToken(address)": "1f54dbfe",
					"set_adminToken(address)": "460199b3",
					"set_bToken(address)": "28c4333e",
					"set_rewardToken(address)": "7535b3e5",
					"setlpPriceToken(address)": "6d37b382",
					"stakeYB(uint256,uint256,uint256)": "f7a278bc",
					"transferOwnership(address)": "f2fde38b",
					"withdraw()": "3ccfd60b"
				}
			},
			"storageLayout": {
				"storage": [
					{
						"astId": 91,
						"contract": "contracts/ebcTrans/Copy_stakeEbc.sol:Stake",
						"label": "_owner",
						"offset": 0,
						"slot": "0",
						"type": "t_address"
					},
					{
						"astId": 526,
						"contract": "contracts/ebcTrans/Copy_stakeEbc.sol:Stake",
						"label": "_rewardToken",
						"offset": 0,
						"slot": "1",
						"type": "t_address"
					},
					{
						"astId": 529,
						"contract": "contracts/ebcTrans/Copy_stakeEbc.sol:Stake",
						"label": "_stakeToken",
						"offset": 0,
						"slot": "2",
						"type": "t_address"
					},
					{
						"astId": 532,
						"contract": "contracts/ebcTrans/Copy_stakeEbc.sol:Stake",
						"label": "_lpPriceToken",
						"offset": 0,
						"slot": "3",
						"type": "t_address"
					},
					{
						"astId": 535,
						"contract": "contracts/ebcTrans/Copy_stakeEbc.sol:Stake",
						"label": "_aToken",
						"offset": 0,
						"slot": "4",
						"type": "t_address"
					},
					{
						"astId": 538,
						"contract": "contracts/ebcTrans/Copy_stakeEbc.sol:Stake",
						"label": "_bToken",
						"offset": 0,
						"slot": "5",
						"type": "t_address"
					},
					{
						"astId": 541,
						"contract": "contracts/ebcTrans/Copy_stakeEbc.sol:Stake",
						"label": "_adminToken",
						"offset": 0,
						"slot": "6",
						"type": "t_address"
					},
					{
						"astId": 548,
						"contract": "contracts/ebcTrans/Copy_stakeEbc.sol:Stake",
						"label": "_stake1",
						"offset": 0,
						"slot": "7",
						"type": "t_uint256"
					},
					{
						"astId": 555,
						"contract": "contracts/ebcTrans/Copy_stakeEbc.sol:Stake",
						"label": "_stake3",
						"offset": 0,
						"slot": "8",
						"type": "t_uint256"
					},
					{
						"astId": 562,
						"contract": "contracts/ebcTrans/Copy_stakeEbc.sol:Stake",
						"label": "_stake5",
						"offset": 0,
						"slot": "9",
						"type": "t_uint256"
					},
					{
						"astId": 565,
						"contract": "contracts/ebcTrans/Copy_stakeEbc.sol:Stake",
						"label": "_proportion",
						"offset": 0,
						"slot": "10",
						"type": "t_uint256"
					},
					{
						"astId": 569,
						"contract": "contracts/ebcTrans/Copy_stakeEbc.sol:Stake",
						"label": "_inviterMap",
						"offset": 0,
						"slot": "11",
						"type": "t_mapping(t_address,t_address)"
					},
					{
						"astId": 573,
						"contract": "contracts/ebcTrans/Copy_stakeEbc.sol:Stake",
						"label": "_inviterReward",
						"offset": 0,
						"slot": "12",
						"type": "t_mapping(t_address,t_uint256)"
					},
					{
						"astId": 577,
						"contract": "contracts/ebcTrans/Copy_stakeEbc.sol:Stake",
						"label": "_inviteNum",
						"offset": 0,
						"slot": "13",
						"type": "t_mapping(t_address,t_uint256)"
					},
					{
						"astId": 580,
						"contract": "contracts/ebcTrans/Copy_stakeEbc.sol:Stake",
						"label": "isStakeStart",
						"offset": 0,
						"slot": "14",
						"type": "t_bool"
					},
					{
						"astId": 583,
						"contract": "contracts/ebcTrans/Copy_stakeEbc.sol:Stake",
						"label": "isClaimStart",
						"offset": 1,
						"slot": "14",
						"type": "t_bool"
					},
					{
						"astId": 587,
						"contract": "contracts/ebcTrans/Copy_stakeEbc.sol:Stake",
						"label": "_userStake",
						"offset": 0,
						"slot": "15",
						"type": "t_mapping(t_address,t_uint256)"
					},
					{
						"astId": 591,
						"contract": "contracts/ebcTrans/Copy_stakeEbc.sol:Stake",
						"label": "_userStakeY",
						"offset": 0,
						"slot": "16",
						"type": "t_mapping(t_address,t_uint256)"
					},
					{
						"astId": 595,
						"contract": "contracts/ebcTrans/Copy_stakeEbc.sol:Stake",
						"label": "_userStakeB",
						"offset": 0,
						"slot": "17",
						"type": "t_mapping(t_address,t_uint256)"
					},
					{
						"astId": 599,
						"contract": "contracts/ebcTrans/Copy_stakeEbc.sol:Stake",
						"label": "_userStakeTime",
						"offset": 0,
						"slot": "18",
						"type": "t_mapping(t_address,t_uint256)"
					},
					{
						"astId": 603,
						"contract": "contracts/ebcTrans/Copy_stakeEbc.sol:Stake",
						"label": "_userStakeStartTime",
						"offset": 0,
						"slot": "19",
						"type": "t_mapping(t_address,t_uint256)"
					},
					{
						"astId": 607,
						"contract": "contracts/ebcTrans/Copy_stakeEbc.sol:Stake",
						"label": "_userLastClaimTime",
						"offset": 0,
						"slot": "20",
						"type": "t_mapping(t_address,t_uint256)"
					},
					{
						"astId": 611,
						"contract": "contracts/ebcTrans/Copy_stakeEbc.sol:Stake",
						"label": "_userEndClaimTime",
						"offset": 0,
						"slot": "21",
						"type": "t_mapping(t_address,t_uint256)"
					},
					{
						"astId": 615,
						"contract": "contracts/ebcTrans/Copy_stakeEbc.sol:Stake",
						"label": "_userPower",
						"offset": 0,
						"slot": "22",
						"type": "t_mapping(t_address,t_uint256)"
					},
					{
						"astId": 619,
						"contract": "contracts/ebcTrans/Copy_stakeEbc.sol:Stake",
						"label": "_userBlacklist",
						"offset": 0,
						"slot": "23",
						"type": "t_mapping(t_address,t_bool)"
					}
				],
				"types": {
					"t_address": {
						"encoding": "inplace",
						"label": "address",
						"numberOfBytes": "20"
					},
					"t_bool": {
						"encoding": "inplace",
						"label": "bool",
						"numberOfBytes": "1"
					},
					"t_mapping(t_address,t_address)": {
						"encoding": "mapping",
						"key": "t_address",
						"label": "mapping(address => address)",
						"numberOfBytes": "32",
						"value": "t_address"
					},
					"t_mapping(t_address,t_bool)": {
						"encoding": "mapping",
						"key": "t_address",
						"label": "mapping(address => bool)",
						"numberOfBytes": "32",
						"value": "t_bool"
					},
					"t_mapping(t_address,t_uint256)": {
						"encoding": "mapping",
						"key": "t_address",
						"label": "mapping(address => uint256)",
						"numberOfBytes": "32",
						"value": "t_uint256"
					},
					"t_uint256": {
						"encoding": "inplace",
						"label": "uint256",
						"numberOfBytes": "32"
					}
				}
			},
			"userdoc": {
				"kind": "user",
				"methods": {},
				"version": 1
			}
		}
	}
}