{
	"contracts/ebcTrans/stakeEbcV1.sol": {
		"Stake": {
			"abi": [
				{
					"anonymous": false,
					"inputs": [
						{
							"indexed": true,
							"internalType": "address",
							"name": "previousOwner",
							"type": "address"
						},
						{
							"indexed": true,
							"internalType": "address",
							"name": "newOwner",
							"type": "address"
						}
					],
					"name": "OwnershipTransferred",
					"type": "event"
				},
				{
					"inputs": [],
					"name": "_aToken",
					"outputs": [
						{
							"internalType": "address",
							"name": "",
							"type": "address"
						}
					],
					"stateMutability": "view",
					"type": "function"
				},
				{
					"inputs": [],
					"name": "_adminToken",
					"outputs": [
						{
							"internalType": "address",
							"name": "",
							"type": "address"
						}
					],
					"stateMutability": "view",
					"type": "function"
				},
				{
					"inputs": [],
					"name": "_bToken",
					"outputs": [
						{
							"internalType": "address",
							"name": "",
							"type": "address"
						}
					],
					"stateMutability": "view",
					"type": "function"
				},
				{
					"inputs": [
						{
							"internalType": "string",
							"name": "",
							"type": "string"
						}
					],
					"name": "_backstr",
					"outputs": [
						{
							"internalType": "string",
							"name": "",
							"type": "string"
						}
					],
					"stateMutability": "view",
					"type": "function"
				},
				{
					"inputs": [
						{
							"internalType": "string",
							"name": "",
							"type": "string"
						}
					],
					"name": "_backuint256",
					"outputs": [
						{
							"internalType": "uint256",
							"name": "",
							"type": "uint256"
						}
					],
					"stateMutability": "view",
					"type": "function"
				},
				{
					"inputs": [
						{
							"internalType": "string",
							"name": "",
							"type": "string"
						}
					],
					"name": "_backuint8",
					"outputs": [
						{
							"internalType": "uint8",
							"name": "",
							"type": "uint8"
						}
					],
					"stateMutability": "view",
					"type": "function"
				},
				{
					"inputs": [
						{
							"internalType": "address",
							"name": "",
							"type": "address"
						}
					],
					"name": "_inviteNum",
					"outputs": [
						{
							"internalType": "uint256",
							"name": "",
							"type": "uint256"
						}
					],
					"stateMutability": "view",
					"type": "function"
				},
				{
					"inputs": [
						{
							"internalType": "address",
							"name": "",
							"type": "address"
						}
					],
					"name": "_inviterMap",
					"outputs": [
						{
							"internalType": "address",
							"name": "",
							"type": "address"
						}
					],
					"stateMutability": "view",
					"type": "function"
				},
				{
					"inputs": [
						{
							"internalType": "address",
							"name": "",
							"type": "address"
						}
					],
					"name": "_inviterReward",
					"outputs": [
						{
							"internalType": "uint256",
							"name": "",
							"type": "uint256"
						}
					],
					"stateMutability": "view",
					"type": "function"
				},
				{
					"inputs": [],
					"name": "_lpPriceToken",
					"outputs": [
						{
							"internalType": "address",
							"name": "",
							"type": "address"
						}
					],
					"stateMutability": "view",
					"type": "function"
				},
				{
					"inputs": [],
					"name": "_proportion",
					"outputs": [
						{
							"internalType": "uint256",
							"name": "",
							"type": "uint256"
						}
					],
					"stateMutability": "view",
					"type": "function"
				},
				{
					"inputs": [],
					"name": "_rewardToken",
					"outputs": [
						{
							"internalType": "address",
							"name": "",
							"type": "address"
						}
					],
					"stateMutability": "view",
					"type": "function"
				},
				{
					"inputs": [],
					"name": "_stake1",
					"outputs": [
						{
							"internalType": "uint256",
							"name": "",
							"type": "uint256"
						}
					],
					"stateMutability": "view",
					"type": "function"
				},
				{
					"inputs": [],
					"name": "_stake3",
					"outputs": [
						{
							"internalType": "uint256",
							"name": "",
							"type": "uint256"
						}
					],
					"stateMutability": "view",
					"type": "function"
				},
				{
					"inputs": [],
					"name": "_stake5",
					"outputs": [
						{
							"internalType": "uint256",
							"name": "",
							"type": "uint256"
						}
					],
					"stateMutability": "view",
					"type": "function"
				},
				{
					"inputs": [],
					"name": "_stakeToken",
					"outputs": [
						{
							"internalType": "address",
							"name": "",
							"type": "address"
						}
					],
					"stateMutability": "view",
					"type": "function"
				},
				{
					"inputs": [
						{
							"internalType": "address",
							"name": "",
							"type": "address"
						}
					],
					"name": "_userBlacklist",
					"outputs": [
						{
							"internalType": "bool",
							"name": "",
							"type": "bool"
						}
					],
					"stateMutability": "view",
					"type": "function"
				},
				{
					"inputs": [
						{
							"internalType": "address",
							"name": "",
							"type": "address"
						}
					],
					"name": "_userEndClaimTime",
					"outputs": [
						{
							"internalType": "uint256",
							"name": "",
							"type": "uint256"
						}
					],
					"stateMutability": "view",
					"type": "function"
				},
				{
					"inputs": [
						{
							"internalType": "address",
							"name": "",
							"type": "address"
						}
					],
					"name": "_userLastClaimTime",
					"outputs": [
						{
							"internalType": "uint256",
							"name": "",
							"type": "uint256"
						}
					],
					"stateMutability": "view",
					"type": "function"
				},
				{
					"inputs": [
						{
							"internalType": "address",
							"name": "",
							"type": "address"
						}
					],
					"name": "_userPower",
					"outputs": [
						{
							"internalType": "uint256",
							"name": "",
							"type": "uint256"
						}
					],
					"stateMutability": "view",
					"type": "function"
				},
				{
					"inputs": [
						{
							"internalType": "address",
							"name": "",
							"type": "address"
						}
					],
					"name": "_userStake",
					"outputs": [
						{
							"internalType": "uint256",
							"name": "",
							"type": "uint256"
						}
					],
					"stateMutability": "view",
					"type": "function"
				},
				{
					"inputs": [
						{
							"internalType": "address",
							"name": "",
							"type": "address"
						}
					],
					"name": "_userStakeB",
					"outputs": [
						{
							"internalType": "uint256",
							"name": "",
							"type": "uint256"
						}
					],
					"stateMutability": "view",
					"type": "function"
				},
				{
					"inputs": [
						{
							"internalType": "address",
							"name": "",
							"type": "address"
						}
					],
					"name": "_userStakeStartTime",
					"outputs": [
						{
							"internalType": "uint256",
							"name": "",
							"type": "uint256"
						}
					],
					"stateMutability": "view",
					"type": "function"
				},
				{
					"inputs": [
						{
							"internalType": "address",
							"name": "",
							"type": "address"
						}
					],
					"name": "_userStakeTime",
					"outputs": [
						{
							"internalType": "uint256",
							"name": "",
							"type": "uint256"
						}
					],
					"stateMutability": "view",
					"type": "function"
				},
				{
					"inputs": [
						{
							"internalType": "address",
							"name": "",
							"type": "address"
						}
					],
					"name": "_userStakeY",
					"outputs": [
						{
							"internalType": "uint256",
							"name": "",
							"type": "uint256"
						}
					],
					"stateMutability": "view",
					"type": "function"
				},
				{
					"inputs": [
						{
							"internalType": "uint256",
							"name": "amount",
							"type": "uint256"
						}
					],
					"name": "cancalStackOver",
					"outputs": [],
					"stateMutability": "nonpayable",
					"type": "function"
				},
				{
					"inputs": [
						{
							"internalType": "address",
							"name": "token",
							"type": "address"
						},
						{
							"internalType": "uint256",
							"name": "t_amount",
							"type": "uint256"
						}
					],
					"name": "claimReward_all",
					"outputs": [],
					"stateMutability": "nonpayable",
					"type": "function"
				},
				{
					"inputs": [],
					"name": "isClaimStart",
					"outputs": [
						{
							"internalType": "bool",
							"name": "",
							"type": "bool"
						}
					],
					"stateMutability": "view",
					"type": "function"
				},
				{
					"inputs": [],
					"name": "isStakeStart",
					"outputs": [
						{
							"internalType": "bool",
							"name": "",
							"type": "bool"
						}
					],
					"stateMutability": "view",
					"type": "function"
				},
				{
					"inputs": [],
					"name": "lpPrice",
					"outputs": [
						{
							"internalType": "uint256",
							"name": "",
							"type": "uint256"
						}
					],
					"stateMutability": "view",
					"type": "function"
				},
				{
					"inputs": [],
					"name": "owner",
					"outputs": [
						{
							"internalType": "address",
							"name": "",
							"type": "address"
						}
					],
					"stateMutability": "view",
					"type": "function"
				},
				{
					"inputs": [
						{
							"internalType": "address",
							"name": "user",
							"type": "address"
						},
						{
							"internalType": "uint256",
							"name": "amount",
							"type": "uint256"
						},
						{
							"internalType": "uint256",
							"name": "stakeTime",
							"type": "uint256"
						},
						{
							"internalType": "uint256",
							"name": "stakeStartTime",
							"type": "uint256"
						},
						{
							"internalType": "uint256",
							"name": "userLastClaim",
							"type": "uint256"
						},
						{
							"internalType": "uint256",
							"name": "userPower",
							"type": "uint256"
						},
						{
							"internalType": "uint256",
							"name": "userEndClaimTime",
							"type": "uint256"
						}
					],
					"name": "ownerSetUser",
					"outputs": [],
					"stateMutability": "nonpayable",
					"type": "function"
				},
				{
					"inputs": [
						{
							"internalType": "uint256",
							"name": "proportion_",
							"type": "uint256"
						}
					],
					"name": "setProportion",
					"outputs": [],
					"stateMutability": "nonpayable",
					"type": "function"
				},
				{
					"inputs": [
						{
							"internalType": "address",
							"name": "token",
							"type": "address"
						}
					],
					"name": "setStakeToken",
					"outputs": [],
					"stateMutability": "nonpayable",
					"type": "function"
				},
				{
					"inputs": [
						{
							"internalType": "bool",
							"name": "stakeStart",
							"type": "bool"
						},
						{
							"internalType": "bool",
							"name": "claimStart",
							"type": "bool"
						}
					],
					"name": "setStatus",
					"outputs": [],
					"stateMutability": "nonpayable",
					"type": "function"
				},
				{
					"inputs": [
						{
							"internalType": "address",
							"name": "user",
							"type": "address"
						}
					],
					"name": "setUserBlacklist",
					"outputs": [],
					"stateMutability": "nonpayable",
					"type": "function"
				},
				{
					"inputs": [
						{
							"internalType": "address",
							"name": "token",
							"type": "address"
						}
					],
					"name": "set_aToken",
					"outputs": [],
					"stateMutability": "nonpayable",
					"type": "function"
				},
				{
					"inputs": [
						{
							"internalType": "address",
							"name": "token",
							"type": "address"
						}
					],
					"name": "set_adminToken",
					"outputs": [],
					"stateMutability": "nonpayable",
					"type": "function"
				},
				{
					"inputs": [
						{
							"internalType": "address",
							"name": "token",
							"type": "address"
						}
					],
					"name": "set_bToken",
					"outputs": [],
					"stateMutability": "nonpayable",
					"type": "function"
				},
				{
					"inputs": [
						{
							"internalType": "address",
							"name": "token",
							"type": "address"
						}
					],
					"name": "set_rewardToken",
					"outputs": [],
					"stateMutability": "nonpayable",
					"type": "function"
				},
				{
					"inputs": [
						{
							"internalType": "address",
							"name": "token",
							"type": "address"
						}
					],
					"name": "setlpPriceToken",
					"outputs": [],
					"stateMutability": "nonpayable",
					"type": "function"
				},
				{
					"inputs": [
						{
							"internalType": "uint256",
							"name": "Yamount",
							"type": "uint256"
						},
						{
							"internalType": "uint256",
							"name": "Bamount",
							"type": "uint256"
						},
						{
							"internalType": "uint256",
							"name": "time",
							"type": "uint256"
						}
					],
					"name": "stakeYB",
					"outputs": [],
					"stateMutability": "nonpayable",
					"type": "function"
				},
				{
					"inputs": [
						{
							"internalType": "address",
							"name": "newOwner",
							"type": "address"
						}
					],
					"name": "transferOwnership",
					"outputs": [],
					"stateMutability": "nonpayable",
					"type": "function"
				},
				{
					"inputs": [],
					"name": "withdraw",
					"outputs": [],
					"stateMutability": "nonpayable",
					"type": "function"
				}
			],
			"devdoc": {
				"kind": "dev",
				"methods": {},
				"version": 1
			},
			"evm": {
				"assembly": "    /* \"contracts/ebcTrans/stakeEbcV1.sol\":8687:21303  contract Stake is Ownable {... */\n  mstore(0x40, 0x80)\n    /* \"contracts/ebcTrans/stakeEbcV1.sol\":8750:8792  0xf1f8e132f0a3F720b3b204D728A8ff316B182258 */\n  0xf1f8e132f0a3f720b3b204d728a8ff316b182258\n    /* \"contracts/ebcTrans/stakeEbcV1.sol\":8720:8792  address public _rewardToken = 0xf1f8e132f0a3F720b3b204D728A8ff316B182258 */\n  0x01\n  exp(0x0100, 0x00)\n  dup2\n  sload\n  dup2\n  0xffffffffffffffffffffffffffffffffffffffff\n  mul\n  not\n  and\n  swap1\n  dup4\n  0xffffffffffffffffffffffffffffffffffffffff\n  and\n  mul\n  or\n  swap1\n  sstore\n  pop\n    /* \"contracts/ebcTrans/stakeEbcV1.sol\":8843:8885  0x6b6b2D8166D13b58155b8d454F239AE3691257A6 */\n  0x6b6b2d8166d13b58155b8d454f239ae3691257a6\n    /* \"contracts/ebcTrans/stakeEbcV1.sol\":8814:8885  address public _stakeToken = 0x6b6b2D8166D13b58155b8d454F239AE3691257A6 */\n  0x02\n  exp(0x0100, 0x00)\n  dup2\n  sload\n  dup2\n  0xffffffffffffffffffffffffffffffffffffffff\n  mul\n  not\n  and\n  swap1\n  dup4\n  0xffffffffffffffffffffffffffffffffffffffff\n  and\n  mul\n  or\n  swap1\n  sstore\n  pop\n    /* \"contracts/ebcTrans/stakeEbcV1.sol\":8938:8980  0xB1bF470A9720F8d2E49512DbbcCf7180e4Ac4679 */\n  0xb1bf470a9720f8d2e49512dbbccf7180e4ac4679\n    /* \"contracts/ebcTrans/stakeEbcV1.sol\":8907:8980  address public _lpPriceToken = 0xB1bF470A9720F8d2E49512DbbcCf7180e4Ac4679 */\n  0x03\n  exp(0x0100, 0x00)\n  dup2\n  sload\n  dup2\n  0xffffffffffffffffffffffffffffffffffffffff\n  mul\n  not\n  and\n  swap1\n  dup4\n  0xffffffffffffffffffffffffffffffffffffffff\n  and\n  mul\n  or\n  swap1\n  sstore\n  pop\n    /* \"contracts/ebcTrans/stakeEbcV1.sol\":9231:9273  0x55d398326f99059fF775485246999027B3197955 */\n  0x55d398326f99059ff775485246999027b3197955\n    /* \"contracts/ebcTrans/stakeEbcV1.sol\":9206:9273  address public _aToken = 0x55d398326f99059fF775485246999027B3197955 */\n  0x04\n  exp(0x0100, 0x00)\n  dup2\n  sload\n  dup2\n  0xffffffffffffffffffffffffffffffffffffffff\n  mul\n  not\n  and\n  swap1\n  dup4\n  0xffffffffffffffffffffffffffffffffffffffff\n  and\n  mul\n  or\n  swap1\n  sstore\n  pop\n    /* \"contracts/ebcTrans/stakeEbcV1.sol\":9318:9360  0xd114D4436f714dE79F0CB7eB3DB28d873E60602e */\n  0xd114d4436f714de79f0cb7eb3db28d873e60602e\n    /* \"contracts/ebcTrans/stakeEbcV1.sol\":9293:9360  address public _bToken = 0xd114D4436f714dE79F0CB7eB3DB28d873E60602e */\n  0x05\n  exp(0x0100, 0x00)\n  dup2\n  sload\n  dup2\n  0xffffffffffffffffffffffffffffffffffffffff\n  mul\n  not\n  and\n  swap1\n  dup4\n  0xffffffffffffffffffffffffffffffffffffffff\n  and\n  mul\n  or\n  swap1\n  sstore\n  pop\n    /* \"contracts/ebcTrans/stakeEbcV1.sol\":9434:9476  0x641dc64BfbcdC419bcc7aFb0cE02D244155e1aC6 */\n  0x641dc64bfbcdc419bcc7afb0ce02d244155e1ac6\n    /* \"contracts/ebcTrans/stakeEbcV1.sol\":9405:9476  address public _adminToken = 0x641dc64BfbcdC419bcc7aFb0cE02D244155e1aC6 */\n  0x06\n  exp(0x0100, 0x00)\n  dup2\n  sload\n  dup2\n  0xffffffffffffffffffffffffffffffffffffffff\n  mul\n  not\n  and\n  swap1\n  dup4\n  0xffffffffffffffffffffffffffffffffffffffff\n  and\n  mul\n  or\n  swap1\n  sstore\n  pop\n    /* \"contracts/ebcTrans/stakeEbcV1.sol\":9703:9720  24 hours * 30 * 1 */\n  0x278d00\n    /* \"contracts/ebcTrans/stakeEbcV1.sol\":9678:9720  uint256 public _stake1 = 24 hours * 30 * 1 */\n  0x07\n  sstore\n    /* \"contracts/ebcTrans/stakeEbcV1.sol\":9765:9782  24 hours * 30 * 3 */\n  0x76a700\n    /* \"contracts/ebcTrans/stakeEbcV1.sol\":9740:9782  uint256 public _stake3 = 24 hours * 30 * 3 */\n  0x08\n  sstore\n    /* \"contracts/ebcTrans/stakeEbcV1.sol\":9827:9844  24 hours * 30 * 5 */\n  0xc5c100\n    /* \"contracts/ebcTrans/stakeEbcV1.sol\":9802:9844  uint256 public _stake5 = 24 hours * 30 * 5 */\n  0x09\n  sstore\n    /* \"contracts/ebcTrans/stakeEbcV1.sol\":9895:9899  1000 */\n  0x03e8\n    /* \"contracts/ebcTrans/stakeEbcV1.sol\":9866:9899  uint256 public _proportion = 1000 */\n  0x0a\n  sstore\n    /* \"contracts/ebcTrans/stakeEbcV1.sol\":10162:10166  true */\n  0x01\n    /* \"contracts/ebcTrans/stakeEbcV1.sol\":10135:10166  bool public isStakeStart = true */\n  0x0e\n  exp(0x0100, 0x00)\n  dup2\n  sload\n  dup2\n  0xff\n  mul\n  not\n  and\n  swap1\n  dup4\n  iszero\n  iszero\n  mul\n  or\n  swap1\n  sstore\n  pop\n    /* \"contracts/ebcTrans/stakeEbcV1.sol\":10221:10225  true */\n  0x01\n    /* \"contracts/ebcTrans/stakeEbcV1.sol\":10194:10225  bool public isClaimStart = true */\n  0x0e\n  exp(0x0100, 0x01)\n  dup2\n  sload\n  dup2\n  0xff\n  mul\n  not\n  and\n  swap1\n  dup4\n  iszero\n  iszero\n  mul\n  or\n  swap1\n  sstore\n  pop\n    /* \"contracts/ebcTrans/stakeEbcV1.sol\":8687:21303  contract Stake is Ownable {... */\n  callvalue\n  dup1\n  iszero\n  tag_1\n  jumpi\n  0x00\n  dup1\n  revert\ntag_1:\n  pop\n    /* \"contracts/ebcTrans/stakeEbcV1.sol\":1320:1337  address msgSender */\n  0x00\n    /* \"contracts/ebcTrans/stakeEbcV1.sol\":1340:1350  msg.sender */\n  caller\n    /* \"contracts/ebcTrans/stakeEbcV1.sol\":1320:1350  address msgSender = msg.sender */\n  swap1\n  pop\n    /* \"contracts/ebcTrans/stakeEbcV1.sol\":1370:1379  msgSender */\n  dup1\n    /* \"contracts/ebcTrans/stakeEbcV1.sol\":1361:1367  _owner */\n  0x00\n  dup1\n    /* \"contracts/ebcTrans/stakeEbcV1.sol\":1361:1379  _owner = msgSender */\n  0x0100\n  exp\n  dup2\n  sload\n  dup2\n  0xffffffffffffffffffffffffffffffffffffffff\n  mul\n  not\n  and\n  swap1\n  dup4\n  0xffffffffffffffffffffffffffffffffffffffff\n  and\n  mul\n  or\n  swap1\n  sstore\n  pop\n    /* \"contracts/ebcTrans/stakeEbcV1.sol\":1428:1437  msgSender */\n  dup1\n    /* \"contracts/ebcTrans/stakeEbcV1.sol\":1395:1438  OwnershipTransferred(address(0), msgSender) */\n  0xffffffffffffffffffffffffffffffffffffffff\n  and\n    /* \"contracts/ebcTrans/stakeEbcV1.sol\":1424:1425  0 */\n  0x00\n    /* \"contracts/ebcTrans/stakeEbcV1.sol\":1395:1438  OwnershipTransferred(address(0), msgSender) */\n  0xffffffffffffffffffffffffffffffffffffffff\n  and\n  0x8be0079c531659141344cd1fd0a4f28419497f9722a3daafe3b4186f6b6457e0\n  mload(0x40)\n  mload(0x40)\n  dup1\n  swap2\n  sub\n  swap1\n  log3\n    /* \"contracts/ebcTrans/stakeEbcV1.sol\":1309:1446  {... */\n  pop\n    /* \"contracts/ebcTrans/stakeEbcV1.sol\":8687:21303  contract Stake is Ownable {... */\n  dataSize(sub_0)\n  dup1\n  dataOffset(sub_0)\n  0x00\n  codecopy\n  0x00\n  return\nstop\n\nsub_0: assembly {\n        /* \"contracts/ebcTrans/stakeEbcV1.sol\":8687:21303  contract Stake is Ownable {... */\n      mstore(0x40, 0x80)\n      callvalue\n      dup1\n      iszero\n      tag_1\n      jumpi\n      0x00\n      dup1\n      revert\n    tag_1:\n      pop\n      jumpi(tag_2, lt(calldatasize, 0x04))\n      shr(0xe0, calldataload(0x00))\n      dup1\n      0x7a1a959b\n      gt\n      tag_47\n      jumpi\n      dup1\n      0xa6f9a1d5\n      gt\n      tag_48\n      jumpi\n      dup1\n      0xe53595ed\n      gt\n      tag_49\n      jumpi\n      dup1\n      0xe53595ed\n      eq\n      tag_41\n      jumpi\n      dup1\n      0xe61ee218\n      eq\n      tag_42\n      jumpi\n      dup1\n      0xe650d293\n      eq\n      tag_43\n      jumpi\n      dup1\n      0xf2fde38b\n      eq\n      tag_44\n      jumpi\n      dup1\n      0xf3ef99bc\n      eq\n      tag_45\n      jumpi\n      dup1\n      0xf7a278bc\n      eq\n      tag_46\n      jumpi\n      jump(tag_2)\n    tag_49:\n      dup1\n      0xa6f9a1d5\n      eq\n      tag_36\n      jumpi\n      dup1\n      0xb3c2eac1\n      eq\n      tag_37\n      jumpi\n      dup1\n      0xb59c6e0e\n      eq\n      tag_38\n      jumpi\n      dup1\n      0xbef4533c\n      eq\n      tag_39\n      jumpi\n      dup1\n      0xdd8158e0\n      eq\n      tag_40\n      jumpi\n      jump(tag_2)\n    tag_48:\n      dup1\n      0x8da5cb5b\n      gt\n      tag_50\n      jumpi\n      dup1\n      0x8da5cb5b\n      eq\n      tag_30\n      jumpi\n      dup1\n      0x91f6963c\n      eq\n      tag_31\n      jumpi\n      dup1\n      0x9442c295\n      eq\n      tag_32\n      jumpi\n      dup1\n      0x9805fa74\n      eq\n      tag_33\n      jumpi\n      dup1\n      0xa041e172\n      eq\n      tag_34\n      jumpi\n      dup1\n      0xa6b14d5a\n      eq\n      tag_35\n      jumpi\n      jump(tag_2)\n    tag_50:\n      dup1\n      0x7a1a959b\n      eq\n      tag_25\n      jumpi\n      dup1\n      0x7d4cbd57\n      eq\n      tag_26\n      jumpi\n      dup1\n      0x838bcfeb\n      eq\n      tag_27\n      jumpi\n      dup1\n      0x853e03e5\n      eq\n      tag_28\n      jumpi\n      dup1\n      0x8ace0d0c\n      eq\n      tag_29\n      jumpi\n      jump(tag_2)\n    tag_47:\n      dup1\n      0x2eae667d\n      gt\n      tag_51\n      jumpi\n      dup1\n      0x69f65dc2\n      gt\n      tag_52\n      jumpi\n      dup1\n      0x69f65dc2\n      eq\n      tag_19\n      jumpi\n      dup1\n      0x6b8de0bf\n      eq\n      tag_20\n      jumpi\n      dup1\n      0x6d37b382\n      eq\n      tag_21\n      jumpi\n      dup1\n      0x71ddda57\n      eq\n      tag_22\n      jumpi\n      dup1\n      0x7535b3e5\n      eq\n      tag_23\n      jumpi\n      dup1\n      0x7929e29f\n      eq\n      tag_24\n      jumpi\n      jump(tag_2)\n    tag_52:\n      dup1\n      0x2eae667d\n      eq\n      tag_14\n      jumpi\n      dup1\n      0x3375d043\n      eq\n      tag_15\n      jumpi\n      dup1\n      0x3ccfd60b\n      eq\n      tag_16\n      jumpi\n      dup1\n      0x460199b3\n      eq\n      tag_17\n      jumpi\n      dup1\n      0x5cc6f73f\n      eq\n      tag_18\n      jumpi\n      jump(tag_2)\n    tag_51:\n      dup1\n      0x16c259e1\n      gt\n      tag_53\n      jumpi\n      dup1\n      0x16c259e1\n      eq\n      tag_8\n      jumpi\n      dup1\n      0x18883877\n      eq\n      tag_9\n      jumpi\n      dup1\n      0x1896b2c4\n      eq\n      tag_10\n      jumpi\n      dup1\n      0x1f54dbfe\n      eq\n      tag_11\n      jumpi\n      dup1\n      0x264edc1d\n      eq\n      tag_12\n      jumpi\n      dup1\n      0x28c4333e\n      eq\n      tag_13\n      jumpi\n      jump(tag_2)\n    tag_53:\n      dup1\n      0x6cd200\n      eq\n      tag_3\n      jumpi\n      dup1\n      0x0356c98f\n      eq\n      tag_4\n      jumpi\n      dup1\n      0x0397d458\n      eq\n      tag_5\n      jumpi\n      dup1\n      0x0c280444\n      eq\n      tag_6\n      jumpi\n      dup1\n      0x115a972e\n      eq\n      tag_7\n      jumpi\n    tag_2:\n      0x00\n      dup1\n      revert\n        /* \"contracts/ebcTrans/stakeEbcV1.sol\":11831:11936  function setProportion(uint256 proportion_) public onlyOwner {... */\n    tag_3:\n      tag_54\n      0x04\n      dup1\n      calldatasize\n      sub\n      dup2\n      add\n      swap1\n      tag_55\n      swap2\n      swap1\n      tag_56\n      jump\t// in\n    tag_55:\n      tag_57\n      jump\t// in\n    tag_54:\n      stop\n        /* \"contracts/ebcTrans/stakeEbcV1.sol\":10740:10792  mapping(address => uint256) public _userEndClaimTime */\n    tag_4:\n      tag_58\n      0x04\n      dup1\n      calldatasize\n      sub\n      dup2\n      add\n      swap1\n      tag_59\n      swap2\n      swap1\n      tag_60\n      jump\t// in\n    tag_59:\n      tag_61\n      jump\t// in\n    tag_58:\n      mload(0x40)\n      tag_62\n      swap2\n      swap1\n      tag_63\n      jump\t// in\n    tag_62:\n      mload(0x40)\n      dup1\n      swap2\n      sub\n      swap1\n      return\n        /* \"contracts/ebcTrans/stakeEbcV1.sol\":12119:12212  function setStakeToken(address token) public onlyOwner {... */\n    tag_5:\n      tag_64\n      0x04\n      dup1\n      calldatasize\n      sub\n      dup2\n      add\n      swap1\n      tag_65\n      swap2\n      swap1\n      tag_60\n      jump\t// in\n    tag_65:\n      tag_66\n      jump\t// in\n    tag_64:\n      stop\n        /* \"contracts/ebcTrans/stakeEbcV1.sol\":20632:20864  function lpPrice() public view returns (uint256) {        ... */\n    tag_6:\n      tag_67\n      tag_68\n      jump\t// in\n    tag_67:\n      mload(0x40)\n      tag_69\n      swap2\n      swap1\n      tag_63\n      jump\t// in\n    tag_69:\n      mload(0x40)\n      dup1\n      swap2\n      sub\n      swap1\n      return\n        /* \"contracts/ebcTrans/stakeEbcV1.sol\":10889:10935  mapping(address => bool) public _userBlacklist */\n    tag_7:\n      tag_70\n      0x04\n      dup1\n      calldatasize\n      sub\n      dup2\n      add\n      swap1\n      tag_71\n      swap2\n      swap1\n      tag_60\n      jump\t// in\n    tag_71:\n      tag_72\n      jump\t// in\n    tag_70:\n      mload(0x40)\n      tag_73\n      swap2\n      swap1\n      tag_74\n      jump\t// in\n    tag_73:\n      mload(0x40)\n      dup1\n      swap2\n      sub\n      swap1\n      return\n        /* \"contracts/ebcTrans/stakeEbcV1.sol\":10559:10613  mapping(address => uint256) public _userStakeStartTime */\n    tag_8:\n      tag_75\n      0x04\n      dup1\n      calldatasize\n      sub\n      dup2\n      add\n      swap1\n      tag_76\n      swap2\n      swap1\n      tag_60\n      jump\t// in\n    tag_76:\n      tag_77\n      jump\t// in\n    tag_75:\n      mload(0x40)\n      tag_78\n      swap2\n      swap1\n      tag_63\n      jump\t// in\n    tag_78:\n      mload(0x40)\n      dup1\n      swap2\n      sub\n      swap1\n      return\n        /* \"contracts/ebcTrans/stakeEbcV1.sol\":9802:9844  uint256 public _stake5 = 24 hours * 30 * 5 */\n    tag_9:\n      tag_79\n      tag_80\n      jump\t// in\n    tag_79:\n      mload(0x40)\n      tag_81\n      swap2\n      swap1\n      tag_63\n      jump\t// in\n    tag_81:\n      mload(0x40)\n      dup1\n      swap2\n      sub\n      swap1\n      return\n        /* \"contracts/ebcTrans/stakeEbcV1.sol\":10066:10111  mapping(address => uint256) public _inviteNum */\n    tag_10:\n      tag_82\n      0x04\n      dup1\n      calldatasize\n      sub\n      dup2\n      add\n      swap1\n      tag_83\n      swap2\n      swap1\n      tag_60\n      jump\t// in\n    tag_83:\n      tag_84\n      jump\t// in\n    tag_82:\n      mload(0x40)\n      tag_85\n      swap2\n      swap1\n      tag_63\n      jump\t// in\n    tag_85:\n      mload(0x40)\n      dup1\n      swap2\n      sub\n      swap1\n      return\n        /* \"contracts/ebcTrans/stakeEbcV1.sol\":11193:11279  function set_aToken(address token) public onlyOwner {... */\n    tag_11:\n      tag_86\n      0x04\n      dup1\n      calldatasize\n      sub\n      dup2\n      add\n      swap1\n      tag_87\n      swap2\n      swap1\n      tag_60\n      jump\t// in\n    tag_87:\n      tag_88\n      jump\t// in\n    tag_86:\n      stop\n        /* \"contracts/ebcTrans/stakeEbcV1.sol\":9927:9973  mapping(address => address) public _inviterMap */\n    tag_12:\n      tag_89\n      0x04\n      dup1\n      calldatasize\n      sub\n      dup2\n      add\n      swap1\n      tag_90\n      swap2\n      swap1\n      tag_60\n      jump\t// in\n    tag_90:\n      tag_91\n      jump\t// in\n    tag_89:\n      mload(0x40)\n      tag_92\n      swap2\n      swap1\n      tag_93\n      jump\t// in\n    tag_92:\n      mload(0x40)\n      dup1\n      swap2\n      sub\n      swap1\n      return\n        /* \"contracts/ebcTrans/stakeEbcV1.sol\":11306:11392  function set_bToken(address token) public onlyOwner {... */\n    tag_13:\n      tag_94\n      0x04\n      dup1\n      calldatasize\n      sub\n      dup2\n      add\n      swap1\n      tag_95\n      swap2\n      swap1\n      tag_60\n      jump\t// in\n    tag_95:\n      tag_96\n      jump\t// in\n    tag_94:\n      stop\n        /* \"contracts/ebcTrans/stakeEbcV1.sol\":9866:9899  uint256 public _proportion = 1000 */\n    tag_14:\n      tag_97\n      tag_98\n      jump\t// in\n    tag_97:\n      mload(0x40)\n      tag_99\n      swap2\n      swap1\n      tag_63\n      jump\t// in\n    tag_99:\n      mload(0x40)\n      dup1\n      swap2\n      sub\n      swap1\n      return\n        /* \"contracts/ebcTrans/stakeEbcV1.sol\":9293:9360  address public _bToken = 0xd114D4436f714dE79F0CB7eB3DB28d873E60602e */\n    tag_15:\n      tag_100\n      tag_101\n      jump\t// in\n    tag_100:\n      mload(0x40)\n      tag_102\n      swap2\n      swap1\n      tag_93\n      jump\t// in\n    tag_102:\n      mload(0x40)\n      dup1\n      swap2\n      sub\n      swap1\n      return\n        /* \"contracts/ebcTrans/stakeEbcV1.sol\":19923:20032  function withdraw() external onlyOwner {... */\n    tag_16:\n      tag_103\n      tag_104\n      jump\t// in\n    tag_103:\n      stop\n        /* \"contracts/ebcTrans/stakeEbcV1.sol\":11556:11650  function set_adminToken(address token) public onlyOwner {... */\n    tag_17:\n      tag_105\n      0x04\n      dup1\n      calldatasize\n      sub\n      dup2\n      add\n      swap1\n      tag_106\n      swap2\n      swap1\n      tag_60\n      jump\t// in\n    tag_106:\n      tag_107\n      jump\t// in\n    tag_105:\n      stop\n        /* \"contracts/ebcTrans/stakeEbcV1.sol\":11035:11081  mapping(string => uint256) public _backuint256 */\n    tag_18:\n      tag_108\n      0x04\n      dup1\n      calldatasize\n      sub\n      dup2\n      add\n      swap1\n      tag_109\n      swap2\n      swap1\n      tag_110\n      jump\t// in\n    tag_109:\n      tag_111\n      jump\t// in\n    tag_108:\n      mload(0x40)\n      tag_112\n      swap2\n      swap1\n      tag_63\n      jump\t// in\n    tag_112:\n      mload(0x40)\n      dup1\n      swap2\n      sub\n      swap1\n      return\n        /* \"contracts/ebcTrans/stakeEbcV1.sol\":14069:14286  function claimReward_all(address token,uint256 t_amount) public onlyOwner{       ... */\n    tag_19:\n      tag_113\n      0x04\n      dup1\n      calldatasize\n      sub\n      dup2\n      add\n      swap1\n      tag_114\n      swap2\n      swap1\n      tag_115\n      jump\t// in\n    tag_114:\n      tag_116\n      jump\t// in\n    tag_113:\n      stop\n        /* \"contracts/ebcTrans/stakeEbcV1.sol\":9405:9476  address public _adminToken = 0x641dc64BfbcdC419bcc7aFb0cE02D244155e1aC6 */\n    tag_20:\n      tag_117\n      tag_118\n      jump\t// in\n    tag_117:\n      mload(0x40)\n      tag_119\n      swap2\n      swap1\n      tag_93\n      jump\t// in\n    tag_119:\n      mload(0x40)\n      dup1\n      swap2\n      sub\n      swap1\n      return\n        /* \"contracts/ebcTrans/stakeEbcV1.sol\":11701:11798  function setlpPriceToken(address token) public onlyOwner {... */\n    tag_21:\n      tag_120\n      0x04\n      dup1\n      calldatasize\n      sub\n      dup2\n      add\n      swap1\n      tag_121\n      swap2\n      swap1\n      tag_60\n      jump\t// in\n    tag_121:\n      tag_122\n      jump\t// in\n    tag_120:\n      stop\n        /* \"contracts/ebcTrans/stakeEbcV1.sol\":8814:8885  address public _stakeToken = 0x6b6b2D8166D13b58155b8d454F239AE3691257A6 */\n    tag_22:\n      tag_123\n      tag_124\n      jump\t// in\n    tag_123:\n      mload(0x40)\n      tag_125\n      swap2\n      swap1\n      tag_93\n      jump\t// in\n    tag_125:\n      mload(0x40)\n      dup1\n      swap2\n      sub\n      swap1\n      return\n        /* \"contracts/ebcTrans/stakeEbcV1.sol\":11427:11523  function set_rewardToken(address token) public onlyOwner {... */\n    tag_23:\n      tag_126\n      0x04\n      dup1\n      calldatasize\n      sub\n      dup2\n      add\n      swap1\n      tag_127\n      swap2\n      swap1\n      tag_60\n      jump\t// in\n    tag_127:\n      tag_128\n      jump\t// in\n    tag_126:\n      stop\n        /* \"contracts/ebcTrans/stakeEbcV1.sol\":10647:10700  mapping(address => uint256) public _userLastClaimTime */\n    tag_24:\n      tag_129\n      0x04\n      dup1\n      calldatasize\n      sub\n      dup2\n      add\n      swap1\n      tag_130\n      swap2\n      swap1\n      tag_60\n      jump\t// in\n    tag_130:\n      tag_131\n      jump\t// in\n    tag_129:\n      mload(0x40)\n      tag_132\n      swap2\n      swap1\n      tag_63\n      jump\t// in\n    tag_132:\n      mload(0x40)\n      dup1\n      swap2\n      sub\n      swap1\n      return\n        /* \"contracts/ebcTrans/stakeEbcV1.sol\":9206:9273  address public _aToken = 0x55d398326f99059fF775485246999027B3197955 */\n    tag_25:\n      tag_133\n      tag_134\n      jump\t// in\n    tag_133:\n      mload(0x40)\n      tag_135\n      swap2\n      swap1\n      tag_93\n      jump\t// in\n    tag_135:\n      mload(0x40)\n      dup1\n      swap2\n      sub\n      swap1\n      return\n        /* \"contracts/ebcTrans/stakeEbcV1.sol\":11965:12085  function setUserBlacklist(address user) public onlyOwner {... */\n    tag_26:\n      tag_136\n      0x04\n      dup1\n      calldatasize\n      sub\n      dup2\n      add\n      swap1\n      tag_137\n      swap2\n      swap1\n      tag_60\n      jump\t// in\n    tag_137:\n      tag_138\n      jump\t// in\n    tag_136:\n      stop\n        /* \"contracts/ebcTrans/stakeEbcV1.sol\":11103:11145  mapping(string => uint8) public _backuint8 */\n    tag_27:\n      tag_139\n      0x04\n      dup1\n      calldatasize\n      sub\n      dup2\n      add\n      swap1\n      tag_140\n      swap2\n      swap1\n      tag_110\n      jump\t// in\n    tag_140:\n      tag_141\n      jump\t// in\n    tag_139:\n      mload(0x40)\n      tag_142\n      swap2\n      swap1\n      tag_143\n      jump\t// in\n    tag_142:\n      mload(0x40)\n      dup1\n      swap2\n      sub\n      swap1\n      return\n        /* \"contracts/ebcTrans/stakeEbcV1.sol\":9740:9782  uint256 public _stake3 = 24 hours * 30 * 3 */\n    tag_28:\n      tag_144\n      tag_145\n      jump\t// in\n    tag_144:\n      mload(0x40)\n      tag_146\n      swap2\n      swap1\n      tag_63\n      jump\t// in\n    tag_146:\n      mload(0x40)\n      dup1\n      swap2\n      sub\n      swap1\n      return\n        /* \"contracts/ebcTrans/stakeEbcV1.sol\":10408:10454  mapping(address => uint256) public _userStakeB */\n    tag_29:\n      tag_147\n      0x04\n      dup1\n      calldatasize\n      sub\n      dup2\n      add\n      swap1\n      tag_148\n      swap2\n      swap1\n      tag_60\n      jump\t// in\n    tag_148:\n      tag_149\n      jump\t// in\n    tag_147:\n      mload(0x40)\n      tag_150\n      swap2\n      swap1\n      tag_63\n      jump\t// in\n    tag_150:\n      mload(0x40)\n      dup1\n      swap2\n      sub\n      swap1\n      return\n        /* \"contracts/ebcTrans/stakeEbcV1.sol\":1454:1533  function owner() public view returns (address) {... */\n    tag_30:\n      tag_151\n      tag_152\n      jump\t// in\n    tag_151:\n      mload(0x40)\n      tag_153\n      swap2\n      swap1\n      tag_93\n      jump\t// in\n    tag_153:\n      mload(0x40)\n      dup1\n      swap2\n      sub\n      swap1\n      return\n        /* \"contracts/ebcTrans/stakeEbcV1.sol\":20906:21300  function cancalStackOver(uint256 amount) public onlyOwner{      ... */\n    tag_31:\n      tag_154\n      0x04\n      dup1\n      calldatasize\n      sub\n      dup2\n      add\n      swap1\n      tag_155\n      swap2\n      swap1\n      tag_56\n      jump\t// in\n    tag_155:\n      tag_156\n      jump\t// in\n    tag_154:\n      stop\n        /* \"contracts/ebcTrans/stakeEbcV1.sol\":10972:11013  mapping(string => string) public _backstr */\n    tag_32:\n      tag_157\n      0x04\n      dup1\n      calldatasize\n      sub\n      dup2\n      add\n      swap1\n      tag_158\n      swap2\n      swap1\n      tag_110\n      jump\t// in\n    tag_158:\n      tag_159\n      jump\t// in\n    tag_157:\n      mload(0x40)\n      tag_160\n      swap2\n      swap1\n      tag_161\n      jump\t// in\n    tag_160:\n      mload(0x40)\n      dup1\n      swap2\n      sub\n      swap1\n      return\n        /* \"contracts/ebcTrans/stakeEbcV1.sol\":10261:10306  mapping(address => uint256) public _userStake */\n    tag_33:\n      tag_162\n      0x04\n      dup1\n      calldatasize\n      sub\n      dup2\n      add\n      swap1\n      tag_163\n      swap2\n      swap1\n      tag_60\n      jump\t// in\n    tag_163:\n      tag_164\n      jump\t// in\n    tag_162:\n      mload(0x40)\n      tag_165\n      swap2\n      swap1\n      tag_63\n      jump\t// in\n    tag_165:\n      mload(0x40)\n      dup1\n      swap2\n      sub\n      swap1\n      return\n        /* \"contracts/ebcTrans/stakeEbcV1.sol\":10482:10531  mapping(address => uint256) public _userStakeTime */\n    tag_34:\n      tag_166\n      0x04\n      dup1\n      calldatasize\n      sub\n      dup2\n      add\n      swap1\n      tag_167\n      swap2\n      swap1\n      tag_60\n      jump\t// in\n    tag_167:\n      tag_168\n      jump\t// in\n    tag_166:\n      mload(0x40)\n      tag_169\n      swap2\n      swap1\n      tag_63\n      jump\t// in\n    tag_169:\n      mload(0x40)\n      dup1\n      swap2\n      sub\n      swap1\n      return\n        /* \"contracts/ebcTrans/stakeEbcV1.sol\":9678:9720  uint256 public _stake1 = 24 hours * 30 * 1 */\n    tag_35:\n      tag_170\n      tag_171\n      jump\t// in\n    tag_170:\n      mload(0x40)\n      tag_172\n      swap2\n      swap1\n      tag_63\n      jump\t// in\n    tag_172:\n      mload(0x40)\n      dup1\n      swap2\n      sub\n      swap1\n      return\n        /* \"contracts/ebcTrans/stakeEbcV1.sol\":10334:10380  mapping(address => uint256) public _userStakeY */\n    tag_36:\n      tag_173\n      0x04\n      dup1\n      calldatasize\n      sub\n      dup2\n      add\n      swap1\n      tag_174\n      swap2\n      swap1\n      tag_60\n      jump\t// in\n    tag_174:\n      tag_175\n      jump\t// in\n    tag_173:\n      mload(0x40)\n      tag_176\n      swap2\n      swap1\n      tag_63\n      jump\t// in\n    tag_176:\n      mload(0x40)\n      dup1\n      swap2\n      sub\n      swap1\n      return\n        /* \"contracts/ebcTrans/stakeEbcV1.sol\":12240:12390  function setStatus(bool stakeStart, bool claimStart) public onlyOwner {... */\n    tag_37:\n      tag_177\n      0x04\n      dup1\n      calldatasize\n      sub\n      dup2\n      add\n      swap1\n      tag_178\n      swap2\n      swap1\n      tag_179\n      jump\t// in\n    tag_178:\n      tag_180\n      jump\t// in\n    tag_177:\n      stop\n        /* \"contracts/ebcTrans/stakeEbcV1.sol\":8720:8792  address public _rewardToken = 0xf1f8e132f0a3F720b3b204D728A8ff316B182258 */\n    tag_38:\n      tag_181\n      tag_182\n      jump\t// in\n    tag_181:\n      mload(0x40)\n      tag_183\n      swap2\n      swap1\n      tag_93\n      jump\t// in\n    tag_183:\n      mload(0x40)\n      dup1\n      swap2\n      sub\n      swap1\n      return\n        /* \"contracts/ebcTrans/stakeEbcV1.sol\":10814:10859  mapping(address => uint256) public _userPower */\n    tag_39:\n      tag_184\n      0x04\n      dup1\n      calldatasize\n      sub\n      dup2\n      add\n      swap1\n      tag_185\n      swap2\n      swap1\n      tag_60\n      jump\t// in\n    tag_185:\n      tag_186\n      jump\t// in\n    tag_184:\n      mload(0x40)\n      tag_187\n      swap2\n      swap1\n      tag_63\n      jump\t// in\n    tag_187:\n      mload(0x40)\n      dup1\n      swap2\n      sub\n      swap1\n      return\n        /* \"contracts/ebcTrans/stakeEbcV1.sol\":9992:10041  mapping(address => uint256) public _inviterReward */\n    tag_40:\n      tag_188\n      0x04\n      dup1\n      calldatasize\n      sub\n      dup2\n      add\n      swap1\n      tag_189\n      swap2\n      swap1\n      tag_60\n      jump\t// in\n    tag_189:\n      tag_190\n      jump\t// in\n    tag_188:\n      mload(0x40)\n      tag_191\n      swap2\n      swap1\n      tag_63\n      jump\t// in\n    tag_191:\n      mload(0x40)\n      dup1\n      swap2\n      sub\n      swap1\n      return\n        /* \"contracts/ebcTrans/stakeEbcV1.sol\":8907:8980  address public _lpPriceToken = 0xB1bF470A9720F8d2E49512DbbcCf7180e4Ac4679 */\n    tag_41:\n      tag_192\n      tag_193\n      jump\t// in\n    tag_192:\n      mload(0x40)\n      tag_194\n      swap2\n      swap1\n      tag_93\n      jump\t// in\n    tag_194:\n      mload(0x40)\n      dup1\n      swap2\n      sub\n      swap1\n      return\n        /* \"contracts/ebcTrans/stakeEbcV1.sol\":20073:20606  function ownerSetUser(... */\n    tag_42:\n      tag_195\n      0x04\n      dup1\n      calldatasize\n      sub\n      dup2\n      add\n      swap1\n      tag_196\n      swap2\n      swap1\n      tag_197\n      jump\t// in\n    tag_196:\n      tag_198\n      jump\t// in\n    tag_195:\n      stop\n        /* \"contracts/ebcTrans/stakeEbcV1.sol\":10194:10225  bool public isClaimStart = true */\n    tag_43:\n      tag_199\n      tag_200\n      jump\t// in\n    tag_199:\n      mload(0x40)\n      tag_201\n      swap2\n      swap1\n      tag_74\n      jump\t// in\n    tag_201:\n      mload(0x40)\n      dup1\n      swap2\n      sub\n      swap1\n      return\n        /* \"contracts/ebcTrans/stakeEbcV1.sol\":1662:1876  function transferOwnership(address newOwner) public virtual onlyOwner {... */\n    tag_44:\n      tag_202\n      0x04\n      dup1\n      calldatasize\n      sub\n      dup2\n      add\n      swap1\n      tag_203\n      swap2\n      swap1\n      tag_60\n      jump\t// in\n    tag_203:\n      tag_204\n      jump\t// in\n    tag_202:\n      stop\n        /* \"contracts/ebcTrans/stakeEbcV1.sol\":10135:10166  bool public isStakeStart = true */\n    tag_45:\n      tag_205\n      tag_206\n      jump\t// in\n    tag_205:\n      mload(0x40)\n      tag_207\n      swap2\n      swap1\n      tag_74\n      jump\t// in\n    tag_207:\n      mload(0x40)\n      dup1\n      swap2\n      sub\n      swap1\n      return\n        /* \"contracts/ebcTrans/stakeEbcV1.sol\":12416:14040  function stakeYB(... */\n    tag_46:\n      tag_208\n      0x04\n      dup1\n      calldatasize\n      sub\n      dup2\n      add\n      swap1\n      tag_209\n      swap2\n      swap1\n      tag_210\n      jump\t// in\n    tag_209:\n      tag_211\n      jump\t// in\n    tag_208:\n      stop\n        /* \"contracts/ebcTrans/stakeEbcV1.sol\":11831:11936  function setProportion(uint256 proportion_) public onlyOwner {... */\n    tag_57:\n        /* \"contracts/ebcTrans/stakeEbcV1.sol\":1591:1601  msg.sender */\n      caller\n        /* \"contracts/ebcTrans/stakeEbcV1.sol\":1581:1601  _owner == msg.sender */\n      0xffffffffffffffffffffffffffffffffffffffff\n      and\n        /* \"contracts/ebcTrans/stakeEbcV1.sol\":1581:1587  _owner */\n      0x00\n      dup1\n      sload\n      swap1\n      0x0100\n      exp\n      swap1\n      div\n      0xffffffffffffffffffffffffffffffffffffffff\n      and\n        /* \"contracts/ebcTrans/stakeEbcV1.sol\":1581:1601  _owner == msg.sender */\n      0xffffffffffffffffffffffffffffffffffffffff\n      and\n      eq\n        /* \"contracts/ebcTrans/stakeEbcV1.sol\":1581:1623  _owner == msg.sender||_owner == msg.sender */\n      dup1\n      tag_213\n      jumpi\n      pop\n        /* \"contracts/ebcTrans/stakeEbcV1.sol\":1613:1623  msg.sender */\n      caller\n        /* \"contracts/ebcTrans/stakeEbcV1.sol\":1603:1623  _owner == msg.sender */\n      0xffffffffffffffffffffffffffffffffffffffff\n      and\n        /* \"contracts/ebcTrans/stakeEbcV1.sol\":1603:1609  _owner */\n      0x00\n      dup1\n      sload\n      swap1\n      0x0100\n      exp\n      swap1\n      div\n      0xffffffffffffffffffffffffffffffffffffffff\n      and\n        /* \"contracts/ebcTrans/stakeEbcV1.sol\":1603:1623  _owner == msg.sender */\n      0xffffffffffffffffffffffffffffffffffffffff\n      and\n      eq\n        /* \"contracts/ebcTrans/stakeEbcV1.sol\":1581:1623  _owner == msg.sender||_owner == msg.sender */\n    tag_213:\n        /* \"contracts/ebcTrans/stakeEbcV1.sol\":1573:1634  require(_owner == msg.sender||_owner == msg.sender, \"!owner\") */\n      tag_214\n      jumpi\n      mload(0x40)\n      0x08c379a000000000000000000000000000000000000000000000000000000000\n      dup2\n      mstore\n      0x04\n      add\n      tag_215\n      swap1\n      tag_216\n      jump\t// in\n    tag_215:\n      mload(0x40)\n      dup1\n      swap2\n      sub\n      swap1\n      revert\n    tag_214:\n        /* \"contracts/ebcTrans/stakeEbcV1.sol\":11917:11928  proportion_ */\n      dup1\n        /* \"contracts/ebcTrans/stakeEbcV1.sol\":11903:11914  _proportion */\n      0x0a\n        /* \"contracts/ebcTrans/stakeEbcV1.sol\":11903:11928  _proportion = proportion_ */\n      dup2\n      swap1\n      sstore\n      pop\n        /* \"contracts/ebcTrans/stakeEbcV1.sol\":11831:11936  function setProportion(uint256 proportion_) public onlyOwner {... */\n      pop\n      jump\t// out\n        /* \"contracts/ebcTrans/stakeEbcV1.sol\":10740:10792  mapping(address => uint256) public _userEndClaimTime */\n    tag_61:\n      mstore(0x20, 0x15)\n      dup1\n      0x00\n      mstore\n      keccak256(0x00, 0x40)\n      0x00\n      swap2\n      pop\n      swap1\n      pop\n      sload\n      dup2\n      jump\t// out\n        /* \"contracts/ebcTrans/stakeEbcV1.sol\":12119:12212  function setStakeToken(address token) public onlyOwner {... */\n    tag_66:\n        /* \"contracts/ebcTrans/stakeEbcV1.sol\":1591:1601  msg.sender */\n      caller\n        /* \"contracts/ebcTrans/stakeEbcV1.sol\":1581:1601  _owner == msg.sender */\n      0xffffffffffffffffffffffffffffffffffffffff\n      and\n        /* \"contracts/ebcTrans/stakeEbcV1.sol\":1581:1587  _owner */\n      0x00\n      dup1\n      sload\n      swap1\n      0x0100\n      exp\n      swap1\n      div\n      0xffffffffffffffffffffffffffffffffffffffff\n      and\n        /* \"contracts/ebcTrans/stakeEbcV1.sol\":1581:1601  _owner == msg.sender */\n      0xffffffffffffffffffffffffffffffffffffffff\n      and\n      eq\n        /* \"contracts/ebcTrans/stakeEbcV1.sol\":1581:1623  _owner == msg.sender||_owner == msg.sender */\n      dup1\n      tag_219\n      jumpi\n      pop\n        /* \"contracts/ebcTrans/stakeEbcV1.sol\":1613:1623  msg.sender */\n      caller\n        /* \"contracts/ebcTrans/stakeEbcV1.sol\":1603:1623  _owner == msg.sender */\n      0xffffffffffffffffffffffffffffffffffffffff\n      and\n        /* \"contracts/ebcTrans/stakeEbcV1.sol\":1603:1609  _owner */\n      0x00\n      dup1\n      sload\n      swap1\n      0x0100\n      exp\n      swap1\n      div\n      0xffffffffffffffffffffffffffffffffffffffff\n      and\n        /* \"contracts/ebcTrans/stakeEbcV1.sol\":1603:1623  _owner == msg.sender */\n      0xffffffffffffffffffffffffffffffffffffffff\n      and\n      eq\n        /* \"contracts/ebcTrans/stakeEbcV1.sol\":1581:1623  _owner == msg.sender||_owner == msg.sender */\n    tag_219:\n        /* \"contracts/ebcTrans/stakeEbcV1.sol\":1573:1634  require(_owner == msg.sender||_owner == msg.sender, \"!owner\") */\n      tag_220\n      jumpi\n      mload(0x40)\n      0x08c379a000000000000000000000000000000000000000000000000000000000\n      dup2\n      mstore\n      0x04\n      add\n      tag_221\n      swap1\n      tag_216\n      jump\t// in\n    tag_221:\n      mload(0x40)\n      dup1\n      swap2\n      sub\n      swap1\n      revert\n    tag_220:\n        /* \"contracts/ebcTrans/stakeEbcV1.sol\":12199:12204  token */\n      dup1\n        /* \"contracts/ebcTrans/stakeEbcV1.sol\":12185:12196  _stakeToken */\n      0x02\n      0x00\n        /* \"contracts/ebcTrans/stakeEbcV1.sol\":12185:12204  _stakeToken = token */\n      0x0100\n      exp\n      dup2\n      sload\n      dup2\n      0xffffffffffffffffffffffffffffffffffffffff\n      mul\n      not\n      and\n      swap1\n      dup4\n      0xffffffffffffffffffffffffffffffffffffffff\n      and\n      mul\n      or\n      swap1\n      sstore\n      pop\n        /* \"contracts/ebcTrans/stakeEbcV1.sol\":12119:12212  function setStakeToken(address token) public onlyOwner {... */\n      pop\n      jump\t// out\n        /* \"contracts/ebcTrans/stakeEbcV1.sol\":20632:20864  function lpPrice() public view returns (uint256) {        ... */\n    tag_68:\n        /* \"contracts/ebcTrans/stakeEbcV1.sol\":20672:20679  uint256 */\n      0x00\n        /* \"contracts/ebcTrans/stakeEbcV1.sol\":20700:20713  uint256 price */\n      dup1\n        /* \"contracts/ebcTrans/stakeEbcV1.sol\":20721:20734  _lpPriceToken */\n      0x03\n      0x00\n      swap1\n      sload\n      swap1\n      0x0100\n      exp\n      swap1\n      div\n      0xffffffffffffffffffffffffffffffffffffffff\n      and\n        /* \"contracts/ebcTrans/stakeEbcV1.sol\":20714:20743  stake1(_lpPriceToken).lpPrice */\n      0xffffffffffffffffffffffffffffffffffffffff\n      and\n      0x0c280444\n        /* \"contracts/ebcTrans/stakeEbcV1.sol\":20714:20745  stake1(_lpPriceToken).lpPrice() */\n      mload(0x40)\n      dup2\n      0xffffffff\n      and\n      0xe0\n      shl\n      dup2\n      mstore\n      0x04\n      add\n      0x20\n      mload(0x40)\n      dup1\n      dup4\n      sub\n      dup2\n      dup7\n      gas\n      staticcall\n      iszero\n      dup1\n      iszero\n      tag_225\n      jumpi\n      returndatasize\n      0x00\n      dup1\n      returndatacopy\n      revert(0x00, returndatasize)\n    tag_225:\n      pop\n      pop\n      pop\n      pop\n      mload(0x40)\n      returndatasize\n      not(0x1f)\n      0x1f\n      dup3\n      add\n      and\n      dup3\n      add\n      dup1\n      0x40\n      mstore\n      pop\n      dup2\n      add\n      swap1\n      tag_226\n      swap2\n      swap1\n      tag_227\n      jump\t// in\n    tag_226:\n        /* \"contracts/ebcTrans/stakeEbcV1.sol\":20700:20745  uint256 price=stake1(_lpPriceToken).lpPrice() */\n      swap1\n      pop\n        /* \"contracts/ebcTrans/stakeEbcV1.sol\":20851:20856  price */\n      dup1\n        /* \"contracts/ebcTrans/stakeEbcV1.sol\":20844:20856  return price */\n      swap2\n      pop\n      pop\n        /* \"contracts/ebcTrans/stakeEbcV1.sol\":20632:20864  function lpPrice() public view returns (uint256) {        ... */\n      swap1\n      jump\t// out\n        /* \"contracts/ebcTrans/stakeEbcV1.sol\":10889:10935  mapping(address => bool) public _userBlacklist */\n    tag_72:\n      mstore(0x20, 0x17)\n      dup1\n      0x00\n      mstore\n      keccak256(0x00, 0x40)\n      0x00\n      swap2\n      pop\n      sload\n      swap1\n      0x0100\n      exp\n      swap1\n      div\n      0xff\n      and\n      dup2\n      jump\t// out\n        /* \"contracts/ebcTrans/stakeEbcV1.sol\":10559:10613  mapping(address => uint256) public _userStakeStartTime */\n    tag_77:\n      mstore(0x20, 0x13)\n      dup1\n      0x00\n      mstore\n      keccak256(0x00, 0x40)\n      0x00\n      swap2\n      pop\n      swap1\n      pop\n      sload\n      dup2\n      jump\t// out\n        /* \"contracts/ebcTrans/stakeEbcV1.sol\":9802:9844  uint256 public _stake5 = 24 hours * 30 * 5 */\n    tag_80:\n      sload(0x09)\n      dup2\n      jump\t// out\n        /* \"contracts/ebcTrans/stakeEbcV1.sol\":10066:10111  mapping(address => uint256) public _inviteNum */\n    tag_84:\n      mstore(0x20, 0x0d)\n      dup1\n      0x00\n      mstore\n      keccak256(0x00, 0x40)\n      0x00\n      swap2\n      pop\n      swap1\n      pop\n      sload\n      dup2\n      jump\t// out\n        /* \"contracts/ebcTrans/stakeEbcV1.sol\":11193:11279  function set_aToken(address token) public onlyOwner {... */\n    tag_88:\n        /* \"contracts/ebcTrans/stakeEbcV1.sol\":1591:1601  msg.sender */\n      caller\n        /* \"contracts/ebcTrans/stakeEbcV1.sol\":1581:1601  _owner == msg.sender */\n      0xffffffffffffffffffffffffffffffffffffffff\n      and\n        /* \"contracts/ebcTrans/stakeEbcV1.sol\":1581:1587  _owner */\n      0x00\n      dup1\n      sload\n      swap1\n      0x0100\n      exp\n      swap1\n      div\n      0xffffffffffffffffffffffffffffffffffffffff\n      and\n        /* \"contracts/ebcTrans/stakeEbcV1.sol\":1581:1601  _owner == msg.sender */\n      0xffffffffffffffffffffffffffffffffffffffff\n      and\n      eq\n        /* \"contracts/ebcTrans/stakeEbcV1.sol\":1581:1623  _owner == msg.sender||_owner == msg.sender */\n      dup1\n      tag_229\n      jumpi\n      pop\n        /* \"contracts/ebcTrans/stakeEbcV1.sol\":1613:1623  msg.sender */\n      caller\n        /* \"contracts/ebcTrans/stakeEbcV1.sol\":1603:1623  _owner == msg.sender */\n      0xffffffffffffffffffffffffffffffffffffffff\n      and\n        /* \"contracts/ebcTrans/stakeEbcV1.sol\":1603:1609  _owner */\n      0x00\n      dup1\n      sload\n      swap1\n      0x0100\n      exp\n      swap1\n      div\n      0xffffffffffffffffffffffffffffffffffffffff\n      and\n        /* \"contracts/ebcTrans/stakeEbcV1.sol\":1603:1623  _owner == msg.sender */\n      0xffffffffffffffffffffffffffffffffffffffff\n      and\n      eq\n        /* \"contracts/ebcTrans/stakeEbcV1.sol\":1581:1623  _owner == msg.sender||_owner == msg.sender */\n    tag_229:\n        /* \"contracts/ebcTrans/stakeEbcV1.sol\":1573:1634  require(_owner == msg.sender||_owner == msg.sender, \"!owner\") */\n      tag_230\n      jumpi\n      mload(0x40)\n      0x08c379a000000000000000000000000000000000000000000000000000000000\n      dup2\n      mstore\n      0x04\n      add\n      tag_231\n      swap1\n      tag_216\n      jump\t// in\n    tag_231:\n      mload(0x40)\n      dup1\n      swap2\n      sub\n      swap1\n      revert\n    tag_230:\n        /* \"contracts/ebcTrans/stakeEbcV1.sol\":11266:11271  token */\n      dup1\n        /* \"contracts/ebcTrans/stakeEbcV1.sol\":11256:11263  _aToken */\n      0x04\n      0x00\n        /* \"contracts/ebcTrans/stakeEbcV1.sol\":11256:11271  _aToken = token */\n      0x0100\n      exp\n      dup2\n      sload\n      dup2\n      0xffffffffffffffffffffffffffffffffffffffff\n      mul\n      not\n      and\n      swap1\n      dup4\n      0xffffffffffffffffffffffffffffffffffffffff\n      and\n      mul\n      or\n      swap1\n      sstore\n      pop\n        /* \"contracts/ebcTrans/stakeEbcV1.sol\":11193:11279  function set_aToken(address token) public onlyOwner {... */\n      pop\n      jump\t// out\n        /* \"contracts/ebcTrans/stakeEbcV1.sol\":9927:9973  mapping(address => address) public _inviterMap */\n    tag_91:\n      mstore(0x20, 0x0b)\n      dup1\n      0x00\n      mstore\n      keccak256(0x00, 0x40)\n      0x00\n      swap2\n      pop\n      sload\n      swap1\n      0x0100\n      exp\n      swap1\n      div\n      0xffffffffffffffffffffffffffffffffffffffff\n      and\n      dup2\n      jump\t// out\n        /* \"contracts/ebcTrans/stakeEbcV1.sol\":11306:11392  function set_bToken(address token) public onlyOwner {... */\n    tag_96:\n        /* \"contracts/ebcTrans/stakeEbcV1.sol\":1591:1601  msg.sender */\n      caller\n        /* \"contracts/ebcTrans/stakeEbcV1.sol\":1581:1601  _owner == msg.sender */\n      0xffffffffffffffffffffffffffffffffffffffff\n      and\n        /* \"contracts/ebcTrans/stakeEbcV1.sol\":1581:1587  _owner */\n      0x00\n      dup1\n      sload\n      swap1\n      0x0100\n      exp\n      swap1\n      div\n      0xffffffffffffffffffffffffffffffffffffffff\n      and\n        /* \"contracts/ebcTrans/stakeEbcV1.sol\":1581:1601  _owner == msg.sender */\n      0xffffffffffffffffffffffffffffffffffffffff\n      and\n      eq\n        /* \"contracts/ebcTrans/stakeEbcV1.sol\":1581:1623  _owner == msg.sender||_owner == msg.sender */\n      dup1\n      tag_234\n      jumpi\n      pop\n        /* \"contracts/ebcTrans/stakeEbcV1.sol\":1613:1623  msg.sender */\n      caller\n        /* \"contracts/ebcTrans/stakeEbcV1.sol\":1603:1623  _owner == msg.sender */\n      0xffffffffffffffffffffffffffffffffffffffff\n      and\n        /* \"contracts/ebcTrans/stakeEbcV1.sol\":1603:1609  _owner */\n      0x00\n      dup1\n      sload\n      swap1\n      0x0100\n      exp\n      swap1\n      div\n      0xffffffffffffffffffffffffffffffffffffffff\n      and\n        /* \"contracts/ebcTrans/stakeEbcV1.sol\":1603:1623  _owner == msg.sender */\n      0xffffffffffffffffffffffffffffffffffffffff\n      and\n      eq\n        /* \"contracts/ebcTrans/stakeEbcV1.sol\":1581:1623  _owner == msg.sender||_owner == msg.sender */\n    tag_234:\n        /* \"contracts/ebcTrans/stakeEbcV1.sol\":1573:1634  require(_owner == msg.sender||_owner == msg.sender, \"!owner\") */\n      tag_235\n      jumpi\n      mload(0x40)\n      0x08c379a000000000000000000000000000000000000000000000000000000000\n      dup2\n      mstore\n      0x04\n      add\n      tag_236\n      swap1\n      tag_216\n      jump\t// in\n    tag_236:\n      mload(0x40)\n      dup1\n      swap2\n      sub\n      swap1\n      revert\n    tag_235:\n        /* \"contracts/ebcTrans/stakeEbcV1.sol\":11379:11384  token */\n      dup1\n        /* \"contracts/ebcTrans/stakeEbcV1.sol\":11369:11376  _bToken */\n      0x05\n      0x00\n        /* \"contracts/ebcTrans/stakeEbcV1.sol\":11369:11384  _bToken = token */\n      0x0100\n      exp\n      dup2\n      sload\n      dup2\n      0xffffffffffffffffffffffffffffffffffffffff\n      mul\n      not\n      and\n      swap1\n      dup4\n      0xffffffffffffffffffffffffffffffffffffffff\n      and\n      mul\n      or\n      swap1\n      sstore\n      pop\n        /* \"contracts/ebcTrans/stakeEbcV1.sol\":11306:11392  function set_bToken(address token) public onlyOwner {... */\n      pop\n      jump\t// out\n        /* \"contracts/ebcTrans/stakeEbcV1.sol\":9866:9899  uint256 public _proportion = 1000 */\n    tag_98:\n      sload(0x0a)\n      dup2\n      jump\t// out\n        /* \"contracts/ebcTrans/stakeEbcV1.sol\":9293:9360  address public _bToken = 0xd114D4436f714dE79F0CB7eB3DB28d873E60602e */\n    tag_101:\n      0x05\n      0x00\n      swap1\n      sload\n      swap1\n      0x0100\n      exp\n      swap1\n      div\n      0xffffffffffffffffffffffffffffffffffffffff\n      and\n      dup2\n      jump\t// out\n        /* \"contracts/ebcTrans/stakeEbcV1.sol\":19923:20032  function withdraw() external onlyOwner {... */\n    tag_104:\n        /* \"contracts/ebcTrans/stakeEbcV1.sol\":1591:1601  msg.sender */\n      caller\n        /* \"contracts/ebcTrans/stakeEbcV1.sol\":1581:1601  _owner == msg.sender */\n      0xffffffffffffffffffffffffffffffffffffffff\n      and\n        /* \"contracts/ebcTrans/stakeEbcV1.sol\":1581:1587  _owner */\n      0x00\n      dup1\n      sload\n      swap1\n      0x0100\n      exp\n      swap1\n      div\n      0xffffffffffffffffffffffffffffffffffffffff\n      and\n        /* \"contracts/ebcTrans/stakeEbcV1.sol\":1581:1601  _owner == msg.sender */\n      0xffffffffffffffffffffffffffffffffffffffff\n      and\n      eq\n        /* \"contracts/ebcTrans/stakeEbcV1.sol\":1581:1623  _owner == msg.sender||_owner == msg.sender */\n      dup1\n      tag_239\n      jumpi\n      pop\n        /* \"contracts/ebcTrans/stakeEbcV1.sol\":1613:1623  msg.sender */\n      caller\n        /* \"contracts/ebcTrans/stakeEbcV1.sol\":1603:1623  _owner == msg.sender */\n      0xffffffffffffffffffffffffffffffffffffffff\n      and\n        /* \"contracts/ebcTrans/stakeEbcV1.sol\":1603:1609  _owner */\n      0x00\n      dup1\n      sload\n      swap1\n      0x0100\n      exp\n      swap1\n      div\n      0xffffffffffffffffffffffffffffffffffffffff\n      and\n        /* \"contracts/ebcTrans/stakeEbcV1.sol\":1603:1623  _owner == msg.sender */\n      0xffffffffffffffffffffffffffffffffffffffff\n      and\n      eq\n        /* \"contracts/ebcTrans/stakeEbcV1.sol\":1581:1623  _owner == msg.sender||_owner == msg.sender */\n    tag_239:\n        /* \"contracts/ebcTrans/stakeEbcV1.sol\":1573:1634  require(_owner == msg.sender||_owner == msg.sender, \"!owner\") */\n      tag_240\n      jumpi\n      mload(0x40)\n      0x08c379a000000000000000000000000000000000000000000000000000000000\n      dup2\n      mstore\n      0x04\n      add\n      tag_241\n      swap1\n      tag_216\n      jump\t// in\n    tag_241:\n      mload(0x40)\n      dup1\n      swap2\n      sub\n      swap1\n      revert\n    tag_240:\n        /* \"contracts/ebcTrans/stakeEbcV1.sol\":19981:19991  msg.sender */\n      caller\n        /* \"contracts/ebcTrans/stakeEbcV1.sol\":19973:20001  payable(msg.sender).transfer */\n      0xffffffffffffffffffffffffffffffffffffffff\n      and\n        /* \"contracts/ebcTrans/stakeEbcV1.sol\":19973:20024  payable(msg.sender).transfer(address(this).balance) */\n      0x08fc\n        /* \"contracts/ebcTrans/stakeEbcV1.sol\":20002:20023  address(this).balance */\n      selfbalance\n        /* \"contracts/ebcTrans/stakeEbcV1.sol\":19973:20024  payable(msg.sender).transfer(address(this).balance) */\n      swap1\n      dup2\n      iszero\n      mul\n      swap1\n      mload(0x40)\n      0x00\n      mload(0x40)\n      dup1\n      dup4\n      sub\n      dup2\n      dup6\n      dup9\n      dup9\n      call\n      swap4\n      pop\n      pop\n      pop\n      pop\n      iszero\n      dup1\n      iszero\n      tag_244\n      jumpi\n      returndatasize\n      0x00\n      dup1\n      returndatacopy\n      revert(0x00, returndatasize)\n    tag_244:\n      pop\n        /* \"contracts/ebcTrans/stakeEbcV1.sol\":19923:20032  function withdraw() external onlyOwner {... */\n      jump\t// out\n        /* \"contracts/ebcTrans/stakeEbcV1.sol\":11556:11650  function set_adminToken(address token) public onlyOwner {... */\n    tag_107:\n        /* \"contracts/ebcTrans/stakeEbcV1.sol\":1591:1601  msg.sender */\n      caller\n        /* \"contracts/ebcTrans/stakeEbcV1.sol\":1581:1601  _owner == msg.sender */\n      0xffffffffffffffffffffffffffffffffffffffff\n      and\n        /* \"contracts/ebcTrans/stakeEbcV1.sol\":1581:1587  _owner */\n      0x00\n      dup1\n      sload\n      swap1\n      0x0100\n      exp\n      swap1\n      div\n      0xffffffffffffffffffffffffffffffffffffffff\n      and\n        /* \"contracts/ebcTrans/stakeEbcV1.sol\":1581:1601  _owner == msg.sender */\n      0xffffffffffffffffffffffffffffffffffffffff\n      and\n      eq\n        /* \"contracts/ebcTrans/stakeEbcV1.sol\":1581:1623  _owner == msg.sender||_owner == msg.sender */\n      dup1\n      tag_246\n      jumpi\n      pop\n        /* \"contracts/ebcTrans/stakeEbcV1.sol\":1613:1623  msg.sender */\n      caller\n        /* \"contracts/ebcTrans/stakeEbcV1.sol\":1603:1623  _owner == msg.sender */\n      0xffffffffffffffffffffffffffffffffffffffff\n      and\n        /* \"contracts/ebcTrans/stakeEbcV1.sol\":1603:1609  _owner */\n      0x00\n      dup1\n      sload\n      swap1\n      0x0100\n      exp\n      swap1\n      div\n      0xffffffffffffffffffffffffffffffffffffffff\n      and\n        /* \"contracts/ebcTrans/stakeEbcV1.sol\":1603:1623  _owner == msg.sender */\n      0xffffffffffffffffffffffffffffffffffffffff\n      and\n      eq\n        /* \"contracts/ebcTrans/stakeEbcV1.sol\":1581:1623  _owner == msg.sender||_owner == msg.sender */\n    tag_246:\n        /* \"contracts/ebcTrans/stakeEbcV1.sol\":1573:1634  require(_owner == msg.sender||_owner == msg.sender, \"!owner\") */\n      tag_247\n      jumpi\n      mload(0x40)\n      0x08c379a000000000000000000000000000000000000000000000000000000000\n      dup2\n      mstore\n      0x04\n      add\n      tag_248\n      swap1\n      tag_216\n      jump\t// in\n    tag_248:\n      mload(0x40)\n      dup1\n      swap2\n      sub\n      swap1\n      revert\n    tag_247:\n        /* \"contracts/ebcTrans/stakeEbcV1.sol\":11637:11642  token */\n      dup1\n        /* \"contracts/ebcTrans/stakeEbcV1.sol\":11623:11634  _adminToken */\n      0x06\n      0x00\n        /* \"contracts/ebcTrans/stakeEbcV1.sol\":11623:11642  _adminToken = token */\n      0x0100\n      exp\n      dup2\n      sload\n      dup2\n      0xffffffffffffffffffffffffffffffffffffffff\n      mul\n      not\n      and\n      swap1\n      dup4\n      0xffffffffffffffffffffffffffffffffffffffff\n      and\n      mul\n      or\n      swap1\n      sstore\n      pop\n        /* \"contracts/ebcTrans/stakeEbcV1.sol\":11556:11650  function set_adminToken(address token) public onlyOwner {... */\n      pop\n      jump\t// out\n        /* \"contracts/ebcTrans/stakeEbcV1.sol\":11035:11081  mapping(string => uint256) public _backuint256 */\n    tag_111:\n      0x19\n      dup2\n      dup1\n      mload\n      0x20\n      dup2\n      add\n      dup3\n      add\n      dup1\n      mload\n      dup5\n      dup3\n      mstore\n      0x20\n      dup4\n      add\n      0x20\n      dup6\n      add\n      keccak256\n      dup2\n      dup4\n      mstore\n      dup1\n      swap6\n      pop\n      pop\n      pop\n      pop\n      pop\n      pop\n      0x00\n      swap2\n      pop\n      swap1\n      pop\n      sload\n      dup2\n      jump\t// out\n        /* \"contracts/ebcTrans/stakeEbcV1.sol\":14069:14286  function claimReward_all(address token,uint256 t_amount) public onlyOwner{       ... */\n    tag_116:\n        /* \"contracts/ebcTrans/stakeEbcV1.sol\":1591:1601  msg.sender */\n      caller\n        /* \"contracts/ebcTrans/stakeEbcV1.sol\":1581:1601  _owner == msg.sender */\n      0xffffffffffffffffffffffffffffffffffffffff\n      and\n        /* \"contracts/ebcTrans/stakeEbcV1.sol\":1581:1587  _owner */\n      0x00\n      dup1\n      sload\n      swap1\n      0x0100\n      exp\n      swap1\n      div\n      0xffffffffffffffffffffffffffffffffffffffff\n      and\n        /* \"contracts/ebcTrans/stakeEbcV1.sol\":1581:1601  _owner == msg.sender */\n      0xffffffffffffffffffffffffffffffffffffffff\n      and\n      eq\n        /* \"contracts/ebcTrans/stakeEbcV1.sol\":1581:1623  _owner == msg.sender||_owner == msg.sender */\n      dup1\n      tag_251\n      jumpi\n      pop\n        /* \"contracts/ebcTrans/stakeEbcV1.sol\":1613:1623  msg.sender */\n      caller\n        /* \"contracts/ebcTrans/stakeEbcV1.sol\":1603:1623  _owner == msg.sender */\n      0xffffffffffffffffffffffffffffffffffffffff\n      and\n        /* \"contracts/ebcTrans/stakeEbcV1.sol\":1603:1609  _owner */\n      0x00\n      dup1\n      sload\n      swap1\n      0x0100\n      exp\n      swap1\n      div\n      0xffffffffffffffffffffffffffffffffffffffff\n      and\n        /* \"contracts/ebcTrans/stakeEbcV1.sol\":1603:1623  _owner == msg.sender */\n      0xffffffffffffffffffffffffffffffffffffffff\n      and\n      eq\n        /* \"contracts/ebcTrans/stakeEbcV1.sol\":1581:1623  _owner == msg.sender||_owner == msg.sender */\n    tag_251:\n        /* \"contracts/ebcTrans/stakeEbcV1.sol\":1573:1634  require(_owner == msg.sender||_owner == msg.sender, \"!owner\") */\n      tag_252\n      jumpi\n      mload(0x40)\n      0x08c379a000000000000000000000000000000000000000000000000000000000\n      dup2\n      mstore\n      0x04\n      add\n      tag_253\n      swap1\n      tag_216\n      jump\t// in\n    tag_253:\n      mload(0x40)\n      dup1\n      swap2\n      sub\n      swap1\n      revert\n    tag_252:\n        /* \"contracts/ebcTrans/stakeEbcV1.sol\":14233:14238  token */\n      dup2\n        /* \"contracts/ebcTrans/stakeEbcV1.sol\":14226:14248  IERC20(token).transfer */\n      0xffffffffffffffffffffffffffffffffffffffff\n      and\n      0xa9059cbb\n        /* \"contracts/ebcTrans/stakeEbcV1.sol\":14249:14259  msg.sender */\n      caller\n        /* \"contracts/ebcTrans/stakeEbcV1.sol\":14261:14269  t_amount */\n      dup4\n        /* \"contracts/ebcTrans/stakeEbcV1.sol\":14226:14270  IERC20(token).transfer(msg.sender, t_amount) */\n      mload(0x40)\n      dup4\n      0xffffffff\n      and\n      0xe0\n      shl\n      dup2\n      mstore\n      0x04\n      add\n      tag_255\n      swap3\n      swap2\n      swap1\n      tag_256\n      jump\t// in\n    tag_255:\n      0x20\n      mload(0x40)\n      dup1\n      dup4\n      sub\n      dup2\n      0x00\n      dup8\n      gas\n      call\n      iszero\n      dup1\n      iszero\n      tag_258\n      jumpi\n      returndatasize\n      0x00\n      dup1\n      returndatacopy\n      revert(0x00, returndatasize)\n    tag_258:\n      pop\n      pop\n      pop\n      pop\n      mload(0x40)\n      returndatasize\n      not(0x1f)\n      0x1f\n      dup3\n      add\n      and\n      dup3\n      add\n      dup1\n      0x40\n      mstore\n      pop\n      dup2\n      add\n      swap1\n      tag_259\n      swap2\n      swap1\n      tag_260\n      jump\t// in\n    tag_259:\n      pop\n        /* \"contracts/ebcTrans/stakeEbcV1.sol\":14069:14286  function claimReward_all(address token,uint256 t_amount) public onlyOwner{       ... */\n      pop\n      pop\n      jump\t// out\n        /* \"contracts/ebcTrans/stakeEbcV1.sol\":9405:9476  address public _adminToken = 0x641dc64BfbcdC419bcc7aFb0cE02D244155e1aC6 */\n    tag_118:\n      0x06\n      0x00\n      swap1\n      sload\n      swap1\n      0x0100\n      exp\n      swap1\n      div\n      0xffffffffffffffffffffffffffffffffffffffff\n      and\n      dup2\n      jump\t// out\n        /* \"contracts/ebcTrans/stakeEbcV1.sol\":11701:11798  function setlpPriceToken(address token) public onlyOwner {... */\n    tag_122:\n        /* \"contracts/ebcTrans/stakeEbcV1.sol\":1591:1601  msg.sender */\n      caller\n        /* \"contracts/ebcTrans/stakeEbcV1.sol\":1581:1601  _owner == msg.sender */\n      0xffffffffffffffffffffffffffffffffffffffff\n      and\n        /* \"contracts/ebcTrans/stakeEbcV1.sol\":1581:1587  _owner */\n      0x00\n      dup1\n      sload\n      swap1\n      0x0100\n      exp\n      swap1\n      div\n      0xffffffffffffffffffffffffffffffffffffffff\n      and\n        /* \"contracts/ebcTrans/stakeEbcV1.sol\":1581:1601  _owner == msg.sender */\n      0xffffffffffffffffffffffffffffffffffffffff\n      and\n      eq\n        /* \"contracts/ebcTrans/stakeEbcV1.sol\":1581:1623  _owner == msg.sender||_owner == msg.sender */\n      dup1\n      tag_262\n      jumpi\n      pop\n        /* \"contracts/ebcTrans/stakeEbcV1.sol\":1613:1623  msg.sender */\n      caller\n        /* \"contracts/ebcTrans/stakeEbcV1.sol\":1603:1623  _owner == msg.sender */\n      0xffffffffffffffffffffffffffffffffffffffff\n      and\n        /* \"contracts/ebcTrans/stakeEbcV1.sol\":1603:1609  _owner */\n      0x00\n      dup1\n      sload\n      swap1\n      0x0100\n      exp\n      swap1\n      div\n      0xffffffffffffffffffffffffffffffffffffffff\n      and\n        /* \"contracts/ebcTrans/stakeEbcV1.sol\":1603:1623  _owner == msg.sender */\n      0xffffffffffffffffffffffffffffffffffffffff\n      and\n      eq\n        /* \"contracts/ebcTrans/stakeEbcV1.sol\":1581:1623  _owner == msg.sender||_owner == msg.sender */\n    tag_262:\n        /* \"contracts/ebcTrans/stakeEbcV1.sol\":1573:1634  require(_owner == msg.sender||_owner == msg.sender, \"!owner\") */\n      tag_263\n      jumpi\n      mload(0x40)\n      0x08c379a000000000000000000000000000000000000000000000000000000000\n      dup2\n      mstore\n      0x04\n      add\n      tag_264\n      swap1\n      tag_216\n      jump\t// in\n    tag_264:\n      mload(0x40)\n      dup1\n      swap2\n      sub\n      swap1\n      revert\n    tag_263:\n        /* \"contracts/ebcTrans/stakeEbcV1.sol\":11785:11790  token */\n      dup1\n        /* \"contracts/ebcTrans/stakeEbcV1.sol\":11769:11782  _lpPriceToken */\n      0x03\n      0x00\n        /* \"contracts/ebcTrans/stakeEbcV1.sol\":11769:11790  _lpPriceToken = token */\n      0x0100\n      exp\n      dup2\n      sload\n      dup2\n      0xffffffffffffffffffffffffffffffffffffffff\n      mul\n      not\n      and\n      swap1\n      dup4\n      0xffffffffffffffffffffffffffffffffffffffff\n      and\n      mul\n      or\n      swap1\n      sstore\n      pop\n        /* \"contracts/ebcTrans/stakeEbcV1.sol\":11701:11798  function setlpPriceToken(address token) public onlyOwner {... */\n      pop\n      jump\t// out\n        /* \"contracts/ebcTrans/stakeEbcV1.sol\":8814:8885  address public _stakeToken = 0x6b6b2D8166D13b58155b8d454F239AE3691257A6 */\n    tag_124:\n      0x02\n      0x00\n      swap1\n      sload\n      swap1\n      0x0100\n      exp\n      swap1\n      div\n      0xffffffffffffffffffffffffffffffffffffffff\n      and\n      dup2\n      jump\t// out\n        /* \"contracts/ebcTrans/stakeEbcV1.sol\":11427:11523  function set_rewardToken(address token) public onlyOwner {... */\n    tag_128:\n        /* \"contracts/ebcTrans/stakeEbcV1.sol\":1591:1601  msg.sender */\n      caller\n        /* \"contracts/ebcTrans/stakeEbcV1.sol\":1581:1601  _owner == msg.sender */\n      0xffffffffffffffffffffffffffffffffffffffff\n      and\n        /* \"contracts/ebcTrans/stakeEbcV1.sol\":1581:1587  _owner */\n      0x00\n      dup1\n      sload\n      swap1\n      0x0100\n      exp\n      swap1\n      div\n      0xffffffffffffffffffffffffffffffffffffffff\n      and\n        /* \"contracts/ebcTrans/stakeEbcV1.sol\":1581:1601  _owner == msg.sender */\n      0xffffffffffffffffffffffffffffffffffffffff\n      and\n      eq\n        /* \"contracts/ebcTrans/stakeEbcV1.sol\":1581:1623  _owner == msg.sender||_owner == msg.sender */\n      dup1\n      tag_267\n      jumpi\n      pop\n        /* \"contracts/ebcTrans/stakeEbcV1.sol\":1613:1623  msg.sender */\n      caller\n        /* \"contracts/ebcTrans/stakeEbcV1.sol\":1603:1623  _owner == msg.sender */\n      0xffffffffffffffffffffffffffffffffffffffff\n      and\n        /* \"contracts/ebcTrans/stakeEbcV1.sol\":1603:1609  _owner */\n      0x00\n      dup1\n      sload\n      swap1\n      0x0100\n      exp\n      swap1\n      div\n      0xffffffffffffffffffffffffffffffffffffffff\n      and\n        /* \"contracts/ebcTrans/stakeEbcV1.sol\":1603:1623  _owner == msg.sender */\n      0xffffffffffffffffffffffffffffffffffffffff\n      and\n      eq\n        /* \"contracts/ebcTrans/stakeEbcV1.sol\":1581:1623  _owner == msg.sender||_owner == msg.sender */\n    tag_267:\n        /* \"contracts/ebcTrans/stakeEbcV1.sol\":1573:1634  require(_owner == msg.sender||_owner == msg.sender, \"!owner\") */\n      tag_268\n      jumpi\n      mload(0x40)\n      0x08c379a000000000000000000000000000000000000000000000000000000000\n      dup2\n      mstore\n      0x04\n      add\n      tag_269\n      swap1\n      tag_216\n      jump\t// in\n    tag_269:\n      mload(0x40)\n      dup1\n      swap2\n      sub\n      swap1\n      revert\n    tag_268:\n        /* \"contracts/ebcTrans/stakeEbcV1.sol\":11510:11515  token */\n      dup1\n        /* \"contracts/ebcTrans/stakeEbcV1.sol\":11495:11507  _rewardToken */\n      0x01\n      0x00\n        /* \"contracts/ebcTrans/stakeEbcV1.sol\":11495:11515  _rewardToken = token */\n      0x0100\n      exp\n      dup2\n      sload\n      dup2\n      0xffffffffffffffffffffffffffffffffffffffff\n      mul\n      not\n      and\n      swap1\n      dup4\n      0xffffffffffffffffffffffffffffffffffffffff\n      and\n      mul\n      or\n      swap1\n      sstore\n      pop\n        /* \"contracts/ebcTrans/stakeEbcV1.sol\":11427:11523  function set_rewardToken(address token) public onlyOwner {... */\n      pop\n      jump\t// out\n        /* \"contracts/ebcTrans/stakeEbcV1.sol\":10647:10700  mapping(address => uint256) public _userLastClaimTime */\n    tag_131:\n      mstore(0x20, 0x14)\n      dup1\n      0x00\n      mstore\n      keccak256(0x00, 0x40)\n      0x00\n      swap2\n      pop\n      swap1\n      pop\n      sload\n      dup2\n      jump\t// out\n        /* \"contracts/ebcTrans/stakeEbcV1.sol\":9206:9273  address public _aToken = 0x55d398326f99059fF775485246999027B3197955 */\n    tag_134:\n      0x04\n      0x00\n      swap1\n      sload\n      swap1\n      0x0100\n      exp\n      swap1\n      div\n      0xffffffffffffffffffffffffffffffffffffffff\n      and\n      dup2\n      jump\t// out\n        /* \"contracts/ebcTrans/stakeEbcV1.sol\":11965:12085  function setUserBlacklist(address user) public onlyOwner {... */\n    tag_138:\n        /* \"contracts/ebcTrans/stakeEbcV1.sol\":1591:1601  msg.sender */\n      caller\n        /* \"contracts/ebcTrans/stakeEbcV1.sol\":1581:1601  _owner == msg.sender */\n      0xffffffffffffffffffffffffffffffffffffffff\n      and\n        /* \"contracts/ebcTrans/stakeEbcV1.sol\":1581:1587  _owner */\n      0x00\n      dup1\n      sload\n      swap1\n      0x0100\n      exp\n      swap1\n      div\n      0xffffffffffffffffffffffffffffffffffffffff\n      and\n        /* \"contracts/ebcTrans/stakeEbcV1.sol\":1581:1601  _owner == msg.sender */\n      0xffffffffffffffffffffffffffffffffffffffff\n      and\n      eq\n        /* \"contracts/ebcTrans/stakeEbcV1.sol\":1581:1623  _owner == msg.sender||_owner == msg.sender */\n      dup1\n      tag_272\n      jumpi\n      pop\n        /* \"contracts/ebcTrans/stakeEbcV1.sol\":1613:1623  msg.sender */\n      caller\n        /* \"contracts/ebcTrans/stakeEbcV1.sol\":1603:1623  _owner == msg.sender */\n      0xffffffffffffffffffffffffffffffffffffffff\n      and\n        /* \"contracts/ebcTrans/stakeEbcV1.sol\":1603:1609  _owner */\n      0x00\n      dup1\n      sload\n      swap1\n      0x0100\n      exp\n      swap1\n      div\n      0xffffffffffffffffffffffffffffffffffffffff\n      and\n        /* \"contracts/ebcTrans/stakeEbcV1.sol\":1603:1623  _owner == msg.sender */\n      0xffffffffffffffffffffffffffffffffffffffff\n      and\n      eq\n        /* \"contracts/ebcTrans/stakeEbcV1.sol\":1581:1623  _owner == msg.sender||_owner == msg.sender */\n    tag_272:\n        /* \"contracts/ebcTrans/stakeEbcV1.sol\":1573:1634  require(_owner == msg.sender||_owner == msg.sender, \"!owner\") */\n      tag_273\n      jumpi\n      mload(0x40)\n      0x08c379a000000000000000000000000000000000000000000000000000000000\n      dup2\n      mstore\n      0x04\n      add\n      tag_274\n      swap1\n      tag_216\n      jump\t// in\n    tag_274:\n      mload(0x40)\n      dup1\n      swap2\n      sub\n      swap1\n      revert\n    tag_273:\n        /* \"contracts/ebcTrans/stakeEbcV1.sol\":12057:12071  _userBlacklist */\n      0x17\n        /* \"contracts/ebcTrans/stakeEbcV1.sol\":12057:12077  _userBlacklist[user] */\n      0x00\n        /* \"contracts/ebcTrans/stakeEbcV1.sol\":12072:12076  user */\n      dup3\n        /* \"contracts/ebcTrans/stakeEbcV1.sol\":12057:12077  _userBlacklist[user] */\n      0xffffffffffffffffffffffffffffffffffffffff\n      and\n      0xffffffffffffffffffffffffffffffffffffffff\n      and\n      dup2\n      mstore\n      0x20\n      add\n      swap1\n      dup2\n      mstore\n      0x20\n      add\n      0x00\n      keccak256\n      0x00\n      swap1\n      sload\n      swap1\n      0x0100\n      exp\n      swap1\n      div\n      0xff\n      and\n        /* \"contracts/ebcTrans/stakeEbcV1.sol\":12056:12077  !_userBlacklist[user] */\n      iszero\n        /* \"contracts/ebcTrans/stakeEbcV1.sol\":12033:12047  _userBlacklist */\n      0x17\n        /* \"contracts/ebcTrans/stakeEbcV1.sol\":12033:12053  _userBlacklist[user] */\n      0x00\n        /* \"contracts/ebcTrans/stakeEbcV1.sol\":12048:12052  user */\n      dup4\n        /* \"contracts/ebcTrans/stakeEbcV1.sol\":12033:12053  _userBlacklist[user] */\n      0xffffffffffffffffffffffffffffffffffffffff\n      and\n      0xffffffffffffffffffffffffffffffffffffffff\n      and\n      dup2\n      mstore\n      0x20\n      add\n      swap1\n      dup2\n      mstore\n      0x20\n      add\n      0x00\n      keccak256\n      0x00\n        /* \"contracts/ebcTrans/stakeEbcV1.sol\":12033:12077  _userBlacklist[user] = !_userBlacklist[user] */\n      0x0100\n      exp\n      dup2\n      sload\n      dup2\n      0xff\n      mul\n      not\n      and\n      swap1\n      dup4\n      iszero\n      iszero\n      mul\n      or\n      swap1\n      sstore\n      pop\n        /* \"contracts/ebcTrans/stakeEbcV1.sol\":11965:12085  function setUserBlacklist(address user) public onlyOwner {... */\n      pop\n      jump\t// out\n        /* \"contracts/ebcTrans/stakeEbcV1.sol\":11103:11145  mapping(string => uint8) public _backuint8 */\n    tag_141:\n      0x1a\n      dup2\n      dup1\n      mload\n      0x20\n      dup2\n      add\n      dup3\n      add\n      dup1\n      mload\n      dup5\n      dup3\n      mstore\n      0x20\n      dup4\n      add\n      0x20\n      dup6\n      add\n      keccak256\n      dup2\n      dup4\n      mstore\n      dup1\n      swap6\n      pop\n      pop\n      pop\n      pop\n      pop\n      pop\n      0x00\n      swap2\n      pop\n      sload\n      swap1\n      0x0100\n      exp\n      swap1\n      div\n      0xff\n      and\n      dup2\n      jump\t// out\n        /* \"contracts/ebcTrans/stakeEbcV1.sol\":9740:9782  uint256 public _stake3 = 24 hours * 30 * 3 */\n    tag_145:\n      sload(0x08)\n      dup2\n      jump\t// out\n        /* \"contracts/ebcTrans/stakeEbcV1.sol\":10408:10454  mapping(address => uint256) public _userStakeB */\n    tag_149:\n      mstore(0x20, 0x11)\n      dup1\n      0x00\n      mstore\n      keccak256(0x00, 0x40)\n      0x00\n      swap2\n      pop\n      swap1\n      pop\n      sload\n      dup2\n      jump\t// out\n        /* \"contracts/ebcTrans/stakeEbcV1.sol\":1454:1533  function owner() public view returns (address) {... */\n    tag_152:\n        /* \"contracts/ebcTrans/stakeEbcV1.sol\":1492:1499  address */\n      0x00\n        /* \"contracts/ebcTrans/stakeEbcV1.sol\":1519:1525  _owner */\n      dup1\n      0x00\n      swap1\n      sload\n      swap1\n      0x0100\n      exp\n      swap1\n      div\n      0xffffffffffffffffffffffffffffffffffffffff\n      and\n        /* \"contracts/ebcTrans/stakeEbcV1.sol\":1512:1525  return _owner */\n      swap1\n      pop\n        /* \"contracts/ebcTrans/stakeEbcV1.sol\":1454:1533  function owner() public view returns (address) {... */\n      swap1\n      jump\t// out\n        /* \"contracts/ebcTrans/stakeEbcV1.sol\":20906:21300  function cancalStackOver(uint256 amount) public onlyOwner{      ... */\n    tag_156:\n        /* \"contracts/ebcTrans/stakeEbcV1.sol\":1591:1601  msg.sender */\n      caller\n        /* \"contracts/ebcTrans/stakeEbcV1.sol\":1581:1601  _owner == msg.sender */\n      0xffffffffffffffffffffffffffffffffffffffff\n      and\n        /* \"contracts/ebcTrans/stakeEbcV1.sol\":1581:1587  _owner */\n      0x00\n      dup1\n      sload\n      swap1\n      0x0100\n      exp\n      swap1\n      div\n      0xffffffffffffffffffffffffffffffffffffffff\n      and\n        /* \"contracts/ebcTrans/stakeEbcV1.sol\":1581:1601  _owner == msg.sender */\n      0xffffffffffffffffffffffffffffffffffffffff\n      and\n      eq\n        /* \"contracts/ebcTrans/stakeEbcV1.sol\":1581:1623  _owner == msg.sender||_owner == msg.sender */\n      dup1\n      tag_278\n      jumpi\n      pop\n        /* \"contracts/ebcTrans/stakeEbcV1.sol\":1613:1623  msg.sender */\n      caller\n        /* \"contracts/ebcTrans/stakeEbcV1.sol\":1603:1623  _owner == msg.sender */\n      0xffffffffffffffffffffffffffffffffffffffff\n      and\n        /* \"contracts/ebcTrans/stakeEbcV1.sol\":1603:1609  _owner */\n      0x00\n      dup1\n      sload\n      swap1\n      0x0100\n      exp\n      swap1\n      div\n      0xffffffffffffffffffffffffffffffffffffffff\n      and\n        /* \"contracts/ebcTrans/stakeEbcV1.sol\":1603:1623  _owner == msg.sender */\n      0xffffffffffffffffffffffffffffffffffffffff\n      and\n      eq\n        /* \"contracts/ebcTrans/stakeEbcV1.sol\":1581:1623  _owner == msg.sender||_owner == msg.sender */\n    tag_278:\n        /* \"contracts/ebcTrans/stakeEbcV1.sol\":1573:1634  require(_owner == msg.sender||_owner == msg.sender, \"!owner\") */\n      tag_279\n      jumpi\n      mload(0x40)\n      0x08c379a000000000000000000000000000000000000000000000000000000000\n      dup2\n      mstore\n      0x04\n      add\n      tag_280\n      swap1\n      tag_216\n      jump\t// in\n    tag_280:\n      mload(0x40)\n      dup1\n      swap2\n      sub\n      swap1\n      revert\n    tag_279:\n        /* \"contracts/ebcTrans/stakeEbcV1.sol\":21013:21014  0 */\n      0x00\n        /* \"contracts/ebcTrans/stakeEbcV1.sol\":20988:20998  _userStake */\n      0x0f\n        /* \"contracts/ebcTrans/stakeEbcV1.sol\":20988:21010  _userStake[msg.sender] */\n      0x00\n        /* \"contracts/ebcTrans/stakeEbcV1.sol\":20999:21009  msg.sender */\n      caller\n        /* \"contracts/ebcTrans/stakeEbcV1.sol\":20988:21010  _userStake[msg.sender] */\n      0xffffffffffffffffffffffffffffffffffffffff\n      and\n      0xffffffffffffffffffffffffffffffffffffffff\n      and\n      dup2\n      mstore\n      0x20\n      add\n      swap1\n      dup2\n      mstore\n      0x20\n      add\n      0x00\n      keccak256\n      sload\n        /* \"contracts/ebcTrans/stakeEbcV1.sol\":20988:21014  _userStake[msg.sender] > 0 */\n      gt\n        /* \"contracts/ebcTrans/stakeEbcV1.sol\":20980:21028  require(_userStake[msg.sender] > 0, \"not stake\") */\n      tag_282\n      jumpi\n      mload(0x40)\n      0x08c379a000000000000000000000000000000000000000000000000000000000\n      dup2\n      mstore\n      0x04\n      add\n      tag_283\n      swap1\n      tag_284\n      jump\t// in\n    tag_283:\n      mload(0x40)\n      dup1\n      swap2\n      sub\n      swap1\n      revert\n    tag_282:\n        /* \"contracts/ebcTrans/stakeEbcV1.sol\":21046:21057  _stakeToken */\n      0x02\n      0x00\n      swap1\n      sload\n      swap1\n      0x0100\n      exp\n      swap1\n      div\n      0xffffffffffffffffffffffffffffffffffffffff\n      and\n        /* \"contracts/ebcTrans/stakeEbcV1.sol\":21039:21067  IERC20(_stakeToken).transfer */\n      0xffffffffffffffffffffffffffffffffffffffff\n      and\n      0xa9059cbb\n        /* \"contracts/ebcTrans/stakeEbcV1.sol\":21068:21078  msg.sender */\n      caller\n        /* \"contracts/ebcTrans/stakeEbcV1.sol\":21080:21086  amount */\n      dup4\n        /* \"contracts/ebcTrans/stakeEbcV1.sol\":21039:21087  IERC20(_stakeToken).transfer(msg.sender, amount) */\n      mload(0x40)\n      dup4\n      0xffffffff\n      and\n      0xe0\n      shl\n      dup2\n      mstore\n      0x04\n      add\n      tag_285\n      swap3\n      swap2\n      swap1\n      tag_256\n      jump\t// in\n    tag_285:\n      0x20\n      mload(0x40)\n      dup1\n      dup4\n      sub\n      dup2\n      0x00\n      dup8\n      gas\n      call\n      iszero\n      dup1\n      iszero\n      tag_287\n      jumpi\n      returndatasize\n      0x00\n      dup1\n      returndatacopy\n      revert(0x00, returndatasize)\n    tag_287:\n      pop\n      pop\n      pop\n      pop\n      mload(0x40)\n      returndatasize\n      not(0x1f)\n      0x1f\n      dup3\n      add\n      and\n      dup3\n      add\n      dup1\n      0x40\n      mstore\n      pop\n      dup2\n      add\n      swap1\n      tag_288\n      swap2\n      swap1\n      tag_260\n      jump\t// in\n    tag_288:\n      pop\n        /* \"contracts/ebcTrans/stakeEbcV1.sol\":21123:21124  0 */\n      0x00\n        /* \"contracts/ebcTrans/stakeEbcV1.sol\":21098:21108  _userStake */\n      0x0f\n        /* \"contracts/ebcTrans/stakeEbcV1.sol\":21098:21120  _userStake[msg.sender] */\n      0x00\n        /* \"contracts/ebcTrans/stakeEbcV1.sol\":21109:21119  msg.sender */\n      caller\n        /* \"contracts/ebcTrans/stakeEbcV1.sol\":21098:21120  _userStake[msg.sender] */\n      0xffffffffffffffffffffffffffffffffffffffff\n      and\n      0xffffffffffffffffffffffffffffffffffffffff\n      and\n      dup2\n      mstore\n      0x20\n      add\n      swap1\n      dup2\n      mstore\n      0x20\n      add\n      0x00\n      keccak256\n        /* \"contracts/ebcTrans/stakeEbcV1.sol\":21098:21124  _userStake[msg.sender] = 0 */\n      dup2\n      swap1\n      sstore\n      pop\n        /* \"contracts/ebcTrans/stakeEbcV1.sol\":21169:21170  0 */\n      0x00\n        /* \"contracts/ebcTrans/stakeEbcV1.sol\":21135:21154  _userStakeStartTime */\n      0x13\n        /* \"contracts/ebcTrans/stakeEbcV1.sol\":21135:21166  _userStakeStartTime[msg.sender] */\n      0x00\n        /* \"contracts/ebcTrans/stakeEbcV1.sol\":21155:21165  msg.sender */\n      caller\n        /* \"contracts/ebcTrans/stakeEbcV1.sol\":21135:21166  _userStakeStartTime[msg.sender] */\n      0xffffffffffffffffffffffffffffffffffffffff\n      and\n      0xffffffffffffffffffffffffffffffffffffffff\n      and\n      dup2\n      mstore\n      0x20\n      add\n      swap1\n      dup2\n      mstore\n      0x20\n      add\n      0x00\n      keccak256\n        /* \"contracts/ebcTrans/stakeEbcV1.sol\":21135:21170  _userStakeStartTime[msg.sender] = 0 */\n      dup2\n      swap1\n      sstore\n      pop\n        /* \"contracts/ebcTrans/stakeEbcV1.sol\":21213:21214  0 */\n      0x00\n        /* \"contracts/ebcTrans/stakeEbcV1.sol\":21181:21198  _userEndClaimTime */\n      0x15\n        /* \"contracts/ebcTrans/stakeEbcV1.sol\":21181:21210  _userEndClaimTime[msg.sender] */\n      0x00\n        /* \"contracts/ebcTrans/stakeEbcV1.sol\":21199:21209  msg.sender */\n      caller\n        /* \"contracts/ebcTrans/stakeEbcV1.sol\":21181:21210  _userEndClaimTime[msg.sender] */\n      0xffffffffffffffffffffffffffffffffffffffff\n      and\n      0xffffffffffffffffffffffffffffffffffffffff\n      and\n      dup2\n      mstore\n      0x20\n      add\n      swap1\n      dup2\n      mstore\n      0x20\n      add\n      0x00\n      keccak256\n        /* \"contracts/ebcTrans/stakeEbcV1.sol\":21181:21214  _userEndClaimTime[msg.sender] = 0 */\n      dup2\n      swap1\n      sstore\n      pop\n        /* \"contracts/ebcTrans/stakeEbcV1.sol\":21254:21255  0 */\n      0x00\n        /* \"contracts/ebcTrans/stakeEbcV1.sol\":21225:21239  _userStakeTime */\n      0x12\n        /* \"contracts/ebcTrans/stakeEbcV1.sol\":21225:21251  _userStakeTime[msg.sender] */\n      0x00\n        /* \"contracts/ebcTrans/stakeEbcV1.sol\":21240:21250  msg.sender */\n      caller\n        /* \"contracts/ebcTrans/stakeEbcV1.sol\":21225:21251  _userStakeTime[msg.sender] */\n      0xffffffffffffffffffffffffffffffffffffffff\n      and\n      0xffffffffffffffffffffffffffffffffffffffff\n      and\n      dup2\n      mstore\n      0x20\n      add\n      swap1\n      dup2\n      mstore\n      0x20\n      add\n      0x00\n      keccak256\n        /* \"contracts/ebcTrans/stakeEbcV1.sol\":21225:21255  _userStakeTime[msg.sender] = 0 */\n      dup2\n      swap1\n      sstore\n      pop\n        /* \"contracts/ebcTrans/stakeEbcV1.sol\":21291:21292  0 */\n      0x00\n        /* \"contracts/ebcTrans/stakeEbcV1.sol\":21266:21276  _userPower */\n      0x16\n        /* \"contracts/ebcTrans/stakeEbcV1.sol\":21266:21288  _userPower[msg.sender] */\n      0x00\n        /* \"contracts/ebcTrans/stakeEbcV1.sol\":21277:21287  msg.sender */\n      caller\n        /* \"contracts/ebcTrans/stakeEbcV1.sol\":21266:21288  _userPower[msg.sender] */\n      0xffffffffffffffffffffffffffffffffffffffff\n      and\n      0xffffffffffffffffffffffffffffffffffffffff\n      and\n      dup2\n      mstore\n      0x20\n      add\n      swap1\n      dup2\n      mstore\n      0x20\n      add\n      0x00\n      keccak256\n        /* \"contracts/ebcTrans/stakeEbcV1.sol\":21266:21292  _userPower[msg.sender] = 0 */\n      dup2\n      swap1\n      sstore\n      pop\n        /* \"contracts/ebcTrans/stakeEbcV1.sol\":20906:21300  function cancalStackOver(uint256 amount) public onlyOwner{      ... */\n      pop\n      jump\t// out\n        /* \"contracts/ebcTrans/stakeEbcV1.sol\":10972:11013  mapping(string => string) public _backstr */\n    tag_159:\n      0x18\n      dup2\n      dup1\n      mload\n      0x20\n      dup2\n      add\n      dup3\n      add\n      dup1\n      mload\n      dup5\n      dup3\n      mstore\n      0x20\n      dup4\n      add\n      0x20\n      dup6\n      add\n      keccak256\n      dup2\n      dup4\n      mstore\n      dup1\n      swap6\n      pop\n      pop\n      pop\n      pop\n      pop\n      pop\n      0x00\n      swap2\n      pop\n      swap1\n      pop\n      dup1\n      sload\n      tag_289\n      swap1\n      tag_290\n      jump\t// in\n    tag_289:\n      dup1\n      0x1f\n      add\n      0x20\n      dup1\n      swap2\n      div\n      mul\n      0x20\n      add\n      mload(0x40)\n      swap1\n      dup2\n      add\n      0x40\n      mstore\n      dup1\n      swap3\n      swap2\n      swap1\n      dup2\n      dup2\n      mstore\n      0x20\n      add\n      dup3\n      dup1\n      sload\n      tag_291\n      swap1\n      tag_290\n      jump\t// in\n    tag_291:\n      dup1\n      iszero\n      tag_292\n      jumpi\n      dup1\n      0x1f\n      lt\n      tag_293\n      jumpi\n      0x0100\n      dup1\n      dup4\n      sload\n      div\n      mul\n      dup4\n      mstore\n      swap2\n      0x20\n      add\n      swap2\n      jump(tag_292)\n    tag_293:\n      dup3\n      add\n      swap2\n      swap1\n      0x00\n      mstore\n      keccak256(0x00, 0x20)\n      swap1\n    tag_294:\n      dup2\n      sload\n      dup2\n      mstore\n      swap1\n      0x01\n      add\n      swap1\n      0x20\n      add\n      dup1\n      dup4\n      gt\n      tag_294\n      jumpi\n      dup3\n      swap1\n      sub\n      0x1f\n      and\n      dup3\n      add\n      swap2\n    tag_292:\n      pop\n      pop\n      pop\n      pop\n      pop\n      dup2\n      jump\t// out\n        /* \"contracts/ebcTrans/stakeEbcV1.sol\":10261:10306  mapping(address => uint256) public _userStake */\n    tag_164:\n      mstore(0x20, 0x0f)\n      dup1\n      0x00\n      mstore\n      keccak256(0x00, 0x40)\n      0x00\n      swap2\n      pop\n      swap1\n      pop\n      sload\n      dup2\n      jump\t// out\n        /* \"contracts/ebcTrans/stakeEbcV1.sol\":10482:10531  mapping(address => uint256) public _userStakeTime */\n    tag_168:\n      mstore(0x20, 0x12)\n      dup1\n      0x00\n      mstore\n      keccak256(0x00, 0x40)\n      0x00\n      swap2\n      pop\n      swap1\n      pop\n      sload\n      dup2\n      jump\t// out\n        /* \"contracts/ebcTrans/stakeEbcV1.sol\":9678:9720  uint256 public _stake1 = 24 hours * 30 * 1 */\n    tag_171:\n      sload(0x07)\n      dup2\n      jump\t// out\n        /* \"contracts/ebcTrans/stakeEbcV1.sol\":10334:10380  mapping(address => uint256) public _userStakeY */\n    tag_175:\n      mstore(0x20, 0x10)\n      dup1\n      0x00\n      mstore\n      keccak256(0x00, 0x40)\n      0x00\n      swap2\n      pop\n      swap1\n      pop\n      sload\n      dup2\n      jump\t// out\n        /* \"contracts/ebcTrans/stakeEbcV1.sol\":12240:12390  function setStatus(bool stakeStart, bool claimStart) public onlyOwner {... */\n    tag_180:\n        /* \"contracts/ebcTrans/stakeEbcV1.sol\":1591:1601  msg.sender */\n      caller\n        /* \"contracts/ebcTrans/stakeEbcV1.sol\":1581:1601  _owner == msg.sender */\n      0xffffffffffffffffffffffffffffffffffffffff\n      and\n        /* \"contracts/ebcTrans/stakeEbcV1.sol\":1581:1587  _owner */\n      0x00\n      dup1\n      sload\n      swap1\n      0x0100\n      exp\n      swap1\n      div\n      0xffffffffffffffffffffffffffffffffffffffff\n      and\n        /* \"contracts/ebcTrans/stakeEbcV1.sol\":1581:1601  _owner == msg.sender */\n      0xffffffffffffffffffffffffffffffffffffffff\n      and\n      eq\n        /* \"contracts/ebcTrans/stakeEbcV1.sol\":1581:1623  _owner == msg.sender||_owner == msg.sender */\n      dup1\n      tag_296\n      jumpi\n      pop\n        /* \"contracts/ebcTrans/stakeEbcV1.sol\":1613:1623  msg.sender */\n      caller\n        /* \"contracts/ebcTrans/stakeEbcV1.sol\":1603:1623  _owner == msg.sender */\n      0xffffffffffffffffffffffffffffffffffffffff\n      and\n        /* \"contracts/ebcTrans/stakeEbcV1.sol\":1603:1609  _owner */\n      0x00\n      dup1\n      sload\n      swap1\n      0x0100\n      exp\n      swap1\n      div\n      0xffffffffffffffffffffffffffffffffffffffff\n      and\n        /* \"contracts/ebcTrans/stakeEbcV1.sol\":1603:1623  _owner == msg.sender */\n      0xffffffffffffffffffffffffffffffffffffffff\n      and\n      eq\n        /* \"contracts/ebcTrans/stakeEbcV1.sol\":1581:1623  _owner == msg.sender||_owner == msg.sender */\n    tag_296:\n        /* \"contracts/ebcTrans/stakeEbcV1.sol\":1573:1634  require(_owner == msg.sender||_owner == msg.sender, \"!owner\") */\n      tag_297\n      jumpi\n      mload(0x40)\n      0x08c379a000000000000000000000000000000000000000000000000000000000\n      dup2\n      mstore\n      0x04\n      add\n      tag_298\n      swap1\n      tag_216\n      jump\t// in\n    tag_298:\n      mload(0x40)\n      dup1\n      swap2\n      sub\n      swap1\n      revert\n    tag_297:\n        /* \"contracts/ebcTrans/stakeEbcV1.sol\":12336:12346  stakeStart */\n      dup2\n        /* \"contracts/ebcTrans/stakeEbcV1.sol\":12321:12333  isStakeStart */\n      0x0e\n      0x00\n        /* \"contracts/ebcTrans/stakeEbcV1.sol\":12321:12346  isStakeStart = stakeStart */\n      0x0100\n      exp\n      dup2\n      sload\n      dup2\n      0xff\n      mul\n      not\n      and\n      swap1\n      dup4\n      iszero\n      iszero\n      mul\n      or\n      swap1\n      sstore\n      pop\n        /* \"contracts/ebcTrans/stakeEbcV1.sol\":12372:12382  claimStart */\n      dup1\n        /* \"contracts/ebcTrans/stakeEbcV1.sol\":12357:12369  isClaimStart */\n      0x0e\n      0x01\n        /* \"contracts/ebcTrans/stakeEbcV1.sol\":12357:12382  isClaimStart = claimStart */\n      0x0100\n      exp\n      dup2\n      sload\n      dup2\n      0xff\n      mul\n      not\n      and\n      swap1\n      dup4\n      iszero\n      iszero\n      mul\n      or\n      swap1\n      sstore\n      pop\n        /* \"contracts/ebcTrans/stakeEbcV1.sol\":12240:12390  function setStatus(bool stakeStart, bool claimStart) public onlyOwner {... */\n      pop\n      pop\n      jump\t// out\n        /* \"contracts/ebcTrans/stakeEbcV1.sol\":8720:8792  address public _rewardToken = 0xf1f8e132f0a3F720b3b204D728A8ff316B182258 */\n    tag_182:\n      0x01\n      0x00\n      swap1\n      sload\n      swap1\n      0x0100\n      exp\n      swap1\n      div\n      0xffffffffffffffffffffffffffffffffffffffff\n      and\n      dup2\n      jump\t// out\n        /* \"contracts/ebcTrans/stakeEbcV1.sol\":10814:10859  mapping(address => uint256) public _userPower */\n    tag_186:\n      mstore(0x20, 0x16)\n      dup1\n      0x00\n      mstore\n      keccak256(0x00, 0x40)\n      0x00\n      swap2\n      pop\n      swap1\n      pop\n      sload\n      dup2\n      jump\t// out\n        /* \"contracts/ebcTrans/stakeEbcV1.sol\":9992:10041  mapping(address => uint256) public _inviterReward */\n    tag_190:\n      mstore(0x20, 0x0c)\n      dup1\n      0x00\n      mstore\n      keccak256(0x00, 0x40)\n      0x00\n      swap2\n      pop\n      swap1\n      pop\n      sload\n      dup2\n      jump\t// out\n        /* \"contracts/ebcTrans/stakeEbcV1.sol\":8907:8980  address public _lpPriceToken = 0xB1bF470A9720F8d2E49512DbbcCf7180e4Ac4679 */\n    tag_193:\n      0x03\n      0x00\n      swap1\n      sload\n      swap1\n      0x0100\n      exp\n      swap1\n      div\n      0xffffffffffffffffffffffffffffffffffffffff\n      and\n      dup2\n      jump\t// out\n        /* \"contracts/ebcTrans/stakeEbcV1.sol\":20073:20606  function ownerSetUser(... */\n    tag_198:\n        /* \"contracts/ebcTrans/stakeEbcV1.sol\":1591:1601  msg.sender */\n      caller\n        /* \"contracts/ebcTrans/stakeEbcV1.sol\":1581:1601  _owner == msg.sender */\n      0xffffffffffffffffffffffffffffffffffffffff\n      and\n        /* \"contracts/ebcTrans/stakeEbcV1.sol\":1581:1587  _owner */\n      0x00\n      dup1\n      sload\n      swap1\n      0x0100\n      exp\n      swap1\n      div\n      0xffffffffffffffffffffffffffffffffffffffff\n      and\n        /* \"contracts/ebcTrans/stakeEbcV1.sol\":1581:1601  _owner == msg.sender */\n      0xffffffffffffffffffffffffffffffffffffffff\n      and\n      eq\n        /* \"contracts/ebcTrans/stakeEbcV1.sol\":1581:1623  _owner == msg.sender||_owner == msg.sender */\n      dup1\n      tag_301\n      jumpi\n      pop\n        /* \"contracts/ebcTrans/stakeEbcV1.sol\":1613:1623  msg.sender */\n      caller\n        /* \"contracts/ebcTrans/stakeEbcV1.sol\":1603:1623  _owner == msg.sender */\n      0xffffffffffffffffffffffffffffffffffffffff\n      and\n        /* \"contracts/ebcTrans/stakeEbcV1.sol\":1603:1609  _owner */\n      0x00\n      dup1\n      sload\n      swap1\n      0x0100\n      exp\n      swap1\n      div\n      0xffffffffffffffffffffffffffffffffffffffff\n      and\n        /* \"contracts/ebcTrans/stakeEbcV1.sol\":1603:1623  _owner == msg.sender */\n      0xffffffffffffffffffffffffffffffffffffffff\n      and\n      eq\n        /* \"contracts/ebcTrans/stakeEbcV1.sol\":1581:1623  _owner == msg.sender||_owner == msg.sender */\n    tag_301:\n        /* \"contracts/ebcTrans/stakeEbcV1.sol\":1573:1634  require(_owner == msg.sender||_owner == msg.sender, \"!owner\") */\n      tag_302\n      jumpi\n      mload(0x40)\n      0x08c379a000000000000000000000000000000000000000000000000000000000\n      dup2\n      mstore\n      0x04\n      add\n      tag_303\n      swap1\n      tag_216\n      jump\t// in\n    tag_303:\n      mload(0x40)\n      dup1\n      swap2\n      sub\n      swap1\n      revert\n    tag_302:\n        /* \"contracts/ebcTrans/stakeEbcV1.sol\":20353:20359  amount */\n      dup6\n        /* \"contracts/ebcTrans/stakeEbcV1.sol\":20334:20344  _userStake */\n      0x0f\n        /* \"contracts/ebcTrans/stakeEbcV1.sol\":20334:20350  _userStake[user] */\n      0x00\n        /* \"contracts/ebcTrans/stakeEbcV1.sol\":20345:20349  user */\n      dup10\n        /* \"contracts/ebcTrans/stakeEbcV1.sol\":20334:20350  _userStake[user] */\n      0xffffffffffffffffffffffffffffffffffffffff\n      and\n      0xffffffffffffffffffffffffffffffffffffffff\n      and\n      dup2\n      mstore\n      0x20\n      add\n      swap1\n      dup2\n      mstore\n      0x20\n      add\n      0x00\n      keccak256\n        /* \"contracts/ebcTrans/stakeEbcV1.sol\":20334:20359  _userStake[user] = amount */\n      dup2\n      swap1\n      sstore\n      pop\n        /* \"contracts/ebcTrans/stakeEbcV1.sol\":20393:20402  stakeTime */\n      dup5\n        /* \"contracts/ebcTrans/stakeEbcV1.sol\":20370:20384  _userStakeTime */\n      0x12\n        /* \"contracts/ebcTrans/stakeEbcV1.sol\":20370:20390  _userStakeTime[user] */\n      0x00\n        /* \"contracts/ebcTrans/stakeEbcV1.sol\":20385:20389  user */\n      dup10\n        /* \"contracts/ebcTrans/stakeEbcV1.sol\":20370:20390  _userStakeTime[user] */\n      0xffffffffffffffffffffffffffffffffffffffff\n      and\n      0xffffffffffffffffffffffffffffffffffffffff\n      and\n      dup2\n      mstore\n      0x20\n      add\n      swap1\n      dup2\n      mstore\n      0x20\n      add\n      0x00\n      keccak256\n        /* \"contracts/ebcTrans/stakeEbcV1.sol\":20370:20402  _userStakeTime[user] = stakeTime */\n      dup2\n      swap1\n      sstore\n      pop\n        /* \"contracts/ebcTrans/stakeEbcV1.sol\":20441:20455  stakeStartTime */\n      dup4\n        /* \"contracts/ebcTrans/stakeEbcV1.sol\":20413:20432  _userStakeStartTime */\n      0x13\n        /* \"contracts/ebcTrans/stakeEbcV1.sol\":20413:20438  _userStakeStartTime[user] */\n      0x00\n        /* \"contracts/ebcTrans/stakeEbcV1.sol\":20433:20437  user */\n      dup10\n        /* \"contracts/ebcTrans/stakeEbcV1.sol\":20413:20438  _userStakeStartTime[user] */\n      0xffffffffffffffffffffffffffffffffffffffff\n      and\n      0xffffffffffffffffffffffffffffffffffffffff\n      and\n      dup2\n      mstore\n      0x20\n      add\n      swap1\n      dup2\n      mstore\n      0x20\n      add\n      0x00\n      keccak256\n        /* \"contracts/ebcTrans/stakeEbcV1.sol\":20413:20455  _userStakeStartTime[user] = stakeStartTime */\n      dup2\n      swap1\n      sstore\n      pop\n        /* \"contracts/ebcTrans/stakeEbcV1.sol\":20493:20506  userLastClaim */\n      dup3\n        /* \"contracts/ebcTrans/stakeEbcV1.sol\":20466:20484  _userLastClaimTime */\n      0x14\n        /* \"contracts/ebcTrans/stakeEbcV1.sol\":20466:20490  _userLastClaimTime[user] */\n      0x00\n        /* \"contracts/ebcTrans/stakeEbcV1.sol\":20485:20489  user */\n      dup10\n        /* \"contracts/ebcTrans/stakeEbcV1.sol\":20466:20490  _userLastClaimTime[user] */\n      0xffffffffffffffffffffffffffffffffffffffff\n      and\n      0xffffffffffffffffffffffffffffffffffffffff\n      and\n      dup2\n      mstore\n      0x20\n      add\n      swap1\n      dup2\n      mstore\n      0x20\n      add\n      0x00\n      keccak256\n        /* \"contracts/ebcTrans/stakeEbcV1.sol\":20466:20506  _userLastClaimTime[user] = userLastClaim */\n      dup2\n      swap1\n      sstore\n      pop\n        /* \"contracts/ebcTrans/stakeEbcV1.sol\":20536:20545  userPower */\n      dup2\n        /* \"contracts/ebcTrans/stakeEbcV1.sol\":20517:20527  _userPower */\n      0x16\n        /* \"contracts/ebcTrans/stakeEbcV1.sol\":20517:20533  _userPower[user] */\n      0x00\n        /* \"contracts/ebcTrans/stakeEbcV1.sol\":20528:20532  user */\n      dup10\n        /* \"contracts/ebcTrans/stakeEbcV1.sol\":20517:20533  _userPower[user] */\n      0xffffffffffffffffffffffffffffffffffffffff\n      and\n      0xffffffffffffffffffffffffffffffffffffffff\n      and\n      dup2\n      mstore\n      0x20\n      add\n      swap1\n      dup2\n      mstore\n      0x20\n      add\n      0x00\n      keccak256\n        /* \"contracts/ebcTrans/stakeEbcV1.sol\":20517:20545  _userPower[user] = userPower */\n      dup2\n      swap1\n      sstore\n      pop\n        /* \"contracts/ebcTrans/stakeEbcV1.sol\":20582:20598  userEndClaimTime */\n      dup1\n        /* \"contracts/ebcTrans/stakeEbcV1.sol\":20556:20573  _userEndClaimTime */\n      0x15\n        /* \"contracts/ebcTrans/stakeEbcV1.sol\":20556:20579  _userEndClaimTime[user] */\n      0x00\n        /* \"contracts/ebcTrans/stakeEbcV1.sol\":20574:20578  user */\n      dup10\n        /* \"contracts/ebcTrans/stakeEbcV1.sol\":20556:20579  _userEndClaimTime[user] */\n      0xffffffffffffffffffffffffffffffffffffffff\n      and\n      0xffffffffffffffffffffffffffffffffffffffff\n      and\n      dup2\n      mstore\n      0x20\n      add\n      swap1\n      dup2\n      mstore\n      0x20\n      add\n      0x00\n      keccak256\n        /* \"contracts/ebcTrans/stakeEbcV1.sol\":20556:20598  _userEndClaimTime[user] = userEndClaimTime */\n      dup2\n      swap1\n      sstore\n      pop\n        /* \"contracts/ebcTrans/stakeEbcV1.sol\":20073:20606  function ownerSetUser(... */\n      pop\n      pop\n      pop\n      pop\n      pop\n      pop\n      pop\n      jump\t// out\n        /* \"contracts/ebcTrans/stakeEbcV1.sol\":10194:10225  bool public isClaimStart = true */\n    tag_200:\n      0x0e\n      0x01\n      swap1\n      sload\n      swap1\n      0x0100\n      exp\n      swap1\n      div\n      0xff\n      and\n      dup2\n      jump\t// out\n        /* \"contracts/ebcTrans/stakeEbcV1.sol\":1662:1876  function transferOwnership(address newOwner) public virtual onlyOwner {... */\n    tag_204:\n        /* \"contracts/ebcTrans/stakeEbcV1.sol\":1591:1601  msg.sender */\n      caller\n        /* \"contracts/ebcTrans/stakeEbcV1.sol\":1581:1601  _owner == msg.sender */\n      0xffffffffffffffffffffffffffffffffffffffff\n      and\n        /* \"contracts/ebcTrans/stakeEbcV1.sol\":1581:1587  _owner */\n      0x00\n      dup1\n      sload\n      swap1\n      0x0100\n      exp\n      swap1\n      div\n      0xffffffffffffffffffffffffffffffffffffffff\n      and\n        /* \"contracts/ebcTrans/stakeEbcV1.sol\":1581:1601  _owner == msg.sender */\n      0xffffffffffffffffffffffffffffffffffffffff\n      and\n      eq\n        /* \"contracts/ebcTrans/stakeEbcV1.sol\":1581:1623  _owner == msg.sender||_owner == msg.sender */\n      dup1\n      tag_306\n      jumpi\n      pop\n        /* \"contracts/ebcTrans/stakeEbcV1.sol\":1613:1623  msg.sender */\n      caller\n        /* \"contracts/ebcTrans/stakeEbcV1.sol\":1603:1623  _owner == msg.sender */\n      0xffffffffffffffffffffffffffffffffffffffff\n      and\n        /* \"contracts/ebcTrans/stakeEbcV1.sol\":1603:1609  _owner */\n      0x00\n      dup1\n      sload\n      swap1\n      0x0100\n      exp\n      swap1\n      div\n      0xffffffffffffffffffffffffffffffffffffffff\n      and\n        /* \"contracts/ebcTrans/stakeEbcV1.sol\":1603:1623  _owner == msg.sender */\n      0xffffffffffffffffffffffffffffffffffffffff\n      and\n      eq\n        /* \"contracts/ebcTrans/stakeEbcV1.sol\":1581:1623  _owner == msg.sender||_owner == msg.sender */\n    tag_306:\n        /* \"contracts/ebcTrans/stakeEbcV1.sol\":1573:1634  require(_owner == msg.sender||_owner == msg.sender, \"!owner\") */\n      tag_307\n      jumpi\n      mload(0x40)\n      0x08c379a000000000000000000000000000000000000000000000000000000000\n      dup2\n      mstore\n      0x04\n      add\n      tag_308\n      swap1\n      tag_216\n      jump\t// in\n    tag_308:\n      mload(0x40)\n      dup1\n      swap2\n      sub\n      swap1\n      revert\n    tag_307:\n        /* \"contracts/ebcTrans/stakeEbcV1.sol\":1771:1772  0 */\n      0x00\n        /* \"contracts/ebcTrans/stakeEbcV1.sol\":1751:1773  newOwner != address(0) */\n      0xffffffffffffffffffffffffffffffffffffffff\n      and\n        /* \"contracts/ebcTrans/stakeEbcV1.sol\":1751:1759  newOwner */\n      dup2\n        /* \"contracts/ebcTrans/stakeEbcV1.sol\":1751:1773  newOwner != address(0) */\n      0xffffffffffffffffffffffffffffffffffffffff\n      and\n      sub\n        /* \"contracts/ebcTrans/stakeEbcV1.sol\":1743:1786  require(newOwner != address(0), \"new is 0\") */\n      tag_310\n      jumpi\n      mload(0x40)\n      0x08c379a000000000000000000000000000000000000000000000000000000000\n      dup2\n      mstore\n      0x04\n      add\n      tag_311\n      swap1\n      tag_312\n      jump\t// in\n    tag_311:\n      mload(0x40)\n      dup1\n      swap2\n      sub\n      swap1\n      revert\n    tag_310:\n        /* \"contracts/ebcTrans/stakeEbcV1.sol\":1831:1839  newOwner */\n      dup1\n        /* \"contracts/ebcTrans/stakeEbcV1.sol\":1802:1840  OwnershipTransferred(_owner, newOwner) */\n      0xffffffffffffffffffffffffffffffffffffffff\n      and\n        /* \"contracts/ebcTrans/stakeEbcV1.sol\":1823:1829  _owner */\n      0x00\n      dup1\n      sload\n      swap1\n      0x0100\n      exp\n      swap1\n      div\n      0xffffffffffffffffffffffffffffffffffffffff\n      and\n        /* \"contracts/ebcTrans/stakeEbcV1.sol\":1802:1840  OwnershipTransferred(_owner, newOwner) */\n      0xffffffffffffffffffffffffffffffffffffffff\n      and\n      0x8be0079c531659141344cd1fd0a4f28419497f9722a3daafe3b4186f6b6457e0\n      mload(0x40)\n      mload(0x40)\n      dup1\n      swap2\n      sub\n      swap1\n      log3\n        /* \"contracts/ebcTrans/stakeEbcV1.sol\":1860:1868  newOwner */\n      dup1\n        /* \"contracts/ebcTrans/stakeEbcV1.sol\":1851:1857  _owner */\n      0x00\n      dup1\n        /* \"contracts/ebcTrans/stakeEbcV1.sol\":1851:1868  _owner = newOwner */\n      0x0100\n      exp\n      dup2\n      sload\n      dup2\n      0xffffffffffffffffffffffffffffffffffffffff\n      mul\n      not\n      and\n      swap1\n      dup4\n      0xffffffffffffffffffffffffffffffffffffffff\n      and\n      mul\n      or\n      swap1\n      sstore\n      pop\n        /* \"contracts/ebcTrans/stakeEbcV1.sol\":1662:1876  function transferOwnership(address newOwner) public virtual onlyOwner {... */\n      pop\n      jump\t// out\n        /* \"contracts/ebcTrans/stakeEbcV1.sol\":10135:10166  bool public isStakeStart = true */\n    tag_206:\n      0x0e\n      0x00\n      swap1\n      sload\n      swap1\n      0x0100\n      exp\n      swap1\n      div\n      0xff\n      and\n      dup2\n      jump\t// out\n        /* \"contracts/ebcTrans/stakeEbcV1.sol\":12416:14040  function stakeYB(... */\n    tag_211:\n        /* \"contracts/ebcTrans/stakeEbcV1.sol\":12570:12582  isStakeStart */\n      0x0e\n      0x00\n      swap1\n      sload\n      swap1\n      0x0100\n      exp\n      swap1\n      div\n      0xff\n      and\n        /* \"contracts/ebcTrans/stakeEbcV1.sol\":12562:12596  require(isStakeStart, \"not start\") */\n      tag_314\n      jumpi\n      mload(0x40)\n      0x08c379a000000000000000000000000000000000000000000000000000000000\n      dup2\n      mstore\n      0x04\n      add\n      tag_315\n      swap1\n      tag_316\n      jump\t// in\n    tag_315:\n      mload(0x40)\n      dup1\n      swap2\n      sub\n      swap1\n      revert\n    tag_314:\n        /* \"contracts/ebcTrans/stakeEbcV1.sol\":12777:12778  0 */\n      0x00\n        /* \"contracts/ebcTrans/stakeEbcV1.sol\":12750:12761  _userStakeY */\n      0x10\n        /* \"contracts/ebcTrans/stakeEbcV1.sol\":12750:12773  _userStakeY[msg.sender] */\n      0x00\n        /* \"contracts/ebcTrans/stakeEbcV1.sol\":12762:12772  msg.sender */\n      caller\n        /* \"contracts/ebcTrans/stakeEbcV1.sol\":12750:12773  _userStakeY[msg.sender] */\n      0xffffffffffffffffffffffffffffffffffffffff\n      and\n      0xffffffffffffffffffffffffffffffffffffffff\n      and\n      dup2\n      mstore\n      0x20\n      add\n      swap1\n      dup2\n      mstore\n      0x20\n      add\n      0x00\n      keccak256\n      sload\n        /* \"contracts/ebcTrans/stakeEbcV1.sol\":12750:12778  _userStakeY[msg.sender] == 0 */\n      eq\n        /* \"contracts/ebcTrans/stakeEbcV1.sol\":12742:12797  require(_userStakeY[msg.sender] == 0, \"already stakeY\") */\n      tag_317\n      jumpi\n      mload(0x40)\n      0x08c379a000000000000000000000000000000000000000000000000000000000\n      dup2\n      mstore\n      0x04\n      add\n      tag_318\n      swap1\n      tag_319\n      jump\t// in\n    tag_318:\n      mload(0x40)\n      dup1\n      swap2\n      sub\n      swap1\n      revert\n    tag_317:\n        /* \"contracts/ebcTrans/stakeEbcV1.sol\":12843:12844  0 */\n      0x00\n        /* \"contracts/ebcTrans/stakeEbcV1.sol\":12816:12827  _userStakeB */\n      0x11\n        /* \"contracts/ebcTrans/stakeEbcV1.sol\":12816:12839  _userStakeB[msg.sender] */\n      0x00\n        /* \"contracts/ebcTrans/stakeEbcV1.sol\":12828:12838  msg.sender */\n      caller\n        /* \"contracts/ebcTrans/stakeEbcV1.sol\":12816:12839  _userStakeB[msg.sender] */\n      0xffffffffffffffffffffffffffffffffffffffff\n      and\n      0xffffffffffffffffffffffffffffffffffffffff\n      and\n      dup2\n      mstore\n      0x20\n      add\n      swap1\n      dup2\n      mstore\n      0x20\n      add\n      0x00\n      keccak256\n      sload\n        /* \"contracts/ebcTrans/stakeEbcV1.sol\":12816:12844  _userStakeB[msg.sender] == 0 */\n      eq\n        /* \"contracts/ebcTrans/stakeEbcV1.sol\":12808:12863  require(_userStakeB[msg.sender] == 0, \"already stakeB\") */\n      tag_320\n      jumpi\n      mload(0x40)\n      0x08c379a000000000000000000000000000000000000000000000000000000000\n      dup2\n      mstore\n      0x04\n      add\n      tag_321\n      swap1\n      tag_322\n      jump\t// in\n    tag_321:\n      mload(0x40)\n      dup1\n      swap2\n      sub\n      swap1\n      revert\n    tag_320:\n        /* \"contracts/ebcTrans/stakeEbcV1.sol\":12892:12893  0 */\n      0x00\n        /* \"contracts/ebcTrans/stakeEbcV1.sol\":12882:12889  Yamount */\n      dup4\n        /* \"contracts/ebcTrans/stakeEbcV1.sol\":12882:12893  Yamount > 0 */\n      gt\n        /* \"contracts/ebcTrans/stakeEbcV1.sol\":12874:12910  require(Yamount > 0, \"zero Yamount\") */\n      tag_323\n      jumpi\n      mload(0x40)\n      0x08c379a000000000000000000000000000000000000000000000000000000000\n      dup2\n      mstore\n      0x04\n      add\n      tag_324\n      swap1\n      tag_325\n      jump\t// in\n    tag_324:\n      mload(0x40)\n      dup1\n      swap2\n      sub\n      swap1\n      revert\n    tag_323:\n        /* \"contracts/ebcTrans/stakeEbcV1.sol\":12939:12940  0 */\n      0x00\n        /* \"contracts/ebcTrans/stakeEbcV1.sol\":12929:12936  Bamount */\n      dup3\n        /* \"contracts/ebcTrans/stakeEbcV1.sol\":12929:12940  Bamount > 0 */\n      gt\n        /* \"contracts/ebcTrans/stakeEbcV1.sol\":12921:12957  require(Bamount > 0, \"zero Bamount\") */\n      tag_326\n      jumpi\n      mload(0x40)\n      0x08c379a000000000000000000000000000000000000000000000000000000000\n      dup2\n      mstore\n      0x04\n      add\n      tag_327\n      swap1\n      tag_328\n      jump\t// in\n    tag_327:\n      mload(0x40)\n      dup1\n      swap2\n      sub\n      swap1\n      revert\n    tag_326:\n        /* \"contracts/ebcTrans/stakeEbcV1.sol\":12984:12991  _stake5 */\n      sload(0x09)\n        /* \"contracts/ebcTrans/stakeEbcV1.sol\":12976:12980  time */\n      dup2\n        /* \"contracts/ebcTrans/stakeEbcV1.sol\":12976:12991  time == _stake5 */\n      eq\n        /* \"contracts/ebcTrans/stakeEbcV1.sol\":12968:13009  require(time == _stake5,\"not right time\") */\n      tag_329\n      jumpi\n      mload(0x40)\n      0x08c379a000000000000000000000000000000000000000000000000000000000\n      dup2\n      mstore\n      0x04\n      add\n      tag_330\n      swap1\n      tag_331\n      jump\t// in\n    tag_330:\n      mload(0x40)\n      dup1\n      swap2\n      sub\n      swap1\n      revert\n    tag_329:\n        /* \"contracts/ebcTrans/stakeEbcV1.sol\":13020:13032  uint256 base */\n      0x00\n        /* \"contracts/ebcTrans/stakeEbcV1.sol\":13035:13036  1 */\n      0x01\n        /* \"contracts/ebcTrans/stakeEbcV1.sol\":13020:13036  uint256 base = 1 */\n      swap1\n      pop\n        /* \"contracts/ebcTrans/stakeEbcV1.sol\":13254:13261  _aToken */\n      0x04\n      0x00\n      swap1\n      sload\n      swap1\n      0x0100\n      exp\n      swap1\n      div\n      0xffffffffffffffffffffffffffffffffffffffff\n      and\n        /* \"contracts/ebcTrans/stakeEbcV1.sol\":13247:13275  IERC20(_aToken).transferFrom */\n      0xffffffffffffffffffffffffffffffffffffffff\n      and\n      0x23b872dd\n        /* \"contracts/ebcTrans/stakeEbcV1.sol\":13276:13286  msg.sender */\n      caller\n        /* \"contracts/ebcTrans/stakeEbcV1.sol\":13296:13300  this */\n      address\n        /* \"contracts/ebcTrans/stakeEbcV1.sol\":13303:13310  Yamount */\n      dup8\n        /* \"contracts/ebcTrans/stakeEbcV1.sol\":13247:13311  IERC20(_aToken).transferFrom(msg.sender, address(this), Yamount) */\n      mload(0x40)\n      dup5\n      0xffffffff\n      and\n      0xe0\n      shl\n      dup2\n      mstore\n      0x04\n      add\n      tag_332\n      swap4\n      swap3\n      swap2\n      swap1\n      tag_333\n      jump\t// in\n    tag_332:\n      0x20\n      mload(0x40)\n      dup1\n      dup4\n      sub\n      dup2\n      0x00\n      dup8\n      gas\n      call\n      iszero\n      dup1\n      iszero\n      tag_335\n      jumpi\n      returndatasize\n      0x00\n      dup1\n      returndatacopy\n      revert(0x00, returndatasize)\n    tag_335:\n      pop\n      pop\n      pop\n      pop\n      mload(0x40)\n      returndatasize\n      not(0x1f)\n      0x1f\n      dup3\n      add\n      and\n      dup3\n      add\n      dup1\n      0x40\n      mstore\n      pop\n      dup2\n      add\n      swap1\n      tag_336\n      swap2\n      swap1\n      tag_260\n      jump\t// in\n    tag_336:\n      pop\n        /* \"contracts/ebcTrans/stakeEbcV1.sol\":13337:13344  _bToken */\n      0x05\n      0x00\n      swap1\n      sload\n      swap1\n      0x0100\n      exp\n      swap1\n      div\n      0xffffffffffffffffffffffffffffffffffffffff\n      and\n        /* \"contracts/ebcTrans/stakeEbcV1.sol\":13330:13358  IERC20(_bToken).transferFrom */\n      0xffffffffffffffffffffffffffffffffffffffff\n      and\n      0x23b872dd\n        /* \"contracts/ebcTrans/stakeEbcV1.sol\":13359:13369  msg.sender */\n      caller\n        /* \"contracts/ebcTrans/stakeEbcV1.sol\":13379:13383  this */\n      address\n        /* \"contracts/ebcTrans/stakeEbcV1.sol\":13386:13393  Bamount */\n      dup7\n        /* \"contracts/ebcTrans/stakeEbcV1.sol\":13330:13394  IERC20(_bToken).transferFrom(msg.sender, address(this), Bamount) */\n      mload(0x40)\n      dup5\n      0xffffffff\n      and\n      0xe0\n      shl\n      dup2\n      mstore\n      0x04\n      add\n      tag_337\n      swap4\n      swap3\n      swap2\n      swap1\n      tag_333\n      jump\t// in\n    tag_337:\n      0x20\n      mload(0x40)\n      dup1\n      dup4\n      sub\n      dup2\n      0x00\n      dup8\n      gas\n      call\n      iszero\n      dup1\n      iszero\n      tag_339\n      jumpi\n      returndatasize\n      0x00\n      dup1\n      returndatacopy\n      revert(0x00, returndatasize)\n    tag_339:\n      pop\n      pop\n      pop\n      pop\n      mload(0x40)\n      returndatasize\n      not(0x1f)\n      0x1f\n      dup3\n      add\n      and\n      dup3\n      add\n      dup1\n      0x40\n      mstore\n      pop\n      dup2\n      add\n      swap1\n      tag_340\n      swap2\n      swap1\n      tag_260\n      jump\t// in\n    tag_340:\n      pop\n        /* \"contracts/ebcTrans/stakeEbcV1.sol\":13579:13586  _aToken */\n      0x04\n      0x00\n      swap1\n      sload\n      swap1\n      0x0100\n      exp\n      swap1\n      div\n      0xffffffffffffffffffffffffffffffffffffffff\n      and\n        /* \"contracts/ebcTrans/stakeEbcV1.sol\":13572:13596  IERC20(_aToken).transfer */\n      0xffffffffffffffffffffffffffffffffffffffff\n      and\n      0xa9059cbb\n        /* \"contracts/ebcTrans/stakeEbcV1.sol\":13597:13608  _adminToken */\n      0x06\n      0x00\n      swap1\n      sload\n      swap1\n      0x0100\n      exp\n      swap1\n      div\n      0xffffffffffffffffffffffffffffffffffffffff\n      and\n        /* \"contracts/ebcTrans/stakeEbcV1.sol\":13610:13617  Yamount */\n      dup7\n        /* \"contracts/ebcTrans/stakeEbcV1.sol\":13572:13618  IERC20(_aToken).transfer(_adminToken, Yamount) */\n      mload(0x40)\n      dup4\n      0xffffffff\n      and\n      0xe0\n      shl\n      dup2\n      mstore\n      0x04\n      add\n      tag_341\n      swap3\n      swap2\n      swap1\n      tag_256\n      jump\t// in\n    tag_341:\n      0x20\n      mload(0x40)\n      dup1\n      dup4\n      sub\n      dup2\n      0x00\n      dup8\n      gas\n      call\n      iszero\n      dup1\n      iszero\n      tag_343\n      jumpi\n      returndatasize\n      0x00\n      dup1\n      returndatacopy\n      revert(0x00, returndatasize)\n    tag_343:\n      pop\n      pop\n      pop\n      pop\n      mload(0x40)\n      returndatasize\n      not(0x1f)\n      0x1f\n      dup3\n      add\n      and\n      dup3\n      add\n      dup1\n      0x40\n      mstore\n      pop\n      dup2\n      add\n      swap1\n      tag_344\n      swap2\n      swap1\n      tag_260\n      jump\t// in\n    tag_344:\n      pop\n        /* \"contracts/ebcTrans/stakeEbcV1.sol\":13636:13643  _bToken */\n      0x05\n      0x00\n      swap1\n      sload\n      swap1\n      0x0100\n      exp\n      swap1\n      div\n      0xffffffffffffffffffffffffffffffffffffffff\n      and\n        /* \"contracts/ebcTrans/stakeEbcV1.sol\":13629:13653  IERC20(_bToken).transfer */\n      0xffffffffffffffffffffffffffffffffffffffff\n      and\n      0xa9059cbb\n        /* \"contracts/ebcTrans/stakeEbcV1.sol\":13654:13665  _adminToken */\n      0x06\n      0x00\n      swap1\n      sload\n      swap1\n      0x0100\n      exp\n      swap1\n      div\n      0xffffffffffffffffffffffffffffffffffffffff\n      and\n        /* \"contracts/ebcTrans/stakeEbcV1.sol\":13667:13674  Bamount */\n      dup6\n        /* \"contracts/ebcTrans/stakeEbcV1.sol\":13629:13675  IERC20(_bToken).transfer(_adminToken, Bamount) */\n      mload(0x40)\n      dup4\n      0xffffffff\n      and\n      0xe0\n      shl\n      dup2\n      mstore\n      0x04\n      add\n      tag_345\n      swap3\n      swap2\n      swap1\n      tag_256\n      jump\t// in\n    tag_345:\n      0x20\n      mload(0x40)\n      dup1\n      dup4\n      sub\n      dup2\n      0x00\n      dup8\n      gas\n      call\n      iszero\n      dup1\n      iszero\n      tag_347\n      jumpi\n      returndatasize\n      0x00\n      dup1\n      returndatacopy\n      revert(0x00, returndatasize)\n    tag_347:\n      pop\n      pop\n      pop\n      pop\n      mload(0x40)\n      returndatasize\n      not(0x1f)\n      0x1f\n      dup3\n      add\n      and\n      dup3\n      add\n      dup1\n      0x40\n      mstore\n      pop\n      dup2\n      add\n      swap1\n      tag_348\n      swap2\n      swap1\n      tag_260\n      jump\t// in\n    tag_348:\n      pop\n        /* \"contracts/ebcTrans/stakeEbcV1.sol\":13714:13721  Yamount */\n      dup4\n        /* \"contracts/ebcTrans/stakeEbcV1.sol\":13688:13699  _userStakeY */\n      0x10\n        /* \"contracts/ebcTrans/stakeEbcV1.sol\":13688:13711  _userStakeY[msg.sender] */\n      0x00\n        /* \"contracts/ebcTrans/stakeEbcV1.sol\":13700:13710  msg.sender */\n      caller\n        /* \"contracts/ebcTrans/stakeEbcV1.sol\":13688:13711  _userStakeY[msg.sender] */\n      0xffffffffffffffffffffffffffffffffffffffff\n      and\n      0xffffffffffffffffffffffffffffffffffffffff\n      and\n      dup2\n      mstore\n      0x20\n      add\n      swap1\n      dup2\n      mstore\n      0x20\n      add\n      0x00\n      keccak256\n        /* \"contracts/ebcTrans/stakeEbcV1.sol\":13688:13721  _userStakeY[msg.sender] = Yamount */\n      dup2\n      swap1\n      sstore\n      pop\n        /* \"contracts/ebcTrans/stakeEbcV1.sol\":13758:13765  Bamount */\n      dup3\n        /* \"contracts/ebcTrans/stakeEbcV1.sol\":13732:13743  _userStakeB */\n      0x11\n        /* \"contracts/ebcTrans/stakeEbcV1.sol\":13732:13755  _userStakeB[msg.sender] */\n      0x00\n        /* \"contracts/ebcTrans/stakeEbcV1.sol\":13744:13754  msg.sender */\n      caller\n        /* \"contracts/ebcTrans/stakeEbcV1.sol\":13732:13755  _userStakeB[msg.sender] */\n      0xffffffffffffffffffffffffffffffffffffffff\n      and\n      0xffffffffffffffffffffffffffffffffffffffff\n      and\n      dup2\n      mstore\n      0x20\n      add\n      swap1\n      dup2\n      mstore\n      0x20\n      add\n      0x00\n      keccak256\n        /* \"contracts/ebcTrans/stakeEbcV1.sol\":13732:13765  _userStakeB[msg.sender] = Bamount */\n      dup2\n      swap1\n      sstore\n      pop\n        /* \"contracts/ebcTrans/stakeEbcV1.sol\":13810:13825  block.timestamp */\n      timestamp\n        /* \"contracts/ebcTrans/stakeEbcV1.sol\":13776:13795  _userStakeStartTime */\n      0x13\n        /* \"contracts/ebcTrans/stakeEbcV1.sol\":13776:13807  _userStakeStartTime[msg.sender] */\n      0x00\n        /* \"contracts/ebcTrans/stakeEbcV1.sol\":13796:13806  msg.sender */\n      caller\n        /* \"contracts/ebcTrans/stakeEbcV1.sol\":13776:13807  _userStakeStartTime[msg.sender] */\n      0xffffffffffffffffffffffffffffffffffffffff\n      and\n      0xffffffffffffffffffffffffffffffffffffffff\n      and\n      dup2\n      mstore\n      0x20\n      add\n      swap1\n      dup2\n      mstore\n      0x20\n      add\n      0x00\n      keccak256\n        /* \"contracts/ebcTrans/stakeEbcV1.sol\":13776:13825  _userStakeStartTime[msg.sender] = block.timestamp */\n      dup2\n      swap1\n      sstore\n      pop\n        /* \"contracts/ebcTrans/stakeEbcV1.sol\":13868:13883  block.timestamp */\n      timestamp\n        /* \"contracts/ebcTrans/stakeEbcV1.sol\":13836:13854  _userLastClaimTime */\n      0x14\n        /* \"contracts/ebcTrans/stakeEbcV1.sol\":13836:13866  _userLastClaimTime[msg.sender] */\n      0x00\n        /* \"contracts/ebcTrans/stakeEbcV1.sol\":13855:13865  msg.sender */\n      caller\n        /* \"contracts/ebcTrans/stakeEbcV1.sol\":13836:13866  _userLastClaimTime[msg.sender] */\n      0xffffffffffffffffffffffffffffffffffffffff\n      and\n      0xffffffffffffffffffffffffffffffffffffffff\n      and\n      dup2\n      mstore\n      0x20\n      add\n      swap1\n      dup2\n      mstore\n      0x20\n      add\n      0x00\n      keccak256\n        /* \"contracts/ebcTrans/stakeEbcV1.sol\":13836:13883  _userLastClaimTime[msg.sender]= block.timestamp */\n      dup2\n      swap1\n      sstore\n      pop\n        /* \"contracts/ebcTrans/stakeEbcV1.sol\":13944:13948  time */\n      dup2\n        /* \"contracts/ebcTrans/stakeEbcV1.sol\":13926:13941  block.timestamp */\n      timestamp\n        /* \"contracts/ebcTrans/stakeEbcV1.sol\":13926:13948  block.timestamp + time */\n      tag_349\n      swap2\n      swap1\n      tag_350\n      jump\t// in\n    tag_349:\n        /* \"contracts/ebcTrans/stakeEbcV1.sol\":13894:13911  _userEndClaimTime */\n      0x15\n        /* \"contracts/ebcTrans/stakeEbcV1.sol\":13894:13923  _userEndClaimTime[msg.sender] */\n      0x00\n        /* \"contracts/ebcTrans/stakeEbcV1.sol\":13912:13922  msg.sender */\n      caller\n        /* \"contracts/ebcTrans/stakeEbcV1.sol\":13894:13923  _userEndClaimTime[msg.sender] */\n      0xffffffffffffffffffffffffffffffffffffffff\n      and\n      0xffffffffffffffffffffffffffffffffffffffff\n      and\n      dup2\n      mstore\n      0x20\n      add\n      swap1\n      dup2\n      mstore\n      0x20\n      add\n      0x00\n      keccak256\n        /* \"contracts/ebcTrans/stakeEbcV1.sol\":13894:13948  _userEndClaimTime[msg.sender] = block.timestamp + time */\n      dup2\n      swap1\n      sstore\n      pop\n        /* \"contracts/ebcTrans/stakeEbcV1.sol\":13988:13992  time */\n      dup2\n        /* \"contracts/ebcTrans/stakeEbcV1.sol\":13959:13973  _userStakeTime */\n      0x12\n        /* \"contracts/ebcTrans/stakeEbcV1.sol\":13959:13985  _userStakeTime[msg.sender] */\n      0x00\n        /* \"contracts/ebcTrans/stakeEbcV1.sol\":13974:13984  msg.sender */\n      caller\n        /* \"contracts/ebcTrans/stakeEbcV1.sol\":13959:13985  _userStakeTime[msg.sender] */\n      0xffffffffffffffffffffffffffffffffffffffff\n      and\n      0xffffffffffffffffffffffffffffffffffffffff\n      and\n      dup2\n      mstore\n      0x20\n      add\n      swap1\n      dup2\n      mstore\n      0x20\n      add\n      0x00\n      keccak256\n        /* \"contracts/ebcTrans/stakeEbcV1.sol\":13959:13992  _userStakeTime[msg.sender] = time */\n      dup2\n      swap1\n      sstore\n      pop\n        /* \"contracts/ebcTrans/stakeEbcV1.sol\":14028:14032  base */\n      dup1\n        /* \"contracts/ebcTrans/stakeEbcV1.sol\":14003:14013  _userPower */\n      0x16\n        /* \"contracts/ebcTrans/stakeEbcV1.sol\":14003:14025  _userPower[msg.sender] */\n      0x00\n        /* \"contracts/ebcTrans/stakeEbcV1.sol\":14014:14024  msg.sender */\n      caller\n        /* \"contracts/ebcTrans/stakeEbcV1.sol\":14003:14025  _userPower[msg.sender] */\n      0xffffffffffffffffffffffffffffffffffffffff\n      and\n      0xffffffffffffffffffffffffffffffffffffffff\n      and\n      dup2\n      mstore\n      0x20\n      add\n      swap1\n      dup2\n      mstore\n      0x20\n      add\n      0x00\n      keccak256\n        /* \"contracts/ebcTrans/stakeEbcV1.sol\":14003:14032  _userPower[msg.sender] = base */\n      dup2\n      swap1\n      sstore\n      pop\n        /* \"contracts/ebcTrans/stakeEbcV1.sol\":12551:14040  {... */\n      pop\n        /* \"contracts/ebcTrans/stakeEbcV1.sol\":12416:14040  function stakeYB(... */\n      pop\n      pop\n      pop\n      jump\t// out\n        /* \"#utility.yul\":7:82   */\n    tag_351:\n        /* \"#utility.yul\":40:46   */\n      0x00\n        /* \"#utility.yul\":73:75   */\n      0x40\n        /* \"#utility.yul\":67:76   */\n      mload\n        /* \"#utility.yul\":57:76   */\n      swap1\n      pop\n        /* \"#utility.yul\":7:82   */\n      swap1\n      jump\t// out\n        /* \"#utility.yul\":88:205   */\n    tag_352:\n        /* \"#utility.yul\":197:198   */\n      0x00\n        /* \"#utility.yul\":194:195   */\n      dup1\n        /* \"#utility.yul\":187:199   */\n      revert\n        /* \"#utility.yul\":211:328   */\n    tag_353:\n        /* \"#utility.yul\":320:321   */\n      0x00\n        /* \"#utility.yul\":317:318   */\n      dup1\n        /* \"#utility.yul\":310:322   */\n      revert\n        /* \"#utility.yul\":334:411   */\n    tag_354:\n        /* \"#utility.yul\":371:378   */\n      0x00\n        /* \"#utility.yul\":400:405   */\n      dup2\n        /* \"#utility.yul\":389:405   */\n      swap1\n      pop\n        /* \"#utility.yul\":334:411   */\n      swap2\n      swap1\n      pop\n      jump\t// out\n        /* \"#utility.yul\":417:539   */\n    tag_355:\n        /* \"#utility.yul\":490:514   */\n      tag_411\n        /* \"#utility.yul\":508:513   */\n      dup2\n        /* \"#utility.yul\":490:514   */\n      tag_354\n      jump\t// in\n    tag_411:\n        /* \"#utility.yul\":483:488   */\n      dup2\n        /* \"#utility.yul\":480:515   */\n      eq\n        /* \"#utility.yul\":470:533   */\n      tag_412\n      jumpi\n        /* \"#utility.yul\":529:530   */\n      0x00\n        /* \"#utility.yul\":526:527   */\n      dup1\n        /* \"#utility.yul\":519:531   */\n      revert\n        /* \"#utility.yul\":470:533   */\n    tag_412:\n        /* \"#utility.yul\":417:539   */\n      pop\n      jump\t// out\n        /* \"#utility.yul\":545:684   */\n    tag_356:\n        /* \"#utility.yul\":591:596   */\n      0x00\n        /* \"#utility.yul\":629:635   */\n      dup2\n        /* \"#utility.yul\":616:636   */\n      calldataload\n        /* \"#utility.yul\":607:636   */\n      swap1\n      pop\n        /* \"#utility.yul\":645:678   */\n      tag_414\n        /* \"#utility.yul\":672:677   */\n      dup2\n        /* \"#utility.yul\":645:678   */\n      tag_355\n      jump\t// in\n    tag_414:\n        /* \"#utility.yul\":545:684   */\n      swap3\n      swap2\n      pop\n      pop\n      jump\t// out\n        /* \"#utility.yul\":690:1019   */\n    tag_56:\n        /* \"#utility.yul\":749:755   */\n      0x00\n        /* \"#utility.yul\":798:800   */\n      0x20\n        /* \"#utility.yul\":786:795   */\n      dup3\n        /* \"#utility.yul\":777:784   */\n      dup5\n        /* \"#utility.yul\":773:796   */\n      sub\n        /* \"#utility.yul\":769:801   */\n      slt\n        /* \"#utility.yul\":766:885   */\n      iszero\n      tag_416\n      jumpi\n        /* \"#utility.yul\":804:883   */\n      tag_417\n      tag_352\n      jump\t// in\n    tag_417:\n        /* \"#utility.yul\":766:885   */\n    tag_416:\n        /* \"#utility.yul\":924:925   */\n      0x00\n        /* \"#utility.yul\":949:1002   */\n      tag_418\n        /* \"#utility.yul\":994:1001   */\n      dup5\n        /* \"#utility.yul\":985:991   */\n      dup3\n        /* \"#utility.yul\":974:983   */\n      dup6\n        /* \"#utility.yul\":970:992   */\n      add\n        /* \"#utility.yul\":949:1002   */\n      tag_356\n      jump\t// in\n    tag_418:\n        /* \"#utility.yul\":939:1002   */\n      swap2\n      pop\n        /* \"#utility.yul\":895:1012   */\n      pop\n        /* \"#utility.yul\":690:1019   */\n      swap3\n      swap2\n      pop\n      pop\n      jump\t// out\n        /* \"#utility.yul\":1025:1151   */\n    tag_357:\n        /* \"#utility.yul\":1062:1069   */\n      0x00\n        /* \"#utility.yul\":1102:1144   */\n      0xffffffffffffffffffffffffffffffffffffffff\n        /* \"#utility.yul\":1095:1100   */\n      dup3\n        /* \"#utility.yul\":1091:1145   */\n      and\n        /* \"#utility.yul\":1080:1145   */\n      swap1\n      pop\n        /* \"#utility.yul\":1025:1151   */\n      swap2\n      swap1\n      pop\n      jump\t// out\n        /* \"#utility.yul\":1157:1253   */\n    tag_358:\n        /* \"#utility.yul\":1194:1201   */\n      0x00\n        /* \"#utility.yul\":1223:1247   */\n      tag_421\n        /* \"#utility.yul\":1241:1246   */\n      dup3\n        /* \"#utility.yul\":1223:1247   */\n      tag_357\n      jump\t// in\n    tag_421:\n        /* \"#utility.yul\":1212:1247   */\n      swap1\n      pop\n        /* \"#utility.yul\":1157:1253   */\n      swap2\n      swap1\n      pop\n      jump\t// out\n        /* \"#utility.yul\":1259:1381   */\n    tag_359:\n        /* \"#utility.yul\":1332:1356   */\n      tag_423\n        /* \"#utility.yul\":1350:1355   */\n      dup2\n        /* \"#utility.yul\":1332:1356   */\n      tag_358\n      jump\t// in\n    tag_423:\n        /* \"#utility.yul\":1325:1330   */\n      dup2\n        /* \"#utility.yul\":1322:1357   */\n      eq\n        /* \"#utility.yul\":1312:1375   */\n      tag_424\n      jumpi\n        /* \"#utility.yul\":1371:1372   */\n      0x00\n        /* \"#utility.yul\":1368:1369   */\n      dup1\n        /* \"#utility.yul\":1361:1373   */\n      revert\n        /* \"#utility.yul\":1312:1375   */\n    tag_424:\n        /* \"#utility.yul\":1259:1381   */\n      pop\n      jump\t// out\n        /* \"#utility.yul\":1387:1526   */\n    tag_360:\n        /* \"#utility.yul\":1433:1438   */\n      0x00\n        /* \"#utility.yul\":1471:1477   */\n      dup2\n        /* \"#utility.yul\":1458:1478   */\n      calldataload\n        /* \"#utility.yul\":1449:1478   */\n      swap1\n      pop\n        /* \"#utility.yul\":1487:1520   */\n      tag_426\n        /* \"#utility.yul\":1514:1519   */\n      dup2\n        /* \"#utility.yul\":1487:1520   */\n      tag_359\n      jump\t// in\n    tag_426:\n        /* \"#utility.yul\":1387:1526   */\n      swap3\n      swap2\n      pop\n      pop\n      jump\t// out\n        /* \"#utility.yul\":1532:1861   */\n    tag_60:\n        /* \"#utility.yul\":1591:1597   */\n      0x00\n        /* \"#utility.yul\":1640:1642   */\n      0x20\n        /* \"#utility.yul\":1628:1637   */\n      dup3\n        /* \"#utility.yul\":1619:1626   */\n      dup5\n        /* \"#utility.yul\":1615:1638   */\n      sub\n        /* \"#utility.yul\":1611:1643   */\n      slt\n        /* \"#utility.yul\":1608:1727   */\n      iszero\n      tag_428\n      jumpi\n        /* \"#utility.yul\":1646:1725   */\n      tag_429\n      tag_352\n      jump\t// in\n    tag_429:\n        /* \"#utility.yul\":1608:1727   */\n    tag_428:\n        /* \"#utility.yul\":1766:1767   */\n      0x00\n        /* \"#utility.yul\":1791:1844   */\n      tag_430\n        /* \"#utility.yul\":1836:1843   */\n      dup5\n        /* \"#utility.yul\":1827:1833   */\n      dup3\n        /* \"#utility.yul\":1816:1825   */\n      dup6\n        /* \"#utility.yul\":1812:1834   */\n      add\n        /* \"#utility.yul\":1791:1844   */\n      tag_360\n      jump\t// in\n    tag_430:\n        /* \"#utility.yul\":1781:1844   */\n      swap2\n      pop\n        /* \"#utility.yul\":1737:1854   */\n      pop\n        /* \"#utility.yul\":1532:1861   */\n      swap3\n      swap2\n      pop\n      pop\n      jump\t// out\n        /* \"#utility.yul\":1867:1985   */\n    tag_361:\n        /* \"#utility.yul\":1954:1978   */\n      tag_432\n        /* \"#utility.yul\":1972:1977   */\n      dup2\n        /* \"#utility.yul\":1954:1978   */\n      tag_354\n      jump\t// in\n    tag_432:\n        /* \"#utility.yul\":1949:1952   */\n      dup3\n        /* \"#utility.yul\":1942:1979   */\n      mstore\n        /* \"#utility.yul\":1867:1985   */\n      pop\n      pop\n      jump\t// out\n        /* \"#utility.yul\":1991:2213   */\n    tag_63:\n        /* \"#utility.yul\":2084:2088   */\n      0x00\n        /* \"#utility.yul\":2122:2124   */\n      0x20\n        /* \"#utility.yul\":2111:2120   */\n      dup3\n        /* \"#utility.yul\":2107:2125   */\n      add\n        /* \"#utility.yul\":2099:2125   */\n      swap1\n      pop\n        /* \"#utility.yul\":2135:2206   */\n      tag_434\n        /* \"#utility.yul\":2203:2204   */\n      0x00\n        /* \"#utility.yul\":2192:2201   */\n      dup4\n        /* \"#utility.yul\":2188:2205   */\n      add\n        /* \"#utility.yul\":2179:2185   */\n      dup5\n        /* \"#utility.yul\":2135:2206   */\n      tag_361\n      jump\t// in\n    tag_434:\n        /* \"#utility.yul\":1991:2213   */\n      swap3\n      swap2\n      pop\n      pop\n      jump\t// out\n        /* \"#utility.yul\":2219:2309   */\n    tag_362:\n        /* \"#utility.yul\":2253:2260   */\n      0x00\n        /* \"#utility.yul\":2296:2301   */\n      dup2\n        /* \"#utility.yul\":2289:2302   */\n      iszero\n        /* \"#utility.yul\":2282:2303   */\n      iszero\n        /* \"#utility.yul\":2271:2303   */\n      swap1\n      pop\n        /* \"#utility.yul\":2219:2309   */\n      swap2\n      swap1\n      pop\n      jump\t// out\n        /* \"#utility.yul\":2315:2424   */\n    tag_363:\n        /* \"#utility.yul\":2396:2417   */\n      tag_437\n        /* \"#utility.yul\":2411:2416   */\n      dup2\n        /* \"#utility.yul\":2396:2417   */\n      tag_362\n      jump\t// in\n    tag_437:\n        /* \"#utility.yul\":2391:2394   */\n      dup3\n        /* \"#utility.yul\":2384:2418   */\n      mstore\n        /* \"#utility.yul\":2315:2424   */\n      pop\n      pop\n      jump\t// out\n        /* \"#utility.yul\":2430:2640   */\n    tag_74:\n        /* \"#utility.yul\":2517:2521   */\n      0x00\n        /* \"#utility.yul\":2555:2557   */\n      0x20\n        /* \"#utility.yul\":2544:2553   */\n      dup3\n        /* \"#utility.yul\":2540:2558   */\n      add\n        /* \"#utility.yul\":2532:2558   */\n      swap1\n      pop\n        /* \"#utility.yul\":2568:2633   */\n      tag_439\n        /* \"#utility.yul\":2630:2631   */\n      0x00\n        /* \"#utility.yul\":2619:2628   */\n      dup4\n        /* \"#utility.yul\":2615:2632   */\n      add\n        /* \"#utility.yul\":2606:2612   */\n      dup5\n        /* \"#utility.yul\":2568:2633   */\n      tag_363\n      jump\t// in\n    tag_439:\n        /* \"#utility.yul\":2430:2640   */\n      swap3\n      swap2\n      pop\n      pop\n      jump\t// out\n        /* \"#utility.yul\":2646:2764   */\n    tag_364:\n        /* \"#utility.yul\":2733:2757   */\n      tag_441\n        /* \"#utility.yul\":2751:2756   */\n      dup2\n        /* \"#utility.yul\":2733:2757   */\n      tag_358\n      jump\t// in\n    tag_441:\n        /* \"#utility.yul\":2728:2731   */\n      dup3\n        /* \"#utility.yul\":2721:2758   */\n      mstore\n        /* \"#utility.yul\":2646:2764   */\n      pop\n      pop\n      jump\t// out\n        /* \"#utility.yul\":2770:2992   */\n    tag_93:\n        /* \"#utility.yul\":2863:2867   */\n      0x00\n        /* \"#utility.yul\":2901:2903   */\n      0x20\n        /* \"#utility.yul\":2890:2899   */\n      dup3\n        /* \"#utility.yul\":2886:2904   */\n      add\n        /* \"#utility.yul\":2878:2904   */\n      swap1\n      pop\n        /* \"#utility.yul\":2914:2985   */\n      tag_443\n        /* \"#utility.yul\":2982:2983   */\n      0x00\n        /* \"#utility.yul\":2971:2980   */\n      dup4\n        /* \"#utility.yul\":2967:2984   */\n      add\n        /* \"#utility.yul\":2958:2964   */\n      dup5\n        /* \"#utility.yul\":2914:2985   */\n      tag_364\n      jump\t// in\n    tag_443:\n        /* \"#utility.yul\":2770:2992   */\n      swap3\n      swap2\n      pop\n      pop\n      jump\t// out\n        /* \"#utility.yul\":2998:3115   */\n    tag_365:\n        /* \"#utility.yul\":3107:3108   */\n      0x00\n        /* \"#utility.yul\":3104:3105   */\n      dup1\n        /* \"#utility.yul\":3097:3109   */\n      revert\n        /* \"#utility.yul\":3121:3238   */\n    tag_366:\n        /* \"#utility.yul\":3230:3231   */\n      0x00\n        /* \"#utility.yul\":3227:3228   */\n      dup1\n        /* \"#utility.yul\":3220:3232   */\n      revert\n        /* \"#utility.yul\":3244:3346   */\n    tag_367:\n        /* \"#utility.yul\":3285:3291   */\n      0x00\n        /* \"#utility.yul\":3336:3338   */\n      0x1f\n        /* \"#utility.yul\":3332:3339   */\n      not\n        /* \"#utility.yul\":3327:3329   */\n      0x1f\n        /* \"#utility.yul\":3320:3325   */\n      dup4\n        /* \"#utility.yul\":3316:3330   */\n      add\n        /* \"#utility.yul\":3312:3340   */\n      and\n        /* \"#utility.yul\":3302:3340   */\n      swap1\n      pop\n        /* \"#utility.yul\":3244:3346   */\n      swap2\n      swap1\n      pop\n      jump\t// out\n        /* \"#utility.yul\":3352:3532   */\n    tag_368:\n        /* \"#utility.yul\":3400:3477   */\n      0x4e487b7100000000000000000000000000000000000000000000000000000000\n        /* \"#utility.yul\":3397:3398   */\n      0x00\n        /* \"#utility.yul\":3390:3478   */\n      mstore\n        /* \"#utility.yul\":3497:3501   */\n      0x41\n        /* \"#utility.yul\":3494:3495   */\n      0x04\n        /* \"#utility.yul\":3487:3502   */\n      mstore\n        /* \"#utility.yul\":3521:3525   */\n      0x24\n        /* \"#utility.yul\":3518:3519   */\n      0x00\n        /* \"#utility.yul\":3511:3526   */\n      revert\n        /* \"#utility.yul\":3538:3819   */\n    tag_369:\n        /* \"#utility.yul\":3621:3648   */\n      tag_449\n        /* \"#utility.yul\":3643:3647   */\n      dup3\n        /* \"#utility.yul\":3621:3648   */\n      tag_367\n      jump\t// in\n    tag_449:\n        /* \"#utility.yul\":3613:3619   */\n      dup2\n        /* \"#utility.yul\":3609:3649   */\n      add\n        /* \"#utility.yul\":3751:3757   */\n      dup2\n        /* \"#utility.yul\":3739:3749   */\n      dup2\n        /* \"#utility.yul\":3736:3758   */\n      lt\n        /* \"#utility.yul\":3715:3733   */\n      0xffffffffffffffff\n        /* \"#utility.yul\":3703:3713   */\n      dup3\n        /* \"#utility.yul\":3700:3734   */\n      gt\n        /* \"#utility.yul\":3697:3759   */\n      or\n        /* \"#utility.yul\":3694:3782   */\n      iszero\n      tag_450\n      jumpi\n        /* \"#utility.yul\":3762:3780   */\n      tag_451\n      tag_368\n      jump\t// in\n    tag_451:\n        /* \"#utility.yul\":3694:3782   */\n    tag_450:\n        /* \"#utility.yul\":3802:3812   */\n      dup1\n        /* \"#utility.yul\":3798:3800   */\n      0x40\n        /* \"#utility.yul\":3791:3813   */\n      mstore\n        /* \"#utility.yul\":3581:3819   */\n      pop\n        /* \"#utility.yul\":3538:3819   */\n      pop\n      pop\n      jump\t// out\n        /* \"#utility.yul\":3825:3954   */\n    tag_370:\n        /* \"#utility.yul\":3859:3865   */\n      0x00\n        /* \"#utility.yul\":3886:3906   */\n      tag_453\n      tag_351\n      jump\t// in\n    tag_453:\n        /* \"#utility.yul\":3876:3906   */\n      swap1\n      pop\n        /* \"#utility.yul\":3915:3948   */\n      tag_454\n        /* \"#utility.yul\":3943:3947   */\n      dup3\n        /* \"#utility.yul\":3935:3941   */\n      dup3\n        /* \"#utility.yul\":3915:3948   */\n      tag_369\n      jump\t// in\n    tag_454:\n        /* \"#utility.yul\":3825:3954   */\n      swap2\n      swap1\n      pop\n      jump\t// out\n        /* \"#utility.yul\":3960:4268   */\n    tag_371:\n        /* \"#utility.yul\":4022:4026   */\n      0x00\n        /* \"#utility.yul\":4112:4130   */\n      0xffffffffffffffff\n        /* \"#utility.yul\":4104:4110   */\n      dup3\n        /* \"#utility.yul\":4101:4131   */\n      gt\n        /* \"#utility.yul\":4098:4154   */\n      iszero\n      tag_456\n      jumpi\n        /* \"#utility.yul\":4134:4152   */\n      tag_457\n      tag_368\n      jump\t// in\n    tag_457:\n        /* \"#utility.yul\":4098:4154   */\n    tag_456:\n        /* \"#utility.yul\":4172:4201   */\n      tag_458\n        /* \"#utility.yul\":4194:4200   */\n      dup3\n        /* \"#utility.yul\":4172:4201   */\n      tag_367\n      jump\t// in\n    tag_458:\n        /* \"#utility.yul\":4164:4201   */\n      swap1\n      pop\n        /* \"#utility.yul\":4256:4260   */\n      0x20\n        /* \"#utility.yul\":4250:4254   */\n      dup2\n        /* \"#utility.yul\":4246:4261   */\n      add\n        /* \"#utility.yul\":4238:4261   */\n      swap1\n      pop\n        /* \"#utility.yul\":3960:4268   */\n      swap2\n      swap1\n      pop\n      jump\t// out\n        /* \"#utility.yul\":4274:4420   */\n    tag_372:\n        /* \"#utility.yul\":4371:4377   */\n      dup3\n        /* \"#utility.yul\":4366:4369   */\n      dup2\n        /* \"#utility.yul\":4361:4364   */\n      dup4\n        /* \"#utility.yul\":4348:4378   */\n      calldatacopy\n        /* \"#utility.yul\":4412:4413   */\n      0x00\n        /* \"#utility.yul\":4403:4409   */\n      dup4\n        /* \"#utility.yul\":4398:4401   */\n      dup4\n        /* \"#utility.yul\":4394:4410   */\n      add\n        /* \"#utility.yul\":4387:4414   */\n      mstore\n        /* \"#utility.yul\":4274:4420   */\n      pop\n      pop\n      pop\n      jump\t// out\n        /* \"#utility.yul\":4426:4851   */\n    tag_373:\n        /* \"#utility.yul\":4504:4509   */\n      0x00\n        /* \"#utility.yul\":4529:4595   */\n      tag_461\n        /* \"#utility.yul\":4545:4594   */\n      tag_462\n        /* \"#utility.yul\":4587:4593   */\n      dup5\n        /* \"#utility.yul\":4545:4594   */\n      tag_371\n      jump\t// in\n    tag_462:\n        /* \"#utility.yul\":4529:4595   */\n      tag_370\n      jump\t// in\n    tag_461:\n        /* \"#utility.yul\":4520:4595   */\n      swap1\n      pop\n        /* \"#utility.yul\":4618:4624   */\n      dup3\n        /* \"#utility.yul\":4611:4616   */\n      dup2\n        /* \"#utility.yul\":4604:4625   */\n      mstore\n        /* \"#utility.yul\":4656:4660   */\n      0x20\n        /* \"#utility.yul\":4649:4654   */\n      dup2\n        /* \"#utility.yul\":4645:4661   */\n      add\n        /* \"#utility.yul\":4694:4697   */\n      dup5\n        /* \"#utility.yul\":4685:4691   */\n      dup5\n        /* \"#utility.yul\":4680:4683   */\n      dup5\n        /* \"#utility.yul\":4676:4692   */\n      add\n        /* \"#utility.yul\":4673:4698   */\n      gt\n        /* \"#utility.yul\":4670:4782   */\n      iszero\n      tag_463\n      jumpi\n        /* \"#utility.yul\":4701:4780   */\n      tag_464\n      tag_366\n      jump\t// in\n    tag_464:\n        /* \"#utility.yul\":4670:4782   */\n    tag_463:\n        /* \"#utility.yul\":4791:4845   */\n      tag_465\n        /* \"#utility.yul\":4838:4844   */\n      dup5\n        /* \"#utility.yul\":4833:4836   */\n      dup3\n        /* \"#utility.yul\":4828:4831   */\n      dup6\n        /* \"#utility.yul\":4791:4845   */\n      tag_372\n      jump\t// in\n    tag_465:\n        /* \"#utility.yul\":4510:4851   */\n      pop\n        /* \"#utility.yul\":4426:4851   */\n      swap4\n      swap3\n      pop\n      pop\n      pop\n      jump\t// out\n        /* \"#utility.yul\":4871:5211   */\n    tag_374:\n        /* \"#utility.yul\":4927:4932   */\n      0x00\n        /* \"#utility.yul\":4976:4979   */\n      dup3\n        /* \"#utility.yul\":4969:4973   */\n      0x1f\n        /* \"#utility.yul\":4961:4967   */\n      dup4\n        /* \"#utility.yul\":4957:4974   */\n      add\n        /* \"#utility.yul\":4953:4980   */\n      slt\n        /* \"#utility.yul\":4943:5065   */\n      tag_467\n      jumpi\n        /* \"#utility.yul\":4984:5063   */\n      tag_468\n      tag_365\n      jump\t// in\n    tag_468:\n        /* \"#utility.yul\":4943:5065   */\n    tag_467:\n        /* \"#utility.yul\":5101:5107   */\n      dup2\n        /* \"#utility.yul\":5088:5108   */\n      calldataload\n        /* \"#utility.yul\":5126:5205   */\n      tag_469\n        /* \"#utility.yul\":5201:5204   */\n      dup5\n        /* \"#utility.yul\":5193:5199   */\n      dup3\n        /* \"#utility.yul\":5186:5190   */\n      0x20\n        /* \"#utility.yul\":5178:5184   */\n      dup7\n        /* \"#utility.yul\":5174:5191   */\n      add\n        /* \"#utility.yul\":5126:5205   */\n      tag_373\n      jump\t// in\n    tag_469:\n        /* \"#utility.yul\":5117:5205   */\n      swap2\n      pop\n        /* \"#utility.yul\":4933:5211   */\n      pop\n        /* \"#utility.yul\":4871:5211   */\n      swap3\n      swap2\n      pop\n      pop\n      jump\t// out\n        /* \"#utility.yul\":5217:5726   */\n    tag_110:\n        /* \"#utility.yul\":5286:5292   */\n      0x00\n        /* \"#utility.yul\":5335:5337   */\n      0x20\n        /* \"#utility.yul\":5323:5332   */\n      dup3\n        /* \"#utility.yul\":5314:5321   */\n      dup5\n        /* \"#utility.yul\":5310:5333   */\n      sub\n        /* \"#utility.yul\":5306:5338   */\n      slt\n        /* \"#utility.yul\":5303:5422   */\n      iszero\n      tag_471\n      jumpi\n        /* \"#utility.yul\":5341:5420   */\n      tag_472\n      tag_352\n      jump\t// in\n    tag_472:\n        /* \"#utility.yul\":5303:5422   */\n    tag_471:\n        /* \"#utility.yul\":5489:5490   */\n      0x00\n        /* \"#utility.yul\":5478:5487   */\n      dup3\n        /* \"#utility.yul\":5474:5491   */\n      add\n        /* \"#utility.yul\":5461:5492   */\n      calldataload\n        /* \"#utility.yul\":5519:5537   */\n      0xffffffffffffffff\n        /* \"#utility.yul\":5511:5517   */\n      dup2\n        /* \"#utility.yul\":5508:5538   */\n      gt\n        /* \"#utility.yul\":5505:5622   */\n      iszero\n      tag_473\n      jumpi\n        /* \"#utility.yul\":5541:5620   */\n      tag_474\n      tag_353\n      jump\t// in\n    tag_474:\n        /* \"#utility.yul\":5505:5622   */\n    tag_473:\n        /* \"#utility.yul\":5646:5709   */\n      tag_475\n        /* \"#utility.yul\":5701:5708   */\n      dup5\n        /* \"#utility.yul\":5692:5698   */\n      dup3\n        /* \"#utility.yul\":5681:5690   */\n      dup6\n        /* \"#utility.yul\":5677:5699   */\n      add\n        /* \"#utility.yul\":5646:5709   */\n      tag_374\n      jump\t// in\n    tag_475:\n        /* \"#utility.yul\":5636:5709   */\n      swap2\n      pop\n        /* \"#utility.yul\":5432:5719   */\n      pop\n        /* \"#utility.yul\":5217:5726   */\n      swap3\n      swap2\n      pop\n      pop\n      jump\t// out\n        /* \"#utility.yul\":5732:6206   */\n    tag_115:\n        /* \"#utility.yul\":5800:5806   */\n      0x00\n        /* \"#utility.yul\":5808:5814   */\n      dup1\n        /* \"#utility.yul\":5857:5859   */\n      0x40\n        /* \"#utility.yul\":5845:5854   */\n      dup4\n        /* \"#utility.yul\":5836:5843   */\n      dup6\n        /* \"#utility.yul\":5832:5855   */\n      sub\n        /* \"#utility.yul\":5828:5860   */\n      slt\n        /* \"#utility.yul\":5825:5944   */\n      iszero\n      tag_477\n      jumpi\n        /* \"#utility.yul\":5863:5942   */\n      tag_478\n      tag_352\n      jump\t// in\n    tag_478:\n        /* \"#utility.yul\":5825:5944   */\n    tag_477:\n        /* \"#utility.yul\":5983:5984   */\n      0x00\n        /* \"#utility.yul\":6008:6061   */\n      tag_479\n        /* \"#utility.yul\":6053:6060   */\n      dup6\n        /* \"#utility.yul\":6044:6050   */\n      dup3\n        /* \"#utility.yul\":6033:6042   */\n      dup7\n        /* \"#utility.yul\":6029:6051   */\n      add\n        /* \"#utility.yul\":6008:6061   */\n      tag_360\n      jump\t// in\n    tag_479:\n        /* \"#utility.yul\":5998:6061   */\n      swap3\n      pop\n        /* \"#utility.yul\":5954:6071   */\n      pop\n        /* \"#utility.yul\":6110:6112   */\n      0x20\n        /* \"#utility.yul\":6136:6189   */\n      tag_480\n        /* \"#utility.yul\":6181:6188   */\n      dup6\n        /* \"#utility.yul\":6172:6178   */\n      dup3\n        /* \"#utility.yul\":6161:6170   */\n      dup7\n        /* \"#utility.yul\":6157:6179   */\n      add\n        /* \"#utility.yul\":6136:6189   */\n      tag_356\n      jump\t// in\n    tag_480:\n        /* \"#utility.yul\":6126:6189   */\n      swap2\n      pop\n        /* \"#utility.yul\":6081:6199   */\n      pop\n        /* \"#utility.yul\":5732:6206   */\n      swap3\n      pop\n      swap3\n      swap1\n      pop\n      jump\t// out\n        /* \"#utility.yul\":6212:6298   */\n    tag_375:\n        /* \"#utility.yul\":6247:6254   */\n      0x00\n        /* \"#utility.yul\":6287:6291   */\n      0xff\n        /* \"#utility.yul\":6280:6285   */\n      dup3\n        /* \"#utility.yul\":6276:6292   */\n      and\n        /* \"#utility.yul\":6265:6292   */\n      swap1\n      pop\n        /* \"#utility.yul\":6212:6298   */\n      swap2\n      swap1\n      pop\n      jump\t// out\n        /* \"#utility.yul\":6304:6416   */\n    tag_376:\n        /* \"#utility.yul\":6387:6409   */\n      tag_483\n        /* \"#utility.yul\":6403:6408   */\n      dup2\n        /* \"#utility.yul\":6387:6409   */\n      tag_375\n      jump\t// in\n    tag_483:\n        /* \"#utility.yul\":6382:6385   */\n      dup3\n        /* \"#utility.yul\":6375:6410   */\n      mstore\n        /* \"#utility.yul\":6304:6416   */\n      pop\n      pop\n      jump\t// out\n        /* \"#utility.yul\":6422:6636   */\n    tag_143:\n        /* \"#utility.yul\":6511:6515   */\n      0x00\n        /* \"#utility.yul\":6549:6551   */\n      0x20\n        /* \"#utility.yul\":6538:6547   */\n      dup3\n        /* \"#utility.yul\":6534:6552   */\n      add\n        /* \"#utility.yul\":6526:6552   */\n      swap1\n      pop\n        /* \"#utility.yul\":6562:6629   */\n      tag_485\n        /* \"#utility.yul\":6626:6627   */\n      0x00\n        /* \"#utility.yul\":6615:6624   */\n      dup4\n        /* \"#utility.yul\":6611:6628   */\n      add\n        /* \"#utility.yul\":6602:6608   */\n      dup5\n        /* \"#utility.yul\":6562:6629   */\n      tag_376\n      jump\t// in\n    tag_485:\n        /* \"#utility.yul\":6422:6636   */\n      swap3\n      swap2\n      pop\n      pop\n      jump\t// out\n        /* \"#utility.yul\":6642:6741   */\n    tag_377:\n        /* \"#utility.yul\":6694:6700   */\n      0x00\n        /* \"#utility.yul\":6728:6733   */\n      dup2\n        /* \"#utility.yul\":6722:6734   */\n      mload\n        /* \"#utility.yul\":6712:6734   */\n      swap1\n      pop\n        /* \"#utility.yul\":6642:6741   */\n      swap2\n      swap1\n      pop\n      jump\t// out\n        /* \"#utility.yul\":6747:6916   */\n    tag_378:\n        /* \"#utility.yul\":6831:6842   */\n      0x00\n        /* \"#utility.yul\":6865:6871   */\n      dup3\n        /* \"#utility.yul\":6860:6863   */\n      dup3\n        /* \"#utility.yul\":6853:6872   */\n      mstore\n        /* \"#utility.yul\":6905:6909   */\n      0x20\n        /* \"#utility.yul\":6900:6903   */\n      dup3\n        /* \"#utility.yul\":6896:6910   */\n      add\n        /* \"#utility.yul\":6881:6910   */\n      swap1\n      pop\n        /* \"#utility.yul\":6747:6916   */\n      swap3\n      swap2\n      pop\n      pop\n      jump\t// out\n        /* \"#utility.yul\":6922:7168   */\n    tag_379:\n        /* \"#utility.yul\":7003:7004   */\n      0x00\n        /* \"#utility.yul\":7013:7126   */\n    tag_489:\n        /* \"#utility.yul\":7027:7033   */\n      dup4\n        /* \"#utility.yul\":7024:7025   */\n      dup2\n        /* \"#utility.yul\":7021:7034   */\n      lt\n        /* \"#utility.yul\":7013:7126   */\n      iszero\n      tag_491\n      jumpi\n        /* \"#utility.yul\":7112:7113   */\n      dup1\n        /* \"#utility.yul\":7107:7110   */\n      dup3\n        /* \"#utility.yul\":7103:7114   */\n      add\n        /* \"#utility.yul\":7097:7115   */\n      mload\n        /* \"#utility.yul\":7093:7094   */\n      dup2\n        /* \"#utility.yul\":7088:7091   */\n      dup5\n        /* \"#utility.yul\":7084:7095   */\n      add\n        /* \"#utility.yul\":7077:7116   */\n      mstore\n        /* \"#utility.yul\":7049:7051   */\n      0x20\n        /* \"#utility.yul\":7046:7047   */\n      dup2\n        /* \"#utility.yul\":7042:7052   */\n      add\n        /* \"#utility.yul\":7037:7052   */\n      swap1\n      pop\n        /* \"#utility.yul\":7013:7126   */\n      jump(tag_489)\n    tag_491:\n        /* \"#utility.yul\":7160:7161   */\n      0x00\n        /* \"#utility.yul\":7151:7157   */\n      dup5\n        /* \"#utility.yul\":7146:7149   */\n      dup5\n        /* \"#utility.yul\":7142:7158   */\n      add\n        /* \"#utility.yul\":7135:7162   */\n      mstore\n        /* \"#utility.yul\":6984:7168   */\n      pop\n        /* \"#utility.yul\":6922:7168   */\n      pop\n      pop\n      pop\n      jump\t// out\n        /* \"#utility.yul\":7174:7551   */\n    tag_380:\n        /* \"#utility.yul\":7262:7265   */\n      0x00\n        /* \"#utility.yul\":7290:7329   */\n      tag_493\n        /* \"#utility.yul\":7323:7328   */\n      dup3\n        /* \"#utility.yul\":7290:7329   */\n      tag_377\n      jump\t// in\n    tag_493:\n        /* \"#utility.yul\":7345:7416   */\n      tag_494\n        /* \"#utility.yul\":7409:7415   */\n      dup2\n        /* \"#utility.yul\":7404:7407   */\n      dup6\n        /* \"#utility.yul\":7345:7416   */\n      tag_378\n      jump\t// in\n    tag_494:\n        /* \"#utility.yul\":7338:7416   */\n      swap4\n      pop\n        /* \"#utility.yul\":7425:7490   */\n      tag_495\n        /* \"#utility.yul\":7483:7489   */\n      dup2\n        /* \"#utility.yul\":7478:7481   */\n      dup6\n        /* \"#utility.yul\":7471:7475   */\n      0x20\n        /* \"#utility.yul\":7464:7469   */\n      dup7\n        /* \"#utility.yul\":7460:7476   */\n      add\n        /* \"#utility.yul\":7425:7490   */\n      tag_379\n      jump\t// in\n    tag_495:\n        /* \"#utility.yul\":7515:7544   */\n      tag_496\n        /* \"#utility.yul\":7537:7543   */\n      dup2\n        /* \"#utility.yul\":7515:7544   */\n      tag_367\n      jump\t// in\n    tag_496:\n        /* \"#utility.yul\":7510:7513   */\n      dup5\n        /* \"#utility.yul\":7506:7545   */\n      add\n        /* \"#utility.yul\":7499:7545   */\n      swap2\n      pop\n        /* \"#utility.yul\":7266:7551   */\n      pop\n        /* \"#utility.yul\":7174:7551   */\n      swap3\n      swap2\n      pop\n      pop\n      jump\t// out\n        /* \"#utility.yul\":7557:7870   */\n    tag_161:\n        /* \"#utility.yul\":7670:7674   */\n      0x00\n        /* \"#utility.yul\":7708:7710   */\n      0x20\n        /* \"#utility.yul\":7697:7706   */\n      dup3\n        /* \"#utility.yul\":7693:7711   */\n      add\n        /* \"#utility.yul\":7685:7711   */\n      swap1\n      pop\n        /* \"#utility.yul\":7757:7766   */\n      dup2\n        /* \"#utility.yul\":7751:7755   */\n      dup2\n        /* \"#utility.yul\":7747:7767   */\n      sub\n        /* \"#utility.yul\":7743:7744   */\n      0x00\n        /* \"#utility.yul\":7732:7741   */\n      dup4\n        /* \"#utility.yul\":7728:7745   */\n      add\n        /* \"#utility.yul\":7721:7768   */\n      mstore\n        /* \"#utility.yul\":7785:7863   */\n      tag_498\n        /* \"#utility.yul\":7858:7862   */\n      dup2\n        /* \"#utility.yul\":7849:7855   */\n      dup5\n        /* \"#utility.yul\":7785:7863   */\n      tag_380\n      jump\t// in\n    tag_498:\n        /* \"#utility.yul\":7777:7863   */\n      swap1\n      pop\n        /* \"#utility.yul\":7557:7870   */\n      swap3\n      swap2\n      pop\n      pop\n      jump\t// out\n        /* \"#utility.yul\":7876:7992   */\n    tag_381:\n        /* \"#utility.yul\":7946:7967   */\n      tag_500\n        /* \"#utility.yul\":7961:7966   */\n      dup2\n        /* \"#utility.yul\":7946:7967   */\n      tag_362\n      jump\t// in\n    tag_500:\n        /* \"#utility.yul\":7939:7944   */\n      dup2\n        /* \"#utility.yul\":7936:7968   */\n      eq\n        /* \"#utility.yul\":7926:7986   */\n      tag_501\n      jumpi\n        /* \"#utility.yul\":7982:7983   */\n      0x00\n        /* \"#utility.yul\":7979:7980   */\n      dup1\n        /* \"#utility.yul\":7972:7984   */\n      revert\n        /* \"#utility.yul\":7926:7986   */\n    tag_501:\n        /* \"#utility.yul\":7876:7992   */\n      pop\n      jump\t// out\n        /* \"#utility.yul\":7998:8131   */\n    tag_382:\n        /* \"#utility.yul\":8041:8046   */\n      0x00\n        /* \"#utility.yul\":8079:8085   */\n      dup2\n        /* \"#utility.yul\":8066:8086   */\n      calldataload\n        /* \"#utility.yul\":8057:8086   */\n      swap1\n      pop\n        /* \"#utility.yul\":8095:8125   */\n      tag_503\n        /* \"#utility.yul\":8119:8124   */\n      dup2\n        /* \"#utility.yul\":8095:8125   */\n      tag_381\n      jump\t// in\n    tag_503:\n        /* \"#utility.yul\":7998:8131   */\n      swap3\n      swap2\n      pop\n      pop\n      jump\t// out\n        /* \"#utility.yul\":8137:8599   */\n    tag_179:\n        /* \"#utility.yul\":8199:8205   */\n      0x00\n        /* \"#utility.yul\":8207:8213   */\n      dup1\n        /* \"#utility.yul\":8256:8258   */\n      0x40\n        /* \"#utility.yul\":8244:8253   */\n      dup4\n        /* \"#utility.yul\":8235:8242   */\n      dup6\n        /* \"#utility.yul\":8231:8254   */\n      sub\n        /* \"#utility.yul\":8227:8259   */\n      slt\n        /* \"#utility.yul\":8224:8343   */\n      iszero\n      tag_505\n      jumpi\n        /* \"#utility.yul\":8262:8341   */\n      tag_506\n      tag_352\n      jump\t// in\n    tag_506:\n        /* \"#utility.yul\":8224:8343   */\n    tag_505:\n        /* \"#utility.yul\":8382:8383   */\n      0x00\n        /* \"#utility.yul\":8407:8457   */\n      tag_507\n        /* \"#utility.yul\":8449:8456   */\n      dup6\n        /* \"#utility.yul\":8440:8446   */\n      dup3\n        /* \"#utility.yul\":8429:8438   */\n      dup7\n        /* \"#utility.yul\":8425:8447   */\n      add\n        /* \"#utility.yul\":8407:8457   */\n      tag_382\n      jump\t// in\n    tag_507:\n        /* \"#utility.yul\":8397:8457   */\n      swap3\n      pop\n        /* \"#utility.yul\":8353:8467   */\n      pop\n        /* \"#utility.yul\":8506:8508   */\n      0x20\n        /* \"#utility.yul\":8532:8582   */\n      tag_508\n        /* \"#utility.yul\":8574:8581   */\n      dup6\n        /* \"#utility.yul\":8565:8571   */\n      dup3\n        /* \"#utility.yul\":8554:8563   */\n      dup7\n        /* \"#utility.yul\":8550:8572   */\n      add\n        /* \"#utility.yul\":8532:8582   */\n      tag_382\n      jump\t// in\n    tag_508:\n        /* \"#utility.yul\":8522:8582   */\n      swap2\n      pop\n        /* \"#utility.yul\":8477:8592   */\n      pop\n        /* \"#utility.yul\":8137:8599   */\n      swap3\n      pop\n      swap3\n      swap1\n      pop\n      jump\t// out\n        /* \"#utility.yul\":8605:9808   */\n    tag_197:\n        /* \"#utility.yul\":8718:8724   */\n      0x00\n        /* \"#utility.yul\":8726:8732   */\n      dup1\n        /* \"#utility.yul\":8734:8740   */\n      0x00\n        /* \"#utility.yul\":8742:8748   */\n      dup1\n        /* \"#utility.yul\":8750:8756   */\n      0x00\n        /* \"#utility.yul\":8758:8764   */\n      dup1\n        /* \"#utility.yul\":8766:8772   */\n      0x00\n        /* \"#utility.yul\":8815:8818   */\n      0xe0\n        /* \"#utility.yul\":8803:8812   */\n      dup9\n        /* \"#utility.yul\":8794:8801   */\n      dup11\n        /* \"#utility.yul\":8790:8813   */\n      sub\n        /* \"#utility.yul\":8786:8819   */\n      slt\n        /* \"#utility.yul\":8783:8903   */\n      iszero\n      tag_510\n      jumpi\n        /* \"#utility.yul\":8822:8901   */\n      tag_511\n      tag_352\n      jump\t// in\n    tag_511:\n        /* \"#utility.yul\":8783:8903   */\n    tag_510:\n        /* \"#utility.yul\":8942:8943   */\n      0x00\n        /* \"#utility.yul\":8967:9020   */\n      tag_512\n        /* \"#utility.yul\":9012:9019   */\n      dup11\n        /* \"#utility.yul\":9003:9009   */\n      dup3\n        /* \"#utility.yul\":8992:9001   */\n      dup12\n        /* \"#utility.yul\":8988:9010   */\n      add\n        /* \"#utility.yul\":8967:9020   */\n      tag_360\n      jump\t// in\n    tag_512:\n        /* \"#utility.yul\":8957:9020   */\n      swap8\n      pop\n        /* \"#utility.yul\":8913:9030   */\n      pop\n        /* \"#utility.yul\":9069:9071   */\n      0x20\n        /* \"#utility.yul\":9095:9148   */\n      tag_513\n        /* \"#utility.yul\":9140:9147   */\n      dup11\n        /* \"#utility.yul\":9131:9137   */\n      dup3\n        /* \"#utility.yul\":9120:9129   */\n      dup12\n        /* \"#utility.yul\":9116:9138   */\n      add\n        /* \"#utility.yul\":9095:9148   */\n      tag_356\n      jump\t// in\n    tag_513:\n        /* \"#utility.yul\":9085:9148   */\n      swap7\n      pop\n        /* \"#utility.yul\":9040:9158   */\n      pop\n        /* \"#utility.yul\":9197:9199   */\n      0x40\n        /* \"#utility.yul\":9223:9276   */\n      tag_514\n        /* \"#utility.yul\":9268:9275   */\n      dup11\n        /* \"#utility.yul\":9259:9265   */\n      dup3\n        /* \"#utility.yul\":9248:9257   */\n      dup12\n        /* \"#utility.yul\":9244:9266   */\n      add\n        /* \"#utility.yul\":9223:9276   */\n      tag_356\n      jump\t// in\n    tag_514:\n        /* \"#utility.yul\":9213:9276   */\n      swap6\n      pop\n        /* \"#utility.yul\":9168:9286   */\n      pop\n        /* \"#utility.yul\":9325:9327   */\n      0x60\n        /* \"#utility.yul\":9351:9404   */\n      tag_515\n        /* \"#utility.yul\":9396:9403   */\n      dup11\n        /* \"#utility.yul\":9387:9393   */\n      dup3\n        /* \"#utility.yul\":9376:9385   */\n      dup12\n        /* \"#utility.yul\":9372:9394   */\n      add\n        /* \"#utility.yul\":9351:9404   */\n      tag_356\n      jump\t// in\n    tag_515:\n        /* \"#utility.yul\":9341:9404   */\n      swap5\n      pop\n        /* \"#utility.yul\":9296:9414   */\n      pop\n        /* \"#utility.yul\":9453:9456   */\n      0x80\n        /* \"#utility.yul\":9480:9533   */\n      tag_516\n        /* \"#utility.yul\":9525:9532   */\n      dup11\n        /* \"#utility.yul\":9516:9522   */\n      dup3\n        /* \"#utility.yul\":9505:9514   */\n      dup12\n        /* \"#utility.yul\":9501:9523   */\n      add\n        /* \"#utility.yul\":9480:9533   */\n      tag_356\n      jump\t// in\n    tag_516:\n        /* \"#utility.yul\":9470:9533   */\n      swap4\n      pop\n        /* \"#utility.yul\":9424:9543   */\n      pop\n        /* \"#utility.yul\":9582:9585   */\n      0xa0\n        /* \"#utility.yul\":9609:9662   */\n      tag_517\n        /* \"#utility.yul\":9654:9661   */\n      dup11\n        /* \"#utility.yul\":9645:9651   */\n      dup3\n        /* \"#utility.yul\":9634:9643   */\n      dup12\n        /* \"#utility.yul\":9630:9652   */\n      add\n        /* \"#utility.yul\":9609:9662   */\n      tag_356\n      jump\t// in\n    tag_517:\n        /* \"#utility.yul\":9599:9662   */\n      swap3\n      pop\n        /* \"#utility.yul\":9553:9672   */\n      pop\n        /* \"#utility.yul\":9711:9714   */\n      0xc0\n        /* \"#utility.yul\":9738:9791   */\n      tag_518\n        /* \"#utility.yul\":9783:9790   */\n      dup11\n        /* \"#utility.yul\":9774:9780   */\n      dup3\n        /* \"#utility.yul\":9763:9772   */\n      dup12\n        /* \"#utility.yul\":9759:9781   */\n      add\n        /* \"#utility.yul\":9738:9791   */\n      tag_356\n      jump\t// in\n    tag_518:\n        /* \"#utility.yul\":9728:9791   */\n      swap2\n      pop\n        /* \"#utility.yul\":9682:9801   */\n      pop\n        /* \"#utility.yul\":8605:9808   */\n      swap3\n      swap6\n      swap9\n      swap2\n      swap5\n      swap8\n      pop\n      swap3\n      swap6\n      pop\n      jump\t// out\n        /* \"#utility.yul\":9814:10433   */\n    tag_210:\n        /* \"#utility.yul\":9891:9897   */\n      0x00\n        /* \"#utility.yul\":9899:9905   */\n      dup1\n        /* \"#utility.yul\":9907:9913   */\n      0x00\n        /* \"#utility.yul\":9956:9958   */\n      0x60\n        /* \"#utility.yul\":9944:9953   */\n      dup5\n        /* \"#utility.yul\":9935:9942   */\n      dup7\n        /* \"#utility.yul\":9931:9954   */\n      sub\n        /* \"#utility.yul\":9927:9959   */\n      slt\n        /* \"#utility.yul\":9924:10043   */\n      iszero\n      tag_520\n      jumpi\n        /* \"#utility.yul\":9962:10041   */\n      tag_521\n      tag_352\n      jump\t// in\n    tag_521:\n        /* \"#utility.yul\":9924:10043   */\n    tag_520:\n        /* \"#utility.yul\":10082:10083   */\n      0x00\n        /* \"#utility.yul\":10107:10160   */\n      tag_522\n        /* \"#utility.yul\":10152:10159   */\n      dup7\n        /* \"#utility.yul\":10143:10149   */\n      dup3\n        /* \"#utility.yul\":10132:10141   */\n      dup8\n        /* \"#utility.yul\":10128:10150   */\n      add\n        /* \"#utility.yul\":10107:10160   */\n      tag_356\n      jump\t// in\n    tag_522:\n        /* \"#utility.yul\":10097:10160   */\n      swap4\n      pop\n        /* \"#utility.yul\":10053:10170   */\n      pop\n        /* \"#utility.yul\":10209:10211   */\n      0x20\n        /* \"#utility.yul\":10235:10288   */\n      tag_523\n        /* \"#utility.yul\":10280:10287   */\n      dup7\n        /* \"#utility.yul\":10271:10277   */\n      dup3\n        /* \"#utility.yul\":10260:10269   */\n      dup8\n        /* \"#utility.yul\":10256:10278   */\n      add\n        /* \"#utility.yul\":10235:10288   */\n      tag_356\n      jump\t// in\n    tag_523:\n        /* \"#utility.yul\":10225:10288   */\n      swap3\n      pop\n        /* \"#utility.yul\":10180:10298   */\n      pop\n        /* \"#utility.yul\":10337:10339   */\n      0x40\n        /* \"#utility.yul\":10363:10416   */\n      tag_524\n        /* \"#utility.yul\":10408:10415   */\n      dup7\n        /* \"#utility.yul\":10399:10405   */\n      dup3\n        /* \"#utility.yul\":10388:10397   */\n      dup8\n        /* \"#utility.yul\":10384:10406   */\n      add\n        /* \"#utility.yul\":10363:10416   */\n      tag_356\n      jump\t// in\n    tag_524:\n        /* \"#utility.yul\":10353:10416   */\n      swap2\n      pop\n        /* \"#utility.yul\":10308:10426   */\n      pop\n        /* \"#utility.yul\":9814:10433   */\n      swap3\n      pop\n      swap3\n      pop\n      swap3\n      jump\t// out\n        /* \"#utility.yul\":10439:10595   */\n    tag_383:\n        /* \"#utility.yul\":10579:10587   */\n      0x216f776e65720000000000000000000000000000000000000000000000000000\n        /* \"#utility.yul\":10575:10576   */\n      0x00\n        /* \"#utility.yul\":10567:10573   */\n      dup3\n        /* \"#utility.yul\":10563:10577   */\n      add\n        /* \"#utility.yul\":10556:10588   */\n      mstore\n        /* \"#utility.yul\":10439:10595   */\n      pop\n      jump\t// out\n        /* \"#utility.yul\":10601:10966   */\n    tag_384:\n        /* \"#utility.yul\":10743:10746   */\n      0x00\n        /* \"#utility.yul\":10764:10830   */\n      tag_527\n        /* \"#utility.yul\":10828:10829   */\n      0x06\n        /* \"#utility.yul\":10823:10826   */\n      dup4\n        /* \"#utility.yul\":10764:10830   */\n      tag_378\n      jump\t// in\n    tag_527:\n        /* \"#utility.yul\":10757:10830   */\n      swap2\n      pop\n        /* \"#utility.yul\":10839:10932   */\n      tag_528\n        /* \"#utility.yul\":10928:10931   */\n      dup3\n        /* \"#utility.yul\":10839:10932   */\n      tag_383\n      jump\t// in\n    tag_528:\n        /* \"#utility.yul\":10957:10959   */\n      0x20\n        /* \"#utility.yul\":10952:10955   */\n      dup3\n        /* \"#utility.yul\":10948:10960   */\n      add\n        /* \"#utility.yul\":10941:10960   */\n      swap1\n      pop\n        /* \"#utility.yul\":10601:10966   */\n      swap2\n      swap1\n      pop\n      jump\t// out\n        /* \"#utility.yul\":10972:11391   */\n    tag_216:\n        /* \"#utility.yul\":11138:11142   */\n      0x00\n        /* \"#utility.yul\":11176:11178   */\n      0x20\n        /* \"#utility.yul\":11165:11174   */\n      dup3\n        /* \"#utility.yul\":11161:11179   */\n      add\n        /* \"#utility.yul\":11153:11179   */\n      swap1\n      pop\n        /* \"#utility.yul\":11225:11234   */\n      dup2\n        /* \"#utility.yul\":11219:11223   */\n      dup2\n        /* \"#utility.yul\":11215:11235   */\n      sub\n        /* \"#utility.yul\":11211:11212   */\n      0x00\n        /* \"#utility.yul\":11200:11209   */\n      dup4\n        /* \"#utility.yul\":11196:11213   */\n      add\n        /* \"#utility.yul\":11189:11236   */\n      mstore\n        /* \"#utility.yul\":11253:11384   */\n      tag_530\n        /* \"#utility.yul\":11379:11383   */\n      dup2\n        /* \"#utility.yul\":11253:11384   */\n      tag_384\n      jump\t// in\n    tag_530:\n        /* \"#utility.yul\":11245:11384   */\n      swap1\n      pop\n        /* \"#utility.yul\":10972:11391   */\n      swap2\n      swap1\n      pop\n      jump\t// out\n        /* \"#utility.yul\":11397:11540   */\n    tag_385:\n        /* \"#utility.yul\":11454:11459   */\n      0x00\n        /* \"#utility.yul\":11485:11491   */\n      dup2\n        /* \"#utility.yul\":11479:11492   */\n      mload\n        /* \"#utility.yul\":11470:11492   */\n      swap1\n      pop\n        /* \"#utility.yul\":11501:11534   */\n      tag_532\n        /* \"#utility.yul\":11528:11533   */\n      dup2\n        /* \"#utility.yul\":11501:11534   */\n      tag_355\n      jump\t// in\n    tag_532:\n        /* \"#utility.yul\":11397:11540   */\n      swap3\n      swap2\n      pop\n      pop\n      jump\t// out\n        /* \"#utility.yul\":11546:11897   */\n    tag_227:\n        /* \"#utility.yul\":11616:11622   */\n      0x00\n        /* \"#utility.yul\":11665:11667   */\n      0x20\n        /* \"#utility.yul\":11653:11662   */\n      dup3\n        /* \"#utility.yul\":11644:11651   */\n      dup5\n        /* \"#utility.yul\":11640:11663   */\n      sub\n        /* \"#utility.yul\":11636:11668   */\n      slt\n        /* \"#utility.yul\":11633:11752   */\n      iszero\n      tag_534\n      jumpi\n        /* \"#utility.yul\":11671:11750   */\n      tag_535\n      tag_352\n      jump\t// in\n    tag_535:\n        /* \"#utility.yul\":11633:11752   */\n    tag_534:\n        /* \"#utility.yul\":11791:11792   */\n      0x00\n        /* \"#utility.yul\":11816:11880   */\n      tag_536\n        /* \"#utility.yul\":11872:11879   */\n      dup5\n        /* \"#utility.yul\":11863:11869   */\n      dup3\n        /* \"#utility.yul\":11852:11861   */\n      dup6\n        /* \"#utility.yul\":11848:11870   */\n      add\n        /* \"#utility.yul\":11816:11880   */\n      tag_385\n      jump\t// in\n    tag_536:\n        /* \"#utility.yul\":11806:11880   */\n      swap2\n      pop\n        /* \"#utility.yul\":11762:11890   */\n      pop\n        /* \"#utility.yul\":11546:11897   */\n      swap3\n      swap2\n      pop\n      pop\n      jump\t// out\n        /* \"#utility.yul\":11903:12235   */\n    tag_256:\n        /* \"#utility.yul\":12024:12028   */\n      0x00\n        /* \"#utility.yul\":12062:12064   */\n      0x40\n        /* \"#utility.yul\":12051:12060   */\n      dup3\n        /* \"#utility.yul\":12047:12065   */\n      add\n        /* \"#utility.yul\":12039:12065   */\n      swap1\n      pop\n        /* \"#utility.yul\":12075:12146   */\n      tag_538\n        /* \"#utility.yul\":12143:12144   */\n      0x00\n        /* \"#utility.yul\":12132:12141   */\n      dup4\n        /* \"#utility.yul\":12128:12145   */\n      add\n        /* \"#utility.yul\":12119:12125   */\n      dup6\n        /* \"#utility.yul\":12075:12146   */\n      tag_364\n      jump\t// in\n    tag_538:\n        /* \"#utility.yul\":12156:12228   */\n      tag_539\n        /* \"#utility.yul\":12224:12226   */\n      0x20\n        /* \"#utility.yul\":12213:12222   */\n      dup4\n        /* \"#utility.yul\":12209:12227   */\n      add\n        /* \"#utility.yul\":12200:12206   */\n      dup5\n        /* \"#utility.yul\":12156:12228   */\n      tag_361\n      jump\t// in\n    tag_539:\n        /* \"#utility.yul\":11903:12235   */\n      swap4\n      swap3\n      pop\n      pop\n      pop\n      jump\t// out\n        /* \"#utility.yul\":12241:12378   */\n    tag_386:\n        /* \"#utility.yul\":12295:12300   */\n      0x00\n        /* \"#utility.yul\":12326:12332   */\n      dup2\n        /* \"#utility.yul\":12320:12333   */\n      mload\n        /* \"#utility.yul\":12311:12333   */\n      swap1\n      pop\n        /* \"#utility.yul\":12342:12372   */\n      tag_541\n        /* \"#utility.yul\":12366:12371   */\n      dup2\n        /* \"#utility.yul\":12342:12372   */\n      tag_381\n      jump\t// in\n    tag_541:\n        /* \"#utility.yul\":12241:12378   */\n      swap3\n      swap2\n      pop\n      pop\n      jump\t// out\n        /* \"#utility.yul\":12384:12729   */\n    tag_260:\n        /* \"#utility.yul\":12451:12457   */\n      0x00\n        /* \"#utility.yul\":12500:12502   */\n      0x20\n        /* \"#utility.yul\":12488:12497   */\n      dup3\n        /* \"#utility.yul\":12479:12486   */\n      dup5\n        /* \"#utility.yul\":12475:12498   */\n      sub\n        /* \"#utility.yul\":12471:12503   */\n      slt\n        /* \"#utility.yul\":12468:12587   */\n      iszero\n      tag_543\n      jumpi\n        /* \"#utility.yul\":12506:12585   */\n      tag_544\n      tag_352\n      jump\t// in\n    tag_544:\n        /* \"#utility.yul\":12468:12587   */\n    tag_543:\n        /* \"#utility.yul\":12626:12627   */\n      0x00\n        /* \"#utility.yul\":12651:12712   */\n      tag_545\n        /* \"#utility.yul\":12704:12711   */\n      dup5\n        /* \"#utility.yul\":12695:12701   */\n      dup3\n        /* \"#utility.yul\":12684:12693   */\n      dup6\n        /* \"#utility.yul\":12680:12702   */\n      add\n        /* \"#utility.yul\":12651:12712   */\n      tag_386\n      jump\t// in\n    tag_545:\n        /* \"#utility.yul\":12641:12712   */\n      swap2\n      pop\n        /* \"#utility.yul\":12597:12722   */\n      pop\n        /* \"#utility.yul\":12384:12729   */\n      swap3\n      swap2\n      pop\n      pop\n      jump\t// out\n        /* \"#utility.yul\":12735:12894   */\n    tag_387:\n        /* \"#utility.yul\":12875:12886   */\n      0x6e6f74207374616b650000000000000000000000000000000000000000000000\n        /* \"#utility.yul\":12871:12872   */\n      0x00\n        /* \"#utility.yul\":12863:12869   */\n      dup3\n        /* \"#utility.yul\":12859:12873   */\n      add\n        /* \"#utility.yul\":12852:12887   */\n      mstore\n        /* \"#utility.yul\":12735:12894   */\n      pop\n      jump\t// out\n        /* \"#utility.yul\":12900:13265   */\n    tag_388:\n        /* \"#utility.yul\":13042:13045   */\n      0x00\n        /* \"#utility.yul\":13063:13129   */\n      tag_548\n        /* \"#utility.yul\":13127:13128   */\n      0x09\n        /* \"#utility.yul\":13122:13125   */\n      dup4\n        /* \"#utility.yul\":13063:13129   */\n      tag_378\n      jump\t// in\n    tag_548:\n        /* \"#utility.yul\":13056:13129   */\n      swap2\n      pop\n        /* \"#utility.yul\":13138:13231   */\n      tag_549\n        /* \"#utility.yul\":13227:13230   */\n      dup3\n        /* \"#utility.yul\":13138:13231   */\n      tag_387\n      jump\t// in\n    tag_549:\n        /* \"#utility.yul\":13256:13258   */\n      0x20\n        /* \"#utility.yul\":13251:13254   */\n      dup3\n        /* \"#utility.yul\":13247:13259   */\n      add\n        /* \"#utility.yul\":13240:13259   */\n      swap1\n      pop\n        /* \"#utility.yul\":12900:13265   */\n      swap2\n      swap1\n      pop\n      jump\t// out\n        /* \"#utility.yul\":13271:13690   */\n    tag_284:\n        /* \"#utility.yul\":13437:13441   */\n      0x00\n        /* \"#utility.yul\":13475:13477   */\n      0x20\n        /* \"#utility.yul\":13464:13473   */\n      dup3\n        /* \"#utility.yul\":13460:13478   */\n      add\n        /* \"#utility.yul\":13452:13478   */\n      swap1\n      pop\n        /* \"#utility.yul\":13524:13533   */\n      dup2\n        /* \"#utility.yul\":13518:13522   */\n      dup2\n        /* \"#utility.yul\":13514:13534   */\n      sub\n        /* \"#utility.yul\":13510:13511   */\n      0x00\n        /* \"#utility.yul\":13499:13508   */\n      dup4\n        /* \"#utility.yul\":13495:13512   */\n      add\n        /* \"#utility.yul\":13488:13535   */\n      mstore\n        /* \"#utility.yul\":13552:13683   */\n      tag_551\n        /* \"#utility.yul\":13678:13682   */\n      dup2\n        /* \"#utility.yul\":13552:13683   */\n      tag_388\n      jump\t// in\n    tag_551:\n        /* \"#utility.yul\":13544:13683   */\n      swap1\n      pop\n        /* \"#utility.yul\":13271:13690   */\n      swap2\n      swap1\n      pop\n      jump\t// out\n        /* \"#utility.yul\":13696:13876   */\n    tag_389:\n        /* \"#utility.yul\":13744:13821   */\n      0x4e487b7100000000000000000000000000000000000000000000000000000000\n        /* \"#utility.yul\":13741:13742   */\n      0x00\n        /* \"#utility.yul\":13734:13822   */\n      mstore\n        /* \"#utility.yul\":13841:13845   */\n      0x22\n        /* \"#utility.yul\":13838:13839   */\n      0x04\n        /* \"#utility.yul\":13831:13846   */\n      mstore\n        /* \"#utility.yul\":13865:13869   */\n      0x24\n        /* \"#utility.yul\":13862:13863   */\n      0x00\n        /* \"#utility.yul\":13855:13870   */\n      revert\n        /* \"#utility.yul\":13882:14202   */\n    tag_290:\n        /* \"#utility.yul\":13926:13932   */\n      0x00\n        /* \"#utility.yul\":13963:13964   */\n      0x02\n        /* \"#utility.yul\":13957:13961   */\n      dup3\n        /* \"#utility.yul\":13953:13965   */\n      div\n        /* \"#utility.yul\":13943:13965   */\n      swap1\n      pop\n        /* \"#utility.yul\":14010:14011   */\n      0x01\n        /* \"#utility.yul\":14004:14008   */\n      dup3\n        /* \"#utility.yul\":14000:14012   */\n      and\n        /* \"#utility.yul\":14031:14049   */\n      dup1\n        /* \"#utility.yul\":14021:14102   */\n      tag_554\n      jumpi\n        /* \"#utility.yul\":14087:14091   */\n      0x7f\n        /* \"#utility.yul\":14079:14085   */\n      dup3\n        /* \"#utility.yul\":14075:14092   */\n      and\n        /* \"#utility.yul\":14065:14092   */\n      swap2\n      pop\n        /* \"#utility.yul\":14021:14102   */\n    tag_554:\n        /* \"#utility.yul\":14149:14151   */\n      0x20\n        /* \"#utility.yul\":14141:14147   */\n      dup3\n        /* \"#utility.yul\":14138:14152   */\n      lt\n        /* \"#utility.yul\":14118:14136   */\n      dup2\n        /* \"#utility.yul\":14115:14153   */\n      sub\n        /* \"#utility.yul\":14112:14196   */\n      tag_555\n      jumpi\n        /* \"#utility.yul\":14168:14186   */\n      tag_556\n      tag_389\n      jump\t// in\n    tag_556:\n        /* \"#utility.yul\":14112:14196   */\n    tag_555:\n        /* \"#utility.yul\":13933:14202   */\n      pop\n        /* \"#utility.yul\":13882:14202   */\n      swap2\n      swap1\n      pop\n      jump\t// out\n        /* \"#utility.yul\":14208:14366   */\n    tag_390:\n        /* \"#utility.yul\":14348:14358   */\n      0x6e65772069732030000000000000000000000000000000000000000000000000\n        /* \"#utility.yul\":14344:14345   */\n      0x00\n        /* \"#utility.yul\":14336:14342   */\n      dup3\n        /* \"#utility.yul\":14332:14346   */\n      add\n        /* \"#utility.yul\":14325:14359   */\n      mstore\n        /* \"#utility.yul\":14208:14366   */\n      pop\n      jump\t// out\n        /* \"#utility.yul\":14372:14737   */\n    tag_391:\n        /* \"#utility.yul\":14514:14517   */\n      0x00\n        /* \"#utility.yul\":14535:14601   */\n      tag_559\n        /* \"#utility.yul\":14599:14600   */\n      0x08\n        /* \"#utility.yul\":14594:14597   */\n      dup4\n        /* \"#utility.yul\":14535:14601   */\n      tag_378\n      jump\t// in\n    tag_559:\n        /* \"#utility.yul\":14528:14601   */\n      swap2\n      pop\n        /* \"#utility.yul\":14610:14703   */\n      tag_560\n        /* \"#utility.yul\":14699:14702   */\n      dup3\n        /* \"#utility.yul\":14610:14703   */\n      tag_390\n      jump\t// in\n    tag_560:\n        /* \"#utility.yul\":14728:14730   */\n      0x20\n        /* \"#utility.yul\":14723:14726   */\n      dup3\n        /* \"#utility.yul\":14719:14731   */\n      add\n        /* \"#utility.yul\":14712:14731   */\n      swap1\n      pop\n        /* \"#utility.yul\":14372:14737   */\n      swap2\n      swap1\n      pop\n      jump\t// out\n        /* \"#utility.yul\":14743:15162   */\n    tag_312:\n        /* \"#utility.yul\":14909:14913   */\n      0x00\n        /* \"#utility.yul\":14947:14949   */\n      0x20\n        /* \"#utility.yul\":14936:14945   */\n      dup3\n        /* \"#utility.yul\":14932:14950   */\n      add\n        /* \"#utility.yul\":14924:14950   */\n      swap1\n      pop\n        /* \"#utility.yul\":14996:15005   */\n      dup2\n        /* \"#utility.yul\":14990:14994   */\n      dup2\n        /* \"#utility.yul\":14986:15006   */\n      sub\n        /* \"#utility.yul\":14982:14983   */\n      0x00\n        /* \"#utility.yul\":14971:14980   */\n      dup4\n        /* \"#utility.yul\":14967:14984   */\n      add\n        /* \"#utility.yul\":14960:15007   */\n      mstore\n        /* \"#utility.yul\":15024:15155   */\n      tag_562\n        /* \"#utility.yul\":15150:15154   */\n      dup2\n        /* \"#utility.yul\":15024:15155   */\n      tag_391\n      jump\t// in\n    tag_562:\n        /* \"#utility.yul\":15016:15155   */\n      swap1\n      pop\n        /* \"#utility.yul\":14743:15162   */\n      swap2\n      swap1\n      pop\n      jump\t// out\n        /* \"#utility.yul\":15168:15327   */\n    tag_392:\n        /* \"#utility.yul\":15308:15319   */\n      0x6e6f742073746172740000000000000000000000000000000000000000000000\n        /* \"#utility.yul\":15304:15305   */\n      0x00\n        /* \"#utility.yul\":15296:15302   */\n      dup3\n        /* \"#utility.yul\":15292:15306   */\n      add\n        /* \"#utility.yul\":15285:15320   */\n      mstore\n        /* \"#utility.yul\":15168:15327   */\n      pop\n      jump\t// out\n        /* \"#utility.yul\":15333:15698   */\n    tag_393:\n        /* \"#utility.yul\":15475:15478   */\n      0x00\n        /* \"#utility.yul\":15496:15562   */\n      tag_565\n        /* \"#utility.yul\":15560:15561   */\n      0x09\n        /* \"#utility.yul\":15555:15558   */\n      dup4\n        /* \"#utility.yul\":15496:15562   */\n      tag_378\n      jump\t// in\n    tag_565:\n        /* \"#utility.yul\":15489:15562   */\n      swap2\n      pop\n        /* \"#utility.yul\":15571:15664   */\n      tag_566\n        /* \"#utility.yul\":15660:15663   */\n      dup3\n        /* \"#utility.yul\":15571:15664   */\n      tag_392\n      jump\t// in\n    tag_566:\n        /* \"#utility.yul\":15689:15691   */\n      0x20\n        /* \"#utility.yul\":15684:15687   */\n      dup3\n        /* \"#utility.yul\":15680:15692   */\n      add\n        /* \"#utility.yul\":15673:15692   */\n      swap1\n      pop\n        /* \"#utility.yul\":15333:15698   */\n      swap2\n      swap1\n      pop\n      jump\t// out\n        /* \"#utility.yul\":15704:16123   */\n    tag_316:\n        /* \"#utility.yul\":15870:15874   */\n      0x00\n        /* \"#utility.yul\":15908:15910   */\n      0x20\n        /* \"#utility.yul\":15897:15906   */\n      dup3\n        /* \"#utility.yul\":15893:15911   */\n      add\n        /* \"#utility.yul\":15885:15911   */\n      swap1\n      pop\n        /* \"#utility.yul\":15957:15966   */\n      dup2\n        /* \"#utility.yul\":15951:15955   */\n      dup2\n        /* \"#utility.yul\":15947:15967   */\n      sub\n        /* \"#utility.yul\":15943:15944   */\n      0x00\n        /* \"#utility.yul\":15932:15941   */\n      dup4\n        /* \"#utility.yul\":15928:15945   */\n      add\n        /* \"#utility.yul\":15921:15968   */\n      mstore\n        /* \"#utility.yul\":15985:16116   */\n      tag_568\n        /* \"#utility.yul\":16111:16115   */\n      dup2\n        /* \"#utility.yul\":15985:16116   */\n      tag_393\n      jump\t// in\n    tag_568:\n        /* \"#utility.yul\":15977:16116   */\n      swap1\n      pop\n        /* \"#utility.yul\":15704:16123   */\n      swap2\n      swap1\n      pop\n      jump\t// out\n        /* \"#utility.yul\":16129:16293   */\n    tag_394:\n        /* \"#utility.yul\":16269:16285   */\n      0x616c7265616479207374616b6559000000000000000000000000000000000000\n        /* \"#utility.yul\":16265:16266   */\n      0x00\n        /* \"#utility.yul\":16257:16263   */\n      dup3\n        /* \"#utility.yul\":16253:16267   */\n      add\n        /* \"#utility.yul\":16246:16286   */\n      mstore\n        /* \"#utility.yul\":16129:16293   */\n      pop\n      jump\t// out\n        /* \"#utility.yul\":16299:16665   */\n    tag_395:\n        /* \"#utility.yul\":16441:16444   */\n      0x00\n        /* \"#utility.yul\":16462:16529   */\n      tag_571\n        /* \"#utility.yul\":16526:16528   */\n      0x0e\n        /* \"#utility.yul\":16521:16524   */\n      dup4\n        /* \"#utility.yul\":16462:16529   */\n      tag_378\n      jump\t// in\n    tag_571:\n        /* \"#utility.yul\":16455:16529   */\n      swap2\n      pop\n        /* \"#utility.yul\":16538:16631   */\n      tag_572\n        /* \"#utility.yul\":16627:16630   */\n      dup3\n        /* \"#utility.yul\":16538:16631   */\n      tag_394\n      jump\t// in\n    tag_572:\n        /* \"#utility.yul\":16656:16658   */\n      0x20\n        /* \"#utility.yul\":16651:16654   */\n      dup3\n        /* \"#utility.yul\":16647:16659   */\n      add\n        /* \"#utility.yul\":16640:16659   */\n      swap1\n      pop\n        /* \"#utility.yul\":16299:16665   */\n      swap2\n      swap1\n      pop\n      jump\t// out\n        /* \"#utility.yul\":16671:17090   */\n    tag_319:\n        /* \"#utility.yul\":16837:16841   */\n      0x00\n        /* \"#utility.yul\":16875:16877   */\n      0x20\n        /* \"#utility.yul\":16864:16873   */\n      dup3\n        /* \"#utility.yul\":16860:16878   */\n      add\n        /* \"#utility.yul\":16852:16878   */\n      swap1\n      pop\n        /* \"#utility.yul\":16924:16933   */\n      dup2\n        /* \"#utility.yul\":16918:16922   */\n      dup2\n        /* \"#utility.yul\":16914:16934   */\n      sub\n        /* \"#utility.yul\":16910:16911   */\n      0x00\n        /* \"#utility.yul\":16899:16908   */\n      dup4\n        /* \"#utility.yul\":16895:16912   */\n      add\n        /* \"#utility.yul\":16888:16935   */\n      mstore\n        /* \"#utility.yul\":16952:17083   */\n      tag_574\n        /* \"#utility.yul\":17078:17082   */\n      dup2\n        /* \"#utility.yul\":16952:17083   */\n      tag_395\n      jump\t// in\n    tag_574:\n        /* \"#utility.yul\":16944:17083   */\n      swap1\n      pop\n        /* \"#utility.yul\":16671:17090   */\n      swap2\n      swap1\n      pop\n      jump\t// out\n        /* \"#utility.yul\":17096:17260   */\n    tag_396:\n        /* \"#utility.yul\":17236:17252   */\n      0x616c7265616479207374616b6542000000000000000000000000000000000000\n        /* \"#utility.yul\":17232:17233   */\n      0x00\n        /* \"#utility.yul\":17224:17230   */\n      dup3\n        /* \"#utility.yul\":17220:17234   */\n      add\n        /* \"#utility.yul\":17213:17253   */\n      mstore\n        /* \"#utility.yul\":17096:17260   */\n      pop\n      jump\t// out\n        /* \"#utility.yul\":17266:17632   */\n    tag_397:\n        /* \"#utility.yul\":17408:17411   */\n      0x00\n        /* \"#utility.yul\":17429:17496   */\n      tag_577\n        /* \"#utility.yul\":17493:17495   */\n      0x0e\n        /* \"#utility.yul\":17488:17491   */\n      dup4\n        /* \"#utility.yul\":17429:17496   */\n      tag_378\n      jump\t// in\n    tag_577:\n        /* \"#utility.yul\":17422:17496   */\n      swap2\n      pop\n        /* \"#utility.yul\":17505:17598   */\n      tag_578\n        /* \"#utility.yul\":17594:17597   */\n      dup3\n        /* \"#utility.yul\":17505:17598   */\n      tag_396\n      jump\t// in\n    tag_578:\n        /* \"#utility.yul\":17623:17625   */\n      0x20\n        /* \"#utility.yul\":17618:17621   */\n      dup3\n        /* \"#utility.yul\":17614:17626   */\n      add\n        /* \"#utility.yul\":17607:17626   */\n      swap1\n      pop\n        /* \"#utility.yul\":17266:17632   */\n      swap2\n      swap1\n      pop\n      jump\t// out\n        /* \"#utility.yul\":17638:18057   */\n    tag_322:\n        /* \"#utility.yul\":17804:17808   */\n      0x00\n        /* \"#utility.yul\":17842:17844   */\n      0x20\n        /* \"#utility.yul\":17831:17840   */\n      dup3\n        /* \"#utility.yul\":17827:17845   */\n      add\n        /* \"#utility.yul\":17819:17845   */\n      swap1\n      pop\n        /* \"#utility.yul\":17891:17900   */\n      dup2\n        /* \"#utility.yul\":17885:17889   */\n      dup2\n        /* \"#utility.yul\":17881:17901   */\n      sub\n        /* \"#utility.yul\":17877:17878   */\n      0x00\n        /* \"#utility.yul\":17866:17875   */\n      dup4\n        /* \"#utility.yul\":17862:17879   */\n      add\n        /* \"#utility.yul\":17855:17902   */\n      mstore\n        /* \"#utility.yul\":17919:18050   */\n      tag_580\n        /* \"#utility.yul\":18045:18049   */\n      dup2\n        /* \"#utility.yul\":17919:18050   */\n      tag_397\n      jump\t// in\n    tag_580:\n        /* \"#utility.yul\":17911:18050   */\n      swap1\n      pop\n        /* \"#utility.yul\":17638:18057   */\n      swap2\n      swap1\n      pop\n      jump\t// out\n        /* \"#utility.yul\":18063:18225   */\n    tag_398:\n        /* \"#utility.yul\":18203:18217   */\n      0x7a65726f2059616d6f756e740000000000000000000000000000000000000000\n        /* \"#utility.yul\":18199:18200   */\n      0x00\n        /* \"#utility.yul\":18191:18197   */\n      dup3\n        /* \"#utility.yul\":18187:18201   */\n      add\n        /* \"#utility.yul\":18180:18218   */\n      mstore\n        /* \"#utility.yul\":18063:18225   */\n      pop\n      jump\t// out\n        /* \"#utility.yul\":18231:18597   */\n    tag_399:\n        /* \"#utility.yul\":18373:18376   */\n      0x00\n        /* \"#utility.yul\":18394:18461   */\n      tag_583\n        /* \"#utility.yul\":18458:18460   */\n      0x0c\n        /* \"#utility.yul\":18453:18456   */\n      dup4\n        /* \"#utility.yul\":18394:18461   */\n      tag_378\n      jump\t// in\n    tag_583:\n        /* \"#utility.yul\":18387:18461   */\n      swap2\n      pop\n        /* \"#utility.yul\":18470:18563   */\n      tag_584\n        /* \"#utility.yul\":18559:18562   */\n      dup3\n        /* \"#utility.yul\":18470:18563   */\n      tag_398\n      jump\t// in\n    tag_584:\n        /* \"#utility.yul\":18588:18590   */\n      0x20\n        /* \"#utility.yul\":18583:18586   */\n      dup3\n        /* \"#utility.yul\":18579:18591   */\n      add\n        /* \"#utility.yul\":18572:18591   */\n      swap1\n      pop\n        /* \"#utility.yul\":18231:18597   */\n      swap2\n      swap1\n      pop\n      jump\t// out\n        /* \"#utility.yul\":18603:19022   */\n    tag_325:\n        /* \"#utility.yul\":18769:18773   */\n      0x00\n        /* \"#utility.yul\":18807:18809   */\n      0x20\n        /* \"#utility.yul\":18796:18805   */\n      dup3\n        /* \"#utility.yul\":18792:18810   */\n      add\n        /* \"#utility.yul\":18784:18810   */\n      swap1\n      pop\n        /* \"#utility.yul\":18856:18865   */\n      dup2\n        /* \"#utility.yul\":18850:18854   */\n      dup2\n        /* \"#utility.yul\":18846:18866   */\n      sub\n        /* \"#utility.yul\":18842:18843   */\n      0x00\n        /* \"#utility.yul\":18831:18840   */\n      dup4\n        /* \"#utility.yul\":18827:18844   */\n      add\n        /* \"#utility.yul\":18820:18867   */\n      mstore\n        /* \"#utility.yul\":18884:19015   */\n      tag_586\n        /* \"#utility.yul\":19010:19014   */\n      dup2\n        /* \"#utility.yul\":18884:19015   */\n      tag_399\n      jump\t// in\n    tag_586:\n        /* \"#utility.yul\":18876:19015   */\n      swap1\n      pop\n        /* \"#utility.yul\":18603:19022   */\n      swap2\n      swap1\n      pop\n      jump\t// out\n        /* \"#utility.yul\":19028:19190   */\n    tag_400:\n        /* \"#utility.yul\":19168:19182   */\n      0x7a65726f2042616d6f756e740000000000000000000000000000000000000000\n        /* \"#utility.yul\":19164:19165   */\n      0x00\n        /* \"#utility.yul\":19156:19162   */\n      dup3\n        /* \"#utility.yul\":19152:19166   */\n      add\n        /* \"#utility.yul\":19145:19183   */\n      mstore\n        /* \"#utility.yul\":19028:19190   */\n      pop\n      jump\t// out\n        /* \"#utility.yul\":19196:19562   */\n    tag_401:\n        /* \"#utility.yul\":19338:19341   */\n      0x00\n        /* \"#utility.yul\":19359:19426   */\n      tag_589\n        /* \"#utility.yul\":19423:19425   */\n      0x0c\n        /* \"#utility.yul\":19418:19421   */\n      dup4\n        /* \"#utility.yul\":19359:19426   */\n      tag_378\n      jump\t// in\n    tag_589:\n        /* \"#utility.yul\":19352:19426   */\n      swap2\n      pop\n        /* \"#utility.yul\":19435:19528   */\n      tag_590\n        /* \"#utility.yul\":19524:19527   */\n      dup3\n        /* \"#utility.yul\":19435:19528   */\n      tag_400\n      jump\t// in\n    tag_590:\n        /* \"#utility.yul\":19553:19555   */\n      0x20\n        /* \"#utility.yul\":19548:19551   */\n      dup3\n        /* \"#utility.yul\":19544:19556   */\n      add\n        /* \"#utility.yul\":19537:19556   */\n      swap1\n      pop\n        /* \"#utility.yul\":19196:19562   */\n      swap2\n      swap1\n      pop\n      jump\t// out\n        /* \"#utility.yul\":19568:19987   */\n    tag_328:\n        /* \"#utility.yul\":19734:19738   */\n      0x00\n        /* \"#utility.yul\":19772:19774   */\n      0x20\n        /* \"#utility.yul\":19761:19770   */\n      dup3\n        /* \"#utility.yul\":19757:19775   */\n      add\n        /* \"#utility.yul\":19749:19775   */\n      swap1\n      pop\n        /* \"#utility.yul\":19821:19830   */\n      dup2\n        /* \"#utility.yul\":19815:19819   */\n      dup2\n        /* \"#utility.yul\":19811:19831   */\n      sub\n        /* \"#utility.yul\":19807:19808   */\n      0x00\n        /* \"#utility.yul\":19796:19805   */\n      dup4\n        /* \"#utility.yul\":19792:19809   */\n      add\n        /* \"#utility.yul\":19785:19832   */\n      mstore\n        /* \"#utility.yul\":19849:19980   */\n      tag_592\n        /* \"#utility.yul\":19975:19979   */\n      dup2\n        /* \"#utility.yul\":19849:19980   */\n      tag_401\n      jump\t// in\n    tag_592:\n        /* \"#utility.yul\":19841:19980   */\n      swap1\n      pop\n        /* \"#utility.yul\":19568:19987   */\n      swap2\n      swap1\n      pop\n      jump\t// out\n        /* \"#utility.yul\":19993:20157   */\n    tag_402:\n        /* \"#utility.yul\":20133:20149   */\n      0x6e6f742072696768742074696d65000000000000000000000000000000000000\n        /* \"#utility.yul\":20129:20130   */\n      0x00\n        /* \"#utility.yul\":20121:20127   */\n      dup3\n        /* \"#utility.yul\":20117:20131   */\n      add\n        /* \"#utility.yul\":20110:20150   */\n      mstore\n        /* \"#utility.yul\":19993:20157   */\n      pop\n      jump\t// out\n        /* \"#utility.yul\":20163:20529   */\n    tag_403:\n        /* \"#utility.yul\":20305:20308   */\n      0x00\n        /* \"#utility.yul\":20326:20393   */\n      tag_595\n        /* \"#utility.yul\":20390:20392   */\n      0x0e\n        /* \"#utility.yul\":20385:20388   */\n      dup4\n        /* \"#utility.yul\":20326:20393   */\n      tag_378\n      jump\t// in\n    tag_595:\n        /* \"#utility.yul\":20319:20393   */\n      swap2\n      pop\n        /* \"#utility.yul\":20402:20495   */\n      tag_596\n        /* \"#utility.yul\":20491:20494   */\n      dup3\n        /* \"#utility.yul\":20402:20495   */\n      tag_402\n      jump\t// in\n    tag_596:\n        /* \"#utility.yul\":20520:20522   */\n      0x20\n        /* \"#utility.yul\":20515:20518   */\n      dup3\n        /* \"#utility.yul\":20511:20523   */\n      add\n        /* \"#utility.yul\":20504:20523   */\n      swap1\n      pop\n        /* \"#utility.yul\":20163:20529   */\n      swap2\n      swap1\n      pop\n      jump\t// out\n        /* \"#utility.yul\":20535:20954   */\n    tag_331:\n        /* \"#utility.yul\":20701:20705   */\n      0x00\n        /* \"#utility.yul\":20739:20741   */\n      0x20\n        /* \"#utility.yul\":20728:20737   */\n      dup3\n        /* \"#utility.yul\":20724:20742   */\n      add\n        /* \"#utility.yul\":20716:20742   */\n      swap1\n      pop\n        /* \"#utility.yul\":20788:20797   */\n      dup2\n        /* \"#utility.yul\":20782:20786   */\n      dup2\n        /* \"#utility.yul\":20778:20798   */\n      sub\n        /* \"#utility.yul\":20774:20775   */\n      0x00\n        /* \"#utility.yul\":20763:20772   */\n      dup4\n        /* \"#utility.yul\":20759:20776   */\n      add\n        /* \"#utility.yul\":20752:20799   */\n      mstore\n        /* \"#utility.yul\":20816:20947   */\n      tag_598\n        /* \"#utility.yul\":20942:20946   */\n      dup2\n        /* \"#utility.yul\":20816:20947   */\n      tag_403\n      jump\t// in\n    tag_598:\n        /* \"#utility.yul\":20808:20947   */\n      swap1\n      pop\n        /* \"#utility.yul\":20535:20954   */\n      swap2\n      swap1\n      pop\n      jump\t// out\n        /* \"#utility.yul\":20960:21402   */\n    tag_333:\n        /* \"#utility.yul\":21109:21113   */\n      0x00\n        /* \"#utility.yul\":21147:21149   */\n      0x60\n        /* \"#utility.yul\":21136:21145   */\n      dup3\n        /* \"#utility.yul\":21132:21150   */\n      add\n        /* \"#utility.yul\":21124:21150   */\n      swap1\n      pop\n        /* \"#utility.yul\":21160:21231   */\n      tag_600\n        /* \"#utility.yul\":21228:21229   */\n      0x00\n        /* \"#utility.yul\":21217:21226   */\n      dup4\n        /* \"#utility.yul\":21213:21230   */\n      add\n        /* \"#utility.yul\":21204:21210   */\n      dup7\n        /* \"#utility.yul\":21160:21231   */\n      tag_364\n      jump\t// in\n    tag_600:\n        /* \"#utility.yul\":21241:21313   */\n      tag_601\n        /* \"#utility.yul\":21309:21311   */\n      0x20\n        /* \"#utility.yul\":21298:21307   */\n      dup4\n        /* \"#utility.yul\":21294:21312   */\n      add\n        /* \"#utility.yul\":21285:21291   */\n      dup6\n        /* \"#utility.yul\":21241:21313   */\n      tag_364\n      jump\t// in\n    tag_601:\n        /* \"#utility.yul\":21323:21395   */\n      tag_602\n        /* \"#utility.yul\":21391:21393   */\n      0x40\n        /* \"#utility.yul\":21380:21389   */\n      dup4\n        /* \"#utility.yul\":21376:21394   */\n      add\n        /* \"#utility.yul\":21367:21373   */\n      dup5\n        /* \"#utility.yul\":21323:21395   */\n      tag_361\n      jump\t// in\n    tag_602:\n        /* \"#utility.yul\":20960:21402   */\n      swap5\n      swap4\n      pop\n      pop\n      pop\n      pop\n      jump\t// out\n        /* \"#utility.yul\":21408:21588   */\n    tag_404:\n        /* \"#utility.yul\":21456:21533   */\n      0x4e487b7100000000000000000000000000000000000000000000000000000000\n        /* \"#utility.yul\":21453:21454   */\n      0x00\n        /* \"#utility.yul\":21446:21534   */\n      mstore\n        /* \"#utility.yul\":21553:21557   */\n      0x11\n        /* \"#utility.yul\":21550:21551   */\n      0x04\n        /* \"#utility.yul\":21543:21558   */\n      mstore\n        /* \"#utility.yul\":21577:21581   */\n      0x24\n        /* \"#utility.yul\":21574:21575   */\n      0x00\n        /* \"#utility.yul\":21567:21582   */\n      revert\n        /* \"#utility.yul\":21594:21785   */\n    tag_350:\n        /* \"#utility.yul\":21634:21637   */\n      0x00\n        /* \"#utility.yul\":21653:21673   */\n      tag_605\n        /* \"#utility.yul\":21671:21672   */\n      dup3\n        /* \"#utility.yul\":21653:21673   */\n      tag_354\n      jump\t// in\n    tag_605:\n        /* \"#utility.yul\":21648:21673   */\n      swap2\n      pop\n        /* \"#utility.yul\":21687:21707   */\n      tag_606\n        /* \"#utility.yul\":21705:21706   */\n      dup4\n        /* \"#utility.yul\":21687:21707   */\n      tag_354\n      jump\t// in\n    tag_606:\n        /* \"#utility.yul\":21682:21707   */\n      swap3\n      pop\n        /* \"#utility.yul\":21730:21731   */\n      dup3\n        /* \"#utility.yul\":21727:21728   */\n      dup3\n        /* \"#utility.yul\":21723:21732   */\n      add\n        /* \"#utility.yul\":21716:21732   */\n      swap1\n      pop\n        /* \"#utility.yul\":21751:21754   */\n      dup1\n        /* \"#utility.yul\":21748:21749   */\n      dup3\n        /* \"#utility.yul\":21745:21755   */\n      gt\n        /* \"#utility.yul\":21742:21778   */\n      iszero\n      tag_607\n      jumpi\n        /* \"#utility.yul\":21758:21776   */\n      tag_608\n      tag_404\n      jump\t// in\n    tag_608:\n        /* \"#utility.yul\":21742:21778   */\n    tag_607:\n        /* \"#utility.yul\":21594:21785   */\n      swap3\n      swap2\n      pop\n      pop\n      jump\t// out\n\n    auxdata: 0xa2646970667358221220fc5d5b4aa9384fc88138037fc5b37789876aaec3e72bd9f6778467bae70dc89c64736f6c63430008130033\n}\n",
				"bytecode": {
					"linkReferences": {},
					"object": "608060405273f1f8e132f0a3f720b3b204d728a8ff316b182258600160006101000a81548173ffffffffffffffffffffffffffffffffffffffff021916908373ffffffffffffffffffffffffffffffffffffffff160217905550736b6b2d8166d13b58155b8d454f239ae3691257a6600260006101000a81548173ffffffffffffffffffffffffffffffffffffffff021916908373ffffffffffffffffffffffffffffffffffffffff16021790555073b1bf470a9720f8d2e49512dbbccf7180e4ac4679600360006101000a81548173ffffffffffffffffffffffffffffffffffffffff021916908373ffffffffffffffffffffffffffffffffffffffff1602179055507355d398326f99059ff775485246999027b3197955600460006101000a81548173ffffffffffffffffffffffffffffffffffffffff021916908373ffffffffffffffffffffffffffffffffffffffff16021790555073d114d4436f714de79f0cb7eb3db28d873e60602e600560006101000a81548173ffffffffffffffffffffffffffffffffffffffff021916908373ffffffffffffffffffffffffffffffffffffffff16021790555073641dc64bfbcdc419bcc7afb0ce02d244155e1ac6600660006101000a81548173ffffffffffffffffffffffffffffffffffffffff021916908373ffffffffffffffffffffffffffffffffffffffff16021790555062278d006007556276a70060085562c5c1006009556103e8600a556001600e60006101000a81548160ff0219169083151502179055506001600e60016101000a81548160ff02191690831515021790555034801561025f57600080fd5b506000339050806000806101000a81548173ffffffffffffffffffffffffffffffffffffffff021916908373ffffffffffffffffffffffffffffffffffffffff1602179055508073ffffffffffffffffffffffffffffffffffffffff16600073ffffffffffffffffffffffffffffffffffffffff167f8be0079c531659141344cd1fd0a4f28419497f9722a3daafe3b4186f6b6457e060405160405180910390a3506133ed806103106000396000f3fe608060405234801561001057600080fd5b50600436106102735760003560e01c80637a1a959b11610151578063a6f9a1d5116100c3578063e53595ed11610087578063e53595ed146107d0578063e61ee218146107ee578063e650d2931461080a578063f2fde38b14610828578063f3ef99bc14610844578063f7a278bc1461086257610273565b8063a6f9a1d514610706578063b3c2eac114610736578063b59c6e0e14610752578063bef4533c14610770578063dd8158e0146107a057610273565b80638da5cb5b116101155780638da5cb5b1461061e57806391f6963c1461063c5780639442c295146106585780639805fa7414610688578063a041e172146106b8578063a6b14d5a146106e857610273565b80637a1a959b146105665780637d4cbd5714610584578063838bcfeb146105a0578063853e03e5146105d05780638ace0d0c146105ee57610273565b80632eae667d116101ea57806369f65dc2116101ae57806369f65dc2146104a65780636b8de0bf146104c25780636d37b382146104e057806371ddda57146104fc5780637535b3e51461051a5780637929e29f1461053657610273565b80632eae667d146104145780633375d043146104325780633ccfd60b14610450578063460199b31461045a5780635cc6f73f1461047657610273565b806316c259e11161023c57806316c259e11461032e578063188838771461035e5780631896b2c41461037c5780631f54dbfe146103ac578063264edc1d146103c857806328c4333e146103f857610273565b80626cd200146102785780630356c98f146102945780630397d458146102c45780630c280444146102e0578063115a972e146102fe575b600080fd5b610292600480360381019061028d91906128fa565b61087e565b005b6102ae60048036038101906102a99190612985565b61096c565b6040516102bb91906129c1565b60405180910390f35b6102de60048036038101906102d99190612985565b610984565b005b6102e8610aac565b6040516102f591906129c1565b60405180910390f35b61031860048036038101906103139190612985565b610b49565b60405161032591906129f7565b60405180910390f35b61034860048036038101906103439190612985565b610b69565b60405161035591906129c1565b60405180910390f35b610366610b81565b60405161037391906129c1565b60405180910390f35b61039660048036038101906103919190612985565b610b87565b6040516103a391906129c1565b60405180910390f35b6103c660048036038101906103c19190612985565b610b9f565b005b6103e260048036038101906103dd9190612985565b610cc7565b6040516103ef9190612a21565b60405180910390f35b610412600480360381019061040d9190612985565b610cfa565b005b61041c610e22565b60405161042991906129c1565b60405180910390f35b61043a610e28565b6040516104479190612a21565b60405180910390f35b610458610e4e565b005b610474600480360381019061046f9190612985565b610f7b565b005b610490600480360381019061048b9190612b82565b6110a3565b60405161049d91906129c1565b60405180910390f35b6104c060048036038101906104bb9190612bcb565b6110d1565b005b6104ca611238565b6040516104d79190612a21565b60405180910390f35b6104fa60048036038101906104f59190612985565b61125e565b005b610504611386565b6040516105119190612a21565b60405180910390f35b610534600480360381019061052f9190612985565b6113ac565b005b610550600480360381019061054b9190612985565b6114d4565b60405161055d91906129c1565b60405180910390f35b61056e6114ec565b60405161057b9190612a21565b60405180910390f35b61059e60048036038101906105999190612985565b611512565b005b6105ba60048036038101906105b59190612b82565b61169d565b6040516105c79190612c27565b60405180910390f35b6105d86116d3565b6040516105e591906129c1565b60405180910390f35b61060860048036038101906106039190612985565b6116d9565b60405161061591906129c1565b60405180910390f35b6106266116f1565b6040516106339190612a21565b60405180910390f35b610656600480360381019061065191906128fa565b61171a565b005b610672600480360381019061066d9190612b82565b611a7d565b60405161067f9190612cc1565b60405180910390f35b6106a2600480360381019061069d9190612985565b611b33565b6040516106af91906129c1565b60405180910390f35b6106d260048036038101906106cd9190612985565b611b4b565b6040516106df91906129c1565b60405180910390f35b6106f0611b63565b6040516106fd91906129c1565b60405180910390f35b610720600480360381019061071b9190612985565b611b69565b60405161072d91906129c1565b60405180910390f35b610750600480360381019061074b9190612d0f565b611b81565b005b61075a611c9d565b6040516107679190612a21565b60405180910390f35b61078a60048036038101906107859190612985565b611cc3565b60405161079791906129c1565b60405180910390f35b6107ba60048036038101906107b59190612985565b611cdb565b6040516107c791906129c1565b60405180910390f35b6107d8611cf3565b6040516107e59190612a21565b60405180910390f35b61080860048036038101906108039190612d4f565b611d19565b005b610812611f9e565b60405161081f91906129f7565b60405180910390f35b610842600480360381019061083d9190612985565b611fb1565b005b61084c6121c1565b60405161085991906129f7565b60405180910390f35b61087c60048036038101906108779190612df1565b6121d4565b005b3373ffffffffffffffffffffffffffffffffffffffff1660008054906101000a900473ffffffffffffffffffffffffffffffffffffffff1673ffffffffffffffffffffffffffffffffffffffff16148061092357503373ffffffffffffffffffffffffffffffffffffffff1660008054906101000a900473ffffffffffffffffffffffffffffffffffffffff1673ffffffffffffffffffffffffffffffffffffffff16145b610962576040517f08c379a000000000000000000000000000000000000000000000000000000000815260040161095990612e90565b60405180910390fd5b80600a8190555050565b60156020528060005260406000206000915090505481565b3373ffffffffffffffffffffffffffffffffffffffff1660008054906101000a900473ffffffffffffffffffffffffffffffffffffffff1673ffffffffffffffffffffffffffffffffffffffff161480610a2957503373ffffffffffffffffffffffffffffffffffffffff1660008054906101000a900473ffffffffffffffffffffffffffffffffffffffff1673ffffffffffffffffffffffffffffffffffffffff16145b610a68576040517f08c379a0000000000000000000000000000000000000000000000000000000008152600401610a5f90612e90565b60405180910390fd5b80600260006101000a81548173ffffffffffffffffffffffffffffffffffffffff021916908373ffffffffffffffffffffffffffffffffffffffff16021790555050565b600080600360009054906101000a900473ffffffffffffffffffffffffffffffffffffffff1673ffffffffffffffffffffffffffffffffffffffff16630c2804446040518163ffffffff1660e01b8152600401602060405180830381865afa158015610b1c573d6000803e3d6000fd5b505050506040513d601f19601f82011682018060405250810190610b409190612ec5565b90508091505090565b60176020528060005260406000206000915054906101000a900460ff1681565b60136020528060005260406000206000915090505481565b60095481565b600d6020528060005260406000206000915090505481565b3373ffffffffffffffffffffffffffffffffffffffff1660008054906101000a900473ffffffffffffffffffffffffffffffffffffffff1673ffffffffffffffffffffffffffffffffffffffff161480610c4457503373ffffffffffffffffffffffffffffffffffffffff1660008054906101000a900473ffffffffffffffffffffffffffffffffffffffff1673ffffffffffffffffffffffffffffffffffffffff16145b610c83576040517f08c379a0000000000000000000000000000000000000000000000000000000008152600401610c7a90612e90565b60405180910390fd5b80600460006101000a81548173ffffffffffffffffffffffffffffffffffffffff021916908373ffffffffffffffffffffffffffffffffffffffff16021790555050565b600b6020528060005260406000206000915054906101000a900473ffffffffffffffffffffffffffffffffffffffff1681565b3373ffffffffffffffffffffffffffffffffffffffff1660008054906101000a900473ffffffffffffffffffffffffffffffffffffffff1673ffffffffffffffffffffffffffffffffffffffff161480610d9f57503373ffffffffffffffffffffffffffffffffffffffff1660008054906101000a900473ffffffffffffffffffffffffffffffffffffffff1673ffffffffffffffffffffffffffffffffffffffff16145b610dde576040517f08c379a0000000000000000000000000000000000000000000000000000000008152600401610dd590612e90565b60405180910390fd5b80600560006101000a81548173ffffffffffffffffffffffffffffffffffffffff021916908373ffffffffffffffffffffffffffffffffffffffff16021790555050565b600a5481565b600560009054906101000a900473ffffffffffffffffffffffffffffffffffffffff1681565b3373ffffffffffffffffffffffffffffffffffffffff1660008054906101000a900473ffffffffffffffffffffffffffffffffffffffff1673ffffffffffffffffffffffffffffffffffffffff161480610ef357503373ffffffffffffffffffffffffffffffffffffffff1660008054906101000a900473ffffffffffffffffffffffffffffffffffffffff1673ffffffffffffffffffffffffffffffffffffffff16145b610f32576040517f08c379a0000000000000000000000000000000000000000000000000000000008152600401610f2990612e90565b60405180910390fd5b3373ffffffffffffffffffffffffffffffffffffffff166108fc479081150290604051600060405180830381858888f19350505050158015610f78573d6000803e3d6000fd5b50565b3373ffffffffffffffffffffffffffffffffffffffff1660008054906101000a900473ffffffffffffffffffffffffffffffffffffffff1673ffffffffffffffffffffffffffffffffffffffff16148061102057503373ffffffffffffffffffffffffffffffffffffffff1660008054906101000a900473ffffffffffffffffffffffffffffffffffffffff1673ffffffffffffffffffffffffffffffffffffffff16145b61105f576040517f08c379a000000000000000000000000000000000000000000000000000000000815260040161105690612e90565b60405180910390fd5b80600660006101000a81548173ffffffffffffffffffffffffffffffffffffffff021916908373ffffffffffffffffffffffffffffffffffffffff16021790555050565b6019818051602081018201805184825260208301602085012081835280955050505050506000915090505481565b3373ffffffffffffffffffffffffffffffffffffffff1660008054906101000a900473ffffffffffffffffffffffffffffffffffffffff1673ffffffffffffffffffffffffffffffffffffffff16148061117657503373ffffffffffffffffffffffffffffffffffffffff1660008054906101000a900473ffffffffffffffffffffffffffffffffffffffff1673ffffffffffffffffffffffffffffffffffffffff16145b6111b5576040517f08c379a00000000000000000000000000000000000000000000000000000000081526004016111ac90612e90565b60405180910390fd5b8173ffffffffffffffffffffffffffffffffffffffff1663a9059cbb33836040518363ffffffff1660e01b81526004016111f0929190612ef2565b6020604051808303816000875af115801561120f573d6000803e3d6000fd5b505050506040513d601f19601f820116820180604052508101906112339190612f30565b505050565b600660009054906101000a900473ffffffffffffffffffffffffffffffffffffffff1681565b3373ffffffffffffffffffffffffffffffffffffffff1660008054906101000a900473ffffffffffffffffffffffffffffffffffffffff1673ffffffffffffffffffffffffffffffffffffffff16148061130357503373ffffffffffffffffffffffffffffffffffffffff1660008054906101000a900473ffffffffffffffffffffffffffffffffffffffff1673ffffffffffffffffffffffffffffffffffffffff16145b611342576040517f08c379a000000000000000000000000000000000000000000000000000000000815260040161133990612e90565b60405180910390fd5b80600360006101000a81548173ffffffffffffffffffffffffffffffffffffffff021916908373ffffffffffffffffffffffffffffffffffffffff16021790555050565b600260009054906101000a900473ffffffffffffffffffffffffffffffffffffffff1681565b3373ffffffffffffffffffffffffffffffffffffffff1660008054906101000a900473ffffffffffffffffffffffffffffffffffffffff1673ffffffffffffffffffffffffffffffffffffffff16148061145157503373ffffffffffffffffffffffffffffffffffffffff1660008054906101000a900473ffffffffffffffffffffffffffffffffffffffff1673ffffffffffffffffffffffffffffffffffffffff16145b611490576040517f08c379a000000000000000000000000000000000000000000000000000000000815260040161148790612e90565b60405180910390fd5b80600160006101000a81548173ffffffffffffffffffffffffffffffffffffffff021916908373ffffffffffffffffffffffffffffffffffffffff16021790555050565b60146020528060005260406000206000915090505481565b600460009054906101000a900473ffffffffffffffffffffffffffffffffffffffff1681565b3373ffffffffffffffffffffffffffffffffffffffff1660008054906101000a900473ffffffffffffffffffffffffffffffffffffffff1673ffffffffffffffffffffffffffffffffffffffff1614806115b757503373ffffffffffffffffffffffffffffffffffffffff1660008054906101000a900473ffffffffffffffffffffffffffffffffffffffff1673ffffffffffffffffffffffffffffffffffffffff16145b6115f6576040517f08c379a00000000000000000000000000000000000000000000000000000000081526004016115ed90612e90565b60405180910390fd5b601760008273ffffffffffffffffffffffffffffffffffffffff1673ffffffffffffffffffffffffffffffffffffffff16815260200190815260200160002060009054906101000a900460ff1615601760008373ffffffffffffffffffffffffffffffffffffffff1673ffffffffffffffffffffffffffffffffffffffff16815260200190815260200160002060006101000a81548160ff02191690831515021790555050565b601a818051602081018201805184825260208301602085012081835280955050505050506000915054906101000a900460ff1681565b60085481565b60116020528060005260406000206000915090505481565b60008060009054906101000a900473ffffffffffffffffffffffffffffffffffffffff16905090565b3373ffffffffffffffffffffffffffffffffffffffff1660008054906101000a900473ffffffffffffffffffffffffffffffffffffffff1673ffffffffffffffffffffffffffffffffffffffff1614806117bf57503373ffffffffffffffffffffffffffffffffffffffff1660008054906101000a900473ffffffffffffffffffffffffffffffffffffffff1673ffffffffffffffffffffffffffffffffffffffff16145b6117fe576040517f08c379a00000000000000000000000000000000000000000000000000000000081526004016117f590612e90565b60405180910390fd5b6000600f60003373ffffffffffffffffffffffffffffffffffffffff1673ffffffffffffffffffffffffffffffffffffffff1681526020019081526020016000205411611880576040517f08c379a000000000000000000000000000000000000000000000000000000000815260040161187790612fa9565b60405180910390fd5b600260009054906101000a900473ffffffffffffffffffffffffffffffffffffffff1673ffffffffffffffffffffffffffffffffffffffff1663a9059cbb33836040518363ffffffff1660e01b81526004016118dd929190612ef2565b6020604051808303816000875af11580156118fc573d6000803e3d6000fd5b505050506040513d601f19601f820116820180604052508101906119209190612f30565b506000600f60003373ffffffffffffffffffffffffffffffffffffffff1673ffffffffffffffffffffffffffffffffffffffff168152602001908152602001600020819055506000601360003373ffffffffffffffffffffffffffffffffffffffff1673ffffffffffffffffffffffffffffffffffffffff168152602001908152602001600020819055506000601560003373ffffffffffffffffffffffffffffffffffffffff1673ffffffffffffffffffffffffffffffffffffffff168152602001908152602001600020819055506000601260003373ffffffffffffffffffffffffffffffffffffffff1673ffffffffffffffffffffffffffffffffffffffff168152602001908152602001600020819055506000601660003373ffffffffffffffffffffffffffffffffffffffff1673ffffffffffffffffffffffffffffffffffffffff1681526020019081526020016000208190555050565b6018818051602081018201805184825260208301602085012081835280955050505050506000915090508054611ab290612ff8565b80601f0160208091040260200160405190810160405280929190818152602001828054611ade90612ff8565b8015611b2b5780601f10611b0057610100808354040283529160200191611b2b565b820191906000526020600020905b815481529060010190602001808311611b0e57829003601f168201915b505050505081565b600f6020528060005260406000206000915090505481565b60126020528060005260406000206000915090505481565b60075481565b60106020528060005260406000206000915090505481565b3373ffffffffffffffffffffffffffffffffffffffff1660008054906101000a900473ffffffffffffffffffffffffffffffffffffffff1673ffffffffffffffffffffffffffffffffffffffff161480611c2657503373ffffffffffffffffffffffffffffffffffffffff1660008054906101000a900473ffffffffffffffffffffffffffffffffffffffff1673ffffffffffffffffffffffffffffffffffffffff16145b611c65576040517f08c379a0000000000000000000000000000000000000000000000000000000008152600401611c5c90612e90565b60405180910390fd5b81600e60006101000a81548160ff02191690831515021790555080600e60016101000a81548160ff0219169083151502179055505050565b600160009054906101000a900473ffffffffffffffffffffffffffffffffffffffff1681565b60166020528060005260406000206000915090505481565b600c6020528060005260406000206000915090505481565b600360009054906101000a900473ffffffffffffffffffffffffffffffffffffffff1681565b3373ffffffffffffffffffffffffffffffffffffffff1660008054906101000a900473ffffffffffffffffffffffffffffffffffffffff1673ffffffffffffffffffffffffffffffffffffffff161480611dbe57503373ffffffffffffffffffffffffffffffffffffffff1660008054906101000a900473ffffffffffffffffffffffffffffffffffffffff1673ffffffffffffffffffffffffffffffffffffffff16145b611dfd576040517f08c379a0000000000000000000000000000000000000000000000000000000008152600401611df490612e90565b60405180910390fd5b85600f60008973ffffffffffffffffffffffffffffffffffffffff1673ffffffffffffffffffffffffffffffffffffffff1681526020019081526020016000208190555084601260008973ffffffffffffffffffffffffffffffffffffffff1673ffffffffffffffffffffffffffffffffffffffff1681526020019081526020016000208190555083601360008973ffffffffffffffffffffffffffffffffffffffff1673ffffffffffffffffffffffffffffffffffffffff1681526020019081526020016000208190555082601460008973ffffffffffffffffffffffffffffffffffffffff1673ffffffffffffffffffffffffffffffffffffffff1681526020019081526020016000208190555081601660008973ffffffffffffffffffffffffffffffffffffffff1673ffffffffffffffffffffffffffffffffffffffff1681526020019081526020016000208190555080601560008973ffffffffffffffffffffffffffffffffffffffff1673ffffffffffffffffffffffffffffffffffffffff1681526020019081526020016000208190555050505050505050565b600e60019054906101000a900460ff1681565b3373ffffffffffffffffffffffffffffffffffffffff1660008054906101000a900473ffffffffffffffffffffffffffffffffffffffff1673ffffffffffffffffffffffffffffffffffffffff16148061205657503373ffffffffffffffffffffffffffffffffffffffff1660008054906101000a900473ffffffffffffffffffffffffffffffffffffffff1673ffffffffffffffffffffffffffffffffffffffff16145b612095576040517f08c379a000000000000000000000000000000000000000000000000000000000815260040161208c90612e90565b60405180910390fd5b600073ffffffffffffffffffffffffffffffffffffffff168173ffffffffffffffffffffffffffffffffffffffff1603612104576040517f08c379a00000000000000000000000000000000000000000000000000000000081526004016120fb90613075565b60405180910390fd5b8073ffffffffffffffffffffffffffffffffffffffff1660008054906101000a900473ffffffffffffffffffffffffffffffffffffffff1673ffffffffffffffffffffffffffffffffffffffff167f8be0079c531659141344cd1fd0a4f28419497f9722a3daafe3b4186f6b6457e060405160405180910390a3806000806101000a81548173ffffffffffffffffffffffffffffffffffffffff021916908373ffffffffffffffffffffffffffffffffffffffff16021790555050565b600e60009054906101000a900460ff1681565b600e60009054906101000a900460ff16612223576040517f08c379a000000000000000000000000000000000000000000000000000000000815260040161221a906130e1565b60405180910390fd5b6000601060003373ffffffffffffffffffffffffffffffffffffffff1673ffffffffffffffffffffffffffffffffffffffff16815260200190815260200160002054146122a5576040517f08c379a000000000000000000000000000000000000000000000000000000000815260040161229c9061314d565b60405180910390fd5b6000601160003373ffffffffffffffffffffffffffffffffffffffff1673ffffffffffffffffffffffffffffffffffffffff1681526020019081526020016000205414612327576040517f08c379a000000000000000000000000000000000000000000000000000000000815260040161231e906131b9565b60405180910390fd5b6000831161236a576040517f08c379a000000000000000000000000000000000000000000000000000000000815260040161236190613225565b60405180910390fd5b600082116123ad576040517f08c379a00000000000000000000000000000000000000000000000000000000081526004016123a490613291565b60405180910390fd5b60095481146123f1576040517f08c379a00000000000000000000000000000000000000000000000000000000081526004016123e8906132fd565b60405180910390fd5b600060019050600460009054906101000a900473ffffffffffffffffffffffffffffffffffffffff1673ffffffffffffffffffffffffffffffffffffffff166323b872dd3330876040518463ffffffff1660e01b81526004016124569392919061331d565b6020604051808303816000875af1158015612475573d6000803e3d6000fd5b505050506040513d601f19601f820116820180604052508101906124999190612f30565b50600560009054906101000a900473ffffffffffffffffffffffffffffffffffffffff1673ffffffffffffffffffffffffffffffffffffffff166323b872dd3330866040518463ffffffff1660e01b81526004016124f99392919061331d565b6020604051808303816000875af1158015612518573d6000803e3d6000fd5b505050506040513d601f19601f8201168201806040525081019061253c9190612f30565b50600460009054906101000a900473ffffffffffffffffffffffffffffffffffffffff1673ffffffffffffffffffffffffffffffffffffffff1663a9059cbb600660009054906101000a900473ffffffffffffffffffffffffffffffffffffffff16866040518363ffffffff1660e01b81526004016125bc929190612ef2565b6020604051808303816000875af11580156125db573d6000803e3d6000fd5b505050506040513d601f19601f820116820180604052508101906125ff9190612f30565b50600560009054906101000a900473ffffffffffffffffffffffffffffffffffffffff1673ffffffffffffffffffffffffffffffffffffffff1663a9059cbb600660009054906101000a900473ffffffffffffffffffffffffffffffffffffffff16856040518363ffffffff1660e01b815260040161267f929190612ef2565b6020604051808303816000875af115801561269e573d6000803e3d6000fd5b505050506040513d601f19601f820116820180604052508101906126c29190612f30565b5083601060003373ffffffffffffffffffffffffffffffffffffffff1673ffffffffffffffffffffffffffffffffffffffff1681526020019081526020016000208190555082601160003373ffffffffffffffffffffffffffffffffffffffff1673ffffffffffffffffffffffffffffffffffffffff1681526020019081526020016000208190555042601360003373ffffffffffffffffffffffffffffffffffffffff1673ffffffffffffffffffffffffffffffffffffffff1681526020019081526020016000208190555042601460003373ffffffffffffffffffffffffffffffffffffffff1673ffffffffffffffffffffffffffffffffffffffff1681526020019081526020016000208190555081426127df9190613383565b601560003373ffffffffffffffffffffffffffffffffffffffff1673ffffffffffffffffffffffffffffffffffffffff1681526020019081526020016000208190555081601260003373ffffffffffffffffffffffffffffffffffffffff1673ffffffffffffffffffffffffffffffffffffffff1681526020019081526020016000208190555080601660003373ffffffffffffffffffffffffffffffffffffffff1673ffffffffffffffffffffffffffffffffffffffff1681526020019081526020016000208190555050505050565b6000604051905090565b600080fd5b600080fd5b6000819050919050565b6128d7816128c4565b81146128e257600080fd5b50565b6000813590506128f4816128ce565b92915050565b6000602082840312156129105761290f6128ba565b5b600061291e848285016128e5565b91505092915050565b600073ffffffffffffffffffffffffffffffffffffffff82169050919050565b600061295282612927565b9050919050565b61296281612947565b811461296d57600080fd5b50565b60008135905061297f81612959565b92915050565b60006020828403121561299b5761299a6128ba565b5b60006129a984828501612970565b91505092915050565b6129bb816128c4565b82525050565b60006020820190506129d660008301846129b2565b92915050565b60008115159050919050565b6129f1816129dc565b82525050565b6000602082019050612a0c60008301846129e8565b92915050565b612a1b81612947565b82525050565b6000602082019050612a366000830184612a12565b92915050565b600080fd5b600080fd5b6000601f19601f8301169050919050565b7f4e487b7100000000000000000000000000000000000000000000000000000000600052604160045260246000fd5b612a8f82612a46565b810181811067ffffffffffffffff82111715612aae57612aad612a57565b5b80604052505050565b6000612ac16128b0565b9050612acd8282612a86565b919050565b600067ffffffffffffffff821115612aed57612aec612a57565b5b612af682612a46565b9050602081019050919050565b82818337600083830152505050565b6000612b25612b2084612ad2565b612ab7565b905082815260208101848484011115612b4157612b40612a41565b5b612b4c848285612b03565b509392505050565b600082601f830112612b6957612b68612a3c565b5b8135612b79848260208601612b12565b91505092915050565b600060208284031215612b9857612b976128ba565b5b600082013567ffffffffffffffff811115612bb657612bb56128bf565b5b612bc284828501612b54565b91505092915050565b60008060408385031215612be257612be16128ba565b5b6000612bf085828601612970565b9250506020612c01858286016128e5565b9150509250929050565b600060ff82169050919050565b612c2181612c0b565b82525050565b6000602082019050612c3c6000830184612c18565b92915050565b600081519050919050565b600082825260208201905092915050565b60005b83811015612c7c578082015181840152602081019050612c61565b60008484015250505050565b6000612c9382612c42565b612c9d8185612c4d565b9350612cad818560208601612c5e565b612cb681612a46565b840191505092915050565b60006020820190508181036000830152612cdb8184612c88565b905092915050565b612cec816129dc565b8114612cf757600080fd5b50565b600081359050612d0981612ce3565b92915050565b60008060408385031215612d2657612d256128ba565b5b6000612d3485828601612cfa565b9250506020612d4585828601612cfa565b9150509250929050565b600080600080600080600060e0888a031215612d6e57612d6d6128ba565b5b6000612d7c8a828b01612970565b9750506020612d8d8a828b016128e5565b9650506040612d9e8a828b016128e5565b9550506060612daf8a828b016128e5565b9450506080612dc08a828b016128e5565b93505060a0612dd18a828b016128e5565b92505060c0612de28a828b016128e5565b91505092959891949750929550565b600080600060608486031215612e0a57612e096128ba565b5b6000612e18868287016128e5565b9350506020612e29868287016128e5565b9250506040612e3a868287016128e5565b9150509250925092565b7f216f776e65720000000000000000000000000000000000000000000000000000600082015250565b6000612e7a600683612c4d565b9150612e8582612e44565b602082019050919050565b60006020820190508181036000830152612ea981612e6d565b9050919050565b600081519050612ebf816128ce565b92915050565b600060208284031215612edb57612eda6128ba565b5b6000612ee984828501612eb0565b91505092915050565b6000604082019050612f076000830185612a12565b612f1460208301846129b2565b9392505050565b600081519050612f2a81612ce3565b92915050565b600060208284031215612f4657612f456128ba565b5b6000612f5484828501612f1b565b91505092915050565b7f6e6f74207374616b650000000000000000000000000000000000000000000000600082015250565b6000612f93600983612c4d565b9150612f9e82612f5d565b602082019050919050565b60006020820190508181036000830152612fc281612f86565b9050919050565b7f4e487b7100000000000000000000000000000000000000000000000000000000600052602260045260246000fd5b6000600282049050600182168061301057607f821691505b60208210810361302357613022612fc9565b5b50919050565b7f6e65772069732030000000000000000000000000000000000000000000000000600082015250565b600061305f600883612c4d565b915061306a82613029565b602082019050919050565b6000602082019050818103600083015261308e81613052565b9050919050565b7f6e6f742073746172740000000000000000000000000000000000000000000000600082015250565b60006130cb600983612c4d565b91506130d682613095565b602082019050919050565b600060208201905081810360008301526130fa816130be565b9050919050565b7f616c7265616479207374616b6559000000000000000000000000000000000000600082015250565b6000613137600e83612c4d565b915061314282613101565b602082019050919050565b600060208201905081810360008301526131668161312a565b9050919050565b7f616c7265616479207374616b6542000000000000000000000000000000000000600082015250565b60006131a3600e83612c4d565b91506131ae8261316d565b602082019050919050565b600060208201905081810360008301526131d281613196565b9050919050565b7f7a65726f2059616d6f756e740000000000000000000000000000000000000000600082015250565b600061320f600c83612c4d565b915061321a826131d9565b602082019050919050565b6000602082019050818103600083015261323e81613202565b9050919050565b7f7a65726f2042616d6f756e740000000000000000000000000000000000000000600082015250565b600061327b600c83612c4d565b915061328682613245565b602082019050919050565b600060208201905081810360008301526132aa8161326e565b9050919050565b7f6e6f742072696768742074696d65000000000000000000000000000000000000600082015250565b60006132e7600e83612c4d565b91506132f2826132b1565b602082019050919050565b60006020820190508181036000830152613316816132da565b9050919050565b60006060820190506133326000830186612a12565b61333f6020830185612a12565b61334c60408301846129b2565b949350505050565b7f4e487b7100000000000000000000000000000000000000000000000000000000600052601160045260246000fd5b600061338e826128c4565b9150613399836128c4565b92508282019050808211156133b1576133b0613354565b5b9291505056fea2646970667358221220fc5d5b4aa9384fc88138037fc5b37789876aaec3e72bd9f6778467bae70dc89c64736f6c63430008130033",
					"opcodes": "PUSH1 0x80 PUSH1 0x40 MSTORE PUSH20 0xF1F8E132F0A3F720B3B204D728A8FF316B182258 PUSH1 0x1 PUSH1 0x0 PUSH2 0x100 EXP DUP2 SLOAD DUP2 PUSH20 0xFFFFFFFFFFFFFFFFFFFFFFFFFFFFFFFFFFFFFFFF MUL NOT AND SWAP1 DUP4 PUSH20 0xFFFFFFFFFFFFFFFFFFFFFFFFFFFFFFFFFFFFFFFF AND MUL OR SWAP1 SSTORE POP PUSH20 0x6B6B2D8166D13B58155B8D454F239AE3691257A6 PUSH1 0x2 PUSH1 0x0 PUSH2 0x100 EXP DUP2 SLOAD DUP2 PUSH20 0xFFFFFFFFFFFFFFFFFFFFFFFFFFFFFFFFFFFFFFFF MUL NOT AND SWAP1 DUP4 PUSH20 0xFFFFFFFFFFFFFFFFFFFFFFFFFFFFFFFFFFFFFFFF AND MUL OR SWAP1 SSTORE POP PUSH20 0xB1BF470A9720F8D2E49512DBBCCF7180E4AC4679 PUSH1 0x3 PUSH1 0x0 PUSH2 0x100 EXP DUP2 SLOAD DUP2 PUSH20 0xFFFFFFFFFFFFFFFFFFFFFFFFFFFFFFFFFFFFFFFF MUL NOT AND SWAP1 DUP4 PUSH20 0xFFFFFFFFFFFFFFFFFFFFFFFFFFFFFFFFFFFFFFFF AND MUL OR SWAP1 SSTORE POP PUSH20 0x55D398326F99059FF775485246999027B3197955 PUSH1 0x4 PUSH1 0x0 PUSH2 0x100 EXP DUP2 SLOAD DUP2 PUSH20 0xFFFFFFFFFFFFFFFFFFFFFFFFFFFFFFFFFFFFFFFF MUL NOT AND SWAP1 DUP4 PUSH20 0xFFFFFFFFFFFFFFFFFFFFFFFFFFFFFFFFFFFFFFFF AND MUL OR SWAP1 SSTORE POP PUSH20 0xD114D4436F714DE79F0CB7EB3DB28D873E60602E PUSH1 0x5 PUSH1 0x0 PUSH2 0x100 EXP DUP2 SLOAD DUP2 PUSH20 0xFFFFFFFFFFFFFFFFFFFFFFFFFFFFFFFFFFFFFFFF MUL NOT AND SWAP1 DUP4 PUSH20 0xFFFFFFFFFFFFFFFFFFFFFFFFFFFFFFFFFFFFFFFF AND MUL OR SWAP1 SSTORE POP PUSH20 0x641DC64BFBCDC419BCC7AFB0CE02D244155E1AC6 PUSH1 0x6 PUSH1 0x0 PUSH2 0x100 EXP DUP2 SLOAD DUP2 PUSH20 0xFFFFFFFFFFFFFFFFFFFFFFFFFFFFFFFFFFFFFFFF MUL NOT AND SWAP1 DUP4 PUSH20 0xFFFFFFFFFFFFFFFFFFFFFFFFFFFFFFFFFFFFFFFF AND MUL OR SWAP1 SSTORE POP PUSH3 0x278D00 PUSH1 0x7 SSTORE PUSH3 0x76A700 PUSH1 0x8 SSTORE PUSH3 0xC5C100 PUSH1 0x9 SSTORE PUSH2 0x3E8 PUSH1 0xA SSTORE PUSH1 0x1 PUSH1 0xE PUSH1 0x0 PUSH2 0x100 EXP DUP2 SLOAD DUP2 PUSH1 0xFF MUL NOT AND SWAP1 DUP4 ISZERO ISZERO MUL OR SWAP1 SSTORE POP PUSH1 0x1 PUSH1 0xE PUSH1 0x1 PUSH2 0x100 EXP DUP2 SLOAD DUP2 PUSH1 0xFF MUL NOT AND SWAP1 DUP4 ISZERO ISZERO MUL OR SWAP1 SSTORE POP CALLVALUE DUP1 ISZERO PUSH2 0x25F JUMPI PUSH1 0x0 DUP1 REVERT JUMPDEST POP PUSH1 0x0 CALLER SWAP1 POP DUP1 PUSH1 0x0 DUP1 PUSH2 0x100 EXP DUP2 SLOAD DUP2 PUSH20 0xFFFFFFFFFFFFFFFFFFFFFFFFFFFFFFFFFFFFFFFF MUL NOT AND SWAP1 DUP4 PUSH20 0xFFFFFFFFFFFFFFFFFFFFFFFFFFFFFFFFFFFFFFFF AND MUL OR SWAP1 SSTORE POP DUP1 PUSH20 0xFFFFFFFFFFFFFFFFFFFFFFFFFFFFFFFFFFFFFFFF AND PUSH1 0x0 PUSH20 0xFFFFFFFFFFFFFFFFFFFFFFFFFFFFFFFFFFFFFFFF AND PUSH32 0x8BE0079C531659141344CD1FD0A4F28419497F9722A3DAAFE3B4186F6B6457E0 PUSH1 0x40 MLOAD PUSH1 0x40 MLOAD DUP1 SWAP2 SUB SWAP1 LOG3 POP PUSH2 0x33ED DUP1 PUSH2 0x310 PUSH1 0x0 CODECOPY PUSH1 0x0 RETURN INVALID PUSH1 0x80 PUSH1 0x40 MSTORE CALLVALUE DUP1 ISZERO PUSH2 0x10 JUMPI PUSH1 0x0 DUP1 REVERT JUMPDEST POP PUSH1 0x4 CALLDATASIZE LT PUSH2 0x273 JUMPI PUSH1 0x0 CALLDATALOAD PUSH1 0xE0 SHR DUP1 PUSH4 0x7A1A959B GT PUSH2 0x151 JUMPI DUP1 PUSH4 0xA6F9A1D5 GT PUSH2 0xC3 JUMPI DUP1 PUSH4 0xE53595ED GT PUSH2 0x87 JUMPI DUP1 PUSH4 0xE53595ED EQ PUSH2 0x7D0 JUMPI DUP1 PUSH4 0xE61EE218 EQ PUSH2 0x7EE JUMPI DUP1 PUSH4 0xE650D293 EQ PUSH2 0x80A JUMPI DUP1 PUSH4 0xF2FDE38B EQ PUSH2 0x828 JUMPI DUP1 PUSH4 0xF3EF99BC EQ PUSH2 0x844 JUMPI DUP1 PUSH4 0xF7A278BC EQ PUSH2 0x862 JUMPI PUSH2 0x273 JUMP JUMPDEST DUP1 PUSH4 0xA6F9A1D5 EQ PUSH2 0x706 JUMPI DUP1 PUSH4 0xB3C2EAC1 EQ PUSH2 0x736 JUMPI DUP1 PUSH4 0xB59C6E0E EQ PUSH2 0x752 JUMPI DUP1 PUSH4 0xBEF4533C EQ PUSH2 0x770 JUMPI DUP1 PUSH4 0xDD8158E0 EQ PUSH2 0x7A0 JUMPI PUSH2 0x273 JUMP JUMPDEST DUP1 PUSH4 0x8DA5CB5B GT PUSH2 0x115 JUMPI DUP1 PUSH4 0x8DA5CB5B EQ PUSH2 0x61E JUMPI DUP1 PUSH4 0x91F6963C EQ PUSH2 0x63C JUMPI DUP1 PUSH4 0x9442C295 EQ PUSH2 0x658 JUMPI DUP1 PUSH4 0x9805FA74 EQ PUSH2 0x688 JUMPI DUP1 PUSH4 0xA041E172 EQ PUSH2 0x6B8 JUMPI DUP1 PUSH4 0xA6B14D5A EQ PUSH2 0x6E8 JUMPI PUSH2 0x273 JUMP JUMPDEST DUP1 PUSH4 0x7A1A959B EQ PUSH2 0x566 JUMPI DUP1 PUSH4 0x7D4CBD57 EQ PUSH2 0x584 JUMPI DUP1 PUSH4 0x838BCFEB EQ PUSH2 0x5A0 JUMPI DUP1 PUSH4 0x853E03E5 EQ PUSH2 0x5D0 JUMPI DUP1 PUSH4 0x8ACE0D0C EQ PUSH2 0x5EE JUMPI PUSH2 0x273 JUMP JUMPDEST DUP1 PUSH4 0x2EAE667D GT PUSH2 0x1EA JUMPI DUP1 PUSH4 0x69F65DC2 GT PUSH2 0x1AE JUMPI DUP1 PUSH4 0x69F65DC2 EQ PUSH2 0x4A6 JUMPI DUP1 PUSH4 0x6B8DE0BF EQ PUSH2 0x4C2 JUMPI DUP1 PUSH4 0x6D37B382 EQ PUSH2 0x4E0 JUMPI DUP1 PUSH4 0x71DDDA57 EQ PUSH2 0x4FC JUMPI DUP1 PUSH4 0x7535B3E5 EQ PUSH2 0x51A JUMPI DUP1 PUSH4 0x7929E29F EQ PUSH2 0x536 JUMPI PUSH2 0x273 JUMP JUMPDEST DUP1 PUSH4 0x2EAE667D EQ PUSH2 0x414 JUMPI DUP1 PUSH4 0x3375D043 EQ PUSH2 0x432 JUMPI DUP1 PUSH4 0x3CCFD60B EQ PUSH2 0x450 JUMPI DUP1 PUSH4 0x460199B3 EQ PUSH2 0x45A JUMPI DUP1 PUSH4 0x5CC6F73F EQ PUSH2 0x476 JUMPI PUSH2 0x273 JUMP JUMPDEST DUP1 PUSH4 0x16C259E1 GT PUSH2 0x23C JUMPI DUP1 PUSH4 0x16C259E1 EQ PUSH2 0x32E JUMPI DUP1 PUSH4 0x18883877 EQ PUSH2 0x35E JUMPI DUP1 PUSH4 0x1896B2C4 EQ PUSH2 0x37C JUMPI DUP1 PUSH4 0x1F54DBFE EQ PUSH2 0x3AC JUMPI DUP1 PUSH4 0x264EDC1D EQ PUSH2 0x3C8 JUMPI DUP1 PUSH4 0x28C4333E EQ PUSH2 0x3F8 JUMPI PUSH2 0x273 JUMP JUMPDEST DUP1 PUSH3 0x6CD200 EQ PUSH2 0x278 JUMPI DUP1 PUSH4 0x356C98F EQ PUSH2 0x294 JUMPI DUP1 PUSH4 0x397D458 EQ PUSH2 0x2C4 JUMPI DUP1 PUSH4 0xC280444 EQ PUSH2 0x2E0 JUMPI DUP1 PUSH4 0x115A972E EQ PUSH2 0x2FE JUMPI JUMPDEST PUSH1 0x0 DUP1 REVERT JUMPDEST PUSH2 0x292 PUSH1 0x4 DUP1 CALLDATASIZE SUB DUP2 ADD SWAP1 PUSH2 0x28D SWAP2 SWAP1 PUSH2 0x28FA JUMP JUMPDEST PUSH2 0x87E JUMP JUMPDEST STOP JUMPDEST PUSH2 0x2AE PUSH1 0x4 DUP1 CALLDATASIZE SUB DUP2 ADD SWAP1 PUSH2 0x2A9 SWAP2 SWAP1 PUSH2 0x2985 JUMP JUMPDEST PUSH2 0x96C JUMP JUMPDEST PUSH1 0x40 MLOAD PUSH2 0x2BB SWAP2 SWAP1 PUSH2 0x29C1 JUMP JUMPDEST PUSH1 0x40 MLOAD DUP1 SWAP2 SUB SWAP1 RETURN JUMPDEST PUSH2 0x2DE PUSH1 0x4 DUP1 CALLDATASIZE SUB DUP2 ADD SWAP1 PUSH2 0x2D9 SWAP2 SWAP1 PUSH2 0x2985 JUMP JUMPDEST PUSH2 0x984 JUMP JUMPDEST STOP JUMPDEST PUSH2 0x2E8 PUSH2 0xAAC JUMP JUMPDEST PUSH1 0x40 MLOAD PUSH2 0x2F5 SWAP2 SWAP1 PUSH2 0x29C1 JUMP JUMPDEST PUSH1 0x40 MLOAD DUP1 SWAP2 SUB SWAP1 RETURN JUMPDEST PUSH2 0x318 PUSH1 0x4 DUP1 CALLDATASIZE SUB DUP2 ADD SWAP1 PUSH2 0x313 SWAP2 SWAP1 PUSH2 0x2985 JUMP JUMPDEST PUSH2 0xB49 JUMP JUMPDEST PUSH1 0x40 MLOAD PUSH2 0x325 SWAP2 SWAP1 PUSH2 0x29F7 JUMP JUMPDEST PUSH1 0x40 MLOAD DUP1 SWAP2 SUB SWAP1 RETURN JUMPDEST PUSH2 0x348 PUSH1 0x4 DUP1 CALLDATASIZE SUB DUP2 ADD SWAP1 PUSH2 0x343 SWAP2 SWAP1 PUSH2 0x2985 JUMP JUMPDEST PUSH2 0xB69 JUMP JUMPDEST PUSH1 0x40 MLOAD PUSH2 0x355 SWAP2 SWAP1 PUSH2 0x29C1 JUMP JUMPDEST PUSH1 0x40 MLOAD DUP1 SWAP2 SUB SWAP1 RETURN JUMPDEST PUSH2 0x366 PUSH2 0xB81 JUMP JUMPDEST PUSH1 0x40 MLOAD PUSH2 0x373 SWAP2 SWAP1 PUSH2 0x29C1 JUMP JUMPDEST PUSH1 0x40 MLOAD DUP1 SWAP2 SUB SWAP1 RETURN JUMPDEST PUSH2 0x396 PUSH1 0x4 DUP1 CALLDATASIZE SUB DUP2 ADD SWAP1 PUSH2 0x391 SWAP2 SWAP1 PUSH2 0x2985 JUMP JUMPDEST PUSH2 0xB87 JUMP JUMPDEST PUSH1 0x40 MLOAD PUSH2 0x3A3 SWAP2 SWAP1 PUSH2 0x29C1 JUMP JUMPDEST PUSH1 0x40 MLOAD DUP1 SWAP2 SUB SWAP1 RETURN JUMPDEST PUSH2 0x3C6 PUSH1 0x4 DUP1 CALLDATASIZE SUB DUP2 ADD SWAP1 PUSH2 0x3C1 SWAP2 SWAP1 PUSH2 0x2985 JUMP JUMPDEST PUSH2 0xB9F JUMP JUMPDEST STOP JUMPDEST PUSH2 0x3E2 PUSH1 0x4 DUP1 CALLDATASIZE SUB DUP2 ADD SWAP1 PUSH2 0x3DD SWAP2 SWAP1 PUSH2 0x2985 JUMP JUMPDEST PUSH2 0xCC7 JUMP JUMPDEST PUSH1 0x40 MLOAD PUSH2 0x3EF SWAP2 SWAP1 PUSH2 0x2A21 JUMP JUMPDEST PUSH1 0x40 MLOAD DUP1 SWAP2 SUB SWAP1 RETURN JUMPDEST PUSH2 0x412 PUSH1 0x4 DUP1 CALLDATASIZE SUB DUP2 ADD SWAP1 PUSH2 0x40D SWAP2 SWAP1 PUSH2 0x2985 JUMP JUMPDEST PUSH2 0xCFA JUMP JUMPDEST STOP JUMPDEST PUSH2 0x41C PUSH2 0xE22 JUMP JUMPDEST PUSH1 0x40 MLOAD PUSH2 0x429 SWAP2 SWAP1 PUSH2 0x29C1 JUMP JUMPDEST PUSH1 0x40 MLOAD DUP1 SWAP2 SUB SWAP1 RETURN JUMPDEST PUSH2 0x43A PUSH2 0xE28 JUMP JUMPDEST PUSH1 0x40 MLOAD PUSH2 0x447 SWAP2 SWAP1 PUSH2 0x2A21 JUMP JUMPDEST PUSH1 0x40 MLOAD DUP1 SWAP2 SUB SWAP1 RETURN JUMPDEST PUSH2 0x458 PUSH2 0xE4E JUMP JUMPDEST STOP JUMPDEST PUSH2 0x474 PUSH1 0x4 DUP1 CALLDATASIZE SUB DUP2 ADD SWAP1 PUSH2 0x46F SWAP2 SWAP1 PUSH2 0x2985 JUMP JUMPDEST PUSH2 0xF7B JUMP JUMPDEST STOP JUMPDEST PUSH2 0x490 PUSH1 0x4 DUP1 CALLDATASIZE SUB DUP2 ADD SWAP1 PUSH2 0x48B SWAP2 SWAP1 PUSH2 0x2B82 JUMP JUMPDEST PUSH2 0x10A3 JUMP JUMPDEST PUSH1 0x40 MLOAD PUSH2 0x49D SWAP2 SWAP1 PUSH2 0x29C1 JUMP JUMPDEST PUSH1 0x40 MLOAD DUP1 SWAP2 SUB SWAP1 RETURN JUMPDEST PUSH2 0x4C0 PUSH1 0x4 DUP1 CALLDATASIZE SUB DUP2 ADD SWAP1 PUSH2 0x4BB SWAP2 SWAP1 PUSH2 0x2BCB JUMP JUMPDEST PUSH2 0x10D1 JUMP JUMPDEST STOP JUMPDEST PUSH2 0x4CA PUSH2 0x1238 JUMP JUMPDEST PUSH1 0x40 MLOAD PUSH2 0x4D7 SWAP2 SWAP1 PUSH2 0x2A21 JUMP JUMPDEST PUSH1 0x40 MLOAD DUP1 SWAP2 SUB SWAP1 RETURN JUMPDEST PUSH2 0x4FA PUSH1 0x4 DUP1 CALLDATASIZE SUB DUP2 ADD SWAP1 PUSH2 0x4F5 SWAP2 SWAP1 PUSH2 0x2985 JUMP JUMPDEST PUSH2 0x125E JUMP JUMPDEST STOP JUMPDEST PUSH2 0x504 PUSH2 0x1386 JUMP JUMPDEST PUSH1 0x40 MLOAD PUSH2 0x511 SWAP2 SWAP1 PUSH2 0x2A21 JUMP JUMPDEST PUSH1 0x40 MLOAD DUP1 SWAP2 SUB SWAP1 RETURN JUMPDEST PUSH2 0x534 PUSH1 0x4 DUP1 CALLDATASIZE SUB DUP2 ADD SWAP1 PUSH2 0x52F SWAP2 SWAP1 PUSH2 0x2985 JUMP JUMPDEST PUSH2 0x13AC JUMP JUMPDEST STOP JUMPDEST PUSH2 0x550 PUSH1 0x4 DUP1 CALLDATASIZE SUB DUP2 ADD SWAP1 PUSH2 0x54B SWAP2 SWAP1 PUSH2 0x2985 JUMP JUMPDEST PUSH2 0x14D4 JUMP JUMPDEST PUSH1 0x40 MLOAD PUSH2 0x55D SWAP2 SWAP1 PUSH2 0x29C1 JUMP JUMPDEST PUSH1 0x40 MLOAD DUP1 SWAP2 SUB SWAP1 RETURN JUMPDEST PUSH2 0x56E PUSH2 0x14EC JUMP JUMPDEST PUSH1 0x40 MLOAD PUSH2 0x57B SWAP2 SWAP1 PUSH2 0x2A21 JUMP JUMPDEST PUSH1 0x40 MLOAD DUP1 SWAP2 SUB SWAP1 RETURN JUMPDEST PUSH2 0x59E PUSH1 0x4 DUP1 CALLDATASIZE SUB DUP2 ADD SWAP1 PUSH2 0x599 SWAP2 SWAP1 PUSH2 0x2985 JUMP JUMPDEST PUSH2 0x1512 JUMP JUMPDEST STOP JUMPDEST PUSH2 0x5BA PUSH1 0x4 DUP1 CALLDATASIZE SUB DUP2 ADD SWAP1 PUSH2 0x5B5 SWAP2 SWAP1 PUSH2 0x2B82 JUMP JUMPDEST PUSH2 0x169D JUMP JUMPDEST PUSH1 0x40 MLOAD PUSH2 0x5C7 SWAP2 SWAP1 PUSH2 0x2C27 JUMP JUMPDEST PUSH1 0x40 MLOAD DUP1 SWAP2 SUB SWAP1 RETURN JUMPDEST PUSH2 0x5D8 PUSH2 0x16D3 JUMP JUMPDEST PUSH1 0x40 MLOAD PUSH2 0x5E5 SWAP2 SWAP1 PUSH2 0x29C1 JUMP JUMPDEST PUSH1 0x40 MLOAD DUP1 SWAP2 SUB SWAP1 RETURN JUMPDEST PUSH2 0x608 PUSH1 0x4 DUP1 CALLDATASIZE SUB DUP2 ADD SWAP1 PUSH2 0x603 SWAP2 SWAP1 PUSH2 0x2985 JUMP JUMPDEST PUSH2 0x16D9 JUMP JUMPDEST PUSH1 0x40 MLOAD PUSH2 0x615 SWAP2 SWAP1 PUSH2 0x29C1 JUMP JUMPDEST PUSH1 0x40 MLOAD DUP1 SWAP2 SUB SWAP1 RETURN JUMPDEST PUSH2 0x626 PUSH2 0x16F1 JUMP JUMPDEST PUSH1 0x40 MLOAD PUSH2 0x633 SWAP2 SWAP1 PUSH2 0x2A21 JUMP JUMPDEST PUSH1 0x40 MLOAD DUP1 SWAP2 SUB SWAP1 RETURN JUMPDEST PUSH2 0x656 PUSH1 0x4 DUP1 CALLDATASIZE SUB DUP2 ADD SWAP1 PUSH2 0x651 SWAP2 SWAP1 PUSH2 0x28FA JUMP JUMPDEST PUSH2 0x171A JUMP JUMPDEST STOP JUMPDEST PUSH2 0x672 PUSH1 0x4 DUP1 CALLDATASIZE SUB DUP2 ADD SWAP1 PUSH2 0x66D SWAP2 SWAP1 PUSH2 0x2B82 JUMP JUMPDEST PUSH2 0x1A7D JUMP JUMPDEST PUSH1 0x40 MLOAD PUSH2 0x67F SWAP2 SWAP1 PUSH2 0x2CC1 JUMP JUMPDEST PUSH1 0x40 MLOAD DUP1 SWAP2 SUB SWAP1 RETURN JUMPDEST PUSH2 0x6A2 PUSH1 0x4 DUP1 CALLDATASIZE SUB DUP2 ADD SWAP1 PUSH2 0x69D SWAP2 SWAP1 PUSH2 0x2985 JUMP JUMPDEST PUSH2 0x1B33 JUMP JUMPDEST PUSH1 0x40 MLOAD PUSH2 0x6AF SWAP2 SWAP1 PUSH2 0x29C1 JUMP JUMPDEST PUSH1 0x40 MLOAD DUP1 SWAP2 SUB SWAP1 RETURN JUMPDEST PUSH2 0x6D2 PUSH1 0x4 DUP1 CALLDATASIZE SUB DUP2 ADD SWAP1 PUSH2 0x6CD SWAP2 SWAP1 PUSH2 0x2985 JUMP JUMPDEST PUSH2 0x1B4B JUMP JUMPDEST PUSH1 0x40 MLOAD PUSH2 0x6DF SWAP2 SWAP1 PUSH2 0x29C1 JUMP JUMPDEST PUSH1 0x40 MLOAD DUP1 SWAP2 SUB SWAP1 RETURN JUMPDEST PUSH2 0x6F0 PUSH2 0x1B63 JUMP JUMPDEST PUSH1 0x40 MLOAD PUSH2 0x6FD SWAP2 SWAP1 PUSH2 0x29C1 JUMP JUMPDEST PUSH1 0x40 MLOAD DUP1 SWAP2 SUB SWAP1 RETURN JUMPDEST PUSH2 0x720 PUSH1 0x4 DUP1 CALLDATASIZE SUB DUP2 ADD SWAP1 PUSH2 0x71B SWAP2 SWAP1 PUSH2 0x2985 JUMP JUMPDEST PUSH2 0x1B69 JUMP JUMPDEST PUSH1 0x40 MLOAD PUSH2 0x72D SWAP2 SWAP1 PUSH2 0x29C1 JUMP JUMPDEST PUSH1 0x40 MLOAD DUP1 SWAP2 SUB SWAP1 RETURN JUMPDEST PUSH2 0x750 PUSH1 0x4 DUP1 CALLDATASIZE SUB DUP2 ADD SWAP1 PUSH2 0x74B SWAP2 SWAP1 PUSH2 0x2D0F JUMP JUMPDEST PUSH2 0x1B81 JUMP JUMPDEST STOP JUMPDEST PUSH2 0x75A PUSH2 0x1C9D JUMP JUMPDEST PUSH1 0x40 MLOAD PUSH2 0x767 SWAP2 SWAP1 PUSH2 0x2A21 JUMP JUMPDEST PUSH1 0x40 MLOAD DUP1 SWAP2 SUB SWAP1 RETURN JUMPDEST PUSH2 0x78A PUSH1 0x4 DUP1 CALLDATASIZE SUB DUP2 ADD SWAP1 PUSH2 0x785 SWAP2 SWAP1 PUSH2 0x2985 JUMP JUMPDEST PUSH2 0x1CC3 JUMP JUMPDEST PUSH1 0x40 MLOAD PUSH2 0x797 SWAP2 SWAP1 PUSH2 0x29C1 JUMP JUMPDEST PUSH1 0x40 MLOAD DUP1 SWAP2 SUB SWAP1 RETURN JUMPDEST PUSH2 0x7BA PUSH1 0x4 DUP1 CALLDATASIZE SUB DUP2 ADD SWAP1 PUSH2 0x7B5 SWAP2 SWAP1 PUSH2 0x2985 JUMP JUMPDEST PUSH2 0x1CDB JUMP JUMPDEST PUSH1 0x40 MLOAD PUSH2 0x7C7 SWAP2 SWAP1 PUSH2 0x29C1 JUMP JUMPDEST PUSH1 0x40 MLOAD DUP1 SWAP2 SUB SWAP1 RETURN JUMPDEST PUSH2 0x7D8 PUSH2 0x1CF3 JUMP JUMPDEST PUSH1 0x40 MLOAD PUSH2 0x7E5 SWAP2 SWAP1 PUSH2 0x2A21 JUMP JUMPDEST PUSH1 0x40 MLOAD DUP1 SWAP2 SUB SWAP1 RETURN JUMPDEST PUSH2 0x808 PUSH1 0x4 DUP1 CALLDATASIZE SUB DUP2 ADD SWAP1 PUSH2 0x803 SWAP2 SWAP1 PUSH2 0x2D4F JUMP JUMPDEST PUSH2 0x1D19 JUMP JUMPDEST STOP JUMPDEST PUSH2 0x812 PUSH2 0x1F9E JUMP JUMPDEST PUSH1 0x40 MLOAD PUSH2 0x81F SWAP2 SWAP1 PUSH2 0x29F7 JUMP JUMPDEST PUSH1 0x40 MLOAD DUP1 SWAP2 SUB SWAP1 RETURN JUMPDEST PUSH2 0x842 PUSH1 0x4 DUP1 CALLDATASIZE SUB DUP2 ADD SWAP1 PUSH2 0x83D SWAP2 SWAP1 PUSH2 0x2985 JUMP JUMPDEST PUSH2 0x1FB1 JUMP JUMPDEST STOP JUMPDEST PUSH2 0x84C PUSH2 0x21C1 JUMP JUMPDEST PUSH1 0x40 MLOAD PUSH2 0x859 SWAP2 SWAP1 PUSH2 0x29F7 JUMP JUMPDEST PUSH1 0x40 MLOAD DUP1 SWAP2 SUB SWAP1 RETURN JUMPDEST PUSH2 0x87C PUSH1 0x4 DUP1 CALLDATASIZE SUB DUP2 ADD SWAP1 PUSH2 0x877 SWAP2 SWAP1 PUSH2 0x2DF1 JUMP JUMPDEST PUSH2 0x21D4 JUMP JUMPDEST STOP JUMPDEST CALLER PUSH20 0xFFFFFFFFFFFFFFFFFFFFFFFFFFFFFFFFFFFFFFFF AND PUSH1 0x0 DUP1 SLOAD SWAP1 PUSH2 0x100 EXP SWAP1 DIV PUSH20 0xFFFFFFFFFFFFFFFFFFFFFFFFFFFFFFFFFFFFFFFF AND PUSH20 0xFFFFFFFFFFFFFFFFFFFFFFFFFFFFFFFFFFFFFFFF AND EQ DUP1 PUSH2 0x923 JUMPI POP CALLER PUSH20 0xFFFFFFFFFFFFFFFFFFFFFFFFFFFFFFFFFFFFFFFF AND PUSH1 0x0 DUP1 SLOAD SWAP1 PUSH2 0x100 EXP SWAP1 DIV PUSH20 0xFFFFFFFFFFFFFFFFFFFFFFFFFFFFFFFFFFFFFFFF AND PUSH20 0xFFFFFFFFFFFFFFFFFFFFFFFFFFFFFFFFFFFFFFFF AND EQ JUMPDEST PUSH2 0x962 JUMPI PUSH1 0x40 MLOAD PUSH32 0x8C379A000000000000000000000000000000000000000000000000000000000 DUP2 MSTORE PUSH1 0x4 ADD PUSH2 0x959 SWAP1 PUSH2 0x2E90 JUMP JUMPDEST PUSH1 0x40 MLOAD DUP1 SWAP2 SUB SWAP1 REVERT JUMPDEST DUP1 PUSH1 0xA DUP2 SWAP1 SSTORE POP POP JUMP JUMPDEST PUSH1 0x15 PUSH1 0x20 MSTORE DUP1 PUSH1 0x0 MSTORE PUSH1 0x40 PUSH1 0x0 KECCAK256 PUSH1 0x0 SWAP2 POP SWAP1 POP SLOAD DUP2 JUMP JUMPDEST CALLER PUSH20 0xFFFFFFFFFFFFFFFFFFFFFFFFFFFFFFFFFFFFFFFF AND PUSH1 0x0 DUP1 SLOAD SWAP1 PUSH2 0x100 EXP SWAP1 DIV PUSH20 0xFFFFFFFFFFFFFFFFFFFFFFFFFFFFFFFFFFFFFFFF AND PUSH20 0xFFFFFFFFFFFFFFFFFFFFFFFFFFFFFFFFFFFFFFFF AND EQ DUP1 PUSH2 0xA29 JUMPI POP CALLER PUSH20 0xFFFFFFFFFFFFFFFFFFFFFFFFFFFFFFFFFFFFFFFF AND PUSH1 0x0 DUP1 SLOAD SWAP1 PUSH2 0x100 EXP SWAP1 DIV PUSH20 0xFFFFFFFFFFFFFFFFFFFFFFFFFFFFFFFFFFFFFFFF AND PUSH20 0xFFFFFFFFFFFFFFFFFFFFFFFFFFFFFFFFFFFFFFFF AND EQ JUMPDEST PUSH2 0xA68 JUMPI PUSH1 0x40 MLOAD PUSH32 0x8C379A000000000000000000000000000000000000000000000000000000000 DUP2 MSTORE PUSH1 0x4 ADD PUSH2 0xA5F SWAP1 PUSH2 0x2E90 JUMP JUMPDEST PUSH1 0x40 MLOAD DUP1 SWAP2 SUB SWAP1 REVERT JUMPDEST DUP1 PUSH1 0x2 PUSH1 0x0 PUSH2 0x100 EXP DUP2 SLOAD DUP2 PUSH20 0xFFFFFFFFFFFFFFFFFFFFFFFFFFFFFFFFFFFFFFFF MUL NOT AND SWAP1 DUP4 PUSH20 0xFFFFFFFFFFFFFFFFFFFFFFFFFFFFFFFFFFFFFFFF AND MUL OR SWAP1 SSTORE POP POP JUMP JUMPDEST PUSH1 0x0 DUP1 PUSH1 0x3 PUSH1 0x0 SWAP1 SLOAD SWAP1 PUSH2 0x100 EXP SWAP1 DIV PUSH20 0xFFFFFFFFFFFFFFFFFFFFFFFFFFFFFFFFFFFFFFFF AND PUSH20 0xFFFFFFFFFFFFFFFFFFFFFFFFFFFFFFFFFFFFFFFF AND PUSH4 0xC280444 PUSH1 0x40 MLOAD DUP2 PUSH4 0xFFFFFFFF AND PUSH1 0xE0 SHL DUP2 MSTORE PUSH1 0x4 ADD PUSH1 0x20 PUSH1 0x40 MLOAD DUP1 DUP4 SUB DUP2 DUP7 GAS STATICCALL ISZERO DUP1 ISZERO PUSH2 0xB1C JUMPI RETURNDATASIZE PUSH1 0x0 DUP1 RETURNDATACOPY RETURNDATASIZE PUSH1 0x0 REVERT JUMPDEST POP POP POP POP PUSH1 0x40 MLOAD RETURNDATASIZE PUSH1 0x1F NOT PUSH1 0x1F DUP3 ADD AND DUP3 ADD DUP1 PUSH1 0x40 MSTORE POP DUP2 ADD SWAP1 PUSH2 0xB40 SWAP2 SWAP1 PUSH2 0x2EC5 JUMP JUMPDEST SWAP1 POP DUP1 SWAP2 POP POP SWAP1 JUMP JUMPDEST PUSH1 0x17 PUSH1 0x20 MSTORE DUP1 PUSH1 0x0 MSTORE PUSH1 0x40 PUSH1 0x0 KECCAK256 PUSH1 0x0 SWAP2 POP SLOAD SWAP1 PUSH2 0x100 EXP SWAP1 DIV PUSH1 0xFF AND DUP2 JUMP JUMPDEST PUSH1 0x13 PUSH1 0x20 MSTORE DUP1 PUSH1 0x0 MSTORE PUSH1 0x40 PUSH1 0x0 KECCAK256 PUSH1 0x0 SWAP2 POP SWAP1 POP SLOAD DUP2 JUMP JUMPDEST PUSH1 0x9 SLOAD DUP2 JUMP JUMPDEST PUSH1 0xD PUSH1 0x20 MSTORE DUP1 PUSH1 0x0 MSTORE PUSH1 0x40 PUSH1 0x0 KECCAK256 PUSH1 0x0 SWAP2 POP SWAP1 POP SLOAD DUP2 JUMP JUMPDEST CALLER PUSH20 0xFFFFFFFFFFFFFFFFFFFFFFFFFFFFFFFFFFFFFFFF AND PUSH1 0x0 DUP1 SLOAD SWAP1 PUSH2 0x100 EXP SWAP1 DIV PUSH20 0xFFFFFFFFFFFFFFFFFFFFFFFFFFFFFFFFFFFFFFFF AND PUSH20 0xFFFFFFFFFFFFFFFFFFFFFFFFFFFFFFFFFFFFFFFF AND EQ DUP1 PUSH2 0xC44 JUMPI POP CALLER PUSH20 0xFFFFFFFFFFFFFFFFFFFFFFFFFFFFFFFFFFFFFFFF AND PUSH1 0x0 DUP1 SLOAD SWAP1 PUSH2 0x100 EXP SWAP1 DIV PUSH20 0xFFFFFFFFFFFFFFFFFFFFFFFFFFFFFFFFFFFFFFFF AND PUSH20 0xFFFFFFFFFFFFFFFFFFFFFFFFFFFFFFFFFFFFFFFF AND EQ JUMPDEST PUSH2 0xC83 JUMPI PUSH1 0x40 MLOAD PUSH32 0x8C379A000000000000000000000000000000000000000000000000000000000 DUP2 MSTORE PUSH1 0x4 ADD PUSH2 0xC7A SWAP1 PUSH2 0x2E90 JUMP JUMPDEST PUSH1 0x40 MLOAD DUP1 SWAP2 SUB SWAP1 REVERT JUMPDEST DUP1 PUSH1 0x4 PUSH1 0x0 PUSH2 0x100 EXP DUP2 SLOAD DUP2 PUSH20 0xFFFFFFFFFFFFFFFFFFFFFFFFFFFFFFFFFFFFFFFF MUL NOT AND SWAP1 DUP4 PUSH20 0xFFFFFFFFFFFFFFFFFFFFFFFFFFFFFFFFFFFFFFFF AND MUL OR SWAP1 SSTORE POP POP JUMP JUMPDEST PUSH1 0xB PUSH1 0x20 MSTORE DUP1 PUSH1 0x0 MSTORE PUSH1 0x40 PUSH1 0x0 KECCAK256 PUSH1 0x0 SWAP2 POP SLOAD SWAP1 PUSH2 0x100 EXP SWAP1 DIV PUSH20 0xFFFFFFFFFFFFFFFFFFFFFFFFFFFFFFFFFFFFFFFF AND DUP2 JUMP JUMPDEST CALLER PUSH20 0xFFFFFFFFFFFFFFFFFFFFFFFFFFFFFFFFFFFFFFFF AND PUSH1 0x0 DUP1 SLOAD SWAP1 PUSH2 0x100 EXP SWAP1 DIV PUSH20 0xFFFFFFFFFFFFFFFFFFFFFFFFFFFFFFFFFFFFFFFF AND PUSH20 0xFFFFFFFFFFFFFFFFFFFFFFFFFFFFFFFFFFFFFFFF AND EQ DUP1 PUSH2 0xD9F JUMPI POP CALLER PUSH20 0xFFFFFFFFFFFFFFFFFFFFFFFFFFFFFFFFFFFFFFFF AND PUSH1 0x0 DUP1 SLOAD SWAP1 PUSH2 0x100 EXP SWAP1 DIV PUSH20 0xFFFFFFFFFFFFFFFFFFFFFFFFFFFFFFFFFFFFFFFF AND PUSH20 0xFFFFFFFFFFFFFFFFFFFFFFFFFFFFFFFFFFFFFFFF AND EQ JUMPDEST PUSH2 0xDDE JUMPI PUSH1 0x40 MLOAD PUSH32 0x8C379A000000000000000000000000000000000000000000000000000000000 DUP2 MSTORE PUSH1 0x4 ADD PUSH2 0xDD5 SWAP1 PUSH2 0x2E90 JUMP JUMPDEST PUSH1 0x40 MLOAD DUP1 SWAP2 SUB SWAP1 REVERT JUMPDEST DUP1 PUSH1 0x5 PUSH1 0x0 PUSH2 0x100 EXP DUP2 SLOAD DUP2 PUSH20 0xFFFFFFFFFFFFFFFFFFFFFFFFFFFFFFFFFFFFFFFF MUL NOT AND SWAP1 DUP4 PUSH20 0xFFFFFFFFFFFFFFFFFFFFFFFFFFFFFFFFFFFFFFFF AND MUL OR SWAP1 SSTORE POP POP JUMP JUMPDEST PUSH1 0xA SLOAD DUP2 JUMP JUMPDEST PUSH1 0x5 PUSH1 0x0 SWAP1 SLOAD SWAP1 PUSH2 0x100 EXP SWAP1 DIV PUSH20 0xFFFFFFFFFFFFFFFFFFFFFFFFFFFFFFFFFFFFFFFF AND DUP2 JUMP JUMPDEST CALLER PUSH20 0xFFFFFFFFFFFFFFFFFFFFFFFFFFFFFFFFFFFFFFFF AND PUSH1 0x0 DUP1 SLOAD SWAP1 PUSH2 0x100 EXP SWAP1 DIV PUSH20 0xFFFFFFFFFFFFFFFFFFFFFFFFFFFFFFFFFFFFFFFF AND PUSH20 0xFFFFFFFFFFFFFFFFFFFFFFFFFFFFFFFFFFFFFFFF AND EQ DUP1 PUSH2 0xEF3 JUMPI POP CALLER PUSH20 0xFFFFFFFFFFFFFFFFFFFFFFFFFFFFFFFFFFFFFFFF AND PUSH1 0x0 DUP1 SLOAD SWAP1 PUSH2 0x100 EXP SWAP1 DIV PUSH20 0xFFFFFFFFFFFFFFFFFFFFFFFFFFFFFFFFFFFFFFFF AND PUSH20 0xFFFFFFFFFFFFFFFFFFFFFFFFFFFFFFFFFFFFFFFF AND EQ JUMPDEST PUSH2 0xF32 JUMPI PUSH1 0x40 MLOAD PUSH32 0x8C379A000000000000000000000000000000000000000000000000000000000 DUP2 MSTORE PUSH1 0x4 ADD PUSH2 0xF29 SWAP1 PUSH2 0x2E90 JUMP JUMPDEST PUSH1 0x40 MLOAD DUP1 SWAP2 SUB SWAP1 REVERT JUMPDEST CALLER PUSH20 0xFFFFFFFFFFFFFFFFFFFFFFFFFFFFFFFFFFFFFFFF AND PUSH2 0x8FC SELFBALANCE SWAP1 DUP2 ISZERO MUL SWAP1 PUSH1 0x40 MLOAD PUSH1 0x0 PUSH1 0x40 MLOAD DUP1 DUP4 SUB DUP2 DUP6 DUP9 DUP9 CALL SWAP4 POP POP POP POP ISZERO DUP1 ISZERO PUSH2 0xF78 JUMPI RETURNDATASIZE PUSH1 0x0 DUP1 RETURNDATACOPY RETURNDATASIZE PUSH1 0x0 REVERT JUMPDEST POP JUMP JUMPDEST CALLER PUSH20 0xFFFFFFFFFFFFFFFFFFFFFFFFFFFFFFFFFFFFFFFF AND PUSH1 0x0 DUP1 SLOAD SWAP1 PUSH2 0x100 EXP SWAP1 DIV PUSH20 0xFFFFFFFFFFFFFFFFFFFFFFFFFFFFFFFFFFFFFFFF AND PUSH20 0xFFFFFFFFFFFFFFFFFFFFFFFFFFFFFFFFFFFFFFFF AND EQ DUP1 PUSH2 0x1020 JUMPI POP CALLER PUSH20 0xFFFFFFFFFFFFFFFFFFFFFFFFFFFFFFFFFFFFFFFF AND PUSH1 0x0 DUP1 SLOAD SWAP1 PUSH2 0x100 EXP SWAP1 DIV PUSH20 0xFFFFFFFFFFFFFFFFFFFFFFFFFFFFFFFFFFFFFFFF AND PUSH20 0xFFFFFFFFFFFFFFFFFFFFFFFFFFFFFFFFFFFFFFFF AND EQ JUMPDEST PUSH2 0x105F JUMPI PUSH1 0x40 MLOAD PUSH32 0x8C379A000000000000000000000000000000000000000000000000000000000 DUP2 MSTORE PUSH1 0x4 ADD PUSH2 0x1056 SWAP1 PUSH2 0x2E90 JUMP JUMPDEST PUSH1 0x40 MLOAD DUP1 SWAP2 SUB SWAP1 REVERT JUMPDEST DUP1 PUSH1 0x6 PUSH1 0x0 PUSH2 0x100 EXP DUP2 SLOAD DUP2 PUSH20 0xFFFFFFFFFFFFFFFFFFFFFFFFFFFFFFFFFFFFFFFF MUL NOT AND SWAP1 DUP4 PUSH20 0xFFFFFFFFFFFFFFFFFFFFFFFFFFFFFFFFFFFFFFFF AND MUL OR SWAP1 SSTORE POP POP JUMP JUMPDEST PUSH1 0x19 DUP2 DUP1 MLOAD PUSH1 0x20 DUP2 ADD DUP3 ADD DUP1 MLOAD DUP5 DUP3 MSTORE PUSH1 0x20 DUP4 ADD PUSH1 0x20 DUP6 ADD KECCAK256 DUP2 DUP4 MSTORE DUP1 SWAP6 POP POP POP POP POP POP PUSH1 0x0 SWAP2 POP SWAP1 POP SLOAD DUP2 JUMP JUMPDEST CALLER PUSH20 0xFFFFFFFFFFFFFFFFFFFFFFFFFFFFFFFFFFFFFFFF AND PUSH1 0x0 DUP1 SLOAD SWAP1 PUSH2 0x100 EXP SWAP1 DIV PUSH20 0xFFFFFFFFFFFFFFFFFFFFFFFFFFFFFFFFFFFFFFFF AND PUSH20 0xFFFFFFFFFFFFFFFFFFFFFFFFFFFFFFFFFFFFFFFF AND EQ DUP1 PUSH2 0x1176 JUMPI POP CALLER PUSH20 0xFFFFFFFFFFFFFFFFFFFFFFFFFFFFFFFFFFFFFFFF AND PUSH1 0x0 DUP1 SLOAD SWAP1 PUSH2 0x100 EXP SWAP1 DIV PUSH20 0xFFFFFFFFFFFFFFFFFFFFFFFFFFFFFFFFFFFFFFFF AND PUSH20 0xFFFFFFFFFFFFFFFFFFFFFFFFFFFFFFFFFFFFFFFF AND EQ JUMPDEST PUSH2 0x11B5 JUMPI PUSH1 0x40 MLOAD PUSH32 0x8C379A000000000000000000000000000000000000000000000000000000000 DUP2 MSTORE PUSH1 0x4 ADD PUSH2 0x11AC SWAP1 PUSH2 0x2E90 JUMP JUMPDEST PUSH1 0x40 MLOAD DUP1 SWAP2 SUB SWAP1 REVERT JUMPDEST DUP2 PUSH20 0xFFFFFFFFFFFFFFFFFFFFFFFFFFFFFFFFFFFFFFFF AND PUSH4 0xA9059CBB CALLER DUP4 PUSH1 0x40 MLOAD DUP4 PUSH4 0xFFFFFFFF AND PUSH1 0xE0 SHL DUP2 MSTORE PUSH1 0x4 ADD PUSH2 0x11F0 SWAP3 SWAP2 SWAP1 PUSH2 0x2EF2 JUMP JUMPDEST PUSH1 0x20 PUSH1 0x40 MLOAD DUP1 DUP4 SUB DUP2 PUSH1 0x0 DUP8 GAS CALL ISZERO DUP1 ISZERO PUSH2 0x120F JUMPI RETURNDATASIZE PUSH1 0x0 DUP1 RETURNDATACOPY RETURNDATASIZE PUSH1 0x0 REVERT JUMPDEST POP POP POP POP PUSH1 0x40 MLOAD RETURNDATASIZE PUSH1 0x1F NOT PUSH1 0x1F DUP3 ADD AND DUP3 ADD DUP1 PUSH1 0x40 MSTORE POP DUP2 ADD SWAP1 PUSH2 0x1233 SWAP2 SWAP1 PUSH2 0x2F30 JUMP JUMPDEST POP POP POP JUMP JUMPDEST PUSH1 0x6 PUSH1 0x0 SWAP1 SLOAD SWAP1 PUSH2 0x100 EXP SWAP1 DIV PUSH20 0xFFFFFFFFFFFFFFFFFFFFFFFFFFFFFFFFFFFFFFFF AND DUP2 JUMP JUMPDEST CALLER PUSH20 0xFFFFFFFFFFFFFFFFFFFFFFFFFFFFFFFFFFFFFFFF AND PUSH1 0x0 DUP1 SLOAD SWAP1 PUSH2 0x100 EXP SWAP1 DIV PUSH20 0xFFFFFFFFFFFFFFFFFFFFFFFFFFFFFFFFFFFFFFFF AND PUSH20 0xFFFFFFFFFFFFFFFFFFFFFFFFFFFFFFFFFFFFFFFF AND EQ DUP1 PUSH2 0x1303 JUMPI POP CALLER PUSH20 0xFFFFFFFFFFFFFFFFFFFFFFFFFFFFFFFFFFFFFFFF AND PUSH1 0x0 DUP1 SLOAD SWAP1 PUSH2 0x100 EXP SWAP1 DIV PUSH20 0xFFFFFFFFFFFFFFFFFFFFFFFFFFFFFFFFFFFFFFFF AND PUSH20 0xFFFFFFFFFFFFFFFFFFFFFFFFFFFFFFFFFFFFFFFF AND EQ JUMPDEST PUSH2 0x1342 JUMPI PUSH1 0x40 MLOAD PUSH32 0x8C379A000000000000000000000000000000000000000000000000000000000 DUP2 MSTORE PUSH1 0x4 ADD PUSH2 0x1339 SWAP1 PUSH2 0x2E90 JUMP JUMPDEST PUSH1 0x40 MLOAD DUP1 SWAP2 SUB SWAP1 REVERT JUMPDEST DUP1 PUSH1 0x3 PUSH1 0x0 PUSH2 0x100 EXP DUP2 SLOAD DUP2 PUSH20 0xFFFFFFFFFFFFFFFFFFFFFFFFFFFFFFFFFFFFFFFF MUL NOT AND SWAP1 DUP4 PUSH20 0xFFFFFFFFFFFFFFFFFFFFFFFFFFFFFFFFFFFFFFFF AND MUL OR SWAP1 SSTORE POP POP JUMP JUMPDEST PUSH1 0x2 PUSH1 0x0 SWAP1 SLOAD SWAP1 PUSH2 0x100 EXP SWAP1 DIV PUSH20 0xFFFFFFFFFFFFFFFFFFFFFFFFFFFFFFFFFFFFFFFF AND DUP2 JUMP JUMPDEST CALLER PUSH20 0xFFFFFFFFFFFFFFFFFFFFFFFFFFFFFFFFFFFFFFFF AND PUSH1 0x0 DUP1 SLOAD SWAP1 PUSH2 0x100 EXP SWAP1 DIV PUSH20 0xFFFFFFFFFFFFFFFFFFFFFFFFFFFFFFFFFFFFFFFF AND PUSH20 0xFFFFFFFFFFFFFFFFFFFFFFFFFFFFFFFFFFFFFFFF AND EQ DUP1 PUSH2 0x1451 JUMPI POP CALLER PUSH20 0xFFFFFFFFFFFFFFFFFFFFFFFFFFFFFFFFFFFFFFFF AND PUSH1 0x0 DUP1 SLOAD SWAP1 PUSH2 0x100 EXP SWAP1 DIV PUSH20 0xFFFFFFFFFFFFFFFFFFFFFFFFFFFFFFFFFFFFFFFF AND PUSH20 0xFFFFFFFFFFFFFFFFFFFFFFFFFFFFFFFFFFFFFFFF AND EQ JUMPDEST PUSH2 0x1490 JUMPI PUSH1 0x40 MLOAD PUSH32 0x8C379A000000000000000000000000000000000000000000000000000000000 DUP2 MSTORE PUSH1 0x4 ADD PUSH2 0x1487 SWAP1 PUSH2 0x2E90 JUMP JUMPDEST PUSH1 0x40 MLOAD DUP1 SWAP2 SUB SWAP1 REVERT JUMPDEST DUP1 PUSH1 0x1 PUSH1 0x0 PUSH2 0x100 EXP DUP2 SLOAD DUP2 PUSH20 0xFFFFFFFFFFFFFFFFFFFFFFFFFFFFFFFFFFFFFFFF MUL NOT AND SWAP1 DUP4 PUSH20 0xFFFFFFFFFFFFFFFFFFFFFFFFFFFFFFFFFFFFFFFF AND MUL OR SWAP1 SSTORE POP POP JUMP JUMPDEST PUSH1 0x14 PUSH1 0x20 MSTORE DUP1 PUSH1 0x0 MSTORE PUSH1 0x40 PUSH1 0x0 KECCAK256 PUSH1 0x0 SWAP2 POP SWAP1 POP SLOAD DUP2 JUMP JUMPDEST PUSH1 0x4 PUSH1 0x0 SWAP1 SLOAD SWAP1 PUSH2 0x100 EXP SWAP1 DIV PUSH20 0xFFFFFFFFFFFFFFFFFFFFFFFFFFFFFFFFFFFFFFFF AND DUP2 JUMP JUMPDEST CALLER PUSH20 0xFFFFFFFFFFFFFFFFFFFFFFFFFFFFFFFFFFFFFFFF AND PUSH1 0x0 DUP1 SLOAD SWAP1 PUSH2 0x100 EXP SWAP1 DIV PUSH20 0xFFFFFFFFFFFFFFFFFFFFFFFFFFFFFFFFFFFFFFFF AND PUSH20 0xFFFFFFFFFFFFFFFFFFFFFFFFFFFFFFFFFFFFFFFF AND EQ DUP1 PUSH2 0x15B7 JUMPI POP CALLER PUSH20 0xFFFFFFFFFFFFFFFFFFFFFFFFFFFFFFFFFFFFFFFF AND PUSH1 0x0 DUP1 SLOAD SWAP1 PUSH2 0x100 EXP SWAP1 DIV PUSH20 0xFFFFFFFFFFFFFFFFFFFFFFFFFFFFFFFFFFFFFFFF AND PUSH20 0xFFFFFFFFFFFFFFFFFFFFFFFFFFFFFFFFFFFFFFFF AND EQ JUMPDEST PUSH2 0x15F6 JUMPI PUSH1 0x40 MLOAD PUSH32 0x8C379A000000000000000000000000000000000000000000000000000000000 DUP2 MSTORE PUSH1 0x4 ADD PUSH2 0x15ED SWAP1 PUSH2 0x2E90 JUMP JUMPDEST PUSH1 0x40 MLOAD DUP1 SWAP2 SUB SWAP1 REVERT JUMPDEST PUSH1 0x17 PUSH1 0x0 DUP3 PUSH20 0xFFFFFFFFFFFFFFFFFFFFFFFFFFFFFFFFFFFFFFFF AND PUSH20 0xFFFFFFFFFFFFFFFFFFFFFFFFFFFFFFFFFFFFFFFF AND DUP2 MSTORE PUSH1 0x20 ADD SWAP1 DUP2 MSTORE PUSH1 0x20 ADD PUSH1 0x0 KECCAK256 PUSH1 0x0 SWAP1 SLOAD SWAP1 PUSH2 0x100 EXP SWAP1 DIV PUSH1 0xFF AND ISZERO PUSH1 0x17 PUSH1 0x0 DUP4 PUSH20 0xFFFFFFFFFFFFFFFFFFFFFFFFFFFFFFFFFFFFFFFF AND PUSH20 0xFFFFFFFFFFFFFFFFFFFFFFFFFFFFFFFFFFFFFFFF AND DUP2 MSTORE PUSH1 0x20 ADD SWAP1 DUP2 MSTORE PUSH1 0x20 ADD PUSH1 0x0 KECCAK256 PUSH1 0x0 PUSH2 0x100 EXP DUP2 SLOAD DUP2 PUSH1 0xFF MUL NOT AND SWAP1 DUP4 ISZERO ISZERO MUL OR SWAP1 SSTORE POP POP JUMP JUMPDEST PUSH1 0x1A DUP2 DUP1 MLOAD PUSH1 0x20 DUP2 ADD DUP3 ADD DUP1 MLOAD DUP5 DUP3 MSTORE PUSH1 0x20 DUP4 ADD PUSH1 0x20 DUP6 ADD KECCAK256 DUP2 DUP4 MSTORE DUP1 SWAP6 POP POP POP POP POP POP PUSH1 0x0 SWAP2 POP SLOAD SWAP1 PUSH2 0x100 EXP SWAP1 DIV PUSH1 0xFF AND DUP2 JUMP JUMPDEST PUSH1 0x8 SLOAD DUP2 JUMP JUMPDEST PUSH1 0x11 PUSH1 0x20 MSTORE DUP1 PUSH1 0x0 MSTORE PUSH1 0x40 PUSH1 0x0 KECCAK256 PUSH1 0x0 SWAP2 POP SWAP1 POP SLOAD DUP2 JUMP JUMPDEST PUSH1 0x0 DUP1 PUSH1 0x0 SWAP1 SLOAD SWAP1 PUSH2 0x100 EXP SWAP1 DIV PUSH20 0xFFFFFFFFFFFFFFFFFFFFFFFFFFFFFFFFFFFFFFFF AND SWAP1 POP SWAP1 JUMP JUMPDEST CALLER PUSH20 0xFFFFFFFFFFFFFFFFFFFFFFFFFFFFFFFFFFFFFFFF AND PUSH1 0x0 DUP1 SLOAD SWAP1 PUSH2 0x100 EXP SWAP1 DIV PUSH20 0xFFFFFFFFFFFFFFFFFFFFFFFFFFFFFFFFFFFFFFFF AND PUSH20 0xFFFFFFFFFFFFFFFFFFFFFFFFFFFFFFFFFFFFFFFF AND EQ DUP1 PUSH2 0x17BF JUMPI POP CALLER PUSH20 0xFFFFFFFFFFFFFFFFFFFFFFFFFFFFFFFFFFFFFFFF AND PUSH1 0x0 DUP1 SLOAD SWAP1 PUSH2 0x100 EXP SWAP1 DIV PUSH20 0xFFFFFFFFFFFFFFFFFFFFFFFFFFFFFFFFFFFFFFFF AND PUSH20 0xFFFFFFFFFFFFFFFFFFFFFFFFFFFFFFFFFFFFFFFF AND EQ JUMPDEST PUSH2 0x17FE JUMPI PUSH1 0x40 MLOAD PUSH32 0x8C379A000000000000000000000000000000000000000000000000000000000 DUP2 MSTORE PUSH1 0x4 ADD PUSH2 0x17F5 SWAP1 PUSH2 0x2E90 JUMP JUMPDEST PUSH1 0x40 MLOAD DUP1 SWAP2 SUB SWAP1 REVERT JUMPDEST PUSH1 0x0 PUSH1 0xF PUSH1 0x0 CALLER PUSH20 0xFFFFFFFFFFFFFFFFFFFFFFFFFFFFFFFFFFFFFFFF AND PUSH20 0xFFFFFFFFFFFFFFFFFFFFFFFFFFFFFFFFFFFFFFFF AND DUP2 MSTORE PUSH1 0x20 ADD SWAP1 DUP2 MSTORE PUSH1 0x20 ADD PUSH1 0x0 KECCAK256 SLOAD GT PUSH2 0x1880 JUMPI PUSH1 0x40 MLOAD PUSH32 0x8C379A000000000000000000000000000000000000000000000000000000000 DUP2 MSTORE PUSH1 0x4 ADD PUSH2 0x1877 SWAP1 PUSH2 0x2FA9 JUMP JUMPDEST PUSH1 0x40 MLOAD DUP1 SWAP2 SUB SWAP1 REVERT JUMPDEST PUSH1 0x2 PUSH1 0x0 SWAP1 SLOAD SWAP1 PUSH2 0x100 EXP SWAP1 DIV PUSH20 0xFFFFFFFFFFFFFFFFFFFFFFFFFFFFFFFFFFFFFFFF AND PUSH20 0xFFFFFFFFFFFFFFFFFFFFFFFFFFFFFFFFFFFFFFFF AND PUSH4 0xA9059CBB CALLER DUP4 PUSH1 0x40 MLOAD DUP4 PUSH4 0xFFFFFFFF AND PUSH1 0xE0 SHL DUP2 MSTORE PUSH1 0x4 ADD PUSH2 0x18DD SWAP3 SWAP2 SWAP1 PUSH2 0x2EF2 JUMP JUMPDEST PUSH1 0x20 PUSH1 0x40 MLOAD DUP1 DUP4 SUB DUP2 PUSH1 0x0 DUP8 GAS CALL ISZERO DUP1 ISZERO PUSH2 0x18FC JUMPI RETURNDATASIZE PUSH1 0x0 DUP1 RETURNDATACOPY RETURNDATASIZE PUSH1 0x0 REVERT JUMPDEST POP POP POP POP PUSH1 0x40 MLOAD RETURNDATASIZE PUSH1 0x1F NOT PUSH1 0x1F DUP3 ADD AND DUP3 ADD DUP1 PUSH1 0x40 MSTORE POP DUP2 ADD SWAP1 PUSH2 0x1920 SWAP2 SWAP1 PUSH2 0x2F30 JUMP JUMPDEST POP PUSH1 0x0 PUSH1 0xF PUSH1 0x0 CALLER PUSH20 0xFFFFFFFFFFFFFFFFFFFFFFFFFFFFFFFFFFFFFFFF AND PUSH20 0xFFFFFFFFFFFFFFFFFFFFFFFFFFFFFFFFFFFFFFFF AND DUP2 MSTORE PUSH1 0x20 ADD SWAP1 DUP2 MSTORE PUSH1 0x20 ADD PUSH1 0x0 KECCAK256 DUP2 SWAP1 SSTORE POP PUSH1 0x0 PUSH1 0x13 PUSH1 0x0 CALLER PUSH20 0xFFFFFFFFFFFFFFFFFFFFFFFFFFFFFFFFFFFFFFFF AND PUSH20 0xFFFFFFFFFFFFFFFFFFFFFFFFFFFFFFFFFFFFFFFF AND DUP2 MSTORE PUSH1 0x20 ADD SWAP1 DUP2 MSTORE PUSH1 0x20 ADD PUSH1 0x0 KECCAK256 DUP2 SWAP1 SSTORE POP PUSH1 0x0 PUSH1 0x15 PUSH1 0x0 CALLER PUSH20 0xFFFFFFFFFFFFFFFFFFFFFFFFFFFFFFFFFFFFFFFF AND PUSH20 0xFFFFFFFFFFFFFFFFFFFFFFFFFFFFFFFFFFFFFFFF AND DUP2 MSTORE PUSH1 0x20 ADD SWAP1 DUP2 MSTORE PUSH1 0x20 ADD PUSH1 0x0 KECCAK256 DUP2 SWAP1 SSTORE POP PUSH1 0x0 PUSH1 0x12 PUSH1 0x0 CALLER PUSH20 0xFFFFFFFFFFFFFFFFFFFFFFFFFFFFFFFFFFFFFFFF AND PUSH20 0xFFFFFFFFFFFFFFFFFFFFFFFFFFFFFFFFFFFFFFFF AND DUP2 MSTORE PUSH1 0x20 ADD SWAP1 DUP2 MSTORE PUSH1 0x20 ADD PUSH1 0x0 KECCAK256 DUP2 SWAP1 SSTORE POP PUSH1 0x0 PUSH1 0x16 PUSH1 0x0 CALLER PUSH20 0xFFFFFFFFFFFFFFFFFFFFFFFFFFFFFFFFFFFFFFFF AND PUSH20 0xFFFFFFFFFFFFFFFFFFFFFFFFFFFFFFFFFFFFFFFF AND DUP2 MSTORE PUSH1 0x20 ADD SWAP1 DUP2 MSTORE PUSH1 0x20 ADD PUSH1 0x0 KECCAK256 DUP2 SWAP1 SSTORE POP POP JUMP JUMPDEST PUSH1 0x18 DUP2 DUP1 MLOAD PUSH1 0x20 DUP2 ADD DUP3 ADD DUP1 MLOAD DUP5 DUP3 MSTORE PUSH1 0x20 DUP4 ADD PUSH1 0x20 DUP6 ADD KECCAK256 DUP2 DUP4 MSTORE DUP1 SWAP6 POP POP POP POP POP POP PUSH1 0x0 SWAP2 POP SWAP1 POP DUP1 SLOAD PUSH2 0x1AB2 SWAP1 PUSH2 0x2FF8 JUMP JUMPDEST DUP1 PUSH1 0x1F ADD PUSH1 0x20 DUP1 SWAP2 DIV MUL PUSH1 0x20 ADD PUSH1 0x40 MLOAD SWAP1 DUP2 ADD PUSH1 0x40 MSTORE DUP1 SWAP3 SWAP2 SWAP1 DUP2 DUP2 MSTORE PUSH1 0x20 ADD DUP3 DUP1 SLOAD PUSH2 0x1ADE SWAP1 PUSH2 0x2FF8 JUMP JUMPDEST DUP1 ISZERO PUSH2 0x1B2B JUMPI DUP1 PUSH1 0x1F LT PUSH2 0x1B00 JUMPI PUSH2 0x100 DUP1 DUP4 SLOAD DIV MUL DUP4 MSTORE SWAP2 PUSH1 0x20 ADD SWAP2 PUSH2 0x1B2B JUMP JUMPDEST DUP3 ADD SWAP2 SWAP1 PUSH1 0x0 MSTORE PUSH1 0x20 PUSH1 0x0 KECCAK256 SWAP1 JUMPDEST DUP2 SLOAD DUP2 MSTORE SWAP1 PUSH1 0x1 ADD SWAP1 PUSH1 0x20 ADD DUP1 DUP4 GT PUSH2 0x1B0E JUMPI DUP3 SWAP1 SUB PUSH1 0x1F AND DUP3 ADD SWAP2 JUMPDEST POP POP POP POP POP DUP2 JUMP JUMPDEST PUSH1 0xF PUSH1 0x20 MSTORE DUP1 PUSH1 0x0 MSTORE PUSH1 0x40 PUSH1 0x0 KECCAK256 PUSH1 0x0 SWAP2 POP SWAP1 POP SLOAD DUP2 JUMP JUMPDEST PUSH1 0x12 PUSH1 0x20 MSTORE DUP1 PUSH1 0x0 MSTORE PUSH1 0x40 PUSH1 0x0 KECCAK256 PUSH1 0x0 SWAP2 POP SWAP1 POP SLOAD DUP2 JUMP JUMPDEST PUSH1 0x7 SLOAD DUP2 JUMP JUMPDEST PUSH1 0x10 PUSH1 0x20 MSTORE DUP1 PUSH1 0x0 MSTORE PUSH1 0x40 PUSH1 0x0 KECCAK256 PUSH1 0x0 SWAP2 POP SWAP1 POP SLOAD DUP2 JUMP JUMPDEST CALLER PUSH20 0xFFFFFFFFFFFFFFFFFFFFFFFFFFFFFFFFFFFFFFFF AND PUSH1 0x0 DUP1 SLOAD SWAP1 PUSH2 0x100 EXP SWAP1 DIV PUSH20 0xFFFFFFFFFFFFFFFFFFFFFFFFFFFFFFFFFFFFFFFF AND PUSH20 0xFFFFFFFFFFFFFFFFFFFFFFFFFFFFFFFFFFFFFFFF AND EQ DUP1 PUSH2 0x1C26 JUMPI POP CALLER PUSH20 0xFFFFFFFFFFFFFFFFFFFFFFFFFFFFFFFFFFFFFFFF AND PUSH1 0x0 DUP1 SLOAD SWAP1 PUSH2 0x100 EXP SWAP1 DIV PUSH20 0xFFFFFFFFFFFFFFFFFFFFFFFFFFFFFFFFFFFFFFFF AND PUSH20 0xFFFFFFFFFFFFFFFFFFFFFFFFFFFFFFFFFFFFFFFF AND EQ JUMPDEST PUSH2 0x1C65 JUMPI PUSH1 0x40 MLOAD PUSH32 0x8C379A000000000000000000000000000000000000000000000000000000000 DUP2 MSTORE PUSH1 0x4 ADD PUSH2 0x1C5C SWAP1 PUSH2 0x2E90 JUMP JUMPDEST PUSH1 0x40 MLOAD DUP1 SWAP2 SUB SWAP1 REVERT JUMPDEST DUP2 PUSH1 0xE PUSH1 0x0 PUSH2 0x100 EXP DUP2 SLOAD DUP2 PUSH1 0xFF MUL NOT AND SWAP1 DUP4 ISZERO ISZERO MUL OR SWAP1 SSTORE POP DUP1 PUSH1 0xE PUSH1 0x1 PUSH2 0x100 EXP DUP2 SLOAD DUP2 PUSH1 0xFF MUL NOT AND SWAP1 DUP4 ISZERO ISZERO MUL OR SWAP1 SSTORE POP POP POP JUMP JUMPDEST PUSH1 0x1 PUSH1 0x0 SWAP1 SLOAD SWAP1 PUSH2 0x100 EXP SWAP1 DIV PUSH20 0xFFFFFFFFFFFFFFFFFFFFFFFFFFFFFFFFFFFFFFFF AND DUP2 JUMP JUMPDEST PUSH1 0x16 PUSH1 0x20 MSTORE DUP1 PUSH1 0x0 MSTORE PUSH1 0x40 PUSH1 0x0 KECCAK256 PUSH1 0x0 SWAP2 POP SWAP1 POP SLOAD DUP2 JUMP JUMPDEST PUSH1 0xC PUSH1 0x20 MSTORE DUP1 PUSH1 0x0 MSTORE PUSH1 0x40 PUSH1 0x0 KECCAK256 PUSH1 0x0 SWAP2 POP SWAP1 POP SLOAD DUP2 JUMP JUMPDEST PUSH1 0x3 PUSH1 0x0 SWAP1 SLOAD SWAP1 PUSH2 0x100 EXP SWAP1 DIV PUSH20 0xFFFFFFFFFFFFFFFFFFFFFFFFFFFFFFFFFFFFFFFF AND DUP2 JUMP JUMPDEST CALLER PUSH20 0xFFFFFFFFFFFFFFFFFFFFFFFFFFFFFFFFFFFFFFFF AND PUSH1 0x0 DUP1 SLOAD SWAP1 PUSH2 0x100 EXP SWAP1 DIV PUSH20 0xFFFFFFFFFFFFFFFFFFFFFFFFFFFFFFFFFFFFFFFF AND PUSH20 0xFFFFFFFFFFFFFFFFFFFFFFFFFFFFFFFFFFFFFFFF AND EQ DUP1 PUSH2 0x1DBE JUMPI POP CALLER PUSH20 0xFFFFFFFFFFFFFFFFFFFFFFFFFFFFFFFFFFFFFFFF AND PUSH1 0x0 DUP1 SLOAD SWAP1 PUSH2 0x100 EXP SWAP1 DIV PUSH20 0xFFFFFFFFFFFFFFFFFFFFFFFFFFFFFFFFFFFFFFFF AND PUSH20 0xFFFFFFFFFFFFFFFFFFFFFFFFFFFFFFFFFFFFFFFF AND EQ JUMPDEST PUSH2 0x1DFD JUMPI PUSH1 0x40 MLOAD PUSH32 0x8C379A000000000000000000000000000000000000000000000000000000000 DUP2 MSTORE PUSH1 0x4 ADD PUSH2 0x1DF4 SWAP1 PUSH2 0x2E90 JUMP JUMPDEST PUSH1 0x40 MLOAD DUP1 SWAP2 SUB SWAP1 REVERT JUMPDEST DUP6 PUSH1 0xF PUSH1 0x0 DUP10 PUSH20 0xFFFFFFFFFFFFFFFFFFFFFFFFFFFFFFFFFFFFFFFF AND PUSH20 0xFFFFFFFFFFFFFFFFFFFFFFFFFFFFFFFFFFFFFFFF AND DUP2 MSTORE PUSH1 0x20 ADD SWAP1 DUP2 MSTORE PUSH1 0x20 ADD PUSH1 0x0 KECCAK256 DUP2 SWAP1 SSTORE POP DUP5 PUSH1 0x12 PUSH1 0x0 DUP10 PUSH20 0xFFFFFFFFFFFFFFFFFFFFFFFFFFFFFFFFFFFFFFFF AND PUSH20 0xFFFFFFFFFFFFFFFFFFFFFFFFFFFFFFFFFFFFFFFF AND DUP2 MSTORE PUSH1 0x20 ADD SWAP1 DUP2 MSTORE PUSH1 0x20 ADD PUSH1 0x0 KECCAK256 DUP2 SWAP1 SSTORE POP DUP4 PUSH1 0x13 PUSH1 0x0 DUP10 PUSH20 0xFFFFFFFFFFFFFFFFFFFFFFFFFFFFFFFFFFFFFFFF AND PUSH20 0xFFFFFFFFFFFFFFFFFFFFFFFFFFFFFFFFFFFFFFFF AND DUP2 MSTORE PUSH1 0x20 ADD SWAP1 DUP2 MSTORE PUSH1 0x20 ADD PUSH1 0x0 KECCAK256 DUP2 SWAP1 SSTORE POP DUP3 PUSH1 0x14 PUSH1 0x0 DUP10 PUSH20 0xFFFFFFFFFFFFFFFFFFFFFFFFFFFFFFFFFFFFFFFF AND PUSH20 0xFFFFFFFFFFFFFFFFFFFFFFFFFFFFFFFFFFFFFFFF AND DUP2 MSTORE PUSH1 0x20 ADD SWAP1 DUP2 MSTORE PUSH1 0x20 ADD PUSH1 0x0 KECCAK256 DUP2 SWAP1 SSTORE POP DUP2 PUSH1 0x16 PUSH1 0x0 DUP10 PUSH20 0xFFFFFFFFFFFFFFFFFFFFFFFFFFFFFFFFFFFFFFFF AND PUSH20 0xFFFFFFFFFFFFFFFFFFFFFFFFFFFFFFFFFFFFFFFF AND DUP2 MSTORE PUSH1 0x20 ADD SWAP1 DUP2 MSTORE PUSH1 0x20 ADD PUSH1 0x0 KECCAK256 DUP2 SWAP1 SSTORE POP DUP1 PUSH1 0x15 PUSH1 0x0 DUP10 PUSH20 0xFFFFFFFFFFFFFFFFFFFFFFFFFFFFFFFFFFFFFFFF AND PUSH20 0xFFFFFFFFFFFFFFFFFFFFFFFFFFFFFFFFFFFFFFFF AND DUP2 MSTORE PUSH1 0x20 ADD SWAP1 DUP2 MSTORE PUSH1 0x20 ADD PUSH1 0x0 KECCAK256 DUP2 SWAP1 SSTORE POP POP POP POP POP POP POP POP JUMP JUMPDEST PUSH1 0xE PUSH1 0x1 SWAP1 SLOAD SWAP1 PUSH2 0x100 EXP SWAP1 DIV PUSH1 0xFF AND DUP2 JUMP JUMPDEST CALLER PUSH20 0xFFFFFFFFFFFFFFFFFFFFFFFFFFFFFFFFFFFFFFFF AND PUSH1 0x0 DUP1 SLOAD SWAP1 PUSH2 0x100 EXP SWAP1 DIV PUSH20 0xFFFFFFFFFFFFFFFFFFFFFFFFFFFFFFFFFFFFFFFF AND PUSH20 0xFFFFFFFFFFFFFFFFFFFFFFFFFFFFFFFFFFFFFFFF AND EQ DUP1 PUSH2 0x2056 JUMPI POP CALLER PUSH20 0xFFFFFFFFFFFFFFFFFFFFFFFFFFFFFFFFFFFFFFFF AND PUSH1 0x0 DUP1 SLOAD SWAP1 PUSH2 0x100 EXP SWAP1 DIV PUSH20 0xFFFFFFFFFFFFFFFFFFFFFFFFFFFFFFFFFFFFFFFF AND PUSH20 0xFFFFFFFFFFFFFFFFFFFFFFFFFFFFFFFFFFFFFFFF AND EQ JUMPDEST PUSH2 0x2095 JUMPI PUSH1 0x40 MLOAD PUSH32 0x8C379A000000000000000000000000000000000000000000000000000000000 DUP2 MSTORE PUSH1 0x4 ADD PUSH2 0x208C SWAP1 PUSH2 0x2E90 JUMP JUMPDEST PUSH1 0x40 MLOAD DUP1 SWAP2 SUB SWAP1 REVERT JUMPDEST PUSH1 0x0 PUSH20 0xFFFFFFFFFFFFFFFFFFFFFFFFFFFFFFFFFFFFFFFF AND DUP2 PUSH20 0xFFFFFFFFFFFFFFFFFFFFFFFFFFFFFFFFFFFFFFFF AND SUB PUSH2 0x2104 JUMPI PUSH1 0x40 MLOAD PUSH32 0x8C379A000000000000000000000000000000000000000000000000000000000 DUP2 MSTORE PUSH1 0x4 ADD PUSH2 0x20FB SWAP1 PUSH2 0x3075 JUMP JUMPDEST PUSH1 0x40 MLOAD DUP1 SWAP2 SUB SWAP1 REVERT JUMPDEST DUP1 PUSH20 0xFFFFFFFFFFFFFFFFFFFFFFFFFFFFFFFFFFFFFFFF AND PUSH1 0x0 DUP1 SLOAD SWAP1 PUSH2 0x100 EXP SWAP1 DIV PUSH20 0xFFFFFFFFFFFFFFFFFFFFFFFFFFFFFFFFFFFFFFFF AND PUSH20 0xFFFFFFFFFFFFFFFFFFFFFFFFFFFFFFFFFFFFFFFF AND PUSH32 0x8BE0079C531659141344CD1FD0A4F28419497F9722A3DAAFE3B4186F6B6457E0 PUSH1 0x40 MLOAD PUSH1 0x40 MLOAD DUP1 SWAP2 SUB SWAP1 LOG3 DUP1 PUSH1 0x0 DUP1 PUSH2 0x100 EXP DUP2 SLOAD DUP2 PUSH20 0xFFFFFFFFFFFFFFFFFFFFFFFFFFFFFFFFFFFFFFFF MUL NOT AND SWAP1 DUP4 PUSH20 0xFFFFFFFFFFFFFFFFFFFFFFFFFFFFFFFFFFFFFFFF AND MUL OR SWAP1 SSTORE POP POP JUMP JUMPDEST PUSH1 0xE PUSH1 0x0 SWAP1 SLOAD SWAP1 PUSH2 0x100 EXP SWAP1 DIV PUSH1 0xFF AND DUP2 JUMP JUMPDEST PUSH1 0xE PUSH1 0x0 SWAP1 SLOAD SWAP1 PUSH2 0x100 EXP SWAP1 DIV PUSH1 0xFF AND PUSH2 0x2223 JUMPI PUSH1 0x40 MLOAD PUSH32 0x8C379A000000000000000000000000000000000000000000000000000000000 DUP2 MSTORE PUSH1 0x4 ADD PUSH2 0x221A SWAP1 PUSH2 0x30E1 JUMP JUMPDEST PUSH1 0x40 MLOAD DUP1 SWAP2 SUB SWAP1 REVERT JUMPDEST PUSH1 0x0 PUSH1 0x10 PUSH1 0x0 CALLER PUSH20 0xFFFFFFFFFFFFFFFFFFFFFFFFFFFFFFFFFFFFFFFF AND PUSH20 0xFFFFFFFFFFFFFFFFFFFFFFFFFFFFFFFFFFFFFFFF AND DUP2 MSTORE PUSH1 0x20 ADD SWAP1 DUP2 MSTORE PUSH1 0x20 ADD PUSH1 0x0 KECCAK256 SLOAD EQ PUSH2 0x22A5 JUMPI PUSH1 0x40 MLOAD PUSH32 0x8C379A000000000000000000000000000000000000000000000000000000000 DUP2 MSTORE PUSH1 0x4 ADD PUSH2 0x229C SWAP1 PUSH2 0x314D JUMP JUMPDEST PUSH1 0x40 MLOAD DUP1 SWAP2 SUB SWAP1 REVERT JUMPDEST PUSH1 0x0 PUSH1 0x11 PUSH1 0x0 CALLER PUSH20 0xFFFFFFFFFFFFFFFFFFFFFFFFFFFFFFFFFFFFFFFF AND PUSH20 0xFFFFFFFFFFFFFFFFFFFFFFFFFFFFFFFFFFFFFFFF AND DUP2 MSTORE PUSH1 0x20 ADD SWAP1 DUP2 MSTORE PUSH1 0x20 ADD PUSH1 0x0 KECCAK256 SLOAD EQ PUSH2 0x2327 JUMPI PUSH1 0x40 MLOAD PUSH32 0x8C379A000000000000000000000000000000000000000000000000000000000 DUP2 MSTORE PUSH1 0x4 ADD PUSH2 0x231E SWAP1 PUSH2 0x31B9 JUMP JUMPDEST PUSH1 0x40 MLOAD DUP1 SWAP2 SUB SWAP1 REVERT JUMPDEST PUSH1 0x0 DUP4 GT PUSH2 0x236A JUMPI PUSH1 0x40 MLOAD PUSH32 0x8C379A000000000000000000000000000000000000000000000000000000000 DUP2 MSTORE PUSH1 0x4 ADD PUSH2 0x2361 SWAP1 PUSH2 0x3225 JUMP JUMPDEST PUSH1 0x40 MLOAD DUP1 SWAP2 SUB SWAP1 REVERT JUMPDEST PUSH1 0x0 DUP3 GT PUSH2 0x23AD JUMPI PUSH1 0x40 MLOAD PUSH32 0x8C379A000000000000000000000000000000000000000000000000000000000 DUP2 MSTORE PUSH1 0x4 ADD PUSH2 0x23A4 SWAP1 PUSH2 0x3291 JUMP JUMPDEST PUSH1 0x40 MLOAD DUP1 SWAP2 SUB SWAP1 REVERT JUMPDEST PUSH1 0x9 SLOAD DUP2 EQ PUSH2 0x23F1 JUMPI PUSH1 0x40 MLOAD PUSH32 0x8C379A000000000000000000000000000000000000000000000000000000000 DUP2 MSTORE PUSH1 0x4 ADD PUSH2 0x23E8 SWAP1 PUSH2 0x32FD JUMP JUMPDEST PUSH1 0x40 MLOAD DUP1 SWAP2 SUB SWAP1 REVERT JUMPDEST PUSH1 0x0 PUSH1 0x1 SWAP1 POP PUSH1 0x4 PUSH1 0x0 SWAP1 SLOAD SWAP1 PUSH2 0x100 EXP SWAP1 DIV PUSH20 0xFFFFFFFFFFFFFFFFFFFFFFFFFFFFFFFFFFFFFFFF AND PUSH20 0xFFFFFFFFFFFFFFFFFFFFFFFFFFFFFFFFFFFFFFFF AND PUSH4 0x23B872DD CALLER ADDRESS DUP8 PUSH1 0x40 MLOAD DUP5 PUSH4 0xFFFFFFFF AND PUSH1 0xE0 SHL DUP2 MSTORE PUSH1 0x4 ADD PUSH2 0x2456 SWAP4 SWAP3 SWAP2 SWAP1 PUSH2 0x331D JUMP JUMPDEST PUSH1 0x20 PUSH1 0x40 MLOAD DUP1 DUP4 SUB DUP2 PUSH1 0x0 DUP8 GAS CALL ISZERO DUP1 ISZERO PUSH2 0x2475 JUMPI RETURNDATASIZE PUSH1 0x0 DUP1 RETURNDATACOPY RETURNDATASIZE PUSH1 0x0 REVERT JUMPDEST POP POP POP POP PUSH1 0x40 MLOAD RETURNDATASIZE PUSH1 0x1F NOT PUSH1 0x1F DUP3 ADD AND DUP3 ADD DUP1 PUSH1 0x40 MSTORE POP DUP2 ADD SWAP1 PUSH2 0x2499 SWAP2 SWAP1 PUSH2 0x2F30 JUMP JUMPDEST POP PUSH1 0x5 PUSH1 0x0 SWAP1 SLOAD SWAP1 PUSH2 0x100 EXP SWAP1 DIV PUSH20 0xFFFFFFFFFFFFFFFFFFFFFFFFFFFFFFFFFFFFFFFF AND PUSH20 0xFFFFFFFFFFFFFFFFFFFFFFFFFFFFFFFFFFFFFFFF AND PUSH4 0x23B872DD CALLER ADDRESS DUP7 PUSH1 0x40 MLOAD DUP5 PUSH4 0xFFFFFFFF AND PUSH1 0xE0 SHL DUP2 MSTORE PUSH1 0x4 ADD PUSH2 0x24F9 SWAP4 SWAP3 SWAP2 SWAP1 PUSH2 0x331D JUMP JUMPDEST PUSH1 0x20 PUSH1 0x40 MLOAD DUP1 DUP4 SUB DUP2 PUSH1 0x0 DUP8 GAS CALL ISZERO DUP1 ISZERO PUSH2 0x2518 JUMPI RETURNDATASIZE PUSH1 0x0 DUP1 RETURNDATACOPY RETURNDATASIZE PUSH1 0x0 REVERT JUMPDEST POP POP POP POP PUSH1 0x40 MLOAD RETURNDATASIZE PUSH1 0x1F NOT PUSH1 0x1F DUP3 ADD AND DUP3 ADD DUP1 PUSH1 0x40 MSTORE POP DUP2 ADD SWAP1 PUSH2 0x253C SWAP2 SWAP1 PUSH2 0x2F30 JUMP JUMPDEST POP PUSH1 0x4 PUSH1 0x0 SWAP1 SLOAD SWAP1 PUSH2 0x100 EXP SWAP1 DIV PUSH20 0xFFFFFFFFFFFFFFFFFFFFFFFFFFFFFFFFFFFFFFFF AND PUSH20 0xFFFFFFFFFFFFFFFFFFFFFFFFFFFFFFFFFFFFFFFF AND PUSH4 0xA9059CBB PUSH1 0x6 PUSH1 0x0 SWAP1 SLOAD SWAP1 PUSH2 0x100 EXP SWAP1 DIV PUSH20 0xFFFFFFFFFFFFFFFFFFFFFFFFFFFFFFFFFFFFFFFF AND DUP7 PUSH1 0x40 MLOAD DUP4 PUSH4 0xFFFFFFFF AND PUSH1 0xE0 SHL DUP2 MSTORE PUSH1 0x4 ADD PUSH2 0x25BC SWAP3 SWAP2 SWAP1 PUSH2 0x2EF2 JUMP JUMPDEST PUSH1 0x20 PUSH1 0x40 MLOAD DUP1 DUP4 SUB DUP2 PUSH1 0x0 DUP8 GAS CALL ISZERO DUP1 ISZERO PUSH2 0x25DB JUMPI RETURNDATASIZE PUSH1 0x0 DUP1 RETURNDATACOPY RETURNDATASIZE PUSH1 0x0 REVERT JUMPDEST POP POP POP POP PUSH1 0x40 MLOAD RETURNDATASIZE PUSH1 0x1F NOT PUSH1 0x1F DUP3 ADD AND DUP3 ADD DUP1 PUSH1 0x40 MSTORE POP DUP2 ADD SWAP1 PUSH2 0x25FF SWAP2 SWAP1 PUSH2 0x2F30 JUMP JUMPDEST POP PUSH1 0x5 PUSH1 0x0 SWAP1 SLOAD SWAP1 PUSH2 0x100 EXP SWAP1 DIV PUSH20 0xFFFFFFFFFFFFFFFFFFFFFFFFFFFFFFFFFFFFFFFF AND PUSH20 0xFFFFFFFFFFFFFFFFFFFFFFFFFFFFFFFFFFFFFFFF AND PUSH4 0xA9059CBB PUSH1 0x6 PUSH1 0x0 SWAP1 SLOAD SWAP1 PUSH2 0x100 EXP SWAP1 DIV PUSH20 0xFFFFFFFFFFFFFFFFFFFFFFFFFFFFFFFFFFFFFFFF AND DUP6 PUSH1 0x40 MLOAD DUP4 PUSH4 0xFFFFFFFF AND PUSH1 0xE0 SHL DUP2 MSTORE PUSH1 0x4 ADD PUSH2 0x267F SWAP3 SWAP2 SWAP1 PUSH2 0x2EF2 JUMP JUMPDEST PUSH1 0x20 PUSH1 0x40 MLOAD DUP1 DUP4 SUB DUP2 PUSH1 0x0 DUP8 GAS CALL ISZERO DUP1 ISZERO PUSH2 0x269E JUMPI RETURNDATASIZE PUSH1 0x0 DUP1 RETURNDATACOPY RETURNDATASIZE PUSH1 0x0 REVERT JUMPDEST POP POP POP POP PUSH1 0x40 MLOAD RETURNDATASIZE PUSH1 0x1F NOT PUSH1 0x1F DUP3 ADD AND DUP3 ADD DUP1 PUSH1 0x40 MSTORE POP DUP2 ADD SWAP1 PUSH2 0x26C2 SWAP2 SWAP1 PUSH2 0x2F30 JUMP JUMPDEST POP DUP4 PUSH1 0x10 PUSH1 0x0 CALLER PUSH20 0xFFFFFFFFFFFFFFFFFFFFFFFFFFFFFFFFFFFFFFFF AND PUSH20 0xFFFFFFFFFFFFFFFFFFFFFFFFFFFFFFFFFFFFFFFF AND DUP2 MSTORE PUSH1 0x20 ADD SWAP1 DUP2 MSTORE PUSH1 0x20 ADD PUSH1 0x0 KECCAK256 DUP2 SWAP1 SSTORE POP DUP3 PUSH1 0x11 PUSH1 0x0 CALLER PUSH20 0xFFFFFFFFFFFFFFFFFFFFFFFFFFFFFFFFFFFFFFFF AND PUSH20 0xFFFFFFFFFFFFFFFFFFFFFFFFFFFFFFFFFFFFFFFF AND DUP2 MSTORE PUSH1 0x20 ADD SWAP1 DUP2 MSTORE PUSH1 0x20 ADD PUSH1 0x0 KECCAK256 DUP2 SWAP1 SSTORE POP TIMESTAMP PUSH1 0x13 PUSH1 0x0 CALLER PUSH20 0xFFFFFFFFFFFFFFFFFFFFFFFFFFFFFFFFFFFFFFFF AND PUSH20 0xFFFFFFFFFFFFFFFFFFFFFFFFFFFFFFFFFFFFFFFF AND DUP2 MSTORE PUSH1 0x20 ADD SWAP1 DUP2 MSTORE PUSH1 0x20 ADD PUSH1 0x0 KECCAK256 DUP2 SWAP1 SSTORE POP TIMESTAMP PUSH1 0x14 PUSH1 0x0 CALLER PUSH20 0xFFFFFFFFFFFFFFFFFFFFFFFFFFFFFFFFFFFFFFFF AND PUSH20 0xFFFFFFFFFFFFFFFFFFFFFFFFFFFFFFFFFFFFFFFF AND DUP2 MSTORE PUSH1 0x20 ADD SWAP1 DUP2 MSTORE PUSH1 0x20 ADD PUSH1 0x0 KECCAK256 DUP2 SWAP1 SSTORE POP DUP2 TIMESTAMP PUSH2 0x27DF SWAP2 SWAP1 PUSH2 0x3383 JUMP JUMPDEST PUSH1 0x15 PUSH1 0x0 CALLER PUSH20 0xFFFFFFFFFFFFFFFFFFFFFFFFFFFFFFFFFFFFFFFF AND PUSH20 0xFFFFFFFFFFFFFFFFFFFFFFFFFFFFFFFFFFFFFFFF AND DUP2 MSTORE PUSH1 0x20 ADD SWAP1 DUP2 MSTORE PUSH1 0x20 ADD PUSH1 0x0 KECCAK256 DUP2 SWAP1 SSTORE POP DUP2 PUSH1 0x12 PUSH1 0x0 CALLER PUSH20 0xFFFFFFFFFFFFFFFFFFFFFFFFFFFFFFFFFFFFFFFF AND PUSH20 0xFFFFFFFFFFFFFFFFFFFFFFFFFFFFFFFFFFFFFFFF AND DUP2 MSTORE PUSH1 0x20 ADD SWAP1 DUP2 MSTORE PUSH1 0x20 ADD PUSH1 0x0 KECCAK256 DUP2 SWAP1 SSTORE POP DUP1 PUSH1 0x16 PUSH1 0x0 CALLER PUSH20 0xFFFFFFFFFFFFFFFFFFFFFFFFFFFFFFFFFFFFFFFF AND PUSH20 0xFFFFFFFFFFFFFFFFFFFFFFFFFFFFFFFFFFFFFFFF AND DUP2 MSTORE PUSH1 0x20 ADD SWAP1 DUP2 MSTORE PUSH1 0x20 ADD PUSH1 0x0 KECCAK256 DUP2 SWAP1 SSTORE POP POP POP POP POP JUMP JUMPDEST PUSH1 0x0 PUSH1 0x40 MLOAD SWAP1 POP SWAP1 JUMP JUMPDEST PUSH1 0x0 DUP1 REVERT JUMPDEST PUSH1 0x0 DUP1 REVERT JUMPDEST PUSH1 0x0 DUP2 SWAP1 POP SWAP2 SWAP1 POP JUMP JUMPDEST PUSH2 0x28D7 DUP2 PUSH2 0x28C4 JUMP JUMPDEST DUP2 EQ PUSH2 0x28E2 JUMPI PUSH1 0x0 DUP1 REVERT JUMPDEST POP JUMP JUMPDEST PUSH1 0x0 DUP2 CALLDATALOAD SWAP1 POP PUSH2 0x28F4 DUP2 PUSH2 0x28CE JUMP JUMPDEST SWAP3 SWAP2 POP POP JUMP JUMPDEST PUSH1 0x0 PUSH1 0x20 DUP3 DUP5 SUB SLT ISZERO PUSH2 0x2910 JUMPI PUSH2 0x290F PUSH2 0x28BA JUMP JUMPDEST JUMPDEST PUSH1 0x0 PUSH2 0x291E DUP5 DUP3 DUP6 ADD PUSH2 0x28E5 JUMP JUMPDEST SWAP2 POP POP SWAP3 SWAP2 POP POP JUMP JUMPDEST PUSH1 0x0 PUSH20 0xFFFFFFFFFFFFFFFFFFFFFFFFFFFFFFFFFFFFFFFF DUP3 AND SWAP1 POP SWAP2 SWAP1 POP JUMP JUMPDEST PUSH1 0x0 PUSH2 0x2952 DUP3 PUSH2 0x2927 JUMP JUMPDEST SWAP1 POP SWAP2 SWAP1 POP JUMP JUMPDEST PUSH2 0x2962 DUP2 PUSH2 0x2947 JUMP JUMPDEST DUP2 EQ PUSH2 0x296D JUMPI PUSH1 0x0 DUP1 REVERT JUMPDEST POP JUMP JUMPDEST PUSH1 0x0 DUP2 CALLDATALOAD SWAP1 POP PUSH2 0x297F DUP2 PUSH2 0x2959 JUMP JUMPDEST SWAP3 SWAP2 POP POP JUMP JUMPDEST PUSH1 0x0 PUSH1 0x20 DUP3 DUP5 SUB SLT ISZERO PUSH2 0x299B JUMPI PUSH2 0x299A PUSH2 0x28BA JUMP JUMPDEST JUMPDEST PUSH1 0x0 PUSH2 0x29A9 DUP5 DUP3 DUP6 ADD PUSH2 0x2970 JUMP JUMPDEST SWAP2 POP POP SWAP3 SWAP2 POP POP JUMP JUMPDEST PUSH2 0x29BB DUP2 PUSH2 0x28C4 JUMP JUMPDEST DUP3 MSTORE POP POP JUMP JUMPDEST PUSH1 0x0 PUSH1 0x20 DUP3 ADD SWAP1 POP PUSH2 0x29D6 PUSH1 0x0 DUP4 ADD DUP5 PUSH2 0x29B2 JUMP JUMPDEST SWAP3 SWAP2 POP POP JUMP JUMPDEST PUSH1 0x0 DUP2 ISZERO ISZERO SWAP1 POP SWAP2 SWAP1 POP JUMP JUMPDEST PUSH2 0x29F1 DUP2 PUSH2 0x29DC JUMP JUMPDEST DUP3 MSTORE POP POP JUMP JUMPDEST PUSH1 0x0 PUSH1 0x20 DUP3 ADD SWAP1 POP PUSH2 0x2A0C PUSH1 0x0 DUP4 ADD DUP5 PUSH2 0x29E8 JUMP JUMPDEST SWAP3 SWAP2 POP POP JUMP JUMPDEST PUSH2 0x2A1B DUP2 PUSH2 0x2947 JUMP JUMPDEST DUP3 MSTORE POP POP JUMP JUMPDEST PUSH1 0x0 PUSH1 0x20 DUP3 ADD SWAP1 POP PUSH2 0x2A36 PUSH1 0x0 DUP4 ADD DUP5 PUSH2 0x2A12 JUMP JUMPDEST SWAP3 SWAP2 POP POP JUMP JUMPDEST PUSH1 0x0 DUP1 REVERT JUMPDEST PUSH1 0x0 DUP1 REVERT JUMPDEST PUSH1 0x0 PUSH1 0x1F NOT PUSH1 0x1F DUP4 ADD AND SWAP1 POP SWAP2 SWAP1 POP JUMP JUMPDEST PUSH32 0x4E487B7100000000000000000000000000000000000000000000000000000000 PUSH1 0x0 MSTORE PUSH1 0x41 PUSH1 0x4 MSTORE PUSH1 0x24 PUSH1 0x0 REVERT JUMPDEST PUSH2 0x2A8F DUP3 PUSH2 0x2A46 JUMP JUMPDEST DUP2 ADD DUP2 DUP2 LT PUSH8 0xFFFFFFFFFFFFFFFF DUP3 GT OR ISZERO PUSH2 0x2AAE JUMPI PUSH2 0x2AAD PUSH2 0x2A57 JUMP JUMPDEST JUMPDEST DUP1 PUSH1 0x40 MSTORE POP POP POP JUMP JUMPDEST PUSH1 0x0 PUSH2 0x2AC1 PUSH2 0x28B0 JUMP JUMPDEST SWAP1 POP PUSH2 0x2ACD DUP3 DUP3 PUSH2 0x2A86 JUMP JUMPDEST SWAP2 SWAP1 POP JUMP JUMPDEST PUSH1 0x0 PUSH8 0xFFFFFFFFFFFFFFFF DUP3 GT ISZERO PUSH2 0x2AED JUMPI PUSH2 0x2AEC PUSH2 0x2A57 JUMP JUMPDEST JUMPDEST PUSH2 0x2AF6 DUP3 PUSH2 0x2A46 JUMP JUMPDEST SWAP1 POP PUSH1 0x20 DUP2 ADD SWAP1 POP SWAP2 SWAP1 POP JUMP JUMPDEST DUP3 DUP2 DUP4 CALLDATACOPY PUSH1 0x0 DUP4 DUP4 ADD MSTORE POP POP POP JUMP JUMPDEST PUSH1 0x0 PUSH2 0x2B25 PUSH2 0x2B20 DUP5 PUSH2 0x2AD2 JUMP JUMPDEST PUSH2 0x2AB7 JUMP JUMPDEST SWAP1 POP DUP3 DUP2 MSTORE PUSH1 0x20 DUP2 ADD DUP5 DUP5 DUP5 ADD GT ISZERO PUSH2 0x2B41 JUMPI PUSH2 0x2B40 PUSH2 0x2A41 JUMP JUMPDEST JUMPDEST PUSH2 0x2B4C DUP5 DUP3 DUP6 PUSH2 0x2B03 JUMP JUMPDEST POP SWAP4 SWAP3 POP POP POP JUMP JUMPDEST PUSH1 0x0 DUP3 PUSH1 0x1F DUP4 ADD SLT PUSH2 0x2B69 JUMPI PUSH2 0x2B68 PUSH2 0x2A3C JUMP JUMPDEST JUMPDEST DUP2 CALLDATALOAD PUSH2 0x2B79 DUP5 DUP3 PUSH1 0x20 DUP7 ADD PUSH2 0x2B12 JUMP JUMPDEST SWAP2 POP POP SWAP3 SWAP2 POP POP JUMP JUMPDEST PUSH1 0x0 PUSH1 0x20 DUP3 DUP5 SUB SLT ISZERO PUSH2 0x2B98 JUMPI PUSH2 0x2B97 PUSH2 0x28BA JUMP JUMPDEST JUMPDEST PUSH1 0x0 DUP3 ADD CALLDATALOAD PUSH8 0xFFFFFFFFFFFFFFFF DUP2 GT ISZERO PUSH2 0x2BB6 JUMPI PUSH2 0x2BB5 PUSH2 0x28BF JUMP JUMPDEST JUMPDEST PUSH2 0x2BC2 DUP5 DUP3 DUP6 ADD PUSH2 0x2B54 JUMP JUMPDEST SWAP2 POP POP SWAP3 SWAP2 POP POP JUMP JUMPDEST PUSH1 0x0 DUP1 PUSH1 0x40 DUP4 DUP6 SUB SLT ISZERO PUSH2 0x2BE2 JUMPI PUSH2 0x2BE1 PUSH2 0x28BA JUMP JUMPDEST JUMPDEST PUSH1 0x0 PUSH2 0x2BF0 DUP6 DUP3 DUP7 ADD PUSH2 0x2970 JUMP JUMPDEST SWAP3 POP POP PUSH1 0x20 PUSH2 0x2C01 DUP6 DUP3 DUP7 ADD PUSH2 0x28E5 JUMP JUMPDEST SWAP2 POP POP SWAP3 POP SWAP3 SWAP1 POP JUMP JUMPDEST PUSH1 0x0 PUSH1 0xFF DUP3 AND SWAP1 POP SWAP2 SWAP1 POP JUMP JUMPDEST PUSH2 0x2C21 DUP2 PUSH2 0x2C0B JUMP JUMPDEST DUP3 MSTORE POP POP JUMP JUMPDEST PUSH1 0x0 PUSH1 0x20 DUP3 ADD SWAP1 POP PUSH2 0x2C3C PUSH1 0x0 DUP4 ADD DUP5 PUSH2 0x2C18 JUMP JUMPDEST SWAP3 SWAP2 POP POP JUMP JUMPDEST PUSH1 0x0 DUP2 MLOAD SWAP1 POP SWAP2 SWAP1 POP JUMP JUMPDEST PUSH1 0x0 DUP3 DUP3 MSTORE PUSH1 0x20 DUP3 ADD SWAP1 POP SWAP3 SWAP2 POP POP JUMP JUMPDEST PUSH1 0x0 JUMPDEST DUP4 DUP2 LT ISZERO PUSH2 0x2C7C JUMPI DUP1 DUP3 ADD MLOAD DUP2 DUP5 ADD MSTORE PUSH1 0x20 DUP2 ADD SWAP1 POP PUSH2 0x2C61 JUMP JUMPDEST PUSH1 0x0 DUP5 DUP5 ADD MSTORE POP POP POP POP JUMP JUMPDEST PUSH1 0x0 PUSH2 0x2C93 DUP3 PUSH2 0x2C42 JUMP JUMPDEST PUSH2 0x2C9D DUP2 DUP6 PUSH2 0x2C4D JUMP JUMPDEST SWAP4 POP PUSH2 0x2CAD DUP2 DUP6 PUSH1 0x20 DUP7 ADD PUSH2 0x2C5E JUMP JUMPDEST PUSH2 0x2CB6 DUP2 PUSH2 0x2A46 JUMP JUMPDEST DUP5 ADD SWAP2 POP POP SWAP3 SWAP2 POP POP JUMP JUMPDEST PUSH1 0x0 PUSH1 0x20 DUP3 ADD SWAP1 POP DUP2 DUP2 SUB PUSH1 0x0 DUP4 ADD MSTORE PUSH2 0x2CDB DUP2 DUP5 PUSH2 0x2C88 JUMP JUMPDEST SWAP1 POP SWAP3 SWAP2 POP POP JUMP JUMPDEST PUSH2 0x2CEC DUP2 PUSH2 0x29DC JUMP JUMPDEST DUP2 EQ PUSH2 0x2CF7 JUMPI PUSH1 0x0 DUP1 REVERT JUMPDEST POP JUMP JUMPDEST PUSH1 0x0 DUP2 CALLDATALOAD SWAP1 POP PUSH2 0x2D09 DUP2 PUSH2 0x2CE3 JUMP JUMPDEST SWAP3 SWAP2 POP POP JUMP JUMPDEST PUSH1 0x0 DUP1 PUSH1 0x40 DUP4 DUP6 SUB SLT ISZERO PUSH2 0x2D26 JUMPI PUSH2 0x2D25 PUSH2 0x28BA JUMP JUMPDEST JUMPDEST PUSH1 0x0 PUSH2 0x2D34 DUP6 DUP3 DUP7 ADD PUSH2 0x2CFA JUMP JUMPDEST SWAP3 POP POP PUSH1 0x20 PUSH2 0x2D45 DUP6 DUP3 DUP7 ADD PUSH2 0x2CFA JUMP JUMPDEST SWAP2 POP POP SWAP3 POP SWAP3 SWAP1 POP JUMP JUMPDEST PUSH1 0x0 DUP1 PUSH1 0x0 DUP1 PUSH1 0x0 DUP1 PUSH1 0x0 PUSH1 0xE0 DUP9 DUP11 SUB SLT ISZERO PUSH2 0x2D6E JUMPI PUSH2 0x2D6D PUSH2 0x28BA JUMP JUMPDEST JUMPDEST PUSH1 0x0 PUSH2 0x2D7C DUP11 DUP3 DUP12 ADD PUSH2 0x2970 JUMP JUMPDEST SWAP8 POP POP PUSH1 0x20 PUSH2 0x2D8D DUP11 DUP3 DUP12 ADD PUSH2 0x28E5 JUMP JUMPDEST SWAP7 POP POP PUSH1 0x40 PUSH2 0x2D9E DUP11 DUP3 DUP12 ADD PUSH2 0x28E5 JUMP JUMPDEST SWAP6 POP POP PUSH1 0x60 PUSH2 0x2DAF DUP11 DUP3 DUP12 ADD PUSH2 0x28E5 JUMP JUMPDEST SWAP5 POP POP PUSH1 0x80 PUSH2 0x2DC0 DUP11 DUP3 DUP12 ADD PUSH2 0x28E5 JUMP JUMPDEST SWAP4 POP POP PUSH1 0xA0 PUSH2 0x2DD1 DUP11 DUP3 DUP12 ADD PUSH2 0x28E5 JUMP JUMPDEST SWAP3 POP POP PUSH1 0xC0 PUSH2 0x2DE2 DUP11 DUP3 DUP12 ADD PUSH2 0x28E5 JUMP JUMPDEST SWAP2 POP POP SWAP3 SWAP6 SWAP9 SWAP2 SWAP5 SWAP8 POP SWAP3 SWAP6 POP JUMP JUMPDEST PUSH1 0x0 DUP1 PUSH1 0x0 PUSH1 0x60 DUP5 DUP7 SUB SLT ISZERO PUSH2 0x2E0A JUMPI PUSH2 0x2E09 PUSH2 0x28BA JUMP JUMPDEST JUMPDEST PUSH1 0x0 PUSH2 0x2E18 DUP7 DUP3 DUP8 ADD PUSH2 0x28E5 JUMP JUMPDEST SWAP4 POP POP PUSH1 0x20 PUSH2 0x2E29 DUP7 DUP3 DUP8 ADD PUSH2 0x28E5 JUMP JUMPDEST SWAP3 POP POP PUSH1 0x40 PUSH2 0x2E3A DUP7 DUP3 DUP8 ADD PUSH2 0x28E5 JUMP JUMPDEST SWAP2 POP POP SWAP3 POP SWAP3 POP SWAP3 JUMP JUMPDEST PUSH32 0x216F776E65720000000000000000000000000000000000000000000000000000 PUSH1 0x0 DUP3 ADD MSTORE POP JUMP JUMPDEST PUSH1 0x0 PUSH2 0x2E7A PUSH1 0x6 DUP4 PUSH2 0x2C4D JUMP JUMPDEST SWAP2 POP PUSH2 0x2E85 DUP3 PUSH2 0x2E44 JUMP JUMPDEST PUSH1 0x20 DUP3 ADD SWAP1 POP SWAP2 SWAP1 POP JUMP JUMPDEST PUSH1 0x0 PUSH1 0x20 DUP3 ADD SWAP1 POP DUP2 DUP2 SUB PUSH1 0x0 DUP4 ADD MSTORE PUSH2 0x2EA9 DUP2 PUSH2 0x2E6D JUMP JUMPDEST SWAP1 POP SWAP2 SWAP1 POP JUMP JUMPDEST PUSH1 0x0 DUP2 MLOAD SWAP1 POP PUSH2 0x2EBF DUP2 PUSH2 0x28CE JUMP JUMPDEST SWAP3 SWAP2 POP POP JUMP JUMPDEST PUSH1 0x0 PUSH1 0x20 DUP3 DUP5 SUB SLT ISZERO PUSH2 0x2EDB JUMPI PUSH2 0x2EDA PUSH2 0x28BA JUMP JUMPDEST JUMPDEST PUSH1 0x0 PUSH2 0x2EE9 DUP5 DUP3 DUP6 ADD PUSH2 0x2EB0 JUMP JUMPDEST SWAP2 POP POP SWAP3 SWAP2 POP POP JUMP JUMPDEST PUSH1 0x0 PUSH1 0x40 DUP3 ADD SWAP1 POP PUSH2 0x2F07 PUSH1 0x0 DUP4 ADD DUP6 PUSH2 0x2A12 JUMP JUMPDEST PUSH2 0x2F14 PUSH1 0x20 DUP4 ADD DUP5 PUSH2 0x29B2 JUMP JUMPDEST SWAP4 SWAP3 POP POP POP JUMP JUMPDEST PUSH1 0x0 DUP2 MLOAD SWAP1 POP PUSH2 0x2F2A DUP2 PUSH2 0x2CE3 JUMP JUMPDEST SWAP3 SWAP2 POP POP JUMP JUMPDEST PUSH1 0x0 PUSH1 0x20 DUP3 DUP5 SUB SLT ISZERO PUSH2 0x2F46 JUMPI PUSH2 0x2F45 PUSH2 0x28BA JUMP JUMPDEST JUMPDEST PUSH1 0x0 PUSH2 0x2F54 DUP5 DUP3 DUP6 ADD PUSH2 0x2F1B JUMP JUMPDEST SWAP2 POP POP SWAP3 SWAP2 POP POP JUMP JUMPDEST PUSH32 0x6E6F74207374616B650000000000000000000000000000000000000000000000 PUSH1 0x0 DUP3 ADD MSTORE POP JUMP JUMPDEST PUSH1 0x0 PUSH2 0x2F93 PUSH1 0x9 DUP4 PUSH2 0x2C4D JUMP JUMPDEST SWAP2 POP PUSH2 0x2F9E DUP3 PUSH2 0x2F5D JUMP JUMPDEST PUSH1 0x20 DUP3 ADD SWAP1 POP SWAP2 SWAP1 POP JUMP JUMPDEST PUSH1 0x0 PUSH1 0x20 DUP3 ADD SWAP1 POP DUP2 DUP2 SUB PUSH1 0x0 DUP4 ADD MSTORE PUSH2 0x2FC2 DUP2 PUSH2 0x2F86 JUMP JUMPDEST SWAP1 POP SWAP2 SWAP1 POP JUMP JUMPDEST PUSH32 0x4E487B7100000000000000000000000000000000000000000000000000000000 PUSH1 0x0 MSTORE PUSH1 0x22 PUSH1 0x4 MSTORE PUSH1 0x24 PUSH1 0x0 REVERT JUMPDEST PUSH1 0x0 PUSH1 0x2 DUP3 DIV SWAP1 POP PUSH1 0x1 DUP3 AND DUP1 PUSH2 0x3010 JUMPI PUSH1 0x7F DUP3 AND SWAP2 POP JUMPDEST PUSH1 0x20 DUP3 LT DUP2 SUB PUSH2 0x3023 JUMPI PUSH2 0x3022 PUSH2 0x2FC9 JUMP JUMPDEST JUMPDEST POP SWAP2 SWAP1 POP JUMP JUMPDEST PUSH32 0x6E65772069732030000000000000000000000000000000000000000000000000 PUSH1 0x0 DUP3 ADD MSTORE POP JUMP JUMPDEST PUSH1 0x0 PUSH2 0x305F PUSH1 0x8 DUP4 PUSH2 0x2C4D JUMP JUMPDEST SWAP2 POP PUSH2 0x306A DUP3 PUSH2 0x3029 JUMP JUMPDEST PUSH1 0x20 DUP3 ADD SWAP1 POP SWAP2 SWAP1 POP JUMP JUMPDEST PUSH1 0x0 PUSH1 0x20 DUP3 ADD SWAP1 POP DUP2 DUP2 SUB PUSH1 0x0 DUP4 ADD MSTORE PUSH2 0x308E DUP2 PUSH2 0x3052 JUMP JUMPDEST SWAP1 POP SWAP2 SWAP1 POP JUMP JUMPDEST PUSH32 0x6E6F742073746172740000000000000000000000000000000000000000000000 PUSH1 0x0 DUP3 ADD MSTORE POP JUMP JUMPDEST PUSH1 0x0 PUSH2 0x30CB PUSH1 0x9 DUP4 PUSH2 0x2C4D JUMP JUMPDEST SWAP2 POP PUSH2 0x30D6 DUP3 PUSH2 0x3095 JUMP JUMPDEST PUSH1 0x20 DUP3 ADD SWAP1 POP SWAP2 SWAP1 POP JUMP JUMPDEST PUSH1 0x0 PUSH1 0x20 DUP3 ADD SWAP1 POP DUP2 DUP2 SUB PUSH1 0x0 DUP4 ADD MSTORE PUSH2 0x30FA DUP2 PUSH2 0x30BE JUMP JUMPDEST SWAP1 POP SWAP2 SWAP1 POP JUMP JUMPDEST PUSH32 0x616C7265616479207374616B6559000000000000000000000000000000000000 PUSH1 0x0 DUP3 ADD MSTORE POP JUMP JUMPDEST PUSH1 0x0 PUSH2 0x3137 PUSH1 0xE DUP4 PUSH2 0x2C4D JUMP JUMPDEST SWAP2 POP PUSH2 0x3142 DUP3 PUSH2 0x3101 JUMP JUMPDEST PUSH1 0x20 DUP3 ADD SWAP1 POP SWAP2 SWAP1 POP JUMP JUMPDEST PUSH1 0x0 PUSH1 0x20 DUP3 ADD SWAP1 POP DUP2 DUP2 SUB PUSH1 0x0 DUP4 ADD MSTORE PUSH2 0x3166 DUP2 PUSH2 0x312A JUMP JUMPDEST SWAP1 POP SWAP2 SWAP1 POP JUMP JUMPDEST PUSH32 0x616C7265616479207374616B6542000000000000000000000000000000000000 PUSH1 0x0 DUP3 ADD MSTORE POP JUMP JUMPDEST PUSH1 0x0 PUSH2 0x31A3 PUSH1 0xE DUP4 PUSH2 0x2C4D JUMP JUMPDEST SWAP2 POP PUSH2 0x31AE DUP3 PUSH2 0x316D JUMP JUMPDEST PUSH1 0x20 DUP3 ADD SWAP1 POP SWAP2 SWAP1 POP JUMP JUMPDEST PUSH1 0x0 PUSH1 0x20 DUP3 ADD SWAP1 POP DUP2 DUP2 SUB PUSH1 0x0 DUP4 ADD MSTORE PUSH2 0x31D2 DUP2 PUSH2 0x3196 JUMP JUMPDEST SWAP1 POP SWAP2 SWAP1 POP JUMP JUMPDEST PUSH32 0x7A65726F2059616D6F756E740000000000000000000000000000000000000000 PUSH1 0x0 DUP3 ADD MSTORE POP JUMP JUMPDEST PUSH1 0x0 PUSH2 0x320F PUSH1 0xC DUP4 PUSH2 0x2C4D JUMP JUMPDEST SWAP2 POP PUSH2 0x321A DUP3 PUSH2 0x31D9 JUMP JUMPDEST PUSH1 0x20 DUP3 ADD SWAP1 POP SWAP2 SWAP1 POP JUMP JUMPDEST PUSH1 0x0 PUSH1 0x20 DUP3 ADD SWAP1 POP DUP2 DUP2 SUB PUSH1 0x0 DUP4 ADD MSTORE PUSH2 0x323E DUP2 PUSH2 0x3202 JUMP JUMPDEST SWAP1 POP SWAP2 SWAP1 POP JUMP JUMPDEST PUSH32 0x7A65726F2042616D6F756E740000000000000000000000000000000000000000 PUSH1 0x0 DUP3 ADD MSTORE POP JUMP JUMPDEST PUSH1 0x0 PUSH2 0x327B PUSH1 0xC DUP4 PUSH2 0x2C4D JUMP JUMPDEST SWAP2 POP PUSH2 0x3286 DUP3 PUSH2 0x3245 JUMP JUMPDEST PUSH1 0x20 DUP3 ADD SWAP1 POP SWAP2 SWAP1 POP JUMP JUMPDEST PUSH1 0x0 PUSH1 0x20 DUP3 ADD SWAP1 POP DUP2 DUP2 SUB PUSH1 0x0 DUP4 ADD MSTORE PUSH2 0x32AA DUP2 PUSH2 0x326E JUMP JUMPDEST SWAP1 POP SWAP2 SWAP1 POP JUMP JUMPDEST PUSH32 0x6E6F742072696768742074696D65000000000000000000000000000000000000 PUSH1 0x0 DUP3 ADD MSTORE POP JUMP JUMPDEST PUSH1 0x0 PUSH2 0x32E7 PUSH1 0xE DUP4 PUSH2 0x2C4D JUMP JUMPDEST SWAP2 POP PUSH2 0x32F2 DUP3 PUSH2 0x32B1 JUMP JUMPDEST PUSH1 0x20 DUP3 ADD SWAP1 POP SWAP2 SWAP1 POP JUMP JUMPDEST PUSH1 0x0 PUSH1 0x20 DUP3 ADD SWAP1 POP DUP2 DUP2 SUB PUSH1 0x0 DUP4 ADD MSTORE PUSH2 0x3316 DUP2 PUSH2 0x32DA JUMP JUMPDEST SWAP1 POP SWAP2 SWAP1 POP JUMP JUMPDEST PUSH1 0x0 PUSH1 0x60 DUP3 ADD SWAP1 POP PUSH2 0x3332 PUSH1 0x0 DUP4 ADD DUP7 PUSH2 0x2A12 JUMP JUMPDEST PUSH2 0x333F PUSH1 0x20 DUP4 ADD DUP6 PUSH2 0x2A12 JUMP JUMPDEST PUSH2 0x334C PUSH1 0x40 DUP4 ADD DUP5 PUSH2 0x29B2 JUMP JUMPDEST SWAP5 SWAP4 POP POP POP POP JUMP JUMPDEST PUSH32 0x4E487B7100000000000000000000000000000000000000000000000000000000 PUSH1 0x0 MSTORE PUSH1 0x11 PUSH1 0x4 MSTORE PUSH1 0x24 PUSH1 0x0 REVERT JUMPDEST PUSH1 0x0 PUSH2 0x338E DUP3 PUSH2 0x28C4 JUMP JUMPDEST SWAP2 POP PUSH2 0x3399 DUP4 PUSH2 0x28C4 JUMP JUMPDEST SWAP3 POP DUP3 DUP3 ADD SWAP1 POP DUP1 DUP3 GT ISZERO PUSH2 0x33B1 JUMPI PUSH2 0x33B0 PUSH2 0x3354 JUMP JUMPDEST JUMPDEST SWAP3 SWAP2 POP POP JUMP INVALID LOG2 PUSH5 0x6970667358 0x22 SLT KECCAK256 0xFC 0x5D JUMPDEST 0x4A 0xA9 CODESIZE 0x4F 0xC8 DUP2 CODESIZE SUB PUSH32 0xC5B37789876AAEC3E72BD9F6778467BAE70DC89C64736F6C6343000813003300 "
				},
				"gasEstimates": {
					"creation": {
						"codeDepositCost": "2658600",
						"executionCost": "311319",
						"totalCost": "2969919"
					},
					"external": {
						"_aToken()": "2560",
						"_adminToken()": "2581",
						"_bToken()": "2582",
						"_backstr(string)": "infinite",
						"_backuint256(string)": "infinite",
						"_backuint8(string)": "infinite",
						"_inviteNum(address)": "2904",
						"_inviterMap(address)": "infinite",
						"_inviterReward(address)": "2947",
						"_lpPriceToken()": "2558",
						"_proportion()": "2475",
						"_rewardToken()": "2603",
						"_stake1()": "2584",
						"_stake3()": "2541",
						"_stake5()": "2497",
						"_stakeToken()": "2625",
						"_userBlacklist(address)": "2980",
						"_userEndClaimTime(address)": "2883",
						"_userLastClaimTime(address)": "2969",
						"_userPower(address)": "2925",
						"_userStake(address)": "2925",
						"_userStakeB(address)": "2948",
						"_userStakeStartTime(address)": "2860",
						"_userStakeTime(address)": "2947",
						"_userStakeY(address)": "2859",
						"cancalStackOver(uint256)": "infinite",
						"claimReward_all(address,uint256)": "infinite",
						"isClaimStart()": "2609",
						"isStakeStart()": "2603",
						"lpPrice()": "infinite",
						"owner()": "2567",
						"ownerSetUser(address,uint256,uint256,uint256,uint256,uint256,uint256)": "infinite",
						"setProportion(uint256)": "26906",
						"setStakeToken(address)": "29152",
						"setStatus(bool,bool)": "infinite",
						"setUserBlacklist(address)": "31448",
						"set_aToken(address)": "29173",
						"set_adminToken(address)": "29173",
						"set_bToken(address)": "29217",
						"set_rewardToken(address)": "29194",
						"setlpPriceToken(address)": "29150",
						"stakeYB(uint256,uint256,uint256)": "infinite",
						"transferOwnership(address)": "32884",
						"withdraw()": "infinite"
					}
				},
				"methodIdentifiers": {
					"_aToken()": "7a1a959b",
					"_adminToken()": "6b8de0bf",
					"_bToken()": "3375d043",
					"_backstr(string)": "9442c295",
					"_backuint256(string)": "5cc6f73f",
					"_backuint8(string)": "838bcfeb",
					"_inviteNum(address)": "1896b2c4",
					"_inviterMap(address)": "264edc1d",
					"_inviterReward(address)": "dd8158e0",
					"_lpPriceToken()": "e53595ed",
					"_proportion()": "2eae667d",
					"_rewardToken()": "b59c6e0e",
					"_stake1()": "a6b14d5a",
					"_stake3()": "853e03e5",
					"_stake5()": "18883877",
					"_stakeToken()": "71ddda57",
					"_userBlacklist(address)": "115a972e",
					"_userEndClaimTime(address)": "0356c98f",
					"_userLastClaimTime(address)": "7929e29f",
					"_userPower(address)": "bef4533c",
					"_userStake(address)": "9805fa74",
					"_userStakeB(address)": "8ace0d0c",
					"_userStakeStartTime(address)": "16c259e1",
					"_userStakeTime(address)": "a041e172",
					"_userStakeY(address)": "a6f9a1d5",
					"cancalStackOver(uint256)": "91f6963c",
					"claimReward_all(address,uint256)": "69f65dc2",
					"isClaimStart()": "e650d293",
					"isStakeStart()": "f3ef99bc",
					"lpPrice()": "0c280444",
					"owner()": "8da5cb5b",
					"ownerSetUser(address,uint256,uint256,uint256,uint256,uint256,uint256)": "e61ee218",
					"setProportion(uint256)": "006cd200",
					"setStakeToken(address)": "0397d458",
					"setStatus(bool,bool)": "b3c2eac1",
					"setUserBlacklist(address)": "7d4cbd57",
					"set_aToken(address)": "1f54dbfe",
					"set_adminToken(address)": "460199b3",
					"set_bToken(address)": "28c4333e",
					"set_rewardToken(address)": "7535b3e5",
					"setlpPriceToken(address)": "6d37b382",
					"stakeYB(uint256,uint256,uint256)": "f7a278bc",
					"transferOwnership(address)": "f2fde38b",
					"withdraw()": "3ccfd60b"
				}
			},
			"storageLayout": {
				"storage": [
					{
						"astId": 91,
						"contract": "contracts/ebcTrans/stakeEbcV1.sol:Stake",
						"label": "_owner",
						"offset": 0,
						"slot": "0",
						"type": "t_address"
					},
					{
						"astId": 526,
						"contract": "contracts/ebcTrans/stakeEbcV1.sol:Stake",
						"label": "_rewardToken",
						"offset": 0,
						"slot": "1",
						"type": "t_address"
					},
					{
						"astId": 529,
						"contract": "contracts/ebcTrans/stakeEbcV1.sol:Stake",
						"label": "_stakeToken",
						"offset": 0,
						"slot": "2",
						"type": "t_address"
					},
					{
						"astId": 532,
						"contract": "contracts/ebcTrans/stakeEbcV1.sol:Stake",
						"label": "_lpPriceToken",
						"offset": 0,
						"slot": "3",
						"type": "t_address"
					},
					{
						"astId": 535,
						"contract": "contracts/ebcTrans/stakeEbcV1.sol:Stake",
						"label": "_aToken",
						"offset": 0,
						"slot": "4",
						"type": "t_address"
					},
					{
						"astId": 538,
						"contract": "contracts/ebcTrans/stakeEbcV1.sol:Stake",
						"label": "_bToken",
						"offset": 0,
						"slot": "5",
						"type": "t_address"
					},
					{
						"astId": 541,
						"contract": "contracts/ebcTrans/stakeEbcV1.sol:Stake",
						"label": "_adminToken",
						"offset": 0,
						"slot": "6",
						"type": "t_address"
					},
					{
						"astId": 548,
						"contract": "contracts/ebcTrans/stakeEbcV1.sol:Stake",
						"label": "_stake1",
						"offset": 0,
						"slot": "7",
						"type": "t_uint256"
					},
					{
						"astId": 555,
						"contract": "contracts/ebcTrans/stakeEbcV1.sol:Stake",
						"label": "_stake3",
						"offset": 0,
						"slot": "8",
						"type": "t_uint256"
					},
					{
						"astId": 562,
						"contract": "contracts/ebcTrans/stakeEbcV1.sol:Stake",
						"label": "_stake5",
						"offset": 0,
						"slot": "9",
						"type": "t_uint256"
					},
					{
						"astId": 565,
						"contract": "contracts/ebcTrans/stakeEbcV1.sol:Stake",
						"label": "_proportion",
						"offset": 0,
						"slot": "10",
						"type": "t_uint256"
					},
					{
						"astId": 569,
						"contract": "contracts/ebcTrans/stakeEbcV1.sol:Stake",
						"label": "_inviterMap",
						"offset": 0,
						"slot": "11",
						"type": "t_mapping(t_address,t_address)"
					},
					{
						"astId": 573,
						"contract": "contracts/ebcTrans/stakeEbcV1.sol:Stake",
						"label": "_inviterReward",
						"offset": 0,
						"slot": "12",
						"type": "t_mapping(t_address,t_uint256)"
					},
					{
						"astId": 577,
						"contract": "contracts/ebcTrans/stakeEbcV1.sol:Stake",
						"label": "_inviteNum",
						"offset": 0,
						"slot": "13",
						"type": "t_mapping(t_address,t_uint256)"
					},
					{
						"astId": 580,
						"contract": "contracts/ebcTrans/stakeEbcV1.sol:Stake",
						"label": "isStakeStart",
						"offset": 0,
						"slot": "14",
						"type": "t_bool"
					},
					{
						"astId": 583,
						"contract": "contracts/ebcTrans/stakeEbcV1.sol:Stake",
						"label": "isClaimStart",
						"offset": 1,
						"slot": "14",
						"type": "t_bool"
					},
					{
						"astId": 587,
						"contract": "contracts/ebcTrans/stakeEbcV1.sol:Stake",
						"label": "_userStake",
						"offset": 0,
						"slot": "15",
						"type": "t_mapping(t_address,t_uint256)"
					},
					{
						"astId": 591,
						"contract": "contracts/ebcTrans/stakeEbcV1.sol:Stake",
						"label": "_userStakeY",
						"offset": 0,
						"slot": "16",
						"type": "t_mapping(t_address,t_uint256)"
					},
					{
						"astId": 595,
						"contract": "contracts/ebcTrans/stakeEbcV1.sol:Stake",
						"label": "_userStakeB",
						"offset": 0,
						"slot": "17",
						"type": "t_mapping(t_address,t_uint256)"
					},
					{
						"astId": 599,
						"contract": "contracts/ebcTrans/stakeEbcV1.sol:Stake",
						"label": "_userStakeTime",
						"offset": 0,
						"slot": "18",
						"type": "t_mapping(t_address,t_uint256)"
					},
					{
						"astId": 603,
						"contract": "contracts/ebcTrans/stakeEbcV1.sol:Stake",
						"label": "_userStakeStartTime",
						"offset": 0,
						"slot": "19",
						"type": "t_mapping(t_address,t_uint256)"
					},
					{
						"astId": 607,
						"contract": "contracts/ebcTrans/stakeEbcV1.sol:Stake",
						"label": "_userLastClaimTime",
						"offset": 0,
						"slot": "20",
						"type": "t_mapping(t_address,t_uint256)"
					},
					{
						"astId": 611,
						"contract": "contracts/ebcTrans/stakeEbcV1.sol:Stake",
						"label": "_userEndClaimTime",
						"offset": 0,
						"slot": "21",
						"type": "t_mapping(t_address,t_uint256)"
					},
					{
						"astId": 615,
						"contract": "contracts/ebcTrans/stakeEbcV1.sol:Stake",
						"label": "_userPower",
						"offset": 0,
						"slot": "22",
						"type": "t_mapping(t_address,t_uint256)"
					},
					{
						"astId": 619,
						"contract": "contracts/ebcTrans/stakeEbcV1.sol:Stake",
						"label": "_userBlacklist",
						"offset": 0,
						"slot": "23",
						"type": "t_mapping(t_address,t_bool)"
					},
					{
						"astId": 623,
						"contract": "contracts/ebcTrans/stakeEbcV1.sol:Stake",
						"label": "_backstr",
						"offset": 0,
						"slot": "24",
						"type": "t_mapping(t_string_memory_ptr,t_string_storage)"
					},
					{
						"astId": 627,
						"contract": "contracts/ebcTrans/stakeEbcV1.sol:Stake",
						"label": "_backuint256",
						"offset": 0,
						"slot": "25",
						"type": "t_mapping(t_string_memory_ptr,t_uint256)"
					},
					{
						"astId": 631,
						"contract": "contracts/ebcTrans/stakeEbcV1.sol:Stake",
						"label": "_backuint8",
						"offset": 0,
						"slot": "26",
						"type": "t_mapping(t_string_memory_ptr,t_uint8)"
					}
				],
				"types": {
					"t_address": {
						"encoding": "inplace",
						"label": "address",
						"numberOfBytes": "20"
					},
					"t_bool": {
						"encoding": "inplace",
						"label": "bool",
						"numberOfBytes": "1"
					},
					"t_mapping(t_address,t_address)": {
						"encoding": "mapping",
						"key": "t_address",
						"label": "mapping(address => address)",
						"numberOfBytes": "32",
						"value": "t_address"
					},
					"t_mapping(t_address,t_bool)": {
						"encoding": "mapping",
						"key": "t_address",
						"label": "mapping(address => bool)",
						"numberOfBytes": "32",
						"value": "t_bool"
					},
					"t_mapping(t_address,t_uint256)": {
						"encoding": "mapping",
						"key": "t_address",
						"label": "mapping(address => uint256)",
						"numberOfBytes": "32",
						"value": "t_uint256"
					},
					"t_mapping(t_string_memory_ptr,t_string_storage)": {
						"encoding": "mapping",
						"key": "t_string_memory_ptr",
						"label": "mapping(string => string)",
						"numberOfBytes": "32",
						"value": "t_string_storage"
					},
					"t_mapping(t_string_memory_ptr,t_uint256)": {
						"encoding": "mapping",
						"key": "t_string_memory_ptr",
						"label": "mapping(string => uint256)",
						"numberOfBytes": "32",
						"value": "t_uint256"
					},
					"t_mapping(t_string_memory_ptr,t_uint8)": {
						"encoding": "mapping",
						"key": "t_string_memory_ptr",
						"label": "mapping(string => uint8)",
						"numberOfBytes": "32",
						"value": "t_uint8"
					},
					"t_string_memory_ptr": {
						"encoding": "bytes",
						"label": "string",
						"numberOfBytes": "32"
					},
					"t_string_storage": {
						"encoding": "bytes",
						"label": "string",
						"numberOfBytes": "32"
					},
					"t_uint256": {
						"encoding": "inplace",
						"label": "uint256",
						"numberOfBytes": "32"
					},
					"t_uint8": {
						"encoding": "inplace",
						"label": "uint8",
						"numberOfBytes": "1"
					}
				}
			},
			"userdoc": {
				"kind": "user",
				"methods": {},
				"version": 1
			}
		}
	}
}