{
	"contracts/ebcTrans/stakeEbcTransparentProxy.sol": {
		"Foo": {
			"abi": [
				{
					"inputs": [],
					"name": "selector",
					"outputs": [
						{
							"internalType": "bytes",
							"name": "",
							"type": "bytes"
						}
					],
					"stateMutability": "view",
					"type": "function"
				},
				{
					"inputs": [],
					"name": "selector1",
					"outputs": [
						{
							"internalType": "bytes4",
							"name": "",
							"type": "bytes4"
						}
					],
					"stateMutability": "view",
					"type": "function"
				},
				{
					"inputs": [],
					"name": "selector2",
					"outputs": [
						{
							"internalType": "bytes4",
							"name": "",
							"type": "bytes4"
						}
					],
					"stateMutability": "view",
					"type": "function"
				}
			],
			"devdoc": {
				"kind": "dev",
				"methods": {},
				"version": 1
			},
			"evm": {
				"assembly": "    /* \"contracts/ebcTrans/stakeEbcTransparentProxy.sol\":198:539  contract Foo {... */\n  mstore(0x40, 0x80)\n    /* \"contracts/ebcTrans/stakeEbcTransparentProxy.sol\":251:277  keccak256(\"burn(uint256)\") */\n  0x42966c689b5afe9b9b3f8a7103b2a19980d59629bfd6a20a60972312ed41d836\n    /* \"contracts/ebcTrans/stakeEbcTransparentProxy.sol\":218:278  bytes4 public selector1 = bytes4(keccak256(\"burn(uint256)\")) */\n  0x00\n  dup1\n  0x0100\n  exp\n  dup2\n  sload\n  dup2\n  0xffffffff\n  mul\n  not\n  and\n  swap1\n  dup4\n  0xe0\n  shr\n  mul\n  or\n  swap1\n  sstore\n  pop\n    /* \"contracts/ebcTrans/stakeEbcTransparentProxy.sol\":318:365  keccak256(\"collate_propagate_storage(bytes16)\") */\n  0x42966c684c869f2e2e56c232c00c827b4e8fcd1119259bd54a90d765bf17bbd6\n    /* \"contracts/ebcTrans/stakeEbcTransparentProxy.sol\":285:366  bytes4 public selector2 = bytes4(keccak256(\"collate_propagate_storage(bytes16)\")) */\n  0x00\n  exp(0x0100, 0x04)\n  dup2\n  sload\n  dup2\n  0xffffffff\n  mul\n  not\n  and\n  swap1\n  dup4\n  0xe0\n  shr\n  mul\n  or\n  swap1\n  sstore\n  pop\n    /* \"contracts/ebcTrans/stakeEbcTransparentProxy.sol\":396:428  abi.encodeWithSignature(\"foo()\") */\n  add(0x24, mload(0x40))\n  mload(0x40)\n  0x20\n  dup2\n  dup4\n  sub\n  sub\n  dup2\n  mstore\n  swap1\n  0x40\n  mstore\n  and(not(0xffffffffffffffffffffffffffffffffffffffffffffffffffffffff), 0xc298557800000000000000000000000000000000000000000000000000000000)\n  0x20\n  dup3\n  add\n  dup1\n  mload\n  0xffffffffffffffffffffffffffffffffffffffffffffffffffffffff\n  dup4\n  dup2\n  dup4\n  and\n  or\n  dup4\n  mstore\n  pop\n  pop\n  pop\n  pop\n    /* \"contracts/ebcTrans/stakeEbcTransparentProxy.sol\":373:428  bytes public  selector=abi.encodeWithSignature(\"foo()\") */\n  0x01\n  swap1\n  dup2\n  tag_1\n  swap2\n  swap1\n  tag_2\n  jump\t// in\ntag_1:\n  pop\n    /* \"contracts/ebcTrans/stakeEbcTransparentProxy.sol\":198:539  contract Foo {... */\n  callvalue\n  dup1\n  iszero\n  tag_3\n  jumpi\n  0x00\n  dup1\n  revert\ntag_3:\n  pop\n  jump(tag_4)\n    /* \"#utility.yul\":7:105   */\ntag_5:\n    /* \"#utility.yul\":58:64   */\n  0x00\n    /* \"#utility.yul\":92:97   */\n  dup2\n    /* \"#utility.yul\":86:98   */\n  mload\n    /* \"#utility.yul\":76:98   */\n  swap1\n  pop\n    /* \"#utility.yul\":7:105   */\n  swap2\n  swap1\n  pop\n  jump\t// out\n    /* \"#utility.yul\":111:291   */\ntag_6:\n    /* \"#utility.yul\":159:236   */\n  0x4e487b7100000000000000000000000000000000000000000000000000000000\n    /* \"#utility.yul\":156:157   */\n  0x00\n    /* \"#utility.yul\":149:237   */\n  mstore\n    /* \"#utility.yul\":256:260   */\n  0x41\n    /* \"#utility.yul\":253:254   */\n  0x04\n    /* \"#utility.yul\":246:261   */\n  mstore\n    /* \"#utility.yul\":280:284   */\n  0x24\n    /* \"#utility.yul\":277:278   */\n  0x00\n    /* \"#utility.yul\":270:285   */\n  revert\n    /* \"#utility.yul\":297:477   */\ntag_7:\n    /* \"#utility.yul\":345:422   */\n  0x4e487b7100000000000000000000000000000000000000000000000000000000\n    /* \"#utility.yul\":342:343   */\n  0x00\n    /* \"#utility.yul\":335:423   */\n  mstore\n    /* \"#utility.yul\":442:446   */\n  0x22\n    /* \"#utility.yul\":439:440   */\n  0x04\n    /* \"#utility.yul\":432:447   */\n  mstore\n    /* \"#utility.yul\":466:470   */\n  0x24\n    /* \"#utility.yul\":463:464   */\n  0x00\n    /* \"#utility.yul\":456:471   */\n  revert\n    /* \"#utility.yul\":483:803   */\ntag_8:\n    /* \"#utility.yul\":527:533   */\n  0x00\n    /* \"#utility.yul\":564:565   */\n  0x02\n    /* \"#utility.yul\":558:562   */\n  dup3\n    /* \"#utility.yul\":554:566   */\n  div\n    /* \"#utility.yul\":544:566   */\n  swap1\n  pop\n    /* \"#utility.yul\":611:612   */\n  0x01\n    /* \"#utility.yul\":605:609   */\n  dup3\n    /* \"#utility.yul\":601:613   */\n  and\n    /* \"#utility.yul\":632:650   */\n  dup1\n    /* \"#utility.yul\":622:703   */\n  tag_30\n  jumpi\n    /* \"#utility.yul\":688:692   */\n  0x7f\n    /* \"#utility.yul\":680:686   */\n  dup3\n    /* \"#utility.yul\":676:693   */\n  and\n    /* \"#utility.yul\":666:693   */\n  swap2\n  pop\n    /* \"#utility.yul\":622:703   */\ntag_30:\n    /* \"#utility.yul\":750:752   */\n  0x20\n    /* \"#utility.yul\":742:748   */\n  dup3\n    /* \"#utility.yul\":739:753   */\n  lt\n    /* \"#utility.yul\":719:737   */\n  dup2\n    /* \"#utility.yul\":716:754   */\n  sub\n    /* \"#utility.yul\":713:797   */\n  tag_31\n  jumpi\n    /* \"#utility.yul\":769:787   */\n  tag_32\n  tag_7\n  jump\t// in\ntag_32:\n    /* \"#utility.yul\":713:797   */\ntag_31:\n    /* \"#utility.yul\":534:803   */\n  pop\n    /* \"#utility.yul\":483:803   */\n  swap2\n  swap1\n  pop\n  jump\t// out\n    /* \"#utility.yul\":809:949   */\ntag_9:\n    /* \"#utility.yul\":857:861   */\n  0x00\n    /* \"#utility.yul\":880:883   */\n  dup2\n    /* \"#utility.yul\":872:883   */\n  swap1\n  pop\n    /* \"#utility.yul\":903:906   */\n  dup2\n    /* \"#utility.yul\":900:901   */\n  0x00\n    /* \"#utility.yul\":893:907   */\n  mstore\n    /* \"#utility.yul\":937:941   */\n  0x20\n    /* \"#utility.yul\":934:935   */\n  0x00\n    /* \"#utility.yul\":924:942   */\n  keccak256\n    /* \"#utility.yul\":916:942   */\n  swap1\n  pop\n    /* \"#utility.yul\":809:949   */\n  swap2\n  swap1\n  pop\n  jump\t// out\n    /* \"#utility.yul\":955:1048   */\ntag_10:\n    /* \"#utility.yul\":992:998   */\n  0x00\n    /* \"#utility.yul\":1039:1041   */\n  0x20\n    /* \"#utility.yul\":1034:1036   */\n  0x1f\n    /* \"#utility.yul\":1027:1032   */\n  dup4\n    /* \"#utility.yul\":1023:1037   */\n  add\n    /* \"#utility.yul\":1019:1042   */\n  div\n    /* \"#utility.yul\":1009:1042   */\n  swap1\n  pop\n    /* \"#utility.yul\":955:1048   */\n  swap2\n  swap1\n  pop\n  jump\t// out\n    /* \"#utility.yul\":1054:1161   */\ntag_11:\n    /* \"#utility.yul\":1098:1106   */\n  0x00\n    /* \"#utility.yul\":1148:1153   */\n  dup3\n    /* \"#utility.yul\":1142:1146   */\n  dup3\n    /* \"#utility.yul\":1138:1154   */\n  shl\n    /* \"#utility.yul\":1117:1154   */\n  swap1\n  pop\n    /* \"#utility.yul\":1054:1161   */\n  swap3\n  swap2\n  pop\n  pop\n  jump\t// out\n    /* \"#utility.yul\":1167:1560   */\ntag_12:\n    /* \"#utility.yul\":1236:1242   */\n  0x00\n    /* \"#utility.yul\":1286:1287   */\n  0x08\n    /* \"#utility.yul\":1274:1284   */\n  dup4\n    /* \"#utility.yul\":1270:1288   */\n  mul\n    /* \"#utility.yul\":1309:1406   */\n  tag_37\n    /* \"#utility.yul\":1339:1405   */\n  0xffffffffffffffffffffffffffffffffffffffffffffffffffffffffffffffff\n    /* \"#utility.yul\":1328:1337   */\n  dup3\n    /* \"#utility.yul\":1309:1406   */\n  tag_11\n  jump\t// in\ntag_37:\n    /* \"#utility.yul\":1427:1466   */\n  tag_38\n    /* \"#utility.yul\":1457:1465   */\n  dup7\n    /* \"#utility.yul\":1446:1455   */\n  dup4\n    /* \"#utility.yul\":1427:1466   */\n  tag_11\n  jump\t// in\ntag_38:\n    /* \"#utility.yul\":1415:1466   */\n  swap6\n  pop\n    /* \"#utility.yul\":1499:1503   */\n  dup1\n    /* \"#utility.yul\":1495:1504   */\n  not\n    /* \"#utility.yul\":1488:1493   */\n  dup5\n    /* \"#utility.yul\":1484:1505   */\n  and\n    /* \"#utility.yul\":1475:1505   */\n  swap4\n  pop\n    /* \"#utility.yul\":1548:1552   */\n  dup1\n    /* \"#utility.yul\":1538:1546   */\n  dup7\n    /* \"#utility.yul\":1534:1553   */\n  and\n    /* \"#utility.yul\":1527:1532   */\n  dup5\n    /* \"#utility.yul\":1524:1554   */\n  or\n    /* \"#utility.yul\":1514:1554   */\n  swap3\n  pop\n    /* \"#utility.yul\":1243:1560   */\n  pop\n  pop\n    /* \"#utility.yul\":1167:1560   */\n  swap4\n  swap3\n  pop\n  pop\n  pop\n  jump\t// out\n    /* \"#utility.yul\":1566:1643   */\ntag_13:\n    /* \"#utility.yul\":1603:1610   */\n  0x00\n    /* \"#utility.yul\":1632:1637   */\n  dup2\n    /* \"#utility.yul\":1621:1637   */\n  swap1\n  pop\n    /* \"#utility.yul\":1566:1643   */\n  swap2\n  swap1\n  pop\n  jump\t// out\n    /* \"#utility.yul\":1649:1709   */\ntag_14:\n    /* \"#utility.yul\":1677:1680   */\n  0x00\n    /* \"#utility.yul\":1698:1703   */\n  dup2\n    /* \"#utility.yul\":1691:1703   */\n  swap1\n  pop\n    /* \"#utility.yul\":1649:1709   */\n  swap2\n  swap1\n  pop\n  jump\t// out\n    /* \"#utility.yul\":1715:1857   */\ntag_15:\n    /* \"#utility.yul\":1765:1774   */\n  0x00\n    /* \"#utility.yul\":1798:1851   */\n  tag_42\n    /* \"#utility.yul\":1816:1850   */\n  tag_43\n    /* \"#utility.yul\":1825:1849   */\n  tag_44\n    /* \"#utility.yul\":1843:1848   */\n  dup5\n    /* \"#utility.yul\":1825:1849   */\n  tag_13\n  jump\t// in\ntag_44:\n    /* \"#utility.yul\":1816:1850   */\n  tag_14\n  jump\t// in\ntag_43:\n    /* \"#utility.yul\":1798:1851   */\n  tag_13\n  jump\t// in\ntag_42:\n    /* \"#utility.yul\":1785:1851   */\n  swap1\n  pop\n    /* \"#utility.yul\":1715:1857   */\n  swap2\n  swap1\n  pop\n  jump\t// out\n    /* \"#utility.yul\":1863:1938   */\ntag_16:\n    /* \"#utility.yul\":1906:1909   */\n  0x00\n    /* \"#utility.yul\":1927:1932   */\n  dup2\n    /* \"#utility.yul\":1920:1932   */\n  swap1\n  pop\n    /* \"#utility.yul\":1863:1938   */\n  swap2\n  swap1\n  pop\n  jump\t// out\n    /* \"#utility.yul\":1944:2213   */\ntag_17:\n    /* \"#utility.yul\":2054:2093   */\n  tag_47\n    /* \"#utility.yul\":2085:2092   */\n  dup4\n    /* \"#utility.yul\":2054:2093   */\n  tag_15\n  jump\t// in\ntag_47:\n    /* \"#utility.yul\":2115:2206   */\n  tag_48\n    /* \"#utility.yul\":2164:2205   */\n  tag_49\n    /* \"#utility.yul\":2188:2204   */\n  dup3\n    /* \"#utility.yul\":2164:2205   */\n  tag_16\n  jump\t// in\ntag_49:\n    /* \"#utility.yul\":2156:2162   */\n  dup5\n    /* \"#utility.yul\":2149:2153   */\n  dup5\n    /* \"#utility.yul\":2143:2154   */\n  sload\n    /* \"#utility.yul\":2115:2206   */\n  tag_12\n  jump\t// in\ntag_48:\n    /* \"#utility.yul\":2109:2113   */\n  dup3\n    /* \"#utility.yul\":2102:2207   */\n  sstore\n    /* \"#utility.yul\":2020:2213   */\n  pop\n    /* \"#utility.yul\":1944:2213   */\n  pop\n  pop\n  pop\n  jump\t// out\n    /* \"#utility.yul\":2219:2292   */\ntag_18:\n    /* \"#utility.yul\":2264:2267   */\n  0x00\n    /* \"#utility.yul\":2219:2292   */\n  swap1\n  jump\t// out\n    /* \"#utility.yul\":2298:2487   */\ntag_19:\n    /* \"#utility.yul\":2375:2407   */\n  tag_52\n  tag_18\n  jump\t// in\ntag_52:\n    /* \"#utility.yul\":2416:2481   */\n  tag_53\n    /* \"#utility.yul\":2474:2480   */\n  dup2\n    /* \"#utility.yul\":2466:2472   */\n  dup5\n    /* \"#utility.yul\":2460:2464   */\n  dup5\n    /* \"#utility.yul\":2416:2481   */\n  tag_17\n  jump\t// in\ntag_53:\n    /* \"#utility.yul\":2351:2487   */\n  pop\n    /* \"#utility.yul\":2298:2487   */\n  pop\n  pop\n  jump\t// out\n    /* \"#utility.yul\":2493:2679   */\ntag_20:\n    /* \"#utility.yul\":2553:2673   */\ntag_55:\n    /* \"#utility.yul\":2570:2573   */\n  dup2\n    /* \"#utility.yul\":2563:2568   */\n  dup2\n    /* \"#utility.yul\":2560:2574   */\n  lt\n    /* \"#utility.yul\":2553:2673   */\n  iszero\n  tag_57\n  jumpi\n    /* \"#utility.yul\":2624:2663   */\n  tag_58\n    /* \"#utility.yul\":2661:2662   */\n  0x00\n    /* \"#utility.yul\":2654:2659   */\n  dup3\n    /* \"#utility.yul\":2624:2663   */\n  tag_19\n  jump\t// in\ntag_58:\n    /* \"#utility.yul\":2597:2598   */\n  0x01\n    /* \"#utility.yul\":2590:2595   */\n  dup2\n    /* \"#utility.yul\":2586:2599   */\n  add\n    /* \"#utility.yul\":2577:2599   */\n  swap1\n  pop\n    /* \"#utility.yul\":2553:2673   */\n  jump(tag_55)\ntag_57:\n    /* \"#utility.yul\":2493:2679   */\n  pop\n  pop\n  jump\t// out\n    /* \"#utility.yul\":2685:3226   */\ntag_21:\n    /* \"#utility.yul\":2785:2787   */\n  0x1f\n    /* \"#utility.yul\":2780:2783   */\n  dup3\n    /* \"#utility.yul\":2777:2788   */\n  gt\n    /* \"#utility.yul\":2774:3219   */\n  iszero\n  tag_60\n  jumpi\n    /* \"#utility.yul\":2819:2856   */\n  tag_61\n    /* \"#utility.yul\":2850:2855   */\n  dup2\n    /* \"#utility.yul\":2819:2856   */\n  tag_9\n  jump\t// in\ntag_61:\n    /* \"#utility.yul\":2902:2931   */\n  tag_62\n    /* \"#utility.yul\":2920:2930   */\n  dup5\n    /* \"#utility.yul\":2902:2931   */\n  tag_10\n  jump\t// in\ntag_62:\n    /* \"#utility.yul\":2892:2900   */\n  dup2\n    /* \"#utility.yul\":2888:2932   */\n  add\n    /* \"#utility.yul\":3085:3087   */\n  0x20\n    /* \"#utility.yul\":3073:3083   */\n  dup6\n    /* \"#utility.yul\":3070:3088   */\n  lt\n    /* \"#utility.yul\":3067:3116   */\n  iszero\n  tag_63\n  jumpi\n    /* \"#utility.yul\":3106:3114   */\n  dup2\n    /* \"#utility.yul\":3091:3114   */\n  swap1\n  pop\n    /* \"#utility.yul\":3067:3116   */\ntag_63:\n    /* \"#utility.yul\":3129:3209   */\n  tag_64\n    /* \"#utility.yul\":3185:3207   */\n  tag_65\n    /* \"#utility.yul\":3203:3206   */\n  dup6\n    /* \"#utility.yul\":3185:3207   */\n  tag_10\n  jump\t// in\ntag_65:\n    /* \"#utility.yul\":3175:3183   */\n  dup4\n    /* \"#utility.yul\":3171:3208   */\n  add\n    /* \"#utility.yul\":3158:3169   */\n  dup3\n    /* \"#utility.yul\":3129:3209   */\n  tag_20\n  jump\t// in\ntag_64:\n    /* \"#utility.yul\":2789:3219   */\n  pop\n  pop\n    /* \"#utility.yul\":2774:3219   */\ntag_60:\n    /* \"#utility.yul\":2685:3226   */\n  pop\n  pop\n  pop\n  jump\t// out\n    /* \"#utility.yul\":3232:3349   */\ntag_22:\n    /* \"#utility.yul\":3286:3294   */\n  0x00\n    /* \"#utility.yul\":3336:3341   */\n  dup3\n    /* \"#utility.yul\":3330:3334   */\n  dup3\n    /* \"#utility.yul\":3326:3342   */\n  shr\n    /* \"#utility.yul\":3305:3342   */\n  swap1\n  pop\n    /* \"#utility.yul\":3232:3349   */\n  swap3\n  swap2\n  pop\n  pop\n  jump\t// out\n    /* \"#utility.yul\":3355:3524   */\ntag_23:\n    /* \"#utility.yul\":3399:3405   */\n  0x00\n    /* \"#utility.yul\":3432:3483   */\n  tag_68\n    /* \"#utility.yul\":3480:3481   */\n  0x00\n    /* \"#utility.yul\":3476:3482   */\n  not\n    /* \"#utility.yul\":3468:3473   */\n  dup5\n    /* \"#utility.yul\":3465:3466   */\n  0x08\n    /* \"#utility.yul\":3461:3474   */\n  mul\n    /* \"#utility.yul\":3432:3483   */\n  tag_22\n  jump\t// in\ntag_68:\n    /* \"#utility.yul\":3428:3484   */\n  not\n    /* \"#utility.yul\":3513:3517   */\n  dup1\n    /* \"#utility.yul\":3507:3511   */\n  dup4\n    /* \"#utility.yul\":3503:3518   */\n  and\n    /* \"#utility.yul\":3493:3518   */\n  swap2\n  pop\n    /* \"#utility.yul\":3406:3524   */\n  pop\n    /* \"#utility.yul\":3355:3524   */\n  swap3\n  swap2\n  pop\n  pop\n  jump\t// out\n    /* \"#utility.yul\":3529:3824   */\ntag_24:\n    /* \"#utility.yul\":3605:3609   */\n  0x00\n    /* \"#utility.yul\":3751:3780   */\n  tag_70\n    /* \"#utility.yul\":3776:3779   */\n  dup4\n    /* \"#utility.yul\":3770:3774   */\n  dup4\n    /* \"#utility.yul\":3751:3780   */\n  tag_23\n  jump\t// in\ntag_70:\n    /* \"#utility.yul\":3743:3780   */\n  swap2\n  pop\n    /* \"#utility.yul\":3813:3816   */\n  dup3\n    /* \"#utility.yul\":3810:3811   */\n  0x02\n    /* \"#utility.yul\":3806:3817   */\n  mul\n    /* \"#utility.yul\":3800:3804   */\n  dup3\n    /* \"#utility.yul\":3797:3818   */\n  or\n    /* \"#utility.yul\":3789:3818   */\n  swap1\n  pop\n    /* \"#utility.yul\":3529:3824   */\n  swap3\n  swap2\n  pop\n  pop\n  jump\t// out\n    /* \"#utility.yul\":3829:5219   */\ntag_2:\n    /* \"#utility.yul\":3944:3980   */\n  tag_72\n    /* \"#utility.yul\":3976:3979   */\n  dup3\n    /* \"#utility.yul\":3944:3980   */\n  tag_5\n  jump\t// in\ntag_72:\n    /* \"#utility.yul\":4045:4063   */\n  0xffffffffffffffff\n    /* \"#utility.yul\":4037:4043   */\n  dup2\n    /* \"#utility.yul\":4034:4064   */\n  gt\n    /* \"#utility.yul\":4031:4087   */\n  iszero\n  tag_73\n  jumpi\n    /* \"#utility.yul\":4067:4085   */\n  tag_74\n  tag_6\n  jump\t// in\ntag_74:\n    /* \"#utility.yul\":4031:4087   */\ntag_73:\n    /* \"#utility.yul\":4111:4149   */\n  tag_75\n    /* \"#utility.yul\":4143:4147   */\n  dup3\n    /* \"#utility.yul\":4137:4148   */\n  sload\n    /* \"#utility.yul\":4111:4149   */\n  tag_8\n  jump\t// in\ntag_75:\n    /* \"#utility.yul\":4196:4262   */\n  tag_76\n    /* \"#utility.yul\":4255:4261   */\n  dup3\n    /* \"#utility.yul\":4247:4253   */\n  dup3\n    /* \"#utility.yul\":4241:4245   */\n  dup6\n    /* \"#utility.yul\":4196:4262   */\n  tag_21\n  jump\t// in\ntag_76:\n    /* \"#utility.yul\":4289:4290   */\n  0x00\n    /* \"#utility.yul\":4313:4317   */\n  0x20\n    /* \"#utility.yul\":4300:4317   */\n  swap1\n  pop\n    /* \"#utility.yul\":4345:4347   */\n  0x1f\n    /* \"#utility.yul\":4337:4343   */\n  dup4\n    /* \"#utility.yul\":4334:4348   */\n  gt\n    /* \"#utility.yul\":4362:4363   */\n  0x01\n    /* \"#utility.yul\":4357:4974   */\n  dup2\n  eq\n  tag_78\n  jumpi\n    /* \"#utility.yul\":5018:5019   */\n  0x00\n    /* \"#utility.yul\":5035:5041   */\n  dup5\n    /* \"#utility.yul\":5032:5109   */\n  iszero\n  tag_79\n  jumpi\n    /* \"#utility.yul\":5084:5093   */\n  dup3\n    /* \"#utility.yul\":5079:5082   */\n  dup8\n    /* \"#utility.yul\":5075:5094   */\n  add\n    /* \"#utility.yul\":5069:5095   */\n  mload\n    /* \"#utility.yul\":5060:5095   */\n  swap1\n  pop\n    /* \"#utility.yul\":5032:5109   */\ntag_79:\n    /* \"#utility.yul\":5135:5202   */\n  tag_80\n    /* \"#utility.yul\":5195:5201   */\n  dup6\n    /* \"#utility.yul\":5188:5193   */\n  dup3\n    /* \"#utility.yul\":5135:5202   */\n  tag_24\n  jump\t// in\ntag_80:\n    /* \"#utility.yul\":5129:5133   */\n  dup7\n    /* \"#utility.yul\":5122:5203   */\n  sstore\n    /* \"#utility.yul\":4991:5213   */\n  pop\n    /* \"#utility.yul\":4327:5213   */\n  jump(tag_77)\n    /* \"#utility.yul\":4357:4974   */\ntag_78:\n    /* \"#utility.yul\":4409:4413   */\n  0x1f\n    /* \"#utility.yul\":4405:4414   */\n  not\n    /* \"#utility.yul\":4397:4403   */\n  dup5\n    /* \"#utility.yul\":4393:4415   */\n  and\n    /* \"#utility.yul\":4443:4479   */\n  tag_81\n    /* \"#utility.yul\":4474:4478   */\n  dup7\n    /* \"#utility.yul\":4443:4479   */\n  tag_9\n  jump\t// in\ntag_81:\n    /* \"#utility.yul\":4501:4502   */\n  0x00\n    /* \"#utility.yul\":4515:4723   */\ntag_82:\n    /* \"#utility.yul\":4529:4536   */\n  dup3\n    /* \"#utility.yul\":4526:4527   */\n  dup2\n    /* \"#utility.yul\":4523:4537   */\n  lt\n    /* \"#utility.yul\":4515:4723   */\n  iszero\n  tag_84\n  jumpi\n    /* \"#utility.yul\":4608:4617   */\n  dup5\n    /* \"#utility.yul\":4603:4606   */\n  dup10\n    /* \"#utility.yul\":4599:4618   */\n  add\n    /* \"#utility.yul\":4593:4619   */\n  mload\n    /* \"#utility.yul\":4585:4591   */\n  dup3\n    /* \"#utility.yul\":4578:4620   */\n  sstore\n    /* \"#utility.yul\":4659:4660   */\n  0x01\n    /* \"#utility.yul\":4651:4657   */\n  dup3\n    /* \"#utility.yul\":4647:4661   */\n  add\n    /* \"#utility.yul\":4637:4661   */\n  swap2\n  pop\n    /* \"#utility.yul\":4706:4708   */\n  0x20\n    /* \"#utility.yul\":4695:4704   */\n  dup6\n    /* \"#utility.yul\":4691:4709   */\n  add\n    /* \"#utility.yul\":4678:4709   */\n  swap5\n  pop\n    /* \"#utility.yul\":4552:4556   */\n  0x20\n    /* \"#utility.yul\":4549:4550   */\n  dup2\n    /* \"#utility.yul\":4545:4557   */\n  add\n    /* \"#utility.yul\":4540:4557   */\n  swap1\n  pop\n    /* \"#utility.yul\":4515:4723   */\n  jump(tag_82)\ntag_84:\n    /* \"#utility.yul\":4751:4757   */\n  dup7\n    /* \"#utility.yul\":4742:4749   */\n  dup4\n    /* \"#utility.yul\":4739:4758   */\n  lt\n    /* \"#utility.yul\":4736:4915   */\n  iszero\n  tag_85\n  jumpi\n    /* \"#utility.yul\":4809:4818   */\n  dup5\n    /* \"#utility.yul\":4804:4807   */\n  dup10\n    /* \"#utility.yul\":4800:4819   */\n  add\n    /* \"#utility.yul\":4794:4820   */\n  mload\n    /* \"#utility.yul\":4852:4900   */\n  tag_86\n    /* \"#utility.yul\":4894:4898   */\n  0x1f\n    /* \"#utility.yul\":4886:4892   */\n  dup10\n    /* \"#utility.yul\":4882:4899   */\n  and\n    /* \"#utility.yul\":4871:4880   */\n  dup3\n    /* \"#utility.yul\":4852:4900   */\n  tag_23\n  jump\t// in\ntag_86:\n    /* \"#utility.yul\":4844:4850   */\n  dup4\n    /* \"#utility.yul\":4837:4901   */\n  sstore\n    /* \"#utility.yul\":4759:4915   */\n  pop\n    /* \"#utility.yul\":4736:4915   */\ntag_85:\n    /* \"#utility.yul\":4961:4962   */\n  0x01\n    /* \"#utility.yul\":4957:4958   */\n  0x02\n    /* \"#utility.yul\":4949:4955   */\n  dup9\n    /* \"#utility.yul\":4945:4959   */\n  mul\n    /* \"#utility.yul\":4941:4963   */\n  add\n    /* \"#utility.yul\":4935:4939   */\n  dup9\n    /* \"#utility.yul\":4928:4964   */\n  sstore\n    /* \"#utility.yul\":4364:4974   */\n  pop\n  pop\n  pop\n    /* \"#utility.yul\":4327:5213   */\ntag_77:\n  pop\n    /* \"#utility.yul\":3919:5219   */\n  pop\n  pop\n  pop\n    /* \"#utility.yul\":3829:5219   */\n  pop\n  pop\n  jump\t// out\n    /* \"contracts/ebcTrans/stakeEbcTransparentProxy.sol\":198:539  contract Foo {... */\ntag_4:\n  dataSize(sub_0)\n  dup1\n  dataOffset(sub_0)\n  0x00\n  codecopy\n  0x00\n  return\nstop\n\nsub_0: assembly {\n        /* \"contracts/ebcTrans/stakeEbcTransparentProxy.sol\":198:539  contract Foo {... */\n      mstore(0x40, 0x80)\n      callvalue\n      dup1\n      iszero\n      tag_1\n      jumpi\n      0x00\n      dup1\n      revert\n    tag_1:\n      pop\n      jumpi(tag_2, lt(calldatasize, 0x04))\n      shr(0xe0, calldataload(0x00))\n      dup1\n      0x44c984a7\n      eq\n      tag_3\n      jumpi\n      dup1\n      0xe9b33174\n      eq\n      tag_4\n      jumpi\n      dup1\n      0xea3d508a\n      eq\n      tag_5\n      jumpi\n    tag_2:\n      0x00\n      dup1\n      revert\n        /* \"contracts/ebcTrans/stakeEbcTransparentProxy.sol\":285:366  bytes4 public selector2 = bytes4(keccak256(\"collate_propagate_storage(bytes16)\")) */\n    tag_3:\n      tag_6\n      tag_7\n      jump\t// in\n    tag_6:\n      mload(0x40)\n      tag_8\n      swap2\n      swap1\n      tag_9\n      jump\t// in\n    tag_8:\n      mload(0x40)\n      dup1\n      swap2\n      sub\n      swap1\n      return\n        /* \"contracts/ebcTrans/stakeEbcTransparentProxy.sol\":218:278  bytes4 public selector1 = bytes4(keccak256(\"burn(uint256)\")) */\n    tag_4:\n      tag_10\n      tag_11\n      jump\t// in\n    tag_10:\n      mload(0x40)\n      tag_12\n      swap2\n      swap1\n      tag_9\n      jump\t// in\n    tag_12:\n      mload(0x40)\n      dup1\n      swap2\n      sub\n      swap1\n      return\n        /* \"contracts/ebcTrans/stakeEbcTransparentProxy.sol\":373:428  bytes public  selector=abi.encodeWithSignature(\"foo()\") */\n    tag_5:\n      tag_13\n      tag_14\n      jump\t// in\n    tag_13:\n      mload(0x40)\n      tag_15\n      swap2\n      swap1\n      tag_16\n      jump\t// in\n    tag_15:\n      mload(0x40)\n      dup1\n      swap2\n      sub\n      swap1\n      return\n        /* \"contracts/ebcTrans/stakeEbcTransparentProxy.sol\":285:366  bytes4 public selector2 = bytes4(keccak256(\"collate_propagate_storage(bytes16)\")) */\n    tag_7:\n      0x00\n      0x04\n      swap1\n      sload\n      swap1\n      0x0100\n      exp\n      swap1\n      div\n      0xe0\n      shl\n      dup2\n      jump\t// out\n        /* \"contracts/ebcTrans/stakeEbcTransparentProxy.sol\":218:278  bytes4 public selector1 = bytes4(keccak256(\"burn(uint256)\")) */\n    tag_11:\n      0x00\n      dup1\n      sload\n      swap1\n      0x0100\n      exp\n      swap1\n      div\n      0xe0\n      shl\n      dup2\n      jump\t// out\n        /* \"contracts/ebcTrans/stakeEbcTransparentProxy.sol\":373:428  bytes public  selector=abi.encodeWithSignature(\"foo()\") */\n    tag_14:\n      0x01\n      dup1\n      sload\n      tag_17\n      swap1\n      tag_18\n      jump\t// in\n    tag_17:\n      dup1\n      0x1f\n      add\n      0x20\n      dup1\n      swap2\n      div\n      mul\n      0x20\n      add\n      mload(0x40)\n      swap1\n      dup2\n      add\n      0x40\n      mstore\n      dup1\n      swap3\n      swap2\n      swap1\n      dup2\n      dup2\n      mstore\n      0x20\n      add\n      dup3\n      dup1\n      sload\n      tag_19\n      swap1\n      tag_18\n      jump\t// in\n    tag_19:\n      dup1\n      iszero\n      tag_20\n      jumpi\n      dup1\n      0x1f\n      lt\n      tag_21\n      jumpi\n      0x0100\n      dup1\n      dup4\n      sload\n      div\n      mul\n      dup4\n      mstore\n      swap2\n      0x20\n      add\n      swap2\n      jump(tag_20)\n    tag_21:\n      dup3\n      add\n      swap2\n      swap1\n      0x00\n      mstore\n      keccak256(0x00, 0x20)\n      swap1\n    tag_22:\n      dup2\n      sload\n      dup2\n      mstore\n      swap1\n      0x01\n      add\n      swap1\n      0x20\n      add\n      dup1\n      dup4\n      gt\n      tag_22\n      jumpi\n      dup3\n      swap1\n      sub\n      0x1f\n      and\n      dup3\n      add\n      swap2\n    tag_20:\n      pop\n      pop\n      pop\n      pop\n      pop\n      dup2\n      jump\t// out\n        /* \"#utility.yul\":7:156   */\n    tag_23:\n        /* \"#utility.yul\":43:50   */\n      0x00\n        /* \"#utility.yul\":83:149   */\n      0xffffffff00000000000000000000000000000000000000000000000000000000\n        /* \"#utility.yul\":76:81   */\n      dup3\n        /* \"#utility.yul\":72:150   */\n      and\n        /* \"#utility.yul\":61:150   */\n      swap1\n      pop\n        /* \"#utility.yul\":7:156   */\n      swap2\n      swap1\n      pop\n      jump\t// out\n        /* \"#utility.yul\":162:277   */\n    tag_24:\n        /* \"#utility.yul\":247:270   */\n      tag_34\n        /* \"#utility.yul\":264:269   */\n      dup2\n        /* \"#utility.yul\":247:270   */\n      tag_23\n      jump\t// in\n    tag_34:\n        /* \"#utility.yul\":242:245   */\n      dup3\n        /* \"#utility.yul\":235:271   */\n      mstore\n        /* \"#utility.yul\":162:277   */\n      pop\n      pop\n      jump\t// out\n        /* \"#utility.yul\":283:501   */\n    tag_9:\n        /* \"#utility.yul\":374:378   */\n      0x00\n        /* \"#utility.yul\":412:414   */\n      0x20\n        /* \"#utility.yul\":401:410   */\n      dup3\n        /* \"#utility.yul\":397:415   */\n      add\n        /* \"#utility.yul\":389:415   */\n      swap1\n      pop\n        /* \"#utility.yul\":425:494   */\n      tag_36\n        /* \"#utility.yul\":491:492   */\n      0x00\n        /* \"#utility.yul\":480:489   */\n      dup4\n        /* \"#utility.yul\":476:493   */\n      add\n        /* \"#utility.yul\":467:473   */\n      dup5\n        /* \"#utility.yul\":425:494   */\n      tag_24\n      jump\t// in\n    tag_36:\n        /* \"#utility.yul\":283:501   */\n      swap3\n      swap2\n      pop\n      pop\n      jump\t// out\n        /* \"#utility.yul\":507:605   */\n    tag_25:\n        /* \"#utility.yul\":558:564   */\n      0x00\n        /* \"#utility.yul\":592:597   */\n      dup2\n        /* \"#utility.yul\":586:598   */\n      mload\n        /* \"#utility.yul\":576:598   */\n      swap1\n      pop\n        /* \"#utility.yul\":507:605   */\n      swap2\n      swap1\n      pop\n      jump\t// out\n        /* \"#utility.yul\":611:779   */\n    tag_26:\n        /* \"#utility.yul\":694:705   */\n      0x00\n        /* \"#utility.yul\":728:734   */\n      dup3\n        /* \"#utility.yul\":723:726   */\n      dup3\n        /* \"#utility.yul\":716:735   */\n      mstore\n        /* \"#utility.yul\":768:772   */\n      0x20\n        /* \"#utility.yul\":763:766   */\n      dup3\n        /* \"#utility.yul\":759:773   */\n      add\n        /* \"#utility.yul\":744:773   */\n      swap1\n      pop\n        /* \"#utility.yul\":611:779   */\n      swap3\n      swap2\n      pop\n      pop\n      jump\t// out\n        /* \"#utility.yul\":785:1031   */\n    tag_27:\n        /* \"#utility.yul\":866:867   */\n      0x00\n        /* \"#utility.yul\":876:989   */\n    tag_40:\n        /* \"#utility.yul\":890:896   */\n      dup4\n        /* \"#utility.yul\":887:888   */\n      dup2\n        /* \"#utility.yul\":884:897   */\n      lt\n        /* \"#utility.yul\":876:989   */\n      iszero\n      tag_42\n      jumpi\n        /* \"#utility.yul\":975:976   */\n      dup1\n        /* \"#utility.yul\":970:973   */\n      dup3\n        /* \"#utility.yul\":966:977   */\n      add\n        /* \"#utility.yul\":960:978   */\n      mload\n        /* \"#utility.yul\":956:957   */\n      dup2\n        /* \"#utility.yul\":951:954   */\n      dup5\n        /* \"#utility.yul\":947:958   */\n      add\n        /* \"#utility.yul\":940:979   */\n      mstore\n        /* \"#utility.yul\":912:914   */\n      0x20\n        /* \"#utility.yul\":909:910   */\n      dup2\n        /* \"#utility.yul\":905:915   */\n      add\n        /* \"#utility.yul\":900:915   */\n      swap1\n      pop\n        /* \"#utility.yul\":876:989   */\n      jump(tag_40)\n    tag_42:\n        /* \"#utility.yul\":1023:1024   */\n      0x00\n        /* \"#utility.yul\":1014:1020   */\n      dup5\n        /* \"#utility.yul\":1009:1012   */\n      dup5\n        /* \"#utility.yul\":1005:1021   */\n      add\n        /* \"#utility.yul\":998:1025   */\n      mstore\n        /* \"#utility.yul\":847:1031   */\n      pop\n        /* \"#utility.yul\":785:1031   */\n      pop\n      pop\n      pop\n      jump\t// out\n        /* \"#utility.yul\":1037:1139   */\n    tag_28:\n        /* \"#utility.yul\":1078:1084   */\n      0x00\n        /* \"#utility.yul\":1129:1131   */\n      0x1f\n        /* \"#utility.yul\":1125:1132   */\n      not\n        /* \"#utility.yul\":1120:1122   */\n      0x1f\n        /* \"#utility.yul\":1113:1118   */\n      dup4\n        /* \"#utility.yul\":1109:1123   */\n      add\n        /* \"#utility.yul\":1105:1133   */\n      and\n        /* \"#utility.yul\":1095:1133   */\n      swap1\n      pop\n        /* \"#utility.yul\":1037:1139   */\n      swap2\n      swap1\n      pop\n      jump\t// out\n        /* \"#utility.yul\":1145:1518   */\n    tag_29:\n        /* \"#utility.yul\":1231:1234   */\n      0x00\n        /* \"#utility.yul\":1259:1297   */\n      tag_45\n        /* \"#utility.yul\":1291:1296   */\n      dup3\n        /* \"#utility.yul\":1259:1297   */\n      tag_25\n      jump\t// in\n    tag_45:\n        /* \"#utility.yul\":1313:1383   */\n      tag_46\n        /* \"#utility.yul\":1376:1382   */\n      dup2\n        /* \"#utility.yul\":1371:1374   */\n      dup6\n        /* \"#utility.yul\":1313:1383   */\n      tag_26\n      jump\t// in\n    tag_46:\n        /* \"#utility.yul\":1306:1383   */\n      swap4\n      pop\n        /* \"#utility.yul\":1392:1457   */\n      tag_47\n        /* \"#utility.yul\":1450:1456   */\n      dup2\n        /* \"#utility.yul\":1445:1448   */\n      dup6\n        /* \"#utility.yul\":1438:1442   */\n      0x20\n        /* \"#utility.yul\":1431:1436   */\n      dup7\n        /* \"#utility.yul\":1427:1443   */\n      add\n        /* \"#utility.yul\":1392:1457   */\n      tag_27\n      jump\t// in\n    tag_47:\n        /* \"#utility.yul\":1482:1511   */\n      tag_48\n        /* \"#utility.yul\":1504:1510   */\n      dup2\n        /* \"#utility.yul\":1482:1511   */\n      tag_28\n      jump\t// in\n    tag_48:\n        /* \"#utility.yul\":1477:1480   */\n      dup5\n        /* \"#utility.yul\":1473:1512   */\n      add\n        /* \"#utility.yul\":1466:1512   */\n      swap2\n      pop\n        /* \"#utility.yul\":1235:1518   */\n      pop\n        /* \"#utility.yul\":1145:1518   */\n      swap3\n      swap2\n      pop\n      pop\n      jump\t// out\n        /* \"#utility.yul\":1524:1833   */\n    tag_16:\n        /* \"#utility.yul\":1635:1639   */\n      0x00\n        /* \"#utility.yul\":1673:1675   */\n      0x20\n        /* \"#utility.yul\":1662:1671   */\n      dup3\n        /* \"#utility.yul\":1658:1676   */\n      add\n        /* \"#utility.yul\":1650:1676   */\n      swap1\n      pop\n        /* \"#utility.yul\":1722:1731   */\n      dup2\n        /* \"#utility.yul\":1716:1720   */\n      dup2\n        /* \"#utility.yul\":1712:1732   */\n      sub\n        /* \"#utility.yul\":1708:1709   */\n      0x00\n        /* \"#utility.yul\":1697:1706   */\n      dup4\n        /* \"#utility.yul\":1693:1710   */\n      add\n        /* \"#utility.yul\":1686:1733   */\n      mstore\n        /* \"#utility.yul\":1750:1826   */\n      tag_50\n        /* \"#utility.yul\":1821:1825   */\n      dup2\n        /* \"#utility.yul\":1812:1818   */\n      dup5\n        /* \"#utility.yul\":1750:1826   */\n      tag_29\n      jump\t// in\n    tag_50:\n        /* \"#utility.yul\":1742:1826   */\n      swap1\n      pop\n        /* \"#utility.yul\":1524:1833   */\n      swap3\n      swap2\n      pop\n      pop\n      jump\t// out\n        /* \"#utility.yul\":1839:2019   */\n    tag_30:\n        /* \"#utility.yul\":1887:1964   */\n      0x4e487b7100000000000000000000000000000000000000000000000000000000\n        /* \"#utility.yul\":1884:1885   */\n      0x00\n        /* \"#utility.yul\":1877:1965   */\n      mstore\n        /* \"#utility.yul\":1984:1988   */\n      0x22\n        /* \"#utility.yul\":1981:1982   */\n      0x04\n        /* \"#utility.yul\":1974:1989   */\n      mstore\n        /* \"#utility.yul\":2008:2012   */\n      0x24\n        /* \"#utility.yul\":2005:2006   */\n      0x00\n        /* \"#utility.yul\":1998:2013   */\n      revert\n        /* \"#utility.yul\":2025:2345   */\n    tag_18:\n        /* \"#utility.yul\":2069:2075   */\n      0x00\n        /* \"#utility.yul\":2106:2107   */\n      0x02\n        /* \"#utility.yul\":2100:2104   */\n      dup3\n        /* \"#utility.yul\":2096:2108   */\n      div\n        /* \"#utility.yul\":2086:2108   */\n      swap1\n      pop\n        /* \"#utility.yul\":2153:2154   */\n      0x01\n        /* \"#utility.yul\":2147:2151   */\n      dup3\n        /* \"#utility.yul\":2143:2155   */\n      and\n        /* \"#utility.yul\":2174:2192   */\n      dup1\n        /* \"#utility.yul\":2164:2245   */\n      tag_53\n      jumpi\n        /* \"#utility.yul\":2230:2234   */\n      0x7f\n        /* \"#utility.yul\":2222:2228   */\n      dup3\n        /* \"#utility.yul\":2218:2235   */\n      and\n        /* \"#utility.yul\":2208:2235   */\n      swap2\n      pop\n        /* \"#utility.yul\":2164:2245   */\n    tag_53:\n        /* \"#utility.yul\":2292:2294   */\n      0x20\n        /* \"#utility.yul\":2284:2290   */\n      dup3\n        /* \"#utility.yul\":2281:2295   */\n      lt\n        /* \"#utility.yul\":2261:2279   */\n      dup2\n        /* \"#utility.yul\":2258:2296   */\n      sub\n        /* \"#utility.yul\":2255:2339   */\n      tag_54\n      jumpi\n        /* \"#utility.yul\":2311:2329   */\n      tag_55\n      tag_30\n      jump\t// in\n    tag_55:\n        /* \"#utility.yul\":2255:2339   */\n    tag_54:\n        /* \"#utility.yul\":2076:2345   */\n      pop\n        /* \"#utility.yul\":2025:2345   */\n      swap2\n      swap1\n      pop\n      jump\t// out\n\n    auxdata: 0xa2646970667358221220d281ec1138b95f6d7d283815e642976aa8dc40fbc58199ef103ff9c64a6e676064736f6c63430008130033\n}\n",
				"bytecode": {
					"linkReferences": {},
					"object": "60806040527f42966c689b5afe9b9b3f8a7103b2a19980d59629bfd6a20a60972312ed41d8366000806101000a81548163ffffffff021916908360e01c02179055507f42966c684c869f2e2e56c232c00c827b4e8fcd1119259bd54a90d765bf17bbd6600060046101000a81548163ffffffff021916908360e01c02179055506040516024016040516020818303038152906040527fc2985578000000000000000000000000000000000000000000000000000000007bffffffffffffffffffffffffffffffffffffffffffffffffffffffff19166020820180517bffffffffffffffffffffffffffffffffffffffffffffffffffffffff8381831617835250505050600190816101109190610373565b5034801561011d57600080fd5b50610445565b600081519050919050565b7f4e487b7100000000000000000000000000000000000000000000000000000000600052604160045260246000fd5b7f4e487b7100000000000000000000000000000000000000000000000000000000600052602260045260246000fd5b600060028204905060018216806101a457607f821691505b6020821081036101b7576101b661015d565b5b50919050565b60008190508160005260206000209050919050565b60006020601f8301049050919050565b600082821b905092915050565b60006008830261021f7fffffffffffffffffffffffffffffffffffffffffffffffffffffffffffffffff826101e2565b61022986836101e2565b95508019841693508086168417925050509392505050565b6000819050919050565b6000819050919050565b600061027061026b61026684610241565b61024b565b610241565b9050919050565b6000819050919050565b61028a83610255565b61029e61029682610277565b8484546101ef565b825550505050565b600090565b6102b36102a6565b6102be818484610281565b505050565b5b818110156102e2576102d76000826102ab565b6001810190506102c4565b5050565b601f821115610327576102f8816101bd565b610301846101d2565b81016020851015610310578190505b61032461031c856101d2565b8301826102c3565b50505b505050565b600082821c905092915050565b600061034a6000198460080261032c565b1980831691505092915050565b60006103638383610339565b9150826002028217905092915050565b61037c82610123565b67ffffffffffffffff8111156103955761039461012e565b5b61039f825461018c565b6103aa8282856102e6565b600060209050601f8311600181146103dd57600084156103cb578287015190505b6103d58582610357565b86555061043d565b601f1984166103eb866101bd565b60005b82811015610413578489015182556001820191506020850194506020810190506103ee565b86831015610430578489015161042c601f891682610339565b8355505b6001600288020188555050505b505050505050565b6102f0806104546000396000f3fe608060405234801561001057600080fd5b50600436106100415760003560e01c806344c984a714610046578063e9b3317414610064578063ea3d508a14610082575b600080fd5b61004e6100a0565b60405161005b919061018d565b60405180910390f35b61006c6100b3565b604051610079919061018d565b60405180910390f35b61008a6100c4565b6040516100979190610238565b60405180910390f35b600060049054906101000a900460e01b81565b60008054906101000a900460e01b81565b600180546100d190610289565b80601f01602080910402602001604051908101604052809291908181526020018280546100fd90610289565b801561014a5780601f1061011f5761010080835404028352916020019161014a565b820191906000526020600020905b81548152906001019060200180831161012d57829003601f168201915b505050505081565b60007fffffffff0000000000000000000000000000000000000000000000000000000082169050919050565b61018781610152565b82525050565b60006020820190506101a2600083018461017e565b92915050565b600081519050919050565b600082825260208201905092915050565b60005b838110156101e25780820151818401526020810190506101c7565b60008484015250505050565b6000601f19601f8301169050919050565b600061020a826101a8565b61021481856101b3565b93506102248185602086016101c4565b61022d816101ee565b840191505092915050565b6000602082019050818103600083015261025281846101ff565b905092915050565b7f4e487b7100000000000000000000000000000000000000000000000000000000600052602260045260246000fd5b600060028204905060018216806102a157607f821691505b6020821081036102b4576102b361025a565b5b5091905056fea2646970667358221220d281ec1138b95f6d7d283815e642976aa8dc40fbc58199ef103ff9c64a6e676064736f6c63430008130033",
					"opcodes": "PUSH1 0x80 PUSH1 0x40 MSTORE PUSH32 0x42966C689B5AFE9B9B3F8A7103B2A19980D59629BFD6A20A60972312ED41D836 PUSH1 0x0 DUP1 PUSH2 0x100 EXP DUP2 SLOAD DUP2 PUSH4 0xFFFFFFFF MUL NOT AND SWAP1 DUP4 PUSH1 0xE0 SHR MUL OR SWAP1 SSTORE POP PUSH32 0x42966C684C869F2E2E56C232C00C827B4E8FCD1119259BD54A90D765BF17BBD6 PUSH1 0x0 PUSH1 0x4 PUSH2 0x100 EXP DUP2 SLOAD DUP2 PUSH4 0xFFFFFFFF MUL NOT AND SWAP1 DUP4 PUSH1 0xE0 SHR MUL OR SWAP1 SSTORE POP PUSH1 0x40 MLOAD PUSH1 0x24 ADD PUSH1 0x40 MLOAD PUSH1 0x20 DUP2 DUP4 SUB SUB DUP2 MSTORE SWAP1 PUSH1 0x40 MSTORE PUSH32 0xC298557800000000000000000000000000000000000000000000000000000000 PUSH28 0xFFFFFFFFFFFFFFFFFFFFFFFFFFFFFFFFFFFFFFFFFFFFFFFFFFFFFFFF NOT AND PUSH1 0x20 DUP3 ADD DUP1 MLOAD PUSH28 0xFFFFFFFFFFFFFFFFFFFFFFFFFFFFFFFFFFFFFFFFFFFFFFFFFFFFFFFF DUP4 DUP2 DUP4 AND OR DUP4 MSTORE POP POP POP POP PUSH1 0x1 SWAP1 DUP2 PUSH2 0x110 SWAP2 SWAP1 PUSH2 0x373 JUMP JUMPDEST POP CALLVALUE DUP1 ISZERO PUSH2 0x11D JUMPI PUSH1 0x0 DUP1 REVERT JUMPDEST POP PUSH2 0x445 JUMP JUMPDEST PUSH1 0x0 DUP2 MLOAD SWAP1 POP SWAP2 SWAP1 POP JUMP JUMPDEST PUSH32 0x4E487B7100000000000000000000000000000000000000000000000000000000 PUSH1 0x0 MSTORE PUSH1 0x41 PUSH1 0x4 MSTORE PUSH1 0x24 PUSH1 0x0 REVERT JUMPDEST PUSH32 0x4E487B7100000000000000000000000000000000000000000000000000000000 PUSH1 0x0 MSTORE PUSH1 0x22 PUSH1 0x4 MSTORE PUSH1 0x24 PUSH1 0x0 REVERT JUMPDEST PUSH1 0x0 PUSH1 0x2 DUP3 DIV SWAP1 POP PUSH1 0x1 DUP3 AND DUP1 PUSH2 0x1A4 JUMPI PUSH1 0x7F DUP3 AND SWAP2 POP JUMPDEST PUSH1 0x20 DUP3 LT DUP2 SUB PUSH2 0x1B7 JUMPI PUSH2 0x1B6 PUSH2 0x15D JUMP JUMPDEST JUMPDEST POP SWAP2 SWAP1 POP JUMP JUMPDEST PUSH1 0x0 DUP2 SWAP1 POP DUP2 PUSH1 0x0 MSTORE PUSH1 0x20 PUSH1 0x0 KECCAK256 SWAP1 POP SWAP2 SWAP1 POP JUMP JUMPDEST PUSH1 0x0 PUSH1 0x20 PUSH1 0x1F DUP4 ADD DIV SWAP1 POP SWAP2 SWAP1 POP JUMP JUMPDEST PUSH1 0x0 DUP3 DUP3 SHL SWAP1 POP SWAP3 SWAP2 POP POP JUMP JUMPDEST PUSH1 0x0 PUSH1 0x8 DUP4 MUL PUSH2 0x21F PUSH32 0xFFFFFFFFFFFFFFFFFFFFFFFFFFFFFFFFFFFFFFFFFFFFFFFFFFFFFFFFFFFFFFFF DUP3 PUSH2 0x1E2 JUMP JUMPDEST PUSH2 0x229 DUP7 DUP4 PUSH2 0x1E2 JUMP JUMPDEST SWAP6 POP DUP1 NOT DUP5 AND SWAP4 POP DUP1 DUP7 AND DUP5 OR SWAP3 POP POP POP SWAP4 SWAP3 POP POP POP JUMP JUMPDEST PUSH1 0x0 DUP2 SWAP1 POP SWAP2 SWAP1 POP JUMP JUMPDEST PUSH1 0x0 DUP2 SWAP1 POP SWAP2 SWAP1 POP JUMP JUMPDEST PUSH1 0x0 PUSH2 0x270 PUSH2 0x26B PUSH2 0x266 DUP5 PUSH2 0x241 JUMP JUMPDEST PUSH2 0x24B JUMP JUMPDEST PUSH2 0x241 JUMP JUMPDEST SWAP1 POP SWAP2 SWAP1 POP JUMP JUMPDEST PUSH1 0x0 DUP2 SWAP1 POP SWAP2 SWAP1 POP JUMP JUMPDEST PUSH2 0x28A DUP4 PUSH2 0x255 JUMP JUMPDEST PUSH2 0x29E PUSH2 0x296 DUP3 PUSH2 0x277 JUMP JUMPDEST DUP5 DUP5 SLOAD PUSH2 0x1EF JUMP JUMPDEST DUP3 SSTORE POP POP POP POP JUMP JUMPDEST PUSH1 0x0 SWAP1 JUMP JUMPDEST PUSH2 0x2B3 PUSH2 0x2A6 JUMP JUMPDEST PUSH2 0x2BE DUP2 DUP5 DUP5 PUSH2 0x281 JUMP JUMPDEST POP POP POP JUMP JUMPDEST JUMPDEST DUP2 DUP2 LT ISZERO PUSH2 0x2E2 JUMPI PUSH2 0x2D7 PUSH1 0x0 DUP3 PUSH2 0x2AB JUMP JUMPDEST PUSH1 0x1 DUP2 ADD SWAP1 POP PUSH2 0x2C4 JUMP JUMPDEST POP POP JUMP JUMPDEST PUSH1 0x1F DUP3 GT ISZERO PUSH2 0x327 JUMPI PUSH2 0x2F8 DUP2 PUSH2 0x1BD JUMP JUMPDEST PUSH2 0x301 DUP5 PUSH2 0x1D2 JUMP JUMPDEST DUP2 ADD PUSH1 0x20 DUP6 LT ISZERO PUSH2 0x310 JUMPI DUP2 SWAP1 POP JUMPDEST PUSH2 0x324 PUSH2 0x31C DUP6 PUSH2 0x1D2 JUMP JUMPDEST DUP4 ADD DUP3 PUSH2 0x2C3 JUMP JUMPDEST POP POP JUMPDEST POP POP POP JUMP JUMPDEST PUSH1 0x0 DUP3 DUP3 SHR SWAP1 POP SWAP3 SWAP2 POP POP JUMP JUMPDEST PUSH1 0x0 PUSH2 0x34A PUSH1 0x0 NOT DUP5 PUSH1 0x8 MUL PUSH2 0x32C JUMP JUMPDEST NOT DUP1 DUP4 AND SWAP2 POP POP SWAP3 SWAP2 POP POP JUMP JUMPDEST PUSH1 0x0 PUSH2 0x363 DUP4 DUP4 PUSH2 0x339 JUMP JUMPDEST SWAP2 POP DUP3 PUSH1 0x2 MUL DUP3 OR SWAP1 POP SWAP3 SWAP2 POP POP JUMP JUMPDEST PUSH2 0x37C DUP3 PUSH2 0x123 JUMP JUMPDEST PUSH8 0xFFFFFFFFFFFFFFFF DUP2 GT ISZERO PUSH2 0x395 JUMPI PUSH2 0x394 PUSH2 0x12E JUMP JUMPDEST JUMPDEST PUSH2 0x39F DUP3 SLOAD PUSH2 0x18C JUMP JUMPDEST PUSH2 0x3AA DUP3 DUP3 DUP6 PUSH2 0x2E6 JUMP JUMPDEST PUSH1 0x0 PUSH1 0x20 SWAP1 POP PUSH1 0x1F DUP4 GT PUSH1 0x1 DUP2 EQ PUSH2 0x3DD JUMPI PUSH1 0x0 DUP5 ISZERO PUSH2 0x3CB JUMPI DUP3 DUP8 ADD MLOAD SWAP1 POP JUMPDEST PUSH2 0x3D5 DUP6 DUP3 PUSH2 0x357 JUMP JUMPDEST DUP7 SSTORE POP PUSH2 0x43D JUMP JUMPDEST PUSH1 0x1F NOT DUP5 AND PUSH2 0x3EB DUP7 PUSH2 0x1BD JUMP JUMPDEST PUSH1 0x0 JUMPDEST DUP3 DUP2 LT ISZERO PUSH2 0x413 JUMPI DUP5 DUP10 ADD MLOAD DUP3 SSTORE PUSH1 0x1 DUP3 ADD SWAP2 POP PUSH1 0x20 DUP6 ADD SWAP5 POP PUSH1 0x20 DUP2 ADD SWAP1 POP PUSH2 0x3EE JUMP JUMPDEST DUP7 DUP4 LT ISZERO PUSH2 0x430 JUMPI DUP5 DUP10 ADD MLOAD PUSH2 0x42C PUSH1 0x1F DUP10 AND DUP3 PUSH2 0x339 JUMP JUMPDEST DUP4 SSTORE POP JUMPDEST PUSH1 0x1 PUSH1 0x2 DUP9 MUL ADD DUP9 SSTORE POP POP POP JUMPDEST POP POP POP POP POP POP JUMP JUMPDEST PUSH2 0x2F0 DUP1 PUSH2 0x454 PUSH1 0x0 CODECOPY PUSH1 0x0 RETURN INVALID PUSH1 0x80 PUSH1 0x40 MSTORE CALLVALUE DUP1 ISZERO PUSH2 0x10 JUMPI PUSH1 0x0 DUP1 REVERT JUMPDEST POP PUSH1 0x4 CALLDATASIZE LT PUSH2 0x41 JUMPI PUSH1 0x0 CALLDATALOAD PUSH1 0xE0 SHR DUP1 PUSH4 0x44C984A7 EQ PUSH2 0x46 JUMPI DUP1 PUSH4 0xE9B33174 EQ PUSH2 0x64 JUMPI DUP1 PUSH4 0xEA3D508A EQ PUSH2 0x82 JUMPI JUMPDEST PUSH1 0x0 DUP1 REVERT JUMPDEST PUSH2 0x4E PUSH2 0xA0 JUMP JUMPDEST PUSH1 0x40 MLOAD PUSH2 0x5B SWAP2 SWAP1 PUSH2 0x18D JUMP JUMPDEST PUSH1 0x40 MLOAD DUP1 SWAP2 SUB SWAP1 RETURN JUMPDEST PUSH2 0x6C PUSH2 0xB3 JUMP JUMPDEST PUSH1 0x40 MLOAD PUSH2 0x79 SWAP2 SWAP1 PUSH2 0x18D JUMP JUMPDEST PUSH1 0x40 MLOAD DUP1 SWAP2 SUB SWAP1 RETURN JUMPDEST PUSH2 0x8A PUSH2 0xC4 JUMP JUMPDEST PUSH1 0x40 MLOAD PUSH2 0x97 SWAP2 SWAP1 PUSH2 0x238 JUMP JUMPDEST PUSH1 0x40 MLOAD DUP1 SWAP2 SUB SWAP1 RETURN JUMPDEST PUSH1 0x0 PUSH1 0x4 SWAP1 SLOAD SWAP1 PUSH2 0x100 EXP SWAP1 DIV PUSH1 0xE0 SHL DUP2 JUMP JUMPDEST PUSH1 0x0 DUP1 SLOAD SWAP1 PUSH2 0x100 EXP SWAP1 DIV PUSH1 0xE0 SHL DUP2 JUMP JUMPDEST PUSH1 0x1 DUP1 SLOAD PUSH2 0xD1 SWAP1 PUSH2 0x289 JUMP JUMPDEST DUP1 PUSH1 0x1F ADD PUSH1 0x20 DUP1 SWAP2 DIV MUL PUSH1 0x20 ADD PUSH1 0x40 MLOAD SWAP1 DUP2 ADD PUSH1 0x40 MSTORE DUP1 SWAP3 SWAP2 SWAP1 DUP2 DUP2 MSTORE PUSH1 0x20 ADD DUP3 DUP1 SLOAD PUSH2 0xFD SWAP1 PUSH2 0x289 JUMP JUMPDEST DUP1 ISZERO PUSH2 0x14A JUMPI DUP1 PUSH1 0x1F LT PUSH2 0x11F JUMPI PUSH2 0x100 DUP1 DUP4 SLOAD DIV MUL DUP4 MSTORE SWAP2 PUSH1 0x20 ADD SWAP2 PUSH2 0x14A JUMP JUMPDEST DUP3 ADD SWAP2 SWAP1 PUSH1 0x0 MSTORE PUSH1 0x20 PUSH1 0x0 KECCAK256 SWAP1 JUMPDEST DUP2 SLOAD DUP2 MSTORE SWAP1 PUSH1 0x1 ADD SWAP1 PUSH1 0x20 ADD DUP1 DUP4 GT PUSH2 0x12D JUMPI DUP3 SWAP1 SUB PUSH1 0x1F AND DUP3 ADD SWAP2 JUMPDEST POP POP POP POP POP DUP2 JUMP JUMPDEST PUSH1 0x0 PUSH32 0xFFFFFFFF00000000000000000000000000000000000000000000000000000000 DUP3 AND SWAP1 POP SWAP2 SWAP1 POP JUMP JUMPDEST PUSH2 0x187 DUP2 PUSH2 0x152 JUMP JUMPDEST DUP3 MSTORE POP POP JUMP JUMPDEST PUSH1 0x0 PUSH1 0x20 DUP3 ADD SWAP1 POP PUSH2 0x1A2 PUSH1 0x0 DUP4 ADD DUP5 PUSH2 0x17E JUMP JUMPDEST SWAP3 SWAP2 POP POP JUMP JUMPDEST PUSH1 0x0 DUP2 MLOAD SWAP1 POP SWAP2 SWAP1 POP JUMP JUMPDEST PUSH1 0x0 DUP3 DUP3 MSTORE PUSH1 0x20 DUP3 ADD SWAP1 POP SWAP3 SWAP2 POP POP JUMP JUMPDEST PUSH1 0x0 JUMPDEST DUP4 DUP2 LT ISZERO PUSH2 0x1E2 JUMPI DUP1 DUP3 ADD MLOAD DUP2 DUP5 ADD MSTORE PUSH1 0x20 DUP2 ADD SWAP1 POP PUSH2 0x1C7 JUMP JUMPDEST PUSH1 0x0 DUP5 DUP5 ADD MSTORE POP POP POP POP JUMP JUMPDEST PUSH1 0x0 PUSH1 0x1F NOT PUSH1 0x1F DUP4 ADD AND SWAP1 POP SWAP2 SWAP1 POP JUMP JUMPDEST PUSH1 0x0 PUSH2 0x20A DUP3 PUSH2 0x1A8 JUMP JUMPDEST PUSH2 0x214 DUP2 DUP6 PUSH2 0x1B3 JUMP JUMPDEST SWAP4 POP PUSH2 0x224 DUP2 DUP6 PUSH1 0x20 DUP7 ADD PUSH2 0x1C4 JUMP JUMPDEST PUSH2 0x22D DUP2 PUSH2 0x1EE JUMP JUMPDEST DUP5 ADD SWAP2 POP POP SWAP3 SWAP2 POP POP JUMP JUMPDEST PUSH1 0x0 PUSH1 0x20 DUP3 ADD SWAP1 POP DUP2 DUP2 SUB PUSH1 0x0 DUP4 ADD MSTORE PUSH2 0x252 DUP2 DUP5 PUSH2 0x1FF JUMP JUMPDEST SWAP1 POP SWAP3 SWAP2 POP POP JUMP JUMPDEST PUSH32 0x4E487B7100000000000000000000000000000000000000000000000000000000 PUSH1 0x0 MSTORE PUSH1 0x22 PUSH1 0x4 MSTORE PUSH1 0x24 PUSH1 0x0 REVERT JUMPDEST PUSH1 0x0 PUSH1 0x2 DUP3 DIV SWAP1 POP PUSH1 0x1 DUP3 AND DUP1 PUSH2 0x2A1 JUMPI PUSH1 0x7F DUP3 AND SWAP2 POP JUMPDEST PUSH1 0x20 DUP3 LT DUP2 SUB PUSH2 0x2B4 JUMPI PUSH2 0x2B3 PUSH2 0x25A JUMP JUMPDEST JUMPDEST POP SWAP2 SWAP1 POP JUMP INVALID LOG2 PUSH5 0x6970667358 0x22 SLT KECCAK256 0xD2 DUP2 0xEC GT CODESIZE 0xB9 0x5F PUSH14 0x7D283815E642976AA8DC40FBC581 SWAP10 0xEF LT EXTCODEHASH 0xF9 0xC6 0x4A PUSH15 0x676064736F6C634300081300330000 "
				},
				"gasEstimates": {
					"creation": {
						"codeDepositCost": "150400",
						"executionCost": "infinite",
						"totalCost": "infinite"
					},
					"external": {
						"selector()": "infinite",
						"selector1()": "2468",
						"selector2()": "2499"
					}
				},
				"methodIdentifiers": {
					"selector()": "ea3d508a",
					"selector1()": "e9b33174",
					"selector2()": "44c984a7"
				}
			},
			"storageLayout": {
				"storage": [
					{
						"astId": 9,
						"contract": "contracts/ebcTrans/stakeEbcTransparentProxy.sol:Foo",
						"label": "selector1",
						"offset": 0,
						"slot": "0",
						"type": "t_bytes4"
					},
					{
						"astId": 17,
						"contract": "contracts/ebcTrans/stakeEbcTransparentProxy.sol:Foo",
						"label": "selector2",
						"offset": 4,
						"slot": "0",
						"type": "t_bytes4"
					},
					{
						"astId": 23,
						"contract": "contracts/ebcTrans/stakeEbcTransparentProxy.sol:Foo",
						"label": "selector",
						"offset": 0,
						"slot": "1",
						"type": "t_bytes_storage"
					}
				],
				"types": {
					"t_bytes4": {
						"encoding": "inplace",
						"label": "bytes4",
						"numberOfBytes": "4"
					},
					"t_bytes_storage": {
						"encoding": "bytes",
						"label": "bytes",
						"numberOfBytes": "32"
					}
				}
			},
			"userdoc": {
				"kind": "user",
				"methods": {},
				"version": 1
			}
		}
	}
}