{
	"contracts/DaiLi/TransparentProxy.sol": {
		"Logic2": {
			"abi": [
				{
					"inputs": [],
					"name": "admin",
					"outputs": [
						{
							"internalType": "address",
							"name": "",
							"type": "address"
						}
					],
					"stateMutability": "view",
					"type": "function"
				},
				{
					"inputs": [],
					"name": "f1",
					"outputs": [],
					"stateMutability": "nonpayable",
					"type": "function"
				},
				{
					"inputs": [
						{
							"internalType": "uint256",
							"name": "t_1",
							"type": "uint256"
						}
					],
					"name": "foo",
					"outputs": [],
					"stateMutability": "nonpayable",
					"type": "function"
				},
				{
					"inputs": [],
					"name": "foo",
					"outputs": [],
					"stateMutability": "nonpayable",
					"type": "function"
				},
				{
					"inputs": [
						{
							"internalType": "uint256",
							"name": "t_1",
							"type": "uint256"
						}
					],
					"name": "foo1",
					"outputs": [],
					"stateMutability": "nonpayable",
					"type": "function"
				},
				{
					"inputs": [],
					"name": "implementation",
					"outputs": [
						{
							"internalType": "address",
							"name": "",
							"type": "address"
						}
					],
					"stateMutability": "view",
					"type": "function"
				},
				{
					"inputs": [],
					"name": "selector",
					"outputs": [
						{
							"internalType": "bytes",
							"name": "",
							"type": "bytes"
						}
					],
					"stateMutability": "view",
					"type": "function"
				},
				{
					"inputs": [],
					"name": "selector5",
					"outputs": [
						{
							"internalType": "bytes",
							"name": "",
							"type": "bytes"
						}
					],
					"stateMutability": "view",
					"type": "function"
				},
				{
					"inputs": [
						{
							"internalType": "address",
							"name": "newImplementation",
							"type": "address"
						}
					],
					"name": "upgrade1",
					"outputs": [],
					"stateMutability": "nonpayable",
					"type": "function"
				},
				{
					"inputs": [],
					"name": "words",
					"outputs": [
						{
							"internalType": "string",
							"name": "",
							"type": "string"
						}
					],
					"stateMutability": "view",
					"type": "function"
				}
			],
			"devdoc": {
				"kind": "dev",
				"methods": {},
				"version": 1
			},
			"evm": {
				"assembly": "    /* \"contracts/DaiLi/TransparentProxy.sol\":2746:3813  contract Logic2 {... */\n  mstore(0x40, 0x80)\n  callvalue\n  dup1\n  iszero\n  tag_1\n  jumpi\n  0x00\n  dup1\n  revert\ntag_1:\n  pop\n  dataSize(sub_0)\n  dup1\n  dataOffset(sub_0)\n  0x00\n  codecopy\n  0x00\n  return\nstop\n\nsub_0: assembly {\n        /* \"contracts/DaiLi/TransparentProxy.sol\":2746:3813  contract Logic2 {... */\n      mstore(0x40, 0x80)\n      callvalue\n      dup1\n      iszero\n      tag_1\n      jumpi\n      0x00\n      dup1\n      revert\n    tag_1:\n      pop\n      jumpi(tag_2, lt(calldatasize, 0x04))\n      shr(0xe0, calldataload(0x00))\n      dup1\n      0xc2985578\n      gt\n      tag_13\n      jumpi\n      dup1\n      0xc2985578\n      eq\n      tag_8\n      jumpi\n      dup1\n      0xc4f51613\n      eq\n      tag_9\n      jumpi\n      dup1\n      0xea3d508a\n      eq\n      tag_10\n      jumpi\n      dup1\n      0xf2c31bd9\n      eq\n      tag_11\n      jumpi\n      dup1\n      0xf851a440\n      eq\n      tag_12\n      jumpi\n      jump(tag_2)\n    tag_13:\n      dup1\n      0x2fbebd38\n      eq\n      tag_3\n      jumpi\n      dup1\n      0x5c60da1b\n      eq\n      tag_4\n      jumpi\n      dup1\n      0xab5128ef\n      eq\n      tag_5\n      jumpi\n      dup1\n      0xacd32943\n      eq\n      tag_6\n      jumpi\n      dup1\n      0xc27fc305\n      eq\n      tag_7\n      jumpi\n    tag_2:\n      0x00\n      dup1\n      revert\n        /* \"contracts/DaiLi/TransparentProxy.sol\":3637:3715  function foo(uint t_1) public{... */\n    tag_3:\n      tag_14\n      0x04\n      dup1\n      calldatasize\n      sub\n      dup2\n      add\n      swap1\n      tag_15\n      swap2\n      swap1\n      tag_16\n      jump\t// in\n    tag_15:\n      tag_17\n      jump\t// in\n    tag_14:\n      stop\n        /* \"contracts/DaiLi/TransparentProxy.sol\":2769:2799  address public  implementation */\n    tag_4:\n      tag_18\n      tag_19\n      jump\t// in\n    tag_18:\n      mload(0x40)\n      tag_20\n      swap2\n      swap1\n      tag_21\n      jump\t// in\n    tag_20:\n      mload(0x40)\n      dup1\n      swap2\n      sub\n      swap1\n      return\n        /* \"contracts/DaiLi/TransparentProxy.sol\":3722:3804  function foo1(uint t_1) public{... */\n    tag_5:\n      tag_22\n      0x04\n      dup1\n      calldatasize\n      sub\n      dup2\n      add\n      swap1\n      tag_23\n      swap2\n      swap1\n      tag_16\n      jump\t// in\n    tag_23:\n      tag_24\n      jump\t// in\n    tag_22:\n      stop\n        /* \"contracts/DaiLi/TransparentProxy.sol\":3198:3374  function upgrade1(address newImplementation) external {... */\n    tag_6:\n      tag_25\n      0x04\n      dup1\n      calldatasize\n      sub\n      dup2\n      add\n      swap1\n      tag_26\n      swap2\n      swap1\n      tag_27\n      jump\t// in\n    tag_26:\n      tag_28\n      jump\t// in\n    tag_25:\n      stop\n        /* \"contracts/DaiLi/TransparentProxy.sol\":3386:3440  function f1() public{... */\n    tag_7:\n      tag_29\n      tag_30\n      jump\t// in\n    tag_29:\n      stop\n        /* \"contracts/DaiLi/TransparentProxy.sol\":3513:3566  function foo() public{... */\n    tag_8:\n      tag_31\n      tag_32\n      jump\t// in\n    tag_31:\n      stop\n        /* \"contracts/DaiLi/TransparentProxy.sol\":2976:2998  bytes public selector5 */\n    tag_9:\n      tag_33\n      tag_34\n      jump\t// in\n    tag_33:\n      mload(0x40)\n      tag_35\n      swap2\n      swap1\n      tag_36\n      jump\t// in\n    tag_35:\n      mload(0x40)\n      dup1\n      swap2\n      sub\n      swap1\n      return\n        /* \"contracts/DaiLi/TransparentProxy.sol\":2948:2969  bytes public selector */\n    tag_10:\n      tag_37\n      tag_38\n      jump\t// in\n    tag_37:\n      mload(0x40)\n      tag_39\n      swap2\n      swap1\n      tag_36\n      jump\t// in\n    tag_39:\n      mload(0x40)\n      dup1\n      swap2\n      sub\n      swap1\n      return\n        /* \"contracts/DaiLi/TransparentProxy.sol\":2867:2886  string public words */\n    tag_11:\n      tag_40\n      tag_41\n      jump\t// in\n    tag_40:\n      mload(0x40)\n      tag_42\n      swap2\n      swap1\n      tag_43\n      jump\t// in\n    tag_42:\n      mload(0x40)\n      dup1\n      swap2\n      sub\n      swap1\n      return\n        /* \"contracts/DaiLi/TransparentProxy.sol\":2827:2847  address public admin */\n    tag_12:\n      tag_44\n      tag_45\n      jump\t// in\n    tag_44:\n      mload(0x40)\n      tag_46\n      swap2\n      swap1\n      tag_21\n      jump\t// in\n    tag_46:\n      mload(0x40)\n      dup1\n      swap2\n      sub\n      swap1\n      return\n        /* \"contracts/DaiLi/TransparentProxy.sol\":3637:3715  function foo(uint t_1) public{... */\n    tag_17:\n        /* \"contracts/DaiLi/TransparentProxy.sol\":3681:3682  9 */\n      0x09\n        /* \"contracts/DaiLi/TransparentProxy.sol\":3677:3682  t_1=9 */\n      swap1\n      pop\n        /* \"contracts/DaiLi/TransparentProxy.sol\":3693:3707  words = \"new0\" */\n      mload(0x40)\n      dup1\n      0x40\n      add\n      0x40\n      mstore\n      dup1\n      0x04\n      dup2\n      mstore\n      0x20\n      add\n      0x6e65773000000000000000000000000000000000000000000000000000000000\n      dup2\n      mstore\n      pop\n        /* \"contracts/DaiLi/TransparentProxy.sol\":3693:3698  words */\n      0x02\n        /* \"contracts/DaiLi/TransparentProxy.sol\":3693:3707  words = \"new0\" */\n      swap1\n      dup2\n      tag_48\n      swap2\n      swap1\n      tag_49\n      jump\t// in\n    tag_48:\n      pop\n        /* \"contracts/DaiLi/TransparentProxy.sol\":3637:3715  function foo(uint t_1) public{... */\n      pop\n      jump\t// out\n        /* \"contracts/DaiLi/TransparentProxy.sol\":2769:2799  address public  implementation */\n    tag_19:\n      0x00\n      dup1\n      sload\n      swap1\n      0x0100\n      exp\n      swap1\n      div\n      0xffffffffffffffffffffffffffffffffffffffff\n      and\n      dup2\n      jump\t// out\n        /* \"contracts/DaiLi/TransparentProxy.sol\":3722:3804  function foo1(uint t_1) public{... */\n    tag_24:\n        /* \"contracts/DaiLi/TransparentProxy.sol\":3769:3771  10 */\n      0x0a\n        /* \"contracts/DaiLi/TransparentProxy.sol\":3765:3771  t_1=10 */\n      swap1\n      pop\n        /* \"contracts/DaiLi/TransparentProxy.sol\":3782:3796  words = \"new1\" */\n      mload(0x40)\n      dup1\n      0x40\n      add\n      0x40\n      mstore\n      dup1\n      0x04\n      dup2\n      mstore\n      0x20\n      add\n      0x6e65773100000000000000000000000000000000000000000000000000000000\n      dup2\n      mstore\n      pop\n        /* \"contracts/DaiLi/TransparentProxy.sol\":3782:3787  words */\n      0x02\n        /* \"contracts/DaiLi/TransparentProxy.sol\":3782:3796  words = \"new1\" */\n      swap1\n      dup2\n      tag_51\n      swap2\n      swap1\n      tag_49\n      jump\t// in\n    tag_51:\n      pop\n        /* \"contracts/DaiLi/TransparentProxy.sol\":3722:3804  function foo1(uint t_1) public{... */\n      pop\n      jump\t// out\n        /* \"contracts/DaiLi/TransparentProxy.sol\":3198:3374  function upgrade1(address newImplementation) external {... */\n    tag_28:\n        /* \"contracts/DaiLi/TransparentProxy.sol\":3285:3290  admin */\n      0x01\n      0x00\n      swap1\n      sload\n      swap1\n      0x0100\n      exp\n      swap1\n      div\n      0xffffffffffffffffffffffffffffffffffffffff\n      and\n        /* \"contracts/DaiLi/TransparentProxy.sol\":3271:3290  msg.sender == admin */\n      0xffffffffffffffffffffffffffffffffffffffff\n      and\n        /* \"contracts/DaiLi/TransparentProxy.sol\":3271:3281  msg.sender */\n      caller\n        /* \"contracts/DaiLi/TransparentProxy.sol\":3271:3290  msg.sender == admin */\n      0xffffffffffffffffffffffffffffffffffffffff\n      and\n      eq\n        /* \"contracts/DaiLi/TransparentProxy.sol\":3263:3291  require(msg.sender == admin) */\n      tag_53\n      jumpi\n      0x00\n      dup1\n      revert\n    tag_53:\n        /* \"contracts/DaiLi/TransparentProxy.sol\":3319:3336  newImplementation */\n      dup1\n        /* \"contracts/DaiLi/TransparentProxy.sol\":3302:3316  implementation */\n      0x00\n      dup1\n        /* \"contracts/DaiLi/TransparentProxy.sol\":3302:3336  implementation = newImplementation */\n      0x0100\n      exp\n      dup2\n      sload\n      dup2\n      0xffffffffffffffffffffffffffffffffffffffff\n      mul\n      not\n      and\n      swap1\n      dup4\n      0xffffffffffffffffffffffffffffffffffffffff\n      and\n      mul\n      or\n      swap1\n      sstore\n      pop\n        /* \"contracts/DaiLi/TransparentProxy.sol\":3348:3366  words = \"upgrade1\" */\n      mload(0x40)\n      dup1\n      0x40\n      add\n      0x40\n      mstore\n      dup1\n      0x08\n      dup2\n      mstore\n      0x20\n      add\n      0x7570677261646531000000000000000000000000000000000000000000000000\n      dup2\n      mstore\n      pop\n        /* \"contracts/DaiLi/TransparentProxy.sol\":3348:3353  words */\n      0x02\n        /* \"contracts/DaiLi/TransparentProxy.sol\":3348:3366  words = \"upgrade1\" */\n      swap1\n      dup2\n      tag_54\n      swap2\n      swap1\n      tag_49\n      jump\t// in\n    tag_54:\n      pop\n        /* \"contracts/DaiLi/TransparentProxy.sol\":3198:3374  function upgrade1(address newImplementation) external {... */\n      pop\n      jump\t// out\n        /* \"contracts/DaiLi/TransparentProxy.sol\":3386:3440  function f1() public{... */\n    tag_30:\n        /* \"contracts/DaiLi/TransparentProxy.sol\":3417:3432  words = \"newf1\" */\n      mload(0x40)\n      dup1\n      0x40\n      add\n      0x40\n      mstore\n      dup1\n      0x05\n      dup2\n      mstore\n      0x20\n      add\n      0x6e65776631000000000000000000000000000000000000000000000000000000\n      dup2\n      mstore\n      pop\n        /* \"contracts/DaiLi/TransparentProxy.sol\":3417:3422  words */\n      0x02\n        /* \"contracts/DaiLi/TransparentProxy.sol\":3417:3432  words = \"newf1\" */\n      swap1\n      dup2\n      tag_56\n      swap2\n      swap1\n      tag_49\n      jump\t// in\n    tag_56:\n      pop\n        /* \"contracts/DaiLi/TransparentProxy.sol\":3386:3440  function f1() public{... */\n      jump\t// out\n        /* \"contracts/DaiLi/TransparentProxy.sol\":3513:3566  function foo() public{... */\n    tag_32:\n        /* \"contracts/DaiLi/TransparentProxy.sol\":3545:3558  words = \"new\" */\n      mload(0x40)\n      dup1\n      0x40\n      add\n      0x40\n      mstore\n      dup1\n      0x03\n      dup2\n      mstore\n      0x20\n      add\n      0x6e65770000000000000000000000000000000000000000000000000000000000\n      dup2\n      mstore\n      pop\n        /* \"contracts/DaiLi/TransparentProxy.sol\":3545:3550  words */\n      0x02\n        /* \"contracts/DaiLi/TransparentProxy.sol\":3545:3558  words = \"new\" */\n      swap1\n      dup2\n      tag_58\n      swap2\n      swap1\n      tag_49\n      jump\t// in\n    tag_58:\n      pop\n        /* \"contracts/DaiLi/TransparentProxy.sol\":3513:3566  function foo() public{... */\n      jump\t// out\n        /* \"contracts/DaiLi/TransparentProxy.sol\":2976:2998  bytes public selector5 */\n    tag_34:\n      0x04\n      dup1\n      sload\n      tag_59\n      swap1\n      tag_60\n      jump\t// in\n    tag_59:\n      dup1\n      0x1f\n      add\n      0x20\n      dup1\n      swap2\n      div\n      mul\n      0x20\n      add\n      mload(0x40)\n      swap1\n      dup2\n      add\n      0x40\n      mstore\n      dup1\n      swap3\n      swap2\n      swap1\n      dup2\n      dup2\n      mstore\n      0x20\n      add\n      dup3\n      dup1\n      sload\n      tag_61\n      swap1\n      tag_60\n      jump\t// in\n    tag_61:\n      dup1\n      iszero\n      tag_62\n      jumpi\n      dup1\n      0x1f\n      lt\n      tag_63\n      jumpi\n      0x0100\n      dup1\n      dup4\n      sload\n      div\n      mul\n      dup4\n      mstore\n      swap2\n      0x20\n      add\n      swap2\n      jump(tag_62)\n    tag_63:\n      dup3\n      add\n      swap2\n      swap1\n      0x00\n      mstore\n      keccak256(0x00, 0x20)\n      swap1\n    tag_64:\n      dup2\n      sload\n      dup2\n      mstore\n      swap1\n      0x01\n      add\n      swap1\n      0x20\n      add\n      dup1\n      dup4\n      gt\n      tag_64\n      jumpi\n      dup3\n      swap1\n      sub\n      0x1f\n      and\n      dup3\n      add\n      swap2\n    tag_62:\n      pop\n      pop\n      pop\n      pop\n      pop\n      dup2\n      jump\t// out\n        /* \"contracts/DaiLi/TransparentProxy.sol\":2948:2969  bytes public selector */\n    tag_38:\n      0x03\n      dup1\n      sload\n      tag_65\n      swap1\n      tag_60\n      jump\t// in\n    tag_65:\n      dup1\n      0x1f\n      add\n      0x20\n      dup1\n      swap2\n      div\n      mul\n      0x20\n      add\n      mload(0x40)\n      swap1\n      dup2\n      add\n      0x40\n      mstore\n      dup1\n      swap3\n      swap2\n      swap1\n      dup2\n      dup2\n      mstore\n      0x20\n      add\n      dup3\n      dup1\n      sload\n      tag_66\n      swap1\n      tag_60\n      jump\t// in\n    tag_66:\n      dup1\n      iszero\n      tag_67\n      jumpi\n      dup1\n      0x1f\n      lt\n      tag_68\n      jumpi\n      0x0100\n      dup1\n      dup4\n      sload\n      div\n      mul\n      dup4\n      mstore\n      swap2\n      0x20\n      add\n      swap2\n      jump(tag_67)\n    tag_68:\n      dup3\n      add\n      swap2\n      swap1\n      0x00\n      mstore\n      keccak256(0x00, 0x20)\n      swap1\n    tag_69:\n      dup2\n      sload\n      dup2\n      mstore\n      swap1\n      0x01\n      add\n      swap1\n      0x20\n      add\n      dup1\n      dup4\n      gt\n      tag_69\n      jumpi\n      dup3\n      swap1\n      sub\n      0x1f\n      and\n      dup3\n      add\n      swap2\n    tag_67:\n      pop\n      pop\n      pop\n      pop\n      pop\n      dup2\n      jump\t// out\n        /* \"contracts/DaiLi/TransparentProxy.sol\":2867:2886  string public words */\n    tag_41:\n      0x02\n      dup1\n      sload\n      tag_70\n      swap1\n      tag_60\n      jump\t// in\n    tag_70:\n      dup1\n      0x1f\n      add\n      0x20\n      dup1\n      swap2\n      div\n      mul\n      0x20\n      add\n      mload(0x40)\n      swap1\n      dup2\n      add\n      0x40\n      mstore\n      dup1\n      swap3\n      swap2\n      swap1\n      dup2\n      dup2\n      mstore\n      0x20\n      add\n      dup3\n      dup1\n      sload\n      tag_71\n      swap1\n      tag_60\n      jump\t// in\n    tag_71:\n      dup1\n      iszero\n      tag_72\n      jumpi\n      dup1\n      0x1f\n      lt\n      tag_73\n      jumpi\n      0x0100\n      dup1\n      dup4\n      sload\n      div\n      mul\n      dup4\n      mstore\n      swap2\n      0x20\n      add\n      swap2\n      jump(tag_72)\n    tag_73:\n      dup3\n      add\n      swap2\n      swap1\n      0x00\n      mstore\n      keccak256(0x00, 0x20)\n      swap1\n    tag_74:\n      dup2\n      sload\n      dup2\n      mstore\n      swap1\n      0x01\n      add\n      swap1\n      0x20\n      add\n      dup1\n      dup4\n      gt\n      tag_74\n      jumpi\n      dup3\n      swap1\n      sub\n      0x1f\n      and\n      dup3\n      add\n      swap2\n    tag_72:\n      pop\n      pop\n      pop\n      pop\n      pop\n      dup2\n      jump\t// out\n        /* \"contracts/DaiLi/TransparentProxy.sol\":2827:2847  address public admin */\n    tag_45:\n      0x01\n      0x00\n      swap1\n      sload\n      swap1\n      0x0100\n      exp\n      swap1\n      div\n      0xffffffffffffffffffffffffffffffffffffffff\n      and\n      dup2\n      jump\t// out\n        /* \"#utility.yul\":88:205   */\n    tag_76:\n        /* \"#utility.yul\":197:198   */\n      0x00\n        /* \"#utility.yul\":194:195   */\n      dup1\n        /* \"#utility.yul\":187:199   */\n      revert\n        /* \"#utility.yul\":334:411   */\n    tag_78:\n        /* \"#utility.yul\":371:378   */\n      0x00\n        /* \"#utility.yul\":400:405   */\n      dup2\n        /* \"#utility.yul\":389:405   */\n      swap1\n      pop\n        /* \"#utility.yul\":334:411   */\n      swap2\n      swap1\n      pop\n      jump\t// out\n        /* \"#utility.yul\":417:539   */\n    tag_79:\n        /* \"#utility.yul\":490:514   */\n      tag_117\n        /* \"#utility.yul\":508:513   */\n      dup2\n        /* \"#utility.yul\":490:514   */\n      tag_78\n      jump\t// in\n    tag_117:\n        /* \"#utility.yul\":483:488   */\n      dup2\n        /* \"#utility.yul\":480:515   */\n      eq\n        /* \"#utility.yul\":470:533   */\n      tag_118\n      jumpi\n        /* \"#utility.yul\":529:530   */\n      0x00\n        /* \"#utility.yul\":526:527   */\n      dup1\n        /* \"#utility.yul\":519:531   */\n      revert\n        /* \"#utility.yul\":470:533   */\n    tag_118:\n        /* \"#utility.yul\":417:539   */\n      pop\n      jump\t// out\n        /* \"#utility.yul\":545:684   */\n    tag_80:\n        /* \"#utility.yul\":591:596   */\n      0x00\n        /* \"#utility.yul\":629:635   */\n      dup2\n        /* \"#utility.yul\":616:636   */\n      calldataload\n        /* \"#utility.yul\":607:636   */\n      swap1\n      pop\n        /* \"#utility.yul\":645:678   */\n      tag_120\n        /* \"#utility.yul\":672:677   */\n      dup2\n        /* \"#utility.yul\":645:678   */\n      tag_79\n      jump\t// in\n    tag_120:\n        /* \"#utility.yul\":545:684   */\n      swap3\n      swap2\n      pop\n      pop\n      jump\t// out\n        /* \"#utility.yul\":690:1019   */\n    tag_16:\n        /* \"#utility.yul\":749:755   */\n      0x00\n        /* \"#utility.yul\":798:800   */\n      0x20\n        /* \"#utility.yul\":786:795   */\n      dup3\n        /* \"#utility.yul\":777:784   */\n      dup5\n        /* \"#utility.yul\":773:796   */\n      sub\n        /* \"#utility.yul\":769:801   */\n      slt\n        /* \"#utility.yul\":766:885   */\n      iszero\n      tag_122\n      jumpi\n        /* \"#utility.yul\":804:883   */\n      tag_123\n      tag_76\n      jump\t// in\n    tag_123:\n        /* \"#utility.yul\":766:885   */\n    tag_122:\n        /* \"#utility.yul\":924:925   */\n      0x00\n        /* \"#utility.yul\":949:1002   */\n      tag_124\n        /* \"#utility.yul\":994:1001   */\n      dup5\n        /* \"#utility.yul\":985:991   */\n      dup3\n        /* \"#utility.yul\":974:983   */\n      dup6\n        /* \"#utility.yul\":970:992   */\n      add\n        /* \"#utility.yul\":949:1002   */\n      tag_80\n      jump\t// in\n    tag_124:\n        /* \"#utility.yul\":939:1002   */\n      swap2\n      pop\n        /* \"#utility.yul\":895:1012   */\n      pop\n        /* \"#utility.yul\":690:1019   */\n      swap3\n      swap2\n      pop\n      pop\n      jump\t// out\n        /* \"#utility.yul\":1025:1151   */\n    tag_81:\n        /* \"#utility.yul\":1062:1069   */\n      0x00\n        /* \"#utility.yul\":1102:1144   */\n      0xffffffffffffffffffffffffffffffffffffffff\n        /* \"#utility.yul\":1095:1100   */\n      dup3\n        /* \"#utility.yul\":1091:1145   */\n      and\n        /* \"#utility.yul\":1080:1145   */\n      swap1\n      pop\n        /* \"#utility.yul\":1025:1151   */\n      swap2\n      swap1\n      pop\n      jump\t// out\n        /* \"#utility.yul\":1157:1253   */\n    tag_82:\n        /* \"#utility.yul\":1194:1201   */\n      0x00\n        /* \"#utility.yul\":1223:1247   */\n      tag_127\n        /* \"#utility.yul\":1241:1246   */\n      dup3\n        /* \"#utility.yul\":1223:1247   */\n      tag_81\n      jump\t// in\n    tag_127:\n        /* \"#utility.yul\":1212:1247   */\n      swap1\n      pop\n        /* \"#utility.yul\":1157:1253   */\n      swap2\n      swap1\n      pop\n      jump\t// out\n        /* \"#utility.yul\":1259:1377   */\n    tag_83:\n        /* \"#utility.yul\":1346:1370   */\n      tag_129\n        /* \"#utility.yul\":1364:1369   */\n      dup2\n        /* \"#utility.yul\":1346:1370   */\n      tag_82\n      jump\t// in\n    tag_129:\n        /* \"#utility.yul\":1341:1344   */\n      dup3\n        /* \"#utility.yul\":1334:1371   */\n      mstore\n        /* \"#utility.yul\":1259:1377   */\n      pop\n      pop\n      jump\t// out\n        /* \"#utility.yul\":1383:1605   */\n    tag_21:\n        /* \"#utility.yul\":1476:1480   */\n      0x00\n        /* \"#utility.yul\":1514:1516   */\n      0x20\n        /* \"#utility.yul\":1503:1512   */\n      dup3\n        /* \"#utility.yul\":1499:1517   */\n      add\n        /* \"#utility.yul\":1491:1517   */\n      swap1\n      pop\n        /* \"#utility.yul\":1527:1598   */\n      tag_131\n        /* \"#utility.yul\":1595:1596   */\n      0x00\n        /* \"#utility.yul\":1584:1593   */\n      dup4\n        /* \"#utility.yul\":1580:1597   */\n      add\n        /* \"#utility.yul\":1571:1577   */\n      dup5\n        /* \"#utility.yul\":1527:1598   */\n      tag_83\n      jump\t// in\n    tag_131:\n        /* \"#utility.yul\":1383:1605   */\n      swap3\n      swap2\n      pop\n      pop\n      jump\t// out\n        /* \"#utility.yul\":1611:1733   */\n    tag_84:\n        /* \"#utility.yul\":1684:1708   */\n      tag_133\n        /* \"#utility.yul\":1702:1707   */\n      dup2\n        /* \"#utility.yul\":1684:1708   */\n      tag_82\n      jump\t// in\n    tag_133:\n        /* \"#utility.yul\":1677:1682   */\n      dup2\n        /* \"#utility.yul\":1674:1709   */\n      eq\n        /* \"#utility.yul\":1664:1727   */\n      tag_134\n      jumpi\n        /* \"#utility.yul\":1723:1724   */\n      0x00\n        /* \"#utility.yul\":1720:1721   */\n      dup1\n        /* \"#utility.yul\":1713:1725   */\n      revert\n        /* \"#utility.yul\":1664:1727   */\n    tag_134:\n        /* \"#utility.yul\":1611:1733   */\n      pop\n      jump\t// out\n        /* \"#utility.yul\":1739:1878   */\n    tag_85:\n        /* \"#utility.yul\":1785:1790   */\n      0x00\n        /* \"#utility.yul\":1823:1829   */\n      dup2\n        /* \"#utility.yul\":1810:1830   */\n      calldataload\n        /* \"#utility.yul\":1801:1830   */\n      swap1\n      pop\n        /* \"#utility.yul\":1839:1872   */\n      tag_136\n        /* \"#utility.yul\":1866:1871   */\n      dup2\n        /* \"#utility.yul\":1839:1872   */\n      tag_84\n      jump\t// in\n    tag_136:\n        /* \"#utility.yul\":1739:1878   */\n      swap3\n      swap2\n      pop\n      pop\n      jump\t// out\n        /* \"#utility.yul\":1884:2213   */\n    tag_27:\n        /* \"#utility.yul\":1943:1949   */\n      0x00\n        /* \"#utility.yul\":1992:1994   */\n      0x20\n        /* \"#utility.yul\":1980:1989   */\n      dup3\n        /* \"#utility.yul\":1971:1978   */\n      dup5\n        /* \"#utility.yul\":1967:1990   */\n      sub\n        /* \"#utility.yul\":1963:1995   */\n      slt\n        /* \"#utility.yul\":1960:2079   */\n      iszero\n      tag_138\n      jumpi\n        /* \"#utility.yul\":1998:2077   */\n      tag_139\n      tag_76\n      jump\t// in\n    tag_139:\n        /* \"#utility.yul\":1960:2079   */\n    tag_138:\n        /* \"#utility.yul\":2118:2119   */\n      0x00\n        /* \"#utility.yul\":2143:2196   */\n      tag_140\n        /* \"#utility.yul\":2188:2195   */\n      dup5\n        /* \"#utility.yul\":2179:2185   */\n      dup3\n        /* \"#utility.yul\":2168:2177   */\n      dup6\n        /* \"#utility.yul\":2164:2186   */\n      add\n        /* \"#utility.yul\":2143:2196   */\n      tag_85\n      jump\t// in\n    tag_140:\n        /* \"#utility.yul\":2133:2196   */\n      swap2\n      pop\n        /* \"#utility.yul\":2089:2206   */\n      pop\n        /* \"#utility.yul\":1884:2213   */\n      swap3\n      swap2\n      pop\n      pop\n      jump\t// out\n        /* \"#utility.yul\":2219:2317   */\n    tag_86:\n        /* \"#utility.yul\":2270:2276   */\n      0x00\n        /* \"#utility.yul\":2304:2309   */\n      dup2\n        /* \"#utility.yul\":2298:2310   */\n      mload\n        /* \"#utility.yul\":2288:2310   */\n      swap1\n      pop\n        /* \"#utility.yul\":2219:2317   */\n      swap2\n      swap1\n      pop\n      jump\t// out\n        /* \"#utility.yul\":2323:2491   */\n    tag_87:\n        /* \"#utility.yul\":2406:2417   */\n      0x00\n        /* \"#utility.yul\":2440:2446   */\n      dup3\n        /* \"#utility.yul\":2435:2438   */\n      dup3\n        /* \"#utility.yul\":2428:2447   */\n      mstore\n        /* \"#utility.yul\":2480:2484   */\n      0x20\n        /* \"#utility.yul\":2475:2478   */\n      dup3\n        /* \"#utility.yul\":2471:2485   */\n      add\n        /* \"#utility.yul\":2456:2485   */\n      swap1\n      pop\n        /* \"#utility.yul\":2323:2491   */\n      swap3\n      swap2\n      pop\n      pop\n      jump\t// out\n        /* \"#utility.yul\":2497:2743   */\n    tag_88:\n        /* \"#utility.yul\":2578:2579   */\n      0x00\n        /* \"#utility.yul\":2588:2701   */\n    tag_144:\n        /* \"#utility.yul\":2602:2608   */\n      dup4\n        /* \"#utility.yul\":2599:2600   */\n      dup2\n        /* \"#utility.yul\":2596:2609   */\n      lt\n        /* \"#utility.yul\":2588:2701   */\n      iszero\n      tag_146\n      jumpi\n        /* \"#utility.yul\":2687:2688   */\n      dup1\n        /* \"#utility.yul\":2682:2685   */\n      dup3\n        /* \"#utility.yul\":2678:2689   */\n      add\n        /* \"#utility.yul\":2672:2690   */\n      mload\n        /* \"#utility.yul\":2668:2669   */\n      dup2\n        /* \"#utility.yul\":2663:2666   */\n      dup5\n        /* \"#utility.yul\":2659:2670   */\n      add\n        /* \"#utility.yul\":2652:2691   */\n      mstore\n        /* \"#utility.yul\":2624:2626   */\n      0x20\n        /* \"#utility.yul\":2621:2622   */\n      dup2\n        /* \"#utility.yul\":2617:2627   */\n      add\n        /* \"#utility.yul\":2612:2627   */\n      swap1\n      pop\n        /* \"#utility.yul\":2588:2701   */\n      jump(tag_144)\n    tag_146:\n        /* \"#utility.yul\":2735:2736   */\n      0x00\n        /* \"#utility.yul\":2726:2732   */\n      dup5\n        /* \"#utility.yul\":2721:2724   */\n      dup5\n        /* \"#utility.yul\":2717:2733   */\n      add\n        /* \"#utility.yul\":2710:2737   */\n      mstore\n        /* \"#utility.yul\":2559:2743   */\n      pop\n        /* \"#utility.yul\":2497:2743   */\n      pop\n      pop\n      pop\n      jump\t// out\n        /* \"#utility.yul\":2749:2851   */\n    tag_89:\n        /* \"#utility.yul\":2790:2796   */\n      0x00\n        /* \"#utility.yul\":2841:2843   */\n      0x1f\n        /* \"#utility.yul\":2837:2844   */\n      not\n        /* \"#utility.yul\":2832:2834   */\n      0x1f\n        /* \"#utility.yul\":2825:2830   */\n      dup4\n        /* \"#utility.yul\":2821:2835   */\n      add\n        /* \"#utility.yul\":2817:2845   */\n      and\n        /* \"#utility.yul\":2807:2845   */\n      swap1\n      pop\n        /* \"#utility.yul\":2749:2851   */\n      swap2\n      swap1\n      pop\n      jump\t// out\n        /* \"#utility.yul\":2857:3230   */\n    tag_90:\n        /* \"#utility.yul\":2943:2946   */\n      0x00\n        /* \"#utility.yul\":2971:3009   */\n      tag_149\n        /* \"#utility.yul\":3003:3008   */\n      dup3\n        /* \"#utility.yul\":2971:3009   */\n      tag_86\n      jump\t// in\n    tag_149:\n        /* \"#utility.yul\":3025:3095   */\n      tag_150\n        /* \"#utility.yul\":3088:3094   */\n      dup2\n        /* \"#utility.yul\":3083:3086   */\n      dup6\n        /* \"#utility.yul\":3025:3095   */\n      tag_87\n      jump\t// in\n    tag_150:\n        /* \"#utility.yul\":3018:3095   */\n      swap4\n      pop\n        /* \"#utility.yul\":3104:3169   */\n      tag_151\n        /* \"#utility.yul\":3162:3168   */\n      dup2\n        /* \"#utility.yul\":3157:3160   */\n      dup6\n        /* \"#utility.yul\":3150:3154   */\n      0x20\n        /* \"#utility.yul\":3143:3148   */\n      dup7\n        /* \"#utility.yul\":3139:3155   */\n      add\n        /* \"#utility.yul\":3104:3169   */\n      tag_88\n      jump\t// in\n    tag_151:\n        /* \"#utility.yul\":3194:3223   */\n      tag_152\n        /* \"#utility.yul\":3216:3222   */\n      dup2\n        /* \"#utility.yul\":3194:3223   */\n      tag_89\n      jump\t// in\n    tag_152:\n        /* \"#utility.yul\":3189:3192   */\n      dup5\n        /* \"#utility.yul\":3185:3224   */\n      add\n        /* \"#utility.yul\":3178:3224   */\n      swap2\n      pop\n        /* \"#utility.yul\":2947:3230   */\n      pop\n        /* \"#utility.yul\":2857:3230   */\n      swap3\n      swap2\n      pop\n      pop\n      jump\t// out\n        /* \"#utility.yul\":3236:3545   */\n    tag_36:\n        /* \"#utility.yul\":3347:3351   */\n      0x00\n        /* \"#utility.yul\":3385:3387   */\n      0x20\n        /* \"#utility.yul\":3374:3383   */\n      dup3\n        /* \"#utility.yul\":3370:3388   */\n      add\n        /* \"#utility.yul\":3362:3388   */\n      swap1\n      pop\n        /* \"#utility.yul\":3434:3443   */\n      dup2\n        /* \"#utility.yul\":3428:3432   */\n      dup2\n        /* \"#utility.yul\":3424:3444   */\n      sub\n        /* \"#utility.yul\":3420:3421   */\n      0x00\n        /* \"#utility.yul\":3409:3418   */\n      dup4\n        /* \"#utility.yul\":3405:3422   */\n      add\n        /* \"#utility.yul\":3398:3445   */\n      mstore\n        /* \"#utility.yul\":3462:3538   */\n      tag_154\n        /* \"#utility.yul\":3533:3537   */\n      dup2\n        /* \"#utility.yul\":3524:3530   */\n      dup5\n        /* \"#utility.yul\":3462:3538   */\n      tag_90\n      jump\t// in\n    tag_154:\n        /* \"#utility.yul\":3454:3538   */\n      swap1\n      pop\n        /* \"#utility.yul\":3236:3545   */\n      swap3\n      swap2\n      pop\n      pop\n      jump\t// out\n        /* \"#utility.yul\":3551:3650   */\n    tag_91:\n        /* \"#utility.yul\":3603:3609   */\n      0x00\n        /* \"#utility.yul\":3637:3642   */\n      dup2\n        /* \"#utility.yul\":3631:3643   */\n      mload\n        /* \"#utility.yul\":3621:3643   */\n      swap1\n      pop\n        /* \"#utility.yul\":3551:3650   */\n      swap2\n      swap1\n      pop\n      jump\t// out\n        /* \"#utility.yul\":3656:3825   */\n    tag_92:\n        /* \"#utility.yul\":3740:3751   */\n      0x00\n        /* \"#utility.yul\":3774:3780   */\n      dup3\n        /* \"#utility.yul\":3769:3772   */\n      dup3\n        /* \"#utility.yul\":3762:3781   */\n      mstore\n        /* \"#utility.yul\":3814:3818   */\n      0x20\n        /* \"#utility.yul\":3809:3812   */\n      dup3\n        /* \"#utility.yul\":3805:3819   */\n      add\n        /* \"#utility.yul\":3790:3819   */\n      swap1\n      pop\n        /* \"#utility.yul\":3656:3825   */\n      swap3\n      swap2\n      pop\n      pop\n      jump\t// out\n        /* \"#utility.yul\":3831:4208   */\n    tag_93:\n        /* \"#utility.yul\":3919:3922   */\n      0x00\n        /* \"#utility.yul\":3947:3986   */\n      tag_158\n        /* \"#utility.yul\":3980:3985   */\n      dup3\n        /* \"#utility.yul\":3947:3986   */\n      tag_91\n      jump\t// in\n    tag_158:\n        /* \"#utility.yul\":4002:4073   */\n      tag_159\n        /* \"#utility.yul\":4066:4072   */\n      dup2\n        /* \"#utility.yul\":4061:4064   */\n      dup6\n        /* \"#utility.yul\":4002:4073   */\n      tag_92\n      jump\t// in\n    tag_159:\n        /* \"#utility.yul\":3995:4073   */\n      swap4\n      pop\n        /* \"#utility.yul\":4082:4147   */\n      tag_160\n        /* \"#utility.yul\":4140:4146   */\n      dup2\n        /* \"#utility.yul\":4135:4138   */\n      dup6\n        /* \"#utility.yul\":4128:4132   */\n      0x20\n        /* \"#utility.yul\":4121:4126   */\n      dup7\n        /* \"#utility.yul\":4117:4133   */\n      add\n        /* \"#utility.yul\":4082:4147   */\n      tag_88\n      jump\t// in\n    tag_160:\n        /* \"#utility.yul\":4172:4201   */\n      tag_161\n        /* \"#utility.yul\":4194:4200   */\n      dup2\n        /* \"#utility.yul\":4172:4201   */\n      tag_89\n      jump\t// in\n    tag_161:\n        /* \"#utility.yul\":4167:4170   */\n      dup5\n        /* \"#utility.yul\":4163:4202   */\n      add\n        /* \"#utility.yul\":4156:4202   */\n      swap2\n      pop\n        /* \"#utility.yul\":3923:4208   */\n      pop\n        /* \"#utility.yul\":3831:4208   */\n      swap3\n      swap2\n      pop\n      pop\n      jump\t// out\n        /* \"#utility.yul\":4214:4527   */\n    tag_43:\n        /* \"#utility.yul\":4327:4331   */\n      0x00\n        /* \"#utility.yul\":4365:4367   */\n      0x20\n        /* \"#utility.yul\":4354:4363   */\n      dup3\n        /* \"#utility.yul\":4350:4368   */\n      add\n        /* \"#utility.yul\":4342:4368   */\n      swap1\n      pop\n        /* \"#utility.yul\":4414:4423   */\n      dup2\n        /* \"#utility.yul\":4408:4412   */\n      dup2\n        /* \"#utility.yul\":4404:4424   */\n      sub\n        /* \"#utility.yul\":4400:4401   */\n      0x00\n        /* \"#utility.yul\":4389:4398   */\n      dup4\n        /* \"#utility.yul\":4385:4402   */\n      add\n        /* \"#utility.yul\":4378:4425   */\n      mstore\n        /* \"#utility.yul\":4442:4520   */\n      tag_163\n        /* \"#utility.yul\":4515:4519   */\n      dup2\n        /* \"#utility.yul\":4506:4512   */\n      dup5\n        /* \"#utility.yul\":4442:4520   */\n      tag_93\n      jump\t// in\n    tag_163:\n        /* \"#utility.yul\":4434:4520   */\n      swap1\n      pop\n        /* \"#utility.yul\":4214:4527   */\n      swap3\n      swap2\n      pop\n      pop\n      jump\t// out\n        /* \"#utility.yul\":4533:4713   */\n    tag_94:\n        /* \"#utility.yul\":4581:4658   */\n      0x4e487b7100000000000000000000000000000000000000000000000000000000\n        /* \"#utility.yul\":4578:4579   */\n      0x00\n        /* \"#utility.yul\":4571:4659   */\n      mstore\n        /* \"#utility.yul\":4678:4682   */\n      0x41\n        /* \"#utility.yul\":4675:4676   */\n      0x04\n        /* \"#utility.yul\":4668:4683   */\n      mstore\n        /* \"#utility.yul\":4702:4706   */\n      0x24\n        /* \"#utility.yul\":4699:4700   */\n      0x00\n        /* \"#utility.yul\":4692:4707   */\n      revert\n        /* \"#utility.yul\":4719:4899   */\n    tag_95:\n        /* \"#utility.yul\":4767:4844   */\n      0x4e487b7100000000000000000000000000000000000000000000000000000000\n        /* \"#utility.yul\":4764:4765   */\n      0x00\n        /* \"#utility.yul\":4757:4845   */\n      mstore\n        /* \"#utility.yul\":4864:4868   */\n      0x22\n        /* \"#utility.yul\":4861:4862   */\n      0x04\n        /* \"#utility.yul\":4854:4869   */\n      mstore\n        /* \"#utility.yul\":4888:4892   */\n      0x24\n        /* \"#utility.yul\":4885:4886   */\n      0x00\n        /* \"#utility.yul\":4878:4893   */\n      revert\n        /* \"#utility.yul\":4905:5225   */\n    tag_60:\n        /* \"#utility.yul\":4949:4955   */\n      0x00\n        /* \"#utility.yul\":4986:4987   */\n      0x02\n        /* \"#utility.yul\":4980:4984   */\n      dup3\n        /* \"#utility.yul\":4976:4988   */\n      div\n        /* \"#utility.yul\":4966:4988   */\n      swap1\n      pop\n        /* \"#utility.yul\":5033:5034   */\n      0x01\n        /* \"#utility.yul\":5027:5031   */\n      dup3\n        /* \"#utility.yul\":5023:5035   */\n      and\n        /* \"#utility.yul\":5054:5072   */\n      dup1\n        /* \"#utility.yul\":5044:5125   */\n      tag_167\n      jumpi\n        /* \"#utility.yul\":5110:5114   */\n      0x7f\n        /* \"#utility.yul\":5102:5108   */\n      dup3\n        /* \"#utility.yul\":5098:5115   */\n      and\n        /* \"#utility.yul\":5088:5115   */\n      swap2\n      pop\n        /* \"#utility.yul\":5044:5125   */\n    tag_167:\n        /* \"#utility.yul\":5172:5174   */\n      0x20\n        /* \"#utility.yul\":5164:5170   */\n      dup3\n        /* \"#utility.yul\":5161:5175   */\n      lt\n        /* \"#utility.yul\":5141:5159   */\n      dup2\n        /* \"#utility.yul\":5138:5176   */\n      sub\n        /* \"#utility.yul\":5135:5219   */\n      tag_168\n      jumpi\n        /* \"#utility.yul\":5191:5209   */\n      tag_169\n      tag_95\n      jump\t// in\n    tag_169:\n        /* \"#utility.yul\":5135:5219   */\n    tag_168:\n        /* \"#utility.yul\":4956:5225   */\n      pop\n        /* \"#utility.yul\":4905:5225   */\n      swap2\n      swap1\n      pop\n      jump\t// out\n        /* \"#utility.yul\":5231:5372   */\n    tag_96:\n        /* \"#utility.yul\":5280:5284   */\n      0x00\n        /* \"#utility.yul\":5303:5306   */\n      dup2\n        /* \"#utility.yul\":5295:5306   */\n      swap1\n      pop\n        /* \"#utility.yul\":5326:5329   */\n      dup2\n        /* \"#utility.yul\":5323:5324   */\n      0x00\n        /* \"#utility.yul\":5316:5330   */\n      mstore\n        /* \"#utility.yul\":5360:5364   */\n      0x20\n        /* \"#utility.yul\":5357:5358   */\n      0x00\n        /* \"#utility.yul\":5347:5365   */\n      keccak256\n        /* \"#utility.yul\":5339:5365   */\n      swap1\n      pop\n        /* \"#utility.yul\":5231:5372   */\n      swap2\n      swap1\n      pop\n      jump\t// out\n        /* \"#utility.yul\":5378:5471   */\n    tag_97:\n        /* \"#utility.yul\":5415:5421   */\n      0x00\n        /* \"#utility.yul\":5462:5464   */\n      0x20\n        /* \"#utility.yul\":5457:5459   */\n      0x1f\n        /* \"#utility.yul\":5450:5455   */\n      dup4\n        /* \"#utility.yul\":5446:5460   */\n      add\n        /* \"#utility.yul\":5442:5465   */\n      div\n        /* \"#utility.yul\":5432:5465   */\n      swap1\n      pop\n        /* \"#utility.yul\":5378:5471   */\n      swap2\n      swap1\n      pop\n      jump\t// out\n        /* \"#utility.yul\":5477:5584   */\n    tag_98:\n        /* \"#utility.yul\":5521:5529   */\n      0x00\n        /* \"#utility.yul\":5571:5576   */\n      dup3\n        /* \"#utility.yul\":5565:5569   */\n      dup3\n        /* \"#utility.yul\":5561:5577   */\n      shl\n        /* \"#utility.yul\":5540:5577   */\n      swap1\n      pop\n        /* \"#utility.yul\":5477:5584   */\n      swap3\n      swap2\n      pop\n      pop\n      jump\t// out\n        /* \"#utility.yul\":5590:5983   */\n    tag_99:\n        /* \"#utility.yul\":5659:5665   */\n      0x00\n        /* \"#utility.yul\":5709:5710   */\n      0x08\n        /* \"#utility.yul\":5697:5707   */\n      dup4\n        /* \"#utility.yul\":5693:5711   */\n      mul\n        /* \"#utility.yul\":5732:5829   */\n      tag_174\n        /* \"#utility.yul\":5762:5828   */\n      0xffffffffffffffffffffffffffffffffffffffffffffffffffffffffffffffff\n        /* \"#utility.yul\":5751:5760   */\n      dup3\n        /* \"#utility.yul\":5732:5829   */\n      tag_98\n      jump\t// in\n    tag_174:\n        /* \"#utility.yul\":5850:5889   */\n      tag_175\n        /* \"#utility.yul\":5880:5888   */\n      dup7\n        /* \"#utility.yul\":5869:5878   */\n      dup4\n        /* \"#utility.yul\":5850:5889   */\n      tag_98\n      jump\t// in\n    tag_175:\n        /* \"#utility.yul\":5838:5889   */\n      swap6\n      pop\n        /* \"#utility.yul\":5922:5926   */\n      dup1\n        /* \"#utility.yul\":5918:5927   */\n      not\n        /* \"#utility.yul\":5911:5916   */\n      dup5\n        /* \"#utility.yul\":5907:5928   */\n      and\n        /* \"#utility.yul\":5898:5928   */\n      swap4\n      pop\n        /* \"#utility.yul\":5971:5975   */\n      dup1\n        /* \"#utility.yul\":5961:5969   */\n      dup7\n        /* \"#utility.yul\":5957:5976   */\n      and\n        /* \"#utility.yul\":5950:5955   */\n      dup5\n        /* \"#utility.yul\":5947:5977   */\n      or\n        /* \"#utility.yul\":5937:5977   */\n      swap3\n      pop\n        /* \"#utility.yul\":5666:5983   */\n      pop\n      pop\n        /* \"#utility.yul\":5590:5983   */\n      swap4\n      swap3\n      pop\n      pop\n      pop\n      jump\t// out\n        /* \"#utility.yul\":5989:6049   */\n    tag_100:\n        /* \"#utility.yul\":6017:6020   */\n      0x00\n        /* \"#utility.yul\":6038:6043   */\n      dup2\n        /* \"#utility.yul\":6031:6043   */\n      swap1\n      pop\n        /* \"#utility.yul\":5989:6049   */\n      swap2\n      swap1\n      pop\n      jump\t// out\n        /* \"#utility.yul\":6055:6197   */\n    tag_101:\n        /* \"#utility.yul\":6105:6114   */\n      0x00\n        /* \"#utility.yul\":6138:6191   */\n      tag_178\n        /* \"#utility.yul\":6156:6190   */\n      tag_179\n        /* \"#utility.yul\":6165:6189   */\n      tag_180\n        /* \"#utility.yul\":6183:6188   */\n      dup5\n        /* \"#utility.yul\":6165:6189   */\n      tag_78\n      jump\t// in\n    tag_180:\n        /* \"#utility.yul\":6156:6190   */\n      tag_100\n      jump\t// in\n    tag_179:\n        /* \"#utility.yul\":6138:6191   */\n      tag_78\n      jump\t// in\n    tag_178:\n        /* \"#utility.yul\":6125:6191   */\n      swap1\n      pop\n        /* \"#utility.yul\":6055:6197   */\n      swap2\n      swap1\n      pop\n      jump\t// out\n        /* \"#utility.yul\":6203:6278   */\n    tag_102:\n        /* \"#utility.yul\":6246:6249   */\n      0x00\n        /* \"#utility.yul\":6267:6272   */\n      dup2\n        /* \"#utility.yul\":6260:6272   */\n      swap1\n      pop\n        /* \"#utility.yul\":6203:6278   */\n      swap2\n      swap1\n      pop\n      jump\t// out\n        /* \"#utility.yul\":6284:6553   */\n    tag_103:\n        /* \"#utility.yul\":6394:6433   */\n      tag_183\n        /* \"#utility.yul\":6425:6432   */\n      dup4\n        /* \"#utility.yul\":6394:6433   */\n      tag_101\n      jump\t// in\n    tag_183:\n        /* \"#utility.yul\":6455:6546   */\n      tag_184\n        /* \"#utility.yul\":6504:6545   */\n      tag_185\n        /* \"#utility.yul\":6528:6544   */\n      dup3\n        /* \"#utility.yul\":6504:6545   */\n      tag_102\n      jump\t// in\n    tag_185:\n        /* \"#utility.yul\":6496:6502   */\n      dup5\n        /* \"#utility.yul\":6489:6493   */\n      dup5\n        /* \"#utility.yul\":6483:6494   */\n      sload\n        /* \"#utility.yul\":6455:6546   */\n      tag_99\n      jump\t// in\n    tag_184:\n        /* \"#utility.yul\":6449:6453   */\n      dup3\n        /* \"#utility.yul\":6442:6547   */\n      sstore\n        /* \"#utility.yul\":6360:6553   */\n      pop\n        /* \"#utility.yul\":6284:6553   */\n      pop\n      pop\n      pop\n      jump\t// out\n        /* \"#utility.yul\":6559:6632   */\n    tag_104:\n        /* \"#utility.yul\":6604:6607   */\n      0x00\n        /* \"#utility.yul\":6559:6632   */\n      swap1\n      jump\t// out\n        /* \"#utility.yul\":6638:6827   */\n    tag_105:\n        /* \"#utility.yul\":6715:6747   */\n      tag_188\n      tag_104\n      jump\t// in\n    tag_188:\n        /* \"#utility.yul\":6756:6821   */\n      tag_189\n        /* \"#utility.yul\":6814:6820   */\n      dup2\n        /* \"#utility.yul\":6806:6812   */\n      dup5\n        /* \"#utility.yul\":6800:6804   */\n      dup5\n        /* \"#utility.yul\":6756:6821   */\n      tag_103\n      jump\t// in\n    tag_189:\n        /* \"#utility.yul\":6691:6827   */\n      pop\n        /* \"#utility.yul\":6638:6827   */\n      pop\n      pop\n      jump\t// out\n        /* \"#utility.yul\":6833:7019   */\n    tag_106:\n        /* \"#utility.yul\":6893:7013   */\n    tag_191:\n        /* \"#utility.yul\":6910:6913   */\n      dup2\n        /* \"#utility.yul\":6903:6908   */\n      dup2\n        /* \"#utility.yul\":6900:6914   */\n      lt\n        /* \"#utility.yul\":6893:7013   */\n      iszero\n      tag_193\n      jumpi\n        /* \"#utility.yul\":6964:7003   */\n      tag_194\n        /* \"#utility.yul\":7001:7002   */\n      0x00\n        /* \"#utility.yul\":6994:6999   */\n      dup3\n        /* \"#utility.yul\":6964:7003   */\n      tag_105\n      jump\t// in\n    tag_194:\n        /* \"#utility.yul\":6937:6938   */\n      0x01\n        /* \"#utility.yul\":6930:6935   */\n      dup2\n        /* \"#utility.yul\":6926:6939   */\n      add\n        /* \"#utility.yul\":6917:6939   */\n      swap1\n      pop\n        /* \"#utility.yul\":6893:7013   */\n      jump(tag_191)\n    tag_193:\n        /* \"#utility.yul\":6833:7019   */\n      pop\n      pop\n      jump\t// out\n        /* \"#utility.yul\":7025:7568   */\n    tag_107:\n        /* \"#utility.yul\":7126:7128   */\n      0x1f\n        /* \"#utility.yul\":7121:7124   */\n      dup3\n        /* \"#utility.yul\":7118:7129   */\n      gt\n        /* \"#utility.yul\":7115:7561   */\n      iszero\n      tag_196\n      jumpi\n        /* \"#utility.yul\":7160:7198   */\n      tag_197\n        /* \"#utility.yul\":7192:7197   */\n      dup2\n        /* \"#utility.yul\":7160:7198   */\n      tag_96\n      jump\t// in\n    tag_197:\n        /* \"#utility.yul\":7244:7273   */\n      tag_198\n        /* \"#utility.yul\":7262:7272   */\n      dup5\n        /* \"#utility.yul\":7244:7273   */\n      tag_97\n      jump\t// in\n    tag_198:\n        /* \"#utility.yul\":7234:7242   */\n      dup2\n        /* \"#utility.yul\":7230:7274   */\n      add\n        /* \"#utility.yul\":7427:7429   */\n      0x20\n        /* \"#utility.yul\":7415:7425   */\n      dup6\n        /* \"#utility.yul\":7412:7430   */\n      lt\n        /* \"#utility.yul\":7409:7458   */\n      iszero\n      tag_199\n      jumpi\n        /* \"#utility.yul\":7448:7456   */\n      dup2\n        /* \"#utility.yul\":7433:7456   */\n      swap1\n      pop\n        /* \"#utility.yul\":7409:7458   */\n    tag_199:\n        /* \"#utility.yul\":7471:7551   */\n      tag_200\n        /* \"#utility.yul\":7527:7549   */\n      tag_201\n        /* \"#utility.yul\":7545:7548   */\n      dup6\n        /* \"#utility.yul\":7527:7549   */\n      tag_97\n      jump\t// in\n    tag_201:\n        /* \"#utility.yul\":7517:7525   */\n      dup4\n        /* \"#utility.yul\":7513:7550   */\n      add\n        /* \"#utility.yul\":7500:7511   */\n      dup3\n        /* \"#utility.yul\":7471:7551   */\n      tag_106\n      jump\t// in\n    tag_200:\n        /* \"#utility.yul\":7130:7561   */\n      pop\n      pop\n        /* \"#utility.yul\":7115:7561   */\n    tag_196:\n        /* \"#utility.yul\":7025:7568   */\n      pop\n      pop\n      pop\n      jump\t// out\n        /* \"#utility.yul\":7574:7691   */\n    tag_108:\n        /* \"#utility.yul\":7628:7636   */\n      0x00\n        /* \"#utility.yul\":7678:7683   */\n      dup3\n        /* \"#utility.yul\":7672:7676   */\n      dup3\n        /* \"#utility.yul\":7668:7684   */\n      shr\n        /* \"#utility.yul\":7647:7684   */\n      swap1\n      pop\n        /* \"#utility.yul\":7574:7691   */\n      swap3\n      swap2\n      pop\n      pop\n      jump\t// out\n        /* \"#utility.yul\":7697:7866   */\n    tag_109:\n        /* \"#utility.yul\":7741:7747   */\n      0x00\n        /* \"#utility.yul\":7774:7825   */\n      tag_204\n        /* \"#utility.yul\":7822:7823   */\n      0x00\n        /* \"#utility.yul\":7818:7824   */\n      not\n        /* \"#utility.yul\":7810:7815   */\n      dup5\n        /* \"#utility.yul\":7807:7808   */\n      0x08\n        /* \"#utility.yul\":7803:7816   */\n      mul\n        /* \"#utility.yul\":7774:7825   */\n      tag_108\n      jump\t// in\n    tag_204:\n        /* \"#utility.yul\":7770:7826   */\n      not\n        /* \"#utility.yul\":7855:7859   */\n      dup1\n        /* \"#utility.yul\":7849:7853   */\n      dup4\n        /* \"#utility.yul\":7845:7860   */\n      and\n        /* \"#utility.yul\":7835:7860   */\n      swap2\n      pop\n        /* \"#utility.yul\":7748:7866   */\n      pop\n        /* \"#utility.yul\":7697:7866   */\n      swap3\n      swap2\n      pop\n      pop\n      jump\t// out\n        /* \"#utility.yul\":7871:8166   */\n    tag_110:\n        /* \"#utility.yul\":7947:7951   */\n      0x00\n        /* \"#utility.yul\":8093:8122   */\n      tag_206\n        /* \"#utility.yul\":8118:8121   */\n      dup4\n        /* \"#utility.yul\":8112:8116   */\n      dup4\n        /* \"#utility.yul\":8093:8122   */\n      tag_109\n      jump\t// in\n    tag_206:\n        /* \"#utility.yul\":8085:8122   */\n      swap2\n      pop\n        /* \"#utility.yul\":8155:8158   */\n      dup3\n        /* \"#utility.yul\":8152:8153   */\n      0x02\n        /* \"#utility.yul\":8148:8159   */\n      mul\n        /* \"#utility.yul\":8142:8146   */\n      dup3\n        /* \"#utility.yul\":8139:8160   */\n      or\n        /* \"#utility.yul\":8131:8160   */\n      swap1\n      pop\n        /* \"#utility.yul\":7871:8166   */\n      swap3\n      swap2\n      pop\n      pop\n      jump\t// out\n        /* \"#utility.yul\":8171:9566   */\n    tag_49:\n        /* \"#utility.yul\":8288:8325   */\n      tag_208\n        /* \"#utility.yul\":8321:8324   */\n      dup3\n        /* \"#utility.yul\":8288:8325   */\n      tag_91\n      jump\t// in\n    tag_208:\n        /* \"#utility.yul\":8390:8408   */\n      0xffffffffffffffff\n        /* \"#utility.yul\":8382:8388   */\n      dup2\n        /* \"#utility.yul\":8379:8409   */\n      gt\n        /* \"#utility.yul\":8376:8432   */\n      iszero\n      tag_209\n      jumpi\n        /* \"#utility.yul\":8412:8430   */\n      tag_210\n      tag_94\n      jump\t// in\n    tag_210:\n        /* \"#utility.yul\":8376:8432   */\n    tag_209:\n        /* \"#utility.yul\":8456:8494   */\n      tag_211\n        /* \"#utility.yul\":8488:8492   */\n      dup3\n        /* \"#utility.yul\":8482:8493   */\n      sload\n        /* \"#utility.yul\":8456:8494   */\n      tag_60\n      jump\t// in\n    tag_211:\n        /* \"#utility.yul\":8541:8608   */\n      tag_212\n        /* \"#utility.yul\":8601:8607   */\n      dup3\n        /* \"#utility.yul\":8593:8599   */\n      dup3\n        /* \"#utility.yul\":8587:8591   */\n      dup6\n        /* \"#utility.yul\":8541:8608   */\n      tag_107\n      jump\t// in\n    tag_212:\n        /* \"#utility.yul\":8635:8636   */\n      0x00\n        /* \"#utility.yul\":8659:8663   */\n      0x20\n        /* \"#utility.yul\":8646:8663   */\n      swap1\n      pop\n        /* \"#utility.yul\":8691:8693   */\n      0x1f\n        /* \"#utility.yul\":8683:8689   */\n      dup4\n        /* \"#utility.yul\":8680:8694   */\n      gt\n        /* \"#utility.yul\":8708:8709   */\n      0x01\n        /* \"#utility.yul\":8703:9321   */\n      dup2\n      eq\n      tag_214\n      jumpi\n        /* \"#utility.yul\":9365:9366   */\n      0x00\n        /* \"#utility.yul\":9382:9388   */\n      dup5\n        /* \"#utility.yul\":9379:9456   */\n      iszero\n      tag_215\n      jumpi\n        /* \"#utility.yul\":9431:9440   */\n      dup3\n        /* \"#utility.yul\":9426:9429   */\n      dup8\n        /* \"#utility.yul\":9422:9441   */\n      add\n        /* \"#utility.yul\":9416:9442   */\n      mload\n        /* \"#utility.yul\":9407:9442   */\n      swap1\n      pop\n        /* \"#utility.yul\":9379:9456   */\n    tag_215:\n        /* \"#utility.yul\":9482:9549   */\n      tag_216\n        /* \"#utility.yul\":9542:9548   */\n      dup6\n        /* \"#utility.yul\":9535:9540   */\n      dup3\n        /* \"#utility.yul\":9482:9549   */\n      tag_110\n      jump\t// in\n    tag_216:\n        /* \"#utility.yul\":9476:9480   */\n      dup7\n        /* \"#utility.yul\":9469:9550   */\n      sstore\n        /* \"#utility.yul\":9338:9560   */\n      pop\n        /* \"#utility.yul\":8673:9560   */\n      jump(tag_213)\n        /* \"#utility.yul\":8703:9321   */\n    tag_214:\n        /* \"#utility.yul\":8755:8759   */\n      0x1f\n        /* \"#utility.yul\":8751:8760   */\n      not\n        /* \"#utility.yul\":8743:8749   */\n      dup5\n        /* \"#utility.yul\":8739:8761   */\n      and\n        /* \"#utility.yul\":8789:8826   */\n      tag_217\n        /* \"#utility.yul\":8821:8825   */\n      dup7\n        /* \"#utility.yul\":8789:8826   */\n      tag_96\n      jump\t// in\n    tag_217:\n        /* \"#utility.yul\":8848:8849   */\n      0x00\n        /* \"#utility.yul\":8862:9070   */\n    tag_218:\n        /* \"#utility.yul\":8876:8883   */\n      dup3\n        /* \"#utility.yul\":8873:8874   */\n      dup2\n        /* \"#utility.yul\":8870:8884   */\n      lt\n        /* \"#utility.yul\":8862:9070   */\n      iszero\n      tag_220\n      jumpi\n        /* \"#utility.yul\":8955:8964   */\n      dup5\n        /* \"#utility.yul\":8950:8953   */\n      dup10\n        /* \"#utility.yul\":8946:8965   */\n      add\n        /* \"#utility.yul\":8940:8966   */\n      mload\n        /* \"#utility.yul\":8932:8938   */\n      dup3\n        /* \"#utility.yul\":8925:8967   */\n      sstore\n        /* \"#utility.yul\":9006:9007   */\n      0x01\n        /* \"#utility.yul\":8998:9004   */\n      dup3\n        /* \"#utility.yul\":8994:9008   */\n      add\n        /* \"#utility.yul\":8984:9008   */\n      swap2\n      pop\n        /* \"#utility.yul\":9053:9055   */\n      0x20\n        /* \"#utility.yul\":9042:9051   */\n      dup6\n        /* \"#utility.yul\":9038:9056   */\n      add\n        /* \"#utility.yul\":9025:9056   */\n      swap5\n      pop\n        /* \"#utility.yul\":8899:8903   */\n      0x20\n        /* \"#utility.yul\":8896:8897   */\n      dup2\n        /* \"#utility.yul\":8892:8904   */\n      add\n        /* \"#utility.yul\":8887:8904   */\n      swap1\n      pop\n        /* \"#utility.yul\":8862:9070   */\n      jump(tag_218)\n    tag_220:\n        /* \"#utility.yul\":9098:9104   */\n      dup7\n        /* \"#utility.yul\":9089:9096   */\n      dup4\n        /* \"#utility.yul\":9086:9105   */\n      lt\n        /* \"#utility.yul\":9083:9262   */\n      iszero\n      tag_221\n      jumpi\n        /* \"#utility.yul\":9156:9165   */\n      dup5\n        /* \"#utility.yul\":9151:9154   */\n      dup10\n        /* \"#utility.yul\":9147:9166   */\n      add\n        /* \"#utility.yul\":9141:9167   */\n      mload\n        /* \"#utility.yul\":9199:9247   */\n      tag_222\n        /* \"#utility.yul\":9241:9245   */\n      0x1f\n        /* \"#utility.yul\":9233:9239   */\n      dup10\n        /* \"#utility.yul\":9229:9246   */\n      and\n        /* \"#utility.yul\":9218:9227   */\n      dup3\n        /* \"#utility.yul\":9199:9247   */\n      tag_109\n      jump\t// in\n    tag_222:\n        /* \"#utility.yul\":9191:9197   */\n      dup4\n        /* \"#utility.yul\":9184:9248   */\n      sstore\n        /* \"#utility.yul\":9106:9262   */\n      pop\n        /* \"#utility.yul\":9083:9262   */\n    tag_221:\n        /* \"#utility.yul\":9308:9309   */\n      0x01\n        /* \"#utility.yul\":9304:9305   */\n      0x02\n        /* \"#utility.yul\":9296:9302   */\n      dup9\n        /* \"#utility.yul\":9292:9306   */\n      mul\n        /* \"#utility.yul\":9288:9310   */\n      add\n        /* \"#utility.yul\":9282:9286   */\n      dup9\n        /* \"#utility.yul\":9275:9311   */\n      sstore\n        /* \"#utility.yul\":8710:9321   */\n      pop\n      pop\n      pop\n        /* \"#utility.yul\":8673:9560   */\n    tag_213:\n      pop\n        /* \"#utility.yul\":8263:9566   */\n      pop\n      pop\n      pop\n        /* \"#utility.yul\":8171:9566   */\n      pop\n      pop\n      jump\t// out\n\n    auxdata: 0xa26469706673582212208258f88e1bf9d64109d3f5ce95ce0757ea8ed2c7fb3f2c0a6cf18ecf1cb15c8364736f6c63430008130033\n}\n",
				"bytecode": {
					"linkReferences": {},
					"object": "608060405234801561001057600080fd5b50610b26806100206000396000f3fe608060405234801561001057600080fd5b506004361061009e5760003560e01c8063c298557811610066578063c29855781461011f578063c4f5161314610129578063ea3d508a14610147578063f2c31bd914610165578063f851a440146101835761009e565b80632fbebd38146100a35780635c60da1b146100bf578063ab5128ef146100dd578063acd32943146100f9578063c27fc30514610115575b600080fd5b6100bd60048036038101906100b891906105d8565b6101a1565b005b6100c76101ed565b6040516100d49190610646565b60405180910390f35b6100f760048036038101906100f291906105d8565b610211565b005b610113600480360381019061010e919061068d565b61025d565b005b61011d61033f565b005b610127610386565b005b6101316103cd565b60405161013e919061074a565b60405180910390f35b61014f61045b565b60405161015c919061074a565b60405180910390f35b61016d6104e9565b60405161017a91906107c1565b60405180910390f35b61018b610577565b6040516101989190610646565b60405180910390f35b600990506040518060400160405280600481526020017f6e65773000000000000000000000000000000000000000000000000000000000815250600290816101e99190610a1e565b5050565b60008054906101000a900473ffffffffffffffffffffffffffffffffffffffff1681565b600a90506040518060400160405280600481526020017f6e65773100000000000000000000000000000000000000000000000000000000815250600290816102599190610a1e565b5050565b600160009054906101000a900473ffffffffffffffffffffffffffffffffffffffff1673ffffffffffffffffffffffffffffffffffffffff163373ffffffffffffffffffffffffffffffffffffffff16146102b757600080fd5b806000806101000a81548173ffffffffffffffffffffffffffffffffffffffff021916908373ffffffffffffffffffffffffffffffffffffffff1602179055506040518060400160405280600881526020017f75706772616465310000000000000000000000000000000000000000000000008152506002908161033b9190610a1e565b5050565b6040518060400160405280600581526020017f6e65776631000000000000000000000000000000000000000000000000000000815250600290816103839190610a1e565b50565b6040518060400160405280600381526020017f6e65770000000000000000000000000000000000000000000000000000000000815250600290816103ca9190610a1e565b50565b600480546103da90610841565b80601f016020809104026020016040519081016040528092919081815260200182805461040690610841565b80156104535780601f1061042857610100808354040283529160200191610453565b820191906000526020600020905b81548152906001019060200180831161043657829003601f168201915b505050505081565b6003805461046890610841565b80601f016020809104026020016040519081016040528092919081815260200182805461049490610841565b80156104e15780601f106104b6576101008083540402835291602001916104e1565b820191906000526020600020905b8154815290600101906020018083116104c457829003601f168201915b505050505081565b600280546104f690610841565b80601f016020809104026020016040519081016040528092919081815260200182805461052290610841565b801561056f5780601f106105445761010080835404028352916020019161056f565b820191906000526020600020905b81548152906001019060200180831161055257829003601f168201915b505050505081565b600160009054906101000a900473ffffffffffffffffffffffffffffffffffffffff1681565b600080fd5b6000819050919050565b6105b5816105a2565b81146105c057600080fd5b50565b6000813590506105d2816105ac565b92915050565b6000602082840312156105ee576105ed61059d565b5b60006105fc848285016105c3565b91505092915050565b600073ffffffffffffffffffffffffffffffffffffffff82169050919050565b600061063082610605565b9050919050565b61064081610625565b82525050565b600060208201905061065b6000830184610637565b92915050565b61066a81610625565b811461067557600080fd5b50565b60008135905061068781610661565b92915050565b6000602082840312156106a3576106a261059d565b5b60006106b184828501610678565b91505092915050565b600081519050919050565b600082825260208201905092915050565b60005b838110156106f45780820151818401526020810190506106d9565b60008484015250505050565b6000601f19601f8301169050919050565b600061071c826106ba565b61072681856106c5565b93506107368185602086016106d6565b61073f81610700565b840191505092915050565b600060208201905081810360008301526107648184610711565b905092915050565b600081519050919050565b600082825260208201905092915050565b60006107938261076c565b61079d8185610777565b93506107ad8185602086016106d6565b6107b681610700565b840191505092915050565b600060208201905081810360008301526107db8184610788565b905092915050565b7f4e487b7100000000000000000000000000000000000000000000000000000000600052604160045260246000fd5b7f4e487b7100000000000000000000000000000000000000000000000000000000600052602260045260246000fd5b6000600282049050600182168061085957607f821691505b60208210810361086c5761086b610812565b5b50919050565b60008190508160005260206000209050919050565b60006020601f8301049050919050565b600082821b905092915050565b6000600883026108d47fffffffffffffffffffffffffffffffffffffffffffffffffffffffffffffffff82610897565b6108de8683610897565b95508019841693508086168417925050509392505050565b6000819050919050565b600061091b610916610911846105a2565b6108f6565b6105a2565b9050919050565b6000819050919050565b61093583610900565b61094961094182610922565b8484546108a4565b825550505050565b600090565b61095e610951565b61096981848461092c565b505050565b5b8181101561098d57610982600082610956565b60018101905061096f565b5050565b601f8211156109d2576109a381610872565b6109ac84610887565b810160208510156109bb578190505b6109cf6109c785610887565b83018261096e565b50505b505050565b600082821c905092915050565b60006109f5600019846008026109d7565b1980831691505092915050565b6000610a0e83836109e4565b9150826002028217905092915050565b610a278261076c565b67ffffffffffffffff811115610a4057610a3f6107e3565b5b610a4a8254610841565b610a55828285610991565b600060209050601f831160018114610a885760008415610a76578287015190505b610a808582610a02565b865550610ae8565b601f198416610a9686610872565b60005b82811015610abe57848901518255600182019150602085019450602081019050610a99565b86831015610adb5784890151610ad7601f8916826109e4565b8355505b6001600288020188555050505b50505050505056fea26469706673582212208258f88e1bf9d64109d3f5ce95ce0757ea8ed2c7fb3f2c0a6cf18ecf1cb15c8364736f6c63430008130033",
					"opcodes": "PUSH1 0x80 PUSH1 0x40 MSTORE CALLVALUE DUP1 ISZERO PUSH2 0x10 JUMPI PUSH1 0x0 DUP1 REVERT JUMPDEST POP PUSH2 0xB26 DUP1 PUSH2 0x20 PUSH1 0x0 CODECOPY PUSH1 0x0 RETURN INVALID PUSH1 0x80 PUSH1 0x40 MSTORE CALLVALUE DUP1 ISZERO PUSH2 0x10 JUMPI PUSH1 0x0 DUP1 REVERT JUMPDEST POP PUSH1 0x4 CALLDATASIZE LT PUSH2 0x9E JUMPI PUSH1 0x0 CALLDATALOAD PUSH1 0xE0 SHR DUP1 PUSH4 0xC2985578 GT PUSH2 0x66 JUMPI DUP1 PUSH4 0xC2985578 EQ PUSH2 0x11F JUMPI DUP1 PUSH4 0xC4F51613 EQ PUSH2 0x129 JUMPI DUP1 PUSH4 0xEA3D508A EQ PUSH2 0x147 JUMPI DUP1 PUSH4 0xF2C31BD9 EQ PUSH2 0x165 JUMPI DUP1 PUSH4 0xF851A440 EQ PUSH2 0x183 JUMPI PUSH2 0x9E JUMP JUMPDEST DUP1 PUSH4 0x2FBEBD38 EQ PUSH2 0xA3 JUMPI DUP1 PUSH4 0x5C60DA1B EQ PUSH2 0xBF JUMPI DUP1 PUSH4 0xAB5128EF EQ PUSH2 0xDD JUMPI DUP1 PUSH4 0xACD32943 EQ PUSH2 0xF9 JUMPI DUP1 PUSH4 0xC27FC305 EQ PUSH2 0x115 JUMPI JUMPDEST PUSH1 0x0 DUP1 REVERT JUMPDEST PUSH2 0xBD PUSH1 0x4 DUP1 CALLDATASIZE SUB DUP2 ADD SWAP1 PUSH2 0xB8 SWAP2 SWAP1 PUSH2 0x5D8 JUMP JUMPDEST PUSH2 0x1A1 JUMP JUMPDEST STOP JUMPDEST PUSH2 0xC7 PUSH2 0x1ED JUMP JUMPDEST PUSH1 0x40 MLOAD PUSH2 0xD4 SWAP2 SWAP1 PUSH2 0x646 JUMP JUMPDEST PUSH1 0x40 MLOAD DUP1 SWAP2 SUB SWAP1 RETURN JUMPDEST PUSH2 0xF7 PUSH1 0x4 DUP1 CALLDATASIZE SUB DUP2 ADD SWAP1 PUSH2 0xF2 SWAP2 SWAP1 PUSH2 0x5D8 JUMP JUMPDEST PUSH2 0x211 JUMP JUMPDEST STOP JUMPDEST PUSH2 0x113 PUSH1 0x4 DUP1 CALLDATASIZE SUB DUP2 ADD SWAP1 PUSH2 0x10E SWAP2 SWAP1 PUSH2 0x68D JUMP JUMPDEST PUSH2 0x25D JUMP JUMPDEST STOP JUMPDEST PUSH2 0x11D PUSH2 0x33F JUMP JUMPDEST STOP JUMPDEST PUSH2 0x127 PUSH2 0x386 JUMP JUMPDEST STOP JUMPDEST PUSH2 0x131 PUSH2 0x3CD JUMP JUMPDEST PUSH1 0x40 MLOAD PUSH2 0x13E SWAP2 SWAP1 PUSH2 0x74A JUMP JUMPDEST PUSH1 0x40 MLOAD DUP1 SWAP2 SUB SWAP1 RETURN JUMPDEST PUSH2 0x14F PUSH2 0x45B JUMP JUMPDEST PUSH1 0x40 MLOAD PUSH2 0x15C SWAP2 SWAP1 PUSH2 0x74A JUMP JUMPDEST PUSH1 0x40 MLOAD DUP1 SWAP2 SUB SWAP1 RETURN JUMPDEST PUSH2 0x16D PUSH2 0x4E9 JUMP JUMPDEST PUSH1 0x40 MLOAD PUSH2 0x17A SWAP2 SWAP1 PUSH2 0x7C1 JUMP JUMPDEST PUSH1 0x40 MLOAD DUP1 SWAP2 SUB SWAP1 RETURN JUMPDEST PUSH2 0x18B PUSH2 0x577 JUMP JUMPDEST PUSH1 0x40 MLOAD PUSH2 0x198 SWAP2 SWAP1 PUSH2 0x646 JUMP JUMPDEST PUSH1 0x40 MLOAD DUP1 SWAP2 SUB SWAP1 RETURN JUMPDEST PUSH1 0x9 SWAP1 POP PUSH1 0x40 MLOAD DUP1 PUSH1 0x40 ADD PUSH1 0x40 MSTORE DUP1 PUSH1 0x4 DUP2 MSTORE PUSH1 0x20 ADD PUSH32 0x6E65773000000000000000000000000000000000000000000000000000000000 DUP2 MSTORE POP PUSH1 0x2 SWAP1 DUP2 PUSH2 0x1E9 SWAP2 SWAP1 PUSH2 0xA1E JUMP JUMPDEST POP POP JUMP JUMPDEST PUSH1 0x0 DUP1 SLOAD SWAP1 PUSH2 0x100 EXP SWAP1 DIV PUSH20 0xFFFFFFFFFFFFFFFFFFFFFFFFFFFFFFFFFFFFFFFF AND DUP2 JUMP JUMPDEST PUSH1 0xA SWAP1 POP PUSH1 0x40 MLOAD DUP1 PUSH1 0x40 ADD PUSH1 0x40 MSTORE DUP1 PUSH1 0x4 DUP2 MSTORE PUSH1 0x20 ADD PUSH32 0x6E65773100000000000000000000000000000000000000000000000000000000 DUP2 MSTORE POP PUSH1 0x2 SWAP1 DUP2 PUSH2 0x259 SWAP2 SWAP1 PUSH2 0xA1E JUMP JUMPDEST POP POP JUMP JUMPDEST PUSH1 0x1 PUSH1 0x0 SWAP1 SLOAD SWAP1 PUSH2 0x100 EXP SWAP1 DIV PUSH20 0xFFFFFFFFFFFFFFFFFFFFFFFFFFFFFFFFFFFFFFFF AND PUSH20 0xFFFFFFFFFFFFFFFFFFFFFFFFFFFFFFFFFFFFFFFF AND CALLER PUSH20 0xFFFFFFFFFFFFFFFFFFFFFFFFFFFFFFFFFFFFFFFF AND EQ PUSH2 0x2B7 JUMPI PUSH1 0x0 DUP1 REVERT JUMPDEST DUP1 PUSH1 0x0 DUP1 PUSH2 0x100 EXP DUP2 SLOAD DUP2 PUSH20 0xFFFFFFFFFFFFFFFFFFFFFFFFFFFFFFFFFFFFFFFF MUL NOT AND SWAP1 DUP4 PUSH20 0xFFFFFFFFFFFFFFFFFFFFFFFFFFFFFFFFFFFFFFFF AND MUL OR SWAP1 SSTORE POP PUSH1 0x40 MLOAD DUP1 PUSH1 0x40 ADD PUSH1 0x40 MSTORE DUP1 PUSH1 0x8 DUP2 MSTORE PUSH1 0x20 ADD PUSH32 0x7570677261646531000000000000000000000000000000000000000000000000 DUP2 MSTORE POP PUSH1 0x2 SWAP1 DUP2 PUSH2 0x33B SWAP2 SWAP1 PUSH2 0xA1E JUMP JUMPDEST POP POP JUMP JUMPDEST PUSH1 0x40 MLOAD DUP1 PUSH1 0x40 ADD PUSH1 0x40 MSTORE DUP1 PUSH1 0x5 DUP2 MSTORE PUSH1 0x20 ADD PUSH32 0x6E65776631000000000000000000000000000000000000000000000000000000 DUP2 MSTORE POP PUSH1 0x2 SWAP1 DUP2 PUSH2 0x383 SWAP2 SWAP1 PUSH2 0xA1E JUMP JUMPDEST POP JUMP JUMPDEST PUSH1 0x40 MLOAD DUP1 PUSH1 0x40 ADD PUSH1 0x40 MSTORE DUP1 PUSH1 0x3 DUP2 MSTORE PUSH1 0x20 ADD PUSH32 0x6E65770000000000000000000000000000000000000000000000000000000000 DUP2 MSTORE POP PUSH1 0x2 SWAP1 DUP2 PUSH2 0x3CA SWAP2 SWAP1 PUSH2 0xA1E JUMP JUMPDEST POP JUMP JUMPDEST PUSH1 0x4 DUP1 SLOAD PUSH2 0x3DA SWAP1 PUSH2 0x841 JUMP JUMPDEST DUP1 PUSH1 0x1F ADD PUSH1 0x20 DUP1 SWAP2 DIV MUL PUSH1 0x20 ADD PUSH1 0x40 MLOAD SWAP1 DUP2 ADD PUSH1 0x40 MSTORE DUP1 SWAP3 SWAP2 SWAP1 DUP2 DUP2 MSTORE PUSH1 0x20 ADD DUP3 DUP1 SLOAD PUSH2 0x406 SWAP1 PUSH2 0x841 JUMP JUMPDEST DUP1 ISZERO PUSH2 0x453 JUMPI DUP1 PUSH1 0x1F LT PUSH2 0x428 JUMPI PUSH2 0x100 DUP1 DUP4 SLOAD DIV MUL DUP4 MSTORE SWAP2 PUSH1 0x20 ADD SWAP2 PUSH2 0x453 JUMP JUMPDEST DUP3 ADD SWAP2 SWAP1 PUSH1 0x0 MSTORE PUSH1 0x20 PUSH1 0x0 KECCAK256 SWAP1 JUMPDEST DUP2 SLOAD DUP2 MSTORE SWAP1 PUSH1 0x1 ADD SWAP1 PUSH1 0x20 ADD DUP1 DUP4 GT PUSH2 0x436 JUMPI DUP3 SWAP1 SUB PUSH1 0x1F AND DUP3 ADD SWAP2 JUMPDEST POP POP POP POP POP DUP2 JUMP JUMPDEST PUSH1 0x3 DUP1 SLOAD PUSH2 0x468 SWAP1 PUSH2 0x841 JUMP JUMPDEST DUP1 PUSH1 0x1F ADD PUSH1 0x20 DUP1 SWAP2 DIV MUL PUSH1 0x20 ADD PUSH1 0x40 MLOAD SWAP1 DUP2 ADD PUSH1 0x40 MSTORE DUP1 SWAP3 SWAP2 SWAP1 DUP2 DUP2 MSTORE PUSH1 0x20 ADD DUP3 DUP1 SLOAD PUSH2 0x494 SWAP1 PUSH2 0x841 JUMP JUMPDEST DUP1 ISZERO PUSH2 0x4E1 JUMPI DUP1 PUSH1 0x1F LT PUSH2 0x4B6 JUMPI PUSH2 0x100 DUP1 DUP4 SLOAD DIV MUL DUP4 MSTORE SWAP2 PUSH1 0x20 ADD SWAP2 PUSH2 0x4E1 JUMP JUMPDEST DUP3 ADD SWAP2 SWAP1 PUSH1 0x0 MSTORE PUSH1 0x20 PUSH1 0x0 KECCAK256 SWAP1 JUMPDEST DUP2 SLOAD DUP2 MSTORE SWAP1 PUSH1 0x1 ADD SWAP1 PUSH1 0x20 ADD DUP1 DUP4 GT PUSH2 0x4C4 JUMPI DUP3 SWAP1 SUB PUSH1 0x1F AND DUP3 ADD SWAP2 JUMPDEST POP POP POP POP POP DUP2 JUMP JUMPDEST PUSH1 0x2 DUP1 SLOAD PUSH2 0x4F6 SWAP1 PUSH2 0x841 JUMP JUMPDEST DUP1 PUSH1 0x1F ADD PUSH1 0x20 DUP1 SWAP2 DIV MUL PUSH1 0x20 ADD PUSH1 0x40 MLOAD SWAP1 DUP2 ADD PUSH1 0x40 MSTORE DUP1 SWAP3 SWAP2 SWAP1 DUP2 DUP2 MSTORE PUSH1 0x20 ADD DUP3 DUP1 SLOAD PUSH2 0x522 SWAP1 PUSH2 0x841 JUMP JUMPDEST DUP1 ISZERO PUSH2 0x56F JUMPI DUP1 PUSH1 0x1F LT PUSH2 0x544 JUMPI PUSH2 0x100 DUP1 DUP4 SLOAD DIV MUL DUP4 MSTORE SWAP2 PUSH1 0x20 ADD SWAP2 PUSH2 0x56F JUMP JUMPDEST DUP3 ADD SWAP2 SWAP1 PUSH1 0x0 MSTORE PUSH1 0x20 PUSH1 0x0 KECCAK256 SWAP1 JUMPDEST DUP2 SLOAD DUP2 MSTORE SWAP1 PUSH1 0x1 ADD SWAP1 PUSH1 0x20 ADD DUP1 DUP4 GT PUSH2 0x552 JUMPI DUP3 SWAP1 SUB PUSH1 0x1F AND DUP3 ADD SWAP2 JUMPDEST POP POP POP POP POP DUP2 JUMP JUMPDEST PUSH1 0x1 PUSH1 0x0 SWAP1 SLOAD SWAP1 PUSH2 0x100 EXP SWAP1 DIV PUSH20 0xFFFFFFFFFFFFFFFFFFFFFFFFFFFFFFFFFFFFFFFF AND DUP2 JUMP JUMPDEST PUSH1 0x0 DUP1 REVERT JUMPDEST PUSH1 0x0 DUP2 SWAP1 POP SWAP2 SWAP1 POP JUMP JUMPDEST PUSH2 0x5B5 DUP2 PUSH2 0x5A2 JUMP JUMPDEST DUP2 EQ PUSH2 0x5C0 JUMPI PUSH1 0x0 DUP1 REVERT JUMPDEST POP JUMP JUMPDEST PUSH1 0x0 DUP2 CALLDATALOAD SWAP1 POP PUSH2 0x5D2 DUP2 PUSH2 0x5AC JUMP JUMPDEST SWAP3 SWAP2 POP POP JUMP JUMPDEST PUSH1 0x0 PUSH1 0x20 DUP3 DUP5 SUB SLT ISZERO PUSH2 0x5EE JUMPI PUSH2 0x5ED PUSH2 0x59D JUMP JUMPDEST JUMPDEST PUSH1 0x0 PUSH2 0x5FC DUP5 DUP3 DUP6 ADD PUSH2 0x5C3 JUMP JUMPDEST SWAP2 POP POP SWAP3 SWAP2 POP POP JUMP JUMPDEST PUSH1 0x0 PUSH20 0xFFFFFFFFFFFFFFFFFFFFFFFFFFFFFFFFFFFFFFFF DUP3 AND SWAP1 POP SWAP2 SWAP1 POP JUMP JUMPDEST PUSH1 0x0 PUSH2 0x630 DUP3 PUSH2 0x605 JUMP JUMPDEST SWAP1 POP SWAP2 SWAP1 POP JUMP JUMPDEST PUSH2 0x640 DUP2 PUSH2 0x625 JUMP JUMPDEST DUP3 MSTORE POP POP JUMP JUMPDEST PUSH1 0x0 PUSH1 0x20 DUP3 ADD SWAP1 POP PUSH2 0x65B PUSH1 0x0 DUP4 ADD DUP5 PUSH2 0x637 JUMP JUMPDEST SWAP3 SWAP2 POP POP JUMP JUMPDEST PUSH2 0x66A DUP2 PUSH2 0x625 JUMP JUMPDEST DUP2 EQ PUSH2 0x675 JUMPI PUSH1 0x0 DUP1 REVERT JUMPDEST POP JUMP JUMPDEST PUSH1 0x0 DUP2 CALLDATALOAD SWAP1 POP PUSH2 0x687 DUP2 PUSH2 0x661 JUMP JUMPDEST SWAP3 SWAP2 POP POP JUMP JUMPDEST PUSH1 0x0 PUSH1 0x20 DUP3 DUP5 SUB SLT ISZERO PUSH2 0x6A3 JUMPI PUSH2 0x6A2 PUSH2 0x59D JUMP JUMPDEST JUMPDEST PUSH1 0x0 PUSH2 0x6B1 DUP5 DUP3 DUP6 ADD PUSH2 0x678 JUMP JUMPDEST SWAP2 POP POP SWAP3 SWAP2 POP POP JUMP JUMPDEST PUSH1 0x0 DUP2 MLOAD SWAP1 POP SWAP2 SWAP1 POP JUMP JUMPDEST PUSH1 0x0 DUP3 DUP3 MSTORE PUSH1 0x20 DUP3 ADD SWAP1 POP SWAP3 SWAP2 POP POP JUMP JUMPDEST PUSH1 0x0 JUMPDEST DUP4 DUP2 LT ISZERO PUSH2 0x6F4 JUMPI DUP1 DUP3 ADD MLOAD DUP2 DUP5 ADD MSTORE PUSH1 0x20 DUP2 ADD SWAP1 POP PUSH2 0x6D9 JUMP JUMPDEST PUSH1 0x0 DUP5 DUP5 ADD MSTORE POP POP POP POP JUMP JUMPDEST PUSH1 0x0 PUSH1 0x1F NOT PUSH1 0x1F DUP4 ADD AND SWAP1 POP SWAP2 SWAP1 POP JUMP JUMPDEST PUSH1 0x0 PUSH2 0x71C DUP3 PUSH2 0x6BA JUMP JUMPDEST PUSH2 0x726 DUP2 DUP6 PUSH2 0x6C5 JUMP JUMPDEST SWAP4 POP PUSH2 0x736 DUP2 DUP6 PUSH1 0x20 DUP7 ADD PUSH2 0x6D6 JUMP JUMPDEST PUSH2 0x73F DUP2 PUSH2 0x700 JUMP JUMPDEST DUP5 ADD SWAP2 POP POP SWAP3 SWAP2 POP POP JUMP JUMPDEST PUSH1 0x0 PUSH1 0x20 DUP3 ADD SWAP1 POP DUP2 DUP2 SUB PUSH1 0x0 DUP4 ADD MSTORE PUSH2 0x764 DUP2 DUP5 PUSH2 0x711 JUMP JUMPDEST SWAP1 POP SWAP3 SWAP2 POP POP JUMP JUMPDEST PUSH1 0x0 DUP2 MLOAD SWAP1 POP SWAP2 SWAP1 POP JUMP JUMPDEST PUSH1 0x0 DUP3 DUP3 MSTORE PUSH1 0x20 DUP3 ADD SWAP1 POP SWAP3 SWAP2 POP POP JUMP JUMPDEST PUSH1 0x0 PUSH2 0x793 DUP3 PUSH2 0x76C JUMP JUMPDEST PUSH2 0x79D DUP2 DUP6 PUSH2 0x777 JUMP JUMPDEST SWAP4 POP PUSH2 0x7AD DUP2 DUP6 PUSH1 0x20 DUP7 ADD PUSH2 0x6D6 JUMP JUMPDEST PUSH2 0x7B6 DUP2 PUSH2 0x700 JUMP JUMPDEST DUP5 ADD SWAP2 POP POP SWAP3 SWAP2 POP POP JUMP JUMPDEST PUSH1 0x0 PUSH1 0x20 DUP3 ADD SWAP1 POP DUP2 DUP2 SUB PUSH1 0x0 DUP4 ADD MSTORE PUSH2 0x7DB DUP2 DUP5 PUSH2 0x788 JUMP JUMPDEST SWAP1 POP SWAP3 SWAP2 POP POP JUMP JUMPDEST PUSH32 0x4E487B7100000000000000000000000000000000000000000000000000000000 PUSH1 0x0 MSTORE PUSH1 0x41 PUSH1 0x4 MSTORE PUSH1 0x24 PUSH1 0x0 REVERT JUMPDEST PUSH32 0x4E487B7100000000000000000000000000000000000000000000000000000000 PUSH1 0x0 MSTORE PUSH1 0x22 PUSH1 0x4 MSTORE PUSH1 0x24 PUSH1 0x0 REVERT JUMPDEST PUSH1 0x0 PUSH1 0x2 DUP3 DIV SWAP1 POP PUSH1 0x1 DUP3 AND DUP1 PUSH2 0x859 JUMPI PUSH1 0x7F DUP3 AND SWAP2 POP JUMPDEST PUSH1 0x20 DUP3 LT DUP2 SUB PUSH2 0x86C JUMPI PUSH2 0x86B PUSH2 0x812 JUMP JUMPDEST JUMPDEST POP SWAP2 SWAP1 POP JUMP JUMPDEST PUSH1 0x0 DUP2 SWAP1 POP DUP2 PUSH1 0x0 MSTORE PUSH1 0x20 PUSH1 0x0 KECCAK256 SWAP1 POP SWAP2 SWAP1 POP JUMP JUMPDEST PUSH1 0x0 PUSH1 0x20 PUSH1 0x1F DUP4 ADD DIV SWAP1 POP SWAP2 SWAP1 POP JUMP JUMPDEST PUSH1 0x0 DUP3 DUP3 SHL SWAP1 POP SWAP3 SWAP2 POP POP JUMP JUMPDEST PUSH1 0x0 PUSH1 0x8 DUP4 MUL PUSH2 0x8D4 PUSH32 0xFFFFFFFFFFFFFFFFFFFFFFFFFFFFFFFFFFFFFFFFFFFFFFFFFFFFFFFFFFFFFFFF DUP3 PUSH2 0x897 JUMP JUMPDEST PUSH2 0x8DE DUP7 DUP4 PUSH2 0x897 JUMP JUMPDEST SWAP6 POP DUP1 NOT DUP5 AND SWAP4 POP DUP1 DUP7 AND DUP5 OR SWAP3 POP POP POP SWAP4 SWAP3 POP POP POP JUMP JUMPDEST PUSH1 0x0 DUP2 SWAP1 POP SWAP2 SWAP1 POP JUMP JUMPDEST PUSH1 0x0 PUSH2 0x91B PUSH2 0x916 PUSH2 0x911 DUP5 PUSH2 0x5A2 JUMP JUMPDEST PUSH2 0x8F6 JUMP JUMPDEST PUSH2 0x5A2 JUMP JUMPDEST SWAP1 POP SWAP2 SWAP1 POP JUMP JUMPDEST PUSH1 0x0 DUP2 SWAP1 POP SWAP2 SWAP1 POP JUMP JUMPDEST PUSH2 0x935 DUP4 PUSH2 0x900 JUMP JUMPDEST PUSH2 0x949 PUSH2 0x941 DUP3 PUSH2 0x922 JUMP JUMPDEST DUP5 DUP5 SLOAD PUSH2 0x8A4 JUMP JUMPDEST DUP3 SSTORE POP POP POP POP JUMP JUMPDEST PUSH1 0x0 SWAP1 JUMP JUMPDEST PUSH2 0x95E PUSH2 0x951 JUMP JUMPDEST PUSH2 0x969 DUP2 DUP5 DUP5 PUSH2 0x92C JUMP JUMPDEST POP POP POP JUMP JUMPDEST JUMPDEST DUP2 DUP2 LT ISZERO PUSH2 0x98D JUMPI PUSH2 0x982 PUSH1 0x0 DUP3 PUSH2 0x956 JUMP JUMPDEST PUSH1 0x1 DUP2 ADD SWAP1 POP PUSH2 0x96F JUMP JUMPDEST POP POP JUMP JUMPDEST PUSH1 0x1F DUP3 GT ISZERO PUSH2 0x9D2 JUMPI PUSH2 0x9A3 DUP2 PUSH2 0x872 JUMP JUMPDEST PUSH2 0x9AC DUP5 PUSH2 0x887 JUMP JUMPDEST DUP2 ADD PUSH1 0x20 DUP6 LT ISZERO PUSH2 0x9BB JUMPI DUP2 SWAP1 POP JUMPDEST PUSH2 0x9CF PUSH2 0x9C7 DUP6 PUSH2 0x887 JUMP JUMPDEST DUP4 ADD DUP3 PUSH2 0x96E JUMP JUMPDEST POP POP JUMPDEST POP POP POP JUMP JUMPDEST PUSH1 0x0 DUP3 DUP3 SHR SWAP1 POP SWAP3 SWAP2 POP POP JUMP JUMPDEST PUSH1 0x0 PUSH2 0x9F5 PUSH1 0x0 NOT DUP5 PUSH1 0x8 MUL PUSH2 0x9D7 JUMP JUMPDEST NOT DUP1 DUP4 AND SWAP2 POP POP SWAP3 SWAP2 POP POP JUMP JUMPDEST PUSH1 0x0 PUSH2 0xA0E DUP4 DUP4 PUSH2 0x9E4 JUMP JUMPDEST SWAP2 POP DUP3 PUSH1 0x2 MUL DUP3 OR SWAP1 POP SWAP3 SWAP2 POP POP JUMP JUMPDEST PUSH2 0xA27 DUP3 PUSH2 0x76C JUMP JUMPDEST PUSH8 0xFFFFFFFFFFFFFFFF DUP2 GT ISZERO PUSH2 0xA40 JUMPI PUSH2 0xA3F PUSH2 0x7E3 JUMP JUMPDEST JUMPDEST PUSH2 0xA4A DUP3 SLOAD PUSH2 0x841 JUMP JUMPDEST PUSH2 0xA55 DUP3 DUP3 DUP6 PUSH2 0x991 JUMP JUMPDEST PUSH1 0x0 PUSH1 0x20 SWAP1 POP PUSH1 0x1F DUP4 GT PUSH1 0x1 DUP2 EQ PUSH2 0xA88 JUMPI PUSH1 0x0 DUP5 ISZERO PUSH2 0xA76 JUMPI DUP3 DUP8 ADD MLOAD SWAP1 POP JUMPDEST PUSH2 0xA80 DUP6 DUP3 PUSH2 0xA02 JUMP JUMPDEST DUP7 SSTORE POP PUSH2 0xAE8 JUMP JUMPDEST PUSH1 0x1F NOT DUP5 AND PUSH2 0xA96 DUP7 PUSH2 0x872 JUMP JUMPDEST PUSH1 0x0 JUMPDEST DUP3 DUP2 LT ISZERO PUSH2 0xABE JUMPI DUP5 DUP10 ADD MLOAD DUP3 SSTORE PUSH1 0x1 DUP3 ADD SWAP2 POP PUSH1 0x20 DUP6 ADD SWAP5 POP PUSH1 0x20 DUP2 ADD SWAP1 POP PUSH2 0xA99 JUMP JUMPDEST DUP7 DUP4 LT ISZERO PUSH2 0xADB JUMPI DUP5 DUP10 ADD MLOAD PUSH2 0xAD7 PUSH1 0x1F DUP10 AND DUP3 PUSH2 0x9E4 JUMP JUMPDEST DUP4 SSTORE POP JUMPDEST PUSH1 0x1 PUSH1 0x2 DUP9 MUL ADD DUP9 SSTORE POP POP POP JUMPDEST POP POP POP POP POP POP JUMP INVALID LOG2 PUSH5 0x6970667358 0x22 SLT KECCAK256 DUP3 PC 0xF8 DUP15 SHL 0xF9 0xD6 COINBASE MULMOD 0xD3 CREATE2 0xCE SWAP6 0xCE SMOD JUMPI 0xEA DUP15 0xD2 0xC7 0xFB EXTCODEHASH 0x2C EXP PUSH13 0xF18ECF1CB15C8364736F6C6343 STOP ADDMOD SGT STOP CALLER "
				},
				"gasEstimates": {
					"creation": {
						"codeDepositCost": "570800",
						"executionCost": "606",
						"totalCost": "571406"
					},
					"external": {
						"admin()": "2602",
						"f1()": "infinite",
						"foo()": "infinite",
						"foo(uint256)": "infinite",
						"foo1(uint256)": "infinite",
						"implementation()": "2534",
						"selector()": "infinite",
						"selector5()": "infinite",
						"upgrade1(address)": "infinite",
						"words()": "infinite"
					}
				},
				"methodIdentifiers": {
					"admin()": "f851a440",
					"f1()": "c27fc305",
					"foo()": "c2985578",
					"foo(uint256)": "2fbebd38",
					"foo1(uint256)": "ab5128ef",
					"implementation()": "5c60da1b",
					"selector()": "ea3d508a",
					"selector5()": "c4f51613",
					"upgrade1(address)": "acd32943",
					"words()": "f2c31bd9"
				}
			},
			"storageLayout": {
				"storage": [
					{
						"astId": 178,
						"contract": "contracts/DaiLi/TransparentProxy.sol:Logic2",
						"label": "implementation",
						"offset": 0,
						"slot": "0",
						"type": "t_address"
					},
					{
						"astId": 180,
						"contract": "contracts/DaiLi/TransparentProxy.sol:Logic2",
						"label": "admin",
						"offset": 0,
						"slot": "1",
						"type": "t_address"
					},
					{
						"astId": 182,
						"contract": "contracts/DaiLi/TransparentProxy.sol:Logic2",
						"label": "words",
						"offset": 0,
						"slot": "2",
						"type": "t_string_storage"
					},
					{
						"astId": 184,
						"contract": "contracts/DaiLi/TransparentProxy.sol:Logic2",
						"label": "selector",
						"offset": 0,
						"slot": "3",
						"type": "t_bytes_storage"
					},
					{
						"astId": 186,
						"contract": "contracts/DaiLi/TransparentProxy.sol:Logic2",
						"label": "selector5",
						"offset": 0,
						"slot": "4",
						"type": "t_bytes_storage"
					}
				],
				"types": {
					"t_address": {
						"encoding": "inplace",
						"label": "address",
						"numberOfBytes": "20"
					},
					"t_bytes_storage": {
						"encoding": "bytes",
						"label": "bytes",
						"numberOfBytes": "32"
					},
					"t_string_storage": {
						"encoding": "bytes",
						"label": "string",
						"numberOfBytes": "32"
					}
				}
			},
			"userdoc": {
				"kind": "user",
				"methods": {},
				"version": 1
			}
		}
	}
}