{
	"contracts/DaiLi/TransparentProxy.sol": {
		"TransparentProxy": {
			"abi": [
				{
					"inputs": [
						{
							"internalType": "address",
							"name": "_implementation",
							"type": "address"
						}
					],
					"stateMutability": "nonpayable",
					"type": "constructor"
				},
				{
					"stateMutability": "payable",
					"type": "fallback"
				},
				{
					"inputs": [],
					"name": "admin",
					"outputs": [
						{
							"internalType": "address",
							"name": "",
							"type": "address"
						}
					],
					"stateMutability": "view",
					"type": "function"
				},
				{
					"inputs": [],
					"name": "implementation",
					"outputs": [
						{
							"internalType": "address",
							"name": "",
							"type": "address"
						}
					],
					"stateMutability": "view",
					"type": "function"
				},
				{
					"inputs": [],
					"name": "selector",
					"outputs": [
						{
							"internalType": "bytes",
							"name": "",
							"type": "bytes"
						}
					],
					"stateMutability": "view",
					"type": "function"
				},
				{
					"inputs": [],
					"name": "selector5",
					"outputs": [
						{
							"internalType": "bytes",
							"name": "",
							"type": "bytes"
						}
					],
					"stateMutability": "view",
					"type": "function"
				},
				{
					"inputs": [
						{
							"internalType": "address",
							"name": "newImplementation",
							"type": "address"
						}
					],
					"name": "upgrade",
					"outputs": [],
					"stateMutability": "nonpayable",
					"type": "function"
				},
				{
					"inputs": [],
					"name": "words",
					"outputs": [
						{
							"internalType": "string",
							"name": "",
							"type": "string"
						}
					],
					"stateMutability": "view",
					"type": "function"
				}
			],
			"devdoc": {
				"kind": "dev",
				"methods": {},
				"version": 1
			},
			"evm": {
				"assembly": "    /* \"contracts/DaiLi/TransparentProxy.sol\":622:1699  contract TransparentProxy {... */\n  mstore(0x40, 0x80)\n    /* \"contracts/DaiLi/TransparentProxy.sol\":952:1181  constructor(address _implementation){... */\n  callvalue\n  dup1\n  iszero\n  tag_1\n  jumpi\n  0x00\n  dup1\n  revert\ntag_1:\n  pop\n  mload(0x40)\n  sub(codesize, bytecodeSize)\n  dup1\n  bytecodeSize\n  dup4\n  codecopy\n  dup2\n  dup2\n  add\n  0x40\n  mstore\n  dup2\n  add\n  swap1\n  tag_2\n  swap2\n  swap1\n  tag_3\n  jump\t// in\ntag_2:\n    /* \"contracts/DaiLi/TransparentProxy.sol\":1007:1017  msg.sender */\n  caller\n    /* \"contracts/DaiLi/TransparentProxy.sol\":999:1004  admin */\n  0x01\n  0x00\n    /* \"contracts/DaiLi/TransparentProxy.sol\":999:1017  admin = msg.sender */\n  0x0100\n  exp\n  dup2\n  sload\n  dup2\n  0xffffffffffffffffffffffffffffffffffffffff\n  mul\n  not\n  and\n  swap1\n  dup4\n  0xffffffffffffffffffffffffffffffffffffffff\n  and\n  mul\n  or\n  swap1\n  sstore\n  pop\n    /* \"contracts/DaiLi/TransparentProxy.sol\":1045:1060  _implementation */\n  dup1\n    /* \"contracts/DaiLi/TransparentProxy.sol\":1028:1042  implementation */\n  0x00\n  dup1\n    /* \"contracts/DaiLi/TransparentProxy.sol\":1028:1060  implementation = _implementation */\n  0x0100\n  exp\n  dup2\n  sload\n  dup2\n  0xffffffffffffffffffffffffffffffffffffffff\n  mul\n  not\n  and\n  swap1\n  dup4\n  0xffffffffffffffffffffffffffffffffffffffff\n  and\n  mul\n  or\n  swap1\n  sstore\n  pop\n    /* \"contracts/DaiLi/TransparentProxy.sol\":1080:1112  abi.encodeWithSignature(\"foo()\") */\n  add(0x24, mload(0x40))\n  mload(0x40)\n  0x20\n  dup2\n  dup4\n  sub\n  sub\n  dup2\n  mstore\n  swap1\n  0x40\n  mstore\n  and(not(0xffffffffffffffffffffffffffffffffffffffffffffffffffffffff), 0xc298557800000000000000000000000000000000000000000000000000000000)\n  0x20\n  dup3\n  add\n  dup1\n  mload\n  0xffffffffffffffffffffffffffffffffffffffffffffffffffffffff\n  dup4\n  dup2\n  dup4\n  and\n  or\n  dup4\n  mstore\n  pop\n  pop\n  pop\n  pop\n    /* \"contracts/DaiLi/TransparentProxy.sol\":1071:1079  selector */\n  0x03\n    /* \"contracts/DaiLi/TransparentProxy.sol\":1071:1112  selector=abi.encodeWithSignature(\"foo()\") */\n  swap1\n  dup2\n  tag_6\n  swap2\n  swap1\n  tag_7\n  jump\t// in\ntag_6:\n  pop\n    /* \"contracts/DaiLi/TransparentProxy.sol\":1169:1170  5 */\n  0x05\n    /* \"contracts/DaiLi/TransparentProxy.sol\":1133:1171  abi.encodeWithSignature(\"foo(uint)\",5) */\n  add(0x24, mload(0x40))\n  tag_8\n  swap2\n  swap1\n  tag_9\n  jump\t// in\ntag_8:\n  mload(0x40)\n  0x20\n  dup2\n  dup4\n  sub\n  sub\n  dup2\n  mstore\n  swap1\n  0x40\n  mstore\n  and(not(0xffffffffffffffffffffffffffffffffffffffffffffffffffffffff), 0x65d42dce00000000000000000000000000000000000000000000000000000000)\n  0x20\n  dup3\n  add\n  dup1\n  mload\n  0xffffffffffffffffffffffffffffffffffffffffffffffffffffffff\n  dup4\n  dup2\n  dup4\n  and\n  or\n  dup4\n  mstore\n  pop\n  pop\n  pop\n  pop\n    /* \"contracts/DaiLi/TransparentProxy.sol\":1123:1132  selector5 */\n  0x04\n    /* \"contracts/DaiLi/TransparentProxy.sol\":1123:1171  selector5=abi.encodeWithSignature(\"foo(uint)\",5) */\n  swap1\n  dup2\n  tag_10\n  swap2\n  swap1\n  tag_7\n  jump\t// in\ntag_10:\n  pop\n    /* \"contracts/DaiLi/TransparentProxy.sol\":952:1181  constructor(address _implementation){... */\n  pop\n    /* \"contracts/DaiLi/TransparentProxy.sol\":622:1699  contract TransparentProxy {... */\n  jump(tag_11)\n    /* \"#utility.yul\":88:205   */\ntag_13:\n    /* \"#utility.yul\":197:198   */\n  0x00\n    /* \"#utility.yul\":194:195   */\n  dup1\n    /* \"#utility.yul\":187:199   */\n  revert\n    /* \"#utility.yul\":334:460   */\ntag_15:\n    /* \"#utility.yul\":371:378   */\n  0x00\n    /* \"#utility.yul\":411:453   */\n  0xffffffffffffffffffffffffffffffffffffffff\n    /* \"#utility.yul\":404:409   */\n  dup3\n    /* \"#utility.yul\":400:454   */\n  and\n    /* \"#utility.yul\":389:454   */\n  swap1\n  pop\n    /* \"#utility.yul\":334:460   */\n  swap2\n  swap1\n  pop\n  jump\t// out\n    /* \"#utility.yul\":466:562   */\ntag_16:\n    /* \"#utility.yul\":503:510   */\n  0x00\n    /* \"#utility.yul\":532:556   */\n  tag_49\n    /* \"#utility.yul\":550:555   */\n  dup3\n    /* \"#utility.yul\":532:556   */\n  tag_15\n  jump\t// in\ntag_49:\n    /* \"#utility.yul\":521:556   */\n  swap1\n  pop\n    /* \"#utility.yul\":466:562   */\n  swap2\n  swap1\n  pop\n  jump\t// out\n    /* \"#utility.yul\":568:690   */\ntag_17:\n    /* \"#utility.yul\":641:665   */\n  tag_51\n    /* \"#utility.yul\":659:664   */\n  dup2\n    /* \"#utility.yul\":641:665   */\n  tag_16\n  jump\t// in\ntag_51:\n    /* \"#utility.yul\":634:639   */\n  dup2\n    /* \"#utility.yul\":631:666   */\n  eq\n    /* \"#utility.yul\":621:684   */\n  tag_52\n  jumpi\n    /* \"#utility.yul\":680:681   */\n  0x00\n    /* \"#utility.yul\":677:678   */\n  dup1\n    /* \"#utility.yul\":670:682   */\n  revert\n    /* \"#utility.yul\":621:684   */\ntag_52:\n    /* \"#utility.yul\":568:690   */\n  pop\n  jump\t// out\n    /* \"#utility.yul\":696:839   */\ntag_18:\n    /* \"#utility.yul\":753:758   */\n  0x00\n    /* \"#utility.yul\":784:790   */\n  dup2\n    /* \"#utility.yul\":778:791   */\n  mload\n    /* \"#utility.yul\":769:791   */\n  swap1\n  pop\n    /* \"#utility.yul\":800:833   */\n  tag_54\n    /* \"#utility.yul\":827:832   */\n  dup2\n    /* \"#utility.yul\":800:833   */\n  tag_17\n  jump\t// in\ntag_54:\n    /* \"#utility.yul\":696:839   */\n  swap3\n  swap2\n  pop\n  pop\n  jump\t// out\n    /* \"#utility.yul\":845:1196   */\ntag_3:\n    /* \"#utility.yul\":915:921   */\n  0x00\n    /* \"#utility.yul\":964:966   */\n  0x20\n    /* \"#utility.yul\":952:961   */\n  dup3\n    /* \"#utility.yul\":943:950   */\n  dup5\n    /* \"#utility.yul\":939:962   */\n  sub\n    /* \"#utility.yul\":935:967   */\n  slt\n    /* \"#utility.yul\":932:1051   */\n  iszero\n  tag_56\n  jumpi\n    /* \"#utility.yul\":970:1049   */\n  tag_57\n  tag_13\n  jump\t// in\ntag_57:\n    /* \"#utility.yul\":932:1051   */\ntag_56:\n    /* \"#utility.yul\":1090:1091   */\n  0x00\n    /* \"#utility.yul\":1115:1179   */\n  tag_58\n    /* \"#utility.yul\":1171:1178   */\n  dup5\n    /* \"#utility.yul\":1162:1168   */\n  dup3\n    /* \"#utility.yul\":1151:1160   */\n  dup6\n    /* \"#utility.yul\":1147:1169   */\n  add\n    /* \"#utility.yul\":1115:1179   */\n  tag_18\n  jump\t// in\ntag_58:\n    /* \"#utility.yul\":1105:1179   */\n  swap2\n  pop\n    /* \"#utility.yul\":1061:1189   */\n  pop\n    /* \"#utility.yul\":845:1196   */\n  swap3\n  swap2\n  pop\n  pop\n  jump\t// out\n    /* \"#utility.yul\":1202:1300   */\ntag_19:\n    /* \"#utility.yul\":1253:1259   */\n  0x00\n    /* \"#utility.yul\":1287:1292   */\n  dup2\n    /* \"#utility.yul\":1281:1293   */\n  mload\n    /* \"#utility.yul\":1271:1293   */\n  swap1\n  pop\n    /* \"#utility.yul\":1202:1300   */\n  swap2\n  swap1\n  pop\n  jump\t// out\n    /* \"#utility.yul\":1306:1486   */\ntag_20:\n    /* \"#utility.yul\":1354:1431   */\n  0x4e487b7100000000000000000000000000000000000000000000000000000000\n    /* \"#utility.yul\":1351:1352   */\n  0x00\n    /* \"#utility.yul\":1344:1432   */\n  mstore\n    /* \"#utility.yul\":1451:1455   */\n  0x41\n    /* \"#utility.yul\":1448:1449   */\n  0x04\n    /* \"#utility.yul\":1441:1456   */\n  mstore\n    /* \"#utility.yul\":1475:1479   */\n  0x24\n    /* \"#utility.yul\":1472:1473   */\n  0x00\n    /* \"#utility.yul\":1465:1480   */\n  revert\n    /* \"#utility.yul\":1492:1672   */\ntag_21:\n    /* \"#utility.yul\":1540:1617   */\n  0x4e487b7100000000000000000000000000000000000000000000000000000000\n    /* \"#utility.yul\":1537:1538   */\n  0x00\n    /* \"#utility.yul\":1530:1618   */\n  mstore\n    /* \"#utility.yul\":1637:1641   */\n  0x22\n    /* \"#utility.yul\":1634:1635   */\n  0x04\n    /* \"#utility.yul\":1627:1642   */\n  mstore\n    /* \"#utility.yul\":1661:1665   */\n  0x24\n    /* \"#utility.yul\":1658:1659   */\n  0x00\n    /* \"#utility.yul\":1651:1666   */\n  revert\n    /* \"#utility.yul\":1678:1998   */\ntag_22:\n    /* \"#utility.yul\":1722:1728   */\n  0x00\n    /* \"#utility.yul\":1759:1760   */\n  0x02\n    /* \"#utility.yul\":1753:1757   */\n  dup3\n    /* \"#utility.yul\":1749:1761   */\n  div\n    /* \"#utility.yul\":1739:1761   */\n  swap1\n  pop\n    /* \"#utility.yul\":1806:1807   */\n  0x01\n    /* \"#utility.yul\":1800:1804   */\n  dup3\n    /* \"#utility.yul\":1796:1808   */\n  and\n    /* \"#utility.yul\":1827:1845   */\n  dup1\n    /* \"#utility.yul\":1817:1898   */\n  tag_63\n  jumpi\n    /* \"#utility.yul\":1883:1887   */\n  0x7f\n    /* \"#utility.yul\":1875:1881   */\n  dup3\n    /* \"#utility.yul\":1871:1888   */\n  and\n    /* \"#utility.yul\":1861:1888   */\n  swap2\n  pop\n    /* \"#utility.yul\":1817:1898   */\ntag_63:\n    /* \"#utility.yul\":1945:1947   */\n  0x20\n    /* \"#utility.yul\":1937:1943   */\n  dup3\n    /* \"#utility.yul\":1934:1948   */\n  lt\n    /* \"#utility.yul\":1914:1932   */\n  dup2\n    /* \"#utility.yul\":1911:1949   */\n  sub\n    /* \"#utility.yul\":1908:1992   */\n  tag_64\n  jumpi\n    /* \"#utility.yul\":1964:1982   */\n  tag_65\n  tag_21\n  jump\t// in\ntag_65:\n    /* \"#utility.yul\":1908:1992   */\ntag_64:\n    /* \"#utility.yul\":1729:1998   */\n  pop\n    /* \"#utility.yul\":1678:1998   */\n  swap2\n  swap1\n  pop\n  jump\t// out\n    /* \"#utility.yul\":2004:2144   */\ntag_23:\n    /* \"#utility.yul\":2052:2056   */\n  0x00\n    /* \"#utility.yul\":2075:2078   */\n  dup2\n    /* \"#utility.yul\":2067:2078   */\n  swap1\n  pop\n    /* \"#utility.yul\":2098:2101   */\n  dup2\n    /* \"#utility.yul\":2095:2096   */\n  0x00\n    /* \"#utility.yul\":2088:2102   */\n  mstore\n    /* \"#utility.yul\":2132:2136   */\n  0x20\n    /* \"#utility.yul\":2129:2130   */\n  0x00\n    /* \"#utility.yul\":2119:2137   */\n  keccak256\n    /* \"#utility.yul\":2111:2137   */\n  swap1\n  pop\n    /* \"#utility.yul\":2004:2144   */\n  swap2\n  swap1\n  pop\n  jump\t// out\n    /* \"#utility.yul\":2150:2243   */\ntag_24:\n    /* \"#utility.yul\":2187:2193   */\n  0x00\n    /* \"#utility.yul\":2234:2236   */\n  0x20\n    /* \"#utility.yul\":2229:2231   */\n  0x1f\n    /* \"#utility.yul\":2222:2227   */\n  dup4\n    /* \"#utility.yul\":2218:2232   */\n  add\n    /* \"#utility.yul\":2214:2237   */\n  div\n    /* \"#utility.yul\":2204:2237   */\n  swap1\n  pop\n    /* \"#utility.yul\":2150:2243   */\n  swap2\n  swap1\n  pop\n  jump\t// out\n    /* \"#utility.yul\":2249:2356   */\ntag_25:\n    /* \"#utility.yul\":2293:2301   */\n  0x00\n    /* \"#utility.yul\":2343:2348   */\n  dup3\n    /* \"#utility.yul\":2337:2341   */\n  dup3\n    /* \"#utility.yul\":2333:2349   */\n  shl\n    /* \"#utility.yul\":2312:2349   */\n  swap1\n  pop\n    /* \"#utility.yul\":2249:2356   */\n  swap3\n  swap2\n  pop\n  pop\n  jump\t// out\n    /* \"#utility.yul\":2362:2755   */\ntag_26:\n    /* \"#utility.yul\":2431:2437   */\n  0x00\n    /* \"#utility.yul\":2481:2482   */\n  0x08\n    /* \"#utility.yul\":2469:2479   */\n  dup4\n    /* \"#utility.yul\":2465:2483   */\n  mul\n    /* \"#utility.yul\":2504:2601   */\n  tag_70\n    /* \"#utility.yul\":2534:2600   */\n  0xffffffffffffffffffffffffffffffffffffffffffffffffffffffffffffffff\n    /* \"#utility.yul\":2523:2532   */\n  dup3\n    /* \"#utility.yul\":2504:2601   */\n  tag_25\n  jump\t// in\ntag_70:\n    /* \"#utility.yul\":2622:2661   */\n  tag_71\n    /* \"#utility.yul\":2652:2660   */\n  dup7\n    /* \"#utility.yul\":2641:2650   */\n  dup4\n    /* \"#utility.yul\":2622:2661   */\n  tag_25\n  jump\t// in\ntag_71:\n    /* \"#utility.yul\":2610:2661   */\n  swap6\n  pop\n    /* \"#utility.yul\":2694:2698   */\n  dup1\n    /* \"#utility.yul\":2690:2699   */\n  not\n    /* \"#utility.yul\":2683:2688   */\n  dup5\n    /* \"#utility.yul\":2679:2700   */\n  and\n    /* \"#utility.yul\":2670:2700   */\n  swap4\n  pop\n    /* \"#utility.yul\":2743:2747   */\n  dup1\n    /* \"#utility.yul\":2733:2741   */\n  dup7\n    /* \"#utility.yul\":2729:2748   */\n  and\n    /* \"#utility.yul\":2722:2727   */\n  dup5\n    /* \"#utility.yul\":2719:2749   */\n  or\n    /* \"#utility.yul\":2709:2749   */\n  swap3\n  pop\n    /* \"#utility.yul\":2438:2755   */\n  pop\n  pop\n    /* \"#utility.yul\":2362:2755   */\n  swap4\n  swap3\n  pop\n  pop\n  pop\n  jump\t// out\n    /* \"#utility.yul\":2761:2838   */\ntag_27:\n    /* \"#utility.yul\":2798:2805   */\n  0x00\n    /* \"#utility.yul\":2827:2832   */\n  dup2\n    /* \"#utility.yul\":2816:2832   */\n  swap1\n  pop\n    /* \"#utility.yul\":2761:2838   */\n  swap2\n  swap1\n  pop\n  jump\t// out\n    /* \"#utility.yul\":2844:2904   */\ntag_28:\n    /* \"#utility.yul\":2872:2875   */\n  0x00\n    /* \"#utility.yul\":2893:2898   */\n  dup2\n    /* \"#utility.yul\":2886:2898   */\n  swap1\n  pop\n    /* \"#utility.yul\":2844:2904   */\n  swap2\n  swap1\n  pop\n  jump\t// out\n    /* \"#utility.yul\":2910:3052   */\ntag_29:\n    /* \"#utility.yul\":2960:2969   */\n  0x00\n    /* \"#utility.yul\":2993:3046   */\n  tag_75\n    /* \"#utility.yul\":3011:3045   */\n  tag_76\n    /* \"#utility.yul\":3020:3044   */\n  tag_77\n    /* \"#utility.yul\":3038:3043   */\n  dup5\n    /* \"#utility.yul\":3020:3044   */\n  tag_27\n  jump\t// in\ntag_77:\n    /* \"#utility.yul\":3011:3045   */\n  tag_28\n  jump\t// in\ntag_76:\n    /* \"#utility.yul\":2993:3046   */\n  tag_27\n  jump\t// in\ntag_75:\n    /* \"#utility.yul\":2980:3046   */\n  swap1\n  pop\n    /* \"#utility.yul\":2910:3052   */\n  swap2\n  swap1\n  pop\n  jump\t// out\n    /* \"#utility.yul\":3058:3133   */\ntag_30:\n    /* \"#utility.yul\":3101:3104   */\n  0x00\n    /* \"#utility.yul\":3122:3127   */\n  dup2\n    /* \"#utility.yul\":3115:3127   */\n  swap1\n  pop\n    /* \"#utility.yul\":3058:3133   */\n  swap2\n  swap1\n  pop\n  jump\t// out\n    /* \"#utility.yul\":3139:3408   */\ntag_31:\n    /* \"#utility.yul\":3249:3288   */\n  tag_80\n    /* \"#utility.yul\":3280:3287   */\n  dup4\n    /* \"#utility.yul\":3249:3288   */\n  tag_29\n  jump\t// in\ntag_80:\n    /* \"#utility.yul\":3310:3401   */\n  tag_81\n    /* \"#utility.yul\":3359:3400   */\n  tag_82\n    /* \"#utility.yul\":3383:3399   */\n  dup3\n    /* \"#utility.yul\":3359:3400   */\n  tag_30\n  jump\t// in\ntag_82:\n    /* \"#utility.yul\":3351:3357   */\n  dup5\n    /* \"#utility.yul\":3344:3348   */\n  dup5\n    /* \"#utility.yul\":3338:3349   */\n  sload\n    /* \"#utility.yul\":3310:3401   */\n  tag_26\n  jump\t// in\ntag_81:\n    /* \"#utility.yul\":3304:3308   */\n  dup3\n    /* \"#utility.yul\":3297:3402   */\n  sstore\n    /* \"#utility.yul\":3215:3408   */\n  pop\n    /* \"#utility.yul\":3139:3408   */\n  pop\n  pop\n  pop\n  jump\t// out\n    /* \"#utility.yul\":3414:3487   */\ntag_32:\n    /* \"#utility.yul\":3459:3462   */\n  0x00\n    /* \"#utility.yul\":3414:3487   */\n  swap1\n  jump\t// out\n    /* \"#utility.yul\":3493:3682   */\ntag_33:\n    /* \"#utility.yul\":3570:3602   */\n  tag_85\n  tag_32\n  jump\t// in\ntag_85:\n    /* \"#utility.yul\":3611:3676   */\n  tag_86\n    /* \"#utility.yul\":3669:3675   */\n  dup2\n    /* \"#utility.yul\":3661:3667   */\n  dup5\n    /* \"#utility.yul\":3655:3659   */\n  dup5\n    /* \"#utility.yul\":3611:3676   */\n  tag_31\n  jump\t// in\ntag_86:\n    /* \"#utility.yul\":3546:3682   */\n  pop\n    /* \"#utility.yul\":3493:3682   */\n  pop\n  pop\n  jump\t// out\n    /* \"#utility.yul\":3688:3874   */\ntag_34:\n    /* \"#utility.yul\":3748:3868   */\ntag_88:\n    /* \"#utility.yul\":3765:3768   */\n  dup2\n    /* \"#utility.yul\":3758:3763   */\n  dup2\n    /* \"#utility.yul\":3755:3769   */\n  lt\n    /* \"#utility.yul\":3748:3868   */\n  iszero\n  tag_90\n  jumpi\n    /* \"#utility.yul\":3819:3858   */\n  tag_91\n    /* \"#utility.yul\":3856:3857   */\n  0x00\n    /* \"#utility.yul\":3849:3854   */\n  dup3\n    /* \"#utility.yul\":3819:3858   */\n  tag_33\n  jump\t// in\ntag_91:\n    /* \"#utility.yul\":3792:3793   */\n  0x01\n    /* \"#utility.yul\":3785:3790   */\n  dup2\n    /* \"#utility.yul\":3781:3794   */\n  add\n    /* \"#utility.yul\":3772:3794   */\n  swap1\n  pop\n    /* \"#utility.yul\":3748:3868   */\n  jump(tag_88)\ntag_90:\n    /* \"#utility.yul\":3688:3874   */\n  pop\n  pop\n  jump\t// out\n    /* \"#utility.yul\":3880:4421   */\ntag_35:\n    /* \"#utility.yul\":3980:3982   */\n  0x1f\n    /* \"#utility.yul\":3975:3978   */\n  dup3\n    /* \"#utility.yul\":3972:3983   */\n  gt\n    /* \"#utility.yul\":3969:4414   */\n  iszero\n  tag_93\n  jumpi\n    /* \"#utility.yul\":4014:4051   */\n  tag_94\n    /* \"#utility.yul\":4045:4050   */\n  dup2\n    /* \"#utility.yul\":4014:4051   */\n  tag_23\n  jump\t// in\ntag_94:\n    /* \"#utility.yul\":4097:4126   */\n  tag_95\n    /* \"#utility.yul\":4115:4125   */\n  dup5\n    /* \"#utility.yul\":4097:4126   */\n  tag_24\n  jump\t// in\ntag_95:\n    /* \"#utility.yul\":4087:4095   */\n  dup2\n    /* \"#utility.yul\":4083:4127   */\n  add\n    /* \"#utility.yul\":4280:4282   */\n  0x20\n    /* \"#utility.yul\":4268:4278   */\n  dup6\n    /* \"#utility.yul\":4265:4283   */\n  lt\n    /* \"#utility.yul\":4262:4311   */\n  iszero\n  tag_96\n  jumpi\n    /* \"#utility.yul\":4301:4309   */\n  dup2\n    /* \"#utility.yul\":4286:4309   */\n  swap1\n  pop\n    /* \"#utility.yul\":4262:4311   */\ntag_96:\n    /* \"#utility.yul\":4324:4404   */\n  tag_97\n    /* \"#utility.yul\":4380:4402   */\n  tag_98\n    /* \"#utility.yul\":4398:4401   */\n  dup6\n    /* \"#utility.yul\":4380:4402   */\n  tag_24\n  jump\t// in\ntag_98:\n    /* \"#utility.yul\":4370:4378   */\n  dup4\n    /* \"#utility.yul\":4366:4403   */\n  add\n    /* \"#utility.yul\":4353:4364   */\n  dup3\n    /* \"#utility.yul\":4324:4404   */\n  tag_34\n  jump\t// in\ntag_97:\n    /* \"#utility.yul\":3984:4414   */\n  pop\n  pop\n    /* \"#utility.yul\":3969:4414   */\ntag_93:\n    /* \"#utility.yul\":3880:4421   */\n  pop\n  pop\n  pop\n  jump\t// out\n    /* \"#utility.yul\":4427:4544   */\ntag_36:\n    /* \"#utility.yul\":4481:4489   */\n  0x00\n    /* \"#utility.yul\":4531:4536   */\n  dup3\n    /* \"#utility.yul\":4525:4529   */\n  dup3\n    /* \"#utility.yul\":4521:4537   */\n  shr\n    /* \"#utility.yul\":4500:4537   */\n  swap1\n  pop\n    /* \"#utility.yul\":4427:4544   */\n  swap3\n  swap2\n  pop\n  pop\n  jump\t// out\n    /* \"#utility.yul\":4550:4719   */\ntag_37:\n    /* \"#utility.yul\":4594:4600   */\n  0x00\n    /* \"#utility.yul\":4627:4678   */\n  tag_101\n    /* \"#utility.yul\":4675:4676   */\n  0x00\n    /* \"#utility.yul\":4671:4677   */\n  not\n    /* \"#utility.yul\":4663:4668   */\n  dup5\n    /* \"#utility.yul\":4660:4661   */\n  0x08\n    /* \"#utility.yul\":4656:4669   */\n  mul\n    /* \"#utility.yul\":4627:4678   */\n  tag_36\n  jump\t// in\ntag_101:\n    /* \"#utility.yul\":4623:4679   */\n  not\n    /* \"#utility.yul\":4708:4712   */\n  dup1\n    /* \"#utility.yul\":4702:4706   */\n  dup4\n    /* \"#utility.yul\":4698:4713   */\n  and\n    /* \"#utility.yul\":4688:4713   */\n  swap2\n  pop\n    /* \"#utility.yul\":4601:4719   */\n  pop\n    /* \"#utility.yul\":4550:4719   */\n  swap3\n  swap2\n  pop\n  pop\n  jump\t// out\n    /* \"#utility.yul\":4724:5019   */\ntag_38:\n    /* \"#utility.yul\":4800:4804   */\n  0x00\n    /* \"#utility.yul\":4946:4975   */\n  tag_103\n    /* \"#utility.yul\":4971:4974   */\n  dup4\n    /* \"#utility.yul\":4965:4969   */\n  dup4\n    /* \"#utility.yul\":4946:4975   */\n  tag_37\n  jump\t// in\ntag_103:\n    /* \"#utility.yul\":4938:4975   */\n  swap2\n  pop\n    /* \"#utility.yul\":5008:5011   */\n  dup3\n    /* \"#utility.yul\":5005:5006   */\n  0x02\n    /* \"#utility.yul\":5001:5012   */\n  mul\n    /* \"#utility.yul\":4995:4999   */\n  dup3\n    /* \"#utility.yul\":4992:5013   */\n  or\n    /* \"#utility.yul\":4984:5013   */\n  swap1\n  pop\n    /* \"#utility.yul\":4724:5019   */\n  swap3\n  swap2\n  pop\n  pop\n  jump\t// out\n    /* \"#utility.yul\":5024:6414   */\ntag_7:\n    /* \"#utility.yul\":5139:5175   */\n  tag_105\n    /* \"#utility.yul\":5171:5174   */\n  dup3\n    /* \"#utility.yul\":5139:5175   */\n  tag_19\n  jump\t// in\ntag_105:\n    /* \"#utility.yul\":5240:5258   */\n  0xffffffffffffffff\n    /* \"#utility.yul\":5232:5238   */\n  dup2\n    /* \"#utility.yul\":5229:5259   */\n  gt\n    /* \"#utility.yul\":5226:5282   */\n  iszero\n  tag_106\n  jumpi\n    /* \"#utility.yul\":5262:5280   */\n  tag_107\n  tag_20\n  jump\t// in\ntag_107:\n    /* \"#utility.yul\":5226:5282   */\ntag_106:\n    /* \"#utility.yul\":5306:5344   */\n  tag_108\n    /* \"#utility.yul\":5338:5342   */\n  dup3\n    /* \"#utility.yul\":5332:5343   */\n  sload\n    /* \"#utility.yul\":5306:5344   */\n  tag_22\n  jump\t// in\ntag_108:\n    /* \"#utility.yul\":5391:5457   */\n  tag_109\n    /* \"#utility.yul\":5450:5456   */\n  dup3\n    /* \"#utility.yul\":5442:5448   */\n  dup3\n    /* \"#utility.yul\":5436:5440   */\n  dup6\n    /* \"#utility.yul\":5391:5457   */\n  tag_35\n  jump\t// in\ntag_109:\n    /* \"#utility.yul\":5484:5485   */\n  0x00\n    /* \"#utility.yul\":5508:5512   */\n  0x20\n    /* \"#utility.yul\":5495:5512   */\n  swap1\n  pop\n    /* \"#utility.yul\":5540:5542   */\n  0x1f\n    /* \"#utility.yul\":5532:5538   */\n  dup4\n    /* \"#utility.yul\":5529:5543   */\n  gt\n    /* \"#utility.yul\":5557:5558   */\n  0x01\n    /* \"#utility.yul\":5552:6169   */\n  dup2\n  eq\n  tag_111\n  jumpi\n    /* \"#utility.yul\":6213:6214   */\n  0x00\n    /* \"#utility.yul\":6230:6236   */\n  dup5\n    /* \"#utility.yul\":6227:6304   */\n  iszero\n  tag_112\n  jumpi\n    /* \"#utility.yul\":6279:6288   */\n  dup3\n    /* \"#utility.yul\":6274:6277   */\n  dup8\n    /* \"#utility.yul\":6270:6289   */\n  add\n    /* \"#utility.yul\":6264:6290   */\n  mload\n    /* \"#utility.yul\":6255:6290   */\n  swap1\n  pop\n    /* \"#utility.yul\":6227:6304   */\ntag_112:\n    /* \"#utility.yul\":6330:6397   */\n  tag_113\n    /* \"#utility.yul\":6390:6396   */\n  dup6\n    /* \"#utility.yul\":6383:6388   */\n  dup3\n    /* \"#utility.yul\":6330:6397   */\n  tag_38\n  jump\t// in\ntag_113:\n    /* \"#utility.yul\":6324:6328   */\n  dup7\n    /* \"#utility.yul\":6317:6398   */\n  sstore\n    /* \"#utility.yul\":6186:6408   */\n  pop\n    /* \"#utility.yul\":5522:6408   */\n  jump(tag_110)\n    /* \"#utility.yul\":5552:6169   */\ntag_111:\n    /* \"#utility.yul\":5604:5608   */\n  0x1f\n    /* \"#utility.yul\":5600:5609   */\n  not\n    /* \"#utility.yul\":5592:5598   */\n  dup5\n    /* \"#utility.yul\":5588:5610   */\n  and\n    /* \"#utility.yul\":5638:5674   */\n  tag_114\n    /* \"#utility.yul\":5669:5673   */\n  dup7\n    /* \"#utility.yul\":5638:5674   */\n  tag_23\n  jump\t// in\ntag_114:\n    /* \"#utility.yul\":5696:5697   */\n  0x00\n    /* \"#utility.yul\":5710:5918   */\ntag_115:\n    /* \"#utility.yul\":5724:5731   */\n  dup3\n    /* \"#utility.yul\":5721:5722   */\n  dup2\n    /* \"#utility.yul\":5718:5732   */\n  lt\n    /* \"#utility.yul\":5710:5918   */\n  iszero\n  tag_117\n  jumpi\n    /* \"#utility.yul\":5803:5812   */\n  dup5\n    /* \"#utility.yul\":5798:5801   */\n  dup10\n    /* \"#utility.yul\":5794:5813   */\n  add\n    /* \"#utility.yul\":5788:5814   */\n  mload\n    /* \"#utility.yul\":5780:5786   */\n  dup3\n    /* \"#utility.yul\":5773:5815   */\n  sstore\n    /* \"#utility.yul\":5854:5855   */\n  0x01\n    /* \"#utility.yul\":5846:5852   */\n  dup3\n    /* \"#utility.yul\":5842:5856   */\n  add\n    /* \"#utility.yul\":5832:5856   */\n  swap2\n  pop\n    /* \"#utility.yul\":5901:5903   */\n  0x20\n    /* \"#utility.yul\":5890:5899   */\n  dup6\n    /* \"#utility.yul\":5886:5904   */\n  add\n    /* \"#utility.yul\":5873:5904   */\n  swap5\n  pop\n    /* \"#utility.yul\":5747:5751   */\n  0x20\n    /* \"#utility.yul\":5744:5745   */\n  dup2\n    /* \"#utility.yul\":5740:5752   */\n  add\n    /* \"#utility.yul\":5735:5752   */\n  swap1\n  pop\n    /* \"#utility.yul\":5710:5918   */\n  jump(tag_115)\ntag_117:\n    /* \"#utility.yul\":5946:5952   */\n  dup7\n    /* \"#utility.yul\":5937:5944   */\n  dup4\n    /* \"#utility.yul\":5934:5953   */\n  lt\n    /* \"#utility.yul\":5931:6110   */\n  iszero\n  tag_118\n  jumpi\n    /* \"#utility.yul\":6004:6013   */\n  dup5\n    /* \"#utility.yul\":5999:6002   */\n  dup10\n    /* \"#utility.yul\":5995:6014   */\n  add\n    /* \"#utility.yul\":5989:6015   */\n  mload\n    /* \"#utility.yul\":6047:6095   */\n  tag_119\n    /* \"#utility.yul\":6089:6093   */\n  0x1f\n    /* \"#utility.yul\":6081:6087   */\n  dup10\n    /* \"#utility.yul\":6077:6094   */\n  and\n    /* \"#utility.yul\":6066:6075   */\n  dup3\n    /* \"#utility.yul\":6047:6095   */\n  tag_37\n  jump\t// in\ntag_119:\n    /* \"#utility.yul\":6039:6045   */\n  dup4\n    /* \"#utility.yul\":6032:6096   */\n  sstore\n    /* \"#utility.yul\":5954:6110   */\n  pop\n    /* \"#utility.yul\":5931:6110   */\ntag_118:\n    /* \"#utility.yul\":6156:6157   */\n  0x01\n    /* \"#utility.yul\":6152:6153   */\n  0x02\n    /* \"#utility.yul\":6144:6150   */\n  dup9\n    /* \"#utility.yul\":6140:6154   */\n  mul\n    /* \"#utility.yul\":6136:6158   */\n  add\n    /* \"#utility.yul\":6130:6134   */\n  dup9\n    /* \"#utility.yul\":6123:6159   */\n  sstore\n    /* \"#utility.yul\":5559:6169   */\n  pop\n  pop\n  pop\n    /* \"#utility.yul\":5522:6408   */\ntag_110:\n  pop\n    /* \"#utility.yul\":5114:6414   */\n  pop\n  pop\n  pop\n    /* \"#utility.yul\":5024:6414   */\n  pop\n  pop\n  jump\t// out\n    /* \"#utility.yul\":6420:6505   */\ntag_39:\n    /* \"#utility.yul\":6465:6472   */\n  0x00\n    /* \"#utility.yul\":6494:6499   */\n  dup2\n    /* \"#utility.yul\":6483:6499   */\n  swap1\n  pop\n    /* \"#utility.yul\":6420:6505   */\n  swap2\n  swap1\n  pop\n  jump\t// out\n    /* \"#utility.yul\":6511:6597   */\ntag_40:\n    /* \"#utility.yul\":6546:6553   */\n  0x00\n    /* \"#utility.yul\":6586:6590   */\n  0xff\n    /* \"#utility.yul\":6579:6584   */\n  dup3\n    /* \"#utility.yul\":6575:6591   */\n  and\n    /* \"#utility.yul\":6564:6591   */\n  swap1\n  pop\n    /* \"#utility.yul\":6511:6597   */\n  swap2\n  swap1\n  pop\n  jump\t// out\n    /* \"#utility.yul\":6603:6757   */\ntag_41:\n    /* \"#utility.yul\":6659:6668   */\n  0x00\n    /* \"#utility.yul\":6692:6751   */\n  tag_123\n    /* \"#utility.yul\":6708:6750   */\n  tag_124\n    /* \"#utility.yul\":6717:6749   */\n  tag_125\n    /* \"#utility.yul\":6743:6748   */\n  dup5\n    /* \"#utility.yul\":6717:6749   */\n  tag_39\n  jump\t// in\ntag_125:\n    /* \"#utility.yul\":6708:6750   */\n  tag_28\n  jump\t// in\ntag_124:\n    /* \"#utility.yul\":6692:6751   */\n  tag_40\n  jump\t// in\ntag_123:\n    /* \"#utility.yul\":6679:6751   */\n  swap1\n  pop\n    /* \"#utility.yul\":6603:6757   */\n  swap2\n  swap1\n  pop\n  jump\t// out\n    /* \"#utility.yul\":6763:6906   */\ntag_42:\n    /* \"#utility.yul\":6856:6899   */\n  tag_127\n    /* \"#utility.yul\":6893:6898   */\n  dup2\n    /* \"#utility.yul\":6856:6899   */\n  tag_41\n  jump\t// in\ntag_127:\n    /* \"#utility.yul\":6851:6854   */\n  dup3\n    /* \"#utility.yul\":6844:6900   */\n  mstore\n    /* \"#utility.yul\":6763:6906   */\n  pop\n  pop\n  jump\t// out\n    /* \"#utility.yul\":6912:7146   */\ntag_9:\n    /* \"#utility.yul\":7011:7015   */\n  0x00\n    /* \"#utility.yul\":7049:7051   */\n  0x20\n    /* \"#utility.yul\":7038:7047   */\n  dup3\n    /* \"#utility.yul\":7034:7052   */\n  add\n    /* \"#utility.yul\":7026:7052   */\n  swap1\n  pop\n    /* \"#utility.yul\":7062:7139   */\n  tag_129\n    /* \"#utility.yul\":7136:7137   */\n  0x00\n    /* \"#utility.yul\":7125:7134   */\n  dup4\n    /* \"#utility.yul\":7121:7138   */\n  add\n    /* \"#utility.yul\":7112:7118   */\n  dup5\n    /* \"#utility.yul\":7062:7139   */\n  tag_42\n  jump\t// in\ntag_129:\n    /* \"#utility.yul\":6912:7146   */\n  swap3\n  swap2\n  pop\n  pop\n  jump\t// out\n    /* \"contracts/DaiLi/TransparentProxy.sol\":622:1699  contract TransparentProxy {... */\ntag_11:\n  dataSize(sub_0)\n  dup1\n  dataOffset(sub_0)\n  0x00\n  codecopy\n  0x00\n  return\nstop\n\nsub_0: assembly {\n        /* \"contracts/DaiLi/TransparentProxy.sol\":622:1699  contract TransparentProxy {... */\n      mstore(0x40, 0x80)\n      jumpi(tag_1, lt(calldatasize, 0x04))\n      shr(0xe0, calldataload(0x00))\n      dup1\n      0x0900f010\n      eq\n      tag_3\n      jumpi\n      dup1\n      0x5c60da1b\n      eq\n      tag_4\n      jumpi\n      dup1\n      0xc4f51613\n      eq\n      tag_5\n      jumpi\n      dup1\n      0xea3d508a\n      eq\n      tag_6\n      jumpi\n      dup1\n      0xf2c31bd9\n      eq\n      tag_7\n      jumpi\n      dup1\n      0xf851a440\n      eq\n      tag_8\n      jumpi\n      jump(tag_2)\n    tag_1:\n    tag_2:\n        /* \"contracts/DaiLi/TransparentProxy.sol\":1371:1376  admin */\n      0x01\n      0x00\n      swap1\n      sload\n      swap1\n      0x0100\n      exp\n      swap1\n      div\n      0xffffffffffffffffffffffffffffffffffffffff\n      and\n        /* \"contracts/DaiLi/TransparentProxy.sol\":1357:1376  msg.sender != admin */\n      0xffffffffffffffffffffffffffffffffffffffff\n      and\n        /* \"contracts/DaiLi/TransparentProxy.sol\":1357:1367  msg.sender */\n      caller\n        /* \"contracts/DaiLi/TransparentProxy.sol\":1357:1376  msg.sender != admin */\n      0xffffffffffffffffffffffffffffffffffffffff\n      and\n      sub\n        /* \"contracts/DaiLi/TransparentProxy.sol\":1349:1377  require(msg.sender != admin) */\n      tag_11\n      jumpi\n      0x00\n      dup1\n      revert\n    tag_11:\n        /* \"contracts/DaiLi/TransparentProxy.sol\":1389:1401  bool success */\n      0x00\n        /* \"contracts/DaiLi/TransparentProxy.sol\":1403:1420  bytes memory data */\n      dup1\n        /* \"contracts/DaiLi/TransparentProxy.sol\":1424:1438  implementation */\n      0x00\n      dup1\n      sload\n      swap1\n      0x0100\n      exp\n      swap1\n      div\n      0xffffffffffffffffffffffffffffffffffffffff\n      and\n        /* \"contracts/DaiLi/TransparentProxy.sol\":1424:1451  implementation.delegatecall */\n      0xffffffffffffffffffffffffffffffffffffffff\n      and\n        /* \"contracts/DaiLi/TransparentProxy.sol\":1452:1460  msg.data */\n      0x00\n      calldatasize\n        /* \"contracts/DaiLi/TransparentProxy.sol\":1424:1461  implementation.delegatecall(msg.data) */\n      mload(0x40)\n      tag_12\n      swap3\n      swap2\n      swap1\n      tag_13\n      jump\t// in\n    tag_12:\n      0x00\n      mload(0x40)\n      dup1\n      dup4\n      sub\n      dup2\n      dup6\n      gas\n      delegatecall\n      swap2\n      pop\n      pop\n      returndatasize\n      dup1\n      0x00\n      dup2\n      eq\n      tag_16\n      jumpi\n      mload(0x40)\n      swap2\n      pop\n      and(add(returndatasize, 0x3f), not(0x1f))\n      dup3\n      add\n      0x40\n      mstore\n      returndatasize\n      dup3\n      mstore\n      returndatasize\n      0x00\n      0x20\n      dup5\n      add\n      returndatacopy\n      jump(tag_15)\n    tag_16:\n      0x60\n      swap2\n      pop\n    tag_15:\n      stop\n        /* \"contracts/DaiLi/TransparentProxy.sol\":1548:1696  function upgrade(address newImplementation) public {... */\n    tag_3:\n      callvalue\n      dup1\n      iszero\n      tag_17\n      jumpi\n      0x00\n      dup1\n      revert\n    tag_17:\n      pop\n      tag_18\n      0x04\n      dup1\n      calldatasize\n      sub\n      dup2\n      add\n      swap1\n      tag_19\n      swap2\n      swap1\n      tag_20\n      jump\t// in\n    tag_19:\n      tag_21\n      jump\t// in\n    tag_18:\n      stop\n        /* \"contracts/DaiLi/TransparentProxy.sol\":655:685  address public  implementation */\n    tag_4:\n      callvalue\n      dup1\n      iszero\n      tag_22\n      jumpi\n      0x00\n      dup1\n      revert\n    tag_22:\n      pop\n      tag_23\n      tag_24\n      jump\t// in\n    tag_23:\n      mload(0x40)\n      tag_25\n      swap2\n      swap1\n      tag_26\n      jump\t// in\n    tag_25:\n      mload(0x40)\n      dup1\n      swap2\n      sub\n      swap1\n      return\n        /* \"contracts/DaiLi/TransparentProxy.sol\":862:884  bytes public selector5 */\n    tag_5:\n      callvalue\n      dup1\n      iszero\n      tag_27\n      jumpi\n      0x00\n      dup1\n      revert\n    tag_27:\n      pop\n      tag_28\n      tag_29\n      jump\t// in\n    tag_28:\n      mload(0x40)\n      tag_30\n      swap2\n      swap1\n      tag_31\n      jump\t// in\n    tag_30:\n      mload(0x40)\n      dup1\n      swap2\n      sub\n      swap1\n      return\n        /* \"contracts/DaiLi/TransparentProxy.sol\":834:855  bytes public selector */\n    tag_6:\n      callvalue\n      dup1\n      iszero\n      tag_32\n      jumpi\n      0x00\n      dup1\n      revert\n    tag_32:\n      pop\n      tag_33\n      tag_34\n      jump\t// in\n    tag_33:\n      mload(0x40)\n      tag_35\n      swap2\n      swap1\n      tag_31\n      jump\t// in\n    tag_35:\n      mload(0x40)\n      dup1\n      swap2\n      sub\n      swap1\n      return\n        /* \"contracts/DaiLi/TransparentProxy.sol\":753:772  string public words */\n    tag_7:\n      callvalue\n      dup1\n      iszero\n      tag_36\n      jumpi\n      0x00\n      dup1\n      revert\n    tag_36:\n      pop\n      tag_37\n      tag_38\n      jump\t// in\n    tag_37:\n      mload(0x40)\n      tag_39\n      swap2\n      swap1\n      tag_40\n      jump\t// in\n    tag_39:\n      mload(0x40)\n      dup1\n      swap2\n      sub\n      swap1\n      return\n        /* \"contracts/DaiLi/TransparentProxy.sol\":713:733  address public admin */\n    tag_8:\n      callvalue\n      dup1\n      iszero\n      tag_41\n      jumpi\n      0x00\n      dup1\n      revert\n    tag_41:\n      pop\n      tag_42\n      tag_43\n      jump\t// in\n    tag_42:\n      mload(0x40)\n      tag_44\n      swap2\n      swap1\n      tag_26\n      jump\t// in\n    tag_44:\n      mload(0x40)\n      dup1\n      swap2\n      sub\n      swap1\n      return\n        /* \"contracts/DaiLi/TransparentProxy.sol\":1548:1696  function upgrade(address newImplementation) public {... */\n    tag_21:\n        /* \"contracts/DaiLi/TransparentProxy.sol\":1628:1633  admin */\n      0x01\n      0x00\n      swap1\n      sload\n      swap1\n      0x0100\n      exp\n      swap1\n      div\n      0xffffffffffffffffffffffffffffffffffffffff\n      and\n        /* \"contracts/DaiLi/TransparentProxy.sol\":1614:1633  msg.sender != admin */\n      0xffffffffffffffffffffffffffffffffffffffff\n      and\n        /* \"contracts/DaiLi/TransparentProxy.sol\":1614:1624  msg.sender */\n      caller\n        /* \"contracts/DaiLi/TransparentProxy.sol\":1614:1633  msg.sender != admin */\n      0xffffffffffffffffffffffffffffffffffffffff\n      and\n      eq\n        /* \"contracts/DaiLi/TransparentProxy.sol\":1610:1643  if (msg.sender != admin) revert() */\n      tag_46\n      jumpi\n        /* \"contracts/DaiLi/TransparentProxy.sol\":1635:1643  revert() */\n      0x00\n      dup1\n      revert\n        /* \"contracts/DaiLi/TransparentProxy.sol\":1610:1643  if (msg.sender != admin) revert() */\n    tag_46:\n        /* \"contracts/DaiLi/TransparentProxy.sol\":1671:1688  newImplementation */\n      dup1\n        /* \"contracts/DaiLi/TransparentProxy.sol\":1654:1668  implementation */\n      0x00\n      dup1\n        /* \"contracts/DaiLi/TransparentProxy.sol\":1654:1688  implementation = newImplementation */\n      0x0100\n      exp\n      dup2\n      sload\n      dup2\n      0xffffffffffffffffffffffffffffffffffffffff\n      mul\n      not\n      and\n      swap1\n      dup4\n      0xffffffffffffffffffffffffffffffffffffffff\n      and\n      mul\n      or\n      swap1\n      sstore\n      pop\n        /* \"contracts/DaiLi/TransparentProxy.sol\":1548:1696  function upgrade(address newImplementation) public {... */\n      pop\n      jump\t// out\n        /* \"contracts/DaiLi/TransparentProxy.sol\":655:685  address public  implementation */\n    tag_24:\n      0x00\n      dup1\n      sload\n      swap1\n      0x0100\n      exp\n      swap1\n      div\n      0xffffffffffffffffffffffffffffffffffffffff\n      and\n      dup2\n      jump\t// out\n        /* \"contracts/DaiLi/TransparentProxy.sol\":862:884  bytes public selector5 */\n    tag_29:\n      0x04\n      dup1\n      sload\n      tag_47\n      swap1\n      tag_48\n      jump\t// in\n    tag_47:\n      dup1\n      0x1f\n      add\n      0x20\n      dup1\n      swap2\n      div\n      mul\n      0x20\n      add\n      mload(0x40)\n      swap1\n      dup2\n      add\n      0x40\n      mstore\n      dup1\n      swap3\n      swap2\n      swap1\n      dup2\n      dup2\n      mstore\n      0x20\n      add\n      dup3\n      dup1\n      sload\n      tag_49\n      swap1\n      tag_48\n      jump\t// in\n    tag_49:\n      dup1\n      iszero\n      tag_50\n      jumpi\n      dup1\n      0x1f\n      lt\n      tag_51\n      jumpi\n      0x0100\n      dup1\n      dup4\n      sload\n      div\n      mul\n      dup4\n      mstore\n      swap2\n      0x20\n      add\n      swap2\n      jump(tag_50)\n    tag_51:\n      dup3\n      add\n      swap2\n      swap1\n      0x00\n      mstore\n      keccak256(0x00, 0x20)\n      swap1\n    tag_52:\n      dup2\n      sload\n      dup2\n      mstore\n      swap1\n      0x01\n      add\n      swap1\n      0x20\n      add\n      dup1\n      dup4\n      gt\n      tag_52\n      jumpi\n      dup3\n      swap1\n      sub\n      0x1f\n      and\n      dup3\n      add\n      swap2\n    tag_50:\n      pop\n      pop\n      pop\n      pop\n      pop\n      dup2\n      jump\t// out\n        /* \"contracts/DaiLi/TransparentProxy.sol\":834:855  bytes public selector */\n    tag_34:\n      0x03\n      dup1\n      sload\n      tag_53\n      swap1\n      tag_48\n      jump\t// in\n    tag_53:\n      dup1\n      0x1f\n      add\n      0x20\n      dup1\n      swap2\n      div\n      mul\n      0x20\n      add\n      mload(0x40)\n      swap1\n      dup2\n      add\n      0x40\n      mstore\n      dup1\n      swap3\n      swap2\n      swap1\n      dup2\n      dup2\n      mstore\n      0x20\n      add\n      dup3\n      dup1\n      sload\n      tag_54\n      swap1\n      tag_48\n      jump\t// in\n    tag_54:\n      dup1\n      iszero\n      tag_55\n      jumpi\n      dup1\n      0x1f\n      lt\n      tag_56\n      jumpi\n      0x0100\n      dup1\n      dup4\n      sload\n      div\n      mul\n      dup4\n      mstore\n      swap2\n      0x20\n      add\n      swap2\n      jump(tag_55)\n    tag_56:\n      dup3\n      add\n      swap2\n      swap1\n      0x00\n      mstore\n      keccak256(0x00, 0x20)\n      swap1\n    tag_57:\n      dup2\n      sload\n      dup2\n      mstore\n      swap1\n      0x01\n      add\n      swap1\n      0x20\n      add\n      dup1\n      dup4\n      gt\n      tag_57\n      jumpi\n      dup3\n      swap1\n      sub\n      0x1f\n      and\n      dup3\n      add\n      swap2\n    tag_55:\n      pop\n      pop\n      pop\n      pop\n      pop\n      dup2\n      jump\t// out\n        /* \"contracts/DaiLi/TransparentProxy.sol\":753:772  string public words */\n    tag_38:\n      0x02\n      dup1\n      sload\n      tag_58\n      swap1\n      tag_48\n      jump\t// in\n    tag_58:\n      dup1\n      0x1f\n      add\n      0x20\n      dup1\n      swap2\n      div\n      mul\n      0x20\n      add\n      mload(0x40)\n      swap1\n      dup2\n      add\n      0x40\n      mstore\n      dup1\n      swap3\n      swap2\n      swap1\n      dup2\n      dup2\n      mstore\n      0x20\n      add\n      dup3\n      dup1\n      sload\n      tag_59\n      swap1\n      tag_48\n      jump\t// in\n    tag_59:\n      dup1\n      iszero\n      tag_60\n      jumpi\n      dup1\n      0x1f\n      lt\n      tag_61\n      jumpi\n      0x0100\n      dup1\n      dup4\n      sload\n      div\n      mul\n      dup4\n      mstore\n      swap2\n      0x20\n      add\n      swap2\n      jump(tag_60)\n    tag_61:\n      dup3\n      add\n      swap2\n      swap1\n      0x00\n      mstore\n      keccak256(0x00, 0x20)\n      swap1\n    tag_62:\n      dup2\n      sload\n      dup2\n      mstore\n      swap1\n      0x01\n      add\n      swap1\n      0x20\n      add\n      dup1\n      dup4\n      gt\n      tag_62\n      jumpi\n      dup3\n      swap1\n      sub\n      0x1f\n      and\n      dup3\n      add\n      swap2\n    tag_60:\n      pop\n      pop\n      pop\n      pop\n      pop\n      dup2\n      jump\t// out\n        /* \"contracts/DaiLi/TransparentProxy.sol\":713:733  address public admin */\n    tag_43:\n      0x01\n      0x00\n      swap1\n      sload\n      swap1\n      0x0100\n      exp\n      swap1\n      div\n      0xffffffffffffffffffffffffffffffffffffffff\n      and\n      dup2\n      jump\t// out\n        /* \"#utility.yul\":7:154   */\n    tag_63:\n        /* \"#utility.yul\":108:119   */\n      0x00\n        /* \"#utility.yul\":145:148   */\n      dup2\n        /* \"#utility.yul\":130:148   */\n      swap1\n      pop\n        /* \"#utility.yul\":7:154   */\n      swap3\n      swap2\n      pop\n      pop\n      jump\t// out\n        /* \"#utility.yul\":160:306   */\n    tag_64:\n        /* \"#utility.yul\":257:263   */\n      dup3\n        /* \"#utility.yul\":252:255   */\n      dup2\n        /* \"#utility.yul\":247:250   */\n      dup4\n        /* \"#utility.yul\":234:264   */\n      calldatacopy\n        /* \"#utility.yul\":298:299   */\n      0x00\n        /* \"#utility.yul\":289:295   */\n      dup4\n        /* \"#utility.yul\":284:287   */\n      dup4\n        /* \"#utility.yul\":280:296   */\n      add\n        /* \"#utility.yul\":273:300   */\n      mstore\n        /* \"#utility.yul\":160:306   */\n      pop\n      pop\n      pop\n      jump\t// out\n        /* \"#utility.yul\":334:661   */\n    tag_65:\n        /* \"#utility.yul\":448:451   */\n      0x00\n        /* \"#utility.yul\":469:557   */\n      tag_87\n        /* \"#utility.yul\":550:556   */\n      dup4\n        /* \"#utility.yul\":545:548   */\n      dup6\n        /* \"#utility.yul\":469:557   */\n      tag_63\n      jump\t// in\n    tag_87:\n        /* \"#utility.yul\":462:557   */\n      swap4\n      pop\n        /* \"#utility.yul\":567:623   */\n      tag_88\n        /* \"#utility.yul\":616:622   */\n      dup4\n        /* \"#utility.yul\":611:614   */\n      dup6\n        /* \"#utility.yul\":604:609   */\n      dup5\n        /* \"#utility.yul\":567:623   */\n      tag_64\n      jump\t// in\n    tag_88:\n        /* \"#utility.yul\":648:654   */\n      dup3\n        /* \"#utility.yul\":643:646   */\n      dup5\n        /* \"#utility.yul\":639:655   */\n      add\n        /* \"#utility.yul\":632:655   */\n      swap1\n      pop\n        /* \"#utility.yul\":334:661   */\n      swap4\n      swap3\n      pop\n      pop\n      pop\n      jump\t// out\n        /* \"#utility.yul\":667:958   */\n    tag_13:\n        /* \"#utility.yul\":807:810   */\n      0x00\n        /* \"#utility.yul\":829:932   */\n      tag_90\n        /* \"#utility.yul\":928:931   */\n      dup3\n        /* \"#utility.yul\":919:925   */\n      dup5\n        /* \"#utility.yul\":911:917   */\n      dup7\n        /* \"#utility.yul\":829:932   */\n      tag_65\n      jump\t// in\n    tag_90:\n        /* \"#utility.yul\":822:932   */\n      swap2\n      pop\n        /* \"#utility.yul\":949:952   */\n      dup2\n        /* \"#utility.yul\":942:952   */\n      swap1\n      pop\n        /* \"#utility.yul\":667:958   */\n      swap4\n      swap3\n      pop\n      pop\n      pop\n      jump\t// out\n        /* \"#utility.yul\":1045:1162   */\n    tag_67:\n        /* \"#utility.yul\":1154:1155   */\n      0x00\n        /* \"#utility.yul\":1151:1152   */\n      dup1\n        /* \"#utility.yul\":1144:1156   */\n      revert\n        /* \"#utility.yul\":1291:1417   */\n    tag_69:\n        /* \"#utility.yul\":1328:1335   */\n      0x00\n        /* \"#utility.yul\":1368:1410   */\n      0xffffffffffffffffffffffffffffffffffffffff\n        /* \"#utility.yul\":1361:1366   */\n      dup3\n        /* \"#utility.yul\":1357:1411   */\n      and\n        /* \"#utility.yul\":1346:1411   */\n      swap1\n      pop\n        /* \"#utility.yul\":1291:1417   */\n      swap2\n      swap1\n      pop\n      jump\t// out\n        /* \"#utility.yul\":1423:1519   */\n    tag_70:\n        /* \"#utility.yul\":1460:1467   */\n      0x00\n        /* \"#utility.yul\":1489:1513   */\n      tag_96\n        /* \"#utility.yul\":1507:1512   */\n      dup3\n        /* \"#utility.yul\":1489:1513   */\n      tag_69\n      jump\t// in\n    tag_96:\n        /* \"#utility.yul\":1478:1513   */\n      swap1\n      pop\n        /* \"#utility.yul\":1423:1519   */\n      swap2\n      swap1\n      pop\n      jump\t// out\n        /* \"#utility.yul\":1525:1647   */\n    tag_71:\n        /* \"#utility.yul\":1598:1622   */\n      tag_98\n        /* \"#utility.yul\":1616:1621   */\n      dup2\n        /* \"#utility.yul\":1598:1622   */\n      tag_70\n      jump\t// in\n    tag_98:\n        /* \"#utility.yul\":1591:1596   */\n      dup2\n        /* \"#utility.yul\":1588:1623   */\n      eq\n        /* \"#utility.yul\":1578:1641   */\n      tag_99\n      jumpi\n        /* \"#utility.yul\":1637:1638   */\n      0x00\n        /* \"#utility.yul\":1634:1635   */\n      dup1\n        /* \"#utility.yul\":1627:1639   */\n      revert\n        /* \"#utility.yul\":1578:1641   */\n    tag_99:\n        /* \"#utility.yul\":1525:1647   */\n      pop\n      jump\t// out\n        /* \"#utility.yul\":1653:1792   */\n    tag_72:\n        /* \"#utility.yul\":1699:1704   */\n      0x00\n        /* \"#utility.yul\":1737:1743   */\n      dup2\n        /* \"#utility.yul\":1724:1744   */\n      calldataload\n        /* \"#utility.yul\":1715:1744   */\n      swap1\n      pop\n        /* \"#utility.yul\":1753:1786   */\n      tag_101\n        /* \"#utility.yul\":1780:1785   */\n      dup2\n        /* \"#utility.yul\":1753:1786   */\n      tag_71\n      jump\t// in\n    tag_101:\n        /* \"#utility.yul\":1653:1792   */\n      swap3\n      swap2\n      pop\n      pop\n      jump\t// out\n        /* \"#utility.yul\":1798:2127   */\n    tag_20:\n        /* \"#utility.yul\":1857:1863   */\n      0x00\n        /* \"#utility.yul\":1906:1908   */\n      0x20\n        /* \"#utility.yul\":1894:1903   */\n      dup3\n        /* \"#utility.yul\":1885:1892   */\n      dup5\n        /* \"#utility.yul\":1881:1904   */\n      sub\n        /* \"#utility.yul\":1877:1909   */\n      slt\n        /* \"#utility.yul\":1874:1993   */\n      iszero\n      tag_103\n      jumpi\n        /* \"#utility.yul\":1912:1991   */\n      tag_104\n      tag_67\n      jump\t// in\n    tag_104:\n        /* \"#utility.yul\":1874:1993   */\n    tag_103:\n        /* \"#utility.yul\":2032:2033   */\n      0x00\n        /* \"#utility.yul\":2057:2110   */\n      tag_105\n        /* \"#utility.yul\":2102:2109   */\n      dup5\n        /* \"#utility.yul\":2093:2099   */\n      dup3\n        /* \"#utility.yul\":2082:2091   */\n      dup6\n        /* \"#utility.yul\":2078:2100   */\n      add\n        /* \"#utility.yul\":2057:2110   */\n      tag_72\n      jump\t// in\n    tag_105:\n        /* \"#utility.yul\":2047:2110   */\n      swap2\n      pop\n        /* \"#utility.yul\":2003:2120   */\n      pop\n        /* \"#utility.yul\":1798:2127   */\n      swap3\n      swap2\n      pop\n      pop\n      jump\t// out\n        /* \"#utility.yul\":2133:2251   */\n    tag_73:\n        /* \"#utility.yul\":2220:2244   */\n      tag_107\n        /* \"#utility.yul\":2238:2243   */\n      dup2\n        /* \"#utility.yul\":2220:2244   */\n      tag_70\n      jump\t// in\n    tag_107:\n        /* \"#utility.yul\":2215:2218   */\n      dup3\n        /* \"#utility.yul\":2208:2245   */\n      mstore\n        /* \"#utility.yul\":2133:2251   */\n      pop\n      pop\n      jump\t// out\n        /* \"#utility.yul\":2257:2479   */\n    tag_26:\n        /* \"#utility.yul\":2350:2354   */\n      0x00\n        /* \"#utility.yul\":2388:2390   */\n      0x20\n        /* \"#utility.yul\":2377:2386   */\n      dup3\n        /* \"#utility.yul\":2373:2391   */\n      add\n        /* \"#utility.yul\":2365:2391   */\n      swap1\n      pop\n        /* \"#utility.yul\":2401:2472   */\n      tag_109\n        /* \"#utility.yul\":2469:2470   */\n      0x00\n        /* \"#utility.yul\":2458:2467   */\n      dup4\n        /* \"#utility.yul\":2454:2471   */\n      add\n        /* \"#utility.yul\":2445:2451   */\n      dup5\n        /* \"#utility.yul\":2401:2472   */\n      tag_73\n      jump\t// in\n    tag_109:\n        /* \"#utility.yul\":2257:2479   */\n      swap3\n      swap2\n      pop\n      pop\n      jump\t// out\n        /* \"#utility.yul\":2485:2583   */\n    tag_74:\n        /* \"#utility.yul\":2536:2542   */\n      0x00\n        /* \"#utility.yul\":2570:2575   */\n      dup2\n        /* \"#utility.yul\":2564:2576   */\n      mload\n        /* \"#utility.yul\":2554:2576   */\n      swap1\n      pop\n        /* \"#utility.yul\":2485:2583   */\n      swap2\n      swap1\n      pop\n      jump\t// out\n        /* \"#utility.yul\":2589:2757   */\n    tag_75:\n        /* \"#utility.yul\":2672:2683   */\n      0x00\n        /* \"#utility.yul\":2706:2712   */\n      dup3\n        /* \"#utility.yul\":2701:2704   */\n      dup3\n        /* \"#utility.yul\":2694:2713   */\n      mstore\n        /* \"#utility.yul\":2746:2750   */\n      0x20\n        /* \"#utility.yul\":2741:2744   */\n      dup3\n        /* \"#utility.yul\":2737:2751   */\n      add\n        /* \"#utility.yul\":2722:2751   */\n      swap1\n      pop\n        /* \"#utility.yul\":2589:2757   */\n      swap3\n      swap2\n      pop\n      pop\n      jump\t// out\n        /* \"#utility.yul\":2763:3009   */\n    tag_76:\n        /* \"#utility.yul\":2844:2845   */\n      0x00\n        /* \"#utility.yul\":2854:2967   */\n    tag_113:\n        /* \"#utility.yul\":2868:2874   */\n      dup4\n        /* \"#utility.yul\":2865:2866   */\n      dup2\n        /* \"#utility.yul\":2862:2875   */\n      lt\n        /* \"#utility.yul\":2854:2967   */\n      iszero\n      tag_115\n      jumpi\n        /* \"#utility.yul\":2953:2954   */\n      dup1\n        /* \"#utility.yul\":2948:2951   */\n      dup3\n        /* \"#utility.yul\":2944:2955   */\n      add\n        /* \"#utility.yul\":2938:2956   */\n      mload\n        /* \"#utility.yul\":2934:2935   */\n      dup2\n        /* \"#utility.yul\":2929:2932   */\n      dup5\n        /* \"#utility.yul\":2925:2936   */\n      add\n        /* \"#utility.yul\":2918:2957   */\n      mstore\n        /* \"#utility.yul\":2890:2892   */\n      0x20\n        /* \"#utility.yul\":2887:2888   */\n      dup2\n        /* \"#utility.yul\":2883:2893   */\n      add\n        /* \"#utility.yul\":2878:2893   */\n      swap1\n      pop\n        /* \"#utility.yul\":2854:2967   */\n      jump(tag_113)\n    tag_115:\n        /* \"#utility.yul\":3001:3002   */\n      0x00\n        /* \"#utility.yul\":2992:2998   */\n      dup5\n        /* \"#utility.yul\":2987:2990   */\n      dup5\n        /* \"#utility.yul\":2983:2999   */\n      add\n        /* \"#utility.yul\":2976:3003   */\n      mstore\n        /* \"#utility.yul\":2825:3009   */\n      pop\n        /* \"#utility.yul\":2763:3009   */\n      pop\n      pop\n      pop\n      jump\t// out\n        /* \"#utility.yul\":3015:3117   */\n    tag_77:\n        /* \"#utility.yul\":3056:3062   */\n      0x00\n        /* \"#utility.yul\":3107:3109   */\n      0x1f\n        /* \"#utility.yul\":3103:3110   */\n      not\n        /* \"#utility.yul\":3098:3100   */\n      0x1f\n        /* \"#utility.yul\":3091:3096   */\n      dup4\n        /* \"#utility.yul\":3087:3101   */\n      add\n        /* \"#utility.yul\":3083:3111   */\n      and\n        /* \"#utility.yul\":3073:3111   */\n      swap1\n      pop\n        /* \"#utility.yul\":3015:3117   */\n      swap2\n      swap1\n      pop\n      jump\t// out\n        /* \"#utility.yul\":3123:3496   */\n    tag_78:\n        /* \"#utility.yul\":3209:3212   */\n      0x00\n        /* \"#utility.yul\":3237:3275   */\n      tag_118\n        /* \"#utility.yul\":3269:3274   */\n      dup3\n        /* \"#utility.yul\":3237:3275   */\n      tag_74\n      jump\t// in\n    tag_118:\n        /* \"#utility.yul\":3291:3361   */\n      tag_119\n        /* \"#utility.yul\":3354:3360   */\n      dup2\n        /* \"#utility.yul\":3349:3352   */\n      dup6\n        /* \"#utility.yul\":3291:3361   */\n      tag_75\n      jump\t// in\n    tag_119:\n        /* \"#utility.yul\":3284:3361   */\n      swap4\n      pop\n        /* \"#utility.yul\":3370:3435   */\n      tag_120\n        /* \"#utility.yul\":3428:3434   */\n      dup2\n        /* \"#utility.yul\":3423:3426   */\n      dup6\n        /* \"#utility.yul\":3416:3420   */\n      0x20\n        /* \"#utility.yul\":3409:3414   */\n      dup7\n        /* \"#utility.yul\":3405:3421   */\n      add\n        /* \"#utility.yul\":3370:3435   */\n      tag_76\n      jump\t// in\n    tag_120:\n        /* \"#utility.yul\":3460:3489   */\n      tag_121\n        /* \"#utility.yul\":3482:3488   */\n      dup2\n        /* \"#utility.yul\":3460:3489   */\n      tag_77\n      jump\t// in\n    tag_121:\n        /* \"#utility.yul\":3455:3458   */\n      dup5\n        /* \"#utility.yul\":3451:3490   */\n      add\n        /* \"#utility.yul\":3444:3490   */\n      swap2\n      pop\n        /* \"#utility.yul\":3213:3496   */\n      pop\n        /* \"#utility.yul\":3123:3496   */\n      swap3\n      swap2\n      pop\n      pop\n      jump\t// out\n        /* \"#utility.yul\":3502:3811   */\n    tag_31:\n        /* \"#utility.yul\":3613:3617   */\n      0x00\n        /* \"#utility.yul\":3651:3653   */\n      0x20\n        /* \"#utility.yul\":3640:3649   */\n      dup3\n        /* \"#utility.yul\":3636:3654   */\n      add\n        /* \"#utility.yul\":3628:3654   */\n      swap1\n      pop\n        /* \"#utility.yul\":3700:3709   */\n      dup2\n        /* \"#utility.yul\":3694:3698   */\n      dup2\n        /* \"#utility.yul\":3690:3710   */\n      sub\n        /* \"#utility.yul\":3686:3687   */\n      0x00\n        /* \"#utility.yul\":3675:3684   */\n      dup4\n        /* \"#utility.yul\":3671:3688   */\n      add\n        /* \"#utility.yul\":3664:3711   */\n      mstore\n        /* \"#utility.yul\":3728:3804   */\n      tag_123\n        /* \"#utility.yul\":3799:3803   */\n      dup2\n        /* \"#utility.yul\":3790:3796   */\n      dup5\n        /* \"#utility.yul\":3728:3804   */\n      tag_78\n      jump\t// in\n    tag_123:\n        /* \"#utility.yul\":3720:3804   */\n      swap1\n      pop\n        /* \"#utility.yul\":3502:3811   */\n      swap3\n      swap2\n      pop\n      pop\n      jump\t// out\n        /* \"#utility.yul\":3817:3916   */\n    tag_79:\n        /* \"#utility.yul\":3869:3875   */\n      0x00\n        /* \"#utility.yul\":3903:3908   */\n      dup2\n        /* \"#utility.yul\":3897:3909   */\n      mload\n        /* \"#utility.yul\":3887:3909   */\n      swap1\n      pop\n        /* \"#utility.yul\":3817:3916   */\n      swap2\n      swap1\n      pop\n      jump\t// out\n        /* \"#utility.yul\":3922:4091   */\n    tag_80:\n        /* \"#utility.yul\":4006:4017   */\n      0x00\n        /* \"#utility.yul\":4040:4046   */\n      dup3\n        /* \"#utility.yul\":4035:4038   */\n      dup3\n        /* \"#utility.yul\":4028:4047   */\n      mstore\n        /* \"#utility.yul\":4080:4084   */\n      0x20\n        /* \"#utility.yul\":4075:4078   */\n      dup3\n        /* \"#utility.yul\":4071:4085   */\n      add\n        /* \"#utility.yul\":4056:4085   */\n      swap1\n      pop\n        /* \"#utility.yul\":3922:4091   */\n      swap3\n      swap2\n      pop\n      pop\n      jump\t// out\n        /* \"#utility.yul\":4097:4474   */\n    tag_81:\n        /* \"#utility.yul\":4185:4188   */\n      0x00\n        /* \"#utility.yul\":4213:4252   */\n      tag_127\n        /* \"#utility.yul\":4246:4251   */\n      dup3\n        /* \"#utility.yul\":4213:4252   */\n      tag_79\n      jump\t// in\n    tag_127:\n        /* \"#utility.yul\":4268:4339   */\n      tag_128\n        /* \"#utility.yul\":4332:4338   */\n      dup2\n        /* \"#utility.yul\":4327:4330   */\n      dup6\n        /* \"#utility.yul\":4268:4339   */\n      tag_80\n      jump\t// in\n    tag_128:\n        /* \"#utility.yul\":4261:4339   */\n      swap4\n      pop\n        /* \"#utility.yul\":4348:4413   */\n      tag_129\n        /* \"#utility.yul\":4406:4412   */\n      dup2\n        /* \"#utility.yul\":4401:4404   */\n      dup6\n        /* \"#utility.yul\":4394:4398   */\n      0x20\n        /* \"#utility.yul\":4387:4392   */\n      dup7\n        /* \"#utility.yul\":4383:4399   */\n      add\n        /* \"#utility.yul\":4348:4413   */\n      tag_76\n      jump\t// in\n    tag_129:\n        /* \"#utility.yul\":4438:4467   */\n      tag_130\n        /* \"#utility.yul\":4460:4466   */\n      dup2\n        /* \"#utility.yul\":4438:4467   */\n      tag_77\n      jump\t// in\n    tag_130:\n        /* \"#utility.yul\":4433:4436   */\n      dup5\n        /* \"#utility.yul\":4429:4468   */\n      add\n        /* \"#utility.yul\":4422:4468   */\n      swap2\n      pop\n        /* \"#utility.yul\":4189:4474   */\n      pop\n        /* \"#utility.yul\":4097:4474   */\n      swap3\n      swap2\n      pop\n      pop\n      jump\t// out\n        /* \"#utility.yul\":4480:4793   */\n    tag_40:\n        /* \"#utility.yul\":4593:4597   */\n      0x00\n        /* \"#utility.yul\":4631:4633   */\n      0x20\n        /* \"#utility.yul\":4620:4629   */\n      dup3\n        /* \"#utility.yul\":4616:4634   */\n      add\n        /* \"#utility.yul\":4608:4634   */\n      swap1\n      pop\n        /* \"#utility.yul\":4680:4689   */\n      dup2\n        /* \"#utility.yul\":4674:4678   */\n      dup2\n        /* \"#utility.yul\":4670:4690   */\n      sub\n        /* \"#utility.yul\":4666:4667   */\n      0x00\n        /* \"#utility.yul\":4655:4664   */\n      dup4\n        /* \"#utility.yul\":4651:4668   */\n      add\n        /* \"#utility.yul\":4644:4691   */\n      mstore\n        /* \"#utility.yul\":4708:4786   */\n      tag_132\n        /* \"#utility.yul\":4781:4785   */\n      dup2\n        /* \"#utility.yul\":4772:4778   */\n      dup5\n        /* \"#utility.yul\":4708:4786   */\n      tag_81\n      jump\t// in\n    tag_132:\n        /* \"#utility.yul\":4700:4786   */\n      swap1\n      pop\n        /* \"#utility.yul\":4480:4793   */\n      swap3\n      swap2\n      pop\n      pop\n      jump\t// out\n        /* \"#utility.yul\":4799:4979   */\n    tag_82:\n        /* \"#utility.yul\":4847:4924   */\n      0x4e487b7100000000000000000000000000000000000000000000000000000000\n        /* \"#utility.yul\":4844:4845   */\n      0x00\n        /* \"#utility.yul\":4837:4925   */\n      mstore\n        /* \"#utility.yul\":4944:4948   */\n      0x22\n        /* \"#utility.yul\":4941:4942   */\n      0x04\n        /* \"#utility.yul\":4934:4949   */\n      mstore\n        /* \"#utility.yul\":4968:4972   */\n      0x24\n        /* \"#utility.yul\":4965:4966   */\n      0x00\n        /* \"#utility.yul\":4958:4973   */\n      revert\n        /* \"#utility.yul\":4985:5305   */\n    tag_48:\n        /* \"#utility.yul\":5029:5035   */\n      0x00\n        /* \"#utility.yul\":5066:5067   */\n      0x02\n        /* \"#utility.yul\":5060:5064   */\n      dup3\n        /* \"#utility.yul\":5056:5068   */\n      div\n        /* \"#utility.yul\":5046:5068   */\n      swap1\n      pop\n        /* \"#utility.yul\":5113:5114   */\n      0x01\n        /* \"#utility.yul\":5107:5111   */\n      dup3\n        /* \"#utility.yul\":5103:5115   */\n      and\n        /* \"#utility.yul\":5134:5152   */\n      dup1\n        /* \"#utility.yul\":5124:5205   */\n      tag_135\n      jumpi\n        /* \"#utility.yul\":5190:5194   */\n      0x7f\n        /* \"#utility.yul\":5182:5188   */\n      dup3\n        /* \"#utility.yul\":5178:5195   */\n      and\n        /* \"#utility.yul\":5168:5195   */\n      swap2\n      pop\n        /* \"#utility.yul\":5124:5205   */\n    tag_135:\n        /* \"#utility.yul\":5252:5254   */\n      0x20\n        /* \"#utility.yul\":5244:5250   */\n      dup3\n        /* \"#utility.yul\":5241:5255   */\n      lt\n        /* \"#utility.yul\":5221:5239   */\n      dup2\n        /* \"#utility.yul\":5218:5256   */\n      sub\n        /* \"#utility.yul\":5215:5299   */\n      tag_136\n      jumpi\n        /* \"#utility.yul\":5271:5289   */\n      tag_137\n      tag_82\n      jump\t// in\n    tag_137:\n        /* \"#utility.yul\":5215:5299   */\n    tag_136:\n        /* \"#utility.yul\":5036:5305   */\n      pop\n        /* \"#utility.yul\":4985:5305   */\n      swap2\n      swap1\n      pop\n      jump\t// out\n\n    auxdata: 0xa264697066735822122026de7a2c155c56c6a6e25aba001df21cca5106da7749778cfd9f751088d4baa164736f6c63430008130033\n}\n",
				"bytecode": {
					"linkReferences": {},
					"object": "60806040523480156200001157600080fd5b5060405162000e1238038062000e1283398181016040528101906200003791906200025f565b33600160006101000a81548173ffffffffffffffffffffffffffffffffffffffff021916908373ffffffffffffffffffffffffffffffffffffffff160217905550806000806101000a81548173ffffffffffffffffffffffffffffffffffffffff021916908373ffffffffffffffffffffffffffffffffffffffff1602179055506040516024016040516020818303038152906040527fc2985578000000000000000000000000000000000000000000000000000000007bffffffffffffffffffffffffffffffffffffffffffffffffffffffff19166020820180517bffffffffffffffffffffffffffffffffffffffffffffffffffffffff8381831617835250505050600390816200014b91906200050b565b50600560405160240162000160919062000642565b6040516020818303038152906040527f65d42dce000000000000000000000000000000000000000000000000000000007bffffffffffffffffffffffffffffffffffffffffffffffffffffffff19166020820180517bffffffffffffffffffffffffffffffffffffffffffffffffffffffff838183161783525050505060049081620001ed91906200050b565b50506200065f565b600080fd5b600073ffffffffffffffffffffffffffffffffffffffff82169050919050565b60006200022782620001fa565b9050919050565b62000239816200021a565b81146200024557600080fd5b50565b60008151905062000259816200022e565b92915050565b600060208284031215620002785762000277620001f5565b5b6000620002888482850162000248565b91505092915050565b600081519050919050565b7f4e487b7100000000000000000000000000000000000000000000000000000000600052604160045260246000fd5b7f4e487b7100000000000000000000000000000000000000000000000000000000600052602260045260246000fd5b600060028204905060018216806200031357607f821691505b602082108103620003295762000328620002cb565b5b50919050565b60008190508160005260206000209050919050565b60006020601f8301049050919050565b600082821b905092915050565b600060088302620003937fffffffffffffffffffffffffffffffffffffffffffffffffffffffffffffffff8262000354565b6200039f868362000354565b95508019841693508086168417925050509392505050565b6000819050919050565b6000819050919050565b6000620003ec620003e6620003e084620003b7565b620003c1565b620003b7565b9050919050565b6000819050919050565b6200040883620003cb565b620004206200041782620003f3565b84845462000361565b825550505050565b600090565b6200043762000428565b62000444818484620003fd565b505050565b5b818110156200046c57620004606000826200042d565b6001810190506200044a565b5050565b601f821115620004bb5762000485816200032f565b620004908462000344565b81016020851015620004a0578190505b620004b8620004af8562000344565b83018262000449565b50505b505050565b600082821c905092915050565b6000620004e060001984600802620004c0565b1980831691505092915050565b6000620004fb8383620004cd565b9150826002028217905092915050565b620005168262000291565b67ffffffffffffffff8111156200053257620005316200029c565b5b6200053e8254620002fa565b6200054b82828562000470565b600060209050601f8311600181146200058357600084156200056e578287015190505b6200057a8582620004ed565b865550620005ea565b601f19841662000593866200032f565b60005b82811015620005bd5784890151825560018201915060208501945060208101905062000596565b86831015620005dd5784890151620005d9601f891682620004cd565b8355505b6001600288020188555050505b505050505050565b6000819050919050565b600060ff82169050919050565b60006200062a620006246200061e84620005f2565b620003c1565b620005fc565b9050919050565b6200063c8162000609565b82525050565b600060208201905062000659600083018462000631565b92915050565b6107a3806200066f6000396000f3fe6080604052600436106100595760003560e01c80630900f010146101415780635c60da1b1461016a578063c4f5161314610195578063ea3d508a146101c0578063f2c31bd9146101eb578063f851a440146102165761005a565b5b600160009054906101000a900473ffffffffffffffffffffffffffffffffffffffff1673ffffffffffffffffffffffffffffffffffffffff163373ffffffffffffffffffffffffffffffffffffffff16036100b457600080fd5b60008060008054906101000a900473ffffffffffffffffffffffffffffffffffffffff1673ffffffffffffffffffffffffffffffffffffffff166000366040516100ff929190610511565b600060405180830381855af49150503d806000811461013a576040519150601f19603f3d011682016040523d82523d6000602084013e61013f565b606091505b005b34801561014d57600080fd5b506101686004803603810190610163919061058d565b610241565b005b34801561017657600080fd5b5061017f6102de565b60405161018c91906105c9565b60405180910390f35b3480156101a157600080fd5b506101aa610302565b6040516101b79190610674565b60405180910390f35b3480156101cc57600080fd5b506101d5610390565b6040516101e29190610674565b60405180910390f35b3480156101f757600080fd5b5061020061041e565b60405161020d91906106eb565b60405180910390f35b34801561022257600080fd5b5061022b6104ac565b60405161023891906105c9565b60405180910390f35b600160009054906101000a900473ffffffffffffffffffffffffffffffffffffffff1673ffffffffffffffffffffffffffffffffffffffff163373ffffffffffffffffffffffffffffffffffffffff161461029b57600080fd5b806000806101000a81548173ffffffffffffffffffffffffffffffffffffffff021916908373ffffffffffffffffffffffffffffffffffffffff16021790555050565b60008054906101000a900473ffffffffffffffffffffffffffffffffffffffff1681565b6004805461030f9061073c565b80601f016020809104026020016040519081016040528092919081815260200182805461033b9061073c565b80156103885780601f1061035d57610100808354040283529160200191610388565b820191906000526020600020905b81548152906001019060200180831161036b57829003601f168201915b505050505081565b6003805461039d9061073c565b80601f01602080910402602001604051908101604052809291908181526020018280546103c99061073c565b80156104165780601f106103eb57610100808354040283529160200191610416565b820191906000526020600020905b8154815290600101906020018083116103f957829003601f168201915b505050505081565b6002805461042b9061073c565b80601f01602080910402602001604051908101604052809291908181526020018280546104579061073c565b80156104a45780601f10610479576101008083540402835291602001916104a4565b820191906000526020600020905b81548152906001019060200180831161048757829003601f168201915b505050505081565b600160009054906101000a900473ffffffffffffffffffffffffffffffffffffffff1681565b600081905092915050565b82818337600083830152505050565b60006104f883856104d2565b93506105058385846104dd565b82840190509392505050565b600061051e8284866104ec565b91508190509392505050565b600080fd5b600073ffffffffffffffffffffffffffffffffffffffff82169050919050565b600061055a8261052f565b9050919050565b61056a8161054f565b811461057557600080fd5b50565b60008135905061058781610561565b92915050565b6000602082840312156105a3576105a261052a565b5b60006105b184828501610578565b91505092915050565b6105c38161054f565b82525050565b60006020820190506105de60008301846105ba565b92915050565b600081519050919050565b600082825260208201905092915050565b60005b8381101561061e578082015181840152602081019050610603565b60008484015250505050565b6000601f19601f8301169050919050565b6000610646826105e4565b61065081856105ef565b9350610660818560208601610600565b6106698161062a565b840191505092915050565b6000602082019050818103600083015261068e818461063b565b905092915050565b600081519050919050565b600082825260208201905092915050565b60006106bd82610696565b6106c781856106a1565b93506106d7818560208601610600565b6106e08161062a565b840191505092915050565b6000602082019050818103600083015261070581846106b2565b905092915050565b7f4e487b7100000000000000000000000000000000000000000000000000000000600052602260045260246000fd5b6000600282049050600182168061075457607f821691505b6020821081036107675761076661070d565b5b5091905056fea264697066735822122026de7a2c155c56c6a6e25aba001df21cca5106da7749778cfd9f751088d4baa164736f6c63430008130033",
					"opcodes": "PUSH1 0x80 PUSH1 0x40 MSTORE CALLVALUE DUP1 ISZERO PUSH3 0x11 JUMPI PUSH1 0x0 DUP1 REVERT JUMPDEST POP PUSH1 0x40 MLOAD PUSH3 0xE12 CODESIZE SUB DUP1 PUSH3 0xE12 DUP4 CODECOPY DUP2 DUP2 ADD PUSH1 0x40 MSTORE DUP2 ADD SWAP1 PUSH3 0x37 SWAP2 SWAP1 PUSH3 0x25F JUMP JUMPDEST CALLER PUSH1 0x1 PUSH1 0x0 PUSH2 0x100 EXP DUP2 SLOAD DUP2 PUSH20 0xFFFFFFFFFFFFFFFFFFFFFFFFFFFFFFFFFFFFFFFF MUL NOT AND SWAP1 DUP4 PUSH20 0xFFFFFFFFFFFFFFFFFFFFFFFFFFFFFFFFFFFFFFFF AND MUL OR SWAP1 SSTORE POP DUP1 PUSH1 0x0 DUP1 PUSH2 0x100 EXP DUP2 SLOAD DUP2 PUSH20 0xFFFFFFFFFFFFFFFFFFFFFFFFFFFFFFFFFFFFFFFF MUL NOT AND SWAP1 DUP4 PUSH20 0xFFFFFFFFFFFFFFFFFFFFFFFFFFFFFFFFFFFFFFFF AND MUL OR SWAP1 SSTORE POP PUSH1 0x40 MLOAD PUSH1 0x24 ADD PUSH1 0x40 MLOAD PUSH1 0x20 DUP2 DUP4 SUB SUB DUP2 MSTORE SWAP1 PUSH1 0x40 MSTORE PUSH32 0xC298557800000000000000000000000000000000000000000000000000000000 PUSH28 0xFFFFFFFFFFFFFFFFFFFFFFFFFFFFFFFFFFFFFFFFFFFFFFFFFFFFFFFF NOT AND PUSH1 0x20 DUP3 ADD DUP1 MLOAD PUSH28 0xFFFFFFFFFFFFFFFFFFFFFFFFFFFFFFFFFFFFFFFFFFFFFFFFFFFFFFFF DUP4 DUP2 DUP4 AND OR DUP4 MSTORE POP POP POP POP PUSH1 0x3 SWAP1 DUP2 PUSH3 0x14B SWAP2 SWAP1 PUSH3 0x50B JUMP JUMPDEST POP PUSH1 0x5 PUSH1 0x40 MLOAD PUSH1 0x24 ADD PUSH3 0x160 SWAP2 SWAP1 PUSH3 0x642 JUMP JUMPDEST PUSH1 0x40 MLOAD PUSH1 0x20 DUP2 DUP4 SUB SUB DUP2 MSTORE SWAP1 PUSH1 0x40 MSTORE PUSH32 0x65D42DCE00000000000000000000000000000000000000000000000000000000 PUSH28 0xFFFFFFFFFFFFFFFFFFFFFFFFFFFFFFFFFFFFFFFFFFFFFFFFFFFFFFFF NOT AND PUSH1 0x20 DUP3 ADD DUP1 MLOAD PUSH28 0xFFFFFFFFFFFFFFFFFFFFFFFFFFFFFFFFFFFFFFFFFFFFFFFFFFFFFFFF DUP4 DUP2 DUP4 AND OR DUP4 MSTORE POP POP POP POP PUSH1 0x4 SWAP1 DUP2 PUSH3 0x1ED SWAP2 SWAP1 PUSH3 0x50B JUMP JUMPDEST POP POP PUSH3 0x65F JUMP JUMPDEST PUSH1 0x0 DUP1 REVERT JUMPDEST PUSH1 0x0 PUSH20 0xFFFFFFFFFFFFFFFFFFFFFFFFFFFFFFFFFFFFFFFF DUP3 AND SWAP1 POP SWAP2 SWAP1 POP JUMP JUMPDEST PUSH1 0x0 PUSH3 0x227 DUP3 PUSH3 0x1FA JUMP JUMPDEST SWAP1 POP SWAP2 SWAP1 POP JUMP JUMPDEST PUSH3 0x239 DUP2 PUSH3 0x21A JUMP JUMPDEST DUP2 EQ PUSH3 0x245 JUMPI PUSH1 0x0 DUP1 REVERT JUMPDEST POP JUMP JUMPDEST PUSH1 0x0 DUP2 MLOAD SWAP1 POP PUSH3 0x259 DUP2 PUSH3 0x22E JUMP JUMPDEST SWAP3 SWAP2 POP POP JUMP JUMPDEST PUSH1 0x0 PUSH1 0x20 DUP3 DUP5 SUB SLT ISZERO PUSH3 0x278 JUMPI PUSH3 0x277 PUSH3 0x1F5 JUMP JUMPDEST JUMPDEST PUSH1 0x0 PUSH3 0x288 DUP5 DUP3 DUP6 ADD PUSH3 0x248 JUMP JUMPDEST SWAP2 POP POP SWAP3 SWAP2 POP POP JUMP JUMPDEST PUSH1 0x0 DUP2 MLOAD SWAP1 POP SWAP2 SWAP1 POP JUMP JUMPDEST PUSH32 0x4E487B7100000000000000000000000000000000000000000000000000000000 PUSH1 0x0 MSTORE PUSH1 0x41 PUSH1 0x4 MSTORE PUSH1 0x24 PUSH1 0x0 REVERT JUMPDEST PUSH32 0x4E487B7100000000000000000000000000000000000000000000000000000000 PUSH1 0x0 MSTORE PUSH1 0x22 PUSH1 0x4 MSTORE PUSH1 0x24 PUSH1 0x0 REVERT JUMPDEST PUSH1 0x0 PUSH1 0x2 DUP3 DIV SWAP1 POP PUSH1 0x1 DUP3 AND DUP1 PUSH3 0x313 JUMPI PUSH1 0x7F DUP3 AND SWAP2 POP JUMPDEST PUSH1 0x20 DUP3 LT DUP2 SUB PUSH3 0x329 JUMPI PUSH3 0x328 PUSH3 0x2CB JUMP JUMPDEST JUMPDEST POP SWAP2 SWAP1 POP JUMP JUMPDEST PUSH1 0x0 DUP2 SWAP1 POP DUP2 PUSH1 0x0 MSTORE PUSH1 0x20 PUSH1 0x0 KECCAK256 SWAP1 POP SWAP2 SWAP1 POP JUMP JUMPDEST PUSH1 0x0 PUSH1 0x20 PUSH1 0x1F DUP4 ADD DIV SWAP1 POP SWAP2 SWAP1 POP JUMP JUMPDEST PUSH1 0x0 DUP3 DUP3 SHL SWAP1 POP SWAP3 SWAP2 POP POP JUMP JUMPDEST PUSH1 0x0 PUSH1 0x8 DUP4 MUL PUSH3 0x393 PUSH32 0xFFFFFFFFFFFFFFFFFFFFFFFFFFFFFFFFFFFFFFFFFFFFFFFFFFFFFFFFFFFFFFFF DUP3 PUSH3 0x354 JUMP JUMPDEST PUSH3 0x39F DUP7 DUP4 PUSH3 0x354 JUMP JUMPDEST SWAP6 POP DUP1 NOT DUP5 AND SWAP4 POP DUP1 DUP7 AND DUP5 OR SWAP3 POP POP POP SWAP4 SWAP3 POP POP POP JUMP JUMPDEST PUSH1 0x0 DUP2 SWAP1 POP SWAP2 SWAP1 POP JUMP JUMPDEST PUSH1 0x0 DUP2 SWAP1 POP SWAP2 SWAP1 POP JUMP JUMPDEST PUSH1 0x0 PUSH3 0x3EC PUSH3 0x3E6 PUSH3 0x3E0 DUP5 PUSH3 0x3B7 JUMP JUMPDEST PUSH3 0x3C1 JUMP JUMPDEST PUSH3 0x3B7 JUMP JUMPDEST SWAP1 POP SWAP2 SWAP1 POP JUMP JUMPDEST PUSH1 0x0 DUP2 SWAP1 POP SWAP2 SWAP1 POP JUMP JUMPDEST PUSH3 0x408 DUP4 PUSH3 0x3CB JUMP JUMPDEST PUSH3 0x420 PUSH3 0x417 DUP3 PUSH3 0x3F3 JUMP JUMPDEST DUP5 DUP5 SLOAD PUSH3 0x361 JUMP JUMPDEST DUP3 SSTORE POP POP POP POP JUMP JUMPDEST PUSH1 0x0 SWAP1 JUMP JUMPDEST PUSH3 0x437 PUSH3 0x428 JUMP JUMPDEST PUSH3 0x444 DUP2 DUP5 DUP5 PUSH3 0x3FD JUMP JUMPDEST POP POP POP JUMP JUMPDEST JUMPDEST DUP2 DUP2 LT ISZERO PUSH3 0x46C JUMPI PUSH3 0x460 PUSH1 0x0 DUP3 PUSH3 0x42D JUMP JUMPDEST PUSH1 0x1 DUP2 ADD SWAP1 POP PUSH3 0x44A JUMP JUMPDEST POP POP JUMP JUMPDEST PUSH1 0x1F DUP3 GT ISZERO PUSH3 0x4BB JUMPI PUSH3 0x485 DUP2 PUSH3 0x32F JUMP JUMPDEST PUSH3 0x490 DUP5 PUSH3 0x344 JUMP JUMPDEST DUP2 ADD PUSH1 0x20 DUP6 LT ISZERO PUSH3 0x4A0 JUMPI DUP2 SWAP1 POP JUMPDEST PUSH3 0x4B8 PUSH3 0x4AF DUP6 PUSH3 0x344 JUMP JUMPDEST DUP4 ADD DUP3 PUSH3 0x449 JUMP JUMPDEST POP POP JUMPDEST POP POP POP JUMP JUMPDEST PUSH1 0x0 DUP3 DUP3 SHR SWAP1 POP SWAP3 SWAP2 POP POP JUMP JUMPDEST PUSH1 0x0 PUSH3 0x4E0 PUSH1 0x0 NOT DUP5 PUSH1 0x8 MUL PUSH3 0x4C0 JUMP JUMPDEST NOT DUP1 DUP4 AND SWAP2 POP POP SWAP3 SWAP2 POP POP JUMP JUMPDEST PUSH1 0x0 PUSH3 0x4FB DUP4 DUP4 PUSH3 0x4CD JUMP JUMPDEST SWAP2 POP DUP3 PUSH1 0x2 MUL DUP3 OR SWAP1 POP SWAP3 SWAP2 POP POP JUMP JUMPDEST PUSH3 0x516 DUP3 PUSH3 0x291 JUMP JUMPDEST PUSH8 0xFFFFFFFFFFFFFFFF DUP2 GT ISZERO PUSH3 0x532 JUMPI PUSH3 0x531 PUSH3 0x29C JUMP JUMPDEST JUMPDEST PUSH3 0x53E DUP3 SLOAD PUSH3 0x2FA JUMP JUMPDEST PUSH3 0x54B DUP3 DUP3 DUP6 PUSH3 0x470 JUMP JUMPDEST PUSH1 0x0 PUSH1 0x20 SWAP1 POP PUSH1 0x1F DUP4 GT PUSH1 0x1 DUP2 EQ PUSH3 0x583 JUMPI PUSH1 0x0 DUP5 ISZERO PUSH3 0x56E JUMPI DUP3 DUP8 ADD MLOAD SWAP1 POP JUMPDEST PUSH3 0x57A DUP6 DUP3 PUSH3 0x4ED JUMP JUMPDEST DUP7 SSTORE POP PUSH3 0x5EA JUMP JUMPDEST PUSH1 0x1F NOT DUP5 AND PUSH3 0x593 DUP7 PUSH3 0x32F JUMP JUMPDEST PUSH1 0x0 JUMPDEST DUP3 DUP2 LT ISZERO PUSH3 0x5BD JUMPI DUP5 DUP10 ADD MLOAD DUP3 SSTORE PUSH1 0x1 DUP3 ADD SWAP2 POP PUSH1 0x20 DUP6 ADD SWAP5 POP PUSH1 0x20 DUP2 ADD SWAP1 POP PUSH3 0x596 JUMP JUMPDEST DUP7 DUP4 LT ISZERO PUSH3 0x5DD JUMPI DUP5 DUP10 ADD MLOAD PUSH3 0x5D9 PUSH1 0x1F DUP10 AND DUP3 PUSH3 0x4CD JUMP JUMPDEST DUP4 SSTORE POP JUMPDEST PUSH1 0x1 PUSH1 0x2 DUP9 MUL ADD DUP9 SSTORE POP POP POP JUMPDEST POP POP POP POP POP POP JUMP JUMPDEST PUSH1 0x0 DUP2 SWAP1 POP SWAP2 SWAP1 POP JUMP JUMPDEST PUSH1 0x0 PUSH1 0xFF DUP3 AND SWAP1 POP SWAP2 SWAP1 POP JUMP JUMPDEST PUSH1 0x0 PUSH3 0x62A PUSH3 0x624 PUSH3 0x61E DUP5 PUSH3 0x5F2 JUMP JUMPDEST PUSH3 0x3C1 JUMP JUMPDEST PUSH3 0x5FC JUMP JUMPDEST SWAP1 POP SWAP2 SWAP1 POP JUMP JUMPDEST PUSH3 0x63C DUP2 PUSH3 0x609 JUMP JUMPDEST DUP3 MSTORE POP POP JUMP JUMPDEST PUSH1 0x0 PUSH1 0x20 DUP3 ADD SWAP1 POP PUSH3 0x659 PUSH1 0x0 DUP4 ADD DUP5 PUSH3 0x631 JUMP JUMPDEST SWAP3 SWAP2 POP POP JUMP JUMPDEST PUSH2 0x7A3 DUP1 PUSH3 0x66F PUSH1 0x0 CODECOPY PUSH1 0x0 RETURN INVALID PUSH1 0x80 PUSH1 0x40 MSTORE PUSH1 0x4 CALLDATASIZE LT PUSH2 0x59 JUMPI PUSH1 0x0 CALLDATALOAD PUSH1 0xE0 SHR DUP1 PUSH4 0x900F010 EQ PUSH2 0x141 JUMPI DUP1 PUSH4 0x5C60DA1B EQ PUSH2 0x16A JUMPI DUP1 PUSH4 0xC4F51613 EQ PUSH2 0x195 JUMPI DUP1 PUSH4 0xEA3D508A EQ PUSH2 0x1C0 JUMPI DUP1 PUSH4 0xF2C31BD9 EQ PUSH2 0x1EB JUMPI DUP1 PUSH4 0xF851A440 EQ PUSH2 0x216 JUMPI PUSH2 0x5A JUMP JUMPDEST JUMPDEST PUSH1 0x1 PUSH1 0x0 SWAP1 SLOAD SWAP1 PUSH2 0x100 EXP SWAP1 DIV PUSH20 0xFFFFFFFFFFFFFFFFFFFFFFFFFFFFFFFFFFFFFFFF AND PUSH20 0xFFFFFFFFFFFFFFFFFFFFFFFFFFFFFFFFFFFFFFFF AND CALLER PUSH20 0xFFFFFFFFFFFFFFFFFFFFFFFFFFFFFFFFFFFFFFFF AND SUB PUSH2 0xB4 JUMPI PUSH1 0x0 DUP1 REVERT JUMPDEST PUSH1 0x0 DUP1 PUSH1 0x0 DUP1 SLOAD SWAP1 PUSH2 0x100 EXP SWAP1 DIV PUSH20 0xFFFFFFFFFFFFFFFFFFFFFFFFFFFFFFFFFFFFFFFF AND PUSH20 0xFFFFFFFFFFFFFFFFFFFFFFFFFFFFFFFFFFFFFFFF AND PUSH1 0x0 CALLDATASIZE PUSH1 0x40 MLOAD PUSH2 0xFF SWAP3 SWAP2 SWAP1 PUSH2 0x511 JUMP JUMPDEST PUSH1 0x0 PUSH1 0x40 MLOAD DUP1 DUP4 SUB DUP2 DUP6 GAS DELEGATECALL SWAP2 POP POP RETURNDATASIZE DUP1 PUSH1 0x0 DUP2 EQ PUSH2 0x13A JUMPI PUSH1 0x40 MLOAD SWAP2 POP PUSH1 0x1F NOT PUSH1 0x3F RETURNDATASIZE ADD AND DUP3 ADD PUSH1 0x40 MSTORE RETURNDATASIZE DUP3 MSTORE RETURNDATASIZE PUSH1 0x0 PUSH1 0x20 DUP5 ADD RETURNDATACOPY PUSH2 0x13F JUMP JUMPDEST PUSH1 0x60 SWAP2 POP JUMPDEST STOP JUMPDEST CALLVALUE DUP1 ISZERO PUSH2 0x14D JUMPI PUSH1 0x0 DUP1 REVERT JUMPDEST POP PUSH2 0x168 PUSH1 0x4 DUP1 CALLDATASIZE SUB DUP2 ADD SWAP1 PUSH2 0x163 SWAP2 SWAP1 PUSH2 0x58D JUMP JUMPDEST PUSH2 0x241 JUMP JUMPDEST STOP JUMPDEST CALLVALUE DUP1 ISZERO PUSH2 0x176 JUMPI PUSH1 0x0 DUP1 REVERT JUMPDEST POP PUSH2 0x17F PUSH2 0x2DE JUMP JUMPDEST PUSH1 0x40 MLOAD PUSH2 0x18C SWAP2 SWAP1 PUSH2 0x5C9 JUMP JUMPDEST PUSH1 0x40 MLOAD DUP1 SWAP2 SUB SWAP1 RETURN JUMPDEST CALLVALUE DUP1 ISZERO PUSH2 0x1A1 JUMPI PUSH1 0x0 DUP1 REVERT JUMPDEST POP PUSH2 0x1AA PUSH2 0x302 JUMP JUMPDEST PUSH1 0x40 MLOAD PUSH2 0x1B7 SWAP2 SWAP1 PUSH2 0x674 JUMP JUMPDEST PUSH1 0x40 MLOAD DUP1 SWAP2 SUB SWAP1 RETURN JUMPDEST CALLVALUE DUP1 ISZERO PUSH2 0x1CC JUMPI PUSH1 0x0 DUP1 REVERT JUMPDEST POP PUSH2 0x1D5 PUSH2 0x390 JUMP JUMPDEST PUSH1 0x40 MLOAD PUSH2 0x1E2 SWAP2 SWAP1 PUSH2 0x674 JUMP JUMPDEST PUSH1 0x40 MLOAD DUP1 SWAP2 SUB SWAP1 RETURN JUMPDEST CALLVALUE DUP1 ISZERO PUSH2 0x1F7 JUMPI PUSH1 0x0 DUP1 REVERT JUMPDEST POP PUSH2 0x200 PUSH2 0x41E JUMP JUMPDEST PUSH1 0x40 MLOAD PUSH2 0x20D SWAP2 SWAP1 PUSH2 0x6EB JUMP JUMPDEST PUSH1 0x40 MLOAD DUP1 SWAP2 SUB SWAP1 RETURN JUMPDEST CALLVALUE DUP1 ISZERO PUSH2 0x222 JUMPI PUSH1 0x0 DUP1 REVERT JUMPDEST POP PUSH2 0x22B PUSH2 0x4AC JUMP JUMPDEST PUSH1 0x40 MLOAD PUSH2 0x238 SWAP2 SWAP1 PUSH2 0x5C9 JUMP JUMPDEST PUSH1 0x40 MLOAD DUP1 SWAP2 SUB SWAP1 RETURN JUMPDEST PUSH1 0x1 PUSH1 0x0 SWAP1 SLOAD SWAP1 PUSH2 0x100 EXP SWAP1 DIV PUSH20 0xFFFFFFFFFFFFFFFFFFFFFFFFFFFFFFFFFFFFFFFF AND PUSH20 0xFFFFFFFFFFFFFFFFFFFFFFFFFFFFFFFFFFFFFFFF AND CALLER PUSH20 0xFFFFFFFFFFFFFFFFFFFFFFFFFFFFFFFFFFFFFFFF AND EQ PUSH2 0x29B JUMPI PUSH1 0x0 DUP1 REVERT JUMPDEST DUP1 PUSH1 0x0 DUP1 PUSH2 0x100 EXP DUP2 SLOAD DUP2 PUSH20 0xFFFFFFFFFFFFFFFFFFFFFFFFFFFFFFFFFFFFFFFF MUL NOT AND SWAP1 DUP4 PUSH20 0xFFFFFFFFFFFFFFFFFFFFFFFFFFFFFFFFFFFFFFFF AND MUL OR SWAP1 SSTORE POP POP JUMP JUMPDEST PUSH1 0x0 DUP1 SLOAD SWAP1 PUSH2 0x100 EXP SWAP1 DIV PUSH20 0xFFFFFFFFFFFFFFFFFFFFFFFFFFFFFFFFFFFFFFFF AND DUP2 JUMP JUMPDEST PUSH1 0x4 DUP1 SLOAD PUSH2 0x30F SWAP1 PUSH2 0x73C JUMP JUMPDEST DUP1 PUSH1 0x1F ADD PUSH1 0x20 DUP1 SWAP2 DIV MUL PUSH1 0x20 ADD PUSH1 0x40 MLOAD SWAP1 DUP2 ADD PUSH1 0x40 MSTORE DUP1 SWAP3 SWAP2 SWAP1 DUP2 DUP2 MSTORE PUSH1 0x20 ADD DUP3 DUP1 SLOAD PUSH2 0x33B SWAP1 PUSH2 0x73C JUMP JUMPDEST DUP1 ISZERO PUSH2 0x388 JUMPI DUP1 PUSH1 0x1F LT PUSH2 0x35D JUMPI PUSH2 0x100 DUP1 DUP4 SLOAD DIV MUL DUP4 MSTORE SWAP2 PUSH1 0x20 ADD SWAP2 PUSH2 0x388 JUMP JUMPDEST DUP3 ADD SWAP2 SWAP1 PUSH1 0x0 MSTORE PUSH1 0x20 PUSH1 0x0 KECCAK256 SWAP1 JUMPDEST DUP2 SLOAD DUP2 MSTORE SWAP1 PUSH1 0x1 ADD SWAP1 PUSH1 0x20 ADD DUP1 DUP4 GT PUSH2 0x36B JUMPI DUP3 SWAP1 SUB PUSH1 0x1F AND DUP3 ADD SWAP2 JUMPDEST POP POP POP POP POP DUP2 JUMP JUMPDEST PUSH1 0x3 DUP1 SLOAD PUSH2 0x39D SWAP1 PUSH2 0x73C JUMP JUMPDEST DUP1 PUSH1 0x1F ADD PUSH1 0x20 DUP1 SWAP2 DIV MUL PUSH1 0x20 ADD PUSH1 0x40 MLOAD SWAP1 DUP2 ADD PUSH1 0x40 MSTORE DUP1 SWAP3 SWAP2 SWAP1 DUP2 DUP2 MSTORE PUSH1 0x20 ADD DUP3 DUP1 SLOAD PUSH2 0x3C9 SWAP1 PUSH2 0x73C JUMP JUMPDEST DUP1 ISZERO PUSH2 0x416 JUMPI DUP1 PUSH1 0x1F LT PUSH2 0x3EB JUMPI PUSH2 0x100 DUP1 DUP4 SLOAD DIV MUL DUP4 MSTORE SWAP2 PUSH1 0x20 ADD SWAP2 PUSH2 0x416 JUMP JUMPDEST DUP3 ADD SWAP2 SWAP1 PUSH1 0x0 MSTORE PUSH1 0x20 PUSH1 0x0 KECCAK256 SWAP1 JUMPDEST DUP2 SLOAD DUP2 MSTORE SWAP1 PUSH1 0x1 ADD SWAP1 PUSH1 0x20 ADD DUP1 DUP4 GT PUSH2 0x3F9 JUMPI DUP3 SWAP1 SUB PUSH1 0x1F AND DUP3 ADD SWAP2 JUMPDEST POP POP POP POP POP DUP2 JUMP JUMPDEST PUSH1 0x2 DUP1 SLOAD PUSH2 0x42B SWAP1 PUSH2 0x73C JUMP JUMPDEST DUP1 PUSH1 0x1F ADD PUSH1 0x20 DUP1 SWAP2 DIV MUL PUSH1 0x20 ADD PUSH1 0x40 MLOAD SWAP1 DUP2 ADD PUSH1 0x40 MSTORE DUP1 SWAP3 SWAP2 SWAP1 DUP2 DUP2 MSTORE PUSH1 0x20 ADD DUP3 DUP1 SLOAD PUSH2 0x457 SWAP1 PUSH2 0x73C JUMP JUMPDEST DUP1 ISZERO PUSH2 0x4A4 JUMPI DUP1 PUSH1 0x1F LT PUSH2 0x479 JUMPI PUSH2 0x100 DUP1 DUP4 SLOAD DIV MUL DUP4 MSTORE SWAP2 PUSH1 0x20 ADD SWAP2 PUSH2 0x4A4 JUMP JUMPDEST DUP3 ADD SWAP2 SWAP1 PUSH1 0x0 MSTORE PUSH1 0x20 PUSH1 0x0 KECCAK256 SWAP1 JUMPDEST DUP2 SLOAD DUP2 MSTORE SWAP1 PUSH1 0x1 ADD SWAP1 PUSH1 0x20 ADD DUP1 DUP4 GT PUSH2 0x487 JUMPI DUP3 SWAP1 SUB PUSH1 0x1F AND DUP3 ADD SWAP2 JUMPDEST POP POP POP POP POP DUP2 JUMP JUMPDEST PUSH1 0x1 PUSH1 0x0 SWAP1 SLOAD SWAP1 PUSH2 0x100 EXP SWAP1 DIV PUSH20 0xFFFFFFFFFFFFFFFFFFFFFFFFFFFFFFFFFFFFFFFF AND DUP2 JUMP JUMPDEST PUSH1 0x0 DUP2 SWAP1 POP SWAP3 SWAP2 POP POP JUMP JUMPDEST DUP3 DUP2 DUP4 CALLDATACOPY PUSH1 0x0 DUP4 DUP4 ADD MSTORE POP POP POP JUMP JUMPDEST PUSH1 0x0 PUSH2 0x4F8 DUP4 DUP6 PUSH2 0x4D2 JUMP JUMPDEST SWAP4 POP PUSH2 0x505 DUP4 DUP6 DUP5 PUSH2 0x4DD JUMP JUMPDEST DUP3 DUP5 ADD SWAP1 POP SWAP4 SWAP3 POP POP POP JUMP JUMPDEST PUSH1 0x0 PUSH2 0x51E DUP3 DUP5 DUP7 PUSH2 0x4EC JUMP JUMPDEST SWAP2 POP DUP2 SWAP1 POP SWAP4 SWAP3 POP POP POP JUMP JUMPDEST PUSH1 0x0 DUP1 REVERT JUMPDEST PUSH1 0x0 PUSH20 0xFFFFFFFFFFFFFFFFFFFFFFFFFFFFFFFFFFFFFFFF DUP3 AND SWAP1 POP SWAP2 SWAP1 POP JUMP JUMPDEST PUSH1 0x0 PUSH2 0x55A DUP3 PUSH2 0x52F JUMP JUMPDEST SWAP1 POP SWAP2 SWAP1 POP JUMP JUMPDEST PUSH2 0x56A DUP2 PUSH2 0x54F JUMP JUMPDEST DUP2 EQ PUSH2 0x575 JUMPI PUSH1 0x0 DUP1 REVERT JUMPDEST POP JUMP JUMPDEST PUSH1 0x0 DUP2 CALLDATALOAD SWAP1 POP PUSH2 0x587 DUP2 PUSH2 0x561 JUMP JUMPDEST SWAP3 SWAP2 POP POP JUMP JUMPDEST PUSH1 0x0 PUSH1 0x20 DUP3 DUP5 SUB SLT ISZERO PUSH2 0x5A3 JUMPI PUSH2 0x5A2 PUSH2 0x52A JUMP JUMPDEST JUMPDEST PUSH1 0x0 PUSH2 0x5B1 DUP5 DUP3 DUP6 ADD PUSH2 0x578 JUMP JUMPDEST SWAP2 POP POP SWAP3 SWAP2 POP POP JUMP JUMPDEST PUSH2 0x5C3 DUP2 PUSH2 0x54F JUMP JUMPDEST DUP3 MSTORE POP POP JUMP JUMPDEST PUSH1 0x0 PUSH1 0x20 DUP3 ADD SWAP1 POP PUSH2 0x5DE PUSH1 0x0 DUP4 ADD DUP5 PUSH2 0x5BA JUMP JUMPDEST SWAP3 SWAP2 POP POP JUMP JUMPDEST PUSH1 0x0 DUP2 MLOAD SWAP1 POP SWAP2 SWAP1 POP JUMP JUMPDEST PUSH1 0x0 DUP3 DUP3 MSTORE PUSH1 0x20 DUP3 ADD SWAP1 POP SWAP3 SWAP2 POP POP JUMP JUMPDEST PUSH1 0x0 JUMPDEST DUP4 DUP2 LT ISZERO PUSH2 0x61E JUMPI DUP1 DUP3 ADD MLOAD DUP2 DUP5 ADD MSTORE PUSH1 0x20 DUP2 ADD SWAP1 POP PUSH2 0x603 JUMP JUMPDEST PUSH1 0x0 DUP5 DUP5 ADD MSTORE POP POP POP POP JUMP JUMPDEST PUSH1 0x0 PUSH1 0x1F NOT PUSH1 0x1F DUP4 ADD AND SWAP1 POP SWAP2 SWAP1 POP JUMP JUMPDEST PUSH1 0x0 PUSH2 0x646 DUP3 PUSH2 0x5E4 JUMP JUMPDEST PUSH2 0x650 DUP2 DUP6 PUSH2 0x5EF JUMP JUMPDEST SWAP4 POP PUSH2 0x660 DUP2 DUP6 PUSH1 0x20 DUP7 ADD PUSH2 0x600 JUMP JUMPDEST PUSH2 0x669 DUP2 PUSH2 0x62A JUMP JUMPDEST DUP5 ADD SWAP2 POP POP SWAP3 SWAP2 POP POP JUMP JUMPDEST PUSH1 0x0 PUSH1 0x20 DUP3 ADD SWAP1 POP DUP2 DUP2 SUB PUSH1 0x0 DUP4 ADD MSTORE PUSH2 0x68E DUP2 DUP5 PUSH2 0x63B JUMP JUMPDEST SWAP1 POP SWAP3 SWAP2 POP POP JUMP JUMPDEST PUSH1 0x0 DUP2 MLOAD SWAP1 POP SWAP2 SWAP1 POP JUMP JUMPDEST PUSH1 0x0 DUP3 DUP3 MSTORE PUSH1 0x20 DUP3 ADD SWAP1 POP SWAP3 SWAP2 POP POP JUMP JUMPDEST PUSH1 0x0 PUSH2 0x6BD DUP3 PUSH2 0x696 JUMP JUMPDEST PUSH2 0x6C7 DUP2 DUP6 PUSH2 0x6A1 JUMP JUMPDEST SWAP4 POP PUSH2 0x6D7 DUP2 DUP6 PUSH1 0x20 DUP7 ADD PUSH2 0x600 JUMP JUMPDEST PUSH2 0x6E0 DUP2 PUSH2 0x62A JUMP JUMPDEST DUP5 ADD SWAP2 POP POP SWAP3 SWAP2 POP POP JUMP JUMPDEST PUSH1 0x0 PUSH1 0x20 DUP3 ADD SWAP1 POP DUP2 DUP2 SUB PUSH1 0x0 DUP4 ADD MSTORE PUSH2 0x705 DUP2 DUP5 PUSH2 0x6B2 JUMP JUMPDEST SWAP1 POP SWAP3 SWAP2 POP POP JUMP JUMPDEST PUSH32 0x4E487B7100000000000000000000000000000000000000000000000000000000 PUSH1 0x0 MSTORE PUSH1 0x22 PUSH1 0x4 MSTORE PUSH1 0x24 PUSH1 0x0 REVERT JUMPDEST PUSH1 0x0 PUSH1 0x2 DUP3 DIV SWAP1 POP PUSH1 0x1 DUP3 AND DUP1 PUSH2 0x754 JUMPI PUSH1 0x7F DUP3 AND SWAP2 POP JUMPDEST PUSH1 0x20 DUP3 LT DUP2 SUB PUSH2 0x767 JUMPI PUSH2 0x766 PUSH2 0x70D JUMP JUMPDEST JUMPDEST POP SWAP2 SWAP1 POP JUMP INVALID LOG2 PUSH5 0x6970667358 0x22 SLT KECCAK256 0x26 0xDE PUSH27 0x2C155C56C6A6E25ABA001DF21CCA5106DA7749778CFD9F751088D4 0xBA LOG1 PUSH5 0x736F6C6343 STOP ADDMOD SGT STOP CALLER "
				},
				"gasEstimates": {
					"creation": {
						"codeDepositCost": "391000",
						"executionCost": "infinite",
						"totalCost": "infinite"
					},
					"external": {
						"": "infinite",
						"admin()": "2602",
						"implementation()": "2511",
						"selector()": "infinite",
						"selector5()": "infinite",
						"upgrade(address)": "26870",
						"words()": "infinite"
					}
				},
				"methodIdentifiers": {
					"admin()": "f851a440",
					"implementation()": "5c60da1b",
					"selector()": "ea3d508a",
					"selector5()": "c4f51613",
					"upgrade(address)": "0900f010",
					"words()": "f2c31bd9"
				}
			},
			"storageLayout": {
				"storage": [
					{
						"astId": 26,
						"contract": "contracts/DaiLi/TransparentProxy.sol:TransparentProxy",
						"label": "implementation",
						"offset": 0,
						"slot": "0",
						"type": "t_address"
					},
					{
						"astId": 28,
						"contract": "contracts/DaiLi/TransparentProxy.sol:TransparentProxy",
						"label": "admin",
						"offset": 0,
						"slot": "1",
						"type": "t_address"
					},
					{
						"astId": 30,
						"contract": "contracts/DaiLi/TransparentProxy.sol:TransparentProxy",
						"label": "words",
						"offset": 0,
						"slot": "2",
						"type": "t_string_storage"
					},
					{
						"astId": 32,
						"contract": "contracts/DaiLi/TransparentProxy.sol:TransparentProxy",
						"label": "selector",
						"offset": 0,
						"slot": "3",
						"type": "t_bytes_storage"
					},
					{
						"astId": 34,
						"contract": "contracts/DaiLi/TransparentProxy.sol:TransparentProxy",
						"label": "selector5",
						"offset": 0,
						"slot": "4",
						"type": "t_bytes_storage"
					}
				],
				"types": {
					"t_address": {
						"encoding": "inplace",
						"label": "address",
						"numberOfBytes": "20"
					},
					"t_bytes_storage": {
						"encoding": "bytes",
						"label": "bytes",
						"numberOfBytes": "32"
					},
					"t_string_storage": {
						"encoding": "bytes",
						"label": "string",
						"numberOfBytes": "32"
					}
				}
			},
			"userdoc": {
				"kind": "user",
				"methods": {},
				"version": 1
			}
		}
	}
}