{
	"contracts/DaiLi/updata.sol": {
		"UUPS1": {
			"abi": [
				{
					"inputs": [],
					"name": "admin",
					"outputs": [
						{
							"internalType": "address",
							"name": "",
							"type": "address"
						}
					],
					"stateMutability": "view",
					"type": "function"
				},
				{
					"inputs": [],
					"name": "foo",
					"outputs": [],
					"stateMutability": "nonpayable",
					"type": "function"
				},
				{
					"inputs": [],
					"name": "implementation",
					"outputs": [
						{
							"internalType": "address",
							"name": "",
							"type": "address"
						}
					],
					"stateMutability": "view",
					"type": "function"
				},
				{
					"inputs": [
						{
							"internalType": "address",
							"name": "newImplementation",
							"type": "address"
						}
					],
					"name": "upgrade",
					"outputs": [],
					"stateMutability": "nonpayable",
					"type": "function"
				},
				{
					"inputs": [],
					"name": "words",
					"outputs": [
						{
							"internalType": "string",
							"name": "",
							"type": "string"
						}
					],
					"stateMutability": "view",
					"type": "function"
				}
			],
			"devdoc": {
				"kind": "dev",
				"methods": {},
				"version": 1
			},
			"evm": {
				"assembly": "    /* \"contracts/DaiLi/updata.sol\":1014:1702  contract UUPS1{... */\n  mstore(0x40, 0x80)\n  callvalue\n  dup1\n  iszero\n  tag_1\n  jumpi\n  0x00\n  dup1\n  revert\ntag_1:\n  pop\n  dataSize(sub_0)\n  dup1\n  dataOffset(sub_0)\n  0x00\n  codecopy\n  0x00\n  return\nstop\n\nsub_0: assembly {\n        /* \"contracts/DaiLi/updata.sol\":1014:1702  contract UUPS1{... */\n      mstore(0x40, 0x80)\n      callvalue\n      dup1\n      iszero\n      tag_1\n      jumpi\n      0x00\n      dup1\n      revert\n    tag_1:\n      pop\n      jumpi(tag_2, lt(calldatasize, 0x04))\n      shr(0xe0, calldataload(0x00))\n      dup1\n      0x0900f010\n      eq\n      tag_3\n      jumpi\n      dup1\n      0x5c60da1b\n      eq\n      tag_4\n      jumpi\n      dup1\n      0xc2985578\n      eq\n      tag_5\n      jumpi\n      dup1\n      0xf2c31bd9\n      eq\n      tag_6\n      jumpi\n      dup1\n      0xf851a440\n      eq\n      tag_7\n      jumpi\n    tag_2:\n      0x00\n      dup1\n      revert\n        /* \"contracts/DaiLi/updata.sol\":1554:1699  function upgrade(address newImplementation) external {... */\n    tag_3:\n      tag_8\n      0x04\n      dup1\n      calldatasize\n      sub\n      dup2\n      add\n      swap1\n      tag_9\n      swap2\n      swap1\n      tag_10\n      jump\t// in\n    tag_9:\n      tag_11\n      jump\t// in\n    tag_8:\n      stop\n        /* \"contracts/DaiLi/updata.sol\":1097:1126  address public implementation */\n    tag_4:\n      tag_12\n      tag_13\n      jump\t// in\n    tag_12:\n      mload(0x40)\n      tag_14\n      swap2\n      swap1\n      tag_15\n      jump\t// in\n    tag_14:\n      mload(0x40)\n      dup1\n      swap2\n      sub\n      swap1\n      return\n        /* \"contracts/DaiLi/updata.sol\":1306:1359  function foo() public{... */\n    tag_5:\n      tag_16\n      tag_17\n      jump\t// in\n    tag_16:\n      stop\n        /* \"contracts/DaiLi/updata.sol\":1162:1181  string public words */\n    tag_6:\n      tag_18\n      tag_19\n      jump\t// in\n    tag_18:\n      mload(0x40)\n      tag_20\n      swap2\n      swap1\n      tag_21\n      jump\t// in\n    tag_20:\n      mload(0x40)\n      dup1\n      swap2\n      sub\n      swap1\n      return\n        /* \"contracts/DaiLi/updata.sol\":1134:1154  address public admin */\n    tag_7:\n      tag_22\n      tag_23\n      jump\t// in\n    tag_22:\n      mload(0x40)\n      tag_24\n      swap2\n      swap1\n      tag_15\n      jump\t// in\n    tag_24:\n      mload(0x40)\n      dup1\n      swap2\n      sub\n      swap1\n      return\n        /* \"contracts/DaiLi/updata.sol\":1554:1699  function upgrade(address newImplementation) external {... */\n    tag_11:\n        /* \"contracts/DaiLi/updata.sol\":1640:1645  admin */\n      0x01\n      0x00\n      swap1\n      sload\n      swap1\n      0x0100\n      exp\n      swap1\n      div\n      0xffffffffffffffffffffffffffffffffffffffff\n      and\n        /* \"contracts/DaiLi/updata.sol\":1626:1645  msg.sender == admin */\n      0xffffffffffffffffffffffffffffffffffffffff\n      and\n        /* \"contracts/DaiLi/updata.sol\":1626:1636  msg.sender */\n      caller\n        /* \"contracts/DaiLi/updata.sol\":1626:1645  msg.sender == admin */\n      0xffffffffffffffffffffffffffffffffffffffff\n      and\n      eq\n        /* \"contracts/DaiLi/updata.sol\":1618:1646  require(msg.sender == admin) */\n      tag_26\n      jumpi\n      0x00\n      dup1\n      revert\n    tag_26:\n        /* \"contracts/DaiLi/updata.sol\":1674:1691  newImplementation */\n      dup1\n        /* \"contracts/DaiLi/updata.sol\":1657:1671  implementation */\n      0x00\n      dup1\n        /* \"contracts/DaiLi/updata.sol\":1657:1691  implementation = newImplementation */\n      0x0100\n      exp\n      dup2\n      sload\n      dup2\n      0xffffffffffffffffffffffffffffffffffffffff\n      mul\n      not\n      and\n      swap1\n      dup4\n      0xffffffffffffffffffffffffffffffffffffffff\n      and\n      mul\n      or\n      swap1\n      sstore\n      pop\n        /* \"contracts/DaiLi/updata.sol\":1554:1699  function upgrade(address newImplementation) external {... */\n      pop\n      jump\t// out\n        /* \"contracts/DaiLi/updata.sol\":1097:1126  address public implementation */\n    tag_13:\n      0x00\n      dup1\n      sload\n      swap1\n      0x0100\n      exp\n      swap1\n      div\n      0xffffffffffffffffffffffffffffffffffffffff\n      and\n      dup2\n      jump\t// out\n        /* \"contracts/DaiLi/updata.sol\":1306:1359  function foo() public{... */\n    tag_17:\n        /* \"contracts/DaiLi/updata.sol\":1338:1351  words = \"old\" */\n      mload(0x40)\n      dup1\n      0x40\n      add\n      0x40\n      mstore\n      dup1\n      0x03\n      dup2\n      mstore\n      0x20\n      add\n      0x6f6c640000000000000000000000000000000000000000000000000000000000\n      dup2\n      mstore\n      pop\n        /* \"contracts/DaiLi/updata.sol\":1338:1343  words */\n      0x02\n        /* \"contracts/DaiLi/updata.sol\":1338:1351  words = \"old\" */\n      swap1\n      dup2\n      tag_28\n      swap2\n      swap1\n      tag_29\n      jump\t// in\n    tag_28:\n      pop\n        /* \"contracts/DaiLi/updata.sol\":1306:1359  function foo() public{... */\n      jump\t// out\n        /* \"contracts/DaiLi/updata.sol\":1162:1181  string public words */\n    tag_19:\n      0x02\n      dup1\n      sload\n      tag_30\n      swap1\n      tag_31\n      jump\t// in\n    tag_30:\n      dup1\n      0x1f\n      add\n      0x20\n      dup1\n      swap2\n      div\n      mul\n      0x20\n      add\n      mload(0x40)\n      swap1\n      dup2\n      add\n      0x40\n      mstore\n      dup1\n      swap3\n      swap2\n      swap1\n      dup2\n      dup2\n      mstore\n      0x20\n      add\n      dup3\n      dup1\n      sload\n      tag_32\n      swap1\n      tag_31\n      jump\t// in\n    tag_32:\n      dup1\n      iszero\n      tag_33\n      jumpi\n      dup1\n      0x1f\n      lt\n      tag_34\n      jumpi\n      0x0100\n      dup1\n      dup4\n      sload\n      div\n      mul\n      dup4\n      mstore\n      swap2\n      0x20\n      add\n      swap2\n      jump(tag_33)\n    tag_34:\n      dup3\n      add\n      swap2\n      swap1\n      0x00\n      mstore\n      keccak256(0x00, 0x20)\n      swap1\n    tag_35:\n      dup2\n      sload\n      dup2\n      mstore\n      swap1\n      0x01\n      add\n      swap1\n      0x20\n      add\n      dup1\n      dup4\n      gt\n      tag_35\n      jumpi\n      dup3\n      swap1\n      sub\n      0x1f\n      and\n      dup3\n      add\n      swap2\n    tag_33:\n      pop\n      pop\n      pop\n      pop\n      pop\n      dup2\n      jump\t// out\n        /* \"contracts/DaiLi/updata.sol\":1134:1154  address public admin */\n    tag_23:\n      0x01\n      0x00\n      swap1\n      sload\n      swap1\n      0x0100\n      exp\n      swap1\n      div\n      0xffffffffffffffffffffffffffffffffffffffff\n      and\n      dup2\n      jump\t// out\n        /* \"#utility.yul\":88:205   */\n    tag_37:\n        /* \"#utility.yul\":197:198   */\n      0x00\n        /* \"#utility.yul\":194:195   */\n      dup1\n        /* \"#utility.yul\":187:199   */\n      revert\n        /* \"#utility.yul\":334:460   */\n    tag_39:\n        /* \"#utility.yul\":371:378   */\n      0x00\n        /* \"#utility.yul\":411:453   */\n      0xffffffffffffffffffffffffffffffffffffffff\n        /* \"#utility.yul\":404:409   */\n      dup3\n        /* \"#utility.yul\":400:454   */\n      and\n        /* \"#utility.yul\":389:454   */\n      swap1\n      pop\n        /* \"#utility.yul\":334:460   */\n      swap2\n      swap1\n      pop\n      jump\t// out\n        /* \"#utility.yul\":466:562   */\n    tag_40:\n        /* \"#utility.yul\":503:510   */\n      0x00\n        /* \"#utility.yul\":532:556   */\n      tag_73\n        /* \"#utility.yul\":550:555   */\n      dup3\n        /* \"#utility.yul\":532:556   */\n      tag_39\n      jump\t// in\n    tag_73:\n        /* \"#utility.yul\":521:556   */\n      swap1\n      pop\n        /* \"#utility.yul\":466:562   */\n      swap2\n      swap1\n      pop\n      jump\t// out\n        /* \"#utility.yul\":568:690   */\n    tag_41:\n        /* \"#utility.yul\":641:665   */\n      tag_75\n        /* \"#utility.yul\":659:664   */\n      dup2\n        /* \"#utility.yul\":641:665   */\n      tag_40\n      jump\t// in\n    tag_75:\n        /* \"#utility.yul\":634:639   */\n      dup2\n        /* \"#utility.yul\":631:666   */\n      eq\n        /* \"#utility.yul\":621:684   */\n      tag_76\n      jumpi\n        /* \"#utility.yul\":680:681   */\n      0x00\n        /* \"#utility.yul\":677:678   */\n      dup1\n        /* \"#utility.yul\":670:682   */\n      revert\n        /* \"#utility.yul\":621:684   */\n    tag_76:\n        /* \"#utility.yul\":568:690   */\n      pop\n      jump\t// out\n        /* \"#utility.yul\":696:835   */\n    tag_42:\n        /* \"#utility.yul\":742:747   */\n      0x00\n        /* \"#utility.yul\":780:786   */\n      dup2\n        /* \"#utility.yul\":767:787   */\n      calldataload\n        /* \"#utility.yul\":758:787   */\n      swap1\n      pop\n        /* \"#utility.yul\":796:829   */\n      tag_78\n        /* \"#utility.yul\":823:828   */\n      dup2\n        /* \"#utility.yul\":796:829   */\n      tag_41\n      jump\t// in\n    tag_78:\n        /* \"#utility.yul\":696:835   */\n      swap3\n      swap2\n      pop\n      pop\n      jump\t// out\n        /* \"#utility.yul\":841:1170   */\n    tag_10:\n        /* \"#utility.yul\":900:906   */\n      0x00\n        /* \"#utility.yul\":949:951   */\n      0x20\n        /* \"#utility.yul\":937:946   */\n      dup3\n        /* \"#utility.yul\":928:935   */\n      dup5\n        /* \"#utility.yul\":924:947   */\n      sub\n        /* \"#utility.yul\":920:952   */\n      slt\n        /* \"#utility.yul\":917:1036   */\n      iszero\n      tag_80\n      jumpi\n        /* \"#utility.yul\":955:1034   */\n      tag_81\n      tag_37\n      jump\t// in\n    tag_81:\n        /* \"#utility.yul\":917:1036   */\n    tag_80:\n        /* \"#utility.yul\":1075:1076   */\n      0x00\n        /* \"#utility.yul\":1100:1153   */\n      tag_82\n        /* \"#utility.yul\":1145:1152   */\n      dup5\n        /* \"#utility.yul\":1136:1142   */\n      dup3\n        /* \"#utility.yul\":1125:1134   */\n      dup6\n        /* \"#utility.yul\":1121:1143   */\n      add\n        /* \"#utility.yul\":1100:1153   */\n      tag_42\n      jump\t// in\n    tag_82:\n        /* \"#utility.yul\":1090:1153   */\n      swap2\n      pop\n        /* \"#utility.yul\":1046:1163   */\n      pop\n        /* \"#utility.yul\":841:1170   */\n      swap3\n      swap2\n      pop\n      pop\n      jump\t// out\n        /* \"#utility.yul\":1176:1294   */\n    tag_43:\n        /* \"#utility.yul\":1263:1287   */\n      tag_84\n        /* \"#utility.yul\":1281:1286   */\n      dup2\n        /* \"#utility.yul\":1263:1287   */\n      tag_40\n      jump\t// in\n    tag_84:\n        /* \"#utility.yul\":1258:1261   */\n      dup3\n        /* \"#utility.yul\":1251:1288   */\n      mstore\n        /* \"#utility.yul\":1176:1294   */\n      pop\n      pop\n      jump\t// out\n        /* \"#utility.yul\":1300:1522   */\n    tag_15:\n        /* \"#utility.yul\":1393:1397   */\n      0x00\n        /* \"#utility.yul\":1431:1433   */\n      0x20\n        /* \"#utility.yul\":1420:1429   */\n      dup3\n        /* \"#utility.yul\":1416:1434   */\n      add\n        /* \"#utility.yul\":1408:1434   */\n      swap1\n      pop\n        /* \"#utility.yul\":1444:1515   */\n      tag_86\n        /* \"#utility.yul\":1512:1513   */\n      0x00\n        /* \"#utility.yul\":1501:1510   */\n      dup4\n        /* \"#utility.yul\":1497:1514   */\n      add\n        /* \"#utility.yul\":1488:1494   */\n      dup5\n        /* \"#utility.yul\":1444:1515   */\n      tag_43\n      jump\t// in\n    tag_86:\n        /* \"#utility.yul\":1300:1522   */\n      swap3\n      swap2\n      pop\n      pop\n      jump\t// out\n        /* \"#utility.yul\":1528:1627   */\n    tag_44:\n        /* \"#utility.yul\":1580:1586   */\n      0x00\n        /* \"#utility.yul\":1614:1619   */\n      dup2\n        /* \"#utility.yul\":1608:1620   */\n      mload\n        /* \"#utility.yul\":1598:1620   */\n      swap1\n      pop\n        /* \"#utility.yul\":1528:1627   */\n      swap2\n      swap1\n      pop\n      jump\t// out\n        /* \"#utility.yul\":1633:1802   */\n    tag_45:\n        /* \"#utility.yul\":1717:1728   */\n      0x00\n        /* \"#utility.yul\":1751:1757   */\n      dup3\n        /* \"#utility.yul\":1746:1749   */\n      dup3\n        /* \"#utility.yul\":1739:1758   */\n      mstore\n        /* \"#utility.yul\":1791:1795   */\n      0x20\n        /* \"#utility.yul\":1786:1789   */\n      dup3\n        /* \"#utility.yul\":1782:1796   */\n      add\n        /* \"#utility.yul\":1767:1796   */\n      swap1\n      pop\n        /* \"#utility.yul\":1633:1802   */\n      swap3\n      swap2\n      pop\n      pop\n      jump\t// out\n        /* \"#utility.yul\":1808:2054   */\n    tag_46:\n        /* \"#utility.yul\":1889:1890   */\n      0x00\n        /* \"#utility.yul\":1899:2012   */\n    tag_90:\n        /* \"#utility.yul\":1913:1919   */\n      dup4\n        /* \"#utility.yul\":1910:1911   */\n      dup2\n        /* \"#utility.yul\":1907:1920   */\n      lt\n        /* \"#utility.yul\":1899:2012   */\n      iszero\n      tag_92\n      jumpi\n        /* \"#utility.yul\":1998:1999   */\n      dup1\n        /* \"#utility.yul\":1993:1996   */\n      dup3\n        /* \"#utility.yul\":1989:2000   */\n      add\n        /* \"#utility.yul\":1983:2001   */\n      mload\n        /* \"#utility.yul\":1979:1980   */\n      dup2\n        /* \"#utility.yul\":1974:1977   */\n      dup5\n        /* \"#utility.yul\":1970:1981   */\n      add\n        /* \"#utility.yul\":1963:2002   */\n      mstore\n        /* \"#utility.yul\":1935:1937   */\n      0x20\n        /* \"#utility.yul\":1932:1933   */\n      dup2\n        /* \"#utility.yul\":1928:1938   */\n      add\n        /* \"#utility.yul\":1923:1938   */\n      swap1\n      pop\n        /* \"#utility.yul\":1899:2012   */\n      jump(tag_90)\n    tag_92:\n        /* \"#utility.yul\":2046:2047   */\n      0x00\n        /* \"#utility.yul\":2037:2043   */\n      dup5\n        /* \"#utility.yul\":2032:2035   */\n      dup5\n        /* \"#utility.yul\":2028:2044   */\n      add\n        /* \"#utility.yul\":2021:2048   */\n      mstore\n        /* \"#utility.yul\":1870:2054   */\n      pop\n        /* \"#utility.yul\":1808:2054   */\n      pop\n      pop\n      pop\n      jump\t// out\n        /* \"#utility.yul\":2060:2162   */\n    tag_47:\n        /* \"#utility.yul\":2101:2107   */\n      0x00\n        /* \"#utility.yul\":2152:2154   */\n      0x1f\n        /* \"#utility.yul\":2148:2155   */\n      not\n        /* \"#utility.yul\":2143:2145   */\n      0x1f\n        /* \"#utility.yul\":2136:2141   */\n      dup4\n        /* \"#utility.yul\":2132:2146   */\n      add\n        /* \"#utility.yul\":2128:2156   */\n      and\n        /* \"#utility.yul\":2118:2156   */\n      swap1\n      pop\n        /* \"#utility.yul\":2060:2162   */\n      swap2\n      swap1\n      pop\n      jump\t// out\n        /* \"#utility.yul\":2168:2545   */\n    tag_48:\n        /* \"#utility.yul\":2256:2259   */\n      0x00\n        /* \"#utility.yul\":2284:2323   */\n      tag_95\n        /* \"#utility.yul\":2317:2322   */\n      dup3\n        /* \"#utility.yul\":2284:2323   */\n      tag_44\n      jump\t// in\n    tag_95:\n        /* \"#utility.yul\":2339:2410   */\n      tag_96\n        /* \"#utility.yul\":2403:2409   */\n      dup2\n        /* \"#utility.yul\":2398:2401   */\n      dup6\n        /* \"#utility.yul\":2339:2410   */\n      tag_45\n      jump\t// in\n    tag_96:\n        /* \"#utility.yul\":2332:2410   */\n      swap4\n      pop\n        /* \"#utility.yul\":2419:2484   */\n      tag_97\n        /* \"#utility.yul\":2477:2483   */\n      dup2\n        /* \"#utility.yul\":2472:2475   */\n      dup6\n        /* \"#utility.yul\":2465:2469   */\n      0x20\n        /* \"#utility.yul\":2458:2463   */\n      dup7\n        /* \"#utility.yul\":2454:2470   */\n      add\n        /* \"#utility.yul\":2419:2484   */\n      tag_46\n      jump\t// in\n    tag_97:\n        /* \"#utility.yul\":2509:2538   */\n      tag_98\n        /* \"#utility.yul\":2531:2537   */\n      dup2\n        /* \"#utility.yul\":2509:2538   */\n      tag_47\n      jump\t// in\n    tag_98:\n        /* \"#utility.yul\":2504:2507   */\n      dup5\n        /* \"#utility.yul\":2500:2539   */\n      add\n        /* \"#utility.yul\":2493:2539   */\n      swap2\n      pop\n        /* \"#utility.yul\":2260:2545   */\n      pop\n        /* \"#utility.yul\":2168:2545   */\n      swap3\n      swap2\n      pop\n      pop\n      jump\t// out\n        /* \"#utility.yul\":2551:2864   */\n    tag_21:\n        /* \"#utility.yul\":2664:2668   */\n      0x00\n        /* \"#utility.yul\":2702:2704   */\n      0x20\n        /* \"#utility.yul\":2691:2700   */\n      dup3\n        /* \"#utility.yul\":2687:2705   */\n      add\n        /* \"#utility.yul\":2679:2705   */\n      swap1\n      pop\n        /* \"#utility.yul\":2751:2760   */\n      dup2\n        /* \"#utility.yul\":2745:2749   */\n      dup2\n        /* \"#utility.yul\":2741:2761   */\n      sub\n        /* \"#utility.yul\":2737:2738   */\n      0x00\n        /* \"#utility.yul\":2726:2735   */\n      dup4\n        /* \"#utility.yul\":2722:2739   */\n      add\n        /* \"#utility.yul\":2715:2762   */\n      mstore\n        /* \"#utility.yul\":2779:2857   */\n      tag_100\n        /* \"#utility.yul\":2852:2856   */\n      dup2\n        /* \"#utility.yul\":2843:2849   */\n      dup5\n        /* \"#utility.yul\":2779:2857   */\n      tag_48\n      jump\t// in\n    tag_100:\n        /* \"#utility.yul\":2771:2857   */\n      swap1\n      pop\n        /* \"#utility.yul\":2551:2864   */\n      swap3\n      swap2\n      pop\n      pop\n      jump\t// out\n        /* \"#utility.yul\":2870:3050   */\n    tag_49:\n        /* \"#utility.yul\":2918:2995   */\n      0x4e487b7100000000000000000000000000000000000000000000000000000000\n        /* \"#utility.yul\":2915:2916   */\n      0x00\n        /* \"#utility.yul\":2908:2996   */\n      mstore\n        /* \"#utility.yul\":3015:3019   */\n      0x41\n        /* \"#utility.yul\":3012:3013   */\n      0x04\n        /* \"#utility.yul\":3005:3020   */\n      mstore\n        /* \"#utility.yul\":3039:3043   */\n      0x24\n        /* \"#utility.yul\":3036:3037   */\n      0x00\n        /* \"#utility.yul\":3029:3044   */\n      revert\n        /* \"#utility.yul\":3056:3236   */\n    tag_50:\n        /* \"#utility.yul\":3104:3181   */\n      0x4e487b7100000000000000000000000000000000000000000000000000000000\n        /* \"#utility.yul\":3101:3102   */\n      0x00\n        /* \"#utility.yul\":3094:3182   */\n      mstore\n        /* \"#utility.yul\":3201:3205   */\n      0x22\n        /* \"#utility.yul\":3198:3199   */\n      0x04\n        /* \"#utility.yul\":3191:3206   */\n      mstore\n        /* \"#utility.yul\":3225:3229   */\n      0x24\n        /* \"#utility.yul\":3222:3223   */\n      0x00\n        /* \"#utility.yul\":3215:3230   */\n      revert\n        /* \"#utility.yul\":3242:3562   */\n    tag_31:\n        /* \"#utility.yul\":3286:3292   */\n      0x00\n        /* \"#utility.yul\":3323:3324   */\n      0x02\n        /* \"#utility.yul\":3317:3321   */\n      dup3\n        /* \"#utility.yul\":3313:3325   */\n      div\n        /* \"#utility.yul\":3303:3325   */\n      swap1\n      pop\n        /* \"#utility.yul\":3370:3371   */\n      0x01\n        /* \"#utility.yul\":3364:3368   */\n      dup3\n        /* \"#utility.yul\":3360:3372   */\n      and\n        /* \"#utility.yul\":3391:3409   */\n      dup1\n        /* \"#utility.yul\":3381:3462   */\n      tag_104\n      jumpi\n        /* \"#utility.yul\":3447:3451   */\n      0x7f\n        /* \"#utility.yul\":3439:3445   */\n      dup3\n        /* \"#utility.yul\":3435:3452   */\n      and\n        /* \"#utility.yul\":3425:3452   */\n      swap2\n      pop\n        /* \"#utility.yul\":3381:3462   */\n    tag_104:\n        /* \"#utility.yul\":3509:3511   */\n      0x20\n        /* \"#utility.yul\":3501:3507   */\n      dup3\n        /* \"#utility.yul\":3498:3512   */\n      lt\n        /* \"#utility.yul\":3478:3496   */\n      dup2\n        /* \"#utility.yul\":3475:3513   */\n      sub\n        /* \"#utility.yul\":3472:3556   */\n      tag_105\n      jumpi\n        /* \"#utility.yul\":3528:3546   */\n      tag_106\n      tag_50\n      jump\t// in\n    tag_106:\n        /* \"#utility.yul\":3472:3556   */\n    tag_105:\n        /* \"#utility.yul\":3293:3562   */\n      pop\n        /* \"#utility.yul\":3242:3562   */\n      swap2\n      swap1\n      pop\n      jump\t// out\n        /* \"#utility.yul\":3568:3709   */\n    tag_51:\n        /* \"#utility.yul\":3617:3621   */\n      0x00\n        /* \"#utility.yul\":3640:3643   */\n      dup2\n        /* \"#utility.yul\":3632:3643   */\n      swap1\n      pop\n        /* \"#utility.yul\":3663:3666   */\n      dup2\n        /* \"#utility.yul\":3660:3661   */\n      0x00\n        /* \"#utility.yul\":3653:3667   */\n      mstore\n        /* \"#utility.yul\":3697:3701   */\n      0x20\n        /* \"#utility.yul\":3694:3695   */\n      0x00\n        /* \"#utility.yul\":3684:3702   */\n      keccak256\n        /* \"#utility.yul\":3676:3702   */\n      swap1\n      pop\n        /* \"#utility.yul\":3568:3709   */\n      swap2\n      swap1\n      pop\n      jump\t// out\n        /* \"#utility.yul\":3715:3808   */\n    tag_52:\n        /* \"#utility.yul\":3752:3758   */\n      0x00\n        /* \"#utility.yul\":3799:3801   */\n      0x20\n        /* \"#utility.yul\":3794:3796   */\n      0x1f\n        /* \"#utility.yul\":3787:3792   */\n      dup4\n        /* \"#utility.yul\":3783:3797   */\n      add\n        /* \"#utility.yul\":3779:3802   */\n      div\n        /* \"#utility.yul\":3769:3802   */\n      swap1\n      pop\n        /* \"#utility.yul\":3715:3808   */\n      swap2\n      swap1\n      pop\n      jump\t// out\n        /* \"#utility.yul\":3814:3921   */\n    tag_53:\n        /* \"#utility.yul\":3858:3866   */\n      0x00\n        /* \"#utility.yul\":3908:3913   */\n      dup3\n        /* \"#utility.yul\":3902:3906   */\n      dup3\n        /* \"#utility.yul\":3898:3914   */\n      shl\n        /* \"#utility.yul\":3877:3914   */\n      swap1\n      pop\n        /* \"#utility.yul\":3814:3921   */\n      swap3\n      swap2\n      pop\n      pop\n      jump\t// out\n        /* \"#utility.yul\":3927:4320   */\n    tag_54:\n        /* \"#utility.yul\":3996:4002   */\n      0x00\n        /* \"#utility.yul\":4046:4047   */\n      0x08\n        /* \"#utility.yul\":4034:4044   */\n      dup4\n        /* \"#utility.yul\":4030:4048   */\n      mul\n        /* \"#utility.yul\":4069:4166   */\n      tag_111\n        /* \"#utility.yul\":4099:4165   */\n      0xffffffffffffffffffffffffffffffffffffffffffffffffffffffffffffffff\n        /* \"#utility.yul\":4088:4097   */\n      dup3\n        /* \"#utility.yul\":4069:4166   */\n      tag_53\n      jump\t// in\n    tag_111:\n        /* \"#utility.yul\":4187:4226   */\n      tag_112\n        /* \"#utility.yul\":4217:4225   */\n      dup7\n        /* \"#utility.yul\":4206:4215   */\n      dup4\n        /* \"#utility.yul\":4187:4226   */\n      tag_53\n      jump\t// in\n    tag_112:\n        /* \"#utility.yul\":4175:4226   */\n      swap6\n      pop\n        /* \"#utility.yul\":4259:4263   */\n      dup1\n        /* \"#utility.yul\":4255:4264   */\n      not\n        /* \"#utility.yul\":4248:4253   */\n      dup5\n        /* \"#utility.yul\":4244:4265   */\n      and\n        /* \"#utility.yul\":4235:4265   */\n      swap4\n      pop\n        /* \"#utility.yul\":4308:4312   */\n      dup1\n        /* \"#utility.yul\":4298:4306   */\n      dup7\n        /* \"#utility.yul\":4294:4313   */\n      and\n        /* \"#utility.yul\":4287:4292   */\n      dup5\n        /* \"#utility.yul\":4284:4314   */\n      or\n        /* \"#utility.yul\":4274:4314   */\n      swap3\n      pop\n        /* \"#utility.yul\":4003:4320   */\n      pop\n      pop\n        /* \"#utility.yul\":3927:4320   */\n      swap4\n      swap3\n      pop\n      pop\n      pop\n      jump\t// out\n        /* \"#utility.yul\":4326:4403   */\n    tag_55:\n        /* \"#utility.yul\":4363:4370   */\n      0x00\n        /* \"#utility.yul\":4392:4397   */\n      dup2\n        /* \"#utility.yul\":4381:4397   */\n      swap1\n      pop\n        /* \"#utility.yul\":4326:4403   */\n      swap2\n      swap1\n      pop\n      jump\t// out\n        /* \"#utility.yul\":4409:4469   */\n    tag_56:\n        /* \"#utility.yul\":4437:4440   */\n      0x00\n        /* \"#utility.yul\":4458:4463   */\n      dup2\n        /* \"#utility.yul\":4451:4463   */\n      swap1\n      pop\n        /* \"#utility.yul\":4409:4469   */\n      swap2\n      swap1\n      pop\n      jump\t// out\n        /* \"#utility.yul\":4475:4617   */\n    tag_57:\n        /* \"#utility.yul\":4525:4534   */\n      0x00\n        /* \"#utility.yul\":4558:4611   */\n      tag_116\n        /* \"#utility.yul\":4576:4610   */\n      tag_117\n        /* \"#utility.yul\":4585:4609   */\n      tag_118\n        /* \"#utility.yul\":4603:4608   */\n      dup5\n        /* \"#utility.yul\":4585:4609   */\n      tag_55\n      jump\t// in\n    tag_118:\n        /* \"#utility.yul\":4576:4610   */\n      tag_56\n      jump\t// in\n    tag_117:\n        /* \"#utility.yul\":4558:4611   */\n      tag_55\n      jump\t// in\n    tag_116:\n        /* \"#utility.yul\":4545:4611   */\n      swap1\n      pop\n        /* \"#utility.yul\":4475:4617   */\n      swap2\n      swap1\n      pop\n      jump\t// out\n        /* \"#utility.yul\":4623:4698   */\n    tag_58:\n        /* \"#utility.yul\":4666:4669   */\n      0x00\n        /* \"#utility.yul\":4687:4692   */\n      dup2\n        /* \"#utility.yul\":4680:4692   */\n      swap1\n      pop\n        /* \"#utility.yul\":4623:4698   */\n      swap2\n      swap1\n      pop\n      jump\t// out\n        /* \"#utility.yul\":4704:4973   */\n    tag_59:\n        /* \"#utility.yul\":4814:4853   */\n      tag_121\n        /* \"#utility.yul\":4845:4852   */\n      dup4\n        /* \"#utility.yul\":4814:4853   */\n      tag_57\n      jump\t// in\n    tag_121:\n        /* \"#utility.yul\":4875:4966   */\n      tag_122\n        /* \"#utility.yul\":4924:4965   */\n      tag_123\n        /* \"#utility.yul\":4948:4964   */\n      dup3\n        /* \"#utility.yul\":4924:4965   */\n      tag_58\n      jump\t// in\n    tag_123:\n        /* \"#utility.yul\":4916:4922   */\n      dup5\n        /* \"#utility.yul\":4909:4913   */\n      dup5\n        /* \"#utility.yul\":4903:4914   */\n      sload\n        /* \"#utility.yul\":4875:4966   */\n      tag_54\n      jump\t// in\n    tag_122:\n        /* \"#utility.yul\":4869:4873   */\n      dup3\n        /* \"#utility.yul\":4862:4967   */\n      sstore\n        /* \"#utility.yul\":4780:4973   */\n      pop\n        /* \"#utility.yul\":4704:4973   */\n      pop\n      pop\n      pop\n      jump\t// out\n        /* \"#utility.yul\":4979:5052   */\n    tag_60:\n        /* \"#utility.yul\":5024:5027   */\n      0x00\n        /* \"#utility.yul\":4979:5052   */\n      swap1\n      jump\t// out\n        /* \"#utility.yul\":5058:5247   */\n    tag_61:\n        /* \"#utility.yul\":5135:5167   */\n      tag_126\n      tag_60\n      jump\t// in\n    tag_126:\n        /* \"#utility.yul\":5176:5241   */\n      tag_127\n        /* \"#utility.yul\":5234:5240   */\n      dup2\n        /* \"#utility.yul\":5226:5232   */\n      dup5\n        /* \"#utility.yul\":5220:5224   */\n      dup5\n        /* \"#utility.yul\":5176:5241   */\n      tag_59\n      jump\t// in\n    tag_127:\n        /* \"#utility.yul\":5111:5247   */\n      pop\n        /* \"#utility.yul\":5058:5247   */\n      pop\n      pop\n      jump\t// out\n        /* \"#utility.yul\":5253:5439   */\n    tag_62:\n        /* \"#utility.yul\":5313:5433   */\n    tag_129:\n        /* \"#utility.yul\":5330:5333   */\n      dup2\n        /* \"#utility.yul\":5323:5328   */\n      dup2\n        /* \"#utility.yul\":5320:5334   */\n      lt\n        /* \"#utility.yul\":5313:5433   */\n      iszero\n      tag_131\n      jumpi\n        /* \"#utility.yul\":5384:5423   */\n      tag_132\n        /* \"#utility.yul\":5421:5422   */\n      0x00\n        /* \"#utility.yul\":5414:5419   */\n      dup3\n        /* \"#utility.yul\":5384:5423   */\n      tag_61\n      jump\t// in\n    tag_132:\n        /* \"#utility.yul\":5357:5358   */\n      0x01\n        /* \"#utility.yul\":5350:5355   */\n      dup2\n        /* \"#utility.yul\":5346:5359   */\n      add\n        /* \"#utility.yul\":5337:5359   */\n      swap1\n      pop\n        /* \"#utility.yul\":5313:5433   */\n      jump(tag_129)\n    tag_131:\n        /* \"#utility.yul\":5253:5439   */\n      pop\n      pop\n      jump\t// out\n        /* \"#utility.yul\":5445:5988   */\n    tag_63:\n        /* \"#utility.yul\":5546:5548   */\n      0x1f\n        /* \"#utility.yul\":5541:5544   */\n      dup3\n        /* \"#utility.yul\":5538:5549   */\n      gt\n        /* \"#utility.yul\":5535:5981   */\n      iszero\n      tag_134\n      jumpi\n        /* \"#utility.yul\":5580:5618   */\n      tag_135\n        /* \"#utility.yul\":5612:5617   */\n      dup2\n        /* \"#utility.yul\":5580:5618   */\n      tag_51\n      jump\t// in\n    tag_135:\n        /* \"#utility.yul\":5664:5693   */\n      tag_136\n        /* \"#utility.yul\":5682:5692   */\n      dup5\n        /* \"#utility.yul\":5664:5693   */\n      tag_52\n      jump\t// in\n    tag_136:\n        /* \"#utility.yul\":5654:5662   */\n      dup2\n        /* \"#utility.yul\":5650:5694   */\n      add\n        /* \"#utility.yul\":5847:5849   */\n      0x20\n        /* \"#utility.yul\":5835:5845   */\n      dup6\n        /* \"#utility.yul\":5832:5850   */\n      lt\n        /* \"#utility.yul\":5829:5878   */\n      iszero\n      tag_137\n      jumpi\n        /* \"#utility.yul\":5868:5876   */\n      dup2\n        /* \"#utility.yul\":5853:5876   */\n      swap1\n      pop\n        /* \"#utility.yul\":5829:5878   */\n    tag_137:\n        /* \"#utility.yul\":5891:5971   */\n      tag_138\n        /* \"#utility.yul\":5947:5969   */\n      tag_139\n        /* \"#utility.yul\":5965:5968   */\n      dup6\n        /* \"#utility.yul\":5947:5969   */\n      tag_52\n      jump\t// in\n    tag_139:\n        /* \"#utility.yul\":5937:5945   */\n      dup4\n        /* \"#utility.yul\":5933:5970   */\n      add\n        /* \"#utility.yul\":5920:5931   */\n      dup3\n        /* \"#utility.yul\":5891:5971   */\n      tag_62\n      jump\t// in\n    tag_138:\n        /* \"#utility.yul\":5550:5981   */\n      pop\n      pop\n        /* \"#utility.yul\":5535:5981   */\n    tag_134:\n        /* \"#utility.yul\":5445:5988   */\n      pop\n      pop\n      pop\n      jump\t// out\n        /* \"#utility.yul\":5994:6111   */\n    tag_64:\n        /* \"#utility.yul\":6048:6056   */\n      0x00\n        /* \"#utility.yul\":6098:6103   */\n      dup3\n        /* \"#utility.yul\":6092:6096   */\n      dup3\n        /* \"#utility.yul\":6088:6104   */\n      shr\n        /* \"#utility.yul\":6067:6104   */\n      swap1\n      pop\n        /* \"#utility.yul\":5994:6111   */\n      swap3\n      swap2\n      pop\n      pop\n      jump\t// out\n        /* \"#utility.yul\":6117:6286   */\n    tag_65:\n        /* \"#utility.yul\":6161:6167   */\n      0x00\n        /* \"#utility.yul\":6194:6245   */\n      tag_142\n        /* \"#utility.yul\":6242:6243   */\n      0x00\n        /* \"#utility.yul\":6238:6244   */\n      not\n        /* \"#utility.yul\":6230:6235   */\n      dup5\n        /* \"#utility.yul\":6227:6228   */\n      0x08\n        /* \"#utility.yul\":6223:6236   */\n      mul\n        /* \"#utility.yul\":6194:6245   */\n      tag_64\n      jump\t// in\n    tag_142:\n        /* \"#utility.yul\":6190:6246   */\n      not\n        /* \"#utility.yul\":6275:6279   */\n      dup1\n        /* \"#utility.yul\":6269:6273   */\n      dup4\n        /* \"#utility.yul\":6265:6280   */\n      and\n        /* \"#utility.yul\":6255:6280   */\n      swap2\n      pop\n        /* \"#utility.yul\":6168:6286   */\n      pop\n        /* \"#utility.yul\":6117:6286   */\n      swap3\n      swap2\n      pop\n      pop\n      jump\t// out\n        /* \"#utility.yul\":6291:6586   */\n    tag_66:\n        /* \"#utility.yul\":6367:6371   */\n      0x00\n        /* \"#utility.yul\":6513:6542   */\n      tag_144\n        /* \"#utility.yul\":6538:6541   */\n      dup4\n        /* \"#utility.yul\":6532:6536   */\n      dup4\n        /* \"#utility.yul\":6513:6542   */\n      tag_65\n      jump\t// in\n    tag_144:\n        /* \"#utility.yul\":6505:6542   */\n      swap2\n      pop\n        /* \"#utility.yul\":6575:6578   */\n      dup3\n        /* \"#utility.yul\":6572:6573   */\n      0x02\n        /* \"#utility.yul\":6568:6579   */\n      mul\n        /* \"#utility.yul\":6562:6566   */\n      dup3\n        /* \"#utility.yul\":6559:6580   */\n      or\n        /* \"#utility.yul\":6551:6580   */\n      swap1\n      pop\n        /* \"#utility.yul\":6291:6586   */\n      swap3\n      swap2\n      pop\n      pop\n      jump\t// out\n        /* \"#utility.yul\":6591:7986   */\n    tag_29:\n        /* \"#utility.yul\":6708:6745   */\n      tag_146\n        /* \"#utility.yul\":6741:6744   */\n      dup3\n        /* \"#utility.yul\":6708:6745   */\n      tag_44\n      jump\t// in\n    tag_146:\n        /* \"#utility.yul\":6810:6828   */\n      0xffffffffffffffff\n        /* \"#utility.yul\":6802:6808   */\n      dup2\n        /* \"#utility.yul\":6799:6829   */\n      gt\n        /* \"#utility.yul\":6796:6852   */\n      iszero\n      tag_147\n      jumpi\n        /* \"#utility.yul\":6832:6850   */\n      tag_148\n      tag_49\n      jump\t// in\n    tag_148:\n        /* \"#utility.yul\":6796:6852   */\n    tag_147:\n        /* \"#utility.yul\":6876:6914   */\n      tag_149\n        /* \"#utility.yul\":6908:6912   */\n      dup3\n        /* \"#utility.yul\":6902:6913   */\n      sload\n        /* \"#utility.yul\":6876:6914   */\n      tag_31\n      jump\t// in\n    tag_149:\n        /* \"#utility.yul\":6961:7028   */\n      tag_150\n        /* \"#utility.yul\":7021:7027   */\n      dup3\n        /* \"#utility.yul\":7013:7019   */\n      dup3\n        /* \"#utility.yul\":7007:7011   */\n      dup6\n        /* \"#utility.yul\":6961:7028   */\n      tag_63\n      jump\t// in\n    tag_150:\n        /* \"#utility.yul\":7055:7056   */\n      0x00\n        /* \"#utility.yul\":7079:7083   */\n      0x20\n        /* \"#utility.yul\":7066:7083   */\n      swap1\n      pop\n        /* \"#utility.yul\":7111:7113   */\n      0x1f\n        /* \"#utility.yul\":7103:7109   */\n      dup4\n        /* \"#utility.yul\":7100:7114   */\n      gt\n        /* \"#utility.yul\":7128:7129   */\n      0x01\n        /* \"#utility.yul\":7123:7741   */\n      dup2\n      eq\n      tag_152\n      jumpi\n        /* \"#utility.yul\":7785:7786   */\n      0x00\n        /* \"#utility.yul\":7802:7808   */\n      dup5\n        /* \"#utility.yul\":7799:7876   */\n      iszero\n      tag_153\n      jumpi\n        /* \"#utility.yul\":7851:7860   */\n      dup3\n        /* \"#utility.yul\":7846:7849   */\n      dup8\n        /* \"#utility.yul\":7842:7861   */\n      add\n        /* \"#utility.yul\":7836:7862   */\n      mload\n        /* \"#utility.yul\":7827:7862   */\n      swap1\n      pop\n        /* \"#utility.yul\":7799:7876   */\n    tag_153:\n        /* \"#utility.yul\":7902:7969   */\n      tag_154\n        /* \"#utility.yul\":7962:7968   */\n      dup6\n        /* \"#utility.yul\":7955:7960   */\n      dup3\n        /* \"#utility.yul\":7902:7969   */\n      tag_66\n      jump\t// in\n    tag_154:\n        /* \"#utility.yul\":7896:7900   */\n      dup7\n        /* \"#utility.yul\":7889:7970   */\n      sstore\n        /* \"#utility.yul\":7758:7980   */\n      pop\n        /* \"#utility.yul\":7093:7980   */\n      jump(tag_151)\n        /* \"#utility.yul\":7123:7741   */\n    tag_152:\n        /* \"#utility.yul\":7175:7179   */\n      0x1f\n        /* \"#utility.yul\":7171:7180   */\n      not\n        /* \"#utility.yul\":7163:7169   */\n      dup5\n        /* \"#utility.yul\":7159:7181   */\n      and\n        /* \"#utility.yul\":7209:7246   */\n      tag_155\n        /* \"#utility.yul\":7241:7245   */\n      dup7\n        /* \"#utility.yul\":7209:7246   */\n      tag_51\n      jump\t// in\n    tag_155:\n        /* \"#utility.yul\":7268:7269   */\n      0x00\n        /* \"#utility.yul\":7282:7490   */\n    tag_156:\n        /* \"#utility.yul\":7296:7303   */\n      dup3\n        /* \"#utility.yul\":7293:7294   */\n      dup2\n        /* \"#utility.yul\":7290:7304   */\n      lt\n        /* \"#utility.yul\":7282:7490   */\n      iszero\n      tag_158\n      jumpi\n        /* \"#utility.yul\":7375:7384   */\n      dup5\n        /* \"#utility.yul\":7370:7373   */\n      dup10\n        /* \"#utility.yul\":7366:7385   */\n      add\n        /* \"#utility.yul\":7360:7386   */\n      mload\n        /* \"#utility.yul\":7352:7358   */\n      dup3\n        /* \"#utility.yul\":7345:7387   */\n      sstore\n        /* \"#utility.yul\":7426:7427   */\n      0x01\n        /* \"#utility.yul\":7418:7424   */\n      dup3\n        /* \"#utility.yul\":7414:7428   */\n      add\n        /* \"#utility.yul\":7404:7428   */\n      swap2\n      pop\n        /* \"#utility.yul\":7473:7475   */\n      0x20\n        /* \"#utility.yul\":7462:7471   */\n      dup6\n        /* \"#utility.yul\":7458:7476   */\n      add\n        /* \"#utility.yul\":7445:7476   */\n      swap5\n      pop\n        /* \"#utility.yul\":7319:7323   */\n      0x20\n        /* \"#utility.yul\":7316:7317   */\n      dup2\n        /* \"#utility.yul\":7312:7324   */\n      add\n        /* \"#utility.yul\":7307:7324   */\n      swap1\n      pop\n        /* \"#utility.yul\":7282:7490   */\n      jump(tag_156)\n    tag_158:\n        /* \"#utility.yul\":7518:7524   */\n      dup7\n        /* \"#utility.yul\":7509:7516   */\n      dup4\n        /* \"#utility.yul\":7506:7525   */\n      lt\n        /* \"#utility.yul\":7503:7682   */\n      iszero\n      tag_159\n      jumpi\n        /* \"#utility.yul\":7576:7585   */\n      dup5\n        /* \"#utility.yul\":7571:7574   */\n      dup10\n        /* \"#utility.yul\":7567:7586   */\n      add\n        /* \"#utility.yul\":7561:7587   */\n      mload\n        /* \"#utility.yul\":7619:7667   */\n      tag_160\n        /* \"#utility.yul\":7661:7665   */\n      0x1f\n        /* \"#utility.yul\":7653:7659   */\n      dup10\n        /* \"#utility.yul\":7649:7666   */\n      and\n        /* \"#utility.yul\":7638:7647   */\n      dup3\n        /* \"#utility.yul\":7619:7667   */\n      tag_65\n      jump\t// in\n    tag_160:\n        /* \"#utility.yul\":7611:7617   */\n      dup4\n        /* \"#utility.yul\":7604:7668   */\n      sstore\n        /* \"#utility.yul\":7526:7682   */\n      pop\n        /* \"#utility.yul\":7503:7682   */\n    tag_159:\n        /* \"#utility.yul\":7728:7729   */\n      0x01\n        /* \"#utility.yul\":7724:7725   */\n      0x02\n        /* \"#utility.yul\":7716:7722   */\n      dup9\n        /* \"#utility.yul\":7712:7726   */\n      mul\n        /* \"#utility.yul\":7708:7730   */\n      add\n        /* \"#utility.yul\":7702:7706   */\n      dup9\n        /* \"#utility.yul\":7695:7731   */\n      sstore\n        /* \"#utility.yul\":7130:7741   */\n      pop\n      pop\n      pop\n        /* \"#utility.yul\":7093:7980   */\n    tag_151:\n      pop\n        /* \"#utility.yul\":6683:7986   */\n      pop\n      pop\n      pop\n        /* \"#utility.yul\":6591:7986   */\n      pop\n      pop\n      jump\t// out\n\n    auxdata: 0xa2646970667358221220dc750a89273787313c76b98fd68716fc668f1fb8cbdbc2932f2970c3465f267764736f6c63430008130033\n}\n",
				"bytecode": {
					"linkReferences": {},
					"object": "608060405234801561001057600080fd5b50610751806100206000396000f3fe608060405234801561001057600080fd5b50600436106100575760003560e01c80630900f0101461005c5780635c60da1b14610078578063c298557814610096578063f2c31bd9146100a0578063f851a440146100be575b600080fd5b610076600480360381019061007191906102fb565b6100dc565b005b610080610179565b60405161008d9190610337565b60405180910390f35b61009e61019d565b005b6100a86101e4565b6040516100b591906103e2565b60405180910390f35b6100c6610272565b6040516100d39190610337565b60405180910390f35b600160009054906101000a900473ffffffffffffffffffffffffffffffffffffffff1673ffffffffffffffffffffffffffffffffffffffff163373ffffffffffffffffffffffffffffffffffffffff161461013657600080fd5b806000806101000a81548173ffffffffffffffffffffffffffffffffffffffff021916908373ffffffffffffffffffffffffffffffffffffffff16021790555050565b60008054906101000a900473ffffffffffffffffffffffffffffffffffffffff1681565b6040518060400160405280600381526020017f6f6c640000000000000000000000000000000000000000000000000000000000815250600290816101e19190610649565b50565b600280546101f190610462565b80601f016020809104026020016040519081016040528092919081815260200182805461021d90610462565b801561026a5780601f1061023f5761010080835404028352916020019161026a565b820191906000526020600020905b81548152906001019060200180831161024d57829003601f168201915b505050505081565b600160009054906101000a900473ffffffffffffffffffffffffffffffffffffffff1681565b600080fd5b600073ffffffffffffffffffffffffffffffffffffffff82169050919050565b60006102c88261029d565b9050919050565b6102d8816102bd565b81146102e357600080fd5b50565b6000813590506102f5816102cf565b92915050565b60006020828403121561031157610310610298565b5b600061031f848285016102e6565b91505092915050565b610331816102bd565b82525050565b600060208201905061034c6000830184610328565b92915050565b600081519050919050565b600082825260208201905092915050565b60005b8381101561038c578082015181840152602081019050610371565b60008484015250505050565b6000601f19601f8301169050919050565b60006103b482610352565b6103be818561035d565b93506103ce81856020860161036e565b6103d781610398565b840191505092915050565b600060208201905081810360008301526103fc81846103a9565b905092915050565b7f4e487b7100000000000000000000000000000000000000000000000000000000600052604160045260246000fd5b7f4e487b7100000000000000000000000000000000000000000000000000000000600052602260045260246000fd5b6000600282049050600182168061047a57607f821691505b60208210810361048d5761048c610433565b5b50919050565b60008190508160005260206000209050919050565b60006020601f8301049050919050565b600082821b905092915050565b6000600883026104f57fffffffffffffffffffffffffffffffffffffffffffffffffffffffffffffffff826104b8565b6104ff86836104b8565b95508019841693508086168417925050509392505050565b6000819050919050565b6000819050919050565b600061054661054161053c84610517565b610521565b610517565b9050919050565b6000819050919050565b6105608361052b565b61057461056c8261054d565b8484546104c5565b825550505050565b600090565b61058961057c565b610594818484610557565b505050565b5b818110156105b8576105ad600082610581565b60018101905061059a565b5050565b601f8211156105fd576105ce81610493565b6105d7846104a8565b810160208510156105e6578190505b6105fa6105f2856104a8565b830182610599565b50505b505050565b600082821c905092915050565b600061062060001984600802610602565b1980831691505092915050565b6000610639838361060f565b9150826002028217905092915050565b61065282610352565b67ffffffffffffffff81111561066b5761066a610404565b5b6106758254610462565b6106808282856105bc565b600060209050601f8311600181146106b357600084156106a1578287015190505b6106ab858261062d565b865550610713565b601f1984166106c186610493565b60005b828110156106e9578489015182556001820191506020850194506020810190506106c4565b868310156107065784890151610702601f89168261060f565b8355505b6001600288020188555050505b50505050505056fea2646970667358221220dc750a89273787313c76b98fd68716fc668f1fb8cbdbc2932f2970c3465f267764736f6c63430008130033",
					"opcodes": "PUSH1 0x80 PUSH1 0x40 MSTORE CALLVALUE DUP1 ISZERO PUSH2 0x10 JUMPI PUSH1 0x0 DUP1 REVERT JUMPDEST POP PUSH2 0x751 DUP1 PUSH2 0x20 PUSH1 0x0 CODECOPY PUSH1 0x0 RETURN INVALID PUSH1 0x80 PUSH1 0x40 MSTORE CALLVALUE DUP1 ISZERO PUSH2 0x10 JUMPI PUSH1 0x0 DUP1 REVERT JUMPDEST POP PUSH1 0x4 CALLDATASIZE LT PUSH2 0x57 JUMPI PUSH1 0x0 CALLDATALOAD PUSH1 0xE0 SHR DUP1 PUSH4 0x900F010 EQ PUSH2 0x5C JUMPI DUP1 PUSH4 0x5C60DA1B EQ PUSH2 0x78 JUMPI DUP1 PUSH4 0xC2985578 EQ PUSH2 0x96 JUMPI DUP1 PUSH4 0xF2C31BD9 EQ PUSH2 0xA0 JUMPI DUP1 PUSH4 0xF851A440 EQ PUSH2 0xBE JUMPI JUMPDEST PUSH1 0x0 DUP1 REVERT JUMPDEST PUSH2 0x76 PUSH1 0x4 DUP1 CALLDATASIZE SUB DUP2 ADD SWAP1 PUSH2 0x71 SWAP2 SWAP1 PUSH2 0x2FB JUMP JUMPDEST PUSH2 0xDC JUMP JUMPDEST STOP JUMPDEST PUSH2 0x80 PUSH2 0x179 JUMP JUMPDEST PUSH1 0x40 MLOAD PUSH2 0x8D SWAP2 SWAP1 PUSH2 0x337 JUMP JUMPDEST PUSH1 0x40 MLOAD DUP1 SWAP2 SUB SWAP1 RETURN JUMPDEST PUSH2 0x9E PUSH2 0x19D JUMP JUMPDEST STOP JUMPDEST PUSH2 0xA8 PUSH2 0x1E4 JUMP JUMPDEST PUSH1 0x40 MLOAD PUSH2 0xB5 SWAP2 SWAP1 PUSH2 0x3E2 JUMP JUMPDEST PUSH1 0x40 MLOAD DUP1 SWAP2 SUB SWAP1 RETURN JUMPDEST PUSH2 0xC6 PUSH2 0x272 JUMP JUMPDEST PUSH1 0x40 MLOAD PUSH2 0xD3 SWAP2 SWAP1 PUSH2 0x337 JUMP JUMPDEST PUSH1 0x40 MLOAD DUP1 SWAP2 SUB SWAP1 RETURN JUMPDEST PUSH1 0x1 PUSH1 0x0 SWAP1 SLOAD SWAP1 PUSH2 0x100 EXP SWAP1 DIV PUSH20 0xFFFFFFFFFFFFFFFFFFFFFFFFFFFFFFFFFFFFFFFF AND PUSH20 0xFFFFFFFFFFFFFFFFFFFFFFFFFFFFFFFFFFFFFFFF AND CALLER PUSH20 0xFFFFFFFFFFFFFFFFFFFFFFFFFFFFFFFFFFFFFFFF AND EQ PUSH2 0x136 JUMPI PUSH1 0x0 DUP1 REVERT JUMPDEST DUP1 PUSH1 0x0 DUP1 PUSH2 0x100 EXP DUP2 SLOAD DUP2 PUSH20 0xFFFFFFFFFFFFFFFFFFFFFFFFFFFFFFFFFFFFFFFF MUL NOT AND SWAP1 DUP4 PUSH20 0xFFFFFFFFFFFFFFFFFFFFFFFFFFFFFFFFFFFFFFFF AND MUL OR SWAP1 SSTORE POP POP JUMP JUMPDEST PUSH1 0x0 DUP1 SLOAD SWAP1 PUSH2 0x100 EXP SWAP1 DIV PUSH20 0xFFFFFFFFFFFFFFFFFFFFFFFFFFFFFFFFFFFFFFFF AND DUP2 JUMP JUMPDEST PUSH1 0x40 MLOAD DUP1 PUSH1 0x40 ADD PUSH1 0x40 MSTORE DUP1 PUSH1 0x3 DUP2 MSTORE PUSH1 0x20 ADD PUSH32 0x6F6C640000000000000000000000000000000000000000000000000000000000 DUP2 MSTORE POP PUSH1 0x2 SWAP1 DUP2 PUSH2 0x1E1 SWAP2 SWAP1 PUSH2 0x649 JUMP JUMPDEST POP JUMP JUMPDEST PUSH1 0x2 DUP1 SLOAD PUSH2 0x1F1 SWAP1 PUSH2 0x462 JUMP JUMPDEST DUP1 PUSH1 0x1F ADD PUSH1 0x20 DUP1 SWAP2 DIV MUL PUSH1 0x20 ADD PUSH1 0x40 MLOAD SWAP1 DUP2 ADD PUSH1 0x40 MSTORE DUP1 SWAP3 SWAP2 SWAP1 DUP2 DUP2 MSTORE PUSH1 0x20 ADD DUP3 DUP1 SLOAD PUSH2 0x21D SWAP1 PUSH2 0x462 JUMP JUMPDEST DUP1 ISZERO PUSH2 0x26A JUMPI DUP1 PUSH1 0x1F LT PUSH2 0x23F JUMPI PUSH2 0x100 DUP1 DUP4 SLOAD DIV MUL DUP4 MSTORE SWAP2 PUSH1 0x20 ADD SWAP2 PUSH2 0x26A JUMP JUMPDEST DUP3 ADD SWAP2 SWAP1 PUSH1 0x0 MSTORE PUSH1 0x20 PUSH1 0x0 KECCAK256 SWAP1 JUMPDEST DUP2 SLOAD DUP2 MSTORE SWAP1 PUSH1 0x1 ADD SWAP1 PUSH1 0x20 ADD DUP1 DUP4 GT PUSH2 0x24D JUMPI DUP3 SWAP1 SUB PUSH1 0x1F AND DUP3 ADD SWAP2 JUMPDEST POP POP POP POP POP DUP2 JUMP JUMPDEST PUSH1 0x1 PUSH1 0x0 SWAP1 SLOAD SWAP1 PUSH2 0x100 EXP SWAP1 DIV PUSH20 0xFFFFFFFFFFFFFFFFFFFFFFFFFFFFFFFFFFFFFFFF AND DUP2 JUMP JUMPDEST PUSH1 0x0 DUP1 REVERT JUMPDEST PUSH1 0x0 PUSH20 0xFFFFFFFFFFFFFFFFFFFFFFFFFFFFFFFFFFFFFFFF DUP3 AND SWAP1 POP SWAP2 SWAP1 POP JUMP JUMPDEST PUSH1 0x0 PUSH2 0x2C8 DUP3 PUSH2 0x29D JUMP JUMPDEST SWAP1 POP SWAP2 SWAP1 POP JUMP JUMPDEST PUSH2 0x2D8 DUP2 PUSH2 0x2BD JUMP JUMPDEST DUP2 EQ PUSH2 0x2E3 JUMPI PUSH1 0x0 DUP1 REVERT JUMPDEST POP JUMP JUMPDEST PUSH1 0x0 DUP2 CALLDATALOAD SWAP1 POP PUSH2 0x2F5 DUP2 PUSH2 0x2CF JUMP JUMPDEST SWAP3 SWAP2 POP POP JUMP JUMPDEST PUSH1 0x0 PUSH1 0x20 DUP3 DUP5 SUB SLT ISZERO PUSH2 0x311 JUMPI PUSH2 0x310 PUSH2 0x298 JUMP JUMPDEST JUMPDEST PUSH1 0x0 PUSH2 0x31F DUP5 DUP3 DUP6 ADD PUSH2 0x2E6 JUMP JUMPDEST SWAP2 POP POP SWAP3 SWAP2 POP POP JUMP JUMPDEST PUSH2 0x331 DUP2 PUSH2 0x2BD JUMP JUMPDEST DUP3 MSTORE POP POP JUMP JUMPDEST PUSH1 0x0 PUSH1 0x20 DUP3 ADD SWAP1 POP PUSH2 0x34C PUSH1 0x0 DUP4 ADD DUP5 PUSH2 0x328 JUMP JUMPDEST SWAP3 SWAP2 POP POP JUMP JUMPDEST PUSH1 0x0 DUP2 MLOAD SWAP1 POP SWAP2 SWAP1 POP JUMP JUMPDEST PUSH1 0x0 DUP3 DUP3 MSTORE PUSH1 0x20 DUP3 ADD SWAP1 POP SWAP3 SWAP2 POP POP JUMP JUMPDEST PUSH1 0x0 JUMPDEST DUP4 DUP2 LT ISZERO PUSH2 0x38C JUMPI DUP1 DUP3 ADD MLOAD DUP2 DUP5 ADD MSTORE PUSH1 0x20 DUP2 ADD SWAP1 POP PUSH2 0x371 JUMP JUMPDEST PUSH1 0x0 DUP5 DUP5 ADD MSTORE POP POP POP POP JUMP JUMPDEST PUSH1 0x0 PUSH1 0x1F NOT PUSH1 0x1F DUP4 ADD AND SWAP1 POP SWAP2 SWAP1 POP JUMP JUMPDEST PUSH1 0x0 PUSH2 0x3B4 DUP3 PUSH2 0x352 JUMP JUMPDEST PUSH2 0x3BE DUP2 DUP6 PUSH2 0x35D JUMP JUMPDEST SWAP4 POP PUSH2 0x3CE DUP2 DUP6 PUSH1 0x20 DUP7 ADD PUSH2 0x36E JUMP JUMPDEST PUSH2 0x3D7 DUP2 PUSH2 0x398 JUMP JUMPDEST DUP5 ADD SWAP2 POP POP SWAP3 SWAP2 POP POP JUMP JUMPDEST PUSH1 0x0 PUSH1 0x20 DUP3 ADD SWAP1 POP DUP2 DUP2 SUB PUSH1 0x0 DUP4 ADD MSTORE PUSH2 0x3FC DUP2 DUP5 PUSH2 0x3A9 JUMP JUMPDEST SWAP1 POP SWAP3 SWAP2 POP POP JUMP JUMPDEST PUSH32 0x4E487B7100000000000000000000000000000000000000000000000000000000 PUSH1 0x0 MSTORE PUSH1 0x41 PUSH1 0x4 MSTORE PUSH1 0x24 PUSH1 0x0 REVERT JUMPDEST PUSH32 0x4E487B7100000000000000000000000000000000000000000000000000000000 PUSH1 0x0 MSTORE PUSH1 0x22 PUSH1 0x4 MSTORE PUSH1 0x24 PUSH1 0x0 REVERT JUMPDEST PUSH1 0x0 PUSH1 0x2 DUP3 DIV SWAP1 POP PUSH1 0x1 DUP3 AND DUP1 PUSH2 0x47A JUMPI PUSH1 0x7F DUP3 AND SWAP2 POP JUMPDEST PUSH1 0x20 DUP3 LT DUP2 SUB PUSH2 0x48D JUMPI PUSH2 0x48C PUSH2 0x433 JUMP JUMPDEST JUMPDEST POP SWAP2 SWAP1 POP JUMP JUMPDEST PUSH1 0x0 DUP2 SWAP1 POP DUP2 PUSH1 0x0 MSTORE PUSH1 0x20 PUSH1 0x0 KECCAK256 SWAP1 POP SWAP2 SWAP1 POP JUMP JUMPDEST PUSH1 0x0 PUSH1 0x20 PUSH1 0x1F DUP4 ADD DIV SWAP1 POP SWAP2 SWAP1 POP JUMP JUMPDEST PUSH1 0x0 DUP3 DUP3 SHL SWAP1 POP SWAP3 SWAP2 POP POP JUMP JUMPDEST PUSH1 0x0 PUSH1 0x8 DUP4 MUL PUSH2 0x4F5 PUSH32 0xFFFFFFFFFFFFFFFFFFFFFFFFFFFFFFFFFFFFFFFFFFFFFFFFFFFFFFFFFFFFFFFF DUP3 PUSH2 0x4B8 JUMP JUMPDEST PUSH2 0x4FF DUP7 DUP4 PUSH2 0x4B8 JUMP JUMPDEST SWAP6 POP DUP1 NOT DUP5 AND SWAP4 POP DUP1 DUP7 AND DUP5 OR SWAP3 POP POP POP SWAP4 SWAP3 POP POP POP JUMP JUMPDEST PUSH1 0x0 DUP2 SWAP1 POP SWAP2 SWAP1 POP JUMP JUMPDEST PUSH1 0x0 DUP2 SWAP1 POP SWAP2 SWAP1 POP JUMP JUMPDEST PUSH1 0x0 PUSH2 0x546 PUSH2 0x541 PUSH2 0x53C DUP5 PUSH2 0x517 JUMP JUMPDEST PUSH2 0x521 JUMP JUMPDEST PUSH2 0x517 JUMP JUMPDEST SWAP1 POP SWAP2 SWAP1 POP JUMP JUMPDEST PUSH1 0x0 DUP2 SWAP1 POP SWAP2 SWAP1 POP JUMP JUMPDEST PUSH2 0x560 DUP4 PUSH2 0x52B JUMP JUMPDEST PUSH2 0x574 PUSH2 0x56C DUP3 PUSH2 0x54D JUMP JUMPDEST DUP5 DUP5 SLOAD PUSH2 0x4C5 JUMP JUMPDEST DUP3 SSTORE POP POP POP POP JUMP JUMPDEST PUSH1 0x0 SWAP1 JUMP JUMPDEST PUSH2 0x589 PUSH2 0x57C JUMP JUMPDEST PUSH2 0x594 DUP2 DUP5 DUP5 PUSH2 0x557 JUMP JUMPDEST POP POP POP JUMP JUMPDEST JUMPDEST DUP2 DUP2 LT ISZERO PUSH2 0x5B8 JUMPI PUSH2 0x5AD PUSH1 0x0 DUP3 PUSH2 0x581 JUMP JUMPDEST PUSH1 0x1 DUP2 ADD SWAP1 POP PUSH2 0x59A JUMP JUMPDEST POP POP JUMP JUMPDEST PUSH1 0x1F DUP3 GT ISZERO PUSH2 0x5FD JUMPI PUSH2 0x5CE DUP2 PUSH2 0x493 JUMP JUMPDEST PUSH2 0x5D7 DUP5 PUSH2 0x4A8 JUMP JUMPDEST DUP2 ADD PUSH1 0x20 DUP6 LT ISZERO PUSH2 0x5E6 JUMPI DUP2 SWAP1 POP JUMPDEST PUSH2 0x5FA PUSH2 0x5F2 DUP6 PUSH2 0x4A8 JUMP JUMPDEST DUP4 ADD DUP3 PUSH2 0x599 JUMP JUMPDEST POP POP JUMPDEST POP POP POP JUMP JUMPDEST PUSH1 0x0 DUP3 DUP3 SHR SWAP1 POP SWAP3 SWAP2 POP POP JUMP JUMPDEST PUSH1 0x0 PUSH2 0x620 PUSH1 0x0 NOT DUP5 PUSH1 0x8 MUL PUSH2 0x602 JUMP JUMPDEST NOT DUP1 DUP4 AND SWAP2 POP POP SWAP3 SWAP2 POP POP JUMP JUMPDEST PUSH1 0x0 PUSH2 0x639 DUP4 DUP4 PUSH2 0x60F JUMP JUMPDEST SWAP2 POP DUP3 PUSH1 0x2 MUL DUP3 OR SWAP1 POP SWAP3 SWAP2 POP POP JUMP JUMPDEST PUSH2 0x652 DUP3 PUSH2 0x352 JUMP JUMPDEST PUSH8 0xFFFFFFFFFFFFFFFF DUP2 GT ISZERO PUSH2 0x66B JUMPI PUSH2 0x66A PUSH2 0x404 JUMP JUMPDEST JUMPDEST PUSH2 0x675 DUP3 SLOAD PUSH2 0x462 JUMP JUMPDEST PUSH2 0x680 DUP3 DUP3 DUP6 PUSH2 0x5BC JUMP JUMPDEST PUSH1 0x0 PUSH1 0x20 SWAP1 POP PUSH1 0x1F DUP4 GT PUSH1 0x1 DUP2 EQ PUSH2 0x6B3 JUMPI PUSH1 0x0 DUP5 ISZERO PUSH2 0x6A1 JUMPI DUP3 DUP8 ADD MLOAD SWAP1 POP JUMPDEST PUSH2 0x6AB DUP6 DUP3 PUSH2 0x62D JUMP JUMPDEST DUP7 SSTORE POP PUSH2 0x713 JUMP JUMPDEST PUSH1 0x1F NOT DUP5 AND PUSH2 0x6C1 DUP7 PUSH2 0x493 JUMP JUMPDEST PUSH1 0x0 JUMPDEST DUP3 DUP2 LT ISZERO PUSH2 0x6E9 JUMPI DUP5 DUP10 ADD MLOAD DUP3 SSTORE PUSH1 0x1 DUP3 ADD SWAP2 POP PUSH1 0x20 DUP6 ADD SWAP5 POP PUSH1 0x20 DUP2 ADD SWAP1 POP PUSH2 0x6C4 JUMP JUMPDEST DUP7 DUP4 LT ISZERO PUSH2 0x706 JUMPI DUP5 DUP10 ADD MLOAD PUSH2 0x702 PUSH1 0x1F DUP10 AND DUP3 PUSH2 0x60F JUMP JUMPDEST DUP4 SSTORE POP JUMPDEST PUSH1 0x1 PUSH1 0x2 DUP9 MUL ADD DUP9 SSTORE POP POP POP JUMPDEST POP POP POP POP POP POP JUMP INVALID LOG2 PUSH5 0x6970667358 0x22 SLT KECCAK256 0xDC PUSH22 0xA89273787313C76B98FD68716FC668F1FB8CBDBC293 0x2F 0x29 PUSH17 0xC3465F267764736F6C6343000813003300 "
				},
				"gasEstimates": {
					"creation": {
						"codeDepositCost": "374600",
						"executionCost": "411",
						"totalCost": "375011"
					},
					"external": {
						"admin()": "2580",
						"foo()": "infinite",
						"implementation()": "2511",
						"upgrade(address)": "26870",
						"words()": "infinite"
					}
				},
				"methodIdentifiers": {
					"admin()": "f851a440",
					"foo()": "c2985578",
					"implementation()": "5c60da1b",
					"upgrade(address)": "0900f010",
					"words()": "f2c31bd9"
				}
			},
			"storageLayout": {
				"storage": [
					{
						"astId": 51,
						"contract": "contracts/DaiLi/updata.sol:UUPS1",
						"label": "implementation",
						"offset": 0,
						"slot": "0",
						"type": "t_address"
					},
					{
						"astId": 53,
						"contract": "contracts/DaiLi/updata.sol:UUPS1",
						"label": "admin",
						"offset": 0,
						"slot": "1",
						"type": "t_address"
					},
					{
						"astId": 55,
						"contract": "contracts/DaiLi/updata.sol:UUPS1",
						"label": "words",
						"offset": 0,
						"slot": "2",
						"type": "t_string_storage"
					}
				],
				"types": {
					"t_address": {
						"encoding": "inplace",
						"label": "address",
						"numberOfBytes": "20"
					},
					"t_string_storage": {
						"encoding": "bytes",
						"label": "string",
						"numberOfBytes": "32"
					}
				}
			},
			"userdoc": {
				"kind": "user",
				"methods": {},
				"version": 1
			}
		}
	}
}