{
	"contracts/ymii/stake2.sol": {
		"Stake": {
			"abi": [
				{
					"anonymous": false,
					"inputs": [
						{
							"indexed": true,
							"internalType": "address",
							"name": "previousOwner",
							"type": "address"
						},
						{
							"indexed": true,
							"internalType": "address",
							"name": "newOwner",
							"type": "address"
						}
					],
					"name": "OwnershipTransferred",
					"type": "event"
				},
				{
					"inputs": [
						{
							"internalType": "address",
							"name": "",
							"type": "address"
						}
					],
					"name": "_inviteNum",
					"outputs": [
						{
							"internalType": "uint256",
							"name": "",
							"type": "uint256"
						}
					],
					"stateMutability": "view",
					"type": "function"
				},
				{
					"inputs": [
						{
							"internalType": "address",
							"name": "",
							"type": "address"
						}
					],
					"name": "_inviterMap",
					"outputs": [
						{
							"internalType": "address",
							"name": "",
							"type": "address"
						}
					],
					"stateMutability": "view",
					"type": "function"
				},
				{
					"inputs": [
						{
							"internalType": "address",
							"name": "",
							"type": "address"
						}
					],
					"name": "_inviterReward",
					"outputs": [
						{
							"internalType": "uint256",
							"name": "",
							"type": "uint256"
						}
					],
					"stateMutability": "view",
					"type": "function"
				},
				{
					"inputs": [],
					"name": "_lpPriceToken",
					"outputs": [
						{
							"internalType": "address",
							"name": "",
							"type": "address"
						}
					],
					"stateMutability": "view",
					"type": "function"
				},
				{
					"inputs": [],
					"name": "_proportion",
					"outputs": [
						{
							"internalType": "uint256",
							"name": "",
							"type": "uint256"
						}
					],
					"stateMutability": "view",
					"type": "function"
				},
				{
					"inputs": [],
					"name": "_rewardToken",
					"outputs": [
						{
							"internalType": "address",
							"name": "",
							"type": "address"
						}
					],
					"stateMutability": "view",
					"type": "function"
				},
				{
					"inputs": [],
					"name": "_stake1",
					"outputs": [
						{
							"internalType": "uint256",
							"name": "",
							"type": "uint256"
						}
					],
					"stateMutability": "view",
					"type": "function"
				},
				{
					"inputs": [],
					"name": "_stake3",
					"outputs": [
						{
							"internalType": "uint256",
							"name": "",
							"type": "uint256"
						}
					],
					"stateMutability": "view",
					"type": "function"
				},
				{
					"inputs": [],
					"name": "_stake5",
					"outputs": [
						{
							"internalType": "uint256",
							"name": "",
							"type": "uint256"
						}
					],
					"stateMutability": "view",
					"type": "function"
				},
				{
					"inputs": [],
					"name": "_stakeToken",
					"outputs": [
						{
							"internalType": "address",
							"name": "",
							"type": "address"
						}
					],
					"stateMutability": "view",
					"type": "function"
				},
				{
					"inputs": [
						{
							"internalType": "address",
							"name": "",
							"type": "address"
						}
					],
					"name": "_userBlacklist",
					"outputs": [
						{
							"internalType": "bool",
							"name": "",
							"type": "bool"
						}
					],
					"stateMutability": "view",
					"type": "function"
				},
				{
					"inputs": [
						{
							"internalType": "address",
							"name": "",
							"type": "address"
						}
					],
					"name": "_userEndClaimTime",
					"outputs": [
						{
							"internalType": "uint256",
							"name": "",
							"type": "uint256"
						}
					],
					"stateMutability": "view",
					"type": "function"
				},
				{
					"inputs": [
						{
							"internalType": "address",
							"name": "",
							"type": "address"
						}
					],
					"name": "_userLastClaimTime",
					"outputs": [
						{
							"internalType": "uint256",
							"name": "",
							"type": "uint256"
						}
					],
					"stateMutability": "view",
					"type": "function"
				},
				{
					"inputs": [
						{
							"internalType": "address",
							"name": "",
							"type": "address"
						}
					],
					"name": "_userPower",
					"outputs": [
						{
							"internalType": "uint256",
							"name": "",
							"type": "uint256"
						}
					],
					"stateMutability": "view",
					"type": "function"
				},
				{
					"inputs": [
						{
							"internalType": "address",
							"name": "",
							"type": "address"
						}
					],
					"name": "_userStake",
					"outputs": [
						{
							"internalType": "uint256",
							"name": "",
							"type": "uint256"
						}
					],
					"stateMutability": "view",
					"type": "function"
				},
				{
					"inputs": [
						{
							"internalType": "address",
							"name": "",
							"type": "address"
						}
					],
					"name": "_userStakeStartTime",
					"outputs": [
						{
							"internalType": "uint256",
							"name": "",
							"type": "uint256"
						}
					],
					"stateMutability": "view",
					"type": "function"
				},
				{
					"inputs": [
						{
							"internalType": "address",
							"name": "",
							"type": "address"
						}
					],
					"name": "_userStakeTime",
					"outputs": [
						{
							"internalType": "uint256",
							"name": "",
							"type": "uint256"
						}
					],
					"stateMutability": "view",
					"type": "function"
				},
				{
					"inputs": [],
					"name": "cancalStack",
					"outputs": [],
					"stateMutability": "nonpayable",
					"type": "function"
				},
				{
					"inputs": [
						{
							"internalType": "uint256",
							"name": "amount",
							"type": "uint256"
						}
					],
					"name": "cancalStackOver",
					"outputs": [],
					"stateMutability": "nonpayable",
					"type": "function"
				},
				{
					"inputs": [],
					"name": "claimReward",
					"outputs": [],
					"stateMutability": "nonpayable",
					"type": "function"
				},
				{
					"inputs": [],
					"name": "claimStakeReward",
					"outputs": [],
					"stateMutability": "nonpayable",
					"type": "function"
				},
				{
					"inputs": [],
					"name": "isClaimStart",
					"outputs": [
						{
							"internalType": "bool",
							"name": "",
							"type": "bool"
						}
					],
					"stateMutability": "view",
					"type": "function"
				},
				{
					"inputs": [],
					"name": "isStakeStart",
					"outputs": [
						{
							"internalType": "bool",
							"name": "",
							"type": "bool"
						}
					],
					"stateMutability": "view",
					"type": "function"
				},
				{
					"inputs": [],
					"name": "lpPrice",
					"outputs": [
						{
							"internalType": "uint256",
							"name": "",
							"type": "uint256"
						}
					],
					"stateMutability": "view",
					"type": "function"
				},
				{
					"inputs": [],
					"name": "owner",
					"outputs": [
						{
							"internalType": "address",
							"name": "",
							"type": "address"
						}
					],
					"stateMutability": "view",
					"type": "function"
				},
				{
					"inputs": [
						{
							"internalType": "address",
							"name": "user",
							"type": "address"
						},
						{
							"internalType": "uint256",
							"name": "amount",
							"type": "uint256"
						},
						{
							"internalType": "uint256",
							"name": "stakeTime",
							"type": "uint256"
						},
						{
							"internalType": "uint256",
							"name": "stakeStartTime",
							"type": "uint256"
						},
						{
							"internalType": "uint256",
							"name": "userLastClaim",
							"type": "uint256"
						},
						{
							"internalType": "uint256",
							"name": "userPower",
							"type": "uint256"
						},
						{
							"internalType": "uint256",
							"name": "userEndClaimTime",
							"type": "uint256"
						}
					],
					"name": "ownerSetUser",
					"outputs": [],
					"stateMutability": "nonpayable",
					"type": "function"
				},
				{
					"inputs": [
						{
							"internalType": "address",
							"name": "user",
							"type": "address"
						}
					],
					"name": "pureAmount",
					"outputs": [
						{
							"internalType": "uint256",
							"name": "",
							"type": "uint256"
						}
					],
					"stateMutability": "view",
					"type": "function"
				},
				{
					"inputs": [
						{
							"internalType": "uint256",
							"name": "proportion_",
							"type": "uint256"
						}
					],
					"name": "setProportion",
					"outputs": [],
					"stateMutability": "nonpayable",
					"type": "function"
				},
				{
					"inputs": [
						{
							"internalType": "address",
							"name": "token",
							"type": "address"
						}
					],
					"name": "setStakeToken",
					"outputs": [],
					"stateMutability": "nonpayable",
					"type": "function"
				},
				{
					"inputs": [
						{
							"internalType": "bool",
							"name": "stakeStart",
							"type": "bool"
						},
						{
							"internalType": "bool",
							"name": "claimStart",
							"type": "bool"
						}
					],
					"name": "setStatus",
					"outputs": [],
					"stateMutability": "nonpayable",
					"type": "function"
				},
				{
					"inputs": [
						{
							"internalType": "address",
							"name": "user",
							"type": "address"
						}
					],
					"name": "setUserBlacklist",
					"outputs": [],
					"stateMutability": "nonpayable",
					"type": "function"
				},
				{
					"inputs": [
						{
							"internalType": "address",
							"name": "token",
							"type": "address"
						}
					],
					"name": "setlpPriceToken",
					"outputs": [],
					"stateMutability": "nonpayable",
					"type": "function"
				},
				{
					"inputs": [
						{
							"internalType": "uint256",
							"name": "amount",
							"type": "uint256"
						},
						{
							"internalType": "address",
							"name": "inviter",
							"type": "address"
						},
						{
							"internalType": "uint256",
							"name": "time",
							"type": "uint256"
						}
					],
					"name": "stake",
					"outputs": [],
					"stateMutability": "nonpayable",
					"type": "function"
				},
				{
					"inputs": [
						{
							"internalType": "address",
							"name": "newOwner",
							"type": "address"
						}
					],
					"name": "transferOwnership",
					"outputs": [],
					"stateMutability": "nonpayable",
					"type": "function"
				},
				{
					"inputs": [],
					"name": "withdraw",
					"outputs": [],
					"stateMutability": "nonpayable",
					"type": "function"
				}
			],
			"devdoc": {
				"kind": "dev",
				"methods": {},
				"version": 1
			},
			"evm": {
				"assembly": "    /* \"contracts/ymii/stake2.sol\":8687:17662  contract Stake is Ownable {... */\n  mstore(0x40, 0x80)\n    /* \"contracts/ymii/stake2.sol\":8750:8792  0xf1f8e132f0a3F720b3b204D728A8ff316B182258 */\n  0xf1f8e132f0a3f720b3b204d728a8ff316b182258\n    /* \"contracts/ymii/stake2.sol\":8720:8792  address public _rewardToken = 0xf1f8e132f0a3F720b3b204D728A8ff316B182258 */\n  0x01\n  exp(0x0100, 0x00)\n  dup2\n  sload\n  dup2\n  0xffffffffffffffffffffffffffffffffffffffff\n  mul\n  not\n  and\n  swap1\n  dup4\n  0xffffffffffffffffffffffffffffffffffffffff\n  and\n  mul\n  or\n  swap1\n  sstore\n  pop\n    /* \"contracts/ymii/stake2.sol\":8843:8885  0x6b6b2D8166D13b58155b8d454F239AE3691257A6 */\n  0x6b6b2d8166d13b58155b8d454f239ae3691257a6\n    /* \"contracts/ymii/stake2.sol\":8814:8885  address public _stakeToken = 0x6b6b2D8166D13b58155b8d454F239AE3691257A6 */\n  0x02\n  exp(0x0100, 0x00)\n  dup2\n  sload\n  dup2\n  0xffffffffffffffffffffffffffffffffffffffff\n  mul\n  not\n  and\n  swap1\n  dup4\n  0xffffffffffffffffffffffffffffffffffffffff\n  and\n  mul\n  or\n  swap1\n  sstore\n  pop\n    /* \"contracts/ymii/stake2.sol\":8938:8980  0xB1bF470A9720F8d2E49512DbbcCf7180e4Ac4679 */\n  0xb1bf470a9720f8d2e49512dbbccf7180e4ac4679\n    /* \"contracts/ymii/stake2.sol\":8907:8980  address public _lpPriceToken = 0xB1bF470A9720F8d2E49512DbbcCf7180e4Ac4679 */\n  0x03\n  exp(0x0100, 0x00)\n  dup2\n  sload\n  dup2\n  0xffffffffffffffffffffffffffffffffffffffff\n  mul\n  not\n  and\n  swap1\n  dup4\n  0xffffffffffffffffffffffffffffffffffffffff\n  and\n  mul\n  or\n  swap1\n  sstore\n  pop\n    /* \"contracts/ymii/stake2.sol\":9217:9234  24 hours * 30 * 1 */\n  0x278d00\n    /* \"contracts/ymii/stake2.sol\":9192:9234  uint256 public _stake1 = 24 hours * 30 * 1 */\n  0x04\n  sstore\n    /* \"contracts/ymii/stake2.sol\":9279:9296  24 hours * 30 * 3 */\n  0x76a700\n    /* \"contracts/ymii/stake2.sol\":9254:9296  uint256 public _stake3 = 24 hours * 30 * 3 */\n  0x05\n  sstore\n    /* \"contracts/ymii/stake2.sol\":9341:9358  24 hours * 30 * 5 */\n  0xc5c100\n    /* \"contracts/ymii/stake2.sol\":9316:9358  uint256 public _stake5 = 24 hours * 30 * 5 */\n  0x06\n  sstore\n    /* \"contracts/ymii/stake2.sol\":9409:9413  1000 */\n  0x03e8\n    /* \"contracts/ymii/stake2.sol\":9380:9413  uint256 public _proportion = 1000 */\n  0x07\n  sstore\n    /* \"contracts/ymii/stake2.sol\":9676:9680  true */\n  0x01\n    /* \"contracts/ymii/stake2.sol\":9649:9680  bool public isStakeStart = true */\n  0x0b\n  exp(0x0100, 0x00)\n  dup2\n  sload\n  dup2\n  0xff\n  mul\n  not\n  and\n  swap1\n  dup4\n  iszero\n  iszero\n  mul\n  or\n  swap1\n  sstore\n  pop\n    /* \"contracts/ymii/stake2.sol\":9735:9739  true */\n  0x01\n    /* \"contracts/ymii/stake2.sol\":9708:9739  bool public isClaimStart = true */\n  0x0b\n  exp(0x0100, 0x01)\n  dup2\n  sload\n  dup2\n  0xff\n  mul\n  not\n  and\n  swap1\n  dup4\n  iszero\n  iszero\n  mul\n  or\n  swap1\n  sstore\n  pop\n    /* \"contracts/ymii/stake2.sol\":8687:17662  contract Stake is Ownable {... */\n  callvalue\n  dup1\n  iszero\n  tag_1\n  jumpi\n  0x00\n  dup1\n  revert\ntag_1:\n  pop\n    /* \"contracts/ymii/stake2.sol\":1320:1337  address msgSender */\n  0x00\n    /* \"contracts/ymii/stake2.sol\":1340:1350  msg.sender */\n  caller\n    /* \"contracts/ymii/stake2.sol\":1320:1350  address msgSender = msg.sender */\n  swap1\n  pop\n    /* \"contracts/ymii/stake2.sol\":1370:1379  msgSender */\n  dup1\n    /* \"contracts/ymii/stake2.sol\":1361:1367  _owner */\n  0x00\n  dup1\n    /* \"contracts/ymii/stake2.sol\":1361:1379  _owner = msgSender */\n  0x0100\n  exp\n  dup2\n  sload\n  dup2\n  0xffffffffffffffffffffffffffffffffffffffff\n  mul\n  not\n  and\n  swap1\n  dup4\n  0xffffffffffffffffffffffffffffffffffffffff\n  and\n  mul\n  or\n  swap1\n  sstore\n  pop\n    /* \"contracts/ymii/stake2.sol\":1428:1437  msgSender */\n  dup1\n    /* \"contracts/ymii/stake2.sol\":1395:1438  OwnershipTransferred(address(0), msgSender) */\n  0xffffffffffffffffffffffffffffffffffffffff\n  and\n    /* \"contracts/ymii/stake2.sol\":1424:1425  0 */\n  0x00\n    /* \"contracts/ymii/stake2.sol\":1395:1438  OwnershipTransferred(address(0), msgSender) */\n  0xffffffffffffffffffffffffffffffffffffffff\n  and\n  0x8be0079c531659141344cd1fd0a4f28419497f9722a3daafe3b4186f6b6457e0\n  mload(0x40)\n  mload(0x40)\n  dup1\n  swap2\n  sub\n  swap1\n  log3\n    /* \"contracts/ymii/stake2.sol\":1309:1446  {... */\n  pop\n    /* \"contracts/ymii/stake2.sol\":8687:17662  contract Stake is Ownable {... */\n  dataSize(sub_0)\n  dup1\n  dataOffset(sub_0)\n  0x00\n  codecopy\n  0x00\n  return\nstop\n\nsub_0: assembly {\n        /* \"contracts/ymii/stake2.sol\":8687:17662  contract Stake is Ownable {... */\n      mstore(0x40, 0x80)\n      callvalue\n      dup1\n      iszero\n      tag_1\n      jumpi\n      0x00\n      dup1\n      revert\n    tag_1:\n      pop\n      jumpi(tag_2, lt(calldatasize, 0x04))\n      shr(0xe0, calldataload(0x00))\n      dup1\n      0x853e03e5\n      gt\n      tag_38\n      jumpi\n      dup1\n      0xb88a802f\n      gt\n      tag_39\n      jumpi\n      dup1\n      0xe53595ed\n      gt\n      tag_40\n      jumpi\n      dup1\n      0xe53595ed\n      eq\n      tag_33\n      jumpi\n      dup1\n      0xe61ee218\n      eq\n      tag_34\n      jumpi\n      dup1\n      0xe650d293\n      eq\n      tag_35\n      jumpi\n      dup1\n      0xf2fde38b\n      eq\n      tag_36\n      jumpi\n      dup1\n      0xf3ef99bc\n      eq\n      tag_37\n      jumpi\n      jump(tag_2)\n    tag_40:\n      dup1\n      0xb88a802f\n      eq\n      tag_29\n      jumpi\n      dup1\n      0xbef4533c\n      eq\n      tag_30\n      jumpi\n      dup1\n      0xd02da761\n      eq\n      tag_31\n      jumpi\n      dup1\n      0xdd8158e0\n      eq\n      tag_32\n      jumpi\n      jump(tag_2)\n    tag_39:\n      dup1\n      0x9fd3af8b\n      gt\n      tag_41\n      jumpi\n      dup1\n      0x9fd3af8b\n      eq\n      tag_24\n      jumpi\n      dup1\n      0xa041e172\n      eq\n      tag_25\n      jumpi\n      dup1\n      0xa6b14d5a\n      eq\n      tag_26\n      jumpi\n      dup1\n      0xb3c2eac1\n      eq\n      tag_27\n      jumpi\n      dup1\n      0xb59c6e0e\n      eq\n      tag_28\n      jumpi\n      jump(tag_2)\n    tag_41:\n      dup1\n      0x853e03e5\n      eq\n      tag_20\n      jumpi\n      dup1\n      0x8da5cb5b\n      eq\n      tag_21\n      jumpi\n      dup1\n      0x91f6963c\n      eq\n      tag_22\n      jumpi\n      dup1\n      0x9805fa74\n      eq\n      tag_23\n      jumpi\n      jump(tag_2)\n    tag_38:\n      dup1\n      0x264edc1d\n      gt\n      tag_42\n      jumpi\n      dup1\n      0x6d37b382\n      gt\n      tag_43\n      jumpi\n      dup1\n      0x6d37b382\n      eq\n      tag_15\n      jumpi\n      dup1\n      0x6e9c931c\n      eq\n      tag_16\n      jumpi\n      dup1\n      0x71ddda57\n      eq\n      tag_17\n      jumpi\n      dup1\n      0x7929e29f\n      eq\n      tag_18\n      jumpi\n      dup1\n      0x7d4cbd57\n      eq\n      tag_19\n      jumpi\n      jump(tag_2)\n    tag_43:\n      dup1\n      0x264edc1d\n      eq\n      tag_11\n      jumpi\n      dup1\n      0x29dc425f\n      eq\n      tag_12\n      jumpi\n      dup1\n      0x2eae667d\n      eq\n      tag_13\n      jumpi\n      dup1\n      0x3ccfd60b\n      eq\n      tag_14\n      jumpi\n      jump(tag_2)\n    tag_42:\n      dup1\n      0x115a972e\n      gt\n      tag_44\n      jumpi\n      dup1\n      0x115a972e\n      eq\n      tag_7\n      jumpi\n      dup1\n      0x16c259e1\n      eq\n      tag_8\n      jumpi\n      dup1\n      0x18883877\n      eq\n      tag_9\n      jumpi\n      dup1\n      0x1896b2c4\n      eq\n      tag_10\n      jumpi\n      jump(tag_2)\n    tag_44:\n      dup1\n      0x6cd200\n      eq\n      tag_3\n      jumpi\n      dup1\n      0x0356c98f\n      eq\n      tag_4\n      jumpi\n      dup1\n      0x0397d458\n      eq\n      tag_5\n      jumpi\n      dup1\n      0x0c280444\n      eq\n      tag_6\n      jumpi\n    tag_2:\n      0x00\n      dup1\n      revert\n        /* \"contracts/ymii/stake2.sol\":10500:10605  function setProportion(uint256 proportion_) public onlyOwner {... */\n    tag_3:\n      tag_45\n      0x04\n      dup1\n      calldatasize\n      sub\n      dup2\n      add\n      swap1\n      tag_46\n      swap2\n      swap1\n      tag_47\n      jump\t// in\n    tag_46:\n      tag_48\n      jump\t// in\n    tag_45:\n      stop\n        /* \"contracts/ymii/stake2.sol\":10106:10158  mapping(address => uint256) public _userEndClaimTime */\n    tag_4:\n      tag_49\n      0x04\n      dup1\n      calldatasize\n      sub\n      dup2\n      add\n      swap1\n      tag_50\n      swap2\n      swap1\n      tag_51\n      jump\t// in\n    tag_50:\n      tag_52\n      jump\t// in\n    tag_49:\n      mload(0x40)\n      tag_53\n      swap2\n      swap1\n      tag_54\n      jump\t// in\n    tag_53:\n      mload(0x40)\n      dup1\n      swap2\n      sub\n      swap1\n      return\n        /* \"contracts/ymii/stake2.sol\":10788:10881  function setStakeToken(address token) public onlyOwner {... */\n    tag_5:\n      tag_55\n      0x04\n      dup1\n      calldatasize\n      sub\n      dup2\n      add\n      swap1\n      tag_56\n      swap2\n      swap1\n      tag_51\n      jump\t// in\n    tag_56:\n      tag_57\n      jump\t// in\n    tag_55:\n      stop\n        /* \"contracts/ymii/stake2.sol\":16991:17223  function lpPrice() public view returns (uint256) {        ... */\n    tag_6:\n      tag_58\n      tag_59\n      jump\t// in\n    tag_58:\n      mload(0x40)\n      tag_60\n      swap2\n      swap1\n      tag_54\n      jump\t// in\n    tag_60:\n      mload(0x40)\n      dup1\n      swap2\n      sub\n      swap1\n      return\n        /* \"contracts/ymii/stake2.sol\":10255:10301  mapping(address => bool) public _userBlacklist */\n    tag_7:\n      tag_61\n      0x04\n      dup1\n      calldatasize\n      sub\n      dup2\n      add\n      swap1\n      tag_62\n      swap2\n      swap1\n      tag_51\n      jump\t// in\n    tag_62:\n      tag_63\n      jump\t// in\n    tag_61:\n      mload(0x40)\n      tag_64\n      swap2\n      swap1\n      tag_65\n      jump\t// in\n    tag_64:\n      mload(0x40)\n      dup1\n      swap2\n      sub\n      swap1\n      return\n        /* \"contracts/ymii/stake2.sol\":9925:9979  mapping(address => uint256) public _userStakeStartTime */\n    tag_8:\n      tag_66\n      0x04\n      dup1\n      calldatasize\n      sub\n      dup2\n      add\n      swap1\n      tag_67\n      swap2\n      swap1\n      tag_51\n      jump\t// in\n    tag_67:\n      tag_68\n      jump\t// in\n    tag_66:\n      mload(0x40)\n      tag_69\n      swap2\n      swap1\n      tag_54\n      jump\t// in\n    tag_69:\n      mload(0x40)\n      dup1\n      swap2\n      sub\n      swap1\n      return\n        /* \"contracts/ymii/stake2.sol\":9316:9358  uint256 public _stake5 = 24 hours * 30 * 5 */\n    tag_9:\n      tag_70\n      tag_71\n      jump\t// in\n    tag_70:\n      mload(0x40)\n      tag_72\n      swap2\n      swap1\n      tag_54\n      jump\t// in\n    tag_72:\n      mload(0x40)\n      dup1\n      swap2\n      sub\n      swap1\n      return\n        /* \"contracts/ymii/stake2.sol\":9580:9625  mapping(address => uint256) public _inviteNum */\n    tag_10:\n      tag_73\n      0x04\n      dup1\n      calldatasize\n      sub\n      dup2\n      add\n      swap1\n      tag_74\n      swap2\n      swap1\n      tag_51\n      jump\t// in\n    tag_74:\n      tag_75\n      jump\t// in\n    tag_73:\n      mload(0x40)\n      tag_76\n      swap2\n      swap1\n      tag_54\n      jump\t// in\n    tag_76:\n      mload(0x40)\n      dup1\n      swap2\n      sub\n      swap1\n      return\n        /* \"contracts/ymii/stake2.sol\":9441:9487  mapping(address => address) public _inviterMap */\n    tag_11:\n      tag_77\n      0x04\n      dup1\n      calldatasize\n      sub\n      dup2\n      add\n      swap1\n      tag_78\n      swap2\n      swap1\n      tag_51\n      jump\t// in\n    tag_78:\n      tag_79\n      jump\t// in\n    tag_77:\n      mload(0x40)\n      tag_80\n      swap2\n      swap1\n      tag_81\n      jump\t// in\n    tag_80:\n      mload(0x40)\n      dup1\n      swap2\n      sub\n      swap1\n      return\n        /* \"contracts/ymii/stake2.sol\":15173:16254  function pureAmount(address user) public view returns (uint256) {... */\n    tag_12:\n      tag_82\n      0x04\n      dup1\n      calldatasize\n      sub\n      dup2\n      add\n      swap1\n      tag_83\n      swap2\n      swap1\n      tag_51\n      jump\t// in\n    tag_83:\n      tag_84\n      jump\t// in\n    tag_82:\n      mload(0x40)\n      tag_85\n      swap2\n      swap1\n      tag_54\n      jump\t// in\n    tag_85:\n      mload(0x40)\n      dup1\n      swap2\n      sub\n      swap1\n      return\n        /* \"contracts/ymii/stake2.sol\":9380:9413  uint256 public _proportion = 1000 */\n    tag_13:\n      tag_86\n      tag_87\n      jump\t// in\n    tag_86:\n      mload(0x40)\n      tag_88\n      swap2\n      swap1\n      tag_54\n      jump\t// in\n    tag_88:\n      mload(0x40)\n      dup1\n      swap2\n      sub\n      swap1\n      return\n        /* \"contracts/ymii/stake2.sol\":16282:16391  function withdraw() external onlyOwner {... */\n    tag_14:\n      tag_89\n      tag_90\n      jump\t// in\n    tag_89:\n      stop\n        /* \"contracts/ymii/stake2.sol\":10370:10467  function setlpPriceToken(address token) public onlyOwner {... */\n    tag_15:\n      tag_91\n      0x04\n      dup1\n      calldatasize\n      sub\n      dup2\n      add\n      swap1\n      tag_92\n      swap2\n      swap1\n      tag_51\n      jump\t// in\n    tag_92:\n      tag_93\n      jump\t// in\n    tag_91:\n      stop\n        /* \"contracts/ymii/stake2.sol\":11083:13691  function stake(... */\n    tag_16:\n      tag_94\n      0x04\n      dup1\n      calldatasize\n      sub\n      dup2\n      add\n      swap1\n      tag_95\n      swap2\n      swap1\n      tag_96\n      jump\t// in\n    tag_95:\n      tag_97\n      jump\t// in\n    tag_94:\n      stop\n        /* \"contracts/ymii/stake2.sol\":8814:8885  address public _stakeToken = 0x6b6b2D8166D13b58155b8d454F239AE3691257A6 */\n    tag_17:\n      tag_98\n      tag_99\n      jump\t// in\n    tag_98:\n      mload(0x40)\n      tag_100\n      swap2\n      swap1\n      tag_81\n      jump\t// in\n    tag_100:\n      mload(0x40)\n      dup1\n      swap2\n      sub\n      swap1\n      return\n        /* \"contracts/ymii/stake2.sol\":10013:10066  mapping(address => uint256) public _userLastClaimTime */\n    tag_18:\n      tag_101\n      0x04\n      dup1\n      calldatasize\n      sub\n      dup2\n      add\n      swap1\n      tag_102\n      swap2\n      swap1\n      tag_51\n      jump\t// in\n    tag_102:\n      tag_103\n      jump\t// in\n    tag_101:\n      mload(0x40)\n      tag_104\n      swap2\n      swap1\n      tag_54\n      jump\t// in\n    tag_104:\n      mload(0x40)\n      dup1\n      swap2\n      sub\n      swap1\n      return\n        /* \"contracts/ymii/stake2.sol\":10634:10754  function setUserBlacklist(address user) public onlyOwner {... */\n    tag_19:\n      tag_105\n      0x04\n      dup1\n      calldatasize\n      sub\n      dup2\n      add\n      swap1\n      tag_106\n      swap2\n      swap1\n      tag_51\n      jump\t// in\n    tag_106:\n      tag_107\n      jump\t// in\n    tag_105:\n      stop\n        /* \"contracts/ymii/stake2.sol\":9254:9296  uint256 public _stake3 = 24 hours * 30 * 3 */\n    tag_20:\n      tag_108\n      tag_109\n      jump\t// in\n    tag_108:\n      mload(0x40)\n      tag_110\n      swap2\n      swap1\n      tag_54\n      jump\t// in\n    tag_110:\n      mload(0x40)\n      dup1\n      swap2\n      sub\n      swap1\n      return\n        /* \"contracts/ymii/stake2.sol\":1454:1533  function owner() public view returns (address) {... */\n    tag_21:\n      tag_111\n      tag_112\n      jump\t// in\n    tag_111:\n      mload(0x40)\n      tag_113\n      swap2\n      swap1\n      tag_81\n      jump\t// in\n    tag_113:\n      mload(0x40)\n      dup1\n      swap2\n      sub\n      swap1\n      return\n        /* \"contracts/ymii/stake2.sol\":17265:17659  function cancalStackOver(uint256 amount) public onlyOwner{      ... */\n    tag_22:\n      tag_114\n      0x04\n      dup1\n      calldatasize\n      sub\n      dup2\n      add\n      swap1\n      tag_115\n      swap2\n      swap1\n      tag_47\n      jump\t// in\n    tag_115:\n      tag_116\n      jump\t// in\n    tag_114:\n      stop\n        /* \"contracts/ymii/stake2.sol\":9775:9820  mapping(address => uint256) public _userStake */\n    tag_23:\n      tag_117\n      0x04\n      dup1\n      calldatasize\n      sub\n      dup2\n      add\n      swap1\n      tag_118\n      swap2\n      swap1\n      tag_51\n      jump\t// in\n    tag_118:\n      tag_119\n      jump\t// in\n    tag_117:\n      mload(0x40)\n      tag_120\n      swap2\n      swap1\n      tag_54\n      jump\t// in\n    tag_120:\n      mload(0x40)\n      dup1\n      swap2\n      sub\n      swap1\n      return\n        /* \"contracts/ymii/stake2.sol\":14598:15139  function claimStakeReward() public {... */\n    tag_24:\n      tag_121\n      tag_122\n      jump\t// in\n    tag_121:\n      stop\n        /* \"contracts/ymii/stake2.sol\":9848:9897  mapping(address => uint256) public _userStakeTime */\n    tag_25:\n      tag_123\n      0x04\n      dup1\n      calldatasize\n      sub\n      dup2\n      add\n      swap1\n      tag_124\n      swap2\n      swap1\n      tag_51\n      jump\t// in\n    tag_124:\n      tag_125\n      jump\t// in\n    tag_123:\n      mload(0x40)\n      tag_126\n      swap2\n      swap1\n      tag_54\n      jump\t// in\n    tag_126:\n      mload(0x40)\n      dup1\n      swap2\n      sub\n      swap1\n      return\n        /* \"contracts/ymii/stake2.sol\":9192:9234  uint256 public _stake1 = 24 hours * 30 * 1 */\n    tag_26:\n      tag_127\n      tag_128\n      jump\t// in\n    tag_127:\n      mload(0x40)\n      tag_129\n      swap2\n      swap1\n      tag_54\n      jump\t// in\n    tag_129:\n      mload(0x40)\n      dup1\n      swap2\n      sub\n      swap1\n      return\n        /* \"contracts/ymii/stake2.sol\":10909:11059  function setStatus(bool stakeStart, bool claimStart) public onlyOwner {... */\n    tag_27:\n      tag_130\n      0x04\n      dup1\n      calldatasize\n      sub\n      dup2\n      add\n      swap1\n      tag_131\n      swap2\n      swap1\n      tag_132\n      jump\t// in\n    tag_131:\n      tag_133\n      jump\t// in\n    tag_130:\n      stop\n        /* \"contracts/ymii/stake2.sol\":8720:8792  address public _rewardToken = 0xf1f8e132f0a3F720b3b204D728A8ff316B182258 */\n    tag_28:\n      tag_134\n      tag_135\n      jump\t// in\n    tag_134:\n      mload(0x40)\n      tag_136\n      swap2\n      swap1\n      tag_81\n      jump\t// in\n    tag_136:\n      mload(0x40)\n      dup1\n      swap2\n      sub\n      swap1\n      return\n        /* \"contracts/ymii/stake2.sol\":13725:13992  function claimReward() public {... */\n    tag_29:\n      tag_137\n      tag_138\n      jump\t// in\n    tag_137:\n      stop\n        /* \"contracts/ymii/stake2.sol\":10180:10225  mapping(address => uint256) public _userPower */\n    tag_30:\n      tag_139\n      0x04\n      dup1\n      calldatasize\n      sub\n      dup2\n      add\n      swap1\n      tag_140\n      swap2\n      swap1\n      tag_51\n      jump\t// in\n    tag_140:\n      tag_141\n      jump\t// in\n    tag_139:\n      mload(0x40)\n      tag_142\n      swap2\n      swap1\n      tag_54\n      jump\t// in\n    tag_142:\n      mload(0x40)\n      dup1\n      swap2\n      sub\n      swap1\n      return\n        /* \"contracts/ymii/stake2.sol\":14026:14564  function cancalStack() public {... */\n    tag_31:\n      tag_143\n      tag_144\n      jump\t// in\n    tag_143:\n      stop\n        /* \"contracts/ymii/stake2.sol\":9506:9555  mapping(address => uint256) public _inviterReward */\n    tag_32:\n      tag_145\n      0x04\n      dup1\n      calldatasize\n      sub\n      dup2\n      add\n      swap1\n      tag_146\n      swap2\n      swap1\n      tag_51\n      jump\t// in\n    tag_146:\n      tag_147\n      jump\t// in\n    tag_145:\n      mload(0x40)\n      tag_148\n      swap2\n      swap1\n      tag_54\n      jump\t// in\n    tag_148:\n      mload(0x40)\n      dup1\n      swap2\n      sub\n      swap1\n      return\n        /* \"contracts/ymii/stake2.sol\":8907:8980  address public _lpPriceToken = 0xB1bF470A9720F8d2E49512DbbcCf7180e4Ac4679 */\n    tag_33:\n      tag_149\n      tag_150\n      jump\t// in\n    tag_149:\n      mload(0x40)\n      tag_151\n      swap2\n      swap1\n      tag_81\n      jump\t// in\n    tag_151:\n      mload(0x40)\n      dup1\n      swap2\n      sub\n      swap1\n      return\n        /* \"contracts/ymii/stake2.sol\":16432:16965  function ownerSetUser(... */\n    tag_34:\n      tag_152\n      0x04\n      dup1\n      calldatasize\n      sub\n      dup2\n      add\n      swap1\n      tag_153\n      swap2\n      swap1\n      tag_154\n      jump\t// in\n    tag_153:\n      tag_155\n      jump\t// in\n    tag_152:\n      stop\n        /* \"contracts/ymii/stake2.sol\":9708:9739  bool public isClaimStart = true */\n    tag_35:\n      tag_156\n      tag_157\n      jump\t// in\n    tag_156:\n      mload(0x40)\n      tag_158\n      swap2\n      swap1\n      tag_65\n      jump\t// in\n    tag_158:\n      mload(0x40)\n      dup1\n      swap2\n      sub\n      swap1\n      return\n        /* \"contracts/ymii/stake2.sol\":1662:1876  function transferOwnership(address newOwner) public virtual onlyOwner {... */\n    tag_36:\n      tag_159\n      0x04\n      dup1\n      calldatasize\n      sub\n      dup2\n      add\n      swap1\n      tag_160\n      swap2\n      swap1\n      tag_51\n      jump\t// in\n    tag_160:\n      tag_161\n      jump\t// in\n    tag_159:\n      stop\n        /* \"contracts/ymii/stake2.sol\":9649:9680  bool public isStakeStart = true */\n    tag_37:\n      tag_162\n      tag_163\n      jump\t// in\n    tag_162:\n      mload(0x40)\n      tag_164\n      swap2\n      swap1\n      tag_65\n      jump\t// in\n    tag_164:\n      mload(0x40)\n      dup1\n      swap2\n      sub\n      swap1\n      return\n        /* \"contracts/ymii/stake2.sol\":10500:10605  function setProportion(uint256 proportion_) public onlyOwner {... */\n    tag_48:\n        /* \"contracts/ymii/stake2.sol\":1591:1601  msg.sender */\n      caller\n        /* \"contracts/ymii/stake2.sol\":1581:1601  _owner == msg.sender */\n      0xffffffffffffffffffffffffffffffffffffffff\n      and\n        /* \"contracts/ymii/stake2.sol\":1581:1587  _owner */\n      0x00\n      dup1\n      sload\n      swap1\n      0x0100\n      exp\n      swap1\n      div\n      0xffffffffffffffffffffffffffffffffffffffff\n      and\n        /* \"contracts/ymii/stake2.sol\":1581:1601  _owner == msg.sender */\n      0xffffffffffffffffffffffffffffffffffffffff\n      and\n      eq\n        /* \"contracts/ymii/stake2.sol\":1581:1623  _owner == msg.sender||_owner == msg.sender */\n      dup1\n      tag_166\n      jumpi\n      pop\n        /* \"contracts/ymii/stake2.sol\":1613:1623  msg.sender */\n      caller\n        /* \"contracts/ymii/stake2.sol\":1603:1623  _owner == msg.sender */\n      0xffffffffffffffffffffffffffffffffffffffff\n      and\n        /* \"contracts/ymii/stake2.sol\":1603:1609  _owner */\n      0x00\n      dup1\n      sload\n      swap1\n      0x0100\n      exp\n      swap1\n      div\n      0xffffffffffffffffffffffffffffffffffffffff\n      and\n        /* \"contracts/ymii/stake2.sol\":1603:1623  _owner == msg.sender */\n      0xffffffffffffffffffffffffffffffffffffffff\n      and\n      eq\n        /* \"contracts/ymii/stake2.sol\":1581:1623  _owner == msg.sender||_owner == msg.sender */\n    tag_166:\n        /* \"contracts/ymii/stake2.sol\":1573:1634  require(_owner == msg.sender||_owner == msg.sender, \"!owner\") */\n      tag_167\n      jumpi\n      mload(0x40)\n      0x08c379a000000000000000000000000000000000000000000000000000000000\n      dup2\n      mstore\n      0x04\n      add\n      tag_168\n      swap1\n      tag_169\n      jump\t// in\n    tag_168:\n      mload(0x40)\n      dup1\n      swap2\n      sub\n      swap1\n      revert\n    tag_167:\n        /* \"contracts/ymii/stake2.sol\":10586:10597  proportion_ */\n      dup1\n        /* \"contracts/ymii/stake2.sol\":10572:10583  _proportion */\n      0x07\n        /* \"contracts/ymii/stake2.sol\":10572:10597  _proportion = proportion_ */\n      dup2\n      swap1\n      sstore\n      pop\n        /* \"contracts/ymii/stake2.sol\":10500:10605  function setProportion(uint256 proportion_) public onlyOwner {... */\n      pop\n      jump\t// out\n        /* \"contracts/ymii/stake2.sol\":10106:10158  mapping(address => uint256) public _userEndClaimTime */\n    tag_52:\n      mstore(0x20, 0x10)\n      dup1\n      0x00\n      mstore\n      keccak256(0x00, 0x40)\n      0x00\n      swap2\n      pop\n      swap1\n      pop\n      sload\n      dup2\n      jump\t// out\n        /* \"contracts/ymii/stake2.sol\":10788:10881  function setStakeToken(address token) public onlyOwner {... */\n    tag_57:\n        /* \"contracts/ymii/stake2.sol\":1591:1601  msg.sender */\n      caller\n        /* \"contracts/ymii/stake2.sol\":1581:1601  _owner == msg.sender */\n      0xffffffffffffffffffffffffffffffffffffffff\n      and\n        /* \"contracts/ymii/stake2.sol\":1581:1587  _owner */\n      0x00\n      dup1\n      sload\n      swap1\n      0x0100\n      exp\n      swap1\n      div\n      0xffffffffffffffffffffffffffffffffffffffff\n      and\n        /* \"contracts/ymii/stake2.sol\":1581:1601  _owner == msg.sender */\n      0xffffffffffffffffffffffffffffffffffffffff\n      and\n      eq\n        /* \"contracts/ymii/stake2.sol\":1581:1623  _owner == msg.sender||_owner == msg.sender */\n      dup1\n      tag_172\n      jumpi\n      pop\n        /* \"contracts/ymii/stake2.sol\":1613:1623  msg.sender */\n      caller\n        /* \"contracts/ymii/stake2.sol\":1603:1623  _owner == msg.sender */\n      0xffffffffffffffffffffffffffffffffffffffff\n      and\n        /* \"contracts/ymii/stake2.sol\":1603:1609  _owner */\n      0x00\n      dup1\n      sload\n      swap1\n      0x0100\n      exp\n      swap1\n      div\n      0xffffffffffffffffffffffffffffffffffffffff\n      and\n        /* \"contracts/ymii/stake2.sol\":1603:1623  _owner == msg.sender */\n      0xffffffffffffffffffffffffffffffffffffffff\n      and\n      eq\n        /* \"contracts/ymii/stake2.sol\":1581:1623  _owner == msg.sender||_owner == msg.sender */\n    tag_172:\n        /* \"contracts/ymii/stake2.sol\":1573:1634  require(_owner == msg.sender||_owner == msg.sender, \"!owner\") */\n      tag_173\n      jumpi\n      mload(0x40)\n      0x08c379a000000000000000000000000000000000000000000000000000000000\n      dup2\n      mstore\n      0x04\n      add\n      tag_174\n      swap1\n      tag_169\n      jump\t// in\n    tag_174:\n      mload(0x40)\n      dup1\n      swap2\n      sub\n      swap1\n      revert\n    tag_173:\n        /* \"contracts/ymii/stake2.sol\":10868:10873  token */\n      dup1\n        /* \"contracts/ymii/stake2.sol\":10854:10865  _stakeToken */\n      0x02\n      0x00\n        /* \"contracts/ymii/stake2.sol\":10854:10873  _stakeToken = token */\n      0x0100\n      exp\n      dup2\n      sload\n      dup2\n      0xffffffffffffffffffffffffffffffffffffffff\n      mul\n      not\n      and\n      swap1\n      dup4\n      0xffffffffffffffffffffffffffffffffffffffff\n      and\n      mul\n      or\n      swap1\n      sstore\n      pop\n        /* \"contracts/ymii/stake2.sol\":10788:10881  function setStakeToken(address token) public onlyOwner {... */\n      pop\n      jump\t// out\n        /* \"contracts/ymii/stake2.sol\":16991:17223  function lpPrice() public view returns (uint256) {        ... */\n    tag_59:\n        /* \"contracts/ymii/stake2.sol\":17031:17038  uint256 */\n      0x00\n        /* \"contracts/ymii/stake2.sol\":17059:17072  uint256 price */\n      dup1\n        /* \"contracts/ymii/stake2.sol\":17080:17093  _lpPriceToken */\n      0x03\n      0x00\n      swap1\n      sload\n      swap1\n      0x0100\n      exp\n      swap1\n      div\n      0xffffffffffffffffffffffffffffffffffffffff\n      and\n        /* \"contracts/ymii/stake2.sol\":17073:17102  stake1(_lpPriceToken).lpPrice */\n      0xffffffffffffffffffffffffffffffffffffffff\n      and\n      0x0c280444\n        /* \"contracts/ymii/stake2.sol\":17073:17104  stake1(_lpPriceToken).lpPrice() */\n      mload(0x40)\n      dup2\n      0xffffffff\n      and\n      0xe0\n      shl\n      dup2\n      mstore\n      0x04\n      add\n      0x20\n      mload(0x40)\n      dup1\n      dup4\n      sub\n      dup2\n      dup7\n      gas\n      staticcall\n      iszero\n      dup1\n      iszero\n      tag_178\n      jumpi\n      returndatasize\n      0x00\n      dup1\n      returndatacopy\n      revert(0x00, returndatasize)\n    tag_178:\n      pop\n      pop\n      pop\n      pop\n      mload(0x40)\n      returndatasize\n      not(0x1f)\n      0x1f\n      dup3\n      add\n      and\n      dup3\n      add\n      dup1\n      0x40\n      mstore\n      pop\n      dup2\n      add\n      swap1\n      tag_179\n      swap2\n      swap1\n      tag_180\n      jump\t// in\n    tag_179:\n        /* \"contracts/ymii/stake2.sol\":17059:17104  uint256 price=stake1(_lpPriceToken).lpPrice() */\n      swap1\n      pop\n        /* \"contracts/ymii/stake2.sol\":17210:17215  price */\n      dup1\n        /* \"contracts/ymii/stake2.sol\":17203:17215  return price */\n      swap2\n      pop\n      pop\n        /* \"contracts/ymii/stake2.sol\":16991:17223  function lpPrice() public view returns (uint256) {        ... */\n      swap1\n      jump\t// out\n        /* \"contracts/ymii/stake2.sol\":10255:10301  mapping(address => bool) public _userBlacklist */\n    tag_63:\n      mstore(0x20, 0x12)\n      dup1\n      0x00\n      mstore\n      keccak256(0x00, 0x40)\n      0x00\n      swap2\n      pop\n      sload\n      swap1\n      0x0100\n      exp\n      swap1\n      div\n      0xff\n      and\n      dup2\n      jump\t// out\n        /* \"contracts/ymii/stake2.sol\":9925:9979  mapping(address => uint256) public _userStakeStartTime */\n    tag_68:\n      mstore(0x20, 0x0e)\n      dup1\n      0x00\n      mstore\n      keccak256(0x00, 0x40)\n      0x00\n      swap2\n      pop\n      swap1\n      pop\n      sload\n      dup2\n      jump\t// out\n        /* \"contracts/ymii/stake2.sol\":9316:9358  uint256 public _stake5 = 24 hours * 30 * 5 */\n    tag_71:\n      sload(0x06)\n      dup2\n      jump\t// out\n        /* \"contracts/ymii/stake2.sol\":9580:9625  mapping(address => uint256) public _inviteNum */\n    tag_75:\n      mstore(0x20, 0x0a)\n      dup1\n      0x00\n      mstore\n      keccak256(0x00, 0x40)\n      0x00\n      swap2\n      pop\n      swap1\n      pop\n      sload\n      dup2\n      jump\t// out\n        /* \"contracts/ymii/stake2.sol\":9441:9487  mapping(address => address) public _inviterMap */\n    tag_79:\n      mstore(0x20, 0x08)\n      dup1\n      0x00\n      mstore\n      keccak256(0x00, 0x40)\n      0x00\n      swap2\n      pop\n      sload\n      swap1\n      0x0100\n      exp\n      swap1\n      div\n      0xffffffffffffffffffffffffffffffffffffffff\n      and\n      dup2\n      jump\t// out\n        /* \"contracts/ymii/stake2.sol\":15173:16254  function pureAmount(address user) public view returns (uint256) {... */\n    tag_84:\n        /* \"contracts/ymii/stake2.sol\":15228:15235  uint256 */\n      0x00\n        /* \"contracts/ymii/stake2.sol\":15248:15270  uint256 stakeTotalTime */\n      dup1\n        /* \"contracts/ymii/stake2.sol\":15340:15358  _userLastClaimTime */\n      0x0f\n        /* \"contracts/ymii/stake2.sol\":15340:15364  _userLastClaimTime[user] */\n      0x00\n        /* \"contracts/ymii/stake2.sol\":15359:15363  user */\n      dup5\n        /* \"contracts/ymii/stake2.sol\":15340:15364  _userLastClaimTime[user] */\n      0xffffffffffffffffffffffffffffffffffffffff\n      and\n      0xffffffffffffffffffffffffffffffffffffffff\n      and\n      dup2\n      mstore\n      0x20\n      add\n      swap1\n      dup2\n      mstore\n      0x20\n      add\n      0x00\n      keccak256\n      sload\n        /* \"contracts/ymii/stake2.sol\":15322:15337  block.timestamp */\n      timestamp\n        /* \"contracts/ymii/stake2.sol\":15322:15364  block.timestamp - _userLastClaimTime[user] */\n      tag_182\n      swap2\n      swap1\n      tag_183\n      jump\t// in\n    tag_182:\n        /* \"contracts/ymii/stake2.sol\":15305:15364  stakeTotalTime = block.timestamp - _userLastClaimTime[user] */\n      swap1\n      pop\n        /* \"contracts/ymii/stake2.sol\":15449:15450  0 */\n      0x00\n        /* \"contracts/ymii/stake2.sol\":15421:15439  _userLastClaimTime */\n      0x0f\n        /* \"contracts/ymii/stake2.sol\":15421:15445  _userLastClaimTime[user] */\n      0x00\n        /* \"contracts/ymii/stake2.sol\":15440:15444  user */\n      dup6\n        /* \"contracts/ymii/stake2.sol\":15421:15445  _userLastClaimTime[user] */\n      0xffffffffffffffffffffffffffffffffffffffff\n      and\n      0xffffffffffffffffffffffffffffffffffffffff\n      and\n      dup2\n      mstore\n      0x20\n      add\n      swap1\n      dup2\n      mstore\n      0x20\n      add\n      0x00\n      keccak256\n      sload\n        /* \"contracts/ymii/stake2.sol\":15421:15450  _userLastClaimTime[user] == 0 */\n      eq\n        /* \"contracts/ymii/stake2.sol\":15421:15474  _userLastClaimTime[user] == 0 && _userStake[user] > 0 */\n      dup1\n      iszero\n      tag_184\n      jumpi\n      pop\n        /* \"contracts/ymii/stake2.sol\":15473:15474  0 */\n      0x00\n        /* \"contracts/ymii/stake2.sol\":15454:15464  _userStake */\n      0x0c\n        /* \"contracts/ymii/stake2.sol\":15454:15470  _userStake[user] */\n      0x00\n        /* \"contracts/ymii/stake2.sol\":15465:15469  user */\n      dup6\n        /* \"contracts/ymii/stake2.sol\":15454:15470  _userStake[user] */\n      0xffffffffffffffffffffffffffffffffffffffff\n      and\n      0xffffffffffffffffffffffffffffffffffffffff\n      and\n      dup2\n      mstore\n      0x20\n      add\n      swap1\n      dup2\n      mstore\n      0x20\n      add\n      0x00\n      keccak256\n      sload\n        /* \"contracts/ymii/stake2.sol\":15454:15474  _userStake[user] > 0 */\n      gt\n        /* \"contracts/ymii/stake2.sol\":15421:15474  _userLastClaimTime[user] == 0 && _userStake[user] > 0 */\n    tag_184:\n        /* \"contracts/ymii/stake2.sol\":15417:15563  if (_userLastClaimTime[user] == 0 && _userStake[user] > 0) {... */\n      iszero\n      tag_185\n      jumpi\n        /* \"contracts/ymii/stake2.sol\":15526:15545  _userStakeStartTime */\n      0x0e\n        /* \"contracts/ymii/stake2.sol\":15526:15551  _userStakeStartTime[user] */\n      0x00\n        /* \"contracts/ymii/stake2.sol\":15546:15550  user */\n      dup5\n        /* \"contracts/ymii/stake2.sol\":15526:15551  _userStakeStartTime[user] */\n      0xffffffffffffffffffffffffffffffffffffffff\n      and\n      0xffffffffffffffffffffffffffffffffffffffff\n      and\n      dup2\n      mstore\n      0x20\n      add\n      swap1\n      dup2\n      mstore\n      0x20\n      add\n      0x00\n      keccak256\n      sload\n        /* \"contracts/ymii/stake2.sol\":15508:15523  block.timestamp */\n      timestamp\n        /* \"contracts/ymii/stake2.sol\":15508:15551  block.timestamp - _userStakeStartTime[user] */\n      tag_186\n      swap2\n      swap1\n      tag_183\n      jump\t// in\n    tag_186:\n        /* \"contracts/ymii/stake2.sol\":15491:15551  stakeTotalTime = block.timestamp - _userStakeStartTime[user] */\n      swap1\n      pop\n        /* \"contracts/ymii/stake2.sol\":15417:15563  if (_userLastClaimTime[user] == 0 && _userStake[user] > 0) {... */\n    tag_185:\n        /* \"contracts/ymii/stake2.sol\":15625:15626  0 */\n      0x00\n        /* \"contracts/ymii/stake2.sol\":15605:15615  _userStake */\n      0x0c\n        /* \"contracts/ymii/stake2.sol\":15605:15621  _userStake[user] */\n      0x00\n        /* \"contracts/ymii/stake2.sol\":15616:15620  user */\n      dup6\n        /* \"contracts/ymii/stake2.sol\":15605:15621  _userStake[user] */\n      0xffffffffffffffffffffffffffffffffffffffff\n      and\n      0xffffffffffffffffffffffffffffffffffffffff\n      and\n      dup2\n      mstore\n      0x20\n      add\n      swap1\n      dup2\n      mstore\n      0x20\n      add\n      0x00\n      keccak256\n      sload\n        /* \"contracts/ymii/stake2.sol\":15605:15626  _userStake[user] == 0 */\n      sub\n        /* \"contracts/ymii/stake2.sol\":15601:15663  if (_userStake[user] == 0) {... */\n      tag_187\n      jumpi\n        /* \"contracts/ymii/stake2.sol\":15650:15651  0 */\n      0x00\n        /* \"contracts/ymii/stake2.sol\":15643:15651  return 0 */\n      swap2\n      pop\n      pop\n      jump(tag_181)\n        /* \"contracts/ymii/stake2.sol\":15601:15663  if (_userStake[user] == 0) {... */\n    tag_187:\n        /* \"contracts/ymii/stake2.sol\":15743:15760  _userEndClaimTime */\n      0x10\n        /* \"contracts/ymii/stake2.sol\":15743:15766  _userEndClaimTime[user] */\n      0x00\n        /* \"contracts/ymii/stake2.sol\":15761:15765  user */\n      dup5\n        /* \"contracts/ymii/stake2.sol\":15743:15766  _userEndClaimTime[user] */\n      0xffffffffffffffffffffffffffffffffffffffff\n      and\n      0xffffffffffffffffffffffffffffffffffffffff\n      and\n      dup2\n      mstore\n      0x20\n      add\n      swap1\n      dup2\n      mstore\n      0x20\n      add\n      0x00\n      keccak256\n      sload\n        /* \"contracts/ymii/stake2.sol\":15725:15740  block.timestamp */\n      timestamp\n        /* \"contracts/ymii/stake2.sol\":15725:15766  block.timestamp > _userEndClaimTime[user] */\n      gt\n        /* \"contracts/ymii/stake2.sol\":15721:16034  if (block.timestamp > _userEndClaimTime[user]) {... */\n      iszero\n      tag_188\n      jumpi\n        /* \"contracts/ymii/stake2.sol\":15812:15813  0 */\n      0x00\n        /* \"contracts/ymii/stake2.sol\":15786:15804  _userLastClaimTime */\n      0x0f\n        /* \"contracts/ymii/stake2.sol\":15786:15810  _userLastClaimTime[user] */\n      0x00\n        /* \"contracts/ymii/stake2.sol\":15805:15809  user */\n      dup6\n        /* \"contracts/ymii/stake2.sol\":15786:15810  _userLastClaimTime[user] */\n      0xffffffffffffffffffffffffffffffffffffffff\n      and\n      0xffffffffffffffffffffffffffffffffffffffff\n      and\n      dup2\n      mstore\n      0x20\n      add\n      swap1\n      dup2\n      mstore\n      0x20\n      add\n      0x00\n      keccak256\n      sload\n        /* \"contracts/ymii/stake2.sol\":15786:15813  _userLastClaimTime[user]==0 */\n      sub\n        /* \"contracts/ymii/stake2.sol\":15783:16023  if(_userLastClaimTime[user]==0){... */\n      tag_189\n      jumpi\n        /* \"contracts/ymii/stake2.sol\":15876:15895  _userStakeStartTime */\n      0x0e\n        /* \"contracts/ymii/stake2.sol\":15876:15901  _userStakeStartTime[user] */\n      0x00\n        /* \"contracts/ymii/stake2.sol\":15896:15900  user */\n      dup5\n        /* \"contracts/ymii/stake2.sol\":15876:15901  _userStakeStartTime[user] */\n      0xffffffffffffffffffffffffffffffffffffffff\n      and\n      0xffffffffffffffffffffffffffffffffffffffff\n      and\n      dup2\n      mstore\n      0x20\n      add\n      swap1\n      dup2\n      mstore\n      0x20\n      add\n      0x00\n      keccak256\n      sload\n        /* \"contracts/ymii/stake2.sol\":15850:15867  _userEndClaimTime */\n      0x10\n        /* \"contracts/ymii/stake2.sol\":15850:15873  _userEndClaimTime[user] */\n      0x00\n        /* \"contracts/ymii/stake2.sol\":15868:15872  user */\n      dup6\n        /* \"contracts/ymii/stake2.sol\":15850:15873  _userEndClaimTime[user] */\n      0xffffffffffffffffffffffffffffffffffffffff\n      and\n      0xffffffffffffffffffffffffffffffffffffffff\n      and\n      dup2\n      mstore\n      0x20\n      add\n      swap1\n      dup2\n      mstore\n      0x20\n      add\n      0x00\n      keccak256\n      sload\n        /* \"contracts/ymii/stake2.sol\":15850:15901  _userEndClaimTime[user] - _userStakeStartTime[user] */\n      tag_190\n      swap2\n      swap1\n      tag_183\n      jump\t// in\n    tag_190:\n        /* \"contracts/ymii/stake2.sol\":15833:15901  stakeTotalTime = _userEndClaimTime[user] - _userStakeStartTime[user] */\n      swap1\n      pop\n        /* \"contracts/ymii/stake2.sol\":15783:16023  if(_userLastClaimTime[user]==0){... */\n      jump(tag_191)\n    tag_189:\n        /* \"contracts/ymii/stake2.sol\":15983:16001  _userLastClaimTime */\n      0x0f\n        /* \"contracts/ymii/stake2.sol\":15983:16007  _userLastClaimTime[user] */\n      0x00\n        /* \"contracts/ymii/stake2.sol\":16002:16006  user */\n      dup5\n        /* \"contracts/ymii/stake2.sol\":15983:16007  _userLastClaimTime[user] */\n      0xffffffffffffffffffffffffffffffffffffffff\n      and\n      0xffffffffffffffffffffffffffffffffffffffff\n      and\n      dup2\n      mstore\n      0x20\n      add\n      swap1\n      dup2\n      mstore\n      0x20\n      add\n      0x00\n      keccak256\n      sload\n        /* \"contracts/ymii/stake2.sol\":15957:15974  _userEndClaimTime */\n      0x10\n        /* \"contracts/ymii/stake2.sol\":15957:15980  _userEndClaimTime[user] */\n      0x00\n        /* \"contracts/ymii/stake2.sol\":15975:15979  user */\n      dup6\n        /* \"contracts/ymii/stake2.sol\":15957:15980  _userEndClaimTime[user] */\n      0xffffffffffffffffffffffffffffffffffffffff\n      and\n      0xffffffffffffffffffffffffffffffffffffffff\n      and\n      dup2\n      mstore\n      0x20\n      add\n      swap1\n      dup2\n      mstore\n      0x20\n      add\n      0x00\n      keccak256\n      sload\n        /* \"contracts/ymii/stake2.sol\":15957:16007  _userEndClaimTime[user] - _userLastClaimTime[user] */\n      tag_192\n      swap2\n      swap1\n      tag_183\n      jump\t// in\n    tag_192:\n        /* \"contracts/ymii/stake2.sol\":15940:16007  stakeTotalTime = _userEndClaimTime[user] - _userLastClaimTime[user] */\n      swap1\n      pop\n        /* \"contracts/ymii/stake2.sol\":15783:16023  if(_userLastClaimTime[user]==0){... */\n    tag_191:\n        /* \"contracts/ymii/stake2.sol\":15721:16034  if (block.timestamp > _userEndClaimTime[user]) {... */\n    tag_188:\n        /* \"contracts/ymii/stake2.sol\":16123:16140  _userEndClaimTime */\n      0x10\n        /* \"contracts/ymii/stake2.sol\":16123:16146  _userEndClaimTime[user] */\n      0x00\n        /* \"contracts/ymii/stake2.sol\":16141:16145  user */\n      dup5\n        /* \"contracts/ymii/stake2.sol\":16123:16146  _userEndClaimTime[user] */\n      0xffffffffffffffffffffffffffffffffffffffff\n      and\n      0xffffffffffffffffffffffffffffffffffffffff\n      and\n      dup2\n      mstore\n      0x20\n      add\n      swap1\n      dup2\n      mstore\n      0x20\n      add\n      0x00\n      keccak256\n      sload\n        /* \"contracts/ymii/stake2.sol\":16096:16114  _userLastClaimTime */\n      0x0f\n        /* \"contracts/ymii/stake2.sol\":16096:16120  _userLastClaimTime[user] */\n      0x00\n        /* \"contracts/ymii/stake2.sol\":16115:16119  user */\n      dup6\n        /* \"contracts/ymii/stake2.sol\":16096:16120  _userLastClaimTime[user] */\n      0xffffffffffffffffffffffffffffffffffffffff\n      and\n      0xffffffffffffffffffffffffffffffffffffffff\n      and\n      dup2\n      mstore\n      0x20\n      add\n      swap1\n      dup2\n      mstore\n      0x20\n      add\n      0x00\n      keccak256\n      sload\n        /* \"contracts/ymii/stake2.sol\":16096:16146  _userLastClaimTime[user] > _userEndClaimTime[user] */\n      gt\n        /* \"contracts/ymii/stake2.sol\":16092:16183  if (_userLastClaimTime[user] > _userEndClaimTime[user]) {... */\n      iszero\n      tag_193\n      jumpi\n        /* \"contracts/ymii/stake2.sol\":16170:16171  0 */\n      0x00\n        /* \"contracts/ymii/stake2.sol\":16163:16171  return 0 */\n      swap2\n      pop\n      pop\n      jump(tag_181)\n        /* \"contracts/ymii/stake2.sol\":16092:16183  if (_userLastClaimTime[user] > _userEndClaimTime[user]) {... */\n    tag_193:\n        /* \"contracts/ymii/stake2.sol\":16200:16246  SafeMath.mul(stakeTotalTime, _userPower[user]) */\n      tag_194\n        /* \"contracts/ymii/stake2.sol\":16213:16227  stakeTotalTime */\n      dup2\n        /* \"contracts/ymii/stake2.sol\":16229:16239  _userPower */\n      0x11\n        /* \"contracts/ymii/stake2.sol\":16229:16245  _userPower[user] */\n      0x00\n        /* \"contracts/ymii/stake2.sol\":16240:16244  user */\n      dup7\n        /* \"contracts/ymii/stake2.sol\":16229:16245  _userPower[user] */\n      0xffffffffffffffffffffffffffffffffffffffff\n      and\n      0xffffffffffffffffffffffffffffffffffffffff\n      and\n      dup2\n      mstore\n      0x20\n      add\n      swap1\n      dup2\n      mstore\n      0x20\n      add\n      0x00\n      keccak256\n      sload\n        /* \"contracts/ymii/stake2.sol\":16200:16212  SafeMath.mul */\n      tag_195\n        /* \"contracts/ymii/stake2.sol\":16200:16246  SafeMath.mul(stakeTotalTime, _userPower[user]) */\n      jump\t// in\n    tag_194:\n        /* \"contracts/ymii/stake2.sol\":16193:16246  return SafeMath.mul(stakeTotalTime, _userPower[user]) */\n      swap2\n      pop\n      pop\n        /* \"contracts/ymii/stake2.sol\":15173:16254  function pureAmount(address user) public view returns (uint256) {... */\n    tag_181:\n      swap2\n      swap1\n      pop\n      jump\t// out\n        /* \"contracts/ymii/stake2.sol\":9380:9413  uint256 public _proportion = 1000 */\n    tag_87:\n      sload(0x07)\n      dup2\n      jump\t// out\n        /* \"contracts/ymii/stake2.sol\":16282:16391  function withdraw() external onlyOwner {... */\n    tag_90:\n        /* \"contracts/ymii/stake2.sol\":1591:1601  msg.sender */\n      caller\n        /* \"contracts/ymii/stake2.sol\":1581:1601  _owner == msg.sender */\n      0xffffffffffffffffffffffffffffffffffffffff\n      and\n        /* \"contracts/ymii/stake2.sol\":1581:1587  _owner */\n      0x00\n      dup1\n      sload\n      swap1\n      0x0100\n      exp\n      swap1\n      div\n      0xffffffffffffffffffffffffffffffffffffffff\n      and\n        /* \"contracts/ymii/stake2.sol\":1581:1601  _owner == msg.sender */\n      0xffffffffffffffffffffffffffffffffffffffff\n      and\n      eq\n        /* \"contracts/ymii/stake2.sol\":1581:1623  _owner == msg.sender||_owner == msg.sender */\n      dup1\n      tag_197\n      jumpi\n      pop\n        /* \"contracts/ymii/stake2.sol\":1613:1623  msg.sender */\n      caller\n        /* \"contracts/ymii/stake2.sol\":1603:1623  _owner == msg.sender */\n      0xffffffffffffffffffffffffffffffffffffffff\n      and\n        /* \"contracts/ymii/stake2.sol\":1603:1609  _owner */\n      0x00\n      dup1\n      sload\n      swap1\n      0x0100\n      exp\n      swap1\n      div\n      0xffffffffffffffffffffffffffffffffffffffff\n      and\n        /* \"contracts/ymii/stake2.sol\":1603:1623  _owner == msg.sender */\n      0xffffffffffffffffffffffffffffffffffffffff\n      and\n      eq\n        /* \"contracts/ymii/stake2.sol\":1581:1623  _owner == msg.sender||_owner == msg.sender */\n    tag_197:\n        /* \"contracts/ymii/stake2.sol\":1573:1634  require(_owner == msg.sender||_owner == msg.sender, \"!owner\") */\n      tag_198\n      jumpi\n      mload(0x40)\n      0x08c379a000000000000000000000000000000000000000000000000000000000\n      dup2\n      mstore\n      0x04\n      add\n      tag_199\n      swap1\n      tag_169\n      jump\t// in\n    tag_199:\n      mload(0x40)\n      dup1\n      swap2\n      sub\n      swap1\n      revert\n    tag_198:\n        /* \"contracts/ymii/stake2.sol\":16340:16350  msg.sender */\n      caller\n        /* \"contracts/ymii/stake2.sol\":16332:16360  payable(msg.sender).transfer */\n      0xffffffffffffffffffffffffffffffffffffffff\n      and\n        /* \"contracts/ymii/stake2.sol\":16332:16383  payable(msg.sender).transfer(address(this).balance) */\n      0x08fc\n        /* \"contracts/ymii/stake2.sol\":16361:16382  address(this).balance */\n      selfbalance\n        /* \"contracts/ymii/stake2.sol\":16332:16383  payable(msg.sender).transfer(address(this).balance) */\n      swap1\n      dup2\n      iszero\n      mul\n      swap1\n      mload(0x40)\n      0x00\n      mload(0x40)\n      dup1\n      dup4\n      sub\n      dup2\n      dup6\n      dup9\n      dup9\n      call\n      swap4\n      pop\n      pop\n      pop\n      pop\n      iszero\n      dup1\n      iszero\n      tag_202\n      jumpi\n      returndatasize\n      0x00\n      dup1\n      returndatacopy\n      revert(0x00, returndatasize)\n    tag_202:\n      pop\n        /* \"contracts/ymii/stake2.sol\":16282:16391  function withdraw() external onlyOwner {... */\n      jump\t// out\n        /* \"contracts/ymii/stake2.sol\":10370:10467  function setlpPriceToken(address token) public onlyOwner {... */\n    tag_93:\n        /* \"contracts/ymii/stake2.sol\":1591:1601  msg.sender */\n      caller\n        /* \"contracts/ymii/stake2.sol\":1581:1601  _owner == msg.sender */\n      0xffffffffffffffffffffffffffffffffffffffff\n      and\n        /* \"contracts/ymii/stake2.sol\":1581:1587  _owner */\n      0x00\n      dup1\n      sload\n      swap1\n      0x0100\n      exp\n      swap1\n      div\n      0xffffffffffffffffffffffffffffffffffffffff\n      and\n        /* \"contracts/ymii/stake2.sol\":1581:1601  _owner == msg.sender */\n      0xffffffffffffffffffffffffffffffffffffffff\n      and\n      eq\n        /* \"contracts/ymii/stake2.sol\":1581:1623  _owner == msg.sender||_owner == msg.sender */\n      dup1\n      tag_204\n      jumpi\n      pop\n        /* \"contracts/ymii/stake2.sol\":1613:1623  msg.sender */\n      caller\n        /* \"contracts/ymii/stake2.sol\":1603:1623  _owner == msg.sender */\n      0xffffffffffffffffffffffffffffffffffffffff\n      and\n        /* \"contracts/ymii/stake2.sol\":1603:1609  _owner */\n      0x00\n      dup1\n      sload\n      swap1\n      0x0100\n      exp\n      swap1\n      div\n      0xffffffffffffffffffffffffffffffffffffffff\n      and\n        /* \"contracts/ymii/stake2.sol\":1603:1623  _owner == msg.sender */\n      0xffffffffffffffffffffffffffffffffffffffff\n      and\n      eq\n        /* \"contracts/ymii/stake2.sol\":1581:1623  _owner == msg.sender||_owner == msg.sender */\n    tag_204:\n        /* \"contracts/ymii/stake2.sol\":1573:1634  require(_owner == msg.sender||_owner == msg.sender, \"!owner\") */\n      tag_205\n      jumpi\n      mload(0x40)\n      0x08c379a000000000000000000000000000000000000000000000000000000000\n      dup2\n      mstore\n      0x04\n      add\n      tag_206\n      swap1\n      tag_169\n      jump\t// in\n    tag_206:\n      mload(0x40)\n      dup1\n      swap2\n      sub\n      swap1\n      revert\n    tag_205:\n        /* \"contracts/ymii/stake2.sol\":10454:10459  token */\n      dup1\n        /* \"contracts/ymii/stake2.sol\":10438:10451  _lpPriceToken */\n      0x03\n      0x00\n        /* \"contracts/ymii/stake2.sol\":10438:10459  _lpPriceToken = token */\n      0x0100\n      exp\n      dup2\n      sload\n      dup2\n      0xffffffffffffffffffffffffffffffffffffffff\n      mul\n      not\n      and\n      swap1\n      dup4\n      0xffffffffffffffffffffffffffffffffffffffff\n      and\n      mul\n      or\n      swap1\n      sstore\n      pop\n        /* \"contracts/ymii/stake2.sol\":10370:10467  function setlpPriceToken(address token) public onlyOwner {... */\n      pop\n      jump\t// out\n        /* \"contracts/ymii/stake2.sol\":11083:13691  function stake(... */\n    tag_97:\n        /* \"contracts/ymii/stake2.sol\":11205:11217  isStakeStart */\n      0x0b\n      0x00\n      swap1\n      sload\n      swap1\n      0x0100\n      exp\n      swap1\n      div\n      0xff\n      and\n        /* \"contracts/ymii/stake2.sol\":11197:11231  require(isStakeStart, \"not start\") */\n      tag_209\n      jumpi\n      mload(0x40)\n      0x08c379a000000000000000000000000000000000000000000000000000000000\n      dup2\n      mstore\n      0x04\n      add\n      tag_210\n      swap1\n      tag_211\n      jump\t// in\n    tag_210:\n      mload(0x40)\n      dup1\n      swap2\n      sub\n      swap1\n      revert\n    tag_209:\n        /* \"contracts/ymii/stake2.sol\":11261:11271  msg.sender */\n      caller\n        /* \"contracts/ymii/stake2.sol\":11250:11271  inviter != msg.sender */\n      0xffffffffffffffffffffffffffffffffffffffff\n      and\n        /* \"contracts/ymii/stake2.sol\":11250:11257  inviter */\n      dup3\n        /* \"contracts/ymii/stake2.sol\":11250:11271  inviter != msg.sender */\n      0xffffffffffffffffffffffffffffffffffffffff\n      and\n      sub\n        /* \"contracts/ymii/stake2.sol\":11242:11296  require(inviter != msg.sender, \"inviter cant by self\") */\n      tag_212\n      jumpi\n      mload(0x40)\n      0x08c379a000000000000000000000000000000000000000000000000000000000\n      dup2\n      mstore\n      0x04\n      add\n      tag_213\n      swap1\n      tag_214\n      jump\t// in\n    tag_213:\n      mload(0x40)\n      dup1\n      swap2\n      sub\n      swap1\n      revert\n    tag_212:\n        /* \"contracts/ymii/stake2.sol\":11341:11342  0 */\n      0x00\n        /* \"contracts/ymii/stake2.sol\":11315:11325  _userStake */\n      0x0c\n        /* \"contracts/ymii/stake2.sol\":11315:11337  _userStake[msg.sender] */\n      0x00\n        /* \"contracts/ymii/stake2.sol\":11326:11336  msg.sender */\n      caller\n        /* \"contracts/ymii/stake2.sol\":11315:11337  _userStake[msg.sender] */\n      0xffffffffffffffffffffffffffffffffffffffff\n      and\n      0xffffffffffffffffffffffffffffffffffffffff\n      and\n      dup2\n      mstore\n      0x20\n      add\n      swap1\n      dup2\n      mstore\n      0x20\n      add\n      0x00\n      keccak256\n      sload\n        /* \"contracts/ymii/stake2.sol\":11315:11342  _userStake[msg.sender] == 0 */\n      eq\n        /* \"contracts/ymii/stake2.sol\":11307:11360  require(_userStake[msg.sender] == 0, \"already stake\") */\n      tag_215\n      jumpi\n      mload(0x40)\n      0x08c379a000000000000000000000000000000000000000000000000000000000\n      dup2\n      mstore\n      0x04\n      add\n      tag_216\n      swap1\n      tag_217\n      jump\t// in\n    tag_216:\n      mload(0x40)\n      dup1\n      swap2\n      sub\n      swap1\n      revert\n    tag_215:\n        /* \"contracts/ymii/stake2.sol\":11388:11389  0 */\n      0x00\n        /* \"contracts/ymii/stake2.sol\":11379:11385  amount */\n      dup4\n        /* \"contracts/ymii/stake2.sol\":11379:11389  amount > 0 */\n      gt\n        /* \"contracts/ymii/stake2.sol\":11371:11404  require(amount > 0, \"zero stake\") */\n      tag_218\n      jumpi\n      mload(0x40)\n      0x08c379a000000000000000000000000000000000000000000000000000000000\n      dup2\n      mstore\n      0x04\n      add\n      tag_219\n      swap1\n      tag_220\n      jump\t// in\n    tag_219:\n      mload(0x40)\n      dup1\n      swap2\n      sub\n      swap1\n      revert\n    tag_218:\n        /* \"contracts/ymii/stake2.sol\":11445:11452  _stake1 */\n      sload(0x04)\n        /* \"contracts/ymii/stake2.sol\":11437:11441  time */\n      dup2\n        /* \"contracts/ymii/stake2.sol\":11437:11452  time == _stake1 */\n      eq\n        /* \"contracts/ymii/stake2.sol\":11437:11471  time == _stake1 || time == _stake3 */\n      dup1\n      tag_221\n      jumpi\n      pop\n        /* \"contracts/ymii/stake2.sol\":11464:11471  _stake3 */\n      sload(0x05)\n        /* \"contracts/ymii/stake2.sol\":11456:11460  time */\n      dup2\n        /* \"contracts/ymii/stake2.sol\":11456:11471  time == _stake3 */\n      eq\n        /* \"contracts/ymii/stake2.sol\":11437:11471  time == _stake1 || time == _stake3 */\n    tag_221:\n        /* \"contracts/ymii/stake2.sol\":11437:11490  time == _stake1 || time == _stake3 || time == _stake5 */\n      dup1\n      tag_222\n      jumpi\n      pop\n        /* \"contracts/ymii/stake2.sol\":11483:11490  _stake5 */\n      sload(0x06)\n        /* \"contracts/ymii/stake2.sol\":11475:11479  time */\n      dup2\n        /* \"contracts/ymii/stake2.sol\":11475:11490  time == _stake5 */\n      eq\n        /* \"contracts/ymii/stake2.sol\":11437:11490  time == _stake1 || time == _stake3 || time == _stake5 */\n    tag_222:\n        /* \"contracts/ymii/stake2.sol\":11415:11532  require(... */\n      tag_223\n      jumpi\n      mload(0x40)\n      0x08c379a000000000000000000000000000000000000000000000000000000000\n      dup2\n      mstore\n      0x04\n      add\n      tag_224\n      swap1\n      tag_225\n      jump\t// in\n    tag_224:\n      mload(0x40)\n      dup1\n      swap2\n      sub\n      swap1\n      revert\n    tag_223:\n        /* \"contracts/ymii/stake2.sol\":11543:11555  uint256 base */\n      0x00\n        /* \"contracts/ymii/stake2.sol\":11566:11582  uint256 _lpPrice */\n      dup1\n        /* \"contracts/ymii/stake2.sol\":11604:11613  lpPrice() */\n      tag_226\n        /* \"contracts/ymii/stake2.sol\":11604:11611  lpPrice */\n      tag_59\n        /* \"contracts/ymii/stake2.sol\":11604:11613  lpPrice() */\n      jump\t// in\n    tag_226:\n        /* \"contracts/ymii/stake2.sol\":11593:11613  _lpPrice = lpPrice() */\n      swap1\n      pop\n        /* \"contracts/ymii/stake2.sol\":11666:11673  _stake1 */\n      sload(0x04)\n        /* \"contracts/ymii/stake2.sol\":11658:11662  time */\n      dup4\n        /* \"contracts/ymii/stake2.sol\":11658:11673  time == _stake1 */\n      sub\n        /* \"contracts/ymii/stake2.sol\":11654:13045  if (time == _stake1) {... */\n      tag_227\n      jumpi\n        /* \"contracts/ymii/stake2.sol\":11697:12101  SafeMath.div(... */\n      tag_228\n        /* \"contracts/ymii/stake2.sol\":11728:12060  SafeMath.div(... */\n      tag_229\n        /* \"contracts/ymii/stake2.sol\":11763:12014  SafeMath.div(... */\n      tag_230\n        /* \"contracts/ymii/stake2.sol\":11802:11961  SafeMath.mul(... */\n      tag_231\n        /* \"contracts/ymii/stake2.sol\":11845:11892  SafeMath.mul(SafeMath.mul(amount, 8), _lpPrice) */\n      tag_232\n        /* \"contracts/ymii/stake2.sol\":11858:11881  SafeMath.mul(amount, 8) */\n      tag_233\n        /* \"contracts/ymii/stake2.sol\":11871:11877  amount */\n      dup11\n        /* \"contracts/ymii/stake2.sol\":11879:11880  8 */\n      0x08\n        /* \"contracts/ymii/stake2.sol\":11858:11870  SafeMath.mul */\n      tag_195\n        /* \"contracts/ymii/stake2.sol\":11858:11881  SafeMath.mul(amount, 8) */\n      jump\t// in\n    tag_233:\n        /* \"contracts/ymii/stake2.sol\":11883:11891  _lpPrice */\n      dup7\n        /* \"contracts/ymii/stake2.sol\":11845:11857  SafeMath.mul */\n      tag_195\n        /* \"contracts/ymii/stake2.sol\":11845:11892  SafeMath.mul(SafeMath.mul(amount, 8), _lpPrice) */\n      jump\t// in\n    tag_232:\n        /* \"contracts/ymii/stake2.sol\":11923:11934  _proportion */\n      sload(0x07)\n        /* \"contracts/ymii/stake2.sol\":11802:11814  SafeMath.mul */\n      tag_195\n        /* \"contracts/ymii/stake2.sol\":11802:11961  SafeMath.mul(... */\n      jump\t// in\n    tag_231:\n        /* \"contracts/ymii/stake2.sol\":11988:11991  100 */\n      0x64\n        /* \"contracts/ymii/stake2.sol\":11763:11775  SafeMath.div */\n      tag_234\n        /* \"contracts/ymii/stake2.sol\":11763:12014  SafeMath.div(... */\n      jump\t// in\n    tag_230:\n        /* \"contracts/ymii/stake2.sol\":12037:12041  1000 */\n      0x03e8\n        /* \"contracts/ymii/stake2.sol\":11728:11740  SafeMath.div */\n      tag_234\n        /* \"contracts/ymii/stake2.sol\":11728:12060  SafeMath.div(... */\n      jump\t// in\n    tag_229:\n        /* \"contracts/ymii/stake2.sol\":12079:12086  _stake1 */\n      sload(0x04)\n        /* \"contracts/ymii/stake2.sol\":11697:11709  SafeMath.div */\n      tag_234\n        /* \"contracts/ymii/stake2.sol\":11697:12101  SafeMath.div(... */\n      jump\t// in\n    tag_228:\n        /* \"contracts/ymii/stake2.sol\":11690:12101  base = SafeMath.div(... */\n      swap2\n      pop\n        /* \"contracts/ymii/stake2.sol\":11654:13045  if (time == _stake1) {... */\n      jump(tag_235)\n    tag_227:\n        /* \"contracts/ymii/stake2.sol\":12131:12138  _stake3 */\n      sload(0x05)\n        /* \"contracts/ymii/stake2.sol\":12123:12127  time */\n      dup4\n        /* \"contracts/ymii/stake2.sol\":12123:12138  time == _stake3 */\n      sub\n        /* \"contracts/ymii/stake2.sol\":12119:13045  if (time == _stake3) {... */\n      tag_236\n      jumpi\n        /* \"contracts/ymii/stake2.sol\":12162:12567  SafeMath.div(... */\n      tag_237\n        /* \"contracts/ymii/stake2.sol\":12193:12526  SafeMath.div(... */\n      tag_238\n        /* \"contracts/ymii/stake2.sol\":12228:12480  SafeMath.div(... */\n      tag_239\n        /* \"contracts/ymii/stake2.sol\":12267:12427  SafeMath.mul(... */\n      tag_240\n        /* \"contracts/ymii/stake2.sol\":12310:12358  SafeMath.mul(SafeMath.mul(amount, 13), _lpPrice) */\n      tag_241\n        /* \"contracts/ymii/stake2.sol\":12323:12347  SafeMath.mul(amount, 13) */\n      tag_242\n        /* \"contracts/ymii/stake2.sol\":12336:12342  amount */\n      dup11\n        /* \"contracts/ymii/stake2.sol\":12344:12346  13 */\n      0x0d\n        /* \"contracts/ymii/stake2.sol\":12323:12335  SafeMath.mul */\n      tag_195\n        /* \"contracts/ymii/stake2.sol\":12323:12347  SafeMath.mul(amount, 13) */\n      jump\t// in\n    tag_242:\n        /* \"contracts/ymii/stake2.sol\":12349:12357  _lpPrice */\n      dup7\n        /* \"contracts/ymii/stake2.sol\":12310:12322  SafeMath.mul */\n      tag_195\n        /* \"contracts/ymii/stake2.sol\":12310:12358  SafeMath.mul(SafeMath.mul(amount, 13), _lpPrice) */\n      jump\t// in\n    tag_241:\n        /* \"contracts/ymii/stake2.sol\":12389:12400  _proportion */\n      sload(0x07)\n        /* \"contracts/ymii/stake2.sol\":12267:12279  SafeMath.mul */\n      tag_195\n        /* \"contracts/ymii/stake2.sol\":12267:12427  SafeMath.mul(... */\n      jump\t// in\n    tag_240:\n        /* \"contracts/ymii/stake2.sol\":12454:12457  100 */\n      0x64\n        /* \"contracts/ymii/stake2.sol\":12228:12240  SafeMath.div */\n      tag_234\n        /* \"contracts/ymii/stake2.sol\":12228:12480  SafeMath.div(... */\n      jump\t// in\n    tag_239:\n        /* \"contracts/ymii/stake2.sol\":12503:12507  1000 */\n      0x03e8\n        /* \"contracts/ymii/stake2.sol\":12193:12205  SafeMath.div */\n      tag_234\n        /* \"contracts/ymii/stake2.sol\":12193:12526  SafeMath.div(... */\n      jump\t// in\n    tag_238:\n        /* \"contracts/ymii/stake2.sol\":12545:12552  _stake1 */\n      sload(0x04)\n        /* \"contracts/ymii/stake2.sol\":12162:12174  SafeMath.div */\n      tag_234\n        /* \"contracts/ymii/stake2.sol\":12162:12567  SafeMath.div(... */\n      jump\t// in\n    tag_237:\n        /* \"contracts/ymii/stake2.sol\":12155:12567  base = SafeMath.div(... */\n      swap2\n      pop\n        /* \"contracts/ymii/stake2.sol\":12119:13045  if (time == _stake3) {... */\n      jump(tag_243)\n    tag_236:\n        /* \"contracts/ymii/stake2.sol\":12597:12604  _stake5 */\n      sload(0x06)\n        /* \"contracts/ymii/stake2.sol\":12589:12593  time */\n      dup4\n        /* \"contracts/ymii/stake2.sol\":12589:12604  time == _stake5 */\n      sub\n        /* \"contracts/ymii/stake2.sol\":12585:13045  if (time == _stake5) {... */\n      tag_244\n      jumpi\n        /* \"contracts/ymii/stake2.sol\":12628:13033  SafeMath.div(... */\n      tag_245\n        /* \"contracts/ymii/stake2.sol\":12659:12992  SafeMath.div(... */\n      tag_246\n        /* \"contracts/ymii/stake2.sol\":12694:12946  SafeMath.div(... */\n      tag_247\n        /* \"contracts/ymii/stake2.sol\":12733:12893  SafeMath.mul(... */\n      tag_248\n        /* \"contracts/ymii/stake2.sol\":12776:12824  SafeMath.mul(SafeMath.mul(amount, 16), _lpPrice) */\n      tag_249\n        /* \"contracts/ymii/stake2.sol\":12789:12813  SafeMath.mul(amount, 16) */\n      tag_250\n        /* \"contracts/ymii/stake2.sol\":12802:12808  amount */\n      dup11\n        /* \"contracts/ymii/stake2.sol\":12810:12812  16 */\n      0x10\n        /* \"contracts/ymii/stake2.sol\":12789:12801  SafeMath.mul */\n      tag_195\n        /* \"contracts/ymii/stake2.sol\":12789:12813  SafeMath.mul(amount, 16) */\n      jump\t// in\n    tag_250:\n        /* \"contracts/ymii/stake2.sol\":12815:12823  _lpPrice */\n      dup7\n        /* \"contracts/ymii/stake2.sol\":12776:12788  SafeMath.mul */\n      tag_195\n        /* \"contracts/ymii/stake2.sol\":12776:12824  SafeMath.mul(SafeMath.mul(amount, 16), _lpPrice) */\n      jump\t// in\n    tag_249:\n        /* \"contracts/ymii/stake2.sol\":12855:12866  _proportion */\n      sload(0x07)\n        /* \"contracts/ymii/stake2.sol\":12733:12745  SafeMath.mul */\n      tag_195\n        /* \"contracts/ymii/stake2.sol\":12733:12893  SafeMath.mul(... */\n      jump\t// in\n    tag_248:\n        /* \"contracts/ymii/stake2.sol\":12920:12923  100 */\n      0x64\n        /* \"contracts/ymii/stake2.sol\":12694:12706  SafeMath.div */\n      tag_234\n        /* \"contracts/ymii/stake2.sol\":12694:12946  SafeMath.div(... */\n      jump\t// in\n    tag_247:\n        /* \"contracts/ymii/stake2.sol\":12969:12973  1000 */\n      0x03e8\n        /* \"contracts/ymii/stake2.sol\":12659:12671  SafeMath.div */\n      tag_234\n        /* \"contracts/ymii/stake2.sol\":12659:12992  SafeMath.div(... */\n      jump\t// in\n    tag_246:\n        /* \"contracts/ymii/stake2.sol\":13011:13018  _stake1 */\n      sload(0x04)\n        /* \"contracts/ymii/stake2.sol\":12628:12640  SafeMath.div */\n      tag_234\n        /* \"contracts/ymii/stake2.sol\":12628:13033  SafeMath.div(... */\n      jump\t// in\n    tag_245:\n        /* \"contracts/ymii/stake2.sol\":12621:13033  base = SafeMath.div(... */\n      swap2\n      pop\n        /* \"contracts/ymii/stake2.sol\":12585:13045  if (time == _stake5) {... */\n    tag_244:\n        /* \"contracts/ymii/stake2.sol\":12119:13045  if (time == _stake3) {... */\n    tag_243:\n        /* \"contracts/ymii/stake2.sol\":11654:13045  if (time == _stake1) {... */\n    tag_235:\n        /* \"contracts/ymii/stake2.sol\":13080:13081  0 */\n      0x00\n        /* \"contracts/ymii/stake2.sol\":13061:13082  inviter != address(0) */\n      0xffffffffffffffffffffffffffffffffffffffff\n      and\n        /* \"contracts/ymii/stake2.sol\":13061:13068  inviter */\n      dup5\n        /* \"contracts/ymii/stake2.sol\":13061:13082  inviter != address(0) */\n      0xffffffffffffffffffffffffffffffffffffffff\n      and\n      eq\n        /* \"contracts/ymii/stake2.sol\":13057:13297  if (inviter != address(0)) {... */\n      tag_251\n      jumpi\n        /* \"contracts/ymii/stake2.sol\":13125:13132  inviter */\n      dup4\n        /* \"contracts/ymii/stake2.sol\":13099:13110  _inviterMap */\n      0x08\n        /* \"contracts/ymii/stake2.sol\":13099:13122  _inviterMap[msg.sender] */\n      0x00\n        /* \"contracts/ymii/stake2.sol\":13111:13121  msg.sender */\n      caller\n        /* \"contracts/ymii/stake2.sol\":13099:13122  _inviterMap[msg.sender] */\n      0xffffffffffffffffffffffffffffffffffffffff\n      and\n      0xffffffffffffffffffffffffffffffffffffffff\n      and\n      dup2\n      mstore\n      0x20\n      add\n      swap1\n      dup2\n      mstore\n      0x20\n      add\n      0x00\n      keccak256\n      0x00\n        /* \"contracts/ymii/stake2.sol\":13099:13132  _inviterMap[msg.sender] = inviter */\n      0x0100\n      exp\n      dup2\n      sload\n      dup2\n      0xffffffffffffffffffffffffffffffffffffffff\n      mul\n      not\n      and\n      swap1\n      dup4\n      0xffffffffffffffffffffffffffffffffffffffff\n      and\n      mul\n      or\n      swap1\n      sstore\n      pop\n        /* \"contracts/ymii/stake2.sol\":13240:13246  100000 */\n      0x0186a0\n        /* \"contracts/ymii/stake2.sol\":13212:13223  _proportion */\n      sload(0x07)\n        /* \"contracts/ymii/stake2.sol\":13208:13209  5 */\n      0x05\n        /* \"contracts/ymii/stake2.sol\":13199:13205  amount */\n      dup8\n        /* \"contracts/ymii/stake2.sol\":13188:13196  _lpPrice */\n      dup5\n        /* \"contracts/ymii/stake2.sol\":13188:13205  _lpPrice * amount */\n      tag_252\n      swap2\n      swap1\n      tag_253\n      jump\t// in\n    tag_252:\n        /* \"contracts/ymii/stake2.sol\":13188:13209  _lpPrice * amount * 5 */\n      tag_254\n      swap2\n      swap1\n      tag_253\n      jump\t// in\n    tag_254:\n        /* \"contracts/ymii/stake2.sol\":13188:13223  _lpPrice * amount * 5 * _proportion */\n      tag_255\n      swap2\n      swap1\n      tag_253\n      jump\t// in\n    tag_255:\n        /* \"contracts/ymii/stake2.sol\":13187:13246  (_lpPrice * amount * 5 * _proportion) /... */\n      tag_256\n      swap2\n      swap1\n      tag_257\n      jump\t// in\n    tag_256:\n        /* \"contracts/ymii/stake2.sol\":13147:13161  _inviterReward */\n      0x09\n        /* \"contracts/ymii/stake2.sol\":13147:13170  _inviterReward[inviter] */\n      0x00\n        /* \"contracts/ymii/stake2.sol\":13162:13169  inviter */\n      dup7\n        /* \"contracts/ymii/stake2.sol\":13147:13170  _inviterReward[inviter] */\n      0xffffffffffffffffffffffffffffffffffffffff\n      and\n      0xffffffffffffffffffffffffffffffffffffffff\n      and\n      dup2\n      mstore\n      0x20\n      add\n      swap1\n      dup2\n      mstore\n      0x20\n      add\n      0x00\n      keccak256\n      0x00\n        /* \"contracts/ymii/stake2.sol\":13147:13246  _inviterReward[inviter] +=... */\n      dup3\n      dup3\n      sload\n      tag_258\n      swap2\n      swap1\n      tag_259\n      jump\t// in\n    tag_258:\n      swap3\n      pop\n      pop\n      dup2\n      swap1\n      sstore\n      pop\n        /* \"contracts/ymii/stake2.sol\":13284:13285  1 */\n      0x01\n        /* \"contracts/ymii/stake2.sol\":13261:13271  _inviteNum */\n      0x0a\n        /* \"contracts/ymii/stake2.sol\":13261:13280  _inviteNum[inviter] */\n      0x00\n        /* \"contracts/ymii/stake2.sol\":13272:13279  inviter */\n      dup7\n        /* \"contracts/ymii/stake2.sol\":13261:13280  _inviteNum[inviter] */\n      0xffffffffffffffffffffffffffffffffffffffff\n      and\n      0xffffffffffffffffffffffffffffffffffffffff\n      and\n      dup2\n      mstore\n      0x20\n      add\n      swap1\n      dup2\n      mstore\n      0x20\n      add\n      0x00\n      keccak256\n      0x00\n        /* \"contracts/ymii/stake2.sol\":13261:13285  _inviteNum[inviter] += 1 */\n      dup3\n      dup3\n      sload\n      tag_260\n      swap2\n      swap1\n      tag_259\n      jump\t// in\n    tag_260:\n      swap3\n      pop\n      pop\n      dup2\n      swap1\n      sstore\n      pop\n        /* \"contracts/ymii/stake2.sol\":13057:13297  if (inviter != address(0)) {... */\n    tag_251:\n        /* \"contracts/ymii/stake2.sol\":13314:13325  _stakeToken */\n      0x02\n      0x00\n      swap1\n      sload\n      swap1\n      0x0100\n      exp\n      swap1\n      div\n      0xffffffffffffffffffffffffffffffffffffffff\n      and\n        /* \"contracts/ymii/stake2.sol\":13307:13339  IERC20(_stakeToken).transferFrom */\n      0xffffffffffffffffffffffffffffffffffffffff\n      and\n      0x23b872dd\n        /* \"contracts/ymii/stake2.sol\":13340:13350  msg.sender */\n      caller\n        /* \"contracts/ymii/stake2.sol\":13360:13364  this */\n      address\n        /* \"contracts/ymii/stake2.sol\":13367:13373  amount */\n      dup9\n        /* \"contracts/ymii/stake2.sol\":13307:13374  IERC20(_stakeToken).transferFrom(msg.sender, address(this), amount) */\n      mload(0x40)\n      dup5\n      0xffffffff\n      and\n      0xe0\n      shl\n      dup2\n      mstore\n      0x04\n      add\n      tag_261\n      swap4\n      swap3\n      swap2\n      swap1\n      tag_262\n      jump\t// in\n    tag_261:\n      0x20\n      mload(0x40)\n      dup1\n      dup4\n      sub\n      dup2\n      0x00\n      dup8\n      gas\n      call\n      iszero\n      dup1\n      iszero\n      tag_264\n      jumpi\n      returndatasize\n      0x00\n      dup1\n      returndatacopy\n      revert(0x00, returndatasize)\n    tag_264:\n      pop\n      pop\n      pop\n      pop\n      mload(0x40)\n      returndatasize\n      not(0x1f)\n      0x1f\n      dup3\n      add\n      and\n      dup3\n      add\n      dup1\n      0x40\n      mstore\n      pop\n      dup2\n      add\n      swap1\n      tag_265\n      swap2\n      swap1\n      tag_266\n      jump\t// in\n    tag_265:\n      pop\n        /* \"contracts/ymii/stake2.sol\":13410:13416  amount */\n      dup5\n        /* \"contracts/ymii/stake2.sol\":13385:13395  _userStake */\n      0x0c\n        /* \"contracts/ymii/stake2.sol\":13385:13407  _userStake[msg.sender] */\n      0x00\n        /* \"contracts/ymii/stake2.sol\":13396:13406  msg.sender */\n      caller\n        /* \"contracts/ymii/stake2.sol\":13385:13407  _userStake[msg.sender] */\n      0xffffffffffffffffffffffffffffffffffffffff\n      and\n      0xffffffffffffffffffffffffffffffffffffffff\n      and\n      dup2\n      mstore\n      0x20\n      add\n      swap1\n      dup2\n      mstore\n      0x20\n      add\n      0x00\n      keccak256\n        /* \"contracts/ymii/stake2.sol\":13385:13416  _userStake[msg.sender] = amount */\n      dup2\n      swap1\n      sstore\n      pop\n        /* \"contracts/ymii/stake2.sol\":13461:13476  block.timestamp */\n      timestamp\n        /* \"contracts/ymii/stake2.sol\":13427:13446  _userStakeStartTime */\n      0x0e\n        /* \"contracts/ymii/stake2.sol\":13427:13458  _userStakeStartTime[msg.sender] */\n      0x00\n        /* \"contracts/ymii/stake2.sol\":13447:13457  msg.sender */\n      caller\n        /* \"contracts/ymii/stake2.sol\":13427:13458  _userStakeStartTime[msg.sender] */\n      0xffffffffffffffffffffffffffffffffffffffff\n      and\n      0xffffffffffffffffffffffffffffffffffffffff\n      and\n      dup2\n      mstore\n      0x20\n      add\n      swap1\n      dup2\n      mstore\n      0x20\n      add\n      0x00\n      keccak256\n        /* \"contracts/ymii/stake2.sol\":13427:13476  _userStakeStartTime[msg.sender] = block.timestamp */\n      dup2\n      swap1\n      sstore\n      pop\n        /* \"contracts/ymii/stake2.sol\":13519:13534  block.timestamp */\n      timestamp\n        /* \"contracts/ymii/stake2.sol\":13487:13505  _userLastClaimTime */\n      0x0f\n        /* \"contracts/ymii/stake2.sol\":13487:13517  _userLastClaimTime[msg.sender] */\n      0x00\n        /* \"contracts/ymii/stake2.sol\":13506:13516  msg.sender */\n      caller\n        /* \"contracts/ymii/stake2.sol\":13487:13517  _userLastClaimTime[msg.sender] */\n      0xffffffffffffffffffffffffffffffffffffffff\n      and\n      0xffffffffffffffffffffffffffffffffffffffff\n      and\n      dup2\n      mstore\n      0x20\n      add\n      swap1\n      dup2\n      mstore\n      0x20\n      add\n      0x00\n      keccak256\n        /* \"contracts/ymii/stake2.sol\":13487:13534  _userLastClaimTime[msg.sender]= block.timestamp */\n      dup2\n      swap1\n      sstore\n      pop\n        /* \"contracts/ymii/stake2.sol\":13595:13599  time */\n      dup3\n        /* \"contracts/ymii/stake2.sol\":13577:13592  block.timestamp */\n      timestamp\n        /* \"contracts/ymii/stake2.sol\":13577:13599  block.timestamp + time */\n      tag_267\n      swap2\n      swap1\n      tag_259\n      jump\t// in\n    tag_267:\n        /* \"contracts/ymii/stake2.sol\":13545:13562  _userEndClaimTime */\n      0x10\n        /* \"contracts/ymii/stake2.sol\":13545:13574  _userEndClaimTime[msg.sender] */\n      0x00\n        /* \"contracts/ymii/stake2.sol\":13563:13573  msg.sender */\n      caller\n        /* \"contracts/ymii/stake2.sol\":13545:13574  _userEndClaimTime[msg.sender] */\n      0xffffffffffffffffffffffffffffffffffffffff\n      and\n      0xffffffffffffffffffffffffffffffffffffffff\n      and\n      dup2\n      mstore\n      0x20\n      add\n      swap1\n      dup2\n      mstore\n      0x20\n      add\n      0x00\n      keccak256\n        /* \"contracts/ymii/stake2.sol\":13545:13599  _userEndClaimTime[msg.sender] = block.timestamp + time */\n      dup2\n      swap1\n      sstore\n      pop\n        /* \"contracts/ymii/stake2.sol\":13639:13643  time */\n      dup3\n        /* \"contracts/ymii/stake2.sol\":13610:13624  _userStakeTime */\n      0x0d\n        /* \"contracts/ymii/stake2.sol\":13610:13636  _userStakeTime[msg.sender] */\n      0x00\n        /* \"contracts/ymii/stake2.sol\":13625:13635  msg.sender */\n      caller\n        /* \"contracts/ymii/stake2.sol\":13610:13636  _userStakeTime[msg.sender] */\n      0xffffffffffffffffffffffffffffffffffffffff\n      and\n      0xffffffffffffffffffffffffffffffffffffffff\n      and\n      dup2\n      mstore\n      0x20\n      add\n      swap1\n      dup2\n      mstore\n      0x20\n      add\n      0x00\n      keccak256\n        /* \"contracts/ymii/stake2.sol\":13610:13643  _userStakeTime[msg.sender] = time */\n      dup2\n      swap1\n      sstore\n      pop\n        /* \"contracts/ymii/stake2.sol\":13679:13683  base */\n      dup2\n        /* \"contracts/ymii/stake2.sol\":13654:13664  _userPower */\n      0x11\n        /* \"contracts/ymii/stake2.sol\":13654:13676  _userPower[msg.sender] */\n      0x00\n        /* \"contracts/ymii/stake2.sol\":13665:13675  msg.sender */\n      caller\n        /* \"contracts/ymii/stake2.sol\":13654:13676  _userPower[msg.sender] */\n      0xffffffffffffffffffffffffffffffffffffffff\n      and\n      0xffffffffffffffffffffffffffffffffffffffff\n      and\n      dup2\n      mstore\n      0x20\n      add\n      swap1\n      dup2\n      mstore\n      0x20\n      add\n      0x00\n      keccak256\n        /* \"contracts/ymii/stake2.sol\":13654:13683  _userPower[msg.sender] = base */\n      dup2\n      swap1\n      sstore\n      pop\n        /* \"contracts/ymii/stake2.sol\":11186:13691  {... */\n      pop\n      pop\n        /* \"contracts/ymii/stake2.sol\":11083:13691  function stake(... */\n      pop\n      pop\n      pop\n      jump\t// out\n        /* \"contracts/ymii/stake2.sol\":8814:8885  address public _stakeToken = 0x6b6b2D8166D13b58155b8d454F239AE3691257A6 */\n    tag_99:\n      0x02\n      0x00\n      swap1\n      sload\n      swap1\n      0x0100\n      exp\n      swap1\n      div\n      0xffffffffffffffffffffffffffffffffffffffff\n      and\n      dup2\n      jump\t// out\n        /* \"contracts/ymii/stake2.sol\":10013:10066  mapping(address => uint256) public _userLastClaimTime */\n    tag_103:\n      mstore(0x20, 0x0f)\n      dup1\n      0x00\n      mstore\n      keccak256(0x00, 0x40)\n      0x00\n      swap2\n      pop\n      swap1\n      pop\n      sload\n      dup2\n      jump\t// out\n        /* \"contracts/ymii/stake2.sol\":10634:10754  function setUserBlacklist(address user) public onlyOwner {... */\n    tag_107:\n        /* \"contracts/ymii/stake2.sol\":1591:1601  msg.sender */\n      caller\n        /* \"contracts/ymii/stake2.sol\":1581:1601  _owner == msg.sender */\n      0xffffffffffffffffffffffffffffffffffffffff\n      and\n        /* \"contracts/ymii/stake2.sol\":1581:1587  _owner */\n      0x00\n      dup1\n      sload\n      swap1\n      0x0100\n      exp\n      swap1\n      div\n      0xffffffffffffffffffffffffffffffffffffffff\n      and\n        /* \"contracts/ymii/stake2.sol\":1581:1601  _owner == msg.sender */\n      0xffffffffffffffffffffffffffffffffffffffff\n      and\n      eq\n        /* \"contracts/ymii/stake2.sol\":1581:1623  _owner == msg.sender||_owner == msg.sender */\n      dup1\n      tag_269\n      jumpi\n      pop\n        /* \"contracts/ymii/stake2.sol\":1613:1623  msg.sender */\n      caller\n        /* \"contracts/ymii/stake2.sol\":1603:1623  _owner == msg.sender */\n      0xffffffffffffffffffffffffffffffffffffffff\n      and\n        /* \"contracts/ymii/stake2.sol\":1603:1609  _owner */\n      0x00\n      dup1\n      sload\n      swap1\n      0x0100\n      exp\n      swap1\n      div\n      0xffffffffffffffffffffffffffffffffffffffff\n      and\n        /* \"contracts/ymii/stake2.sol\":1603:1623  _owner == msg.sender */\n      0xffffffffffffffffffffffffffffffffffffffff\n      and\n      eq\n        /* \"contracts/ymii/stake2.sol\":1581:1623  _owner == msg.sender||_owner == msg.sender */\n    tag_269:\n        /* \"contracts/ymii/stake2.sol\":1573:1634  require(_owner == msg.sender||_owner == msg.sender, \"!owner\") */\n      tag_270\n      jumpi\n      mload(0x40)\n      0x08c379a000000000000000000000000000000000000000000000000000000000\n      dup2\n      mstore\n      0x04\n      add\n      tag_271\n      swap1\n      tag_169\n      jump\t// in\n    tag_271:\n      mload(0x40)\n      dup1\n      swap2\n      sub\n      swap1\n      revert\n    tag_270:\n        /* \"contracts/ymii/stake2.sol\":10726:10740  _userBlacklist */\n      0x12\n        /* \"contracts/ymii/stake2.sol\":10726:10746  _userBlacklist[user] */\n      0x00\n        /* \"contracts/ymii/stake2.sol\":10741:10745  user */\n      dup3\n        /* \"contracts/ymii/stake2.sol\":10726:10746  _userBlacklist[user] */\n      0xffffffffffffffffffffffffffffffffffffffff\n      and\n      0xffffffffffffffffffffffffffffffffffffffff\n      and\n      dup2\n      mstore\n      0x20\n      add\n      swap1\n      dup2\n      mstore\n      0x20\n      add\n      0x00\n      keccak256\n      0x00\n      swap1\n      sload\n      swap1\n      0x0100\n      exp\n      swap1\n      div\n      0xff\n      and\n        /* \"contracts/ymii/stake2.sol\":10725:10746  !_userBlacklist[user] */\n      iszero\n        /* \"contracts/ymii/stake2.sol\":10702:10716  _userBlacklist */\n      0x12\n        /* \"contracts/ymii/stake2.sol\":10702:10722  _userBlacklist[user] */\n      0x00\n        /* \"contracts/ymii/stake2.sol\":10717:10721  user */\n      dup4\n        /* \"contracts/ymii/stake2.sol\":10702:10722  _userBlacklist[user] */\n      0xffffffffffffffffffffffffffffffffffffffff\n      and\n      0xffffffffffffffffffffffffffffffffffffffff\n      and\n      dup2\n      mstore\n      0x20\n      add\n      swap1\n      dup2\n      mstore\n      0x20\n      add\n      0x00\n      keccak256\n      0x00\n        /* \"contracts/ymii/stake2.sol\":10702:10746  _userBlacklist[user] = !_userBlacklist[user] */\n      0x0100\n      exp\n      dup2\n      sload\n      dup2\n      0xff\n      mul\n      not\n      and\n      swap1\n      dup4\n      iszero\n      iszero\n      mul\n      or\n      swap1\n      sstore\n      pop\n        /* \"contracts/ymii/stake2.sol\":10634:10754  function setUserBlacklist(address user) public onlyOwner {... */\n      pop\n      jump\t// out\n        /* \"contracts/ymii/stake2.sol\":9254:9296  uint256 public _stake3 = 24 hours * 30 * 3 */\n    tag_109:\n      sload(0x05)\n      dup2\n      jump\t// out\n        /* \"contracts/ymii/stake2.sol\":1454:1533  function owner() public view returns (address) {... */\n    tag_112:\n        /* \"contracts/ymii/stake2.sol\":1492:1499  address */\n      0x00\n        /* \"contracts/ymii/stake2.sol\":1519:1525  _owner */\n      dup1\n      0x00\n      swap1\n      sload\n      swap1\n      0x0100\n      exp\n      swap1\n      div\n      0xffffffffffffffffffffffffffffffffffffffff\n      and\n        /* \"contracts/ymii/stake2.sol\":1512:1525  return _owner */\n      swap1\n      pop\n        /* \"contracts/ymii/stake2.sol\":1454:1533  function owner() public view returns (address) {... */\n      swap1\n      jump\t// out\n        /* \"contracts/ymii/stake2.sol\":17265:17659  function cancalStackOver(uint256 amount) public onlyOwner{      ... */\n    tag_116:\n        /* \"contracts/ymii/stake2.sol\":1591:1601  msg.sender */\n      caller\n        /* \"contracts/ymii/stake2.sol\":1581:1601  _owner == msg.sender */\n      0xffffffffffffffffffffffffffffffffffffffff\n      and\n        /* \"contracts/ymii/stake2.sol\":1581:1587  _owner */\n      0x00\n      dup1\n      sload\n      swap1\n      0x0100\n      exp\n      swap1\n      div\n      0xffffffffffffffffffffffffffffffffffffffff\n      and\n        /* \"contracts/ymii/stake2.sol\":1581:1601  _owner == msg.sender */\n      0xffffffffffffffffffffffffffffffffffffffff\n      and\n      eq\n        /* \"contracts/ymii/stake2.sol\":1581:1623  _owner == msg.sender||_owner == msg.sender */\n      dup1\n      tag_275\n      jumpi\n      pop\n        /* \"contracts/ymii/stake2.sol\":1613:1623  msg.sender */\n      caller\n        /* \"contracts/ymii/stake2.sol\":1603:1623  _owner == msg.sender */\n      0xffffffffffffffffffffffffffffffffffffffff\n      and\n        /* \"contracts/ymii/stake2.sol\":1603:1609  _owner */\n      0x00\n      dup1\n      sload\n      swap1\n      0x0100\n      exp\n      swap1\n      div\n      0xffffffffffffffffffffffffffffffffffffffff\n      and\n        /* \"contracts/ymii/stake2.sol\":1603:1623  _owner == msg.sender */\n      0xffffffffffffffffffffffffffffffffffffffff\n      and\n      eq\n        /* \"contracts/ymii/stake2.sol\":1581:1623  _owner == msg.sender||_owner == msg.sender */\n    tag_275:\n        /* \"contracts/ymii/stake2.sol\":1573:1634  require(_owner == msg.sender||_owner == msg.sender, \"!owner\") */\n      tag_276\n      jumpi\n      mload(0x40)\n      0x08c379a000000000000000000000000000000000000000000000000000000000\n      dup2\n      mstore\n      0x04\n      add\n      tag_277\n      swap1\n      tag_169\n      jump\t// in\n    tag_277:\n      mload(0x40)\n      dup1\n      swap2\n      sub\n      swap1\n      revert\n    tag_276:\n        /* \"contracts/ymii/stake2.sol\":17372:17373  0 */\n      0x00\n        /* \"contracts/ymii/stake2.sol\":17347:17357  _userStake */\n      0x0c\n        /* \"contracts/ymii/stake2.sol\":17347:17369  _userStake[msg.sender] */\n      0x00\n        /* \"contracts/ymii/stake2.sol\":17358:17368  msg.sender */\n      caller\n        /* \"contracts/ymii/stake2.sol\":17347:17369  _userStake[msg.sender] */\n      0xffffffffffffffffffffffffffffffffffffffff\n      and\n      0xffffffffffffffffffffffffffffffffffffffff\n      and\n      dup2\n      mstore\n      0x20\n      add\n      swap1\n      dup2\n      mstore\n      0x20\n      add\n      0x00\n      keccak256\n      sload\n        /* \"contracts/ymii/stake2.sol\":17347:17373  _userStake[msg.sender] > 0 */\n      gt\n        /* \"contracts/ymii/stake2.sol\":17339:17387  require(_userStake[msg.sender] > 0, \"not stake\") */\n      tag_279\n      jumpi\n      mload(0x40)\n      0x08c379a000000000000000000000000000000000000000000000000000000000\n      dup2\n      mstore\n      0x04\n      add\n      tag_280\n      swap1\n      tag_281\n      jump\t// in\n    tag_280:\n      mload(0x40)\n      dup1\n      swap2\n      sub\n      swap1\n      revert\n    tag_279:\n        /* \"contracts/ymii/stake2.sol\":17405:17416  _stakeToken */\n      0x02\n      0x00\n      swap1\n      sload\n      swap1\n      0x0100\n      exp\n      swap1\n      div\n      0xffffffffffffffffffffffffffffffffffffffff\n      and\n        /* \"contracts/ymii/stake2.sol\":17398:17426  IERC20(_stakeToken).transfer */\n      0xffffffffffffffffffffffffffffffffffffffff\n      and\n      0xa9059cbb\n        /* \"contracts/ymii/stake2.sol\":17427:17437  msg.sender */\n      caller\n        /* \"contracts/ymii/stake2.sol\":17439:17445  amount */\n      dup4\n        /* \"contracts/ymii/stake2.sol\":17398:17446  IERC20(_stakeToken).transfer(msg.sender, amount) */\n      mload(0x40)\n      dup4\n      0xffffffff\n      and\n      0xe0\n      shl\n      dup2\n      mstore\n      0x04\n      add\n      tag_282\n      swap3\n      swap2\n      swap1\n      tag_283\n      jump\t// in\n    tag_282:\n      0x20\n      mload(0x40)\n      dup1\n      dup4\n      sub\n      dup2\n      0x00\n      dup8\n      gas\n      call\n      iszero\n      dup1\n      iszero\n      tag_285\n      jumpi\n      returndatasize\n      0x00\n      dup1\n      returndatacopy\n      revert(0x00, returndatasize)\n    tag_285:\n      pop\n      pop\n      pop\n      pop\n      mload(0x40)\n      returndatasize\n      not(0x1f)\n      0x1f\n      dup3\n      add\n      and\n      dup3\n      add\n      dup1\n      0x40\n      mstore\n      pop\n      dup2\n      add\n      swap1\n      tag_286\n      swap2\n      swap1\n      tag_266\n      jump\t// in\n    tag_286:\n      pop\n        /* \"contracts/ymii/stake2.sol\":17482:17483  0 */\n      0x00\n        /* \"contracts/ymii/stake2.sol\":17457:17467  _userStake */\n      0x0c\n        /* \"contracts/ymii/stake2.sol\":17457:17479  _userStake[msg.sender] */\n      0x00\n        /* \"contracts/ymii/stake2.sol\":17468:17478  msg.sender */\n      caller\n        /* \"contracts/ymii/stake2.sol\":17457:17479  _userStake[msg.sender] */\n      0xffffffffffffffffffffffffffffffffffffffff\n      and\n      0xffffffffffffffffffffffffffffffffffffffff\n      and\n      dup2\n      mstore\n      0x20\n      add\n      swap1\n      dup2\n      mstore\n      0x20\n      add\n      0x00\n      keccak256\n        /* \"contracts/ymii/stake2.sol\":17457:17483  _userStake[msg.sender] = 0 */\n      dup2\n      swap1\n      sstore\n      pop\n        /* \"contracts/ymii/stake2.sol\":17528:17529  0 */\n      0x00\n        /* \"contracts/ymii/stake2.sol\":17494:17513  _userStakeStartTime */\n      0x0e\n        /* \"contracts/ymii/stake2.sol\":17494:17525  _userStakeStartTime[msg.sender] */\n      0x00\n        /* \"contracts/ymii/stake2.sol\":17514:17524  msg.sender */\n      caller\n        /* \"contracts/ymii/stake2.sol\":17494:17525  _userStakeStartTime[msg.sender] */\n      0xffffffffffffffffffffffffffffffffffffffff\n      and\n      0xffffffffffffffffffffffffffffffffffffffff\n      and\n      dup2\n      mstore\n      0x20\n      add\n      swap1\n      dup2\n      mstore\n      0x20\n      add\n      0x00\n      keccak256\n        /* \"contracts/ymii/stake2.sol\":17494:17529  _userStakeStartTime[msg.sender] = 0 */\n      dup2\n      swap1\n      sstore\n      pop\n        /* \"contracts/ymii/stake2.sol\":17572:17573  0 */\n      0x00\n        /* \"contracts/ymii/stake2.sol\":17540:17557  _userEndClaimTime */\n      0x10\n        /* \"contracts/ymii/stake2.sol\":17540:17569  _userEndClaimTime[msg.sender] */\n      0x00\n        /* \"contracts/ymii/stake2.sol\":17558:17568  msg.sender */\n      caller\n        /* \"contracts/ymii/stake2.sol\":17540:17569  _userEndClaimTime[msg.sender] */\n      0xffffffffffffffffffffffffffffffffffffffff\n      and\n      0xffffffffffffffffffffffffffffffffffffffff\n      and\n      dup2\n      mstore\n      0x20\n      add\n      swap1\n      dup2\n      mstore\n      0x20\n      add\n      0x00\n      keccak256\n        /* \"contracts/ymii/stake2.sol\":17540:17573  _userEndClaimTime[msg.sender] = 0 */\n      dup2\n      swap1\n      sstore\n      pop\n        /* \"contracts/ymii/stake2.sol\":17613:17614  0 */\n      0x00\n        /* \"contracts/ymii/stake2.sol\":17584:17598  _userStakeTime */\n      0x0d\n        /* \"contracts/ymii/stake2.sol\":17584:17610  _userStakeTime[msg.sender] */\n      0x00\n        /* \"contracts/ymii/stake2.sol\":17599:17609  msg.sender */\n      caller\n        /* \"contracts/ymii/stake2.sol\":17584:17610  _userStakeTime[msg.sender] */\n      0xffffffffffffffffffffffffffffffffffffffff\n      and\n      0xffffffffffffffffffffffffffffffffffffffff\n      and\n      dup2\n      mstore\n      0x20\n      add\n      swap1\n      dup2\n      mstore\n      0x20\n      add\n      0x00\n      keccak256\n        /* \"contracts/ymii/stake2.sol\":17584:17614  _userStakeTime[msg.sender] = 0 */\n      dup2\n      swap1\n      sstore\n      pop\n        /* \"contracts/ymii/stake2.sol\":17650:17651  0 */\n      0x00\n        /* \"contracts/ymii/stake2.sol\":17625:17635  _userPower */\n      0x11\n        /* \"contracts/ymii/stake2.sol\":17625:17647  _userPower[msg.sender] */\n      0x00\n        /* \"contracts/ymii/stake2.sol\":17636:17646  msg.sender */\n      caller\n        /* \"contracts/ymii/stake2.sol\":17625:17647  _userPower[msg.sender] */\n      0xffffffffffffffffffffffffffffffffffffffff\n      and\n      0xffffffffffffffffffffffffffffffffffffffff\n      and\n      dup2\n      mstore\n      0x20\n      add\n      swap1\n      dup2\n      mstore\n      0x20\n      add\n      0x00\n      keccak256\n        /* \"contracts/ymii/stake2.sol\":17625:17651  _userPower[msg.sender] = 0 */\n      dup2\n      swap1\n      sstore\n      pop\n        /* \"contracts/ymii/stake2.sol\":17265:17659  function cancalStackOver(uint256 amount) public onlyOwner{      ... */\n      pop\n      jump\t// out\n        /* \"contracts/ymii/stake2.sol\":9775:9820  mapping(address => uint256) public _userStake */\n    tag_119:\n      mstore(0x20, 0x0c)\n      dup1\n      0x00\n      mstore\n      keccak256(0x00, 0x40)\n      0x00\n      swap2\n      pop\n      swap1\n      pop\n      sload\n      dup2\n      jump\t// out\n        /* \"contracts/ymii/stake2.sol\":14598:15139  function claimStakeReward() public {... */\n    tag_122:\n        /* \"contracts/ymii/stake2.sol\":14652:14664  isClaimStart */\n      0x0b\n      0x01\n      swap1\n      sload\n      swap1\n      0x0100\n      exp\n      swap1\n      div\n      0xff\n      and\n        /* \"contracts/ymii/stake2.sol\":14644:14678  require(isClaimStart, \"not start\") */\n      tag_288\n      jumpi\n      mload(0x40)\n      0x08c379a000000000000000000000000000000000000000000000000000000000\n      dup2\n      mstore\n      0x04\n      add\n      tag_289\n      swap1\n      tag_211\n      jump\t// in\n    tag_289:\n      mload(0x40)\n      dup1\n      swap2\n      sub\n      swap1\n      revert\n    tag_288:\n        /* \"contracts/ymii/stake2.sol\":14722:14723  0 */\n      0x00\n        /* \"contracts/ymii/stake2.sol\":14697:14707  _userStake */\n      0x0c\n        /* \"contracts/ymii/stake2.sol\":14697:14719  _userStake[msg.sender] */\n      0x00\n        /* \"contracts/ymii/stake2.sol\":14708:14718  msg.sender */\n      caller\n        /* \"contracts/ymii/stake2.sol\":14697:14719  _userStake[msg.sender] */\n      0xffffffffffffffffffffffffffffffffffffffff\n      and\n      0xffffffffffffffffffffffffffffffffffffffff\n      and\n      dup2\n      mstore\n      0x20\n      add\n      swap1\n      dup2\n      mstore\n      0x20\n      add\n      0x00\n      keccak256\n      sload\n        /* \"contracts/ymii/stake2.sol\":14697:14723  _userStake[msg.sender] > 0 */\n      gt\n        /* \"contracts/ymii/stake2.sol\":14689:14737  require(_userStake[msg.sender] > 0, \"not stake\") */\n      tag_290\n      jumpi\n      mload(0x40)\n      0x08c379a000000000000000000000000000000000000000000000000000000000\n      dup2\n      mstore\n      0x04\n      add\n      tag_291\n      swap1\n      tag_281\n      jump\t// in\n    tag_291:\n      mload(0x40)\n      dup1\n      swap2\n      sub\n      swap1\n      revert\n    tag_290:\n        /* \"contracts/ymii/stake2.sol\":14757:14771  _userBlacklist */\n      0x12\n        /* \"contracts/ymii/stake2.sol\":14757:14783  _userBlacklist[msg.sender] */\n      0x00\n        /* \"contracts/ymii/stake2.sol\":14772:14782  msg.sender */\n      caller\n        /* \"contracts/ymii/stake2.sol\":14757:14783  _userBlacklist[msg.sender] */\n      0xffffffffffffffffffffffffffffffffffffffff\n      and\n      0xffffffffffffffffffffffffffffffffffffffff\n      and\n      dup2\n      mstore\n      0x20\n      add\n      swap1\n      dup2\n      mstore\n      0x20\n      add\n      0x00\n      keccak256\n      0x00\n      swap1\n      sload\n      swap1\n      0x0100\n      exp\n      swap1\n      div\n      0xff\n      and\n        /* \"contracts/ymii/stake2.sol\":14756:14783  !_userBlacklist[msg.sender] */\n      iszero\n        /* \"contracts/ymii/stake2.sol\":14748:14808  require(!_userBlacklist[msg.sender], \"user is in blacklist\") */\n      tag_292\n      jumpi\n      mload(0x40)\n      0x08c379a000000000000000000000000000000000000000000000000000000000\n      dup2\n      mstore\n      0x04\n      add\n      tag_293\n      swap1\n      tag_294\n      jump\t// in\n    tag_293:\n      mload(0x40)\n      dup1\n      swap2\n      sub\n      swap1\n      revert\n    tag_292:\n        /* \"contracts/ymii/stake2.sol\":14874:14889  block.timestamp */\n      timestamp\n        /* \"contracts/ymii/stake2.sol\":14841:14859  _userLastClaimTime */\n      0x0f\n        /* \"contracts/ymii/stake2.sol\":14841:14871  _userLastClaimTime[msg.sender] */\n      0x00\n        /* \"contracts/ymii/stake2.sol\":14860:14870  msg.sender */\n      caller\n        /* \"contracts/ymii/stake2.sol\":14841:14871  _userLastClaimTime[msg.sender] */\n      0xffffffffffffffffffffffffffffffffffffffff\n      and\n      0xffffffffffffffffffffffffffffffffffffffff\n      and\n      dup2\n      mstore\n      0x20\n      add\n      swap1\n      dup2\n      mstore\n      0x20\n      add\n      0x00\n      keccak256\n      sload\n        /* \"contracts/ymii/stake2.sol\":14841:14889  _userLastClaimTime[msg.sender] < block.timestamp */\n      lt\n        /* \"contracts/ymii/stake2.sol\":14819:14932  require(... */\n      tag_295\n      jumpi\n      mload(0x40)\n      0x08c379a000000000000000000000000000000000000000000000000000000000\n      dup2\n      mstore\n      0x04\n      add\n      tag_296\n      swap1\n      tag_297\n      jump\t// in\n    tag_296:\n      mload(0x40)\n      dup1\n      swap2\n      sub\n      swap1\n      revert\n    tag_295:\n        /* \"contracts/ymii/stake2.sol\":14943:14957  uint256 amount */\n      0x00\n        /* \"contracts/ymii/stake2.sol\":14960:14982  pureAmount(msg.sender) */\n      tag_298\n        /* \"contracts/ymii/stake2.sol\":14971:14981  msg.sender */\n      caller\n        /* \"contracts/ymii/stake2.sol\":14960:14970  pureAmount */\n      tag_84\n        /* \"contracts/ymii/stake2.sol\":14960:14982  pureAmount(msg.sender) */\n      jump\t// in\n    tag_298:\n        /* \"contracts/ymii/stake2.sol\":14943:14982  uint256 amount = pureAmount(msg.sender) */\n      swap1\n      pop\n        /* \"contracts/ymii/stake2.sol\":15056:15071  block.timestamp */\n      timestamp\n        /* \"contracts/ymii/stake2.sol\":15023:15041  _userLastClaimTime */\n      0x0f\n        /* \"contracts/ymii/stake2.sol\":15023:15053  _userLastClaimTime[msg.sender] */\n      0x00\n        /* \"contracts/ymii/stake2.sol\":15042:15052  msg.sender */\n      caller\n        /* \"contracts/ymii/stake2.sol\":15023:15053  _userLastClaimTime[msg.sender] */\n      0xffffffffffffffffffffffffffffffffffffffff\n      and\n      0xffffffffffffffffffffffffffffffffffffffff\n      and\n      dup2\n      mstore\n      0x20\n      add\n      swap1\n      dup2\n      mstore\n      0x20\n      add\n      0x00\n      keccak256\n        /* \"contracts/ymii/stake2.sol\":15023:15071  _userLastClaimTime[msg.sender] = block.timestamp */\n      dup2\n      swap1\n      sstore\n      pop\n        /* \"contracts/ymii/stake2.sol\":15089:15101  _rewardToken */\n      0x01\n      0x00\n      swap1\n      sload\n      swap1\n      0x0100\n      exp\n      swap1\n      div\n      0xffffffffffffffffffffffffffffffffffffffff\n      and\n        /* \"contracts/ymii/stake2.sol\":15082:15111  IERC20(_rewardToken).transfer */\n      0xffffffffffffffffffffffffffffffffffffffff\n      and\n      0xa9059cbb\n        /* \"contracts/ymii/stake2.sol\":15112:15122  msg.sender */\n      caller\n        /* \"contracts/ymii/stake2.sol\":15124:15130  amount */\n      dup4\n        /* \"contracts/ymii/stake2.sol\":15082:15131  IERC20(_rewardToken).transfer(msg.sender, amount) */\n      mload(0x40)\n      dup4\n      0xffffffff\n      and\n      0xe0\n      shl\n      dup2\n      mstore\n      0x04\n      add\n      tag_299\n      swap3\n      swap2\n      swap1\n      tag_283\n      jump\t// in\n    tag_299:\n      0x20\n      mload(0x40)\n      dup1\n      dup4\n      sub\n      dup2\n      0x00\n      dup8\n      gas\n      call\n      iszero\n      dup1\n      iszero\n      tag_301\n      jumpi\n      returndatasize\n      0x00\n      dup1\n      returndatacopy\n      revert(0x00, returndatasize)\n    tag_301:\n      pop\n      pop\n      pop\n      pop\n      mload(0x40)\n      returndatasize\n      not(0x1f)\n      0x1f\n      dup3\n      add\n      and\n      dup3\n      add\n      dup1\n      0x40\n      mstore\n      pop\n      dup2\n      add\n      swap1\n      tag_302\n      swap2\n      swap1\n      tag_266\n      jump\t// in\n    tag_302:\n      pop\n        /* \"contracts/ymii/stake2.sol\":14633:15139  {... */\n      pop\n        /* \"contracts/ymii/stake2.sol\":14598:15139  function claimStakeReward() public {... */\n      jump\t// out\n        /* \"contracts/ymii/stake2.sol\":9848:9897  mapping(address => uint256) public _userStakeTime */\n    tag_125:\n      mstore(0x20, 0x0d)\n      dup1\n      0x00\n      mstore\n      keccak256(0x00, 0x40)\n      0x00\n      swap2\n      pop\n      swap1\n      pop\n      sload\n      dup2\n      jump\t// out\n        /* \"contracts/ymii/stake2.sol\":9192:9234  uint256 public _stake1 = 24 hours * 30 * 1 */\n    tag_128:\n      sload(0x04)\n      dup2\n      jump\t// out\n        /* \"contracts/ymii/stake2.sol\":10909:11059  function setStatus(bool stakeStart, bool claimStart) public onlyOwner {... */\n    tag_133:\n        /* \"contracts/ymii/stake2.sol\":1591:1601  msg.sender */\n      caller\n        /* \"contracts/ymii/stake2.sol\":1581:1601  _owner == msg.sender */\n      0xffffffffffffffffffffffffffffffffffffffff\n      and\n        /* \"contracts/ymii/stake2.sol\":1581:1587  _owner */\n      0x00\n      dup1\n      sload\n      swap1\n      0x0100\n      exp\n      swap1\n      div\n      0xffffffffffffffffffffffffffffffffffffffff\n      and\n        /* \"contracts/ymii/stake2.sol\":1581:1601  _owner == msg.sender */\n      0xffffffffffffffffffffffffffffffffffffffff\n      and\n      eq\n        /* \"contracts/ymii/stake2.sol\":1581:1623  _owner == msg.sender||_owner == msg.sender */\n      dup1\n      tag_304\n      jumpi\n      pop\n        /* \"contracts/ymii/stake2.sol\":1613:1623  msg.sender */\n      caller\n        /* \"contracts/ymii/stake2.sol\":1603:1623  _owner == msg.sender */\n      0xffffffffffffffffffffffffffffffffffffffff\n      and\n        /* \"contracts/ymii/stake2.sol\":1603:1609  _owner */\n      0x00\n      dup1\n      sload\n      swap1\n      0x0100\n      exp\n      swap1\n      div\n      0xffffffffffffffffffffffffffffffffffffffff\n      and\n        /* \"contracts/ymii/stake2.sol\":1603:1623  _owner == msg.sender */\n      0xffffffffffffffffffffffffffffffffffffffff\n      and\n      eq\n        /* \"contracts/ymii/stake2.sol\":1581:1623  _owner == msg.sender||_owner == msg.sender */\n    tag_304:\n        /* \"contracts/ymii/stake2.sol\":1573:1634  require(_owner == msg.sender||_owner == msg.sender, \"!owner\") */\n      tag_305\n      jumpi\n      mload(0x40)\n      0x08c379a000000000000000000000000000000000000000000000000000000000\n      dup2\n      mstore\n      0x04\n      add\n      tag_306\n      swap1\n      tag_169\n      jump\t// in\n    tag_306:\n      mload(0x40)\n      dup1\n      swap2\n      sub\n      swap1\n      revert\n    tag_305:\n        /* \"contracts/ymii/stake2.sol\":11005:11015  stakeStart */\n      dup2\n        /* \"contracts/ymii/stake2.sol\":10990:11002  isStakeStart */\n      0x0b\n      0x00\n        /* \"contracts/ymii/stake2.sol\":10990:11015  isStakeStart = stakeStart */\n      0x0100\n      exp\n      dup2\n      sload\n      dup2\n      0xff\n      mul\n      not\n      and\n      swap1\n      dup4\n      iszero\n      iszero\n      mul\n      or\n      swap1\n      sstore\n      pop\n        /* \"contracts/ymii/stake2.sol\":11041:11051  claimStart */\n      dup1\n        /* \"contracts/ymii/stake2.sol\":11026:11038  isClaimStart */\n      0x0b\n      0x01\n        /* \"contracts/ymii/stake2.sol\":11026:11051  isClaimStart = claimStart */\n      0x0100\n      exp\n      dup2\n      sload\n      dup2\n      0xff\n      mul\n      not\n      and\n      swap1\n      dup4\n      iszero\n      iszero\n      mul\n      or\n      swap1\n      sstore\n      pop\n        /* \"contracts/ymii/stake2.sol\":10909:11059  function setStatus(bool stakeStart, bool claimStart) public onlyOwner {... */\n      pop\n      pop\n      jump\t// out\n        /* \"contracts/ymii/stake2.sol\":8720:8792  address public _rewardToken = 0xf1f8e132f0a3F720b3b204D728A8ff316B182258 */\n    tag_135:\n      0x01\n      0x00\n      swap1\n      sload\n      swap1\n      0x0100\n      exp\n      swap1\n      div\n      0xffffffffffffffffffffffffffffffffffffffff\n      and\n      dup2\n      jump\t// out\n        /* \"contracts/ymii/stake2.sol\":13725:13992  function claimReward() public {... */\n    tag_138:\n        /* \"contracts/ymii/stake2.sol\":13774:13786  isClaimStart */\n      0x0b\n      0x01\n      swap1\n      sload\n      swap1\n      0x0100\n      exp\n      swap1\n      div\n      0xff\n      and\n        /* \"contracts/ymii/stake2.sol\":13766:13800  require(isClaimStart, \"not start\") */\n      tag_309\n      jumpi\n      mload(0x40)\n      0x08c379a000000000000000000000000000000000000000000000000000000000\n      dup2\n      mstore\n      0x04\n      add\n      tag_310\n      swap1\n      tag_211\n      jump\t// in\n    tag_310:\n      mload(0x40)\n      dup1\n      swap2\n      sub\n      swap1\n      revert\n    tag_309:\n        /* \"contracts/ymii/stake2.sol\":13848:13849  0 */\n      0x00\n        /* \"contracts/ymii/stake2.sol\":13819:13833  _inviterReward */\n      0x09\n        /* \"contracts/ymii/stake2.sol\":13819:13845  _inviterReward[msg.sender] */\n      0x00\n        /* \"contracts/ymii/stake2.sol\":13834:13844  msg.sender */\n      caller\n        /* \"contracts/ymii/stake2.sol\":13819:13845  _inviterReward[msg.sender] */\n      0xffffffffffffffffffffffffffffffffffffffff\n      and\n      0xffffffffffffffffffffffffffffffffffffffff\n      and\n      dup2\n      mstore\n      0x20\n      add\n      swap1\n      dup2\n      mstore\n      0x20\n      add\n      0x00\n      keccak256\n      sload\n        /* \"contracts/ymii/stake2.sol\":13819:13849  _inviterReward[msg.sender] > 0 */\n      gt\n        /* \"contracts/ymii/stake2.sol\":13811:13863  require(_inviterReward[msg.sender] > 0, \"no reward\") */\n      tag_311\n      jumpi\n      mload(0x40)\n      0x08c379a000000000000000000000000000000000000000000000000000000000\n      dup2\n      mstore\n      0x04\n      add\n      tag_312\n      swap1\n      tag_313\n      jump\t// in\n    tag_312:\n      mload(0x40)\n      dup1\n      swap2\n      sub\n      swap1\n      revert\n    tag_311:\n        /* \"contracts/ymii/stake2.sol\":13881:13893  _rewardToken */\n      0x01\n      0x00\n      swap1\n      sload\n      swap1\n      0x0100\n      exp\n      swap1\n      div\n      0xffffffffffffffffffffffffffffffffffffffff\n      and\n        /* \"contracts/ymii/stake2.sol\":13874:13903  IERC20(_rewardToken).transfer */\n      0xffffffffffffffffffffffffffffffffffffffff\n      and\n      0xa9059cbb\n        /* \"contracts/ymii/stake2.sol\":13904:13914  msg.sender */\n      caller\n        /* \"contracts/ymii/stake2.sol\":13916:13930  _inviterReward */\n      0x09\n        /* \"contracts/ymii/stake2.sol\":13916:13942  _inviterReward[msg.sender] */\n      0x00\n        /* \"contracts/ymii/stake2.sol\":13931:13941  msg.sender */\n      caller\n        /* \"contracts/ymii/stake2.sol\":13916:13942  _inviterReward[msg.sender] */\n      0xffffffffffffffffffffffffffffffffffffffff\n      and\n      0xffffffffffffffffffffffffffffffffffffffff\n      and\n      dup2\n      mstore\n      0x20\n      add\n      swap1\n      dup2\n      mstore\n      0x20\n      add\n      0x00\n      keccak256\n      sload\n        /* \"contracts/ymii/stake2.sol\":13874:13943  IERC20(_rewardToken).transfer(msg.sender, _inviterReward[msg.sender]) */\n      mload(0x40)\n      dup4\n      0xffffffff\n      and\n      0xe0\n      shl\n      dup2\n      mstore\n      0x04\n      add\n      tag_314\n      swap3\n      swap2\n      swap1\n      tag_283\n      jump\t// in\n    tag_314:\n      0x20\n      mload(0x40)\n      dup1\n      dup4\n      sub\n      dup2\n      0x00\n      dup8\n      gas\n      call\n      iszero\n      dup1\n      iszero\n      tag_316\n      jumpi\n      returndatasize\n      0x00\n      dup1\n      returndatacopy\n      revert(0x00, returndatasize)\n    tag_316:\n      pop\n      pop\n      pop\n      pop\n      mload(0x40)\n      returndatasize\n      not(0x1f)\n      0x1f\n      dup3\n      add\n      and\n      dup3\n      add\n      dup1\n      0x40\n      mstore\n      pop\n      dup2\n      add\n      swap1\n      tag_317\n      swap2\n      swap1\n      tag_266\n      jump\t// in\n    tag_317:\n      pop\n        /* \"contracts/ymii/stake2.sol\":13983:13984  0 */\n      0x00\n        /* \"contracts/ymii/stake2.sol\":13954:13968  _inviterReward */\n      0x09\n        /* \"contracts/ymii/stake2.sol\":13954:13980  _inviterReward[msg.sender] */\n      0x00\n        /* \"contracts/ymii/stake2.sol\":13969:13979  msg.sender */\n      caller\n        /* \"contracts/ymii/stake2.sol\":13954:13980  _inviterReward[msg.sender] */\n      0xffffffffffffffffffffffffffffffffffffffff\n      and\n      0xffffffffffffffffffffffffffffffffffffffff\n      and\n      dup2\n      mstore\n      0x20\n      add\n      swap1\n      dup2\n      mstore\n      0x20\n      add\n      0x00\n      keccak256\n        /* \"contracts/ymii/stake2.sol\":13954:13984  _inviterReward[msg.sender] = 0 */\n      dup2\n      swap1\n      sstore\n      pop\n        /* \"contracts/ymii/stake2.sol\":13725:13992  function claimReward() public {... */\n      jump\t// out\n        /* \"contracts/ymii/stake2.sol\":10180:10225  mapping(address => uint256) public _userPower */\n    tag_141:\n      mstore(0x20, 0x11)\n      dup1\n      0x00\n      mstore\n      keccak256(0x00, 0x40)\n      0x00\n      swap2\n      pop\n      swap1\n      pop\n      sload\n      dup2\n      jump\t// out\n        /* \"contracts/ymii/stake2.sol\":14026:14564  function cancalStack() public {... */\n    tag_144:\n        /* \"contracts/ymii/stake2.sol\":14155:14169  _userStakeTime */\n      0x0d\n        /* \"contracts/ymii/stake2.sol\":14155:14181  _userStakeTime[msg.sender] */\n      0x00\n        /* \"contracts/ymii/stake2.sol\":14170:14180  msg.sender */\n      caller\n        /* \"contracts/ymii/stake2.sol\":14155:14181  _userStakeTime[msg.sender] */\n      0xffffffffffffffffffffffffffffffffffffffff\n      and\n      0xffffffffffffffffffffffffffffffffffffffff\n      and\n      dup2\n      mstore\n      0x20\n      add\n      swap1\n      dup2\n      mstore\n      0x20\n      add\n      0x00\n      keccak256\n      sload\n        /* \"contracts/ymii/stake2.sol\":14107:14126  _userStakeStartTime */\n      0x0e\n        /* \"contracts/ymii/stake2.sol\":14107:14138  _userStakeStartTime[msg.sender] */\n      0x00\n        /* \"contracts/ymii/stake2.sol\":14127:14137  msg.sender */\n      caller\n        /* \"contracts/ymii/stake2.sol\":14107:14138  _userStakeStartTime[msg.sender] */\n      0xffffffffffffffffffffffffffffffffffffffff\n      and\n      0xffffffffffffffffffffffffffffffffffffffff\n      and\n      dup2\n      mstore\n      0x20\n      add\n      swap1\n      dup2\n      mstore\n      0x20\n      add\n      0x00\n      keccak256\n      sload\n        /* \"contracts/ymii/stake2.sol\":14089:14104  block.timestamp */\n      timestamp\n        /* \"contracts/ymii/stake2.sol\":14089:14138  block.timestamp - _userStakeStartTime[msg.sender] */\n      tag_319\n      swap2\n      swap1\n      tag_183\n      jump\t// in\n    tag_319:\n        /* \"contracts/ymii/stake2.sol\":14089:14181  block.timestamp - _userStakeStartTime[msg.sender] >=... */\n      lt\n      iszero\n        /* \"contracts/ymii/stake2.sol\":14067:14217  require(... */\n      tag_320\n      jumpi\n      mload(0x40)\n      0x08c379a000000000000000000000000000000000000000000000000000000000\n      dup2\n      mstore\n      0x04\n      add\n      tag_321\n      swap1\n      tag_322\n      jump\t// in\n    tag_321:\n      mload(0x40)\n      dup1\n      swap2\n      sub\n      swap1\n      revert\n    tag_320:\n        /* \"contracts/ymii/stake2.sol\":14261:14262  0 */\n      0x00\n        /* \"contracts/ymii/stake2.sol\":14236:14246  _userStake */\n      0x0c\n        /* \"contracts/ymii/stake2.sol\":14236:14258  _userStake[msg.sender] */\n      0x00\n        /* \"contracts/ymii/stake2.sol\":14247:14257  msg.sender */\n      caller\n        /* \"contracts/ymii/stake2.sol\":14236:14258  _userStake[msg.sender] */\n      0xffffffffffffffffffffffffffffffffffffffff\n      and\n      0xffffffffffffffffffffffffffffffffffffffff\n      and\n      dup2\n      mstore\n      0x20\n      add\n      swap1\n      dup2\n      mstore\n      0x20\n      add\n      0x00\n      keccak256\n      sload\n        /* \"contracts/ymii/stake2.sol\":14236:14262  _userStake[msg.sender] > 0 */\n      gt\n        /* \"contracts/ymii/stake2.sol\":14228:14276  require(_userStake[msg.sender] > 0, \"not stake\") */\n      tag_323\n      jumpi\n      mload(0x40)\n      0x08c379a000000000000000000000000000000000000000000000000000000000\n      dup2\n      mstore\n      0x04\n      add\n      tag_324\n      swap1\n      tag_281\n      jump\t// in\n    tag_324:\n      mload(0x40)\n      dup1\n      swap2\n      sub\n      swap1\n      revert\n    tag_323:\n        /* \"contracts/ymii/stake2.sol\":14294:14305  _stakeToken */\n      0x02\n      0x00\n      swap1\n      sload\n      swap1\n      0x0100\n      exp\n      swap1\n      div\n      0xffffffffffffffffffffffffffffffffffffffff\n      and\n        /* \"contracts/ymii/stake2.sol\":14287:14315  IERC20(_stakeToken).transfer */\n      0xffffffffffffffffffffffffffffffffffffffff\n      and\n      0xa9059cbb\n        /* \"contracts/ymii/stake2.sol\":14316:14326  msg.sender */\n      caller\n        /* \"contracts/ymii/stake2.sol\":14328:14338  _userStake */\n      0x0c\n        /* \"contracts/ymii/stake2.sol\":14328:14350  _userStake[msg.sender] */\n      0x00\n        /* \"contracts/ymii/stake2.sol\":14339:14349  msg.sender */\n      caller\n        /* \"contracts/ymii/stake2.sol\":14328:14350  _userStake[msg.sender] */\n      0xffffffffffffffffffffffffffffffffffffffff\n      and\n      0xffffffffffffffffffffffffffffffffffffffff\n      and\n      dup2\n      mstore\n      0x20\n      add\n      swap1\n      dup2\n      mstore\n      0x20\n      add\n      0x00\n      keccak256\n      sload\n        /* \"contracts/ymii/stake2.sol\":14287:14351  IERC20(_stakeToken).transfer(msg.sender, _userStake[msg.sender]) */\n      mload(0x40)\n      dup4\n      0xffffffff\n      and\n      0xe0\n      shl\n      dup2\n      mstore\n      0x04\n      add\n      tag_325\n      swap3\n      swap2\n      swap1\n      tag_283\n      jump\t// in\n    tag_325:\n      0x20\n      mload(0x40)\n      dup1\n      dup4\n      sub\n      dup2\n      0x00\n      dup8\n      gas\n      call\n      iszero\n      dup1\n      iszero\n      tag_327\n      jumpi\n      returndatasize\n      0x00\n      dup1\n      returndatacopy\n      revert(0x00, returndatasize)\n    tag_327:\n      pop\n      pop\n      pop\n      pop\n      mload(0x40)\n      returndatasize\n      not(0x1f)\n      0x1f\n      dup3\n      add\n      and\n      dup3\n      add\n      dup1\n      0x40\n      mstore\n      pop\n      dup2\n      add\n      swap1\n      tag_328\n      swap2\n      swap1\n      tag_266\n      jump\t// in\n    tag_328:\n      pop\n        /* \"contracts/ymii/stake2.sol\":14387:14388  0 */\n      0x00\n        /* \"contracts/ymii/stake2.sol\":14362:14372  _userStake */\n      0x0c\n        /* \"contracts/ymii/stake2.sol\":14362:14384  _userStake[msg.sender] */\n      0x00\n        /* \"contracts/ymii/stake2.sol\":14373:14383  msg.sender */\n      caller\n        /* \"contracts/ymii/stake2.sol\":14362:14384  _userStake[msg.sender] */\n      0xffffffffffffffffffffffffffffffffffffffff\n      and\n      0xffffffffffffffffffffffffffffffffffffffff\n      and\n      dup2\n      mstore\n      0x20\n      add\n      swap1\n      dup2\n      mstore\n      0x20\n      add\n      0x00\n      keccak256\n        /* \"contracts/ymii/stake2.sol\":14362:14388  _userStake[msg.sender] = 0 */\n      dup2\n      swap1\n      sstore\n      pop\n        /* \"contracts/ymii/stake2.sol\":14433:14434  0 */\n      0x00\n        /* \"contracts/ymii/stake2.sol\":14399:14418  _userStakeStartTime */\n      0x0e\n        /* \"contracts/ymii/stake2.sol\":14399:14430  _userStakeStartTime[msg.sender] */\n      0x00\n        /* \"contracts/ymii/stake2.sol\":14419:14429  msg.sender */\n      caller\n        /* \"contracts/ymii/stake2.sol\":14399:14430  _userStakeStartTime[msg.sender] */\n      0xffffffffffffffffffffffffffffffffffffffff\n      and\n      0xffffffffffffffffffffffffffffffffffffffff\n      and\n      dup2\n      mstore\n      0x20\n      add\n      swap1\n      dup2\n      mstore\n      0x20\n      add\n      0x00\n      keccak256\n        /* \"contracts/ymii/stake2.sol\":14399:14434  _userStakeStartTime[msg.sender] = 0 */\n      dup2\n      swap1\n      sstore\n      pop\n        /* \"contracts/ymii/stake2.sol\":14477:14478  0 */\n      0x00\n        /* \"contracts/ymii/stake2.sol\":14445:14462  _userEndClaimTime */\n      0x10\n        /* \"contracts/ymii/stake2.sol\":14445:14474  _userEndClaimTime[msg.sender] */\n      0x00\n        /* \"contracts/ymii/stake2.sol\":14463:14473  msg.sender */\n      caller\n        /* \"contracts/ymii/stake2.sol\":14445:14474  _userEndClaimTime[msg.sender] */\n      0xffffffffffffffffffffffffffffffffffffffff\n      and\n      0xffffffffffffffffffffffffffffffffffffffff\n      and\n      dup2\n      mstore\n      0x20\n      add\n      swap1\n      dup2\n      mstore\n      0x20\n      add\n      0x00\n      keccak256\n        /* \"contracts/ymii/stake2.sol\":14445:14478  _userEndClaimTime[msg.sender] = 0 */\n      dup2\n      swap1\n      sstore\n      pop\n        /* \"contracts/ymii/stake2.sol\":14518:14519  0 */\n      0x00\n        /* \"contracts/ymii/stake2.sol\":14489:14503  _userStakeTime */\n      0x0d\n        /* \"contracts/ymii/stake2.sol\":14489:14515  _userStakeTime[msg.sender] */\n      0x00\n        /* \"contracts/ymii/stake2.sol\":14504:14514  msg.sender */\n      caller\n        /* \"contracts/ymii/stake2.sol\":14489:14515  _userStakeTime[msg.sender] */\n      0xffffffffffffffffffffffffffffffffffffffff\n      and\n      0xffffffffffffffffffffffffffffffffffffffff\n      and\n      dup2\n      mstore\n      0x20\n      add\n      swap1\n      dup2\n      mstore\n      0x20\n      add\n      0x00\n      keccak256\n        /* \"contracts/ymii/stake2.sol\":14489:14519  _userStakeTime[msg.sender] = 0 */\n      dup2\n      swap1\n      sstore\n      pop\n        /* \"contracts/ymii/stake2.sol\":14555:14556  0 */\n      0x00\n        /* \"contracts/ymii/stake2.sol\":14530:14540  _userPower */\n      0x11\n        /* \"contracts/ymii/stake2.sol\":14530:14552  _userPower[msg.sender] */\n      0x00\n        /* \"contracts/ymii/stake2.sol\":14541:14551  msg.sender */\n      caller\n        /* \"contracts/ymii/stake2.sol\":14530:14552  _userPower[msg.sender] */\n      0xffffffffffffffffffffffffffffffffffffffff\n      and\n      0xffffffffffffffffffffffffffffffffffffffff\n      and\n      dup2\n      mstore\n      0x20\n      add\n      swap1\n      dup2\n      mstore\n      0x20\n      add\n      0x00\n      keccak256\n        /* \"contracts/ymii/stake2.sol\":14530:14556  _userPower[msg.sender] = 0 */\n      dup2\n      swap1\n      sstore\n      pop\n        /* \"contracts/ymii/stake2.sol\":14026:14564  function cancalStack() public {... */\n      jump\t// out\n        /* \"contracts/ymii/stake2.sol\":9506:9555  mapping(address => uint256) public _inviterReward */\n    tag_147:\n      mstore(0x20, 0x09)\n      dup1\n      0x00\n      mstore\n      keccak256(0x00, 0x40)\n      0x00\n      swap2\n      pop\n      swap1\n      pop\n      sload\n      dup2\n      jump\t// out\n        /* \"contracts/ymii/stake2.sol\":8907:8980  address public _lpPriceToken = 0xB1bF470A9720F8d2E49512DbbcCf7180e4Ac4679 */\n    tag_150:\n      0x03\n      0x00\n      swap1\n      sload\n      swap1\n      0x0100\n      exp\n      swap1\n      div\n      0xffffffffffffffffffffffffffffffffffffffff\n      and\n      dup2\n      jump\t// out\n        /* \"contracts/ymii/stake2.sol\":16432:16965  function ownerSetUser(... */\n    tag_155:\n        /* \"contracts/ymii/stake2.sol\":1591:1601  msg.sender */\n      caller\n        /* \"contracts/ymii/stake2.sol\":1581:1601  _owner == msg.sender */\n      0xffffffffffffffffffffffffffffffffffffffff\n      and\n        /* \"contracts/ymii/stake2.sol\":1581:1587  _owner */\n      0x00\n      dup1\n      sload\n      swap1\n      0x0100\n      exp\n      swap1\n      div\n      0xffffffffffffffffffffffffffffffffffffffff\n      and\n        /* \"contracts/ymii/stake2.sol\":1581:1601  _owner == msg.sender */\n      0xffffffffffffffffffffffffffffffffffffffff\n      and\n      eq\n        /* \"contracts/ymii/stake2.sol\":1581:1623  _owner == msg.sender||_owner == msg.sender */\n      dup1\n      tag_330\n      jumpi\n      pop\n        /* \"contracts/ymii/stake2.sol\":1613:1623  msg.sender */\n      caller\n        /* \"contracts/ymii/stake2.sol\":1603:1623  _owner == msg.sender */\n      0xffffffffffffffffffffffffffffffffffffffff\n      and\n        /* \"contracts/ymii/stake2.sol\":1603:1609  _owner */\n      0x00\n      dup1\n      sload\n      swap1\n      0x0100\n      exp\n      swap1\n      div\n      0xffffffffffffffffffffffffffffffffffffffff\n      and\n        /* \"contracts/ymii/stake2.sol\":1603:1623  _owner == msg.sender */\n      0xffffffffffffffffffffffffffffffffffffffff\n      and\n      eq\n        /* \"contracts/ymii/stake2.sol\":1581:1623  _owner == msg.sender||_owner == msg.sender */\n    tag_330:\n        /* \"contracts/ymii/stake2.sol\":1573:1634  require(_owner == msg.sender||_owner == msg.sender, \"!owner\") */\n      tag_331\n      jumpi\n      mload(0x40)\n      0x08c379a000000000000000000000000000000000000000000000000000000000\n      dup2\n      mstore\n      0x04\n      add\n      tag_332\n      swap1\n      tag_169\n      jump\t// in\n    tag_332:\n      mload(0x40)\n      dup1\n      swap2\n      sub\n      swap1\n      revert\n    tag_331:\n        /* \"contracts/ymii/stake2.sol\":16712:16718  amount */\n      dup6\n        /* \"contracts/ymii/stake2.sol\":16693:16703  _userStake */\n      0x0c\n        /* \"contracts/ymii/stake2.sol\":16693:16709  _userStake[user] */\n      0x00\n        /* \"contracts/ymii/stake2.sol\":16704:16708  user */\n      dup10\n        /* \"contracts/ymii/stake2.sol\":16693:16709  _userStake[user] */\n      0xffffffffffffffffffffffffffffffffffffffff\n      and\n      0xffffffffffffffffffffffffffffffffffffffff\n      and\n      dup2\n      mstore\n      0x20\n      add\n      swap1\n      dup2\n      mstore\n      0x20\n      add\n      0x00\n      keccak256\n        /* \"contracts/ymii/stake2.sol\":16693:16718  _userStake[user] = amount */\n      dup2\n      swap1\n      sstore\n      pop\n        /* \"contracts/ymii/stake2.sol\":16752:16761  stakeTime */\n      dup5\n        /* \"contracts/ymii/stake2.sol\":16729:16743  _userStakeTime */\n      0x0d\n        /* \"contracts/ymii/stake2.sol\":16729:16749  _userStakeTime[user] */\n      0x00\n        /* \"contracts/ymii/stake2.sol\":16744:16748  user */\n      dup10\n        /* \"contracts/ymii/stake2.sol\":16729:16749  _userStakeTime[user] */\n      0xffffffffffffffffffffffffffffffffffffffff\n      and\n      0xffffffffffffffffffffffffffffffffffffffff\n      and\n      dup2\n      mstore\n      0x20\n      add\n      swap1\n      dup2\n      mstore\n      0x20\n      add\n      0x00\n      keccak256\n        /* \"contracts/ymii/stake2.sol\":16729:16761  _userStakeTime[user] = stakeTime */\n      dup2\n      swap1\n      sstore\n      pop\n        /* \"contracts/ymii/stake2.sol\":16800:16814  stakeStartTime */\n      dup4\n        /* \"contracts/ymii/stake2.sol\":16772:16791  _userStakeStartTime */\n      0x0e\n        /* \"contracts/ymii/stake2.sol\":16772:16797  _userStakeStartTime[user] */\n      0x00\n        /* \"contracts/ymii/stake2.sol\":16792:16796  user */\n      dup10\n        /* \"contracts/ymii/stake2.sol\":16772:16797  _userStakeStartTime[user] */\n      0xffffffffffffffffffffffffffffffffffffffff\n      and\n      0xffffffffffffffffffffffffffffffffffffffff\n      and\n      dup2\n      mstore\n      0x20\n      add\n      swap1\n      dup2\n      mstore\n      0x20\n      add\n      0x00\n      keccak256\n        /* \"contracts/ymii/stake2.sol\":16772:16814  _userStakeStartTime[user] = stakeStartTime */\n      dup2\n      swap1\n      sstore\n      pop\n        /* \"contracts/ymii/stake2.sol\":16852:16865  userLastClaim */\n      dup3\n        /* \"contracts/ymii/stake2.sol\":16825:16843  _userLastClaimTime */\n      0x0f\n        /* \"contracts/ymii/stake2.sol\":16825:16849  _userLastClaimTime[user] */\n      0x00\n        /* \"contracts/ymii/stake2.sol\":16844:16848  user */\n      dup10\n        /* \"contracts/ymii/stake2.sol\":16825:16849  _userLastClaimTime[user] */\n      0xffffffffffffffffffffffffffffffffffffffff\n      and\n      0xffffffffffffffffffffffffffffffffffffffff\n      and\n      dup2\n      mstore\n      0x20\n      add\n      swap1\n      dup2\n      mstore\n      0x20\n      add\n      0x00\n      keccak256\n        /* \"contracts/ymii/stake2.sol\":16825:16865  _userLastClaimTime[user] = userLastClaim */\n      dup2\n      swap1\n      sstore\n      pop\n        /* \"contracts/ymii/stake2.sol\":16895:16904  userPower */\n      dup2\n        /* \"contracts/ymii/stake2.sol\":16876:16886  _userPower */\n      0x11\n        /* \"contracts/ymii/stake2.sol\":16876:16892  _userPower[user] */\n      0x00\n        /* \"contracts/ymii/stake2.sol\":16887:16891  user */\n      dup10\n        /* \"contracts/ymii/stake2.sol\":16876:16892  _userPower[user] */\n      0xffffffffffffffffffffffffffffffffffffffff\n      and\n      0xffffffffffffffffffffffffffffffffffffffff\n      and\n      dup2\n      mstore\n      0x20\n      add\n      swap1\n      dup2\n      mstore\n      0x20\n      add\n      0x00\n      keccak256\n        /* \"contracts/ymii/stake2.sol\":16876:16904  _userPower[user] = userPower */\n      dup2\n      swap1\n      sstore\n      pop\n        /* \"contracts/ymii/stake2.sol\":16941:16957  userEndClaimTime */\n      dup1\n        /* \"contracts/ymii/stake2.sol\":16915:16932  _userEndClaimTime */\n      0x10\n        /* \"contracts/ymii/stake2.sol\":16915:16938  _userEndClaimTime[user] */\n      0x00\n        /* \"contracts/ymii/stake2.sol\":16933:16937  user */\n      dup10\n        /* \"contracts/ymii/stake2.sol\":16915:16938  _userEndClaimTime[user] */\n      0xffffffffffffffffffffffffffffffffffffffff\n      and\n      0xffffffffffffffffffffffffffffffffffffffff\n      and\n      dup2\n      mstore\n      0x20\n      add\n      swap1\n      dup2\n      mstore\n      0x20\n      add\n      0x00\n      keccak256\n        /* \"contracts/ymii/stake2.sol\":16915:16957  _userEndClaimTime[user] = userEndClaimTime */\n      dup2\n      swap1\n      sstore\n      pop\n        /* \"contracts/ymii/stake2.sol\":16432:16965  function ownerSetUser(... */\n      pop\n      pop\n      pop\n      pop\n      pop\n      pop\n      pop\n      jump\t// out\n        /* \"contracts/ymii/stake2.sol\":9708:9739  bool public isClaimStart = true */\n    tag_157:\n      0x0b\n      0x01\n      swap1\n      sload\n      swap1\n      0x0100\n      exp\n      swap1\n      div\n      0xff\n      and\n      dup2\n      jump\t// out\n        /* \"contracts/ymii/stake2.sol\":1662:1876  function transferOwnership(address newOwner) public virtual onlyOwner {... */\n    tag_161:\n        /* \"contracts/ymii/stake2.sol\":1591:1601  msg.sender */\n      caller\n        /* \"contracts/ymii/stake2.sol\":1581:1601  _owner == msg.sender */\n      0xffffffffffffffffffffffffffffffffffffffff\n      and\n        /* \"contracts/ymii/stake2.sol\":1581:1587  _owner */\n      0x00\n      dup1\n      sload\n      swap1\n      0x0100\n      exp\n      swap1\n      div\n      0xffffffffffffffffffffffffffffffffffffffff\n      and\n        /* \"contracts/ymii/stake2.sol\":1581:1601  _owner == msg.sender */\n      0xffffffffffffffffffffffffffffffffffffffff\n      and\n      eq\n        /* \"contracts/ymii/stake2.sol\":1581:1623  _owner == msg.sender||_owner == msg.sender */\n      dup1\n      tag_335\n      jumpi\n      pop\n        /* \"contracts/ymii/stake2.sol\":1613:1623  msg.sender */\n      caller\n        /* \"contracts/ymii/stake2.sol\":1603:1623  _owner == msg.sender */\n      0xffffffffffffffffffffffffffffffffffffffff\n      and\n        /* \"contracts/ymii/stake2.sol\":1603:1609  _owner */\n      0x00\n      dup1\n      sload\n      swap1\n      0x0100\n      exp\n      swap1\n      div\n      0xffffffffffffffffffffffffffffffffffffffff\n      and\n        /* \"contracts/ymii/stake2.sol\":1603:1623  _owner == msg.sender */\n      0xffffffffffffffffffffffffffffffffffffffff\n      and\n      eq\n        /* \"contracts/ymii/stake2.sol\":1581:1623  _owner == msg.sender||_owner == msg.sender */\n    tag_335:\n        /* \"contracts/ymii/stake2.sol\":1573:1634  require(_owner == msg.sender||_owner == msg.sender, \"!owner\") */\n      tag_336\n      jumpi\n      mload(0x40)\n      0x08c379a000000000000000000000000000000000000000000000000000000000\n      dup2\n      mstore\n      0x04\n      add\n      tag_337\n      swap1\n      tag_169\n      jump\t// in\n    tag_337:\n      mload(0x40)\n      dup1\n      swap2\n      sub\n      swap1\n      revert\n    tag_336:\n        /* \"contracts/ymii/stake2.sol\":1771:1772  0 */\n      0x00\n        /* \"contracts/ymii/stake2.sol\":1751:1773  newOwner != address(0) */\n      0xffffffffffffffffffffffffffffffffffffffff\n      and\n        /* \"contracts/ymii/stake2.sol\":1751:1759  newOwner */\n      dup2\n        /* \"contracts/ymii/stake2.sol\":1751:1773  newOwner != address(0) */\n      0xffffffffffffffffffffffffffffffffffffffff\n      and\n      sub\n        /* \"contracts/ymii/stake2.sol\":1743:1786  require(newOwner != address(0), \"new is 0\") */\n      tag_339\n      jumpi\n      mload(0x40)\n      0x08c379a000000000000000000000000000000000000000000000000000000000\n      dup2\n      mstore\n      0x04\n      add\n      tag_340\n      swap1\n      tag_341\n      jump\t// in\n    tag_340:\n      mload(0x40)\n      dup1\n      swap2\n      sub\n      swap1\n      revert\n    tag_339:\n        /* \"contracts/ymii/stake2.sol\":1831:1839  newOwner */\n      dup1\n        /* \"contracts/ymii/stake2.sol\":1802:1840  OwnershipTransferred(_owner, newOwner) */\n      0xffffffffffffffffffffffffffffffffffffffff\n      and\n        /* \"contracts/ymii/stake2.sol\":1823:1829  _owner */\n      0x00\n      dup1\n      sload\n      swap1\n      0x0100\n      exp\n      swap1\n      div\n      0xffffffffffffffffffffffffffffffffffffffff\n      and\n        /* \"contracts/ymii/stake2.sol\":1802:1840  OwnershipTransferred(_owner, newOwner) */\n      0xffffffffffffffffffffffffffffffffffffffff\n      and\n      0x8be0079c531659141344cd1fd0a4f28419497f9722a3daafe3b4186f6b6457e0\n      mload(0x40)\n      mload(0x40)\n      dup1\n      swap2\n      sub\n      swap1\n      log3\n        /* \"contracts/ymii/stake2.sol\":1860:1868  newOwner */\n      dup1\n        /* \"contracts/ymii/stake2.sol\":1851:1857  _owner */\n      0x00\n      dup1\n        /* \"contracts/ymii/stake2.sol\":1851:1868  _owner = newOwner */\n      0x0100\n      exp\n      dup2\n      sload\n      dup2\n      0xffffffffffffffffffffffffffffffffffffffff\n      mul\n      not\n      and\n      swap1\n      dup4\n      0xffffffffffffffffffffffffffffffffffffffff\n      and\n      mul\n      or\n      swap1\n      sstore\n      pop\n        /* \"contracts/ymii/stake2.sol\":1662:1876  function transferOwnership(address newOwner) public virtual onlyOwner {... */\n      pop\n      jump\t// out\n        /* \"contracts/ymii/stake2.sol\":9649:9680  bool public isStakeStart = true */\n    tag_163:\n      0x0b\n      0x00\n      swap1\n      sload\n      swap1\n      0x0100\n      exp\n      swap1\n      div\n      0xff\n      and\n      dup2\n      jump\t// out\n        /* \"contracts/ymii/stake2.sol\":3274:3476  function mul(uint256 a, uint256 b) internal pure returns (uint256 c) {... */\n    tag_195:\n        /* \"contracts/ymii/stake2.sol\":3332:3341  uint256 c */\n      0x00\n        /* \"contracts/ymii/stake2.sol\":3363:3364  0 */\n      dup1\n        /* \"contracts/ymii/stake2.sol\":3358:3359  a */\n      dup4\n        /* \"contracts/ymii/stake2.sol\":3358:3364  a == 0 */\n      sub\n        /* \"contracts/ymii/stake2.sol\":3354:3401  if (a == 0) {... */\n      tag_343\n      jumpi\n        /* \"contracts/ymii/stake2.sol\":3388:3389  0 */\n      0x00\n        /* \"contracts/ymii/stake2.sol\":3381:3389  return 0 */\n      swap1\n      pop\n      jump(tag_342)\n        /* \"contracts/ymii/stake2.sol\":3354:3401  if (a == 0) {... */\n    tag_343:\n        /* \"contracts/ymii/stake2.sol\":3419:3420  b */\n      dup2\n        /* \"contracts/ymii/stake2.sol\":3415:3416  a */\n      dup4\n        /* \"contracts/ymii/stake2.sol\":3415:3420  a * b */\n      tag_344\n      swap2\n      swap1\n      tag_253\n      jump\t// in\n    tag_344:\n        /* \"contracts/ymii/stake2.sol\":3411:3420  c = a * b */\n      swap1\n      pop\n        /* \"contracts/ymii/stake2.sol\":3447:3448  b */\n      dup2\n        /* \"contracts/ymii/stake2.sol\":3442:3443  a */\n      dup4\n        /* \"contracts/ymii/stake2.sol\":3438:3439  c */\n      dup3\n        /* \"contracts/ymii/stake2.sol\":3438:3443  c / a */\n      tag_345\n      swap2\n      swap1\n      tag_257\n      jump\t// in\n    tag_345:\n        /* \"contracts/ymii/stake2.sol\":3438:3448  c / a == b */\n      eq\n        /* \"contracts/ymii/stake2.sol\":3431:3449  assert(c / a == b) */\n      tag_346\n      jumpi\n      tag_347\n      tag_348\n      jump\t// in\n    tag_347:\n    tag_346:\n        /* \"contracts/ymii/stake2.sol\":3274:3476  function mul(uint256 a, uint256 b) internal pure returns (uint256 c) {... */\n    tag_342:\n      swap3\n      swap2\n      pop\n      pop\n      jump\t// out\n        /* \"contracts/ymii/stake2.sol\":3484:3582  function div(uint256 a, uint256 b) internal pure returns (uint256) {... */\n    tag_234:\n        /* \"contracts/ymii/stake2.sol\":3542:3549  uint256 */\n      0x00\n        /* \"contracts/ymii/stake2.sol\":3573:3574  b */\n      dup2\n        /* \"contracts/ymii/stake2.sol\":3569:3570  a */\n      dup4\n        /* \"contracts/ymii/stake2.sol\":3569:3574  a / b */\n      tag_350\n      swap2\n      swap1\n      tag_257\n      jump\t// in\n    tag_350:\n        /* \"contracts/ymii/stake2.sol\":3562:3574  return a / b */\n      swap1\n      pop\n        /* \"contracts/ymii/stake2.sol\":3484:3582  function div(uint256 a, uint256 b) internal pure returns (uint256) {... */\n      swap3\n      swap2\n      pop\n      pop\n      jump\t// out\n        /* \"#utility.yul\":88:205   */\n    tag_352:\n        /* \"#utility.yul\":197:198   */\n      0x00\n        /* \"#utility.yul\":194:195   */\n      dup1\n        /* \"#utility.yul\":187:199   */\n      revert\n        /* \"#utility.yul\":334:411   */\n    tag_354:\n        /* \"#utility.yul\":371:378   */\n      0x00\n        /* \"#utility.yul\":400:405   */\n      dup2\n        /* \"#utility.yul\":389:405   */\n      swap1\n      pop\n        /* \"#utility.yul\":334:411   */\n      swap2\n      swap1\n      pop\n      jump\t// out\n        /* \"#utility.yul\":417:539   */\n    tag_355:\n        /* \"#utility.yul\":490:514   */\n      tag_402\n        /* \"#utility.yul\":508:513   */\n      dup2\n        /* \"#utility.yul\":490:514   */\n      tag_354\n      jump\t// in\n    tag_402:\n        /* \"#utility.yul\":483:488   */\n      dup2\n        /* \"#utility.yul\":480:515   */\n      eq\n        /* \"#utility.yul\":470:533   */\n      tag_403\n      jumpi\n        /* \"#utility.yul\":529:530   */\n      0x00\n        /* \"#utility.yul\":526:527   */\n      dup1\n        /* \"#utility.yul\":519:531   */\n      revert\n        /* \"#utility.yul\":470:533   */\n    tag_403:\n        /* \"#utility.yul\":417:539   */\n      pop\n      jump\t// out\n        /* \"#utility.yul\":545:684   */\n    tag_356:\n        /* \"#utility.yul\":591:596   */\n      0x00\n        /* \"#utility.yul\":629:635   */\n      dup2\n        /* \"#utility.yul\":616:636   */\n      calldataload\n        /* \"#utility.yul\":607:636   */\n      swap1\n      pop\n        /* \"#utility.yul\":645:678   */\n      tag_405\n        /* \"#utility.yul\":672:677   */\n      dup2\n        /* \"#utility.yul\":645:678   */\n      tag_355\n      jump\t// in\n    tag_405:\n        /* \"#utility.yul\":545:684   */\n      swap3\n      swap2\n      pop\n      pop\n      jump\t// out\n        /* \"#utility.yul\":690:1019   */\n    tag_47:\n        /* \"#utility.yul\":749:755   */\n      0x00\n        /* \"#utility.yul\":798:800   */\n      0x20\n        /* \"#utility.yul\":786:795   */\n      dup3\n        /* \"#utility.yul\":777:784   */\n      dup5\n        /* \"#utility.yul\":773:796   */\n      sub\n        /* \"#utility.yul\":769:801   */\n      slt\n        /* \"#utility.yul\":766:885   */\n      iszero\n      tag_407\n      jumpi\n        /* \"#utility.yul\":804:883   */\n      tag_408\n      tag_352\n      jump\t// in\n    tag_408:\n        /* \"#utility.yul\":766:885   */\n    tag_407:\n        /* \"#utility.yul\":924:925   */\n      0x00\n        /* \"#utility.yul\":949:1002   */\n      tag_409\n        /* \"#utility.yul\":994:1001   */\n      dup5\n        /* \"#utility.yul\":985:991   */\n      dup3\n        /* \"#utility.yul\":974:983   */\n      dup6\n        /* \"#utility.yul\":970:992   */\n      add\n        /* \"#utility.yul\":949:1002   */\n      tag_356\n      jump\t// in\n    tag_409:\n        /* \"#utility.yul\":939:1002   */\n      swap2\n      pop\n        /* \"#utility.yul\":895:1012   */\n      pop\n        /* \"#utility.yul\":690:1019   */\n      swap3\n      swap2\n      pop\n      pop\n      jump\t// out\n        /* \"#utility.yul\":1025:1151   */\n    tag_357:\n        /* \"#utility.yul\":1062:1069   */\n      0x00\n        /* \"#utility.yul\":1102:1144   */\n      0xffffffffffffffffffffffffffffffffffffffff\n        /* \"#utility.yul\":1095:1100   */\n      dup3\n        /* \"#utility.yul\":1091:1145   */\n      and\n        /* \"#utility.yul\":1080:1145   */\n      swap1\n      pop\n        /* \"#utility.yul\":1025:1151   */\n      swap2\n      swap1\n      pop\n      jump\t// out\n        /* \"#utility.yul\":1157:1253   */\n    tag_358:\n        /* \"#utility.yul\":1194:1201   */\n      0x00\n        /* \"#utility.yul\":1223:1247   */\n      tag_412\n        /* \"#utility.yul\":1241:1246   */\n      dup3\n        /* \"#utility.yul\":1223:1247   */\n      tag_357\n      jump\t// in\n    tag_412:\n        /* \"#utility.yul\":1212:1247   */\n      swap1\n      pop\n        /* \"#utility.yul\":1157:1253   */\n      swap2\n      swap1\n      pop\n      jump\t// out\n        /* \"#utility.yul\":1259:1381   */\n    tag_359:\n        /* \"#utility.yul\":1332:1356   */\n      tag_414\n        /* \"#utility.yul\":1350:1355   */\n      dup2\n        /* \"#utility.yul\":1332:1356   */\n      tag_358\n      jump\t// in\n    tag_414:\n        /* \"#utility.yul\":1325:1330   */\n      dup2\n        /* \"#utility.yul\":1322:1357   */\n      eq\n        /* \"#utility.yul\":1312:1375   */\n      tag_415\n      jumpi\n        /* \"#utility.yul\":1371:1372   */\n      0x00\n        /* \"#utility.yul\":1368:1369   */\n      dup1\n        /* \"#utility.yul\":1361:1373   */\n      revert\n        /* \"#utility.yul\":1312:1375   */\n    tag_415:\n        /* \"#utility.yul\":1259:1381   */\n      pop\n      jump\t// out\n        /* \"#utility.yul\":1387:1526   */\n    tag_360:\n        /* \"#utility.yul\":1433:1438   */\n      0x00\n        /* \"#utility.yul\":1471:1477   */\n      dup2\n        /* \"#utility.yul\":1458:1478   */\n      calldataload\n        /* \"#utility.yul\":1449:1478   */\n      swap1\n      pop\n        /* \"#utility.yul\":1487:1520   */\n      tag_417\n        /* \"#utility.yul\":1514:1519   */\n      dup2\n        /* \"#utility.yul\":1487:1520   */\n      tag_359\n      jump\t// in\n    tag_417:\n        /* \"#utility.yul\":1387:1526   */\n      swap3\n      swap2\n      pop\n      pop\n      jump\t// out\n        /* \"#utility.yul\":1532:1861   */\n    tag_51:\n        /* \"#utility.yul\":1591:1597   */\n      0x00\n        /* \"#utility.yul\":1640:1642   */\n      0x20\n        /* \"#utility.yul\":1628:1637   */\n      dup3\n        /* \"#utility.yul\":1619:1626   */\n      dup5\n        /* \"#utility.yul\":1615:1638   */\n      sub\n        /* \"#utility.yul\":1611:1643   */\n      slt\n        /* \"#utility.yul\":1608:1727   */\n      iszero\n      tag_419\n      jumpi\n        /* \"#utility.yul\":1646:1725   */\n      tag_420\n      tag_352\n      jump\t// in\n    tag_420:\n        /* \"#utility.yul\":1608:1727   */\n    tag_419:\n        /* \"#utility.yul\":1766:1767   */\n      0x00\n        /* \"#utility.yul\":1791:1844   */\n      tag_421\n        /* \"#utility.yul\":1836:1843   */\n      dup5\n        /* \"#utility.yul\":1827:1833   */\n      dup3\n        /* \"#utility.yul\":1816:1825   */\n      dup6\n        /* \"#utility.yul\":1812:1834   */\n      add\n        /* \"#utility.yul\":1791:1844   */\n      tag_360\n      jump\t// in\n    tag_421:\n        /* \"#utility.yul\":1781:1844   */\n      swap2\n      pop\n        /* \"#utility.yul\":1737:1854   */\n      pop\n        /* \"#utility.yul\":1532:1861   */\n      swap3\n      swap2\n      pop\n      pop\n      jump\t// out\n        /* \"#utility.yul\":1867:1985   */\n    tag_361:\n        /* \"#utility.yul\":1954:1978   */\n      tag_423\n        /* \"#utility.yul\":1972:1977   */\n      dup2\n        /* \"#utility.yul\":1954:1978   */\n      tag_354\n      jump\t// in\n    tag_423:\n        /* \"#utility.yul\":1949:1952   */\n      dup3\n        /* \"#utility.yul\":1942:1979   */\n      mstore\n        /* \"#utility.yul\":1867:1985   */\n      pop\n      pop\n      jump\t// out\n        /* \"#utility.yul\":1991:2213   */\n    tag_54:\n        /* \"#utility.yul\":2084:2088   */\n      0x00\n        /* \"#utility.yul\":2122:2124   */\n      0x20\n        /* \"#utility.yul\":2111:2120   */\n      dup3\n        /* \"#utility.yul\":2107:2125   */\n      add\n        /* \"#utility.yul\":2099:2125   */\n      swap1\n      pop\n        /* \"#utility.yul\":2135:2206   */\n      tag_425\n        /* \"#utility.yul\":2203:2204   */\n      0x00\n        /* \"#utility.yul\":2192:2201   */\n      dup4\n        /* \"#utility.yul\":2188:2205   */\n      add\n        /* \"#utility.yul\":2179:2185   */\n      dup5\n        /* \"#utility.yul\":2135:2206   */\n      tag_361\n      jump\t// in\n    tag_425:\n        /* \"#utility.yul\":1991:2213   */\n      swap3\n      swap2\n      pop\n      pop\n      jump\t// out\n        /* \"#utility.yul\":2219:2309   */\n    tag_362:\n        /* \"#utility.yul\":2253:2260   */\n      0x00\n        /* \"#utility.yul\":2296:2301   */\n      dup2\n        /* \"#utility.yul\":2289:2302   */\n      iszero\n        /* \"#utility.yul\":2282:2303   */\n      iszero\n        /* \"#utility.yul\":2271:2303   */\n      swap1\n      pop\n        /* \"#utility.yul\":2219:2309   */\n      swap2\n      swap1\n      pop\n      jump\t// out\n        /* \"#utility.yul\":2315:2424   */\n    tag_363:\n        /* \"#utility.yul\":2396:2417   */\n      tag_428\n        /* \"#utility.yul\":2411:2416   */\n      dup2\n        /* \"#utility.yul\":2396:2417   */\n      tag_362\n      jump\t// in\n    tag_428:\n        /* \"#utility.yul\":2391:2394   */\n      dup3\n        /* \"#utility.yul\":2384:2418   */\n      mstore\n        /* \"#utility.yul\":2315:2424   */\n      pop\n      pop\n      jump\t// out\n        /* \"#utility.yul\":2430:2640   */\n    tag_65:\n        /* \"#utility.yul\":2517:2521   */\n      0x00\n        /* \"#utility.yul\":2555:2557   */\n      0x20\n        /* \"#utility.yul\":2544:2553   */\n      dup3\n        /* \"#utility.yul\":2540:2558   */\n      add\n        /* \"#utility.yul\":2532:2558   */\n      swap1\n      pop\n        /* \"#utility.yul\":2568:2633   */\n      tag_430\n        /* \"#utility.yul\":2630:2631   */\n      0x00\n        /* \"#utility.yul\":2619:2628   */\n      dup4\n        /* \"#utility.yul\":2615:2632   */\n      add\n        /* \"#utility.yul\":2606:2612   */\n      dup5\n        /* \"#utility.yul\":2568:2633   */\n      tag_363\n      jump\t// in\n    tag_430:\n        /* \"#utility.yul\":2430:2640   */\n      swap3\n      swap2\n      pop\n      pop\n      jump\t// out\n        /* \"#utility.yul\":2646:2764   */\n    tag_364:\n        /* \"#utility.yul\":2733:2757   */\n      tag_432\n        /* \"#utility.yul\":2751:2756   */\n      dup2\n        /* \"#utility.yul\":2733:2757   */\n      tag_358\n      jump\t// in\n    tag_432:\n        /* \"#utility.yul\":2728:2731   */\n      dup3\n        /* \"#utility.yul\":2721:2758   */\n      mstore\n        /* \"#utility.yul\":2646:2764   */\n      pop\n      pop\n      jump\t// out\n        /* \"#utility.yul\":2770:2992   */\n    tag_81:\n        /* \"#utility.yul\":2863:2867   */\n      0x00\n        /* \"#utility.yul\":2901:2903   */\n      0x20\n        /* \"#utility.yul\":2890:2899   */\n      dup3\n        /* \"#utility.yul\":2886:2904   */\n      add\n        /* \"#utility.yul\":2878:2904   */\n      swap1\n      pop\n        /* \"#utility.yul\":2914:2985   */\n      tag_434\n        /* \"#utility.yul\":2982:2983   */\n      0x00\n        /* \"#utility.yul\":2971:2980   */\n      dup4\n        /* \"#utility.yul\":2967:2984   */\n      add\n        /* \"#utility.yul\":2958:2964   */\n      dup5\n        /* \"#utility.yul\":2914:2985   */\n      tag_364\n      jump\t// in\n    tag_434:\n        /* \"#utility.yul\":2770:2992   */\n      swap3\n      swap2\n      pop\n      pop\n      jump\t// out\n        /* \"#utility.yul\":2998:3617   */\n    tag_96:\n        /* \"#utility.yul\":3075:3081   */\n      0x00\n        /* \"#utility.yul\":3083:3089   */\n      dup1\n        /* \"#utility.yul\":3091:3097   */\n      0x00\n        /* \"#utility.yul\":3140:3142   */\n      0x60\n        /* \"#utility.yul\":3128:3137   */\n      dup5\n        /* \"#utility.yul\":3119:3126   */\n      dup7\n        /* \"#utility.yul\":3115:3138   */\n      sub\n        /* \"#utility.yul\":3111:3143   */\n      slt\n        /* \"#utility.yul\":3108:3227   */\n      iszero\n      tag_436\n      jumpi\n        /* \"#utility.yul\":3146:3225   */\n      tag_437\n      tag_352\n      jump\t// in\n    tag_437:\n        /* \"#utility.yul\":3108:3227   */\n    tag_436:\n        /* \"#utility.yul\":3266:3267   */\n      0x00\n        /* \"#utility.yul\":3291:3344   */\n      tag_438\n        /* \"#utility.yul\":3336:3343   */\n      dup7\n        /* \"#utility.yul\":3327:3333   */\n      dup3\n        /* \"#utility.yul\":3316:3325   */\n      dup8\n        /* \"#utility.yul\":3312:3334   */\n      add\n        /* \"#utility.yul\":3291:3344   */\n      tag_356\n      jump\t// in\n    tag_438:\n        /* \"#utility.yul\":3281:3344   */\n      swap4\n      pop\n        /* \"#utility.yul\":3237:3354   */\n      pop\n        /* \"#utility.yul\":3393:3395   */\n      0x20\n        /* \"#utility.yul\":3419:3472   */\n      tag_439\n        /* \"#utility.yul\":3464:3471   */\n      dup7\n        /* \"#utility.yul\":3455:3461   */\n      dup3\n        /* \"#utility.yul\":3444:3453   */\n      dup8\n        /* \"#utility.yul\":3440:3462   */\n      add\n        /* \"#utility.yul\":3419:3472   */\n      tag_360\n      jump\t// in\n    tag_439:\n        /* \"#utility.yul\":3409:3472   */\n      swap3\n      pop\n        /* \"#utility.yul\":3364:3482   */\n      pop\n        /* \"#utility.yul\":3521:3523   */\n      0x40\n        /* \"#utility.yul\":3547:3600   */\n      tag_440\n        /* \"#utility.yul\":3592:3599   */\n      dup7\n        /* \"#utility.yul\":3583:3589   */\n      dup3\n        /* \"#utility.yul\":3572:3581   */\n      dup8\n        /* \"#utility.yul\":3568:3590   */\n      add\n        /* \"#utility.yul\":3547:3600   */\n      tag_356\n      jump\t// in\n    tag_440:\n        /* \"#utility.yul\":3537:3600   */\n      swap2\n      pop\n        /* \"#utility.yul\":3492:3610   */\n      pop\n        /* \"#utility.yul\":2998:3617   */\n      swap3\n      pop\n      swap3\n      pop\n      swap3\n      jump\t// out\n        /* \"#utility.yul\":3623:3739   */\n    tag_365:\n        /* \"#utility.yul\":3693:3714   */\n      tag_442\n        /* \"#utility.yul\":3708:3713   */\n      dup2\n        /* \"#utility.yul\":3693:3714   */\n      tag_362\n      jump\t// in\n    tag_442:\n        /* \"#utility.yul\":3686:3691   */\n      dup2\n        /* \"#utility.yul\":3683:3715   */\n      eq\n        /* \"#utility.yul\":3673:3733   */\n      tag_443\n      jumpi\n        /* \"#utility.yul\":3729:3730   */\n      0x00\n        /* \"#utility.yul\":3726:3727   */\n      dup1\n        /* \"#utility.yul\":3719:3731   */\n      revert\n        /* \"#utility.yul\":3673:3733   */\n    tag_443:\n        /* \"#utility.yul\":3623:3739   */\n      pop\n      jump\t// out\n        /* \"#utility.yul\":3745:3878   */\n    tag_366:\n        /* \"#utility.yul\":3788:3793   */\n      0x00\n        /* \"#utility.yul\":3826:3832   */\n      dup2\n        /* \"#utility.yul\":3813:3833   */\n      calldataload\n        /* \"#utility.yul\":3804:3833   */\n      swap1\n      pop\n        /* \"#utility.yul\":3842:3872   */\n      tag_445\n        /* \"#utility.yul\":3866:3871   */\n      dup2\n        /* \"#utility.yul\":3842:3872   */\n      tag_365\n      jump\t// in\n    tag_445:\n        /* \"#utility.yul\":3745:3878   */\n      swap3\n      swap2\n      pop\n      pop\n      jump\t// out\n        /* \"#utility.yul\":3884:4346   */\n    tag_132:\n        /* \"#utility.yul\":3946:3952   */\n      0x00\n        /* \"#utility.yul\":3954:3960   */\n      dup1\n        /* \"#utility.yul\":4003:4005   */\n      0x40\n        /* \"#utility.yul\":3991:4000   */\n      dup4\n        /* \"#utility.yul\":3982:3989   */\n      dup6\n        /* \"#utility.yul\":3978:4001   */\n      sub\n        /* \"#utility.yul\":3974:4006   */\n      slt\n        /* \"#utility.yul\":3971:4090   */\n      iszero\n      tag_447\n      jumpi\n        /* \"#utility.yul\":4009:4088   */\n      tag_448\n      tag_352\n      jump\t// in\n    tag_448:\n        /* \"#utility.yul\":3971:4090   */\n    tag_447:\n        /* \"#utility.yul\":4129:4130   */\n      0x00\n        /* \"#utility.yul\":4154:4204   */\n      tag_449\n        /* \"#utility.yul\":4196:4203   */\n      dup6\n        /* \"#utility.yul\":4187:4193   */\n      dup3\n        /* \"#utility.yul\":4176:4185   */\n      dup7\n        /* \"#utility.yul\":4172:4194   */\n      add\n        /* \"#utility.yul\":4154:4204   */\n      tag_366\n      jump\t// in\n    tag_449:\n        /* \"#utility.yul\":4144:4204   */\n      swap3\n      pop\n        /* \"#utility.yul\":4100:4214   */\n      pop\n        /* \"#utility.yul\":4253:4255   */\n      0x20\n        /* \"#utility.yul\":4279:4329   */\n      tag_450\n        /* \"#utility.yul\":4321:4328   */\n      dup6\n        /* \"#utility.yul\":4312:4318   */\n      dup3\n        /* \"#utility.yul\":4301:4310   */\n      dup7\n        /* \"#utility.yul\":4297:4319   */\n      add\n        /* \"#utility.yul\":4279:4329   */\n      tag_366\n      jump\t// in\n    tag_450:\n        /* \"#utility.yul\":4269:4329   */\n      swap2\n      pop\n        /* \"#utility.yul\":4224:4339   */\n      pop\n        /* \"#utility.yul\":3884:4346   */\n      swap3\n      pop\n      swap3\n      swap1\n      pop\n      jump\t// out\n        /* \"#utility.yul\":4352:5555   */\n    tag_154:\n        /* \"#utility.yul\":4465:4471   */\n      0x00\n        /* \"#utility.yul\":4473:4479   */\n      dup1\n        /* \"#utility.yul\":4481:4487   */\n      0x00\n        /* \"#utility.yul\":4489:4495   */\n      dup1\n        /* \"#utility.yul\":4497:4503   */\n      0x00\n        /* \"#utility.yul\":4505:4511   */\n      dup1\n        /* \"#utility.yul\":4513:4519   */\n      0x00\n        /* \"#utility.yul\":4562:4565   */\n      0xe0\n        /* \"#utility.yul\":4550:4559   */\n      dup9\n        /* \"#utility.yul\":4541:4548   */\n      dup11\n        /* \"#utility.yul\":4537:4560   */\n      sub\n        /* \"#utility.yul\":4533:4566   */\n      slt\n        /* \"#utility.yul\":4530:4650   */\n      iszero\n      tag_452\n      jumpi\n        /* \"#utility.yul\":4569:4648   */\n      tag_453\n      tag_352\n      jump\t// in\n    tag_453:\n        /* \"#utility.yul\":4530:4650   */\n    tag_452:\n        /* \"#utility.yul\":4689:4690   */\n      0x00\n        /* \"#utility.yul\":4714:4767   */\n      tag_454\n        /* \"#utility.yul\":4759:4766   */\n      dup11\n        /* \"#utility.yul\":4750:4756   */\n      dup3\n        /* \"#utility.yul\":4739:4748   */\n      dup12\n        /* \"#utility.yul\":4735:4757   */\n      add\n        /* \"#utility.yul\":4714:4767   */\n      tag_360\n      jump\t// in\n    tag_454:\n        /* \"#utility.yul\":4704:4767   */\n      swap8\n      pop\n        /* \"#utility.yul\":4660:4777   */\n      pop\n        /* \"#utility.yul\":4816:4818   */\n      0x20\n        /* \"#utility.yul\":4842:4895   */\n      tag_455\n        /* \"#utility.yul\":4887:4894   */\n      dup11\n        /* \"#utility.yul\":4878:4884   */\n      dup3\n        /* \"#utility.yul\":4867:4876   */\n      dup12\n        /* \"#utility.yul\":4863:4885   */\n      add\n        /* \"#utility.yul\":4842:4895   */\n      tag_356\n      jump\t// in\n    tag_455:\n        /* \"#utility.yul\":4832:4895   */\n      swap7\n      pop\n        /* \"#utility.yul\":4787:4905   */\n      pop\n        /* \"#utility.yul\":4944:4946   */\n      0x40\n        /* \"#utility.yul\":4970:5023   */\n      tag_456\n        /* \"#utility.yul\":5015:5022   */\n      dup11\n        /* \"#utility.yul\":5006:5012   */\n      dup3\n        /* \"#utility.yul\":4995:5004   */\n      dup12\n        /* \"#utility.yul\":4991:5013   */\n      add\n        /* \"#utility.yul\":4970:5023   */\n      tag_356\n      jump\t// in\n    tag_456:\n        /* \"#utility.yul\":4960:5023   */\n      swap6\n      pop\n        /* \"#utility.yul\":4915:5033   */\n      pop\n        /* \"#utility.yul\":5072:5074   */\n      0x60\n        /* \"#utility.yul\":5098:5151   */\n      tag_457\n        /* \"#utility.yul\":5143:5150   */\n      dup11\n        /* \"#utility.yul\":5134:5140   */\n      dup3\n        /* \"#utility.yul\":5123:5132   */\n      dup12\n        /* \"#utility.yul\":5119:5141   */\n      add\n        /* \"#utility.yul\":5098:5151   */\n      tag_356\n      jump\t// in\n    tag_457:\n        /* \"#utility.yul\":5088:5151   */\n      swap5\n      pop\n        /* \"#utility.yul\":5043:5161   */\n      pop\n        /* \"#utility.yul\":5200:5203   */\n      0x80\n        /* \"#utility.yul\":5227:5280   */\n      tag_458\n        /* \"#utility.yul\":5272:5279   */\n      dup11\n        /* \"#utility.yul\":5263:5269   */\n      dup3\n        /* \"#utility.yul\":5252:5261   */\n      dup12\n        /* \"#utility.yul\":5248:5270   */\n      add\n        /* \"#utility.yul\":5227:5280   */\n      tag_356\n      jump\t// in\n    tag_458:\n        /* \"#utility.yul\":5217:5280   */\n      swap4\n      pop\n        /* \"#utility.yul\":5171:5290   */\n      pop\n        /* \"#utility.yul\":5329:5332   */\n      0xa0\n        /* \"#utility.yul\":5356:5409   */\n      tag_459\n        /* \"#utility.yul\":5401:5408   */\n      dup11\n        /* \"#utility.yul\":5392:5398   */\n      dup3\n        /* \"#utility.yul\":5381:5390   */\n      dup12\n        /* \"#utility.yul\":5377:5399   */\n      add\n        /* \"#utility.yul\":5356:5409   */\n      tag_356\n      jump\t// in\n    tag_459:\n        /* \"#utility.yul\":5346:5409   */\n      swap3\n      pop\n        /* \"#utility.yul\":5300:5419   */\n      pop\n        /* \"#utility.yul\":5458:5461   */\n      0xc0\n        /* \"#utility.yul\":5485:5538   */\n      tag_460\n        /* \"#utility.yul\":5530:5537   */\n      dup11\n        /* \"#utility.yul\":5521:5527   */\n      dup3\n        /* \"#utility.yul\":5510:5519   */\n      dup12\n        /* \"#utility.yul\":5506:5528   */\n      add\n        /* \"#utility.yul\":5485:5538   */\n      tag_356\n      jump\t// in\n    tag_460:\n        /* \"#utility.yul\":5475:5538   */\n      swap2\n      pop\n        /* \"#utility.yul\":5429:5548   */\n      pop\n        /* \"#utility.yul\":4352:5555   */\n      swap3\n      swap6\n      swap9\n      swap2\n      swap5\n      swap8\n      pop\n      swap3\n      swap6\n      pop\n      jump\t// out\n        /* \"#utility.yul\":5561:5730   */\n    tag_367:\n        /* \"#utility.yul\":5645:5656   */\n      0x00\n        /* \"#utility.yul\":5679:5685   */\n      dup3\n        /* \"#utility.yul\":5674:5677   */\n      dup3\n        /* \"#utility.yul\":5667:5686   */\n      mstore\n        /* \"#utility.yul\":5719:5723   */\n      0x20\n        /* \"#utility.yul\":5714:5717   */\n      dup3\n        /* \"#utility.yul\":5710:5724   */\n      add\n        /* \"#utility.yul\":5695:5724   */\n      swap1\n      pop\n        /* \"#utility.yul\":5561:5730   */\n      swap3\n      swap2\n      pop\n      pop\n      jump\t// out\n        /* \"#utility.yul\":5736:5892   */\n    tag_368:\n        /* \"#utility.yul\":5876:5884   */\n      0x216f776e65720000000000000000000000000000000000000000000000000000\n        /* \"#utility.yul\":5872:5873   */\n      0x00\n        /* \"#utility.yul\":5864:5870   */\n      dup3\n        /* \"#utility.yul\":5860:5874   */\n      add\n        /* \"#utility.yul\":5853:5885   */\n      mstore\n        /* \"#utility.yul\":5736:5892   */\n      pop\n      jump\t// out\n        /* \"#utility.yul\":5898:6263   */\n    tag_369:\n        /* \"#utility.yul\":6040:6043   */\n      0x00\n        /* \"#utility.yul\":6061:6127   */\n      tag_464\n        /* \"#utility.yul\":6125:6126   */\n      0x06\n        /* \"#utility.yul\":6120:6123   */\n      dup4\n        /* \"#utility.yul\":6061:6127   */\n      tag_367\n      jump\t// in\n    tag_464:\n        /* \"#utility.yul\":6054:6127   */\n      swap2\n      pop\n        /* \"#utility.yul\":6136:6229   */\n      tag_465\n        /* \"#utility.yul\":6225:6228   */\n      dup3\n        /* \"#utility.yul\":6136:6229   */\n      tag_368\n      jump\t// in\n    tag_465:\n        /* \"#utility.yul\":6254:6256   */\n      0x20\n        /* \"#utility.yul\":6249:6252   */\n      dup3\n        /* \"#utility.yul\":6245:6257   */\n      add\n        /* \"#utility.yul\":6238:6257   */\n      swap1\n      pop\n        /* \"#utility.yul\":5898:6263   */\n      swap2\n      swap1\n      pop\n      jump\t// out\n        /* \"#utility.yul\":6269:6688   */\n    tag_169:\n        /* \"#utility.yul\":6435:6439   */\n      0x00\n        /* \"#utility.yul\":6473:6475   */\n      0x20\n        /* \"#utility.yul\":6462:6471   */\n      dup3\n        /* \"#utility.yul\":6458:6476   */\n      add\n        /* \"#utility.yul\":6450:6476   */\n      swap1\n      pop\n        /* \"#utility.yul\":6522:6531   */\n      dup2\n        /* \"#utility.yul\":6516:6520   */\n      dup2\n        /* \"#utility.yul\":6512:6532   */\n      sub\n        /* \"#utility.yul\":6508:6509   */\n      0x00\n        /* \"#utility.yul\":6497:6506   */\n      dup4\n        /* \"#utility.yul\":6493:6510   */\n      add\n        /* \"#utility.yul\":6486:6533   */\n      mstore\n        /* \"#utility.yul\":6550:6681   */\n      tag_467\n        /* \"#utility.yul\":6676:6680   */\n      dup2\n        /* \"#utility.yul\":6550:6681   */\n      tag_369\n      jump\t// in\n    tag_467:\n        /* \"#utility.yul\":6542:6681   */\n      swap1\n      pop\n        /* \"#utility.yul\":6269:6688   */\n      swap2\n      swap1\n      pop\n      jump\t// out\n        /* \"#utility.yul\":6694:6837   */\n    tag_370:\n        /* \"#utility.yul\":6751:6756   */\n      0x00\n        /* \"#utility.yul\":6782:6788   */\n      dup2\n        /* \"#utility.yul\":6776:6789   */\n      mload\n        /* \"#utility.yul\":6767:6789   */\n      swap1\n      pop\n        /* \"#utility.yul\":6798:6831   */\n      tag_469\n        /* \"#utility.yul\":6825:6830   */\n      dup2\n        /* \"#utility.yul\":6798:6831   */\n      tag_355\n      jump\t// in\n    tag_469:\n        /* \"#utility.yul\":6694:6837   */\n      swap3\n      swap2\n      pop\n      pop\n      jump\t// out\n        /* \"#utility.yul\":6843:7194   */\n    tag_180:\n        /* \"#utility.yul\":6913:6919   */\n      0x00\n        /* \"#utility.yul\":6962:6964   */\n      0x20\n        /* \"#utility.yul\":6950:6959   */\n      dup3\n        /* \"#utility.yul\":6941:6948   */\n      dup5\n        /* \"#utility.yul\":6937:6960   */\n      sub\n        /* \"#utility.yul\":6933:6965   */\n      slt\n        /* \"#utility.yul\":6930:7049   */\n      iszero\n      tag_471\n      jumpi\n        /* \"#utility.yul\":6968:7047   */\n      tag_472\n      tag_352\n      jump\t// in\n    tag_472:\n        /* \"#utility.yul\":6930:7049   */\n    tag_471:\n        /* \"#utility.yul\":7088:7089   */\n      0x00\n        /* \"#utility.yul\":7113:7177   */\n      tag_473\n        /* \"#utility.yul\":7169:7176   */\n      dup5\n        /* \"#utility.yul\":7160:7166   */\n      dup3\n        /* \"#utility.yul\":7149:7158   */\n      dup6\n        /* \"#utility.yul\":7145:7167   */\n      add\n        /* \"#utility.yul\":7113:7177   */\n      tag_370\n      jump\t// in\n    tag_473:\n        /* \"#utility.yul\":7103:7177   */\n      swap2\n      pop\n        /* \"#utility.yul\":7059:7187   */\n      pop\n        /* \"#utility.yul\":6843:7194   */\n      swap3\n      swap2\n      pop\n      pop\n      jump\t// out\n        /* \"#utility.yul\":7200:7380   */\n    tag_371:\n        /* \"#utility.yul\":7248:7325   */\n      0x4e487b7100000000000000000000000000000000000000000000000000000000\n        /* \"#utility.yul\":7245:7246   */\n      0x00\n        /* \"#utility.yul\":7238:7326   */\n      mstore\n        /* \"#utility.yul\":7345:7349   */\n      0x11\n        /* \"#utility.yul\":7342:7343   */\n      0x04\n        /* \"#utility.yul\":7335:7350   */\n      mstore\n        /* \"#utility.yul\":7369:7373   */\n      0x24\n        /* \"#utility.yul\":7366:7367   */\n      0x00\n        /* \"#utility.yul\":7359:7374   */\n      revert\n        /* \"#utility.yul\":7386:7580   */\n    tag_183:\n        /* \"#utility.yul\":7426:7430   */\n      0x00\n        /* \"#utility.yul\":7446:7466   */\n      tag_476\n        /* \"#utility.yul\":7464:7465   */\n      dup3\n        /* \"#utility.yul\":7446:7466   */\n      tag_354\n      jump\t// in\n    tag_476:\n        /* \"#utility.yul\":7441:7466   */\n      swap2\n      pop\n        /* \"#utility.yul\":7480:7500   */\n      tag_477\n        /* \"#utility.yul\":7498:7499   */\n      dup4\n        /* \"#utility.yul\":7480:7500   */\n      tag_354\n      jump\t// in\n    tag_477:\n        /* \"#utility.yul\":7475:7500   */\n      swap3\n      pop\n        /* \"#utility.yul\":7524:7525   */\n      dup3\n        /* \"#utility.yul\":7521:7522   */\n      dup3\n        /* \"#utility.yul\":7517:7526   */\n      sub\n        /* \"#utility.yul\":7509:7526   */\n      swap1\n      pop\n        /* \"#utility.yul\":7548:7549   */\n      dup2\n        /* \"#utility.yul\":7542:7546   */\n      dup2\n        /* \"#utility.yul\":7539:7550   */\n      gt\n        /* \"#utility.yul\":7536:7573   */\n      iszero\n      tag_478\n      jumpi\n        /* \"#utility.yul\":7553:7571   */\n      tag_479\n      tag_371\n      jump\t// in\n    tag_479:\n        /* \"#utility.yul\":7536:7573   */\n    tag_478:\n        /* \"#utility.yul\":7386:7580   */\n      swap3\n      swap2\n      pop\n      pop\n      jump\t// out\n        /* \"#utility.yul\":7586:7745   */\n    tag_372:\n        /* \"#utility.yul\":7726:7737   */\n      0x6e6f742073746172740000000000000000000000000000000000000000000000\n        /* \"#utility.yul\":7722:7723   */\n      0x00\n        /* \"#utility.yul\":7714:7720   */\n      dup3\n        /* \"#utility.yul\":7710:7724   */\n      add\n        /* \"#utility.yul\":7703:7738   */\n      mstore\n        /* \"#utility.yul\":7586:7745   */\n      pop\n      jump\t// out\n        /* \"#utility.yul\":7751:8116   */\n    tag_373:\n        /* \"#utility.yul\":7893:7896   */\n      0x00\n        /* \"#utility.yul\":7914:7980   */\n      tag_482\n        /* \"#utility.yul\":7978:7979   */\n      0x09\n        /* \"#utility.yul\":7973:7976   */\n      dup4\n        /* \"#utility.yul\":7914:7980   */\n      tag_367\n      jump\t// in\n    tag_482:\n        /* \"#utility.yul\":7907:7980   */\n      swap2\n      pop\n        /* \"#utility.yul\":7989:8082   */\n      tag_483\n        /* \"#utility.yul\":8078:8081   */\n      dup3\n        /* \"#utility.yul\":7989:8082   */\n      tag_372\n      jump\t// in\n    tag_483:\n        /* \"#utility.yul\":8107:8109   */\n      0x20\n        /* \"#utility.yul\":8102:8105   */\n      dup3\n        /* \"#utility.yul\":8098:8110   */\n      add\n        /* \"#utility.yul\":8091:8110   */\n      swap1\n      pop\n        /* \"#utility.yul\":7751:8116   */\n      swap2\n      swap1\n      pop\n      jump\t// out\n        /* \"#utility.yul\":8122:8541   */\n    tag_211:\n        /* \"#utility.yul\":8288:8292   */\n      0x00\n        /* \"#utility.yul\":8326:8328   */\n      0x20\n        /* \"#utility.yul\":8315:8324   */\n      dup3\n        /* \"#utility.yul\":8311:8329   */\n      add\n        /* \"#utility.yul\":8303:8329   */\n      swap1\n      pop\n        /* \"#utility.yul\":8375:8384   */\n      dup2\n        /* \"#utility.yul\":8369:8373   */\n      dup2\n        /* \"#utility.yul\":8365:8385   */\n      sub\n        /* \"#utility.yul\":8361:8362   */\n      0x00\n        /* \"#utility.yul\":8350:8359   */\n      dup4\n        /* \"#utility.yul\":8346:8363   */\n      add\n        /* \"#utility.yul\":8339:8386   */\n      mstore\n        /* \"#utility.yul\":8403:8534   */\n      tag_485\n        /* \"#utility.yul\":8529:8533   */\n      dup2\n        /* \"#utility.yul\":8403:8534   */\n      tag_373\n      jump\t// in\n    tag_485:\n        /* \"#utility.yul\":8395:8534   */\n      swap1\n      pop\n        /* \"#utility.yul\":8122:8541   */\n      swap2\n      swap1\n      pop\n      jump\t// out\n        /* \"#utility.yul\":8547:8717   */\n    tag_374:\n        /* \"#utility.yul\":8687:8709   */\n      0x696e76697465722063616e742062792073656c66000000000000000000000000\n        /* \"#utility.yul\":8683:8684   */\n      0x00\n        /* \"#utility.yul\":8675:8681   */\n      dup3\n        /* \"#utility.yul\":8671:8685   */\n      add\n        /* \"#utility.yul\":8664:8710   */\n      mstore\n        /* \"#utility.yul\":8547:8717   */\n      pop\n      jump\t// out\n        /* \"#utility.yul\":8723:9089   */\n    tag_375:\n        /* \"#utility.yul\":8865:8868   */\n      0x00\n        /* \"#utility.yul\":8886:8953   */\n      tag_488\n        /* \"#utility.yul\":8950:8952   */\n      0x14\n        /* \"#utility.yul\":8945:8948   */\n      dup4\n        /* \"#utility.yul\":8886:8953   */\n      tag_367\n      jump\t// in\n    tag_488:\n        /* \"#utility.yul\":8879:8953   */\n      swap2\n      pop\n        /* \"#utility.yul\":8962:9055   */\n      tag_489\n        /* \"#utility.yul\":9051:9054   */\n      dup3\n        /* \"#utility.yul\":8962:9055   */\n      tag_374\n      jump\t// in\n    tag_489:\n        /* \"#utility.yul\":9080:9082   */\n      0x20\n        /* \"#utility.yul\":9075:9078   */\n      dup3\n        /* \"#utility.yul\":9071:9083   */\n      add\n        /* \"#utility.yul\":9064:9083   */\n      swap1\n      pop\n        /* \"#utility.yul\":8723:9089   */\n      swap2\n      swap1\n      pop\n      jump\t// out\n        /* \"#utility.yul\":9095:9514   */\n    tag_214:\n        /* \"#utility.yul\":9261:9265   */\n      0x00\n        /* \"#utility.yul\":9299:9301   */\n      0x20\n        /* \"#utility.yul\":9288:9297   */\n      dup3\n        /* \"#utility.yul\":9284:9302   */\n      add\n        /* \"#utility.yul\":9276:9302   */\n      swap1\n      pop\n        /* \"#utility.yul\":9348:9357   */\n      dup2\n        /* \"#utility.yul\":9342:9346   */\n      dup2\n        /* \"#utility.yul\":9338:9358   */\n      sub\n        /* \"#utility.yul\":9334:9335   */\n      0x00\n        /* \"#utility.yul\":9323:9332   */\n      dup4\n        /* \"#utility.yul\":9319:9336   */\n      add\n        /* \"#utility.yul\":9312:9359   */\n      mstore\n        /* \"#utility.yul\":9376:9507   */\n      tag_491\n        /* \"#utility.yul\":9502:9506   */\n      dup2\n        /* \"#utility.yul\":9376:9507   */\n      tag_375\n      jump\t// in\n    tag_491:\n        /* \"#utility.yul\":9368:9507   */\n      swap1\n      pop\n        /* \"#utility.yul\":9095:9514   */\n      swap2\n      swap1\n      pop\n      jump\t// out\n        /* \"#utility.yul\":9520:9683   */\n    tag_376:\n        /* \"#utility.yul\":9660:9675   */\n      0x616c7265616479207374616b6500000000000000000000000000000000000000\n        /* \"#utility.yul\":9656:9657   */\n      0x00\n        /* \"#utility.yul\":9648:9654   */\n      dup3\n        /* \"#utility.yul\":9644:9658   */\n      add\n        /* \"#utility.yul\":9637:9676   */\n      mstore\n        /* \"#utility.yul\":9520:9683   */\n      pop\n      jump\t// out\n        /* \"#utility.yul\":9689:10055   */\n    tag_377:\n        /* \"#utility.yul\":9831:9834   */\n      0x00\n        /* \"#utility.yul\":9852:9919   */\n      tag_494\n        /* \"#utility.yul\":9916:9918   */\n      0x0d\n        /* \"#utility.yul\":9911:9914   */\n      dup4\n        /* \"#utility.yul\":9852:9919   */\n      tag_367\n      jump\t// in\n    tag_494:\n        /* \"#utility.yul\":9845:9919   */\n      swap2\n      pop\n        /* \"#utility.yul\":9928:10021   */\n      tag_495\n        /* \"#utility.yul\":10017:10020   */\n      dup3\n        /* \"#utility.yul\":9928:10021   */\n      tag_376\n      jump\t// in\n    tag_495:\n        /* \"#utility.yul\":10046:10048   */\n      0x20\n        /* \"#utility.yul\":10041:10044   */\n      dup3\n        /* \"#utility.yul\":10037:10049   */\n      add\n        /* \"#utility.yul\":10030:10049   */\n      swap1\n      pop\n        /* \"#utility.yul\":9689:10055   */\n      swap2\n      swap1\n      pop\n      jump\t// out\n        /* \"#utility.yul\":10061:10480   */\n    tag_217:\n        /* \"#utility.yul\":10227:10231   */\n      0x00\n        /* \"#utility.yul\":10265:10267   */\n      0x20\n        /* \"#utility.yul\":10254:10263   */\n      dup3\n        /* \"#utility.yul\":10250:10268   */\n      add\n        /* \"#utility.yul\":10242:10268   */\n      swap1\n      pop\n        /* \"#utility.yul\":10314:10323   */\n      dup2\n        /* \"#utility.yul\":10308:10312   */\n      dup2\n        /* \"#utility.yul\":10304:10324   */\n      sub\n        /* \"#utility.yul\":10300:10301   */\n      0x00\n        /* \"#utility.yul\":10289:10298   */\n      dup4\n        /* \"#utility.yul\":10285:10302   */\n      add\n        /* \"#utility.yul\":10278:10325   */\n      mstore\n        /* \"#utility.yul\":10342:10473   */\n      tag_497\n        /* \"#utility.yul\":10468:10472   */\n      dup2\n        /* \"#utility.yul\":10342:10473   */\n      tag_377\n      jump\t// in\n    tag_497:\n        /* \"#utility.yul\":10334:10473   */\n      swap1\n      pop\n        /* \"#utility.yul\":10061:10480   */\n      swap2\n      swap1\n      pop\n      jump\t// out\n        /* \"#utility.yul\":10486:10646   */\n    tag_378:\n        /* \"#utility.yul\":10626:10638   */\n      0x7a65726f207374616b6500000000000000000000000000000000000000000000\n        /* \"#utility.yul\":10622:10623   */\n      0x00\n        /* \"#utility.yul\":10614:10620   */\n      dup3\n        /* \"#utility.yul\":10610:10624   */\n      add\n        /* \"#utility.yul\":10603:10639   */\n      mstore\n        /* \"#utility.yul\":10486:10646   */\n      pop\n      jump\t// out\n        /* \"#utility.yul\":10652:11018   */\n    tag_379:\n        /* \"#utility.yul\":10794:10797   */\n      0x00\n        /* \"#utility.yul\":10815:10882   */\n      tag_500\n        /* \"#utility.yul\":10879:10881   */\n      0x0a\n        /* \"#utility.yul\":10874:10877   */\n      dup4\n        /* \"#utility.yul\":10815:10882   */\n      tag_367\n      jump\t// in\n    tag_500:\n        /* \"#utility.yul\":10808:10882   */\n      swap2\n      pop\n        /* \"#utility.yul\":10891:10984   */\n      tag_501\n        /* \"#utility.yul\":10980:10983   */\n      dup3\n        /* \"#utility.yul\":10891:10984   */\n      tag_378\n      jump\t// in\n    tag_501:\n        /* \"#utility.yul\":11009:11011   */\n      0x20\n        /* \"#utility.yul\":11004:11007   */\n      dup3\n        /* \"#utility.yul\":11000:11012   */\n      add\n        /* \"#utility.yul\":10993:11012   */\n      swap1\n      pop\n        /* \"#utility.yul\":10652:11018   */\n      swap2\n      swap1\n      pop\n      jump\t// out\n        /* \"#utility.yul\":11024:11443   */\n    tag_220:\n        /* \"#utility.yul\":11190:11194   */\n      0x00\n        /* \"#utility.yul\":11228:11230   */\n      0x20\n        /* \"#utility.yul\":11217:11226   */\n      dup3\n        /* \"#utility.yul\":11213:11231   */\n      add\n        /* \"#utility.yul\":11205:11231   */\n      swap1\n      pop\n        /* \"#utility.yul\":11277:11286   */\n      dup2\n        /* \"#utility.yul\":11271:11275   */\n      dup2\n        /* \"#utility.yul\":11267:11287   */\n      sub\n        /* \"#utility.yul\":11263:11264   */\n      0x00\n        /* \"#utility.yul\":11252:11261   */\n      dup4\n        /* \"#utility.yul\":11248:11265   */\n      add\n        /* \"#utility.yul\":11241:11288   */\n      mstore\n        /* \"#utility.yul\":11305:11436   */\n      tag_503\n        /* \"#utility.yul\":11431:11435   */\n      dup2\n        /* \"#utility.yul\":11305:11436   */\n      tag_379\n      jump\t// in\n    tag_503:\n        /* \"#utility.yul\":11297:11436   */\n      swap1\n      pop\n        /* \"#utility.yul\":11024:11443   */\n      swap2\n      swap1\n      pop\n      jump\t// out\n        /* \"#utility.yul\":11449:11613   */\n    tag_380:\n        /* \"#utility.yul\":11589:11605   */\n      0x6e6f742072696768742074696d65000000000000000000000000000000000000\n        /* \"#utility.yul\":11585:11586   */\n      0x00\n        /* \"#utility.yul\":11577:11583   */\n      dup3\n        /* \"#utility.yul\":11573:11587   */\n      add\n        /* \"#utility.yul\":11566:11606   */\n      mstore\n        /* \"#utility.yul\":11449:11613   */\n      pop\n      jump\t// out\n        /* \"#utility.yul\":11619:11985   */\n    tag_381:\n        /* \"#utility.yul\":11761:11764   */\n      0x00\n        /* \"#utility.yul\":11782:11849   */\n      tag_506\n        /* \"#utility.yul\":11846:11848   */\n      0x0e\n        /* \"#utility.yul\":11841:11844   */\n      dup4\n        /* \"#utility.yul\":11782:11849   */\n      tag_367\n      jump\t// in\n    tag_506:\n        /* \"#utility.yul\":11775:11849   */\n      swap2\n      pop\n        /* \"#utility.yul\":11858:11951   */\n      tag_507\n        /* \"#utility.yul\":11947:11950   */\n      dup3\n        /* \"#utility.yul\":11858:11951   */\n      tag_380\n      jump\t// in\n    tag_507:\n        /* \"#utility.yul\":11976:11978   */\n      0x20\n        /* \"#utility.yul\":11971:11974   */\n      dup3\n        /* \"#utility.yul\":11967:11979   */\n      add\n        /* \"#utility.yul\":11960:11979   */\n      swap1\n      pop\n        /* \"#utility.yul\":11619:11985   */\n      swap2\n      swap1\n      pop\n      jump\t// out\n        /* \"#utility.yul\":11991:12410   */\n    tag_225:\n        /* \"#utility.yul\":12157:12161   */\n      0x00\n        /* \"#utility.yul\":12195:12197   */\n      0x20\n        /* \"#utility.yul\":12184:12193   */\n      dup3\n        /* \"#utility.yul\":12180:12198   */\n      add\n        /* \"#utility.yul\":12172:12198   */\n      swap1\n      pop\n        /* \"#utility.yul\":12244:12253   */\n      dup2\n        /* \"#utility.yul\":12238:12242   */\n      dup2\n        /* \"#utility.yul\":12234:12254   */\n      sub\n        /* \"#utility.yul\":12230:12231   */\n      0x00\n        /* \"#utility.yul\":12219:12228   */\n      dup4\n        /* \"#utility.yul\":12215:12232   */\n      add\n        /* \"#utility.yul\":12208:12255   */\n      mstore\n        /* \"#utility.yul\":12272:12403   */\n      tag_509\n        /* \"#utility.yul\":12398:12402   */\n      dup2\n        /* \"#utility.yul\":12272:12403   */\n      tag_381\n      jump\t// in\n    tag_509:\n        /* \"#utility.yul\":12264:12403   */\n      swap1\n      pop\n        /* \"#utility.yul\":11991:12410   */\n      swap2\n      swap1\n      pop\n      jump\t// out\n        /* \"#utility.yul\":12416:12826   */\n    tag_253:\n        /* \"#utility.yul\":12456:12463   */\n      0x00\n        /* \"#utility.yul\":12479:12499   */\n      tag_511\n        /* \"#utility.yul\":12497:12498   */\n      dup3\n        /* \"#utility.yul\":12479:12499   */\n      tag_354\n      jump\t// in\n    tag_511:\n        /* \"#utility.yul\":12474:12499   */\n      swap2\n      pop\n        /* \"#utility.yul\":12513:12533   */\n      tag_512\n        /* \"#utility.yul\":12531:12532   */\n      dup4\n        /* \"#utility.yul\":12513:12533   */\n      tag_354\n      jump\t// in\n    tag_512:\n        /* \"#utility.yul\":12508:12533   */\n      swap3\n      pop\n        /* \"#utility.yul\":12568:12569   */\n      dup3\n        /* \"#utility.yul\":12565:12566   */\n      dup3\n        /* \"#utility.yul\":12561:12570   */\n      mul\n        /* \"#utility.yul\":12590:12620   */\n      tag_513\n        /* \"#utility.yul\":12608:12619   */\n      dup2\n        /* \"#utility.yul\":12590:12620   */\n      tag_354\n      jump\t// in\n    tag_513:\n        /* \"#utility.yul\":12579:12620   */\n      swap2\n      pop\n        /* \"#utility.yul\":12769:12770   */\n      dup3\n        /* \"#utility.yul\":12760:12767   */\n      dup3\n        /* \"#utility.yul\":12756:12771   */\n      div\n        /* \"#utility.yul\":12753:12754   */\n      dup5\n        /* \"#utility.yul\":12750:12772   */\n      eq\n        /* \"#utility.yul\":12730:12731   */\n      dup4\n        /* \"#utility.yul\":12723:12732   */\n      iszero\n        /* \"#utility.yul\":12703:12786   */\n      or\n        /* \"#utility.yul\":12680:12819   */\n      tag_514\n      jumpi\n        /* \"#utility.yul\":12799:12817   */\n      tag_515\n      tag_371\n      jump\t// in\n    tag_515:\n        /* \"#utility.yul\":12680:12819   */\n    tag_514:\n        /* \"#utility.yul\":12464:12826   */\n      pop\n        /* \"#utility.yul\":12416:12826   */\n      swap3\n      swap2\n      pop\n      pop\n      jump\t// out\n        /* \"#utility.yul\":12832:13012   */\n    tag_382:\n        /* \"#utility.yul\":12880:12957   */\n      0x4e487b7100000000000000000000000000000000000000000000000000000000\n        /* \"#utility.yul\":12877:12878   */\n      0x00\n        /* \"#utility.yul\":12870:12958   */\n      mstore\n        /* \"#utility.yul\":12977:12981   */\n      0x12\n        /* \"#utility.yul\":12974:12975   */\n      0x04\n        /* \"#utility.yul\":12967:12982   */\n      mstore\n        /* \"#utility.yul\":13001:13005   */\n      0x24\n        /* \"#utility.yul\":12998:12999   */\n      0x00\n        /* \"#utility.yul\":12991:13006   */\n      revert\n        /* \"#utility.yul\":13018:13203   */\n    tag_257:\n        /* \"#utility.yul\":13058:13059   */\n      0x00\n        /* \"#utility.yul\":13075:13095   */\n      tag_518\n        /* \"#utility.yul\":13093:13094   */\n      dup3\n        /* \"#utility.yul\":13075:13095   */\n      tag_354\n      jump\t// in\n    tag_518:\n        /* \"#utility.yul\":13070:13095   */\n      swap2\n      pop\n        /* \"#utility.yul\":13109:13129   */\n      tag_519\n        /* \"#utility.yul\":13127:13128   */\n      dup4\n        /* \"#utility.yul\":13109:13129   */\n      tag_354\n      jump\t// in\n    tag_519:\n        /* \"#utility.yul\":13104:13129   */\n      swap3\n      pop\n        /* \"#utility.yul\":13148:13149   */\n      dup3\n        /* \"#utility.yul\":13138:13173   */\n      tag_520\n      jumpi\n        /* \"#utility.yul\":13153:13171   */\n      tag_521\n      tag_382\n      jump\t// in\n    tag_521:\n        /* \"#utility.yul\":13138:13173   */\n    tag_520:\n        /* \"#utility.yul\":13195:13196   */\n      dup3\n        /* \"#utility.yul\":13192:13193   */\n      dup3\n        /* \"#utility.yul\":13188:13197   */\n      div\n        /* \"#utility.yul\":13183:13197   */\n      swap1\n      pop\n        /* \"#utility.yul\":13018:13203   */\n      swap3\n      swap2\n      pop\n      pop\n      jump\t// out\n        /* \"#utility.yul\":13209:13400   */\n    tag_259:\n        /* \"#utility.yul\":13249:13252   */\n      0x00\n        /* \"#utility.yul\":13268:13288   */\n      tag_523\n        /* \"#utility.yul\":13286:13287   */\n      dup3\n        /* \"#utility.yul\":13268:13288   */\n      tag_354\n      jump\t// in\n    tag_523:\n        /* \"#utility.yul\":13263:13288   */\n      swap2\n      pop\n        /* \"#utility.yul\":13302:13322   */\n      tag_524\n        /* \"#utility.yul\":13320:13321   */\n      dup4\n        /* \"#utility.yul\":13302:13322   */\n      tag_354\n      jump\t// in\n    tag_524:\n        /* \"#utility.yul\":13297:13322   */\n      swap3\n      pop\n        /* \"#utility.yul\":13345:13346   */\n      dup3\n        /* \"#utility.yul\":13342:13343   */\n      dup3\n        /* \"#utility.yul\":13338:13347   */\n      add\n        /* \"#utility.yul\":13331:13347   */\n      swap1\n      pop\n        /* \"#utility.yul\":13366:13369   */\n      dup1\n        /* \"#utility.yul\":13363:13364   */\n      dup3\n        /* \"#utility.yul\":13360:13370   */\n      gt\n        /* \"#utility.yul\":13357:13393   */\n      iszero\n      tag_525\n      jumpi\n        /* \"#utility.yul\":13373:13391   */\n      tag_526\n      tag_371\n      jump\t// in\n    tag_526:\n        /* \"#utility.yul\":13357:13393   */\n    tag_525:\n        /* \"#utility.yul\":13209:13400   */\n      swap3\n      swap2\n      pop\n      pop\n      jump\t// out\n        /* \"#utility.yul\":13406:13848   */\n    tag_262:\n        /* \"#utility.yul\":13555:13559   */\n      0x00\n        /* \"#utility.yul\":13593:13595   */\n      0x60\n        /* \"#utility.yul\":13582:13591   */\n      dup3\n        /* \"#utility.yul\":13578:13596   */\n      add\n        /* \"#utility.yul\":13570:13596   */\n      swap1\n      pop\n        /* \"#utility.yul\":13606:13677   */\n      tag_528\n        /* \"#utility.yul\":13674:13675   */\n      0x00\n        /* \"#utility.yul\":13663:13672   */\n      dup4\n        /* \"#utility.yul\":13659:13676   */\n      add\n        /* \"#utility.yul\":13650:13656   */\n      dup7\n        /* \"#utility.yul\":13606:13677   */\n      tag_364\n      jump\t// in\n    tag_528:\n        /* \"#utility.yul\":13687:13759   */\n      tag_529\n        /* \"#utility.yul\":13755:13757   */\n      0x20\n        /* \"#utility.yul\":13744:13753   */\n      dup4\n        /* \"#utility.yul\":13740:13758   */\n      add\n        /* \"#utility.yul\":13731:13737   */\n      dup6\n        /* \"#utility.yul\":13687:13759   */\n      tag_364\n      jump\t// in\n    tag_529:\n        /* \"#utility.yul\":13769:13841   */\n      tag_530\n        /* \"#utility.yul\":13837:13839   */\n      0x40\n        /* \"#utility.yul\":13826:13835   */\n      dup4\n        /* \"#utility.yul\":13822:13840   */\n      add\n        /* \"#utility.yul\":13813:13819   */\n      dup5\n        /* \"#utility.yul\":13769:13841   */\n      tag_361\n      jump\t// in\n    tag_530:\n        /* \"#utility.yul\":13406:13848   */\n      swap5\n      swap4\n      pop\n      pop\n      pop\n      pop\n      jump\t// out\n        /* \"#utility.yul\":13854:13991   */\n    tag_383:\n        /* \"#utility.yul\":13908:13913   */\n      0x00\n        /* \"#utility.yul\":13939:13945   */\n      dup2\n        /* \"#utility.yul\":13933:13946   */\n      mload\n        /* \"#utility.yul\":13924:13946   */\n      swap1\n      pop\n        /* \"#utility.yul\":13955:13985   */\n      tag_532\n        /* \"#utility.yul\":13979:13984   */\n      dup2\n        /* \"#utility.yul\":13955:13985   */\n      tag_365\n      jump\t// in\n    tag_532:\n        /* \"#utility.yul\":13854:13991   */\n      swap3\n      swap2\n      pop\n      pop\n      jump\t// out\n        /* \"#utility.yul\":13997:14342   */\n    tag_266:\n        /* \"#utility.yul\":14064:14070   */\n      0x00\n        /* \"#utility.yul\":14113:14115   */\n      0x20\n        /* \"#utility.yul\":14101:14110   */\n      dup3\n        /* \"#utility.yul\":14092:14099   */\n      dup5\n        /* \"#utility.yul\":14088:14111   */\n      sub\n        /* \"#utility.yul\":14084:14116   */\n      slt\n        /* \"#utility.yul\":14081:14200   */\n      iszero\n      tag_534\n      jumpi\n        /* \"#utility.yul\":14119:14198   */\n      tag_535\n      tag_352\n      jump\t// in\n    tag_535:\n        /* \"#utility.yul\":14081:14200   */\n    tag_534:\n        /* \"#utility.yul\":14239:14240   */\n      0x00\n        /* \"#utility.yul\":14264:14325   */\n      tag_536\n        /* \"#utility.yul\":14317:14324   */\n      dup5\n        /* \"#utility.yul\":14308:14314   */\n      dup3\n        /* \"#utility.yul\":14297:14306   */\n      dup6\n        /* \"#utility.yul\":14293:14315   */\n      add\n        /* \"#utility.yul\":14264:14325   */\n      tag_383\n      jump\t// in\n    tag_536:\n        /* \"#utility.yul\":14254:14325   */\n      swap2\n      pop\n        /* \"#utility.yul\":14210:14335   */\n      pop\n        /* \"#utility.yul\":13997:14342   */\n      swap3\n      swap2\n      pop\n      pop\n      jump\t// out\n        /* \"#utility.yul\":14348:14507   */\n    tag_384:\n        /* \"#utility.yul\":14488:14499   */\n      0x6e6f74207374616b650000000000000000000000000000000000000000000000\n        /* \"#utility.yul\":14484:14485   */\n      0x00\n        /* \"#utility.yul\":14476:14482   */\n      dup3\n        /* \"#utility.yul\":14472:14486   */\n      add\n        /* \"#utility.yul\":14465:14500   */\n      mstore\n        /* \"#utility.yul\":14348:14507   */\n      pop\n      jump\t// out\n        /* \"#utility.yul\":14513:14878   */\n    tag_385:\n        /* \"#utility.yul\":14655:14658   */\n      0x00\n        /* \"#utility.yul\":14676:14742   */\n      tag_539\n        /* \"#utility.yul\":14740:14741   */\n      0x09\n        /* \"#utility.yul\":14735:14738   */\n      dup4\n        /* \"#utility.yul\":14676:14742   */\n      tag_367\n      jump\t// in\n    tag_539:\n        /* \"#utility.yul\":14669:14742   */\n      swap2\n      pop\n        /* \"#utility.yul\":14751:14844   */\n      tag_540\n        /* \"#utility.yul\":14840:14843   */\n      dup3\n        /* \"#utility.yul\":14751:14844   */\n      tag_384\n      jump\t// in\n    tag_540:\n        /* \"#utility.yul\":14869:14871   */\n      0x20\n        /* \"#utility.yul\":14864:14867   */\n      dup3\n        /* \"#utility.yul\":14860:14872   */\n      add\n        /* \"#utility.yul\":14853:14872   */\n      swap1\n      pop\n        /* \"#utility.yul\":14513:14878   */\n      swap2\n      swap1\n      pop\n      jump\t// out\n        /* \"#utility.yul\":14884:15303   */\n    tag_281:\n        /* \"#utility.yul\":15050:15054   */\n      0x00\n        /* \"#utility.yul\":15088:15090   */\n      0x20\n        /* \"#utility.yul\":15077:15086   */\n      dup3\n        /* \"#utility.yul\":15073:15091   */\n      add\n        /* \"#utility.yul\":15065:15091   */\n      swap1\n      pop\n        /* \"#utility.yul\":15137:15146   */\n      dup2\n        /* \"#utility.yul\":15131:15135   */\n      dup2\n        /* \"#utility.yul\":15127:15147   */\n      sub\n        /* \"#utility.yul\":15123:15124   */\n      0x00\n        /* \"#utility.yul\":15112:15121   */\n      dup4\n        /* \"#utility.yul\":15108:15125   */\n      add\n        /* \"#utility.yul\":15101:15148   */\n      mstore\n        /* \"#utility.yul\":15165:15296   */\n      tag_542\n        /* \"#utility.yul\":15291:15295   */\n      dup2\n        /* \"#utility.yul\":15165:15296   */\n      tag_385\n      jump\t// in\n    tag_542:\n        /* \"#utility.yul\":15157:15296   */\n      swap1\n      pop\n        /* \"#utility.yul\":14884:15303   */\n      swap2\n      swap1\n      pop\n      jump\t// out\n        /* \"#utility.yul\":15309:15641   */\n    tag_283:\n        /* \"#utility.yul\":15430:15434   */\n      0x00\n        /* \"#utility.yul\":15468:15470   */\n      0x40\n        /* \"#utility.yul\":15457:15466   */\n      dup3\n        /* \"#utility.yul\":15453:15471   */\n      add\n        /* \"#utility.yul\":15445:15471   */\n      swap1\n      pop\n        /* \"#utility.yul\":15481:15552   */\n      tag_544\n        /* \"#utility.yul\":15549:15550   */\n      0x00\n        /* \"#utility.yul\":15538:15547   */\n      dup4\n        /* \"#utility.yul\":15534:15551   */\n      add\n        /* \"#utility.yul\":15525:15531   */\n      dup6\n        /* \"#utility.yul\":15481:15552   */\n      tag_364\n      jump\t// in\n    tag_544:\n        /* \"#utility.yul\":15562:15634   */\n      tag_545\n        /* \"#utility.yul\":15630:15632   */\n      0x20\n        /* \"#utility.yul\":15619:15628   */\n      dup4\n        /* \"#utility.yul\":15615:15633   */\n      add\n        /* \"#utility.yul\":15606:15612   */\n      dup5\n        /* \"#utility.yul\":15562:15634   */\n      tag_361\n      jump\t// in\n    tag_545:\n        /* \"#utility.yul\":15309:15641   */\n      swap4\n      swap3\n      pop\n      pop\n      pop\n      jump\t// out\n        /* \"#utility.yul\":15647:15817   */\n    tag_386:\n        /* \"#utility.yul\":15787:15809   */\n      0x7573657220697320696e20626c61636b6c697374000000000000000000000000\n        /* \"#utility.yul\":15783:15784   */\n      0x00\n        /* \"#utility.yul\":15775:15781   */\n      dup3\n        /* \"#utility.yul\":15771:15785   */\n      add\n        /* \"#utility.yul\":15764:15810   */\n      mstore\n        /* \"#utility.yul\":15647:15817   */\n      pop\n      jump\t// out\n        /* \"#utility.yul\":15823:16189   */\n    tag_387:\n        /* \"#utility.yul\":15965:15968   */\n      0x00\n        /* \"#utility.yul\":15986:16053   */\n      tag_548\n        /* \"#utility.yul\":16050:16052   */\n      0x14\n        /* \"#utility.yul\":16045:16048   */\n      dup4\n        /* \"#utility.yul\":15986:16053   */\n      tag_367\n      jump\t// in\n    tag_548:\n        /* \"#utility.yul\":15979:16053   */\n      swap2\n      pop\n        /* \"#utility.yul\":16062:16155   */\n      tag_549\n        /* \"#utility.yul\":16151:16154   */\n      dup3\n        /* \"#utility.yul\":16062:16155   */\n      tag_386\n      jump\t// in\n    tag_549:\n        /* \"#utility.yul\":16180:16182   */\n      0x20\n        /* \"#utility.yul\":16175:16178   */\n      dup3\n        /* \"#utility.yul\":16171:16183   */\n      add\n        /* \"#utility.yul\":16164:16183   */\n      swap1\n      pop\n        /* \"#utility.yul\":15823:16189   */\n      swap2\n      swap1\n      pop\n      jump\t// out\n        /* \"#utility.yul\":16195:16614   */\n    tag_294:\n        /* \"#utility.yul\":16361:16365   */\n      0x00\n        /* \"#utility.yul\":16399:16401   */\n      0x20\n        /* \"#utility.yul\":16388:16397   */\n      dup3\n        /* \"#utility.yul\":16384:16402   */\n      add\n        /* \"#utility.yul\":16376:16402   */\n      swap1\n      pop\n        /* \"#utility.yul\":16448:16457   */\n      dup2\n        /* \"#utility.yul\":16442:16446   */\n      dup2\n        /* \"#utility.yul\":16438:16458   */\n      sub\n        /* \"#utility.yul\":16434:16435   */\n      0x00\n        /* \"#utility.yul\":16423:16432   */\n      dup4\n        /* \"#utility.yul\":16419:16436   */\n      add\n        /* \"#utility.yul\":16412:16459   */\n      mstore\n        /* \"#utility.yul\":16476:16607   */\n      tag_551\n        /* \"#utility.yul\":16602:16606   */\n      dup2\n        /* \"#utility.yul\":16476:16607   */\n      tag_387\n      jump\t// in\n    tag_551:\n        /* \"#utility.yul\":16468:16607   */\n      swap1\n      pop\n        /* \"#utility.yul\":16195:16614   */\n      swap2\n      swap1\n      pop\n      jump\t// out\n        /* \"#utility.yul\":16620:16785   */\n    tag_388:\n        /* \"#utility.yul\":16760:16777   */\n      0x616c726561647920636c61696d65640000000000000000000000000000000000\n        /* \"#utility.yul\":16756:16757   */\n      0x00\n        /* \"#utility.yul\":16748:16754   */\n      dup3\n        /* \"#utility.yul\":16744:16758   */\n      add\n        /* \"#utility.yul\":16737:16778   */\n      mstore\n        /* \"#utility.yul\":16620:16785   */\n      pop\n      jump\t// out\n        /* \"#utility.yul\":16791:17157   */\n    tag_389:\n        /* \"#utility.yul\":16933:16936   */\n      0x00\n        /* \"#utility.yul\":16954:17021   */\n      tag_554\n        /* \"#utility.yul\":17018:17020   */\n      0x0f\n        /* \"#utility.yul\":17013:17016   */\n      dup4\n        /* \"#utility.yul\":16954:17021   */\n      tag_367\n      jump\t// in\n    tag_554:\n        /* \"#utility.yul\":16947:17021   */\n      swap2\n      pop\n        /* \"#utility.yul\":17030:17123   */\n      tag_555\n        /* \"#utility.yul\":17119:17122   */\n      dup3\n        /* \"#utility.yul\":17030:17123   */\n      tag_388\n      jump\t// in\n    tag_555:\n        /* \"#utility.yul\":17148:17150   */\n      0x20\n        /* \"#utility.yul\":17143:17146   */\n      dup3\n        /* \"#utility.yul\":17139:17151   */\n      add\n        /* \"#utility.yul\":17132:17151   */\n      swap1\n      pop\n        /* \"#utility.yul\":16791:17157   */\n      swap2\n      swap1\n      pop\n      jump\t// out\n        /* \"#utility.yul\":17163:17582   */\n    tag_297:\n        /* \"#utility.yul\":17329:17333   */\n      0x00\n        /* \"#utility.yul\":17367:17369   */\n      0x20\n        /* \"#utility.yul\":17356:17365   */\n      dup3\n        /* \"#utility.yul\":17352:17370   */\n      add\n        /* \"#utility.yul\":17344:17370   */\n      swap1\n      pop\n        /* \"#utility.yul\":17416:17425   */\n      dup2\n        /* \"#utility.yul\":17410:17414   */\n      dup2\n        /* \"#utility.yul\":17406:17426   */\n      sub\n        /* \"#utility.yul\":17402:17403   */\n      0x00\n        /* \"#utility.yul\":17391:17400   */\n      dup4\n        /* \"#utility.yul\":17387:17404   */\n      add\n        /* \"#utility.yul\":17380:17427   */\n      mstore\n        /* \"#utility.yul\":17444:17575   */\n      tag_557\n        /* \"#utility.yul\":17570:17574   */\n      dup2\n        /* \"#utility.yul\":17444:17575   */\n      tag_389\n      jump\t// in\n    tag_557:\n        /* \"#utility.yul\":17436:17575   */\n      swap1\n      pop\n        /* \"#utility.yul\":17163:17582   */\n      swap2\n      swap1\n      pop\n      jump\t// out\n        /* \"#utility.yul\":17588:17747   */\n    tag_390:\n        /* \"#utility.yul\":17728:17739   */\n      0x6e6f207265776172640000000000000000000000000000000000000000000000\n        /* \"#utility.yul\":17724:17725   */\n      0x00\n        /* \"#utility.yul\":17716:17722   */\n      dup3\n        /* \"#utility.yul\":17712:17726   */\n      add\n        /* \"#utility.yul\":17705:17740   */\n      mstore\n        /* \"#utility.yul\":17588:17747   */\n      pop\n      jump\t// out\n        /* \"#utility.yul\":17753:18118   */\n    tag_391:\n        /* \"#utility.yul\":17895:17898   */\n      0x00\n        /* \"#utility.yul\":17916:17982   */\n      tag_560\n        /* \"#utility.yul\":17980:17981   */\n      0x09\n        /* \"#utility.yul\":17975:17978   */\n      dup4\n        /* \"#utility.yul\":17916:17982   */\n      tag_367\n      jump\t// in\n    tag_560:\n        /* \"#utility.yul\":17909:17982   */\n      swap2\n      pop\n        /* \"#utility.yul\":17991:18084   */\n      tag_561\n        /* \"#utility.yul\":18080:18083   */\n      dup3\n        /* \"#utility.yul\":17991:18084   */\n      tag_390\n      jump\t// in\n    tag_561:\n        /* \"#utility.yul\":18109:18111   */\n      0x20\n        /* \"#utility.yul\":18104:18107   */\n      dup3\n        /* \"#utility.yul\":18100:18112   */\n      add\n        /* \"#utility.yul\":18093:18112   */\n      swap1\n      pop\n        /* \"#utility.yul\":17753:18118   */\n      swap2\n      swap1\n      pop\n      jump\t// out\n        /* \"#utility.yul\":18124:18543   */\n    tag_313:\n        /* \"#utility.yul\":18290:18294   */\n      0x00\n        /* \"#utility.yul\":18328:18330   */\n      0x20\n        /* \"#utility.yul\":18317:18326   */\n      dup3\n        /* \"#utility.yul\":18313:18331   */\n      add\n        /* \"#utility.yul\":18305:18331   */\n      swap1\n      pop\n        /* \"#utility.yul\":18377:18386   */\n      dup2\n        /* \"#utility.yul\":18371:18375   */\n      dup2\n        /* \"#utility.yul\":18367:18387   */\n      sub\n        /* \"#utility.yul\":18363:18364   */\n      0x00\n        /* \"#utility.yul\":18352:18361   */\n      dup4\n        /* \"#utility.yul\":18348:18365   */\n      add\n        /* \"#utility.yul\":18341:18388   */\n      mstore\n        /* \"#utility.yul\":18405:18536   */\n      tag_563\n        /* \"#utility.yul\":18531:18535   */\n      dup2\n        /* \"#utility.yul\":18405:18536   */\n      tag_391\n      jump\t// in\n    tag_563:\n        /* \"#utility.yul\":18397:18536   */\n      swap1\n      pop\n        /* \"#utility.yul\":18124:18543   */\n      swap2\n      swap1\n      pop\n      jump\t// out\n        /* \"#utility.yul\":18549:18707   */\n    tag_392:\n        /* \"#utility.yul\":18689:18699   */\n      0x6e6f742074696d65000000000000000000000000000000000000000000000000\n        /* \"#utility.yul\":18685:18686   */\n      0x00\n        /* \"#utility.yul\":18677:18683   */\n      dup3\n        /* \"#utility.yul\":18673:18687   */\n      add\n        /* \"#utility.yul\":18666:18700   */\n      mstore\n        /* \"#utility.yul\":18549:18707   */\n      pop\n      jump\t// out\n        /* \"#utility.yul\":18713:19078   */\n    tag_393:\n        /* \"#utility.yul\":18855:18858   */\n      0x00\n        /* \"#utility.yul\":18876:18942   */\n      tag_566\n        /* \"#utility.yul\":18940:18941   */\n      0x08\n        /* \"#utility.yul\":18935:18938   */\n      dup4\n        /* \"#utility.yul\":18876:18942   */\n      tag_367\n      jump\t// in\n    tag_566:\n        /* \"#utility.yul\":18869:18942   */\n      swap2\n      pop\n        /* \"#utility.yul\":18951:19044   */\n      tag_567\n        /* \"#utility.yul\":19040:19043   */\n      dup3\n        /* \"#utility.yul\":18951:19044   */\n      tag_392\n      jump\t// in\n    tag_567:\n        /* \"#utility.yul\":19069:19071   */\n      0x20\n        /* \"#utility.yul\":19064:19067   */\n      dup3\n        /* \"#utility.yul\":19060:19072   */\n      add\n        /* \"#utility.yul\":19053:19072   */\n      swap1\n      pop\n        /* \"#utility.yul\":18713:19078   */\n      swap2\n      swap1\n      pop\n      jump\t// out\n        /* \"#utility.yul\":19084:19503   */\n    tag_322:\n        /* \"#utility.yul\":19250:19254   */\n      0x00\n        /* \"#utility.yul\":19288:19290   */\n      0x20\n        /* \"#utility.yul\":19277:19286   */\n      dup3\n        /* \"#utility.yul\":19273:19291   */\n      add\n        /* \"#utility.yul\":19265:19291   */\n      swap1\n      pop\n        /* \"#utility.yul\":19337:19346   */\n      dup2\n        /* \"#utility.yul\":19331:19335   */\n      dup2\n        /* \"#utility.yul\":19327:19347   */\n      sub\n        /* \"#utility.yul\":19323:19324   */\n      0x00\n        /* \"#utility.yul\":19312:19321   */\n      dup4\n        /* \"#utility.yul\":19308:19325   */\n      add\n        /* \"#utility.yul\":19301:19348   */\n      mstore\n        /* \"#utility.yul\":19365:19496   */\n      tag_569\n        /* \"#utility.yul\":19491:19495   */\n      dup2\n        /* \"#utility.yul\":19365:19496   */\n      tag_393\n      jump\t// in\n    tag_569:\n        /* \"#utility.yul\":19357:19496   */\n      swap1\n      pop\n        /* \"#utility.yul\":19084:19503   */\n      swap2\n      swap1\n      pop\n      jump\t// out\n        /* \"#utility.yul\":19509:19667   */\n    tag_394:\n        /* \"#utility.yul\":19649:19659   */\n      0x6e65772069732030000000000000000000000000000000000000000000000000\n        /* \"#utility.yul\":19645:19646   */\n      0x00\n        /* \"#utility.yul\":19637:19643   */\n      dup3\n        /* \"#utility.yul\":19633:19647   */\n      add\n        /* \"#utility.yul\":19626:19660   */\n      mstore\n        /* \"#utility.yul\":19509:19667   */\n      pop\n      jump\t// out\n        /* \"#utility.yul\":19673:20038   */\n    tag_395:\n        /* \"#utility.yul\":19815:19818   */\n      0x00\n        /* \"#utility.yul\":19836:19902   */\n      tag_572\n        /* \"#utility.yul\":19900:19901   */\n      0x08\n        /* \"#utility.yul\":19895:19898   */\n      dup4\n        /* \"#utility.yul\":19836:19902   */\n      tag_367\n      jump\t// in\n    tag_572:\n        /* \"#utility.yul\":19829:19902   */\n      swap2\n      pop\n        /* \"#utility.yul\":19911:20004   */\n      tag_573\n        /* \"#utility.yul\":20000:20003   */\n      dup3\n        /* \"#utility.yul\":19911:20004   */\n      tag_394\n      jump\t// in\n    tag_573:\n        /* \"#utility.yul\":20029:20031   */\n      0x20\n        /* \"#utility.yul\":20024:20027   */\n      dup3\n        /* \"#utility.yul\":20020:20032   */\n      add\n        /* \"#utility.yul\":20013:20032   */\n      swap1\n      pop\n        /* \"#utility.yul\":19673:20038   */\n      swap2\n      swap1\n      pop\n      jump\t// out\n        /* \"#utility.yul\":20044:20463   */\n    tag_341:\n        /* \"#utility.yul\":20210:20214   */\n      0x00\n        /* \"#utility.yul\":20248:20250   */\n      0x20\n        /* \"#utility.yul\":20237:20246   */\n      dup3\n        /* \"#utility.yul\":20233:20251   */\n      add\n        /* \"#utility.yul\":20225:20251   */\n      swap1\n      pop\n        /* \"#utility.yul\":20297:20306   */\n      dup2\n        /* \"#utility.yul\":20291:20295   */\n      dup2\n        /* \"#utility.yul\":20287:20307   */\n      sub\n        /* \"#utility.yul\":20283:20284   */\n      0x00\n        /* \"#utility.yul\":20272:20281   */\n      dup4\n        /* \"#utility.yul\":20268:20285   */\n      add\n        /* \"#utility.yul\":20261:20308   */\n      mstore\n        /* \"#utility.yul\":20325:20456   */\n      tag_575\n        /* \"#utility.yul\":20451:20455   */\n      dup2\n        /* \"#utility.yul\":20325:20456   */\n      tag_395\n      jump\t// in\n    tag_575:\n        /* \"#utility.yul\":20317:20456   */\n      swap1\n      pop\n        /* \"#utility.yul\":20044:20463   */\n      swap2\n      swap1\n      pop\n      jump\t// out\n        /* \"#utility.yul\":20469:20649   */\n    tag_348:\n        /* \"#utility.yul\":20517:20594   */\n      0x4e487b7100000000000000000000000000000000000000000000000000000000\n        /* \"#utility.yul\":20514:20515   */\n      0x00\n        /* \"#utility.yul\":20507:20595   */\n      mstore\n        /* \"#utility.yul\":20614:20618   */\n      0x01\n        /* \"#utility.yul\":20611:20612   */\n      0x04\n        /* \"#utility.yul\":20604:20619   */\n      mstore\n        /* \"#utility.yul\":20638:20642   */\n      0x24\n        /* \"#utility.yul\":20635:20636   */\n      0x00\n        /* \"#utility.yul\":20628:20643   */\n      revert\n\n    auxdata: 0xa26469706673582212204a13d5be161fa7b99693c068ef9fadba1af485a74b5f6798a1bd37f4bc14366664736f6c63430008120033\n}\n",
				"bytecode": {
					"linkReferences": {},
					"object": "608060405273f1f8e132f0a3f720b3b204d728a8ff316b182258600160006101000a81548173ffffffffffffffffffffffffffffffffffffffff021916908373ffffffffffffffffffffffffffffffffffffffff160217905550736b6b2d8166d13b58155b8d454f239ae3691257a6600260006101000a81548173ffffffffffffffffffffffffffffffffffffffff021916908373ffffffffffffffffffffffffffffffffffffffff16021790555073b1bf470a9720f8d2e49512dbbccf7180e4ac4679600360006101000a81548173ffffffffffffffffffffffffffffffffffffffff021916908373ffffffffffffffffffffffffffffffffffffffff16021790555062278d006004556276a70060055562c5c1006006556103e86007556001600b60006101000a81548160ff0219169083151502179055506001600b60016101000a81548160ff02191690831515021790555034801561016057600080fd5b506000339050806000806101000a81548173ffffffffffffffffffffffffffffffffffffffff021916908373ffffffffffffffffffffffffffffffffffffffff1602179055508073ffffffffffffffffffffffffffffffffffffffff16600073ffffffffffffffffffffffffffffffffffffffff167f8be0079c531659141344cd1fd0a4f28419497f9722a3daafe3b4186f6b6457e060405160405180910390a35061361a806102116000396000f3fe608060405234801561001057600080fd5b50600436106102105760003560e01c8063853e03e511610125578063b88a802f116100ad578063e53595ed1161007c578063e53595ed14610601578063e61ee2181461061f578063e650d2931461063b578063f2fde38b14610659578063f3ef99bc1461067557610210565b8063b88a802f1461058d578063bef4533c14610597578063d02da761146105c7578063dd8158e0146105d157610210565b80639fd3af8b116100f45780639fd3af8b146104fb578063a041e17214610505578063a6b14d5a14610535578063b3c2eac114610553578063b59c6e0e1461056f57610210565b8063853e03e5146104735780638da5cb5b1461049157806391f6963c146104af5780639805fa74146104cb57610210565b8063264edc1d116101a85780636d37b382116101775780636d37b382146103d15780636e9c931c146103ed57806371ddda57146104095780637929e29f146104275780637d4cbd571461045757610210565b8063264edc1d1461034957806329dc425f146103795780632eae667d146103a95780633ccfd60b146103c757610210565b8063115a972e116101e4578063115a972e1461029b57806316c259e1146102cb57806318883877146102fb5780631896b2c41461031957610210565b80626cd200146102155780630356c98f146102315780630397d458146102615780630c2804441461027d575b600080fd5b61022f600480360381019061022a9190612bd4565b610693565b005b61024b60048036038101906102469190612c5f565b610781565b6040516102589190612c9b565b60405180910390f35b61027b60048036038101906102769190612c5f565b610799565b005b6102856108c1565b6040516102929190612c9b565b60405180910390f35b6102b560048036038101906102b09190612c5f565b61095e565b6040516102c29190612cd1565b60405180910390f35b6102e560048036038101906102e09190612c5f565b61097e565b6040516102f29190612c9b565b60405180910390f35b610303610996565b6040516103109190612c9b565b60405180910390f35b610333600480360381019061032e9190612c5f565b61099c565b6040516103409190612c9b565b60405180910390f35b610363600480360381019061035e9190612c5f565b6109b4565b6040516103709190612cfb565b60405180910390f35b610393600480360381019061038e9190612c5f565b6109e7565b6040516103a09190612c9b565b60405180910390f35b6103b1610df8565b6040516103be9190612c9b565b60405180910390f35b6103cf610dfe565b005b6103eb60048036038101906103e69190612c5f565b610f2b565b005b61040760048036038101906104029190612d16565b611053565b005b610411611708565b60405161041e9190612cfb565b60405180910390f35b610441600480360381019061043c9190612c5f565b61172e565b60405161044e9190612c9b565b60405180910390f35b610471600480360381019061046c9190612c5f565b611746565b005b61047b6118d1565b6040516104889190612c9b565b60405180910390f35b6104996118d7565b6040516104a69190612cfb565b60405180910390f35b6104c960048036038101906104c49190612bd4565b611900565b005b6104e560048036038101906104e09190612c5f565b611c63565b6040516104f29190612c9b565b60405180910390f35b610503611c7b565b005b61051f600480360381019061051a9190612c5f565b611f4f565b60405161052c9190612c9b565b60405180910390f35b61053d611f67565b60405161054a9190612c9b565b60405180910390f35b61056d60048036038101906105689190612d95565b611f6d565b005b610577612089565b6040516105849190612cfb565b60405180910390f35b6105956120af565b005b6105b160048036038101906105ac9190612c5f565b6122a7565b6040516105be9190612c9b565b60405180910390f35b6105cf6122bf565b005b6105eb60048036038101906105e69190612c5f565b612648565b6040516105f89190612c9b565b60405180910390f35b610609612660565b6040516106169190612cfb565b60405180910390f35b61063960048036038101906106349190612dd5565b612686565b005b61064361290b565b6040516106509190612cd1565b60405180910390f35b610673600480360381019061066e9190612c5f565b61291e565b005b61067d612b2e565b60405161068a9190612cd1565b60405180910390f35b3373ffffffffffffffffffffffffffffffffffffffff1660008054906101000a900473ffffffffffffffffffffffffffffffffffffffff1673ffffffffffffffffffffffffffffffffffffffff16148061073857503373ffffffffffffffffffffffffffffffffffffffff1660008054906101000a900473ffffffffffffffffffffffffffffffffffffffff1673ffffffffffffffffffffffffffffffffffffffff16145b610777576040517f08c379a000000000000000000000000000000000000000000000000000000000815260040161076e90612ed4565b60405180910390fd5b8060078190555050565b60106020528060005260406000206000915090505481565b3373ffffffffffffffffffffffffffffffffffffffff1660008054906101000a900473ffffffffffffffffffffffffffffffffffffffff1673ffffffffffffffffffffffffffffffffffffffff16148061083e57503373ffffffffffffffffffffffffffffffffffffffff1660008054906101000a900473ffffffffffffffffffffffffffffffffffffffff1673ffffffffffffffffffffffffffffffffffffffff16145b61087d576040517f08c379a000000000000000000000000000000000000000000000000000000000815260040161087490612ed4565b60405180910390fd5b80600260006101000a81548173ffffffffffffffffffffffffffffffffffffffff021916908373ffffffffffffffffffffffffffffffffffffffff16021790555050565b600080600360009054906101000a900473ffffffffffffffffffffffffffffffffffffffff1673ffffffffffffffffffffffffffffffffffffffff16630c2804446040518163ffffffff1660e01b8152600401602060405180830381865afa158015610931573d6000803e3d6000fd5b505050506040513d601f19601f820116820180604052508101906109559190612f09565b90508091505090565b60126020528060005260406000206000915054906101000a900460ff1681565b600e6020528060005260406000206000915090505481565b60065481565b600a6020528060005260406000206000915090505481565b60086020528060005260406000206000915054906101000a900473ffffffffffffffffffffffffffffffffffffffff1681565b600080600f60008473ffffffffffffffffffffffffffffffffffffffff1673ffffffffffffffffffffffffffffffffffffffff1681526020019081526020016000205442610a359190612f65565b90506000600f60008573ffffffffffffffffffffffffffffffffffffffff1673ffffffffffffffffffffffffffffffffffffffff16815260200190815260200160002054148015610ac557506000600c60008573ffffffffffffffffffffffffffffffffffffffff1673ffffffffffffffffffffffffffffffffffffffff16815260200190815260200160002054115b15610b1857600e60008473ffffffffffffffffffffffffffffffffffffffff1673ffffffffffffffffffffffffffffffffffffffff1681526020019081526020016000205442610b159190612f65565b90505b6000600c60008573ffffffffffffffffffffffffffffffffffffffff1673ffffffffffffffffffffffffffffffffffffffff1681526020019081526020016000205403610b69576000915050610df3565b601060008473ffffffffffffffffffffffffffffffffffffffff1673ffffffffffffffffffffffffffffffffffffffff16815260200190815260200160002054421115610d16576000600f60008573ffffffffffffffffffffffffffffffffffffffff1673ffffffffffffffffffffffffffffffffffffffff1681526020019081526020016000205403610c8857600e60008473ffffffffffffffffffffffffffffffffffffffff1673ffffffffffffffffffffffffffffffffffffffff16815260200190815260200160002054601060008573ffffffffffffffffffffffffffffffffffffffff1673ffffffffffffffffffffffffffffffffffffffff16815260200190815260200160002054610c819190612f65565b9050610d15565b600f60008473ffffffffffffffffffffffffffffffffffffffff1673ffffffffffffffffffffffffffffffffffffffff16815260200190815260200160002054601060008573ffffffffffffffffffffffffffffffffffffffff1673ffffffffffffffffffffffffffffffffffffffff16815260200190815260200160002054610d129190612f65565b90505b5b601060008473ffffffffffffffffffffffffffffffffffffffff1673ffffffffffffffffffffffffffffffffffffffff16815260200190815260200160002054600f60008573ffffffffffffffffffffffffffffffffffffffff1673ffffffffffffffffffffffffffffffffffffffff168152602001908152602001600020541115610da6576000915050610df3565b610def81601160008673ffffffffffffffffffffffffffffffffffffffff1673ffffffffffffffffffffffffffffffffffffffff16815260200190815260200160002054612b41565b9150505b919050565b60075481565b3373ffffffffffffffffffffffffffffffffffffffff1660008054906101000a900473ffffffffffffffffffffffffffffffffffffffff1673ffffffffffffffffffffffffffffffffffffffff161480610ea357503373ffffffffffffffffffffffffffffffffffffffff1660008054906101000a900473ffffffffffffffffffffffffffffffffffffffff1673ffffffffffffffffffffffffffffffffffffffff16145b610ee2576040517f08c379a0000000000000000000000000000000000000000000000000000000008152600401610ed990612ed4565b60405180910390fd5b3373ffffffffffffffffffffffffffffffffffffffff166108fc479081150290604051600060405180830381858888f19350505050158015610f28573d6000803e3d6000fd5b50565b3373ffffffffffffffffffffffffffffffffffffffff1660008054906101000a900473ffffffffffffffffffffffffffffffffffffffff1673ffffffffffffffffffffffffffffffffffffffff161480610fd057503373ffffffffffffffffffffffffffffffffffffffff1660008054906101000a900473ffffffffffffffffffffffffffffffffffffffff1673ffffffffffffffffffffffffffffffffffffffff16145b61100f576040517f08c379a000000000000000000000000000000000000000000000000000000000815260040161100690612ed4565b60405180910390fd5b80600360006101000a81548173ffffffffffffffffffffffffffffffffffffffff021916908373ffffffffffffffffffffffffffffffffffffffff16021790555050565b600b60009054906101000a900460ff166110a2576040517f08c379a000000000000000000000000000000000000000000000000000000000815260040161109990612fe5565b60405180910390fd5b3373ffffffffffffffffffffffffffffffffffffffff168273ffffffffffffffffffffffffffffffffffffffff1603611110576040517f08c379a000000000000000000000000000000000000000000000000000000000815260040161110790613051565b60405180910390fd5b6000600c60003373ffffffffffffffffffffffffffffffffffffffff1673ffffffffffffffffffffffffffffffffffffffff1681526020019081526020016000205414611192576040517f08c379a0000000000000000000000000000000000000000000000000000000008152600401611189906130bd565b60405180910390fd5b600083116111d5576040517f08c379a00000000000000000000000000000000000000000000000000000000081526004016111cc90613129565b60405180910390fd5b6004548114806111e6575060055481145b806111f2575060065481145b611231576040517f08c379a000000000000000000000000000000000000000000000000000000000815260040161122890613195565b60405180910390fd5b60008061123c6108c1565b9050600454830361128d5761128661127e61127661126f6112676112618a6008612b41565b86612b41565b600754612b41565b6064612b83565b6103e8612b83565b600454612b83565b9150611329565b60055483036112dc576112d56112cd6112c56112be6112b66112b08a600d612b41565b86612b41565b600754612b41565b6064612b83565b6103e8612b83565b600454612b83565b9150611328565b60065483036113275761132461131c61131461130d6113056112ff8a6010612b41565b86612b41565b600754612b41565b6064612b83565b6103e8612b83565b600454612b83565b91505b5b5b600073ffffffffffffffffffffffffffffffffffffffff168473ffffffffffffffffffffffffffffffffffffffff16146114bb5783600860003373ffffffffffffffffffffffffffffffffffffffff1673ffffffffffffffffffffffffffffffffffffffff16815260200190815260200160002060006101000a81548173ffffffffffffffffffffffffffffffffffffffff021916908373ffffffffffffffffffffffffffffffffffffffff160217905550620186a0600754600587846113f091906131b5565b6113fa91906131b5565b61140491906131b5565b61140e9190613226565b600960008673ffffffffffffffffffffffffffffffffffffffff1673ffffffffffffffffffffffffffffffffffffffff168152602001908152602001600020600082825461145c9190613257565b925050819055506001600a60008673ffffffffffffffffffffffffffffffffffffffff1673ffffffffffffffffffffffffffffffffffffffff16815260200190815260200160002060008282546114b39190613257565b925050819055505b600260009054906101000a900473ffffffffffffffffffffffffffffffffffffffff1673ffffffffffffffffffffffffffffffffffffffff166323b872dd3330886040518463ffffffff1660e01b815260040161151a9392919061328b565b6020604051808303816000875af1158015611539573d6000803e3d6000fd5b505050506040513d601f19601f8201168201806040525081019061155d91906132d7565b5084600c60003373ffffffffffffffffffffffffffffffffffffffff1673ffffffffffffffffffffffffffffffffffffffff1681526020019081526020016000208190555042600e60003373ffffffffffffffffffffffffffffffffffffffff1673ffffffffffffffffffffffffffffffffffffffff1681526020019081526020016000208190555042600f60003373ffffffffffffffffffffffffffffffffffffffff1673ffffffffffffffffffffffffffffffffffffffff1681526020019081526020016000208190555082426116369190613257565b601060003373ffffffffffffffffffffffffffffffffffffffff1673ffffffffffffffffffffffffffffffffffffffff1681526020019081526020016000208190555082600d60003373ffffffffffffffffffffffffffffffffffffffff1673ffffffffffffffffffffffffffffffffffffffff1681526020019081526020016000208190555081601160003373ffffffffffffffffffffffffffffffffffffffff1673ffffffffffffffffffffffffffffffffffffffff168152602001908152602001600020819055505050505050565b600260009054906101000a900473ffffffffffffffffffffffffffffffffffffffff1681565b600f6020528060005260406000206000915090505481565b3373ffffffffffffffffffffffffffffffffffffffff1660008054906101000a900473ffffffffffffffffffffffffffffffffffffffff1673ffffffffffffffffffffffffffffffffffffffff1614806117eb57503373ffffffffffffffffffffffffffffffffffffffff1660008054906101000a900473ffffffffffffffffffffffffffffffffffffffff1673ffffffffffffffffffffffffffffffffffffffff16145b61182a576040517f08c379a000000000000000000000000000000000000000000000000000000000815260040161182190612ed4565b60405180910390fd5b601260008273ffffffffffffffffffffffffffffffffffffffff1673ffffffffffffffffffffffffffffffffffffffff16815260200190815260200160002060009054906101000a900460ff1615601260008373ffffffffffffffffffffffffffffffffffffffff1673ffffffffffffffffffffffffffffffffffffffff16815260200190815260200160002060006101000a81548160ff02191690831515021790555050565b60055481565b60008060009054906101000a900473ffffffffffffffffffffffffffffffffffffffff16905090565b3373ffffffffffffffffffffffffffffffffffffffff1660008054906101000a900473ffffffffffffffffffffffffffffffffffffffff1673ffffffffffffffffffffffffffffffffffffffff1614806119a557503373ffffffffffffffffffffffffffffffffffffffff1660008054906101000a900473ffffffffffffffffffffffffffffffffffffffff1673ffffffffffffffffffffffffffffffffffffffff16145b6119e4576040517f08c379a00000000000000000000000000000000000000000000000000000000081526004016119db90612ed4565b60405180910390fd5b6000600c60003373ffffffffffffffffffffffffffffffffffffffff1673ffffffffffffffffffffffffffffffffffffffff1681526020019081526020016000205411611a66576040517f08c379a0000000000000000000000000000000000000000000000000000000008152600401611a5d90613350565b60405180910390fd5b600260009054906101000a900473ffffffffffffffffffffffffffffffffffffffff1673ffffffffffffffffffffffffffffffffffffffff1663a9059cbb33836040518363ffffffff1660e01b8152600401611ac3929190613370565b6020604051808303816000875af1158015611ae2573d6000803e3d6000fd5b505050506040513d601f19601f82011682018060405250810190611b0691906132d7565b506000600c60003373ffffffffffffffffffffffffffffffffffffffff1673ffffffffffffffffffffffffffffffffffffffff168152602001908152602001600020819055506000600e60003373ffffffffffffffffffffffffffffffffffffffff1673ffffffffffffffffffffffffffffffffffffffff168152602001908152602001600020819055506000601060003373ffffffffffffffffffffffffffffffffffffffff1673ffffffffffffffffffffffffffffffffffffffff168152602001908152602001600020819055506000600d60003373ffffffffffffffffffffffffffffffffffffffff1673ffffffffffffffffffffffffffffffffffffffff168152602001908152602001600020819055506000601160003373ffffffffffffffffffffffffffffffffffffffff1673ffffffffffffffffffffffffffffffffffffffff1681526020019081526020016000208190555050565b600c6020528060005260406000206000915090505481565b600b60019054906101000a900460ff16611cca576040517f08c379a0000000000000000000000000000000000000000000000000000000008152600401611cc190612fe5565b60405180910390fd5b6000600c60003373ffffffffffffffffffffffffffffffffffffffff1673ffffffffffffffffffffffffffffffffffffffff1681526020019081526020016000205411611d4c576040517f08c379a0000000000000000000000000000000000000000000000000000000008152600401611d4390613350565b60405180910390fd5b601260003373ffffffffffffffffffffffffffffffffffffffff1673ffffffffffffffffffffffffffffffffffffffff16815260200190815260200160002060009054906101000a900460ff1615611dd9576040517f08c379a0000000000000000000000000000000000000000000000000000000008152600401611dd0906133e5565b60405180910390fd5b42600f60003373ffffffffffffffffffffffffffffffffffffffff1673ffffffffffffffffffffffffffffffffffffffff1681526020019081526020016000205410611e5a576040517f08c379a0000000000000000000000000000000000000000000000000000000008152600401611e5190613451565b60405180910390fd5b6000611e65336109e7565b905042600f60003373ffffffffffffffffffffffffffffffffffffffff1673ffffffffffffffffffffffffffffffffffffffff16815260200190815260200160002081905550600160009054906101000a900473ffffffffffffffffffffffffffffffffffffffff1673ffffffffffffffffffffffffffffffffffffffff1663a9059cbb33836040518363ffffffff1660e01b8152600401611f08929190613370565b6020604051808303816000875af1158015611f27573d6000803e3d6000fd5b505050506040513d601f19601f82011682018060405250810190611f4b91906132d7565b5050565b600d6020528060005260406000206000915090505481565b60045481565b3373ffffffffffffffffffffffffffffffffffffffff1660008054906101000a900473ffffffffffffffffffffffffffffffffffffffff1673ffffffffffffffffffffffffffffffffffffffff16148061201257503373ffffffffffffffffffffffffffffffffffffffff1660008054906101000a900473ffffffffffffffffffffffffffffffffffffffff1673ffffffffffffffffffffffffffffffffffffffff16145b612051576040517f08c379a000000000000000000000000000000000000000000000000000000000815260040161204890612ed4565b60405180910390fd5b81600b60006101000a81548160ff02191690831515021790555080600b60016101000a81548160ff0219169083151502179055505050565b600160009054906101000a900473ffffffffffffffffffffffffffffffffffffffff1681565b600b60019054906101000a900460ff166120fe576040517f08c379a00000000000000000000000000000000000000000000000000000000081526004016120f590612fe5565b60405180910390fd5b6000600960003373ffffffffffffffffffffffffffffffffffffffff1673ffffffffffffffffffffffffffffffffffffffff1681526020019081526020016000205411612180576040517f08c379a0000000000000000000000000000000000000000000000000000000008152600401612177906134bd565b60405180910390fd5b600160009054906101000a900473ffffffffffffffffffffffffffffffffffffffff1673ffffffffffffffffffffffffffffffffffffffff1663a9059cbb33600960003373ffffffffffffffffffffffffffffffffffffffff1673ffffffffffffffffffffffffffffffffffffffff168152602001908152602001600020546040518363ffffffff1660e01b815260040161221c929190613370565b6020604051808303816000875af115801561223b573d6000803e3d6000fd5b505050506040513d601f19601f8201168201806040525081019061225f91906132d7565b506000600960003373ffffffffffffffffffffffffffffffffffffffff1673ffffffffffffffffffffffffffffffffffffffff16815260200190815260200160002081905550565b60116020528060005260406000206000915090505481565b600d60003373ffffffffffffffffffffffffffffffffffffffff1673ffffffffffffffffffffffffffffffffffffffff16815260200190815260200160002054600e60003373ffffffffffffffffffffffffffffffffffffffff1673ffffffffffffffffffffffffffffffffffffffff168152602001908152602001600020544261234a9190612f65565b101561238b576040517f08c379a000000000000000000000000000000000000000000000000000000000815260040161238290613529565b60405180910390fd5b6000600c60003373ffffffffffffffffffffffffffffffffffffffff1673ffffffffffffffffffffffffffffffffffffffff168152602001908152602001600020541161240d576040517f08c379a000000000000000000000000000000000000000000000000000000000815260040161240490613350565b60405180910390fd5b600260009054906101000a900473ffffffffffffffffffffffffffffffffffffffff1673ffffffffffffffffffffffffffffffffffffffff1663a9059cbb33600c60003373ffffffffffffffffffffffffffffffffffffffff1673ffffffffffffffffffffffffffffffffffffffff168152602001908152602001600020546040518363ffffffff1660e01b81526004016124a9929190613370565b6020604051808303816000875af11580156124c8573d6000803e3d6000fd5b505050506040513d601f19601f820116820180604052508101906124ec91906132d7565b506000600c60003373ffffffffffffffffffffffffffffffffffffffff1673ffffffffffffffffffffffffffffffffffffffff168152602001908152602001600020819055506000600e60003373ffffffffffffffffffffffffffffffffffffffff1673ffffffffffffffffffffffffffffffffffffffff168152602001908152602001600020819055506000601060003373ffffffffffffffffffffffffffffffffffffffff1673ffffffffffffffffffffffffffffffffffffffff168152602001908152602001600020819055506000600d60003373ffffffffffffffffffffffffffffffffffffffff1673ffffffffffffffffffffffffffffffffffffffff168152602001908152602001600020819055506000601160003373ffffffffffffffffffffffffffffffffffffffff1673ffffffffffffffffffffffffffffffffffffffff16815260200190815260200160002081905550565b60096020528060005260406000206000915090505481565b600360009054906101000a900473ffffffffffffffffffffffffffffffffffffffff1681565b3373ffffffffffffffffffffffffffffffffffffffff1660008054906101000a900473ffffffffffffffffffffffffffffffffffffffff1673ffffffffffffffffffffffffffffffffffffffff16148061272b57503373ffffffffffffffffffffffffffffffffffffffff1660008054906101000a900473ffffffffffffffffffffffffffffffffffffffff1673ffffffffffffffffffffffffffffffffffffffff16145b61276a576040517f08c379a000000000000000000000000000000000000000000000000000000000815260040161276190612ed4565b60405180910390fd5b85600c60008973ffffffffffffffffffffffffffffffffffffffff1673ffffffffffffffffffffffffffffffffffffffff1681526020019081526020016000208190555084600d60008973ffffffffffffffffffffffffffffffffffffffff1673ffffffffffffffffffffffffffffffffffffffff1681526020019081526020016000208190555083600e60008973ffffffffffffffffffffffffffffffffffffffff1673ffffffffffffffffffffffffffffffffffffffff1681526020019081526020016000208190555082600f60008973ffffffffffffffffffffffffffffffffffffffff1673ffffffffffffffffffffffffffffffffffffffff1681526020019081526020016000208190555081601160008973ffffffffffffffffffffffffffffffffffffffff1673ffffffffffffffffffffffffffffffffffffffff1681526020019081526020016000208190555080601060008973ffffffffffffffffffffffffffffffffffffffff1673ffffffffffffffffffffffffffffffffffffffff1681526020019081526020016000208190555050505050505050565b600b60019054906101000a900460ff1681565b3373ffffffffffffffffffffffffffffffffffffffff1660008054906101000a900473ffffffffffffffffffffffffffffffffffffffff1673ffffffffffffffffffffffffffffffffffffffff1614806129c357503373ffffffffffffffffffffffffffffffffffffffff1660008054906101000a900473ffffffffffffffffffffffffffffffffffffffff1673ffffffffffffffffffffffffffffffffffffffff16145b612a02576040517f08c379a00000000000000000000000000000000000000000000000000000000081526004016129f990612ed4565b60405180910390fd5b600073ffffffffffffffffffffffffffffffffffffffff168173ffffffffffffffffffffffffffffffffffffffff1603612a71576040517f08c379a0000000000000000000000000000000000000000000000000000000008152600401612a6890613595565b60405180910390fd5b8073ffffffffffffffffffffffffffffffffffffffff1660008054906101000a900473ffffffffffffffffffffffffffffffffffffffff1673ffffffffffffffffffffffffffffffffffffffff167f8be0079c531659141344cd1fd0a4f28419497f9722a3daafe3b4186f6b6457e060405160405180910390a3806000806101000a81548173ffffffffffffffffffffffffffffffffffffffff021916908373ffffffffffffffffffffffffffffffffffffffff16021790555050565b600b60009054906101000a900460ff1681565b6000808303612b535760009050612b7d565b8183612b5f91906131b5565b9050818382612b6e9190613226565b14612b7c57612b7b6135b5565b5b5b92915050565b60008183612b919190613226565b905092915050565b600080fd5b6000819050919050565b612bb181612b9e565b8114612bbc57600080fd5b50565b600081359050612bce81612ba8565b92915050565b600060208284031215612bea57612be9612b99565b5b6000612bf884828501612bbf565b91505092915050565b600073ffffffffffffffffffffffffffffffffffffffff82169050919050565b6000612c2c82612c01565b9050919050565b612c3c81612c21565b8114612c4757600080fd5b50565b600081359050612c5981612c33565b92915050565b600060208284031215612c7557612c74612b99565b5b6000612c8384828501612c4a565b91505092915050565b612c9581612b9e565b82525050565b6000602082019050612cb06000830184612c8c565b92915050565b60008115159050919050565b612ccb81612cb6565b82525050565b6000602082019050612ce66000830184612cc2565b92915050565b612cf581612c21565b82525050565b6000602082019050612d106000830184612cec565b92915050565b600080600060608486031215612d2f57612d2e612b99565b5b6000612d3d86828701612bbf565b9350506020612d4e86828701612c4a565b9250506040612d5f86828701612bbf565b9150509250925092565b612d7281612cb6565b8114612d7d57600080fd5b50565b600081359050612d8f81612d69565b92915050565b60008060408385031215612dac57612dab612b99565b5b6000612dba85828601612d80565b9250506020612dcb85828601612d80565b9150509250929050565b600080600080600080600060e0888a031215612df457612df3612b99565b5b6000612e028a828b01612c4a565b9750506020612e138a828b01612bbf565b9650506040612e248a828b01612bbf565b9550506060612e358a828b01612bbf565b9450506080612e468a828b01612bbf565b93505060a0612e578a828b01612bbf565b92505060c0612e688a828b01612bbf565b91505092959891949750929550565b600082825260208201905092915050565b7f216f776e65720000000000000000000000000000000000000000000000000000600082015250565b6000612ebe600683612e77565b9150612ec982612e88565b602082019050919050565b60006020820190508181036000830152612eed81612eb1565b9050919050565b600081519050612f0381612ba8565b92915050565b600060208284031215612f1f57612f1e612b99565b5b6000612f2d84828501612ef4565b91505092915050565b7f4e487b7100000000000000000000000000000000000000000000000000000000600052601160045260246000fd5b6000612f7082612b9e565b9150612f7b83612b9e565b9250828203905081811115612f9357612f92612f36565b5b92915050565b7f6e6f742073746172740000000000000000000000000000000000000000000000600082015250565b6000612fcf600983612e77565b9150612fda82612f99565b602082019050919050565b60006020820190508181036000830152612ffe81612fc2565b9050919050565b7f696e76697465722063616e742062792073656c66000000000000000000000000600082015250565b600061303b601483612e77565b915061304682613005565b602082019050919050565b6000602082019050818103600083015261306a8161302e565b9050919050565b7f616c7265616479207374616b6500000000000000000000000000000000000000600082015250565b60006130a7600d83612e77565b91506130b282613071565b602082019050919050565b600060208201905081810360008301526130d68161309a565b9050919050565b7f7a65726f207374616b6500000000000000000000000000000000000000000000600082015250565b6000613113600a83612e77565b915061311e826130dd565b602082019050919050565b6000602082019050818103600083015261314281613106565b9050919050565b7f6e6f742072696768742074696d65000000000000000000000000000000000000600082015250565b600061317f600e83612e77565b915061318a82613149565b602082019050919050565b600060208201905081810360008301526131ae81613172565b9050919050565b60006131c082612b9e565b91506131cb83612b9e565b92508282026131d981612b9e565b915082820484148315176131f0576131ef612f36565b5b5092915050565b7f4e487b7100000000000000000000000000000000000000000000000000000000600052601260045260246000fd5b600061323182612b9e565b915061323c83612b9e565b92508261324c5761324b6131f7565b5b828204905092915050565b600061326282612b9e565b915061326d83612b9e565b925082820190508082111561328557613284612f36565b5b92915050565b60006060820190506132a06000830186612cec565b6132ad6020830185612cec565b6132ba6040830184612c8c565b949350505050565b6000815190506132d181612d69565b92915050565b6000602082840312156132ed576132ec612b99565b5b60006132fb848285016132c2565b91505092915050565b7f6e6f74207374616b650000000000000000000000000000000000000000000000600082015250565b600061333a600983612e77565b915061334582613304565b602082019050919050565b600060208201905081810360008301526133698161332d565b9050919050565b60006040820190506133856000830185612cec565b6133926020830184612c8c565b9392505050565b7f7573657220697320696e20626c61636b6c697374000000000000000000000000600082015250565b60006133cf601483612e77565b91506133da82613399565b602082019050919050565b600060208201905081810360008301526133fe816133c2565b9050919050565b7f616c726561647920636c61696d65640000000000000000000000000000000000600082015250565b600061343b600f83612e77565b915061344682613405565b602082019050919050565b6000602082019050818103600083015261346a8161342e565b9050919050565b7f6e6f207265776172640000000000000000000000000000000000000000000000600082015250565b60006134a7600983612e77565b91506134b282613471565b602082019050919050565b600060208201905081810360008301526134d68161349a565b9050919050565b7f6e6f742074696d65000000000000000000000000000000000000000000000000600082015250565b6000613513600883612e77565b915061351e826134dd565b602082019050919050565b6000602082019050818103600083015261354281613506565b9050919050565b7f6e65772069732030000000000000000000000000000000000000000000000000600082015250565b600061357f600883612e77565b915061358a82613549565b602082019050919050565b600060208201905081810360008301526135ae81613572565b9050919050565b7f4e487b7100000000000000000000000000000000000000000000000000000000600052600160045260246000fdfea26469706673582212204a13d5be161fa7b99693c068ef9fadba1af485a74b5f6798a1bd37f4bc14366664736f6c63430008120033",
					"opcodes": "PUSH1 0x80 PUSH1 0x40 MSTORE PUSH20 0xF1F8E132F0A3F720B3B204D728A8FF316B182258 PUSH1 0x1 PUSH1 0x0 PUSH2 0x100 EXP DUP2 SLOAD DUP2 PUSH20 0xFFFFFFFFFFFFFFFFFFFFFFFFFFFFFFFFFFFFFFFF MUL NOT AND SWAP1 DUP4 PUSH20 0xFFFFFFFFFFFFFFFFFFFFFFFFFFFFFFFFFFFFFFFF AND MUL OR SWAP1 SSTORE POP PUSH20 0x6B6B2D8166D13B58155B8D454F239AE3691257A6 PUSH1 0x2 PUSH1 0x0 PUSH2 0x100 EXP DUP2 SLOAD DUP2 PUSH20 0xFFFFFFFFFFFFFFFFFFFFFFFFFFFFFFFFFFFFFFFF MUL NOT AND SWAP1 DUP4 PUSH20 0xFFFFFFFFFFFFFFFFFFFFFFFFFFFFFFFFFFFFFFFF AND MUL OR SWAP1 SSTORE POP PUSH20 0xB1BF470A9720F8D2E49512DBBCCF7180E4AC4679 PUSH1 0x3 PUSH1 0x0 PUSH2 0x100 EXP DUP2 SLOAD DUP2 PUSH20 0xFFFFFFFFFFFFFFFFFFFFFFFFFFFFFFFFFFFFFFFF MUL NOT AND SWAP1 DUP4 PUSH20 0xFFFFFFFFFFFFFFFFFFFFFFFFFFFFFFFFFFFFFFFF AND MUL OR SWAP1 SSTORE POP PUSH3 0x278D00 PUSH1 0x4 SSTORE PUSH3 0x76A700 PUSH1 0x5 SSTORE PUSH3 0xC5C100 PUSH1 0x6 SSTORE PUSH2 0x3E8 PUSH1 0x7 SSTORE PUSH1 0x1 PUSH1 0xB PUSH1 0x0 PUSH2 0x100 EXP DUP2 SLOAD DUP2 PUSH1 0xFF MUL NOT AND SWAP1 DUP4 ISZERO ISZERO MUL OR SWAP1 SSTORE POP PUSH1 0x1 PUSH1 0xB PUSH1 0x1 PUSH2 0x100 EXP DUP2 SLOAD DUP2 PUSH1 0xFF MUL NOT AND SWAP1 DUP4 ISZERO ISZERO MUL OR SWAP1 SSTORE POP CALLVALUE DUP1 ISZERO PUSH2 0x160 JUMPI PUSH1 0x0 DUP1 REVERT JUMPDEST POP PUSH1 0x0 CALLER SWAP1 POP DUP1 PUSH1 0x0 DUP1 PUSH2 0x100 EXP DUP2 SLOAD DUP2 PUSH20 0xFFFFFFFFFFFFFFFFFFFFFFFFFFFFFFFFFFFFFFFF MUL NOT AND SWAP1 DUP4 PUSH20 0xFFFFFFFFFFFFFFFFFFFFFFFFFFFFFFFFFFFFFFFF AND MUL OR SWAP1 SSTORE POP DUP1 PUSH20 0xFFFFFFFFFFFFFFFFFFFFFFFFFFFFFFFFFFFFFFFF AND PUSH1 0x0 PUSH20 0xFFFFFFFFFFFFFFFFFFFFFFFFFFFFFFFFFFFFFFFF AND PUSH32 0x8BE0079C531659141344CD1FD0A4F28419497F9722A3DAAFE3B4186F6B6457E0 PUSH1 0x40 MLOAD PUSH1 0x40 MLOAD DUP1 SWAP2 SUB SWAP1 LOG3 POP PUSH2 0x361A DUP1 PUSH2 0x211 PUSH1 0x0 CODECOPY PUSH1 0x0 RETURN INVALID PUSH1 0x80 PUSH1 0x40 MSTORE CALLVALUE DUP1 ISZERO PUSH2 0x10 JUMPI PUSH1 0x0 DUP1 REVERT JUMPDEST POP PUSH1 0x4 CALLDATASIZE LT PUSH2 0x210 JUMPI PUSH1 0x0 CALLDATALOAD PUSH1 0xE0 SHR DUP1 PUSH4 0x853E03E5 GT PUSH2 0x125 JUMPI DUP1 PUSH4 0xB88A802F GT PUSH2 0xAD JUMPI DUP1 PUSH4 0xE53595ED GT PUSH2 0x7C JUMPI DUP1 PUSH4 0xE53595ED EQ PUSH2 0x601 JUMPI DUP1 PUSH4 0xE61EE218 EQ PUSH2 0x61F JUMPI DUP1 PUSH4 0xE650D293 EQ PUSH2 0x63B JUMPI DUP1 PUSH4 0xF2FDE38B EQ PUSH2 0x659 JUMPI DUP1 PUSH4 0xF3EF99BC EQ PUSH2 0x675 JUMPI PUSH2 0x210 JUMP JUMPDEST DUP1 PUSH4 0xB88A802F EQ PUSH2 0x58D JUMPI DUP1 PUSH4 0xBEF4533C EQ PUSH2 0x597 JUMPI DUP1 PUSH4 0xD02DA761 EQ PUSH2 0x5C7 JUMPI DUP1 PUSH4 0xDD8158E0 EQ PUSH2 0x5D1 JUMPI PUSH2 0x210 JUMP JUMPDEST DUP1 PUSH4 0x9FD3AF8B GT PUSH2 0xF4 JUMPI DUP1 PUSH4 0x9FD3AF8B EQ PUSH2 0x4FB JUMPI DUP1 PUSH4 0xA041E172 EQ PUSH2 0x505 JUMPI DUP1 PUSH4 0xA6B14D5A EQ PUSH2 0x535 JUMPI DUP1 PUSH4 0xB3C2EAC1 EQ PUSH2 0x553 JUMPI DUP1 PUSH4 0xB59C6E0E EQ PUSH2 0x56F JUMPI PUSH2 0x210 JUMP JUMPDEST DUP1 PUSH4 0x853E03E5 EQ PUSH2 0x473 JUMPI DUP1 PUSH4 0x8DA5CB5B EQ PUSH2 0x491 JUMPI DUP1 PUSH4 0x91F6963C EQ PUSH2 0x4AF JUMPI DUP1 PUSH4 0x9805FA74 EQ PUSH2 0x4CB JUMPI PUSH2 0x210 JUMP JUMPDEST DUP1 PUSH4 0x264EDC1D GT PUSH2 0x1A8 JUMPI DUP1 PUSH4 0x6D37B382 GT PUSH2 0x177 JUMPI DUP1 PUSH4 0x6D37B382 EQ PUSH2 0x3D1 JUMPI DUP1 PUSH4 0x6E9C931C EQ PUSH2 0x3ED JUMPI DUP1 PUSH4 0x71DDDA57 EQ PUSH2 0x409 JUMPI DUP1 PUSH4 0x7929E29F EQ PUSH2 0x427 JUMPI DUP1 PUSH4 0x7D4CBD57 EQ PUSH2 0x457 JUMPI PUSH2 0x210 JUMP JUMPDEST DUP1 PUSH4 0x264EDC1D EQ PUSH2 0x349 JUMPI DUP1 PUSH4 0x29DC425F EQ PUSH2 0x379 JUMPI DUP1 PUSH4 0x2EAE667D EQ PUSH2 0x3A9 JUMPI DUP1 PUSH4 0x3CCFD60B EQ PUSH2 0x3C7 JUMPI PUSH2 0x210 JUMP JUMPDEST DUP1 PUSH4 0x115A972E GT PUSH2 0x1E4 JUMPI DUP1 PUSH4 0x115A972E EQ PUSH2 0x29B JUMPI DUP1 PUSH4 0x16C259E1 EQ PUSH2 0x2CB JUMPI DUP1 PUSH4 0x18883877 EQ PUSH2 0x2FB JUMPI DUP1 PUSH4 0x1896B2C4 EQ PUSH2 0x319 JUMPI PUSH2 0x210 JUMP JUMPDEST DUP1 PUSH3 0x6CD200 EQ PUSH2 0x215 JUMPI DUP1 PUSH4 0x356C98F EQ PUSH2 0x231 JUMPI DUP1 PUSH4 0x397D458 EQ PUSH2 0x261 JUMPI DUP1 PUSH4 0xC280444 EQ PUSH2 0x27D JUMPI JUMPDEST PUSH1 0x0 DUP1 REVERT JUMPDEST PUSH2 0x22F PUSH1 0x4 DUP1 CALLDATASIZE SUB DUP2 ADD SWAP1 PUSH2 0x22A SWAP2 SWAP1 PUSH2 0x2BD4 JUMP JUMPDEST PUSH2 0x693 JUMP JUMPDEST STOP JUMPDEST PUSH2 0x24B PUSH1 0x4 DUP1 CALLDATASIZE SUB DUP2 ADD SWAP1 PUSH2 0x246 SWAP2 SWAP1 PUSH2 0x2C5F JUMP JUMPDEST PUSH2 0x781 JUMP JUMPDEST PUSH1 0x40 MLOAD PUSH2 0x258 SWAP2 SWAP1 PUSH2 0x2C9B JUMP JUMPDEST PUSH1 0x40 MLOAD DUP1 SWAP2 SUB SWAP1 RETURN JUMPDEST PUSH2 0x27B PUSH1 0x4 DUP1 CALLDATASIZE SUB DUP2 ADD SWAP1 PUSH2 0x276 SWAP2 SWAP1 PUSH2 0x2C5F JUMP JUMPDEST PUSH2 0x799 JUMP JUMPDEST STOP JUMPDEST PUSH2 0x285 PUSH2 0x8C1 JUMP JUMPDEST PUSH1 0x40 MLOAD PUSH2 0x292 SWAP2 SWAP1 PUSH2 0x2C9B JUMP JUMPDEST PUSH1 0x40 MLOAD DUP1 SWAP2 SUB SWAP1 RETURN JUMPDEST PUSH2 0x2B5 PUSH1 0x4 DUP1 CALLDATASIZE SUB DUP2 ADD SWAP1 PUSH2 0x2B0 SWAP2 SWAP1 PUSH2 0x2C5F JUMP JUMPDEST PUSH2 0x95E JUMP JUMPDEST PUSH1 0x40 MLOAD PUSH2 0x2C2 SWAP2 SWAP1 PUSH2 0x2CD1 JUMP JUMPDEST PUSH1 0x40 MLOAD DUP1 SWAP2 SUB SWAP1 RETURN JUMPDEST PUSH2 0x2E5 PUSH1 0x4 DUP1 CALLDATASIZE SUB DUP2 ADD SWAP1 PUSH2 0x2E0 SWAP2 SWAP1 PUSH2 0x2C5F JUMP JUMPDEST PUSH2 0x97E JUMP JUMPDEST PUSH1 0x40 MLOAD PUSH2 0x2F2 SWAP2 SWAP1 PUSH2 0x2C9B JUMP JUMPDEST PUSH1 0x40 MLOAD DUP1 SWAP2 SUB SWAP1 RETURN JUMPDEST PUSH2 0x303 PUSH2 0x996 JUMP JUMPDEST PUSH1 0x40 MLOAD PUSH2 0x310 SWAP2 SWAP1 PUSH2 0x2C9B JUMP JUMPDEST PUSH1 0x40 MLOAD DUP1 SWAP2 SUB SWAP1 RETURN JUMPDEST PUSH2 0x333 PUSH1 0x4 DUP1 CALLDATASIZE SUB DUP2 ADD SWAP1 PUSH2 0x32E SWAP2 SWAP1 PUSH2 0x2C5F JUMP JUMPDEST PUSH2 0x99C JUMP JUMPDEST PUSH1 0x40 MLOAD PUSH2 0x340 SWAP2 SWAP1 PUSH2 0x2C9B JUMP JUMPDEST PUSH1 0x40 MLOAD DUP1 SWAP2 SUB SWAP1 RETURN JUMPDEST PUSH2 0x363 PUSH1 0x4 DUP1 CALLDATASIZE SUB DUP2 ADD SWAP1 PUSH2 0x35E SWAP2 SWAP1 PUSH2 0x2C5F JUMP JUMPDEST PUSH2 0x9B4 JUMP JUMPDEST PUSH1 0x40 MLOAD PUSH2 0x370 SWAP2 SWAP1 PUSH2 0x2CFB JUMP JUMPDEST PUSH1 0x40 MLOAD DUP1 SWAP2 SUB SWAP1 RETURN JUMPDEST PUSH2 0x393 PUSH1 0x4 DUP1 CALLDATASIZE SUB DUP2 ADD SWAP1 PUSH2 0x38E SWAP2 SWAP1 PUSH2 0x2C5F JUMP JUMPDEST PUSH2 0x9E7 JUMP JUMPDEST PUSH1 0x40 MLOAD PUSH2 0x3A0 SWAP2 SWAP1 PUSH2 0x2C9B JUMP JUMPDEST PUSH1 0x40 MLOAD DUP1 SWAP2 SUB SWAP1 RETURN JUMPDEST PUSH2 0x3B1 PUSH2 0xDF8 JUMP JUMPDEST PUSH1 0x40 MLOAD PUSH2 0x3BE SWAP2 SWAP1 PUSH2 0x2C9B JUMP JUMPDEST PUSH1 0x40 MLOAD DUP1 SWAP2 SUB SWAP1 RETURN JUMPDEST PUSH2 0x3CF PUSH2 0xDFE JUMP JUMPDEST STOP JUMPDEST PUSH2 0x3EB PUSH1 0x4 DUP1 CALLDATASIZE SUB DUP2 ADD SWAP1 PUSH2 0x3E6 SWAP2 SWAP1 PUSH2 0x2C5F JUMP JUMPDEST PUSH2 0xF2B JUMP JUMPDEST STOP JUMPDEST PUSH2 0x407 PUSH1 0x4 DUP1 CALLDATASIZE SUB DUP2 ADD SWAP1 PUSH2 0x402 SWAP2 SWAP1 PUSH2 0x2D16 JUMP JUMPDEST PUSH2 0x1053 JUMP JUMPDEST STOP JUMPDEST PUSH2 0x411 PUSH2 0x1708 JUMP JUMPDEST PUSH1 0x40 MLOAD PUSH2 0x41E SWAP2 SWAP1 PUSH2 0x2CFB JUMP JUMPDEST PUSH1 0x40 MLOAD DUP1 SWAP2 SUB SWAP1 RETURN JUMPDEST PUSH2 0x441 PUSH1 0x4 DUP1 CALLDATASIZE SUB DUP2 ADD SWAP1 PUSH2 0x43C SWAP2 SWAP1 PUSH2 0x2C5F JUMP JUMPDEST PUSH2 0x172E JUMP JUMPDEST PUSH1 0x40 MLOAD PUSH2 0x44E SWAP2 SWAP1 PUSH2 0x2C9B JUMP JUMPDEST PUSH1 0x40 MLOAD DUP1 SWAP2 SUB SWAP1 RETURN JUMPDEST PUSH2 0x471 PUSH1 0x4 DUP1 CALLDATASIZE SUB DUP2 ADD SWAP1 PUSH2 0x46C SWAP2 SWAP1 PUSH2 0x2C5F JUMP JUMPDEST PUSH2 0x1746 JUMP JUMPDEST STOP JUMPDEST PUSH2 0x47B PUSH2 0x18D1 JUMP JUMPDEST PUSH1 0x40 MLOAD PUSH2 0x488 SWAP2 SWAP1 PUSH2 0x2C9B JUMP JUMPDEST PUSH1 0x40 MLOAD DUP1 SWAP2 SUB SWAP1 RETURN JUMPDEST PUSH2 0x499 PUSH2 0x18D7 JUMP JUMPDEST PUSH1 0x40 MLOAD PUSH2 0x4A6 SWAP2 SWAP1 PUSH2 0x2CFB JUMP JUMPDEST PUSH1 0x40 MLOAD DUP1 SWAP2 SUB SWAP1 RETURN JUMPDEST PUSH2 0x4C9 PUSH1 0x4 DUP1 CALLDATASIZE SUB DUP2 ADD SWAP1 PUSH2 0x4C4 SWAP2 SWAP1 PUSH2 0x2BD4 JUMP JUMPDEST PUSH2 0x1900 JUMP JUMPDEST STOP JUMPDEST PUSH2 0x4E5 PUSH1 0x4 DUP1 CALLDATASIZE SUB DUP2 ADD SWAP1 PUSH2 0x4E0 SWAP2 SWAP1 PUSH2 0x2C5F JUMP JUMPDEST PUSH2 0x1C63 JUMP JUMPDEST PUSH1 0x40 MLOAD PUSH2 0x4F2 SWAP2 SWAP1 PUSH2 0x2C9B JUMP JUMPDEST PUSH1 0x40 MLOAD DUP1 SWAP2 SUB SWAP1 RETURN JUMPDEST PUSH2 0x503 PUSH2 0x1C7B JUMP JUMPDEST STOP JUMPDEST PUSH2 0x51F PUSH1 0x4 DUP1 CALLDATASIZE SUB DUP2 ADD SWAP1 PUSH2 0x51A SWAP2 SWAP1 PUSH2 0x2C5F JUMP JUMPDEST PUSH2 0x1F4F JUMP JUMPDEST PUSH1 0x40 MLOAD PUSH2 0x52C SWAP2 SWAP1 PUSH2 0x2C9B JUMP JUMPDEST PUSH1 0x40 MLOAD DUP1 SWAP2 SUB SWAP1 RETURN JUMPDEST PUSH2 0x53D PUSH2 0x1F67 JUMP JUMPDEST PUSH1 0x40 MLOAD PUSH2 0x54A SWAP2 SWAP1 PUSH2 0x2C9B JUMP JUMPDEST PUSH1 0x40 MLOAD DUP1 SWAP2 SUB SWAP1 RETURN JUMPDEST PUSH2 0x56D PUSH1 0x4 DUP1 CALLDATASIZE SUB DUP2 ADD SWAP1 PUSH2 0x568 SWAP2 SWAP1 PUSH2 0x2D95 JUMP JUMPDEST PUSH2 0x1F6D JUMP JUMPDEST STOP JUMPDEST PUSH2 0x577 PUSH2 0x2089 JUMP JUMPDEST PUSH1 0x40 MLOAD PUSH2 0x584 SWAP2 SWAP1 PUSH2 0x2CFB JUMP JUMPDEST PUSH1 0x40 MLOAD DUP1 SWAP2 SUB SWAP1 RETURN JUMPDEST PUSH2 0x595 PUSH2 0x20AF JUMP JUMPDEST STOP JUMPDEST PUSH2 0x5B1 PUSH1 0x4 DUP1 CALLDATASIZE SUB DUP2 ADD SWAP1 PUSH2 0x5AC SWAP2 SWAP1 PUSH2 0x2C5F JUMP JUMPDEST PUSH2 0x22A7 JUMP JUMPDEST PUSH1 0x40 MLOAD PUSH2 0x5BE SWAP2 SWAP1 PUSH2 0x2C9B JUMP JUMPDEST PUSH1 0x40 MLOAD DUP1 SWAP2 SUB SWAP1 RETURN JUMPDEST PUSH2 0x5CF PUSH2 0x22BF JUMP JUMPDEST STOP JUMPDEST PUSH2 0x5EB PUSH1 0x4 DUP1 CALLDATASIZE SUB DUP2 ADD SWAP1 PUSH2 0x5E6 SWAP2 SWAP1 PUSH2 0x2C5F JUMP JUMPDEST PUSH2 0x2648 JUMP JUMPDEST PUSH1 0x40 MLOAD PUSH2 0x5F8 SWAP2 SWAP1 PUSH2 0x2C9B JUMP JUMPDEST PUSH1 0x40 MLOAD DUP1 SWAP2 SUB SWAP1 RETURN JUMPDEST PUSH2 0x609 PUSH2 0x2660 JUMP JUMPDEST PUSH1 0x40 MLOAD PUSH2 0x616 SWAP2 SWAP1 PUSH2 0x2CFB JUMP JUMPDEST PUSH1 0x40 MLOAD DUP1 SWAP2 SUB SWAP1 RETURN JUMPDEST PUSH2 0x639 PUSH1 0x4 DUP1 CALLDATASIZE SUB DUP2 ADD SWAP1 PUSH2 0x634 SWAP2 SWAP1 PUSH2 0x2DD5 JUMP JUMPDEST PUSH2 0x2686 JUMP JUMPDEST STOP JUMPDEST PUSH2 0x643 PUSH2 0x290B JUMP JUMPDEST PUSH1 0x40 MLOAD PUSH2 0x650 SWAP2 SWAP1 PUSH2 0x2CD1 JUMP JUMPDEST PUSH1 0x40 MLOAD DUP1 SWAP2 SUB SWAP1 RETURN JUMPDEST PUSH2 0x673 PUSH1 0x4 DUP1 CALLDATASIZE SUB DUP2 ADD SWAP1 PUSH2 0x66E SWAP2 SWAP1 PUSH2 0x2C5F JUMP JUMPDEST PUSH2 0x291E JUMP JUMPDEST STOP JUMPDEST PUSH2 0x67D PUSH2 0x2B2E JUMP JUMPDEST PUSH1 0x40 MLOAD PUSH2 0x68A SWAP2 SWAP1 PUSH2 0x2CD1 JUMP JUMPDEST PUSH1 0x40 MLOAD DUP1 SWAP2 SUB SWAP1 RETURN JUMPDEST CALLER PUSH20 0xFFFFFFFFFFFFFFFFFFFFFFFFFFFFFFFFFFFFFFFF AND PUSH1 0x0 DUP1 SLOAD SWAP1 PUSH2 0x100 EXP SWAP1 DIV PUSH20 0xFFFFFFFFFFFFFFFFFFFFFFFFFFFFFFFFFFFFFFFF AND PUSH20 0xFFFFFFFFFFFFFFFFFFFFFFFFFFFFFFFFFFFFFFFF AND EQ DUP1 PUSH2 0x738 JUMPI POP CALLER PUSH20 0xFFFFFFFFFFFFFFFFFFFFFFFFFFFFFFFFFFFFFFFF AND PUSH1 0x0 DUP1 SLOAD SWAP1 PUSH2 0x100 EXP SWAP1 DIV PUSH20 0xFFFFFFFFFFFFFFFFFFFFFFFFFFFFFFFFFFFFFFFF AND PUSH20 0xFFFFFFFFFFFFFFFFFFFFFFFFFFFFFFFFFFFFFFFF AND EQ JUMPDEST PUSH2 0x777 JUMPI PUSH1 0x40 MLOAD PUSH32 0x8C379A000000000000000000000000000000000000000000000000000000000 DUP2 MSTORE PUSH1 0x4 ADD PUSH2 0x76E SWAP1 PUSH2 0x2ED4 JUMP JUMPDEST PUSH1 0x40 MLOAD DUP1 SWAP2 SUB SWAP1 REVERT JUMPDEST DUP1 PUSH1 0x7 DUP2 SWAP1 SSTORE POP POP JUMP JUMPDEST PUSH1 0x10 PUSH1 0x20 MSTORE DUP1 PUSH1 0x0 MSTORE PUSH1 0x40 PUSH1 0x0 KECCAK256 PUSH1 0x0 SWAP2 POP SWAP1 POP SLOAD DUP2 JUMP JUMPDEST CALLER PUSH20 0xFFFFFFFFFFFFFFFFFFFFFFFFFFFFFFFFFFFFFFFF AND PUSH1 0x0 DUP1 SLOAD SWAP1 PUSH2 0x100 EXP SWAP1 DIV PUSH20 0xFFFFFFFFFFFFFFFFFFFFFFFFFFFFFFFFFFFFFFFF AND PUSH20 0xFFFFFFFFFFFFFFFFFFFFFFFFFFFFFFFFFFFFFFFF AND EQ DUP1 PUSH2 0x83E JUMPI POP CALLER PUSH20 0xFFFFFFFFFFFFFFFFFFFFFFFFFFFFFFFFFFFFFFFF AND PUSH1 0x0 DUP1 SLOAD SWAP1 PUSH2 0x100 EXP SWAP1 DIV PUSH20 0xFFFFFFFFFFFFFFFFFFFFFFFFFFFFFFFFFFFFFFFF AND PUSH20 0xFFFFFFFFFFFFFFFFFFFFFFFFFFFFFFFFFFFFFFFF AND EQ JUMPDEST PUSH2 0x87D JUMPI PUSH1 0x40 MLOAD PUSH32 0x8C379A000000000000000000000000000000000000000000000000000000000 DUP2 MSTORE PUSH1 0x4 ADD PUSH2 0x874 SWAP1 PUSH2 0x2ED4 JUMP JUMPDEST PUSH1 0x40 MLOAD DUP1 SWAP2 SUB SWAP1 REVERT JUMPDEST DUP1 PUSH1 0x2 PUSH1 0x0 PUSH2 0x100 EXP DUP2 SLOAD DUP2 PUSH20 0xFFFFFFFFFFFFFFFFFFFFFFFFFFFFFFFFFFFFFFFF MUL NOT AND SWAP1 DUP4 PUSH20 0xFFFFFFFFFFFFFFFFFFFFFFFFFFFFFFFFFFFFFFFF AND MUL OR SWAP1 SSTORE POP POP JUMP JUMPDEST PUSH1 0x0 DUP1 PUSH1 0x3 PUSH1 0x0 SWAP1 SLOAD SWAP1 PUSH2 0x100 EXP SWAP1 DIV PUSH20 0xFFFFFFFFFFFFFFFFFFFFFFFFFFFFFFFFFFFFFFFF AND PUSH20 0xFFFFFFFFFFFFFFFFFFFFFFFFFFFFFFFFFFFFFFFF AND PUSH4 0xC280444 PUSH1 0x40 MLOAD DUP2 PUSH4 0xFFFFFFFF AND PUSH1 0xE0 SHL DUP2 MSTORE PUSH1 0x4 ADD PUSH1 0x20 PUSH1 0x40 MLOAD DUP1 DUP4 SUB DUP2 DUP7 GAS STATICCALL ISZERO DUP1 ISZERO PUSH2 0x931 JUMPI RETURNDATASIZE PUSH1 0x0 DUP1 RETURNDATACOPY RETURNDATASIZE PUSH1 0x0 REVERT JUMPDEST POP POP POP POP PUSH1 0x40 MLOAD RETURNDATASIZE PUSH1 0x1F NOT PUSH1 0x1F DUP3 ADD AND DUP3 ADD DUP1 PUSH1 0x40 MSTORE POP DUP2 ADD SWAP1 PUSH2 0x955 SWAP2 SWAP1 PUSH2 0x2F09 JUMP JUMPDEST SWAP1 POP DUP1 SWAP2 POP POP SWAP1 JUMP JUMPDEST PUSH1 0x12 PUSH1 0x20 MSTORE DUP1 PUSH1 0x0 MSTORE PUSH1 0x40 PUSH1 0x0 KECCAK256 PUSH1 0x0 SWAP2 POP SLOAD SWAP1 PUSH2 0x100 EXP SWAP1 DIV PUSH1 0xFF AND DUP2 JUMP JUMPDEST PUSH1 0xE PUSH1 0x20 MSTORE DUP1 PUSH1 0x0 MSTORE PUSH1 0x40 PUSH1 0x0 KECCAK256 PUSH1 0x0 SWAP2 POP SWAP1 POP SLOAD DUP2 JUMP JUMPDEST PUSH1 0x6 SLOAD DUP2 JUMP JUMPDEST PUSH1 0xA PUSH1 0x20 MSTORE DUP1 PUSH1 0x0 MSTORE PUSH1 0x40 PUSH1 0x0 KECCAK256 PUSH1 0x0 SWAP2 POP SWAP1 POP SLOAD DUP2 JUMP JUMPDEST PUSH1 0x8 PUSH1 0x20 MSTORE DUP1 PUSH1 0x0 MSTORE PUSH1 0x40 PUSH1 0x0 KECCAK256 PUSH1 0x0 SWAP2 POP SLOAD SWAP1 PUSH2 0x100 EXP SWAP1 DIV PUSH20 0xFFFFFFFFFFFFFFFFFFFFFFFFFFFFFFFFFFFFFFFF AND DUP2 JUMP JUMPDEST PUSH1 0x0 DUP1 PUSH1 0xF PUSH1 0x0 DUP5 PUSH20 0xFFFFFFFFFFFFFFFFFFFFFFFFFFFFFFFFFFFFFFFF AND PUSH20 0xFFFFFFFFFFFFFFFFFFFFFFFFFFFFFFFFFFFFFFFF AND DUP2 MSTORE PUSH1 0x20 ADD SWAP1 DUP2 MSTORE PUSH1 0x20 ADD PUSH1 0x0 KECCAK256 SLOAD TIMESTAMP PUSH2 0xA35 SWAP2 SWAP1 PUSH2 0x2F65 JUMP JUMPDEST SWAP1 POP PUSH1 0x0 PUSH1 0xF PUSH1 0x0 DUP6 PUSH20 0xFFFFFFFFFFFFFFFFFFFFFFFFFFFFFFFFFFFFFFFF AND PUSH20 0xFFFFFFFFFFFFFFFFFFFFFFFFFFFFFFFFFFFFFFFF AND DUP2 MSTORE PUSH1 0x20 ADD SWAP1 DUP2 MSTORE PUSH1 0x20 ADD PUSH1 0x0 KECCAK256 SLOAD EQ DUP1 ISZERO PUSH2 0xAC5 JUMPI POP PUSH1 0x0 PUSH1 0xC PUSH1 0x0 DUP6 PUSH20 0xFFFFFFFFFFFFFFFFFFFFFFFFFFFFFFFFFFFFFFFF AND PUSH20 0xFFFFFFFFFFFFFFFFFFFFFFFFFFFFFFFFFFFFFFFF AND DUP2 MSTORE PUSH1 0x20 ADD SWAP1 DUP2 MSTORE PUSH1 0x20 ADD PUSH1 0x0 KECCAK256 SLOAD GT JUMPDEST ISZERO PUSH2 0xB18 JUMPI PUSH1 0xE PUSH1 0x0 DUP5 PUSH20 0xFFFFFFFFFFFFFFFFFFFFFFFFFFFFFFFFFFFFFFFF AND PUSH20 0xFFFFFFFFFFFFFFFFFFFFFFFFFFFFFFFFFFFFFFFF AND DUP2 MSTORE PUSH1 0x20 ADD SWAP1 DUP2 MSTORE PUSH1 0x20 ADD PUSH1 0x0 KECCAK256 SLOAD TIMESTAMP PUSH2 0xB15 SWAP2 SWAP1 PUSH2 0x2F65 JUMP JUMPDEST SWAP1 POP JUMPDEST PUSH1 0x0 PUSH1 0xC PUSH1 0x0 DUP6 PUSH20 0xFFFFFFFFFFFFFFFFFFFFFFFFFFFFFFFFFFFFFFFF AND PUSH20 0xFFFFFFFFFFFFFFFFFFFFFFFFFFFFFFFFFFFFFFFF AND DUP2 MSTORE PUSH1 0x20 ADD SWAP1 DUP2 MSTORE PUSH1 0x20 ADD PUSH1 0x0 KECCAK256 SLOAD SUB PUSH2 0xB69 JUMPI PUSH1 0x0 SWAP2 POP POP PUSH2 0xDF3 JUMP JUMPDEST PUSH1 0x10 PUSH1 0x0 DUP5 PUSH20 0xFFFFFFFFFFFFFFFFFFFFFFFFFFFFFFFFFFFFFFFF AND PUSH20 0xFFFFFFFFFFFFFFFFFFFFFFFFFFFFFFFFFFFFFFFF AND DUP2 MSTORE PUSH1 0x20 ADD SWAP1 DUP2 MSTORE PUSH1 0x20 ADD PUSH1 0x0 KECCAK256 SLOAD TIMESTAMP GT ISZERO PUSH2 0xD16 JUMPI PUSH1 0x0 PUSH1 0xF PUSH1 0x0 DUP6 PUSH20 0xFFFFFFFFFFFFFFFFFFFFFFFFFFFFFFFFFFFFFFFF AND PUSH20 0xFFFFFFFFFFFFFFFFFFFFFFFFFFFFFFFFFFFFFFFF AND DUP2 MSTORE PUSH1 0x20 ADD SWAP1 DUP2 MSTORE PUSH1 0x20 ADD PUSH1 0x0 KECCAK256 SLOAD SUB PUSH2 0xC88 JUMPI PUSH1 0xE PUSH1 0x0 DUP5 PUSH20 0xFFFFFFFFFFFFFFFFFFFFFFFFFFFFFFFFFFFFFFFF AND PUSH20 0xFFFFFFFFFFFFFFFFFFFFFFFFFFFFFFFFFFFFFFFF AND DUP2 MSTORE PUSH1 0x20 ADD SWAP1 DUP2 MSTORE PUSH1 0x20 ADD PUSH1 0x0 KECCAK256 SLOAD PUSH1 0x10 PUSH1 0x0 DUP6 PUSH20 0xFFFFFFFFFFFFFFFFFFFFFFFFFFFFFFFFFFFFFFFF AND PUSH20 0xFFFFFFFFFFFFFFFFFFFFFFFFFFFFFFFFFFFFFFFF AND DUP2 MSTORE PUSH1 0x20 ADD SWAP1 DUP2 MSTORE PUSH1 0x20 ADD PUSH1 0x0 KECCAK256 SLOAD PUSH2 0xC81 SWAP2 SWAP1 PUSH2 0x2F65 JUMP JUMPDEST SWAP1 POP PUSH2 0xD15 JUMP JUMPDEST PUSH1 0xF PUSH1 0x0 DUP5 PUSH20 0xFFFFFFFFFFFFFFFFFFFFFFFFFFFFFFFFFFFFFFFF AND PUSH20 0xFFFFFFFFFFFFFFFFFFFFFFFFFFFFFFFFFFFFFFFF AND DUP2 MSTORE PUSH1 0x20 ADD SWAP1 DUP2 MSTORE PUSH1 0x20 ADD PUSH1 0x0 KECCAK256 SLOAD PUSH1 0x10 PUSH1 0x0 DUP6 PUSH20 0xFFFFFFFFFFFFFFFFFFFFFFFFFFFFFFFFFFFFFFFF AND PUSH20 0xFFFFFFFFFFFFFFFFFFFFFFFFFFFFFFFFFFFFFFFF AND DUP2 MSTORE PUSH1 0x20 ADD SWAP1 DUP2 MSTORE PUSH1 0x20 ADD PUSH1 0x0 KECCAK256 SLOAD PUSH2 0xD12 SWAP2 SWAP1 PUSH2 0x2F65 JUMP JUMPDEST SWAP1 POP JUMPDEST JUMPDEST PUSH1 0x10 PUSH1 0x0 DUP5 PUSH20 0xFFFFFFFFFFFFFFFFFFFFFFFFFFFFFFFFFFFFFFFF AND PUSH20 0xFFFFFFFFFFFFFFFFFFFFFFFFFFFFFFFFFFFFFFFF AND DUP2 MSTORE PUSH1 0x20 ADD SWAP1 DUP2 MSTORE PUSH1 0x20 ADD PUSH1 0x0 KECCAK256 SLOAD PUSH1 0xF PUSH1 0x0 DUP6 PUSH20 0xFFFFFFFFFFFFFFFFFFFFFFFFFFFFFFFFFFFFFFFF AND PUSH20 0xFFFFFFFFFFFFFFFFFFFFFFFFFFFFFFFFFFFFFFFF AND DUP2 MSTORE PUSH1 0x20 ADD SWAP1 DUP2 MSTORE PUSH1 0x20 ADD PUSH1 0x0 KECCAK256 SLOAD GT ISZERO PUSH2 0xDA6 JUMPI PUSH1 0x0 SWAP2 POP POP PUSH2 0xDF3 JUMP JUMPDEST PUSH2 0xDEF DUP2 PUSH1 0x11 PUSH1 0x0 DUP7 PUSH20 0xFFFFFFFFFFFFFFFFFFFFFFFFFFFFFFFFFFFFFFFF AND PUSH20 0xFFFFFFFFFFFFFFFFFFFFFFFFFFFFFFFFFFFFFFFF AND DUP2 MSTORE PUSH1 0x20 ADD SWAP1 DUP2 MSTORE PUSH1 0x20 ADD PUSH1 0x0 KECCAK256 SLOAD PUSH2 0x2B41 JUMP JUMPDEST SWAP2 POP POP JUMPDEST SWAP2 SWAP1 POP JUMP JUMPDEST PUSH1 0x7 SLOAD DUP2 JUMP JUMPDEST CALLER PUSH20 0xFFFFFFFFFFFFFFFFFFFFFFFFFFFFFFFFFFFFFFFF AND PUSH1 0x0 DUP1 SLOAD SWAP1 PUSH2 0x100 EXP SWAP1 DIV PUSH20 0xFFFFFFFFFFFFFFFFFFFFFFFFFFFFFFFFFFFFFFFF AND PUSH20 0xFFFFFFFFFFFFFFFFFFFFFFFFFFFFFFFFFFFFFFFF AND EQ DUP1 PUSH2 0xEA3 JUMPI POP CALLER PUSH20 0xFFFFFFFFFFFFFFFFFFFFFFFFFFFFFFFFFFFFFFFF AND PUSH1 0x0 DUP1 SLOAD SWAP1 PUSH2 0x100 EXP SWAP1 DIV PUSH20 0xFFFFFFFFFFFFFFFFFFFFFFFFFFFFFFFFFFFFFFFF AND PUSH20 0xFFFFFFFFFFFFFFFFFFFFFFFFFFFFFFFFFFFFFFFF AND EQ JUMPDEST PUSH2 0xEE2 JUMPI PUSH1 0x40 MLOAD PUSH32 0x8C379A000000000000000000000000000000000000000000000000000000000 DUP2 MSTORE PUSH1 0x4 ADD PUSH2 0xED9 SWAP1 PUSH2 0x2ED4 JUMP JUMPDEST PUSH1 0x40 MLOAD DUP1 SWAP2 SUB SWAP1 REVERT JUMPDEST CALLER PUSH20 0xFFFFFFFFFFFFFFFFFFFFFFFFFFFFFFFFFFFFFFFF AND PUSH2 0x8FC SELFBALANCE SWAP1 DUP2 ISZERO MUL SWAP1 PUSH1 0x40 MLOAD PUSH1 0x0 PUSH1 0x40 MLOAD DUP1 DUP4 SUB DUP2 DUP6 DUP9 DUP9 CALL SWAP4 POP POP POP POP ISZERO DUP1 ISZERO PUSH2 0xF28 JUMPI RETURNDATASIZE PUSH1 0x0 DUP1 RETURNDATACOPY RETURNDATASIZE PUSH1 0x0 REVERT JUMPDEST POP JUMP JUMPDEST CALLER PUSH20 0xFFFFFFFFFFFFFFFFFFFFFFFFFFFFFFFFFFFFFFFF AND PUSH1 0x0 DUP1 SLOAD SWAP1 PUSH2 0x100 EXP SWAP1 DIV PUSH20 0xFFFFFFFFFFFFFFFFFFFFFFFFFFFFFFFFFFFFFFFF AND PUSH20 0xFFFFFFFFFFFFFFFFFFFFFFFFFFFFFFFFFFFFFFFF AND EQ DUP1 PUSH2 0xFD0 JUMPI POP CALLER PUSH20 0xFFFFFFFFFFFFFFFFFFFFFFFFFFFFFFFFFFFFFFFF AND PUSH1 0x0 DUP1 SLOAD SWAP1 PUSH2 0x100 EXP SWAP1 DIV PUSH20 0xFFFFFFFFFFFFFFFFFFFFFFFFFFFFFFFFFFFFFFFF AND PUSH20 0xFFFFFFFFFFFFFFFFFFFFFFFFFFFFFFFFFFFFFFFF AND EQ JUMPDEST PUSH2 0x100F JUMPI PUSH1 0x40 MLOAD PUSH32 0x8C379A000000000000000000000000000000000000000000000000000000000 DUP2 MSTORE PUSH1 0x4 ADD PUSH2 0x1006 SWAP1 PUSH2 0x2ED4 JUMP JUMPDEST PUSH1 0x40 MLOAD DUP1 SWAP2 SUB SWAP1 REVERT JUMPDEST DUP1 PUSH1 0x3 PUSH1 0x0 PUSH2 0x100 EXP DUP2 SLOAD DUP2 PUSH20 0xFFFFFFFFFFFFFFFFFFFFFFFFFFFFFFFFFFFFFFFF MUL NOT AND SWAP1 DUP4 PUSH20 0xFFFFFFFFFFFFFFFFFFFFFFFFFFFFFFFFFFFFFFFF AND MUL OR SWAP1 SSTORE POP POP JUMP JUMPDEST PUSH1 0xB PUSH1 0x0 SWAP1 SLOAD SWAP1 PUSH2 0x100 EXP SWAP1 DIV PUSH1 0xFF AND PUSH2 0x10A2 JUMPI PUSH1 0x40 MLOAD PUSH32 0x8C379A000000000000000000000000000000000000000000000000000000000 DUP2 MSTORE PUSH1 0x4 ADD PUSH2 0x1099 SWAP1 PUSH2 0x2FE5 JUMP JUMPDEST PUSH1 0x40 MLOAD DUP1 SWAP2 SUB SWAP1 REVERT JUMPDEST CALLER PUSH20 0xFFFFFFFFFFFFFFFFFFFFFFFFFFFFFFFFFFFFFFFF AND DUP3 PUSH20 0xFFFFFFFFFFFFFFFFFFFFFFFFFFFFFFFFFFFFFFFF AND SUB PUSH2 0x1110 JUMPI PUSH1 0x40 MLOAD PUSH32 0x8C379A000000000000000000000000000000000000000000000000000000000 DUP2 MSTORE PUSH1 0x4 ADD PUSH2 0x1107 SWAP1 PUSH2 0x3051 JUMP JUMPDEST PUSH1 0x40 MLOAD DUP1 SWAP2 SUB SWAP1 REVERT JUMPDEST PUSH1 0x0 PUSH1 0xC PUSH1 0x0 CALLER PUSH20 0xFFFFFFFFFFFFFFFFFFFFFFFFFFFFFFFFFFFFFFFF AND PUSH20 0xFFFFFFFFFFFFFFFFFFFFFFFFFFFFFFFFFFFFFFFF AND DUP2 MSTORE PUSH1 0x20 ADD SWAP1 DUP2 MSTORE PUSH1 0x20 ADD PUSH1 0x0 KECCAK256 SLOAD EQ PUSH2 0x1192 JUMPI PUSH1 0x40 MLOAD PUSH32 0x8C379A000000000000000000000000000000000000000000000000000000000 DUP2 MSTORE PUSH1 0x4 ADD PUSH2 0x1189 SWAP1 PUSH2 0x30BD JUMP JUMPDEST PUSH1 0x40 MLOAD DUP1 SWAP2 SUB SWAP1 REVERT JUMPDEST PUSH1 0x0 DUP4 GT PUSH2 0x11D5 JUMPI PUSH1 0x40 MLOAD PUSH32 0x8C379A000000000000000000000000000000000000000000000000000000000 DUP2 MSTORE PUSH1 0x4 ADD PUSH2 0x11CC SWAP1 PUSH2 0x3129 JUMP JUMPDEST PUSH1 0x40 MLOAD DUP1 SWAP2 SUB SWAP1 REVERT JUMPDEST PUSH1 0x4 SLOAD DUP2 EQ DUP1 PUSH2 0x11E6 JUMPI POP PUSH1 0x5 SLOAD DUP2 EQ JUMPDEST DUP1 PUSH2 0x11F2 JUMPI POP PUSH1 0x6 SLOAD DUP2 EQ JUMPDEST PUSH2 0x1231 JUMPI PUSH1 0x40 MLOAD PUSH32 0x8C379A000000000000000000000000000000000000000000000000000000000 DUP2 MSTORE PUSH1 0x4 ADD PUSH2 0x1228 SWAP1 PUSH2 0x3195 JUMP JUMPDEST PUSH1 0x40 MLOAD DUP1 SWAP2 SUB SWAP1 REVERT JUMPDEST PUSH1 0x0 DUP1 PUSH2 0x123C PUSH2 0x8C1 JUMP JUMPDEST SWAP1 POP PUSH1 0x4 SLOAD DUP4 SUB PUSH2 0x128D JUMPI PUSH2 0x1286 PUSH2 0x127E PUSH2 0x1276 PUSH2 0x126F PUSH2 0x1267 PUSH2 0x1261 DUP11 PUSH1 0x8 PUSH2 0x2B41 JUMP JUMPDEST DUP7 PUSH2 0x2B41 JUMP JUMPDEST PUSH1 0x7 SLOAD PUSH2 0x2B41 JUMP JUMPDEST PUSH1 0x64 PUSH2 0x2B83 JUMP JUMPDEST PUSH2 0x3E8 PUSH2 0x2B83 JUMP JUMPDEST PUSH1 0x4 SLOAD PUSH2 0x2B83 JUMP JUMPDEST SWAP2 POP PUSH2 0x1329 JUMP JUMPDEST PUSH1 0x5 SLOAD DUP4 SUB PUSH2 0x12DC JUMPI PUSH2 0x12D5 PUSH2 0x12CD PUSH2 0x12C5 PUSH2 0x12BE PUSH2 0x12B6 PUSH2 0x12B0 DUP11 PUSH1 0xD PUSH2 0x2B41 JUMP JUMPDEST DUP7 PUSH2 0x2B41 JUMP JUMPDEST PUSH1 0x7 SLOAD PUSH2 0x2B41 JUMP JUMPDEST PUSH1 0x64 PUSH2 0x2B83 JUMP JUMPDEST PUSH2 0x3E8 PUSH2 0x2B83 JUMP JUMPDEST PUSH1 0x4 SLOAD PUSH2 0x2B83 JUMP JUMPDEST SWAP2 POP PUSH2 0x1328 JUMP JUMPDEST PUSH1 0x6 SLOAD DUP4 SUB PUSH2 0x1327 JUMPI PUSH2 0x1324 PUSH2 0x131C PUSH2 0x1314 PUSH2 0x130D PUSH2 0x1305 PUSH2 0x12FF DUP11 PUSH1 0x10 PUSH2 0x2B41 JUMP JUMPDEST DUP7 PUSH2 0x2B41 JUMP JUMPDEST PUSH1 0x7 SLOAD PUSH2 0x2B41 JUMP JUMPDEST PUSH1 0x64 PUSH2 0x2B83 JUMP JUMPDEST PUSH2 0x3E8 PUSH2 0x2B83 JUMP JUMPDEST PUSH1 0x4 SLOAD PUSH2 0x2B83 JUMP JUMPDEST SWAP2 POP JUMPDEST JUMPDEST JUMPDEST PUSH1 0x0 PUSH20 0xFFFFFFFFFFFFFFFFFFFFFFFFFFFFFFFFFFFFFFFF AND DUP5 PUSH20 0xFFFFFFFFFFFFFFFFFFFFFFFFFFFFFFFFFFFFFFFF AND EQ PUSH2 0x14BB JUMPI DUP4 PUSH1 0x8 PUSH1 0x0 CALLER PUSH20 0xFFFFFFFFFFFFFFFFFFFFFFFFFFFFFFFFFFFFFFFF AND PUSH20 0xFFFFFFFFFFFFFFFFFFFFFFFFFFFFFFFFFFFFFFFF AND DUP2 MSTORE PUSH1 0x20 ADD SWAP1 DUP2 MSTORE PUSH1 0x20 ADD PUSH1 0x0 KECCAK256 PUSH1 0x0 PUSH2 0x100 EXP DUP2 SLOAD DUP2 PUSH20 0xFFFFFFFFFFFFFFFFFFFFFFFFFFFFFFFFFFFFFFFF MUL NOT AND SWAP1 DUP4 PUSH20 0xFFFFFFFFFFFFFFFFFFFFFFFFFFFFFFFFFFFFFFFF AND MUL OR SWAP1 SSTORE POP PUSH3 0x186A0 PUSH1 0x7 SLOAD PUSH1 0x5 DUP8 DUP5 PUSH2 0x13F0 SWAP2 SWAP1 PUSH2 0x31B5 JUMP JUMPDEST PUSH2 0x13FA SWAP2 SWAP1 PUSH2 0x31B5 JUMP JUMPDEST PUSH2 0x1404 SWAP2 SWAP1 PUSH2 0x31B5 JUMP JUMPDEST PUSH2 0x140E SWAP2 SWAP1 PUSH2 0x3226 JUMP JUMPDEST PUSH1 0x9 PUSH1 0x0 DUP7 PUSH20 0xFFFFFFFFFFFFFFFFFFFFFFFFFFFFFFFFFFFFFFFF AND PUSH20 0xFFFFFFFFFFFFFFFFFFFFFFFFFFFFFFFFFFFFFFFF AND DUP2 MSTORE PUSH1 0x20 ADD SWAP1 DUP2 MSTORE PUSH1 0x20 ADD PUSH1 0x0 KECCAK256 PUSH1 0x0 DUP3 DUP3 SLOAD PUSH2 0x145C SWAP2 SWAP1 PUSH2 0x3257 JUMP JUMPDEST SWAP3 POP POP DUP2 SWAP1 SSTORE POP PUSH1 0x1 PUSH1 0xA PUSH1 0x0 DUP7 PUSH20 0xFFFFFFFFFFFFFFFFFFFFFFFFFFFFFFFFFFFFFFFF AND PUSH20 0xFFFFFFFFFFFFFFFFFFFFFFFFFFFFFFFFFFFFFFFF AND DUP2 MSTORE PUSH1 0x20 ADD SWAP1 DUP2 MSTORE PUSH1 0x20 ADD PUSH1 0x0 KECCAK256 PUSH1 0x0 DUP3 DUP3 SLOAD PUSH2 0x14B3 SWAP2 SWAP1 PUSH2 0x3257 JUMP JUMPDEST SWAP3 POP POP DUP2 SWAP1 SSTORE POP JUMPDEST PUSH1 0x2 PUSH1 0x0 SWAP1 SLOAD SWAP1 PUSH2 0x100 EXP SWAP1 DIV PUSH20 0xFFFFFFFFFFFFFFFFFFFFFFFFFFFFFFFFFFFFFFFF AND PUSH20 0xFFFFFFFFFFFFFFFFFFFFFFFFFFFFFFFFFFFFFFFF AND PUSH4 0x23B872DD CALLER ADDRESS DUP9 PUSH1 0x40 MLOAD DUP5 PUSH4 0xFFFFFFFF AND PUSH1 0xE0 SHL DUP2 MSTORE PUSH1 0x4 ADD PUSH2 0x151A SWAP4 SWAP3 SWAP2 SWAP1 PUSH2 0x328B JUMP JUMPDEST PUSH1 0x20 PUSH1 0x40 MLOAD DUP1 DUP4 SUB DUP2 PUSH1 0x0 DUP8 GAS CALL ISZERO DUP1 ISZERO PUSH2 0x1539 JUMPI RETURNDATASIZE PUSH1 0x0 DUP1 RETURNDATACOPY RETURNDATASIZE PUSH1 0x0 REVERT JUMPDEST POP POP POP POP PUSH1 0x40 MLOAD RETURNDATASIZE PUSH1 0x1F NOT PUSH1 0x1F DUP3 ADD AND DUP3 ADD DUP1 PUSH1 0x40 MSTORE POP DUP2 ADD SWAP1 PUSH2 0x155D SWAP2 SWAP1 PUSH2 0x32D7 JUMP JUMPDEST POP DUP5 PUSH1 0xC PUSH1 0x0 CALLER PUSH20 0xFFFFFFFFFFFFFFFFFFFFFFFFFFFFFFFFFFFFFFFF AND PUSH20 0xFFFFFFFFFFFFFFFFFFFFFFFFFFFFFFFFFFFFFFFF AND DUP2 MSTORE PUSH1 0x20 ADD SWAP1 DUP2 MSTORE PUSH1 0x20 ADD PUSH1 0x0 KECCAK256 DUP2 SWAP1 SSTORE POP TIMESTAMP PUSH1 0xE PUSH1 0x0 CALLER PUSH20 0xFFFFFFFFFFFFFFFFFFFFFFFFFFFFFFFFFFFFFFFF AND PUSH20 0xFFFFFFFFFFFFFFFFFFFFFFFFFFFFFFFFFFFFFFFF AND DUP2 MSTORE PUSH1 0x20 ADD SWAP1 DUP2 MSTORE PUSH1 0x20 ADD PUSH1 0x0 KECCAK256 DUP2 SWAP1 SSTORE POP TIMESTAMP PUSH1 0xF PUSH1 0x0 CALLER PUSH20 0xFFFFFFFFFFFFFFFFFFFFFFFFFFFFFFFFFFFFFFFF AND PUSH20 0xFFFFFFFFFFFFFFFFFFFFFFFFFFFFFFFFFFFFFFFF AND DUP2 MSTORE PUSH1 0x20 ADD SWAP1 DUP2 MSTORE PUSH1 0x20 ADD PUSH1 0x0 KECCAK256 DUP2 SWAP1 SSTORE POP DUP3 TIMESTAMP PUSH2 0x1636 SWAP2 SWAP1 PUSH2 0x3257 JUMP JUMPDEST PUSH1 0x10 PUSH1 0x0 CALLER PUSH20 0xFFFFFFFFFFFFFFFFFFFFFFFFFFFFFFFFFFFFFFFF AND PUSH20 0xFFFFFFFFFFFFFFFFFFFFFFFFFFFFFFFFFFFFFFFF AND DUP2 MSTORE PUSH1 0x20 ADD SWAP1 DUP2 MSTORE PUSH1 0x20 ADD PUSH1 0x0 KECCAK256 DUP2 SWAP1 SSTORE POP DUP3 PUSH1 0xD PUSH1 0x0 CALLER PUSH20 0xFFFFFFFFFFFFFFFFFFFFFFFFFFFFFFFFFFFFFFFF AND PUSH20 0xFFFFFFFFFFFFFFFFFFFFFFFFFFFFFFFFFFFFFFFF AND DUP2 MSTORE PUSH1 0x20 ADD SWAP1 DUP2 MSTORE PUSH1 0x20 ADD PUSH1 0x0 KECCAK256 DUP2 SWAP1 SSTORE POP DUP2 PUSH1 0x11 PUSH1 0x0 CALLER PUSH20 0xFFFFFFFFFFFFFFFFFFFFFFFFFFFFFFFFFFFFFFFF AND PUSH20 0xFFFFFFFFFFFFFFFFFFFFFFFFFFFFFFFFFFFFFFFF AND DUP2 MSTORE PUSH1 0x20 ADD SWAP1 DUP2 MSTORE PUSH1 0x20 ADD PUSH1 0x0 KECCAK256 DUP2 SWAP1 SSTORE POP POP POP POP POP POP JUMP JUMPDEST PUSH1 0x2 PUSH1 0x0 SWAP1 SLOAD SWAP1 PUSH2 0x100 EXP SWAP1 DIV PUSH20 0xFFFFFFFFFFFFFFFFFFFFFFFFFFFFFFFFFFFFFFFF AND DUP2 JUMP JUMPDEST PUSH1 0xF PUSH1 0x20 MSTORE DUP1 PUSH1 0x0 MSTORE PUSH1 0x40 PUSH1 0x0 KECCAK256 PUSH1 0x0 SWAP2 POP SWAP1 POP SLOAD DUP2 JUMP JUMPDEST CALLER PUSH20 0xFFFFFFFFFFFFFFFFFFFFFFFFFFFFFFFFFFFFFFFF AND PUSH1 0x0 DUP1 SLOAD SWAP1 PUSH2 0x100 EXP SWAP1 DIV PUSH20 0xFFFFFFFFFFFFFFFFFFFFFFFFFFFFFFFFFFFFFFFF AND PUSH20 0xFFFFFFFFFFFFFFFFFFFFFFFFFFFFFFFFFFFFFFFF AND EQ DUP1 PUSH2 0x17EB JUMPI POP CALLER PUSH20 0xFFFFFFFFFFFFFFFFFFFFFFFFFFFFFFFFFFFFFFFF AND PUSH1 0x0 DUP1 SLOAD SWAP1 PUSH2 0x100 EXP SWAP1 DIV PUSH20 0xFFFFFFFFFFFFFFFFFFFFFFFFFFFFFFFFFFFFFFFF AND PUSH20 0xFFFFFFFFFFFFFFFFFFFFFFFFFFFFFFFFFFFFFFFF AND EQ JUMPDEST PUSH2 0x182A JUMPI PUSH1 0x40 MLOAD PUSH32 0x8C379A000000000000000000000000000000000000000000000000000000000 DUP2 MSTORE PUSH1 0x4 ADD PUSH2 0x1821 SWAP1 PUSH2 0x2ED4 JUMP JUMPDEST PUSH1 0x40 MLOAD DUP1 SWAP2 SUB SWAP1 REVERT JUMPDEST PUSH1 0x12 PUSH1 0x0 DUP3 PUSH20 0xFFFFFFFFFFFFFFFFFFFFFFFFFFFFFFFFFFFFFFFF AND PUSH20 0xFFFFFFFFFFFFFFFFFFFFFFFFFFFFFFFFFFFFFFFF AND DUP2 MSTORE PUSH1 0x20 ADD SWAP1 DUP2 MSTORE PUSH1 0x20 ADD PUSH1 0x0 KECCAK256 PUSH1 0x0 SWAP1 SLOAD SWAP1 PUSH2 0x100 EXP SWAP1 DIV PUSH1 0xFF AND ISZERO PUSH1 0x12 PUSH1 0x0 DUP4 PUSH20 0xFFFFFFFFFFFFFFFFFFFFFFFFFFFFFFFFFFFFFFFF AND PUSH20 0xFFFFFFFFFFFFFFFFFFFFFFFFFFFFFFFFFFFFFFFF AND DUP2 MSTORE PUSH1 0x20 ADD SWAP1 DUP2 MSTORE PUSH1 0x20 ADD PUSH1 0x0 KECCAK256 PUSH1 0x0 PUSH2 0x100 EXP DUP2 SLOAD DUP2 PUSH1 0xFF MUL NOT AND SWAP1 DUP4 ISZERO ISZERO MUL OR SWAP1 SSTORE POP POP JUMP JUMPDEST PUSH1 0x5 SLOAD DUP2 JUMP JUMPDEST PUSH1 0x0 DUP1 PUSH1 0x0 SWAP1 SLOAD SWAP1 PUSH2 0x100 EXP SWAP1 DIV PUSH20 0xFFFFFFFFFFFFFFFFFFFFFFFFFFFFFFFFFFFFFFFF AND SWAP1 POP SWAP1 JUMP JUMPDEST CALLER PUSH20 0xFFFFFFFFFFFFFFFFFFFFFFFFFFFFFFFFFFFFFFFF AND PUSH1 0x0 DUP1 SLOAD SWAP1 PUSH2 0x100 EXP SWAP1 DIV PUSH20 0xFFFFFFFFFFFFFFFFFFFFFFFFFFFFFFFFFFFFFFFF AND PUSH20 0xFFFFFFFFFFFFFFFFFFFFFFFFFFFFFFFFFFFFFFFF AND EQ DUP1 PUSH2 0x19A5 JUMPI POP CALLER PUSH20 0xFFFFFFFFFFFFFFFFFFFFFFFFFFFFFFFFFFFFFFFF AND PUSH1 0x0 DUP1 SLOAD SWAP1 PUSH2 0x100 EXP SWAP1 DIV PUSH20 0xFFFFFFFFFFFFFFFFFFFFFFFFFFFFFFFFFFFFFFFF AND PUSH20 0xFFFFFFFFFFFFFFFFFFFFFFFFFFFFFFFFFFFFFFFF AND EQ JUMPDEST PUSH2 0x19E4 JUMPI PUSH1 0x40 MLOAD PUSH32 0x8C379A000000000000000000000000000000000000000000000000000000000 DUP2 MSTORE PUSH1 0x4 ADD PUSH2 0x19DB SWAP1 PUSH2 0x2ED4 JUMP JUMPDEST PUSH1 0x40 MLOAD DUP1 SWAP2 SUB SWAP1 REVERT JUMPDEST PUSH1 0x0 PUSH1 0xC PUSH1 0x0 CALLER PUSH20 0xFFFFFFFFFFFFFFFFFFFFFFFFFFFFFFFFFFFFFFFF AND PUSH20 0xFFFFFFFFFFFFFFFFFFFFFFFFFFFFFFFFFFFFFFFF AND DUP2 MSTORE PUSH1 0x20 ADD SWAP1 DUP2 MSTORE PUSH1 0x20 ADD PUSH1 0x0 KECCAK256 SLOAD GT PUSH2 0x1A66 JUMPI PUSH1 0x40 MLOAD PUSH32 0x8C379A000000000000000000000000000000000000000000000000000000000 DUP2 MSTORE PUSH1 0x4 ADD PUSH2 0x1A5D SWAP1 PUSH2 0x3350 JUMP JUMPDEST PUSH1 0x40 MLOAD DUP1 SWAP2 SUB SWAP1 REVERT JUMPDEST PUSH1 0x2 PUSH1 0x0 SWAP1 SLOAD SWAP1 PUSH2 0x100 EXP SWAP1 DIV PUSH20 0xFFFFFFFFFFFFFFFFFFFFFFFFFFFFFFFFFFFFFFFF AND PUSH20 0xFFFFFFFFFFFFFFFFFFFFFFFFFFFFFFFFFFFFFFFF AND PUSH4 0xA9059CBB CALLER DUP4 PUSH1 0x40 MLOAD DUP4 PUSH4 0xFFFFFFFF AND PUSH1 0xE0 SHL DUP2 MSTORE PUSH1 0x4 ADD PUSH2 0x1AC3 SWAP3 SWAP2 SWAP1 PUSH2 0x3370 JUMP JUMPDEST PUSH1 0x20 PUSH1 0x40 MLOAD DUP1 DUP4 SUB DUP2 PUSH1 0x0 DUP8 GAS CALL ISZERO DUP1 ISZERO PUSH2 0x1AE2 JUMPI RETURNDATASIZE PUSH1 0x0 DUP1 RETURNDATACOPY RETURNDATASIZE PUSH1 0x0 REVERT JUMPDEST POP POP POP POP PUSH1 0x40 MLOAD RETURNDATASIZE PUSH1 0x1F NOT PUSH1 0x1F DUP3 ADD AND DUP3 ADD DUP1 PUSH1 0x40 MSTORE POP DUP2 ADD SWAP1 PUSH2 0x1B06 SWAP2 SWAP1 PUSH2 0x32D7 JUMP JUMPDEST POP PUSH1 0x0 PUSH1 0xC PUSH1 0x0 CALLER PUSH20 0xFFFFFFFFFFFFFFFFFFFFFFFFFFFFFFFFFFFFFFFF AND PUSH20 0xFFFFFFFFFFFFFFFFFFFFFFFFFFFFFFFFFFFFFFFF AND DUP2 MSTORE PUSH1 0x20 ADD SWAP1 DUP2 MSTORE PUSH1 0x20 ADD PUSH1 0x0 KECCAK256 DUP2 SWAP1 SSTORE POP PUSH1 0x0 PUSH1 0xE PUSH1 0x0 CALLER PUSH20 0xFFFFFFFFFFFFFFFFFFFFFFFFFFFFFFFFFFFFFFFF AND PUSH20 0xFFFFFFFFFFFFFFFFFFFFFFFFFFFFFFFFFFFFFFFF AND DUP2 MSTORE PUSH1 0x20 ADD SWAP1 DUP2 MSTORE PUSH1 0x20 ADD PUSH1 0x0 KECCAK256 DUP2 SWAP1 SSTORE POP PUSH1 0x0 PUSH1 0x10 PUSH1 0x0 CALLER PUSH20 0xFFFFFFFFFFFFFFFFFFFFFFFFFFFFFFFFFFFFFFFF AND PUSH20 0xFFFFFFFFFFFFFFFFFFFFFFFFFFFFFFFFFFFFFFFF AND DUP2 MSTORE PUSH1 0x20 ADD SWAP1 DUP2 MSTORE PUSH1 0x20 ADD PUSH1 0x0 KECCAK256 DUP2 SWAP1 SSTORE POP PUSH1 0x0 PUSH1 0xD PUSH1 0x0 CALLER PUSH20 0xFFFFFFFFFFFFFFFFFFFFFFFFFFFFFFFFFFFFFFFF AND PUSH20 0xFFFFFFFFFFFFFFFFFFFFFFFFFFFFFFFFFFFFFFFF AND DUP2 MSTORE PUSH1 0x20 ADD SWAP1 DUP2 MSTORE PUSH1 0x20 ADD PUSH1 0x0 KECCAK256 DUP2 SWAP1 SSTORE POP PUSH1 0x0 PUSH1 0x11 PUSH1 0x0 CALLER PUSH20 0xFFFFFFFFFFFFFFFFFFFFFFFFFFFFFFFFFFFFFFFF AND PUSH20 0xFFFFFFFFFFFFFFFFFFFFFFFFFFFFFFFFFFFFFFFF AND DUP2 MSTORE PUSH1 0x20 ADD SWAP1 DUP2 MSTORE PUSH1 0x20 ADD PUSH1 0x0 KECCAK256 DUP2 SWAP1 SSTORE POP POP JUMP JUMPDEST PUSH1 0xC PUSH1 0x20 MSTORE DUP1 PUSH1 0x0 MSTORE PUSH1 0x40 PUSH1 0x0 KECCAK256 PUSH1 0x0 SWAP2 POP SWAP1 POP SLOAD DUP2 JUMP JUMPDEST PUSH1 0xB PUSH1 0x1 SWAP1 SLOAD SWAP1 PUSH2 0x100 EXP SWAP1 DIV PUSH1 0xFF AND PUSH2 0x1CCA JUMPI PUSH1 0x40 MLOAD PUSH32 0x8C379A000000000000000000000000000000000000000000000000000000000 DUP2 MSTORE PUSH1 0x4 ADD PUSH2 0x1CC1 SWAP1 PUSH2 0x2FE5 JUMP JUMPDEST PUSH1 0x40 MLOAD DUP1 SWAP2 SUB SWAP1 REVERT JUMPDEST PUSH1 0x0 PUSH1 0xC PUSH1 0x0 CALLER PUSH20 0xFFFFFFFFFFFFFFFFFFFFFFFFFFFFFFFFFFFFFFFF AND PUSH20 0xFFFFFFFFFFFFFFFFFFFFFFFFFFFFFFFFFFFFFFFF AND DUP2 MSTORE PUSH1 0x20 ADD SWAP1 DUP2 MSTORE PUSH1 0x20 ADD PUSH1 0x0 KECCAK256 SLOAD GT PUSH2 0x1D4C JUMPI PUSH1 0x40 MLOAD PUSH32 0x8C379A000000000000000000000000000000000000000000000000000000000 DUP2 MSTORE PUSH1 0x4 ADD PUSH2 0x1D43 SWAP1 PUSH2 0x3350 JUMP JUMPDEST PUSH1 0x40 MLOAD DUP1 SWAP2 SUB SWAP1 REVERT JUMPDEST PUSH1 0x12 PUSH1 0x0 CALLER PUSH20 0xFFFFFFFFFFFFFFFFFFFFFFFFFFFFFFFFFFFFFFFF AND PUSH20 0xFFFFFFFFFFFFFFFFFFFFFFFFFFFFFFFFFFFFFFFF AND DUP2 MSTORE PUSH1 0x20 ADD SWAP1 DUP2 MSTORE PUSH1 0x20 ADD PUSH1 0x0 KECCAK256 PUSH1 0x0 SWAP1 SLOAD SWAP1 PUSH2 0x100 EXP SWAP1 DIV PUSH1 0xFF AND ISZERO PUSH2 0x1DD9 JUMPI PUSH1 0x40 MLOAD PUSH32 0x8C379A000000000000000000000000000000000000000000000000000000000 DUP2 MSTORE PUSH1 0x4 ADD PUSH2 0x1DD0 SWAP1 PUSH2 0x33E5 JUMP JUMPDEST PUSH1 0x40 MLOAD DUP1 SWAP2 SUB SWAP1 REVERT JUMPDEST TIMESTAMP PUSH1 0xF PUSH1 0x0 CALLER PUSH20 0xFFFFFFFFFFFFFFFFFFFFFFFFFFFFFFFFFFFFFFFF AND PUSH20 0xFFFFFFFFFFFFFFFFFFFFFFFFFFFFFFFFFFFFFFFF AND DUP2 MSTORE PUSH1 0x20 ADD SWAP1 DUP2 MSTORE PUSH1 0x20 ADD PUSH1 0x0 KECCAK256 SLOAD LT PUSH2 0x1E5A JUMPI PUSH1 0x40 MLOAD PUSH32 0x8C379A000000000000000000000000000000000000000000000000000000000 DUP2 MSTORE PUSH1 0x4 ADD PUSH2 0x1E51 SWAP1 PUSH2 0x3451 JUMP JUMPDEST PUSH1 0x40 MLOAD DUP1 SWAP2 SUB SWAP1 REVERT JUMPDEST PUSH1 0x0 PUSH2 0x1E65 CALLER PUSH2 0x9E7 JUMP JUMPDEST SWAP1 POP TIMESTAMP PUSH1 0xF PUSH1 0x0 CALLER PUSH20 0xFFFFFFFFFFFFFFFFFFFFFFFFFFFFFFFFFFFFFFFF AND PUSH20 0xFFFFFFFFFFFFFFFFFFFFFFFFFFFFFFFFFFFFFFFF AND DUP2 MSTORE PUSH1 0x20 ADD SWAP1 DUP2 MSTORE PUSH1 0x20 ADD PUSH1 0x0 KECCAK256 DUP2 SWAP1 SSTORE POP PUSH1 0x1 PUSH1 0x0 SWAP1 SLOAD SWAP1 PUSH2 0x100 EXP SWAP1 DIV PUSH20 0xFFFFFFFFFFFFFFFFFFFFFFFFFFFFFFFFFFFFFFFF AND PUSH20 0xFFFFFFFFFFFFFFFFFFFFFFFFFFFFFFFFFFFFFFFF AND PUSH4 0xA9059CBB CALLER DUP4 PUSH1 0x40 MLOAD DUP4 PUSH4 0xFFFFFFFF AND PUSH1 0xE0 SHL DUP2 MSTORE PUSH1 0x4 ADD PUSH2 0x1F08 SWAP3 SWAP2 SWAP1 PUSH2 0x3370 JUMP JUMPDEST PUSH1 0x20 PUSH1 0x40 MLOAD DUP1 DUP4 SUB DUP2 PUSH1 0x0 DUP8 GAS CALL ISZERO DUP1 ISZERO PUSH2 0x1F27 JUMPI RETURNDATASIZE PUSH1 0x0 DUP1 RETURNDATACOPY RETURNDATASIZE PUSH1 0x0 REVERT JUMPDEST POP POP POP POP PUSH1 0x40 MLOAD RETURNDATASIZE PUSH1 0x1F NOT PUSH1 0x1F DUP3 ADD AND DUP3 ADD DUP1 PUSH1 0x40 MSTORE POP DUP2 ADD SWAP1 PUSH2 0x1F4B SWAP2 SWAP1 PUSH2 0x32D7 JUMP JUMPDEST POP POP JUMP JUMPDEST PUSH1 0xD PUSH1 0x20 MSTORE DUP1 PUSH1 0x0 MSTORE PUSH1 0x40 PUSH1 0x0 KECCAK256 PUSH1 0x0 SWAP2 POP SWAP1 POP SLOAD DUP2 JUMP JUMPDEST PUSH1 0x4 SLOAD DUP2 JUMP JUMPDEST CALLER PUSH20 0xFFFFFFFFFFFFFFFFFFFFFFFFFFFFFFFFFFFFFFFF AND PUSH1 0x0 DUP1 SLOAD SWAP1 PUSH2 0x100 EXP SWAP1 DIV PUSH20 0xFFFFFFFFFFFFFFFFFFFFFFFFFFFFFFFFFFFFFFFF AND PUSH20 0xFFFFFFFFFFFFFFFFFFFFFFFFFFFFFFFFFFFFFFFF AND EQ DUP1 PUSH2 0x2012 JUMPI POP CALLER PUSH20 0xFFFFFFFFFFFFFFFFFFFFFFFFFFFFFFFFFFFFFFFF AND PUSH1 0x0 DUP1 SLOAD SWAP1 PUSH2 0x100 EXP SWAP1 DIV PUSH20 0xFFFFFFFFFFFFFFFFFFFFFFFFFFFFFFFFFFFFFFFF AND PUSH20 0xFFFFFFFFFFFFFFFFFFFFFFFFFFFFFFFFFFFFFFFF AND EQ JUMPDEST PUSH2 0x2051 JUMPI PUSH1 0x40 MLOAD PUSH32 0x8C379A000000000000000000000000000000000000000000000000000000000 DUP2 MSTORE PUSH1 0x4 ADD PUSH2 0x2048 SWAP1 PUSH2 0x2ED4 JUMP JUMPDEST PUSH1 0x40 MLOAD DUP1 SWAP2 SUB SWAP1 REVERT JUMPDEST DUP2 PUSH1 0xB PUSH1 0x0 PUSH2 0x100 EXP DUP2 SLOAD DUP2 PUSH1 0xFF MUL NOT AND SWAP1 DUP4 ISZERO ISZERO MUL OR SWAP1 SSTORE POP DUP1 PUSH1 0xB PUSH1 0x1 PUSH2 0x100 EXP DUP2 SLOAD DUP2 PUSH1 0xFF MUL NOT AND SWAP1 DUP4 ISZERO ISZERO MUL OR SWAP1 SSTORE POP POP POP JUMP JUMPDEST PUSH1 0x1 PUSH1 0x0 SWAP1 SLOAD SWAP1 PUSH2 0x100 EXP SWAP1 DIV PUSH20 0xFFFFFFFFFFFFFFFFFFFFFFFFFFFFFFFFFFFFFFFF AND DUP2 JUMP JUMPDEST PUSH1 0xB PUSH1 0x1 SWAP1 SLOAD SWAP1 PUSH2 0x100 EXP SWAP1 DIV PUSH1 0xFF AND PUSH2 0x20FE JUMPI PUSH1 0x40 MLOAD PUSH32 0x8C379A000000000000000000000000000000000000000000000000000000000 DUP2 MSTORE PUSH1 0x4 ADD PUSH2 0x20F5 SWAP1 PUSH2 0x2FE5 JUMP JUMPDEST PUSH1 0x40 MLOAD DUP1 SWAP2 SUB SWAP1 REVERT JUMPDEST PUSH1 0x0 PUSH1 0x9 PUSH1 0x0 CALLER PUSH20 0xFFFFFFFFFFFFFFFFFFFFFFFFFFFFFFFFFFFFFFFF AND PUSH20 0xFFFFFFFFFFFFFFFFFFFFFFFFFFFFFFFFFFFFFFFF AND DUP2 MSTORE PUSH1 0x20 ADD SWAP1 DUP2 MSTORE PUSH1 0x20 ADD PUSH1 0x0 KECCAK256 SLOAD GT PUSH2 0x2180 JUMPI PUSH1 0x40 MLOAD PUSH32 0x8C379A000000000000000000000000000000000000000000000000000000000 DUP2 MSTORE PUSH1 0x4 ADD PUSH2 0x2177 SWAP1 PUSH2 0x34BD JUMP JUMPDEST PUSH1 0x40 MLOAD DUP1 SWAP2 SUB SWAP1 REVERT JUMPDEST PUSH1 0x1 PUSH1 0x0 SWAP1 SLOAD SWAP1 PUSH2 0x100 EXP SWAP1 DIV PUSH20 0xFFFFFFFFFFFFFFFFFFFFFFFFFFFFFFFFFFFFFFFF AND PUSH20 0xFFFFFFFFFFFFFFFFFFFFFFFFFFFFFFFFFFFFFFFF AND PUSH4 0xA9059CBB CALLER PUSH1 0x9 PUSH1 0x0 CALLER PUSH20 0xFFFFFFFFFFFFFFFFFFFFFFFFFFFFFFFFFFFFFFFF AND PUSH20 0xFFFFFFFFFFFFFFFFFFFFFFFFFFFFFFFFFFFFFFFF AND DUP2 MSTORE PUSH1 0x20 ADD SWAP1 DUP2 MSTORE PUSH1 0x20 ADD PUSH1 0x0 KECCAK256 SLOAD PUSH1 0x40 MLOAD DUP4 PUSH4 0xFFFFFFFF AND PUSH1 0xE0 SHL DUP2 MSTORE PUSH1 0x4 ADD PUSH2 0x221C SWAP3 SWAP2 SWAP1 PUSH2 0x3370 JUMP JUMPDEST PUSH1 0x20 PUSH1 0x40 MLOAD DUP1 DUP4 SUB DUP2 PUSH1 0x0 DUP8 GAS CALL ISZERO DUP1 ISZERO PUSH2 0x223B JUMPI RETURNDATASIZE PUSH1 0x0 DUP1 RETURNDATACOPY RETURNDATASIZE PUSH1 0x0 REVERT JUMPDEST POP POP POP POP PUSH1 0x40 MLOAD RETURNDATASIZE PUSH1 0x1F NOT PUSH1 0x1F DUP3 ADD AND DUP3 ADD DUP1 PUSH1 0x40 MSTORE POP DUP2 ADD SWAP1 PUSH2 0x225F SWAP2 SWAP1 PUSH2 0x32D7 JUMP JUMPDEST POP PUSH1 0x0 PUSH1 0x9 PUSH1 0x0 CALLER PUSH20 0xFFFFFFFFFFFFFFFFFFFFFFFFFFFFFFFFFFFFFFFF AND PUSH20 0xFFFFFFFFFFFFFFFFFFFFFFFFFFFFFFFFFFFFFFFF AND DUP2 MSTORE PUSH1 0x20 ADD SWAP1 DUP2 MSTORE PUSH1 0x20 ADD PUSH1 0x0 KECCAK256 DUP2 SWAP1 SSTORE POP JUMP JUMPDEST PUSH1 0x11 PUSH1 0x20 MSTORE DUP1 PUSH1 0x0 MSTORE PUSH1 0x40 PUSH1 0x0 KECCAK256 PUSH1 0x0 SWAP2 POP SWAP1 POP SLOAD DUP2 JUMP JUMPDEST PUSH1 0xD PUSH1 0x0 CALLER PUSH20 0xFFFFFFFFFFFFFFFFFFFFFFFFFFFFFFFFFFFFFFFF AND PUSH20 0xFFFFFFFFFFFFFFFFFFFFFFFFFFFFFFFFFFFFFFFF AND DUP2 MSTORE PUSH1 0x20 ADD SWAP1 DUP2 MSTORE PUSH1 0x20 ADD PUSH1 0x0 KECCAK256 SLOAD PUSH1 0xE PUSH1 0x0 CALLER PUSH20 0xFFFFFFFFFFFFFFFFFFFFFFFFFFFFFFFFFFFFFFFF AND PUSH20 0xFFFFFFFFFFFFFFFFFFFFFFFFFFFFFFFFFFFFFFFF AND DUP2 MSTORE PUSH1 0x20 ADD SWAP1 DUP2 MSTORE PUSH1 0x20 ADD PUSH1 0x0 KECCAK256 SLOAD TIMESTAMP PUSH2 0x234A SWAP2 SWAP1 PUSH2 0x2F65 JUMP JUMPDEST LT ISZERO PUSH2 0x238B JUMPI PUSH1 0x40 MLOAD PUSH32 0x8C379A000000000000000000000000000000000000000000000000000000000 DUP2 MSTORE PUSH1 0x4 ADD PUSH2 0x2382 SWAP1 PUSH2 0x3529 JUMP JUMPDEST PUSH1 0x40 MLOAD DUP1 SWAP2 SUB SWAP1 REVERT JUMPDEST PUSH1 0x0 PUSH1 0xC PUSH1 0x0 CALLER PUSH20 0xFFFFFFFFFFFFFFFFFFFFFFFFFFFFFFFFFFFFFFFF AND PUSH20 0xFFFFFFFFFFFFFFFFFFFFFFFFFFFFFFFFFFFFFFFF AND DUP2 MSTORE PUSH1 0x20 ADD SWAP1 DUP2 MSTORE PUSH1 0x20 ADD PUSH1 0x0 KECCAK256 SLOAD GT PUSH2 0x240D JUMPI PUSH1 0x40 MLOAD PUSH32 0x8C379A000000000000000000000000000000000000000000000000000000000 DUP2 MSTORE PUSH1 0x4 ADD PUSH2 0x2404 SWAP1 PUSH2 0x3350 JUMP JUMPDEST PUSH1 0x40 MLOAD DUP1 SWAP2 SUB SWAP1 REVERT JUMPDEST PUSH1 0x2 PUSH1 0x0 SWAP1 SLOAD SWAP1 PUSH2 0x100 EXP SWAP1 DIV PUSH20 0xFFFFFFFFFFFFFFFFFFFFFFFFFFFFFFFFFFFFFFFF AND PUSH20 0xFFFFFFFFFFFFFFFFFFFFFFFFFFFFFFFFFFFFFFFF AND PUSH4 0xA9059CBB CALLER PUSH1 0xC PUSH1 0x0 CALLER PUSH20 0xFFFFFFFFFFFFFFFFFFFFFFFFFFFFFFFFFFFFFFFF AND PUSH20 0xFFFFFFFFFFFFFFFFFFFFFFFFFFFFFFFFFFFFFFFF AND DUP2 MSTORE PUSH1 0x20 ADD SWAP1 DUP2 MSTORE PUSH1 0x20 ADD PUSH1 0x0 KECCAK256 SLOAD PUSH1 0x40 MLOAD DUP4 PUSH4 0xFFFFFFFF AND PUSH1 0xE0 SHL DUP2 MSTORE PUSH1 0x4 ADD PUSH2 0x24A9 SWAP3 SWAP2 SWAP1 PUSH2 0x3370 JUMP JUMPDEST PUSH1 0x20 PUSH1 0x40 MLOAD DUP1 DUP4 SUB DUP2 PUSH1 0x0 DUP8 GAS CALL ISZERO DUP1 ISZERO PUSH2 0x24C8 JUMPI RETURNDATASIZE PUSH1 0x0 DUP1 RETURNDATACOPY RETURNDATASIZE PUSH1 0x0 REVERT JUMPDEST POP POP POP POP PUSH1 0x40 MLOAD RETURNDATASIZE PUSH1 0x1F NOT PUSH1 0x1F DUP3 ADD AND DUP3 ADD DUP1 PUSH1 0x40 MSTORE POP DUP2 ADD SWAP1 PUSH2 0x24EC SWAP2 SWAP1 PUSH2 0x32D7 JUMP JUMPDEST POP PUSH1 0x0 PUSH1 0xC PUSH1 0x0 CALLER PUSH20 0xFFFFFFFFFFFFFFFFFFFFFFFFFFFFFFFFFFFFFFFF AND PUSH20 0xFFFFFFFFFFFFFFFFFFFFFFFFFFFFFFFFFFFFFFFF AND DUP2 MSTORE PUSH1 0x20 ADD SWAP1 DUP2 MSTORE PUSH1 0x20 ADD PUSH1 0x0 KECCAK256 DUP2 SWAP1 SSTORE POP PUSH1 0x0 PUSH1 0xE PUSH1 0x0 CALLER PUSH20 0xFFFFFFFFFFFFFFFFFFFFFFFFFFFFFFFFFFFFFFFF AND PUSH20 0xFFFFFFFFFFFFFFFFFFFFFFFFFFFFFFFFFFFFFFFF AND DUP2 MSTORE PUSH1 0x20 ADD SWAP1 DUP2 MSTORE PUSH1 0x20 ADD PUSH1 0x0 KECCAK256 DUP2 SWAP1 SSTORE POP PUSH1 0x0 PUSH1 0x10 PUSH1 0x0 CALLER PUSH20 0xFFFFFFFFFFFFFFFFFFFFFFFFFFFFFFFFFFFFFFFF AND PUSH20 0xFFFFFFFFFFFFFFFFFFFFFFFFFFFFFFFFFFFFFFFF AND DUP2 MSTORE PUSH1 0x20 ADD SWAP1 DUP2 MSTORE PUSH1 0x20 ADD PUSH1 0x0 KECCAK256 DUP2 SWAP1 SSTORE POP PUSH1 0x0 PUSH1 0xD PUSH1 0x0 CALLER PUSH20 0xFFFFFFFFFFFFFFFFFFFFFFFFFFFFFFFFFFFFFFFF AND PUSH20 0xFFFFFFFFFFFFFFFFFFFFFFFFFFFFFFFFFFFFFFFF AND DUP2 MSTORE PUSH1 0x20 ADD SWAP1 DUP2 MSTORE PUSH1 0x20 ADD PUSH1 0x0 KECCAK256 DUP2 SWAP1 SSTORE POP PUSH1 0x0 PUSH1 0x11 PUSH1 0x0 CALLER PUSH20 0xFFFFFFFFFFFFFFFFFFFFFFFFFFFFFFFFFFFFFFFF AND PUSH20 0xFFFFFFFFFFFFFFFFFFFFFFFFFFFFFFFFFFFFFFFF AND DUP2 MSTORE PUSH1 0x20 ADD SWAP1 DUP2 MSTORE PUSH1 0x20 ADD PUSH1 0x0 KECCAK256 DUP2 SWAP1 SSTORE POP JUMP JUMPDEST PUSH1 0x9 PUSH1 0x20 MSTORE DUP1 PUSH1 0x0 MSTORE PUSH1 0x40 PUSH1 0x0 KECCAK256 PUSH1 0x0 SWAP2 POP SWAP1 POP SLOAD DUP2 JUMP JUMPDEST PUSH1 0x3 PUSH1 0x0 SWAP1 SLOAD SWAP1 PUSH2 0x100 EXP SWAP1 DIV PUSH20 0xFFFFFFFFFFFFFFFFFFFFFFFFFFFFFFFFFFFFFFFF AND DUP2 JUMP JUMPDEST CALLER PUSH20 0xFFFFFFFFFFFFFFFFFFFFFFFFFFFFFFFFFFFFFFFF AND PUSH1 0x0 DUP1 SLOAD SWAP1 PUSH2 0x100 EXP SWAP1 DIV PUSH20 0xFFFFFFFFFFFFFFFFFFFFFFFFFFFFFFFFFFFFFFFF AND PUSH20 0xFFFFFFFFFFFFFFFFFFFFFFFFFFFFFFFFFFFFFFFF AND EQ DUP1 PUSH2 0x272B JUMPI POP CALLER PUSH20 0xFFFFFFFFFFFFFFFFFFFFFFFFFFFFFFFFFFFFFFFF AND PUSH1 0x0 DUP1 SLOAD SWAP1 PUSH2 0x100 EXP SWAP1 DIV PUSH20 0xFFFFFFFFFFFFFFFFFFFFFFFFFFFFFFFFFFFFFFFF AND PUSH20 0xFFFFFFFFFFFFFFFFFFFFFFFFFFFFFFFFFFFFFFFF AND EQ JUMPDEST PUSH2 0x276A JUMPI PUSH1 0x40 MLOAD PUSH32 0x8C379A000000000000000000000000000000000000000000000000000000000 DUP2 MSTORE PUSH1 0x4 ADD PUSH2 0x2761 SWAP1 PUSH2 0x2ED4 JUMP JUMPDEST PUSH1 0x40 MLOAD DUP1 SWAP2 SUB SWAP1 REVERT JUMPDEST DUP6 PUSH1 0xC PUSH1 0x0 DUP10 PUSH20 0xFFFFFFFFFFFFFFFFFFFFFFFFFFFFFFFFFFFFFFFF AND PUSH20 0xFFFFFFFFFFFFFFFFFFFFFFFFFFFFFFFFFFFFFFFF AND DUP2 MSTORE PUSH1 0x20 ADD SWAP1 DUP2 MSTORE PUSH1 0x20 ADD PUSH1 0x0 KECCAK256 DUP2 SWAP1 SSTORE POP DUP5 PUSH1 0xD PUSH1 0x0 DUP10 PUSH20 0xFFFFFFFFFFFFFFFFFFFFFFFFFFFFFFFFFFFFFFFF AND PUSH20 0xFFFFFFFFFFFFFFFFFFFFFFFFFFFFFFFFFFFFFFFF AND DUP2 MSTORE PUSH1 0x20 ADD SWAP1 DUP2 MSTORE PUSH1 0x20 ADD PUSH1 0x0 KECCAK256 DUP2 SWAP1 SSTORE POP DUP4 PUSH1 0xE PUSH1 0x0 DUP10 PUSH20 0xFFFFFFFFFFFFFFFFFFFFFFFFFFFFFFFFFFFFFFFF AND PUSH20 0xFFFFFFFFFFFFFFFFFFFFFFFFFFFFFFFFFFFFFFFF AND DUP2 MSTORE PUSH1 0x20 ADD SWAP1 DUP2 MSTORE PUSH1 0x20 ADD PUSH1 0x0 KECCAK256 DUP2 SWAP1 SSTORE POP DUP3 PUSH1 0xF PUSH1 0x0 DUP10 PUSH20 0xFFFFFFFFFFFFFFFFFFFFFFFFFFFFFFFFFFFFFFFF AND PUSH20 0xFFFFFFFFFFFFFFFFFFFFFFFFFFFFFFFFFFFFFFFF AND DUP2 MSTORE PUSH1 0x20 ADD SWAP1 DUP2 MSTORE PUSH1 0x20 ADD PUSH1 0x0 KECCAK256 DUP2 SWAP1 SSTORE POP DUP2 PUSH1 0x11 PUSH1 0x0 DUP10 PUSH20 0xFFFFFFFFFFFFFFFFFFFFFFFFFFFFFFFFFFFFFFFF AND PUSH20 0xFFFFFFFFFFFFFFFFFFFFFFFFFFFFFFFFFFFFFFFF AND DUP2 MSTORE PUSH1 0x20 ADD SWAP1 DUP2 MSTORE PUSH1 0x20 ADD PUSH1 0x0 KECCAK256 DUP2 SWAP1 SSTORE POP DUP1 PUSH1 0x10 PUSH1 0x0 DUP10 PUSH20 0xFFFFFFFFFFFFFFFFFFFFFFFFFFFFFFFFFFFFFFFF AND PUSH20 0xFFFFFFFFFFFFFFFFFFFFFFFFFFFFFFFFFFFFFFFF AND DUP2 MSTORE PUSH1 0x20 ADD SWAP1 DUP2 MSTORE PUSH1 0x20 ADD PUSH1 0x0 KECCAK256 DUP2 SWAP1 SSTORE POP POP POP POP POP POP POP POP JUMP JUMPDEST PUSH1 0xB PUSH1 0x1 SWAP1 SLOAD SWAP1 PUSH2 0x100 EXP SWAP1 DIV PUSH1 0xFF AND DUP2 JUMP JUMPDEST CALLER PUSH20 0xFFFFFFFFFFFFFFFFFFFFFFFFFFFFFFFFFFFFFFFF AND PUSH1 0x0 DUP1 SLOAD SWAP1 PUSH2 0x100 EXP SWAP1 DIV PUSH20 0xFFFFFFFFFFFFFFFFFFFFFFFFFFFFFFFFFFFFFFFF AND PUSH20 0xFFFFFFFFFFFFFFFFFFFFFFFFFFFFFFFFFFFFFFFF AND EQ DUP1 PUSH2 0x29C3 JUMPI POP CALLER PUSH20 0xFFFFFFFFFFFFFFFFFFFFFFFFFFFFFFFFFFFFFFFF AND PUSH1 0x0 DUP1 SLOAD SWAP1 PUSH2 0x100 EXP SWAP1 DIV PUSH20 0xFFFFFFFFFFFFFFFFFFFFFFFFFFFFFFFFFFFFFFFF AND PUSH20 0xFFFFFFFFFFFFFFFFFFFFFFFFFFFFFFFFFFFFFFFF AND EQ JUMPDEST PUSH2 0x2A02 JUMPI PUSH1 0x40 MLOAD PUSH32 0x8C379A000000000000000000000000000000000000000000000000000000000 DUP2 MSTORE PUSH1 0x4 ADD PUSH2 0x29F9 SWAP1 PUSH2 0x2ED4 JUMP JUMPDEST PUSH1 0x40 MLOAD DUP1 SWAP2 SUB SWAP1 REVERT JUMPDEST PUSH1 0x0 PUSH20 0xFFFFFFFFFFFFFFFFFFFFFFFFFFFFFFFFFFFFFFFF AND DUP2 PUSH20 0xFFFFFFFFFFFFFFFFFFFFFFFFFFFFFFFFFFFFFFFF AND SUB PUSH2 0x2A71 JUMPI PUSH1 0x40 MLOAD PUSH32 0x8C379A000000000000000000000000000000000000000000000000000000000 DUP2 MSTORE PUSH1 0x4 ADD PUSH2 0x2A68 SWAP1 PUSH2 0x3595 JUMP JUMPDEST PUSH1 0x40 MLOAD DUP1 SWAP2 SUB SWAP1 REVERT JUMPDEST DUP1 PUSH20 0xFFFFFFFFFFFFFFFFFFFFFFFFFFFFFFFFFFFFFFFF AND PUSH1 0x0 DUP1 SLOAD SWAP1 PUSH2 0x100 EXP SWAP1 DIV PUSH20 0xFFFFFFFFFFFFFFFFFFFFFFFFFFFFFFFFFFFFFFFF AND PUSH20 0xFFFFFFFFFFFFFFFFFFFFFFFFFFFFFFFFFFFFFFFF AND PUSH32 0x8BE0079C531659141344CD1FD0A4F28419497F9722A3DAAFE3B4186F6B6457E0 PUSH1 0x40 MLOAD PUSH1 0x40 MLOAD DUP1 SWAP2 SUB SWAP1 LOG3 DUP1 PUSH1 0x0 DUP1 PUSH2 0x100 EXP DUP2 SLOAD DUP2 PUSH20 0xFFFFFFFFFFFFFFFFFFFFFFFFFFFFFFFFFFFFFFFF MUL NOT AND SWAP1 DUP4 PUSH20 0xFFFFFFFFFFFFFFFFFFFFFFFFFFFFFFFFFFFFFFFF AND MUL OR SWAP1 SSTORE POP POP JUMP JUMPDEST PUSH1 0xB PUSH1 0x0 SWAP1 SLOAD SWAP1 PUSH2 0x100 EXP SWAP1 DIV PUSH1 0xFF AND DUP2 JUMP JUMPDEST PUSH1 0x0 DUP1 DUP4 SUB PUSH2 0x2B53 JUMPI PUSH1 0x0 SWAP1 POP PUSH2 0x2B7D JUMP JUMPDEST DUP2 DUP4 PUSH2 0x2B5F SWAP2 SWAP1 PUSH2 0x31B5 JUMP JUMPDEST SWAP1 POP DUP2 DUP4 DUP3 PUSH2 0x2B6E SWAP2 SWAP1 PUSH2 0x3226 JUMP JUMPDEST EQ PUSH2 0x2B7C JUMPI PUSH2 0x2B7B PUSH2 0x35B5 JUMP JUMPDEST JUMPDEST JUMPDEST SWAP3 SWAP2 POP POP JUMP JUMPDEST PUSH1 0x0 DUP2 DUP4 PUSH2 0x2B91 SWAP2 SWAP1 PUSH2 0x3226 JUMP JUMPDEST SWAP1 POP SWAP3 SWAP2 POP POP JUMP JUMPDEST PUSH1 0x0 DUP1 REVERT JUMPDEST PUSH1 0x0 DUP2 SWAP1 POP SWAP2 SWAP1 POP JUMP JUMPDEST PUSH2 0x2BB1 DUP2 PUSH2 0x2B9E JUMP JUMPDEST DUP2 EQ PUSH2 0x2BBC JUMPI PUSH1 0x0 DUP1 REVERT JUMPDEST POP JUMP JUMPDEST PUSH1 0x0 DUP2 CALLDATALOAD SWAP1 POP PUSH2 0x2BCE DUP2 PUSH2 0x2BA8 JUMP JUMPDEST SWAP3 SWAP2 POP POP JUMP JUMPDEST PUSH1 0x0 PUSH1 0x20 DUP3 DUP5 SUB SLT ISZERO PUSH2 0x2BEA JUMPI PUSH2 0x2BE9 PUSH2 0x2B99 JUMP JUMPDEST JUMPDEST PUSH1 0x0 PUSH2 0x2BF8 DUP5 DUP3 DUP6 ADD PUSH2 0x2BBF JUMP JUMPDEST SWAP2 POP POP SWAP3 SWAP2 POP POP JUMP JUMPDEST PUSH1 0x0 PUSH20 0xFFFFFFFFFFFFFFFFFFFFFFFFFFFFFFFFFFFFFFFF DUP3 AND SWAP1 POP SWAP2 SWAP1 POP JUMP JUMPDEST PUSH1 0x0 PUSH2 0x2C2C DUP3 PUSH2 0x2C01 JUMP JUMPDEST SWAP1 POP SWAP2 SWAP1 POP JUMP JUMPDEST PUSH2 0x2C3C DUP2 PUSH2 0x2C21 JUMP JUMPDEST DUP2 EQ PUSH2 0x2C47 JUMPI PUSH1 0x0 DUP1 REVERT JUMPDEST POP JUMP JUMPDEST PUSH1 0x0 DUP2 CALLDATALOAD SWAP1 POP PUSH2 0x2C59 DUP2 PUSH2 0x2C33 JUMP JUMPDEST SWAP3 SWAP2 POP POP JUMP JUMPDEST PUSH1 0x0 PUSH1 0x20 DUP3 DUP5 SUB SLT ISZERO PUSH2 0x2C75 JUMPI PUSH2 0x2C74 PUSH2 0x2B99 JUMP JUMPDEST JUMPDEST PUSH1 0x0 PUSH2 0x2C83 DUP5 DUP3 DUP6 ADD PUSH2 0x2C4A JUMP JUMPDEST SWAP2 POP POP SWAP3 SWAP2 POP POP JUMP JUMPDEST PUSH2 0x2C95 DUP2 PUSH2 0x2B9E JUMP JUMPDEST DUP3 MSTORE POP POP JUMP JUMPDEST PUSH1 0x0 PUSH1 0x20 DUP3 ADD SWAP1 POP PUSH2 0x2CB0 PUSH1 0x0 DUP4 ADD DUP5 PUSH2 0x2C8C JUMP JUMPDEST SWAP3 SWAP2 POP POP JUMP JUMPDEST PUSH1 0x0 DUP2 ISZERO ISZERO SWAP1 POP SWAP2 SWAP1 POP JUMP JUMPDEST PUSH2 0x2CCB DUP2 PUSH2 0x2CB6 JUMP JUMPDEST DUP3 MSTORE POP POP JUMP JUMPDEST PUSH1 0x0 PUSH1 0x20 DUP3 ADD SWAP1 POP PUSH2 0x2CE6 PUSH1 0x0 DUP4 ADD DUP5 PUSH2 0x2CC2 JUMP JUMPDEST SWAP3 SWAP2 POP POP JUMP JUMPDEST PUSH2 0x2CF5 DUP2 PUSH2 0x2C21 JUMP JUMPDEST DUP3 MSTORE POP POP JUMP JUMPDEST PUSH1 0x0 PUSH1 0x20 DUP3 ADD SWAP1 POP PUSH2 0x2D10 PUSH1 0x0 DUP4 ADD DUP5 PUSH2 0x2CEC JUMP JUMPDEST SWAP3 SWAP2 POP POP JUMP JUMPDEST PUSH1 0x0 DUP1 PUSH1 0x0 PUSH1 0x60 DUP5 DUP7 SUB SLT ISZERO PUSH2 0x2D2F JUMPI PUSH2 0x2D2E PUSH2 0x2B99 JUMP JUMPDEST JUMPDEST PUSH1 0x0 PUSH2 0x2D3D DUP7 DUP3 DUP8 ADD PUSH2 0x2BBF JUMP JUMPDEST SWAP4 POP POP PUSH1 0x20 PUSH2 0x2D4E DUP7 DUP3 DUP8 ADD PUSH2 0x2C4A JUMP JUMPDEST SWAP3 POP POP PUSH1 0x40 PUSH2 0x2D5F DUP7 DUP3 DUP8 ADD PUSH2 0x2BBF JUMP JUMPDEST SWAP2 POP POP SWAP3 POP SWAP3 POP SWAP3 JUMP JUMPDEST PUSH2 0x2D72 DUP2 PUSH2 0x2CB6 JUMP JUMPDEST DUP2 EQ PUSH2 0x2D7D JUMPI PUSH1 0x0 DUP1 REVERT JUMPDEST POP JUMP JUMPDEST PUSH1 0x0 DUP2 CALLDATALOAD SWAP1 POP PUSH2 0x2D8F DUP2 PUSH2 0x2D69 JUMP JUMPDEST SWAP3 SWAP2 POP POP JUMP JUMPDEST PUSH1 0x0 DUP1 PUSH1 0x40 DUP4 DUP6 SUB SLT ISZERO PUSH2 0x2DAC JUMPI PUSH2 0x2DAB PUSH2 0x2B99 JUMP JUMPDEST JUMPDEST PUSH1 0x0 PUSH2 0x2DBA DUP6 DUP3 DUP7 ADD PUSH2 0x2D80 JUMP JUMPDEST SWAP3 POP POP PUSH1 0x20 PUSH2 0x2DCB DUP6 DUP3 DUP7 ADD PUSH2 0x2D80 JUMP JUMPDEST SWAP2 POP POP SWAP3 POP SWAP3 SWAP1 POP JUMP JUMPDEST PUSH1 0x0 DUP1 PUSH1 0x0 DUP1 PUSH1 0x0 DUP1 PUSH1 0x0 PUSH1 0xE0 DUP9 DUP11 SUB SLT ISZERO PUSH2 0x2DF4 JUMPI PUSH2 0x2DF3 PUSH2 0x2B99 JUMP JUMPDEST JUMPDEST PUSH1 0x0 PUSH2 0x2E02 DUP11 DUP3 DUP12 ADD PUSH2 0x2C4A JUMP JUMPDEST SWAP8 POP POP PUSH1 0x20 PUSH2 0x2E13 DUP11 DUP3 DUP12 ADD PUSH2 0x2BBF JUMP JUMPDEST SWAP7 POP POP PUSH1 0x40 PUSH2 0x2E24 DUP11 DUP3 DUP12 ADD PUSH2 0x2BBF JUMP JUMPDEST SWAP6 POP POP PUSH1 0x60 PUSH2 0x2E35 DUP11 DUP3 DUP12 ADD PUSH2 0x2BBF JUMP JUMPDEST SWAP5 POP POP PUSH1 0x80 PUSH2 0x2E46 DUP11 DUP3 DUP12 ADD PUSH2 0x2BBF JUMP JUMPDEST SWAP4 POP POP PUSH1 0xA0 PUSH2 0x2E57 DUP11 DUP3 DUP12 ADD PUSH2 0x2BBF JUMP JUMPDEST SWAP3 POP POP PUSH1 0xC0 PUSH2 0x2E68 DUP11 DUP3 DUP12 ADD PUSH2 0x2BBF JUMP JUMPDEST SWAP2 POP POP SWAP3 SWAP6 SWAP9 SWAP2 SWAP5 SWAP8 POP SWAP3 SWAP6 POP JUMP JUMPDEST PUSH1 0x0 DUP3 DUP3 MSTORE PUSH1 0x20 DUP3 ADD SWAP1 POP SWAP3 SWAP2 POP POP JUMP JUMPDEST PUSH32 0x216F776E65720000000000000000000000000000000000000000000000000000 PUSH1 0x0 DUP3 ADD MSTORE POP JUMP JUMPDEST PUSH1 0x0 PUSH2 0x2EBE PUSH1 0x6 DUP4 PUSH2 0x2E77 JUMP JUMPDEST SWAP2 POP PUSH2 0x2EC9 DUP3 PUSH2 0x2E88 JUMP JUMPDEST PUSH1 0x20 DUP3 ADD SWAP1 POP SWAP2 SWAP1 POP JUMP JUMPDEST PUSH1 0x0 PUSH1 0x20 DUP3 ADD SWAP1 POP DUP2 DUP2 SUB PUSH1 0x0 DUP4 ADD MSTORE PUSH2 0x2EED DUP2 PUSH2 0x2EB1 JUMP JUMPDEST SWAP1 POP SWAP2 SWAP1 POP JUMP JUMPDEST PUSH1 0x0 DUP2 MLOAD SWAP1 POP PUSH2 0x2F03 DUP2 PUSH2 0x2BA8 JUMP JUMPDEST SWAP3 SWAP2 POP POP JUMP JUMPDEST PUSH1 0x0 PUSH1 0x20 DUP3 DUP5 SUB SLT ISZERO PUSH2 0x2F1F JUMPI PUSH2 0x2F1E PUSH2 0x2B99 JUMP JUMPDEST JUMPDEST PUSH1 0x0 PUSH2 0x2F2D DUP5 DUP3 DUP6 ADD PUSH2 0x2EF4 JUMP JUMPDEST SWAP2 POP POP SWAP3 SWAP2 POP POP JUMP JUMPDEST PUSH32 0x4E487B7100000000000000000000000000000000000000000000000000000000 PUSH1 0x0 MSTORE PUSH1 0x11 PUSH1 0x4 MSTORE PUSH1 0x24 PUSH1 0x0 REVERT JUMPDEST PUSH1 0x0 PUSH2 0x2F70 DUP3 PUSH2 0x2B9E JUMP JUMPDEST SWAP2 POP PUSH2 0x2F7B DUP4 PUSH2 0x2B9E JUMP JUMPDEST SWAP3 POP DUP3 DUP3 SUB SWAP1 POP DUP2 DUP2 GT ISZERO PUSH2 0x2F93 JUMPI PUSH2 0x2F92 PUSH2 0x2F36 JUMP JUMPDEST JUMPDEST SWAP3 SWAP2 POP POP JUMP JUMPDEST PUSH32 0x6E6F742073746172740000000000000000000000000000000000000000000000 PUSH1 0x0 DUP3 ADD MSTORE POP JUMP JUMPDEST PUSH1 0x0 PUSH2 0x2FCF PUSH1 0x9 DUP4 PUSH2 0x2E77 JUMP JUMPDEST SWAP2 POP PUSH2 0x2FDA DUP3 PUSH2 0x2F99 JUMP JUMPDEST PUSH1 0x20 DUP3 ADD SWAP1 POP SWAP2 SWAP1 POP JUMP JUMPDEST PUSH1 0x0 PUSH1 0x20 DUP3 ADD SWAP1 POP DUP2 DUP2 SUB PUSH1 0x0 DUP4 ADD MSTORE PUSH2 0x2FFE DUP2 PUSH2 0x2FC2 JUMP JUMPDEST SWAP1 POP SWAP2 SWAP1 POP JUMP JUMPDEST PUSH32 0x696E76697465722063616E742062792073656C66000000000000000000000000 PUSH1 0x0 DUP3 ADD MSTORE POP JUMP JUMPDEST PUSH1 0x0 PUSH2 0x303B PUSH1 0x14 DUP4 PUSH2 0x2E77 JUMP JUMPDEST SWAP2 POP PUSH2 0x3046 DUP3 PUSH2 0x3005 JUMP JUMPDEST PUSH1 0x20 DUP3 ADD SWAP1 POP SWAP2 SWAP1 POP JUMP JUMPDEST PUSH1 0x0 PUSH1 0x20 DUP3 ADD SWAP1 POP DUP2 DUP2 SUB PUSH1 0x0 DUP4 ADD MSTORE PUSH2 0x306A DUP2 PUSH2 0x302E JUMP JUMPDEST SWAP1 POP SWAP2 SWAP1 POP JUMP JUMPDEST PUSH32 0x616C7265616479207374616B6500000000000000000000000000000000000000 PUSH1 0x0 DUP3 ADD MSTORE POP JUMP JUMPDEST PUSH1 0x0 PUSH2 0x30A7 PUSH1 0xD DUP4 PUSH2 0x2E77 JUMP JUMPDEST SWAP2 POP PUSH2 0x30B2 DUP3 PUSH2 0x3071 JUMP JUMPDEST PUSH1 0x20 DUP3 ADD SWAP1 POP SWAP2 SWAP1 POP JUMP JUMPDEST PUSH1 0x0 PUSH1 0x20 DUP3 ADD SWAP1 POP DUP2 DUP2 SUB PUSH1 0x0 DUP4 ADD MSTORE PUSH2 0x30D6 DUP2 PUSH2 0x309A JUMP JUMPDEST SWAP1 POP SWAP2 SWAP1 POP JUMP JUMPDEST PUSH32 0x7A65726F207374616B6500000000000000000000000000000000000000000000 PUSH1 0x0 DUP3 ADD MSTORE POP JUMP JUMPDEST PUSH1 0x0 PUSH2 0x3113 PUSH1 0xA DUP4 PUSH2 0x2E77 JUMP JUMPDEST SWAP2 POP PUSH2 0x311E DUP3 PUSH2 0x30DD JUMP JUMPDEST PUSH1 0x20 DUP3 ADD SWAP1 POP SWAP2 SWAP1 POP JUMP JUMPDEST PUSH1 0x0 PUSH1 0x20 DUP3 ADD SWAP1 POP DUP2 DUP2 SUB PUSH1 0x0 DUP4 ADD MSTORE PUSH2 0x3142 DUP2 PUSH2 0x3106 JUMP JUMPDEST SWAP1 POP SWAP2 SWAP1 POP JUMP JUMPDEST PUSH32 0x6E6F742072696768742074696D65000000000000000000000000000000000000 PUSH1 0x0 DUP3 ADD MSTORE POP JUMP JUMPDEST PUSH1 0x0 PUSH2 0x317F PUSH1 0xE DUP4 PUSH2 0x2E77 JUMP JUMPDEST SWAP2 POP PUSH2 0x318A DUP3 PUSH2 0x3149 JUMP JUMPDEST PUSH1 0x20 DUP3 ADD SWAP1 POP SWAP2 SWAP1 POP JUMP JUMPDEST PUSH1 0x0 PUSH1 0x20 DUP3 ADD SWAP1 POP DUP2 DUP2 SUB PUSH1 0x0 DUP4 ADD MSTORE PUSH2 0x31AE DUP2 PUSH2 0x3172 JUMP JUMPDEST SWAP1 POP SWAP2 SWAP1 POP JUMP JUMPDEST PUSH1 0x0 PUSH2 0x31C0 DUP3 PUSH2 0x2B9E JUMP JUMPDEST SWAP2 POP PUSH2 0x31CB DUP4 PUSH2 0x2B9E JUMP JUMPDEST SWAP3 POP DUP3 DUP3 MUL PUSH2 0x31D9 DUP2 PUSH2 0x2B9E JUMP JUMPDEST SWAP2 POP DUP3 DUP3 DIV DUP5 EQ DUP4 ISZERO OR PUSH2 0x31F0 JUMPI PUSH2 0x31EF PUSH2 0x2F36 JUMP JUMPDEST JUMPDEST POP SWAP3 SWAP2 POP POP JUMP JUMPDEST PUSH32 0x4E487B7100000000000000000000000000000000000000000000000000000000 PUSH1 0x0 MSTORE PUSH1 0x12 PUSH1 0x4 MSTORE PUSH1 0x24 PUSH1 0x0 REVERT JUMPDEST PUSH1 0x0 PUSH2 0x3231 DUP3 PUSH2 0x2B9E JUMP JUMPDEST SWAP2 POP PUSH2 0x323C DUP4 PUSH2 0x2B9E JUMP JUMPDEST SWAP3 POP DUP3 PUSH2 0x324C JUMPI PUSH2 0x324B PUSH2 0x31F7 JUMP JUMPDEST JUMPDEST DUP3 DUP3 DIV SWAP1 POP SWAP3 SWAP2 POP POP JUMP JUMPDEST PUSH1 0x0 PUSH2 0x3262 DUP3 PUSH2 0x2B9E JUMP JUMPDEST SWAP2 POP PUSH2 0x326D DUP4 PUSH2 0x2B9E JUMP JUMPDEST SWAP3 POP DUP3 DUP3 ADD SWAP1 POP DUP1 DUP3 GT ISZERO PUSH2 0x3285 JUMPI PUSH2 0x3284 PUSH2 0x2F36 JUMP JUMPDEST JUMPDEST SWAP3 SWAP2 POP POP JUMP JUMPDEST PUSH1 0x0 PUSH1 0x60 DUP3 ADD SWAP1 POP PUSH2 0x32A0 PUSH1 0x0 DUP4 ADD DUP7 PUSH2 0x2CEC JUMP JUMPDEST PUSH2 0x32AD PUSH1 0x20 DUP4 ADD DUP6 PUSH2 0x2CEC JUMP JUMPDEST PUSH2 0x32BA PUSH1 0x40 DUP4 ADD DUP5 PUSH2 0x2C8C JUMP JUMPDEST SWAP5 SWAP4 POP POP POP POP JUMP JUMPDEST PUSH1 0x0 DUP2 MLOAD SWAP1 POP PUSH2 0x32D1 DUP2 PUSH2 0x2D69 JUMP JUMPDEST SWAP3 SWAP2 POP POP JUMP JUMPDEST PUSH1 0x0 PUSH1 0x20 DUP3 DUP5 SUB SLT ISZERO PUSH2 0x32ED JUMPI PUSH2 0x32EC PUSH2 0x2B99 JUMP JUMPDEST JUMPDEST PUSH1 0x0 PUSH2 0x32FB DUP5 DUP3 DUP6 ADD PUSH2 0x32C2 JUMP JUMPDEST SWAP2 POP POP SWAP3 SWAP2 POP POP JUMP JUMPDEST PUSH32 0x6E6F74207374616B650000000000000000000000000000000000000000000000 PUSH1 0x0 DUP3 ADD MSTORE POP JUMP JUMPDEST PUSH1 0x0 PUSH2 0x333A PUSH1 0x9 DUP4 PUSH2 0x2E77 JUMP JUMPDEST SWAP2 POP PUSH2 0x3345 DUP3 PUSH2 0x3304 JUMP JUMPDEST PUSH1 0x20 DUP3 ADD SWAP1 POP SWAP2 SWAP1 POP JUMP JUMPDEST PUSH1 0x0 PUSH1 0x20 DUP3 ADD SWAP1 POP DUP2 DUP2 SUB PUSH1 0x0 DUP4 ADD MSTORE PUSH2 0x3369 DUP2 PUSH2 0x332D JUMP JUMPDEST SWAP1 POP SWAP2 SWAP1 POP JUMP JUMPDEST PUSH1 0x0 PUSH1 0x40 DUP3 ADD SWAP1 POP PUSH2 0x3385 PUSH1 0x0 DUP4 ADD DUP6 PUSH2 0x2CEC JUMP JUMPDEST PUSH2 0x3392 PUSH1 0x20 DUP4 ADD DUP5 PUSH2 0x2C8C JUMP JUMPDEST SWAP4 SWAP3 POP POP POP JUMP JUMPDEST PUSH32 0x7573657220697320696E20626C61636B6C697374000000000000000000000000 PUSH1 0x0 DUP3 ADD MSTORE POP JUMP JUMPDEST PUSH1 0x0 PUSH2 0x33CF PUSH1 0x14 DUP4 PUSH2 0x2E77 JUMP JUMPDEST SWAP2 POP PUSH2 0x33DA DUP3 PUSH2 0x3399 JUMP JUMPDEST PUSH1 0x20 DUP3 ADD SWAP1 POP SWAP2 SWAP1 POP JUMP JUMPDEST PUSH1 0x0 PUSH1 0x20 DUP3 ADD SWAP1 POP DUP2 DUP2 SUB PUSH1 0x0 DUP4 ADD MSTORE PUSH2 0x33FE DUP2 PUSH2 0x33C2 JUMP JUMPDEST SWAP1 POP SWAP2 SWAP1 POP JUMP JUMPDEST PUSH32 0x616C726561647920636C61696D65640000000000000000000000000000000000 PUSH1 0x0 DUP3 ADD MSTORE POP JUMP JUMPDEST PUSH1 0x0 PUSH2 0x343B PUSH1 0xF DUP4 PUSH2 0x2E77 JUMP JUMPDEST SWAP2 POP PUSH2 0x3446 DUP3 PUSH2 0x3405 JUMP JUMPDEST PUSH1 0x20 DUP3 ADD SWAP1 POP SWAP2 SWAP1 POP JUMP JUMPDEST PUSH1 0x0 PUSH1 0x20 DUP3 ADD SWAP1 POP DUP2 DUP2 SUB PUSH1 0x0 DUP4 ADD MSTORE PUSH2 0x346A DUP2 PUSH2 0x342E JUMP JUMPDEST SWAP1 POP SWAP2 SWAP1 POP JUMP JUMPDEST PUSH32 0x6E6F207265776172640000000000000000000000000000000000000000000000 PUSH1 0x0 DUP3 ADD MSTORE POP JUMP JUMPDEST PUSH1 0x0 PUSH2 0x34A7 PUSH1 0x9 DUP4 PUSH2 0x2E77 JUMP JUMPDEST SWAP2 POP PUSH2 0x34B2 DUP3 PUSH2 0x3471 JUMP JUMPDEST PUSH1 0x20 DUP3 ADD SWAP1 POP SWAP2 SWAP1 POP JUMP JUMPDEST PUSH1 0x0 PUSH1 0x20 DUP3 ADD SWAP1 POP DUP2 DUP2 SUB PUSH1 0x0 DUP4 ADD MSTORE PUSH2 0x34D6 DUP2 PUSH2 0x349A JUMP JUMPDEST SWAP1 POP SWAP2 SWAP1 POP JUMP JUMPDEST PUSH32 0x6E6F742074696D65000000000000000000000000000000000000000000000000 PUSH1 0x0 DUP3 ADD MSTORE POP JUMP JUMPDEST PUSH1 0x0 PUSH2 0x3513 PUSH1 0x8 DUP4 PUSH2 0x2E77 JUMP JUMPDEST SWAP2 POP PUSH2 0x351E DUP3 PUSH2 0x34DD JUMP JUMPDEST PUSH1 0x20 DUP3 ADD SWAP1 POP SWAP2 SWAP1 POP JUMP JUMPDEST PUSH1 0x0 PUSH1 0x20 DUP3 ADD SWAP1 POP DUP2 DUP2 SUB PUSH1 0x0 DUP4 ADD MSTORE PUSH2 0x3542 DUP2 PUSH2 0x3506 JUMP JUMPDEST SWAP1 POP SWAP2 SWAP1 POP JUMP JUMPDEST PUSH32 0x6E65772069732030000000000000000000000000000000000000000000000000 PUSH1 0x0 DUP3 ADD MSTORE POP JUMP JUMPDEST PUSH1 0x0 PUSH2 0x357F PUSH1 0x8 DUP4 PUSH2 0x2E77 JUMP JUMPDEST SWAP2 POP PUSH2 0x358A DUP3 PUSH2 0x3549 JUMP JUMPDEST PUSH1 0x20 DUP3 ADD SWAP1 POP SWAP2 SWAP1 POP JUMP JUMPDEST PUSH1 0x0 PUSH1 0x20 DUP3 ADD SWAP1 POP DUP2 DUP2 SUB PUSH1 0x0 DUP4 ADD MSTORE PUSH2 0x35AE DUP2 PUSH2 0x3572 JUMP JUMPDEST SWAP1 POP SWAP2 SWAP1 POP JUMP JUMPDEST PUSH32 0x4E487B7100000000000000000000000000000000000000000000000000000000 PUSH1 0x0 MSTORE PUSH1 0x1 PUSH1 0x4 MSTORE PUSH1 0x24 PUSH1 0x0 REVERT INVALID LOG2 PUSH5 0x6970667358 0x22 SLT KECCAK256 0x4A SGT 0xD5 0xBE AND 0x1F 0xA7 0xB9 SWAP7 SWAP4 0xC0 PUSH9 0xEF9FADBA1AF485A74B 0x5F PUSH8 0x98A1BD37F4BC1436 PUSH7 0x64736F6C634300 ADDMOD SLT STOP CALLER "
				},
				"gasEstimates": {
					"creation": {
						"codeDepositCost": "2770000",
						"executionCost": "238648",
						"totalCost": "3008648"
					},
					"external": {
						"_inviteNum(address)": "2926",
						"_inviterMap(address)": "infinite",
						"_inviterReward(address)": "2925",
						"_lpPriceToken()": "2558",
						"_proportion()": "2519",
						"_rewardToken()": "2647",
						"_stake1()": "2518",
						"_stake3()": "2475",
						"_stake5()": "2519",
						"_stakeToken()": "2603",
						"_userBlacklist(address)": "2891",
						"_userEndClaimTime(address)": "2883",
						"_userLastClaimTime(address)": "2925",
						"_userPower(address)": "2881",
						"_userStake(address)": "2926",
						"_userStakeStartTime(address)": "2882",
						"_userStakeTime(address)": "2881",
						"cancalStack()": "infinite",
						"cancalStackOver(uint256)": "infinite",
						"claimReward()": "infinite",
						"claimStakeReward()": "infinite",
						"isClaimStart()": "2609",
						"isStakeStart()": "2603",
						"lpPrice()": "infinite",
						"owner()": "2590",
						"ownerSetUser(address,uint256,uint256,uint256,uint256,uint256,uint256)": "infinite",
						"pureAmount(address)": "infinite",
						"setProportion(uint256)": "26906",
						"setStakeToken(address)": "29152",
						"setStatus(bool,bool)": "infinite",
						"setUserBlacklist(address)": "31513",
						"setlpPriceToken(address)": "29106",
						"stake(uint256,address,uint256)": "infinite",
						"transferOwnership(address)": "32884",
						"withdraw()": "infinite"
					}
				},
				"methodIdentifiers": {
					"_inviteNum(address)": "1896b2c4",
					"_inviterMap(address)": "264edc1d",
					"_inviterReward(address)": "dd8158e0",
					"_lpPriceToken()": "e53595ed",
					"_proportion()": "2eae667d",
					"_rewardToken()": "b59c6e0e",
					"_stake1()": "a6b14d5a",
					"_stake3()": "853e03e5",
					"_stake5()": "18883877",
					"_stakeToken()": "71ddda57",
					"_userBlacklist(address)": "115a972e",
					"_userEndClaimTime(address)": "0356c98f",
					"_userLastClaimTime(address)": "7929e29f",
					"_userPower(address)": "bef4533c",
					"_userStake(address)": "9805fa74",
					"_userStakeStartTime(address)": "16c259e1",
					"_userStakeTime(address)": "a041e172",
					"cancalStack()": "d02da761",
					"cancalStackOver(uint256)": "91f6963c",
					"claimReward()": "b88a802f",
					"claimStakeReward()": "9fd3af8b",
					"isClaimStart()": "e650d293",
					"isStakeStart()": "f3ef99bc",
					"lpPrice()": "0c280444",
					"owner()": "8da5cb5b",
					"ownerSetUser(address,uint256,uint256,uint256,uint256,uint256,uint256)": "e61ee218",
					"pureAmount(address)": "29dc425f",
					"setProportion(uint256)": "006cd200",
					"setStakeToken(address)": "0397d458",
					"setStatus(bool,bool)": "b3c2eac1",
					"setUserBlacklist(address)": "7d4cbd57",
					"setlpPriceToken(address)": "6d37b382",
					"stake(uint256,address,uint256)": "6e9c931c",
					"transferOwnership(address)": "f2fde38b",
					"withdraw()": "3ccfd60b"
				}
			},
			"storageLayout": {
				"storage": [
					{
						"astId": 91,
						"contract": "contracts/ymii/stake2.sol:Stake",
						"label": "_owner",
						"offset": 0,
						"slot": "0",
						"type": "t_address"
					},
					{
						"astId": 526,
						"contract": "contracts/ymii/stake2.sol:Stake",
						"label": "_rewardToken",
						"offset": 0,
						"slot": "1",
						"type": "t_address"
					},
					{
						"astId": 529,
						"contract": "contracts/ymii/stake2.sol:Stake",
						"label": "_stakeToken",
						"offset": 0,
						"slot": "2",
						"type": "t_address"
					},
					{
						"astId": 532,
						"contract": "contracts/ymii/stake2.sol:Stake",
						"label": "_lpPriceToken",
						"offset": 0,
						"slot": "3",
						"type": "t_address"
					},
					{
						"astId": 539,
						"contract": "contracts/ymii/stake2.sol:Stake",
						"label": "_stake1",
						"offset": 0,
						"slot": "4",
						"type": "t_uint256"
					},
					{
						"astId": 546,
						"contract": "contracts/ymii/stake2.sol:Stake",
						"label": "_stake3",
						"offset": 0,
						"slot": "5",
						"type": "t_uint256"
					},
					{
						"astId": 553,
						"contract": "contracts/ymii/stake2.sol:Stake",
						"label": "_stake5",
						"offset": 0,
						"slot": "6",
						"type": "t_uint256"
					},
					{
						"astId": 556,
						"contract": "contracts/ymii/stake2.sol:Stake",
						"label": "_proportion",
						"offset": 0,
						"slot": "7",
						"type": "t_uint256"
					},
					{
						"astId": 560,
						"contract": "contracts/ymii/stake2.sol:Stake",
						"label": "_inviterMap",
						"offset": 0,
						"slot": "8",
						"type": "t_mapping(t_address,t_address)"
					},
					{
						"astId": 564,
						"contract": "contracts/ymii/stake2.sol:Stake",
						"label": "_inviterReward",
						"offset": 0,
						"slot": "9",
						"type": "t_mapping(t_address,t_uint256)"
					},
					{
						"astId": 568,
						"contract": "contracts/ymii/stake2.sol:Stake",
						"label": "_inviteNum",
						"offset": 0,
						"slot": "10",
						"type": "t_mapping(t_address,t_uint256)"
					},
					{
						"astId": 571,
						"contract": "contracts/ymii/stake2.sol:Stake",
						"label": "isStakeStart",
						"offset": 0,
						"slot": "11",
						"type": "t_bool"
					},
					{
						"astId": 574,
						"contract": "contracts/ymii/stake2.sol:Stake",
						"label": "isClaimStart",
						"offset": 1,
						"slot": "11",
						"type": "t_bool"
					},
					{
						"astId": 578,
						"contract": "contracts/ymii/stake2.sol:Stake",
						"label": "_userStake",
						"offset": 0,
						"slot": "12",
						"type": "t_mapping(t_address,t_uint256)"
					},
					{
						"astId": 582,
						"contract": "contracts/ymii/stake2.sol:Stake",
						"label": "_userStakeTime",
						"offset": 0,
						"slot": "13",
						"type": "t_mapping(t_address,t_uint256)"
					},
					{
						"astId": 586,
						"contract": "contracts/ymii/stake2.sol:Stake",
						"label": "_userStakeStartTime",
						"offset": 0,
						"slot": "14",
						"type": "t_mapping(t_address,t_uint256)"
					},
					{
						"astId": 590,
						"contract": "contracts/ymii/stake2.sol:Stake",
						"label": "_userLastClaimTime",
						"offset": 0,
						"slot": "15",
						"type": "t_mapping(t_address,t_uint256)"
					},
					{
						"astId": 594,
						"contract": "contracts/ymii/stake2.sol:Stake",
						"label": "_userEndClaimTime",
						"offset": 0,
						"slot": "16",
						"type": "t_mapping(t_address,t_uint256)"
					},
					{
						"astId": 598,
						"contract": "contracts/ymii/stake2.sol:Stake",
						"label": "_userPower",
						"offset": 0,
						"slot": "17",
						"type": "t_mapping(t_address,t_uint256)"
					},
					{
						"astId": 602,
						"contract": "contracts/ymii/stake2.sol:Stake",
						"label": "_userBlacklist",
						"offset": 0,
						"slot": "18",
						"type": "t_mapping(t_address,t_bool)"
					}
				],
				"types": {
					"t_address": {
						"encoding": "inplace",
						"label": "address",
						"numberOfBytes": "20"
					},
					"t_bool": {
						"encoding": "inplace",
						"label": "bool",
						"numberOfBytes": "1"
					},
					"t_mapping(t_address,t_address)": {
						"encoding": "mapping",
						"key": "t_address",
						"label": "mapping(address => address)",
						"numberOfBytes": "32",
						"value": "t_address"
					},
					"t_mapping(t_address,t_bool)": {
						"encoding": "mapping",
						"key": "t_address",
						"label": "mapping(address => bool)",
						"numberOfBytes": "32",
						"value": "t_bool"
					},
					"t_mapping(t_address,t_uint256)": {
						"encoding": "mapping",
						"key": "t_address",
						"label": "mapping(address => uint256)",
						"numberOfBytes": "32",
						"value": "t_uint256"
					},
					"t_uint256": {
						"encoding": "inplace",
						"label": "uint256",
						"numberOfBytes": "32"
					}
				}
			},
			"userdoc": {
				"kind": "user",
				"methods": {},
				"version": 1
			}
		}
	}
}