{
	"contracts/ymii/stake1.sol": {
		"Stake": {
			"abi": [
				{
					"anonymous": false,
					"inputs": [
						{
							"indexed": true,
							"internalType": "address",
							"name": "previousOwner",
							"type": "address"
						},
						{
							"indexed": true,
							"internalType": "address",
							"name": "newOwner",
							"type": "address"
						}
					],
					"name": "OwnershipTransferred",
					"type": "event"
				},
				{
					"inputs": [
						{
							"internalType": "address",
							"name": "",
							"type": "address"
						}
					],
					"name": "_inviteNum",
					"outputs": [
						{
							"internalType": "uint256",
							"name": "",
							"type": "uint256"
						}
					],
					"stateMutability": "view",
					"type": "function"
				},
				{
					"inputs": [
						{
							"internalType": "address",
							"name": "",
							"type": "address"
						}
					],
					"name": "_inviterMap",
					"outputs": [
						{
							"internalType": "address",
							"name": "",
							"type": "address"
						}
					],
					"stateMutability": "view",
					"type": "function"
				},
				{
					"inputs": [
						{
							"internalType": "address",
							"name": "",
							"type": "address"
						}
					],
					"name": "_inviterReward",
					"outputs": [
						{
							"internalType": "uint256",
							"name": "",
							"type": "uint256"
						}
					],
					"stateMutability": "view",
					"type": "function"
				},
				{
					"inputs": [],
					"name": "_proportion",
					"outputs": [
						{
							"internalType": "uint256",
							"name": "",
							"type": "uint256"
						}
					],
					"stateMutability": "view",
					"type": "function"
				},
				{
					"inputs": [],
					"name": "_rewardToken",
					"outputs": [
						{
							"internalType": "address",
							"name": "",
							"type": "address"
						}
					],
					"stateMutability": "view",
					"type": "function"
				},
				{
					"inputs": [],
					"name": "_stake1",
					"outputs": [
						{
							"internalType": "uint256",
							"name": "",
							"type": "uint256"
						}
					],
					"stateMutability": "view",
					"type": "function"
				},
				{
					"inputs": [],
					"name": "_stake3",
					"outputs": [
						{
							"internalType": "uint256",
							"name": "",
							"type": "uint256"
						}
					],
					"stateMutability": "view",
					"type": "function"
				},
				{
					"inputs": [],
					"name": "_stake5",
					"outputs": [
						{
							"internalType": "uint256",
							"name": "",
							"type": "uint256"
						}
					],
					"stateMutability": "view",
					"type": "function"
				},
				{
					"inputs": [],
					"name": "_stakeToken",
					"outputs": [
						{
							"internalType": "address",
							"name": "",
							"type": "address"
						}
					],
					"stateMutability": "view",
					"type": "function"
				},
				{
					"inputs": [],
					"name": "_stakedk",
					"outputs": [
						{
							"internalType": "uint256",
							"name": "",
							"type": "uint256"
						}
					],
					"stateMutability": "view",
					"type": "function"
				},
				{
					"inputs": [
						{
							"internalType": "address",
							"name": "",
							"type": "address"
						}
					],
					"name": "_userBlacklist",
					"outputs": [
						{
							"internalType": "bool",
							"name": "",
							"type": "bool"
						}
					],
					"stateMutability": "view",
					"type": "function"
				},
				{
					"inputs": [
						{
							"internalType": "address",
							"name": "",
							"type": "address"
						}
					],
					"name": "_userEndClaimTime",
					"outputs": [
						{
							"internalType": "uint256",
							"name": "",
							"type": "uint256"
						}
					],
					"stateMutability": "view",
					"type": "function"
				},
				{
					"inputs": [
						{
							"internalType": "address",
							"name": "",
							"type": "address"
						}
					],
					"name": "_userLastClaimTime",
					"outputs": [
						{
							"internalType": "uint256",
							"name": "",
							"type": "uint256"
						}
					],
					"stateMutability": "view",
					"type": "function"
				},
				{
					"inputs": [
						{
							"internalType": "address",
							"name": "",
							"type": "address"
						}
					],
					"name": "_userPower",
					"outputs": [
						{
							"internalType": "uint256",
							"name": "",
							"type": "uint256"
						}
					],
					"stateMutability": "view",
					"type": "function"
				},
				{
					"inputs": [
						{
							"internalType": "address",
							"name": "",
							"type": "address"
						}
					],
					"name": "_userStake",
					"outputs": [
						{
							"internalType": "uint256",
							"name": "",
							"type": "uint256"
						}
					],
					"stateMutability": "view",
					"type": "function"
				},
				{
					"inputs": [
						{
							"internalType": "address",
							"name": "",
							"type": "address"
						}
					],
					"name": "_userStakeStartTime",
					"outputs": [
						{
							"internalType": "uint256",
							"name": "",
							"type": "uint256"
						}
					],
					"stateMutability": "view",
					"type": "function"
				},
				{
					"inputs": [
						{
							"internalType": "address",
							"name": "",
							"type": "address"
						}
					],
					"name": "_userStakeTime",
					"outputs": [
						{
							"internalType": "uint256",
							"name": "",
							"type": "uint256"
						}
					],
					"stateMutability": "view",
					"type": "function"
				},
				{
					"inputs": [],
					"name": "cancalStack",
					"outputs": [],
					"stateMutability": "nonpayable",
					"type": "function"
				},
				{
					"inputs": [],
					"name": "cancalStackOver",
					"outputs": [],
					"stateMutability": "nonpayable",
					"type": "function"
				},
				{
					"inputs": [],
					"name": "claimReward",
					"outputs": [],
					"stateMutability": "nonpayable",
					"type": "function"
				},
				{
					"inputs": [],
					"name": "claimStakeReward",
					"outputs": [],
					"stateMutability": "nonpayable",
					"type": "function"
				},
				{
					"inputs": [],
					"name": "isClaimStart",
					"outputs": [
						{
							"internalType": "bool",
							"name": "",
							"type": "bool"
						}
					],
					"stateMutability": "view",
					"type": "function"
				},
				{
					"inputs": [],
					"name": "isStakeStart",
					"outputs": [
						{
							"internalType": "bool",
							"name": "",
							"type": "bool"
						}
					],
					"stateMutability": "view",
					"type": "function"
				},
				{
					"inputs": [],
					"name": "owner",
					"outputs": [
						{
							"internalType": "address",
							"name": "",
							"type": "address"
						}
					],
					"stateMutability": "view",
					"type": "function"
				},
				{
					"inputs": [
						{
							"internalType": "address",
							"name": "user",
							"type": "address"
						}
					],
					"name": "pureAmount",
					"outputs": [
						{
							"internalType": "uint256",
							"name": "",
							"type": "uint256"
						}
					],
					"stateMutability": "view",
					"type": "function"
				},
				{
					"inputs": [
						{
							"internalType": "uint256",
							"name": "proportion_",
							"type": "uint256"
						}
					],
					"name": "setProportion",
					"outputs": [],
					"stateMutability": "nonpayable",
					"type": "function"
				},
				{
					"inputs": [
						{
							"internalType": "address",
							"name": "token",
							"type": "address"
						}
					],
					"name": "setRewardToken",
					"outputs": [],
					"stateMutability": "nonpayable",
					"type": "function"
				},
				{
					"inputs": [
						{
							"internalType": "address",
							"name": "token",
							"type": "address"
						}
					],
					"name": "setStakeToken",
					"outputs": [],
					"stateMutability": "nonpayable",
					"type": "function"
				},
				{
					"inputs": [
						{
							"internalType": "bool",
							"name": "stakeStart",
							"type": "bool"
						},
						{
							"internalType": "bool",
							"name": "claimStart",
							"type": "bool"
						}
					],
					"name": "setStatus",
					"outputs": [],
					"stateMutability": "nonpayable",
					"type": "function"
				},
				{
					"inputs": [
						{
							"internalType": "address",
							"name": "user",
							"type": "address"
						}
					],
					"name": "setUserBlacklist",
					"outputs": [],
					"stateMutability": "nonpayable",
					"type": "function"
				},
				{
					"inputs": [
						{
							"internalType": "address",
							"name": "paramOwner",
							"type": "address"
						}
					],
					"name": "setowner",
					"outputs": [],
					"stateMutability": "nonpayable",
					"type": "function"
				},
				{
					"inputs": [
						{
							"internalType": "uint256",
							"name": "amount",
							"type": "uint256"
						},
						{
							"internalType": "address",
							"name": "inviter",
							"type": "address"
						},
						{
							"internalType": "uint256",
							"name": "time",
							"type": "uint256"
						},
						{
							"internalType": "uint256",
							"name": "_lpPrice",
							"type": "uint256"
						}
					],
					"name": "stake",
					"outputs": [],
					"stateMutability": "nonpayable",
					"type": "function"
				},
				{
					"inputs": [
						{
							"internalType": "address",
							"name": "newOwner",
							"type": "address"
						}
					],
					"name": "transferOwnership",
					"outputs": [],
					"stateMutability": "nonpayable",
					"type": "function"
				},
				{
					"inputs": [],
					"name": "withdraw",
					"outputs": [],
					"stateMutability": "nonpayable",
					"type": "function"
				}
			],
			"devdoc": {
				"kind": "dev",
				"methods": {},
				"version": 1
			},
			"evm": {
				"assembly": "    /* \"contracts/ymii/stake1.sol\":8684:16536  contract Stake is Ownable {... */\n  mstore(0x40, 0x80)\n    /* \"contracts/ymii/stake1.sol\":8749:8791  0xf1f8e132f0a3F720b3b204D728A8ff316B182258 */\n  0xf1f8e132f0a3f720b3b204d728a8ff316b182258\n    /* \"contracts/ymii/stake1.sol\":8719:8791  address public _rewardToken = 0xf1f8e132f0a3F720b3b204D728A8ff316B182258 */\n  0x01\n  exp(0x0100, 0x00)\n  dup2\n  sload\n  dup2\n  0xffffffffffffffffffffffffffffffffffffffff\n  mul\n  not\n  and\n  swap1\n  dup4\n  0xffffffffffffffffffffffffffffffffffffffff\n  and\n  mul\n  or\n  swap1\n  sstore\n  pop\n    /* \"contracts/ymii/stake1.sol\":8842:8884  0x6b6b2D8166D13b58155b8d454F239AE3691257A6 */\n  0x6b6b2d8166d13b58155b8d454f239ae3691257a6\n    /* \"contracts/ymii/stake1.sol\":8813:8884  address public _stakeToken = 0x6b6b2D8166D13b58155b8d454F239AE3691257A6 */\n  0x02\n  exp(0x0100, 0x00)\n  dup2\n  sload\n  dup2\n  0xffffffffffffffffffffffffffffffffffffffff\n  mul\n  not\n  and\n  swap1\n  dup4\n  0xffffffffffffffffffffffffffffffffffffffff\n  and\n  mul\n  or\n  swap1\n  sstore\n  pop\n    /* \"contracts/ymii/stake1.sol\":9104:9106  18 */\n  0x12\n    /* \"contracts/ymii/stake1.sol\":9078:9106  uint256 public _stakedk = 18 */\n  0x03\n  sstore\n    /* \"contracts/ymii/stake1.sol\":9141:9158  24 hours * 30 * 1 */\n  0x278d00\n    /* \"contracts/ymii/stake1.sol\":9116:9158  uint256 public _stake1 = 24 hours * 30 * 1 */\n  0x04\n  sstore\n    /* \"contracts/ymii/stake1.sol\":9203:9220  24 hours * 30 * 3 */\n  0x76a700\n    /* \"contracts/ymii/stake1.sol\":9178:9220  uint256 public _stake3 = 24 hours * 30 * 3 */\n  0x05\n  sstore\n    /* \"contracts/ymii/stake1.sol\":9265:9282  24 hours * 30 * 5 */\n  0xc5c100\n    /* \"contracts/ymii/stake1.sol\":9240:9282  uint256 public _stake5 = 24 hours * 30 * 5 */\n  0x06\n  sstore\n    /* \"contracts/ymii/stake1.sol\":9333:9337  1000 */\n  0x03e8\n    /* \"contracts/ymii/stake1.sol\":9304:9337  uint256 public _proportion = 1000 */\n  0x07\n  sstore\n    /* \"contracts/ymii/stake1.sol\":9600:9604  true */\n  0x01\n    /* \"contracts/ymii/stake1.sol\":9573:9604  bool public isStakeStart = true */\n  0x0b\n  exp(0x0100, 0x00)\n  dup2\n  sload\n  dup2\n  0xff\n  mul\n  not\n  and\n  swap1\n  dup4\n  iszero\n  iszero\n  mul\n  or\n  swap1\n  sstore\n  pop\n    /* \"contracts/ymii/stake1.sol\":9659:9663  true */\n  0x01\n    /* \"contracts/ymii/stake1.sol\":9632:9663  bool public isClaimStart = true */\n  0x0b\n  exp(0x0100, 0x01)\n  dup2\n  sload\n  dup2\n  0xff\n  mul\n  not\n  and\n  swap1\n  dup4\n  iszero\n  iszero\n  mul\n  or\n  swap1\n  sstore\n  pop\n    /* \"contracts/ymii/stake1.sol\":8684:16536  contract Stake is Ownable {... */\n  callvalue\n  dup1\n  iszero\n  tag_1\n  jumpi\n  0x00\n  dup1\n  revert\ntag_1:\n  pop\n    /* \"contracts/ymii/stake1.sol\":1238:1255  address msgSender */\n  0x00\n    /* \"contracts/ymii/stake1.sol\":1258:1268  msg.sender */\n  caller\n    /* \"contracts/ymii/stake1.sol\":1238:1268  address msgSender = msg.sender */\n  swap1\n  pop\n    /* \"contracts/ymii/stake1.sol\":1288:1297  msgSender */\n  dup1\n    /* \"contracts/ymii/stake1.sol\":1279:1285  _owner */\n  0x00\n  dup1\n    /* \"contracts/ymii/stake1.sol\":1279:1297  _owner = msgSender */\n  0x0100\n  exp\n  dup2\n  sload\n  dup2\n  0xffffffffffffffffffffffffffffffffffffffff\n  mul\n  not\n  and\n  swap1\n  dup4\n  0xffffffffffffffffffffffffffffffffffffffff\n  and\n  mul\n  or\n  swap1\n  sstore\n  pop\n    /* \"contracts/ymii/stake1.sol\":1346:1355  msgSender */\n  dup1\n    /* \"contracts/ymii/stake1.sol\":1313:1356  OwnershipTransferred(address(0), msgSender) */\n  0xffffffffffffffffffffffffffffffffffffffff\n  and\n    /* \"contracts/ymii/stake1.sol\":1342:1343  0 */\n  0x00\n    /* \"contracts/ymii/stake1.sol\":1313:1356  OwnershipTransferred(address(0), msgSender) */\n  0xffffffffffffffffffffffffffffffffffffffff\n  and\n  0x8be0079c531659141344cd1fd0a4f28419497f9722a3daafe3b4186f6b6457e0\n  mload(0x40)\n  mload(0x40)\n  dup1\n  swap2\n  sub\n  swap1\n  log3\n    /* \"contracts/ymii/stake1.sol\":1227:1364  {... */\n  pop\n    /* \"contracts/ymii/stake1.sol\":8684:16536  contract Stake is Ownable {... */\n  dataSize(sub_0)\n  dup1\n  dataOffset(sub_0)\n  0x00\n  codecopy\n  0x00\n  return\nstop\n\nsub_0: assembly {\n        /* \"contracts/ymii/stake1.sol\":8684:16536  contract Stake is Ownable {... */\n      mstore(0x40, 0x80)\n      callvalue\n      dup1\n      iszero\n      tag_1\n      jumpi\n      0x00\n      dup1\n      revert\n    tag_1:\n      pop\n      jumpi(tag_2, lt(calldatasize, 0x04))\n      shr(0xe0, calldataload(0x00))\n      dup1\n      0x8da5cb5b\n      gt\n      tag_37\n      jumpi\n      dup1\n      0xb88a802f\n      gt\n      tag_38\n      jumpi\n      dup1\n      0xe650d293\n      gt\n      tag_39\n      jumpi\n      dup1\n      0xe650d293\n      eq\n      tag_32\n      jumpi\n      dup1\n      0xf2fde38b\n      eq\n      tag_33\n      jumpi\n      dup1\n      0xf3ef99bc\n      eq\n      tag_34\n      jumpi\n      dup1\n      0xf8fa72fd\n      eq\n      tag_35\n      jumpi\n      dup1\n      0xfaf5ec0c\n      eq\n      tag_36\n      jumpi\n      jump(tag_2)\n    tag_39:\n      dup1\n      0xb88a802f\n      eq\n      tag_28\n      jumpi\n      dup1\n      0xbef4533c\n      eq\n      tag_29\n      jumpi\n      dup1\n      0xd02da761\n      eq\n      tag_30\n      jumpi\n      dup1\n      0xdd8158e0\n      eq\n      tag_31\n      jumpi\n      jump(tag_2)\n    tag_38:\n      dup1\n      0xa6b14d5a\n      gt\n      tag_40\n      jumpi\n      dup1\n      0xa6b14d5a\n      eq\n      tag_24\n      jumpi\n      dup1\n      0xb3341b21\n      eq\n      tag_25\n      jumpi\n      dup1\n      0xb3c2eac1\n      eq\n      tag_26\n      jumpi\n      dup1\n      0xb59c6e0e\n      eq\n      tag_27\n      jumpi\n      jump(tag_2)\n    tag_40:\n      dup1\n      0x8da5cb5b\n      eq\n      tag_20\n      jumpi\n      dup1\n      0x9805fa74\n      eq\n      tag_21\n      jumpi\n      dup1\n      0x9fd3af8b\n      eq\n      tag_22\n      jumpi\n      dup1\n      0xa041e172\n      eq\n      tag_23\n      jumpi\n      jump(tag_2)\n    tag_37:\n      dup1\n      0x29dc425f\n      gt\n      tag_41\n      jumpi\n      dup1\n      0x71ddda57\n      gt\n      tag_42\n      jumpi\n      dup1\n      0x71ddda57\n      eq\n      tag_15\n      jumpi\n      dup1\n      0x7929e29f\n      eq\n      tag_16\n      jumpi\n      dup1\n      0x7d4cbd57\n      eq\n      tag_17\n      jumpi\n      dup1\n      0x853e03e5\n      eq\n      tag_18\n      jumpi\n      dup1\n      0x8aee8127\n      eq\n      tag_19\n      jumpi\n      jump(tag_2)\n    tag_42:\n      dup1\n      0x29dc425f\n      eq\n      tag_11\n      jumpi\n      dup1\n      0x2eae667d\n      eq\n      tag_12\n      jumpi\n      dup1\n      0x3ccfd60b\n      eq\n      tag_13\n      jumpi\n      dup1\n      0x592bd705\n      eq\n      tag_14\n      jumpi\n      jump(tag_2)\n    tag_41:\n      dup1\n      0x16c259e1\n      gt\n      tag_43\n      jumpi\n      dup1\n      0x16c259e1\n      eq\n      tag_7\n      jumpi\n      dup1\n      0x18883877\n      eq\n      tag_8\n      jumpi\n      dup1\n      0x1896b2c4\n      eq\n      tag_9\n      jumpi\n      dup1\n      0x264edc1d\n      eq\n      tag_10\n      jumpi\n      jump(tag_2)\n    tag_43:\n      dup1\n      0x6cd200\n      eq\n      tag_3\n      jumpi\n      dup1\n      0x0356c98f\n      eq\n      tag_4\n      jumpi\n      dup1\n      0x0397d458\n      eq\n      tag_5\n      jumpi\n      dup1\n      0x115a972e\n      eq\n      tag_6\n      jumpi\n    tag_2:\n      0x00\n      dup1\n      revert\n        /* \"contracts/ymii/stake1.sol\":10400:10505  function setProportion(uint256 proportion_) public onlyOwner {... */\n    tag_3:\n      tag_44\n      0x04\n      dup1\n      calldatasize\n      sub\n      dup2\n      add\n      swap1\n      tag_45\n      swap2\n      swap1\n      tag_46\n      jump\t// in\n    tag_45:\n      tag_47\n      jump\t// in\n    tag_44:\n      stop\n        /* \"contracts/ymii/stake1.sol\":10030:10082  mapping(address => uint256) public _userEndClaimTime */\n    tag_4:\n      tag_48\n      0x04\n      dup1\n      calldatasize\n      sub\n      dup2\n      add\n      swap1\n      tag_49\n      swap2\n      swap1\n      tag_50\n      jump\t// in\n    tag_49:\n      tag_51\n      jump\t// in\n    tag_48:\n      mload(0x40)\n      tag_52\n      swap2\n      swap1\n      tag_53\n      jump\t// in\n    tag_52:\n      mload(0x40)\n      dup1\n      swap2\n      sub\n      swap1\n      return\n        /* \"contracts/ymii/stake1.sol\":10688:10781  function setStakeToken(address token) public onlyOwner {... */\n    tag_5:\n      tag_54\n      0x04\n      dup1\n      calldatasize\n      sub\n      dup2\n      add\n      swap1\n      tag_55\n      swap2\n      swap1\n      tag_50\n      jump\t// in\n    tag_55:\n      tag_56\n      jump\t// in\n    tag_54:\n      stop\n        /* \"contracts/ymii/stake1.sol\":10179:10225  mapping(address => bool) public _userBlacklist */\n    tag_6:\n      tag_57\n      0x04\n      dup1\n      calldatasize\n      sub\n      dup2\n      add\n      swap1\n      tag_58\n      swap2\n      swap1\n      tag_50\n      jump\t// in\n    tag_58:\n      tag_59\n      jump\t// in\n    tag_57:\n      mload(0x40)\n      tag_60\n      swap2\n      swap1\n      tag_61\n      jump\t// in\n    tag_60:\n      mload(0x40)\n      dup1\n      swap2\n      sub\n      swap1\n      return\n        /* \"contracts/ymii/stake1.sol\":9849:9903  mapping(address => uint256) public _userStakeStartTime */\n    tag_7:\n      tag_62\n      0x04\n      dup1\n      calldatasize\n      sub\n      dup2\n      add\n      swap1\n      tag_63\n      swap2\n      swap1\n      tag_50\n      jump\t// in\n    tag_63:\n      tag_64\n      jump\t// in\n    tag_62:\n      mload(0x40)\n      tag_65\n      swap2\n      swap1\n      tag_53\n      jump\t// in\n    tag_65:\n      mload(0x40)\n      dup1\n      swap2\n      sub\n      swap1\n      return\n        /* \"contracts/ymii/stake1.sol\":9240:9282  uint256 public _stake5 = 24 hours * 30 * 5 */\n    tag_8:\n      tag_66\n      tag_67\n      jump\t// in\n    tag_66:\n      mload(0x40)\n      tag_68\n      swap2\n      swap1\n      tag_53\n      jump\t// in\n    tag_68:\n      mload(0x40)\n      dup1\n      swap2\n      sub\n      swap1\n      return\n        /* \"contracts/ymii/stake1.sol\":9504:9549  mapping(address => uint256) public _inviteNum */\n    tag_9:\n      tag_69\n      0x04\n      dup1\n      calldatasize\n      sub\n      dup2\n      add\n      swap1\n      tag_70\n      swap2\n      swap1\n      tag_50\n      jump\t// in\n    tag_70:\n      tag_71\n      jump\t// in\n    tag_69:\n      mload(0x40)\n      tag_72\n      swap2\n      swap1\n      tag_53\n      jump\t// in\n    tag_72:\n      mload(0x40)\n      dup1\n      swap2\n      sub\n      swap1\n      return\n        /* \"contracts/ymii/stake1.sol\":9365:9411  mapping(address => address) public _inviterMap */\n    tag_10:\n      tag_73\n      0x04\n      dup1\n      calldatasize\n      sub\n      dup2\n      add\n      swap1\n      tag_74\n      swap2\n      swap1\n      tag_50\n      jump\t// in\n    tag_74:\n      tag_75\n      jump\t// in\n    tag_73:\n      mload(0x40)\n      tag_76\n      swap2\n      swap1\n      tag_77\n      jump\t// in\n    tag_76:\n      mload(0x40)\n      dup1\n      swap2\n      sub\n      swap1\n      return\n        /* \"contracts/ymii/stake1.sol\":15064:15973  function pureAmount(address user) public view returns (uint256) {... */\n    tag_11:\n      tag_78\n      0x04\n      dup1\n      calldatasize\n      sub\n      dup2\n      add\n      swap1\n      tag_79\n      swap2\n      swap1\n      tag_50\n      jump\t// in\n    tag_79:\n      tag_80\n      jump\t// in\n    tag_78:\n      mload(0x40)\n      tag_81\n      swap2\n      swap1\n      tag_53\n      jump\t// in\n    tag_81:\n      mload(0x40)\n      dup1\n      swap2\n      sub\n      swap1\n      return\n        /* \"contracts/ymii/stake1.sol\":9304:9337  uint256 public _proportion = 1000 */\n    tag_12:\n      tag_82\n      tag_83\n      jump\t// in\n    tag_82:\n      mload(0x40)\n      tag_84\n      swap2\n      swap1\n      tag_53\n      jump\t// in\n    tag_84:\n      mload(0x40)\n      dup1\n      swap2\n      sub\n      swap1\n      return\n        /* \"contracts/ymii/stake1.sol\":16001:16110  function withdraw() external onlyOwner {... */\n    tag_13:\n      tag_85\n      tag_86\n      jump\t// in\n    tag_85:\n      stop\n        /* \"contracts/ymii/stake1.sol\":1459:1552  function setowner(address paramOwner) public onlyOwner {... */\n    tag_14:\n      tag_87\n      0x04\n      dup1\n      calldatasize\n      sub\n      dup2\n      add\n      swap1\n      tag_88\n      swap2\n      swap1\n      tag_50\n      jump\t// in\n    tag_88:\n      tag_89\n      jump\t// in\n    tag_87:\n      stop\n        /* \"contracts/ymii/stake1.sol\":8813:8884  address public _stakeToken = 0x6b6b2D8166D13b58155b8d454F239AE3691257A6 */\n    tag_15:\n      tag_90\n      tag_91\n      jump\t// in\n    tag_90:\n      mload(0x40)\n      tag_92\n      swap2\n      swap1\n      tag_77\n      jump\t// in\n    tag_92:\n      mload(0x40)\n      dup1\n      swap2\n      sub\n      swap1\n      return\n        /* \"contracts/ymii/stake1.sol\":9937:9990  mapping(address => uint256) public _userLastClaimTime */\n    tag_16:\n      tag_93\n      0x04\n      dup1\n      calldatasize\n      sub\n      dup2\n      add\n      swap1\n      tag_94\n      swap2\n      swap1\n      tag_50\n      jump\t// in\n    tag_94:\n      tag_95\n      jump\t// in\n    tag_93:\n      mload(0x40)\n      tag_96\n      swap2\n      swap1\n      tag_53\n      jump\t// in\n    tag_96:\n      mload(0x40)\n      dup1\n      swap2\n      sub\n      swap1\n      return\n        /* \"contracts/ymii/stake1.sol\":10534:10654  function setUserBlacklist(address user) public onlyOwner {... */\n    tag_17:\n      tag_97\n      0x04\n      dup1\n      calldatasize\n      sub\n      dup2\n      add\n      swap1\n      tag_98\n      swap2\n      swap1\n      tag_50\n      jump\t// in\n    tag_98:\n      tag_99\n      jump\t// in\n    tag_97:\n      stop\n        /* \"contracts/ymii/stake1.sol\":9178:9220  uint256 public _stake3 = 24 hours * 30 * 3 */\n    tag_18:\n      tag_100\n      tag_101\n      jump\t// in\n    tag_100:\n      mload(0x40)\n      tag_102\n      swap2\n      swap1\n      tag_53\n      jump\t// in\n    tag_102:\n      mload(0x40)\n      dup1\n      swap2\n      sub\n      swap1\n      return\n        /* \"contracts/ymii/stake1.sol\":10272:10367  function setRewardToken(address token) public onlyOwner {... */\n    tag_19:\n      tag_103\n      0x04\n      dup1\n      calldatasize\n      sub\n      dup2\n      add\n      swap1\n      tag_104\n      swap2\n      swap1\n      tag_50\n      jump\t// in\n    tag_104:\n      tag_105\n      jump\t// in\n    tag_103:\n      stop\n        /* \"contracts/ymii/stake1.sol\":1372:1451  function owner() public view returns (address) {... */\n    tag_20:\n      tag_106\n      tag_107\n      jump\t// in\n    tag_106:\n      mload(0x40)\n      tag_108\n      swap2\n      swap1\n      tag_77\n      jump\t// in\n    tag_108:\n      mload(0x40)\n      dup1\n      swap2\n      sub\n      swap1\n      return\n        /* \"contracts/ymii/stake1.sol\":9699:9744  mapping(address => uint256) public _userStake */\n    tag_21:\n      tag_109\n      0x04\n      dup1\n      calldatasize\n      sub\n      dup2\n      add\n      swap1\n      tag_110\n      swap2\n      swap1\n      tag_50\n      jump\t// in\n    tag_110:\n      tag_111\n      jump\t// in\n    tag_109:\n      mload(0x40)\n      tag_112\n      swap2\n      swap1\n      tag_53\n      jump\t// in\n    tag_112:\n      mload(0x40)\n      dup1\n      swap2\n      sub\n      swap1\n      return\n        /* \"contracts/ymii/stake1.sol\":14489:15030  function claimStakeReward() public {... */\n    tag_22:\n      tag_113\n      tag_114\n      jump\t// in\n    tag_113:\n      stop\n        /* \"contracts/ymii/stake1.sol\":9772:9821  mapping(address => uint256) public _userStakeTime */\n    tag_23:\n      tag_115\n      0x04\n      dup1\n      calldatasize\n      sub\n      dup2\n      add\n      swap1\n      tag_116\n      swap2\n      swap1\n      tag_50\n      jump\t// in\n    tag_116:\n      tag_117\n      jump\t// in\n    tag_115:\n      mload(0x40)\n      tag_118\n      swap2\n      swap1\n      tag_53\n      jump\t// in\n    tag_118:\n      mload(0x40)\n      dup1\n      swap2\n      sub\n      swap1\n      return\n        /* \"contracts/ymii/stake1.sol\":9116:9158  uint256 public _stake1 = 24 hours * 30 * 1 */\n    tag_24:\n      tag_119\n      tag_120\n      jump\t// in\n    tag_119:\n      mload(0x40)\n      tag_121\n      swap2\n      swap1\n      tag_53\n      jump\t// in\n    tag_121:\n      mload(0x40)\n      dup1\n      swap2\n      sub\n      swap1\n      return\n        /* \"contracts/ymii/stake1.sol\":9078:9106  uint256 public _stakedk = 18 */\n    tag_25:\n      tag_122\n      tag_123\n      jump\t// in\n    tag_122:\n      mload(0x40)\n      tag_124\n      swap2\n      swap1\n      tag_53\n      jump\t// in\n    tag_124:\n      mload(0x40)\n      dup1\n      swap2\n      sub\n      swap1\n      return\n        /* \"contracts/ymii/stake1.sol\":10809:10959  function setStatus(bool stakeStart, bool claimStart) public onlyOwner {... */\n    tag_26:\n      tag_125\n      0x04\n      dup1\n      calldatasize\n      sub\n      dup2\n      add\n      swap1\n      tag_126\n      swap2\n      swap1\n      tag_127\n      jump\t// in\n    tag_126:\n      tag_128\n      jump\t// in\n    tag_125:\n      stop\n        /* \"contracts/ymii/stake1.sol\":8719:8791  address public _rewardToken = 0xf1f8e132f0a3F720b3b204D728A8ff316B182258 */\n    tag_27:\n      tag_129\n      tag_130\n      jump\t// in\n    tag_129:\n      mload(0x40)\n      tag_131\n      swap2\n      swap1\n      tag_77\n      jump\t// in\n    tag_131:\n      mload(0x40)\n      dup1\n      swap2\n      sub\n      swap1\n      return\n        /* \"contracts/ymii/stake1.sol\":13616:13883  function claimReward() public {... */\n    tag_28:\n      tag_132\n      tag_133\n      jump\t// in\n    tag_132:\n      stop\n        /* \"contracts/ymii/stake1.sol\":10104:10149  mapping(address => uint256) public _userPower */\n    tag_29:\n      tag_134\n      0x04\n      dup1\n      calldatasize\n      sub\n      dup2\n      add\n      swap1\n      tag_135\n      swap2\n      swap1\n      tag_50\n      jump\t// in\n    tag_135:\n      tag_136\n      jump\t// in\n    tag_134:\n      mload(0x40)\n      tag_137\n      swap2\n      swap1\n      tag_53\n      jump\t// in\n    tag_137:\n      mload(0x40)\n      dup1\n      swap2\n      sub\n      swap1\n      return\n        /* \"contracts/ymii/stake1.sol\":13917:14455  function cancalStack() public {... */\n    tag_30:\n      tag_138\n      tag_139\n      jump\t// in\n    tag_138:\n      stop\n        /* \"contracts/ymii/stake1.sol\":9430:9479  mapping(address => uint256) public _inviterReward */\n    tag_31:\n      tag_140\n      0x04\n      dup1\n      calldatasize\n      sub\n      dup2\n      add\n      swap1\n      tag_141\n      swap2\n      swap1\n      tag_50\n      jump\t// in\n    tag_141:\n      tag_142\n      jump\t// in\n    tag_140:\n      mload(0x40)\n      tag_143\n      swap2\n      swap1\n      tag_53\n      jump\t// in\n    tag_143:\n      mload(0x40)\n      dup1\n      swap2\n      sub\n      swap1\n      return\n        /* \"contracts/ymii/stake1.sol\":9632:9663  bool public isClaimStart = true */\n    tag_32:\n      tag_144\n      tag_145\n      jump\t// in\n    tag_144:\n      mload(0x40)\n      tag_146\n      swap2\n      swap1\n      tag_61\n      jump\t// in\n    tag_146:\n      mload(0x40)\n      dup1\n      swap2\n      sub\n      swap1\n      return\n        /* \"contracts/ymii/stake1.sol\":1659:1873  function transferOwnership(address newOwner) public virtual onlyOwner {... */\n    tag_33:\n      tag_147\n      0x04\n      dup1\n      calldatasize\n      sub\n      dup2\n      add\n      swap1\n      tag_148\n      swap2\n      swap1\n      tag_50\n      jump\t// in\n    tag_148:\n      tag_149\n      jump\t// in\n    tag_147:\n      stop\n        /* \"contracts/ymii/stake1.sol\":9573:9604  bool public isStakeStart = true */\n    tag_34:\n      tag_150\n      tag_151\n      jump\t// in\n    tag_150:\n      mload(0x40)\n      tag_152\n      swap2\n      swap1\n      tag_61\n      jump\t// in\n    tag_152:\n      mload(0x40)\n      dup1\n      swap2\n      sub\n      swap1\n      return\n        /* \"contracts/ymii/stake1.sol\":16146:16531  function cancalStackOver() public onlyOwner{      ... */\n    tag_35:\n      tag_153\n      tag_154\n      jump\t// in\n    tag_153:\n      stop\n        /* \"contracts/ymii/stake1.sol\":10979:13582  function stake(... */\n    tag_36:\n      tag_155\n      0x04\n      dup1\n      calldatasize\n      sub\n      dup2\n      add\n      swap1\n      tag_156\n      swap2\n      swap1\n      tag_157\n      jump\t// in\n    tag_156:\n      tag_158\n      jump\t// in\n    tag_155:\n      stop\n        /* \"contracts/ymii/stake1.sol\":10400:10505  function setProportion(uint256 proportion_) public onlyOwner {... */\n    tag_47:\n        /* \"contracts/ymii/stake1.sol\":1610:1620  msg.sender */\n      caller\n        /* \"contracts/ymii/stake1.sol\":1600:1620  _owner == msg.sender */\n      0xffffffffffffffffffffffffffffffffffffffff\n      and\n        /* \"contracts/ymii/stake1.sol\":1600:1606  _owner */\n      0x00\n      dup1\n      sload\n      swap1\n      0x0100\n      exp\n      swap1\n      div\n      0xffffffffffffffffffffffffffffffffffffffff\n      and\n        /* \"contracts/ymii/stake1.sol\":1600:1620  _owner == msg.sender */\n      0xffffffffffffffffffffffffffffffffffffffff\n      and\n      eq\n        /* \"contracts/ymii/stake1.sol\":1592:1631  require(_owner == msg.sender, \"!owner\") */\n      tag_160\n      jumpi\n      mload(0x40)\n      0x08c379a000000000000000000000000000000000000000000000000000000000\n      dup2\n      mstore\n      0x04\n      add\n      tag_161\n      swap1\n      tag_162\n      jump\t// in\n    tag_161:\n      mload(0x40)\n      dup1\n      swap2\n      sub\n      swap1\n      revert\n    tag_160:\n        /* \"contracts/ymii/stake1.sol\":10486:10497  proportion_ */\n      dup1\n        /* \"contracts/ymii/stake1.sol\":10472:10483  _proportion */\n      0x07\n        /* \"contracts/ymii/stake1.sol\":10472:10497  _proportion = proportion_ */\n      dup2\n      swap1\n      sstore\n      pop\n        /* \"contracts/ymii/stake1.sol\":10400:10505  function setProportion(uint256 proportion_) public onlyOwner {... */\n      pop\n      jump\t// out\n        /* \"contracts/ymii/stake1.sol\":10030:10082  mapping(address => uint256) public _userEndClaimTime */\n    tag_51:\n      mstore(0x20, 0x10)\n      dup1\n      0x00\n      mstore\n      keccak256(0x00, 0x40)\n      0x00\n      swap2\n      pop\n      swap1\n      pop\n      sload\n      dup2\n      jump\t// out\n        /* \"contracts/ymii/stake1.sol\":10688:10781  function setStakeToken(address token) public onlyOwner {... */\n    tag_56:\n        /* \"contracts/ymii/stake1.sol\":1610:1620  msg.sender */\n      caller\n        /* \"contracts/ymii/stake1.sol\":1600:1620  _owner == msg.sender */\n      0xffffffffffffffffffffffffffffffffffffffff\n      and\n        /* \"contracts/ymii/stake1.sol\":1600:1606  _owner */\n      0x00\n      dup1\n      sload\n      swap1\n      0x0100\n      exp\n      swap1\n      div\n      0xffffffffffffffffffffffffffffffffffffffff\n      and\n        /* \"contracts/ymii/stake1.sol\":1600:1620  _owner == msg.sender */\n      0xffffffffffffffffffffffffffffffffffffffff\n      and\n      eq\n        /* \"contracts/ymii/stake1.sol\":1592:1631  require(_owner == msg.sender, \"!owner\") */\n      tag_165\n      jumpi\n      mload(0x40)\n      0x08c379a000000000000000000000000000000000000000000000000000000000\n      dup2\n      mstore\n      0x04\n      add\n      tag_166\n      swap1\n      tag_162\n      jump\t// in\n    tag_166:\n      mload(0x40)\n      dup1\n      swap2\n      sub\n      swap1\n      revert\n    tag_165:\n        /* \"contracts/ymii/stake1.sol\":10768:10773  token */\n      dup1\n        /* \"contracts/ymii/stake1.sol\":10754:10765  _stakeToken */\n      0x02\n      0x00\n        /* \"contracts/ymii/stake1.sol\":10754:10773  _stakeToken = token */\n      0x0100\n      exp\n      dup2\n      sload\n      dup2\n      0xffffffffffffffffffffffffffffffffffffffff\n      mul\n      not\n      and\n      swap1\n      dup4\n      0xffffffffffffffffffffffffffffffffffffffff\n      and\n      mul\n      or\n      swap1\n      sstore\n      pop\n        /* \"contracts/ymii/stake1.sol\":10688:10781  function setStakeToken(address token) public onlyOwner {... */\n      pop\n      jump\t// out\n        /* \"contracts/ymii/stake1.sol\":10179:10225  mapping(address => bool) public _userBlacklist */\n    tag_59:\n      mstore(0x20, 0x12)\n      dup1\n      0x00\n      mstore\n      keccak256(0x00, 0x40)\n      0x00\n      swap2\n      pop\n      sload\n      swap1\n      0x0100\n      exp\n      swap1\n      div\n      0xff\n      and\n      dup2\n      jump\t// out\n        /* \"contracts/ymii/stake1.sol\":9849:9903  mapping(address => uint256) public _userStakeStartTime */\n    tag_64:\n      mstore(0x20, 0x0e)\n      dup1\n      0x00\n      mstore\n      keccak256(0x00, 0x40)\n      0x00\n      swap2\n      pop\n      swap1\n      pop\n      sload\n      dup2\n      jump\t// out\n        /* \"contracts/ymii/stake1.sol\":9240:9282  uint256 public _stake5 = 24 hours * 30 * 5 */\n    tag_67:\n      sload(0x06)\n      dup2\n      jump\t// out\n        /* \"contracts/ymii/stake1.sol\":9504:9549  mapping(address => uint256) public _inviteNum */\n    tag_71:\n      mstore(0x20, 0x0a)\n      dup1\n      0x00\n      mstore\n      keccak256(0x00, 0x40)\n      0x00\n      swap2\n      pop\n      swap1\n      pop\n      sload\n      dup2\n      jump\t// out\n        /* \"contracts/ymii/stake1.sol\":9365:9411  mapping(address => address) public _inviterMap */\n    tag_75:\n      mstore(0x20, 0x08)\n      dup1\n      0x00\n      mstore\n      keccak256(0x00, 0x40)\n      0x00\n      swap2\n      pop\n      sload\n      swap1\n      0x0100\n      exp\n      swap1\n      div\n      0xffffffffffffffffffffffffffffffffffffffff\n      and\n      dup2\n      jump\t// out\n        /* \"contracts/ymii/stake1.sol\":15064:15973  function pureAmount(address user) public view returns (uint256) {... */\n    tag_80:\n        /* \"contracts/ymii/stake1.sol\":15119:15126  uint256 */\n      0x00\n        /* \"contracts/ymii/stake1.sol\":15139:15161  uint256 stakeTotalTime */\n      dup1\n        /* \"contracts/ymii/stake1.sol\":15231:15249  _userLastClaimTime */\n      0x0f\n        /* \"contracts/ymii/stake1.sol\":15231:15255  _userLastClaimTime[user] */\n      0x00\n        /* \"contracts/ymii/stake1.sol\":15250:15254  user */\n      dup5\n        /* \"contracts/ymii/stake1.sol\":15231:15255  _userLastClaimTime[user] */\n      0xffffffffffffffffffffffffffffffffffffffff\n      and\n      0xffffffffffffffffffffffffffffffffffffffff\n      and\n      dup2\n      mstore\n      0x20\n      add\n      swap1\n      dup2\n      mstore\n      0x20\n      add\n      0x00\n      keccak256\n      sload\n        /* \"contracts/ymii/stake1.sol\":15213:15228  block.timestamp */\n      timestamp\n        /* \"contracts/ymii/stake1.sol\":15213:15255  block.timestamp - _userLastClaimTime[user] */\n      tag_169\n      swap2\n      swap1\n      tag_170\n      jump\t// in\n    tag_169:\n        /* \"contracts/ymii/stake1.sol\":15196:15255  stakeTotalTime = block.timestamp - _userLastClaimTime[user] */\n      swap1\n      pop\n        /* \"contracts/ymii/stake1.sol\":15340:15341  0 */\n      0x00\n        /* \"contracts/ymii/stake1.sol\":15312:15330  _userLastClaimTime */\n      0x0f\n        /* \"contracts/ymii/stake1.sol\":15312:15336  _userLastClaimTime[user] */\n      0x00\n        /* \"contracts/ymii/stake1.sol\":15331:15335  user */\n      dup6\n        /* \"contracts/ymii/stake1.sol\":15312:15336  _userLastClaimTime[user] */\n      0xffffffffffffffffffffffffffffffffffffffff\n      and\n      0xffffffffffffffffffffffffffffffffffffffff\n      and\n      dup2\n      mstore\n      0x20\n      add\n      swap1\n      dup2\n      mstore\n      0x20\n      add\n      0x00\n      keccak256\n      sload\n        /* \"contracts/ymii/stake1.sol\":15312:15341  _userLastClaimTime[user] == 0 */\n      eq\n        /* \"contracts/ymii/stake1.sol\":15312:15365  _userLastClaimTime[user] == 0 && _userStake[user] > 0 */\n      dup1\n      iszero\n      tag_171\n      jumpi\n      pop\n        /* \"contracts/ymii/stake1.sol\":15364:15365  0 */\n      0x00\n        /* \"contracts/ymii/stake1.sol\":15345:15355  _userStake */\n      0x0c\n        /* \"contracts/ymii/stake1.sol\":15345:15361  _userStake[user] */\n      0x00\n        /* \"contracts/ymii/stake1.sol\":15356:15360  user */\n      dup6\n        /* \"contracts/ymii/stake1.sol\":15345:15361  _userStake[user] */\n      0xffffffffffffffffffffffffffffffffffffffff\n      and\n      0xffffffffffffffffffffffffffffffffffffffff\n      and\n      dup2\n      mstore\n      0x20\n      add\n      swap1\n      dup2\n      mstore\n      0x20\n      add\n      0x00\n      keccak256\n      sload\n        /* \"contracts/ymii/stake1.sol\":15345:15365  _userStake[user] > 0 */\n      gt\n        /* \"contracts/ymii/stake1.sol\":15312:15365  _userLastClaimTime[user] == 0 && _userStake[user] > 0 */\n    tag_171:\n        /* \"contracts/ymii/stake1.sol\":15308:15454  if (_userLastClaimTime[user] == 0 && _userStake[user] > 0) {... */\n      iszero\n      tag_172\n      jumpi\n        /* \"contracts/ymii/stake1.sol\":15417:15436  _userStakeStartTime */\n      0x0e\n        /* \"contracts/ymii/stake1.sol\":15417:15442  _userStakeStartTime[user] */\n      0x00\n        /* \"contracts/ymii/stake1.sol\":15437:15441  user */\n      dup5\n        /* \"contracts/ymii/stake1.sol\":15417:15442  _userStakeStartTime[user] */\n      0xffffffffffffffffffffffffffffffffffffffff\n      and\n      0xffffffffffffffffffffffffffffffffffffffff\n      and\n      dup2\n      mstore\n      0x20\n      add\n      swap1\n      dup2\n      mstore\n      0x20\n      add\n      0x00\n      keccak256\n      sload\n        /* \"contracts/ymii/stake1.sol\":15399:15414  block.timestamp */\n      timestamp\n        /* \"contracts/ymii/stake1.sol\":15399:15442  block.timestamp - _userStakeStartTime[user] */\n      tag_173\n      swap2\n      swap1\n      tag_170\n      jump\t// in\n    tag_173:\n        /* \"contracts/ymii/stake1.sol\":15382:15442  stakeTotalTime = block.timestamp - _userStakeStartTime[user] */\n      swap1\n      pop\n        /* \"contracts/ymii/stake1.sol\":15308:15454  if (_userLastClaimTime[user] == 0 && _userStake[user] > 0) {... */\n    tag_172:\n        /* \"contracts/ymii/stake1.sol\":15516:15517  0 */\n      0x00\n        /* \"contracts/ymii/stake1.sol\":15496:15506  _userStake */\n      0x0c\n        /* \"contracts/ymii/stake1.sol\":15496:15512  _userStake[user] */\n      0x00\n        /* \"contracts/ymii/stake1.sol\":15507:15511  user */\n      dup6\n        /* \"contracts/ymii/stake1.sol\":15496:15512  _userStake[user] */\n      0xffffffffffffffffffffffffffffffffffffffff\n      and\n      0xffffffffffffffffffffffffffffffffffffffff\n      and\n      dup2\n      mstore\n      0x20\n      add\n      swap1\n      dup2\n      mstore\n      0x20\n      add\n      0x00\n      keccak256\n      sload\n        /* \"contracts/ymii/stake1.sol\":15496:15517  _userStake[user] == 0 */\n      sub\n        /* \"contracts/ymii/stake1.sol\":15492:15554  if (_userStake[user] == 0) {... */\n      tag_174\n      jumpi\n        /* \"contracts/ymii/stake1.sol\":15541:15542  0 */\n      0x00\n        /* \"contracts/ymii/stake1.sol\":15534:15542  return 0 */\n      swap2\n      pop\n      pop\n      jump(tag_168)\n        /* \"contracts/ymii/stake1.sol\":15492:15554  if (_userStake[user] == 0) {... */\n    tag_174:\n        /* \"contracts/ymii/stake1.sol\":15634:15651  _userEndClaimTime */\n      0x10\n        /* \"contracts/ymii/stake1.sol\":15634:15657  _userEndClaimTime[user] */\n      0x00\n        /* \"contracts/ymii/stake1.sol\":15652:15656  user */\n      dup5\n        /* \"contracts/ymii/stake1.sol\":15634:15657  _userEndClaimTime[user] */\n      0xffffffffffffffffffffffffffffffffffffffff\n      and\n      0xffffffffffffffffffffffffffffffffffffffff\n      and\n      dup2\n      mstore\n      0x20\n      add\n      swap1\n      dup2\n      mstore\n      0x20\n      add\n      0x00\n      keccak256\n      sload\n        /* \"contracts/ymii/stake1.sol\":15616:15631  block.timestamp */\n      timestamp\n        /* \"contracts/ymii/stake1.sol\":15616:15657  block.timestamp > _userEndClaimTime[user] */\n      gt\n        /* \"contracts/ymii/stake1.sol\":15612:15753  if (block.timestamp > _userEndClaimTime[user]) {... */\n      iszero\n      tag_175\n      jumpi\n        /* \"contracts/ymii/stake1.sol\":15717:15735  _userLastClaimTime */\n      0x0f\n        /* \"contracts/ymii/stake1.sol\":15717:15741  _userLastClaimTime[user] */\n      0x00\n        /* \"contracts/ymii/stake1.sol\":15736:15740  user */\n      dup5\n        /* \"contracts/ymii/stake1.sol\":15717:15741  _userLastClaimTime[user] */\n      0xffffffffffffffffffffffffffffffffffffffff\n      and\n      0xffffffffffffffffffffffffffffffffffffffff\n      and\n      dup2\n      mstore\n      0x20\n      add\n      swap1\n      dup2\n      mstore\n      0x20\n      add\n      0x00\n      keccak256\n      sload\n        /* \"contracts/ymii/stake1.sol\":15691:15708  _userEndClaimTime */\n      0x10\n        /* \"contracts/ymii/stake1.sol\":15691:15714  _userEndClaimTime[user] */\n      0x00\n        /* \"contracts/ymii/stake1.sol\":15709:15713  user */\n      dup6\n        /* \"contracts/ymii/stake1.sol\":15691:15714  _userEndClaimTime[user] */\n      0xffffffffffffffffffffffffffffffffffffffff\n      and\n      0xffffffffffffffffffffffffffffffffffffffff\n      and\n      dup2\n      mstore\n      0x20\n      add\n      swap1\n      dup2\n      mstore\n      0x20\n      add\n      0x00\n      keccak256\n      sload\n        /* \"contracts/ymii/stake1.sol\":15691:15741  _userEndClaimTime[user] - _userLastClaimTime[user] */\n      tag_176\n      swap2\n      swap1\n      tag_170\n      jump\t// in\n    tag_176:\n        /* \"contracts/ymii/stake1.sol\":15674:15741  stakeTotalTime = _userEndClaimTime[user] - _userLastClaimTime[user] */\n      swap1\n      pop\n        /* \"contracts/ymii/stake1.sol\":15612:15753  if (block.timestamp > _userEndClaimTime[user]) {... */\n    tag_175:\n        /* \"contracts/ymii/stake1.sol\":15842:15859  _userEndClaimTime */\n      0x10\n        /* \"contracts/ymii/stake1.sol\":15842:15865  _userEndClaimTime[user] */\n      0x00\n        /* \"contracts/ymii/stake1.sol\":15860:15864  user */\n      dup5\n        /* \"contracts/ymii/stake1.sol\":15842:15865  _userEndClaimTime[user] */\n      0xffffffffffffffffffffffffffffffffffffffff\n      and\n      0xffffffffffffffffffffffffffffffffffffffff\n      and\n      dup2\n      mstore\n      0x20\n      add\n      swap1\n      dup2\n      mstore\n      0x20\n      add\n      0x00\n      keccak256\n      sload\n        /* \"contracts/ymii/stake1.sol\":15815:15833  _userLastClaimTime */\n      0x0f\n        /* \"contracts/ymii/stake1.sol\":15815:15839  _userLastClaimTime[user] */\n      0x00\n        /* \"contracts/ymii/stake1.sol\":15834:15838  user */\n      dup6\n        /* \"contracts/ymii/stake1.sol\":15815:15839  _userLastClaimTime[user] */\n      0xffffffffffffffffffffffffffffffffffffffff\n      and\n      0xffffffffffffffffffffffffffffffffffffffff\n      and\n      dup2\n      mstore\n      0x20\n      add\n      swap1\n      dup2\n      mstore\n      0x20\n      add\n      0x00\n      keccak256\n      sload\n        /* \"contracts/ymii/stake1.sol\":15815:15865  _userLastClaimTime[user] > _userEndClaimTime[user] */\n      gt\n        /* \"contracts/ymii/stake1.sol\":15811:15902  if (_userLastClaimTime[user] > _userEndClaimTime[user]) {... */\n      iszero\n      tag_177\n      jumpi\n        /* \"contracts/ymii/stake1.sol\":15889:15890  0 */\n      0x00\n        /* \"contracts/ymii/stake1.sol\":15882:15890  return 0 */\n      swap2\n      pop\n      pop\n      jump(tag_168)\n        /* \"contracts/ymii/stake1.sol\":15811:15902  if (_userLastClaimTime[user] > _userEndClaimTime[user]) {... */\n    tag_177:\n        /* \"contracts/ymii/stake1.sol\":15919:15965  SafeMath.mul(stakeTotalTime, _userPower[user]) */\n      tag_178\n        /* \"contracts/ymii/stake1.sol\":15932:15946  stakeTotalTime */\n      dup2\n        /* \"contracts/ymii/stake1.sol\":15948:15958  _userPower */\n      0x11\n        /* \"contracts/ymii/stake1.sol\":15948:15964  _userPower[user] */\n      0x00\n        /* \"contracts/ymii/stake1.sol\":15959:15963  user */\n      dup7\n        /* \"contracts/ymii/stake1.sol\":15948:15964  _userPower[user] */\n      0xffffffffffffffffffffffffffffffffffffffff\n      and\n      0xffffffffffffffffffffffffffffffffffffffff\n      and\n      dup2\n      mstore\n      0x20\n      add\n      swap1\n      dup2\n      mstore\n      0x20\n      add\n      0x00\n      keccak256\n      sload\n        /* \"contracts/ymii/stake1.sol\":15919:15931  SafeMath.mul */\n      tag_179\n        /* \"contracts/ymii/stake1.sol\":15919:15965  SafeMath.mul(stakeTotalTime, _userPower[user]) */\n      jump\t// in\n    tag_178:\n        /* \"contracts/ymii/stake1.sol\":15912:15965  return SafeMath.mul(stakeTotalTime, _userPower[user]) */\n      swap2\n      pop\n      pop\n        /* \"contracts/ymii/stake1.sol\":15064:15973  function pureAmount(address user) public view returns (uint256) {... */\n    tag_168:\n      swap2\n      swap1\n      pop\n      jump\t// out\n        /* \"contracts/ymii/stake1.sol\":9304:9337  uint256 public _proportion = 1000 */\n    tag_83:\n      sload(0x07)\n      dup2\n      jump\t// out\n        /* \"contracts/ymii/stake1.sol\":16001:16110  function withdraw() external onlyOwner {... */\n    tag_86:\n        /* \"contracts/ymii/stake1.sol\":1610:1620  msg.sender */\n      caller\n        /* \"contracts/ymii/stake1.sol\":1600:1620  _owner == msg.sender */\n      0xffffffffffffffffffffffffffffffffffffffff\n      and\n        /* \"contracts/ymii/stake1.sol\":1600:1606  _owner */\n      0x00\n      dup1\n      sload\n      swap1\n      0x0100\n      exp\n      swap1\n      div\n      0xffffffffffffffffffffffffffffffffffffffff\n      and\n        /* \"contracts/ymii/stake1.sol\":1600:1620  _owner == msg.sender */\n      0xffffffffffffffffffffffffffffffffffffffff\n      and\n      eq\n        /* \"contracts/ymii/stake1.sol\":1592:1631  require(_owner == msg.sender, \"!owner\") */\n      tag_181\n      jumpi\n      mload(0x40)\n      0x08c379a000000000000000000000000000000000000000000000000000000000\n      dup2\n      mstore\n      0x04\n      add\n      tag_182\n      swap1\n      tag_162\n      jump\t// in\n    tag_182:\n      mload(0x40)\n      dup1\n      swap2\n      sub\n      swap1\n      revert\n    tag_181:\n        /* \"contracts/ymii/stake1.sol\":16059:16069  msg.sender */\n      caller\n        /* \"contracts/ymii/stake1.sol\":16051:16079  payable(msg.sender).transfer */\n      0xffffffffffffffffffffffffffffffffffffffff\n      and\n        /* \"contracts/ymii/stake1.sol\":16051:16102  payable(msg.sender).transfer(address(this).balance) */\n      0x08fc\n        /* \"contracts/ymii/stake1.sol\":16080:16101  address(this).balance */\n      selfbalance\n        /* \"contracts/ymii/stake1.sol\":16051:16102  payable(msg.sender).transfer(address(this).balance) */\n      swap1\n      dup2\n      iszero\n      mul\n      swap1\n      mload(0x40)\n      0x00\n      mload(0x40)\n      dup1\n      dup4\n      sub\n      dup2\n      dup6\n      dup9\n      dup9\n      call\n      swap4\n      pop\n      pop\n      pop\n      pop\n      iszero\n      dup1\n      iszero\n      tag_185\n      jumpi\n      returndatasize\n      0x00\n      dup1\n      returndatacopy\n      revert(0x00, returndatasize)\n    tag_185:\n      pop\n        /* \"contracts/ymii/stake1.sol\":16001:16110  function withdraw() external onlyOwner {... */\n      jump\t// out\n        /* \"contracts/ymii/stake1.sol\":1459:1552  function setowner(address paramOwner) public onlyOwner {... */\n    tag_89:\n        /* \"contracts/ymii/stake1.sol\":1610:1620  msg.sender */\n      caller\n        /* \"contracts/ymii/stake1.sol\":1600:1620  _owner == msg.sender */\n      0xffffffffffffffffffffffffffffffffffffffff\n      and\n        /* \"contracts/ymii/stake1.sol\":1600:1606  _owner */\n      0x00\n      dup1\n      sload\n      swap1\n      0x0100\n      exp\n      swap1\n      div\n      0xffffffffffffffffffffffffffffffffffffffff\n      and\n        /* \"contracts/ymii/stake1.sol\":1600:1620  _owner == msg.sender */\n      0xffffffffffffffffffffffffffffffffffffffff\n      and\n      eq\n        /* \"contracts/ymii/stake1.sol\":1592:1631  require(_owner == msg.sender, \"!owner\") */\n      tag_187\n      jumpi\n      mload(0x40)\n      0x08c379a000000000000000000000000000000000000000000000000000000000\n      dup2\n      mstore\n      0x04\n      add\n      tag_188\n      swap1\n      tag_162\n      jump\t// in\n    tag_188:\n      mload(0x40)\n      dup1\n      swap2\n      sub\n      swap1\n      revert\n    tag_187:\n        /* \"contracts/ymii/stake1.sol\":1534:1544  paramOwner */\n      dup1\n        /* \"contracts/ymii/stake1.sol\":1525:1531  _owner */\n      0x00\n      dup1\n        /* \"contracts/ymii/stake1.sol\":1525:1544  _owner = paramOwner */\n      0x0100\n      exp\n      dup2\n      sload\n      dup2\n      0xffffffffffffffffffffffffffffffffffffffff\n      mul\n      not\n      and\n      swap1\n      dup4\n      0xffffffffffffffffffffffffffffffffffffffff\n      and\n      mul\n      or\n      swap1\n      sstore\n      pop\n        /* \"contracts/ymii/stake1.sol\":1459:1552  function setowner(address paramOwner) public onlyOwner {... */\n      pop\n      jump\t// out\n        /* \"contracts/ymii/stake1.sol\":8813:8884  address public _stakeToken = 0x6b6b2D8166D13b58155b8d454F239AE3691257A6 */\n    tag_91:\n      0x02\n      0x00\n      swap1\n      sload\n      swap1\n      0x0100\n      exp\n      swap1\n      div\n      0xffffffffffffffffffffffffffffffffffffffff\n      and\n      dup2\n      jump\t// out\n        /* \"contracts/ymii/stake1.sol\":9937:9990  mapping(address => uint256) public _userLastClaimTime */\n    tag_95:\n      mstore(0x20, 0x0f)\n      dup1\n      0x00\n      mstore\n      keccak256(0x00, 0x40)\n      0x00\n      swap2\n      pop\n      swap1\n      pop\n      sload\n      dup2\n      jump\t// out\n        /* \"contracts/ymii/stake1.sol\":10534:10654  function setUserBlacklist(address user) public onlyOwner {... */\n    tag_99:\n        /* \"contracts/ymii/stake1.sol\":1610:1620  msg.sender */\n      caller\n        /* \"contracts/ymii/stake1.sol\":1600:1620  _owner == msg.sender */\n      0xffffffffffffffffffffffffffffffffffffffff\n      and\n        /* \"contracts/ymii/stake1.sol\":1600:1606  _owner */\n      0x00\n      dup1\n      sload\n      swap1\n      0x0100\n      exp\n      swap1\n      div\n      0xffffffffffffffffffffffffffffffffffffffff\n      and\n        /* \"contracts/ymii/stake1.sol\":1600:1620  _owner == msg.sender */\n      0xffffffffffffffffffffffffffffffffffffffff\n      and\n      eq\n        /* \"contracts/ymii/stake1.sol\":1592:1631  require(_owner == msg.sender, \"!owner\") */\n      tag_191\n      jumpi\n      mload(0x40)\n      0x08c379a000000000000000000000000000000000000000000000000000000000\n      dup2\n      mstore\n      0x04\n      add\n      tag_192\n      swap1\n      tag_162\n      jump\t// in\n    tag_192:\n      mload(0x40)\n      dup1\n      swap2\n      sub\n      swap1\n      revert\n    tag_191:\n        /* \"contracts/ymii/stake1.sol\":10626:10640  _userBlacklist */\n      0x12\n        /* \"contracts/ymii/stake1.sol\":10626:10646  _userBlacklist[user] */\n      0x00\n        /* \"contracts/ymii/stake1.sol\":10641:10645  user */\n      dup3\n        /* \"contracts/ymii/stake1.sol\":10626:10646  _userBlacklist[user] */\n      0xffffffffffffffffffffffffffffffffffffffff\n      and\n      0xffffffffffffffffffffffffffffffffffffffff\n      and\n      dup2\n      mstore\n      0x20\n      add\n      swap1\n      dup2\n      mstore\n      0x20\n      add\n      0x00\n      keccak256\n      0x00\n      swap1\n      sload\n      swap1\n      0x0100\n      exp\n      swap1\n      div\n      0xff\n      and\n        /* \"contracts/ymii/stake1.sol\":10625:10646  !_userBlacklist[user] */\n      iszero\n        /* \"contracts/ymii/stake1.sol\":10602:10616  _userBlacklist */\n      0x12\n        /* \"contracts/ymii/stake1.sol\":10602:10622  _userBlacklist[user] */\n      0x00\n        /* \"contracts/ymii/stake1.sol\":10617:10621  user */\n      dup4\n        /* \"contracts/ymii/stake1.sol\":10602:10622  _userBlacklist[user] */\n      0xffffffffffffffffffffffffffffffffffffffff\n      and\n      0xffffffffffffffffffffffffffffffffffffffff\n      and\n      dup2\n      mstore\n      0x20\n      add\n      swap1\n      dup2\n      mstore\n      0x20\n      add\n      0x00\n      keccak256\n      0x00\n        /* \"contracts/ymii/stake1.sol\":10602:10646  _userBlacklist[user] = !_userBlacklist[user] */\n      0x0100\n      exp\n      dup2\n      sload\n      dup2\n      0xff\n      mul\n      not\n      and\n      swap1\n      dup4\n      iszero\n      iszero\n      mul\n      or\n      swap1\n      sstore\n      pop\n        /* \"contracts/ymii/stake1.sol\":10534:10654  function setUserBlacklist(address user) public onlyOwner {... */\n      pop\n      jump\t// out\n        /* \"contracts/ymii/stake1.sol\":9178:9220  uint256 public _stake3 = 24 hours * 30 * 3 */\n    tag_101:\n      sload(0x05)\n      dup2\n      jump\t// out\n        /* \"contracts/ymii/stake1.sol\":10272:10367  function setRewardToken(address token) public onlyOwner {... */\n    tag_105:\n        /* \"contracts/ymii/stake1.sol\":1610:1620  msg.sender */\n      caller\n        /* \"contracts/ymii/stake1.sol\":1600:1620  _owner == msg.sender */\n      0xffffffffffffffffffffffffffffffffffffffff\n      and\n        /* \"contracts/ymii/stake1.sol\":1600:1606  _owner */\n      0x00\n      dup1\n      sload\n      swap1\n      0x0100\n      exp\n      swap1\n      div\n      0xffffffffffffffffffffffffffffffffffffffff\n      and\n        /* \"contracts/ymii/stake1.sol\":1600:1620  _owner == msg.sender */\n      0xffffffffffffffffffffffffffffffffffffffff\n      and\n      eq\n        /* \"contracts/ymii/stake1.sol\":1592:1631  require(_owner == msg.sender, \"!owner\") */\n      tag_195\n      jumpi\n      mload(0x40)\n      0x08c379a000000000000000000000000000000000000000000000000000000000\n      dup2\n      mstore\n      0x04\n      add\n      tag_196\n      swap1\n      tag_162\n      jump\t// in\n    tag_196:\n      mload(0x40)\n      dup1\n      swap2\n      sub\n      swap1\n      revert\n    tag_195:\n        /* \"contracts/ymii/stake1.sol\":10354:10359  token */\n      dup1\n        /* \"contracts/ymii/stake1.sol\":10339:10351  _rewardToken */\n      0x01\n      0x00\n        /* \"contracts/ymii/stake1.sol\":10339:10359  _rewardToken = token */\n      0x0100\n      exp\n      dup2\n      sload\n      dup2\n      0xffffffffffffffffffffffffffffffffffffffff\n      mul\n      not\n      and\n      swap1\n      dup4\n      0xffffffffffffffffffffffffffffffffffffffff\n      and\n      mul\n      or\n      swap1\n      sstore\n      pop\n        /* \"contracts/ymii/stake1.sol\":10272:10367  function setRewardToken(address token) public onlyOwner {... */\n      pop\n      jump\t// out\n        /* \"contracts/ymii/stake1.sol\":1372:1451  function owner() public view returns (address) {... */\n    tag_107:\n        /* \"contracts/ymii/stake1.sol\":1410:1417  address */\n      0x00\n        /* \"contracts/ymii/stake1.sol\":1437:1443  _owner */\n      dup1\n      0x00\n      swap1\n      sload\n      swap1\n      0x0100\n      exp\n      swap1\n      div\n      0xffffffffffffffffffffffffffffffffffffffff\n      and\n        /* \"contracts/ymii/stake1.sol\":1430:1443  return _owner */\n      swap1\n      pop\n        /* \"contracts/ymii/stake1.sol\":1372:1451  function owner() public view returns (address) {... */\n      swap1\n      jump\t// out\n        /* \"contracts/ymii/stake1.sol\":9699:9744  mapping(address => uint256) public _userStake */\n    tag_111:\n      mstore(0x20, 0x0c)\n      dup1\n      0x00\n      mstore\n      keccak256(0x00, 0x40)\n      0x00\n      swap2\n      pop\n      swap1\n      pop\n      sload\n      dup2\n      jump\t// out\n        /* \"contracts/ymii/stake1.sol\":14489:15030  function claimStakeReward() public {... */\n    tag_114:\n        /* \"contracts/ymii/stake1.sol\":14543:14555  isClaimStart */\n      0x0b\n      0x01\n      swap1\n      sload\n      swap1\n      0x0100\n      exp\n      swap1\n      div\n      0xff\n      and\n        /* \"contracts/ymii/stake1.sol\":14535:14569  require(isClaimStart, \"not start\") */\n      tag_200\n      jumpi\n      mload(0x40)\n      0x08c379a000000000000000000000000000000000000000000000000000000000\n      dup2\n      mstore\n      0x04\n      add\n      tag_201\n      swap1\n      tag_202\n      jump\t// in\n    tag_201:\n      mload(0x40)\n      dup1\n      swap2\n      sub\n      swap1\n      revert\n    tag_200:\n        /* \"contracts/ymii/stake1.sol\":14613:14614  0 */\n      0x00\n        /* \"contracts/ymii/stake1.sol\":14588:14598  _userStake */\n      0x0c\n        /* \"contracts/ymii/stake1.sol\":14588:14610  _userStake[msg.sender] */\n      0x00\n        /* \"contracts/ymii/stake1.sol\":14599:14609  msg.sender */\n      caller\n        /* \"contracts/ymii/stake1.sol\":14588:14610  _userStake[msg.sender] */\n      0xffffffffffffffffffffffffffffffffffffffff\n      and\n      0xffffffffffffffffffffffffffffffffffffffff\n      and\n      dup2\n      mstore\n      0x20\n      add\n      swap1\n      dup2\n      mstore\n      0x20\n      add\n      0x00\n      keccak256\n      sload\n        /* \"contracts/ymii/stake1.sol\":14588:14614  _userStake[msg.sender] > 0 */\n      gt\n        /* \"contracts/ymii/stake1.sol\":14580:14628  require(_userStake[msg.sender] > 0, \"not stake\") */\n      tag_203\n      jumpi\n      mload(0x40)\n      0x08c379a000000000000000000000000000000000000000000000000000000000\n      dup2\n      mstore\n      0x04\n      add\n      tag_204\n      swap1\n      tag_205\n      jump\t// in\n    tag_204:\n      mload(0x40)\n      dup1\n      swap2\n      sub\n      swap1\n      revert\n    tag_203:\n        /* \"contracts/ymii/stake1.sol\":14648:14662  _userBlacklist */\n      0x12\n        /* \"contracts/ymii/stake1.sol\":14648:14674  _userBlacklist[msg.sender] */\n      0x00\n        /* \"contracts/ymii/stake1.sol\":14663:14673  msg.sender */\n      caller\n        /* \"contracts/ymii/stake1.sol\":14648:14674  _userBlacklist[msg.sender] */\n      0xffffffffffffffffffffffffffffffffffffffff\n      and\n      0xffffffffffffffffffffffffffffffffffffffff\n      and\n      dup2\n      mstore\n      0x20\n      add\n      swap1\n      dup2\n      mstore\n      0x20\n      add\n      0x00\n      keccak256\n      0x00\n      swap1\n      sload\n      swap1\n      0x0100\n      exp\n      swap1\n      div\n      0xff\n      and\n        /* \"contracts/ymii/stake1.sol\":14647:14674  !_userBlacklist[msg.sender] */\n      iszero\n        /* \"contracts/ymii/stake1.sol\":14639:14699  require(!_userBlacklist[msg.sender], \"user is in blacklist\") */\n      tag_206\n      jumpi\n      mload(0x40)\n      0x08c379a000000000000000000000000000000000000000000000000000000000\n      dup2\n      mstore\n      0x04\n      add\n      tag_207\n      swap1\n      tag_208\n      jump\t// in\n    tag_207:\n      mload(0x40)\n      dup1\n      swap2\n      sub\n      swap1\n      revert\n    tag_206:\n        /* \"contracts/ymii/stake1.sol\":14765:14780  block.timestamp */\n      timestamp\n        /* \"contracts/ymii/stake1.sol\":14732:14750  _userLastClaimTime */\n      0x0f\n        /* \"contracts/ymii/stake1.sol\":14732:14762  _userLastClaimTime[msg.sender] */\n      0x00\n        /* \"contracts/ymii/stake1.sol\":14751:14761  msg.sender */\n      caller\n        /* \"contracts/ymii/stake1.sol\":14732:14762  _userLastClaimTime[msg.sender] */\n      0xffffffffffffffffffffffffffffffffffffffff\n      and\n      0xffffffffffffffffffffffffffffffffffffffff\n      and\n      dup2\n      mstore\n      0x20\n      add\n      swap1\n      dup2\n      mstore\n      0x20\n      add\n      0x00\n      keccak256\n      sload\n        /* \"contracts/ymii/stake1.sol\":14732:14780  _userLastClaimTime[msg.sender] < block.timestamp */\n      lt\n        /* \"contracts/ymii/stake1.sol\":14710:14823  require(... */\n      tag_209\n      jumpi\n      mload(0x40)\n      0x08c379a000000000000000000000000000000000000000000000000000000000\n      dup2\n      mstore\n      0x04\n      add\n      tag_210\n      swap1\n      tag_211\n      jump\t// in\n    tag_210:\n      mload(0x40)\n      dup1\n      swap2\n      sub\n      swap1\n      revert\n    tag_209:\n        /* \"contracts/ymii/stake1.sol\":14834:14848  uint256 amount */\n      0x00\n        /* \"contracts/ymii/stake1.sol\":14851:14873  pureAmount(msg.sender) */\n      tag_212\n        /* \"contracts/ymii/stake1.sol\":14862:14872  msg.sender */\n      caller\n        /* \"contracts/ymii/stake1.sol\":14851:14861  pureAmount */\n      tag_80\n        /* \"contracts/ymii/stake1.sol\":14851:14873  pureAmount(msg.sender) */\n      jump\t// in\n    tag_212:\n        /* \"contracts/ymii/stake1.sol\":14834:14873  uint256 amount = pureAmount(msg.sender) */\n      swap1\n      pop\n        /* \"contracts/ymii/stake1.sol\":14947:14962  block.timestamp */\n      timestamp\n        /* \"contracts/ymii/stake1.sol\":14914:14932  _userLastClaimTime */\n      0x0f\n        /* \"contracts/ymii/stake1.sol\":14914:14944  _userLastClaimTime[msg.sender] */\n      0x00\n        /* \"contracts/ymii/stake1.sol\":14933:14943  msg.sender */\n      caller\n        /* \"contracts/ymii/stake1.sol\":14914:14944  _userLastClaimTime[msg.sender] */\n      0xffffffffffffffffffffffffffffffffffffffff\n      and\n      0xffffffffffffffffffffffffffffffffffffffff\n      and\n      dup2\n      mstore\n      0x20\n      add\n      swap1\n      dup2\n      mstore\n      0x20\n      add\n      0x00\n      keccak256\n        /* \"contracts/ymii/stake1.sol\":14914:14962  _userLastClaimTime[msg.sender] = block.timestamp */\n      dup2\n      swap1\n      sstore\n      pop\n        /* \"contracts/ymii/stake1.sol\":14980:14992  _rewardToken */\n      0x01\n      0x00\n      swap1\n      sload\n      swap1\n      0x0100\n      exp\n      swap1\n      div\n      0xffffffffffffffffffffffffffffffffffffffff\n      and\n        /* \"contracts/ymii/stake1.sol\":14973:15002  IERC20(_rewardToken).transfer */\n      0xffffffffffffffffffffffffffffffffffffffff\n      and\n      0xa9059cbb\n        /* \"contracts/ymii/stake1.sol\":15003:15013  msg.sender */\n      caller\n        /* \"contracts/ymii/stake1.sol\":15015:15021  amount */\n      dup4\n        /* \"contracts/ymii/stake1.sol\":14973:15022  IERC20(_rewardToken).transfer(msg.sender, amount) */\n      mload(0x40)\n      dup4\n      0xffffffff\n      and\n      0xe0\n      shl\n      dup2\n      mstore\n      0x04\n      add\n      tag_213\n      swap3\n      swap2\n      swap1\n      tag_214\n      jump\t// in\n    tag_213:\n      0x20\n      mload(0x40)\n      dup1\n      dup4\n      sub\n      dup2\n      0x00\n      dup8\n      gas\n      call\n      iszero\n      dup1\n      iszero\n      tag_216\n      jumpi\n      returndatasize\n      0x00\n      dup1\n      returndatacopy\n      revert(0x00, returndatasize)\n    tag_216:\n      pop\n      pop\n      pop\n      pop\n      mload(0x40)\n      returndatasize\n      not(0x1f)\n      0x1f\n      dup3\n      add\n      and\n      dup3\n      add\n      dup1\n      0x40\n      mstore\n      pop\n      dup2\n      add\n      swap1\n      tag_217\n      swap2\n      swap1\n      tag_218\n      jump\t// in\n    tag_217:\n      pop\n        /* \"contracts/ymii/stake1.sol\":14524:15030  {... */\n      pop\n        /* \"contracts/ymii/stake1.sol\":14489:15030  function claimStakeReward() public {... */\n      jump\t// out\n        /* \"contracts/ymii/stake1.sol\":9772:9821  mapping(address => uint256) public _userStakeTime */\n    tag_117:\n      mstore(0x20, 0x0d)\n      dup1\n      0x00\n      mstore\n      keccak256(0x00, 0x40)\n      0x00\n      swap2\n      pop\n      swap1\n      pop\n      sload\n      dup2\n      jump\t// out\n        /* \"contracts/ymii/stake1.sol\":9116:9158  uint256 public _stake1 = 24 hours * 30 * 1 */\n    tag_120:\n      sload(0x04)\n      dup2\n      jump\t// out\n        /* \"contracts/ymii/stake1.sol\":9078:9106  uint256 public _stakedk = 18 */\n    tag_123:\n      sload(0x03)\n      dup2\n      jump\t// out\n        /* \"contracts/ymii/stake1.sol\":10809:10959  function setStatus(bool stakeStart, bool claimStart) public onlyOwner {... */\n    tag_128:\n        /* \"contracts/ymii/stake1.sol\":1610:1620  msg.sender */\n      caller\n        /* \"contracts/ymii/stake1.sol\":1600:1620  _owner == msg.sender */\n      0xffffffffffffffffffffffffffffffffffffffff\n      and\n        /* \"contracts/ymii/stake1.sol\":1600:1606  _owner */\n      0x00\n      dup1\n      sload\n      swap1\n      0x0100\n      exp\n      swap1\n      div\n      0xffffffffffffffffffffffffffffffffffffffff\n      and\n        /* \"contracts/ymii/stake1.sol\":1600:1620  _owner == msg.sender */\n      0xffffffffffffffffffffffffffffffffffffffff\n      and\n      eq\n        /* \"contracts/ymii/stake1.sol\":1592:1631  require(_owner == msg.sender, \"!owner\") */\n      tag_220\n      jumpi\n      mload(0x40)\n      0x08c379a000000000000000000000000000000000000000000000000000000000\n      dup2\n      mstore\n      0x04\n      add\n      tag_221\n      swap1\n      tag_162\n      jump\t// in\n    tag_221:\n      mload(0x40)\n      dup1\n      swap2\n      sub\n      swap1\n      revert\n    tag_220:\n        /* \"contracts/ymii/stake1.sol\":10905:10915  stakeStart */\n      dup2\n        /* \"contracts/ymii/stake1.sol\":10890:10902  isStakeStart */\n      0x0b\n      0x00\n        /* \"contracts/ymii/stake1.sol\":10890:10915  isStakeStart = stakeStart */\n      0x0100\n      exp\n      dup2\n      sload\n      dup2\n      0xff\n      mul\n      not\n      and\n      swap1\n      dup4\n      iszero\n      iszero\n      mul\n      or\n      swap1\n      sstore\n      pop\n        /* \"contracts/ymii/stake1.sol\":10941:10951  claimStart */\n      dup1\n        /* \"contracts/ymii/stake1.sol\":10926:10938  isClaimStart */\n      0x0b\n      0x01\n        /* \"contracts/ymii/stake1.sol\":10926:10951  isClaimStart = claimStart */\n      0x0100\n      exp\n      dup2\n      sload\n      dup2\n      0xff\n      mul\n      not\n      and\n      swap1\n      dup4\n      iszero\n      iszero\n      mul\n      or\n      swap1\n      sstore\n      pop\n        /* \"contracts/ymii/stake1.sol\":10809:10959  function setStatus(bool stakeStart, bool claimStart) public onlyOwner {... */\n      pop\n      pop\n      jump\t// out\n        /* \"contracts/ymii/stake1.sol\":8719:8791  address public _rewardToken = 0xf1f8e132f0a3F720b3b204D728A8ff316B182258 */\n    tag_130:\n      0x01\n      0x00\n      swap1\n      sload\n      swap1\n      0x0100\n      exp\n      swap1\n      div\n      0xffffffffffffffffffffffffffffffffffffffff\n      and\n      dup2\n      jump\t// out\n        /* \"contracts/ymii/stake1.sol\":13616:13883  function claimReward() public {... */\n    tag_133:\n        /* \"contracts/ymii/stake1.sol\":13665:13677  isClaimStart */\n      0x0b\n      0x01\n      swap1\n      sload\n      swap1\n      0x0100\n      exp\n      swap1\n      div\n      0xff\n      and\n        /* \"contracts/ymii/stake1.sol\":13657:13691  require(isClaimStart, \"not start\") */\n      tag_224\n      jumpi\n      mload(0x40)\n      0x08c379a000000000000000000000000000000000000000000000000000000000\n      dup2\n      mstore\n      0x04\n      add\n      tag_225\n      swap1\n      tag_202\n      jump\t// in\n    tag_225:\n      mload(0x40)\n      dup1\n      swap2\n      sub\n      swap1\n      revert\n    tag_224:\n        /* \"contracts/ymii/stake1.sol\":13739:13740  0 */\n      0x00\n        /* \"contracts/ymii/stake1.sol\":13710:13724  _inviterReward */\n      0x09\n        /* \"contracts/ymii/stake1.sol\":13710:13736  _inviterReward[msg.sender] */\n      0x00\n        /* \"contracts/ymii/stake1.sol\":13725:13735  msg.sender */\n      caller\n        /* \"contracts/ymii/stake1.sol\":13710:13736  _inviterReward[msg.sender] */\n      0xffffffffffffffffffffffffffffffffffffffff\n      and\n      0xffffffffffffffffffffffffffffffffffffffff\n      and\n      dup2\n      mstore\n      0x20\n      add\n      swap1\n      dup2\n      mstore\n      0x20\n      add\n      0x00\n      keccak256\n      sload\n        /* \"contracts/ymii/stake1.sol\":13710:13740  _inviterReward[msg.sender] > 0 */\n      gt\n        /* \"contracts/ymii/stake1.sol\":13702:13754  require(_inviterReward[msg.sender] > 0, \"no reward\") */\n      tag_226\n      jumpi\n      mload(0x40)\n      0x08c379a000000000000000000000000000000000000000000000000000000000\n      dup2\n      mstore\n      0x04\n      add\n      tag_227\n      swap1\n      tag_228\n      jump\t// in\n    tag_227:\n      mload(0x40)\n      dup1\n      swap2\n      sub\n      swap1\n      revert\n    tag_226:\n        /* \"contracts/ymii/stake1.sol\":13772:13784  _rewardToken */\n      0x01\n      0x00\n      swap1\n      sload\n      swap1\n      0x0100\n      exp\n      swap1\n      div\n      0xffffffffffffffffffffffffffffffffffffffff\n      and\n        /* \"contracts/ymii/stake1.sol\":13765:13794  IERC20(_rewardToken).transfer */\n      0xffffffffffffffffffffffffffffffffffffffff\n      and\n      0xa9059cbb\n        /* \"contracts/ymii/stake1.sol\":13795:13805  msg.sender */\n      caller\n        /* \"contracts/ymii/stake1.sol\":13807:13821  _inviterReward */\n      0x09\n        /* \"contracts/ymii/stake1.sol\":13807:13833  _inviterReward[msg.sender] */\n      0x00\n        /* \"contracts/ymii/stake1.sol\":13822:13832  msg.sender */\n      caller\n        /* \"contracts/ymii/stake1.sol\":13807:13833  _inviterReward[msg.sender] */\n      0xffffffffffffffffffffffffffffffffffffffff\n      and\n      0xffffffffffffffffffffffffffffffffffffffff\n      and\n      dup2\n      mstore\n      0x20\n      add\n      swap1\n      dup2\n      mstore\n      0x20\n      add\n      0x00\n      keccak256\n      sload\n        /* \"contracts/ymii/stake1.sol\":13765:13834  IERC20(_rewardToken).transfer(msg.sender, _inviterReward[msg.sender]) */\n      mload(0x40)\n      dup4\n      0xffffffff\n      and\n      0xe0\n      shl\n      dup2\n      mstore\n      0x04\n      add\n      tag_229\n      swap3\n      swap2\n      swap1\n      tag_214\n      jump\t// in\n    tag_229:\n      0x20\n      mload(0x40)\n      dup1\n      dup4\n      sub\n      dup2\n      0x00\n      dup8\n      gas\n      call\n      iszero\n      dup1\n      iszero\n      tag_231\n      jumpi\n      returndatasize\n      0x00\n      dup1\n      returndatacopy\n      revert(0x00, returndatasize)\n    tag_231:\n      pop\n      pop\n      pop\n      pop\n      mload(0x40)\n      returndatasize\n      not(0x1f)\n      0x1f\n      dup3\n      add\n      and\n      dup3\n      add\n      dup1\n      0x40\n      mstore\n      pop\n      dup2\n      add\n      swap1\n      tag_232\n      swap2\n      swap1\n      tag_218\n      jump\t// in\n    tag_232:\n      pop\n        /* \"contracts/ymii/stake1.sol\":13874:13875  0 */\n      0x00\n        /* \"contracts/ymii/stake1.sol\":13845:13859  _inviterReward */\n      0x09\n        /* \"contracts/ymii/stake1.sol\":13845:13871  _inviterReward[msg.sender] */\n      0x00\n        /* \"contracts/ymii/stake1.sol\":13860:13870  msg.sender */\n      caller\n        /* \"contracts/ymii/stake1.sol\":13845:13871  _inviterReward[msg.sender] */\n      0xffffffffffffffffffffffffffffffffffffffff\n      and\n      0xffffffffffffffffffffffffffffffffffffffff\n      and\n      dup2\n      mstore\n      0x20\n      add\n      swap1\n      dup2\n      mstore\n      0x20\n      add\n      0x00\n      keccak256\n        /* \"contracts/ymii/stake1.sol\":13845:13875  _inviterReward[msg.sender] = 0 */\n      dup2\n      swap1\n      sstore\n      pop\n        /* \"contracts/ymii/stake1.sol\":13616:13883  function claimReward() public {... */\n      jump\t// out\n        /* \"contracts/ymii/stake1.sol\":10104:10149  mapping(address => uint256) public _userPower */\n    tag_136:\n      mstore(0x20, 0x11)\n      dup1\n      0x00\n      mstore\n      keccak256(0x00, 0x40)\n      0x00\n      swap2\n      pop\n      swap1\n      pop\n      sload\n      dup2\n      jump\t// out\n        /* \"contracts/ymii/stake1.sol\":13917:14455  function cancalStack() public {... */\n    tag_139:\n        /* \"contracts/ymii/stake1.sol\":14046:14060  _userStakeTime */\n      0x0d\n        /* \"contracts/ymii/stake1.sol\":14046:14072  _userStakeTime[msg.sender] */\n      0x00\n        /* \"contracts/ymii/stake1.sol\":14061:14071  msg.sender */\n      caller\n        /* \"contracts/ymii/stake1.sol\":14046:14072  _userStakeTime[msg.sender] */\n      0xffffffffffffffffffffffffffffffffffffffff\n      and\n      0xffffffffffffffffffffffffffffffffffffffff\n      and\n      dup2\n      mstore\n      0x20\n      add\n      swap1\n      dup2\n      mstore\n      0x20\n      add\n      0x00\n      keccak256\n      sload\n        /* \"contracts/ymii/stake1.sol\":13998:14017  _userStakeStartTime */\n      0x0e\n        /* \"contracts/ymii/stake1.sol\":13998:14029  _userStakeStartTime[msg.sender] */\n      0x00\n        /* \"contracts/ymii/stake1.sol\":14018:14028  msg.sender */\n      caller\n        /* \"contracts/ymii/stake1.sol\":13998:14029  _userStakeStartTime[msg.sender] */\n      0xffffffffffffffffffffffffffffffffffffffff\n      and\n      0xffffffffffffffffffffffffffffffffffffffff\n      and\n      dup2\n      mstore\n      0x20\n      add\n      swap1\n      dup2\n      mstore\n      0x20\n      add\n      0x00\n      keccak256\n      sload\n        /* \"contracts/ymii/stake1.sol\":13980:13995  block.timestamp */\n      timestamp\n        /* \"contracts/ymii/stake1.sol\":13980:14029  block.timestamp - _userStakeStartTime[msg.sender] */\n      tag_234\n      swap2\n      swap1\n      tag_170\n      jump\t// in\n    tag_234:\n        /* \"contracts/ymii/stake1.sol\":13980:14072  block.timestamp - _userStakeStartTime[msg.sender] >=... */\n      lt\n      iszero\n        /* \"contracts/ymii/stake1.sol\":13958:14108  require(... */\n      tag_235\n      jumpi\n      mload(0x40)\n      0x08c379a000000000000000000000000000000000000000000000000000000000\n      dup2\n      mstore\n      0x04\n      add\n      tag_236\n      swap1\n      tag_237\n      jump\t// in\n    tag_236:\n      mload(0x40)\n      dup1\n      swap2\n      sub\n      swap1\n      revert\n    tag_235:\n        /* \"contracts/ymii/stake1.sol\":14152:14153  0 */\n      0x00\n        /* \"contracts/ymii/stake1.sol\":14127:14137  _userStake */\n      0x0c\n        /* \"contracts/ymii/stake1.sol\":14127:14149  _userStake[msg.sender] */\n      0x00\n        /* \"contracts/ymii/stake1.sol\":14138:14148  msg.sender */\n      caller\n        /* \"contracts/ymii/stake1.sol\":14127:14149  _userStake[msg.sender] */\n      0xffffffffffffffffffffffffffffffffffffffff\n      and\n      0xffffffffffffffffffffffffffffffffffffffff\n      and\n      dup2\n      mstore\n      0x20\n      add\n      swap1\n      dup2\n      mstore\n      0x20\n      add\n      0x00\n      keccak256\n      sload\n        /* \"contracts/ymii/stake1.sol\":14127:14153  _userStake[msg.sender] > 0 */\n      gt\n        /* \"contracts/ymii/stake1.sol\":14119:14167  require(_userStake[msg.sender] > 0, \"not stake\") */\n      tag_238\n      jumpi\n      mload(0x40)\n      0x08c379a000000000000000000000000000000000000000000000000000000000\n      dup2\n      mstore\n      0x04\n      add\n      tag_239\n      swap1\n      tag_205\n      jump\t// in\n    tag_239:\n      mload(0x40)\n      dup1\n      swap2\n      sub\n      swap1\n      revert\n    tag_238:\n        /* \"contracts/ymii/stake1.sol\":14185:14196  _stakeToken */\n      0x02\n      0x00\n      swap1\n      sload\n      swap1\n      0x0100\n      exp\n      swap1\n      div\n      0xffffffffffffffffffffffffffffffffffffffff\n      and\n        /* \"contracts/ymii/stake1.sol\":14178:14206  IERC20(_stakeToken).transfer */\n      0xffffffffffffffffffffffffffffffffffffffff\n      and\n      0xa9059cbb\n        /* \"contracts/ymii/stake1.sol\":14207:14217  msg.sender */\n      caller\n        /* \"contracts/ymii/stake1.sol\":14219:14229  _userStake */\n      0x0c\n        /* \"contracts/ymii/stake1.sol\":14219:14241  _userStake[msg.sender] */\n      0x00\n        /* \"contracts/ymii/stake1.sol\":14230:14240  msg.sender */\n      caller\n        /* \"contracts/ymii/stake1.sol\":14219:14241  _userStake[msg.sender] */\n      0xffffffffffffffffffffffffffffffffffffffff\n      and\n      0xffffffffffffffffffffffffffffffffffffffff\n      and\n      dup2\n      mstore\n      0x20\n      add\n      swap1\n      dup2\n      mstore\n      0x20\n      add\n      0x00\n      keccak256\n      sload\n        /* \"contracts/ymii/stake1.sol\":14178:14242  IERC20(_stakeToken).transfer(msg.sender, _userStake[msg.sender]) */\n      mload(0x40)\n      dup4\n      0xffffffff\n      and\n      0xe0\n      shl\n      dup2\n      mstore\n      0x04\n      add\n      tag_240\n      swap3\n      swap2\n      swap1\n      tag_214\n      jump\t// in\n    tag_240:\n      0x20\n      mload(0x40)\n      dup1\n      dup4\n      sub\n      dup2\n      0x00\n      dup8\n      gas\n      call\n      iszero\n      dup1\n      iszero\n      tag_242\n      jumpi\n      returndatasize\n      0x00\n      dup1\n      returndatacopy\n      revert(0x00, returndatasize)\n    tag_242:\n      pop\n      pop\n      pop\n      pop\n      mload(0x40)\n      returndatasize\n      not(0x1f)\n      0x1f\n      dup3\n      add\n      and\n      dup3\n      add\n      dup1\n      0x40\n      mstore\n      pop\n      dup2\n      add\n      swap1\n      tag_243\n      swap2\n      swap1\n      tag_218\n      jump\t// in\n    tag_243:\n      pop\n        /* \"contracts/ymii/stake1.sol\":14278:14279  0 */\n      0x00\n        /* \"contracts/ymii/stake1.sol\":14253:14263  _userStake */\n      0x0c\n        /* \"contracts/ymii/stake1.sol\":14253:14275  _userStake[msg.sender] */\n      0x00\n        /* \"contracts/ymii/stake1.sol\":14264:14274  msg.sender */\n      caller\n        /* \"contracts/ymii/stake1.sol\":14253:14275  _userStake[msg.sender] */\n      0xffffffffffffffffffffffffffffffffffffffff\n      and\n      0xffffffffffffffffffffffffffffffffffffffff\n      and\n      dup2\n      mstore\n      0x20\n      add\n      swap1\n      dup2\n      mstore\n      0x20\n      add\n      0x00\n      keccak256\n        /* \"contracts/ymii/stake1.sol\":14253:14279  _userStake[msg.sender] = 0 */\n      dup2\n      swap1\n      sstore\n      pop\n        /* \"contracts/ymii/stake1.sol\":14324:14325  0 */\n      0x00\n        /* \"contracts/ymii/stake1.sol\":14290:14309  _userStakeStartTime */\n      0x0e\n        /* \"contracts/ymii/stake1.sol\":14290:14321  _userStakeStartTime[msg.sender] */\n      0x00\n        /* \"contracts/ymii/stake1.sol\":14310:14320  msg.sender */\n      caller\n        /* \"contracts/ymii/stake1.sol\":14290:14321  _userStakeStartTime[msg.sender] */\n      0xffffffffffffffffffffffffffffffffffffffff\n      and\n      0xffffffffffffffffffffffffffffffffffffffff\n      and\n      dup2\n      mstore\n      0x20\n      add\n      swap1\n      dup2\n      mstore\n      0x20\n      add\n      0x00\n      keccak256\n        /* \"contracts/ymii/stake1.sol\":14290:14325  _userStakeStartTime[msg.sender] = 0 */\n      dup2\n      swap1\n      sstore\n      pop\n        /* \"contracts/ymii/stake1.sol\":14368:14369  0 */\n      0x00\n        /* \"contracts/ymii/stake1.sol\":14336:14353  _userEndClaimTime */\n      0x10\n        /* \"contracts/ymii/stake1.sol\":14336:14365  _userEndClaimTime[msg.sender] */\n      0x00\n        /* \"contracts/ymii/stake1.sol\":14354:14364  msg.sender */\n      caller\n        /* \"contracts/ymii/stake1.sol\":14336:14365  _userEndClaimTime[msg.sender] */\n      0xffffffffffffffffffffffffffffffffffffffff\n      and\n      0xffffffffffffffffffffffffffffffffffffffff\n      and\n      dup2\n      mstore\n      0x20\n      add\n      swap1\n      dup2\n      mstore\n      0x20\n      add\n      0x00\n      keccak256\n        /* \"contracts/ymii/stake1.sol\":14336:14369  _userEndClaimTime[msg.sender] = 0 */\n      dup2\n      swap1\n      sstore\n      pop\n        /* \"contracts/ymii/stake1.sol\":14409:14410  0 */\n      0x00\n        /* \"contracts/ymii/stake1.sol\":14380:14394  _userStakeTime */\n      0x0d\n        /* \"contracts/ymii/stake1.sol\":14380:14406  _userStakeTime[msg.sender] */\n      0x00\n        /* \"contracts/ymii/stake1.sol\":14395:14405  msg.sender */\n      caller\n        /* \"contracts/ymii/stake1.sol\":14380:14406  _userStakeTime[msg.sender] */\n      0xffffffffffffffffffffffffffffffffffffffff\n      and\n      0xffffffffffffffffffffffffffffffffffffffff\n      and\n      dup2\n      mstore\n      0x20\n      add\n      swap1\n      dup2\n      mstore\n      0x20\n      add\n      0x00\n      keccak256\n        /* \"contracts/ymii/stake1.sol\":14380:14410  _userStakeTime[msg.sender] = 0 */\n      dup2\n      swap1\n      sstore\n      pop\n        /* \"contracts/ymii/stake1.sol\":14446:14447  0 */\n      0x00\n        /* \"contracts/ymii/stake1.sol\":14421:14431  _userPower */\n      0x11\n        /* \"contracts/ymii/stake1.sol\":14421:14443  _userPower[msg.sender] */\n      0x00\n        /* \"contracts/ymii/stake1.sol\":14432:14442  msg.sender */\n      caller\n        /* \"contracts/ymii/stake1.sol\":14421:14443  _userPower[msg.sender] */\n      0xffffffffffffffffffffffffffffffffffffffff\n      and\n      0xffffffffffffffffffffffffffffffffffffffff\n      and\n      dup2\n      mstore\n      0x20\n      add\n      swap1\n      dup2\n      mstore\n      0x20\n      add\n      0x00\n      keccak256\n        /* \"contracts/ymii/stake1.sol\":14421:14447  _userPower[msg.sender] = 0 */\n      dup2\n      swap1\n      sstore\n      pop\n        /* \"contracts/ymii/stake1.sol\":13917:14455  function cancalStack() public {... */\n      jump\t// out\n        /* \"contracts/ymii/stake1.sol\":9430:9479  mapping(address => uint256) public _inviterReward */\n    tag_142:\n      mstore(0x20, 0x09)\n      dup1\n      0x00\n      mstore\n      keccak256(0x00, 0x40)\n      0x00\n      swap2\n      pop\n      swap1\n      pop\n      sload\n      dup2\n      jump\t// out\n        /* \"contracts/ymii/stake1.sol\":9632:9663  bool public isClaimStart = true */\n    tag_145:\n      0x0b\n      0x01\n      swap1\n      sload\n      swap1\n      0x0100\n      exp\n      swap1\n      div\n      0xff\n      and\n      dup2\n      jump\t// out\n        /* \"contracts/ymii/stake1.sol\":1659:1873  function transferOwnership(address newOwner) public virtual onlyOwner {... */\n    tag_149:\n        /* \"contracts/ymii/stake1.sol\":1610:1620  msg.sender */\n      caller\n        /* \"contracts/ymii/stake1.sol\":1600:1620  _owner == msg.sender */\n      0xffffffffffffffffffffffffffffffffffffffff\n      and\n        /* \"contracts/ymii/stake1.sol\":1600:1606  _owner */\n      0x00\n      dup1\n      sload\n      swap1\n      0x0100\n      exp\n      swap1\n      div\n      0xffffffffffffffffffffffffffffffffffffffff\n      and\n        /* \"contracts/ymii/stake1.sol\":1600:1620  _owner == msg.sender */\n      0xffffffffffffffffffffffffffffffffffffffff\n      and\n      eq\n        /* \"contracts/ymii/stake1.sol\":1592:1631  require(_owner == msg.sender, \"!owner\") */\n      tag_245\n      jumpi\n      mload(0x40)\n      0x08c379a000000000000000000000000000000000000000000000000000000000\n      dup2\n      mstore\n      0x04\n      add\n      tag_246\n      swap1\n      tag_162\n      jump\t// in\n    tag_246:\n      mload(0x40)\n      dup1\n      swap2\n      sub\n      swap1\n      revert\n    tag_245:\n        /* \"contracts/ymii/stake1.sol\":1768:1769  0 */\n      0x00\n        /* \"contracts/ymii/stake1.sol\":1748:1770  newOwner != address(0) */\n      0xffffffffffffffffffffffffffffffffffffffff\n      and\n        /* \"contracts/ymii/stake1.sol\":1748:1756  newOwner */\n      dup2\n        /* \"contracts/ymii/stake1.sol\":1748:1770  newOwner != address(0) */\n      0xffffffffffffffffffffffffffffffffffffffff\n      and\n      sub\n        /* \"contracts/ymii/stake1.sol\":1740:1783  require(newOwner != address(0), \"new is 0\") */\n      tag_248\n      jumpi\n      mload(0x40)\n      0x08c379a000000000000000000000000000000000000000000000000000000000\n      dup2\n      mstore\n      0x04\n      add\n      tag_249\n      swap1\n      tag_250\n      jump\t// in\n    tag_249:\n      mload(0x40)\n      dup1\n      swap2\n      sub\n      swap1\n      revert\n    tag_248:\n        /* \"contracts/ymii/stake1.sol\":1828:1836  newOwner */\n      dup1\n        /* \"contracts/ymii/stake1.sol\":1799:1837  OwnershipTransferred(_owner, newOwner) */\n      0xffffffffffffffffffffffffffffffffffffffff\n      and\n        /* \"contracts/ymii/stake1.sol\":1820:1826  _owner */\n      0x00\n      dup1\n      sload\n      swap1\n      0x0100\n      exp\n      swap1\n      div\n      0xffffffffffffffffffffffffffffffffffffffff\n      and\n        /* \"contracts/ymii/stake1.sol\":1799:1837  OwnershipTransferred(_owner, newOwner) */\n      0xffffffffffffffffffffffffffffffffffffffff\n      and\n      0x8be0079c531659141344cd1fd0a4f28419497f9722a3daafe3b4186f6b6457e0\n      mload(0x40)\n      mload(0x40)\n      dup1\n      swap2\n      sub\n      swap1\n      log3\n        /* \"contracts/ymii/stake1.sol\":1857:1865  newOwner */\n      dup1\n        /* \"contracts/ymii/stake1.sol\":1848:1854  _owner */\n      0x00\n      dup1\n        /* \"contracts/ymii/stake1.sol\":1848:1865  _owner = newOwner */\n      0x0100\n      exp\n      dup2\n      sload\n      dup2\n      0xffffffffffffffffffffffffffffffffffffffff\n      mul\n      not\n      and\n      swap1\n      dup4\n      0xffffffffffffffffffffffffffffffffffffffff\n      and\n      mul\n      or\n      swap1\n      sstore\n      pop\n        /* \"contracts/ymii/stake1.sol\":1659:1873  function transferOwnership(address newOwner) public virtual onlyOwner {... */\n      pop\n      jump\t// out\n        /* \"contracts/ymii/stake1.sol\":9573:9604  bool public isStakeStart = true */\n    tag_151:\n      0x0b\n      0x00\n      swap1\n      sload\n      swap1\n      0x0100\n      exp\n      swap1\n      div\n      0xff\n      and\n      dup2\n      jump\t// out\n        /* \"contracts/ymii/stake1.sol\":16146:16531  function cancalStackOver() public onlyOwner{      ... */\n    tag_154:\n        /* \"contracts/ymii/stake1.sol\":1610:1620  msg.sender */\n      caller\n        /* \"contracts/ymii/stake1.sol\":1600:1620  _owner == msg.sender */\n      0xffffffffffffffffffffffffffffffffffffffff\n      and\n        /* \"contracts/ymii/stake1.sol\":1600:1606  _owner */\n      0x00\n      dup1\n      sload\n      swap1\n      0x0100\n      exp\n      swap1\n      div\n      0xffffffffffffffffffffffffffffffffffffffff\n      and\n        /* \"contracts/ymii/stake1.sol\":1600:1620  _owner == msg.sender */\n      0xffffffffffffffffffffffffffffffffffffffff\n      and\n      eq\n        /* \"contracts/ymii/stake1.sol\":1592:1631  require(_owner == msg.sender, \"!owner\") */\n      tag_252\n      jumpi\n      mload(0x40)\n      0x08c379a000000000000000000000000000000000000000000000000000000000\n      dup2\n      mstore\n      0x04\n      add\n      tag_253\n      swap1\n      tag_162\n      jump\t// in\n    tag_253:\n      mload(0x40)\n      dup1\n      swap2\n      sub\n      swap1\n      revert\n    tag_252:\n        /* \"contracts/ymii/stake1.sol\":16239:16240  0 */\n      0x00\n        /* \"contracts/ymii/stake1.sol\":16214:16224  _userStake */\n      0x0c\n        /* \"contracts/ymii/stake1.sol\":16214:16236  _userStake[msg.sender] */\n      0x00\n        /* \"contracts/ymii/stake1.sol\":16225:16235  msg.sender */\n      caller\n        /* \"contracts/ymii/stake1.sol\":16214:16236  _userStake[msg.sender] */\n      0xffffffffffffffffffffffffffffffffffffffff\n      and\n      0xffffffffffffffffffffffffffffffffffffffff\n      and\n      dup2\n      mstore\n      0x20\n      add\n      swap1\n      dup2\n      mstore\n      0x20\n      add\n      0x00\n      keccak256\n      sload\n        /* \"contracts/ymii/stake1.sol\":16214:16240  _userStake[msg.sender] > 0 */\n      gt\n        /* \"contracts/ymii/stake1.sol\":16206:16254  require(_userStake[msg.sender] > 0, \"not stake\") */\n      tag_255\n      jumpi\n      mload(0x40)\n      0x08c379a000000000000000000000000000000000000000000000000000000000\n      dup2\n      mstore\n      0x04\n      add\n      tag_256\n      swap1\n      tag_205\n      jump\t// in\n    tag_256:\n      mload(0x40)\n      dup1\n      swap2\n      sub\n      swap1\n      revert\n    tag_255:\n        /* \"contracts/ymii/stake1.sol\":16272:16283  _stakeToken */\n      0x02\n      0x00\n      swap1\n      sload\n      swap1\n      0x0100\n      exp\n      swap1\n      div\n      0xffffffffffffffffffffffffffffffffffffffff\n      and\n        /* \"contracts/ymii/stake1.sol\":16265:16293  IERC20(_stakeToken).transfer */\n      0xffffffffffffffffffffffffffffffffffffffff\n      and\n      0xa9059cbb\n        /* \"contracts/ymii/stake1.sol\":16294:16304  msg.sender */\n      caller\n        /* \"contracts/ymii/stake1.sol\":16306:16317  _proportion */\n      sload(0x07)\n        /* \"contracts/ymii/stake1.sol\":16265:16318  IERC20(_stakeToken).transfer(msg.sender, _proportion) */\n      mload(0x40)\n      dup4\n      0xffffffff\n      and\n      0xe0\n      shl\n      dup2\n      mstore\n      0x04\n      add\n      tag_257\n      swap3\n      swap2\n      swap1\n      tag_214\n      jump\t// in\n    tag_257:\n      0x20\n      mload(0x40)\n      dup1\n      dup4\n      sub\n      dup2\n      0x00\n      dup8\n      gas\n      call\n      iszero\n      dup1\n      iszero\n      tag_259\n      jumpi\n      returndatasize\n      0x00\n      dup1\n      returndatacopy\n      revert(0x00, returndatasize)\n    tag_259:\n      pop\n      pop\n      pop\n      pop\n      mload(0x40)\n      returndatasize\n      not(0x1f)\n      0x1f\n      dup3\n      add\n      and\n      dup3\n      add\n      dup1\n      0x40\n      mstore\n      pop\n      dup2\n      add\n      swap1\n      tag_260\n      swap2\n      swap1\n      tag_218\n      jump\t// in\n    tag_260:\n      pop\n        /* \"contracts/ymii/stake1.sol\":16354:16355  0 */\n      0x00\n        /* \"contracts/ymii/stake1.sol\":16329:16339  _userStake */\n      0x0c\n        /* \"contracts/ymii/stake1.sol\":16329:16351  _userStake[msg.sender] */\n      0x00\n        /* \"contracts/ymii/stake1.sol\":16340:16350  msg.sender */\n      caller\n        /* \"contracts/ymii/stake1.sol\":16329:16351  _userStake[msg.sender] */\n      0xffffffffffffffffffffffffffffffffffffffff\n      and\n      0xffffffffffffffffffffffffffffffffffffffff\n      and\n      dup2\n      mstore\n      0x20\n      add\n      swap1\n      dup2\n      mstore\n      0x20\n      add\n      0x00\n      keccak256\n        /* \"contracts/ymii/stake1.sol\":16329:16355  _userStake[msg.sender] = 0 */\n      dup2\n      swap1\n      sstore\n      pop\n        /* \"contracts/ymii/stake1.sol\":16400:16401  0 */\n      0x00\n        /* \"contracts/ymii/stake1.sol\":16366:16385  _userStakeStartTime */\n      0x0e\n        /* \"contracts/ymii/stake1.sol\":16366:16397  _userStakeStartTime[msg.sender] */\n      0x00\n        /* \"contracts/ymii/stake1.sol\":16386:16396  msg.sender */\n      caller\n        /* \"contracts/ymii/stake1.sol\":16366:16397  _userStakeStartTime[msg.sender] */\n      0xffffffffffffffffffffffffffffffffffffffff\n      and\n      0xffffffffffffffffffffffffffffffffffffffff\n      and\n      dup2\n      mstore\n      0x20\n      add\n      swap1\n      dup2\n      mstore\n      0x20\n      add\n      0x00\n      keccak256\n        /* \"contracts/ymii/stake1.sol\":16366:16401  _userStakeStartTime[msg.sender] = 0 */\n      dup2\n      swap1\n      sstore\n      pop\n        /* \"contracts/ymii/stake1.sol\":16444:16445  0 */\n      0x00\n        /* \"contracts/ymii/stake1.sol\":16412:16429  _userEndClaimTime */\n      0x10\n        /* \"contracts/ymii/stake1.sol\":16412:16441  _userEndClaimTime[msg.sender] */\n      0x00\n        /* \"contracts/ymii/stake1.sol\":16430:16440  msg.sender */\n      caller\n        /* \"contracts/ymii/stake1.sol\":16412:16441  _userEndClaimTime[msg.sender] */\n      0xffffffffffffffffffffffffffffffffffffffff\n      and\n      0xffffffffffffffffffffffffffffffffffffffff\n      and\n      dup2\n      mstore\n      0x20\n      add\n      swap1\n      dup2\n      mstore\n      0x20\n      add\n      0x00\n      keccak256\n        /* \"contracts/ymii/stake1.sol\":16412:16445  _userEndClaimTime[msg.sender] = 0 */\n      dup2\n      swap1\n      sstore\n      pop\n        /* \"contracts/ymii/stake1.sol\":16485:16486  0 */\n      0x00\n        /* \"contracts/ymii/stake1.sol\":16456:16470  _userStakeTime */\n      0x0d\n        /* \"contracts/ymii/stake1.sol\":16456:16482  _userStakeTime[msg.sender] */\n      0x00\n        /* \"contracts/ymii/stake1.sol\":16471:16481  msg.sender */\n      caller\n        /* \"contracts/ymii/stake1.sol\":16456:16482  _userStakeTime[msg.sender] */\n      0xffffffffffffffffffffffffffffffffffffffff\n      and\n      0xffffffffffffffffffffffffffffffffffffffff\n      and\n      dup2\n      mstore\n      0x20\n      add\n      swap1\n      dup2\n      mstore\n      0x20\n      add\n      0x00\n      keccak256\n        /* \"contracts/ymii/stake1.sol\":16456:16486  _userStakeTime[msg.sender] = 0 */\n      dup2\n      swap1\n      sstore\n      pop\n        /* \"contracts/ymii/stake1.sol\":16522:16523  0 */\n      0x00\n        /* \"contracts/ymii/stake1.sol\":16497:16507  _userPower */\n      0x11\n        /* \"contracts/ymii/stake1.sol\":16497:16519  _userPower[msg.sender] */\n      0x00\n        /* \"contracts/ymii/stake1.sol\":16508:16518  msg.sender */\n      caller\n        /* \"contracts/ymii/stake1.sol\":16497:16519  _userPower[msg.sender] */\n      0xffffffffffffffffffffffffffffffffffffffff\n      and\n      0xffffffffffffffffffffffffffffffffffffffff\n      and\n      dup2\n      mstore\n      0x20\n      add\n      swap1\n      dup2\n      mstore\n      0x20\n      add\n      0x00\n      keccak256\n        /* \"contracts/ymii/stake1.sol\":16497:16523  _userPower[msg.sender] = 0 */\n      dup2\n      swap1\n      sstore\n      pop\n        /* \"contracts/ymii/stake1.sol\":16146:16531  function cancalStackOver() public onlyOwner{      ... */\n      jump\t// out\n        /* \"contracts/ymii/stake1.sol\":10979:13582  function stake(... */\n    tag_158:\n        /* \"contracts/ymii/stake1.sol\":11130:11142  isStakeStart */\n      0x0b\n      0x00\n      swap1\n      sload\n      swap1\n      0x0100\n      exp\n      swap1\n      div\n      0xff\n      and\n        /* \"contracts/ymii/stake1.sol\":11122:11156  require(isStakeStart, \"not start\") */\n      tag_262\n      jumpi\n      mload(0x40)\n      0x08c379a000000000000000000000000000000000000000000000000000000000\n      dup2\n      mstore\n      0x04\n      add\n      tag_263\n      swap1\n      tag_202\n      jump\t// in\n    tag_263:\n      mload(0x40)\n      dup1\n      swap2\n      sub\n      swap1\n      revert\n    tag_262:\n        /* \"contracts/ymii/stake1.sol\":11186:11196  msg.sender */\n      caller\n        /* \"contracts/ymii/stake1.sol\":11175:11196  inviter != msg.sender */\n      0xffffffffffffffffffffffffffffffffffffffff\n      and\n        /* \"contracts/ymii/stake1.sol\":11175:11182  inviter */\n      dup4\n        /* \"contracts/ymii/stake1.sol\":11175:11196  inviter != msg.sender */\n      0xffffffffffffffffffffffffffffffffffffffff\n      and\n      sub\n        /* \"contracts/ymii/stake1.sol\":11167:11221  require(inviter != msg.sender, \"inviter cant by self\") */\n      tag_264\n      jumpi\n      mload(0x40)\n      0x08c379a000000000000000000000000000000000000000000000000000000000\n      dup2\n      mstore\n      0x04\n      add\n      tag_265\n      swap1\n      tag_266\n      jump\t// in\n    tag_265:\n      mload(0x40)\n      dup1\n      swap2\n      sub\n      swap1\n      revert\n    tag_264:\n        /* \"contracts/ymii/stake1.sol\":11266:11267  0 */\n      0x00\n        /* \"contracts/ymii/stake1.sol\":11240:11250  _userStake */\n      0x0c\n        /* \"contracts/ymii/stake1.sol\":11240:11262  _userStake[msg.sender] */\n      0x00\n        /* \"contracts/ymii/stake1.sol\":11251:11261  msg.sender */\n      caller\n        /* \"contracts/ymii/stake1.sol\":11240:11262  _userStake[msg.sender] */\n      0xffffffffffffffffffffffffffffffffffffffff\n      and\n      0xffffffffffffffffffffffffffffffffffffffff\n      and\n      dup2\n      mstore\n      0x20\n      add\n      swap1\n      dup2\n      mstore\n      0x20\n      add\n      0x00\n      keccak256\n      sload\n        /* \"contracts/ymii/stake1.sol\":11240:11267  _userStake[msg.sender] == 0 */\n      eq\n        /* \"contracts/ymii/stake1.sol\":11232:11285  require(_userStake[msg.sender] == 0, \"already stake\") */\n      tag_267\n      jumpi\n      mload(0x40)\n      0x08c379a000000000000000000000000000000000000000000000000000000000\n      dup2\n      mstore\n      0x04\n      add\n      tag_268\n      swap1\n      tag_269\n      jump\t// in\n    tag_268:\n      mload(0x40)\n      dup1\n      swap2\n      sub\n      swap1\n      revert\n    tag_267:\n        /* \"contracts/ymii/stake1.sol\":11313:11314  0 */\n      0x00\n        /* \"contracts/ymii/stake1.sol\":11304:11310  amount */\n      dup5\n        /* \"contracts/ymii/stake1.sol\":11304:11314  amount > 0 */\n      gt\n        /* \"contracts/ymii/stake1.sol\":11296:11329  require(amount > 0, \"zero stake\") */\n      tag_270\n      jumpi\n      mload(0x40)\n      0x08c379a000000000000000000000000000000000000000000000000000000000\n      dup2\n      mstore\n      0x04\n      add\n      tag_271\n      swap1\n      tag_272\n      jump\t// in\n    tag_271:\n      mload(0x40)\n      dup1\n      swap2\n      sub\n      swap1\n      revert\n    tag_270:\n        /* \"contracts/ymii/stake1.sol\":11370:11377  _stake1 */\n      sload(0x04)\n        /* \"contracts/ymii/stake1.sol\":11362:11366  time */\n      dup3\n        /* \"contracts/ymii/stake1.sol\":11362:11377  time == _stake1 */\n      eq\n        /* \"contracts/ymii/stake1.sol\":11362:11396  time == _stake1 || time == _stake3 */\n      dup1\n      tag_273\n      jumpi\n      pop\n        /* \"contracts/ymii/stake1.sol\":11389:11396  _stake3 */\n      sload(0x05)\n        /* \"contracts/ymii/stake1.sol\":11381:11385  time */\n      dup3\n        /* \"contracts/ymii/stake1.sol\":11381:11396  time == _stake3 */\n      eq\n        /* \"contracts/ymii/stake1.sol\":11362:11396  time == _stake1 || time == _stake3 */\n    tag_273:\n        /* \"contracts/ymii/stake1.sol\":11362:11415  time == _stake1 || time == _stake3 || time == _stake5 */\n      dup1\n      tag_274\n      jumpi\n      pop\n        /* \"contracts/ymii/stake1.sol\":11408:11415  _stake5 */\n      sload(0x06)\n        /* \"contracts/ymii/stake1.sol\":11400:11404  time */\n      dup3\n        /* \"contracts/ymii/stake1.sol\":11400:11415  time == _stake5 */\n      eq\n        /* \"contracts/ymii/stake1.sol\":11362:11415  time == _stake1 || time == _stake3 || time == _stake5 */\n    tag_274:\n        /* \"contracts/ymii/stake1.sol\":11340:11457  require(... */\n      tag_275\n      jumpi\n      mload(0x40)\n      0x08c379a000000000000000000000000000000000000000000000000000000000\n      dup2\n      mstore\n      0x04\n      add\n      tag_276\n      swap1\n      tag_277\n      jump\t// in\n    tag_276:\n      mload(0x40)\n      dup1\n      swap2\n      sub\n      swap1\n      revert\n    tag_275:\n        /* \"contracts/ymii/stake1.sol\":11468:11480  uint256 base */\n      0x00\n        /* \"contracts/ymii/stake1.sol\":11615:11622  _stake1 */\n      sload(0x04)\n        /* \"contracts/ymii/stake1.sol\":11607:11611  time */\n      dup4\n        /* \"contracts/ymii/stake1.sol\":11607:11622  time == _stake1 */\n      sub\n        /* \"contracts/ymii/stake1.sol\":11603:12994  if (time == _stake1) {... */\n      tag_278\n      jumpi\n        /* \"contracts/ymii/stake1.sol\":11646:12050  SafeMath.div(... */\n      tag_279\n        /* \"contracts/ymii/stake1.sol\":11677:12009  SafeMath.div(... */\n      tag_280\n        /* \"contracts/ymii/stake1.sol\":11712:11963  SafeMath.div(... */\n      tag_281\n        /* \"contracts/ymii/stake1.sol\":11751:11910  SafeMath.mul(... */\n      tag_282\n        /* \"contracts/ymii/stake1.sol\":11794:11841  SafeMath.mul(SafeMath.mul(amount, 8), _lpPrice) */\n      tag_283\n        /* \"contracts/ymii/stake1.sol\":11807:11830  SafeMath.mul(amount, 8) */\n      tag_284\n        /* \"contracts/ymii/stake1.sol\":11820:11826  amount */\n      dup11\n        /* \"contracts/ymii/stake1.sol\":11828:11829  8 */\n      0x08\n        /* \"contracts/ymii/stake1.sol\":11807:11819  SafeMath.mul */\n      tag_179\n        /* \"contracts/ymii/stake1.sol\":11807:11830  SafeMath.mul(amount, 8) */\n      jump\t// in\n    tag_284:\n        /* \"contracts/ymii/stake1.sol\":11832:11840  _lpPrice */\n      dup8\n        /* \"contracts/ymii/stake1.sol\":11794:11806  SafeMath.mul */\n      tag_179\n        /* \"contracts/ymii/stake1.sol\":11794:11841  SafeMath.mul(SafeMath.mul(amount, 8), _lpPrice) */\n      jump\t// in\n    tag_283:\n        /* \"contracts/ymii/stake1.sol\":11872:11883  _proportion */\n      sload(0x07)\n        /* \"contracts/ymii/stake1.sol\":11751:11763  SafeMath.mul */\n      tag_179\n        /* \"contracts/ymii/stake1.sol\":11751:11910  SafeMath.mul(... */\n      jump\t// in\n    tag_282:\n        /* \"contracts/ymii/stake1.sol\":11937:11940  100 */\n      0x64\n        /* \"contracts/ymii/stake1.sol\":11712:11724  SafeMath.div */\n      tag_285\n        /* \"contracts/ymii/stake1.sol\":11712:11963  SafeMath.div(... */\n      jump\t// in\n    tag_281:\n        /* \"contracts/ymii/stake1.sol\":11986:11990  1000 */\n      0x03e8\n        /* \"contracts/ymii/stake1.sol\":11677:11689  SafeMath.div */\n      tag_285\n        /* \"contracts/ymii/stake1.sol\":11677:12009  SafeMath.div(... */\n      jump\t// in\n    tag_280:\n        /* \"contracts/ymii/stake1.sol\":12028:12035  _stake1 */\n      sload(0x04)\n        /* \"contracts/ymii/stake1.sol\":11646:11658  SafeMath.div */\n      tag_285\n        /* \"contracts/ymii/stake1.sol\":11646:12050  SafeMath.div(... */\n      jump\t// in\n    tag_279:\n        /* \"contracts/ymii/stake1.sol\":11639:12050  base = SafeMath.div(... */\n      swap1\n      pop\n        /* \"contracts/ymii/stake1.sol\":11603:12994  if (time == _stake1) {... */\n      jump(tag_286)\n    tag_278:\n        /* \"contracts/ymii/stake1.sol\":12080:12087  _stake3 */\n      sload(0x05)\n        /* \"contracts/ymii/stake1.sol\":12072:12076  time */\n      dup4\n        /* \"contracts/ymii/stake1.sol\":12072:12087  time == _stake3 */\n      sub\n        /* \"contracts/ymii/stake1.sol\":12068:12994  if (time == _stake3) {... */\n      tag_287\n      jumpi\n        /* \"contracts/ymii/stake1.sol\":12111:12516  SafeMath.div(... */\n      tag_288\n        /* \"contracts/ymii/stake1.sol\":12142:12475  SafeMath.div(... */\n      tag_289\n        /* \"contracts/ymii/stake1.sol\":12177:12429  SafeMath.div(... */\n      tag_290\n        /* \"contracts/ymii/stake1.sol\":12216:12376  SafeMath.mul(... */\n      tag_291\n        /* \"contracts/ymii/stake1.sol\":12259:12307  SafeMath.mul(SafeMath.mul(amount, 13), _lpPrice) */\n      tag_292\n        /* \"contracts/ymii/stake1.sol\":12272:12296  SafeMath.mul(amount, 13) */\n      tag_293\n        /* \"contracts/ymii/stake1.sol\":12285:12291  amount */\n      dup11\n        /* \"contracts/ymii/stake1.sol\":12293:12295  13 */\n      0x0d\n        /* \"contracts/ymii/stake1.sol\":12272:12284  SafeMath.mul */\n      tag_179\n        /* \"contracts/ymii/stake1.sol\":12272:12296  SafeMath.mul(amount, 13) */\n      jump\t// in\n    tag_293:\n        /* \"contracts/ymii/stake1.sol\":12298:12306  _lpPrice */\n      dup8\n        /* \"contracts/ymii/stake1.sol\":12259:12271  SafeMath.mul */\n      tag_179\n        /* \"contracts/ymii/stake1.sol\":12259:12307  SafeMath.mul(SafeMath.mul(amount, 13), _lpPrice) */\n      jump\t// in\n    tag_292:\n        /* \"contracts/ymii/stake1.sol\":12338:12349  _proportion */\n      sload(0x07)\n        /* \"contracts/ymii/stake1.sol\":12216:12228  SafeMath.mul */\n      tag_179\n        /* \"contracts/ymii/stake1.sol\":12216:12376  SafeMath.mul(... */\n      jump\t// in\n    tag_291:\n        /* \"contracts/ymii/stake1.sol\":12403:12406  100 */\n      0x64\n        /* \"contracts/ymii/stake1.sol\":12177:12189  SafeMath.div */\n      tag_285\n        /* \"contracts/ymii/stake1.sol\":12177:12429  SafeMath.div(... */\n      jump\t// in\n    tag_290:\n        /* \"contracts/ymii/stake1.sol\":12452:12456  1000 */\n      0x03e8\n        /* \"contracts/ymii/stake1.sol\":12142:12154  SafeMath.div */\n      tag_285\n        /* \"contracts/ymii/stake1.sol\":12142:12475  SafeMath.div(... */\n      jump\t// in\n    tag_289:\n        /* \"contracts/ymii/stake1.sol\":12494:12501  _stake1 */\n      sload(0x04)\n        /* \"contracts/ymii/stake1.sol\":12111:12123  SafeMath.div */\n      tag_285\n        /* \"contracts/ymii/stake1.sol\":12111:12516  SafeMath.div(... */\n      jump\t// in\n    tag_288:\n        /* \"contracts/ymii/stake1.sol\":12104:12516  base = SafeMath.div(... */\n      swap1\n      pop\n        /* \"contracts/ymii/stake1.sol\":12068:12994  if (time == _stake3) {... */\n      jump(tag_294)\n    tag_287:\n        /* \"contracts/ymii/stake1.sol\":12546:12553  _stake5 */\n      sload(0x06)\n        /* \"contracts/ymii/stake1.sol\":12538:12542  time */\n      dup4\n        /* \"contracts/ymii/stake1.sol\":12538:12553  time == _stake5 */\n      sub\n        /* \"contracts/ymii/stake1.sol\":12534:12994  if (time == _stake5) {... */\n      tag_295\n      jumpi\n        /* \"contracts/ymii/stake1.sol\":12577:12982  SafeMath.div(... */\n      tag_296\n        /* \"contracts/ymii/stake1.sol\":12608:12941  SafeMath.div(... */\n      tag_297\n        /* \"contracts/ymii/stake1.sol\":12643:12895  SafeMath.div(... */\n      tag_298\n        /* \"contracts/ymii/stake1.sol\":12682:12842  SafeMath.mul(... */\n      tag_299\n        /* \"contracts/ymii/stake1.sol\":12725:12773  SafeMath.mul(SafeMath.mul(amount, 16), _lpPrice) */\n      tag_300\n        /* \"contracts/ymii/stake1.sol\":12738:12762  SafeMath.mul(amount, 16) */\n      tag_301\n        /* \"contracts/ymii/stake1.sol\":12751:12757  amount */\n      dup11\n        /* \"contracts/ymii/stake1.sol\":12759:12761  16 */\n      0x10\n        /* \"contracts/ymii/stake1.sol\":12738:12750  SafeMath.mul */\n      tag_179\n        /* \"contracts/ymii/stake1.sol\":12738:12762  SafeMath.mul(amount, 16) */\n      jump\t// in\n    tag_301:\n        /* \"contracts/ymii/stake1.sol\":12764:12772  _lpPrice */\n      dup8\n        /* \"contracts/ymii/stake1.sol\":12725:12737  SafeMath.mul */\n      tag_179\n        /* \"contracts/ymii/stake1.sol\":12725:12773  SafeMath.mul(SafeMath.mul(amount, 16), _lpPrice) */\n      jump\t// in\n    tag_300:\n        /* \"contracts/ymii/stake1.sol\":12804:12815  _proportion */\n      sload(0x07)\n        /* \"contracts/ymii/stake1.sol\":12682:12694  SafeMath.mul */\n      tag_179\n        /* \"contracts/ymii/stake1.sol\":12682:12842  SafeMath.mul(... */\n      jump\t// in\n    tag_299:\n        /* \"contracts/ymii/stake1.sol\":12869:12872  100 */\n      0x64\n        /* \"contracts/ymii/stake1.sol\":12643:12655  SafeMath.div */\n      tag_285\n        /* \"contracts/ymii/stake1.sol\":12643:12895  SafeMath.div(... */\n      jump\t// in\n    tag_298:\n        /* \"contracts/ymii/stake1.sol\":12918:12922  1000 */\n      0x03e8\n        /* \"contracts/ymii/stake1.sol\":12608:12620  SafeMath.div */\n      tag_285\n        /* \"contracts/ymii/stake1.sol\":12608:12941  SafeMath.div(... */\n      jump\t// in\n    tag_297:\n        /* \"contracts/ymii/stake1.sol\":12960:12967  _stake1 */\n      sload(0x04)\n        /* \"contracts/ymii/stake1.sol\":12577:12589  SafeMath.div */\n      tag_285\n        /* \"contracts/ymii/stake1.sol\":12577:12982  SafeMath.div(... */\n      jump\t// in\n    tag_296:\n        /* \"contracts/ymii/stake1.sol\":12570:12982  base = SafeMath.div(... */\n      swap1\n      pop\n        /* \"contracts/ymii/stake1.sol\":12534:12994  if (time == _stake5) {... */\n    tag_295:\n        /* \"contracts/ymii/stake1.sol\":12068:12994  if (time == _stake3) {... */\n    tag_294:\n        /* \"contracts/ymii/stake1.sol\":11603:12994  if (time == _stake1) {... */\n    tag_286:\n        /* \"contracts/ymii/stake1.sol\":13029:13030  0 */\n      0x00\n        /* \"contracts/ymii/stake1.sol\":13010:13031  inviter != address(0) */\n      0xffffffffffffffffffffffffffffffffffffffff\n      and\n        /* \"contracts/ymii/stake1.sol\":13010:13017  inviter */\n      dup5\n        /* \"contracts/ymii/stake1.sol\":13010:13031  inviter != address(0) */\n      0xffffffffffffffffffffffffffffffffffffffff\n      and\n      eq\n        /* \"contracts/ymii/stake1.sol\":13006:13246  if (inviter != address(0)) {... */\n      tag_302\n      jumpi\n        /* \"contracts/ymii/stake1.sol\":13074:13081  inviter */\n      dup4\n        /* \"contracts/ymii/stake1.sol\":13048:13059  _inviterMap */\n      0x08\n        /* \"contracts/ymii/stake1.sol\":13048:13071  _inviterMap[msg.sender] */\n      0x00\n        /* \"contracts/ymii/stake1.sol\":13060:13070  msg.sender */\n      caller\n        /* \"contracts/ymii/stake1.sol\":13048:13071  _inviterMap[msg.sender] */\n      0xffffffffffffffffffffffffffffffffffffffff\n      and\n      0xffffffffffffffffffffffffffffffffffffffff\n      and\n      dup2\n      mstore\n      0x20\n      add\n      swap1\n      dup2\n      mstore\n      0x20\n      add\n      0x00\n      keccak256\n      0x00\n        /* \"contracts/ymii/stake1.sol\":13048:13081  _inviterMap[msg.sender] = inviter */\n      0x0100\n      exp\n      dup2\n      sload\n      dup2\n      0xffffffffffffffffffffffffffffffffffffffff\n      mul\n      not\n      and\n      swap1\n      dup4\n      0xffffffffffffffffffffffffffffffffffffffff\n      and\n      mul\n      or\n      swap1\n      sstore\n      pop\n        /* \"contracts/ymii/stake1.sol\":13189:13195  100000 */\n      0x0186a0\n        /* \"contracts/ymii/stake1.sol\":13161:13172  _proportion */\n      sload(0x07)\n        /* \"contracts/ymii/stake1.sol\":13157:13158  5 */\n      0x05\n        /* \"contracts/ymii/stake1.sol\":13148:13154  amount */\n      dup8\n        /* \"contracts/ymii/stake1.sol\":13137:13145  _lpPrice */\n      dup6\n        /* \"contracts/ymii/stake1.sol\":13137:13154  _lpPrice * amount */\n      tag_303\n      swap2\n      swap1\n      tag_304\n      jump\t// in\n    tag_303:\n        /* \"contracts/ymii/stake1.sol\":13137:13158  _lpPrice * amount * 5 */\n      tag_305\n      swap2\n      swap1\n      tag_304\n      jump\t// in\n    tag_305:\n        /* \"contracts/ymii/stake1.sol\":13137:13172  _lpPrice * amount * 5 * _proportion */\n      tag_306\n      swap2\n      swap1\n      tag_304\n      jump\t// in\n    tag_306:\n        /* \"contracts/ymii/stake1.sol\":13136:13195  (_lpPrice * amount * 5 * _proportion) /... */\n      tag_307\n      swap2\n      swap1\n      tag_308\n      jump\t// in\n    tag_307:\n        /* \"contracts/ymii/stake1.sol\":13096:13110  _inviterReward */\n      0x09\n        /* \"contracts/ymii/stake1.sol\":13096:13119  _inviterReward[inviter] */\n      0x00\n        /* \"contracts/ymii/stake1.sol\":13111:13118  inviter */\n      dup7\n        /* \"contracts/ymii/stake1.sol\":13096:13119  _inviterReward[inviter] */\n      0xffffffffffffffffffffffffffffffffffffffff\n      and\n      0xffffffffffffffffffffffffffffffffffffffff\n      and\n      dup2\n      mstore\n      0x20\n      add\n      swap1\n      dup2\n      mstore\n      0x20\n      add\n      0x00\n      keccak256\n      0x00\n        /* \"contracts/ymii/stake1.sol\":13096:13195  _inviterReward[inviter] +=... */\n      dup3\n      dup3\n      sload\n      tag_309\n      swap2\n      swap1\n      tag_310\n      jump\t// in\n    tag_309:\n      swap3\n      pop\n      pop\n      dup2\n      swap1\n      sstore\n      pop\n        /* \"contracts/ymii/stake1.sol\":13233:13234  1 */\n      0x01\n        /* \"contracts/ymii/stake1.sol\":13210:13220  _inviteNum */\n      0x0a\n        /* \"contracts/ymii/stake1.sol\":13210:13229  _inviteNum[inviter] */\n      0x00\n        /* \"contracts/ymii/stake1.sol\":13221:13228  inviter */\n      dup7\n        /* \"contracts/ymii/stake1.sol\":13210:13229  _inviteNum[inviter] */\n      0xffffffffffffffffffffffffffffffffffffffff\n      and\n      0xffffffffffffffffffffffffffffffffffffffff\n      and\n      dup2\n      mstore\n      0x20\n      add\n      swap1\n      dup2\n      mstore\n      0x20\n      add\n      0x00\n      keccak256\n      0x00\n        /* \"contracts/ymii/stake1.sol\":13210:13234  _inviteNum[inviter] += 1 */\n      dup3\n      dup3\n      sload\n      tag_311\n      swap2\n      swap1\n      tag_310\n      jump\t// in\n    tag_311:\n      swap3\n      pop\n      pop\n      dup2\n      swap1\n      sstore\n      pop\n        /* \"contracts/ymii/stake1.sol\":13006:13246  if (inviter != address(0)) {... */\n    tag_302:\n        /* \"contracts/ymii/stake1.sol\":13263:13274  _stakeToken */\n      0x02\n      0x00\n      swap1\n      sload\n      swap1\n      0x0100\n      exp\n      swap1\n      div\n      0xffffffffffffffffffffffffffffffffffffffff\n      and\n        /* \"contracts/ymii/stake1.sol\":13256:13288  IERC20(_stakeToken).transferFrom */\n      0xffffffffffffffffffffffffffffffffffffffff\n      and\n      0x23b872dd\n        /* \"contracts/ymii/stake1.sol\":13289:13299  msg.sender */\n      caller\n        /* \"contracts/ymii/stake1.sol\":13309:13313  this */\n      address\n        /* \"contracts/ymii/stake1.sol\":13316:13322  amount */\n      dup9\n        /* \"contracts/ymii/stake1.sol\":13256:13323  IERC20(_stakeToken).transferFrom(msg.sender, address(this), amount) */\n      mload(0x40)\n      dup5\n      0xffffffff\n      and\n      0xe0\n      shl\n      dup2\n      mstore\n      0x04\n      add\n      tag_312\n      swap4\n      swap3\n      swap2\n      swap1\n      tag_313\n      jump\t// in\n    tag_312:\n      0x20\n      mload(0x40)\n      dup1\n      dup4\n      sub\n      dup2\n      0x00\n      dup8\n      gas\n      call\n      iszero\n      dup1\n      iszero\n      tag_315\n      jumpi\n      returndatasize\n      0x00\n      dup1\n      returndatacopy\n      revert(0x00, returndatasize)\n    tag_315:\n      pop\n      pop\n      pop\n      pop\n      mload(0x40)\n      returndatasize\n      not(0x1f)\n      0x1f\n      dup3\n      add\n      and\n      dup3\n      add\n      dup1\n      0x40\n      mstore\n      pop\n      dup2\n      add\n      swap1\n      tag_316\n      swap2\n      swap1\n      tag_218\n      jump\t// in\n    tag_316:\n      pop\n        /* \"contracts/ymii/stake1.sol\":13359:13365  amount */\n      dup5\n        /* \"contracts/ymii/stake1.sol\":13334:13344  _userStake */\n      0x0c\n        /* \"contracts/ymii/stake1.sol\":13334:13356  _userStake[msg.sender] */\n      0x00\n        /* \"contracts/ymii/stake1.sol\":13345:13355  msg.sender */\n      caller\n        /* \"contracts/ymii/stake1.sol\":13334:13356  _userStake[msg.sender] */\n      0xffffffffffffffffffffffffffffffffffffffff\n      and\n      0xffffffffffffffffffffffffffffffffffffffff\n      and\n      dup2\n      mstore\n      0x20\n      add\n      swap1\n      dup2\n      mstore\n      0x20\n      add\n      0x00\n      keccak256\n        /* \"contracts/ymii/stake1.sol\":13334:13365  _userStake[msg.sender] = amount */\n      dup2\n      swap1\n      sstore\n      pop\n        /* \"contracts/ymii/stake1.sol\":13410:13425  block.timestamp */\n      timestamp\n        /* \"contracts/ymii/stake1.sol\":13376:13395  _userStakeStartTime */\n      0x0e\n        /* \"contracts/ymii/stake1.sol\":13376:13407  _userStakeStartTime[msg.sender] */\n      0x00\n        /* \"contracts/ymii/stake1.sol\":13396:13406  msg.sender */\n      caller\n        /* \"contracts/ymii/stake1.sol\":13376:13407  _userStakeStartTime[msg.sender] */\n      0xffffffffffffffffffffffffffffffffffffffff\n      and\n      0xffffffffffffffffffffffffffffffffffffffff\n      and\n      dup2\n      mstore\n      0x20\n      add\n      swap1\n      dup2\n      mstore\n      0x20\n      add\n      0x00\n      keccak256\n        /* \"contracts/ymii/stake1.sol\":13376:13425  _userStakeStartTime[msg.sender] = block.timestamp */\n      dup2\n      swap1\n      sstore\n      pop\n        /* \"contracts/ymii/stake1.sol\":13486:13490  time */\n      dup3\n        /* \"contracts/ymii/stake1.sol\":13468:13483  block.timestamp */\n      timestamp\n        /* \"contracts/ymii/stake1.sol\":13468:13490  block.timestamp + time */\n      tag_317\n      swap2\n      swap1\n      tag_310\n      jump\t// in\n    tag_317:\n        /* \"contracts/ymii/stake1.sol\":13436:13453  _userEndClaimTime */\n      0x10\n        /* \"contracts/ymii/stake1.sol\":13436:13465  _userEndClaimTime[msg.sender] */\n      0x00\n        /* \"contracts/ymii/stake1.sol\":13454:13464  msg.sender */\n      caller\n        /* \"contracts/ymii/stake1.sol\":13436:13465  _userEndClaimTime[msg.sender] */\n      0xffffffffffffffffffffffffffffffffffffffff\n      and\n      0xffffffffffffffffffffffffffffffffffffffff\n      and\n      dup2\n      mstore\n      0x20\n      add\n      swap1\n      dup2\n      mstore\n      0x20\n      add\n      0x00\n      keccak256\n        /* \"contracts/ymii/stake1.sol\":13436:13490  _userEndClaimTime[msg.sender] = block.timestamp + time */\n      dup2\n      swap1\n      sstore\n      pop\n        /* \"contracts/ymii/stake1.sol\":13530:13534  time */\n      dup3\n        /* \"contracts/ymii/stake1.sol\":13501:13515  _userStakeTime */\n      0x0d\n        /* \"contracts/ymii/stake1.sol\":13501:13527  _userStakeTime[msg.sender] */\n      0x00\n        /* \"contracts/ymii/stake1.sol\":13516:13526  msg.sender */\n      caller\n        /* \"contracts/ymii/stake1.sol\":13501:13527  _userStakeTime[msg.sender] */\n      0xffffffffffffffffffffffffffffffffffffffff\n      and\n      0xffffffffffffffffffffffffffffffffffffffff\n      and\n      dup2\n      mstore\n      0x20\n      add\n      swap1\n      dup2\n      mstore\n      0x20\n      add\n      0x00\n      keccak256\n        /* \"contracts/ymii/stake1.sol\":13501:13534  _userStakeTime[msg.sender] = time */\n      dup2\n      swap1\n      sstore\n      pop\n        /* \"contracts/ymii/stake1.sol\":13570:13574  base */\n      dup1\n        /* \"contracts/ymii/stake1.sol\":13545:13555  _userPower */\n      0x11\n        /* \"contracts/ymii/stake1.sol\":13545:13567  _userPower[msg.sender] */\n      0x00\n        /* \"contracts/ymii/stake1.sol\":13556:13566  msg.sender */\n      caller\n        /* \"contracts/ymii/stake1.sol\":13545:13567  _userPower[msg.sender] */\n      0xffffffffffffffffffffffffffffffffffffffff\n      and\n      0xffffffffffffffffffffffffffffffffffffffff\n      and\n      dup2\n      mstore\n      0x20\n      add\n      swap1\n      dup2\n      mstore\n      0x20\n      add\n      0x00\n      keccak256\n        /* \"contracts/ymii/stake1.sol\":13545:13574  _userPower[msg.sender] = base */\n      dup2\n      swap1\n      sstore\n      pop\n        /* \"contracts/ymii/stake1.sol\":11111:13582  {... */\n      pop\n        /* \"contracts/ymii/stake1.sol\":10979:13582  function stake(... */\n      pop\n      pop\n      pop\n      pop\n      jump\t// out\n        /* \"contracts/ymii/stake1.sol\":3271:3473  function mul(uint256 a, uint256 b) internal pure returns (uint256 c) {... */\n    tag_179:\n        /* \"contracts/ymii/stake1.sol\":3329:3338  uint256 c */\n      0x00\n        /* \"contracts/ymii/stake1.sol\":3360:3361  0 */\n      dup1\n        /* \"contracts/ymii/stake1.sol\":3355:3356  a */\n      dup4\n        /* \"contracts/ymii/stake1.sol\":3355:3361  a == 0 */\n      sub\n        /* \"contracts/ymii/stake1.sol\":3351:3398  if (a == 0) {... */\n      tag_319\n      jumpi\n        /* \"contracts/ymii/stake1.sol\":3385:3386  0 */\n      0x00\n        /* \"contracts/ymii/stake1.sol\":3378:3386  return 0 */\n      swap1\n      pop\n      jump(tag_318)\n        /* \"contracts/ymii/stake1.sol\":3351:3398  if (a == 0) {... */\n    tag_319:\n        /* \"contracts/ymii/stake1.sol\":3416:3417  b */\n      dup2\n        /* \"contracts/ymii/stake1.sol\":3412:3413  a */\n      dup4\n        /* \"contracts/ymii/stake1.sol\":3412:3417  a * b */\n      tag_320\n      swap2\n      swap1\n      tag_304\n      jump\t// in\n    tag_320:\n        /* \"contracts/ymii/stake1.sol\":3408:3417  c = a * b */\n      swap1\n      pop\n        /* \"contracts/ymii/stake1.sol\":3444:3445  b */\n      dup2\n        /* \"contracts/ymii/stake1.sol\":3439:3440  a */\n      dup4\n        /* \"contracts/ymii/stake1.sol\":3435:3436  c */\n      dup3\n        /* \"contracts/ymii/stake1.sol\":3435:3440  c / a */\n      tag_321\n      swap2\n      swap1\n      tag_308\n      jump\t// in\n    tag_321:\n        /* \"contracts/ymii/stake1.sol\":3435:3445  c / a == b */\n      eq\n        /* \"contracts/ymii/stake1.sol\":3428:3446  assert(c / a == b) */\n      tag_322\n      jumpi\n      tag_323\n      tag_324\n      jump\t// in\n    tag_323:\n    tag_322:\n        /* \"contracts/ymii/stake1.sol\":3271:3473  function mul(uint256 a, uint256 b) internal pure returns (uint256 c) {... */\n    tag_318:\n      swap3\n      swap2\n      pop\n      pop\n      jump\t// out\n        /* \"contracts/ymii/stake1.sol\":3481:3579  function div(uint256 a, uint256 b) internal pure returns (uint256) {... */\n    tag_285:\n        /* \"contracts/ymii/stake1.sol\":3539:3546  uint256 */\n      0x00\n        /* \"contracts/ymii/stake1.sol\":3570:3571  b */\n      dup2\n        /* \"contracts/ymii/stake1.sol\":3566:3567  a */\n      dup4\n        /* \"contracts/ymii/stake1.sol\":3566:3571  a / b */\n      tag_326\n      swap2\n      swap1\n      tag_308\n      jump\t// in\n    tag_326:\n        /* \"contracts/ymii/stake1.sol\":3559:3571  return a / b */\n      swap1\n      pop\n        /* \"contracts/ymii/stake1.sol\":3481:3579  function div(uint256 a, uint256 b) internal pure returns (uint256) {... */\n      swap3\n      swap2\n      pop\n      pop\n      jump\t// out\n        /* \"#utility.yul\":88:205   */\n    tag_328:\n        /* \"#utility.yul\":197:198   */\n      0x00\n        /* \"#utility.yul\":194:195   */\n      dup1\n        /* \"#utility.yul\":187:199   */\n      revert\n        /* \"#utility.yul\":334:411   */\n    tag_330:\n        /* \"#utility.yul\":371:378   */\n      0x00\n        /* \"#utility.yul\":400:405   */\n      dup2\n        /* \"#utility.yul\":389:405   */\n      swap1\n      pop\n        /* \"#utility.yul\":334:411   */\n      swap2\n      swap1\n      pop\n      jump\t// out\n        /* \"#utility.yul\":417:539   */\n    tag_331:\n        /* \"#utility.yul\":490:514   */\n      tag_377\n        /* \"#utility.yul\":508:513   */\n      dup2\n        /* \"#utility.yul\":490:514   */\n      tag_330\n      jump\t// in\n    tag_377:\n        /* \"#utility.yul\":483:488   */\n      dup2\n        /* \"#utility.yul\":480:515   */\n      eq\n        /* \"#utility.yul\":470:533   */\n      tag_378\n      jumpi\n        /* \"#utility.yul\":529:530   */\n      0x00\n        /* \"#utility.yul\":526:527   */\n      dup1\n        /* \"#utility.yul\":519:531   */\n      revert\n        /* \"#utility.yul\":470:533   */\n    tag_378:\n        /* \"#utility.yul\":417:539   */\n      pop\n      jump\t// out\n        /* \"#utility.yul\":545:684   */\n    tag_332:\n        /* \"#utility.yul\":591:596   */\n      0x00\n        /* \"#utility.yul\":629:635   */\n      dup2\n        /* \"#utility.yul\":616:636   */\n      calldataload\n        /* \"#utility.yul\":607:636   */\n      swap1\n      pop\n        /* \"#utility.yul\":645:678   */\n      tag_380\n        /* \"#utility.yul\":672:677   */\n      dup2\n        /* \"#utility.yul\":645:678   */\n      tag_331\n      jump\t// in\n    tag_380:\n        /* \"#utility.yul\":545:684   */\n      swap3\n      swap2\n      pop\n      pop\n      jump\t// out\n        /* \"#utility.yul\":690:1019   */\n    tag_46:\n        /* \"#utility.yul\":749:755   */\n      0x00\n        /* \"#utility.yul\":798:800   */\n      0x20\n        /* \"#utility.yul\":786:795   */\n      dup3\n        /* \"#utility.yul\":777:784   */\n      dup5\n        /* \"#utility.yul\":773:796   */\n      sub\n        /* \"#utility.yul\":769:801   */\n      slt\n        /* \"#utility.yul\":766:885   */\n      iszero\n      tag_382\n      jumpi\n        /* \"#utility.yul\":804:883   */\n      tag_383\n      tag_328\n      jump\t// in\n    tag_383:\n        /* \"#utility.yul\":766:885   */\n    tag_382:\n        /* \"#utility.yul\":924:925   */\n      0x00\n        /* \"#utility.yul\":949:1002   */\n      tag_384\n        /* \"#utility.yul\":994:1001   */\n      dup5\n        /* \"#utility.yul\":985:991   */\n      dup3\n        /* \"#utility.yul\":974:983   */\n      dup6\n        /* \"#utility.yul\":970:992   */\n      add\n        /* \"#utility.yul\":949:1002   */\n      tag_332\n      jump\t// in\n    tag_384:\n        /* \"#utility.yul\":939:1002   */\n      swap2\n      pop\n        /* \"#utility.yul\":895:1012   */\n      pop\n        /* \"#utility.yul\":690:1019   */\n      swap3\n      swap2\n      pop\n      pop\n      jump\t// out\n        /* \"#utility.yul\":1025:1151   */\n    tag_333:\n        /* \"#utility.yul\":1062:1069   */\n      0x00\n        /* \"#utility.yul\":1102:1144   */\n      0xffffffffffffffffffffffffffffffffffffffff\n        /* \"#utility.yul\":1095:1100   */\n      dup3\n        /* \"#utility.yul\":1091:1145   */\n      and\n        /* \"#utility.yul\":1080:1145   */\n      swap1\n      pop\n        /* \"#utility.yul\":1025:1151   */\n      swap2\n      swap1\n      pop\n      jump\t// out\n        /* \"#utility.yul\":1157:1253   */\n    tag_334:\n        /* \"#utility.yul\":1194:1201   */\n      0x00\n        /* \"#utility.yul\":1223:1247   */\n      tag_387\n        /* \"#utility.yul\":1241:1246   */\n      dup3\n        /* \"#utility.yul\":1223:1247   */\n      tag_333\n      jump\t// in\n    tag_387:\n        /* \"#utility.yul\":1212:1247   */\n      swap1\n      pop\n        /* \"#utility.yul\":1157:1253   */\n      swap2\n      swap1\n      pop\n      jump\t// out\n        /* \"#utility.yul\":1259:1381   */\n    tag_335:\n        /* \"#utility.yul\":1332:1356   */\n      tag_389\n        /* \"#utility.yul\":1350:1355   */\n      dup2\n        /* \"#utility.yul\":1332:1356   */\n      tag_334\n      jump\t// in\n    tag_389:\n        /* \"#utility.yul\":1325:1330   */\n      dup2\n        /* \"#utility.yul\":1322:1357   */\n      eq\n        /* \"#utility.yul\":1312:1375   */\n      tag_390\n      jumpi\n        /* \"#utility.yul\":1371:1372   */\n      0x00\n        /* \"#utility.yul\":1368:1369   */\n      dup1\n        /* \"#utility.yul\":1361:1373   */\n      revert\n        /* \"#utility.yul\":1312:1375   */\n    tag_390:\n        /* \"#utility.yul\":1259:1381   */\n      pop\n      jump\t// out\n        /* \"#utility.yul\":1387:1526   */\n    tag_336:\n        /* \"#utility.yul\":1433:1438   */\n      0x00\n        /* \"#utility.yul\":1471:1477   */\n      dup2\n        /* \"#utility.yul\":1458:1478   */\n      calldataload\n        /* \"#utility.yul\":1449:1478   */\n      swap1\n      pop\n        /* \"#utility.yul\":1487:1520   */\n      tag_392\n        /* \"#utility.yul\":1514:1519   */\n      dup2\n        /* \"#utility.yul\":1487:1520   */\n      tag_335\n      jump\t// in\n    tag_392:\n        /* \"#utility.yul\":1387:1526   */\n      swap3\n      swap2\n      pop\n      pop\n      jump\t// out\n        /* \"#utility.yul\":1532:1861   */\n    tag_50:\n        /* \"#utility.yul\":1591:1597   */\n      0x00\n        /* \"#utility.yul\":1640:1642   */\n      0x20\n        /* \"#utility.yul\":1628:1637   */\n      dup3\n        /* \"#utility.yul\":1619:1626   */\n      dup5\n        /* \"#utility.yul\":1615:1638   */\n      sub\n        /* \"#utility.yul\":1611:1643   */\n      slt\n        /* \"#utility.yul\":1608:1727   */\n      iszero\n      tag_394\n      jumpi\n        /* \"#utility.yul\":1646:1725   */\n      tag_395\n      tag_328\n      jump\t// in\n    tag_395:\n        /* \"#utility.yul\":1608:1727   */\n    tag_394:\n        /* \"#utility.yul\":1766:1767   */\n      0x00\n        /* \"#utility.yul\":1791:1844   */\n      tag_396\n        /* \"#utility.yul\":1836:1843   */\n      dup5\n        /* \"#utility.yul\":1827:1833   */\n      dup3\n        /* \"#utility.yul\":1816:1825   */\n      dup6\n        /* \"#utility.yul\":1812:1834   */\n      add\n        /* \"#utility.yul\":1791:1844   */\n      tag_336\n      jump\t// in\n    tag_396:\n        /* \"#utility.yul\":1781:1844   */\n      swap2\n      pop\n        /* \"#utility.yul\":1737:1854   */\n      pop\n        /* \"#utility.yul\":1532:1861   */\n      swap3\n      swap2\n      pop\n      pop\n      jump\t// out\n        /* \"#utility.yul\":1867:1985   */\n    tag_337:\n        /* \"#utility.yul\":1954:1978   */\n      tag_398\n        /* \"#utility.yul\":1972:1977   */\n      dup2\n        /* \"#utility.yul\":1954:1978   */\n      tag_330\n      jump\t// in\n    tag_398:\n        /* \"#utility.yul\":1949:1952   */\n      dup3\n        /* \"#utility.yul\":1942:1979   */\n      mstore\n        /* \"#utility.yul\":1867:1985   */\n      pop\n      pop\n      jump\t// out\n        /* \"#utility.yul\":1991:2213   */\n    tag_53:\n        /* \"#utility.yul\":2084:2088   */\n      0x00\n        /* \"#utility.yul\":2122:2124   */\n      0x20\n        /* \"#utility.yul\":2111:2120   */\n      dup3\n        /* \"#utility.yul\":2107:2125   */\n      add\n        /* \"#utility.yul\":2099:2125   */\n      swap1\n      pop\n        /* \"#utility.yul\":2135:2206   */\n      tag_400\n        /* \"#utility.yul\":2203:2204   */\n      0x00\n        /* \"#utility.yul\":2192:2201   */\n      dup4\n        /* \"#utility.yul\":2188:2205   */\n      add\n        /* \"#utility.yul\":2179:2185   */\n      dup5\n        /* \"#utility.yul\":2135:2206   */\n      tag_337\n      jump\t// in\n    tag_400:\n        /* \"#utility.yul\":1991:2213   */\n      swap3\n      swap2\n      pop\n      pop\n      jump\t// out\n        /* \"#utility.yul\":2219:2309   */\n    tag_338:\n        /* \"#utility.yul\":2253:2260   */\n      0x00\n        /* \"#utility.yul\":2296:2301   */\n      dup2\n        /* \"#utility.yul\":2289:2302   */\n      iszero\n        /* \"#utility.yul\":2282:2303   */\n      iszero\n        /* \"#utility.yul\":2271:2303   */\n      swap1\n      pop\n        /* \"#utility.yul\":2219:2309   */\n      swap2\n      swap1\n      pop\n      jump\t// out\n        /* \"#utility.yul\":2315:2424   */\n    tag_339:\n        /* \"#utility.yul\":2396:2417   */\n      tag_403\n        /* \"#utility.yul\":2411:2416   */\n      dup2\n        /* \"#utility.yul\":2396:2417   */\n      tag_338\n      jump\t// in\n    tag_403:\n        /* \"#utility.yul\":2391:2394   */\n      dup3\n        /* \"#utility.yul\":2384:2418   */\n      mstore\n        /* \"#utility.yul\":2315:2424   */\n      pop\n      pop\n      jump\t// out\n        /* \"#utility.yul\":2430:2640   */\n    tag_61:\n        /* \"#utility.yul\":2517:2521   */\n      0x00\n        /* \"#utility.yul\":2555:2557   */\n      0x20\n        /* \"#utility.yul\":2544:2553   */\n      dup3\n        /* \"#utility.yul\":2540:2558   */\n      add\n        /* \"#utility.yul\":2532:2558   */\n      swap1\n      pop\n        /* \"#utility.yul\":2568:2633   */\n      tag_405\n        /* \"#utility.yul\":2630:2631   */\n      0x00\n        /* \"#utility.yul\":2619:2628   */\n      dup4\n        /* \"#utility.yul\":2615:2632   */\n      add\n        /* \"#utility.yul\":2606:2612   */\n      dup5\n        /* \"#utility.yul\":2568:2633   */\n      tag_339\n      jump\t// in\n    tag_405:\n        /* \"#utility.yul\":2430:2640   */\n      swap3\n      swap2\n      pop\n      pop\n      jump\t// out\n        /* \"#utility.yul\":2646:2764   */\n    tag_340:\n        /* \"#utility.yul\":2733:2757   */\n      tag_407\n        /* \"#utility.yul\":2751:2756   */\n      dup2\n        /* \"#utility.yul\":2733:2757   */\n      tag_334\n      jump\t// in\n    tag_407:\n        /* \"#utility.yul\":2728:2731   */\n      dup3\n        /* \"#utility.yul\":2721:2758   */\n      mstore\n        /* \"#utility.yul\":2646:2764   */\n      pop\n      pop\n      jump\t// out\n        /* \"#utility.yul\":2770:2992   */\n    tag_77:\n        /* \"#utility.yul\":2863:2867   */\n      0x00\n        /* \"#utility.yul\":2901:2903   */\n      0x20\n        /* \"#utility.yul\":2890:2899   */\n      dup3\n        /* \"#utility.yul\":2886:2904   */\n      add\n        /* \"#utility.yul\":2878:2904   */\n      swap1\n      pop\n        /* \"#utility.yul\":2914:2985   */\n      tag_409\n        /* \"#utility.yul\":2982:2983   */\n      0x00\n        /* \"#utility.yul\":2971:2980   */\n      dup4\n        /* \"#utility.yul\":2967:2984   */\n      add\n        /* \"#utility.yul\":2958:2964   */\n      dup5\n        /* \"#utility.yul\":2914:2985   */\n      tag_340\n      jump\t// in\n    tag_409:\n        /* \"#utility.yul\":2770:2992   */\n      swap3\n      swap2\n      pop\n      pop\n      jump\t// out\n        /* \"#utility.yul\":2998:3114   */\n    tag_341:\n        /* \"#utility.yul\":3068:3089   */\n      tag_411\n        /* \"#utility.yul\":3083:3088   */\n      dup2\n        /* \"#utility.yul\":3068:3089   */\n      tag_338\n      jump\t// in\n    tag_411:\n        /* \"#utility.yul\":3061:3066   */\n      dup2\n        /* \"#utility.yul\":3058:3090   */\n      eq\n        /* \"#utility.yul\":3048:3108   */\n      tag_412\n      jumpi\n        /* \"#utility.yul\":3104:3105   */\n      0x00\n        /* \"#utility.yul\":3101:3102   */\n      dup1\n        /* \"#utility.yul\":3094:3106   */\n      revert\n        /* \"#utility.yul\":3048:3108   */\n    tag_412:\n        /* \"#utility.yul\":2998:3114   */\n      pop\n      jump\t// out\n        /* \"#utility.yul\":3120:3253   */\n    tag_342:\n        /* \"#utility.yul\":3163:3168   */\n      0x00\n        /* \"#utility.yul\":3201:3207   */\n      dup2\n        /* \"#utility.yul\":3188:3208   */\n      calldataload\n        /* \"#utility.yul\":3179:3208   */\n      swap1\n      pop\n        /* \"#utility.yul\":3217:3247   */\n      tag_414\n        /* \"#utility.yul\":3241:3246   */\n      dup2\n        /* \"#utility.yul\":3217:3247   */\n      tag_341\n      jump\t// in\n    tag_414:\n        /* \"#utility.yul\":3120:3253   */\n      swap3\n      swap2\n      pop\n      pop\n      jump\t// out\n        /* \"#utility.yul\":3259:3721   */\n    tag_127:\n        /* \"#utility.yul\":3321:3327   */\n      0x00\n        /* \"#utility.yul\":3329:3335   */\n      dup1\n        /* \"#utility.yul\":3378:3380   */\n      0x40\n        /* \"#utility.yul\":3366:3375   */\n      dup4\n        /* \"#utility.yul\":3357:3364   */\n      dup6\n        /* \"#utility.yul\":3353:3376   */\n      sub\n        /* \"#utility.yul\":3349:3381   */\n      slt\n        /* \"#utility.yul\":3346:3465   */\n      iszero\n      tag_416\n      jumpi\n        /* \"#utility.yul\":3384:3463   */\n      tag_417\n      tag_328\n      jump\t// in\n    tag_417:\n        /* \"#utility.yul\":3346:3465   */\n    tag_416:\n        /* \"#utility.yul\":3504:3505   */\n      0x00\n        /* \"#utility.yul\":3529:3579   */\n      tag_418\n        /* \"#utility.yul\":3571:3578   */\n      dup6\n        /* \"#utility.yul\":3562:3568   */\n      dup3\n        /* \"#utility.yul\":3551:3560   */\n      dup7\n        /* \"#utility.yul\":3547:3569   */\n      add\n        /* \"#utility.yul\":3529:3579   */\n      tag_342\n      jump\t// in\n    tag_418:\n        /* \"#utility.yul\":3519:3579   */\n      swap3\n      pop\n        /* \"#utility.yul\":3475:3589   */\n      pop\n        /* \"#utility.yul\":3628:3630   */\n      0x20\n        /* \"#utility.yul\":3654:3704   */\n      tag_419\n        /* \"#utility.yul\":3696:3703   */\n      dup6\n        /* \"#utility.yul\":3687:3693   */\n      dup3\n        /* \"#utility.yul\":3676:3685   */\n      dup7\n        /* \"#utility.yul\":3672:3694   */\n      add\n        /* \"#utility.yul\":3654:3704   */\n      tag_342\n      jump\t// in\n    tag_419:\n        /* \"#utility.yul\":3644:3704   */\n      swap2\n      pop\n        /* \"#utility.yul\":3599:3714   */\n      pop\n        /* \"#utility.yul\":3259:3721   */\n      swap3\n      pop\n      swap3\n      swap1\n      pop\n      jump\t// out\n        /* \"#utility.yul\":3727:4492   */\n    tag_157:\n        /* \"#utility.yul\":3813:3819   */\n      0x00\n        /* \"#utility.yul\":3821:3827   */\n      dup1\n        /* \"#utility.yul\":3829:3835   */\n      0x00\n        /* \"#utility.yul\":3837:3843   */\n      dup1\n        /* \"#utility.yul\":3886:3889   */\n      0x80\n        /* \"#utility.yul\":3874:3883   */\n      dup6\n        /* \"#utility.yul\":3865:3872   */\n      dup8\n        /* \"#utility.yul\":3861:3884   */\n      sub\n        /* \"#utility.yul\":3857:3890   */\n      slt\n        /* \"#utility.yul\":3854:3974   */\n      iszero\n      tag_421\n      jumpi\n        /* \"#utility.yul\":3893:3972   */\n      tag_422\n      tag_328\n      jump\t// in\n    tag_422:\n        /* \"#utility.yul\":3854:3974   */\n    tag_421:\n        /* \"#utility.yul\":4013:4014   */\n      0x00\n        /* \"#utility.yul\":4038:4091   */\n      tag_423\n        /* \"#utility.yul\":4083:4090   */\n      dup8\n        /* \"#utility.yul\":4074:4080   */\n      dup3\n        /* \"#utility.yul\":4063:4072   */\n      dup9\n        /* \"#utility.yul\":4059:4081   */\n      add\n        /* \"#utility.yul\":4038:4091   */\n      tag_332\n      jump\t// in\n    tag_423:\n        /* \"#utility.yul\":4028:4091   */\n      swap5\n      pop\n        /* \"#utility.yul\":3984:4101   */\n      pop\n        /* \"#utility.yul\":4140:4142   */\n      0x20\n        /* \"#utility.yul\":4166:4219   */\n      tag_424\n        /* \"#utility.yul\":4211:4218   */\n      dup8\n        /* \"#utility.yul\":4202:4208   */\n      dup3\n        /* \"#utility.yul\":4191:4200   */\n      dup9\n        /* \"#utility.yul\":4187:4209   */\n      add\n        /* \"#utility.yul\":4166:4219   */\n      tag_336\n      jump\t// in\n    tag_424:\n        /* \"#utility.yul\":4156:4219   */\n      swap4\n      pop\n        /* \"#utility.yul\":4111:4229   */\n      pop\n        /* \"#utility.yul\":4268:4270   */\n      0x40\n        /* \"#utility.yul\":4294:4347   */\n      tag_425\n        /* \"#utility.yul\":4339:4346   */\n      dup8\n        /* \"#utility.yul\":4330:4336   */\n      dup3\n        /* \"#utility.yul\":4319:4328   */\n      dup9\n        /* \"#utility.yul\":4315:4337   */\n      add\n        /* \"#utility.yul\":4294:4347   */\n      tag_332\n      jump\t// in\n    tag_425:\n        /* \"#utility.yul\":4284:4347   */\n      swap3\n      pop\n        /* \"#utility.yul\":4239:4357   */\n      pop\n        /* \"#utility.yul\":4396:4398   */\n      0x60\n        /* \"#utility.yul\":4422:4475   */\n      tag_426\n        /* \"#utility.yul\":4467:4474   */\n      dup8\n        /* \"#utility.yul\":4458:4464   */\n      dup3\n        /* \"#utility.yul\":4447:4456   */\n      dup9\n        /* \"#utility.yul\":4443:4465   */\n      add\n        /* \"#utility.yul\":4422:4475   */\n      tag_332\n      jump\t// in\n    tag_426:\n        /* \"#utility.yul\":4412:4475   */\n      swap2\n      pop\n        /* \"#utility.yul\":4367:4485   */\n      pop\n        /* \"#utility.yul\":3727:4492   */\n      swap3\n      swap6\n      swap2\n      swap5\n      pop\n      swap3\n      pop\n      jump\t// out\n        /* \"#utility.yul\":4498:4667   */\n    tag_343:\n        /* \"#utility.yul\":4582:4593   */\n      0x00\n        /* \"#utility.yul\":4616:4622   */\n      dup3\n        /* \"#utility.yul\":4611:4614   */\n      dup3\n        /* \"#utility.yul\":4604:4623   */\n      mstore\n        /* \"#utility.yul\":4656:4660   */\n      0x20\n        /* \"#utility.yul\":4651:4654   */\n      dup3\n        /* \"#utility.yul\":4647:4661   */\n      add\n        /* \"#utility.yul\":4632:4661   */\n      swap1\n      pop\n        /* \"#utility.yul\":4498:4667   */\n      swap3\n      swap2\n      pop\n      pop\n      jump\t// out\n        /* \"#utility.yul\":4673:4829   */\n    tag_344:\n        /* \"#utility.yul\":4813:4821   */\n      0x216f776e65720000000000000000000000000000000000000000000000000000\n        /* \"#utility.yul\":4809:4810   */\n      0x00\n        /* \"#utility.yul\":4801:4807   */\n      dup3\n        /* \"#utility.yul\":4797:4811   */\n      add\n        /* \"#utility.yul\":4790:4822   */\n      mstore\n        /* \"#utility.yul\":4673:4829   */\n      pop\n      jump\t// out\n        /* \"#utility.yul\":4835:5200   */\n    tag_345:\n        /* \"#utility.yul\":4977:4980   */\n      0x00\n        /* \"#utility.yul\":4998:5064   */\n      tag_430\n        /* \"#utility.yul\":5062:5063   */\n      0x06\n        /* \"#utility.yul\":5057:5060   */\n      dup4\n        /* \"#utility.yul\":4998:5064   */\n      tag_343\n      jump\t// in\n    tag_430:\n        /* \"#utility.yul\":4991:5064   */\n      swap2\n      pop\n        /* \"#utility.yul\":5073:5166   */\n      tag_431\n        /* \"#utility.yul\":5162:5165   */\n      dup3\n        /* \"#utility.yul\":5073:5166   */\n      tag_344\n      jump\t// in\n    tag_431:\n        /* \"#utility.yul\":5191:5193   */\n      0x20\n        /* \"#utility.yul\":5186:5189   */\n      dup3\n        /* \"#utility.yul\":5182:5194   */\n      add\n        /* \"#utility.yul\":5175:5194   */\n      swap1\n      pop\n        /* \"#utility.yul\":4835:5200   */\n      swap2\n      swap1\n      pop\n      jump\t// out\n        /* \"#utility.yul\":5206:5625   */\n    tag_162:\n        /* \"#utility.yul\":5372:5376   */\n      0x00\n        /* \"#utility.yul\":5410:5412   */\n      0x20\n        /* \"#utility.yul\":5399:5408   */\n      dup3\n        /* \"#utility.yul\":5395:5413   */\n      add\n        /* \"#utility.yul\":5387:5413   */\n      swap1\n      pop\n        /* \"#utility.yul\":5459:5468   */\n      dup2\n        /* \"#utility.yul\":5453:5457   */\n      dup2\n        /* \"#utility.yul\":5449:5469   */\n      sub\n        /* \"#utility.yul\":5445:5446   */\n      0x00\n        /* \"#utility.yul\":5434:5443   */\n      dup4\n        /* \"#utility.yul\":5430:5447   */\n      add\n        /* \"#utility.yul\":5423:5470   */\n      mstore\n        /* \"#utility.yul\":5487:5618   */\n      tag_433\n        /* \"#utility.yul\":5613:5617   */\n      dup2\n        /* \"#utility.yul\":5487:5618   */\n      tag_345\n      jump\t// in\n    tag_433:\n        /* \"#utility.yul\":5479:5618   */\n      swap1\n      pop\n        /* \"#utility.yul\":5206:5625   */\n      swap2\n      swap1\n      pop\n      jump\t// out\n        /* \"#utility.yul\":5631:5811   */\n    tag_346:\n        /* \"#utility.yul\":5679:5756   */\n      0x4e487b7100000000000000000000000000000000000000000000000000000000\n        /* \"#utility.yul\":5676:5677   */\n      0x00\n        /* \"#utility.yul\":5669:5757   */\n      mstore\n        /* \"#utility.yul\":5776:5780   */\n      0x11\n        /* \"#utility.yul\":5773:5774   */\n      0x04\n        /* \"#utility.yul\":5766:5781   */\n      mstore\n        /* \"#utility.yul\":5800:5804   */\n      0x24\n        /* \"#utility.yul\":5797:5798   */\n      0x00\n        /* \"#utility.yul\":5790:5805   */\n      revert\n        /* \"#utility.yul\":5817:6011   */\n    tag_170:\n        /* \"#utility.yul\":5857:5861   */\n      0x00\n        /* \"#utility.yul\":5877:5897   */\n      tag_436\n        /* \"#utility.yul\":5895:5896   */\n      dup3\n        /* \"#utility.yul\":5877:5897   */\n      tag_330\n      jump\t// in\n    tag_436:\n        /* \"#utility.yul\":5872:5897   */\n      swap2\n      pop\n        /* \"#utility.yul\":5911:5931   */\n      tag_437\n        /* \"#utility.yul\":5929:5930   */\n      dup4\n        /* \"#utility.yul\":5911:5931   */\n      tag_330\n      jump\t// in\n    tag_437:\n        /* \"#utility.yul\":5906:5931   */\n      swap3\n      pop\n        /* \"#utility.yul\":5955:5956   */\n      dup3\n        /* \"#utility.yul\":5952:5953   */\n      dup3\n        /* \"#utility.yul\":5948:5957   */\n      sub\n        /* \"#utility.yul\":5940:5957   */\n      swap1\n      pop\n        /* \"#utility.yul\":5979:5980   */\n      dup2\n        /* \"#utility.yul\":5973:5977   */\n      dup2\n        /* \"#utility.yul\":5970:5981   */\n      gt\n        /* \"#utility.yul\":5967:6004   */\n      iszero\n      tag_438\n      jumpi\n        /* \"#utility.yul\":5984:6002   */\n      tag_439\n      tag_346\n      jump\t// in\n    tag_439:\n        /* \"#utility.yul\":5967:6004   */\n    tag_438:\n        /* \"#utility.yul\":5817:6011   */\n      swap3\n      swap2\n      pop\n      pop\n      jump\t// out\n        /* \"#utility.yul\":6017:6176   */\n    tag_347:\n        /* \"#utility.yul\":6157:6168   */\n      0x6e6f742073746172740000000000000000000000000000000000000000000000\n        /* \"#utility.yul\":6153:6154   */\n      0x00\n        /* \"#utility.yul\":6145:6151   */\n      dup3\n        /* \"#utility.yul\":6141:6155   */\n      add\n        /* \"#utility.yul\":6134:6169   */\n      mstore\n        /* \"#utility.yul\":6017:6176   */\n      pop\n      jump\t// out\n        /* \"#utility.yul\":6182:6547   */\n    tag_348:\n        /* \"#utility.yul\":6324:6327   */\n      0x00\n        /* \"#utility.yul\":6345:6411   */\n      tag_442\n        /* \"#utility.yul\":6409:6410   */\n      0x09\n        /* \"#utility.yul\":6404:6407   */\n      dup4\n        /* \"#utility.yul\":6345:6411   */\n      tag_343\n      jump\t// in\n    tag_442:\n        /* \"#utility.yul\":6338:6411   */\n      swap2\n      pop\n        /* \"#utility.yul\":6420:6513   */\n      tag_443\n        /* \"#utility.yul\":6509:6512   */\n      dup3\n        /* \"#utility.yul\":6420:6513   */\n      tag_347\n      jump\t// in\n    tag_443:\n        /* \"#utility.yul\":6538:6540   */\n      0x20\n        /* \"#utility.yul\":6533:6536   */\n      dup3\n        /* \"#utility.yul\":6529:6541   */\n      add\n        /* \"#utility.yul\":6522:6541   */\n      swap1\n      pop\n        /* \"#utility.yul\":6182:6547   */\n      swap2\n      swap1\n      pop\n      jump\t// out\n        /* \"#utility.yul\":6553:6972   */\n    tag_202:\n        /* \"#utility.yul\":6719:6723   */\n      0x00\n        /* \"#utility.yul\":6757:6759   */\n      0x20\n        /* \"#utility.yul\":6746:6755   */\n      dup3\n        /* \"#utility.yul\":6742:6760   */\n      add\n        /* \"#utility.yul\":6734:6760   */\n      swap1\n      pop\n        /* \"#utility.yul\":6806:6815   */\n      dup2\n        /* \"#utility.yul\":6800:6804   */\n      dup2\n        /* \"#utility.yul\":6796:6816   */\n      sub\n        /* \"#utility.yul\":6792:6793   */\n      0x00\n        /* \"#utility.yul\":6781:6790   */\n      dup4\n        /* \"#utility.yul\":6777:6794   */\n      add\n        /* \"#utility.yul\":6770:6817   */\n      mstore\n        /* \"#utility.yul\":6834:6965   */\n      tag_445\n        /* \"#utility.yul\":6960:6964   */\n      dup2\n        /* \"#utility.yul\":6834:6965   */\n      tag_348\n      jump\t// in\n    tag_445:\n        /* \"#utility.yul\":6826:6965   */\n      swap1\n      pop\n        /* \"#utility.yul\":6553:6972   */\n      swap2\n      swap1\n      pop\n      jump\t// out\n        /* \"#utility.yul\":6978:7137   */\n    tag_349:\n        /* \"#utility.yul\":7118:7129   */\n      0x6e6f74207374616b650000000000000000000000000000000000000000000000\n        /* \"#utility.yul\":7114:7115   */\n      0x00\n        /* \"#utility.yul\":7106:7112   */\n      dup3\n        /* \"#utility.yul\":7102:7116   */\n      add\n        /* \"#utility.yul\":7095:7130   */\n      mstore\n        /* \"#utility.yul\":6978:7137   */\n      pop\n      jump\t// out\n        /* \"#utility.yul\":7143:7508   */\n    tag_350:\n        /* \"#utility.yul\":7285:7288   */\n      0x00\n        /* \"#utility.yul\":7306:7372   */\n      tag_448\n        /* \"#utility.yul\":7370:7371   */\n      0x09\n        /* \"#utility.yul\":7365:7368   */\n      dup4\n        /* \"#utility.yul\":7306:7372   */\n      tag_343\n      jump\t// in\n    tag_448:\n        /* \"#utility.yul\":7299:7372   */\n      swap2\n      pop\n        /* \"#utility.yul\":7381:7474   */\n      tag_449\n        /* \"#utility.yul\":7470:7473   */\n      dup3\n        /* \"#utility.yul\":7381:7474   */\n      tag_349\n      jump\t// in\n    tag_449:\n        /* \"#utility.yul\":7499:7501   */\n      0x20\n        /* \"#utility.yul\":7494:7497   */\n      dup3\n        /* \"#utility.yul\":7490:7502   */\n      add\n        /* \"#utility.yul\":7483:7502   */\n      swap1\n      pop\n        /* \"#utility.yul\":7143:7508   */\n      swap2\n      swap1\n      pop\n      jump\t// out\n        /* \"#utility.yul\":7514:7933   */\n    tag_205:\n        /* \"#utility.yul\":7680:7684   */\n      0x00\n        /* \"#utility.yul\":7718:7720   */\n      0x20\n        /* \"#utility.yul\":7707:7716   */\n      dup3\n        /* \"#utility.yul\":7703:7721   */\n      add\n        /* \"#utility.yul\":7695:7721   */\n      swap1\n      pop\n        /* \"#utility.yul\":7767:7776   */\n      dup2\n        /* \"#utility.yul\":7761:7765   */\n      dup2\n        /* \"#utility.yul\":7757:7777   */\n      sub\n        /* \"#utility.yul\":7753:7754   */\n      0x00\n        /* \"#utility.yul\":7742:7751   */\n      dup4\n        /* \"#utility.yul\":7738:7755   */\n      add\n        /* \"#utility.yul\":7731:7778   */\n      mstore\n        /* \"#utility.yul\":7795:7926   */\n      tag_451\n        /* \"#utility.yul\":7921:7925   */\n      dup2\n        /* \"#utility.yul\":7795:7926   */\n      tag_350\n      jump\t// in\n    tag_451:\n        /* \"#utility.yul\":7787:7926   */\n      swap1\n      pop\n        /* \"#utility.yul\":7514:7933   */\n      swap2\n      swap1\n      pop\n      jump\t// out\n        /* \"#utility.yul\":7939:8109   */\n    tag_351:\n        /* \"#utility.yul\":8079:8101   */\n      0x7573657220697320696e20626c61636b6c697374000000000000000000000000\n        /* \"#utility.yul\":8075:8076   */\n      0x00\n        /* \"#utility.yul\":8067:8073   */\n      dup3\n        /* \"#utility.yul\":8063:8077   */\n      add\n        /* \"#utility.yul\":8056:8102   */\n      mstore\n        /* \"#utility.yul\":7939:8109   */\n      pop\n      jump\t// out\n        /* \"#utility.yul\":8115:8481   */\n    tag_352:\n        /* \"#utility.yul\":8257:8260   */\n      0x00\n        /* \"#utility.yul\":8278:8345   */\n      tag_454\n        /* \"#utility.yul\":8342:8344   */\n      0x14\n        /* \"#utility.yul\":8337:8340   */\n      dup4\n        /* \"#utility.yul\":8278:8345   */\n      tag_343\n      jump\t// in\n    tag_454:\n        /* \"#utility.yul\":8271:8345   */\n      swap2\n      pop\n        /* \"#utility.yul\":8354:8447   */\n      tag_455\n        /* \"#utility.yul\":8443:8446   */\n      dup3\n        /* \"#utility.yul\":8354:8447   */\n      tag_351\n      jump\t// in\n    tag_455:\n        /* \"#utility.yul\":8472:8474   */\n      0x20\n        /* \"#utility.yul\":8467:8470   */\n      dup3\n        /* \"#utility.yul\":8463:8475   */\n      add\n        /* \"#utility.yul\":8456:8475   */\n      swap1\n      pop\n        /* \"#utility.yul\":8115:8481   */\n      swap2\n      swap1\n      pop\n      jump\t// out\n        /* \"#utility.yul\":8487:8906   */\n    tag_208:\n        /* \"#utility.yul\":8653:8657   */\n      0x00\n        /* \"#utility.yul\":8691:8693   */\n      0x20\n        /* \"#utility.yul\":8680:8689   */\n      dup3\n        /* \"#utility.yul\":8676:8694   */\n      add\n        /* \"#utility.yul\":8668:8694   */\n      swap1\n      pop\n        /* \"#utility.yul\":8740:8749   */\n      dup2\n        /* \"#utility.yul\":8734:8738   */\n      dup2\n        /* \"#utility.yul\":8730:8750   */\n      sub\n        /* \"#utility.yul\":8726:8727   */\n      0x00\n        /* \"#utility.yul\":8715:8724   */\n      dup4\n        /* \"#utility.yul\":8711:8728   */\n      add\n        /* \"#utility.yul\":8704:8751   */\n      mstore\n        /* \"#utility.yul\":8768:8899   */\n      tag_457\n        /* \"#utility.yul\":8894:8898   */\n      dup2\n        /* \"#utility.yul\":8768:8899   */\n      tag_352\n      jump\t// in\n    tag_457:\n        /* \"#utility.yul\":8760:8899   */\n      swap1\n      pop\n        /* \"#utility.yul\":8487:8906   */\n      swap2\n      swap1\n      pop\n      jump\t// out\n        /* \"#utility.yul\":8912:9077   */\n    tag_353:\n        /* \"#utility.yul\":9052:9069   */\n      0x616c726561647920636c61696d65640000000000000000000000000000000000\n        /* \"#utility.yul\":9048:9049   */\n      0x00\n        /* \"#utility.yul\":9040:9046   */\n      dup3\n        /* \"#utility.yul\":9036:9050   */\n      add\n        /* \"#utility.yul\":9029:9070   */\n      mstore\n        /* \"#utility.yul\":8912:9077   */\n      pop\n      jump\t// out\n        /* \"#utility.yul\":9083:9449   */\n    tag_354:\n        /* \"#utility.yul\":9225:9228   */\n      0x00\n        /* \"#utility.yul\":9246:9313   */\n      tag_460\n        /* \"#utility.yul\":9310:9312   */\n      0x0f\n        /* \"#utility.yul\":9305:9308   */\n      dup4\n        /* \"#utility.yul\":9246:9313   */\n      tag_343\n      jump\t// in\n    tag_460:\n        /* \"#utility.yul\":9239:9313   */\n      swap2\n      pop\n        /* \"#utility.yul\":9322:9415   */\n      tag_461\n        /* \"#utility.yul\":9411:9414   */\n      dup3\n        /* \"#utility.yul\":9322:9415   */\n      tag_353\n      jump\t// in\n    tag_461:\n        /* \"#utility.yul\":9440:9442   */\n      0x20\n        /* \"#utility.yul\":9435:9438   */\n      dup3\n        /* \"#utility.yul\":9431:9443   */\n      add\n        /* \"#utility.yul\":9424:9443   */\n      swap1\n      pop\n        /* \"#utility.yul\":9083:9449   */\n      swap2\n      swap1\n      pop\n      jump\t// out\n        /* \"#utility.yul\":9455:9874   */\n    tag_211:\n        /* \"#utility.yul\":9621:9625   */\n      0x00\n        /* \"#utility.yul\":9659:9661   */\n      0x20\n        /* \"#utility.yul\":9648:9657   */\n      dup3\n        /* \"#utility.yul\":9644:9662   */\n      add\n        /* \"#utility.yul\":9636:9662   */\n      swap1\n      pop\n        /* \"#utility.yul\":9708:9717   */\n      dup2\n        /* \"#utility.yul\":9702:9706   */\n      dup2\n        /* \"#utility.yul\":9698:9718   */\n      sub\n        /* \"#utility.yul\":9694:9695   */\n      0x00\n        /* \"#utility.yul\":9683:9692   */\n      dup4\n        /* \"#utility.yul\":9679:9696   */\n      add\n        /* \"#utility.yul\":9672:9719   */\n      mstore\n        /* \"#utility.yul\":9736:9867   */\n      tag_463\n        /* \"#utility.yul\":9862:9866   */\n      dup2\n        /* \"#utility.yul\":9736:9867   */\n      tag_354\n      jump\t// in\n    tag_463:\n        /* \"#utility.yul\":9728:9867   */\n      swap1\n      pop\n        /* \"#utility.yul\":9455:9874   */\n      swap2\n      swap1\n      pop\n      jump\t// out\n        /* \"#utility.yul\":9880:10212   */\n    tag_214:\n        /* \"#utility.yul\":10001:10005   */\n      0x00\n        /* \"#utility.yul\":10039:10041   */\n      0x40\n        /* \"#utility.yul\":10028:10037   */\n      dup3\n        /* \"#utility.yul\":10024:10042   */\n      add\n        /* \"#utility.yul\":10016:10042   */\n      swap1\n      pop\n        /* \"#utility.yul\":10052:10123   */\n      tag_465\n        /* \"#utility.yul\":10120:10121   */\n      0x00\n        /* \"#utility.yul\":10109:10118   */\n      dup4\n        /* \"#utility.yul\":10105:10122   */\n      add\n        /* \"#utility.yul\":10096:10102   */\n      dup6\n        /* \"#utility.yul\":10052:10123   */\n      tag_340\n      jump\t// in\n    tag_465:\n        /* \"#utility.yul\":10133:10205   */\n      tag_466\n        /* \"#utility.yul\":10201:10203   */\n      0x20\n        /* \"#utility.yul\":10190:10199   */\n      dup4\n        /* \"#utility.yul\":10186:10204   */\n      add\n        /* \"#utility.yul\":10177:10183   */\n      dup5\n        /* \"#utility.yul\":10133:10205   */\n      tag_337\n      jump\t// in\n    tag_466:\n        /* \"#utility.yul\":9880:10212   */\n      swap4\n      swap3\n      pop\n      pop\n      pop\n      jump\t// out\n        /* \"#utility.yul\":10218:10355   */\n    tag_355:\n        /* \"#utility.yul\":10272:10277   */\n      0x00\n        /* \"#utility.yul\":10303:10309   */\n      dup2\n        /* \"#utility.yul\":10297:10310   */\n      mload\n        /* \"#utility.yul\":10288:10310   */\n      swap1\n      pop\n        /* \"#utility.yul\":10319:10349   */\n      tag_468\n        /* \"#utility.yul\":10343:10348   */\n      dup2\n        /* \"#utility.yul\":10319:10349   */\n      tag_341\n      jump\t// in\n    tag_468:\n        /* \"#utility.yul\":10218:10355   */\n      swap3\n      swap2\n      pop\n      pop\n      jump\t// out\n        /* \"#utility.yul\":10361:10706   */\n    tag_218:\n        /* \"#utility.yul\":10428:10434   */\n      0x00\n        /* \"#utility.yul\":10477:10479   */\n      0x20\n        /* \"#utility.yul\":10465:10474   */\n      dup3\n        /* \"#utility.yul\":10456:10463   */\n      dup5\n        /* \"#utility.yul\":10452:10475   */\n      sub\n        /* \"#utility.yul\":10448:10480   */\n      slt\n        /* \"#utility.yul\":10445:10564   */\n      iszero\n      tag_470\n      jumpi\n        /* \"#utility.yul\":10483:10562   */\n      tag_471\n      tag_328\n      jump\t// in\n    tag_471:\n        /* \"#utility.yul\":10445:10564   */\n    tag_470:\n        /* \"#utility.yul\":10603:10604   */\n      0x00\n        /* \"#utility.yul\":10628:10689   */\n      tag_472\n        /* \"#utility.yul\":10681:10688   */\n      dup5\n        /* \"#utility.yul\":10672:10678   */\n      dup3\n        /* \"#utility.yul\":10661:10670   */\n      dup6\n        /* \"#utility.yul\":10657:10679   */\n      add\n        /* \"#utility.yul\":10628:10689   */\n      tag_355\n      jump\t// in\n    tag_472:\n        /* \"#utility.yul\":10618:10689   */\n      swap2\n      pop\n        /* \"#utility.yul\":10574:10699   */\n      pop\n        /* \"#utility.yul\":10361:10706   */\n      swap3\n      swap2\n      pop\n      pop\n      jump\t// out\n        /* \"#utility.yul\":10712:10871   */\n    tag_356:\n        /* \"#utility.yul\":10852:10863   */\n      0x6e6f207265776172640000000000000000000000000000000000000000000000\n        /* \"#utility.yul\":10848:10849   */\n      0x00\n        /* \"#utility.yul\":10840:10846   */\n      dup3\n        /* \"#utility.yul\":10836:10850   */\n      add\n        /* \"#utility.yul\":10829:10864   */\n      mstore\n        /* \"#utility.yul\":10712:10871   */\n      pop\n      jump\t// out\n        /* \"#utility.yul\":10877:11242   */\n    tag_357:\n        /* \"#utility.yul\":11019:11022   */\n      0x00\n        /* \"#utility.yul\":11040:11106   */\n      tag_475\n        /* \"#utility.yul\":11104:11105   */\n      0x09\n        /* \"#utility.yul\":11099:11102   */\n      dup4\n        /* \"#utility.yul\":11040:11106   */\n      tag_343\n      jump\t// in\n    tag_475:\n        /* \"#utility.yul\":11033:11106   */\n      swap2\n      pop\n        /* \"#utility.yul\":11115:11208   */\n      tag_476\n        /* \"#utility.yul\":11204:11207   */\n      dup3\n        /* \"#utility.yul\":11115:11208   */\n      tag_356\n      jump\t// in\n    tag_476:\n        /* \"#utility.yul\":11233:11235   */\n      0x20\n        /* \"#utility.yul\":11228:11231   */\n      dup3\n        /* \"#utility.yul\":11224:11236   */\n      add\n        /* \"#utility.yul\":11217:11236   */\n      swap1\n      pop\n        /* \"#utility.yul\":10877:11242   */\n      swap2\n      swap1\n      pop\n      jump\t// out\n        /* \"#utility.yul\":11248:11667   */\n    tag_228:\n        /* \"#utility.yul\":11414:11418   */\n      0x00\n        /* \"#utility.yul\":11452:11454   */\n      0x20\n        /* \"#utility.yul\":11441:11450   */\n      dup3\n        /* \"#utility.yul\":11437:11455   */\n      add\n        /* \"#utility.yul\":11429:11455   */\n      swap1\n      pop\n        /* \"#utility.yul\":11501:11510   */\n      dup2\n        /* \"#utility.yul\":11495:11499   */\n      dup2\n        /* \"#utility.yul\":11491:11511   */\n      sub\n        /* \"#utility.yul\":11487:11488   */\n      0x00\n        /* \"#utility.yul\":11476:11485   */\n      dup4\n        /* \"#utility.yul\":11472:11489   */\n      add\n        /* \"#utility.yul\":11465:11512   */\n      mstore\n        /* \"#utility.yul\":11529:11660   */\n      tag_478\n        /* \"#utility.yul\":11655:11659   */\n      dup2\n        /* \"#utility.yul\":11529:11660   */\n      tag_357\n      jump\t// in\n    tag_478:\n        /* \"#utility.yul\":11521:11660   */\n      swap1\n      pop\n        /* \"#utility.yul\":11248:11667   */\n      swap2\n      swap1\n      pop\n      jump\t// out\n        /* \"#utility.yul\":11673:11831   */\n    tag_358:\n        /* \"#utility.yul\":11813:11823   */\n      0x6e6f742074696d65000000000000000000000000000000000000000000000000\n        /* \"#utility.yul\":11809:11810   */\n      0x00\n        /* \"#utility.yul\":11801:11807   */\n      dup3\n        /* \"#utility.yul\":11797:11811   */\n      add\n        /* \"#utility.yul\":11790:11824   */\n      mstore\n        /* \"#utility.yul\":11673:11831   */\n      pop\n      jump\t// out\n        /* \"#utility.yul\":11837:12202   */\n    tag_359:\n        /* \"#utility.yul\":11979:11982   */\n      0x00\n        /* \"#utility.yul\":12000:12066   */\n      tag_481\n        /* \"#utility.yul\":12064:12065   */\n      0x08\n        /* \"#utility.yul\":12059:12062   */\n      dup4\n        /* \"#utility.yul\":12000:12066   */\n      tag_343\n      jump\t// in\n    tag_481:\n        /* \"#utility.yul\":11993:12066   */\n      swap2\n      pop\n        /* \"#utility.yul\":12075:12168   */\n      tag_482\n        /* \"#utility.yul\":12164:12167   */\n      dup3\n        /* \"#utility.yul\":12075:12168   */\n      tag_358\n      jump\t// in\n    tag_482:\n        /* \"#utility.yul\":12193:12195   */\n      0x20\n        /* \"#utility.yul\":12188:12191   */\n      dup3\n        /* \"#utility.yul\":12184:12196   */\n      add\n        /* \"#utility.yul\":12177:12196   */\n      swap1\n      pop\n        /* \"#utility.yul\":11837:12202   */\n      swap2\n      swap1\n      pop\n      jump\t// out\n        /* \"#utility.yul\":12208:12627   */\n    tag_237:\n        /* \"#utility.yul\":12374:12378   */\n      0x00\n        /* \"#utility.yul\":12412:12414   */\n      0x20\n        /* \"#utility.yul\":12401:12410   */\n      dup3\n        /* \"#utility.yul\":12397:12415   */\n      add\n        /* \"#utility.yul\":12389:12415   */\n      swap1\n      pop\n        /* \"#utility.yul\":12461:12470   */\n      dup2\n        /* \"#utility.yul\":12455:12459   */\n      dup2\n        /* \"#utility.yul\":12451:12471   */\n      sub\n        /* \"#utility.yul\":12447:12448   */\n      0x00\n        /* \"#utility.yul\":12436:12445   */\n      dup4\n        /* \"#utility.yul\":12432:12449   */\n      add\n        /* \"#utility.yul\":12425:12472   */\n      mstore\n        /* \"#utility.yul\":12489:12620   */\n      tag_484\n        /* \"#utility.yul\":12615:12619   */\n      dup2\n        /* \"#utility.yul\":12489:12620   */\n      tag_359\n      jump\t// in\n    tag_484:\n        /* \"#utility.yul\":12481:12620   */\n      swap1\n      pop\n        /* \"#utility.yul\":12208:12627   */\n      swap2\n      swap1\n      pop\n      jump\t// out\n        /* \"#utility.yul\":12633:12791   */\n    tag_360:\n        /* \"#utility.yul\":12773:12783   */\n      0x6e65772069732030000000000000000000000000000000000000000000000000\n        /* \"#utility.yul\":12769:12770   */\n      0x00\n        /* \"#utility.yul\":12761:12767   */\n      dup3\n        /* \"#utility.yul\":12757:12771   */\n      add\n        /* \"#utility.yul\":12750:12784   */\n      mstore\n        /* \"#utility.yul\":12633:12791   */\n      pop\n      jump\t// out\n        /* \"#utility.yul\":12797:13162   */\n    tag_361:\n        /* \"#utility.yul\":12939:12942   */\n      0x00\n        /* \"#utility.yul\":12960:13026   */\n      tag_487\n        /* \"#utility.yul\":13024:13025   */\n      0x08\n        /* \"#utility.yul\":13019:13022   */\n      dup4\n        /* \"#utility.yul\":12960:13026   */\n      tag_343\n      jump\t// in\n    tag_487:\n        /* \"#utility.yul\":12953:13026   */\n      swap2\n      pop\n        /* \"#utility.yul\":13035:13128   */\n      tag_488\n        /* \"#utility.yul\":13124:13127   */\n      dup3\n        /* \"#utility.yul\":13035:13128   */\n      tag_360\n      jump\t// in\n    tag_488:\n        /* \"#utility.yul\":13153:13155   */\n      0x20\n        /* \"#utility.yul\":13148:13151   */\n      dup3\n        /* \"#utility.yul\":13144:13156   */\n      add\n        /* \"#utility.yul\":13137:13156   */\n      swap1\n      pop\n        /* \"#utility.yul\":12797:13162   */\n      swap2\n      swap1\n      pop\n      jump\t// out\n        /* \"#utility.yul\":13168:13587   */\n    tag_250:\n        /* \"#utility.yul\":13334:13338   */\n      0x00\n        /* \"#utility.yul\":13372:13374   */\n      0x20\n        /* \"#utility.yul\":13361:13370   */\n      dup3\n        /* \"#utility.yul\":13357:13375   */\n      add\n        /* \"#utility.yul\":13349:13375   */\n      swap1\n      pop\n        /* \"#utility.yul\":13421:13430   */\n      dup2\n        /* \"#utility.yul\":13415:13419   */\n      dup2\n        /* \"#utility.yul\":13411:13431   */\n      sub\n        /* \"#utility.yul\":13407:13408   */\n      0x00\n        /* \"#utility.yul\":13396:13405   */\n      dup4\n        /* \"#utility.yul\":13392:13409   */\n      add\n        /* \"#utility.yul\":13385:13432   */\n      mstore\n        /* \"#utility.yul\":13449:13580   */\n      tag_490\n        /* \"#utility.yul\":13575:13579   */\n      dup2\n        /* \"#utility.yul\":13449:13580   */\n      tag_361\n      jump\t// in\n    tag_490:\n        /* \"#utility.yul\":13441:13580   */\n      swap1\n      pop\n        /* \"#utility.yul\":13168:13587   */\n      swap2\n      swap1\n      pop\n      jump\t// out\n        /* \"#utility.yul\":13593:13763   */\n    tag_362:\n        /* \"#utility.yul\":13733:13755   */\n      0x696e76697465722063616e742062792073656c66000000000000000000000000\n        /* \"#utility.yul\":13729:13730   */\n      0x00\n        /* \"#utility.yul\":13721:13727   */\n      dup3\n        /* \"#utility.yul\":13717:13731   */\n      add\n        /* \"#utility.yul\":13710:13756   */\n      mstore\n        /* \"#utility.yul\":13593:13763   */\n      pop\n      jump\t// out\n        /* \"#utility.yul\":13769:14135   */\n    tag_363:\n        /* \"#utility.yul\":13911:13914   */\n      0x00\n        /* \"#utility.yul\":13932:13999   */\n      tag_493\n        /* \"#utility.yul\":13996:13998   */\n      0x14\n        /* \"#utility.yul\":13991:13994   */\n      dup4\n        /* \"#utility.yul\":13932:13999   */\n      tag_343\n      jump\t// in\n    tag_493:\n        /* \"#utility.yul\":13925:13999   */\n      swap2\n      pop\n        /* \"#utility.yul\":14008:14101   */\n      tag_494\n        /* \"#utility.yul\":14097:14100   */\n      dup3\n        /* \"#utility.yul\":14008:14101   */\n      tag_362\n      jump\t// in\n    tag_494:\n        /* \"#utility.yul\":14126:14128   */\n      0x20\n        /* \"#utility.yul\":14121:14124   */\n      dup3\n        /* \"#utility.yul\":14117:14129   */\n      add\n        /* \"#utility.yul\":14110:14129   */\n      swap1\n      pop\n        /* \"#utility.yul\":13769:14135   */\n      swap2\n      swap1\n      pop\n      jump\t// out\n        /* \"#utility.yul\":14141:14560   */\n    tag_266:\n        /* \"#utility.yul\":14307:14311   */\n      0x00\n        /* \"#utility.yul\":14345:14347   */\n      0x20\n        /* \"#utility.yul\":14334:14343   */\n      dup3\n        /* \"#utility.yul\":14330:14348   */\n      add\n        /* \"#utility.yul\":14322:14348   */\n      swap1\n      pop\n        /* \"#utility.yul\":14394:14403   */\n      dup2\n        /* \"#utility.yul\":14388:14392   */\n      dup2\n        /* \"#utility.yul\":14384:14404   */\n      sub\n        /* \"#utility.yul\":14380:14381   */\n      0x00\n        /* \"#utility.yul\":14369:14378   */\n      dup4\n        /* \"#utility.yul\":14365:14382   */\n      add\n        /* \"#utility.yul\":14358:14405   */\n      mstore\n        /* \"#utility.yul\":14422:14553   */\n      tag_496\n        /* \"#utility.yul\":14548:14552   */\n      dup2\n        /* \"#utility.yul\":14422:14553   */\n      tag_363\n      jump\t// in\n    tag_496:\n        /* \"#utility.yul\":14414:14553   */\n      swap1\n      pop\n        /* \"#utility.yul\":14141:14560   */\n      swap2\n      swap1\n      pop\n      jump\t// out\n        /* \"#utility.yul\":14566:14729   */\n    tag_364:\n        /* \"#utility.yul\":14706:14721   */\n      0x616c7265616479207374616b6500000000000000000000000000000000000000\n        /* \"#utility.yul\":14702:14703   */\n      0x00\n        /* \"#utility.yul\":14694:14700   */\n      dup3\n        /* \"#utility.yul\":14690:14704   */\n      add\n        /* \"#utility.yul\":14683:14722   */\n      mstore\n        /* \"#utility.yul\":14566:14729   */\n      pop\n      jump\t// out\n        /* \"#utility.yul\":14735:15101   */\n    tag_365:\n        /* \"#utility.yul\":14877:14880   */\n      0x00\n        /* \"#utility.yul\":14898:14965   */\n      tag_499\n        /* \"#utility.yul\":14962:14964   */\n      0x0d\n        /* \"#utility.yul\":14957:14960   */\n      dup4\n        /* \"#utility.yul\":14898:14965   */\n      tag_343\n      jump\t// in\n    tag_499:\n        /* \"#utility.yul\":14891:14965   */\n      swap2\n      pop\n        /* \"#utility.yul\":14974:15067   */\n      tag_500\n        /* \"#utility.yul\":15063:15066   */\n      dup3\n        /* \"#utility.yul\":14974:15067   */\n      tag_364\n      jump\t// in\n    tag_500:\n        /* \"#utility.yul\":15092:15094   */\n      0x20\n        /* \"#utility.yul\":15087:15090   */\n      dup3\n        /* \"#utility.yul\":15083:15095   */\n      add\n        /* \"#utility.yul\":15076:15095   */\n      swap1\n      pop\n        /* \"#utility.yul\":14735:15101   */\n      swap2\n      swap1\n      pop\n      jump\t// out\n        /* \"#utility.yul\":15107:15526   */\n    tag_269:\n        /* \"#utility.yul\":15273:15277   */\n      0x00\n        /* \"#utility.yul\":15311:15313   */\n      0x20\n        /* \"#utility.yul\":15300:15309   */\n      dup3\n        /* \"#utility.yul\":15296:15314   */\n      add\n        /* \"#utility.yul\":15288:15314   */\n      swap1\n      pop\n        /* \"#utility.yul\":15360:15369   */\n      dup2\n        /* \"#utility.yul\":15354:15358   */\n      dup2\n        /* \"#utility.yul\":15350:15370   */\n      sub\n        /* \"#utility.yul\":15346:15347   */\n      0x00\n        /* \"#utility.yul\":15335:15344   */\n      dup4\n        /* \"#utility.yul\":15331:15348   */\n      add\n        /* \"#utility.yul\":15324:15371   */\n      mstore\n        /* \"#utility.yul\":15388:15519   */\n      tag_502\n        /* \"#utility.yul\":15514:15518   */\n      dup2\n        /* \"#utility.yul\":15388:15519   */\n      tag_365\n      jump\t// in\n    tag_502:\n        /* \"#utility.yul\":15380:15519   */\n      swap1\n      pop\n        /* \"#utility.yul\":15107:15526   */\n      swap2\n      swap1\n      pop\n      jump\t// out\n        /* \"#utility.yul\":15532:15692   */\n    tag_366:\n        /* \"#utility.yul\":15672:15684   */\n      0x7a65726f207374616b6500000000000000000000000000000000000000000000\n        /* \"#utility.yul\":15668:15669   */\n      0x00\n        /* \"#utility.yul\":15660:15666   */\n      dup3\n        /* \"#utility.yul\":15656:15670   */\n      add\n        /* \"#utility.yul\":15649:15685   */\n      mstore\n        /* \"#utility.yul\":15532:15692   */\n      pop\n      jump\t// out\n        /* \"#utility.yul\":15698:16064   */\n    tag_367:\n        /* \"#utility.yul\":15840:15843   */\n      0x00\n        /* \"#utility.yul\":15861:15928   */\n      tag_505\n        /* \"#utility.yul\":15925:15927   */\n      0x0a\n        /* \"#utility.yul\":15920:15923   */\n      dup4\n        /* \"#utility.yul\":15861:15928   */\n      tag_343\n      jump\t// in\n    tag_505:\n        /* \"#utility.yul\":15854:15928   */\n      swap2\n      pop\n        /* \"#utility.yul\":15937:16030   */\n      tag_506\n        /* \"#utility.yul\":16026:16029   */\n      dup3\n        /* \"#utility.yul\":15937:16030   */\n      tag_366\n      jump\t// in\n    tag_506:\n        /* \"#utility.yul\":16055:16057   */\n      0x20\n        /* \"#utility.yul\":16050:16053   */\n      dup3\n        /* \"#utility.yul\":16046:16058   */\n      add\n        /* \"#utility.yul\":16039:16058   */\n      swap1\n      pop\n        /* \"#utility.yul\":15698:16064   */\n      swap2\n      swap1\n      pop\n      jump\t// out\n        /* \"#utility.yul\":16070:16489   */\n    tag_272:\n        /* \"#utility.yul\":16236:16240   */\n      0x00\n        /* \"#utility.yul\":16274:16276   */\n      0x20\n        /* \"#utility.yul\":16263:16272   */\n      dup3\n        /* \"#utility.yul\":16259:16277   */\n      add\n        /* \"#utility.yul\":16251:16277   */\n      swap1\n      pop\n        /* \"#utility.yul\":16323:16332   */\n      dup2\n        /* \"#utility.yul\":16317:16321   */\n      dup2\n        /* \"#utility.yul\":16313:16333   */\n      sub\n        /* \"#utility.yul\":16309:16310   */\n      0x00\n        /* \"#utility.yul\":16298:16307   */\n      dup4\n        /* \"#utility.yul\":16294:16311   */\n      add\n        /* \"#utility.yul\":16287:16334   */\n      mstore\n        /* \"#utility.yul\":16351:16482   */\n      tag_508\n        /* \"#utility.yul\":16477:16481   */\n      dup2\n        /* \"#utility.yul\":16351:16482   */\n      tag_367\n      jump\t// in\n    tag_508:\n        /* \"#utility.yul\":16343:16482   */\n      swap1\n      pop\n        /* \"#utility.yul\":16070:16489   */\n      swap2\n      swap1\n      pop\n      jump\t// out\n        /* \"#utility.yul\":16495:16659   */\n    tag_368:\n        /* \"#utility.yul\":16635:16651   */\n      0x6e6f742072696768742074696d65000000000000000000000000000000000000\n        /* \"#utility.yul\":16631:16632   */\n      0x00\n        /* \"#utility.yul\":16623:16629   */\n      dup3\n        /* \"#utility.yul\":16619:16633   */\n      add\n        /* \"#utility.yul\":16612:16652   */\n      mstore\n        /* \"#utility.yul\":16495:16659   */\n      pop\n      jump\t// out\n        /* \"#utility.yul\":16665:17031   */\n    tag_369:\n        /* \"#utility.yul\":16807:16810   */\n      0x00\n        /* \"#utility.yul\":16828:16895   */\n      tag_511\n        /* \"#utility.yul\":16892:16894   */\n      0x0e\n        /* \"#utility.yul\":16887:16890   */\n      dup4\n        /* \"#utility.yul\":16828:16895   */\n      tag_343\n      jump\t// in\n    tag_511:\n        /* \"#utility.yul\":16821:16895   */\n      swap2\n      pop\n        /* \"#utility.yul\":16904:16997   */\n      tag_512\n        /* \"#utility.yul\":16993:16996   */\n      dup3\n        /* \"#utility.yul\":16904:16997   */\n      tag_368\n      jump\t// in\n    tag_512:\n        /* \"#utility.yul\":17022:17024   */\n      0x20\n        /* \"#utility.yul\":17017:17020   */\n      dup3\n        /* \"#utility.yul\":17013:17025   */\n      add\n        /* \"#utility.yul\":17006:17025   */\n      swap1\n      pop\n        /* \"#utility.yul\":16665:17031   */\n      swap2\n      swap1\n      pop\n      jump\t// out\n        /* \"#utility.yul\":17037:17456   */\n    tag_277:\n        /* \"#utility.yul\":17203:17207   */\n      0x00\n        /* \"#utility.yul\":17241:17243   */\n      0x20\n        /* \"#utility.yul\":17230:17239   */\n      dup3\n        /* \"#utility.yul\":17226:17244   */\n      add\n        /* \"#utility.yul\":17218:17244   */\n      swap1\n      pop\n        /* \"#utility.yul\":17290:17299   */\n      dup2\n        /* \"#utility.yul\":17284:17288   */\n      dup2\n        /* \"#utility.yul\":17280:17300   */\n      sub\n        /* \"#utility.yul\":17276:17277   */\n      0x00\n        /* \"#utility.yul\":17265:17274   */\n      dup4\n        /* \"#utility.yul\":17261:17278   */\n      add\n        /* \"#utility.yul\":17254:17301   */\n      mstore\n        /* \"#utility.yul\":17318:17449   */\n      tag_514\n        /* \"#utility.yul\":17444:17448   */\n      dup2\n        /* \"#utility.yul\":17318:17449   */\n      tag_369\n      jump\t// in\n    tag_514:\n        /* \"#utility.yul\":17310:17449   */\n      swap1\n      pop\n        /* \"#utility.yul\":17037:17456   */\n      swap2\n      swap1\n      pop\n      jump\t// out\n        /* \"#utility.yul\":17462:17872   */\n    tag_304:\n        /* \"#utility.yul\":17502:17509   */\n      0x00\n        /* \"#utility.yul\":17525:17545   */\n      tag_516\n        /* \"#utility.yul\":17543:17544   */\n      dup3\n        /* \"#utility.yul\":17525:17545   */\n      tag_330\n      jump\t// in\n    tag_516:\n        /* \"#utility.yul\":17520:17545   */\n      swap2\n      pop\n        /* \"#utility.yul\":17559:17579   */\n      tag_517\n        /* \"#utility.yul\":17577:17578   */\n      dup4\n        /* \"#utility.yul\":17559:17579   */\n      tag_330\n      jump\t// in\n    tag_517:\n        /* \"#utility.yul\":17554:17579   */\n      swap3\n      pop\n        /* \"#utility.yul\":17614:17615   */\n      dup3\n        /* \"#utility.yul\":17611:17612   */\n      dup3\n        /* \"#utility.yul\":17607:17616   */\n      mul\n        /* \"#utility.yul\":17636:17666   */\n      tag_518\n        /* \"#utility.yul\":17654:17665   */\n      dup2\n        /* \"#utility.yul\":17636:17666   */\n      tag_330\n      jump\t// in\n    tag_518:\n        /* \"#utility.yul\":17625:17666   */\n      swap2\n      pop\n        /* \"#utility.yul\":17815:17816   */\n      dup3\n        /* \"#utility.yul\":17806:17813   */\n      dup3\n        /* \"#utility.yul\":17802:17817   */\n      div\n        /* \"#utility.yul\":17799:17800   */\n      dup5\n        /* \"#utility.yul\":17796:17818   */\n      eq\n        /* \"#utility.yul\":17776:17777   */\n      dup4\n        /* \"#utility.yul\":17769:17778   */\n      iszero\n        /* \"#utility.yul\":17749:17832   */\n      or\n        /* \"#utility.yul\":17726:17865   */\n      tag_519\n      jumpi\n        /* \"#utility.yul\":17845:17863   */\n      tag_520\n      tag_346\n      jump\t// in\n    tag_520:\n        /* \"#utility.yul\":17726:17865   */\n    tag_519:\n        /* \"#utility.yul\":17510:17872   */\n      pop\n        /* \"#utility.yul\":17462:17872   */\n      swap3\n      swap2\n      pop\n      pop\n      jump\t// out\n        /* \"#utility.yul\":17878:18058   */\n    tag_370:\n        /* \"#utility.yul\":17926:18003   */\n      0x4e487b7100000000000000000000000000000000000000000000000000000000\n        /* \"#utility.yul\":17923:17924   */\n      0x00\n        /* \"#utility.yul\":17916:18004   */\n      mstore\n        /* \"#utility.yul\":18023:18027   */\n      0x12\n        /* \"#utility.yul\":18020:18021   */\n      0x04\n        /* \"#utility.yul\":18013:18028   */\n      mstore\n        /* \"#utility.yul\":18047:18051   */\n      0x24\n        /* \"#utility.yul\":18044:18045   */\n      0x00\n        /* \"#utility.yul\":18037:18052   */\n      revert\n        /* \"#utility.yul\":18064:18249   */\n    tag_308:\n        /* \"#utility.yul\":18104:18105   */\n      0x00\n        /* \"#utility.yul\":18121:18141   */\n      tag_523\n        /* \"#utility.yul\":18139:18140   */\n      dup3\n        /* \"#utility.yul\":18121:18141   */\n      tag_330\n      jump\t// in\n    tag_523:\n        /* \"#utility.yul\":18116:18141   */\n      swap2\n      pop\n        /* \"#utility.yul\":18155:18175   */\n      tag_524\n        /* \"#utility.yul\":18173:18174   */\n      dup4\n        /* \"#utility.yul\":18155:18175   */\n      tag_330\n      jump\t// in\n    tag_524:\n        /* \"#utility.yul\":18150:18175   */\n      swap3\n      pop\n        /* \"#utility.yul\":18194:18195   */\n      dup3\n        /* \"#utility.yul\":18184:18219   */\n      tag_525\n      jumpi\n        /* \"#utility.yul\":18199:18217   */\n      tag_526\n      tag_370\n      jump\t// in\n    tag_526:\n        /* \"#utility.yul\":18184:18219   */\n    tag_525:\n        /* \"#utility.yul\":18241:18242   */\n      dup3\n        /* \"#utility.yul\":18238:18239   */\n      dup3\n        /* \"#utility.yul\":18234:18243   */\n      div\n        /* \"#utility.yul\":18229:18243   */\n      swap1\n      pop\n        /* \"#utility.yul\":18064:18249   */\n      swap3\n      swap2\n      pop\n      pop\n      jump\t// out\n        /* \"#utility.yul\":18255:18446   */\n    tag_310:\n        /* \"#utility.yul\":18295:18298   */\n      0x00\n        /* \"#utility.yul\":18314:18334   */\n      tag_528\n        /* \"#utility.yul\":18332:18333   */\n      dup3\n        /* \"#utility.yul\":18314:18334   */\n      tag_330\n      jump\t// in\n    tag_528:\n        /* \"#utility.yul\":18309:18334   */\n      swap2\n      pop\n        /* \"#utility.yul\":18348:18368   */\n      tag_529\n        /* \"#utility.yul\":18366:18367   */\n      dup4\n        /* \"#utility.yul\":18348:18368   */\n      tag_330\n      jump\t// in\n    tag_529:\n        /* \"#utility.yul\":18343:18368   */\n      swap3\n      pop\n        /* \"#utility.yul\":18391:18392   */\n      dup3\n        /* \"#utility.yul\":18388:18389   */\n      dup3\n        /* \"#utility.yul\":18384:18393   */\n      add\n        /* \"#utility.yul\":18377:18393   */\n      swap1\n      pop\n        /* \"#utility.yul\":18412:18415   */\n      dup1\n        /* \"#utility.yul\":18409:18410   */\n      dup3\n        /* \"#utility.yul\":18406:18416   */\n      gt\n        /* \"#utility.yul\":18403:18439   */\n      iszero\n      tag_530\n      jumpi\n        /* \"#utility.yul\":18419:18437   */\n      tag_531\n      tag_346\n      jump\t// in\n    tag_531:\n        /* \"#utility.yul\":18403:18439   */\n    tag_530:\n        /* \"#utility.yul\":18255:18446   */\n      swap3\n      swap2\n      pop\n      pop\n      jump\t// out\n        /* \"#utility.yul\":18452:18894   */\n    tag_313:\n        /* \"#utility.yul\":18601:18605   */\n      0x00\n        /* \"#utility.yul\":18639:18641   */\n      0x60\n        /* \"#utility.yul\":18628:18637   */\n      dup3\n        /* \"#utility.yul\":18624:18642   */\n      add\n        /* \"#utility.yul\":18616:18642   */\n      swap1\n      pop\n        /* \"#utility.yul\":18652:18723   */\n      tag_533\n        /* \"#utility.yul\":18720:18721   */\n      0x00\n        /* \"#utility.yul\":18709:18718   */\n      dup4\n        /* \"#utility.yul\":18705:18722   */\n      add\n        /* \"#utility.yul\":18696:18702   */\n      dup7\n        /* \"#utility.yul\":18652:18723   */\n      tag_340\n      jump\t// in\n    tag_533:\n        /* \"#utility.yul\":18733:18805   */\n      tag_534\n        /* \"#utility.yul\":18801:18803   */\n      0x20\n        /* \"#utility.yul\":18790:18799   */\n      dup4\n        /* \"#utility.yul\":18786:18804   */\n      add\n        /* \"#utility.yul\":18777:18783   */\n      dup6\n        /* \"#utility.yul\":18733:18805   */\n      tag_340\n      jump\t// in\n    tag_534:\n        /* \"#utility.yul\":18815:18887   */\n      tag_535\n        /* \"#utility.yul\":18883:18885   */\n      0x40\n        /* \"#utility.yul\":18872:18881   */\n      dup4\n        /* \"#utility.yul\":18868:18886   */\n      add\n        /* \"#utility.yul\":18859:18865   */\n      dup5\n        /* \"#utility.yul\":18815:18887   */\n      tag_337\n      jump\t// in\n    tag_535:\n        /* \"#utility.yul\":18452:18894   */\n      swap5\n      swap4\n      pop\n      pop\n      pop\n      pop\n      jump\t// out\n        /* \"#utility.yul\":18900:19080   */\n    tag_324:\n        /* \"#utility.yul\":18948:19025   */\n      0x4e487b7100000000000000000000000000000000000000000000000000000000\n        /* \"#utility.yul\":18945:18946   */\n      0x00\n        /* \"#utility.yul\":18938:19026   */\n      mstore\n        /* \"#utility.yul\":19045:19049   */\n      0x01\n        /* \"#utility.yul\":19042:19043   */\n      0x04\n        /* \"#utility.yul\":19035:19050   */\n      mstore\n        /* \"#utility.yul\":19069:19073   */\n      0x24\n        /* \"#utility.yul\":19066:19067   */\n      0x00\n        /* \"#utility.yul\":19059:19074   */\n      revert\n\n    auxdata: 0xa2646970667358221220a65419fb321e91bbad42054fff4bdcd7774cdd86c23bececa6872efe0f799b2a64736f6c63430008120033\n}\n",
				"bytecode": {
					"linkReferences": {},
					"object": "608060405273f1f8e132f0a3f720b3b204d728a8ff316b182258600160006101000a81548173ffffffffffffffffffffffffffffffffffffffff021916908373ffffffffffffffffffffffffffffffffffffffff160217905550736b6b2d8166d13b58155b8d454f239ae3691257a6600260006101000a81548173ffffffffffffffffffffffffffffffffffffffff021916908373ffffffffffffffffffffffffffffffffffffffff160217905550601260035562278d006004556276a70060055562c5c1006006556103e86007556001600b60006101000a81548160ff0219169083151502179055506001600b60016101000a81548160ff02191690831515021790555034801561011057600080fd5b506000339050806000806101000a81548173ffffffffffffffffffffffffffffffffffffffff021916908373ffffffffffffffffffffffffffffffffffffffff1602179055508073ffffffffffffffffffffffffffffffffffffffff16600073ffffffffffffffffffffffffffffffffffffffff167f8be0079c531659141344cd1fd0a4f28419497f9722a3daafe3b4186f6b6457e060405160405180910390a350612ec7806101c16000396000f3fe608060405234801561001057600080fd5b50600436106102055760003560e01c80638da5cb5b1161011a578063b88a802f116100ad578063e650d2931161007c578063e650d293146105da578063f2fde38b146105f8578063f3ef99bc14610614578063f8fa72fd14610632578063faf5ec0c1461063c57610205565b8063b88a802f14610566578063bef4533c14610570578063d02da761146105a0578063dd8158e0146105aa57610205565b8063a6b14d5a116100e9578063a6b14d5a146104f0578063b3341b211461050e578063b3c2eac11461052c578063b59c6e0e1461054857610205565b80638da5cb5b146104685780639805fa74146104865780639fd3af8b146104b6578063a041e172146104c057610205565b806329dc425f1161019d57806371ddda571161016c57806371ddda57146103c45780637929e29f146103e25780637d4cbd5714610412578063853e03e51461042e5780638aee81271461044c57610205565b806329dc425f146103505780632eae667d146103805780633ccfd60b1461039e578063592bd705146103a857610205565b806316c259e1116101d957806316c259e1146102a257806318883877146102d25780631896b2c4146102f0578063264edc1d1461032057610205565b80626cd2001461020a5780630356c98f146102265780630397d45814610256578063115a972e14610272575b600080fd5b610224600480360381019061021f9190612551565b610658565b005b610240600480360381019061023b91906125dc565b6106f0565b60405161024d9190612618565b60405180910390f35b610270600480360381019061026b91906125dc565b610708565b005b61028c600480360381019061028791906125dc565b6107da565b604051610299919061264e565b60405180910390f35b6102bc60048036038101906102b791906125dc565b6107fa565b6040516102c99190612618565b60405180910390f35b6102da610812565b6040516102e79190612618565b60405180910390f35b61030a600480360381019061030591906125dc565b610818565b6040516103179190612618565b60405180910390f35b61033a600480360381019061033591906125dc565b610830565b6040516103479190612678565b60405180910390f35b61036a600480360381019061036591906125dc565b610863565b6040516103779190612618565b60405180910390f35b610388610b9b565b6040516103959190612618565b60405180910390f35b6103a6610ba1565b005b6103c260048036038101906103bd91906125dc565b610c78565b005b6103cc610d49565b6040516103d99190612678565b60405180910390f35b6103fc60048036038101906103f791906125dc565b610d6f565b6040516104099190612618565b60405180910390f35b61042c600480360381019061042791906125dc565b610d87565b005b610436610ebc565b6040516104439190612618565b60405180910390f35b610466600480360381019061046191906125dc565b610ec2565b005b610470610f94565b60405161047d9190612678565b60405180910390f35b6104a0600480360381019061049b91906125dc565b610fbd565b6040516104ad9190612618565b60405180910390f35b6104be610fd5565b005b6104da60048036038101906104d591906125dc565b6112a9565b6040516104e79190612618565b60405180910390f35b6104f86112c1565b6040516105059190612618565b60405180910390f35b6105166112c7565b6040516105239190612618565b60405180910390f35b610546600480360381019061054191906126bf565b6112cd565b005b610550611393565b60405161055d9190612678565b60405180910390f35b61056e6113b9565b005b61058a600480360381019061058591906125dc565b6115b1565b6040516105979190612618565b60405180910390f35b6105a86115c9565b005b6105c460048036038101906105bf91906125dc565b611952565b6040516105d19190612618565b60405180910390f35b6105e261196a565b6040516105ef919061264e565b60405180910390f35b610612600480360381019061060d91906125dc565b61197d565b005b61061c611b37565b604051610629919061264e565b60405180910390f35b61063a611b4a565b005b610656600480360381019061065191906126ff565b611e58565b005b3373ffffffffffffffffffffffffffffffffffffffff1660008054906101000a900473ffffffffffffffffffffffffffffffffffffffff1673ffffffffffffffffffffffffffffffffffffffff16146106e6576040517f08c379a00000000000000000000000000000000000000000000000000000000081526004016106dd906127c3565b60405180910390fd5b8060078190555050565b60106020528060005260406000206000915090505481565b3373ffffffffffffffffffffffffffffffffffffffff1660008054906101000a900473ffffffffffffffffffffffffffffffffffffffff1673ffffffffffffffffffffffffffffffffffffffff1614610796576040517f08c379a000000000000000000000000000000000000000000000000000000000815260040161078d906127c3565b60405180910390fd5b80600260006101000a81548173ffffffffffffffffffffffffffffffffffffffff021916908373ffffffffffffffffffffffffffffffffffffffff16021790555050565b60126020528060005260406000206000915054906101000a900460ff1681565b600e6020528060005260406000206000915090505481565b60065481565b600a6020528060005260406000206000915090505481565b60086020528060005260406000206000915054906101000a900473ffffffffffffffffffffffffffffffffffffffff1681565b600080600f60008473ffffffffffffffffffffffffffffffffffffffff1673ffffffffffffffffffffffffffffffffffffffff16815260200190815260200160002054426108b19190612812565b90506000600f60008573ffffffffffffffffffffffffffffffffffffffff1673ffffffffffffffffffffffffffffffffffffffff1681526020019081526020016000205414801561094157506000600c60008573ffffffffffffffffffffffffffffffffffffffff1673ffffffffffffffffffffffffffffffffffffffff16815260200190815260200160002054115b1561099457600e60008473ffffffffffffffffffffffffffffffffffffffff1673ffffffffffffffffffffffffffffffffffffffff16815260200190815260200160002054426109919190612812565b90505b6000600c60008573ffffffffffffffffffffffffffffffffffffffff1673ffffffffffffffffffffffffffffffffffffffff16815260200190815260200160002054036109e5576000915050610b96565b601060008473ffffffffffffffffffffffffffffffffffffffff1673ffffffffffffffffffffffffffffffffffffffff16815260200190815260200160002054421115610ab957600f60008473ffffffffffffffffffffffffffffffffffffffff1673ffffffffffffffffffffffffffffffffffffffff16815260200190815260200160002054601060008573ffffffffffffffffffffffffffffffffffffffff1673ffffffffffffffffffffffffffffffffffffffff16815260200190815260200160002054610ab69190612812565b90505b601060008473ffffffffffffffffffffffffffffffffffffffff1673ffffffffffffffffffffffffffffffffffffffff16815260200190815260200160002054600f60008573ffffffffffffffffffffffffffffffffffffffff1673ffffffffffffffffffffffffffffffffffffffff168152602001908152602001600020541115610b49576000915050610b96565b610b9281601160008673ffffffffffffffffffffffffffffffffffffffff1673ffffffffffffffffffffffffffffffffffffffff168152602001908152602001600020546124be565b9150505b919050565b60075481565b3373ffffffffffffffffffffffffffffffffffffffff1660008054906101000a900473ffffffffffffffffffffffffffffffffffffffff1673ffffffffffffffffffffffffffffffffffffffff1614610c2f576040517f08c379a0000000000000000000000000000000000000000000000000000000008152600401610c26906127c3565b60405180910390fd5b3373ffffffffffffffffffffffffffffffffffffffff166108fc479081150290604051600060405180830381858888f19350505050158015610c75573d6000803e3d6000fd5b50565b3373ffffffffffffffffffffffffffffffffffffffff1660008054906101000a900473ffffffffffffffffffffffffffffffffffffffff1673ffffffffffffffffffffffffffffffffffffffff1614610d06576040517f08c379a0000000000000000000000000000000000000000000000000000000008152600401610cfd906127c3565b60405180910390fd5b806000806101000a81548173ffffffffffffffffffffffffffffffffffffffff021916908373ffffffffffffffffffffffffffffffffffffffff16021790555050565b600260009054906101000a900473ffffffffffffffffffffffffffffffffffffffff1681565b600f6020528060005260406000206000915090505481565b3373ffffffffffffffffffffffffffffffffffffffff1660008054906101000a900473ffffffffffffffffffffffffffffffffffffffff1673ffffffffffffffffffffffffffffffffffffffff1614610e15576040517f08c379a0000000000000000000000000000000000000000000000000000000008152600401610e0c906127c3565b60405180910390fd5b601260008273ffffffffffffffffffffffffffffffffffffffff1673ffffffffffffffffffffffffffffffffffffffff16815260200190815260200160002060009054906101000a900460ff1615601260008373ffffffffffffffffffffffffffffffffffffffff1673ffffffffffffffffffffffffffffffffffffffff16815260200190815260200160002060006101000a81548160ff02191690831515021790555050565b60055481565b3373ffffffffffffffffffffffffffffffffffffffff1660008054906101000a900473ffffffffffffffffffffffffffffffffffffffff1673ffffffffffffffffffffffffffffffffffffffff1614610f50576040517f08c379a0000000000000000000000000000000000000000000000000000000008152600401610f47906127c3565b60405180910390fd5b80600160006101000a81548173ffffffffffffffffffffffffffffffffffffffff021916908373ffffffffffffffffffffffffffffffffffffffff16021790555050565b60008060009054906101000a900473ffffffffffffffffffffffffffffffffffffffff16905090565b600c6020528060005260406000206000915090505481565b600b60019054906101000a900460ff16611024576040517f08c379a000000000000000000000000000000000000000000000000000000000815260040161101b90612892565b60405180910390fd5b6000600c60003373ffffffffffffffffffffffffffffffffffffffff1673ffffffffffffffffffffffffffffffffffffffff16815260200190815260200160002054116110a6576040517f08c379a000000000000000000000000000000000000000000000000000000000815260040161109d906128fe565b60405180910390fd5b601260003373ffffffffffffffffffffffffffffffffffffffff1673ffffffffffffffffffffffffffffffffffffffff16815260200190815260200160002060009054906101000a900460ff1615611133576040517f08c379a000000000000000000000000000000000000000000000000000000000815260040161112a9061296a565b60405180910390fd5b42600f60003373ffffffffffffffffffffffffffffffffffffffff1673ffffffffffffffffffffffffffffffffffffffff16815260200190815260200160002054106111b4576040517f08c379a00000000000000000000000000000000000000000000000000000000081526004016111ab906129d6565b60405180910390fd5b60006111bf33610863565b905042600f60003373ffffffffffffffffffffffffffffffffffffffff1673ffffffffffffffffffffffffffffffffffffffff16815260200190815260200160002081905550600160009054906101000a900473ffffffffffffffffffffffffffffffffffffffff1673ffffffffffffffffffffffffffffffffffffffff1663a9059cbb33836040518363ffffffff1660e01b81526004016112629291906129f6565b6020604051808303816000875af1158015611281573d6000803e3d6000fd5b505050506040513d601f19601f820116820180604052508101906112a59190612a34565b5050565b600d6020528060005260406000206000915090505481565b60045481565b60035481565b3373ffffffffffffffffffffffffffffffffffffffff1660008054906101000a900473ffffffffffffffffffffffffffffffffffffffff1673ffffffffffffffffffffffffffffffffffffffff161461135b576040517f08c379a0000000000000000000000000000000000000000000000000000000008152600401611352906127c3565b60405180910390fd5b81600b60006101000a81548160ff02191690831515021790555080600b60016101000a81548160ff0219169083151502179055505050565b600160009054906101000a900473ffffffffffffffffffffffffffffffffffffffff1681565b600b60019054906101000a900460ff16611408576040517f08c379a00000000000000000000000000000000000000000000000000000000081526004016113ff90612892565b60405180910390fd5b6000600960003373ffffffffffffffffffffffffffffffffffffffff1673ffffffffffffffffffffffffffffffffffffffff168152602001908152602001600020541161148a576040517f08c379a000000000000000000000000000000000000000000000000000000000815260040161148190612aad565b60405180910390fd5b600160009054906101000a900473ffffffffffffffffffffffffffffffffffffffff1673ffffffffffffffffffffffffffffffffffffffff1663a9059cbb33600960003373ffffffffffffffffffffffffffffffffffffffff1673ffffffffffffffffffffffffffffffffffffffff168152602001908152602001600020546040518363ffffffff1660e01b81526004016115269291906129f6565b6020604051808303816000875af1158015611545573d6000803e3d6000fd5b505050506040513d601f19601f820116820180604052508101906115699190612a34565b506000600960003373ffffffffffffffffffffffffffffffffffffffff1673ffffffffffffffffffffffffffffffffffffffff16815260200190815260200160002081905550565b60116020528060005260406000206000915090505481565b600d60003373ffffffffffffffffffffffffffffffffffffffff1673ffffffffffffffffffffffffffffffffffffffff16815260200190815260200160002054600e60003373ffffffffffffffffffffffffffffffffffffffff1673ffffffffffffffffffffffffffffffffffffffff16815260200190815260200160002054426116549190612812565b1015611695576040517f08c379a000000000000000000000000000000000000000000000000000000000815260040161168c90612b19565b60405180910390fd5b6000600c60003373ffffffffffffffffffffffffffffffffffffffff1673ffffffffffffffffffffffffffffffffffffffff1681526020019081526020016000205411611717576040517f08c379a000000000000000000000000000000000000000000000000000000000815260040161170e906128fe565b60405180910390fd5b600260009054906101000a900473ffffffffffffffffffffffffffffffffffffffff1673ffffffffffffffffffffffffffffffffffffffff1663a9059cbb33600c60003373ffffffffffffffffffffffffffffffffffffffff1673ffffffffffffffffffffffffffffffffffffffff168152602001908152602001600020546040518363ffffffff1660e01b81526004016117b39291906129f6565b6020604051808303816000875af11580156117d2573d6000803e3d6000fd5b505050506040513d601f19601f820116820180604052508101906117f69190612a34565b506000600c60003373ffffffffffffffffffffffffffffffffffffffff1673ffffffffffffffffffffffffffffffffffffffff168152602001908152602001600020819055506000600e60003373ffffffffffffffffffffffffffffffffffffffff1673ffffffffffffffffffffffffffffffffffffffff168152602001908152602001600020819055506000601060003373ffffffffffffffffffffffffffffffffffffffff1673ffffffffffffffffffffffffffffffffffffffff168152602001908152602001600020819055506000600d60003373ffffffffffffffffffffffffffffffffffffffff1673ffffffffffffffffffffffffffffffffffffffff168152602001908152602001600020819055506000601160003373ffffffffffffffffffffffffffffffffffffffff1673ffffffffffffffffffffffffffffffffffffffff16815260200190815260200160002081905550565b60096020528060005260406000206000915090505481565b600b60019054906101000a900460ff1681565b3373ffffffffffffffffffffffffffffffffffffffff1660008054906101000a900473ffffffffffffffffffffffffffffffffffffffff1673ffffffffffffffffffffffffffffffffffffffff1614611a0b576040517f08c379a0000000000000000000000000000000000000000000000000000000008152600401611a02906127c3565b60405180910390fd5b600073ffffffffffffffffffffffffffffffffffffffff168173ffffffffffffffffffffffffffffffffffffffff1603611a7a576040517f08c379a0000000000000000000000000000000000000000000000000000000008152600401611a7190612b85565b60405180910390fd5b8073ffffffffffffffffffffffffffffffffffffffff1660008054906101000a900473ffffffffffffffffffffffffffffffffffffffff1673ffffffffffffffffffffffffffffffffffffffff167f8be0079c531659141344cd1fd0a4f28419497f9722a3daafe3b4186f6b6457e060405160405180910390a3806000806101000a81548173ffffffffffffffffffffffffffffffffffffffff021916908373ffffffffffffffffffffffffffffffffffffffff16021790555050565b600b60009054906101000a900460ff1681565b3373ffffffffffffffffffffffffffffffffffffffff1660008054906101000a900473ffffffffffffffffffffffffffffffffffffffff1673ffffffffffffffffffffffffffffffffffffffff1614611bd8576040517f08c379a0000000000000000000000000000000000000000000000000000000008152600401611bcf906127c3565b60405180910390fd5b6000600c60003373ffffffffffffffffffffffffffffffffffffffff1673ffffffffffffffffffffffffffffffffffffffff1681526020019081526020016000205411611c5a576040517f08c379a0000000000000000000000000000000000000000000000000000000008152600401611c51906128fe565b60405180910390fd5b600260009054906101000a900473ffffffffffffffffffffffffffffffffffffffff1673ffffffffffffffffffffffffffffffffffffffff1663a9059cbb336007546040518363ffffffff1660e01b8152600401611cb99291906129f6565b6020604051808303816000875af1158015611cd8573d6000803e3d6000fd5b505050506040513d601f19601f82011682018060405250810190611cfc9190612a34565b506000600c60003373ffffffffffffffffffffffffffffffffffffffff1673ffffffffffffffffffffffffffffffffffffffff168152602001908152602001600020819055506000600e60003373ffffffffffffffffffffffffffffffffffffffff1673ffffffffffffffffffffffffffffffffffffffff168152602001908152602001600020819055506000601060003373ffffffffffffffffffffffffffffffffffffffff1673ffffffffffffffffffffffffffffffffffffffff168152602001908152602001600020819055506000600d60003373ffffffffffffffffffffffffffffffffffffffff1673ffffffffffffffffffffffffffffffffffffffff168152602001908152602001600020819055506000601160003373ffffffffffffffffffffffffffffffffffffffff1673ffffffffffffffffffffffffffffffffffffffff16815260200190815260200160002081905550565b600b60009054906101000a900460ff16611ea7576040517f08c379a0000000000000000000000000000000000000000000000000000000008152600401611e9e90612892565b60405180910390fd5b3373ffffffffffffffffffffffffffffffffffffffff168373ffffffffffffffffffffffffffffffffffffffff1603611f15576040517f08c379a0000000000000000000000000000000000000000000000000000000008152600401611f0c90612bf1565b60405180910390fd5b6000600c60003373ffffffffffffffffffffffffffffffffffffffff1673ffffffffffffffffffffffffffffffffffffffff1681526020019081526020016000205414611f97576040517f08c379a0000000000000000000000000000000000000000000000000000000008152600401611f8e90612c5d565b60405180910390fd5b60008411611fda576040517f08c379a0000000000000000000000000000000000000000000000000000000008152600401611fd190612cc9565b60405180910390fd5b600454821480611feb575060055482145b80611ff7575060065482145b612036576040517f08c379a000000000000000000000000000000000000000000000000000000000815260040161202d90612d35565b60405180910390fd5b600060045483036120875761208061207861207061206961206161205b8a60086124be565b876124be565b6007546124be565b6064612500565b6103e8612500565b600454612500565b9050612123565b60055483036120d6576120cf6120c76120bf6120b86120b06120aa8a600d6124be565b876124be565b6007546124be565b6064612500565b6103e8612500565b600454612500565b9050612122565b60065483036121215761211e61211661210e6121076120ff6120f98a60106124be565b876124be565b6007546124be565b6064612500565b6103e8612500565b600454612500565b90505b5b5b600073ffffffffffffffffffffffffffffffffffffffff168473ffffffffffffffffffffffffffffffffffffffff16146122b55783600860003373ffffffffffffffffffffffffffffffffffffffff1673ffffffffffffffffffffffffffffffffffffffff16815260200190815260200160002060006101000a81548173ffffffffffffffffffffffffffffffffffffffff021916908373ffffffffffffffffffffffffffffffffffffffff160217905550620186a0600754600587856121ea9190612d55565b6121f49190612d55565b6121fe9190612d55565b6122089190612dc6565b600960008673ffffffffffffffffffffffffffffffffffffffff1673ffffffffffffffffffffffffffffffffffffffff16815260200190815260200160002060008282546122569190612df7565b925050819055506001600a60008673ffffffffffffffffffffffffffffffffffffffff1673ffffffffffffffffffffffffffffffffffffffff16815260200190815260200160002060008282546122ad9190612df7565b925050819055505b600260009054906101000a900473ffffffffffffffffffffffffffffffffffffffff1673ffffffffffffffffffffffffffffffffffffffff166323b872dd3330886040518463ffffffff1660e01b815260040161231493929190612e2b565b6020604051808303816000875af1158015612333573d6000803e3d6000fd5b505050506040513d601f19601f820116820180604052508101906123579190612a34565b5084600c60003373ffffffffffffffffffffffffffffffffffffffff1673ffffffffffffffffffffffffffffffffffffffff1681526020019081526020016000208190555042600e60003373ffffffffffffffffffffffffffffffffffffffff1673ffffffffffffffffffffffffffffffffffffffff1681526020019081526020016000208190555082426123ec9190612df7565b601060003373ffffffffffffffffffffffffffffffffffffffff1673ffffffffffffffffffffffffffffffffffffffff1681526020019081526020016000208190555082600d60003373ffffffffffffffffffffffffffffffffffffffff1673ffffffffffffffffffffffffffffffffffffffff1681526020019081526020016000208190555080601160003373ffffffffffffffffffffffffffffffffffffffff1673ffffffffffffffffffffffffffffffffffffffff168152602001908152602001600020819055505050505050565b60008083036124d057600090506124fa565b81836124dc9190612d55565b90508183826124eb9190612dc6565b146124f9576124f8612e62565b5b5b92915050565b6000818361250e9190612dc6565b905092915050565b600080fd5b6000819050919050565b61252e8161251b565b811461253957600080fd5b50565b60008135905061254b81612525565b92915050565b60006020828403121561256757612566612516565b5b60006125758482850161253c565b91505092915050565b600073ffffffffffffffffffffffffffffffffffffffff82169050919050565b60006125a98261257e565b9050919050565b6125b98161259e565b81146125c457600080fd5b50565b6000813590506125d6816125b0565b92915050565b6000602082840312156125f2576125f1612516565b5b6000612600848285016125c7565b91505092915050565b6126128161251b565b82525050565b600060208201905061262d6000830184612609565b92915050565b60008115159050919050565b61264881612633565b82525050565b6000602082019050612663600083018461263f565b92915050565b6126728161259e565b82525050565b600060208201905061268d6000830184612669565b92915050565b61269c81612633565b81146126a757600080fd5b50565b6000813590506126b981612693565b92915050565b600080604083850312156126d6576126d5612516565b5b60006126e4858286016126aa565b92505060206126f5858286016126aa565b9150509250929050565b6000806000806080858703121561271957612718612516565b5b60006127278782880161253c565b9450506020612738878288016125c7565b93505060406127498782880161253c565b925050606061275a8782880161253c565b91505092959194509250565b600082825260208201905092915050565b7f216f776e65720000000000000000000000000000000000000000000000000000600082015250565b60006127ad600683612766565b91506127b882612777565b602082019050919050565b600060208201905081810360008301526127dc816127a0565b9050919050565b7f4e487b7100000000000000000000000000000000000000000000000000000000600052601160045260246000fd5b600061281d8261251b565b91506128288361251b565b92508282039050818111156128405761283f6127e3565b5b92915050565b7f6e6f742073746172740000000000000000000000000000000000000000000000600082015250565b600061287c600983612766565b915061288782612846565b602082019050919050565b600060208201905081810360008301526128ab8161286f565b9050919050565b7f6e6f74207374616b650000000000000000000000000000000000000000000000600082015250565b60006128e8600983612766565b91506128f3826128b2565b602082019050919050565b60006020820190508181036000830152612917816128db565b9050919050565b7f7573657220697320696e20626c61636b6c697374000000000000000000000000600082015250565b6000612954601483612766565b915061295f8261291e565b602082019050919050565b6000602082019050818103600083015261298381612947565b9050919050565b7f616c726561647920636c61696d65640000000000000000000000000000000000600082015250565b60006129c0600f83612766565b91506129cb8261298a565b602082019050919050565b600060208201905081810360008301526129ef816129b3565b9050919050565b6000604082019050612a0b6000830185612669565b612a186020830184612609565b9392505050565b600081519050612a2e81612693565b92915050565b600060208284031215612a4a57612a49612516565b5b6000612a5884828501612a1f565b91505092915050565b7f6e6f207265776172640000000000000000000000000000000000000000000000600082015250565b6000612a97600983612766565b9150612aa282612a61565b602082019050919050565b60006020820190508181036000830152612ac681612a8a565b9050919050565b7f6e6f742074696d65000000000000000000000000000000000000000000000000600082015250565b6000612b03600883612766565b9150612b0e82612acd565b602082019050919050565b60006020820190508181036000830152612b3281612af6565b9050919050565b7f6e65772069732030000000000000000000000000000000000000000000000000600082015250565b6000612b6f600883612766565b9150612b7a82612b39565b602082019050919050565b60006020820190508181036000830152612b9e81612b62565b9050919050565b7f696e76697465722063616e742062792073656c66000000000000000000000000600082015250565b6000612bdb601483612766565b9150612be682612ba5565b602082019050919050565b60006020820190508181036000830152612c0a81612bce565b9050919050565b7f616c7265616479207374616b6500000000000000000000000000000000000000600082015250565b6000612c47600d83612766565b9150612c5282612c11565b602082019050919050565b60006020820190508181036000830152612c7681612c3a565b9050919050565b7f7a65726f207374616b6500000000000000000000000000000000000000000000600082015250565b6000612cb3600a83612766565b9150612cbe82612c7d565b602082019050919050565b60006020820190508181036000830152612ce281612ca6565b9050919050565b7f6e6f742072696768742074696d65000000000000000000000000000000000000600082015250565b6000612d1f600e83612766565b9150612d2a82612ce9565b602082019050919050565b60006020820190508181036000830152612d4e81612d12565b9050919050565b6000612d608261251b565b9150612d6b8361251b565b9250828202612d798161251b565b91508282048414831517612d9057612d8f6127e3565b5b5092915050565b7f4e487b7100000000000000000000000000000000000000000000000000000000600052601260045260246000fd5b6000612dd18261251b565b9150612ddc8361251b565b925082612dec57612deb612d97565b5b828204905092915050565b6000612e028261251b565b9150612e0d8361251b565b9250828201905080821115612e2557612e246127e3565b5b92915050565b6000606082019050612e406000830186612669565b612e4d6020830185612669565b612e5a6040830184612609565b949350505050565b7f4e487b7100000000000000000000000000000000000000000000000000000000600052600160045260246000fdfea2646970667358221220a65419fb321e91bbad42054fff4bdcd7774cdd86c23bececa6872efe0f799b2a64736f6c63430008120033",
					"opcodes": "PUSH1 0x80 PUSH1 0x40 MSTORE PUSH20 0xF1F8E132F0A3F720B3B204D728A8FF316B182258 PUSH1 0x1 PUSH1 0x0 PUSH2 0x100 EXP DUP2 SLOAD DUP2 PUSH20 0xFFFFFFFFFFFFFFFFFFFFFFFFFFFFFFFFFFFFFFFF MUL NOT AND SWAP1 DUP4 PUSH20 0xFFFFFFFFFFFFFFFFFFFFFFFFFFFFFFFFFFFFFFFF AND MUL OR SWAP1 SSTORE POP PUSH20 0x6B6B2D8166D13B58155B8D454F239AE3691257A6 PUSH1 0x2 PUSH1 0x0 PUSH2 0x100 EXP DUP2 SLOAD DUP2 PUSH20 0xFFFFFFFFFFFFFFFFFFFFFFFFFFFFFFFFFFFFFFFF MUL NOT AND SWAP1 DUP4 PUSH20 0xFFFFFFFFFFFFFFFFFFFFFFFFFFFFFFFFFFFFFFFF AND MUL OR SWAP1 SSTORE POP PUSH1 0x12 PUSH1 0x3 SSTORE PUSH3 0x278D00 PUSH1 0x4 SSTORE PUSH3 0x76A700 PUSH1 0x5 SSTORE PUSH3 0xC5C100 PUSH1 0x6 SSTORE PUSH2 0x3E8 PUSH1 0x7 SSTORE PUSH1 0x1 PUSH1 0xB PUSH1 0x0 PUSH2 0x100 EXP DUP2 SLOAD DUP2 PUSH1 0xFF MUL NOT AND SWAP1 DUP4 ISZERO ISZERO MUL OR SWAP1 SSTORE POP PUSH1 0x1 PUSH1 0xB PUSH1 0x1 PUSH2 0x100 EXP DUP2 SLOAD DUP2 PUSH1 0xFF MUL NOT AND SWAP1 DUP4 ISZERO ISZERO MUL OR SWAP1 SSTORE POP CALLVALUE DUP1 ISZERO PUSH2 0x110 JUMPI PUSH1 0x0 DUP1 REVERT JUMPDEST POP PUSH1 0x0 CALLER SWAP1 POP DUP1 PUSH1 0x0 DUP1 PUSH2 0x100 EXP DUP2 SLOAD DUP2 PUSH20 0xFFFFFFFFFFFFFFFFFFFFFFFFFFFFFFFFFFFFFFFF MUL NOT AND SWAP1 DUP4 PUSH20 0xFFFFFFFFFFFFFFFFFFFFFFFFFFFFFFFFFFFFFFFF AND MUL OR SWAP1 SSTORE POP DUP1 PUSH20 0xFFFFFFFFFFFFFFFFFFFFFFFFFFFFFFFFFFFFFFFF AND PUSH1 0x0 PUSH20 0xFFFFFFFFFFFFFFFFFFFFFFFFFFFFFFFFFFFFFFFF AND PUSH32 0x8BE0079C531659141344CD1FD0A4F28419497F9722A3DAAFE3B4186F6B6457E0 PUSH1 0x40 MLOAD PUSH1 0x40 MLOAD DUP1 SWAP2 SUB SWAP1 LOG3 POP PUSH2 0x2EC7 DUP1 PUSH2 0x1C1 PUSH1 0x0 CODECOPY PUSH1 0x0 RETURN INVALID PUSH1 0x80 PUSH1 0x40 MSTORE CALLVALUE DUP1 ISZERO PUSH2 0x10 JUMPI PUSH1 0x0 DUP1 REVERT JUMPDEST POP PUSH1 0x4 CALLDATASIZE LT PUSH2 0x205 JUMPI PUSH1 0x0 CALLDATALOAD PUSH1 0xE0 SHR DUP1 PUSH4 0x8DA5CB5B GT PUSH2 0x11A JUMPI DUP1 PUSH4 0xB88A802F GT PUSH2 0xAD JUMPI DUP1 PUSH4 0xE650D293 GT PUSH2 0x7C JUMPI DUP1 PUSH4 0xE650D293 EQ PUSH2 0x5DA JUMPI DUP1 PUSH4 0xF2FDE38B EQ PUSH2 0x5F8 JUMPI DUP1 PUSH4 0xF3EF99BC EQ PUSH2 0x614 JUMPI DUP1 PUSH4 0xF8FA72FD EQ PUSH2 0x632 JUMPI DUP1 PUSH4 0xFAF5EC0C EQ PUSH2 0x63C JUMPI PUSH2 0x205 JUMP JUMPDEST DUP1 PUSH4 0xB88A802F EQ PUSH2 0x566 JUMPI DUP1 PUSH4 0xBEF4533C EQ PUSH2 0x570 JUMPI DUP1 PUSH4 0xD02DA761 EQ PUSH2 0x5A0 JUMPI DUP1 PUSH4 0xDD8158E0 EQ PUSH2 0x5AA JUMPI PUSH2 0x205 JUMP JUMPDEST DUP1 PUSH4 0xA6B14D5A GT PUSH2 0xE9 JUMPI DUP1 PUSH4 0xA6B14D5A EQ PUSH2 0x4F0 JUMPI DUP1 PUSH4 0xB3341B21 EQ PUSH2 0x50E JUMPI DUP1 PUSH4 0xB3C2EAC1 EQ PUSH2 0x52C JUMPI DUP1 PUSH4 0xB59C6E0E EQ PUSH2 0x548 JUMPI PUSH2 0x205 JUMP JUMPDEST DUP1 PUSH4 0x8DA5CB5B EQ PUSH2 0x468 JUMPI DUP1 PUSH4 0x9805FA74 EQ PUSH2 0x486 JUMPI DUP1 PUSH4 0x9FD3AF8B EQ PUSH2 0x4B6 JUMPI DUP1 PUSH4 0xA041E172 EQ PUSH2 0x4C0 JUMPI PUSH2 0x205 JUMP JUMPDEST DUP1 PUSH4 0x29DC425F GT PUSH2 0x19D JUMPI DUP1 PUSH4 0x71DDDA57 GT PUSH2 0x16C JUMPI DUP1 PUSH4 0x71DDDA57 EQ PUSH2 0x3C4 JUMPI DUP1 PUSH4 0x7929E29F EQ PUSH2 0x3E2 JUMPI DUP1 PUSH4 0x7D4CBD57 EQ PUSH2 0x412 JUMPI DUP1 PUSH4 0x853E03E5 EQ PUSH2 0x42E JUMPI DUP1 PUSH4 0x8AEE8127 EQ PUSH2 0x44C JUMPI PUSH2 0x205 JUMP JUMPDEST DUP1 PUSH4 0x29DC425F EQ PUSH2 0x350 JUMPI DUP1 PUSH4 0x2EAE667D EQ PUSH2 0x380 JUMPI DUP1 PUSH4 0x3CCFD60B EQ PUSH2 0x39E JUMPI DUP1 PUSH4 0x592BD705 EQ PUSH2 0x3A8 JUMPI PUSH2 0x205 JUMP JUMPDEST DUP1 PUSH4 0x16C259E1 GT PUSH2 0x1D9 JUMPI DUP1 PUSH4 0x16C259E1 EQ PUSH2 0x2A2 JUMPI DUP1 PUSH4 0x18883877 EQ PUSH2 0x2D2 JUMPI DUP1 PUSH4 0x1896B2C4 EQ PUSH2 0x2F0 JUMPI DUP1 PUSH4 0x264EDC1D EQ PUSH2 0x320 JUMPI PUSH2 0x205 JUMP JUMPDEST DUP1 PUSH3 0x6CD200 EQ PUSH2 0x20A JUMPI DUP1 PUSH4 0x356C98F EQ PUSH2 0x226 JUMPI DUP1 PUSH4 0x397D458 EQ PUSH2 0x256 JUMPI DUP1 PUSH4 0x115A972E EQ PUSH2 0x272 JUMPI JUMPDEST PUSH1 0x0 DUP1 REVERT JUMPDEST PUSH2 0x224 PUSH1 0x4 DUP1 CALLDATASIZE SUB DUP2 ADD SWAP1 PUSH2 0x21F SWAP2 SWAP1 PUSH2 0x2551 JUMP JUMPDEST PUSH2 0x658 JUMP JUMPDEST STOP JUMPDEST PUSH2 0x240 PUSH1 0x4 DUP1 CALLDATASIZE SUB DUP2 ADD SWAP1 PUSH2 0x23B SWAP2 SWAP1 PUSH2 0x25DC JUMP JUMPDEST PUSH2 0x6F0 JUMP JUMPDEST PUSH1 0x40 MLOAD PUSH2 0x24D SWAP2 SWAP1 PUSH2 0x2618 JUMP JUMPDEST PUSH1 0x40 MLOAD DUP1 SWAP2 SUB SWAP1 RETURN JUMPDEST PUSH2 0x270 PUSH1 0x4 DUP1 CALLDATASIZE SUB DUP2 ADD SWAP1 PUSH2 0x26B SWAP2 SWAP1 PUSH2 0x25DC JUMP JUMPDEST PUSH2 0x708 JUMP JUMPDEST STOP JUMPDEST PUSH2 0x28C PUSH1 0x4 DUP1 CALLDATASIZE SUB DUP2 ADD SWAP1 PUSH2 0x287 SWAP2 SWAP1 PUSH2 0x25DC JUMP JUMPDEST PUSH2 0x7DA JUMP JUMPDEST PUSH1 0x40 MLOAD PUSH2 0x299 SWAP2 SWAP1 PUSH2 0x264E JUMP JUMPDEST PUSH1 0x40 MLOAD DUP1 SWAP2 SUB SWAP1 RETURN JUMPDEST PUSH2 0x2BC PUSH1 0x4 DUP1 CALLDATASIZE SUB DUP2 ADD SWAP1 PUSH2 0x2B7 SWAP2 SWAP1 PUSH2 0x25DC JUMP JUMPDEST PUSH2 0x7FA JUMP JUMPDEST PUSH1 0x40 MLOAD PUSH2 0x2C9 SWAP2 SWAP1 PUSH2 0x2618 JUMP JUMPDEST PUSH1 0x40 MLOAD DUP1 SWAP2 SUB SWAP1 RETURN JUMPDEST PUSH2 0x2DA PUSH2 0x812 JUMP JUMPDEST PUSH1 0x40 MLOAD PUSH2 0x2E7 SWAP2 SWAP1 PUSH2 0x2618 JUMP JUMPDEST PUSH1 0x40 MLOAD DUP1 SWAP2 SUB SWAP1 RETURN JUMPDEST PUSH2 0x30A PUSH1 0x4 DUP1 CALLDATASIZE SUB DUP2 ADD SWAP1 PUSH2 0x305 SWAP2 SWAP1 PUSH2 0x25DC JUMP JUMPDEST PUSH2 0x818 JUMP JUMPDEST PUSH1 0x40 MLOAD PUSH2 0x317 SWAP2 SWAP1 PUSH2 0x2618 JUMP JUMPDEST PUSH1 0x40 MLOAD DUP1 SWAP2 SUB SWAP1 RETURN JUMPDEST PUSH2 0x33A PUSH1 0x4 DUP1 CALLDATASIZE SUB DUP2 ADD SWAP1 PUSH2 0x335 SWAP2 SWAP1 PUSH2 0x25DC JUMP JUMPDEST PUSH2 0x830 JUMP JUMPDEST PUSH1 0x40 MLOAD PUSH2 0x347 SWAP2 SWAP1 PUSH2 0x2678 JUMP JUMPDEST PUSH1 0x40 MLOAD DUP1 SWAP2 SUB SWAP1 RETURN JUMPDEST PUSH2 0x36A PUSH1 0x4 DUP1 CALLDATASIZE SUB DUP2 ADD SWAP1 PUSH2 0x365 SWAP2 SWAP1 PUSH2 0x25DC JUMP JUMPDEST PUSH2 0x863 JUMP JUMPDEST PUSH1 0x40 MLOAD PUSH2 0x377 SWAP2 SWAP1 PUSH2 0x2618 JUMP JUMPDEST PUSH1 0x40 MLOAD DUP1 SWAP2 SUB SWAP1 RETURN JUMPDEST PUSH2 0x388 PUSH2 0xB9B JUMP JUMPDEST PUSH1 0x40 MLOAD PUSH2 0x395 SWAP2 SWAP1 PUSH2 0x2618 JUMP JUMPDEST PUSH1 0x40 MLOAD DUP1 SWAP2 SUB SWAP1 RETURN JUMPDEST PUSH2 0x3A6 PUSH2 0xBA1 JUMP JUMPDEST STOP JUMPDEST PUSH2 0x3C2 PUSH1 0x4 DUP1 CALLDATASIZE SUB DUP2 ADD SWAP1 PUSH2 0x3BD SWAP2 SWAP1 PUSH2 0x25DC JUMP JUMPDEST PUSH2 0xC78 JUMP JUMPDEST STOP JUMPDEST PUSH2 0x3CC PUSH2 0xD49 JUMP JUMPDEST PUSH1 0x40 MLOAD PUSH2 0x3D9 SWAP2 SWAP1 PUSH2 0x2678 JUMP JUMPDEST PUSH1 0x40 MLOAD DUP1 SWAP2 SUB SWAP1 RETURN JUMPDEST PUSH2 0x3FC PUSH1 0x4 DUP1 CALLDATASIZE SUB DUP2 ADD SWAP1 PUSH2 0x3F7 SWAP2 SWAP1 PUSH2 0x25DC JUMP JUMPDEST PUSH2 0xD6F JUMP JUMPDEST PUSH1 0x40 MLOAD PUSH2 0x409 SWAP2 SWAP1 PUSH2 0x2618 JUMP JUMPDEST PUSH1 0x40 MLOAD DUP1 SWAP2 SUB SWAP1 RETURN JUMPDEST PUSH2 0x42C PUSH1 0x4 DUP1 CALLDATASIZE SUB DUP2 ADD SWAP1 PUSH2 0x427 SWAP2 SWAP1 PUSH2 0x25DC JUMP JUMPDEST PUSH2 0xD87 JUMP JUMPDEST STOP JUMPDEST PUSH2 0x436 PUSH2 0xEBC JUMP JUMPDEST PUSH1 0x40 MLOAD PUSH2 0x443 SWAP2 SWAP1 PUSH2 0x2618 JUMP JUMPDEST PUSH1 0x40 MLOAD DUP1 SWAP2 SUB SWAP1 RETURN JUMPDEST PUSH2 0x466 PUSH1 0x4 DUP1 CALLDATASIZE SUB DUP2 ADD SWAP1 PUSH2 0x461 SWAP2 SWAP1 PUSH2 0x25DC JUMP JUMPDEST PUSH2 0xEC2 JUMP JUMPDEST STOP JUMPDEST PUSH2 0x470 PUSH2 0xF94 JUMP JUMPDEST PUSH1 0x40 MLOAD PUSH2 0x47D SWAP2 SWAP1 PUSH2 0x2678 JUMP JUMPDEST PUSH1 0x40 MLOAD DUP1 SWAP2 SUB SWAP1 RETURN JUMPDEST PUSH2 0x4A0 PUSH1 0x4 DUP1 CALLDATASIZE SUB DUP2 ADD SWAP1 PUSH2 0x49B SWAP2 SWAP1 PUSH2 0x25DC JUMP JUMPDEST PUSH2 0xFBD JUMP JUMPDEST PUSH1 0x40 MLOAD PUSH2 0x4AD SWAP2 SWAP1 PUSH2 0x2618 JUMP JUMPDEST PUSH1 0x40 MLOAD DUP1 SWAP2 SUB SWAP1 RETURN JUMPDEST PUSH2 0x4BE PUSH2 0xFD5 JUMP JUMPDEST STOP JUMPDEST PUSH2 0x4DA PUSH1 0x4 DUP1 CALLDATASIZE SUB DUP2 ADD SWAP1 PUSH2 0x4D5 SWAP2 SWAP1 PUSH2 0x25DC JUMP JUMPDEST PUSH2 0x12A9 JUMP JUMPDEST PUSH1 0x40 MLOAD PUSH2 0x4E7 SWAP2 SWAP1 PUSH2 0x2618 JUMP JUMPDEST PUSH1 0x40 MLOAD DUP1 SWAP2 SUB SWAP1 RETURN JUMPDEST PUSH2 0x4F8 PUSH2 0x12C1 JUMP JUMPDEST PUSH1 0x40 MLOAD PUSH2 0x505 SWAP2 SWAP1 PUSH2 0x2618 JUMP JUMPDEST PUSH1 0x40 MLOAD DUP1 SWAP2 SUB SWAP1 RETURN JUMPDEST PUSH2 0x516 PUSH2 0x12C7 JUMP JUMPDEST PUSH1 0x40 MLOAD PUSH2 0x523 SWAP2 SWAP1 PUSH2 0x2618 JUMP JUMPDEST PUSH1 0x40 MLOAD DUP1 SWAP2 SUB SWAP1 RETURN JUMPDEST PUSH2 0x546 PUSH1 0x4 DUP1 CALLDATASIZE SUB DUP2 ADD SWAP1 PUSH2 0x541 SWAP2 SWAP1 PUSH2 0x26BF JUMP JUMPDEST PUSH2 0x12CD JUMP JUMPDEST STOP JUMPDEST PUSH2 0x550 PUSH2 0x1393 JUMP JUMPDEST PUSH1 0x40 MLOAD PUSH2 0x55D SWAP2 SWAP1 PUSH2 0x2678 JUMP JUMPDEST PUSH1 0x40 MLOAD DUP1 SWAP2 SUB SWAP1 RETURN JUMPDEST PUSH2 0x56E PUSH2 0x13B9 JUMP JUMPDEST STOP JUMPDEST PUSH2 0x58A PUSH1 0x4 DUP1 CALLDATASIZE SUB DUP2 ADD SWAP1 PUSH2 0x585 SWAP2 SWAP1 PUSH2 0x25DC JUMP JUMPDEST PUSH2 0x15B1 JUMP JUMPDEST PUSH1 0x40 MLOAD PUSH2 0x597 SWAP2 SWAP1 PUSH2 0x2618 JUMP JUMPDEST PUSH1 0x40 MLOAD DUP1 SWAP2 SUB SWAP1 RETURN JUMPDEST PUSH2 0x5A8 PUSH2 0x15C9 JUMP JUMPDEST STOP JUMPDEST PUSH2 0x5C4 PUSH1 0x4 DUP1 CALLDATASIZE SUB DUP2 ADD SWAP1 PUSH2 0x5BF SWAP2 SWAP1 PUSH2 0x25DC JUMP JUMPDEST PUSH2 0x1952 JUMP JUMPDEST PUSH1 0x40 MLOAD PUSH2 0x5D1 SWAP2 SWAP1 PUSH2 0x2618 JUMP JUMPDEST PUSH1 0x40 MLOAD DUP1 SWAP2 SUB SWAP1 RETURN JUMPDEST PUSH2 0x5E2 PUSH2 0x196A JUMP JUMPDEST PUSH1 0x40 MLOAD PUSH2 0x5EF SWAP2 SWAP1 PUSH2 0x264E JUMP JUMPDEST PUSH1 0x40 MLOAD DUP1 SWAP2 SUB SWAP1 RETURN JUMPDEST PUSH2 0x612 PUSH1 0x4 DUP1 CALLDATASIZE SUB DUP2 ADD SWAP1 PUSH2 0x60D SWAP2 SWAP1 PUSH2 0x25DC JUMP JUMPDEST PUSH2 0x197D JUMP JUMPDEST STOP JUMPDEST PUSH2 0x61C PUSH2 0x1B37 JUMP JUMPDEST PUSH1 0x40 MLOAD PUSH2 0x629 SWAP2 SWAP1 PUSH2 0x264E JUMP JUMPDEST PUSH1 0x40 MLOAD DUP1 SWAP2 SUB SWAP1 RETURN JUMPDEST PUSH2 0x63A PUSH2 0x1B4A JUMP JUMPDEST STOP JUMPDEST PUSH2 0x656 PUSH1 0x4 DUP1 CALLDATASIZE SUB DUP2 ADD SWAP1 PUSH2 0x651 SWAP2 SWAP1 PUSH2 0x26FF JUMP JUMPDEST PUSH2 0x1E58 JUMP JUMPDEST STOP JUMPDEST CALLER PUSH20 0xFFFFFFFFFFFFFFFFFFFFFFFFFFFFFFFFFFFFFFFF AND PUSH1 0x0 DUP1 SLOAD SWAP1 PUSH2 0x100 EXP SWAP1 DIV PUSH20 0xFFFFFFFFFFFFFFFFFFFFFFFFFFFFFFFFFFFFFFFF AND PUSH20 0xFFFFFFFFFFFFFFFFFFFFFFFFFFFFFFFFFFFFFFFF AND EQ PUSH2 0x6E6 JUMPI PUSH1 0x40 MLOAD PUSH32 0x8C379A000000000000000000000000000000000000000000000000000000000 DUP2 MSTORE PUSH1 0x4 ADD PUSH2 0x6DD SWAP1 PUSH2 0x27C3 JUMP JUMPDEST PUSH1 0x40 MLOAD DUP1 SWAP2 SUB SWAP1 REVERT JUMPDEST DUP1 PUSH1 0x7 DUP2 SWAP1 SSTORE POP POP JUMP JUMPDEST PUSH1 0x10 PUSH1 0x20 MSTORE DUP1 PUSH1 0x0 MSTORE PUSH1 0x40 PUSH1 0x0 KECCAK256 PUSH1 0x0 SWAP2 POP SWAP1 POP SLOAD DUP2 JUMP JUMPDEST CALLER PUSH20 0xFFFFFFFFFFFFFFFFFFFFFFFFFFFFFFFFFFFFFFFF AND PUSH1 0x0 DUP1 SLOAD SWAP1 PUSH2 0x100 EXP SWAP1 DIV PUSH20 0xFFFFFFFFFFFFFFFFFFFFFFFFFFFFFFFFFFFFFFFF AND PUSH20 0xFFFFFFFFFFFFFFFFFFFFFFFFFFFFFFFFFFFFFFFF AND EQ PUSH2 0x796 JUMPI PUSH1 0x40 MLOAD PUSH32 0x8C379A000000000000000000000000000000000000000000000000000000000 DUP2 MSTORE PUSH1 0x4 ADD PUSH2 0x78D SWAP1 PUSH2 0x27C3 JUMP JUMPDEST PUSH1 0x40 MLOAD DUP1 SWAP2 SUB SWAP1 REVERT JUMPDEST DUP1 PUSH1 0x2 PUSH1 0x0 PUSH2 0x100 EXP DUP2 SLOAD DUP2 PUSH20 0xFFFFFFFFFFFFFFFFFFFFFFFFFFFFFFFFFFFFFFFF MUL NOT AND SWAP1 DUP4 PUSH20 0xFFFFFFFFFFFFFFFFFFFFFFFFFFFFFFFFFFFFFFFF AND MUL OR SWAP1 SSTORE POP POP JUMP JUMPDEST PUSH1 0x12 PUSH1 0x20 MSTORE DUP1 PUSH1 0x0 MSTORE PUSH1 0x40 PUSH1 0x0 KECCAK256 PUSH1 0x0 SWAP2 POP SLOAD SWAP1 PUSH2 0x100 EXP SWAP1 DIV PUSH1 0xFF AND DUP2 JUMP JUMPDEST PUSH1 0xE PUSH1 0x20 MSTORE DUP1 PUSH1 0x0 MSTORE PUSH1 0x40 PUSH1 0x0 KECCAK256 PUSH1 0x0 SWAP2 POP SWAP1 POP SLOAD DUP2 JUMP JUMPDEST PUSH1 0x6 SLOAD DUP2 JUMP JUMPDEST PUSH1 0xA PUSH1 0x20 MSTORE DUP1 PUSH1 0x0 MSTORE PUSH1 0x40 PUSH1 0x0 KECCAK256 PUSH1 0x0 SWAP2 POP SWAP1 POP SLOAD DUP2 JUMP JUMPDEST PUSH1 0x8 PUSH1 0x20 MSTORE DUP1 PUSH1 0x0 MSTORE PUSH1 0x40 PUSH1 0x0 KECCAK256 PUSH1 0x0 SWAP2 POP SLOAD SWAP1 PUSH2 0x100 EXP SWAP1 DIV PUSH20 0xFFFFFFFFFFFFFFFFFFFFFFFFFFFFFFFFFFFFFFFF AND DUP2 JUMP JUMPDEST PUSH1 0x0 DUP1 PUSH1 0xF PUSH1 0x0 DUP5 PUSH20 0xFFFFFFFFFFFFFFFFFFFFFFFFFFFFFFFFFFFFFFFF AND PUSH20 0xFFFFFFFFFFFFFFFFFFFFFFFFFFFFFFFFFFFFFFFF AND DUP2 MSTORE PUSH1 0x20 ADD SWAP1 DUP2 MSTORE PUSH1 0x20 ADD PUSH1 0x0 KECCAK256 SLOAD TIMESTAMP PUSH2 0x8B1 SWAP2 SWAP1 PUSH2 0x2812 JUMP JUMPDEST SWAP1 POP PUSH1 0x0 PUSH1 0xF PUSH1 0x0 DUP6 PUSH20 0xFFFFFFFFFFFFFFFFFFFFFFFFFFFFFFFFFFFFFFFF AND PUSH20 0xFFFFFFFFFFFFFFFFFFFFFFFFFFFFFFFFFFFFFFFF AND DUP2 MSTORE PUSH1 0x20 ADD SWAP1 DUP2 MSTORE PUSH1 0x20 ADD PUSH1 0x0 KECCAK256 SLOAD EQ DUP1 ISZERO PUSH2 0x941 JUMPI POP PUSH1 0x0 PUSH1 0xC PUSH1 0x0 DUP6 PUSH20 0xFFFFFFFFFFFFFFFFFFFFFFFFFFFFFFFFFFFFFFFF AND PUSH20 0xFFFFFFFFFFFFFFFFFFFFFFFFFFFFFFFFFFFFFFFF AND DUP2 MSTORE PUSH1 0x20 ADD SWAP1 DUP2 MSTORE PUSH1 0x20 ADD PUSH1 0x0 KECCAK256 SLOAD GT JUMPDEST ISZERO PUSH2 0x994 JUMPI PUSH1 0xE PUSH1 0x0 DUP5 PUSH20 0xFFFFFFFFFFFFFFFFFFFFFFFFFFFFFFFFFFFFFFFF AND PUSH20 0xFFFFFFFFFFFFFFFFFFFFFFFFFFFFFFFFFFFFFFFF AND DUP2 MSTORE PUSH1 0x20 ADD SWAP1 DUP2 MSTORE PUSH1 0x20 ADD PUSH1 0x0 KECCAK256 SLOAD TIMESTAMP PUSH2 0x991 SWAP2 SWAP1 PUSH2 0x2812 JUMP JUMPDEST SWAP1 POP JUMPDEST PUSH1 0x0 PUSH1 0xC PUSH1 0x0 DUP6 PUSH20 0xFFFFFFFFFFFFFFFFFFFFFFFFFFFFFFFFFFFFFFFF AND PUSH20 0xFFFFFFFFFFFFFFFFFFFFFFFFFFFFFFFFFFFFFFFF AND DUP2 MSTORE PUSH1 0x20 ADD SWAP1 DUP2 MSTORE PUSH1 0x20 ADD PUSH1 0x0 KECCAK256 SLOAD SUB PUSH2 0x9E5 JUMPI PUSH1 0x0 SWAP2 POP POP PUSH2 0xB96 JUMP JUMPDEST PUSH1 0x10 PUSH1 0x0 DUP5 PUSH20 0xFFFFFFFFFFFFFFFFFFFFFFFFFFFFFFFFFFFFFFFF AND PUSH20 0xFFFFFFFFFFFFFFFFFFFFFFFFFFFFFFFFFFFFFFFF AND DUP2 MSTORE PUSH1 0x20 ADD SWAP1 DUP2 MSTORE PUSH1 0x20 ADD PUSH1 0x0 KECCAK256 SLOAD TIMESTAMP GT ISZERO PUSH2 0xAB9 JUMPI PUSH1 0xF PUSH1 0x0 DUP5 PUSH20 0xFFFFFFFFFFFFFFFFFFFFFFFFFFFFFFFFFFFFFFFF AND PUSH20 0xFFFFFFFFFFFFFFFFFFFFFFFFFFFFFFFFFFFFFFFF AND DUP2 MSTORE PUSH1 0x20 ADD SWAP1 DUP2 MSTORE PUSH1 0x20 ADD PUSH1 0x0 KECCAK256 SLOAD PUSH1 0x10 PUSH1 0x0 DUP6 PUSH20 0xFFFFFFFFFFFFFFFFFFFFFFFFFFFFFFFFFFFFFFFF AND PUSH20 0xFFFFFFFFFFFFFFFFFFFFFFFFFFFFFFFFFFFFFFFF AND DUP2 MSTORE PUSH1 0x20 ADD SWAP1 DUP2 MSTORE PUSH1 0x20 ADD PUSH1 0x0 KECCAK256 SLOAD PUSH2 0xAB6 SWAP2 SWAP1 PUSH2 0x2812 JUMP JUMPDEST SWAP1 POP JUMPDEST PUSH1 0x10 PUSH1 0x0 DUP5 PUSH20 0xFFFFFFFFFFFFFFFFFFFFFFFFFFFFFFFFFFFFFFFF AND PUSH20 0xFFFFFFFFFFFFFFFFFFFFFFFFFFFFFFFFFFFFFFFF AND DUP2 MSTORE PUSH1 0x20 ADD SWAP1 DUP2 MSTORE PUSH1 0x20 ADD PUSH1 0x0 KECCAK256 SLOAD PUSH1 0xF PUSH1 0x0 DUP6 PUSH20 0xFFFFFFFFFFFFFFFFFFFFFFFFFFFFFFFFFFFFFFFF AND PUSH20 0xFFFFFFFFFFFFFFFFFFFFFFFFFFFFFFFFFFFFFFFF AND DUP2 MSTORE PUSH1 0x20 ADD SWAP1 DUP2 MSTORE PUSH1 0x20 ADD PUSH1 0x0 KECCAK256 SLOAD GT ISZERO PUSH2 0xB49 JUMPI PUSH1 0x0 SWAP2 POP POP PUSH2 0xB96 JUMP JUMPDEST PUSH2 0xB92 DUP2 PUSH1 0x11 PUSH1 0x0 DUP7 PUSH20 0xFFFFFFFFFFFFFFFFFFFFFFFFFFFFFFFFFFFFFFFF AND PUSH20 0xFFFFFFFFFFFFFFFFFFFFFFFFFFFFFFFFFFFFFFFF AND DUP2 MSTORE PUSH1 0x20 ADD SWAP1 DUP2 MSTORE PUSH1 0x20 ADD PUSH1 0x0 KECCAK256 SLOAD PUSH2 0x24BE JUMP JUMPDEST SWAP2 POP POP JUMPDEST SWAP2 SWAP1 POP JUMP JUMPDEST PUSH1 0x7 SLOAD DUP2 JUMP JUMPDEST CALLER PUSH20 0xFFFFFFFFFFFFFFFFFFFFFFFFFFFFFFFFFFFFFFFF AND PUSH1 0x0 DUP1 SLOAD SWAP1 PUSH2 0x100 EXP SWAP1 DIV PUSH20 0xFFFFFFFFFFFFFFFFFFFFFFFFFFFFFFFFFFFFFFFF AND PUSH20 0xFFFFFFFFFFFFFFFFFFFFFFFFFFFFFFFFFFFFFFFF AND EQ PUSH2 0xC2F JUMPI PUSH1 0x40 MLOAD PUSH32 0x8C379A000000000000000000000000000000000000000000000000000000000 DUP2 MSTORE PUSH1 0x4 ADD PUSH2 0xC26 SWAP1 PUSH2 0x27C3 JUMP JUMPDEST PUSH1 0x40 MLOAD DUP1 SWAP2 SUB SWAP1 REVERT JUMPDEST CALLER PUSH20 0xFFFFFFFFFFFFFFFFFFFFFFFFFFFFFFFFFFFFFFFF AND PUSH2 0x8FC SELFBALANCE SWAP1 DUP2 ISZERO MUL SWAP1 PUSH1 0x40 MLOAD PUSH1 0x0 PUSH1 0x40 MLOAD DUP1 DUP4 SUB DUP2 DUP6 DUP9 DUP9 CALL SWAP4 POP POP POP POP ISZERO DUP1 ISZERO PUSH2 0xC75 JUMPI RETURNDATASIZE PUSH1 0x0 DUP1 RETURNDATACOPY RETURNDATASIZE PUSH1 0x0 REVERT JUMPDEST POP JUMP JUMPDEST CALLER PUSH20 0xFFFFFFFFFFFFFFFFFFFFFFFFFFFFFFFFFFFFFFFF AND PUSH1 0x0 DUP1 SLOAD SWAP1 PUSH2 0x100 EXP SWAP1 DIV PUSH20 0xFFFFFFFFFFFFFFFFFFFFFFFFFFFFFFFFFFFFFFFF AND PUSH20 0xFFFFFFFFFFFFFFFFFFFFFFFFFFFFFFFFFFFFFFFF AND EQ PUSH2 0xD06 JUMPI PUSH1 0x40 MLOAD PUSH32 0x8C379A000000000000000000000000000000000000000000000000000000000 DUP2 MSTORE PUSH1 0x4 ADD PUSH2 0xCFD SWAP1 PUSH2 0x27C3 JUMP JUMPDEST PUSH1 0x40 MLOAD DUP1 SWAP2 SUB SWAP1 REVERT JUMPDEST DUP1 PUSH1 0x0 DUP1 PUSH2 0x100 EXP DUP2 SLOAD DUP2 PUSH20 0xFFFFFFFFFFFFFFFFFFFFFFFFFFFFFFFFFFFFFFFF MUL NOT AND SWAP1 DUP4 PUSH20 0xFFFFFFFFFFFFFFFFFFFFFFFFFFFFFFFFFFFFFFFF AND MUL OR SWAP1 SSTORE POP POP JUMP JUMPDEST PUSH1 0x2 PUSH1 0x0 SWAP1 SLOAD SWAP1 PUSH2 0x100 EXP SWAP1 DIV PUSH20 0xFFFFFFFFFFFFFFFFFFFFFFFFFFFFFFFFFFFFFFFF AND DUP2 JUMP JUMPDEST PUSH1 0xF PUSH1 0x20 MSTORE DUP1 PUSH1 0x0 MSTORE PUSH1 0x40 PUSH1 0x0 KECCAK256 PUSH1 0x0 SWAP2 POP SWAP1 POP SLOAD DUP2 JUMP JUMPDEST CALLER PUSH20 0xFFFFFFFFFFFFFFFFFFFFFFFFFFFFFFFFFFFFFFFF AND PUSH1 0x0 DUP1 SLOAD SWAP1 PUSH2 0x100 EXP SWAP1 DIV PUSH20 0xFFFFFFFFFFFFFFFFFFFFFFFFFFFFFFFFFFFFFFFF AND PUSH20 0xFFFFFFFFFFFFFFFFFFFFFFFFFFFFFFFFFFFFFFFF AND EQ PUSH2 0xE15 JUMPI PUSH1 0x40 MLOAD PUSH32 0x8C379A000000000000000000000000000000000000000000000000000000000 DUP2 MSTORE PUSH1 0x4 ADD PUSH2 0xE0C SWAP1 PUSH2 0x27C3 JUMP JUMPDEST PUSH1 0x40 MLOAD DUP1 SWAP2 SUB SWAP1 REVERT JUMPDEST PUSH1 0x12 PUSH1 0x0 DUP3 PUSH20 0xFFFFFFFFFFFFFFFFFFFFFFFFFFFFFFFFFFFFFFFF AND PUSH20 0xFFFFFFFFFFFFFFFFFFFFFFFFFFFFFFFFFFFFFFFF AND DUP2 MSTORE PUSH1 0x20 ADD SWAP1 DUP2 MSTORE PUSH1 0x20 ADD PUSH1 0x0 KECCAK256 PUSH1 0x0 SWAP1 SLOAD SWAP1 PUSH2 0x100 EXP SWAP1 DIV PUSH1 0xFF AND ISZERO PUSH1 0x12 PUSH1 0x0 DUP4 PUSH20 0xFFFFFFFFFFFFFFFFFFFFFFFFFFFFFFFFFFFFFFFF AND PUSH20 0xFFFFFFFFFFFFFFFFFFFFFFFFFFFFFFFFFFFFFFFF AND DUP2 MSTORE PUSH1 0x20 ADD SWAP1 DUP2 MSTORE PUSH1 0x20 ADD PUSH1 0x0 KECCAK256 PUSH1 0x0 PUSH2 0x100 EXP DUP2 SLOAD DUP2 PUSH1 0xFF MUL NOT AND SWAP1 DUP4 ISZERO ISZERO MUL OR SWAP1 SSTORE POP POP JUMP JUMPDEST PUSH1 0x5 SLOAD DUP2 JUMP JUMPDEST CALLER PUSH20 0xFFFFFFFFFFFFFFFFFFFFFFFFFFFFFFFFFFFFFFFF AND PUSH1 0x0 DUP1 SLOAD SWAP1 PUSH2 0x100 EXP SWAP1 DIV PUSH20 0xFFFFFFFFFFFFFFFFFFFFFFFFFFFFFFFFFFFFFFFF AND PUSH20 0xFFFFFFFFFFFFFFFFFFFFFFFFFFFFFFFFFFFFFFFF AND EQ PUSH2 0xF50 JUMPI PUSH1 0x40 MLOAD PUSH32 0x8C379A000000000000000000000000000000000000000000000000000000000 DUP2 MSTORE PUSH1 0x4 ADD PUSH2 0xF47 SWAP1 PUSH2 0x27C3 JUMP JUMPDEST PUSH1 0x40 MLOAD DUP1 SWAP2 SUB SWAP1 REVERT JUMPDEST DUP1 PUSH1 0x1 PUSH1 0x0 PUSH2 0x100 EXP DUP2 SLOAD DUP2 PUSH20 0xFFFFFFFFFFFFFFFFFFFFFFFFFFFFFFFFFFFFFFFF MUL NOT AND SWAP1 DUP4 PUSH20 0xFFFFFFFFFFFFFFFFFFFFFFFFFFFFFFFFFFFFFFFF AND MUL OR SWAP1 SSTORE POP POP JUMP JUMPDEST PUSH1 0x0 DUP1 PUSH1 0x0 SWAP1 SLOAD SWAP1 PUSH2 0x100 EXP SWAP1 DIV PUSH20 0xFFFFFFFFFFFFFFFFFFFFFFFFFFFFFFFFFFFFFFFF AND SWAP1 POP SWAP1 JUMP JUMPDEST PUSH1 0xC PUSH1 0x20 MSTORE DUP1 PUSH1 0x0 MSTORE PUSH1 0x40 PUSH1 0x0 KECCAK256 PUSH1 0x0 SWAP2 POP SWAP1 POP SLOAD DUP2 JUMP JUMPDEST PUSH1 0xB PUSH1 0x1 SWAP1 SLOAD SWAP1 PUSH2 0x100 EXP SWAP1 DIV PUSH1 0xFF AND PUSH2 0x1024 JUMPI PUSH1 0x40 MLOAD PUSH32 0x8C379A000000000000000000000000000000000000000000000000000000000 DUP2 MSTORE PUSH1 0x4 ADD PUSH2 0x101B SWAP1 PUSH2 0x2892 JUMP JUMPDEST PUSH1 0x40 MLOAD DUP1 SWAP2 SUB SWAP1 REVERT JUMPDEST PUSH1 0x0 PUSH1 0xC PUSH1 0x0 CALLER PUSH20 0xFFFFFFFFFFFFFFFFFFFFFFFFFFFFFFFFFFFFFFFF AND PUSH20 0xFFFFFFFFFFFFFFFFFFFFFFFFFFFFFFFFFFFFFFFF AND DUP2 MSTORE PUSH1 0x20 ADD SWAP1 DUP2 MSTORE PUSH1 0x20 ADD PUSH1 0x0 KECCAK256 SLOAD GT PUSH2 0x10A6 JUMPI PUSH1 0x40 MLOAD PUSH32 0x8C379A000000000000000000000000000000000000000000000000000000000 DUP2 MSTORE PUSH1 0x4 ADD PUSH2 0x109D SWAP1 PUSH2 0x28FE JUMP JUMPDEST PUSH1 0x40 MLOAD DUP1 SWAP2 SUB SWAP1 REVERT JUMPDEST PUSH1 0x12 PUSH1 0x0 CALLER PUSH20 0xFFFFFFFFFFFFFFFFFFFFFFFFFFFFFFFFFFFFFFFF AND PUSH20 0xFFFFFFFFFFFFFFFFFFFFFFFFFFFFFFFFFFFFFFFF AND DUP2 MSTORE PUSH1 0x20 ADD SWAP1 DUP2 MSTORE PUSH1 0x20 ADD PUSH1 0x0 KECCAK256 PUSH1 0x0 SWAP1 SLOAD SWAP1 PUSH2 0x100 EXP SWAP1 DIV PUSH1 0xFF AND ISZERO PUSH2 0x1133 JUMPI PUSH1 0x40 MLOAD PUSH32 0x8C379A000000000000000000000000000000000000000000000000000000000 DUP2 MSTORE PUSH1 0x4 ADD PUSH2 0x112A SWAP1 PUSH2 0x296A JUMP JUMPDEST PUSH1 0x40 MLOAD DUP1 SWAP2 SUB SWAP1 REVERT JUMPDEST TIMESTAMP PUSH1 0xF PUSH1 0x0 CALLER PUSH20 0xFFFFFFFFFFFFFFFFFFFFFFFFFFFFFFFFFFFFFFFF AND PUSH20 0xFFFFFFFFFFFFFFFFFFFFFFFFFFFFFFFFFFFFFFFF AND DUP2 MSTORE PUSH1 0x20 ADD SWAP1 DUP2 MSTORE PUSH1 0x20 ADD PUSH1 0x0 KECCAK256 SLOAD LT PUSH2 0x11B4 JUMPI PUSH1 0x40 MLOAD PUSH32 0x8C379A000000000000000000000000000000000000000000000000000000000 DUP2 MSTORE PUSH1 0x4 ADD PUSH2 0x11AB SWAP1 PUSH2 0x29D6 JUMP JUMPDEST PUSH1 0x40 MLOAD DUP1 SWAP2 SUB SWAP1 REVERT JUMPDEST PUSH1 0x0 PUSH2 0x11BF CALLER PUSH2 0x863 JUMP JUMPDEST SWAP1 POP TIMESTAMP PUSH1 0xF PUSH1 0x0 CALLER PUSH20 0xFFFFFFFFFFFFFFFFFFFFFFFFFFFFFFFFFFFFFFFF AND PUSH20 0xFFFFFFFFFFFFFFFFFFFFFFFFFFFFFFFFFFFFFFFF AND DUP2 MSTORE PUSH1 0x20 ADD SWAP1 DUP2 MSTORE PUSH1 0x20 ADD PUSH1 0x0 KECCAK256 DUP2 SWAP1 SSTORE POP PUSH1 0x1 PUSH1 0x0 SWAP1 SLOAD SWAP1 PUSH2 0x100 EXP SWAP1 DIV PUSH20 0xFFFFFFFFFFFFFFFFFFFFFFFFFFFFFFFFFFFFFFFF AND PUSH20 0xFFFFFFFFFFFFFFFFFFFFFFFFFFFFFFFFFFFFFFFF AND PUSH4 0xA9059CBB CALLER DUP4 PUSH1 0x40 MLOAD DUP4 PUSH4 0xFFFFFFFF AND PUSH1 0xE0 SHL DUP2 MSTORE PUSH1 0x4 ADD PUSH2 0x1262 SWAP3 SWAP2 SWAP1 PUSH2 0x29F6 JUMP JUMPDEST PUSH1 0x20 PUSH1 0x40 MLOAD DUP1 DUP4 SUB DUP2 PUSH1 0x0 DUP8 GAS CALL ISZERO DUP1 ISZERO PUSH2 0x1281 JUMPI RETURNDATASIZE PUSH1 0x0 DUP1 RETURNDATACOPY RETURNDATASIZE PUSH1 0x0 REVERT JUMPDEST POP POP POP POP PUSH1 0x40 MLOAD RETURNDATASIZE PUSH1 0x1F NOT PUSH1 0x1F DUP3 ADD AND DUP3 ADD DUP1 PUSH1 0x40 MSTORE POP DUP2 ADD SWAP1 PUSH2 0x12A5 SWAP2 SWAP1 PUSH2 0x2A34 JUMP JUMPDEST POP POP JUMP JUMPDEST PUSH1 0xD PUSH1 0x20 MSTORE DUP1 PUSH1 0x0 MSTORE PUSH1 0x40 PUSH1 0x0 KECCAK256 PUSH1 0x0 SWAP2 POP SWAP1 POP SLOAD DUP2 JUMP JUMPDEST PUSH1 0x4 SLOAD DUP2 JUMP JUMPDEST PUSH1 0x3 SLOAD DUP2 JUMP JUMPDEST CALLER PUSH20 0xFFFFFFFFFFFFFFFFFFFFFFFFFFFFFFFFFFFFFFFF AND PUSH1 0x0 DUP1 SLOAD SWAP1 PUSH2 0x100 EXP SWAP1 DIV PUSH20 0xFFFFFFFFFFFFFFFFFFFFFFFFFFFFFFFFFFFFFFFF AND PUSH20 0xFFFFFFFFFFFFFFFFFFFFFFFFFFFFFFFFFFFFFFFF AND EQ PUSH2 0x135B JUMPI PUSH1 0x40 MLOAD PUSH32 0x8C379A000000000000000000000000000000000000000000000000000000000 DUP2 MSTORE PUSH1 0x4 ADD PUSH2 0x1352 SWAP1 PUSH2 0x27C3 JUMP JUMPDEST PUSH1 0x40 MLOAD DUP1 SWAP2 SUB SWAP1 REVERT JUMPDEST DUP2 PUSH1 0xB PUSH1 0x0 PUSH2 0x100 EXP DUP2 SLOAD DUP2 PUSH1 0xFF MUL NOT AND SWAP1 DUP4 ISZERO ISZERO MUL OR SWAP1 SSTORE POP DUP1 PUSH1 0xB PUSH1 0x1 PUSH2 0x100 EXP DUP2 SLOAD DUP2 PUSH1 0xFF MUL NOT AND SWAP1 DUP4 ISZERO ISZERO MUL OR SWAP1 SSTORE POP POP POP JUMP JUMPDEST PUSH1 0x1 PUSH1 0x0 SWAP1 SLOAD SWAP1 PUSH2 0x100 EXP SWAP1 DIV PUSH20 0xFFFFFFFFFFFFFFFFFFFFFFFFFFFFFFFFFFFFFFFF AND DUP2 JUMP JUMPDEST PUSH1 0xB PUSH1 0x1 SWAP1 SLOAD SWAP1 PUSH2 0x100 EXP SWAP1 DIV PUSH1 0xFF AND PUSH2 0x1408 JUMPI PUSH1 0x40 MLOAD PUSH32 0x8C379A000000000000000000000000000000000000000000000000000000000 DUP2 MSTORE PUSH1 0x4 ADD PUSH2 0x13FF SWAP1 PUSH2 0x2892 JUMP JUMPDEST PUSH1 0x40 MLOAD DUP1 SWAP2 SUB SWAP1 REVERT JUMPDEST PUSH1 0x0 PUSH1 0x9 PUSH1 0x0 CALLER PUSH20 0xFFFFFFFFFFFFFFFFFFFFFFFFFFFFFFFFFFFFFFFF AND PUSH20 0xFFFFFFFFFFFFFFFFFFFFFFFFFFFFFFFFFFFFFFFF AND DUP2 MSTORE PUSH1 0x20 ADD SWAP1 DUP2 MSTORE PUSH1 0x20 ADD PUSH1 0x0 KECCAK256 SLOAD GT PUSH2 0x148A JUMPI PUSH1 0x40 MLOAD PUSH32 0x8C379A000000000000000000000000000000000000000000000000000000000 DUP2 MSTORE PUSH1 0x4 ADD PUSH2 0x1481 SWAP1 PUSH2 0x2AAD JUMP JUMPDEST PUSH1 0x40 MLOAD DUP1 SWAP2 SUB SWAP1 REVERT JUMPDEST PUSH1 0x1 PUSH1 0x0 SWAP1 SLOAD SWAP1 PUSH2 0x100 EXP SWAP1 DIV PUSH20 0xFFFFFFFFFFFFFFFFFFFFFFFFFFFFFFFFFFFFFFFF AND PUSH20 0xFFFFFFFFFFFFFFFFFFFFFFFFFFFFFFFFFFFFFFFF AND PUSH4 0xA9059CBB CALLER PUSH1 0x9 PUSH1 0x0 CALLER PUSH20 0xFFFFFFFFFFFFFFFFFFFFFFFFFFFFFFFFFFFFFFFF AND PUSH20 0xFFFFFFFFFFFFFFFFFFFFFFFFFFFFFFFFFFFFFFFF AND DUP2 MSTORE PUSH1 0x20 ADD SWAP1 DUP2 MSTORE PUSH1 0x20 ADD PUSH1 0x0 KECCAK256 SLOAD PUSH1 0x40 MLOAD DUP4 PUSH4 0xFFFFFFFF AND PUSH1 0xE0 SHL DUP2 MSTORE PUSH1 0x4 ADD PUSH2 0x1526 SWAP3 SWAP2 SWAP1 PUSH2 0x29F6 JUMP JUMPDEST PUSH1 0x20 PUSH1 0x40 MLOAD DUP1 DUP4 SUB DUP2 PUSH1 0x0 DUP8 GAS CALL ISZERO DUP1 ISZERO PUSH2 0x1545 JUMPI RETURNDATASIZE PUSH1 0x0 DUP1 RETURNDATACOPY RETURNDATASIZE PUSH1 0x0 REVERT JUMPDEST POP POP POP POP PUSH1 0x40 MLOAD RETURNDATASIZE PUSH1 0x1F NOT PUSH1 0x1F DUP3 ADD AND DUP3 ADD DUP1 PUSH1 0x40 MSTORE POP DUP2 ADD SWAP1 PUSH2 0x1569 SWAP2 SWAP1 PUSH2 0x2A34 JUMP JUMPDEST POP PUSH1 0x0 PUSH1 0x9 PUSH1 0x0 CALLER PUSH20 0xFFFFFFFFFFFFFFFFFFFFFFFFFFFFFFFFFFFFFFFF AND PUSH20 0xFFFFFFFFFFFFFFFFFFFFFFFFFFFFFFFFFFFFFFFF AND DUP2 MSTORE PUSH1 0x20 ADD SWAP1 DUP2 MSTORE PUSH1 0x20 ADD PUSH1 0x0 KECCAK256 DUP2 SWAP1 SSTORE POP JUMP JUMPDEST PUSH1 0x11 PUSH1 0x20 MSTORE DUP1 PUSH1 0x0 MSTORE PUSH1 0x40 PUSH1 0x0 KECCAK256 PUSH1 0x0 SWAP2 POP SWAP1 POP SLOAD DUP2 JUMP JUMPDEST PUSH1 0xD PUSH1 0x0 CALLER PUSH20 0xFFFFFFFFFFFFFFFFFFFFFFFFFFFFFFFFFFFFFFFF AND PUSH20 0xFFFFFFFFFFFFFFFFFFFFFFFFFFFFFFFFFFFFFFFF AND DUP2 MSTORE PUSH1 0x20 ADD SWAP1 DUP2 MSTORE PUSH1 0x20 ADD PUSH1 0x0 KECCAK256 SLOAD PUSH1 0xE PUSH1 0x0 CALLER PUSH20 0xFFFFFFFFFFFFFFFFFFFFFFFFFFFFFFFFFFFFFFFF AND PUSH20 0xFFFFFFFFFFFFFFFFFFFFFFFFFFFFFFFFFFFFFFFF AND DUP2 MSTORE PUSH1 0x20 ADD SWAP1 DUP2 MSTORE PUSH1 0x20 ADD PUSH1 0x0 KECCAK256 SLOAD TIMESTAMP PUSH2 0x1654 SWAP2 SWAP1 PUSH2 0x2812 JUMP JUMPDEST LT ISZERO PUSH2 0x1695 JUMPI PUSH1 0x40 MLOAD PUSH32 0x8C379A000000000000000000000000000000000000000000000000000000000 DUP2 MSTORE PUSH1 0x4 ADD PUSH2 0x168C SWAP1 PUSH2 0x2B19 JUMP JUMPDEST PUSH1 0x40 MLOAD DUP1 SWAP2 SUB SWAP1 REVERT JUMPDEST PUSH1 0x0 PUSH1 0xC PUSH1 0x0 CALLER PUSH20 0xFFFFFFFFFFFFFFFFFFFFFFFFFFFFFFFFFFFFFFFF AND PUSH20 0xFFFFFFFFFFFFFFFFFFFFFFFFFFFFFFFFFFFFFFFF AND DUP2 MSTORE PUSH1 0x20 ADD SWAP1 DUP2 MSTORE PUSH1 0x20 ADD PUSH1 0x0 KECCAK256 SLOAD GT PUSH2 0x1717 JUMPI PUSH1 0x40 MLOAD PUSH32 0x8C379A000000000000000000000000000000000000000000000000000000000 DUP2 MSTORE PUSH1 0x4 ADD PUSH2 0x170E SWAP1 PUSH2 0x28FE JUMP JUMPDEST PUSH1 0x40 MLOAD DUP1 SWAP2 SUB SWAP1 REVERT JUMPDEST PUSH1 0x2 PUSH1 0x0 SWAP1 SLOAD SWAP1 PUSH2 0x100 EXP SWAP1 DIV PUSH20 0xFFFFFFFFFFFFFFFFFFFFFFFFFFFFFFFFFFFFFFFF AND PUSH20 0xFFFFFFFFFFFFFFFFFFFFFFFFFFFFFFFFFFFFFFFF AND PUSH4 0xA9059CBB CALLER PUSH1 0xC PUSH1 0x0 CALLER PUSH20 0xFFFFFFFFFFFFFFFFFFFFFFFFFFFFFFFFFFFFFFFF AND PUSH20 0xFFFFFFFFFFFFFFFFFFFFFFFFFFFFFFFFFFFFFFFF AND DUP2 MSTORE PUSH1 0x20 ADD SWAP1 DUP2 MSTORE PUSH1 0x20 ADD PUSH1 0x0 KECCAK256 SLOAD PUSH1 0x40 MLOAD DUP4 PUSH4 0xFFFFFFFF AND PUSH1 0xE0 SHL DUP2 MSTORE PUSH1 0x4 ADD PUSH2 0x17B3 SWAP3 SWAP2 SWAP1 PUSH2 0x29F6 JUMP JUMPDEST PUSH1 0x20 PUSH1 0x40 MLOAD DUP1 DUP4 SUB DUP2 PUSH1 0x0 DUP8 GAS CALL ISZERO DUP1 ISZERO PUSH2 0x17D2 JUMPI RETURNDATASIZE PUSH1 0x0 DUP1 RETURNDATACOPY RETURNDATASIZE PUSH1 0x0 REVERT JUMPDEST POP POP POP POP PUSH1 0x40 MLOAD RETURNDATASIZE PUSH1 0x1F NOT PUSH1 0x1F DUP3 ADD AND DUP3 ADD DUP1 PUSH1 0x40 MSTORE POP DUP2 ADD SWAP1 PUSH2 0x17F6 SWAP2 SWAP1 PUSH2 0x2A34 JUMP JUMPDEST POP PUSH1 0x0 PUSH1 0xC PUSH1 0x0 CALLER PUSH20 0xFFFFFFFFFFFFFFFFFFFFFFFFFFFFFFFFFFFFFFFF AND PUSH20 0xFFFFFFFFFFFFFFFFFFFFFFFFFFFFFFFFFFFFFFFF AND DUP2 MSTORE PUSH1 0x20 ADD SWAP1 DUP2 MSTORE PUSH1 0x20 ADD PUSH1 0x0 KECCAK256 DUP2 SWAP1 SSTORE POP PUSH1 0x0 PUSH1 0xE PUSH1 0x0 CALLER PUSH20 0xFFFFFFFFFFFFFFFFFFFFFFFFFFFFFFFFFFFFFFFF AND PUSH20 0xFFFFFFFFFFFFFFFFFFFFFFFFFFFFFFFFFFFFFFFF AND DUP2 MSTORE PUSH1 0x20 ADD SWAP1 DUP2 MSTORE PUSH1 0x20 ADD PUSH1 0x0 KECCAK256 DUP2 SWAP1 SSTORE POP PUSH1 0x0 PUSH1 0x10 PUSH1 0x0 CALLER PUSH20 0xFFFFFFFFFFFFFFFFFFFFFFFFFFFFFFFFFFFFFFFF AND PUSH20 0xFFFFFFFFFFFFFFFFFFFFFFFFFFFFFFFFFFFFFFFF AND DUP2 MSTORE PUSH1 0x20 ADD SWAP1 DUP2 MSTORE PUSH1 0x20 ADD PUSH1 0x0 KECCAK256 DUP2 SWAP1 SSTORE POP PUSH1 0x0 PUSH1 0xD PUSH1 0x0 CALLER PUSH20 0xFFFFFFFFFFFFFFFFFFFFFFFFFFFFFFFFFFFFFFFF AND PUSH20 0xFFFFFFFFFFFFFFFFFFFFFFFFFFFFFFFFFFFFFFFF AND DUP2 MSTORE PUSH1 0x20 ADD SWAP1 DUP2 MSTORE PUSH1 0x20 ADD PUSH1 0x0 KECCAK256 DUP2 SWAP1 SSTORE POP PUSH1 0x0 PUSH1 0x11 PUSH1 0x0 CALLER PUSH20 0xFFFFFFFFFFFFFFFFFFFFFFFFFFFFFFFFFFFFFFFF AND PUSH20 0xFFFFFFFFFFFFFFFFFFFFFFFFFFFFFFFFFFFFFFFF AND DUP2 MSTORE PUSH1 0x20 ADD SWAP1 DUP2 MSTORE PUSH1 0x20 ADD PUSH1 0x0 KECCAK256 DUP2 SWAP1 SSTORE POP JUMP JUMPDEST PUSH1 0x9 PUSH1 0x20 MSTORE DUP1 PUSH1 0x0 MSTORE PUSH1 0x40 PUSH1 0x0 KECCAK256 PUSH1 0x0 SWAP2 POP SWAP1 POP SLOAD DUP2 JUMP JUMPDEST PUSH1 0xB PUSH1 0x1 SWAP1 SLOAD SWAP1 PUSH2 0x100 EXP SWAP1 DIV PUSH1 0xFF AND DUP2 JUMP JUMPDEST CALLER PUSH20 0xFFFFFFFFFFFFFFFFFFFFFFFFFFFFFFFFFFFFFFFF AND PUSH1 0x0 DUP1 SLOAD SWAP1 PUSH2 0x100 EXP SWAP1 DIV PUSH20 0xFFFFFFFFFFFFFFFFFFFFFFFFFFFFFFFFFFFFFFFF AND PUSH20 0xFFFFFFFFFFFFFFFFFFFFFFFFFFFFFFFFFFFFFFFF AND EQ PUSH2 0x1A0B JUMPI PUSH1 0x40 MLOAD PUSH32 0x8C379A000000000000000000000000000000000000000000000000000000000 DUP2 MSTORE PUSH1 0x4 ADD PUSH2 0x1A02 SWAP1 PUSH2 0x27C3 JUMP JUMPDEST PUSH1 0x40 MLOAD DUP1 SWAP2 SUB SWAP1 REVERT JUMPDEST PUSH1 0x0 PUSH20 0xFFFFFFFFFFFFFFFFFFFFFFFFFFFFFFFFFFFFFFFF AND DUP2 PUSH20 0xFFFFFFFFFFFFFFFFFFFFFFFFFFFFFFFFFFFFFFFF AND SUB PUSH2 0x1A7A JUMPI PUSH1 0x40 MLOAD PUSH32 0x8C379A000000000000000000000000000000000000000000000000000000000 DUP2 MSTORE PUSH1 0x4 ADD PUSH2 0x1A71 SWAP1 PUSH2 0x2B85 JUMP JUMPDEST PUSH1 0x40 MLOAD DUP1 SWAP2 SUB SWAP1 REVERT JUMPDEST DUP1 PUSH20 0xFFFFFFFFFFFFFFFFFFFFFFFFFFFFFFFFFFFFFFFF AND PUSH1 0x0 DUP1 SLOAD SWAP1 PUSH2 0x100 EXP SWAP1 DIV PUSH20 0xFFFFFFFFFFFFFFFFFFFFFFFFFFFFFFFFFFFFFFFF AND PUSH20 0xFFFFFFFFFFFFFFFFFFFFFFFFFFFFFFFFFFFFFFFF AND PUSH32 0x8BE0079C531659141344CD1FD0A4F28419497F9722A3DAAFE3B4186F6B6457E0 PUSH1 0x40 MLOAD PUSH1 0x40 MLOAD DUP1 SWAP2 SUB SWAP1 LOG3 DUP1 PUSH1 0x0 DUP1 PUSH2 0x100 EXP DUP2 SLOAD DUP2 PUSH20 0xFFFFFFFFFFFFFFFFFFFFFFFFFFFFFFFFFFFFFFFF MUL NOT AND SWAP1 DUP4 PUSH20 0xFFFFFFFFFFFFFFFFFFFFFFFFFFFFFFFFFFFFFFFF AND MUL OR SWAP1 SSTORE POP POP JUMP JUMPDEST PUSH1 0xB PUSH1 0x0 SWAP1 SLOAD SWAP1 PUSH2 0x100 EXP SWAP1 DIV PUSH1 0xFF AND DUP2 JUMP JUMPDEST CALLER PUSH20 0xFFFFFFFFFFFFFFFFFFFFFFFFFFFFFFFFFFFFFFFF AND PUSH1 0x0 DUP1 SLOAD SWAP1 PUSH2 0x100 EXP SWAP1 DIV PUSH20 0xFFFFFFFFFFFFFFFFFFFFFFFFFFFFFFFFFFFFFFFF AND PUSH20 0xFFFFFFFFFFFFFFFFFFFFFFFFFFFFFFFFFFFFFFFF AND EQ PUSH2 0x1BD8 JUMPI PUSH1 0x40 MLOAD PUSH32 0x8C379A000000000000000000000000000000000000000000000000000000000 DUP2 MSTORE PUSH1 0x4 ADD PUSH2 0x1BCF SWAP1 PUSH2 0x27C3 JUMP JUMPDEST PUSH1 0x40 MLOAD DUP1 SWAP2 SUB SWAP1 REVERT JUMPDEST PUSH1 0x0 PUSH1 0xC PUSH1 0x0 CALLER PUSH20 0xFFFFFFFFFFFFFFFFFFFFFFFFFFFFFFFFFFFFFFFF AND PUSH20 0xFFFFFFFFFFFFFFFFFFFFFFFFFFFFFFFFFFFFFFFF AND DUP2 MSTORE PUSH1 0x20 ADD SWAP1 DUP2 MSTORE PUSH1 0x20 ADD PUSH1 0x0 KECCAK256 SLOAD GT PUSH2 0x1C5A JUMPI PUSH1 0x40 MLOAD PUSH32 0x8C379A000000000000000000000000000000000000000000000000000000000 DUP2 MSTORE PUSH1 0x4 ADD PUSH2 0x1C51 SWAP1 PUSH2 0x28FE JUMP JUMPDEST PUSH1 0x40 MLOAD DUP1 SWAP2 SUB SWAP1 REVERT JUMPDEST PUSH1 0x2 PUSH1 0x0 SWAP1 SLOAD SWAP1 PUSH2 0x100 EXP SWAP1 DIV PUSH20 0xFFFFFFFFFFFFFFFFFFFFFFFFFFFFFFFFFFFFFFFF AND PUSH20 0xFFFFFFFFFFFFFFFFFFFFFFFFFFFFFFFFFFFFFFFF AND PUSH4 0xA9059CBB CALLER PUSH1 0x7 SLOAD PUSH1 0x40 MLOAD DUP4 PUSH4 0xFFFFFFFF AND PUSH1 0xE0 SHL DUP2 MSTORE PUSH1 0x4 ADD PUSH2 0x1CB9 SWAP3 SWAP2 SWAP1 PUSH2 0x29F6 JUMP JUMPDEST PUSH1 0x20 PUSH1 0x40 MLOAD DUP1 DUP4 SUB DUP2 PUSH1 0x0 DUP8 GAS CALL ISZERO DUP1 ISZERO PUSH2 0x1CD8 JUMPI RETURNDATASIZE PUSH1 0x0 DUP1 RETURNDATACOPY RETURNDATASIZE PUSH1 0x0 REVERT JUMPDEST POP POP POP POP PUSH1 0x40 MLOAD RETURNDATASIZE PUSH1 0x1F NOT PUSH1 0x1F DUP3 ADD AND DUP3 ADD DUP1 PUSH1 0x40 MSTORE POP DUP2 ADD SWAP1 PUSH2 0x1CFC SWAP2 SWAP1 PUSH2 0x2A34 JUMP JUMPDEST POP PUSH1 0x0 PUSH1 0xC PUSH1 0x0 CALLER PUSH20 0xFFFFFFFFFFFFFFFFFFFFFFFFFFFFFFFFFFFFFFFF AND PUSH20 0xFFFFFFFFFFFFFFFFFFFFFFFFFFFFFFFFFFFFFFFF AND DUP2 MSTORE PUSH1 0x20 ADD SWAP1 DUP2 MSTORE PUSH1 0x20 ADD PUSH1 0x0 KECCAK256 DUP2 SWAP1 SSTORE POP PUSH1 0x0 PUSH1 0xE PUSH1 0x0 CALLER PUSH20 0xFFFFFFFFFFFFFFFFFFFFFFFFFFFFFFFFFFFFFFFF AND PUSH20 0xFFFFFFFFFFFFFFFFFFFFFFFFFFFFFFFFFFFFFFFF AND DUP2 MSTORE PUSH1 0x20 ADD SWAP1 DUP2 MSTORE PUSH1 0x20 ADD PUSH1 0x0 KECCAK256 DUP2 SWAP1 SSTORE POP PUSH1 0x0 PUSH1 0x10 PUSH1 0x0 CALLER PUSH20 0xFFFFFFFFFFFFFFFFFFFFFFFFFFFFFFFFFFFFFFFF AND PUSH20 0xFFFFFFFFFFFFFFFFFFFFFFFFFFFFFFFFFFFFFFFF AND DUP2 MSTORE PUSH1 0x20 ADD SWAP1 DUP2 MSTORE PUSH1 0x20 ADD PUSH1 0x0 KECCAK256 DUP2 SWAP1 SSTORE POP PUSH1 0x0 PUSH1 0xD PUSH1 0x0 CALLER PUSH20 0xFFFFFFFFFFFFFFFFFFFFFFFFFFFFFFFFFFFFFFFF AND PUSH20 0xFFFFFFFFFFFFFFFFFFFFFFFFFFFFFFFFFFFFFFFF AND DUP2 MSTORE PUSH1 0x20 ADD SWAP1 DUP2 MSTORE PUSH1 0x20 ADD PUSH1 0x0 KECCAK256 DUP2 SWAP1 SSTORE POP PUSH1 0x0 PUSH1 0x11 PUSH1 0x0 CALLER PUSH20 0xFFFFFFFFFFFFFFFFFFFFFFFFFFFFFFFFFFFFFFFF AND PUSH20 0xFFFFFFFFFFFFFFFFFFFFFFFFFFFFFFFFFFFFFFFF AND DUP2 MSTORE PUSH1 0x20 ADD SWAP1 DUP2 MSTORE PUSH1 0x20 ADD PUSH1 0x0 KECCAK256 DUP2 SWAP1 SSTORE POP JUMP JUMPDEST PUSH1 0xB PUSH1 0x0 SWAP1 SLOAD SWAP1 PUSH2 0x100 EXP SWAP1 DIV PUSH1 0xFF AND PUSH2 0x1EA7 JUMPI PUSH1 0x40 MLOAD PUSH32 0x8C379A000000000000000000000000000000000000000000000000000000000 DUP2 MSTORE PUSH1 0x4 ADD PUSH2 0x1E9E SWAP1 PUSH2 0x2892 JUMP JUMPDEST PUSH1 0x40 MLOAD DUP1 SWAP2 SUB SWAP1 REVERT JUMPDEST CALLER PUSH20 0xFFFFFFFFFFFFFFFFFFFFFFFFFFFFFFFFFFFFFFFF AND DUP4 PUSH20 0xFFFFFFFFFFFFFFFFFFFFFFFFFFFFFFFFFFFFFFFF AND SUB PUSH2 0x1F15 JUMPI PUSH1 0x40 MLOAD PUSH32 0x8C379A000000000000000000000000000000000000000000000000000000000 DUP2 MSTORE PUSH1 0x4 ADD PUSH2 0x1F0C SWAP1 PUSH2 0x2BF1 JUMP JUMPDEST PUSH1 0x40 MLOAD DUP1 SWAP2 SUB SWAP1 REVERT JUMPDEST PUSH1 0x0 PUSH1 0xC PUSH1 0x0 CALLER PUSH20 0xFFFFFFFFFFFFFFFFFFFFFFFFFFFFFFFFFFFFFFFF AND PUSH20 0xFFFFFFFFFFFFFFFFFFFFFFFFFFFFFFFFFFFFFFFF AND DUP2 MSTORE PUSH1 0x20 ADD SWAP1 DUP2 MSTORE PUSH1 0x20 ADD PUSH1 0x0 KECCAK256 SLOAD EQ PUSH2 0x1F97 JUMPI PUSH1 0x40 MLOAD PUSH32 0x8C379A000000000000000000000000000000000000000000000000000000000 DUP2 MSTORE PUSH1 0x4 ADD PUSH2 0x1F8E SWAP1 PUSH2 0x2C5D JUMP JUMPDEST PUSH1 0x40 MLOAD DUP1 SWAP2 SUB SWAP1 REVERT JUMPDEST PUSH1 0x0 DUP5 GT PUSH2 0x1FDA JUMPI PUSH1 0x40 MLOAD PUSH32 0x8C379A000000000000000000000000000000000000000000000000000000000 DUP2 MSTORE PUSH1 0x4 ADD PUSH2 0x1FD1 SWAP1 PUSH2 0x2CC9 JUMP JUMPDEST PUSH1 0x40 MLOAD DUP1 SWAP2 SUB SWAP1 REVERT JUMPDEST PUSH1 0x4 SLOAD DUP3 EQ DUP1 PUSH2 0x1FEB JUMPI POP PUSH1 0x5 SLOAD DUP3 EQ JUMPDEST DUP1 PUSH2 0x1FF7 JUMPI POP PUSH1 0x6 SLOAD DUP3 EQ JUMPDEST PUSH2 0x2036 JUMPI PUSH1 0x40 MLOAD PUSH32 0x8C379A000000000000000000000000000000000000000000000000000000000 DUP2 MSTORE PUSH1 0x4 ADD PUSH2 0x202D SWAP1 PUSH2 0x2D35 JUMP JUMPDEST PUSH1 0x40 MLOAD DUP1 SWAP2 SUB SWAP1 REVERT JUMPDEST PUSH1 0x0 PUSH1 0x4 SLOAD DUP4 SUB PUSH2 0x2087 JUMPI PUSH2 0x2080 PUSH2 0x2078 PUSH2 0x2070 PUSH2 0x2069 PUSH2 0x2061 PUSH2 0x205B DUP11 PUSH1 0x8 PUSH2 0x24BE JUMP JUMPDEST DUP8 PUSH2 0x24BE JUMP JUMPDEST PUSH1 0x7 SLOAD PUSH2 0x24BE JUMP JUMPDEST PUSH1 0x64 PUSH2 0x2500 JUMP JUMPDEST PUSH2 0x3E8 PUSH2 0x2500 JUMP JUMPDEST PUSH1 0x4 SLOAD PUSH2 0x2500 JUMP JUMPDEST SWAP1 POP PUSH2 0x2123 JUMP JUMPDEST PUSH1 0x5 SLOAD DUP4 SUB PUSH2 0x20D6 JUMPI PUSH2 0x20CF PUSH2 0x20C7 PUSH2 0x20BF PUSH2 0x20B8 PUSH2 0x20B0 PUSH2 0x20AA DUP11 PUSH1 0xD PUSH2 0x24BE JUMP JUMPDEST DUP8 PUSH2 0x24BE JUMP JUMPDEST PUSH1 0x7 SLOAD PUSH2 0x24BE JUMP JUMPDEST PUSH1 0x64 PUSH2 0x2500 JUMP JUMPDEST PUSH2 0x3E8 PUSH2 0x2500 JUMP JUMPDEST PUSH1 0x4 SLOAD PUSH2 0x2500 JUMP JUMPDEST SWAP1 POP PUSH2 0x2122 JUMP JUMPDEST PUSH1 0x6 SLOAD DUP4 SUB PUSH2 0x2121 JUMPI PUSH2 0x211E PUSH2 0x2116 PUSH2 0x210E PUSH2 0x2107 PUSH2 0x20FF PUSH2 0x20F9 DUP11 PUSH1 0x10 PUSH2 0x24BE JUMP JUMPDEST DUP8 PUSH2 0x24BE JUMP JUMPDEST PUSH1 0x7 SLOAD PUSH2 0x24BE JUMP JUMPDEST PUSH1 0x64 PUSH2 0x2500 JUMP JUMPDEST PUSH2 0x3E8 PUSH2 0x2500 JUMP JUMPDEST PUSH1 0x4 SLOAD PUSH2 0x2500 JUMP JUMPDEST SWAP1 POP JUMPDEST JUMPDEST JUMPDEST PUSH1 0x0 PUSH20 0xFFFFFFFFFFFFFFFFFFFFFFFFFFFFFFFFFFFFFFFF AND DUP5 PUSH20 0xFFFFFFFFFFFFFFFFFFFFFFFFFFFFFFFFFFFFFFFF AND EQ PUSH2 0x22B5 JUMPI DUP4 PUSH1 0x8 PUSH1 0x0 CALLER PUSH20 0xFFFFFFFFFFFFFFFFFFFFFFFFFFFFFFFFFFFFFFFF AND PUSH20 0xFFFFFFFFFFFFFFFFFFFFFFFFFFFFFFFFFFFFFFFF AND DUP2 MSTORE PUSH1 0x20 ADD SWAP1 DUP2 MSTORE PUSH1 0x20 ADD PUSH1 0x0 KECCAK256 PUSH1 0x0 PUSH2 0x100 EXP DUP2 SLOAD DUP2 PUSH20 0xFFFFFFFFFFFFFFFFFFFFFFFFFFFFFFFFFFFFFFFF MUL NOT AND SWAP1 DUP4 PUSH20 0xFFFFFFFFFFFFFFFFFFFFFFFFFFFFFFFFFFFFFFFF AND MUL OR SWAP1 SSTORE POP PUSH3 0x186A0 PUSH1 0x7 SLOAD PUSH1 0x5 DUP8 DUP6 PUSH2 0x21EA SWAP2 SWAP1 PUSH2 0x2D55 JUMP JUMPDEST PUSH2 0x21F4 SWAP2 SWAP1 PUSH2 0x2D55 JUMP JUMPDEST PUSH2 0x21FE SWAP2 SWAP1 PUSH2 0x2D55 JUMP JUMPDEST PUSH2 0x2208 SWAP2 SWAP1 PUSH2 0x2DC6 JUMP JUMPDEST PUSH1 0x9 PUSH1 0x0 DUP7 PUSH20 0xFFFFFFFFFFFFFFFFFFFFFFFFFFFFFFFFFFFFFFFF AND PUSH20 0xFFFFFFFFFFFFFFFFFFFFFFFFFFFFFFFFFFFFFFFF AND DUP2 MSTORE PUSH1 0x20 ADD SWAP1 DUP2 MSTORE PUSH1 0x20 ADD PUSH1 0x0 KECCAK256 PUSH1 0x0 DUP3 DUP3 SLOAD PUSH2 0x2256 SWAP2 SWAP1 PUSH2 0x2DF7 JUMP JUMPDEST SWAP3 POP POP DUP2 SWAP1 SSTORE POP PUSH1 0x1 PUSH1 0xA PUSH1 0x0 DUP7 PUSH20 0xFFFFFFFFFFFFFFFFFFFFFFFFFFFFFFFFFFFFFFFF AND PUSH20 0xFFFFFFFFFFFFFFFFFFFFFFFFFFFFFFFFFFFFFFFF AND DUP2 MSTORE PUSH1 0x20 ADD SWAP1 DUP2 MSTORE PUSH1 0x20 ADD PUSH1 0x0 KECCAK256 PUSH1 0x0 DUP3 DUP3 SLOAD PUSH2 0x22AD SWAP2 SWAP1 PUSH2 0x2DF7 JUMP JUMPDEST SWAP3 POP POP DUP2 SWAP1 SSTORE POP JUMPDEST PUSH1 0x2 PUSH1 0x0 SWAP1 SLOAD SWAP1 PUSH2 0x100 EXP SWAP1 DIV PUSH20 0xFFFFFFFFFFFFFFFFFFFFFFFFFFFFFFFFFFFFFFFF AND PUSH20 0xFFFFFFFFFFFFFFFFFFFFFFFFFFFFFFFFFFFFFFFF AND PUSH4 0x23B872DD CALLER ADDRESS DUP9 PUSH1 0x40 MLOAD DUP5 PUSH4 0xFFFFFFFF AND PUSH1 0xE0 SHL DUP2 MSTORE PUSH1 0x4 ADD PUSH2 0x2314 SWAP4 SWAP3 SWAP2 SWAP1 PUSH2 0x2E2B JUMP JUMPDEST PUSH1 0x20 PUSH1 0x40 MLOAD DUP1 DUP4 SUB DUP2 PUSH1 0x0 DUP8 GAS CALL ISZERO DUP1 ISZERO PUSH2 0x2333 JUMPI RETURNDATASIZE PUSH1 0x0 DUP1 RETURNDATACOPY RETURNDATASIZE PUSH1 0x0 REVERT JUMPDEST POP POP POP POP PUSH1 0x40 MLOAD RETURNDATASIZE PUSH1 0x1F NOT PUSH1 0x1F DUP3 ADD AND DUP3 ADD DUP1 PUSH1 0x40 MSTORE POP DUP2 ADD SWAP1 PUSH2 0x2357 SWAP2 SWAP1 PUSH2 0x2A34 JUMP JUMPDEST POP DUP5 PUSH1 0xC PUSH1 0x0 CALLER PUSH20 0xFFFFFFFFFFFFFFFFFFFFFFFFFFFFFFFFFFFFFFFF AND PUSH20 0xFFFFFFFFFFFFFFFFFFFFFFFFFFFFFFFFFFFFFFFF AND DUP2 MSTORE PUSH1 0x20 ADD SWAP1 DUP2 MSTORE PUSH1 0x20 ADD PUSH1 0x0 KECCAK256 DUP2 SWAP1 SSTORE POP TIMESTAMP PUSH1 0xE PUSH1 0x0 CALLER PUSH20 0xFFFFFFFFFFFFFFFFFFFFFFFFFFFFFFFFFFFFFFFF AND PUSH20 0xFFFFFFFFFFFFFFFFFFFFFFFFFFFFFFFFFFFFFFFF AND DUP2 MSTORE PUSH1 0x20 ADD SWAP1 DUP2 MSTORE PUSH1 0x20 ADD PUSH1 0x0 KECCAK256 DUP2 SWAP1 SSTORE POP DUP3 TIMESTAMP PUSH2 0x23EC SWAP2 SWAP1 PUSH2 0x2DF7 JUMP JUMPDEST PUSH1 0x10 PUSH1 0x0 CALLER PUSH20 0xFFFFFFFFFFFFFFFFFFFFFFFFFFFFFFFFFFFFFFFF AND PUSH20 0xFFFFFFFFFFFFFFFFFFFFFFFFFFFFFFFFFFFFFFFF AND DUP2 MSTORE PUSH1 0x20 ADD SWAP1 DUP2 MSTORE PUSH1 0x20 ADD PUSH1 0x0 KECCAK256 DUP2 SWAP1 SSTORE POP DUP3 PUSH1 0xD PUSH1 0x0 CALLER PUSH20 0xFFFFFFFFFFFFFFFFFFFFFFFFFFFFFFFFFFFFFFFF AND PUSH20 0xFFFFFFFFFFFFFFFFFFFFFFFFFFFFFFFFFFFFFFFF AND DUP2 MSTORE PUSH1 0x20 ADD SWAP1 DUP2 MSTORE PUSH1 0x20 ADD PUSH1 0x0 KECCAK256 DUP2 SWAP1 SSTORE POP DUP1 PUSH1 0x11 PUSH1 0x0 CALLER PUSH20 0xFFFFFFFFFFFFFFFFFFFFFFFFFFFFFFFFFFFFFFFF AND PUSH20 0xFFFFFFFFFFFFFFFFFFFFFFFFFFFFFFFFFFFFFFFF AND DUP2 MSTORE PUSH1 0x20 ADD SWAP1 DUP2 MSTORE PUSH1 0x20 ADD PUSH1 0x0 KECCAK256 DUP2 SWAP1 SSTORE POP POP POP POP POP POP JUMP JUMPDEST PUSH1 0x0 DUP1 DUP4 SUB PUSH2 0x24D0 JUMPI PUSH1 0x0 SWAP1 POP PUSH2 0x24FA JUMP JUMPDEST DUP2 DUP4 PUSH2 0x24DC SWAP2 SWAP1 PUSH2 0x2D55 JUMP JUMPDEST SWAP1 POP DUP2 DUP4 DUP3 PUSH2 0x24EB SWAP2 SWAP1 PUSH2 0x2DC6 JUMP JUMPDEST EQ PUSH2 0x24F9 JUMPI PUSH2 0x24F8 PUSH2 0x2E62 JUMP JUMPDEST JUMPDEST JUMPDEST SWAP3 SWAP2 POP POP JUMP JUMPDEST PUSH1 0x0 DUP2 DUP4 PUSH2 0x250E SWAP2 SWAP1 PUSH2 0x2DC6 JUMP JUMPDEST SWAP1 POP SWAP3 SWAP2 POP POP JUMP JUMPDEST PUSH1 0x0 DUP1 REVERT JUMPDEST PUSH1 0x0 DUP2 SWAP1 POP SWAP2 SWAP1 POP JUMP JUMPDEST PUSH2 0x252E DUP2 PUSH2 0x251B JUMP JUMPDEST DUP2 EQ PUSH2 0x2539 JUMPI PUSH1 0x0 DUP1 REVERT JUMPDEST POP JUMP JUMPDEST PUSH1 0x0 DUP2 CALLDATALOAD SWAP1 POP PUSH2 0x254B DUP2 PUSH2 0x2525 JUMP JUMPDEST SWAP3 SWAP2 POP POP JUMP JUMPDEST PUSH1 0x0 PUSH1 0x20 DUP3 DUP5 SUB SLT ISZERO PUSH2 0x2567 JUMPI PUSH2 0x2566 PUSH2 0x2516 JUMP JUMPDEST JUMPDEST PUSH1 0x0 PUSH2 0x2575 DUP5 DUP3 DUP6 ADD PUSH2 0x253C JUMP JUMPDEST SWAP2 POP POP SWAP3 SWAP2 POP POP JUMP JUMPDEST PUSH1 0x0 PUSH20 0xFFFFFFFFFFFFFFFFFFFFFFFFFFFFFFFFFFFFFFFF DUP3 AND SWAP1 POP SWAP2 SWAP1 POP JUMP JUMPDEST PUSH1 0x0 PUSH2 0x25A9 DUP3 PUSH2 0x257E JUMP JUMPDEST SWAP1 POP SWAP2 SWAP1 POP JUMP JUMPDEST PUSH2 0x25B9 DUP2 PUSH2 0x259E JUMP JUMPDEST DUP2 EQ PUSH2 0x25C4 JUMPI PUSH1 0x0 DUP1 REVERT JUMPDEST POP JUMP JUMPDEST PUSH1 0x0 DUP2 CALLDATALOAD SWAP1 POP PUSH2 0x25D6 DUP2 PUSH2 0x25B0 JUMP JUMPDEST SWAP3 SWAP2 POP POP JUMP JUMPDEST PUSH1 0x0 PUSH1 0x20 DUP3 DUP5 SUB SLT ISZERO PUSH2 0x25F2 JUMPI PUSH2 0x25F1 PUSH2 0x2516 JUMP JUMPDEST JUMPDEST PUSH1 0x0 PUSH2 0x2600 DUP5 DUP3 DUP6 ADD PUSH2 0x25C7 JUMP JUMPDEST SWAP2 POP POP SWAP3 SWAP2 POP POP JUMP JUMPDEST PUSH2 0x2612 DUP2 PUSH2 0x251B JUMP JUMPDEST DUP3 MSTORE POP POP JUMP JUMPDEST PUSH1 0x0 PUSH1 0x20 DUP3 ADD SWAP1 POP PUSH2 0x262D PUSH1 0x0 DUP4 ADD DUP5 PUSH2 0x2609 JUMP JUMPDEST SWAP3 SWAP2 POP POP JUMP JUMPDEST PUSH1 0x0 DUP2 ISZERO ISZERO SWAP1 POP SWAP2 SWAP1 POP JUMP JUMPDEST PUSH2 0x2648 DUP2 PUSH2 0x2633 JUMP JUMPDEST DUP3 MSTORE POP POP JUMP JUMPDEST PUSH1 0x0 PUSH1 0x20 DUP3 ADD SWAP1 POP PUSH2 0x2663 PUSH1 0x0 DUP4 ADD DUP5 PUSH2 0x263F JUMP JUMPDEST SWAP3 SWAP2 POP POP JUMP JUMPDEST PUSH2 0x2672 DUP2 PUSH2 0x259E JUMP JUMPDEST DUP3 MSTORE POP POP JUMP JUMPDEST PUSH1 0x0 PUSH1 0x20 DUP3 ADD SWAP1 POP PUSH2 0x268D PUSH1 0x0 DUP4 ADD DUP5 PUSH2 0x2669 JUMP JUMPDEST SWAP3 SWAP2 POP POP JUMP JUMPDEST PUSH2 0x269C DUP2 PUSH2 0x2633 JUMP JUMPDEST DUP2 EQ PUSH2 0x26A7 JUMPI PUSH1 0x0 DUP1 REVERT JUMPDEST POP JUMP JUMPDEST PUSH1 0x0 DUP2 CALLDATALOAD SWAP1 POP PUSH2 0x26B9 DUP2 PUSH2 0x2693 JUMP JUMPDEST SWAP3 SWAP2 POP POP JUMP JUMPDEST PUSH1 0x0 DUP1 PUSH1 0x40 DUP4 DUP6 SUB SLT ISZERO PUSH2 0x26D6 JUMPI PUSH2 0x26D5 PUSH2 0x2516 JUMP JUMPDEST JUMPDEST PUSH1 0x0 PUSH2 0x26E4 DUP6 DUP3 DUP7 ADD PUSH2 0x26AA JUMP JUMPDEST SWAP3 POP POP PUSH1 0x20 PUSH2 0x26F5 DUP6 DUP3 DUP7 ADD PUSH2 0x26AA JUMP JUMPDEST SWAP2 POP POP SWAP3 POP SWAP3 SWAP1 POP JUMP JUMPDEST PUSH1 0x0 DUP1 PUSH1 0x0 DUP1 PUSH1 0x80 DUP6 DUP8 SUB SLT ISZERO PUSH2 0x2719 JUMPI PUSH2 0x2718 PUSH2 0x2516 JUMP JUMPDEST JUMPDEST PUSH1 0x0 PUSH2 0x2727 DUP8 DUP3 DUP9 ADD PUSH2 0x253C JUMP JUMPDEST SWAP5 POP POP PUSH1 0x20 PUSH2 0x2738 DUP8 DUP3 DUP9 ADD PUSH2 0x25C7 JUMP JUMPDEST SWAP4 POP POP PUSH1 0x40 PUSH2 0x2749 DUP8 DUP3 DUP9 ADD PUSH2 0x253C JUMP JUMPDEST SWAP3 POP POP PUSH1 0x60 PUSH2 0x275A DUP8 DUP3 DUP9 ADD PUSH2 0x253C JUMP JUMPDEST SWAP2 POP POP SWAP3 SWAP6 SWAP2 SWAP5 POP SWAP3 POP JUMP JUMPDEST PUSH1 0x0 DUP3 DUP3 MSTORE PUSH1 0x20 DUP3 ADD SWAP1 POP SWAP3 SWAP2 POP POP JUMP JUMPDEST PUSH32 0x216F776E65720000000000000000000000000000000000000000000000000000 PUSH1 0x0 DUP3 ADD MSTORE POP JUMP JUMPDEST PUSH1 0x0 PUSH2 0x27AD PUSH1 0x6 DUP4 PUSH2 0x2766 JUMP JUMPDEST SWAP2 POP PUSH2 0x27B8 DUP3 PUSH2 0x2777 JUMP JUMPDEST PUSH1 0x20 DUP3 ADD SWAP1 POP SWAP2 SWAP1 POP JUMP JUMPDEST PUSH1 0x0 PUSH1 0x20 DUP3 ADD SWAP1 POP DUP2 DUP2 SUB PUSH1 0x0 DUP4 ADD MSTORE PUSH2 0x27DC DUP2 PUSH2 0x27A0 JUMP JUMPDEST SWAP1 POP SWAP2 SWAP1 POP JUMP JUMPDEST PUSH32 0x4E487B7100000000000000000000000000000000000000000000000000000000 PUSH1 0x0 MSTORE PUSH1 0x11 PUSH1 0x4 MSTORE PUSH1 0x24 PUSH1 0x0 REVERT JUMPDEST PUSH1 0x0 PUSH2 0x281D DUP3 PUSH2 0x251B JUMP JUMPDEST SWAP2 POP PUSH2 0x2828 DUP4 PUSH2 0x251B JUMP JUMPDEST SWAP3 POP DUP3 DUP3 SUB SWAP1 POP DUP2 DUP2 GT ISZERO PUSH2 0x2840 JUMPI PUSH2 0x283F PUSH2 0x27E3 JUMP JUMPDEST JUMPDEST SWAP3 SWAP2 POP POP JUMP JUMPDEST PUSH32 0x6E6F742073746172740000000000000000000000000000000000000000000000 PUSH1 0x0 DUP3 ADD MSTORE POP JUMP JUMPDEST PUSH1 0x0 PUSH2 0x287C PUSH1 0x9 DUP4 PUSH2 0x2766 JUMP JUMPDEST SWAP2 POP PUSH2 0x2887 DUP3 PUSH2 0x2846 JUMP JUMPDEST PUSH1 0x20 DUP3 ADD SWAP1 POP SWAP2 SWAP1 POP JUMP JUMPDEST PUSH1 0x0 PUSH1 0x20 DUP3 ADD SWAP1 POP DUP2 DUP2 SUB PUSH1 0x0 DUP4 ADD MSTORE PUSH2 0x28AB DUP2 PUSH2 0x286F JUMP JUMPDEST SWAP1 POP SWAP2 SWAP1 POP JUMP JUMPDEST PUSH32 0x6E6F74207374616B650000000000000000000000000000000000000000000000 PUSH1 0x0 DUP3 ADD MSTORE POP JUMP JUMPDEST PUSH1 0x0 PUSH2 0x28E8 PUSH1 0x9 DUP4 PUSH2 0x2766 JUMP JUMPDEST SWAP2 POP PUSH2 0x28F3 DUP3 PUSH2 0x28B2 JUMP JUMPDEST PUSH1 0x20 DUP3 ADD SWAP1 POP SWAP2 SWAP1 POP JUMP JUMPDEST PUSH1 0x0 PUSH1 0x20 DUP3 ADD SWAP1 POP DUP2 DUP2 SUB PUSH1 0x0 DUP4 ADD MSTORE PUSH2 0x2917 DUP2 PUSH2 0x28DB JUMP JUMPDEST SWAP1 POP SWAP2 SWAP1 POP JUMP JUMPDEST PUSH32 0x7573657220697320696E20626C61636B6C697374000000000000000000000000 PUSH1 0x0 DUP3 ADD MSTORE POP JUMP JUMPDEST PUSH1 0x0 PUSH2 0x2954 PUSH1 0x14 DUP4 PUSH2 0x2766 JUMP JUMPDEST SWAP2 POP PUSH2 0x295F DUP3 PUSH2 0x291E JUMP JUMPDEST PUSH1 0x20 DUP3 ADD SWAP1 POP SWAP2 SWAP1 POP JUMP JUMPDEST PUSH1 0x0 PUSH1 0x20 DUP3 ADD SWAP1 POP DUP2 DUP2 SUB PUSH1 0x0 DUP4 ADD MSTORE PUSH2 0x2983 DUP2 PUSH2 0x2947 JUMP JUMPDEST SWAP1 POP SWAP2 SWAP1 POP JUMP JUMPDEST PUSH32 0x616C726561647920636C61696D65640000000000000000000000000000000000 PUSH1 0x0 DUP3 ADD MSTORE POP JUMP JUMPDEST PUSH1 0x0 PUSH2 0x29C0 PUSH1 0xF DUP4 PUSH2 0x2766 JUMP JUMPDEST SWAP2 POP PUSH2 0x29CB DUP3 PUSH2 0x298A JUMP JUMPDEST PUSH1 0x20 DUP3 ADD SWAP1 POP SWAP2 SWAP1 POP JUMP JUMPDEST PUSH1 0x0 PUSH1 0x20 DUP3 ADD SWAP1 POP DUP2 DUP2 SUB PUSH1 0x0 DUP4 ADD MSTORE PUSH2 0x29EF DUP2 PUSH2 0x29B3 JUMP JUMPDEST SWAP1 POP SWAP2 SWAP1 POP JUMP JUMPDEST PUSH1 0x0 PUSH1 0x40 DUP3 ADD SWAP1 POP PUSH2 0x2A0B PUSH1 0x0 DUP4 ADD DUP6 PUSH2 0x2669 JUMP JUMPDEST PUSH2 0x2A18 PUSH1 0x20 DUP4 ADD DUP5 PUSH2 0x2609 JUMP JUMPDEST SWAP4 SWAP3 POP POP POP JUMP JUMPDEST PUSH1 0x0 DUP2 MLOAD SWAP1 POP PUSH2 0x2A2E DUP2 PUSH2 0x2693 JUMP JUMPDEST SWAP3 SWAP2 POP POP JUMP JUMPDEST PUSH1 0x0 PUSH1 0x20 DUP3 DUP5 SUB SLT ISZERO PUSH2 0x2A4A JUMPI PUSH2 0x2A49 PUSH2 0x2516 JUMP JUMPDEST JUMPDEST PUSH1 0x0 PUSH2 0x2A58 DUP5 DUP3 DUP6 ADD PUSH2 0x2A1F JUMP JUMPDEST SWAP2 POP POP SWAP3 SWAP2 POP POP JUMP JUMPDEST PUSH32 0x6E6F207265776172640000000000000000000000000000000000000000000000 PUSH1 0x0 DUP3 ADD MSTORE POP JUMP JUMPDEST PUSH1 0x0 PUSH2 0x2A97 PUSH1 0x9 DUP4 PUSH2 0x2766 JUMP JUMPDEST SWAP2 POP PUSH2 0x2AA2 DUP3 PUSH2 0x2A61 JUMP JUMPDEST PUSH1 0x20 DUP3 ADD SWAP1 POP SWAP2 SWAP1 POP JUMP JUMPDEST PUSH1 0x0 PUSH1 0x20 DUP3 ADD SWAP1 POP DUP2 DUP2 SUB PUSH1 0x0 DUP4 ADD MSTORE PUSH2 0x2AC6 DUP2 PUSH2 0x2A8A JUMP JUMPDEST SWAP1 POP SWAP2 SWAP1 POP JUMP JUMPDEST PUSH32 0x6E6F742074696D65000000000000000000000000000000000000000000000000 PUSH1 0x0 DUP3 ADD MSTORE POP JUMP JUMPDEST PUSH1 0x0 PUSH2 0x2B03 PUSH1 0x8 DUP4 PUSH2 0x2766 JUMP JUMPDEST SWAP2 POP PUSH2 0x2B0E DUP3 PUSH2 0x2ACD JUMP JUMPDEST PUSH1 0x20 DUP3 ADD SWAP1 POP SWAP2 SWAP1 POP JUMP JUMPDEST PUSH1 0x0 PUSH1 0x20 DUP3 ADD SWAP1 POP DUP2 DUP2 SUB PUSH1 0x0 DUP4 ADD MSTORE PUSH2 0x2B32 DUP2 PUSH2 0x2AF6 JUMP JUMPDEST SWAP1 POP SWAP2 SWAP1 POP JUMP JUMPDEST PUSH32 0x6E65772069732030000000000000000000000000000000000000000000000000 PUSH1 0x0 DUP3 ADD MSTORE POP JUMP JUMPDEST PUSH1 0x0 PUSH2 0x2B6F PUSH1 0x8 DUP4 PUSH2 0x2766 JUMP JUMPDEST SWAP2 POP PUSH2 0x2B7A DUP3 PUSH2 0x2B39 JUMP JUMPDEST PUSH1 0x20 DUP3 ADD SWAP1 POP SWAP2 SWAP1 POP JUMP JUMPDEST PUSH1 0x0 PUSH1 0x20 DUP3 ADD SWAP1 POP DUP2 DUP2 SUB PUSH1 0x0 DUP4 ADD MSTORE PUSH2 0x2B9E DUP2 PUSH2 0x2B62 JUMP JUMPDEST SWAP1 POP SWAP2 SWAP1 POP JUMP JUMPDEST PUSH32 0x696E76697465722063616E742062792073656C66000000000000000000000000 PUSH1 0x0 DUP3 ADD MSTORE POP JUMP JUMPDEST PUSH1 0x0 PUSH2 0x2BDB PUSH1 0x14 DUP4 PUSH2 0x2766 JUMP JUMPDEST SWAP2 POP PUSH2 0x2BE6 DUP3 PUSH2 0x2BA5 JUMP JUMPDEST PUSH1 0x20 DUP3 ADD SWAP1 POP SWAP2 SWAP1 POP JUMP JUMPDEST PUSH1 0x0 PUSH1 0x20 DUP3 ADD SWAP1 POP DUP2 DUP2 SUB PUSH1 0x0 DUP4 ADD MSTORE PUSH2 0x2C0A DUP2 PUSH2 0x2BCE JUMP JUMPDEST SWAP1 POP SWAP2 SWAP1 POP JUMP JUMPDEST PUSH32 0x616C7265616479207374616B6500000000000000000000000000000000000000 PUSH1 0x0 DUP3 ADD MSTORE POP JUMP JUMPDEST PUSH1 0x0 PUSH2 0x2C47 PUSH1 0xD DUP4 PUSH2 0x2766 JUMP JUMPDEST SWAP2 POP PUSH2 0x2C52 DUP3 PUSH2 0x2C11 JUMP JUMPDEST PUSH1 0x20 DUP3 ADD SWAP1 POP SWAP2 SWAP1 POP JUMP JUMPDEST PUSH1 0x0 PUSH1 0x20 DUP3 ADD SWAP1 POP DUP2 DUP2 SUB PUSH1 0x0 DUP4 ADD MSTORE PUSH2 0x2C76 DUP2 PUSH2 0x2C3A JUMP JUMPDEST SWAP1 POP SWAP2 SWAP1 POP JUMP JUMPDEST PUSH32 0x7A65726F207374616B6500000000000000000000000000000000000000000000 PUSH1 0x0 DUP3 ADD MSTORE POP JUMP JUMPDEST PUSH1 0x0 PUSH2 0x2CB3 PUSH1 0xA DUP4 PUSH2 0x2766 JUMP JUMPDEST SWAP2 POP PUSH2 0x2CBE DUP3 PUSH2 0x2C7D JUMP JUMPDEST PUSH1 0x20 DUP3 ADD SWAP1 POP SWAP2 SWAP1 POP JUMP JUMPDEST PUSH1 0x0 PUSH1 0x20 DUP3 ADD SWAP1 POP DUP2 DUP2 SUB PUSH1 0x0 DUP4 ADD MSTORE PUSH2 0x2CE2 DUP2 PUSH2 0x2CA6 JUMP JUMPDEST SWAP1 POP SWAP2 SWAP1 POP JUMP JUMPDEST PUSH32 0x6E6F742072696768742074696D65000000000000000000000000000000000000 PUSH1 0x0 DUP3 ADD MSTORE POP JUMP JUMPDEST PUSH1 0x0 PUSH2 0x2D1F PUSH1 0xE DUP4 PUSH2 0x2766 JUMP JUMPDEST SWAP2 POP PUSH2 0x2D2A DUP3 PUSH2 0x2CE9 JUMP JUMPDEST PUSH1 0x20 DUP3 ADD SWAP1 POP SWAP2 SWAP1 POP JUMP JUMPDEST PUSH1 0x0 PUSH1 0x20 DUP3 ADD SWAP1 POP DUP2 DUP2 SUB PUSH1 0x0 DUP4 ADD MSTORE PUSH2 0x2D4E DUP2 PUSH2 0x2D12 JUMP JUMPDEST SWAP1 POP SWAP2 SWAP1 POP JUMP JUMPDEST PUSH1 0x0 PUSH2 0x2D60 DUP3 PUSH2 0x251B JUMP JUMPDEST SWAP2 POP PUSH2 0x2D6B DUP4 PUSH2 0x251B JUMP JUMPDEST SWAP3 POP DUP3 DUP3 MUL PUSH2 0x2D79 DUP2 PUSH2 0x251B JUMP JUMPDEST SWAP2 POP DUP3 DUP3 DIV DUP5 EQ DUP4 ISZERO OR PUSH2 0x2D90 JUMPI PUSH2 0x2D8F PUSH2 0x27E3 JUMP JUMPDEST JUMPDEST POP SWAP3 SWAP2 POP POP JUMP JUMPDEST PUSH32 0x4E487B7100000000000000000000000000000000000000000000000000000000 PUSH1 0x0 MSTORE PUSH1 0x12 PUSH1 0x4 MSTORE PUSH1 0x24 PUSH1 0x0 REVERT JUMPDEST PUSH1 0x0 PUSH2 0x2DD1 DUP3 PUSH2 0x251B JUMP JUMPDEST SWAP2 POP PUSH2 0x2DDC DUP4 PUSH2 0x251B JUMP JUMPDEST SWAP3 POP DUP3 PUSH2 0x2DEC JUMPI PUSH2 0x2DEB PUSH2 0x2D97 JUMP JUMPDEST JUMPDEST DUP3 DUP3 DIV SWAP1 POP SWAP3 SWAP2 POP POP JUMP JUMPDEST PUSH1 0x0 PUSH2 0x2E02 DUP3 PUSH2 0x251B JUMP JUMPDEST SWAP2 POP PUSH2 0x2E0D DUP4 PUSH2 0x251B JUMP JUMPDEST SWAP3 POP DUP3 DUP3 ADD SWAP1 POP DUP1 DUP3 GT ISZERO PUSH2 0x2E25 JUMPI PUSH2 0x2E24 PUSH2 0x27E3 JUMP JUMPDEST JUMPDEST SWAP3 SWAP2 POP POP JUMP JUMPDEST PUSH1 0x0 PUSH1 0x60 DUP3 ADD SWAP1 POP PUSH2 0x2E40 PUSH1 0x0 DUP4 ADD DUP7 PUSH2 0x2669 JUMP JUMPDEST PUSH2 0x2E4D PUSH1 0x20 DUP4 ADD DUP6 PUSH2 0x2669 JUMP JUMPDEST PUSH2 0x2E5A PUSH1 0x40 DUP4 ADD DUP5 PUSH2 0x2609 JUMP JUMPDEST SWAP5 SWAP4 POP POP POP POP JUMP JUMPDEST PUSH32 0x4E487B7100000000000000000000000000000000000000000000000000000000 PUSH1 0x0 MSTORE PUSH1 0x1 PUSH1 0x4 MSTORE PUSH1 0x24 PUSH1 0x0 REVERT INVALID LOG2 PUSH5 0x6970667358 0x22 SLT KECCAK256 0xA6 SLOAD NOT 0xFB ORIGIN 0x1E SWAP2 0xBB 0xAD TIMESTAMP SDIV 0x4F SELFDESTRUCT 0x4B 0xDC 0xD7 PUSH24 0x4CDD86C23BECECA6872EFE0F799B2A64736F6C6343000812 STOP CALLER "
				},
				"gasEstimates": {
					"creation": {
						"codeDepositCost": "2395000",
						"executionCost": "236047",
						"totalCost": "2631047"
					},
					"external": {
						"_inviteNum(address)": "2904",
						"_inviterMap(address)": "infinite",
						"_inviterReward(address)": "2925",
						"_proportion()": "2497",
						"_rewardToken()": "2625",
						"_stake1()": "2474",
						"_stake3()": "2540",
						"_stake5()": "2497",
						"_stakeToken()": "2559",
						"_stakedk()": "2496",
						"_userBlacklist(address)": "2958",
						"_userEndClaimTime(address)": "2883",
						"_userLastClaimTime(address)": "2881",
						"_userPower(address)": "2881",
						"_userStake(address)": "2882",
						"_userStakeStartTime(address)": "2860",
						"_userStakeTime(address)": "2926",
						"cancalStack()": "infinite",
						"cancalStackOver()": "infinite",
						"claimReward()": "infinite",
						"claimStakeReward()": "infinite",
						"isClaimStart()": "2565",
						"isStakeStart()": "2559",
						"owner()": "2568",
						"pureAmount(address)": "infinite",
						"setProportion(uint256)": "24734",
						"setRewardToken(address)": "27022",
						"setStakeToken(address)": "26980",
						"setStatus(bool,bool)": "infinite",
						"setUserBlacklist(address)": "29297",
						"setowner(address)": "27001",
						"stake(uint256,address,uint256,uint256)": "infinite",
						"transferOwnership(address)": "30668",
						"withdraw()": "infinite"
					}
				},
				"methodIdentifiers": {
					"_inviteNum(address)": "1896b2c4",
					"_inviterMap(address)": "264edc1d",
					"_inviterReward(address)": "dd8158e0",
					"_proportion()": "2eae667d",
					"_rewardToken()": "b59c6e0e",
					"_stake1()": "a6b14d5a",
					"_stake3()": "853e03e5",
					"_stake5()": "18883877",
					"_stakeToken()": "71ddda57",
					"_stakedk()": "b3341b21",
					"_userBlacklist(address)": "115a972e",
					"_userEndClaimTime(address)": "0356c98f",
					"_userLastClaimTime(address)": "7929e29f",
					"_userPower(address)": "bef4533c",
					"_userStake(address)": "9805fa74",
					"_userStakeStartTime(address)": "16c259e1",
					"_userStakeTime(address)": "a041e172",
					"cancalStack()": "d02da761",
					"cancalStackOver()": "f8fa72fd",
					"claimReward()": "b88a802f",
					"claimStakeReward()": "9fd3af8b",
					"isClaimStart()": "e650d293",
					"isStakeStart()": "f3ef99bc",
					"owner()": "8da5cb5b",
					"pureAmount(address)": "29dc425f",
					"setProportion(uint256)": "006cd200",
					"setRewardToken(address)": "8aee8127",
					"setStakeToken(address)": "0397d458",
					"setStatus(bool,bool)": "b3c2eac1",
					"setUserBlacklist(address)": "7d4cbd57",
					"setowner(address)": "592bd705",
					"stake(uint256,address,uint256,uint256)": "faf5ec0c",
					"transferOwnership(address)": "f2fde38b",
					"withdraw()": "3ccfd60b"
				}
			},
			"storageLayout": {
				"storage": [
					{
						"astId": 85,
						"contract": "contracts/ymii/stake1.sol:Stake",
						"label": "_owner",
						"offset": 0,
						"slot": "0",
						"type": "t_address"
					},
					{
						"astId": 527,
						"contract": "contracts/ymii/stake1.sol:Stake",
						"label": "_rewardToken",
						"offset": 0,
						"slot": "1",
						"type": "t_address"
					},
					{
						"astId": 530,
						"contract": "contracts/ymii/stake1.sol:Stake",
						"label": "_stakeToken",
						"offset": 0,
						"slot": "2",
						"type": "t_address"
					},
					{
						"astId": 533,
						"contract": "contracts/ymii/stake1.sol:Stake",
						"label": "_stakedk",
						"offset": 0,
						"slot": "3",
						"type": "t_uint256"
					},
					{
						"astId": 540,
						"contract": "contracts/ymii/stake1.sol:Stake",
						"label": "_stake1",
						"offset": 0,
						"slot": "4",
						"type": "t_uint256"
					},
					{
						"astId": 547,
						"contract": "contracts/ymii/stake1.sol:Stake",
						"label": "_stake3",
						"offset": 0,
						"slot": "5",
						"type": "t_uint256"
					},
					{
						"astId": 554,
						"contract": "contracts/ymii/stake1.sol:Stake",
						"label": "_stake5",
						"offset": 0,
						"slot": "6",
						"type": "t_uint256"
					},
					{
						"astId": 557,
						"contract": "contracts/ymii/stake1.sol:Stake",
						"label": "_proportion",
						"offset": 0,
						"slot": "7",
						"type": "t_uint256"
					},
					{
						"astId": 561,
						"contract": "contracts/ymii/stake1.sol:Stake",
						"label": "_inviterMap",
						"offset": 0,
						"slot": "8",
						"type": "t_mapping(t_address,t_address)"
					},
					{
						"astId": 565,
						"contract": "contracts/ymii/stake1.sol:Stake",
						"label": "_inviterReward",
						"offset": 0,
						"slot": "9",
						"type": "t_mapping(t_address,t_uint256)"
					},
					{
						"astId": 569,
						"contract": "contracts/ymii/stake1.sol:Stake",
						"label": "_inviteNum",
						"offset": 0,
						"slot": "10",
						"type": "t_mapping(t_address,t_uint256)"
					},
					{
						"astId": 572,
						"contract": "contracts/ymii/stake1.sol:Stake",
						"label": "isStakeStart",
						"offset": 0,
						"slot": "11",
						"type": "t_bool"
					},
					{
						"astId": 575,
						"contract": "contracts/ymii/stake1.sol:Stake",
						"label": "isClaimStart",
						"offset": 1,
						"slot": "11",
						"type": "t_bool"
					},
					{
						"astId": 579,
						"contract": "contracts/ymii/stake1.sol:Stake",
						"label": "_userStake",
						"offset": 0,
						"slot": "12",
						"type": "t_mapping(t_address,t_uint256)"
					},
					{
						"astId": 583,
						"contract": "contracts/ymii/stake1.sol:Stake",
						"label": "_userStakeTime",
						"offset": 0,
						"slot": "13",
						"type": "t_mapping(t_address,t_uint256)"
					},
					{
						"astId": 587,
						"contract": "contracts/ymii/stake1.sol:Stake",
						"label": "_userStakeStartTime",
						"offset": 0,
						"slot": "14",
						"type": "t_mapping(t_address,t_uint256)"
					},
					{
						"astId": 591,
						"contract": "contracts/ymii/stake1.sol:Stake",
						"label": "_userLastClaimTime",
						"offset": 0,
						"slot": "15",
						"type": "t_mapping(t_address,t_uint256)"
					},
					{
						"astId": 595,
						"contract": "contracts/ymii/stake1.sol:Stake",
						"label": "_userEndClaimTime",
						"offset": 0,
						"slot": "16",
						"type": "t_mapping(t_address,t_uint256)"
					},
					{
						"astId": 599,
						"contract": "contracts/ymii/stake1.sol:Stake",
						"label": "_userPower",
						"offset": 0,
						"slot": "17",
						"type": "t_mapping(t_address,t_uint256)"
					},
					{
						"astId": 603,
						"contract": "contracts/ymii/stake1.sol:Stake",
						"label": "_userBlacklist",
						"offset": 0,
						"slot": "18",
						"type": "t_mapping(t_address,t_bool)"
					}
				],
				"types": {
					"t_address": {
						"encoding": "inplace",
						"label": "address",
						"numberOfBytes": "20"
					},
					"t_bool": {
						"encoding": "inplace",
						"label": "bool",
						"numberOfBytes": "1"
					},
					"t_mapping(t_address,t_address)": {
						"encoding": "mapping",
						"key": "t_address",
						"label": "mapping(address => address)",
						"numberOfBytes": "32",
						"value": "t_address"
					},
					"t_mapping(t_address,t_bool)": {
						"encoding": "mapping",
						"key": "t_address",
						"label": "mapping(address => bool)",
						"numberOfBytes": "32",
						"value": "t_bool"
					},
					"t_mapping(t_address,t_uint256)": {
						"encoding": "mapping",
						"key": "t_address",
						"label": "mapping(address => uint256)",
						"numberOfBytes": "32",
						"value": "t_uint256"
					},
					"t_uint256": {
						"encoding": "inplace",
						"label": "uint256",
						"numberOfBytes": "32"
					}
				}
			},
			"userdoc": {
				"kind": "user",
				"methods": {},
				"version": 1
			}
		}
	}
}