{
	"contracts/ymii/stake2Price.sol": {
		"Stake": {
			"abi": [
				{
					"anonymous": false,
					"inputs": [
						{
							"indexed": true,
							"internalType": "address",
							"name": "previousOwner",
							"type": "address"
						},
						{
							"indexed": true,
							"internalType": "address",
							"name": "newOwner",
							"type": "address"
						}
					],
					"name": "OwnershipTransferred",
					"type": "event"
				},
				{
					"inputs": [
						{
							"internalType": "address",
							"name": "",
							"type": "address"
						}
					],
					"name": "_inviteNum",
					"outputs": [
						{
							"internalType": "uint256",
							"name": "",
							"type": "uint256"
						}
					],
					"stateMutability": "view",
					"type": "function"
				},
				{
					"inputs": [
						{
							"internalType": "address",
							"name": "",
							"type": "address"
						}
					],
					"name": "_inviterMap",
					"outputs": [
						{
							"internalType": "address",
							"name": "",
							"type": "address"
						}
					],
					"stateMutability": "view",
					"type": "function"
				},
				{
					"inputs": [
						{
							"internalType": "address",
							"name": "",
							"type": "address"
						}
					],
					"name": "_inviterReward",
					"outputs": [
						{
							"internalType": "uint256",
							"name": "",
							"type": "uint256"
						}
					],
					"stateMutability": "view",
					"type": "function"
				},
				{
					"inputs": [],
					"name": "_lpPriceG",
					"outputs": [
						{
							"internalType": "uint256",
							"name": "",
							"type": "uint256"
						}
					],
					"stateMutability": "view",
					"type": "function"
				},
				{
					"inputs": [],
					"name": "_lpPriceToken",
					"outputs": [
						{
							"internalType": "address",
							"name": "",
							"type": "address"
						}
					],
					"stateMutability": "view",
					"type": "function"
				},
				{
					"inputs": [],
					"name": "_proportion",
					"outputs": [
						{
							"internalType": "uint256",
							"name": "",
							"type": "uint256"
						}
					],
					"stateMutability": "view",
					"type": "function"
				},
				{
					"inputs": [],
					"name": "_rewardToken",
					"outputs": [
						{
							"internalType": "address",
							"name": "",
							"type": "address"
						}
					],
					"stateMutability": "view",
					"type": "function"
				},
				{
					"inputs": [],
					"name": "_stake1",
					"outputs": [
						{
							"internalType": "uint256",
							"name": "",
							"type": "uint256"
						}
					],
					"stateMutability": "view",
					"type": "function"
				},
				{
					"inputs": [],
					"name": "_stake3",
					"outputs": [
						{
							"internalType": "uint256",
							"name": "",
							"type": "uint256"
						}
					],
					"stateMutability": "view",
					"type": "function"
				},
				{
					"inputs": [],
					"name": "_stake5",
					"outputs": [
						{
							"internalType": "uint256",
							"name": "",
							"type": "uint256"
						}
					],
					"stateMutability": "view",
					"type": "function"
				},
				{
					"inputs": [],
					"name": "_stakeToken",
					"outputs": [
						{
							"internalType": "address",
							"name": "",
							"type": "address"
						}
					],
					"stateMutability": "view",
					"type": "function"
				},
				{
					"inputs": [
						{
							"internalType": "address",
							"name": "",
							"type": "address"
						}
					],
					"name": "_userBlacklist",
					"outputs": [
						{
							"internalType": "bool",
							"name": "",
							"type": "bool"
						}
					],
					"stateMutability": "view",
					"type": "function"
				},
				{
					"inputs": [
						{
							"internalType": "address",
							"name": "",
							"type": "address"
						}
					],
					"name": "_userEndClaimTime",
					"outputs": [
						{
							"internalType": "uint256",
							"name": "",
							"type": "uint256"
						}
					],
					"stateMutability": "view",
					"type": "function"
				},
				{
					"inputs": [
						{
							"internalType": "address",
							"name": "",
							"type": "address"
						}
					],
					"name": "_userLastClaimTime",
					"outputs": [
						{
							"internalType": "uint256",
							"name": "",
							"type": "uint256"
						}
					],
					"stateMutability": "view",
					"type": "function"
				},
				{
					"inputs": [
						{
							"internalType": "address",
							"name": "",
							"type": "address"
						}
					],
					"name": "_userPower",
					"outputs": [
						{
							"internalType": "uint256",
							"name": "",
							"type": "uint256"
						}
					],
					"stateMutability": "view",
					"type": "function"
				},
				{
					"inputs": [
						{
							"internalType": "address",
							"name": "",
							"type": "address"
						}
					],
					"name": "_userStake",
					"outputs": [
						{
							"internalType": "uint256",
							"name": "",
							"type": "uint256"
						}
					],
					"stateMutability": "view",
					"type": "function"
				},
				{
					"inputs": [
						{
							"internalType": "address",
							"name": "",
							"type": "address"
						}
					],
					"name": "_userStakeStartTime",
					"outputs": [
						{
							"internalType": "uint256",
							"name": "",
							"type": "uint256"
						}
					],
					"stateMutability": "view",
					"type": "function"
				},
				{
					"inputs": [
						{
							"internalType": "address",
							"name": "",
							"type": "address"
						}
					],
					"name": "_userStakeTime",
					"outputs": [
						{
							"internalType": "uint256",
							"name": "",
							"type": "uint256"
						}
					],
					"stateMutability": "view",
					"type": "function"
				},
				{
					"inputs": [],
					"name": "cancalStack",
					"outputs": [],
					"stateMutability": "nonpayable",
					"type": "function"
				},
				{
					"inputs": [
						{
							"internalType": "uint256",
							"name": "amount",
							"type": "uint256"
						}
					],
					"name": "cancalStackOver",
					"outputs": [],
					"stateMutability": "nonpayable",
					"type": "function"
				},
				{
					"inputs": [],
					"name": "claimReward",
					"outputs": [],
					"stateMutability": "nonpayable",
					"type": "function"
				},
				{
					"inputs": [],
					"name": "claimStakeReward",
					"outputs": [],
					"stateMutability": "nonpayable",
					"type": "function"
				},
				{
					"inputs": [],
					"name": "isClaimStart",
					"outputs": [
						{
							"internalType": "bool",
							"name": "",
							"type": "bool"
						}
					],
					"stateMutability": "view",
					"type": "function"
				},
				{
					"inputs": [],
					"name": "isStakeStart",
					"outputs": [
						{
							"internalType": "bool",
							"name": "",
							"type": "bool"
						}
					],
					"stateMutability": "view",
					"type": "function"
				},
				{
					"inputs": [],
					"name": "lpPrice",
					"outputs": [
						{
							"internalType": "uint256",
							"name": "",
							"type": "uint256"
						}
					],
					"stateMutability": "view",
					"type": "function"
				},
				{
					"inputs": [],
					"name": "owner",
					"outputs": [
						{
							"internalType": "address",
							"name": "",
							"type": "address"
						}
					],
					"stateMutability": "view",
					"type": "function"
				},
				{
					"inputs": [
						{
							"internalType": "address",
							"name": "user",
							"type": "address"
						},
						{
							"internalType": "uint256",
							"name": "amount",
							"type": "uint256"
						},
						{
							"internalType": "uint256",
							"name": "stakeTime",
							"type": "uint256"
						},
						{
							"internalType": "uint256",
							"name": "stakeStartTime",
							"type": "uint256"
						},
						{
							"internalType": "uint256",
							"name": "userLastClaim",
							"type": "uint256"
						},
						{
							"internalType": "uint256",
							"name": "userPower",
							"type": "uint256"
						},
						{
							"internalType": "uint256",
							"name": "userEndClaimTime",
							"type": "uint256"
						}
					],
					"name": "ownerSetUser",
					"outputs": [],
					"stateMutability": "nonpayable",
					"type": "function"
				},
				{
					"inputs": [
						{
							"internalType": "address",
							"name": "user",
							"type": "address"
						}
					],
					"name": "pureAmount",
					"outputs": [
						{
							"internalType": "uint256",
							"name": "",
							"type": "uint256"
						}
					],
					"stateMutability": "view",
					"type": "function"
				},
				{
					"inputs": [
						{
							"internalType": "uint256",
							"name": "proportion_",
							"type": "uint256"
						}
					],
					"name": "setProportion",
					"outputs": [],
					"stateMutability": "nonpayable",
					"type": "function"
				},
				{
					"inputs": [
						{
							"internalType": "address",
							"name": "token",
							"type": "address"
						}
					],
					"name": "setStakeToken",
					"outputs": [],
					"stateMutability": "nonpayable",
					"type": "function"
				},
				{
					"inputs": [
						{
							"internalType": "bool",
							"name": "stakeStart",
							"type": "bool"
						},
						{
							"internalType": "bool",
							"name": "claimStart",
							"type": "bool"
						}
					],
					"name": "setStatus",
					"outputs": [],
					"stateMutability": "nonpayable",
					"type": "function"
				},
				{
					"inputs": [
						{
							"internalType": "address",
							"name": "user",
							"type": "address"
						}
					],
					"name": "setUserBlacklist",
					"outputs": [],
					"stateMutability": "nonpayable",
					"type": "function"
				},
				{
					"inputs": [
						{
							"internalType": "uint256",
							"name": "Price",
							"type": "uint256"
						}
					],
					"name": "setlpPrice",
					"outputs": [],
					"stateMutability": "nonpayable",
					"type": "function"
				},
				{
					"inputs": [
						{
							"internalType": "address",
							"name": "token",
							"type": "address"
						}
					],
					"name": "setlpPriceToken",
					"outputs": [],
					"stateMutability": "nonpayable",
					"type": "function"
				},
				{
					"inputs": [
						{
							"internalType": "uint256",
							"name": "amount",
							"type": "uint256"
						},
						{
							"internalType": "address",
							"name": "inviter",
							"type": "address"
						},
						{
							"internalType": "uint256",
							"name": "time",
							"type": "uint256"
						}
					],
					"name": "stake",
					"outputs": [],
					"stateMutability": "nonpayable",
					"type": "function"
				},
				{
					"inputs": [
						{
							"internalType": "address",
							"name": "newOwner",
							"type": "address"
						}
					],
					"name": "transferOwnership",
					"outputs": [],
					"stateMutability": "nonpayable",
					"type": "function"
				},
				{
					"inputs": [],
					"name": "withdraw",
					"outputs": [],
					"stateMutability": "nonpayable",
					"type": "function"
				}
			],
			"devdoc": {
				"kind": "dev",
				"methods": {},
				"version": 1
			},
			"evm": {
				"assembly": "    /* \"contracts/ymii/stake2Price.sol\":8383:17161  contract Stake is Ownable {... */\n  mstore(0x40, 0x80)\n    /* \"contracts/ymii/stake2Price.sol\":8445:8487  0xf1f8e132f0a3F720b3b204D728A8ff316B182258 */\n  0xf1f8e132f0a3f720b3b204d728a8ff316b182258\n    /* \"contracts/ymii/stake2Price.sol\":8415:8487  address public _rewardToken = 0xf1f8e132f0a3F720b3b204D728A8ff316B182258 */\n  0x01\n  exp(0x0100, 0x00)\n  dup2\n  sload\n  dup2\n  0xffffffffffffffffffffffffffffffffffffffff\n  mul\n  not\n  and\n  swap1\n  dup4\n  0xffffffffffffffffffffffffffffffffffffffff\n  and\n  mul\n  or\n  swap1\n  sstore\n  pop\n    /* \"contracts/ymii/stake2Price.sol\":8537:8579  0x6b6b2D8166D13b58155b8d454F239AE3691257A6 */\n  0x6b6b2d8166d13b58155b8d454f239ae3691257a6\n    /* \"contracts/ymii/stake2Price.sol\":8508:8579  address public _stakeToken = 0x6b6b2D8166D13b58155b8d454F239AE3691257A6 */\n  0x02\n  exp(0x0100, 0x00)\n  dup2\n  sload\n  dup2\n  0xffffffffffffffffffffffffffffffffffffffff\n  mul\n  not\n  and\n  swap1\n  dup4\n  0xffffffffffffffffffffffffffffffffffffffff\n  and\n  mul\n  or\n  swap1\n  sstore\n  pop\n    /* \"contracts/ymii/stake2Price.sol\":8631:8673  0xB1bF470A9720F8d2E49512DbbcCf7180e4Ac4679 */\n  0xb1bf470a9720f8d2e49512dbbccf7180e4ac4679\n    /* \"contracts/ymii/stake2Price.sol\":8600:8673  address public _lpPriceToken = 0xB1bF470A9720F8d2E49512DbbcCf7180e4Ac4679 */\n  0x03\n  exp(0x0100, 0x00)\n  dup2\n  sload\n  dup2\n  0xffffffffffffffffffffffffffffffffffffffff\n  mul\n  not\n  and\n  swap1\n  dup4\n  0xffffffffffffffffffffffffffffffffffffffff\n  and\n  mul\n  or\n  swap1\n  sstore\n  pop\n    /* \"contracts/ymii/stake2Price.sol\":8737:8741  1980 */\n  0x07bc\n    /* \"contracts/ymii/stake2Price.sol\":8710:8741  uint256 public _lpPriceG = 1980 */\n  0x04\n  sstore\n    /* \"contracts/ymii/stake2Price.sol\":8955:8972  24 hours * 30 * 1 */\n  0x278d00\n    /* \"contracts/ymii/stake2Price.sol\":8930:8972  uint256 public _stake1 = 24 hours * 30 * 1 */\n  0x05\n  sstore\n    /* \"contracts/ymii/stake2Price.sol\":9016:9033  24 hours * 30 * 3 */\n  0x76a700\n    /* \"contracts/ymii/stake2Price.sol\":8991:9033  uint256 public _stake3 = 24 hours * 30 * 3 */\n  0x06\n  sstore\n    /* \"contracts/ymii/stake2Price.sol\":9077:9094  24 hours * 30 * 5 */\n  0xc5c100\n    /* \"contracts/ymii/stake2Price.sol\":9052:9094  uint256 public _stake5 = 24 hours * 30 * 5 */\n  0x07\n  sstore\n    /* \"contracts/ymii/stake2Price.sol\":9143:9147  1000 */\n  0x03e8\n    /* \"contracts/ymii/stake2Price.sol\":9114:9147  uint256 public _proportion = 1000 */\n  0x08\n  sstore\n    /* \"contracts/ymii/stake2Price.sol\":9404:9408  true */\n  0x01\n    /* \"contracts/ymii/stake2Price.sol\":9377:9408  bool public isStakeStart = true */\n  0x0c\n  exp(0x0100, 0x00)\n  dup2\n  sload\n  dup2\n  0xff\n  mul\n  not\n  and\n  swap1\n  dup4\n  iszero\n  iszero\n  mul\n  or\n  swap1\n  sstore\n  pop\n    /* \"contracts/ymii/stake2Price.sol\":9462:9466  true */\n  0x01\n    /* \"contracts/ymii/stake2Price.sol\":9435:9466  bool public isClaimStart = true */\n  0x0c\n  exp(0x0100, 0x01)\n  dup2\n  sload\n  dup2\n  0xff\n  mul\n  not\n  and\n  swap1\n  dup4\n  iszero\n  iszero\n  mul\n  or\n  swap1\n  sstore\n  pop\n    /* \"contracts/ymii/stake2Price.sol\":8383:17161  contract Stake is Ownable {... */\n  callvalue\n  dup1\n  iszero\n  tag_1\n  jumpi\n  0x00\n  dup1\n  revert\ntag_1:\n  pop\n    /* \"contracts/ymii/stake2Price.sol\":1268:1285  address msgSender */\n  0x00\n    /* \"contracts/ymii/stake2Price.sol\":1288:1298  msg.sender */\n  caller\n    /* \"contracts/ymii/stake2Price.sol\":1268:1298  address msgSender = msg.sender */\n  swap1\n  pop\n    /* \"contracts/ymii/stake2Price.sol\":1317:1326  msgSender */\n  dup1\n    /* \"contracts/ymii/stake2Price.sol\":1308:1314  _owner */\n  0x00\n  dup1\n    /* \"contracts/ymii/stake2Price.sol\":1308:1326  _owner = msgSender */\n  0x0100\n  exp\n  dup2\n  sload\n  dup2\n  0xffffffffffffffffffffffffffffffffffffffff\n  mul\n  not\n  and\n  swap1\n  dup4\n  0xffffffffffffffffffffffffffffffffffffffff\n  and\n  mul\n  or\n  swap1\n  sstore\n  pop\n    /* \"contracts/ymii/stake2Price.sol\":1374:1383  msgSender */\n  dup1\n    /* \"contracts/ymii/stake2Price.sol\":1341:1384  OwnershipTransferred(address(0), msgSender) */\n  0xffffffffffffffffffffffffffffffffffffffff\n  and\n    /* \"contracts/ymii/stake2Price.sol\":1370:1371  0 */\n  0x00\n    /* \"contracts/ymii/stake2Price.sol\":1341:1384  OwnershipTransferred(address(0), msgSender) */\n  0xffffffffffffffffffffffffffffffffffffffff\n  and\n  0x8be0079c531659141344cd1fd0a4f28419497f9722a3daafe3b4186f6b6457e0\n  mload(0x40)\n  mload(0x40)\n  dup1\n  swap2\n  sub\n  swap1\n  log3\n    /* \"contracts/ymii/stake2Price.sol\":1258:1391  {... */\n  pop\n    /* \"contracts/ymii/stake2Price.sol\":8383:17161  contract Stake is Ownable {... */\n  dataSize(sub_0)\n  dup1\n  dataOffset(sub_0)\n  0x00\n  codecopy\n  0x00\n  return\nstop\n\nsub_0: assembly {\n        /* \"contracts/ymii/stake2Price.sol\":8383:17161  contract Stake is Ownable {... */\n      mstore(0x40, 0x80)\n      callvalue\n      dup1\n      iszero\n      tag_1\n      jumpi\n      0x00\n      dup1\n      revert\n    tag_1:\n      pop\n      jumpi(tag_2, lt(calldatasize, 0x04))\n      shr(0xe0, calldataload(0x00))\n      dup1\n      0x7e55d5fe\n      gt\n      tag_40\n      jumpi\n      dup1\n      0xb59c6e0e\n      gt\n      tag_41\n      jumpi\n      dup1\n      0xe53595ed\n      gt\n      tag_42\n      jumpi\n      dup1\n      0xe53595ed\n      eq\n      tag_35\n      jumpi\n      dup1\n      0xe61ee218\n      eq\n      tag_36\n      jumpi\n      dup1\n      0xe650d293\n      eq\n      tag_37\n      jumpi\n      dup1\n      0xf2fde38b\n      eq\n      tag_38\n      jumpi\n      dup1\n      0xf3ef99bc\n      eq\n      tag_39\n      jumpi\n      jump(tag_2)\n    tag_42:\n      dup1\n      0xb59c6e0e\n      eq\n      tag_30\n      jumpi\n      dup1\n      0xb88a802f\n      eq\n      tag_31\n      jumpi\n      dup1\n      0xbef4533c\n      eq\n      tag_32\n      jumpi\n      dup1\n      0xd02da761\n      eq\n      tag_33\n      jumpi\n      dup1\n      0xdd8158e0\n      eq\n      tag_34\n      jumpi\n      jump(tag_2)\n    tag_41:\n      dup1\n      0x9805fa74\n      gt\n      tag_43\n      jumpi\n      dup1\n      0x9805fa74\n      eq\n      tag_25\n      jumpi\n      dup1\n      0x9fd3af8b\n      eq\n      tag_26\n      jumpi\n      dup1\n      0xa041e172\n      eq\n      tag_27\n      jumpi\n      dup1\n      0xa6b14d5a\n      eq\n      tag_28\n      jumpi\n      dup1\n      0xb3c2eac1\n      eq\n      tag_29\n      jumpi\n      jump(tag_2)\n    tag_43:\n      dup1\n      0x7e55d5fe\n      eq\n      tag_21\n      jumpi\n      dup1\n      0x853e03e5\n      eq\n      tag_22\n      jumpi\n      dup1\n      0x8da5cb5b\n      eq\n      tag_23\n      jumpi\n      dup1\n      0x91f6963c\n      eq\n      tag_24\n      jumpi\n      jump(tag_2)\n    tag_40:\n      dup1\n      0x264edc1d\n      gt\n      tag_44\n      jumpi\n      dup1\n      0x6d37b382\n      gt\n      tag_45\n      jumpi\n      dup1\n      0x6d37b382\n      eq\n      tag_16\n      jumpi\n      dup1\n      0x6e9c931c\n      eq\n      tag_17\n      jumpi\n      dup1\n      0x71ddda57\n      eq\n      tag_18\n      jumpi\n      dup1\n      0x7929e29f\n      eq\n      tag_19\n      jumpi\n      dup1\n      0x7d4cbd57\n      eq\n      tag_20\n      jumpi\n      jump(tag_2)\n    tag_45:\n      dup1\n      0x264edc1d\n      eq\n      tag_12\n      jumpi\n      dup1\n      0x29dc425f\n      eq\n      tag_13\n      jumpi\n      dup1\n      0x2eae667d\n      eq\n      tag_14\n      jumpi\n      dup1\n      0x3ccfd60b\n      eq\n      tag_15\n      jumpi\n      jump(tag_2)\n    tag_44:\n      dup1\n      0x115a972e\n      gt\n      tag_46\n      jumpi\n      dup1\n      0x115a972e\n      eq\n      tag_7\n      jumpi\n      dup1\n      0x16c259e1\n      eq\n      tag_8\n      jumpi\n      dup1\n      0x18883877\n      eq\n      tag_9\n      jumpi\n      dup1\n      0x1896b2c4\n      eq\n      tag_10\n      jumpi\n      dup1\n      0x1c02e4b5\n      eq\n      tag_11\n      jumpi\n      jump(tag_2)\n    tag_46:\n      dup1\n      0x6cd200\n      eq\n      tag_3\n      jumpi\n      dup1\n      0x0356c98f\n      eq\n      tag_4\n      jumpi\n      dup1\n      0x0397d458\n      eq\n      tag_5\n      jumpi\n      dup1\n      0x0c280444\n      eq\n      tag_6\n      jumpi\n    tag_2:\n      0x00\n      dup1\n      revert\n        /* \"contracts/ymii/stake2Price.sol\":10323:10426  function setProportion(uint256 proportion_) public onlyOwner {... */\n    tag_3:\n      tag_47\n      0x04\n      dup1\n      calldatasize\n      sub\n      dup2\n      add\n      swap1\n      tag_48\n      swap2\n      swap1\n      tag_49\n      jump\t// in\n    tag_48:\n      tag_50\n      jump\t// in\n    tag_47:\n      stop\n        /* \"contracts/ymii/stake2Price.sol\":9827:9879  mapping(address => uint256) public _userEndClaimTime */\n    tag_4:\n      tag_51\n      0x04\n      dup1\n      calldatasize\n      sub\n      dup2\n      add\n      swap1\n      tag_52\n      swap2\n      swap1\n      tag_53\n      jump\t// in\n    tag_52:\n      tag_54\n      jump\t// in\n    tag_51:\n      mload(0x40)\n      tag_55\n      swap2\n      swap1\n      tag_56\n      jump\t// in\n    tag_55:\n      mload(0x40)\n      dup1\n      swap2\n      sub\n      swap1\n      return\n        /* \"contracts/ymii/stake2Price.sol\":10602:10693  function setStakeToken(address token) public onlyOwner {... */\n    tag_5:\n      tag_57\n      0x04\n      dup1\n      calldatasize\n      sub\n      dup2\n      add\n      swap1\n      tag_58\n      swap2\n      swap1\n      tag_53\n      jump\t// in\n    tag_58:\n      tag_59\n      jump\t// in\n    tag_57:\n      stop\n        /* \"contracts/ymii/stake2Price.sol\":16628:16733  function lpPrice() public view returns (uint256) {                       ... */\n    tag_6:\n      tag_60\n      tag_61\n      jump\t// in\n    tag_60:\n      mload(0x40)\n      tag_62\n      swap2\n      swap1\n      tag_56\n      jump\t// in\n    tag_62:\n      mload(0x40)\n      dup1\n      swap2\n      sub\n      swap1\n      return\n        /* \"contracts/ymii/stake2Price.sol\":9973:10019  mapping(address => bool) public _userBlacklist */\n    tag_7:\n      tag_63\n      0x04\n      dup1\n      calldatasize\n      sub\n      dup2\n      add\n      swap1\n      tag_64\n      swap2\n      swap1\n      tag_53\n      jump\t// in\n    tag_64:\n      tag_65\n      jump\t// in\n    tag_63:\n      mload(0x40)\n      tag_66\n      swap2\n      swap1\n      tag_67\n      jump\t// in\n    tag_66:\n      mload(0x40)\n      dup1\n      swap2\n      sub\n      swap1\n      return\n        /* \"contracts/ymii/stake2Price.sol\":9648:9702  mapping(address => uint256) public _userStakeStartTime */\n    tag_8:\n      tag_68\n      0x04\n      dup1\n      calldatasize\n      sub\n      dup2\n      add\n      swap1\n      tag_69\n      swap2\n      swap1\n      tag_53\n      jump\t// in\n    tag_69:\n      tag_70\n      jump\t// in\n    tag_68:\n      mload(0x40)\n      tag_71\n      swap2\n      swap1\n      tag_56\n      jump\t// in\n    tag_71:\n      mload(0x40)\n      dup1\n      swap2\n      sub\n      swap1\n      return\n        /* \"contracts/ymii/stake2Price.sol\":9052:9094  uint256 public _stake5 = 24 hours * 30 * 5 */\n    tag_9:\n      tag_72\n      tag_73\n      jump\t// in\n    tag_72:\n      mload(0x40)\n      tag_74\n      swap2\n      swap1\n      tag_56\n      jump\t// in\n    tag_74:\n      mload(0x40)\n      dup1\n      swap2\n      sub\n      swap1\n      return\n        /* \"contracts/ymii/stake2Price.sol\":9310:9355  mapping(address => uint256) public _inviteNum */\n    tag_10:\n      tag_75\n      0x04\n      dup1\n      calldatasize\n      sub\n      dup2\n      add\n      swap1\n      tag_76\n      swap2\n      swap1\n      tag_53\n      jump\t// in\n    tag_76:\n      tag_77\n      jump\t// in\n    tag_75:\n      mload(0x40)\n      tag_78\n      swap2\n      swap1\n      tag_56\n      jump\t// in\n    tag_78:\n      mload(0x40)\n      dup1\n      swap2\n      sub\n      swap1\n      return\n        /* \"contracts/ymii/stake2Price.sol\":8710:8741  uint256 public _lpPriceG = 1980 */\n    tag_11:\n      tag_79\n      tag_80\n      jump\t// in\n    tag_79:\n      mload(0x40)\n      tag_81\n      swap2\n      swap1\n      tag_56\n      jump\t// in\n    tag_81:\n      mload(0x40)\n      dup1\n      swap2\n      sub\n      swap1\n      return\n        /* \"contracts/ymii/stake2Price.sol\":9173:9219  mapping(address => address) public _inviterMap */\n    tag_12:\n      tag_82\n      0x04\n      dup1\n      calldatasize\n      sub\n      dup2\n      add\n      swap1\n      tag_83\n      swap2\n      swap1\n      tag_53\n      jump\t// in\n    tag_83:\n      tag_84\n      jump\t// in\n    tag_82:\n      mload(0x40)\n      tag_85\n      swap2\n      swap1\n      tag_86\n      jump\t// in\n    tag_85:\n      mload(0x40)\n      dup1\n      swap2\n      sub\n      swap1\n      return\n        /* \"contracts/ymii/stake2Price.sol\":14858:15914  function pureAmount(address user) public view returns (uint256) {... */\n    tag_13:\n      tag_87\n      0x04\n      dup1\n      calldatasize\n      sub\n      dup2\n      add\n      swap1\n      tag_88\n      swap2\n      swap1\n      tag_53\n      jump\t// in\n    tag_88:\n      tag_89\n      jump\t// in\n    tag_87:\n      mload(0x40)\n      tag_90\n      swap2\n      swap1\n      tag_56\n      jump\t// in\n    tag_90:\n      mload(0x40)\n      dup1\n      swap2\n      sub\n      swap1\n      return\n        /* \"contracts/ymii/stake2Price.sol\":9114:9147  uint256 public _proportion = 1000 */\n    tag_14:\n      tag_91\n      tag_92\n      jump\t// in\n    tag_91:\n      mload(0x40)\n      tag_93\n      swap2\n      swap1\n      tag_56\n      jump\t// in\n    tag_93:\n      mload(0x40)\n      dup1\n      swap2\n      sub\n      swap1\n      return\n        /* \"contracts/ymii/stake2Price.sol\":15939:16046  function withdraw() external onlyOwner {... */\n    tag_15:\n      tag_94\n      tag_95\n      jump\t// in\n    tag_94:\n      stop\n        /* \"contracts/ymii/stake2Price.sol\":10197:10292  function setlpPriceToken(address token) public onlyOwner {... */\n    tag_16:\n      tag_96\n      0x04\n      dup1\n      calldatasize\n      sub\n      dup2\n      add\n      swap1\n      tag_97\n      swap2\n      swap1\n      tag_53\n      jump\t// in\n    tag_97:\n      tag_98\n      jump\t// in\n    tag_96:\n      stop\n        /* \"contracts/ymii/stake2Price.sol\":10885:13418  function stake(... */\n    tag_17:\n      tag_99\n      0x04\n      dup1\n      calldatasize\n      sub\n      dup2\n      add\n      swap1\n      tag_100\n      swap2\n      swap1\n      tag_101\n      jump\t// in\n    tag_100:\n      tag_102\n      jump\t// in\n    tag_99:\n      stop\n        /* \"contracts/ymii/stake2Price.sol\":8508:8579  address public _stakeToken = 0x6b6b2D8166D13b58155b8d454F239AE3691257A6 */\n    tag_18:\n      tag_103\n      tag_104\n      jump\t// in\n    tag_103:\n      mload(0x40)\n      tag_105\n      swap2\n      swap1\n      tag_86\n      jump\t// in\n    tag_105:\n      mload(0x40)\n      dup1\n      swap2\n      sub\n      swap1\n      return\n        /* \"contracts/ymii/stake2Price.sol\":9735:9788  mapping(address => uint256) public _userLastClaimTime */\n    tag_19:\n      tag_106\n      0x04\n      dup1\n      calldatasize\n      sub\n      dup2\n      add\n      swap1\n      tag_107\n      swap2\n      swap1\n      tag_53\n      jump\t// in\n    tag_107:\n      tag_108\n      jump\t// in\n    tag_106:\n      mload(0x40)\n      tag_109\n      swap2\n      swap1\n      tag_56\n      jump\t// in\n    tag_109:\n      mload(0x40)\n      dup1\n      swap2\n      sub\n      swap1\n      return\n        /* \"contracts/ymii/stake2Price.sol\":10453:10571  function setUserBlacklist(address user) public onlyOwner {... */\n    tag_20:\n      tag_110\n      0x04\n      dup1\n      calldatasize\n      sub\n      dup2\n      add\n      swap1\n      tag_111\n      swap2\n      swap1\n      tag_53\n      jump\t// in\n    tag_111:\n      tag_112\n      jump\t// in\n    tag_110:\n      stop\n        /* \"contracts/ymii/stake2Price.sol\":10060:10146  function setlpPrice(uint256 Price) public onlyOwner {... */\n    tag_21:\n      tag_113\n      0x04\n      dup1\n      calldatasize\n      sub\n      dup2\n      add\n      swap1\n      tag_114\n      swap2\n      swap1\n      tag_49\n      jump\t// in\n    tag_114:\n      tag_115\n      jump\t// in\n    tag_113:\n      stop\n        /* \"contracts/ymii/stake2Price.sol\":8991:9033  uint256 public _stake3 = 24 hours * 30 * 3 */\n    tag_22:\n      tag_116\n      tag_117\n      jump\t// in\n    tag_116:\n      mload(0x40)\n      tag_118\n      swap2\n      swap1\n      tag_56\n      jump\t// in\n    tag_118:\n      mload(0x40)\n      dup1\n      swap2\n      sub\n      swap1\n      return\n        /* \"contracts/ymii/stake2Price.sol\":1397:1474  function owner() public view returns (address) {... */\n    tag_23:\n      tag_119\n      tag_120\n      jump\t// in\n    tag_119:\n      mload(0x40)\n      tag_121\n      swap2\n      swap1\n      tag_86\n      jump\t// in\n    tag_121:\n      mload(0x40)\n      dup1\n      swap2\n      sub\n      swap1\n      return\n        /* \"contracts/ymii/stake2Price.sol\":16773:17159  function cancalStackOver(uint256 amount) public onlyOwner{      ... */\n    tag_24:\n      tag_122\n      0x04\n      dup1\n      calldatasize\n      sub\n      dup2\n      add\n      swap1\n      tag_123\n      swap2\n      swap1\n      tag_49\n      jump\t// in\n    tag_123:\n      tag_124\n      jump\t// in\n    tag_122:\n      stop\n        /* \"contracts/ymii/stake2Price.sol\":9500:9545  mapping(address => uint256) public _userStake */\n    tag_25:\n      tag_125\n      0x04\n      dup1\n      calldatasize\n      sub\n      dup2\n      add\n      swap1\n      tag_126\n      swap2\n      swap1\n      tag_53\n      jump\t// in\n    tag_126:\n      tag_127\n      jump\t// in\n    tag_125:\n      mload(0x40)\n      tag_128\n      swap2\n      swap1\n      tag_56\n      jump\t// in\n    tag_128:\n      mload(0x40)\n      dup1\n      swap2\n      sub\n      swap1\n      return\n        /* \"contracts/ymii/stake2Price.sol\":14298:14827  function claimStakeReward() public {... */\n    tag_26:\n      tag_129\n      tag_130\n      jump\t// in\n    tag_129:\n      stop\n        /* \"contracts/ymii/stake2Price.sol\":9572:9621  mapping(address => uint256) public _userStakeTime */\n    tag_27:\n      tag_131\n      0x04\n      dup1\n      calldatasize\n      sub\n      dup2\n      add\n      swap1\n      tag_132\n      swap2\n      swap1\n      tag_53\n      jump\t// in\n    tag_132:\n      tag_133\n      jump\t// in\n    tag_131:\n      mload(0x40)\n      tag_134\n      swap2\n      swap1\n      tag_56\n      jump\t// in\n    tag_134:\n      mload(0x40)\n      dup1\n      swap2\n      sub\n      swap1\n      return\n        /* \"contracts/ymii/stake2Price.sol\":8930:8972  uint256 public _stake1 = 24 hours * 30 * 1 */\n    tag_28:\n      tag_135\n      tag_136\n      jump\t// in\n    tag_135:\n      mload(0x40)\n      tag_137\n      swap2\n      swap1\n      tag_56\n      jump\t// in\n    tag_137:\n      mload(0x40)\n      dup1\n      swap2\n      sub\n      swap1\n      return\n        /* \"contracts/ymii/stake2Price.sol\":10718:10865  function setStatus(bool stakeStart, bool claimStart) public onlyOwner {... */\n    tag_29:\n      tag_138\n      0x04\n      dup1\n      calldatasize\n      sub\n      dup2\n      add\n      swap1\n      tag_139\n      swap2\n      swap1\n      tag_140\n      jump\t// in\n    tag_139:\n      tag_141\n      jump\t// in\n    tag_138:\n      stop\n        /* \"contracts/ymii/stake2Price.sol\":8415:8487  address public _rewardToken = 0xf1f8e132f0a3F720b3b204D728A8ff316B182258 */\n    tag_30:\n      tag_142\n      tag_143\n      jump\t// in\n    tag_142:\n      mload(0x40)\n      tag_144\n      swap2\n      swap1\n      tag_86\n      jump\t// in\n    tag_144:\n      mload(0x40)\n      dup1\n      swap2\n      sub\n      swap1\n      return\n        /* \"contracts/ymii/stake2Price.sol\":13449:13711  function claimReward() public {... */\n    tag_31:\n      tag_145\n      tag_146\n      jump\t// in\n    tag_145:\n      stop\n        /* \"contracts/ymii/stake2Price.sol\":9900:9945  mapping(address => uint256) public _userPower */\n    tag_32:\n      tag_147\n      0x04\n      dup1\n      calldatasize\n      sub\n      dup2\n      add\n      swap1\n      tag_148\n      swap2\n      swap1\n      tag_53\n      jump\t// in\n    tag_148:\n      tag_149\n      jump\t// in\n    tag_147:\n      mload(0x40)\n      tag_150\n      swap2\n      swap1\n      tag_56\n      jump\t// in\n    tag_150:\n      mload(0x40)\n      dup1\n      swap2\n      sub\n      swap1\n      return\n        /* \"contracts/ymii/stake2Price.sol\":13742:14267  function cancalStack() public {... */\n    tag_33:\n      tag_151\n      tag_152\n      jump\t// in\n    tag_151:\n      stop\n        /* \"contracts/ymii/stake2Price.sol\":9237:9286  mapping(address => uint256) public _inviterReward */\n    tag_34:\n      tag_153\n      0x04\n      dup1\n      calldatasize\n      sub\n      dup2\n      add\n      swap1\n      tag_154\n      swap2\n      swap1\n      tag_53\n      jump\t// in\n    tag_154:\n      tag_155\n      jump\t// in\n    tag_153:\n      mload(0x40)\n      tag_156\n      swap2\n      swap1\n      tag_56\n      jump\t// in\n    tag_156:\n      mload(0x40)\n      dup1\n      swap2\n      sub\n      swap1\n      return\n        /* \"contracts/ymii/stake2Price.sol\":8600:8673  address public _lpPriceToken = 0xB1bF470A9720F8d2E49512DbbcCf7180e4Ac4679 */\n    tag_35:\n      tag_157\n      tag_158\n      jump\t// in\n    tag_157:\n      mload(0x40)\n      tag_159\n      swap2\n      swap1\n      tag_86\n      jump\t// in\n    tag_159:\n      mload(0x40)\n      dup1\n      swap2\n      sub\n      swap1\n      return\n        /* \"contracts/ymii/stake2Price.sol\":16085:16603  function ownerSetUser(... */\n    tag_36:\n      tag_160\n      0x04\n      dup1\n      calldatasize\n      sub\n      dup2\n      add\n      swap1\n      tag_161\n      swap2\n      swap1\n      tag_162\n      jump\t// in\n    tag_161:\n      tag_163\n      jump\t// in\n    tag_160:\n      stop\n        /* \"contracts/ymii/stake2Price.sol\":9435:9466  bool public isClaimStart = true */\n    tag_37:\n      tag_164\n      tag_165\n      jump\t// in\n    tag_164:\n      mload(0x40)\n      tag_166\n      swap2\n      swap1\n      tag_67\n      jump\t// in\n    tag_166:\n      mload(0x40)\n      dup1\n      swap2\n      sub\n      swap1\n      return\n        /* \"contracts/ymii/stake2Price.sol\":1596:1806  function transferOwnership(address newOwner) public virtual onlyOwner {... */\n    tag_38:\n      tag_167\n      0x04\n      dup1\n      calldatasize\n      sub\n      dup2\n      add\n      swap1\n      tag_168\n      swap2\n      swap1\n      tag_53\n      jump\t// in\n    tag_168:\n      tag_169\n      jump\t// in\n    tag_167:\n      stop\n        /* \"contracts/ymii/stake2Price.sol\":9377:9408  bool public isStakeStart = true */\n    tag_39:\n      tag_170\n      tag_171\n      jump\t// in\n    tag_170:\n      mload(0x40)\n      tag_172\n      swap2\n      swap1\n      tag_67\n      jump\t// in\n    tag_172:\n      mload(0x40)\n      dup1\n      swap2\n      sub\n      swap1\n      return\n        /* \"contracts/ymii/stake2Price.sol\":10323:10426  function setProportion(uint256 proportion_) public onlyOwner {... */\n    tag_50:\n        /* \"contracts/ymii/stake2Price.sol\":1529:1539  msg.sender */\n      caller\n        /* \"contracts/ymii/stake2Price.sol\":1519:1539  _owner == msg.sender */\n      0xffffffffffffffffffffffffffffffffffffffff\n      and\n        /* \"contracts/ymii/stake2Price.sol\":1519:1525  _owner */\n      0x00\n      dup1\n      sload\n      swap1\n      0x0100\n      exp\n      swap1\n      div\n      0xffffffffffffffffffffffffffffffffffffffff\n      and\n        /* \"contracts/ymii/stake2Price.sol\":1519:1539  _owner == msg.sender */\n      0xffffffffffffffffffffffffffffffffffffffff\n      and\n      eq\n        /* \"contracts/ymii/stake2Price.sol\":1519:1561  _owner == msg.sender||_owner == msg.sender */\n      dup1\n      tag_174\n      jumpi\n      pop\n        /* \"contracts/ymii/stake2Price.sol\":1551:1561  msg.sender */\n      caller\n        /* \"contracts/ymii/stake2Price.sol\":1541:1561  _owner == msg.sender */\n      0xffffffffffffffffffffffffffffffffffffffff\n      and\n        /* \"contracts/ymii/stake2Price.sol\":1541:1547  _owner */\n      0x00\n      dup1\n      sload\n      swap1\n      0x0100\n      exp\n      swap1\n      div\n      0xffffffffffffffffffffffffffffffffffffffff\n      and\n        /* \"contracts/ymii/stake2Price.sol\":1541:1561  _owner == msg.sender */\n      0xffffffffffffffffffffffffffffffffffffffff\n      and\n      eq\n        /* \"contracts/ymii/stake2Price.sol\":1519:1561  _owner == msg.sender||_owner == msg.sender */\n    tag_174:\n        /* \"contracts/ymii/stake2Price.sol\":1511:1572  require(_owner == msg.sender||_owner == msg.sender, \"!owner\") */\n      tag_175\n      jumpi\n      mload(0x40)\n      0x08c379a000000000000000000000000000000000000000000000000000000000\n      dup2\n      mstore\n      0x04\n      add\n      tag_176\n      swap1\n      tag_177\n      jump\t// in\n    tag_176:\n      mload(0x40)\n      dup1\n      swap2\n      sub\n      swap1\n      revert\n    tag_175:\n        /* \"contracts/ymii/stake2Price.sol\":10408:10419  proportion_ */\n      dup1\n        /* \"contracts/ymii/stake2Price.sol\":10394:10405  _proportion */\n      0x08\n        /* \"contracts/ymii/stake2Price.sol\":10394:10419  _proportion = proportion_ */\n      dup2\n      swap1\n      sstore\n      pop\n        /* \"contracts/ymii/stake2Price.sol\":10323:10426  function setProportion(uint256 proportion_) public onlyOwner {... */\n      pop\n      jump\t// out\n        /* \"contracts/ymii/stake2Price.sol\":9827:9879  mapping(address => uint256) public _userEndClaimTime */\n    tag_54:\n      mstore(0x20, 0x11)\n      dup1\n      0x00\n      mstore\n      keccak256(0x00, 0x40)\n      0x00\n      swap2\n      pop\n      swap1\n      pop\n      sload\n      dup2\n      jump\t// out\n        /* \"contracts/ymii/stake2Price.sol\":10602:10693  function setStakeToken(address token) public onlyOwner {... */\n    tag_59:\n        /* \"contracts/ymii/stake2Price.sol\":1529:1539  msg.sender */\n      caller\n        /* \"contracts/ymii/stake2Price.sol\":1519:1539  _owner == msg.sender */\n      0xffffffffffffffffffffffffffffffffffffffff\n      and\n        /* \"contracts/ymii/stake2Price.sol\":1519:1525  _owner */\n      0x00\n      dup1\n      sload\n      swap1\n      0x0100\n      exp\n      swap1\n      div\n      0xffffffffffffffffffffffffffffffffffffffff\n      and\n        /* \"contracts/ymii/stake2Price.sol\":1519:1539  _owner == msg.sender */\n      0xffffffffffffffffffffffffffffffffffffffff\n      and\n      eq\n        /* \"contracts/ymii/stake2Price.sol\":1519:1561  _owner == msg.sender||_owner == msg.sender */\n      dup1\n      tag_180\n      jumpi\n      pop\n        /* \"contracts/ymii/stake2Price.sol\":1551:1561  msg.sender */\n      caller\n        /* \"contracts/ymii/stake2Price.sol\":1541:1561  _owner == msg.sender */\n      0xffffffffffffffffffffffffffffffffffffffff\n      and\n        /* \"contracts/ymii/stake2Price.sol\":1541:1547  _owner */\n      0x00\n      dup1\n      sload\n      swap1\n      0x0100\n      exp\n      swap1\n      div\n      0xffffffffffffffffffffffffffffffffffffffff\n      and\n        /* \"contracts/ymii/stake2Price.sol\":1541:1561  _owner == msg.sender */\n      0xffffffffffffffffffffffffffffffffffffffff\n      and\n      eq\n        /* \"contracts/ymii/stake2Price.sol\":1519:1561  _owner == msg.sender||_owner == msg.sender */\n    tag_180:\n        /* \"contracts/ymii/stake2Price.sol\":1511:1572  require(_owner == msg.sender||_owner == msg.sender, \"!owner\") */\n      tag_181\n      jumpi\n      mload(0x40)\n      0x08c379a000000000000000000000000000000000000000000000000000000000\n      dup2\n      mstore\n      0x04\n      add\n      tag_182\n      swap1\n      tag_177\n      jump\t// in\n    tag_182:\n      mload(0x40)\n      dup1\n      swap2\n      sub\n      swap1\n      revert\n    tag_181:\n        /* \"contracts/ymii/stake2Price.sol\":10681:10686  token */\n      dup1\n        /* \"contracts/ymii/stake2Price.sol\":10667:10678  _stakeToken */\n      0x02\n      0x00\n        /* \"contracts/ymii/stake2Price.sol\":10667:10686  _stakeToken = token */\n      0x0100\n      exp\n      dup2\n      sload\n      dup2\n      0xffffffffffffffffffffffffffffffffffffffff\n      mul\n      not\n      and\n      swap1\n      dup4\n      0xffffffffffffffffffffffffffffffffffffffff\n      and\n      mul\n      or\n      swap1\n      sstore\n      pop\n        /* \"contracts/ymii/stake2Price.sol\":10602:10693  function setStakeToken(address token) public onlyOwner {... */\n      pop\n      jump\t// out\n        /* \"contracts/ymii/stake2Price.sol\":16628:16733  function lpPrice() public view returns (uint256) {                       ... */\n    tag_61:\n        /* \"contracts/ymii/stake2Price.sol\":16668:16675  uint256 */\n      0x00\n        /* \"contracts/ymii/stake2Price.sol\":16717:16726  _lpPriceG */\n      sload(0x04)\n        /* \"contracts/ymii/stake2Price.sol\":16710:16726  return _lpPriceG */\n      swap1\n      pop\n        /* \"contracts/ymii/stake2Price.sol\":16628:16733  function lpPrice() public view returns (uint256) {                       ... */\n      swap1\n      jump\t// out\n        /* \"contracts/ymii/stake2Price.sol\":9973:10019  mapping(address => bool) public _userBlacklist */\n    tag_65:\n      mstore(0x20, 0x13)\n      dup1\n      0x00\n      mstore\n      keccak256(0x00, 0x40)\n      0x00\n      swap2\n      pop\n      sload\n      swap1\n      0x0100\n      exp\n      swap1\n      div\n      0xff\n      and\n      dup2\n      jump\t// out\n        /* \"contracts/ymii/stake2Price.sol\":9648:9702  mapping(address => uint256) public _userStakeStartTime */\n    tag_70:\n      mstore(0x20, 0x0f)\n      dup1\n      0x00\n      mstore\n      keccak256(0x00, 0x40)\n      0x00\n      swap2\n      pop\n      swap1\n      pop\n      sload\n      dup2\n      jump\t// out\n        /* \"contracts/ymii/stake2Price.sol\":9052:9094  uint256 public _stake5 = 24 hours * 30 * 5 */\n    tag_73:\n      sload(0x07)\n      dup2\n      jump\t// out\n        /* \"contracts/ymii/stake2Price.sol\":9310:9355  mapping(address => uint256) public _inviteNum */\n    tag_77:\n      mstore(0x20, 0x0b)\n      dup1\n      0x00\n      mstore\n      keccak256(0x00, 0x40)\n      0x00\n      swap2\n      pop\n      swap1\n      pop\n      sload\n      dup2\n      jump\t// out\n        /* \"contracts/ymii/stake2Price.sol\":8710:8741  uint256 public _lpPriceG = 1980 */\n    tag_80:\n      sload(0x04)\n      dup2\n      jump\t// out\n        /* \"contracts/ymii/stake2Price.sol\":9173:9219  mapping(address => address) public _inviterMap */\n    tag_84:\n      mstore(0x20, 0x09)\n      dup1\n      0x00\n      mstore\n      keccak256(0x00, 0x40)\n      0x00\n      swap2\n      pop\n      sload\n      swap1\n      0x0100\n      exp\n      swap1\n      div\n      0xffffffffffffffffffffffffffffffffffffffff\n      and\n      dup2\n      jump\t// out\n        /* \"contracts/ymii/stake2Price.sol\":14858:15914  function pureAmount(address user) public view returns (uint256) {... */\n    tag_89:\n        /* \"contracts/ymii/stake2Price.sol\":14913:14920  uint256 */\n      0x00\n        /* \"contracts/ymii/stake2Price.sol\":14932:14954  uint256 stakeTotalTime */\n      dup1\n        /* \"contracts/ymii/stake2Price.sol\":15022:15040  _userLastClaimTime */\n      0x10\n        /* \"contracts/ymii/stake2Price.sol\":15022:15046  _userLastClaimTime[user] */\n      0x00\n        /* \"contracts/ymii/stake2Price.sol\":15041:15045  user */\n      dup5\n        /* \"contracts/ymii/stake2Price.sol\":15022:15046  _userLastClaimTime[user] */\n      0xffffffffffffffffffffffffffffffffffffffff\n      and\n      0xffffffffffffffffffffffffffffffffffffffff\n      and\n      dup2\n      mstore\n      0x20\n      add\n      swap1\n      dup2\n      mstore\n      0x20\n      add\n      0x00\n      keccak256\n      sload\n        /* \"contracts/ymii/stake2Price.sol\":15004:15019  block.timestamp */\n      timestamp\n        /* \"contracts/ymii/stake2Price.sol\":15004:15046  block.timestamp - _userLastClaimTime[user] */\n      tag_186\n      swap2\n      swap1\n      tag_187\n      jump\t// in\n    tag_186:\n        /* \"contracts/ymii/stake2Price.sol\":14987:15046  stakeTotalTime = block.timestamp - _userLastClaimTime[user] */\n      swap1\n      pop\n        /* \"contracts/ymii/stake2Price.sol\":15129:15130  0 */\n      0x00\n        /* \"contracts/ymii/stake2Price.sol\":15101:15119  _userLastClaimTime */\n      0x10\n        /* \"contracts/ymii/stake2Price.sol\":15101:15125  _userLastClaimTime[user] */\n      0x00\n        /* \"contracts/ymii/stake2Price.sol\":15120:15124  user */\n      dup6\n        /* \"contracts/ymii/stake2Price.sol\":15101:15125  _userLastClaimTime[user] */\n      0xffffffffffffffffffffffffffffffffffffffff\n      and\n      0xffffffffffffffffffffffffffffffffffffffff\n      and\n      dup2\n      mstore\n      0x20\n      add\n      swap1\n      dup2\n      mstore\n      0x20\n      add\n      0x00\n      keccak256\n      sload\n        /* \"contracts/ymii/stake2Price.sol\":15101:15130  _userLastClaimTime[user] == 0 */\n      eq\n        /* \"contracts/ymii/stake2Price.sol\":15101:15154  _userLastClaimTime[user] == 0 && _userStake[user] > 0 */\n      dup1\n      iszero\n      tag_188\n      jumpi\n      pop\n        /* \"contracts/ymii/stake2Price.sol\":15153:15154  0 */\n      0x00\n        /* \"contracts/ymii/stake2Price.sol\":15134:15144  _userStake */\n      0x0d\n        /* \"contracts/ymii/stake2Price.sol\":15134:15150  _userStake[user] */\n      0x00\n        /* \"contracts/ymii/stake2Price.sol\":15145:15149  user */\n      dup6\n        /* \"contracts/ymii/stake2Price.sol\":15134:15150  _userStake[user] */\n      0xffffffffffffffffffffffffffffffffffffffff\n      and\n      0xffffffffffffffffffffffffffffffffffffffff\n      and\n      dup2\n      mstore\n      0x20\n      add\n      swap1\n      dup2\n      mstore\n      0x20\n      add\n      0x00\n      keccak256\n      sload\n        /* \"contracts/ymii/stake2Price.sol\":15134:15154  _userStake[user] > 0 */\n      gt\n        /* \"contracts/ymii/stake2Price.sol\":15101:15154  _userLastClaimTime[user] == 0 && _userStake[user] > 0 */\n    tag_188:\n        /* \"contracts/ymii/stake2Price.sol\":15097:15241  if (_userLastClaimTime[user] == 0 && _userStake[user] > 0) {... */\n      iszero\n      tag_189\n      jumpi\n        /* \"contracts/ymii/stake2Price.sol\":15205:15224  _userStakeStartTime */\n      0x0f\n        /* \"contracts/ymii/stake2Price.sol\":15205:15230  _userStakeStartTime[user] */\n      0x00\n        /* \"contracts/ymii/stake2Price.sol\":15225:15229  user */\n      dup5\n        /* \"contracts/ymii/stake2Price.sol\":15205:15230  _userStakeStartTime[user] */\n      0xffffffffffffffffffffffffffffffffffffffff\n      and\n      0xffffffffffffffffffffffffffffffffffffffff\n      and\n      dup2\n      mstore\n      0x20\n      add\n      swap1\n      dup2\n      mstore\n      0x20\n      add\n      0x00\n      keccak256\n      sload\n        /* \"contracts/ymii/stake2Price.sol\":15187:15202  block.timestamp */\n      timestamp\n        /* \"contracts/ymii/stake2Price.sol\":15187:15230  block.timestamp - _userStakeStartTime[user] */\n      tag_190\n      swap2\n      swap1\n      tag_187\n      jump\t// in\n    tag_190:\n        /* \"contracts/ymii/stake2Price.sol\":15170:15230  stakeTotalTime = block.timestamp - _userStakeStartTime[user] */\n      swap1\n      pop\n        /* \"contracts/ymii/stake2Price.sol\":15097:15241  if (_userLastClaimTime[user] == 0 && _userStake[user] > 0) {... */\n    tag_189:\n        /* \"contracts/ymii/stake2Price.sol\":15301:15302  0 */\n      0x00\n        /* \"contracts/ymii/stake2Price.sol\":15281:15291  _userStake */\n      0x0d\n        /* \"contracts/ymii/stake2Price.sol\":15281:15297  _userStake[user] */\n      0x00\n        /* \"contracts/ymii/stake2Price.sol\":15292:15296  user */\n      dup6\n        /* \"contracts/ymii/stake2Price.sol\":15281:15297  _userStake[user] */\n      0xffffffffffffffffffffffffffffffffffffffff\n      and\n      0xffffffffffffffffffffffffffffffffffffffff\n      and\n      dup2\n      mstore\n      0x20\n      add\n      swap1\n      dup2\n      mstore\n      0x20\n      add\n      0x00\n      keccak256\n      sload\n        /* \"contracts/ymii/stake2Price.sol\":15281:15302  _userStake[user] == 0 */\n      sub\n        /* \"contracts/ymii/stake2Price.sol\":15277:15337  if (_userStake[user] == 0) {... */\n      tag_191\n      jumpi\n        /* \"contracts/ymii/stake2Price.sol\":15325:15326  0 */\n      0x00\n        /* \"contracts/ymii/stake2Price.sol\":15318:15326  return 0 */\n      swap2\n      pop\n      pop\n      jump(tag_185)\n        /* \"contracts/ymii/stake2Price.sol\":15277:15337  if (_userStake[user] == 0) {... */\n    tag_191:\n        /* \"contracts/ymii/stake2Price.sol\":15415:15432  _userEndClaimTime */\n      0x11\n        /* \"contracts/ymii/stake2Price.sol\":15415:15438  _userEndClaimTime[user] */\n      0x00\n        /* \"contracts/ymii/stake2Price.sol\":15433:15437  user */\n      dup5\n        /* \"contracts/ymii/stake2Price.sol\":15415:15438  _userEndClaimTime[user] */\n      0xffffffffffffffffffffffffffffffffffffffff\n      and\n      0xffffffffffffffffffffffffffffffffffffffff\n      and\n      dup2\n      mstore\n      0x20\n      add\n      swap1\n      dup2\n      mstore\n      0x20\n      add\n      0x00\n      keccak256\n      sload\n        /* \"contracts/ymii/stake2Price.sol\":15397:15412  block.timestamp */\n      timestamp\n        /* \"contracts/ymii/stake2Price.sol\":15397:15438  block.timestamp > _userEndClaimTime[user] */\n      gt\n        /* \"contracts/ymii/stake2Price.sol\":15393:15700  if (block.timestamp > _userEndClaimTime[user]) {... */\n      iszero\n      tag_192\n      jumpi\n        /* \"contracts/ymii/stake2Price.sol\":15483:15484  0 */\n      0x00\n        /* \"contracts/ymii/stake2Price.sol\":15457:15475  _userLastClaimTime */\n      0x10\n        /* \"contracts/ymii/stake2Price.sol\":15457:15481  _userLastClaimTime[user] */\n      0x00\n        /* \"contracts/ymii/stake2Price.sol\":15476:15480  user */\n      dup6\n        /* \"contracts/ymii/stake2Price.sol\":15457:15481  _userLastClaimTime[user] */\n      0xffffffffffffffffffffffffffffffffffffffff\n      and\n      0xffffffffffffffffffffffffffffffffffffffff\n      and\n      dup2\n      mstore\n      0x20\n      add\n      swap1\n      dup2\n      mstore\n      0x20\n      add\n      0x00\n      keccak256\n      sload\n        /* \"contracts/ymii/stake2Price.sol\":15457:15484  _userLastClaimTime[user]==0 */\n      sub\n        /* \"contracts/ymii/stake2Price.sol\":15454:15690  if(_userLastClaimTime[user]==0){... */\n      tag_193\n      jumpi\n        /* \"contracts/ymii/stake2Price.sol\":15546:15565  _userStakeStartTime */\n      0x0f\n        /* \"contracts/ymii/stake2Price.sol\":15546:15571  _userStakeStartTime[user] */\n      0x00\n        /* \"contracts/ymii/stake2Price.sol\":15566:15570  user */\n      dup5\n        /* \"contracts/ymii/stake2Price.sol\":15546:15571  _userStakeStartTime[user] */\n      0xffffffffffffffffffffffffffffffffffffffff\n      and\n      0xffffffffffffffffffffffffffffffffffffffff\n      and\n      dup2\n      mstore\n      0x20\n      add\n      swap1\n      dup2\n      mstore\n      0x20\n      add\n      0x00\n      keccak256\n      sload\n        /* \"contracts/ymii/stake2Price.sol\":15520:15537  _userEndClaimTime */\n      0x11\n        /* \"contracts/ymii/stake2Price.sol\":15520:15543  _userEndClaimTime[user] */\n      0x00\n        /* \"contracts/ymii/stake2Price.sol\":15538:15542  user */\n      dup6\n        /* \"contracts/ymii/stake2Price.sol\":15520:15543  _userEndClaimTime[user] */\n      0xffffffffffffffffffffffffffffffffffffffff\n      and\n      0xffffffffffffffffffffffffffffffffffffffff\n      and\n      dup2\n      mstore\n      0x20\n      add\n      swap1\n      dup2\n      mstore\n      0x20\n      add\n      0x00\n      keccak256\n      sload\n        /* \"contracts/ymii/stake2Price.sol\":15520:15571  _userEndClaimTime[user] - _userStakeStartTime[user] */\n      tag_194\n      swap2\n      swap1\n      tag_187\n      jump\t// in\n    tag_194:\n        /* \"contracts/ymii/stake2Price.sol\":15503:15571  stakeTotalTime = _userEndClaimTime[user] - _userStakeStartTime[user] */\n      swap1\n      pop\n        /* \"contracts/ymii/stake2Price.sol\":15454:15690  if(_userLastClaimTime[user]==0){... */\n      jump(tag_195)\n    tag_193:\n        /* \"contracts/ymii/stake2Price.sol\":15651:15669  _userLastClaimTime */\n      0x10\n        /* \"contracts/ymii/stake2Price.sol\":15651:15675  _userLastClaimTime[user] */\n      0x00\n        /* \"contracts/ymii/stake2Price.sol\":15670:15674  user */\n      dup5\n        /* \"contracts/ymii/stake2Price.sol\":15651:15675  _userLastClaimTime[user] */\n      0xffffffffffffffffffffffffffffffffffffffff\n      and\n      0xffffffffffffffffffffffffffffffffffffffff\n      and\n      dup2\n      mstore\n      0x20\n      add\n      swap1\n      dup2\n      mstore\n      0x20\n      add\n      0x00\n      keccak256\n      sload\n        /* \"contracts/ymii/stake2Price.sol\":15625:15642  _userEndClaimTime */\n      0x11\n        /* \"contracts/ymii/stake2Price.sol\":15625:15648  _userEndClaimTime[user] */\n      0x00\n        /* \"contracts/ymii/stake2Price.sol\":15643:15647  user */\n      dup6\n        /* \"contracts/ymii/stake2Price.sol\":15625:15648  _userEndClaimTime[user] */\n      0xffffffffffffffffffffffffffffffffffffffff\n      and\n      0xffffffffffffffffffffffffffffffffffffffff\n      and\n      dup2\n      mstore\n      0x20\n      add\n      swap1\n      dup2\n      mstore\n      0x20\n      add\n      0x00\n      keccak256\n      sload\n        /* \"contracts/ymii/stake2Price.sol\":15625:15675  _userEndClaimTime[user] - _userLastClaimTime[user] */\n      tag_196\n      swap2\n      swap1\n      tag_187\n      jump\t// in\n    tag_196:\n        /* \"contracts/ymii/stake2Price.sol\":15608:15675  stakeTotalTime = _userEndClaimTime[user] - _userLastClaimTime[user] */\n      swap1\n      pop\n        /* \"contracts/ymii/stake2Price.sol\":15454:15690  if(_userLastClaimTime[user]==0){... */\n    tag_195:\n        /* \"contracts/ymii/stake2Price.sol\":15393:15700  if (block.timestamp > _userEndClaimTime[user]) {... */\n    tag_192:\n        /* \"contracts/ymii/stake2Price.sol\":15787:15804  _userEndClaimTime */\n      0x11\n        /* \"contracts/ymii/stake2Price.sol\":15787:15810  _userEndClaimTime[user] */\n      0x00\n        /* \"contracts/ymii/stake2Price.sol\":15805:15809  user */\n      dup5\n        /* \"contracts/ymii/stake2Price.sol\":15787:15810  _userEndClaimTime[user] */\n      0xffffffffffffffffffffffffffffffffffffffff\n      and\n      0xffffffffffffffffffffffffffffffffffffffff\n      and\n      dup2\n      mstore\n      0x20\n      add\n      swap1\n      dup2\n      mstore\n      0x20\n      add\n      0x00\n      keccak256\n      sload\n        /* \"contracts/ymii/stake2Price.sol\":15760:15778  _userLastClaimTime */\n      0x10\n        /* \"contracts/ymii/stake2Price.sol\":15760:15784  _userLastClaimTime[user] */\n      0x00\n        /* \"contracts/ymii/stake2Price.sol\":15779:15783  user */\n      dup6\n        /* \"contracts/ymii/stake2Price.sol\":15760:15784  _userLastClaimTime[user] */\n      0xffffffffffffffffffffffffffffffffffffffff\n      and\n      0xffffffffffffffffffffffffffffffffffffffff\n      and\n      dup2\n      mstore\n      0x20\n      add\n      swap1\n      dup2\n      mstore\n      0x20\n      add\n      0x00\n      keccak256\n      sload\n        /* \"contracts/ymii/stake2Price.sol\":15760:15810  _userLastClaimTime[user] > _userEndClaimTime[user] */\n      gt\n        /* \"contracts/ymii/stake2Price.sol\":15756:15845  if (_userLastClaimTime[user] > _userEndClaimTime[user]) {... */\n      iszero\n      tag_197\n      jumpi\n        /* \"contracts/ymii/stake2Price.sol\":15833:15834  0 */\n      0x00\n        /* \"contracts/ymii/stake2Price.sol\":15826:15834  return 0 */\n      swap2\n      pop\n      pop\n      jump(tag_185)\n        /* \"contracts/ymii/stake2Price.sol\":15756:15845  if (_userLastClaimTime[user] > _userEndClaimTime[user]) {... */\n    tag_197:\n        /* \"contracts/ymii/stake2Price.sol\":15861:15907  SafeMath.mul(stakeTotalTime, _userPower[user]) */\n      tag_198\n        /* \"contracts/ymii/stake2Price.sol\":15874:15888  stakeTotalTime */\n      dup2\n        /* \"contracts/ymii/stake2Price.sol\":15890:15900  _userPower */\n      0x12\n        /* \"contracts/ymii/stake2Price.sol\":15890:15906  _userPower[user] */\n      0x00\n        /* \"contracts/ymii/stake2Price.sol\":15901:15905  user */\n      dup7\n        /* \"contracts/ymii/stake2Price.sol\":15890:15906  _userPower[user] */\n      0xffffffffffffffffffffffffffffffffffffffff\n      and\n      0xffffffffffffffffffffffffffffffffffffffff\n      and\n      dup2\n      mstore\n      0x20\n      add\n      swap1\n      dup2\n      mstore\n      0x20\n      add\n      0x00\n      keccak256\n      sload\n        /* \"contracts/ymii/stake2Price.sol\":15861:15873  SafeMath.mul */\n      tag_199\n        /* \"contracts/ymii/stake2Price.sol\":15861:15907  SafeMath.mul(stakeTotalTime, _userPower[user]) */\n      jump\t// in\n    tag_198:\n        /* \"contracts/ymii/stake2Price.sol\":15854:15907  return SafeMath.mul(stakeTotalTime, _userPower[user]) */\n      swap2\n      pop\n      pop\n        /* \"contracts/ymii/stake2Price.sol\":14858:15914  function pureAmount(address user) public view returns (uint256) {... */\n    tag_185:\n      swap2\n      swap1\n      pop\n      jump\t// out\n        /* \"contracts/ymii/stake2Price.sol\":9114:9147  uint256 public _proportion = 1000 */\n    tag_92:\n      sload(0x08)\n      dup2\n      jump\t// out\n        /* \"contracts/ymii/stake2Price.sol\":15939:16046  function withdraw() external onlyOwner {... */\n    tag_95:\n        /* \"contracts/ymii/stake2Price.sol\":1529:1539  msg.sender */\n      caller\n        /* \"contracts/ymii/stake2Price.sol\":1519:1539  _owner == msg.sender */\n      0xffffffffffffffffffffffffffffffffffffffff\n      and\n        /* \"contracts/ymii/stake2Price.sol\":1519:1525  _owner */\n      0x00\n      dup1\n      sload\n      swap1\n      0x0100\n      exp\n      swap1\n      div\n      0xffffffffffffffffffffffffffffffffffffffff\n      and\n        /* \"contracts/ymii/stake2Price.sol\":1519:1539  _owner == msg.sender */\n      0xffffffffffffffffffffffffffffffffffffffff\n      and\n      eq\n        /* \"contracts/ymii/stake2Price.sol\":1519:1561  _owner == msg.sender||_owner == msg.sender */\n      dup1\n      tag_201\n      jumpi\n      pop\n        /* \"contracts/ymii/stake2Price.sol\":1551:1561  msg.sender */\n      caller\n        /* \"contracts/ymii/stake2Price.sol\":1541:1561  _owner == msg.sender */\n      0xffffffffffffffffffffffffffffffffffffffff\n      and\n        /* \"contracts/ymii/stake2Price.sol\":1541:1547  _owner */\n      0x00\n      dup1\n      sload\n      swap1\n      0x0100\n      exp\n      swap1\n      div\n      0xffffffffffffffffffffffffffffffffffffffff\n      and\n        /* \"contracts/ymii/stake2Price.sol\":1541:1561  _owner == msg.sender */\n      0xffffffffffffffffffffffffffffffffffffffff\n      and\n      eq\n        /* \"contracts/ymii/stake2Price.sol\":1519:1561  _owner == msg.sender||_owner == msg.sender */\n    tag_201:\n        /* \"contracts/ymii/stake2Price.sol\":1511:1572  require(_owner == msg.sender||_owner == msg.sender, \"!owner\") */\n      tag_202\n      jumpi\n      mload(0x40)\n      0x08c379a000000000000000000000000000000000000000000000000000000000\n      dup2\n      mstore\n      0x04\n      add\n      tag_203\n      swap1\n      tag_177\n      jump\t// in\n    tag_203:\n      mload(0x40)\n      dup1\n      swap2\n      sub\n      swap1\n      revert\n    tag_202:\n        /* \"contracts/ymii/stake2Price.sol\":15996:16006  msg.sender */\n      caller\n        /* \"contracts/ymii/stake2Price.sol\":15988:16016  payable(msg.sender).transfer */\n      0xffffffffffffffffffffffffffffffffffffffff\n      and\n        /* \"contracts/ymii/stake2Price.sol\":15988:16039  payable(msg.sender).transfer(address(this).balance) */\n      0x08fc\n        /* \"contracts/ymii/stake2Price.sol\":16017:16038  address(this).balance */\n      selfbalance\n        /* \"contracts/ymii/stake2Price.sol\":15988:16039  payable(msg.sender).transfer(address(this).balance) */\n      swap1\n      dup2\n      iszero\n      mul\n      swap1\n      mload(0x40)\n      0x00\n      mload(0x40)\n      dup1\n      dup4\n      sub\n      dup2\n      dup6\n      dup9\n      dup9\n      call\n      swap4\n      pop\n      pop\n      pop\n      pop\n      iszero\n      dup1\n      iszero\n      tag_206\n      jumpi\n      returndatasize\n      0x00\n      dup1\n      returndatacopy\n      revert(0x00, returndatasize)\n    tag_206:\n      pop\n        /* \"contracts/ymii/stake2Price.sol\":15939:16046  function withdraw() external onlyOwner {... */\n      jump\t// out\n        /* \"contracts/ymii/stake2Price.sol\":10197:10292  function setlpPriceToken(address token) public onlyOwner {... */\n    tag_98:\n        /* \"contracts/ymii/stake2Price.sol\":1529:1539  msg.sender */\n      caller\n        /* \"contracts/ymii/stake2Price.sol\":1519:1539  _owner == msg.sender */\n      0xffffffffffffffffffffffffffffffffffffffff\n      and\n        /* \"contracts/ymii/stake2Price.sol\":1519:1525  _owner */\n      0x00\n      dup1\n      sload\n      swap1\n      0x0100\n      exp\n      swap1\n      div\n      0xffffffffffffffffffffffffffffffffffffffff\n      and\n        /* \"contracts/ymii/stake2Price.sol\":1519:1539  _owner == msg.sender */\n      0xffffffffffffffffffffffffffffffffffffffff\n      and\n      eq\n        /* \"contracts/ymii/stake2Price.sol\":1519:1561  _owner == msg.sender||_owner == msg.sender */\n      dup1\n      tag_208\n      jumpi\n      pop\n        /* \"contracts/ymii/stake2Price.sol\":1551:1561  msg.sender */\n      caller\n        /* \"contracts/ymii/stake2Price.sol\":1541:1561  _owner == msg.sender */\n      0xffffffffffffffffffffffffffffffffffffffff\n      and\n        /* \"contracts/ymii/stake2Price.sol\":1541:1547  _owner */\n      0x00\n      dup1\n      sload\n      swap1\n      0x0100\n      exp\n      swap1\n      div\n      0xffffffffffffffffffffffffffffffffffffffff\n      and\n        /* \"contracts/ymii/stake2Price.sol\":1541:1561  _owner == msg.sender */\n      0xffffffffffffffffffffffffffffffffffffffff\n      and\n      eq\n        /* \"contracts/ymii/stake2Price.sol\":1519:1561  _owner == msg.sender||_owner == msg.sender */\n    tag_208:\n        /* \"contracts/ymii/stake2Price.sol\":1511:1572  require(_owner == msg.sender||_owner == msg.sender, \"!owner\") */\n      tag_209\n      jumpi\n      mload(0x40)\n      0x08c379a000000000000000000000000000000000000000000000000000000000\n      dup2\n      mstore\n      0x04\n      add\n      tag_210\n      swap1\n      tag_177\n      jump\t// in\n    tag_210:\n      mload(0x40)\n      dup1\n      swap2\n      sub\n      swap1\n      revert\n    tag_209:\n        /* \"contracts/ymii/stake2Price.sol\":10280:10285  token */\n      dup1\n        /* \"contracts/ymii/stake2Price.sol\":10264:10277  _lpPriceToken */\n      0x03\n      0x00\n        /* \"contracts/ymii/stake2Price.sol\":10264:10285  _lpPriceToken = token */\n      0x0100\n      exp\n      dup2\n      sload\n      dup2\n      0xffffffffffffffffffffffffffffffffffffffff\n      mul\n      not\n      and\n      swap1\n      dup4\n      0xffffffffffffffffffffffffffffffffffffffff\n      and\n      mul\n      or\n      swap1\n      sstore\n      pop\n        /* \"contracts/ymii/stake2Price.sol\":10197:10292  function setlpPriceToken(address token) public onlyOwner {... */\n      pop\n      jump\t// out\n        /* \"contracts/ymii/stake2Price.sol\":10885:13418  function stake(... */\n    tag_102:\n        /* \"contracts/ymii/stake2Price.sol\":11002:11014  isStakeStart */\n      0x0c\n      0x00\n      swap1\n      sload\n      swap1\n      0x0100\n      exp\n      swap1\n      div\n      0xff\n      and\n        /* \"contracts/ymii/stake2Price.sol\":10994:11028  require(isStakeStart, \"not start\") */\n      tag_213\n      jumpi\n      mload(0x40)\n      0x08c379a000000000000000000000000000000000000000000000000000000000\n      dup2\n      mstore\n      0x04\n      add\n      tag_214\n      swap1\n      tag_215\n      jump\t// in\n    tag_214:\n      mload(0x40)\n      dup1\n      swap2\n      sub\n      swap1\n      revert\n    tag_213:\n        /* \"contracts/ymii/stake2Price.sol\":11057:11067  msg.sender */\n      caller\n        /* \"contracts/ymii/stake2Price.sol\":11046:11067  inviter != msg.sender */\n      0xffffffffffffffffffffffffffffffffffffffff\n      and\n        /* \"contracts/ymii/stake2Price.sol\":11046:11053  inviter */\n      dup3\n        /* \"contracts/ymii/stake2Price.sol\":11046:11067  inviter != msg.sender */\n      0xffffffffffffffffffffffffffffffffffffffff\n      and\n      sub\n        /* \"contracts/ymii/stake2Price.sol\":11038:11092  require(inviter != msg.sender, \"inviter cant by self\") */\n      tag_216\n      jumpi\n      mload(0x40)\n      0x08c379a000000000000000000000000000000000000000000000000000000000\n      dup2\n      mstore\n      0x04\n      add\n      tag_217\n      swap1\n      tag_218\n      jump\t// in\n    tag_217:\n      mload(0x40)\n      dup1\n      swap2\n      sub\n      swap1\n      revert\n    tag_216:\n        /* \"contracts/ymii/stake2Price.sol\":11136:11137  0 */\n      0x00\n        /* \"contracts/ymii/stake2Price.sol\":11110:11120  _userStake */\n      0x0d\n        /* \"contracts/ymii/stake2Price.sol\":11110:11132  _userStake[msg.sender] */\n      0x00\n        /* \"contracts/ymii/stake2Price.sol\":11121:11131  msg.sender */\n      caller\n        /* \"contracts/ymii/stake2Price.sol\":11110:11132  _userStake[msg.sender] */\n      0xffffffffffffffffffffffffffffffffffffffff\n      and\n      0xffffffffffffffffffffffffffffffffffffffff\n      and\n      dup2\n      mstore\n      0x20\n      add\n      swap1\n      dup2\n      mstore\n      0x20\n      add\n      0x00\n      keccak256\n      sload\n        /* \"contracts/ymii/stake2Price.sol\":11110:11137  _userStake[msg.sender] == 0 */\n      eq\n        /* \"contracts/ymii/stake2Price.sol\":11102:11155  require(_userStake[msg.sender] == 0, \"already stake\") */\n      tag_219\n      jumpi\n      mload(0x40)\n      0x08c379a000000000000000000000000000000000000000000000000000000000\n      dup2\n      mstore\n      0x04\n      add\n      tag_220\n      swap1\n      tag_221\n      jump\t// in\n    tag_220:\n      mload(0x40)\n      dup1\n      swap2\n      sub\n      swap1\n      revert\n    tag_219:\n        /* \"contracts/ymii/stake2Price.sol\":11182:11183  0 */\n      0x00\n        /* \"contracts/ymii/stake2Price.sol\":11173:11179  amount */\n      dup4\n        /* \"contracts/ymii/stake2Price.sol\":11173:11183  amount > 0 */\n      gt\n        /* \"contracts/ymii/stake2Price.sol\":11165:11198  require(amount > 0, \"zero stake\") */\n      tag_222\n      jumpi\n      mload(0x40)\n      0x08c379a000000000000000000000000000000000000000000000000000000000\n      dup2\n      mstore\n      0x04\n      add\n      tag_223\n      swap1\n      tag_224\n      jump\t// in\n    tag_223:\n      mload(0x40)\n      dup1\n      swap2\n      sub\n      swap1\n      revert\n    tag_222:\n        /* \"contracts/ymii/stake2Price.sol\":11237:11244  _stake1 */\n      sload(0x05)\n        /* \"contracts/ymii/stake2Price.sol\":11229:11233  time */\n      dup2\n        /* \"contracts/ymii/stake2Price.sol\":11229:11244  time == _stake1 */\n      eq\n        /* \"contracts/ymii/stake2Price.sol\":11229:11263  time == _stake1 || time == _stake3 */\n      dup1\n      tag_225\n      jumpi\n      pop\n        /* \"contracts/ymii/stake2Price.sol\":11256:11263  _stake3 */\n      sload(0x06)\n        /* \"contracts/ymii/stake2Price.sol\":11248:11252  time */\n      dup2\n        /* \"contracts/ymii/stake2Price.sol\":11248:11263  time == _stake3 */\n      eq\n        /* \"contracts/ymii/stake2Price.sol\":11229:11263  time == _stake1 || time == _stake3 */\n    tag_225:\n        /* \"contracts/ymii/stake2Price.sol\":11229:11282  time == _stake1 || time == _stake3 || time == _stake5 */\n      dup1\n      tag_226\n      jumpi\n      pop\n        /* \"contracts/ymii/stake2Price.sol\":11275:11282  _stake5 */\n      sload(0x07)\n        /* \"contracts/ymii/stake2Price.sol\":11267:11271  time */\n      dup2\n        /* \"contracts/ymii/stake2Price.sol\":11267:11282  time == _stake5 */\n      eq\n        /* \"contracts/ymii/stake2Price.sol\":11229:11282  time == _stake1 || time == _stake3 || time == _stake5 */\n    tag_226:\n        /* \"contracts/ymii/stake2Price.sol\":11208:11322  require(... */\n      tag_227\n      jumpi\n      mload(0x40)\n      0x08c379a000000000000000000000000000000000000000000000000000000000\n      dup2\n      mstore\n      0x04\n      add\n      tag_228\n      swap1\n      tag_229\n      jump\t// in\n    tag_228:\n      mload(0x40)\n      dup1\n      swap2\n      sub\n      swap1\n      revert\n    tag_227:\n        /* \"contracts/ymii/stake2Price.sol\":11332:11344  uint256 base */\n      0x00\n        /* \"contracts/ymii/stake2Price.sol\":11354:11370  uint256 _lpPrice */\n      dup1\n        /* \"contracts/ymii/stake2Price.sol\":11391:11400  lpPrice() */\n      tag_230\n        /* \"contracts/ymii/stake2Price.sol\":11391:11398  lpPrice */\n      tag_61\n        /* \"contracts/ymii/stake2Price.sol\":11391:11400  lpPrice() */\n      jump\t// in\n    tag_230:\n        /* \"contracts/ymii/stake2Price.sol\":11380:11400  _lpPrice = lpPrice() */\n      swap1\n      pop\n        /* \"contracts/ymii/stake2Price.sol\":11451:11458  _stake1 */\n      sload(0x05)\n        /* \"contracts/ymii/stake2Price.sol\":11443:11447  time */\n      dup4\n        /* \"contracts/ymii/stake2Price.sol\":11443:11458  time == _stake1 */\n      sub\n        /* \"contracts/ymii/stake2Price.sol\":11439:12788  if (time == _stake1) {... */\n      tag_231\n      jumpi\n        /* \"contracts/ymii/stake2Price.sol\":11481:11873  SafeMath.div(... */\n      tag_232\n        /* \"contracts/ymii/stake2Price.sol\":11511:11834  SafeMath.div(... */\n      tag_233\n        /* \"contracts/ymii/stake2Price.sol\":11545:11790  SafeMath.div(... */\n      tag_234\n        /* \"contracts/ymii/stake2Price.sol\":11583:11739  SafeMath.mul(... */\n      tag_235\n        /* \"contracts/ymii/stake2Price.sol\":11625:11672  SafeMath.mul(SafeMath.mul(amount, 8), _lpPrice) */\n      tag_236\n        /* \"contracts/ymii/stake2Price.sol\":11638:11661  SafeMath.mul(amount, 8) */\n      tag_237\n        /* \"contracts/ymii/stake2Price.sol\":11651:11657  amount */\n      dup11\n        /* \"contracts/ymii/stake2Price.sol\":11659:11660  8 */\n      0x08\n        /* \"contracts/ymii/stake2Price.sol\":11638:11650  SafeMath.mul */\n      tag_199\n        /* \"contracts/ymii/stake2Price.sol\":11638:11661  SafeMath.mul(amount, 8) */\n      jump\t// in\n    tag_237:\n        /* \"contracts/ymii/stake2Price.sol\":11663:11671  _lpPrice */\n      dup7\n        /* \"contracts/ymii/stake2Price.sol\":11625:11637  SafeMath.mul */\n      tag_199\n        /* \"contracts/ymii/stake2Price.sol\":11625:11672  SafeMath.mul(SafeMath.mul(amount, 8), _lpPrice) */\n      jump\t// in\n    tag_236:\n        /* \"contracts/ymii/stake2Price.sol\":11702:11713  _proportion */\n      sload(0x08)\n        /* \"contracts/ymii/stake2Price.sol\":11583:11595  SafeMath.mul */\n      tag_199\n        /* \"contracts/ymii/stake2Price.sol\":11583:11739  SafeMath.mul(... */\n      jump\t// in\n    tag_235:\n        /* \"contracts/ymii/stake2Price.sol\":11765:11768  100 */\n      0x64\n        /* \"contracts/ymii/stake2Price.sol\":11545:11557  SafeMath.div */\n      tag_238\n        /* \"contracts/ymii/stake2Price.sol\":11545:11790  SafeMath.div(... */\n      jump\t// in\n    tag_234:\n        /* \"contracts/ymii/stake2Price.sol\":11812:11816  1000 */\n      0x03e8\n        /* \"contracts/ymii/stake2Price.sol\":11511:11523  SafeMath.div */\n      tag_238\n        /* \"contracts/ymii/stake2Price.sol\":11511:11834  SafeMath.div(... */\n      jump\t// in\n    tag_233:\n        /* \"contracts/ymii/stake2Price.sol\":11852:11859  _stake1 */\n      sload(0x05)\n        /* \"contracts/ymii/stake2Price.sol\":11481:11493  SafeMath.div */\n      tag_238\n        /* \"contracts/ymii/stake2Price.sol\":11481:11873  SafeMath.div(... */\n      jump\t// in\n    tag_232:\n        /* \"contracts/ymii/stake2Price.sol\":11474:11873  base = SafeMath.div(... */\n      swap2\n      pop\n        /* \"contracts/ymii/stake2Price.sol\":11439:12788  if (time == _stake1) {... */\n      jump(tag_239)\n    tag_231:\n        /* \"contracts/ymii/stake2Price.sol\":11902:11909  _stake3 */\n      sload(0x06)\n        /* \"contracts/ymii/stake2Price.sol\":11894:11898  time */\n      dup4\n        /* \"contracts/ymii/stake2Price.sol\":11894:11909  time == _stake3 */\n      sub\n        /* \"contracts/ymii/stake2Price.sol\":11890:12788  if (time == _stake3) {... */\n      tag_240\n      jumpi\n        /* \"contracts/ymii/stake2Price.sol\":11932:12325  SafeMath.div(... */\n      tag_241\n        /* \"contracts/ymii/stake2Price.sol\":11962:12286  SafeMath.div(... */\n      tag_242\n        /* \"contracts/ymii/stake2Price.sol\":11996:12242  SafeMath.div(... */\n      tag_243\n        /* \"contracts/ymii/stake2Price.sol\":12034:12191  SafeMath.mul(... */\n      tag_244\n        /* \"contracts/ymii/stake2Price.sol\":12076:12124  SafeMath.mul(SafeMath.mul(amount, 13), _lpPrice) */\n      tag_245\n        /* \"contracts/ymii/stake2Price.sol\":12089:12113  SafeMath.mul(amount, 13) */\n      tag_246\n        /* \"contracts/ymii/stake2Price.sol\":12102:12108  amount */\n      dup11\n        /* \"contracts/ymii/stake2Price.sol\":12110:12112  13 */\n      0x0d\n        /* \"contracts/ymii/stake2Price.sol\":12089:12101  SafeMath.mul */\n      tag_199\n        /* \"contracts/ymii/stake2Price.sol\":12089:12113  SafeMath.mul(amount, 13) */\n      jump\t// in\n    tag_246:\n        /* \"contracts/ymii/stake2Price.sol\":12115:12123  _lpPrice */\n      dup7\n        /* \"contracts/ymii/stake2Price.sol\":12076:12088  SafeMath.mul */\n      tag_199\n        /* \"contracts/ymii/stake2Price.sol\":12076:12124  SafeMath.mul(SafeMath.mul(amount, 13), _lpPrice) */\n      jump\t// in\n    tag_245:\n        /* \"contracts/ymii/stake2Price.sol\":12154:12165  _proportion */\n      sload(0x08)\n        /* \"contracts/ymii/stake2Price.sol\":12034:12046  SafeMath.mul */\n      tag_199\n        /* \"contracts/ymii/stake2Price.sol\":12034:12191  SafeMath.mul(... */\n      jump\t// in\n    tag_244:\n        /* \"contracts/ymii/stake2Price.sol\":12217:12220  100 */\n      0x64\n        /* \"contracts/ymii/stake2Price.sol\":11996:12008  SafeMath.div */\n      tag_238\n        /* \"contracts/ymii/stake2Price.sol\":11996:12242  SafeMath.div(... */\n      jump\t// in\n    tag_243:\n        /* \"contracts/ymii/stake2Price.sol\":12264:12268  1000 */\n      0x03e8\n        /* \"contracts/ymii/stake2Price.sol\":11962:11974  SafeMath.div */\n      tag_238\n        /* \"contracts/ymii/stake2Price.sol\":11962:12286  SafeMath.div(... */\n      jump\t// in\n    tag_242:\n        /* \"contracts/ymii/stake2Price.sol\":12304:12311  _stake1 */\n      sload(0x05)\n        /* \"contracts/ymii/stake2Price.sol\":11932:11944  SafeMath.div */\n      tag_238\n        /* \"contracts/ymii/stake2Price.sol\":11932:12325  SafeMath.div(... */\n      jump\t// in\n    tag_241:\n        /* \"contracts/ymii/stake2Price.sol\":11925:12325  base = SafeMath.div(... */\n      swap2\n      pop\n        /* \"contracts/ymii/stake2Price.sol\":11890:12788  if (time == _stake3) {... */\n      jump(tag_247)\n    tag_240:\n        /* \"contracts/ymii/stake2Price.sol\":12354:12361  _stake5 */\n      sload(0x07)\n        /* \"contracts/ymii/stake2Price.sol\":12346:12350  time */\n      dup4\n        /* \"contracts/ymii/stake2Price.sol\":12346:12361  time == _stake5 */\n      sub\n        /* \"contracts/ymii/stake2Price.sol\":12342:12788  if (time == _stake5) {... */\n      tag_248\n      jumpi\n        /* \"contracts/ymii/stake2Price.sol\":12384:12777  SafeMath.div(... */\n      tag_249\n        /* \"contracts/ymii/stake2Price.sol\":12414:12738  SafeMath.div(... */\n      tag_250\n        /* \"contracts/ymii/stake2Price.sol\":12448:12694  SafeMath.div(... */\n      tag_251\n        /* \"contracts/ymii/stake2Price.sol\":12486:12643  SafeMath.mul(... */\n      tag_252\n        /* \"contracts/ymii/stake2Price.sol\":12528:12576  SafeMath.mul(SafeMath.mul(amount, 16), _lpPrice) */\n      tag_253\n        /* \"contracts/ymii/stake2Price.sol\":12541:12565  SafeMath.mul(amount, 16) */\n      tag_254\n        /* \"contracts/ymii/stake2Price.sol\":12554:12560  amount */\n      dup11\n        /* \"contracts/ymii/stake2Price.sol\":12562:12564  16 */\n      0x10\n        /* \"contracts/ymii/stake2Price.sol\":12541:12553  SafeMath.mul */\n      tag_199\n        /* \"contracts/ymii/stake2Price.sol\":12541:12565  SafeMath.mul(amount, 16) */\n      jump\t// in\n    tag_254:\n        /* \"contracts/ymii/stake2Price.sol\":12567:12575  _lpPrice */\n      dup7\n        /* \"contracts/ymii/stake2Price.sol\":12528:12540  SafeMath.mul */\n      tag_199\n        /* \"contracts/ymii/stake2Price.sol\":12528:12576  SafeMath.mul(SafeMath.mul(amount, 16), _lpPrice) */\n      jump\t// in\n    tag_253:\n        /* \"contracts/ymii/stake2Price.sol\":12606:12617  _proportion */\n      sload(0x08)\n        /* \"contracts/ymii/stake2Price.sol\":12486:12498  SafeMath.mul */\n      tag_199\n        /* \"contracts/ymii/stake2Price.sol\":12486:12643  SafeMath.mul(... */\n      jump\t// in\n    tag_252:\n        /* \"contracts/ymii/stake2Price.sol\":12669:12672  100 */\n      0x64\n        /* \"contracts/ymii/stake2Price.sol\":12448:12460  SafeMath.div */\n      tag_238\n        /* \"contracts/ymii/stake2Price.sol\":12448:12694  SafeMath.div(... */\n      jump\t// in\n    tag_251:\n        /* \"contracts/ymii/stake2Price.sol\":12716:12720  1000 */\n      0x03e8\n        /* \"contracts/ymii/stake2Price.sol\":12414:12426  SafeMath.div */\n      tag_238\n        /* \"contracts/ymii/stake2Price.sol\":12414:12738  SafeMath.div(... */\n      jump\t// in\n    tag_250:\n        /* \"contracts/ymii/stake2Price.sol\":12756:12763  _stake1 */\n      sload(0x05)\n        /* \"contracts/ymii/stake2Price.sol\":12384:12396  SafeMath.div */\n      tag_238\n        /* \"contracts/ymii/stake2Price.sol\":12384:12777  SafeMath.div(... */\n      jump\t// in\n    tag_249:\n        /* \"contracts/ymii/stake2Price.sol\":12377:12777  base = SafeMath.div(... */\n      swap2\n      pop\n        /* \"contracts/ymii/stake2Price.sol\":12342:12788  if (time == _stake5) {... */\n    tag_248:\n        /* \"contracts/ymii/stake2Price.sol\":11890:12788  if (time == _stake3) {... */\n    tag_247:\n        /* \"contracts/ymii/stake2Price.sol\":11439:12788  if (time == _stake1) {... */\n    tag_239:\n        /* \"contracts/ymii/stake2Price.sol\":12821:12822  0 */\n      0x00\n        /* \"contracts/ymii/stake2Price.sol\":12802:12823  inviter != address(0) */\n      0xffffffffffffffffffffffffffffffffffffffff\n      and\n        /* \"contracts/ymii/stake2Price.sol\":12802:12809  inviter */\n      dup5\n        /* \"contracts/ymii/stake2Price.sol\":12802:12823  inviter != address(0) */\n      0xffffffffffffffffffffffffffffffffffffffff\n      and\n      eq\n        /* \"contracts/ymii/stake2Price.sol\":12798:13032  if (inviter != address(0)) {... */\n      tag_255\n      jumpi\n        /* \"contracts/ymii/stake2Price.sol\":12865:12872  inviter */\n      dup4\n        /* \"contracts/ymii/stake2Price.sol\":12839:12850  _inviterMap */\n      0x09\n        /* \"contracts/ymii/stake2Price.sol\":12839:12862  _inviterMap[msg.sender] */\n      0x00\n        /* \"contracts/ymii/stake2Price.sol\":12851:12861  msg.sender */\n      caller\n        /* \"contracts/ymii/stake2Price.sol\":12839:12862  _inviterMap[msg.sender] */\n      0xffffffffffffffffffffffffffffffffffffffff\n      and\n      0xffffffffffffffffffffffffffffffffffffffff\n      and\n      dup2\n      mstore\n      0x20\n      add\n      swap1\n      dup2\n      mstore\n      0x20\n      add\n      0x00\n      keccak256\n      0x00\n        /* \"contracts/ymii/stake2Price.sol\":12839:12872  _inviterMap[msg.sender] = inviter */\n      0x0100\n      exp\n      dup2\n      sload\n      dup2\n      0xffffffffffffffffffffffffffffffffffffffff\n      mul\n      not\n      and\n      swap1\n      dup4\n      0xffffffffffffffffffffffffffffffffffffffff\n      and\n      mul\n      or\n      swap1\n      sstore\n      pop\n        /* \"contracts/ymii/stake2Price.sol\":12977:12983  100000 */\n      0x0186a0\n        /* \"contracts/ymii/stake2Price.sol\":12950:12961  _proportion */\n      sload(0x08)\n        /* \"contracts/ymii/stake2Price.sol\":12946:12947  5 */\n      0x05\n        /* \"contracts/ymii/stake2Price.sol\":12937:12943  amount */\n      dup8\n        /* \"contracts/ymii/stake2Price.sol\":12926:12934  _lpPrice */\n      dup5\n        /* \"contracts/ymii/stake2Price.sol\":12926:12943  _lpPrice * amount */\n      tag_256\n      swap2\n      swap1\n      tag_257\n      jump\t// in\n    tag_256:\n        /* \"contracts/ymii/stake2Price.sol\":12926:12947  _lpPrice * amount * 5 */\n      tag_258\n      swap2\n      swap1\n      tag_257\n      jump\t// in\n    tag_258:\n        /* \"contracts/ymii/stake2Price.sol\":12926:12961  _lpPrice * amount * 5 * _proportion */\n      tag_259\n      swap2\n      swap1\n      tag_257\n      jump\t// in\n    tag_259:\n        /* \"contracts/ymii/stake2Price.sol\":12925:12983  (_lpPrice * amount * 5 * _proportion) /... */\n      tag_260\n      swap2\n      swap1\n      tag_261\n      jump\t// in\n    tag_260:\n        /* \"contracts/ymii/stake2Price.sol\":12886:12900  _inviterReward */\n      0x0a\n        /* \"contracts/ymii/stake2Price.sol\":12886:12909  _inviterReward[inviter] */\n      0x00\n        /* \"contracts/ymii/stake2Price.sol\":12901:12908  inviter */\n      dup7\n        /* \"contracts/ymii/stake2Price.sol\":12886:12909  _inviterReward[inviter] */\n      0xffffffffffffffffffffffffffffffffffffffff\n      and\n      0xffffffffffffffffffffffffffffffffffffffff\n      and\n      dup2\n      mstore\n      0x20\n      add\n      swap1\n      dup2\n      mstore\n      0x20\n      add\n      0x00\n      keccak256\n      0x00\n        /* \"contracts/ymii/stake2Price.sol\":12886:12983  _inviterReward[inviter] +=... */\n      dup3\n      dup3\n      sload\n      tag_262\n      swap2\n      swap1\n      tag_263\n      jump\t// in\n    tag_262:\n      swap3\n      pop\n      pop\n      dup2\n      swap1\n      sstore\n      pop\n        /* \"contracts/ymii/stake2Price.sol\":13020:13021  1 */\n      0x01\n        /* \"contracts/ymii/stake2Price.sol\":12997:13007  _inviteNum */\n      0x0b\n        /* \"contracts/ymii/stake2Price.sol\":12997:13016  _inviteNum[inviter] */\n      0x00\n        /* \"contracts/ymii/stake2Price.sol\":13008:13015  inviter */\n      dup7\n        /* \"contracts/ymii/stake2Price.sol\":12997:13016  _inviteNum[inviter] */\n      0xffffffffffffffffffffffffffffffffffffffff\n      and\n      0xffffffffffffffffffffffffffffffffffffffff\n      and\n      dup2\n      mstore\n      0x20\n      add\n      swap1\n      dup2\n      mstore\n      0x20\n      add\n      0x00\n      keccak256\n      0x00\n        /* \"contracts/ymii/stake2Price.sol\":12997:13021  _inviteNum[inviter] += 1 */\n      dup3\n      dup3\n      sload\n      tag_264\n      swap2\n      swap1\n      tag_263\n      jump\t// in\n    tag_264:\n      swap3\n      pop\n      pop\n      dup2\n      swap1\n      sstore\n      pop\n        /* \"contracts/ymii/stake2Price.sol\":12798:13032  if (inviter != address(0)) {... */\n    tag_255:\n        /* \"contracts/ymii/stake2Price.sol\":13048:13059  _stakeToken */\n      0x02\n      0x00\n      swap1\n      sload\n      swap1\n      0x0100\n      exp\n      swap1\n      div\n      0xffffffffffffffffffffffffffffffffffffffff\n      and\n        /* \"contracts/ymii/stake2Price.sol\":13041:13073  IERC20(_stakeToken).transferFrom */\n      0xffffffffffffffffffffffffffffffffffffffff\n      and\n      0x23b872dd\n        /* \"contracts/ymii/stake2Price.sol\":13074:13084  msg.sender */\n      caller\n        /* \"contracts/ymii/stake2Price.sol\":13094:13098  this */\n      address\n        /* \"contracts/ymii/stake2Price.sol\":13101:13107  amount */\n      dup9\n        /* \"contracts/ymii/stake2Price.sol\":13041:13108  IERC20(_stakeToken).transferFrom(msg.sender, address(this), amount) */\n      mload(0x40)\n      dup5\n      0xffffffff\n      and\n      0xe0\n      shl\n      dup2\n      mstore\n      0x04\n      add\n      tag_265\n      swap4\n      swap3\n      swap2\n      swap1\n      tag_266\n      jump\t// in\n    tag_265:\n      0x20\n      mload(0x40)\n      dup1\n      dup4\n      sub\n      dup2\n      0x00\n      dup8\n      gas\n      call\n      iszero\n      dup1\n      iszero\n      tag_268\n      jumpi\n      returndatasize\n      0x00\n      dup1\n      returndatacopy\n      revert(0x00, returndatasize)\n    tag_268:\n      pop\n      pop\n      pop\n      pop\n      mload(0x40)\n      returndatasize\n      not(0x1f)\n      0x1f\n      dup3\n      add\n      and\n      dup3\n      add\n      dup1\n      0x40\n      mstore\n      pop\n      dup2\n      add\n      swap1\n      tag_269\n      swap2\n      swap1\n      tag_270\n      jump\t// in\n    tag_269:\n      pop\n        /* \"contracts/ymii/stake2Price.sol\":13143:13149  amount */\n      dup5\n        /* \"contracts/ymii/stake2Price.sol\":13118:13128  _userStake */\n      0x0d\n        /* \"contracts/ymii/stake2Price.sol\":13118:13140  _userStake[msg.sender] */\n      0x00\n        /* \"contracts/ymii/stake2Price.sol\":13129:13139  msg.sender */\n      caller\n        /* \"contracts/ymii/stake2Price.sol\":13118:13140  _userStake[msg.sender] */\n      0xffffffffffffffffffffffffffffffffffffffff\n      and\n      0xffffffffffffffffffffffffffffffffffffffff\n      and\n      dup2\n      mstore\n      0x20\n      add\n      swap1\n      dup2\n      mstore\n      0x20\n      add\n      0x00\n      keccak256\n        /* \"contracts/ymii/stake2Price.sol\":13118:13149  _userStake[msg.sender] = amount */\n      dup2\n      swap1\n      sstore\n      pop\n        /* \"contracts/ymii/stake2Price.sol\":13193:13208  block.timestamp */\n      timestamp\n        /* \"contracts/ymii/stake2Price.sol\":13159:13178  _userStakeStartTime */\n      0x0f\n        /* \"contracts/ymii/stake2Price.sol\":13159:13190  _userStakeStartTime[msg.sender] */\n      0x00\n        /* \"contracts/ymii/stake2Price.sol\":13179:13189  msg.sender */\n      caller\n        /* \"contracts/ymii/stake2Price.sol\":13159:13190  _userStakeStartTime[msg.sender] */\n      0xffffffffffffffffffffffffffffffffffffffff\n      and\n      0xffffffffffffffffffffffffffffffffffffffff\n      and\n      dup2\n      mstore\n      0x20\n      add\n      swap1\n      dup2\n      mstore\n      0x20\n      add\n      0x00\n      keccak256\n        /* \"contracts/ymii/stake2Price.sol\":13159:13208  _userStakeStartTime[msg.sender] = block.timestamp */\n      dup2\n      swap1\n      sstore\n      pop\n        /* \"contracts/ymii/stake2Price.sol\":13250:13265  block.timestamp */\n      timestamp\n        /* \"contracts/ymii/stake2Price.sol\":13218:13236  _userLastClaimTime */\n      0x10\n        /* \"contracts/ymii/stake2Price.sol\":13218:13248  _userLastClaimTime[msg.sender] */\n      0x00\n        /* \"contracts/ymii/stake2Price.sol\":13237:13247  msg.sender */\n      caller\n        /* \"contracts/ymii/stake2Price.sol\":13218:13248  _userLastClaimTime[msg.sender] */\n      0xffffffffffffffffffffffffffffffffffffffff\n      and\n      0xffffffffffffffffffffffffffffffffffffffff\n      and\n      dup2\n      mstore\n      0x20\n      add\n      swap1\n      dup2\n      mstore\n      0x20\n      add\n      0x00\n      keccak256\n        /* \"contracts/ymii/stake2Price.sol\":13218:13265  _userLastClaimTime[msg.sender]= block.timestamp */\n      dup2\n      swap1\n      sstore\n      pop\n        /* \"contracts/ymii/stake2Price.sol\":13325:13329  time */\n      dup3\n        /* \"contracts/ymii/stake2Price.sol\":13307:13322  block.timestamp */\n      timestamp\n        /* \"contracts/ymii/stake2Price.sol\":13307:13329  block.timestamp + time */\n      tag_271\n      swap2\n      swap1\n      tag_263\n      jump\t// in\n    tag_271:\n        /* \"contracts/ymii/stake2Price.sol\":13275:13292  _userEndClaimTime */\n      0x11\n        /* \"contracts/ymii/stake2Price.sol\":13275:13304  _userEndClaimTime[msg.sender] */\n      0x00\n        /* \"contracts/ymii/stake2Price.sol\":13293:13303  msg.sender */\n      caller\n        /* \"contracts/ymii/stake2Price.sol\":13275:13304  _userEndClaimTime[msg.sender] */\n      0xffffffffffffffffffffffffffffffffffffffff\n      and\n      0xffffffffffffffffffffffffffffffffffffffff\n      and\n      dup2\n      mstore\n      0x20\n      add\n      swap1\n      dup2\n      mstore\n      0x20\n      add\n      0x00\n      keccak256\n        /* \"contracts/ymii/stake2Price.sol\":13275:13329  _userEndClaimTime[msg.sender] = block.timestamp + time */\n      dup2\n      swap1\n      sstore\n      pop\n        /* \"contracts/ymii/stake2Price.sol\":13368:13372  time */\n      dup3\n        /* \"contracts/ymii/stake2Price.sol\":13339:13353  _userStakeTime */\n      0x0e\n        /* \"contracts/ymii/stake2Price.sol\":13339:13365  _userStakeTime[msg.sender] */\n      0x00\n        /* \"contracts/ymii/stake2Price.sol\":13354:13364  msg.sender */\n      caller\n        /* \"contracts/ymii/stake2Price.sol\":13339:13365  _userStakeTime[msg.sender] */\n      0xffffffffffffffffffffffffffffffffffffffff\n      and\n      0xffffffffffffffffffffffffffffffffffffffff\n      and\n      dup2\n      mstore\n      0x20\n      add\n      swap1\n      dup2\n      mstore\n      0x20\n      add\n      0x00\n      keccak256\n        /* \"contracts/ymii/stake2Price.sol\":13339:13372  _userStakeTime[msg.sender] = time */\n      dup2\n      swap1\n      sstore\n      pop\n        /* \"contracts/ymii/stake2Price.sol\":13407:13411  base */\n      dup2\n        /* \"contracts/ymii/stake2Price.sol\":13382:13392  _userPower */\n      0x12\n        /* \"contracts/ymii/stake2Price.sol\":13382:13404  _userPower[msg.sender] */\n      0x00\n        /* \"contracts/ymii/stake2Price.sol\":13393:13403  msg.sender */\n      caller\n        /* \"contracts/ymii/stake2Price.sol\":13382:13404  _userPower[msg.sender] */\n      0xffffffffffffffffffffffffffffffffffffffff\n      and\n      0xffffffffffffffffffffffffffffffffffffffff\n      and\n      dup2\n      mstore\n      0x20\n      add\n      swap1\n      dup2\n      mstore\n      0x20\n      add\n      0x00\n      keccak256\n        /* \"contracts/ymii/stake2Price.sol\":13382:13411  _userPower[msg.sender] = base */\n      dup2\n      swap1\n      sstore\n      pop\n        /* \"contracts/ymii/stake2Price.sol\":10984:13418  {... */\n      pop\n      pop\n        /* \"contracts/ymii/stake2Price.sol\":10885:13418  function stake(... */\n      pop\n      pop\n      pop\n      jump\t// out\n        /* \"contracts/ymii/stake2Price.sol\":8508:8579  address public _stakeToken = 0x6b6b2D8166D13b58155b8d454F239AE3691257A6 */\n    tag_104:\n      0x02\n      0x00\n      swap1\n      sload\n      swap1\n      0x0100\n      exp\n      swap1\n      div\n      0xffffffffffffffffffffffffffffffffffffffff\n      and\n      dup2\n      jump\t// out\n        /* \"contracts/ymii/stake2Price.sol\":9735:9788  mapping(address => uint256) public _userLastClaimTime */\n    tag_108:\n      mstore(0x20, 0x10)\n      dup1\n      0x00\n      mstore\n      keccak256(0x00, 0x40)\n      0x00\n      swap2\n      pop\n      swap1\n      pop\n      sload\n      dup2\n      jump\t// out\n        /* \"contracts/ymii/stake2Price.sol\":10453:10571  function setUserBlacklist(address user) public onlyOwner {... */\n    tag_112:\n        /* \"contracts/ymii/stake2Price.sol\":1529:1539  msg.sender */\n      caller\n        /* \"contracts/ymii/stake2Price.sol\":1519:1539  _owner == msg.sender */\n      0xffffffffffffffffffffffffffffffffffffffff\n      and\n        /* \"contracts/ymii/stake2Price.sol\":1519:1525  _owner */\n      0x00\n      dup1\n      sload\n      swap1\n      0x0100\n      exp\n      swap1\n      div\n      0xffffffffffffffffffffffffffffffffffffffff\n      and\n        /* \"contracts/ymii/stake2Price.sol\":1519:1539  _owner == msg.sender */\n      0xffffffffffffffffffffffffffffffffffffffff\n      and\n      eq\n        /* \"contracts/ymii/stake2Price.sol\":1519:1561  _owner == msg.sender||_owner == msg.sender */\n      dup1\n      tag_273\n      jumpi\n      pop\n        /* \"contracts/ymii/stake2Price.sol\":1551:1561  msg.sender */\n      caller\n        /* \"contracts/ymii/stake2Price.sol\":1541:1561  _owner == msg.sender */\n      0xffffffffffffffffffffffffffffffffffffffff\n      and\n        /* \"contracts/ymii/stake2Price.sol\":1541:1547  _owner */\n      0x00\n      dup1\n      sload\n      swap1\n      0x0100\n      exp\n      swap1\n      div\n      0xffffffffffffffffffffffffffffffffffffffff\n      and\n        /* \"contracts/ymii/stake2Price.sol\":1541:1561  _owner == msg.sender */\n      0xffffffffffffffffffffffffffffffffffffffff\n      and\n      eq\n        /* \"contracts/ymii/stake2Price.sol\":1519:1561  _owner == msg.sender||_owner == msg.sender */\n    tag_273:\n        /* \"contracts/ymii/stake2Price.sol\":1511:1572  require(_owner == msg.sender||_owner == msg.sender, \"!owner\") */\n      tag_274\n      jumpi\n      mload(0x40)\n      0x08c379a000000000000000000000000000000000000000000000000000000000\n      dup2\n      mstore\n      0x04\n      add\n      tag_275\n      swap1\n      tag_177\n      jump\t// in\n    tag_275:\n      mload(0x40)\n      dup1\n      swap2\n      sub\n      swap1\n      revert\n    tag_274:\n        /* \"contracts/ymii/stake2Price.sol\":10544:10558  _userBlacklist */\n      0x13\n        /* \"contracts/ymii/stake2Price.sol\":10544:10564  _userBlacklist[user] */\n      0x00\n        /* \"contracts/ymii/stake2Price.sol\":10559:10563  user */\n      dup3\n        /* \"contracts/ymii/stake2Price.sol\":10544:10564  _userBlacklist[user] */\n      0xffffffffffffffffffffffffffffffffffffffff\n      and\n      0xffffffffffffffffffffffffffffffffffffffff\n      and\n      dup2\n      mstore\n      0x20\n      add\n      swap1\n      dup2\n      mstore\n      0x20\n      add\n      0x00\n      keccak256\n      0x00\n      swap1\n      sload\n      swap1\n      0x0100\n      exp\n      swap1\n      div\n      0xff\n      and\n        /* \"contracts/ymii/stake2Price.sol\":10543:10564  !_userBlacklist[user] */\n      iszero\n        /* \"contracts/ymii/stake2Price.sol\":10520:10534  _userBlacklist */\n      0x13\n        /* \"contracts/ymii/stake2Price.sol\":10520:10540  _userBlacklist[user] */\n      0x00\n        /* \"contracts/ymii/stake2Price.sol\":10535:10539  user */\n      dup4\n        /* \"contracts/ymii/stake2Price.sol\":10520:10540  _userBlacklist[user] */\n      0xffffffffffffffffffffffffffffffffffffffff\n      and\n      0xffffffffffffffffffffffffffffffffffffffff\n      and\n      dup2\n      mstore\n      0x20\n      add\n      swap1\n      dup2\n      mstore\n      0x20\n      add\n      0x00\n      keccak256\n      0x00\n        /* \"contracts/ymii/stake2Price.sol\":10520:10564  _userBlacklist[user] = !_userBlacklist[user] */\n      0x0100\n      exp\n      dup2\n      sload\n      dup2\n      0xff\n      mul\n      not\n      and\n      swap1\n      dup4\n      iszero\n      iszero\n      mul\n      or\n      swap1\n      sstore\n      pop\n        /* \"contracts/ymii/stake2Price.sol\":10453:10571  function setUserBlacklist(address user) public onlyOwner {... */\n      pop\n      jump\t// out\n        /* \"contracts/ymii/stake2Price.sol\":10060:10146  function setlpPrice(uint256 Price) public onlyOwner {... */\n    tag_115:\n        /* \"contracts/ymii/stake2Price.sol\":1529:1539  msg.sender */\n      caller\n        /* \"contracts/ymii/stake2Price.sol\":1519:1539  _owner == msg.sender */\n      0xffffffffffffffffffffffffffffffffffffffff\n      and\n        /* \"contracts/ymii/stake2Price.sol\":1519:1525  _owner */\n      0x00\n      dup1\n      sload\n      swap1\n      0x0100\n      exp\n      swap1\n      div\n      0xffffffffffffffffffffffffffffffffffffffff\n      and\n        /* \"contracts/ymii/stake2Price.sol\":1519:1539  _owner == msg.sender */\n      0xffffffffffffffffffffffffffffffffffffffff\n      and\n      eq\n        /* \"contracts/ymii/stake2Price.sol\":1519:1561  _owner == msg.sender||_owner == msg.sender */\n      dup1\n      tag_278\n      jumpi\n      pop\n        /* \"contracts/ymii/stake2Price.sol\":1551:1561  msg.sender */\n      caller\n        /* \"contracts/ymii/stake2Price.sol\":1541:1561  _owner == msg.sender */\n      0xffffffffffffffffffffffffffffffffffffffff\n      and\n        /* \"contracts/ymii/stake2Price.sol\":1541:1547  _owner */\n      0x00\n      dup1\n      sload\n      swap1\n      0x0100\n      exp\n      swap1\n      div\n      0xffffffffffffffffffffffffffffffffffffffff\n      and\n        /* \"contracts/ymii/stake2Price.sol\":1541:1561  _owner == msg.sender */\n      0xffffffffffffffffffffffffffffffffffffffff\n      and\n      eq\n        /* \"contracts/ymii/stake2Price.sol\":1519:1561  _owner == msg.sender||_owner == msg.sender */\n    tag_278:\n        /* \"contracts/ymii/stake2Price.sol\":1511:1572  require(_owner == msg.sender||_owner == msg.sender, \"!owner\") */\n      tag_279\n      jumpi\n      mload(0x40)\n      0x08c379a000000000000000000000000000000000000000000000000000000000\n      dup2\n      mstore\n      0x04\n      add\n      tag_280\n      swap1\n      tag_177\n      jump\t// in\n    tag_280:\n      mload(0x40)\n      dup1\n      swap2\n      sub\n      swap1\n      revert\n    tag_279:\n        /* \"contracts/ymii/stake2Price.sol\":10134:10139  Price */\n      dup1\n        /* \"contracts/ymii/stake2Price.sol\":10122:10131  _lpPriceG */\n      0x04\n        /* \"contracts/ymii/stake2Price.sol\":10122:10139  _lpPriceG = Price */\n      dup2\n      swap1\n      sstore\n      pop\n        /* \"contracts/ymii/stake2Price.sol\":10060:10146  function setlpPrice(uint256 Price) public onlyOwner {... */\n      pop\n      jump\t// out\n        /* \"contracts/ymii/stake2Price.sol\":8991:9033  uint256 public _stake3 = 24 hours * 30 * 3 */\n    tag_117:\n      sload(0x06)\n      dup2\n      jump\t// out\n        /* \"contracts/ymii/stake2Price.sol\":1397:1474  function owner() public view returns (address) {... */\n    tag_120:\n        /* \"contracts/ymii/stake2Price.sol\":1435:1442  address */\n      0x00\n        /* \"contracts/ymii/stake2Price.sol\":1461:1467  _owner */\n      dup1\n      0x00\n      swap1\n      sload\n      swap1\n      0x0100\n      exp\n      swap1\n      div\n      0xffffffffffffffffffffffffffffffffffffffff\n      and\n        /* \"contracts/ymii/stake2Price.sol\":1454:1467  return _owner */\n      swap1\n      pop\n        /* \"contracts/ymii/stake2Price.sol\":1397:1474  function owner() public view returns (address) {... */\n      swap1\n      jump\t// out\n        /* \"contracts/ymii/stake2Price.sol\":16773:17159  function cancalStackOver(uint256 amount) public onlyOwner{      ... */\n    tag_124:\n        /* \"contracts/ymii/stake2Price.sol\":1529:1539  msg.sender */\n      caller\n        /* \"contracts/ymii/stake2Price.sol\":1519:1539  _owner == msg.sender */\n      0xffffffffffffffffffffffffffffffffffffffff\n      and\n        /* \"contracts/ymii/stake2Price.sol\":1519:1525  _owner */\n      0x00\n      dup1\n      sload\n      swap1\n      0x0100\n      exp\n      swap1\n      div\n      0xffffffffffffffffffffffffffffffffffffffff\n      and\n        /* \"contracts/ymii/stake2Price.sol\":1519:1539  _owner == msg.sender */\n      0xffffffffffffffffffffffffffffffffffffffff\n      and\n      eq\n        /* \"contracts/ymii/stake2Price.sol\":1519:1561  _owner == msg.sender||_owner == msg.sender */\n      dup1\n      tag_284\n      jumpi\n      pop\n        /* \"contracts/ymii/stake2Price.sol\":1551:1561  msg.sender */\n      caller\n        /* \"contracts/ymii/stake2Price.sol\":1541:1561  _owner == msg.sender */\n      0xffffffffffffffffffffffffffffffffffffffff\n      and\n        /* \"contracts/ymii/stake2Price.sol\":1541:1547  _owner */\n      0x00\n      dup1\n      sload\n      swap1\n      0x0100\n      exp\n      swap1\n      div\n      0xffffffffffffffffffffffffffffffffffffffff\n      and\n        /* \"contracts/ymii/stake2Price.sol\":1541:1561  _owner == msg.sender */\n      0xffffffffffffffffffffffffffffffffffffffff\n      and\n      eq\n        /* \"contracts/ymii/stake2Price.sol\":1519:1561  _owner == msg.sender||_owner == msg.sender */\n    tag_284:\n        /* \"contracts/ymii/stake2Price.sol\":1511:1572  require(_owner == msg.sender||_owner == msg.sender, \"!owner\") */\n      tag_285\n      jumpi\n      mload(0x40)\n      0x08c379a000000000000000000000000000000000000000000000000000000000\n      dup2\n      mstore\n      0x04\n      add\n      tag_286\n      swap1\n      tag_177\n      jump\t// in\n    tag_286:\n      mload(0x40)\n      dup1\n      swap2\n      sub\n      swap1\n      revert\n    tag_285:\n        /* \"contracts/ymii/stake2Price.sol\":16879:16880  0 */\n      0x00\n        /* \"contracts/ymii/stake2Price.sol\":16854:16864  _userStake */\n      0x0d\n        /* \"contracts/ymii/stake2Price.sol\":16854:16876  _userStake[msg.sender] */\n      0x00\n        /* \"contracts/ymii/stake2Price.sol\":16865:16875  msg.sender */\n      caller\n        /* \"contracts/ymii/stake2Price.sol\":16854:16876  _userStake[msg.sender] */\n      0xffffffffffffffffffffffffffffffffffffffff\n      and\n      0xffffffffffffffffffffffffffffffffffffffff\n      and\n      dup2\n      mstore\n      0x20\n      add\n      swap1\n      dup2\n      mstore\n      0x20\n      add\n      0x00\n      keccak256\n      sload\n        /* \"contracts/ymii/stake2Price.sol\":16854:16880  _userStake[msg.sender] > 0 */\n      gt\n        /* \"contracts/ymii/stake2Price.sol\":16846:16894  require(_userStake[msg.sender] > 0, \"not stake\") */\n      tag_288\n      jumpi\n      mload(0x40)\n      0x08c379a000000000000000000000000000000000000000000000000000000000\n      dup2\n      mstore\n      0x04\n      add\n      tag_289\n      swap1\n      tag_290\n      jump\t// in\n    tag_289:\n      mload(0x40)\n      dup1\n      swap2\n      sub\n      swap1\n      revert\n    tag_288:\n        /* \"contracts/ymii/stake2Price.sol\":16911:16922  _stakeToken */\n      0x02\n      0x00\n      swap1\n      sload\n      swap1\n      0x0100\n      exp\n      swap1\n      div\n      0xffffffffffffffffffffffffffffffffffffffff\n      and\n        /* \"contracts/ymii/stake2Price.sol\":16904:16932  IERC20(_stakeToken).transfer */\n      0xffffffffffffffffffffffffffffffffffffffff\n      and\n      0xa9059cbb\n        /* \"contracts/ymii/stake2Price.sol\":16933:16943  msg.sender */\n      caller\n        /* \"contracts/ymii/stake2Price.sol\":16945:16951  amount */\n      dup4\n        /* \"contracts/ymii/stake2Price.sol\":16904:16952  IERC20(_stakeToken).transfer(msg.sender, amount) */\n      mload(0x40)\n      dup4\n      0xffffffff\n      and\n      0xe0\n      shl\n      dup2\n      mstore\n      0x04\n      add\n      tag_291\n      swap3\n      swap2\n      swap1\n      tag_292\n      jump\t// in\n    tag_291:\n      0x20\n      mload(0x40)\n      dup1\n      dup4\n      sub\n      dup2\n      0x00\n      dup8\n      gas\n      call\n      iszero\n      dup1\n      iszero\n      tag_294\n      jumpi\n      returndatasize\n      0x00\n      dup1\n      returndatacopy\n      revert(0x00, returndatasize)\n    tag_294:\n      pop\n      pop\n      pop\n      pop\n      mload(0x40)\n      returndatasize\n      not(0x1f)\n      0x1f\n      dup3\n      add\n      and\n      dup3\n      add\n      dup1\n      0x40\n      mstore\n      pop\n      dup2\n      add\n      swap1\n      tag_295\n      swap2\n      swap1\n      tag_270\n      jump\t// in\n    tag_295:\n      pop\n        /* \"contracts/ymii/stake2Price.sol\":16987:16988  0 */\n      0x00\n        /* \"contracts/ymii/stake2Price.sol\":16962:16972  _userStake */\n      0x0d\n        /* \"contracts/ymii/stake2Price.sol\":16962:16984  _userStake[msg.sender] */\n      0x00\n        /* \"contracts/ymii/stake2Price.sol\":16973:16983  msg.sender */\n      caller\n        /* \"contracts/ymii/stake2Price.sol\":16962:16984  _userStake[msg.sender] */\n      0xffffffffffffffffffffffffffffffffffffffff\n      and\n      0xffffffffffffffffffffffffffffffffffffffff\n      and\n      dup2\n      mstore\n      0x20\n      add\n      swap1\n      dup2\n      mstore\n      0x20\n      add\n      0x00\n      keccak256\n        /* \"contracts/ymii/stake2Price.sol\":16962:16988  _userStake[msg.sender] = 0 */\n      dup2\n      swap1\n      sstore\n      pop\n        /* \"contracts/ymii/stake2Price.sol\":17032:17033  0 */\n      0x00\n        /* \"contracts/ymii/stake2Price.sol\":16998:17017  _userStakeStartTime */\n      0x0f\n        /* \"contracts/ymii/stake2Price.sol\":16998:17029  _userStakeStartTime[msg.sender] */\n      0x00\n        /* \"contracts/ymii/stake2Price.sol\":17018:17028  msg.sender */\n      caller\n        /* \"contracts/ymii/stake2Price.sol\":16998:17029  _userStakeStartTime[msg.sender] */\n      0xffffffffffffffffffffffffffffffffffffffff\n      and\n      0xffffffffffffffffffffffffffffffffffffffff\n      and\n      dup2\n      mstore\n      0x20\n      add\n      swap1\n      dup2\n      mstore\n      0x20\n      add\n      0x00\n      keccak256\n        /* \"contracts/ymii/stake2Price.sol\":16998:17033  _userStakeStartTime[msg.sender] = 0 */\n      dup2\n      swap1\n      sstore\n      pop\n        /* \"contracts/ymii/stake2Price.sol\":17075:17076  0 */\n      0x00\n        /* \"contracts/ymii/stake2Price.sol\":17043:17060  _userEndClaimTime */\n      0x11\n        /* \"contracts/ymii/stake2Price.sol\":17043:17072  _userEndClaimTime[msg.sender] */\n      0x00\n        /* \"contracts/ymii/stake2Price.sol\":17061:17071  msg.sender */\n      caller\n        /* \"contracts/ymii/stake2Price.sol\":17043:17072  _userEndClaimTime[msg.sender] */\n      0xffffffffffffffffffffffffffffffffffffffff\n      and\n      0xffffffffffffffffffffffffffffffffffffffff\n      and\n      dup2\n      mstore\n      0x20\n      add\n      swap1\n      dup2\n      mstore\n      0x20\n      add\n      0x00\n      keccak256\n        /* \"contracts/ymii/stake2Price.sol\":17043:17076  _userEndClaimTime[msg.sender] = 0 */\n      dup2\n      swap1\n      sstore\n      pop\n        /* \"contracts/ymii/stake2Price.sol\":17115:17116  0 */\n      0x00\n        /* \"contracts/ymii/stake2Price.sol\":17086:17100  _userStakeTime */\n      0x0e\n        /* \"contracts/ymii/stake2Price.sol\":17086:17112  _userStakeTime[msg.sender] */\n      0x00\n        /* \"contracts/ymii/stake2Price.sol\":17101:17111  msg.sender */\n      caller\n        /* \"contracts/ymii/stake2Price.sol\":17086:17112  _userStakeTime[msg.sender] */\n      0xffffffffffffffffffffffffffffffffffffffff\n      and\n      0xffffffffffffffffffffffffffffffffffffffff\n      and\n      dup2\n      mstore\n      0x20\n      add\n      swap1\n      dup2\n      mstore\n      0x20\n      add\n      0x00\n      keccak256\n        /* \"contracts/ymii/stake2Price.sol\":17086:17116  _userStakeTime[msg.sender] = 0 */\n      dup2\n      swap1\n      sstore\n      pop\n        /* \"contracts/ymii/stake2Price.sol\":17151:17152  0 */\n      0x00\n        /* \"contracts/ymii/stake2Price.sol\":17126:17136  _userPower */\n      0x12\n        /* \"contracts/ymii/stake2Price.sol\":17126:17148  _userPower[msg.sender] */\n      0x00\n        /* \"contracts/ymii/stake2Price.sol\":17137:17147  msg.sender */\n      caller\n        /* \"contracts/ymii/stake2Price.sol\":17126:17148  _userPower[msg.sender] */\n      0xffffffffffffffffffffffffffffffffffffffff\n      and\n      0xffffffffffffffffffffffffffffffffffffffff\n      and\n      dup2\n      mstore\n      0x20\n      add\n      swap1\n      dup2\n      mstore\n      0x20\n      add\n      0x00\n      keccak256\n        /* \"contracts/ymii/stake2Price.sol\":17126:17152  _userPower[msg.sender] = 0 */\n      dup2\n      swap1\n      sstore\n      pop\n        /* \"contracts/ymii/stake2Price.sol\":16773:17159  function cancalStackOver(uint256 amount) public onlyOwner{      ... */\n      pop\n      jump\t// out\n        /* \"contracts/ymii/stake2Price.sol\":9500:9545  mapping(address => uint256) public _userStake */\n    tag_127:\n      mstore(0x20, 0x0d)\n      dup1\n      0x00\n      mstore\n      keccak256(0x00, 0x40)\n      0x00\n      swap2\n      pop\n      swap1\n      pop\n      sload\n      dup2\n      jump\t// out\n        /* \"contracts/ymii/stake2Price.sol\":14298:14827  function claimStakeReward() public {... */\n    tag_130:\n        /* \"contracts/ymii/stake2Price.sol\":14351:14363  isClaimStart */\n      0x0c\n      0x01\n      swap1\n      sload\n      swap1\n      0x0100\n      exp\n      swap1\n      div\n      0xff\n      and\n        /* \"contracts/ymii/stake2Price.sol\":14343:14377  require(isClaimStart, \"not start\") */\n      tag_297\n      jumpi\n      mload(0x40)\n      0x08c379a000000000000000000000000000000000000000000000000000000000\n      dup2\n      mstore\n      0x04\n      add\n      tag_298\n      swap1\n      tag_215\n      jump\t// in\n    tag_298:\n      mload(0x40)\n      dup1\n      swap2\n      sub\n      swap1\n      revert\n    tag_297:\n        /* \"contracts/ymii/stake2Price.sol\":14420:14421  0 */\n      0x00\n        /* \"contracts/ymii/stake2Price.sol\":14395:14405  _userStake */\n      0x0d\n        /* \"contracts/ymii/stake2Price.sol\":14395:14417  _userStake[msg.sender] */\n      0x00\n        /* \"contracts/ymii/stake2Price.sol\":14406:14416  msg.sender */\n      caller\n        /* \"contracts/ymii/stake2Price.sol\":14395:14417  _userStake[msg.sender] */\n      0xffffffffffffffffffffffffffffffffffffffff\n      and\n      0xffffffffffffffffffffffffffffffffffffffff\n      and\n      dup2\n      mstore\n      0x20\n      add\n      swap1\n      dup2\n      mstore\n      0x20\n      add\n      0x00\n      keccak256\n      sload\n        /* \"contracts/ymii/stake2Price.sol\":14395:14421  _userStake[msg.sender] > 0 */\n      gt\n        /* \"contracts/ymii/stake2Price.sol\":14387:14435  require(_userStake[msg.sender] > 0, \"not stake\") */\n      tag_299\n      jumpi\n      mload(0x40)\n      0x08c379a000000000000000000000000000000000000000000000000000000000\n      dup2\n      mstore\n      0x04\n      add\n      tag_300\n      swap1\n      tag_290\n      jump\t// in\n    tag_300:\n      mload(0x40)\n      dup1\n      swap2\n      sub\n      swap1\n      revert\n    tag_299:\n        /* \"contracts/ymii/stake2Price.sol\":14454:14468  _userBlacklist */\n      0x13\n        /* \"contracts/ymii/stake2Price.sol\":14454:14480  _userBlacklist[msg.sender] */\n      0x00\n        /* \"contracts/ymii/stake2Price.sol\":14469:14479  msg.sender */\n      caller\n        /* \"contracts/ymii/stake2Price.sol\":14454:14480  _userBlacklist[msg.sender] */\n      0xffffffffffffffffffffffffffffffffffffffff\n      and\n      0xffffffffffffffffffffffffffffffffffffffff\n      and\n      dup2\n      mstore\n      0x20\n      add\n      swap1\n      dup2\n      mstore\n      0x20\n      add\n      0x00\n      keccak256\n      0x00\n      swap1\n      sload\n      swap1\n      0x0100\n      exp\n      swap1\n      div\n      0xff\n      and\n        /* \"contracts/ymii/stake2Price.sol\":14453:14480  !_userBlacklist[msg.sender] */\n      iszero\n        /* \"contracts/ymii/stake2Price.sol\":14445:14505  require(!_userBlacklist[msg.sender], \"user is in blacklist\") */\n      tag_301\n      jumpi\n      mload(0x40)\n      0x08c379a000000000000000000000000000000000000000000000000000000000\n      dup2\n      mstore\n      0x04\n      add\n      tag_302\n      swap1\n      tag_303\n      jump\t// in\n    tag_302:\n      mload(0x40)\n      dup1\n      swap2\n      sub\n      swap1\n      revert\n    tag_301:\n        /* \"contracts/ymii/stake2Price.sol\":14569:14584  block.timestamp */\n      timestamp\n        /* \"contracts/ymii/stake2Price.sol\":14536:14554  _userLastClaimTime */\n      0x10\n        /* \"contracts/ymii/stake2Price.sol\":14536:14566  _userLastClaimTime[msg.sender] */\n      0x00\n        /* \"contracts/ymii/stake2Price.sol\":14555:14565  msg.sender */\n      caller\n        /* \"contracts/ymii/stake2Price.sol\":14536:14566  _userLastClaimTime[msg.sender] */\n      0xffffffffffffffffffffffffffffffffffffffff\n      and\n      0xffffffffffffffffffffffffffffffffffffffff\n      and\n      dup2\n      mstore\n      0x20\n      add\n      swap1\n      dup2\n      mstore\n      0x20\n      add\n      0x00\n      keccak256\n      sload\n        /* \"contracts/ymii/stake2Price.sol\":14536:14584  _userLastClaimTime[msg.sender] < block.timestamp */\n      lt\n        /* \"contracts/ymii/stake2Price.sol\":14515:14625  require(... */\n      tag_304\n      jumpi\n      mload(0x40)\n      0x08c379a000000000000000000000000000000000000000000000000000000000\n      dup2\n      mstore\n      0x04\n      add\n      tag_305\n      swap1\n      tag_306\n      jump\t// in\n    tag_305:\n      mload(0x40)\n      dup1\n      swap2\n      sub\n      swap1\n      revert\n    tag_304:\n        /* \"contracts/ymii/stake2Price.sol\":14635:14649  uint256 amount */\n      0x00\n        /* \"contracts/ymii/stake2Price.sol\":14652:14674  pureAmount(msg.sender) */\n      tag_307\n        /* \"contracts/ymii/stake2Price.sol\":14663:14673  msg.sender */\n      caller\n        /* \"contracts/ymii/stake2Price.sol\":14652:14662  pureAmount */\n      tag_89\n        /* \"contracts/ymii/stake2Price.sol\":14652:14674  pureAmount(msg.sender) */\n      jump\t// in\n    tag_307:\n        /* \"contracts/ymii/stake2Price.sol\":14635:14674  uint256 amount = pureAmount(msg.sender) */\n      swap1\n      pop\n        /* \"contracts/ymii/stake2Price.sol\":14746:14761  block.timestamp */\n      timestamp\n        /* \"contracts/ymii/stake2Price.sol\":14713:14731  _userLastClaimTime */\n      0x10\n        /* \"contracts/ymii/stake2Price.sol\":14713:14743  _userLastClaimTime[msg.sender] */\n      0x00\n        /* \"contracts/ymii/stake2Price.sol\":14732:14742  msg.sender */\n      caller\n        /* \"contracts/ymii/stake2Price.sol\":14713:14743  _userLastClaimTime[msg.sender] */\n      0xffffffffffffffffffffffffffffffffffffffff\n      and\n      0xffffffffffffffffffffffffffffffffffffffff\n      and\n      dup2\n      mstore\n      0x20\n      add\n      swap1\n      dup2\n      mstore\n      0x20\n      add\n      0x00\n      keccak256\n        /* \"contracts/ymii/stake2Price.sol\":14713:14761  _userLastClaimTime[msg.sender] = block.timestamp */\n      dup2\n      swap1\n      sstore\n      pop\n        /* \"contracts/ymii/stake2Price.sol\":14778:14790  _rewardToken */\n      0x01\n      0x00\n      swap1\n      sload\n      swap1\n      0x0100\n      exp\n      swap1\n      div\n      0xffffffffffffffffffffffffffffffffffffffff\n      and\n        /* \"contracts/ymii/stake2Price.sol\":14771:14800  IERC20(_rewardToken).transfer */\n      0xffffffffffffffffffffffffffffffffffffffff\n      and\n      0xa9059cbb\n        /* \"contracts/ymii/stake2Price.sol\":14801:14811  msg.sender */\n      caller\n        /* \"contracts/ymii/stake2Price.sol\":14813:14819  amount */\n      dup4\n        /* \"contracts/ymii/stake2Price.sol\":14771:14820  IERC20(_rewardToken).transfer(msg.sender, amount) */\n      mload(0x40)\n      dup4\n      0xffffffff\n      and\n      0xe0\n      shl\n      dup2\n      mstore\n      0x04\n      add\n      tag_308\n      swap3\n      swap2\n      swap1\n      tag_292\n      jump\t// in\n    tag_308:\n      0x20\n      mload(0x40)\n      dup1\n      dup4\n      sub\n      dup2\n      0x00\n      dup8\n      gas\n      call\n      iszero\n      dup1\n      iszero\n      tag_310\n      jumpi\n      returndatasize\n      0x00\n      dup1\n      returndatacopy\n      revert(0x00, returndatasize)\n    tag_310:\n      pop\n      pop\n      pop\n      pop\n      mload(0x40)\n      returndatasize\n      not(0x1f)\n      0x1f\n      dup3\n      add\n      and\n      dup3\n      add\n      dup1\n      0x40\n      mstore\n      pop\n      dup2\n      add\n      swap1\n      tag_311\n      swap2\n      swap1\n      tag_270\n      jump\t// in\n    tag_311:\n      pop\n        /* \"contracts/ymii/stake2Price.sol\":14333:14827  {... */\n      pop\n        /* \"contracts/ymii/stake2Price.sol\":14298:14827  function claimStakeReward() public {... */\n      jump\t// out\n        /* \"contracts/ymii/stake2Price.sol\":9572:9621  mapping(address => uint256) public _userStakeTime */\n    tag_133:\n      mstore(0x20, 0x0e)\n      dup1\n      0x00\n      mstore\n      keccak256(0x00, 0x40)\n      0x00\n      swap2\n      pop\n      swap1\n      pop\n      sload\n      dup2\n      jump\t// out\n        /* \"contracts/ymii/stake2Price.sol\":8930:8972  uint256 public _stake1 = 24 hours * 30 * 1 */\n    tag_136:\n      sload(0x05)\n      dup2\n      jump\t// out\n        /* \"contracts/ymii/stake2Price.sol\":10718:10865  function setStatus(bool stakeStart, bool claimStart) public onlyOwner {... */\n    tag_141:\n        /* \"contracts/ymii/stake2Price.sol\":1529:1539  msg.sender */\n      caller\n        /* \"contracts/ymii/stake2Price.sol\":1519:1539  _owner == msg.sender */\n      0xffffffffffffffffffffffffffffffffffffffff\n      and\n        /* \"contracts/ymii/stake2Price.sol\":1519:1525  _owner */\n      0x00\n      dup1\n      sload\n      swap1\n      0x0100\n      exp\n      swap1\n      div\n      0xffffffffffffffffffffffffffffffffffffffff\n      and\n        /* \"contracts/ymii/stake2Price.sol\":1519:1539  _owner == msg.sender */\n      0xffffffffffffffffffffffffffffffffffffffff\n      and\n      eq\n        /* \"contracts/ymii/stake2Price.sol\":1519:1561  _owner == msg.sender||_owner == msg.sender */\n      dup1\n      tag_313\n      jumpi\n      pop\n        /* \"contracts/ymii/stake2Price.sol\":1551:1561  msg.sender */\n      caller\n        /* \"contracts/ymii/stake2Price.sol\":1541:1561  _owner == msg.sender */\n      0xffffffffffffffffffffffffffffffffffffffff\n      and\n        /* \"contracts/ymii/stake2Price.sol\":1541:1547  _owner */\n      0x00\n      dup1\n      sload\n      swap1\n      0x0100\n      exp\n      swap1\n      div\n      0xffffffffffffffffffffffffffffffffffffffff\n      and\n        /* \"contracts/ymii/stake2Price.sol\":1541:1561  _owner == msg.sender */\n      0xffffffffffffffffffffffffffffffffffffffff\n      and\n      eq\n        /* \"contracts/ymii/stake2Price.sol\":1519:1561  _owner == msg.sender||_owner == msg.sender */\n    tag_313:\n        /* \"contracts/ymii/stake2Price.sol\":1511:1572  require(_owner == msg.sender||_owner == msg.sender, \"!owner\") */\n      tag_314\n      jumpi\n      mload(0x40)\n      0x08c379a000000000000000000000000000000000000000000000000000000000\n      dup2\n      mstore\n      0x04\n      add\n      tag_315\n      swap1\n      tag_177\n      jump\t// in\n    tag_315:\n      mload(0x40)\n      dup1\n      swap2\n      sub\n      swap1\n      revert\n    tag_314:\n        /* \"contracts/ymii/stake2Price.sol\":10813:10823  stakeStart */\n      dup2\n        /* \"contracts/ymii/stake2Price.sol\":10798:10810  isStakeStart */\n      0x0c\n      0x00\n        /* \"contracts/ymii/stake2Price.sol\":10798:10823  isStakeStart = stakeStart */\n      0x0100\n      exp\n      dup2\n      sload\n      dup2\n      0xff\n      mul\n      not\n      and\n      swap1\n      dup4\n      iszero\n      iszero\n      mul\n      or\n      swap1\n      sstore\n      pop\n        /* \"contracts/ymii/stake2Price.sol\":10848:10858  claimStart */\n      dup1\n        /* \"contracts/ymii/stake2Price.sol\":10833:10845  isClaimStart */\n      0x0c\n      0x01\n        /* \"contracts/ymii/stake2Price.sol\":10833:10858  isClaimStart = claimStart */\n      0x0100\n      exp\n      dup2\n      sload\n      dup2\n      0xff\n      mul\n      not\n      and\n      swap1\n      dup4\n      iszero\n      iszero\n      mul\n      or\n      swap1\n      sstore\n      pop\n        /* \"contracts/ymii/stake2Price.sol\":10718:10865  function setStatus(bool stakeStart, bool claimStart) public onlyOwner {... */\n      pop\n      pop\n      jump\t// out\n        /* \"contracts/ymii/stake2Price.sol\":8415:8487  address public _rewardToken = 0xf1f8e132f0a3F720b3b204D728A8ff316B182258 */\n    tag_143:\n      0x01\n      0x00\n      swap1\n      sload\n      swap1\n      0x0100\n      exp\n      swap1\n      div\n      0xffffffffffffffffffffffffffffffffffffffff\n      and\n      dup2\n      jump\t// out\n        /* \"contracts/ymii/stake2Price.sol\":13449:13711  function claimReward() public {... */\n    tag_146:\n        /* \"contracts/ymii/stake2Price.sol\":13497:13509  isClaimStart */\n      0x0c\n      0x01\n      swap1\n      sload\n      swap1\n      0x0100\n      exp\n      swap1\n      div\n      0xff\n      and\n        /* \"contracts/ymii/stake2Price.sol\":13489:13523  require(isClaimStart, \"not start\") */\n      tag_318\n      jumpi\n      mload(0x40)\n      0x08c379a000000000000000000000000000000000000000000000000000000000\n      dup2\n      mstore\n      0x04\n      add\n      tag_319\n      swap1\n      tag_215\n      jump\t// in\n    tag_319:\n      mload(0x40)\n      dup1\n      swap2\n      sub\n      swap1\n      revert\n    tag_318:\n        /* \"contracts/ymii/stake2Price.sol\":13570:13571  0 */\n      0x00\n        /* \"contracts/ymii/stake2Price.sol\":13541:13555  _inviterReward */\n      0x0a\n        /* \"contracts/ymii/stake2Price.sol\":13541:13567  _inviterReward[msg.sender] */\n      0x00\n        /* \"contracts/ymii/stake2Price.sol\":13556:13566  msg.sender */\n      caller\n        /* \"contracts/ymii/stake2Price.sol\":13541:13567  _inviterReward[msg.sender] */\n      0xffffffffffffffffffffffffffffffffffffffff\n      and\n      0xffffffffffffffffffffffffffffffffffffffff\n      and\n      dup2\n      mstore\n      0x20\n      add\n      swap1\n      dup2\n      mstore\n      0x20\n      add\n      0x00\n      keccak256\n      sload\n        /* \"contracts/ymii/stake2Price.sol\":13541:13571  _inviterReward[msg.sender] > 0 */\n      gt\n        /* \"contracts/ymii/stake2Price.sol\":13533:13585  require(_inviterReward[msg.sender] > 0, \"no reward\") */\n      tag_320\n      jumpi\n      mload(0x40)\n      0x08c379a000000000000000000000000000000000000000000000000000000000\n      dup2\n      mstore\n      0x04\n      add\n      tag_321\n      swap1\n      tag_322\n      jump\t// in\n    tag_321:\n      mload(0x40)\n      dup1\n      swap2\n      sub\n      swap1\n      revert\n    tag_320:\n        /* \"contracts/ymii/stake2Price.sol\":13602:13614  _rewardToken */\n      0x01\n      0x00\n      swap1\n      sload\n      swap1\n      0x0100\n      exp\n      swap1\n      div\n      0xffffffffffffffffffffffffffffffffffffffff\n      and\n        /* \"contracts/ymii/stake2Price.sol\":13595:13624  IERC20(_rewardToken).transfer */\n      0xffffffffffffffffffffffffffffffffffffffff\n      and\n      0xa9059cbb\n        /* \"contracts/ymii/stake2Price.sol\":13625:13635  msg.sender */\n      caller\n        /* \"contracts/ymii/stake2Price.sol\":13637:13651  _inviterReward */\n      0x0a\n        /* \"contracts/ymii/stake2Price.sol\":13637:13663  _inviterReward[msg.sender] */\n      0x00\n        /* \"contracts/ymii/stake2Price.sol\":13652:13662  msg.sender */\n      caller\n        /* \"contracts/ymii/stake2Price.sol\":13637:13663  _inviterReward[msg.sender] */\n      0xffffffffffffffffffffffffffffffffffffffff\n      and\n      0xffffffffffffffffffffffffffffffffffffffff\n      and\n      dup2\n      mstore\n      0x20\n      add\n      swap1\n      dup2\n      mstore\n      0x20\n      add\n      0x00\n      keccak256\n      sload\n        /* \"contracts/ymii/stake2Price.sol\":13595:13664  IERC20(_rewardToken).transfer(msg.sender, _inviterReward[msg.sender]) */\n      mload(0x40)\n      dup4\n      0xffffffff\n      and\n      0xe0\n      shl\n      dup2\n      mstore\n      0x04\n      add\n      tag_323\n      swap3\n      swap2\n      swap1\n      tag_292\n      jump\t// in\n    tag_323:\n      0x20\n      mload(0x40)\n      dup1\n      dup4\n      sub\n      dup2\n      0x00\n      dup8\n      gas\n      call\n      iszero\n      dup1\n      iszero\n      tag_325\n      jumpi\n      returndatasize\n      0x00\n      dup1\n      returndatacopy\n      revert(0x00, returndatasize)\n    tag_325:\n      pop\n      pop\n      pop\n      pop\n      mload(0x40)\n      returndatasize\n      not(0x1f)\n      0x1f\n      dup3\n      add\n      and\n      dup3\n      add\n      dup1\n      0x40\n      mstore\n      pop\n      dup2\n      add\n      swap1\n      tag_326\n      swap2\n      swap1\n      tag_270\n      jump\t// in\n    tag_326:\n      pop\n        /* \"contracts/ymii/stake2Price.sol\":13703:13704  0 */\n      0x00\n        /* \"contracts/ymii/stake2Price.sol\":13674:13688  _inviterReward */\n      0x0a\n        /* \"contracts/ymii/stake2Price.sol\":13674:13700  _inviterReward[msg.sender] */\n      0x00\n        /* \"contracts/ymii/stake2Price.sol\":13689:13699  msg.sender */\n      caller\n        /* \"contracts/ymii/stake2Price.sol\":13674:13700  _inviterReward[msg.sender] */\n      0xffffffffffffffffffffffffffffffffffffffff\n      and\n      0xffffffffffffffffffffffffffffffffffffffff\n      and\n      dup2\n      mstore\n      0x20\n      add\n      swap1\n      dup2\n      mstore\n      0x20\n      add\n      0x00\n      keccak256\n        /* \"contracts/ymii/stake2Price.sol\":13674:13704  _inviterReward[msg.sender] = 0 */\n      dup2\n      swap1\n      sstore\n      pop\n        /* \"contracts/ymii/stake2Price.sol\":13449:13711  function claimReward() public {... */\n      jump\t// out\n        /* \"contracts/ymii/stake2Price.sol\":9900:9945  mapping(address => uint256) public _userPower */\n    tag_149:\n      mstore(0x20, 0x12)\n      dup1\n      0x00\n      mstore\n      keccak256(0x00, 0x40)\n      0x00\n      swap2\n      pop\n      swap1\n      pop\n      sload\n      dup2\n      jump\t// out\n        /* \"contracts/ymii/stake2Price.sol\":13742:14267  function cancalStack() public {... */\n    tag_152:\n        /* \"contracts/ymii/stake2Price.sol\":13868:13882  _userStakeTime */\n      0x0e\n        /* \"contracts/ymii/stake2Price.sol\":13868:13894  _userStakeTime[msg.sender] */\n      0x00\n        /* \"contracts/ymii/stake2Price.sol\":13883:13893  msg.sender */\n      caller\n        /* \"contracts/ymii/stake2Price.sol\":13868:13894  _userStakeTime[msg.sender] */\n      0xffffffffffffffffffffffffffffffffffffffff\n      and\n      0xffffffffffffffffffffffffffffffffffffffff\n      and\n      dup2\n      mstore\n      0x20\n      add\n      swap1\n      dup2\n      mstore\n      0x20\n      add\n      0x00\n      keccak256\n      sload\n        /* \"contracts/ymii/stake2Price.sol\":13821:13840  _userStakeStartTime */\n      0x0f\n        /* \"contracts/ymii/stake2Price.sol\":13821:13852  _userStakeStartTime[msg.sender] */\n      0x00\n        /* \"contracts/ymii/stake2Price.sol\":13841:13851  msg.sender */\n      caller\n        /* \"contracts/ymii/stake2Price.sol\":13821:13852  _userStakeStartTime[msg.sender] */\n      0xffffffffffffffffffffffffffffffffffffffff\n      and\n      0xffffffffffffffffffffffffffffffffffffffff\n      and\n      dup2\n      mstore\n      0x20\n      add\n      swap1\n      dup2\n      mstore\n      0x20\n      add\n      0x00\n      keccak256\n      sload\n        /* \"contracts/ymii/stake2Price.sol\":13803:13818  block.timestamp */\n      timestamp\n        /* \"contracts/ymii/stake2Price.sol\":13803:13852  block.timestamp - _userStakeStartTime[msg.sender] */\n      tag_328\n      swap2\n      swap1\n      tag_187\n      jump\t// in\n    tag_328:\n        /* \"contracts/ymii/stake2Price.sol\":13803:13894  block.timestamp - _userStakeStartTime[msg.sender] >=... */\n      lt\n      iszero\n        /* \"contracts/ymii/stake2Price.sol\":13782:13928  require(... */\n      tag_329\n      jumpi\n      mload(0x40)\n      0x08c379a000000000000000000000000000000000000000000000000000000000\n      dup2\n      mstore\n      0x04\n      add\n      tag_330\n      swap1\n      tag_331\n      jump\t// in\n    tag_330:\n      mload(0x40)\n      dup1\n      swap2\n      sub\n      swap1\n      revert\n    tag_329:\n        /* \"contracts/ymii/stake2Price.sol\":13971:13972  0 */\n      0x00\n        /* \"contracts/ymii/stake2Price.sol\":13946:13956  _userStake */\n      0x0d\n        /* \"contracts/ymii/stake2Price.sol\":13946:13968  _userStake[msg.sender] */\n      0x00\n        /* \"contracts/ymii/stake2Price.sol\":13957:13967  msg.sender */\n      caller\n        /* \"contracts/ymii/stake2Price.sol\":13946:13968  _userStake[msg.sender] */\n      0xffffffffffffffffffffffffffffffffffffffff\n      and\n      0xffffffffffffffffffffffffffffffffffffffff\n      and\n      dup2\n      mstore\n      0x20\n      add\n      swap1\n      dup2\n      mstore\n      0x20\n      add\n      0x00\n      keccak256\n      sload\n        /* \"contracts/ymii/stake2Price.sol\":13946:13972  _userStake[msg.sender] > 0 */\n      gt\n        /* \"contracts/ymii/stake2Price.sol\":13938:13986  require(_userStake[msg.sender] > 0, \"not stake\") */\n      tag_332\n      jumpi\n      mload(0x40)\n      0x08c379a000000000000000000000000000000000000000000000000000000000\n      dup2\n      mstore\n      0x04\n      add\n      tag_333\n      swap1\n      tag_290\n      jump\t// in\n    tag_333:\n      mload(0x40)\n      dup1\n      swap2\n      sub\n      swap1\n      revert\n    tag_332:\n        /* \"contracts/ymii/stake2Price.sol\":14003:14014  _stakeToken */\n      0x02\n      0x00\n      swap1\n      sload\n      swap1\n      0x0100\n      exp\n      swap1\n      div\n      0xffffffffffffffffffffffffffffffffffffffff\n      and\n        /* \"contracts/ymii/stake2Price.sol\":13996:14024  IERC20(_stakeToken).transfer */\n      0xffffffffffffffffffffffffffffffffffffffff\n      and\n      0xa9059cbb\n        /* \"contracts/ymii/stake2Price.sol\":14025:14035  msg.sender */\n      caller\n        /* \"contracts/ymii/stake2Price.sol\":14037:14047  _userStake */\n      0x0d\n        /* \"contracts/ymii/stake2Price.sol\":14037:14059  _userStake[msg.sender] */\n      0x00\n        /* \"contracts/ymii/stake2Price.sol\":14048:14058  msg.sender */\n      caller\n        /* \"contracts/ymii/stake2Price.sol\":14037:14059  _userStake[msg.sender] */\n      0xffffffffffffffffffffffffffffffffffffffff\n      and\n      0xffffffffffffffffffffffffffffffffffffffff\n      and\n      dup2\n      mstore\n      0x20\n      add\n      swap1\n      dup2\n      mstore\n      0x20\n      add\n      0x00\n      keccak256\n      sload\n        /* \"contracts/ymii/stake2Price.sol\":13996:14060  IERC20(_stakeToken).transfer(msg.sender, _userStake[msg.sender]) */\n      mload(0x40)\n      dup4\n      0xffffffff\n      and\n      0xe0\n      shl\n      dup2\n      mstore\n      0x04\n      add\n      tag_334\n      swap3\n      swap2\n      swap1\n      tag_292\n      jump\t// in\n    tag_334:\n      0x20\n      mload(0x40)\n      dup1\n      dup4\n      sub\n      dup2\n      0x00\n      dup8\n      gas\n      call\n      iszero\n      dup1\n      iszero\n      tag_336\n      jumpi\n      returndatasize\n      0x00\n      dup1\n      returndatacopy\n      revert(0x00, returndatasize)\n    tag_336:\n      pop\n      pop\n      pop\n      pop\n      mload(0x40)\n      returndatasize\n      not(0x1f)\n      0x1f\n      dup3\n      add\n      and\n      dup3\n      add\n      dup1\n      0x40\n      mstore\n      pop\n      dup2\n      add\n      swap1\n      tag_337\n      swap2\n      swap1\n      tag_270\n      jump\t// in\n    tag_337:\n      pop\n        /* \"contracts/ymii/stake2Price.sol\":14095:14096  0 */\n      0x00\n        /* \"contracts/ymii/stake2Price.sol\":14070:14080  _userStake */\n      0x0d\n        /* \"contracts/ymii/stake2Price.sol\":14070:14092  _userStake[msg.sender] */\n      0x00\n        /* \"contracts/ymii/stake2Price.sol\":14081:14091  msg.sender */\n      caller\n        /* \"contracts/ymii/stake2Price.sol\":14070:14092  _userStake[msg.sender] */\n      0xffffffffffffffffffffffffffffffffffffffff\n      and\n      0xffffffffffffffffffffffffffffffffffffffff\n      and\n      dup2\n      mstore\n      0x20\n      add\n      swap1\n      dup2\n      mstore\n      0x20\n      add\n      0x00\n      keccak256\n        /* \"contracts/ymii/stake2Price.sol\":14070:14096  _userStake[msg.sender] = 0 */\n      dup2\n      swap1\n      sstore\n      pop\n        /* \"contracts/ymii/stake2Price.sol\":14140:14141  0 */\n      0x00\n        /* \"contracts/ymii/stake2Price.sol\":14106:14125  _userStakeStartTime */\n      0x0f\n        /* \"contracts/ymii/stake2Price.sol\":14106:14137  _userStakeStartTime[msg.sender] */\n      0x00\n        /* \"contracts/ymii/stake2Price.sol\":14126:14136  msg.sender */\n      caller\n        /* \"contracts/ymii/stake2Price.sol\":14106:14137  _userStakeStartTime[msg.sender] */\n      0xffffffffffffffffffffffffffffffffffffffff\n      and\n      0xffffffffffffffffffffffffffffffffffffffff\n      and\n      dup2\n      mstore\n      0x20\n      add\n      swap1\n      dup2\n      mstore\n      0x20\n      add\n      0x00\n      keccak256\n        /* \"contracts/ymii/stake2Price.sol\":14106:14141  _userStakeStartTime[msg.sender] = 0 */\n      dup2\n      swap1\n      sstore\n      pop\n        /* \"contracts/ymii/stake2Price.sol\":14183:14184  0 */\n      0x00\n        /* \"contracts/ymii/stake2Price.sol\":14151:14168  _userEndClaimTime */\n      0x11\n        /* \"contracts/ymii/stake2Price.sol\":14151:14180  _userEndClaimTime[msg.sender] */\n      0x00\n        /* \"contracts/ymii/stake2Price.sol\":14169:14179  msg.sender */\n      caller\n        /* \"contracts/ymii/stake2Price.sol\":14151:14180  _userEndClaimTime[msg.sender] */\n      0xffffffffffffffffffffffffffffffffffffffff\n      and\n      0xffffffffffffffffffffffffffffffffffffffff\n      and\n      dup2\n      mstore\n      0x20\n      add\n      swap1\n      dup2\n      mstore\n      0x20\n      add\n      0x00\n      keccak256\n        /* \"contracts/ymii/stake2Price.sol\":14151:14184  _userEndClaimTime[msg.sender] = 0 */\n      dup2\n      swap1\n      sstore\n      pop\n        /* \"contracts/ymii/stake2Price.sol\":14223:14224  0 */\n      0x00\n        /* \"contracts/ymii/stake2Price.sol\":14194:14208  _userStakeTime */\n      0x0e\n        /* \"contracts/ymii/stake2Price.sol\":14194:14220  _userStakeTime[msg.sender] */\n      0x00\n        /* \"contracts/ymii/stake2Price.sol\":14209:14219  msg.sender */\n      caller\n        /* \"contracts/ymii/stake2Price.sol\":14194:14220  _userStakeTime[msg.sender] */\n      0xffffffffffffffffffffffffffffffffffffffff\n      and\n      0xffffffffffffffffffffffffffffffffffffffff\n      and\n      dup2\n      mstore\n      0x20\n      add\n      swap1\n      dup2\n      mstore\n      0x20\n      add\n      0x00\n      keccak256\n        /* \"contracts/ymii/stake2Price.sol\":14194:14224  _userStakeTime[msg.sender] = 0 */\n      dup2\n      swap1\n      sstore\n      pop\n        /* \"contracts/ymii/stake2Price.sol\":14259:14260  0 */\n      0x00\n        /* \"contracts/ymii/stake2Price.sol\":14234:14244  _userPower */\n      0x12\n        /* \"contracts/ymii/stake2Price.sol\":14234:14256  _userPower[msg.sender] */\n      0x00\n        /* \"contracts/ymii/stake2Price.sol\":14245:14255  msg.sender */\n      caller\n        /* \"contracts/ymii/stake2Price.sol\":14234:14256  _userPower[msg.sender] */\n      0xffffffffffffffffffffffffffffffffffffffff\n      and\n      0xffffffffffffffffffffffffffffffffffffffff\n      and\n      dup2\n      mstore\n      0x20\n      add\n      swap1\n      dup2\n      mstore\n      0x20\n      add\n      0x00\n      keccak256\n        /* \"contracts/ymii/stake2Price.sol\":14234:14260  _userPower[msg.sender] = 0 */\n      dup2\n      swap1\n      sstore\n      pop\n        /* \"contracts/ymii/stake2Price.sol\":13742:14267  function cancalStack() public {... */\n      jump\t// out\n        /* \"contracts/ymii/stake2Price.sol\":9237:9286  mapping(address => uint256) public _inviterReward */\n    tag_155:\n      mstore(0x20, 0x0a)\n      dup1\n      0x00\n      mstore\n      keccak256(0x00, 0x40)\n      0x00\n      swap2\n      pop\n      swap1\n      pop\n      sload\n      dup2\n      jump\t// out\n        /* \"contracts/ymii/stake2Price.sol\":8600:8673  address public _lpPriceToken = 0xB1bF470A9720F8d2E49512DbbcCf7180e4Ac4679 */\n    tag_158:\n      0x03\n      0x00\n      swap1\n      sload\n      swap1\n      0x0100\n      exp\n      swap1\n      div\n      0xffffffffffffffffffffffffffffffffffffffff\n      and\n      dup2\n      jump\t// out\n        /* \"contracts/ymii/stake2Price.sol\":16085:16603  function ownerSetUser(... */\n    tag_163:\n        /* \"contracts/ymii/stake2Price.sol\":1529:1539  msg.sender */\n      caller\n        /* \"contracts/ymii/stake2Price.sol\":1519:1539  _owner == msg.sender */\n      0xffffffffffffffffffffffffffffffffffffffff\n      and\n        /* \"contracts/ymii/stake2Price.sol\":1519:1525  _owner */\n      0x00\n      dup1\n      sload\n      swap1\n      0x0100\n      exp\n      swap1\n      div\n      0xffffffffffffffffffffffffffffffffffffffff\n      and\n        /* \"contracts/ymii/stake2Price.sol\":1519:1539  _owner == msg.sender */\n      0xffffffffffffffffffffffffffffffffffffffff\n      and\n      eq\n        /* \"contracts/ymii/stake2Price.sol\":1519:1561  _owner == msg.sender||_owner == msg.sender */\n      dup1\n      tag_339\n      jumpi\n      pop\n        /* \"contracts/ymii/stake2Price.sol\":1551:1561  msg.sender */\n      caller\n        /* \"contracts/ymii/stake2Price.sol\":1541:1561  _owner == msg.sender */\n      0xffffffffffffffffffffffffffffffffffffffff\n      and\n        /* \"contracts/ymii/stake2Price.sol\":1541:1547  _owner */\n      0x00\n      dup1\n      sload\n      swap1\n      0x0100\n      exp\n      swap1\n      div\n      0xffffffffffffffffffffffffffffffffffffffff\n      and\n        /* \"contracts/ymii/stake2Price.sol\":1541:1561  _owner == msg.sender */\n      0xffffffffffffffffffffffffffffffffffffffff\n      and\n      eq\n        /* \"contracts/ymii/stake2Price.sol\":1519:1561  _owner == msg.sender||_owner == msg.sender */\n    tag_339:\n        /* \"contracts/ymii/stake2Price.sol\":1511:1572  require(_owner == msg.sender||_owner == msg.sender, \"!owner\") */\n      tag_340\n      jumpi\n      mload(0x40)\n      0x08c379a000000000000000000000000000000000000000000000000000000000\n      dup2\n      mstore\n      0x04\n      add\n      tag_341\n      swap1\n      tag_177\n      jump\t// in\n    tag_341:\n      mload(0x40)\n      dup1\n      swap2\n      sub\n      swap1\n      revert\n    tag_340:\n        /* \"contracts/ymii/stake2Price.sol\":16356:16362  amount */\n      dup6\n        /* \"contracts/ymii/stake2Price.sol\":16337:16347  _userStake */\n      0x0d\n        /* \"contracts/ymii/stake2Price.sol\":16337:16353  _userStake[user] */\n      0x00\n        /* \"contracts/ymii/stake2Price.sol\":16348:16352  user */\n      dup10\n        /* \"contracts/ymii/stake2Price.sol\":16337:16353  _userStake[user] */\n      0xffffffffffffffffffffffffffffffffffffffff\n      and\n      0xffffffffffffffffffffffffffffffffffffffff\n      and\n      dup2\n      mstore\n      0x20\n      add\n      swap1\n      dup2\n      mstore\n      0x20\n      add\n      0x00\n      keccak256\n        /* \"contracts/ymii/stake2Price.sol\":16337:16362  _userStake[user] = amount */\n      dup2\n      swap1\n      sstore\n      pop\n        /* \"contracts/ymii/stake2Price.sol\":16395:16404  stakeTime */\n      dup5\n        /* \"contracts/ymii/stake2Price.sol\":16372:16386  _userStakeTime */\n      0x0e\n        /* \"contracts/ymii/stake2Price.sol\":16372:16392  _userStakeTime[user] */\n      0x00\n        /* \"contracts/ymii/stake2Price.sol\":16387:16391  user */\n      dup10\n        /* \"contracts/ymii/stake2Price.sol\":16372:16392  _userStakeTime[user] */\n      0xffffffffffffffffffffffffffffffffffffffff\n      and\n      0xffffffffffffffffffffffffffffffffffffffff\n      and\n      dup2\n      mstore\n      0x20\n      add\n      swap1\n      dup2\n      mstore\n      0x20\n      add\n      0x00\n      keccak256\n        /* \"contracts/ymii/stake2Price.sol\":16372:16404  _userStakeTime[user] = stakeTime */\n      dup2\n      swap1\n      sstore\n      pop\n        /* \"contracts/ymii/stake2Price.sol\":16442:16456  stakeStartTime */\n      dup4\n        /* \"contracts/ymii/stake2Price.sol\":16414:16433  _userStakeStartTime */\n      0x0f\n        /* \"contracts/ymii/stake2Price.sol\":16414:16439  _userStakeStartTime[user] */\n      0x00\n        /* \"contracts/ymii/stake2Price.sol\":16434:16438  user */\n      dup10\n        /* \"contracts/ymii/stake2Price.sol\":16414:16439  _userStakeStartTime[user] */\n      0xffffffffffffffffffffffffffffffffffffffff\n      and\n      0xffffffffffffffffffffffffffffffffffffffff\n      and\n      dup2\n      mstore\n      0x20\n      add\n      swap1\n      dup2\n      mstore\n      0x20\n      add\n      0x00\n      keccak256\n        /* \"contracts/ymii/stake2Price.sol\":16414:16456  _userStakeStartTime[user] = stakeStartTime */\n      dup2\n      swap1\n      sstore\n      pop\n        /* \"contracts/ymii/stake2Price.sol\":16493:16506  userLastClaim */\n      dup3\n        /* \"contracts/ymii/stake2Price.sol\":16466:16484  _userLastClaimTime */\n      0x10\n        /* \"contracts/ymii/stake2Price.sol\":16466:16490  _userLastClaimTime[user] */\n      0x00\n        /* \"contracts/ymii/stake2Price.sol\":16485:16489  user */\n      dup10\n        /* \"contracts/ymii/stake2Price.sol\":16466:16490  _userLastClaimTime[user] */\n      0xffffffffffffffffffffffffffffffffffffffff\n      and\n      0xffffffffffffffffffffffffffffffffffffffff\n      and\n      dup2\n      mstore\n      0x20\n      add\n      swap1\n      dup2\n      mstore\n      0x20\n      add\n      0x00\n      keccak256\n        /* \"contracts/ymii/stake2Price.sol\":16466:16506  _userLastClaimTime[user] = userLastClaim */\n      dup2\n      swap1\n      sstore\n      pop\n        /* \"contracts/ymii/stake2Price.sol\":16535:16544  userPower */\n      dup2\n        /* \"contracts/ymii/stake2Price.sol\":16516:16526  _userPower */\n      0x12\n        /* \"contracts/ymii/stake2Price.sol\":16516:16532  _userPower[user] */\n      0x00\n        /* \"contracts/ymii/stake2Price.sol\":16527:16531  user */\n      dup10\n        /* \"contracts/ymii/stake2Price.sol\":16516:16532  _userPower[user] */\n      0xffffffffffffffffffffffffffffffffffffffff\n      and\n      0xffffffffffffffffffffffffffffffffffffffff\n      and\n      dup2\n      mstore\n      0x20\n      add\n      swap1\n      dup2\n      mstore\n      0x20\n      add\n      0x00\n      keccak256\n        /* \"contracts/ymii/stake2Price.sol\":16516:16544  _userPower[user] = userPower */\n      dup2\n      swap1\n      sstore\n      pop\n        /* \"contracts/ymii/stake2Price.sol\":16580:16596  userEndClaimTime */\n      dup1\n        /* \"contracts/ymii/stake2Price.sol\":16554:16571  _userEndClaimTime */\n      0x11\n        /* \"contracts/ymii/stake2Price.sol\":16554:16577  _userEndClaimTime[user] */\n      0x00\n        /* \"contracts/ymii/stake2Price.sol\":16572:16576  user */\n      dup10\n        /* \"contracts/ymii/stake2Price.sol\":16554:16577  _userEndClaimTime[user] */\n      0xffffffffffffffffffffffffffffffffffffffff\n      and\n      0xffffffffffffffffffffffffffffffffffffffff\n      and\n      dup2\n      mstore\n      0x20\n      add\n      swap1\n      dup2\n      mstore\n      0x20\n      add\n      0x00\n      keccak256\n        /* \"contracts/ymii/stake2Price.sol\":16554:16596  _userEndClaimTime[user] = userEndClaimTime */\n      dup2\n      swap1\n      sstore\n      pop\n        /* \"contracts/ymii/stake2Price.sol\":16085:16603  function ownerSetUser(... */\n      pop\n      pop\n      pop\n      pop\n      pop\n      pop\n      pop\n      jump\t// out\n        /* \"contracts/ymii/stake2Price.sol\":9435:9466  bool public isClaimStart = true */\n    tag_165:\n      0x0c\n      0x01\n      swap1\n      sload\n      swap1\n      0x0100\n      exp\n      swap1\n      div\n      0xff\n      and\n      dup2\n      jump\t// out\n        /* \"contracts/ymii/stake2Price.sol\":1596:1806  function transferOwnership(address newOwner) public virtual onlyOwner {... */\n    tag_169:\n        /* \"contracts/ymii/stake2Price.sol\":1529:1539  msg.sender */\n      caller\n        /* \"contracts/ymii/stake2Price.sol\":1519:1539  _owner == msg.sender */\n      0xffffffffffffffffffffffffffffffffffffffff\n      and\n        /* \"contracts/ymii/stake2Price.sol\":1519:1525  _owner */\n      0x00\n      dup1\n      sload\n      swap1\n      0x0100\n      exp\n      swap1\n      div\n      0xffffffffffffffffffffffffffffffffffffffff\n      and\n        /* \"contracts/ymii/stake2Price.sol\":1519:1539  _owner == msg.sender */\n      0xffffffffffffffffffffffffffffffffffffffff\n      and\n      eq\n        /* \"contracts/ymii/stake2Price.sol\":1519:1561  _owner == msg.sender||_owner == msg.sender */\n      dup1\n      tag_344\n      jumpi\n      pop\n        /* \"contracts/ymii/stake2Price.sol\":1551:1561  msg.sender */\n      caller\n        /* \"contracts/ymii/stake2Price.sol\":1541:1561  _owner == msg.sender */\n      0xffffffffffffffffffffffffffffffffffffffff\n      and\n        /* \"contracts/ymii/stake2Price.sol\":1541:1547  _owner */\n      0x00\n      dup1\n      sload\n      swap1\n      0x0100\n      exp\n      swap1\n      div\n      0xffffffffffffffffffffffffffffffffffffffff\n      and\n        /* \"contracts/ymii/stake2Price.sol\":1541:1561  _owner == msg.sender */\n      0xffffffffffffffffffffffffffffffffffffffff\n      and\n      eq\n        /* \"contracts/ymii/stake2Price.sol\":1519:1561  _owner == msg.sender||_owner == msg.sender */\n    tag_344:\n        /* \"contracts/ymii/stake2Price.sol\":1511:1572  require(_owner == msg.sender||_owner == msg.sender, \"!owner\") */\n      tag_345\n      jumpi\n      mload(0x40)\n      0x08c379a000000000000000000000000000000000000000000000000000000000\n      dup2\n      mstore\n      0x04\n      add\n      tag_346\n      swap1\n      tag_177\n      jump\t// in\n    tag_346:\n      mload(0x40)\n      dup1\n      swap2\n      sub\n      swap1\n      revert\n    tag_345:\n        /* \"contracts/ymii/stake2Price.sol\":1704:1705  0 */\n      0x00\n        /* \"contracts/ymii/stake2Price.sol\":1684:1706  newOwner != address(0) */\n      0xffffffffffffffffffffffffffffffffffffffff\n      and\n        /* \"contracts/ymii/stake2Price.sol\":1684:1692  newOwner */\n      dup2\n        /* \"contracts/ymii/stake2Price.sol\":1684:1706  newOwner != address(0) */\n      0xffffffffffffffffffffffffffffffffffffffff\n      and\n      sub\n        /* \"contracts/ymii/stake2Price.sol\":1676:1719  require(newOwner != address(0), \"new is 0\") */\n      tag_348\n      jumpi\n      mload(0x40)\n      0x08c379a000000000000000000000000000000000000000000000000000000000\n      dup2\n      mstore\n      0x04\n      add\n      tag_349\n      swap1\n      tag_350\n      jump\t// in\n    tag_349:\n      mload(0x40)\n      dup1\n      swap2\n      sub\n      swap1\n      revert\n    tag_348:\n        /* \"contracts/ymii/stake2Price.sol\":1763:1771  newOwner */\n      dup1\n        /* \"contracts/ymii/stake2Price.sol\":1734:1772  OwnershipTransferred(_owner, newOwner) */\n      0xffffffffffffffffffffffffffffffffffffffff\n      and\n        /* \"contracts/ymii/stake2Price.sol\":1755:1761  _owner */\n      0x00\n      dup1\n      sload\n      swap1\n      0x0100\n      exp\n      swap1\n      div\n      0xffffffffffffffffffffffffffffffffffffffff\n      and\n        /* \"contracts/ymii/stake2Price.sol\":1734:1772  OwnershipTransferred(_owner, newOwner) */\n      0xffffffffffffffffffffffffffffffffffffffff\n      and\n      0x8be0079c531659141344cd1fd0a4f28419497f9722a3daafe3b4186f6b6457e0\n      mload(0x40)\n      mload(0x40)\n      dup1\n      swap2\n      sub\n      swap1\n      log3\n        /* \"contracts/ymii/stake2Price.sol\":1791:1799  newOwner */\n      dup1\n        /* \"contracts/ymii/stake2Price.sol\":1782:1788  _owner */\n      0x00\n      dup1\n        /* \"contracts/ymii/stake2Price.sol\":1782:1799  _owner = newOwner */\n      0x0100\n      exp\n      dup2\n      sload\n      dup2\n      0xffffffffffffffffffffffffffffffffffffffff\n      mul\n      not\n      and\n      swap1\n      dup4\n      0xffffffffffffffffffffffffffffffffffffffff\n      and\n      mul\n      or\n      swap1\n      sstore\n      pop\n        /* \"contracts/ymii/stake2Price.sol\":1596:1806  function transferOwnership(address newOwner) public virtual onlyOwner {... */\n      pop\n      jump\t// out\n        /* \"contracts/ymii/stake2Price.sol\":9377:9408  bool public isStakeStart = true */\n    tag_171:\n      0x0c\n      0x00\n      swap1\n      sload\n      swap1\n      0x0100\n      exp\n      swap1\n      div\n      0xff\n      and\n      dup2\n      jump\t// out\n        /* \"contracts/ymii/stake2Price.sol\":3149:3344  function mul(uint256 a, uint256 b) internal pure returns (uint256 c) {... */\n    tag_199:\n        /* \"contracts/ymii/stake2Price.sol\":3207:3216  uint256 c */\n      0x00\n        /* \"contracts/ymii/stake2Price.sol\":3237:3238  0 */\n      dup1\n        /* \"contracts/ymii/stake2Price.sol\":3232:3233  a */\n      dup4\n        /* \"contracts/ymii/stake2Price.sol\":3232:3238  a == 0 */\n      sub\n        /* \"contracts/ymii/stake2Price.sol\":3228:3273  if (a == 0) {... */\n      tag_352\n      jumpi\n        /* \"contracts/ymii/stake2Price.sol\":3261:3262  0 */\n      0x00\n        /* \"contracts/ymii/stake2Price.sol\":3254:3262  return 0 */\n      swap1\n      pop\n      jump(tag_351)\n        /* \"contracts/ymii/stake2Price.sol\":3228:3273  if (a == 0) {... */\n    tag_352:\n        /* \"contracts/ymii/stake2Price.sol\":3290:3291  b */\n      dup2\n        /* \"contracts/ymii/stake2Price.sol\":3286:3287  a */\n      dup4\n        /* \"contracts/ymii/stake2Price.sol\":3286:3291  a * b */\n      tag_353\n      swap2\n      swap1\n      tag_257\n      jump\t// in\n    tag_353:\n        /* \"contracts/ymii/stake2Price.sol\":3282:3291  c = a * b */\n      swap1\n      pop\n        /* \"contracts/ymii/stake2Price.sol\":3317:3318  b */\n      dup2\n        /* \"contracts/ymii/stake2Price.sol\":3312:3313  a */\n      dup4\n        /* \"contracts/ymii/stake2Price.sol\":3308:3309  c */\n      dup3\n        /* \"contracts/ymii/stake2Price.sol\":3308:3313  c / a */\n      tag_354\n      swap2\n      swap1\n      tag_261\n      jump\t// in\n    tag_354:\n        /* \"contracts/ymii/stake2Price.sol\":3308:3318  c / a == b */\n      eq\n        /* \"contracts/ymii/stake2Price.sol\":3301:3319  assert(c / a == b) */\n      tag_355\n      jumpi\n      tag_356\n      tag_357\n      jump\t// in\n    tag_356:\n    tag_355:\n        /* \"contracts/ymii/stake2Price.sol\":3149:3344  function mul(uint256 a, uint256 b) internal pure returns (uint256 c) {... */\n    tag_351:\n      swap3\n      swap2\n      pop\n      pop\n      jump\t// out\n        /* \"contracts/ymii/stake2Price.sol\":3350:3446  function div(uint256 a, uint256 b) internal pure returns (uint256) {... */\n    tag_238:\n        /* \"contracts/ymii/stake2Price.sol\":3408:3415  uint256 */\n      0x00\n        /* \"contracts/ymii/stake2Price.sol\":3438:3439  b */\n      dup2\n        /* \"contracts/ymii/stake2Price.sol\":3434:3435  a */\n      dup4\n        /* \"contracts/ymii/stake2Price.sol\":3434:3439  a / b */\n      tag_359\n      swap2\n      swap1\n      tag_261\n      jump\t// in\n    tag_359:\n        /* \"contracts/ymii/stake2Price.sol\":3427:3439  return a / b */\n      swap1\n      pop\n        /* \"contracts/ymii/stake2Price.sol\":3350:3446  function div(uint256 a, uint256 b) internal pure returns (uint256) {... */\n      swap3\n      swap2\n      pop\n      pop\n      jump\t// out\n        /* \"#utility.yul\":88:205   */\n    tag_361:\n        /* \"#utility.yul\":197:198   */\n      0x00\n        /* \"#utility.yul\":194:195   */\n      dup1\n        /* \"#utility.yul\":187:199   */\n      revert\n        /* \"#utility.yul\":334:411   */\n    tag_363:\n        /* \"#utility.yul\":371:378   */\n      0x00\n        /* \"#utility.yul\":400:405   */\n      dup2\n        /* \"#utility.yul\":389:405   */\n      swap1\n      pop\n        /* \"#utility.yul\":334:411   */\n      swap2\n      swap1\n      pop\n      jump\t// out\n        /* \"#utility.yul\":417:539   */\n    tag_364:\n        /* \"#utility.yul\":490:514   */\n      tag_410\n        /* \"#utility.yul\":508:513   */\n      dup2\n        /* \"#utility.yul\":490:514   */\n      tag_363\n      jump\t// in\n    tag_410:\n        /* \"#utility.yul\":483:488   */\n      dup2\n        /* \"#utility.yul\":480:515   */\n      eq\n        /* \"#utility.yul\":470:533   */\n      tag_411\n      jumpi\n        /* \"#utility.yul\":529:530   */\n      0x00\n        /* \"#utility.yul\":526:527   */\n      dup1\n        /* \"#utility.yul\":519:531   */\n      revert\n        /* \"#utility.yul\":470:533   */\n    tag_411:\n        /* \"#utility.yul\":417:539   */\n      pop\n      jump\t// out\n        /* \"#utility.yul\":545:684   */\n    tag_365:\n        /* \"#utility.yul\":591:596   */\n      0x00\n        /* \"#utility.yul\":629:635   */\n      dup2\n        /* \"#utility.yul\":616:636   */\n      calldataload\n        /* \"#utility.yul\":607:636   */\n      swap1\n      pop\n        /* \"#utility.yul\":645:678   */\n      tag_413\n        /* \"#utility.yul\":672:677   */\n      dup2\n        /* \"#utility.yul\":645:678   */\n      tag_364\n      jump\t// in\n    tag_413:\n        /* \"#utility.yul\":545:684   */\n      swap3\n      swap2\n      pop\n      pop\n      jump\t// out\n        /* \"#utility.yul\":690:1019   */\n    tag_49:\n        /* \"#utility.yul\":749:755   */\n      0x00\n        /* \"#utility.yul\":798:800   */\n      0x20\n        /* \"#utility.yul\":786:795   */\n      dup3\n        /* \"#utility.yul\":777:784   */\n      dup5\n        /* \"#utility.yul\":773:796   */\n      sub\n        /* \"#utility.yul\":769:801   */\n      slt\n        /* \"#utility.yul\":766:885   */\n      iszero\n      tag_415\n      jumpi\n        /* \"#utility.yul\":804:883   */\n      tag_416\n      tag_361\n      jump\t// in\n    tag_416:\n        /* \"#utility.yul\":766:885   */\n    tag_415:\n        /* \"#utility.yul\":924:925   */\n      0x00\n        /* \"#utility.yul\":949:1002   */\n      tag_417\n        /* \"#utility.yul\":994:1001   */\n      dup5\n        /* \"#utility.yul\":985:991   */\n      dup3\n        /* \"#utility.yul\":974:983   */\n      dup6\n        /* \"#utility.yul\":970:992   */\n      add\n        /* \"#utility.yul\":949:1002   */\n      tag_365\n      jump\t// in\n    tag_417:\n        /* \"#utility.yul\":939:1002   */\n      swap2\n      pop\n        /* \"#utility.yul\":895:1012   */\n      pop\n        /* \"#utility.yul\":690:1019   */\n      swap3\n      swap2\n      pop\n      pop\n      jump\t// out\n        /* \"#utility.yul\":1025:1151   */\n    tag_366:\n        /* \"#utility.yul\":1062:1069   */\n      0x00\n        /* \"#utility.yul\":1102:1144   */\n      0xffffffffffffffffffffffffffffffffffffffff\n        /* \"#utility.yul\":1095:1100   */\n      dup3\n        /* \"#utility.yul\":1091:1145   */\n      and\n        /* \"#utility.yul\":1080:1145   */\n      swap1\n      pop\n        /* \"#utility.yul\":1025:1151   */\n      swap2\n      swap1\n      pop\n      jump\t// out\n        /* \"#utility.yul\":1157:1253   */\n    tag_367:\n        /* \"#utility.yul\":1194:1201   */\n      0x00\n        /* \"#utility.yul\":1223:1247   */\n      tag_420\n        /* \"#utility.yul\":1241:1246   */\n      dup3\n        /* \"#utility.yul\":1223:1247   */\n      tag_366\n      jump\t// in\n    tag_420:\n        /* \"#utility.yul\":1212:1247   */\n      swap1\n      pop\n        /* \"#utility.yul\":1157:1253   */\n      swap2\n      swap1\n      pop\n      jump\t// out\n        /* \"#utility.yul\":1259:1381   */\n    tag_368:\n        /* \"#utility.yul\":1332:1356   */\n      tag_422\n        /* \"#utility.yul\":1350:1355   */\n      dup2\n        /* \"#utility.yul\":1332:1356   */\n      tag_367\n      jump\t// in\n    tag_422:\n        /* \"#utility.yul\":1325:1330   */\n      dup2\n        /* \"#utility.yul\":1322:1357   */\n      eq\n        /* \"#utility.yul\":1312:1375   */\n      tag_423\n      jumpi\n        /* \"#utility.yul\":1371:1372   */\n      0x00\n        /* \"#utility.yul\":1368:1369   */\n      dup1\n        /* \"#utility.yul\":1361:1373   */\n      revert\n        /* \"#utility.yul\":1312:1375   */\n    tag_423:\n        /* \"#utility.yul\":1259:1381   */\n      pop\n      jump\t// out\n        /* \"#utility.yul\":1387:1526   */\n    tag_369:\n        /* \"#utility.yul\":1433:1438   */\n      0x00\n        /* \"#utility.yul\":1471:1477   */\n      dup2\n        /* \"#utility.yul\":1458:1478   */\n      calldataload\n        /* \"#utility.yul\":1449:1478   */\n      swap1\n      pop\n        /* \"#utility.yul\":1487:1520   */\n      tag_425\n        /* \"#utility.yul\":1514:1519   */\n      dup2\n        /* \"#utility.yul\":1487:1520   */\n      tag_368\n      jump\t// in\n    tag_425:\n        /* \"#utility.yul\":1387:1526   */\n      swap3\n      swap2\n      pop\n      pop\n      jump\t// out\n        /* \"#utility.yul\":1532:1861   */\n    tag_53:\n        /* \"#utility.yul\":1591:1597   */\n      0x00\n        /* \"#utility.yul\":1640:1642   */\n      0x20\n        /* \"#utility.yul\":1628:1637   */\n      dup3\n        /* \"#utility.yul\":1619:1626   */\n      dup5\n        /* \"#utility.yul\":1615:1638   */\n      sub\n        /* \"#utility.yul\":1611:1643   */\n      slt\n        /* \"#utility.yul\":1608:1727   */\n      iszero\n      tag_427\n      jumpi\n        /* \"#utility.yul\":1646:1725   */\n      tag_428\n      tag_361\n      jump\t// in\n    tag_428:\n        /* \"#utility.yul\":1608:1727   */\n    tag_427:\n        /* \"#utility.yul\":1766:1767   */\n      0x00\n        /* \"#utility.yul\":1791:1844   */\n      tag_429\n        /* \"#utility.yul\":1836:1843   */\n      dup5\n        /* \"#utility.yul\":1827:1833   */\n      dup3\n        /* \"#utility.yul\":1816:1825   */\n      dup6\n        /* \"#utility.yul\":1812:1834   */\n      add\n        /* \"#utility.yul\":1791:1844   */\n      tag_369\n      jump\t// in\n    tag_429:\n        /* \"#utility.yul\":1781:1844   */\n      swap2\n      pop\n        /* \"#utility.yul\":1737:1854   */\n      pop\n        /* \"#utility.yul\":1532:1861   */\n      swap3\n      swap2\n      pop\n      pop\n      jump\t// out\n        /* \"#utility.yul\":1867:1985   */\n    tag_370:\n        /* \"#utility.yul\":1954:1978   */\n      tag_431\n        /* \"#utility.yul\":1972:1977   */\n      dup2\n        /* \"#utility.yul\":1954:1978   */\n      tag_363\n      jump\t// in\n    tag_431:\n        /* \"#utility.yul\":1949:1952   */\n      dup3\n        /* \"#utility.yul\":1942:1979   */\n      mstore\n        /* \"#utility.yul\":1867:1985   */\n      pop\n      pop\n      jump\t// out\n        /* \"#utility.yul\":1991:2213   */\n    tag_56:\n        /* \"#utility.yul\":2084:2088   */\n      0x00\n        /* \"#utility.yul\":2122:2124   */\n      0x20\n        /* \"#utility.yul\":2111:2120   */\n      dup3\n        /* \"#utility.yul\":2107:2125   */\n      add\n        /* \"#utility.yul\":2099:2125   */\n      swap1\n      pop\n        /* \"#utility.yul\":2135:2206   */\n      tag_433\n        /* \"#utility.yul\":2203:2204   */\n      0x00\n        /* \"#utility.yul\":2192:2201   */\n      dup4\n        /* \"#utility.yul\":2188:2205   */\n      add\n        /* \"#utility.yul\":2179:2185   */\n      dup5\n        /* \"#utility.yul\":2135:2206   */\n      tag_370\n      jump\t// in\n    tag_433:\n        /* \"#utility.yul\":1991:2213   */\n      swap3\n      swap2\n      pop\n      pop\n      jump\t// out\n        /* \"#utility.yul\":2219:2309   */\n    tag_371:\n        /* \"#utility.yul\":2253:2260   */\n      0x00\n        /* \"#utility.yul\":2296:2301   */\n      dup2\n        /* \"#utility.yul\":2289:2302   */\n      iszero\n        /* \"#utility.yul\":2282:2303   */\n      iszero\n        /* \"#utility.yul\":2271:2303   */\n      swap1\n      pop\n        /* \"#utility.yul\":2219:2309   */\n      swap2\n      swap1\n      pop\n      jump\t// out\n        /* \"#utility.yul\":2315:2424   */\n    tag_372:\n        /* \"#utility.yul\":2396:2417   */\n      tag_436\n        /* \"#utility.yul\":2411:2416   */\n      dup2\n        /* \"#utility.yul\":2396:2417   */\n      tag_371\n      jump\t// in\n    tag_436:\n        /* \"#utility.yul\":2391:2394   */\n      dup3\n        /* \"#utility.yul\":2384:2418   */\n      mstore\n        /* \"#utility.yul\":2315:2424   */\n      pop\n      pop\n      jump\t// out\n        /* \"#utility.yul\":2430:2640   */\n    tag_67:\n        /* \"#utility.yul\":2517:2521   */\n      0x00\n        /* \"#utility.yul\":2555:2557   */\n      0x20\n        /* \"#utility.yul\":2544:2553   */\n      dup3\n        /* \"#utility.yul\":2540:2558   */\n      add\n        /* \"#utility.yul\":2532:2558   */\n      swap1\n      pop\n        /* \"#utility.yul\":2568:2633   */\n      tag_438\n        /* \"#utility.yul\":2630:2631   */\n      0x00\n        /* \"#utility.yul\":2619:2628   */\n      dup4\n        /* \"#utility.yul\":2615:2632   */\n      add\n        /* \"#utility.yul\":2606:2612   */\n      dup5\n        /* \"#utility.yul\":2568:2633   */\n      tag_372\n      jump\t// in\n    tag_438:\n        /* \"#utility.yul\":2430:2640   */\n      swap3\n      swap2\n      pop\n      pop\n      jump\t// out\n        /* \"#utility.yul\":2646:2764   */\n    tag_373:\n        /* \"#utility.yul\":2733:2757   */\n      tag_440\n        /* \"#utility.yul\":2751:2756   */\n      dup2\n        /* \"#utility.yul\":2733:2757   */\n      tag_367\n      jump\t// in\n    tag_440:\n        /* \"#utility.yul\":2728:2731   */\n      dup3\n        /* \"#utility.yul\":2721:2758   */\n      mstore\n        /* \"#utility.yul\":2646:2764   */\n      pop\n      pop\n      jump\t// out\n        /* \"#utility.yul\":2770:2992   */\n    tag_86:\n        /* \"#utility.yul\":2863:2867   */\n      0x00\n        /* \"#utility.yul\":2901:2903   */\n      0x20\n        /* \"#utility.yul\":2890:2899   */\n      dup3\n        /* \"#utility.yul\":2886:2904   */\n      add\n        /* \"#utility.yul\":2878:2904   */\n      swap1\n      pop\n        /* \"#utility.yul\":2914:2985   */\n      tag_442\n        /* \"#utility.yul\":2982:2983   */\n      0x00\n        /* \"#utility.yul\":2971:2980   */\n      dup4\n        /* \"#utility.yul\":2967:2984   */\n      add\n        /* \"#utility.yul\":2958:2964   */\n      dup5\n        /* \"#utility.yul\":2914:2985   */\n      tag_373\n      jump\t// in\n    tag_442:\n        /* \"#utility.yul\":2770:2992   */\n      swap3\n      swap2\n      pop\n      pop\n      jump\t// out\n        /* \"#utility.yul\":2998:3617   */\n    tag_101:\n        /* \"#utility.yul\":3075:3081   */\n      0x00\n        /* \"#utility.yul\":3083:3089   */\n      dup1\n        /* \"#utility.yul\":3091:3097   */\n      0x00\n        /* \"#utility.yul\":3140:3142   */\n      0x60\n        /* \"#utility.yul\":3128:3137   */\n      dup5\n        /* \"#utility.yul\":3119:3126   */\n      dup7\n        /* \"#utility.yul\":3115:3138   */\n      sub\n        /* \"#utility.yul\":3111:3143   */\n      slt\n        /* \"#utility.yul\":3108:3227   */\n      iszero\n      tag_444\n      jumpi\n        /* \"#utility.yul\":3146:3225   */\n      tag_445\n      tag_361\n      jump\t// in\n    tag_445:\n        /* \"#utility.yul\":3108:3227   */\n    tag_444:\n        /* \"#utility.yul\":3266:3267   */\n      0x00\n        /* \"#utility.yul\":3291:3344   */\n      tag_446\n        /* \"#utility.yul\":3336:3343   */\n      dup7\n        /* \"#utility.yul\":3327:3333   */\n      dup3\n        /* \"#utility.yul\":3316:3325   */\n      dup8\n        /* \"#utility.yul\":3312:3334   */\n      add\n        /* \"#utility.yul\":3291:3344   */\n      tag_365\n      jump\t// in\n    tag_446:\n        /* \"#utility.yul\":3281:3344   */\n      swap4\n      pop\n        /* \"#utility.yul\":3237:3354   */\n      pop\n        /* \"#utility.yul\":3393:3395   */\n      0x20\n        /* \"#utility.yul\":3419:3472   */\n      tag_447\n        /* \"#utility.yul\":3464:3471   */\n      dup7\n        /* \"#utility.yul\":3455:3461   */\n      dup3\n        /* \"#utility.yul\":3444:3453   */\n      dup8\n        /* \"#utility.yul\":3440:3462   */\n      add\n        /* \"#utility.yul\":3419:3472   */\n      tag_369\n      jump\t// in\n    tag_447:\n        /* \"#utility.yul\":3409:3472   */\n      swap3\n      pop\n        /* \"#utility.yul\":3364:3482   */\n      pop\n        /* \"#utility.yul\":3521:3523   */\n      0x40\n        /* \"#utility.yul\":3547:3600   */\n      tag_448\n        /* \"#utility.yul\":3592:3599   */\n      dup7\n        /* \"#utility.yul\":3583:3589   */\n      dup3\n        /* \"#utility.yul\":3572:3581   */\n      dup8\n        /* \"#utility.yul\":3568:3590   */\n      add\n        /* \"#utility.yul\":3547:3600   */\n      tag_365\n      jump\t// in\n    tag_448:\n        /* \"#utility.yul\":3537:3600   */\n      swap2\n      pop\n        /* \"#utility.yul\":3492:3610   */\n      pop\n        /* \"#utility.yul\":2998:3617   */\n      swap3\n      pop\n      swap3\n      pop\n      swap3\n      jump\t// out\n        /* \"#utility.yul\":3623:3739   */\n    tag_374:\n        /* \"#utility.yul\":3693:3714   */\n      tag_450\n        /* \"#utility.yul\":3708:3713   */\n      dup2\n        /* \"#utility.yul\":3693:3714   */\n      tag_371\n      jump\t// in\n    tag_450:\n        /* \"#utility.yul\":3686:3691   */\n      dup2\n        /* \"#utility.yul\":3683:3715   */\n      eq\n        /* \"#utility.yul\":3673:3733   */\n      tag_451\n      jumpi\n        /* \"#utility.yul\":3729:3730   */\n      0x00\n        /* \"#utility.yul\":3726:3727   */\n      dup1\n        /* \"#utility.yul\":3719:3731   */\n      revert\n        /* \"#utility.yul\":3673:3733   */\n    tag_451:\n        /* \"#utility.yul\":3623:3739   */\n      pop\n      jump\t// out\n        /* \"#utility.yul\":3745:3878   */\n    tag_375:\n        /* \"#utility.yul\":3788:3793   */\n      0x00\n        /* \"#utility.yul\":3826:3832   */\n      dup2\n        /* \"#utility.yul\":3813:3833   */\n      calldataload\n        /* \"#utility.yul\":3804:3833   */\n      swap1\n      pop\n        /* \"#utility.yul\":3842:3872   */\n      tag_453\n        /* \"#utility.yul\":3866:3871   */\n      dup2\n        /* \"#utility.yul\":3842:3872   */\n      tag_374\n      jump\t// in\n    tag_453:\n        /* \"#utility.yul\":3745:3878   */\n      swap3\n      swap2\n      pop\n      pop\n      jump\t// out\n        /* \"#utility.yul\":3884:4346   */\n    tag_140:\n        /* \"#utility.yul\":3946:3952   */\n      0x00\n        /* \"#utility.yul\":3954:3960   */\n      dup1\n        /* \"#utility.yul\":4003:4005   */\n      0x40\n        /* \"#utility.yul\":3991:4000   */\n      dup4\n        /* \"#utility.yul\":3982:3989   */\n      dup6\n        /* \"#utility.yul\":3978:4001   */\n      sub\n        /* \"#utility.yul\":3974:4006   */\n      slt\n        /* \"#utility.yul\":3971:4090   */\n      iszero\n      tag_455\n      jumpi\n        /* \"#utility.yul\":4009:4088   */\n      tag_456\n      tag_361\n      jump\t// in\n    tag_456:\n        /* \"#utility.yul\":3971:4090   */\n    tag_455:\n        /* \"#utility.yul\":4129:4130   */\n      0x00\n        /* \"#utility.yul\":4154:4204   */\n      tag_457\n        /* \"#utility.yul\":4196:4203   */\n      dup6\n        /* \"#utility.yul\":4187:4193   */\n      dup3\n        /* \"#utility.yul\":4176:4185   */\n      dup7\n        /* \"#utility.yul\":4172:4194   */\n      add\n        /* \"#utility.yul\":4154:4204   */\n      tag_375\n      jump\t// in\n    tag_457:\n        /* \"#utility.yul\":4144:4204   */\n      swap3\n      pop\n        /* \"#utility.yul\":4100:4214   */\n      pop\n        /* \"#utility.yul\":4253:4255   */\n      0x20\n        /* \"#utility.yul\":4279:4329   */\n      tag_458\n        /* \"#utility.yul\":4321:4328   */\n      dup6\n        /* \"#utility.yul\":4312:4318   */\n      dup3\n        /* \"#utility.yul\":4301:4310   */\n      dup7\n        /* \"#utility.yul\":4297:4319   */\n      add\n        /* \"#utility.yul\":4279:4329   */\n      tag_375\n      jump\t// in\n    tag_458:\n        /* \"#utility.yul\":4269:4329   */\n      swap2\n      pop\n        /* \"#utility.yul\":4224:4339   */\n      pop\n        /* \"#utility.yul\":3884:4346   */\n      swap3\n      pop\n      swap3\n      swap1\n      pop\n      jump\t// out\n        /* \"#utility.yul\":4352:5555   */\n    tag_162:\n        /* \"#utility.yul\":4465:4471   */\n      0x00\n        /* \"#utility.yul\":4473:4479   */\n      dup1\n        /* \"#utility.yul\":4481:4487   */\n      0x00\n        /* \"#utility.yul\":4489:4495   */\n      dup1\n        /* \"#utility.yul\":4497:4503   */\n      0x00\n        /* \"#utility.yul\":4505:4511   */\n      dup1\n        /* \"#utility.yul\":4513:4519   */\n      0x00\n        /* \"#utility.yul\":4562:4565   */\n      0xe0\n        /* \"#utility.yul\":4550:4559   */\n      dup9\n        /* \"#utility.yul\":4541:4548   */\n      dup11\n        /* \"#utility.yul\":4537:4560   */\n      sub\n        /* \"#utility.yul\":4533:4566   */\n      slt\n        /* \"#utility.yul\":4530:4650   */\n      iszero\n      tag_460\n      jumpi\n        /* \"#utility.yul\":4569:4648   */\n      tag_461\n      tag_361\n      jump\t// in\n    tag_461:\n        /* \"#utility.yul\":4530:4650   */\n    tag_460:\n        /* \"#utility.yul\":4689:4690   */\n      0x00\n        /* \"#utility.yul\":4714:4767   */\n      tag_462\n        /* \"#utility.yul\":4759:4766   */\n      dup11\n        /* \"#utility.yul\":4750:4756   */\n      dup3\n        /* \"#utility.yul\":4739:4748   */\n      dup12\n        /* \"#utility.yul\":4735:4757   */\n      add\n        /* \"#utility.yul\":4714:4767   */\n      tag_369\n      jump\t// in\n    tag_462:\n        /* \"#utility.yul\":4704:4767   */\n      swap8\n      pop\n        /* \"#utility.yul\":4660:4777   */\n      pop\n        /* \"#utility.yul\":4816:4818   */\n      0x20\n        /* \"#utility.yul\":4842:4895   */\n      tag_463\n        /* \"#utility.yul\":4887:4894   */\n      dup11\n        /* \"#utility.yul\":4878:4884   */\n      dup3\n        /* \"#utility.yul\":4867:4876   */\n      dup12\n        /* \"#utility.yul\":4863:4885   */\n      add\n        /* \"#utility.yul\":4842:4895   */\n      tag_365\n      jump\t// in\n    tag_463:\n        /* \"#utility.yul\":4832:4895   */\n      swap7\n      pop\n        /* \"#utility.yul\":4787:4905   */\n      pop\n        /* \"#utility.yul\":4944:4946   */\n      0x40\n        /* \"#utility.yul\":4970:5023   */\n      tag_464\n        /* \"#utility.yul\":5015:5022   */\n      dup11\n        /* \"#utility.yul\":5006:5012   */\n      dup3\n        /* \"#utility.yul\":4995:5004   */\n      dup12\n        /* \"#utility.yul\":4991:5013   */\n      add\n        /* \"#utility.yul\":4970:5023   */\n      tag_365\n      jump\t// in\n    tag_464:\n        /* \"#utility.yul\":4960:5023   */\n      swap6\n      pop\n        /* \"#utility.yul\":4915:5033   */\n      pop\n        /* \"#utility.yul\":5072:5074   */\n      0x60\n        /* \"#utility.yul\":5098:5151   */\n      tag_465\n        /* \"#utility.yul\":5143:5150   */\n      dup11\n        /* \"#utility.yul\":5134:5140   */\n      dup3\n        /* \"#utility.yul\":5123:5132   */\n      dup12\n        /* \"#utility.yul\":5119:5141   */\n      add\n        /* \"#utility.yul\":5098:5151   */\n      tag_365\n      jump\t// in\n    tag_465:\n        /* \"#utility.yul\":5088:5151   */\n      swap5\n      pop\n        /* \"#utility.yul\":5043:5161   */\n      pop\n        /* \"#utility.yul\":5200:5203   */\n      0x80\n        /* \"#utility.yul\":5227:5280   */\n      tag_466\n        /* \"#utility.yul\":5272:5279   */\n      dup11\n        /* \"#utility.yul\":5263:5269   */\n      dup3\n        /* \"#utility.yul\":5252:5261   */\n      dup12\n        /* \"#utility.yul\":5248:5270   */\n      add\n        /* \"#utility.yul\":5227:5280   */\n      tag_365\n      jump\t// in\n    tag_466:\n        /* \"#utility.yul\":5217:5280   */\n      swap4\n      pop\n        /* \"#utility.yul\":5171:5290   */\n      pop\n        /* \"#utility.yul\":5329:5332   */\n      0xa0\n        /* \"#utility.yul\":5356:5409   */\n      tag_467\n        /* \"#utility.yul\":5401:5408   */\n      dup11\n        /* \"#utility.yul\":5392:5398   */\n      dup3\n        /* \"#utility.yul\":5381:5390   */\n      dup12\n        /* \"#utility.yul\":5377:5399   */\n      add\n        /* \"#utility.yul\":5356:5409   */\n      tag_365\n      jump\t// in\n    tag_467:\n        /* \"#utility.yul\":5346:5409   */\n      swap3\n      pop\n        /* \"#utility.yul\":5300:5419   */\n      pop\n        /* \"#utility.yul\":5458:5461   */\n      0xc0\n        /* \"#utility.yul\":5485:5538   */\n      tag_468\n        /* \"#utility.yul\":5530:5537   */\n      dup11\n        /* \"#utility.yul\":5521:5527   */\n      dup3\n        /* \"#utility.yul\":5510:5519   */\n      dup12\n        /* \"#utility.yul\":5506:5528   */\n      add\n        /* \"#utility.yul\":5485:5538   */\n      tag_365\n      jump\t// in\n    tag_468:\n        /* \"#utility.yul\":5475:5538   */\n      swap2\n      pop\n        /* \"#utility.yul\":5429:5548   */\n      pop\n        /* \"#utility.yul\":4352:5555   */\n      swap3\n      swap6\n      swap9\n      swap2\n      swap5\n      swap8\n      pop\n      swap3\n      swap6\n      pop\n      jump\t// out\n        /* \"#utility.yul\":5561:5730   */\n    tag_376:\n        /* \"#utility.yul\":5645:5656   */\n      0x00\n        /* \"#utility.yul\":5679:5685   */\n      dup3\n        /* \"#utility.yul\":5674:5677   */\n      dup3\n        /* \"#utility.yul\":5667:5686   */\n      mstore\n        /* \"#utility.yul\":5719:5723   */\n      0x20\n        /* \"#utility.yul\":5714:5717   */\n      dup3\n        /* \"#utility.yul\":5710:5724   */\n      add\n        /* \"#utility.yul\":5695:5724   */\n      swap1\n      pop\n        /* \"#utility.yul\":5561:5730   */\n      swap3\n      swap2\n      pop\n      pop\n      jump\t// out\n        /* \"#utility.yul\":5736:5892   */\n    tag_377:\n        /* \"#utility.yul\":5876:5884   */\n      0x216f776e65720000000000000000000000000000000000000000000000000000\n        /* \"#utility.yul\":5872:5873   */\n      0x00\n        /* \"#utility.yul\":5864:5870   */\n      dup3\n        /* \"#utility.yul\":5860:5874   */\n      add\n        /* \"#utility.yul\":5853:5885   */\n      mstore\n        /* \"#utility.yul\":5736:5892   */\n      pop\n      jump\t// out\n        /* \"#utility.yul\":5898:6263   */\n    tag_378:\n        /* \"#utility.yul\":6040:6043   */\n      0x00\n        /* \"#utility.yul\":6061:6127   */\n      tag_472\n        /* \"#utility.yul\":6125:6126   */\n      0x06\n        /* \"#utility.yul\":6120:6123   */\n      dup4\n        /* \"#utility.yul\":6061:6127   */\n      tag_376\n      jump\t// in\n    tag_472:\n        /* \"#utility.yul\":6054:6127   */\n      swap2\n      pop\n        /* \"#utility.yul\":6136:6229   */\n      tag_473\n        /* \"#utility.yul\":6225:6228   */\n      dup3\n        /* \"#utility.yul\":6136:6229   */\n      tag_377\n      jump\t// in\n    tag_473:\n        /* \"#utility.yul\":6254:6256   */\n      0x20\n        /* \"#utility.yul\":6249:6252   */\n      dup3\n        /* \"#utility.yul\":6245:6257   */\n      add\n        /* \"#utility.yul\":6238:6257   */\n      swap1\n      pop\n        /* \"#utility.yul\":5898:6263   */\n      swap2\n      swap1\n      pop\n      jump\t// out\n        /* \"#utility.yul\":6269:6688   */\n    tag_177:\n        /* \"#utility.yul\":6435:6439   */\n      0x00\n        /* \"#utility.yul\":6473:6475   */\n      0x20\n        /* \"#utility.yul\":6462:6471   */\n      dup3\n        /* \"#utility.yul\":6458:6476   */\n      add\n        /* \"#utility.yul\":6450:6476   */\n      swap1\n      pop\n        /* \"#utility.yul\":6522:6531   */\n      dup2\n        /* \"#utility.yul\":6516:6520   */\n      dup2\n        /* \"#utility.yul\":6512:6532   */\n      sub\n        /* \"#utility.yul\":6508:6509   */\n      0x00\n        /* \"#utility.yul\":6497:6506   */\n      dup4\n        /* \"#utility.yul\":6493:6510   */\n      add\n        /* \"#utility.yul\":6486:6533   */\n      mstore\n        /* \"#utility.yul\":6550:6681   */\n      tag_475\n        /* \"#utility.yul\":6676:6680   */\n      dup2\n        /* \"#utility.yul\":6550:6681   */\n      tag_378\n      jump\t// in\n    tag_475:\n        /* \"#utility.yul\":6542:6681   */\n      swap1\n      pop\n        /* \"#utility.yul\":6269:6688   */\n      swap2\n      swap1\n      pop\n      jump\t// out\n        /* \"#utility.yul\":6694:6874   */\n    tag_379:\n        /* \"#utility.yul\":6742:6819   */\n      0x4e487b7100000000000000000000000000000000000000000000000000000000\n        /* \"#utility.yul\":6739:6740   */\n      0x00\n        /* \"#utility.yul\":6732:6820   */\n      mstore\n        /* \"#utility.yul\":6839:6843   */\n      0x11\n        /* \"#utility.yul\":6836:6837   */\n      0x04\n        /* \"#utility.yul\":6829:6844   */\n      mstore\n        /* \"#utility.yul\":6863:6867   */\n      0x24\n        /* \"#utility.yul\":6860:6861   */\n      0x00\n        /* \"#utility.yul\":6853:6868   */\n      revert\n        /* \"#utility.yul\":6880:7074   */\n    tag_187:\n        /* \"#utility.yul\":6920:6924   */\n      0x00\n        /* \"#utility.yul\":6940:6960   */\n      tag_478\n        /* \"#utility.yul\":6958:6959   */\n      dup3\n        /* \"#utility.yul\":6940:6960   */\n      tag_363\n      jump\t// in\n    tag_478:\n        /* \"#utility.yul\":6935:6960   */\n      swap2\n      pop\n        /* \"#utility.yul\":6974:6994   */\n      tag_479\n        /* \"#utility.yul\":6992:6993   */\n      dup4\n        /* \"#utility.yul\":6974:6994   */\n      tag_363\n      jump\t// in\n    tag_479:\n        /* \"#utility.yul\":6969:6994   */\n      swap3\n      pop\n        /* \"#utility.yul\":7018:7019   */\n      dup3\n        /* \"#utility.yul\":7015:7016   */\n      dup3\n        /* \"#utility.yul\":7011:7020   */\n      sub\n        /* \"#utility.yul\":7003:7020   */\n      swap1\n      pop\n        /* \"#utility.yul\":7042:7043   */\n      dup2\n        /* \"#utility.yul\":7036:7040   */\n      dup2\n        /* \"#utility.yul\":7033:7044   */\n      gt\n        /* \"#utility.yul\":7030:7067   */\n      iszero\n      tag_480\n      jumpi\n        /* \"#utility.yul\":7047:7065   */\n      tag_481\n      tag_379\n      jump\t// in\n    tag_481:\n        /* \"#utility.yul\":7030:7067   */\n    tag_480:\n        /* \"#utility.yul\":6880:7074   */\n      swap3\n      swap2\n      pop\n      pop\n      jump\t// out\n        /* \"#utility.yul\":7080:7239   */\n    tag_380:\n        /* \"#utility.yul\":7220:7231   */\n      0x6e6f742073746172740000000000000000000000000000000000000000000000\n        /* \"#utility.yul\":7216:7217   */\n      0x00\n        /* \"#utility.yul\":7208:7214   */\n      dup3\n        /* \"#utility.yul\":7204:7218   */\n      add\n        /* \"#utility.yul\":7197:7232   */\n      mstore\n        /* \"#utility.yul\":7080:7239   */\n      pop\n      jump\t// out\n        /* \"#utility.yul\":7245:7610   */\n    tag_381:\n        /* \"#utility.yul\":7387:7390   */\n      0x00\n        /* \"#utility.yul\":7408:7474   */\n      tag_484\n        /* \"#utility.yul\":7472:7473   */\n      0x09\n        /* \"#utility.yul\":7467:7470   */\n      dup4\n        /* \"#utility.yul\":7408:7474   */\n      tag_376\n      jump\t// in\n    tag_484:\n        /* \"#utility.yul\":7401:7474   */\n      swap2\n      pop\n        /* \"#utility.yul\":7483:7576   */\n      tag_485\n        /* \"#utility.yul\":7572:7575   */\n      dup3\n        /* \"#utility.yul\":7483:7576   */\n      tag_380\n      jump\t// in\n    tag_485:\n        /* \"#utility.yul\":7601:7603   */\n      0x20\n        /* \"#utility.yul\":7596:7599   */\n      dup3\n        /* \"#utility.yul\":7592:7604   */\n      add\n        /* \"#utility.yul\":7585:7604   */\n      swap1\n      pop\n        /* \"#utility.yul\":7245:7610   */\n      swap2\n      swap1\n      pop\n      jump\t// out\n        /* \"#utility.yul\":7616:8035   */\n    tag_215:\n        /* \"#utility.yul\":7782:7786   */\n      0x00\n        /* \"#utility.yul\":7820:7822   */\n      0x20\n        /* \"#utility.yul\":7809:7818   */\n      dup3\n        /* \"#utility.yul\":7805:7823   */\n      add\n        /* \"#utility.yul\":7797:7823   */\n      swap1\n      pop\n        /* \"#utility.yul\":7869:7878   */\n      dup2\n        /* \"#utility.yul\":7863:7867   */\n      dup2\n        /* \"#utility.yul\":7859:7879   */\n      sub\n        /* \"#utility.yul\":7855:7856   */\n      0x00\n        /* \"#utility.yul\":7844:7853   */\n      dup4\n        /* \"#utility.yul\":7840:7857   */\n      add\n        /* \"#utility.yul\":7833:7880   */\n      mstore\n        /* \"#utility.yul\":7897:8028   */\n      tag_487\n        /* \"#utility.yul\":8023:8027   */\n      dup2\n        /* \"#utility.yul\":7897:8028   */\n      tag_381\n      jump\t// in\n    tag_487:\n        /* \"#utility.yul\":7889:8028   */\n      swap1\n      pop\n        /* \"#utility.yul\":7616:8035   */\n      swap2\n      swap1\n      pop\n      jump\t// out\n        /* \"#utility.yul\":8041:8211   */\n    tag_382:\n        /* \"#utility.yul\":8181:8203   */\n      0x696e76697465722063616e742062792073656c66000000000000000000000000\n        /* \"#utility.yul\":8177:8178   */\n      0x00\n        /* \"#utility.yul\":8169:8175   */\n      dup3\n        /* \"#utility.yul\":8165:8179   */\n      add\n        /* \"#utility.yul\":8158:8204   */\n      mstore\n        /* \"#utility.yul\":8041:8211   */\n      pop\n      jump\t// out\n        /* \"#utility.yul\":8217:8583   */\n    tag_383:\n        /* \"#utility.yul\":8359:8362   */\n      0x00\n        /* \"#utility.yul\":8380:8447   */\n      tag_490\n        /* \"#utility.yul\":8444:8446   */\n      0x14\n        /* \"#utility.yul\":8439:8442   */\n      dup4\n        /* \"#utility.yul\":8380:8447   */\n      tag_376\n      jump\t// in\n    tag_490:\n        /* \"#utility.yul\":8373:8447   */\n      swap2\n      pop\n        /* \"#utility.yul\":8456:8549   */\n      tag_491\n        /* \"#utility.yul\":8545:8548   */\n      dup3\n        /* \"#utility.yul\":8456:8549   */\n      tag_382\n      jump\t// in\n    tag_491:\n        /* \"#utility.yul\":8574:8576   */\n      0x20\n        /* \"#utility.yul\":8569:8572   */\n      dup3\n        /* \"#utility.yul\":8565:8577   */\n      add\n        /* \"#utility.yul\":8558:8577   */\n      swap1\n      pop\n        /* \"#utility.yul\":8217:8583   */\n      swap2\n      swap1\n      pop\n      jump\t// out\n        /* \"#utility.yul\":8589:9008   */\n    tag_218:\n        /* \"#utility.yul\":8755:8759   */\n      0x00\n        /* \"#utility.yul\":8793:8795   */\n      0x20\n        /* \"#utility.yul\":8782:8791   */\n      dup3\n        /* \"#utility.yul\":8778:8796   */\n      add\n        /* \"#utility.yul\":8770:8796   */\n      swap1\n      pop\n        /* \"#utility.yul\":8842:8851   */\n      dup2\n        /* \"#utility.yul\":8836:8840   */\n      dup2\n        /* \"#utility.yul\":8832:8852   */\n      sub\n        /* \"#utility.yul\":8828:8829   */\n      0x00\n        /* \"#utility.yul\":8817:8826   */\n      dup4\n        /* \"#utility.yul\":8813:8830   */\n      add\n        /* \"#utility.yul\":8806:8853   */\n      mstore\n        /* \"#utility.yul\":8870:9001   */\n      tag_493\n        /* \"#utility.yul\":8996:9000   */\n      dup2\n        /* \"#utility.yul\":8870:9001   */\n      tag_383\n      jump\t// in\n    tag_493:\n        /* \"#utility.yul\":8862:9001   */\n      swap1\n      pop\n        /* \"#utility.yul\":8589:9008   */\n      swap2\n      swap1\n      pop\n      jump\t// out\n        /* \"#utility.yul\":9014:9177   */\n    tag_384:\n        /* \"#utility.yul\":9154:9169   */\n      0x616c7265616479207374616b6500000000000000000000000000000000000000\n        /* \"#utility.yul\":9150:9151   */\n      0x00\n        /* \"#utility.yul\":9142:9148   */\n      dup3\n        /* \"#utility.yul\":9138:9152   */\n      add\n        /* \"#utility.yul\":9131:9170   */\n      mstore\n        /* \"#utility.yul\":9014:9177   */\n      pop\n      jump\t// out\n        /* \"#utility.yul\":9183:9549   */\n    tag_385:\n        /* \"#utility.yul\":9325:9328   */\n      0x00\n        /* \"#utility.yul\":9346:9413   */\n      tag_496\n        /* \"#utility.yul\":9410:9412   */\n      0x0d\n        /* \"#utility.yul\":9405:9408   */\n      dup4\n        /* \"#utility.yul\":9346:9413   */\n      tag_376\n      jump\t// in\n    tag_496:\n        /* \"#utility.yul\":9339:9413   */\n      swap2\n      pop\n        /* \"#utility.yul\":9422:9515   */\n      tag_497\n        /* \"#utility.yul\":9511:9514   */\n      dup3\n        /* \"#utility.yul\":9422:9515   */\n      tag_384\n      jump\t// in\n    tag_497:\n        /* \"#utility.yul\":9540:9542   */\n      0x20\n        /* \"#utility.yul\":9535:9538   */\n      dup3\n        /* \"#utility.yul\":9531:9543   */\n      add\n        /* \"#utility.yul\":9524:9543   */\n      swap1\n      pop\n        /* \"#utility.yul\":9183:9549   */\n      swap2\n      swap1\n      pop\n      jump\t// out\n        /* \"#utility.yul\":9555:9974   */\n    tag_221:\n        /* \"#utility.yul\":9721:9725   */\n      0x00\n        /* \"#utility.yul\":9759:9761   */\n      0x20\n        /* \"#utility.yul\":9748:9757   */\n      dup3\n        /* \"#utility.yul\":9744:9762   */\n      add\n        /* \"#utility.yul\":9736:9762   */\n      swap1\n      pop\n        /* \"#utility.yul\":9808:9817   */\n      dup2\n        /* \"#utility.yul\":9802:9806   */\n      dup2\n        /* \"#utility.yul\":9798:9818   */\n      sub\n        /* \"#utility.yul\":9794:9795   */\n      0x00\n        /* \"#utility.yul\":9783:9792   */\n      dup4\n        /* \"#utility.yul\":9779:9796   */\n      add\n        /* \"#utility.yul\":9772:9819   */\n      mstore\n        /* \"#utility.yul\":9836:9967   */\n      tag_499\n        /* \"#utility.yul\":9962:9966   */\n      dup2\n        /* \"#utility.yul\":9836:9967   */\n      tag_385\n      jump\t// in\n    tag_499:\n        /* \"#utility.yul\":9828:9967   */\n      swap1\n      pop\n        /* \"#utility.yul\":9555:9974   */\n      swap2\n      swap1\n      pop\n      jump\t// out\n        /* \"#utility.yul\":9980:10140   */\n    tag_386:\n        /* \"#utility.yul\":10120:10132   */\n      0x7a65726f207374616b6500000000000000000000000000000000000000000000\n        /* \"#utility.yul\":10116:10117   */\n      0x00\n        /* \"#utility.yul\":10108:10114   */\n      dup3\n        /* \"#utility.yul\":10104:10118   */\n      add\n        /* \"#utility.yul\":10097:10133   */\n      mstore\n        /* \"#utility.yul\":9980:10140   */\n      pop\n      jump\t// out\n        /* \"#utility.yul\":10146:10512   */\n    tag_387:\n        /* \"#utility.yul\":10288:10291   */\n      0x00\n        /* \"#utility.yul\":10309:10376   */\n      tag_502\n        /* \"#utility.yul\":10373:10375   */\n      0x0a\n        /* \"#utility.yul\":10368:10371   */\n      dup4\n        /* \"#utility.yul\":10309:10376   */\n      tag_376\n      jump\t// in\n    tag_502:\n        /* \"#utility.yul\":10302:10376   */\n      swap2\n      pop\n        /* \"#utility.yul\":10385:10478   */\n      tag_503\n        /* \"#utility.yul\":10474:10477   */\n      dup3\n        /* \"#utility.yul\":10385:10478   */\n      tag_386\n      jump\t// in\n    tag_503:\n        /* \"#utility.yul\":10503:10505   */\n      0x20\n        /* \"#utility.yul\":10498:10501   */\n      dup3\n        /* \"#utility.yul\":10494:10506   */\n      add\n        /* \"#utility.yul\":10487:10506   */\n      swap1\n      pop\n        /* \"#utility.yul\":10146:10512   */\n      swap2\n      swap1\n      pop\n      jump\t// out\n        /* \"#utility.yul\":10518:10937   */\n    tag_224:\n        /* \"#utility.yul\":10684:10688   */\n      0x00\n        /* \"#utility.yul\":10722:10724   */\n      0x20\n        /* \"#utility.yul\":10711:10720   */\n      dup3\n        /* \"#utility.yul\":10707:10725   */\n      add\n        /* \"#utility.yul\":10699:10725   */\n      swap1\n      pop\n        /* \"#utility.yul\":10771:10780   */\n      dup2\n        /* \"#utility.yul\":10765:10769   */\n      dup2\n        /* \"#utility.yul\":10761:10781   */\n      sub\n        /* \"#utility.yul\":10757:10758   */\n      0x00\n        /* \"#utility.yul\":10746:10755   */\n      dup4\n        /* \"#utility.yul\":10742:10759   */\n      add\n        /* \"#utility.yul\":10735:10782   */\n      mstore\n        /* \"#utility.yul\":10799:10930   */\n      tag_505\n        /* \"#utility.yul\":10925:10929   */\n      dup2\n        /* \"#utility.yul\":10799:10930   */\n      tag_387\n      jump\t// in\n    tag_505:\n        /* \"#utility.yul\":10791:10930   */\n      swap1\n      pop\n        /* \"#utility.yul\":10518:10937   */\n      swap2\n      swap1\n      pop\n      jump\t// out\n        /* \"#utility.yul\":10943:11107   */\n    tag_388:\n        /* \"#utility.yul\":11083:11099   */\n      0x6e6f742072696768742074696d65000000000000000000000000000000000000\n        /* \"#utility.yul\":11079:11080   */\n      0x00\n        /* \"#utility.yul\":11071:11077   */\n      dup3\n        /* \"#utility.yul\":11067:11081   */\n      add\n        /* \"#utility.yul\":11060:11100   */\n      mstore\n        /* \"#utility.yul\":10943:11107   */\n      pop\n      jump\t// out\n        /* \"#utility.yul\":11113:11479   */\n    tag_389:\n        /* \"#utility.yul\":11255:11258   */\n      0x00\n        /* \"#utility.yul\":11276:11343   */\n      tag_508\n        /* \"#utility.yul\":11340:11342   */\n      0x0e\n        /* \"#utility.yul\":11335:11338   */\n      dup4\n        /* \"#utility.yul\":11276:11343   */\n      tag_376\n      jump\t// in\n    tag_508:\n        /* \"#utility.yul\":11269:11343   */\n      swap2\n      pop\n        /* \"#utility.yul\":11352:11445   */\n      tag_509\n        /* \"#utility.yul\":11441:11444   */\n      dup3\n        /* \"#utility.yul\":11352:11445   */\n      tag_388\n      jump\t// in\n    tag_509:\n        /* \"#utility.yul\":11470:11472   */\n      0x20\n        /* \"#utility.yul\":11465:11468   */\n      dup3\n        /* \"#utility.yul\":11461:11473   */\n      add\n        /* \"#utility.yul\":11454:11473   */\n      swap1\n      pop\n        /* \"#utility.yul\":11113:11479   */\n      swap2\n      swap1\n      pop\n      jump\t// out\n        /* \"#utility.yul\":11485:11904   */\n    tag_229:\n        /* \"#utility.yul\":11651:11655   */\n      0x00\n        /* \"#utility.yul\":11689:11691   */\n      0x20\n        /* \"#utility.yul\":11678:11687   */\n      dup3\n        /* \"#utility.yul\":11674:11692   */\n      add\n        /* \"#utility.yul\":11666:11692   */\n      swap1\n      pop\n        /* \"#utility.yul\":11738:11747   */\n      dup2\n        /* \"#utility.yul\":11732:11736   */\n      dup2\n        /* \"#utility.yul\":11728:11748   */\n      sub\n        /* \"#utility.yul\":11724:11725   */\n      0x00\n        /* \"#utility.yul\":11713:11722   */\n      dup4\n        /* \"#utility.yul\":11709:11726   */\n      add\n        /* \"#utility.yul\":11702:11749   */\n      mstore\n        /* \"#utility.yul\":11766:11897   */\n      tag_511\n        /* \"#utility.yul\":11892:11896   */\n      dup2\n        /* \"#utility.yul\":11766:11897   */\n      tag_389\n      jump\t// in\n    tag_511:\n        /* \"#utility.yul\":11758:11897   */\n      swap1\n      pop\n        /* \"#utility.yul\":11485:11904   */\n      swap2\n      swap1\n      pop\n      jump\t// out\n        /* \"#utility.yul\":11910:12320   */\n    tag_257:\n        /* \"#utility.yul\":11950:11957   */\n      0x00\n        /* \"#utility.yul\":11973:11993   */\n      tag_513\n        /* \"#utility.yul\":11991:11992   */\n      dup3\n        /* \"#utility.yul\":11973:11993   */\n      tag_363\n      jump\t// in\n    tag_513:\n        /* \"#utility.yul\":11968:11993   */\n      swap2\n      pop\n        /* \"#utility.yul\":12007:12027   */\n      tag_514\n        /* \"#utility.yul\":12025:12026   */\n      dup4\n        /* \"#utility.yul\":12007:12027   */\n      tag_363\n      jump\t// in\n    tag_514:\n        /* \"#utility.yul\":12002:12027   */\n      swap3\n      pop\n        /* \"#utility.yul\":12062:12063   */\n      dup3\n        /* \"#utility.yul\":12059:12060   */\n      dup3\n        /* \"#utility.yul\":12055:12064   */\n      mul\n        /* \"#utility.yul\":12084:12114   */\n      tag_515\n        /* \"#utility.yul\":12102:12113   */\n      dup2\n        /* \"#utility.yul\":12084:12114   */\n      tag_363\n      jump\t// in\n    tag_515:\n        /* \"#utility.yul\":12073:12114   */\n      swap2\n      pop\n        /* \"#utility.yul\":12263:12264   */\n      dup3\n        /* \"#utility.yul\":12254:12261   */\n      dup3\n        /* \"#utility.yul\":12250:12265   */\n      div\n        /* \"#utility.yul\":12247:12248   */\n      dup5\n        /* \"#utility.yul\":12244:12266   */\n      eq\n        /* \"#utility.yul\":12224:12225   */\n      dup4\n        /* \"#utility.yul\":12217:12226   */\n      iszero\n        /* \"#utility.yul\":12197:12280   */\n      or\n        /* \"#utility.yul\":12174:12313   */\n      tag_516\n      jumpi\n        /* \"#utility.yul\":12293:12311   */\n      tag_517\n      tag_379\n      jump\t// in\n    tag_517:\n        /* \"#utility.yul\":12174:12313   */\n    tag_516:\n        /* \"#utility.yul\":11958:12320   */\n      pop\n        /* \"#utility.yul\":11910:12320   */\n      swap3\n      swap2\n      pop\n      pop\n      jump\t// out\n        /* \"#utility.yul\":12326:12506   */\n    tag_390:\n        /* \"#utility.yul\":12374:12451   */\n      0x4e487b7100000000000000000000000000000000000000000000000000000000\n        /* \"#utility.yul\":12371:12372   */\n      0x00\n        /* \"#utility.yul\":12364:12452   */\n      mstore\n        /* \"#utility.yul\":12471:12475   */\n      0x12\n        /* \"#utility.yul\":12468:12469   */\n      0x04\n        /* \"#utility.yul\":12461:12476   */\n      mstore\n        /* \"#utility.yul\":12495:12499   */\n      0x24\n        /* \"#utility.yul\":12492:12493   */\n      0x00\n        /* \"#utility.yul\":12485:12500   */\n      revert\n        /* \"#utility.yul\":12512:12697   */\n    tag_261:\n        /* \"#utility.yul\":12552:12553   */\n      0x00\n        /* \"#utility.yul\":12569:12589   */\n      tag_520\n        /* \"#utility.yul\":12587:12588   */\n      dup3\n        /* \"#utility.yul\":12569:12589   */\n      tag_363\n      jump\t// in\n    tag_520:\n        /* \"#utility.yul\":12564:12589   */\n      swap2\n      pop\n        /* \"#utility.yul\":12603:12623   */\n      tag_521\n        /* \"#utility.yul\":12621:12622   */\n      dup4\n        /* \"#utility.yul\":12603:12623   */\n      tag_363\n      jump\t// in\n    tag_521:\n        /* \"#utility.yul\":12598:12623   */\n      swap3\n      pop\n        /* \"#utility.yul\":12642:12643   */\n      dup3\n        /* \"#utility.yul\":12632:12667   */\n      tag_522\n      jumpi\n        /* \"#utility.yul\":12647:12665   */\n      tag_523\n      tag_390\n      jump\t// in\n    tag_523:\n        /* \"#utility.yul\":12632:12667   */\n    tag_522:\n        /* \"#utility.yul\":12689:12690   */\n      dup3\n        /* \"#utility.yul\":12686:12687   */\n      dup3\n        /* \"#utility.yul\":12682:12691   */\n      div\n        /* \"#utility.yul\":12677:12691   */\n      swap1\n      pop\n        /* \"#utility.yul\":12512:12697   */\n      swap3\n      swap2\n      pop\n      pop\n      jump\t// out\n        /* \"#utility.yul\":12703:12894   */\n    tag_263:\n        /* \"#utility.yul\":12743:12746   */\n      0x00\n        /* \"#utility.yul\":12762:12782   */\n      tag_525\n        /* \"#utility.yul\":12780:12781   */\n      dup3\n        /* \"#utility.yul\":12762:12782   */\n      tag_363\n      jump\t// in\n    tag_525:\n        /* \"#utility.yul\":12757:12782   */\n      swap2\n      pop\n        /* \"#utility.yul\":12796:12816   */\n      tag_526\n        /* \"#utility.yul\":12814:12815   */\n      dup4\n        /* \"#utility.yul\":12796:12816   */\n      tag_363\n      jump\t// in\n    tag_526:\n        /* \"#utility.yul\":12791:12816   */\n      swap3\n      pop\n        /* \"#utility.yul\":12839:12840   */\n      dup3\n        /* \"#utility.yul\":12836:12837   */\n      dup3\n        /* \"#utility.yul\":12832:12841   */\n      add\n        /* \"#utility.yul\":12825:12841   */\n      swap1\n      pop\n        /* \"#utility.yul\":12860:12863   */\n      dup1\n        /* \"#utility.yul\":12857:12858   */\n      dup3\n        /* \"#utility.yul\":12854:12864   */\n      gt\n        /* \"#utility.yul\":12851:12887   */\n      iszero\n      tag_527\n      jumpi\n        /* \"#utility.yul\":12867:12885   */\n      tag_528\n      tag_379\n      jump\t// in\n    tag_528:\n        /* \"#utility.yul\":12851:12887   */\n    tag_527:\n        /* \"#utility.yul\":12703:12894   */\n      swap3\n      swap2\n      pop\n      pop\n      jump\t// out\n        /* \"#utility.yul\":12900:13342   */\n    tag_266:\n        /* \"#utility.yul\":13049:13053   */\n      0x00\n        /* \"#utility.yul\":13087:13089   */\n      0x60\n        /* \"#utility.yul\":13076:13085   */\n      dup3\n        /* \"#utility.yul\":13072:13090   */\n      add\n        /* \"#utility.yul\":13064:13090   */\n      swap1\n      pop\n        /* \"#utility.yul\":13100:13171   */\n      tag_530\n        /* \"#utility.yul\":13168:13169   */\n      0x00\n        /* \"#utility.yul\":13157:13166   */\n      dup4\n        /* \"#utility.yul\":13153:13170   */\n      add\n        /* \"#utility.yul\":13144:13150   */\n      dup7\n        /* \"#utility.yul\":13100:13171   */\n      tag_373\n      jump\t// in\n    tag_530:\n        /* \"#utility.yul\":13181:13253   */\n      tag_531\n        /* \"#utility.yul\":13249:13251   */\n      0x20\n        /* \"#utility.yul\":13238:13247   */\n      dup4\n        /* \"#utility.yul\":13234:13252   */\n      add\n        /* \"#utility.yul\":13225:13231   */\n      dup6\n        /* \"#utility.yul\":13181:13253   */\n      tag_373\n      jump\t// in\n    tag_531:\n        /* \"#utility.yul\":13263:13335   */\n      tag_532\n        /* \"#utility.yul\":13331:13333   */\n      0x40\n        /* \"#utility.yul\":13320:13329   */\n      dup4\n        /* \"#utility.yul\":13316:13334   */\n      add\n        /* \"#utility.yul\":13307:13313   */\n      dup5\n        /* \"#utility.yul\":13263:13335   */\n      tag_370\n      jump\t// in\n    tag_532:\n        /* \"#utility.yul\":12900:13342   */\n      swap5\n      swap4\n      pop\n      pop\n      pop\n      pop\n      jump\t// out\n        /* \"#utility.yul\":13348:13485   */\n    tag_391:\n        /* \"#utility.yul\":13402:13407   */\n      0x00\n        /* \"#utility.yul\":13433:13439   */\n      dup2\n        /* \"#utility.yul\":13427:13440   */\n      mload\n        /* \"#utility.yul\":13418:13440   */\n      swap1\n      pop\n        /* \"#utility.yul\":13449:13479   */\n      tag_534\n        /* \"#utility.yul\":13473:13478   */\n      dup2\n        /* \"#utility.yul\":13449:13479   */\n      tag_374\n      jump\t// in\n    tag_534:\n        /* \"#utility.yul\":13348:13485   */\n      swap3\n      swap2\n      pop\n      pop\n      jump\t// out\n        /* \"#utility.yul\":13491:13836   */\n    tag_270:\n        /* \"#utility.yul\":13558:13564   */\n      0x00\n        /* \"#utility.yul\":13607:13609   */\n      0x20\n        /* \"#utility.yul\":13595:13604   */\n      dup3\n        /* \"#utility.yul\":13586:13593   */\n      dup5\n        /* \"#utility.yul\":13582:13605   */\n      sub\n        /* \"#utility.yul\":13578:13610   */\n      slt\n        /* \"#utility.yul\":13575:13694   */\n      iszero\n      tag_536\n      jumpi\n        /* \"#utility.yul\":13613:13692   */\n      tag_537\n      tag_361\n      jump\t// in\n    tag_537:\n        /* \"#utility.yul\":13575:13694   */\n    tag_536:\n        /* \"#utility.yul\":13733:13734   */\n      0x00\n        /* \"#utility.yul\":13758:13819   */\n      tag_538\n        /* \"#utility.yul\":13811:13818   */\n      dup5\n        /* \"#utility.yul\":13802:13808   */\n      dup3\n        /* \"#utility.yul\":13791:13800   */\n      dup6\n        /* \"#utility.yul\":13787:13809   */\n      add\n        /* \"#utility.yul\":13758:13819   */\n      tag_391\n      jump\t// in\n    tag_538:\n        /* \"#utility.yul\":13748:13819   */\n      swap2\n      pop\n        /* \"#utility.yul\":13704:13829   */\n      pop\n        /* \"#utility.yul\":13491:13836   */\n      swap3\n      swap2\n      pop\n      pop\n      jump\t// out\n        /* \"#utility.yul\":13842:14001   */\n    tag_392:\n        /* \"#utility.yul\":13982:13993   */\n      0x6e6f74207374616b650000000000000000000000000000000000000000000000\n        /* \"#utility.yul\":13978:13979   */\n      0x00\n        /* \"#utility.yul\":13970:13976   */\n      dup3\n        /* \"#utility.yul\":13966:13980   */\n      add\n        /* \"#utility.yul\":13959:13994   */\n      mstore\n        /* \"#utility.yul\":13842:14001   */\n      pop\n      jump\t// out\n        /* \"#utility.yul\":14007:14372   */\n    tag_393:\n        /* \"#utility.yul\":14149:14152   */\n      0x00\n        /* \"#utility.yul\":14170:14236   */\n      tag_541\n        /* \"#utility.yul\":14234:14235   */\n      0x09\n        /* \"#utility.yul\":14229:14232   */\n      dup4\n        /* \"#utility.yul\":14170:14236   */\n      tag_376\n      jump\t// in\n    tag_541:\n        /* \"#utility.yul\":14163:14236   */\n      swap2\n      pop\n        /* \"#utility.yul\":14245:14338   */\n      tag_542\n        /* \"#utility.yul\":14334:14337   */\n      dup3\n        /* \"#utility.yul\":14245:14338   */\n      tag_392\n      jump\t// in\n    tag_542:\n        /* \"#utility.yul\":14363:14365   */\n      0x20\n        /* \"#utility.yul\":14358:14361   */\n      dup3\n        /* \"#utility.yul\":14354:14366   */\n      add\n        /* \"#utility.yul\":14347:14366   */\n      swap1\n      pop\n        /* \"#utility.yul\":14007:14372   */\n      swap2\n      swap1\n      pop\n      jump\t// out\n        /* \"#utility.yul\":14378:14797   */\n    tag_290:\n        /* \"#utility.yul\":14544:14548   */\n      0x00\n        /* \"#utility.yul\":14582:14584   */\n      0x20\n        /* \"#utility.yul\":14571:14580   */\n      dup3\n        /* \"#utility.yul\":14567:14585   */\n      add\n        /* \"#utility.yul\":14559:14585   */\n      swap1\n      pop\n        /* \"#utility.yul\":14631:14640   */\n      dup2\n        /* \"#utility.yul\":14625:14629   */\n      dup2\n        /* \"#utility.yul\":14621:14641   */\n      sub\n        /* \"#utility.yul\":14617:14618   */\n      0x00\n        /* \"#utility.yul\":14606:14615   */\n      dup4\n        /* \"#utility.yul\":14602:14619   */\n      add\n        /* \"#utility.yul\":14595:14642   */\n      mstore\n        /* \"#utility.yul\":14659:14790   */\n      tag_544\n        /* \"#utility.yul\":14785:14789   */\n      dup2\n        /* \"#utility.yul\":14659:14790   */\n      tag_393\n      jump\t// in\n    tag_544:\n        /* \"#utility.yul\":14651:14790   */\n      swap1\n      pop\n        /* \"#utility.yul\":14378:14797   */\n      swap2\n      swap1\n      pop\n      jump\t// out\n        /* \"#utility.yul\":14803:15135   */\n    tag_292:\n        /* \"#utility.yul\":14924:14928   */\n      0x00\n        /* \"#utility.yul\":14962:14964   */\n      0x40\n        /* \"#utility.yul\":14951:14960   */\n      dup3\n        /* \"#utility.yul\":14947:14965   */\n      add\n        /* \"#utility.yul\":14939:14965   */\n      swap1\n      pop\n        /* \"#utility.yul\":14975:15046   */\n      tag_546\n        /* \"#utility.yul\":15043:15044   */\n      0x00\n        /* \"#utility.yul\":15032:15041   */\n      dup4\n        /* \"#utility.yul\":15028:15045   */\n      add\n        /* \"#utility.yul\":15019:15025   */\n      dup6\n        /* \"#utility.yul\":14975:15046   */\n      tag_373\n      jump\t// in\n    tag_546:\n        /* \"#utility.yul\":15056:15128   */\n      tag_547\n        /* \"#utility.yul\":15124:15126   */\n      0x20\n        /* \"#utility.yul\":15113:15122   */\n      dup4\n        /* \"#utility.yul\":15109:15127   */\n      add\n        /* \"#utility.yul\":15100:15106   */\n      dup5\n        /* \"#utility.yul\":15056:15128   */\n      tag_370\n      jump\t// in\n    tag_547:\n        /* \"#utility.yul\":14803:15135   */\n      swap4\n      swap3\n      pop\n      pop\n      pop\n      jump\t// out\n        /* \"#utility.yul\":15141:15311   */\n    tag_394:\n        /* \"#utility.yul\":15281:15303   */\n      0x7573657220697320696e20626c61636b6c697374000000000000000000000000\n        /* \"#utility.yul\":15277:15278   */\n      0x00\n        /* \"#utility.yul\":15269:15275   */\n      dup3\n        /* \"#utility.yul\":15265:15279   */\n      add\n        /* \"#utility.yul\":15258:15304   */\n      mstore\n        /* \"#utility.yul\":15141:15311   */\n      pop\n      jump\t// out\n        /* \"#utility.yul\":15317:15683   */\n    tag_395:\n        /* \"#utility.yul\":15459:15462   */\n      0x00\n        /* \"#utility.yul\":15480:15547   */\n      tag_550\n        /* \"#utility.yul\":15544:15546   */\n      0x14\n        /* \"#utility.yul\":15539:15542   */\n      dup4\n        /* \"#utility.yul\":15480:15547   */\n      tag_376\n      jump\t// in\n    tag_550:\n        /* \"#utility.yul\":15473:15547   */\n      swap2\n      pop\n        /* \"#utility.yul\":15556:15649   */\n      tag_551\n        /* \"#utility.yul\":15645:15648   */\n      dup3\n        /* \"#utility.yul\":15556:15649   */\n      tag_394\n      jump\t// in\n    tag_551:\n        /* \"#utility.yul\":15674:15676   */\n      0x20\n        /* \"#utility.yul\":15669:15672   */\n      dup3\n        /* \"#utility.yul\":15665:15677   */\n      add\n        /* \"#utility.yul\":15658:15677   */\n      swap1\n      pop\n        /* \"#utility.yul\":15317:15683   */\n      swap2\n      swap1\n      pop\n      jump\t// out\n        /* \"#utility.yul\":15689:16108   */\n    tag_303:\n        /* \"#utility.yul\":15855:15859   */\n      0x00\n        /* \"#utility.yul\":15893:15895   */\n      0x20\n        /* \"#utility.yul\":15882:15891   */\n      dup3\n        /* \"#utility.yul\":15878:15896   */\n      add\n        /* \"#utility.yul\":15870:15896   */\n      swap1\n      pop\n        /* \"#utility.yul\":15942:15951   */\n      dup2\n        /* \"#utility.yul\":15936:15940   */\n      dup2\n        /* \"#utility.yul\":15932:15952   */\n      sub\n        /* \"#utility.yul\":15928:15929   */\n      0x00\n        /* \"#utility.yul\":15917:15926   */\n      dup4\n        /* \"#utility.yul\":15913:15930   */\n      add\n        /* \"#utility.yul\":15906:15953   */\n      mstore\n        /* \"#utility.yul\":15970:16101   */\n      tag_553\n        /* \"#utility.yul\":16096:16100   */\n      dup2\n        /* \"#utility.yul\":15970:16101   */\n      tag_395\n      jump\t// in\n    tag_553:\n        /* \"#utility.yul\":15962:16101   */\n      swap1\n      pop\n        /* \"#utility.yul\":15689:16108   */\n      swap2\n      swap1\n      pop\n      jump\t// out\n        /* \"#utility.yul\":16114:16279   */\n    tag_396:\n        /* \"#utility.yul\":16254:16271   */\n      0x616c726561647920636c61696d65640000000000000000000000000000000000\n        /* \"#utility.yul\":16250:16251   */\n      0x00\n        /* \"#utility.yul\":16242:16248   */\n      dup3\n        /* \"#utility.yul\":16238:16252   */\n      add\n        /* \"#utility.yul\":16231:16272   */\n      mstore\n        /* \"#utility.yul\":16114:16279   */\n      pop\n      jump\t// out\n        /* \"#utility.yul\":16285:16651   */\n    tag_397:\n        /* \"#utility.yul\":16427:16430   */\n      0x00\n        /* \"#utility.yul\":16448:16515   */\n      tag_556\n        /* \"#utility.yul\":16512:16514   */\n      0x0f\n        /* \"#utility.yul\":16507:16510   */\n      dup4\n        /* \"#utility.yul\":16448:16515   */\n      tag_376\n      jump\t// in\n    tag_556:\n        /* \"#utility.yul\":16441:16515   */\n      swap2\n      pop\n        /* \"#utility.yul\":16524:16617   */\n      tag_557\n        /* \"#utility.yul\":16613:16616   */\n      dup3\n        /* \"#utility.yul\":16524:16617   */\n      tag_396\n      jump\t// in\n    tag_557:\n        /* \"#utility.yul\":16642:16644   */\n      0x20\n        /* \"#utility.yul\":16637:16640   */\n      dup3\n        /* \"#utility.yul\":16633:16645   */\n      add\n        /* \"#utility.yul\":16626:16645   */\n      swap1\n      pop\n        /* \"#utility.yul\":16285:16651   */\n      swap2\n      swap1\n      pop\n      jump\t// out\n        /* \"#utility.yul\":16657:17076   */\n    tag_306:\n        /* \"#utility.yul\":16823:16827   */\n      0x00\n        /* \"#utility.yul\":16861:16863   */\n      0x20\n        /* \"#utility.yul\":16850:16859   */\n      dup3\n        /* \"#utility.yul\":16846:16864   */\n      add\n        /* \"#utility.yul\":16838:16864   */\n      swap1\n      pop\n        /* \"#utility.yul\":16910:16919   */\n      dup2\n        /* \"#utility.yul\":16904:16908   */\n      dup2\n        /* \"#utility.yul\":16900:16920   */\n      sub\n        /* \"#utility.yul\":16896:16897   */\n      0x00\n        /* \"#utility.yul\":16885:16894   */\n      dup4\n        /* \"#utility.yul\":16881:16898   */\n      add\n        /* \"#utility.yul\":16874:16921   */\n      mstore\n        /* \"#utility.yul\":16938:17069   */\n      tag_559\n        /* \"#utility.yul\":17064:17068   */\n      dup2\n        /* \"#utility.yul\":16938:17069   */\n      tag_397\n      jump\t// in\n    tag_559:\n        /* \"#utility.yul\":16930:17069   */\n      swap1\n      pop\n        /* \"#utility.yul\":16657:17076   */\n      swap2\n      swap1\n      pop\n      jump\t// out\n        /* \"#utility.yul\":17082:17241   */\n    tag_398:\n        /* \"#utility.yul\":17222:17233   */\n      0x6e6f207265776172640000000000000000000000000000000000000000000000\n        /* \"#utility.yul\":17218:17219   */\n      0x00\n        /* \"#utility.yul\":17210:17216   */\n      dup3\n        /* \"#utility.yul\":17206:17220   */\n      add\n        /* \"#utility.yul\":17199:17234   */\n      mstore\n        /* \"#utility.yul\":17082:17241   */\n      pop\n      jump\t// out\n        /* \"#utility.yul\":17247:17612   */\n    tag_399:\n        /* \"#utility.yul\":17389:17392   */\n      0x00\n        /* \"#utility.yul\":17410:17476   */\n      tag_562\n        /* \"#utility.yul\":17474:17475   */\n      0x09\n        /* \"#utility.yul\":17469:17472   */\n      dup4\n        /* \"#utility.yul\":17410:17476   */\n      tag_376\n      jump\t// in\n    tag_562:\n        /* \"#utility.yul\":17403:17476   */\n      swap2\n      pop\n        /* \"#utility.yul\":17485:17578   */\n      tag_563\n        /* \"#utility.yul\":17574:17577   */\n      dup3\n        /* \"#utility.yul\":17485:17578   */\n      tag_398\n      jump\t// in\n    tag_563:\n        /* \"#utility.yul\":17603:17605   */\n      0x20\n        /* \"#utility.yul\":17598:17601   */\n      dup3\n        /* \"#utility.yul\":17594:17606   */\n      add\n        /* \"#utility.yul\":17587:17606   */\n      swap1\n      pop\n        /* \"#utility.yul\":17247:17612   */\n      swap2\n      swap1\n      pop\n      jump\t// out\n        /* \"#utility.yul\":17618:18037   */\n    tag_322:\n        /* \"#utility.yul\":17784:17788   */\n      0x00\n        /* \"#utility.yul\":17822:17824   */\n      0x20\n        /* \"#utility.yul\":17811:17820   */\n      dup3\n        /* \"#utility.yul\":17807:17825   */\n      add\n        /* \"#utility.yul\":17799:17825   */\n      swap1\n      pop\n        /* \"#utility.yul\":17871:17880   */\n      dup2\n        /* \"#utility.yul\":17865:17869   */\n      dup2\n        /* \"#utility.yul\":17861:17881   */\n      sub\n        /* \"#utility.yul\":17857:17858   */\n      0x00\n        /* \"#utility.yul\":17846:17855   */\n      dup4\n        /* \"#utility.yul\":17842:17859   */\n      add\n        /* \"#utility.yul\":17835:17882   */\n      mstore\n        /* \"#utility.yul\":17899:18030   */\n      tag_565\n        /* \"#utility.yul\":18025:18029   */\n      dup2\n        /* \"#utility.yul\":17899:18030   */\n      tag_399\n      jump\t// in\n    tag_565:\n        /* \"#utility.yul\":17891:18030   */\n      swap1\n      pop\n        /* \"#utility.yul\":17618:18037   */\n      swap2\n      swap1\n      pop\n      jump\t// out\n        /* \"#utility.yul\":18043:18201   */\n    tag_400:\n        /* \"#utility.yul\":18183:18193   */\n      0x6e6f742074696d65000000000000000000000000000000000000000000000000\n        /* \"#utility.yul\":18179:18180   */\n      0x00\n        /* \"#utility.yul\":18171:18177   */\n      dup3\n        /* \"#utility.yul\":18167:18181   */\n      add\n        /* \"#utility.yul\":18160:18194   */\n      mstore\n        /* \"#utility.yul\":18043:18201   */\n      pop\n      jump\t// out\n        /* \"#utility.yul\":18207:18572   */\n    tag_401:\n        /* \"#utility.yul\":18349:18352   */\n      0x00\n        /* \"#utility.yul\":18370:18436   */\n      tag_568\n        /* \"#utility.yul\":18434:18435   */\n      0x08\n        /* \"#utility.yul\":18429:18432   */\n      dup4\n        /* \"#utility.yul\":18370:18436   */\n      tag_376\n      jump\t// in\n    tag_568:\n        /* \"#utility.yul\":18363:18436   */\n      swap2\n      pop\n        /* \"#utility.yul\":18445:18538   */\n      tag_569\n        /* \"#utility.yul\":18534:18537   */\n      dup3\n        /* \"#utility.yul\":18445:18538   */\n      tag_400\n      jump\t// in\n    tag_569:\n        /* \"#utility.yul\":18563:18565   */\n      0x20\n        /* \"#utility.yul\":18558:18561   */\n      dup3\n        /* \"#utility.yul\":18554:18566   */\n      add\n        /* \"#utility.yul\":18547:18566   */\n      swap1\n      pop\n        /* \"#utility.yul\":18207:18572   */\n      swap2\n      swap1\n      pop\n      jump\t// out\n        /* \"#utility.yul\":18578:18997   */\n    tag_331:\n        /* \"#utility.yul\":18744:18748   */\n      0x00\n        /* \"#utility.yul\":18782:18784   */\n      0x20\n        /* \"#utility.yul\":18771:18780   */\n      dup3\n        /* \"#utility.yul\":18767:18785   */\n      add\n        /* \"#utility.yul\":18759:18785   */\n      swap1\n      pop\n        /* \"#utility.yul\":18831:18840   */\n      dup2\n        /* \"#utility.yul\":18825:18829   */\n      dup2\n        /* \"#utility.yul\":18821:18841   */\n      sub\n        /* \"#utility.yul\":18817:18818   */\n      0x00\n        /* \"#utility.yul\":18806:18815   */\n      dup4\n        /* \"#utility.yul\":18802:18819   */\n      add\n        /* \"#utility.yul\":18795:18842   */\n      mstore\n        /* \"#utility.yul\":18859:18990   */\n      tag_571\n        /* \"#utility.yul\":18985:18989   */\n      dup2\n        /* \"#utility.yul\":18859:18990   */\n      tag_401\n      jump\t// in\n    tag_571:\n        /* \"#utility.yul\":18851:18990   */\n      swap1\n      pop\n        /* \"#utility.yul\":18578:18997   */\n      swap2\n      swap1\n      pop\n      jump\t// out\n        /* \"#utility.yul\":19003:19161   */\n    tag_402:\n        /* \"#utility.yul\":19143:19153   */\n      0x6e65772069732030000000000000000000000000000000000000000000000000\n        /* \"#utility.yul\":19139:19140   */\n      0x00\n        /* \"#utility.yul\":19131:19137   */\n      dup3\n        /* \"#utility.yul\":19127:19141   */\n      add\n        /* \"#utility.yul\":19120:19154   */\n      mstore\n        /* \"#utility.yul\":19003:19161   */\n      pop\n      jump\t// out\n        /* \"#utility.yul\":19167:19532   */\n    tag_403:\n        /* \"#utility.yul\":19309:19312   */\n      0x00\n        /* \"#utility.yul\":19330:19396   */\n      tag_574\n        /* \"#utility.yul\":19394:19395   */\n      0x08\n        /* \"#utility.yul\":19389:19392   */\n      dup4\n        /* \"#utility.yul\":19330:19396   */\n      tag_376\n      jump\t// in\n    tag_574:\n        /* \"#utility.yul\":19323:19396   */\n      swap2\n      pop\n        /* \"#utility.yul\":19405:19498   */\n      tag_575\n        /* \"#utility.yul\":19494:19497   */\n      dup3\n        /* \"#utility.yul\":19405:19498   */\n      tag_402\n      jump\t// in\n    tag_575:\n        /* \"#utility.yul\":19523:19525   */\n      0x20\n        /* \"#utility.yul\":19518:19521   */\n      dup3\n        /* \"#utility.yul\":19514:19526   */\n      add\n        /* \"#utility.yul\":19507:19526   */\n      swap1\n      pop\n        /* \"#utility.yul\":19167:19532   */\n      swap2\n      swap1\n      pop\n      jump\t// out\n        /* \"#utility.yul\":19538:19957   */\n    tag_350:\n        /* \"#utility.yul\":19704:19708   */\n      0x00\n        /* \"#utility.yul\":19742:19744   */\n      0x20\n        /* \"#utility.yul\":19731:19740   */\n      dup3\n        /* \"#utility.yul\":19727:19745   */\n      add\n        /* \"#utility.yul\":19719:19745   */\n      swap1\n      pop\n        /* \"#utility.yul\":19791:19800   */\n      dup2\n        /* \"#utility.yul\":19785:19789   */\n      dup2\n        /* \"#utility.yul\":19781:19801   */\n      sub\n        /* \"#utility.yul\":19777:19778   */\n      0x00\n        /* \"#utility.yul\":19766:19775   */\n      dup4\n        /* \"#utility.yul\":19762:19779   */\n      add\n        /* \"#utility.yul\":19755:19802   */\n      mstore\n        /* \"#utility.yul\":19819:19950   */\n      tag_577\n        /* \"#utility.yul\":19945:19949   */\n      dup2\n        /* \"#utility.yul\":19819:19950   */\n      tag_403\n      jump\t// in\n    tag_577:\n        /* \"#utility.yul\":19811:19950   */\n      swap1\n      pop\n        /* \"#utility.yul\":19538:19957   */\n      swap2\n      swap1\n      pop\n      jump\t// out\n        /* \"#utility.yul\":19963:20143   */\n    tag_357:\n        /* \"#utility.yul\":20011:20088   */\n      0x4e487b7100000000000000000000000000000000000000000000000000000000\n        /* \"#utility.yul\":20008:20009   */\n      0x00\n        /* \"#utility.yul\":20001:20089   */\n      mstore\n        /* \"#utility.yul\":20108:20112   */\n      0x01\n        /* \"#utility.yul\":20105:20106   */\n      0x04\n        /* \"#utility.yul\":20098:20113   */\n      mstore\n        /* \"#utility.yul\":20132:20136   */\n      0x24\n        /* \"#utility.yul\":20129:20130   */\n      0x00\n        /* \"#utility.yul\":20122:20137   */\n      revert\n\n    auxdata: 0xa26469706673582212203af6a9b96765460dfb644273e9c34a893c8e2c41bef33234def7f8083f83256f64736f6c63430008120033\n}\n",
				"bytecode": {
					"linkReferences": {},
					"object": "608060405273f1f8e132f0a3f720b3b204d728a8ff316b182258600160006101000a81548173ffffffffffffffffffffffffffffffffffffffff021916908373ffffffffffffffffffffffffffffffffffffffff160217905550736b6b2d8166d13b58155b8d454f239ae3691257a6600260006101000a81548173ffffffffffffffffffffffffffffffffffffffff021916908373ffffffffffffffffffffffffffffffffffffffff16021790555073b1bf470a9720f8d2e49512dbbccf7180e4ac4679600360006101000a81548173ffffffffffffffffffffffffffffffffffffffff021916908373ffffffffffffffffffffffffffffffffffffffff1602179055506107bc60045562278d006005556276a70060065562c5c1006007556103e86008556001600c60006101000a81548160ff0219169083151502179055506001600c60016101000a81548160ff02191690831515021790555034801561016657600080fd5b506000339050806000806101000a81548173ffffffffffffffffffffffffffffffffffffffff021916908373ffffffffffffffffffffffffffffffffffffffff1602179055508073ffffffffffffffffffffffffffffffffffffffff16600073ffffffffffffffffffffffffffffffffffffffff167f8be0079c531659141344cd1fd0a4f28419497f9722a3daafe3b4186f6b6457e060405160405180910390a350613689806102176000396000f3fe608060405234801561001057600080fd5b50600436106102265760003560e01c80637e55d5fe11610130578063b59c6e0e116100b8578063e53595ed1161007c578063e53595ed14610651578063e61ee2181461066f578063e650d2931461068b578063f2fde38b146106a9578063f3ef99bc146106c557610226565b8063b59c6e0e146105bf578063b88a802f146105dd578063bef4533c146105e7578063d02da76114610617578063dd8158e01461062157610226565b80639805fa74116100ff5780639805fa741461051b5780639fd3af8b1461054b578063a041e17214610555578063a6b14d5a14610585578063b3c2eac1146105a357610226565b80637e55d5fe146104a7578063853e03e5146104c35780638da5cb5b146104e157806391f6963c146104ff57610226565b8063264edc1d116101b35780636d37b382116101825780636d37b382146104055780636e9c931c1461042157806371ddda571461043d5780637929e29f1461045b5780637d4cbd571461048b57610226565b8063264edc1d1461037d57806329dc425f146103ad5780632eae667d146103dd5780633ccfd60b146103fb57610226565b8063115a972e116101fa578063115a972e146102b157806316c259e1146102e157806318883877146103115780631896b2c41461032f5780631c02e4b51461035f57610226565b80626cd2001461022b5780630356c98f146102475780630397d458146102775780630c28044414610293575b600080fd5b61024560048036038101906102409190612c85565b6106e3565b005b610261600480360381019061025c9190612d10565b6107d1565b60405161026e9190612d4c565b60405180910390f35b610291600480360381019061028c9190612d10565b6107e9565b005b61029b610911565b6040516102a89190612d4c565b60405180910390f35b6102cb60048036038101906102c69190612d10565b61091b565b6040516102d89190612d82565b60405180910390f35b6102fb60048036038101906102f69190612d10565b61093b565b6040516103089190612d4c565b60405180910390f35b610319610953565b6040516103269190612d4c565b60405180910390f35b61034960048036038101906103449190612d10565b610959565b6040516103569190612d4c565b60405180910390f35b610367610971565b6040516103749190612d4c565b60405180910390f35b61039760048036038101906103929190612d10565b610977565b6040516103a49190612dac565b60405180910390f35b6103c760048036038101906103c29190612d10565b6109aa565b6040516103d49190612d4c565b60405180910390f35b6103e5610dbb565b6040516103f29190612d4c565b60405180910390f35b610403610dc1565b005b61041f600480360381019061041a9190612d10565b610eee565b005b61043b60048036038101906104369190612dc7565b611016565b005b6104456116cb565b6040516104529190612dac565b60405180910390f35b61047560048036038101906104709190612d10565b6116f1565b6040516104829190612d4c565b60405180910390f35b6104a560048036038101906104a09190612d10565b611709565b005b6104c160048036038101906104bc9190612c85565b611894565b005b6104cb611982565b6040516104d89190612d4c565b60405180910390f35b6104e9611988565b6040516104f69190612dac565b60405180910390f35b61051960048036038101906105149190612c85565b6119b1565b005b61053560048036038101906105309190612d10565b611d14565b6040516105429190612d4c565b60405180910390f35b610553611d2c565b005b61056f600480360381019061056a9190612d10565b612000565b60405161057c9190612d4c565b60405180910390f35b61058d612018565b60405161059a9190612d4c565b60405180910390f35b6105bd60048036038101906105b89190612e46565b61201e565b005b6105c761213a565b6040516105d49190612dac565b60405180910390f35b6105e5612160565b005b61060160048036038101906105fc9190612d10565b612358565b60405161060e9190612d4c565b60405180910390f35b61061f612370565b005b61063b60048036038101906106369190612d10565b6126f9565b6040516106489190612d4c565b60405180910390f35b610659612711565b6040516106669190612dac565b60405180910390f35b61068960048036038101906106849190612e86565b612737565b005b6106936129bc565b6040516106a09190612d82565b60405180910390f35b6106c360048036038101906106be9190612d10565b6129cf565b005b6106cd612bdf565b6040516106da9190612d82565b60405180910390f35b3373ffffffffffffffffffffffffffffffffffffffff1660008054906101000a900473ffffffffffffffffffffffffffffffffffffffff1673ffffffffffffffffffffffffffffffffffffffff16148061078857503373ffffffffffffffffffffffffffffffffffffffff1660008054906101000a900473ffffffffffffffffffffffffffffffffffffffff1673ffffffffffffffffffffffffffffffffffffffff16145b6107c7576040517f08c379a00000000000000000000000000000000000000000000000000000000081526004016107be90612f85565b60405180910390fd5b8060088190555050565b60116020528060005260406000206000915090505481565b3373ffffffffffffffffffffffffffffffffffffffff1660008054906101000a900473ffffffffffffffffffffffffffffffffffffffff1673ffffffffffffffffffffffffffffffffffffffff16148061088e57503373ffffffffffffffffffffffffffffffffffffffff1660008054906101000a900473ffffffffffffffffffffffffffffffffffffffff1673ffffffffffffffffffffffffffffffffffffffff16145b6108cd576040517f08c379a00000000000000000000000000000000000000000000000000000000081526004016108c490612f85565b60405180910390fd5b80600260006101000a81548173ffffffffffffffffffffffffffffffffffffffff021916908373ffffffffffffffffffffffffffffffffffffffff16021790555050565b6000600454905090565b60136020528060005260406000206000915054906101000a900460ff1681565b600f6020528060005260406000206000915090505481565b60075481565b600b6020528060005260406000206000915090505481565b60045481565b60096020528060005260406000206000915054906101000a900473ffffffffffffffffffffffffffffffffffffffff1681565b600080601060008473ffffffffffffffffffffffffffffffffffffffff1673ffffffffffffffffffffffffffffffffffffffff16815260200190815260200160002054426109f89190612fd4565b90506000601060008573ffffffffffffffffffffffffffffffffffffffff1673ffffffffffffffffffffffffffffffffffffffff16815260200190815260200160002054148015610a8857506000600d60008573ffffffffffffffffffffffffffffffffffffffff1673ffffffffffffffffffffffffffffffffffffffff16815260200190815260200160002054115b15610adb57600f60008473ffffffffffffffffffffffffffffffffffffffff1673ffffffffffffffffffffffffffffffffffffffff1681526020019081526020016000205442610ad89190612fd4565b90505b6000600d60008573ffffffffffffffffffffffffffffffffffffffff1673ffffffffffffffffffffffffffffffffffffffff1681526020019081526020016000205403610b2c576000915050610db6565b601160008473ffffffffffffffffffffffffffffffffffffffff1673ffffffffffffffffffffffffffffffffffffffff16815260200190815260200160002054421115610cd9576000601060008573ffffffffffffffffffffffffffffffffffffffff1673ffffffffffffffffffffffffffffffffffffffff1681526020019081526020016000205403610c4b57600f60008473ffffffffffffffffffffffffffffffffffffffff1673ffffffffffffffffffffffffffffffffffffffff16815260200190815260200160002054601160008573ffffffffffffffffffffffffffffffffffffffff1673ffffffffffffffffffffffffffffffffffffffff16815260200190815260200160002054610c449190612fd4565b9050610cd8565b601060008473ffffffffffffffffffffffffffffffffffffffff1673ffffffffffffffffffffffffffffffffffffffff16815260200190815260200160002054601160008573ffffffffffffffffffffffffffffffffffffffff1673ffffffffffffffffffffffffffffffffffffffff16815260200190815260200160002054610cd59190612fd4565b90505b5b601160008473ffffffffffffffffffffffffffffffffffffffff1673ffffffffffffffffffffffffffffffffffffffff16815260200190815260200160002054601060008573ffffffffffffffffffffffffffffffffffffffff1673ffffffffffffffffffffffffffffffffffffffff168152602001908152602001600020541115610d69576000915050610db6565b610db281601260008673ffffffffffffffffffffffffffffffffffffffff1673ffffffffffffffffffffffffffffffffffffffff16815260200190815260200160002054612bf2565b9150505b919050565b60085481565b3373ffffffffffffffffffffffffffffffffffffffff1660008054906101000a900473ffffffffffffffffffffffffffffffffffffffff1673ffffffffffffffffffffffffffffffffffffffff161480610e6657503373ffffffffffffffffffffffffffffffffffffffff1660008054906101000a900473ffffffffffffffffffffffffffffffffffffffff1673ffffffffffffffffffffffffffffffffffffffff16145b610ea5576040517f08c379a0000000000000000000000000000000000000000000000000000000008152600401610e9c90612f85565b60405180910390fd5b3373ffffffffffffffffffffffffffffffffffffffff166108fc479081150290604051600060405180830381858888f19350505050158015610eeb573d6000803e3d6000fd5b50565b3373ffffffffffffffffffffffffffffffffffffffff1660008054906101000a900473ffffffffffffffffffffffffffffffffffffffff1673ffffffffffffffffffffffffffffffffffffffff161480610f9357503373ffffffffffffffffffffffffffffffffffffffff1660008054906101000a900473ffffffffffffffffffffffffffffffffffffffff1673ffffffffffffffffffffffffffffffffffffffff16145b610fd2576040517f08c379a0000000000000000000000000000000000000000000000000000000008152600401610fc990612f85565b60405180910390fd5b80600360006101000a81548173ffffffffffffffffffffffffffffffffffffffff021916908373ffffffffffffffffffffffffffffffffffffffff16021790555050565b600c60009054906101000a900460ff16611065576040517f08c379a000000000000000000000000000000000000000000000000000000000815260040161105c90613054565b60405180910390fd5b3373ffffffffffffffffffffffffffffffffffffffff168273ffffffffffffffffffffffffffffffffffffffff16036110d3576040517f08c379a00000000000000000000000000000000000000000000000000000000081526004016110ca906130c0565b60405180910390fd5b6000600d60003373ffffffffffffffffffffffffffffffffffffffff1673ffffffffffffffffffffffffffffffffffffffff1681526020019081526020016000205414611155576040517f08c379a000000000000000000000000000000000000000000000000000000000815260040161114c9061312c565b60405180910390fd5b60008311611198576040517f08c379a000000000000000000000000000000000000000000000000000000000815260040161118f90613198565b60405180910390fd5b6005548114806111a9575060065481145b806111b5575060075481145b6111f4576040517f08c379a00000000000000000000000000000000000000000000000000000000081526004016111eb90613204565b60405180910390fd5b6000806111ff610911565b905060055483036112505761124961124161123961123261122a6112248a6008612bf2565b86612bf2565b600854612bf2565b6064612c34565b6103e8612c34565b600554612c34565b91506112ec565b600654830361129f576112986112906112886112816112796112738a600d612bf2565b86612bf2565b600854612bf2565b6064612c34565b6103e8612c34565b600554612c34565b91506112eb565b60075483036112ea576112e76112df6112d76112d06112c86112c28a6010612bf2565b86612bf2565b600854612bf2565b6064612c34565b6103e8612c34565b600554612c34565b91505b5b5b600073ffffffffffffffffffffffffffffffffffffffff168473ffffffffffffffffffffffffffffffffffffffff161461147e5783600960003373ffffffffffffffffffffffffffffffffffffffff1673ffffffffffffffffffffffffffffffffffffffff16815260200190815260200160002060006101000a81548173ffffffffffffffffffffffffffffffffffffffff021916908373ffffffffffffffffffffffffffffffffffffffff160217905550620186a0600854600587846113b39190613224565b6113bd9190613224565b6113c79190613224565b6113d19190613295565b600a60008673ffffffffffffffffffffffffffffffffffffffff1673ffffffffffffffffffffffffffffffffffffffff168152602001908152602001600020600082825461141f91906132c6565b925050819055506001600b60008673ffffffffffffffffffffffffffffffffffffffff1673ffffffffffffffffffffffffffffffffffffffff168152602001908152602001600020600082825461147691906132c6565b925050819055505b600260009054906101000a900473ffffffffffffffffffffffffffffffffffffffff1673ffffffffffffffffffffffffffffffffffffffff166323b872dd3330886040518463ffffffff1660e01b81526004016114dd939291906132fa565b6020604051808303816000875af11580156114fc573d6000803e3d6000fd5b505050506040513d601f19601f820116820180604052508101906115209190613346565b5084600d60003373ffffffffffffffffffffffffffffffffffffffff1673ffffffffffffffffffffffffffffffffffffffff1681526020019081526020016000208190555042600f60003373ffffffffffffffffffffffffffffffffffffffff1673ffffffffffffffffffffffffffffffffffffffff1681526020019081526020016000208190555042601060003373ffffffffffffffffffffffffffffffffffffffff1673ffffffffffffffffffffffffffffffffffffffff1681526020019081526020016000208190555082426115f991906132c6565b601160003373ffffffffffffffffffffffffffffffffffffffff1673ffffffffffffffffffffffffffffffffffffffff1681526020019081526020016000208190555082600e60003373ffffffffffffffffffffffffffffffffffffffff1673ffffffffffffffffffffffffffffffffffffffff1681526020019081526020016000208190555081601260003373ffffffffffffffffffffffffffffffffffffffff1673ffffffffffffffffffffffffffffffffffffffff168152602001908152602001600020819055505050505050565b600260009054906101000a900473ffffffffffffffffffffffffffffffffffffffff1681565b60106020528060005260406000206000915090505481565b3373ffffffffffffffffffffffffffffffffffffffff1660008054906101000a900473ffffffffffffffffffffffffffffffffffffffff1673ffffffffffffffffffffffffffffffffffffffff1614806117ae57503373ffffffffffffffffffffffffffffffffffffffff1660008054906101000a900473ffffffffffffffffffffffffffffffffffffffff1673ffffffffffffffffffffffffffffffffffffffff16145b6117ed576040517f08c379a00000000000000000000000000000000000000000000000000000000081526004016117e490612f85565b60405180910390fd5b601360008273ffffffffffffffffffffffffffffffffffffffff1673ffffffffffffffffffffffffffffffffffffffff16815260200190815260200160002060009054906101000a900460ff1615601360008373ffffffffffffffffffffffffffffffffffffffff1673ffffffffffffffffffffffffffffffffffffffff16815260200190815260200160002060006101000a81548160ff02191690831515021790555050565b3373ffffffffffffffffffffffffffffffffffffffff1660008054906101000a900473ffffffffffffffffffffffffffffffffffffffff1673ffffffffffffffffffffffffffffffffffffffff16148061193957503373ffffffffffffffffffffffffffffffffffffffff1660008054906101000a900473ffffffffffffffffffffffffffffffffffffffff1673ffffffffffffffffffffffffffffffffffffffff16145b611978576040517f08c379a000000000000000000000000000000000000000000000000000000000815260040161196f90612f85565b60405180910390fd5b8060048190555050565b60065481565b60008060009054906101000a900473ffffffffffffffffffffffffffffffffffffffff16905090565b3373ffffffffffffffffffffffffffffffffffffffff1660008054906101000a900473ffffffffffffffffffffffffffffffffffffffff1673ffffffffffffffffffffffffffffffffffffffff161480611a5657503373ffffffffffffffffffffffffffffffffffffffff1660008054906101000a900473ffffffffffffffffffffffffffffffffffffffff1673ffffffffffffffffffffffffffffffffffffffff16145b611a95576040517f08c379a0000000000000000000000000000000000000000000000000000000008152600401611a8c90612f85565b60405180910390fd5b6000600d60003373ffffffffffffffffffffffffffffffffffffffff1673ffffffffffffffffffffffffffffffffffffffff1681526020019081526020016000205411611b17576040517f08c379a0000000000000000000000000000000000000000000000000000000008152600401611b0e906133bf565b60405180910390fd5b600260009054906101000a900473ffffffffffffffffffffffffffffffffffffffff1673ffffffffffffffffffffffffffffffffffffffff1663a9059cbb33836040518363ffffffff1660e01b8152600401611b749291906133df565b6020604051808303816000875af1158015611b93573d6000803e3d6000fd5b505050506040513d601f19601f82011682018060405250810190611bb79190613346565b506000600d60003373ffffffffffffffffffffffffffffffffffffffff1673ffffffffffffffffffffffffffffffffffffffff168152602001908152602001600020819055506000600f60003373ffffffffffffffffffffffffffffffffffffffff1673ffffffffffffffffffffffffffffffffffffffff168152602001908152602001600020819055506000601160003373ffffffffffffffffffffffffffffffffffffffff1673ffffffffffffffffffffffffffffffffffffffff168152602001908152602001600020819055506000600e60003373ffffffffffffffffffffffffffffffffffffffff1673ffffffffffffffffffffffffffffffffffffffff168152602001908152602001600020819055506000601260003373ffffffffffffffffffffffffffffffffffffffff1673ffffffffffffffffffffffffffffffffffffffff1681526020019081526020016000208190555050565b600d6020528060005260406000206000915090505481565b600c60019054906101000a900460ff16611d7b576040517f08c379a0000000000000000000000000000000000000000000000000000000008152600401611d7290613054565b60405180910390fd5b6000600d60003373ffffffffffffffffffffffffffffffffffffffff1673ffffffffffffffffffffffffffffffffffffffff1681526020019081526020016000205411611dfd576040517f08c379a0000000000000000000000000000000000000000000000000000000008152600401611df4906133bf565b60405180910390fd5b601360003373ffffffffffffffffffffffffffffffffffffffff1673ffffffffffffffffffffffffffffffffffffffff16815260200190815260200160002060009054906101000a900460ff1615611e8a576040517f08c379a0000000000000000000000000000000000000000000000000000000008152600401611e8190613454565b60405180910390fd5b42601060003373ffffffffffffffffffffffffffffffffffffffff1673ffffffffffffffffffffffffffffffffffffffff1681526020019081526020016000205410611f0b576040517f08c379a0000000000000000000000000000000000000000000000000000000008152600401611f02906134c0565b60405180910390fd5b6000611f16336109aa565b905042601060003373ffffffffffffffffffffffffffffffffffffffff1673ffffffffffffffffffffffffffffffffffffffff16815260200190815260200160002081905550600160009054906101000a900473ffffffffffffffffffffffffffffffffffffffff1673ffffffffffffffffffffffffffffffffffffffff1663a9059cbb33836040518363ffffffff1660e01b8152600401611fb99291906133df565b6020604051808303816000875af1158015611fd8573d6000803e3d6000fd5b505050506040513d601f19601f82011682018060405250810190611ffc9190613346565b5050565b600e6020528060005260406000206000915090505481565b60055481565b3373ffffffffffffffffffffffffffffffffffffffff1660008054906101000a900473ffffffffffffffffffffffffffffffffffffffff1673ffffffffffffffffffffffffffffffffffffffff1614806120c357503373ffffffffffffffffffffffffffffffffffffffff1660008054906101000a900473ffffffffffffffffffffffffffffffffffffffff1673ffffffffffffffffffffffffffffffffffffffff16145b612102576040517f08c379a00000000000000000000000000000000000000000000000000000000081526004016120f990612f85565b60405180910390fd5b81600c60006101000a81548160ff02191690831515021790555080600c60016101000a81548160ff0219169083151502179055505050565b600160009054906101000a900473ffffffffffffffffffffffffffffffffffffffff1681565b600c60019054906101000a900460ff166121af576040517f08c379a00000000000000000000000000000000000000000000000000000000081526004016121a690613054565b60405180910390fd5b6000600a60003373ffffffffffffffffffffffffffffffffffffffff1673ffffffffffffffffffffffffffffffffffffffff1681526020019081526020016000205411612231576040517f08c379a00000000000000000000000000000000000000000000000000000000081526004016122289061352c565b60405180910390fd5b600160009054906101000a900473ffffffffffffffffffffffffffffffffffffffff1673ffffffffffffffffffffffffffffffffffffffff1663a9059cbb33600a60003373ffffffffffffffffffffffffffffffffffffffff1673ffffffffffffffffffffffffffffffffffffffff168152602001908152602001600020546040518363ffffffff1660e01b81526004016122cd9291906133df565b6020604051808303816000875af11580156122ec573d6000803e3d6000fd5b505050506040513d601f19601f820116820180604052508101906123109190613346565b506000600a60003373ffffffffffffffffffffffffffffffffffffffff1673ffffffffffffffffffffffffffffffffffffffff16815260200190815260200160002081905550565b60126020528060005260406000206000915090505481565b600e60003373ffffffffffffffffffffffffffffffffffffffff1673ffffffffffffffffffffffffffffffffffffffff16815260200190815260200160002054600f60003373ffffffffffffffffffffffffffffffffffffffff1673ffffffffffffffffffffffffffffffffffffffff16815260200190815260200160002054426123fb9190612fd4565b101561243c576040517f08c379a000000000000000000000000000000000000000000000000000000000815260040161243390613598565b60405180910390fd5b6000600d60003373ffffffffffffffffffffffffffffffffffffffff1673ffffffffffffffffffffffffffffffffffffffff16815260200190815260200160002054116124be576040517f08c379a00000000000000000000000000000000000000000000000000000000081526004016124b5906133bf565b60405180910390fd5b600260009054906101000a900473ffffffffffffffffffffffffffffffffffffffff1673ffffffffffffffffffffffffffffffffffffffff1663a9059cbb33600d60003373ffffffffffffffffffffffffffffffffffffffff1673ffffffffffffffffffffffffffffffffffffffff168152602001908152602001600020546040518363ffffffff1660e01b815260040161255a9291906133df565b6020604051808303816000875af1158015612579573d6000803e3d6000fd5b505050506040513d601f19601f8201168201806040525081019061259d9190613346565b506000600d60003373ffffffffffffffffffffffffffffffffffffffff1673ffffffffffffffffffffffffffffffffffffffff168152602001908152602001600020819055506000600f60003373ffffffffffffffffffffffffffffffffffffffff1673ffffffffffffffffffffffffffffffffffffffff168152602001908152602001600020819055506000601160003373ffffffffffffffffffffffffffffffffffffffff1673ffffffffffffffffffffffffffffffffffffffff168152602001908152602001600020819055506000600e60003373ffffffffffffffffffffffffffffffffffffffff1673ffffffffffffffffffffffffffffffffffffffff168152602001908152602001600020819055506000601260003373ffffffffffffffffffffffffffffffffffffffff1673ffffffffffffffffffffffffffffffffffffffff16815260200190815260200160002081905550565b600a6020528060005260406000206000915090505481565b600360009054906101000a900473ffffffffffffffffffffffffffffffffffffffff1681565b3373ffffffffffffffffffffffffffffffffffffffff1660008054906101000a900473ffffffffffffffffffffffffffffffffffffffff1673ffffffffffffffffffffffffffffffffffffffff1614806127dc57503373ffffffffffffffffffffffffffffffffffffffff1660008054906101000a900473ffffffffffffffffffffffffffffffffffffffff1673ffffffffffffffffffffffffffffffffffffffff16145b61281b576040517f08c379a000000000000000000000000000000000000000000000000000000000815260040161281290612f85565b60405180910390fd5b85600d60008973ffffffffffffffffffffffffffffffffffffffff1673ffffffffffffffffffffffffffffffffffffffff1681526020019081526020016000208190555084600e60008973ffffffffffffffffffffffffffffffffffffffff1673ffffffffffffffffffffffffffffffffffffffff1681526020019081526020016000208190555083600f60008973ffffffffffffffffffffffffffffffffffffffff1673ffffffffffffffffffffffffffffffffffffffff1681526020019081526020016000208190555082601060008973ffffffffffffffffffffffffffffffffffffffff1673ffffffffffffffffffffffffffffffffffffffff1681526020019081526020016000208190555081601260008973ffffffffffffffffffffffffffffffffffffffff1673ffffffffffffffffffffffffffffffffffffffff1681526020019081526020016000208190555080601160008973ffffffffffffffffffffffffffffffffffffffff1673ffffffffffffffffffffffffffffffffffffffff1681526020019081526020016000208190555050505050505050565b600c60019054906101000a900460ff1681565b3373ffffffffffffffffffffffffffffffffffffffff1660008054906101000a900473ffffffffffffffffffffffffffffffffffffffff1673ffffffffffffffffffffffffffffffffffffffff161480612a7457503373ffffffffffffffffffffffffffffffffffffffff1660008054906101000a900473ffffffffffffffffffffffffffffffffffffffff1673ffffffffffffffffffffffffffffffffffffffff16145b612ab3576040517f08c379a0000000000000000000000000000000000000000000000000000000008152600401612aaa90612f85565b60405180910390fd5b600073ffffffffffffffffffffffffffffffffffffffff168173ffffffffffffffffffffffffffffffffffffffff1603612b22576040517f08c379a0000000000000000000000000000000000000000000000000000000008152600401612b1990613604565b60405180910390fd5b8073ffffffffffffffffffffffffffffffffffffffff1660008054906101000a900473ffffffffffffffffffffffffffffffffffffffff1673ffffffffffffffffffffffffffffffffffffffff167f8be0079c531659141344cd1fd0a4f28419497f9722a3daafe3b4186f6b6457e060405160405180910390a3806000806101000a81548173ffffffffffffffffffffffffffffffffffffffff021916908373ffffffffffffffffffffffffffffffffffffffff16021790555050565b600c60009054906101000a900460ff1681565b6000808303612c045760009050612c2e565b8183612c109190613224565b9050818382612c1f9190613295565b14612c2d57612c2c613624565b5b5b92915050565b60008183612c429190613295565b905092915050565b600080fd5b6000819050919050565b612c6281612c4f565b8114612c6d57600080fd5b50565b600081359050612c7f81612c59565b92915050565b600060208284031215612c9b57612c9a612c4a565b5b6000612ca984828501612c70565b91505092915050565b600073ffffffffffffffffffffffffffffffffffffffff82169050919050565b6000612cdd82612cb2565b9050919050565b612ced81612cd2565b8114612cf857600080fd5b50565b600081359050612d0a81612ce4565b92915050565b600060208284031215612d2657612d25612c4a565b5b6000612d3484828501612cfb565b91505092915050565b612d4681612c4f565b82525050565b6000602082019050612d616000830184612d3d565b92915050565b60008115159050919050565b612d7c81612d67565b82525050565b6000602082019050612d976000830184612d73565b92915050565b612da681612cd2565b82525050565b6000602082019050612dc16000830184612d9d565b92915050565b600080600060608486031215612de057612ddf612c4a565b5b6000612dee86828701612c70565b9350506020612dff86828701612cfb565b9250506040612e1086828701612c70565b9150509250925092565b612e2381612d67565b8114612e2e57600080fd5b50565b600081359050612e4081612e1a565b92915050565b60008060408385031215612e5d57612e5c612c4a565b5b6000612e6b85828601612e31565b9250506020612e7c85828601612e31565b9150509250929050565b600080600080600080600060e0888a031215612ea557612ea4612c4a565b5b6000612eb38a828b01612cfb565b9750506020612ec48a828b01612c70565b9650506040612ed58a828b01612c70565b9550506060612ee68a828b01612c70565b9450506080612ef78a828b01612c70565b93505060a0612f088a828b01612c70565b92505060c0612f198a828b01612c70565b91505092959891949750929550565b600082825260208201905092915050565b7f216f776e65720000000000000000000000000000000000000000000000000000600082015250565b6000612f6f600683612f28565b9150612f7a82612f39565b602082019050919050565b60006020820190508181036000830152612f9e81612f62565b9050919050565b7f4e487b7100000000000000000000000000000000000000000000000000000000600052601160045260246000fd5b6000612fdf82612c4f565b9150612fea83612c4f565b925082820390508181111561300257613001612fa5565b5b92915050565b7f6e6f742073746172740000000000000000000000000000000000000000000000600082015250565b600061303e600983612f28565b915061304982613008565b602082019050919050565b6000602082019050818103600083015261306d81613031565b9050919050565b7f696e76697465722063616e742062792073656c66000000000000000000000000600082015250565b60006130aa601483612f28565b91506130b582613074565b602082019050919050565b600060208201905081810360008301526130d98161309d565b9050919050565b7f616c7265616479207374616b6500000000000000000000000000000000000000600082015250565b6000613116600d83612f28565b9150613121826130e0565b602082019050919050565b6000602082019050818103600083015261314581613109565b9050919050565b7f7a65726f207374616b6500000000000000000000000000000000000000000000600082015250565b6000613182600a83612f28565b915061318d8261314c565b602082019050919050565b600060208201905081810360008301526131b181613175565b9050919050565b7f6e6f742072696768742074696d65000000000000000000000000000000000000600082015250565b60006131ee600e83612f28565b91506131f9826131b8565b602082019050919050565b6000602082019050818103600083015261321d816131e1565b9050919050565b600061322f82612c4f565b915061323a83612c4f565b925082820261324881612c4f565b9150828204841483151761325f5761325e612fa5565b5b5092915050565b7f4e487b7100000000000000000000000000000000000000000000000000000000600052601260045260246000fd5b60006132a082612c4f565b91506132ab83612c4f565b9250826132bb576132ba613266565b5b828204905092915050565b60006132d182612c4f565b91506132dc83612c4f565b92508282019050808211156132f4576132f3612fa5565b5b92915050565b600060608201905061330f6000830186612d9d565b61331c6020830185612d9d565b6133296040830184612d3d565b949350505050565b60008151905061334081612e1a565b92915050565b60006020828403121561335c5761335b612c4a565b5b600061336a84828501613331565b91505092915050565b7f6e6f74207374616b650000000000000000000000000000000000000000000000600082015250565b60006133a9600983612f28565b91506133b482613373565b602082019050919050565b600060208201905081810360008301526133d88161339c565b9050919050565b60006040820190506133f46000830185612d9d565b6134016020830184612d3d565b9392505050565b7f7573657220697320696e20626c61636b6c697374000000000000000000000000600082015250565b600061343e601483612f28565b915061344982613408565b602082019050919050565b6000602082019050818103600083015261346d81613431565b9050919050565b7f616c726561647920636c61696d65640000000000000000000000000000000000600082015250565b60006134aa600f83612f28565b91506134b582613474565b602082019050919050565b600060208201905081810360008301526134d98161349d565b9050919050565b7f6e6f207265776172640000000000000000000000000000000000000000000000600082015250565b6000613516600983612f28565b9150613521826134e0565b602082019050919050565b6000602082019050818103600083015261354581613509565b9050919050565b7f6e6f742074696d65000000000000000000000000000000000000000000000000600082015250565b6000613582600883612f28565b915061358d8261354c565b602082019050919050565b600060208201905081810360008301526135b181613575565b9050919050565b7f6e65772069732030000000000000000000000000000000000000000000000000600082015250565b60006135ee600883612f28565b91506135f9826135b8565b602082019050919050565b6000602082019050818103600083015261361d816135e1565b9050919050565b7f4e487b7100000000000000000000000000000000000000000000000000000000600052600160045260246000fdfea26469706673582212203af6a9b96765460dfb644273e9c34a893c8e2c41bef33234def7f8083f83256f64736f6c63430008120033",
					"opcodes": "PUSH1 0x80 PUSH1 0x40 MSTORE PUSH20 0xF1F8E132F0A3F720B3B204D728A8FF316B182258 PUSH1 0x1 PUSH1 0x0 PUSH2 0x100 EXP DUP2 SLOAD DUP2 PUSH20 0xFFFFFFFFFFFFFFFFFFFFFFFFFFFFFFFFFFFFFFFF MUL NOT AND SWAP1 DUP4 PUSH20 0xFFFFFFFFFFFFFFFFFFFFFFFFFFFFFFFFFFFFFFFF AND MUL OR SWAP1 SSTORE POP PUSH20 0x6B6B2D8166D13B58155B8D454F239AE3691257A6 PUSH1 0x2 PUSH1 0x0 PUSH2 0x100 EXP DUP2 SLOAD DUP2 PUSH20 0xFFFFFFFFFFFFFFFFFFFFFFFFFFFFFFFFFFFFFFFF MUL NOT AND SWAP1 DUP4 PUSH20 0xFFFFFFFFFFFFFFFFFFFFFFFFFFFFFFFFFFFFFFFF AND MUL OR SWAP1 SSTORE POP PUSH20 0xB1BF470A9720F8D2E49512DBBCCF7180E4AC4679 PUSH1 0x3 PUSH1 0x0 PUSH2 0x100 EXP DUP2 SLOAD DUP2 PUSH20 0xFFFFFFFFFFFFFFFFFFFFFFFFFFFFFFFFFFFFFFFF MUL NOT AND SWAP1 DUP4 PUSH20 0xFFFFFFFFFFFFFFFFFFFFFFFFFFFFFFFFFFFFFFFF AND MUL OR SWAP1 SSTORE POP PUSH2 0x7BC PUSH1 0x4 SSTORE PUSH3 0x278D00 PUSH1 0x5 SSTORE PUSH3 0x76A700 PUSH1 0x6 SSTORE PUSH3 0xC5C100 PUSH1 0x7 SSTORE PUSH2 0x3E8 PUSH1 0x8 SSTORE PUSH1 0x1 PUSH1 0xC PUSH1 0x0 PUSH2 0x100 EXP DUP2 SLOAD DUP2 PUSH1 0xFF MUL NOT AND SWAP1 DUP4 ISZERO ISZERO MUL OR SWAP1 SSTORE POP PUSH1 0x1 PUSH1 0xC PUSH1 0x1 PUSH2 0x100 EXP DUP2 SLOAD DUP2 PUSH1 0xFF MUL NOT AND SWAP1 DUP4 ISZERO ISZERO MUL OR SWAP1 SSTORE POP CALLVALUE DUP1 ISZERO PUSH2 0x166 JUMPI PUSH1 0x0 DUP1 REVERT JUMPDEST POP PUSH1 0x0 CALLER SWAP1 POP DUP1 PUSH1 0x0 DUP1 PUSH2 0x100 EXP DUP2 SLOAD DUP2 PUSH20 0xFFFFFFFFFFFFFFFFFFFFFFFFFFFFFFFFFFFFFFFF MUL NOT AND SWAP1 DUP4 PUSH20 0xFFFFFFFFFFFFFFFFFFFFFFFFFFFFFFFFFFFFFFFF AND MUL OR SWAP1 SSTORE POP DUP1 PUSH20 0xFFFFFFFFFFFFFFFFFFFFFFFFFFFFFFFFFFFFFFFF AND PUSH1 0x0 PUSH20 0xFFFFFFFFFFFFFFFFFFFFFFFFFFFFFFFFFFFFFFFF AND PUSH32 0x8BE0079C531659141344CD1FD0A4F28419497F9722A3DAAFE3B4186F6B6457E0 PUSH1 0x40 MLOAD PUSH1 0x40 MLOAD DUP1 SWAP2 SUB SWAP1 LOG3 POP PUSH2 0x3689 DUP1 PUSH2 0x217 PUSH1 0x0 CODECOPY PUSH1 0x0 RETURN INVALID PUSH1 0x80 PUSH1 0x40 MSTORE CALLVALUE DUP1 ISZERO PUSH2 0x10 JUMPI PUSH1 0x0 DUP1 REVERT JUMPDEST POP PUSH1 0x4 CALLDATASIZE LT PUSH2 0x226 JUMPI PUSH1 0x0 CALLDATALOAD PUSH1 0xE0 SHR DUP1 PUSH4 0x7E55D5FE GT PUSH2 0x130 JUMPI DUP1 PUSH4 0xB59C6E0E GT PUSH2 0xB8 JUMPI DUP1 PUSH4 0xE53595ED GT PUSH2 0x7C JUMPI DUP1 PUSH4 0xE53595ED EQ PUSH2 0x651 JUMPI DUP1 PUSH4 0xE61EE218 EQ PUSH2 0x66F JUMPI DUP1 PUSH4 0xE650D293 EQ PUSH2 0x68B JUMPI DUP1 PUSH4 0xF2FDE38B EQ PUSH2 0x6A9 JUMPI DUP1 PUSH4 0xF3EF99BC EQ PUSH2 0x6C5 JUMPI PUSH2 0x226 JUMP JUMPDEST DUP1 PUSH4 0xB59C6E0E EQ PUSH2 0x5BF JUMPI DUP1 PUSH4 0xB88A802F EQ PUSH2 0x5DD JUMPI DUP1 PUSH4 0xBEF4533C EQ PUSH2 0x5E7 JUMPI DUP1 PUSH4 0xD02DA761 EQ PUSH2 0x617 JUMPI DUP1 PUSH4 0xDD8158E0 EQ PUSH2 0x621 JUMPI PUSH2 0x226 JUMP JUMPDEST DUP1 PUSH4 0x9805FA74 GT PUSH2 0xFF JUMPI DUP1 PUSH4 0x9805FA74 EQ PUSH2 0x51B JUMPI DUP1 PUSH4 0x9FD3AF8B EQ PUSH2 0x54B JUMPI DUP1 PUSH4 0xA041E172 EQ PUSH2 0x555 JUMPI DUP1 PUSH4 0xA6B14D5A EQ PUSH2 0x585 JUMPI DUP1 PUSH4 0xB3C2EAC1 EQ PUSH2 0x5A3 JUMPI PUSH2 0x226 JUMP JUMPDEST DUP1 PUSH4 0x7E55D5FE EQ PUSH2 0x4A7 JUMPI DUP1 PUSH4 0x853E03E5 EQ PUSH2 0x4C3 JUMPI DUP1 PUSH4 0x8DA5CB5B EQ PUSH2 0x4E1 JUMPI DUP1 PUSH4 0x91F6963C EQ PUSH2 0x4FF JUMPI PUSH2 0x226 JUMP JUMPDEST DUP1 PUSH4 0x264EDC1D GT PUSH2 0x1B3 JUMPI DUP1 PUSH4 0x6D37B382 GT PUSH2 0x182 JUMPI DUP1 PUSH4 0x6D37B382 EQ PUSH2 0x405 JUMPI DUP1 PUSH4 0x6E9C931C EQ PUSH2 0x421 JUMPI DUP1 PUSH4 0x71DDDA57 EQ PUSH2 0x43D JUMPI DUP1 PUSH4 0x7929E29F EQ PUSH2 0x45B JUMPI DUP1 PUSH4 0x7D4CBD57 EQ PUSH2 0x48B JUMPI PUSH2 0x226 JUMP JUMPDEST DUP1 PUSH4 0x264EDC1D EQ PUSH2 0x37D JUMPI DUP1 PUSH4 0x29DC425F EQ PUSH2 0x3AD JUMPI DUP1 PUSH4 0x2EAE667D EQ PUSH2 0x3DD JUMPI DUP1 PUSH4 0x3CCFD60B EQ PUSH2 0x3FB JUMPI PUSH2 0x226 JUMP JUMPDEST DUP1 PUSH4 0x115A972E GT PUSH2 0x1FA JUMPI DUP1 PUSH4 0x115A972E EQ PUSH2 0x2B1 JUMPI DUP1 PUSH4 0x16C259E1 EQ PUSH2 0x2E1 JUMPI DUP1 PUSH4 0x18883877 EQ PUSH2 0x311 JUMPI DUP1 PUSH4 0x1896B2C4 EQ PUSH2 0x32F JUMPI DUP1 PUSH4 0x1C02E4B5 EQ PUSH2 0x35F JUMPI PUSH2 0x226 JUMP JUMPDEST DUP1 PUSH3 0x6CD200 EQ PUSH2 0x22B JUMPI DUP1 PUSH4 0x356C98F EQ PUSH2 0x247 JUMPI DUP1 PUSH4 0x397D458 EQ PUSH2 0x277 JUMPI DUP1 PUSH4 0xC280444 EQ PUSH2 0x293 JUMPI JUMPDEST PUSH1 0x0 DUP1 REVERT JUMPDEST PUSH2 0x245 PUSH1 0x4 DUP1 CALLDATASIZE SUB DUP2 ADD SWAP1 PUSH2 0x240 SWAP2 SWAP1 PUSH2 0x2C85 JUMP JUMPDEST PUSH2 0x6E3 JUMP JUMPDEST STOP JUMPDEST PUSH2 0x261 PUSH1 0x4 DUP1 CALLDATASIZE SUB DUP2 ADD SWAP1 PUSH2 0x25C SWAP2 SWAP1 PUSH2 0x2D10 JUMP JUMPDEST PUSH2 0x7D1 JUMP JUMPDEST PUSH1 0x40 MLOAD PUSH2 0x26E SWAP2 SWAP1 PUSH2 0x2D4C JUMP JUMPDEST PUSH1 0x40 MLOAD DUP1 SWAP2 SUB SWAP1 RETURN JUMPDEST PUSH2 0x291 PUSH1 0x4 DUP1 CALLDATASIZE SUB DUP2 ADD SWAP1 PUSH2 0x28C SWAP2 SWAP1 PUSH2 0x2D10 JUMP JUMPDEST PUSH2 0x7E9 JUMP JUMPDEST STOP JUMPDEST PUSH2 0x29B PUSH2 0x911 JUMP JUMPDEST PUSH1 0x40 MLOAD PUSH2 0x2A8 SWAP2 SWAP1 PUSH2 0x2D4C JUMP JUMPDEST PUSH1 0x40 MLOAD DUP1 SWAP2 SUB SWAP1 RETURN JUMPDEST PUSH2 0x2CB PUSH1 0x4 DUP1 CALLDATASIZE SUB DUP2 ADD SWAP1 PUSH2 0x2C6 SWAP2 SWAP1 PUSH2 0x2D10 JUMP JUMPDEST PUSH2 0x91B JUMP JUMPDEST PUSH1 0x40 MLOAD PUSH2 0x2D8 SWAP2 SWAP1 PUSH2 0x2D82 JUMP JUMPDEST PUSH1 0x40 MLOAD DUP1 SWAP2 SUB SWAP1 RETURN JUMPDEST PUSH2 0x2FB PUSH1 0x4 DUP1 CALLDATASIZE SUB DUP2 ADD SWAP1 PUSH2 0x2F6 SWAP2 SWAP1 PUSH2 0x2D10 JUMP JUMPDEST PUSH2 0x93B JUMP JUMPDEST PUSH1 0x40 MLOAD PUSH2 0x308 SWAP2 SWAP1 PUSH2 0x2D4C JUMP JUMPDEST PUSH1 0x40 MLOAD DUP1 SWAP2 SUB SWAP1 RETURN JUMPDEST PUSH2 0x319 PUSH2 0x953 JUMP JUMPDEST PUSH1 0x40 MLOAD PUSH2 0x326 SWAP2 SWAP1 PUSH2 0x2D4C JUMP JUMPDEST PUSH1 0x40 MLOAD DUP1 SWAP2 SUB SWAP1 RETURN JUMPDEST PUSH2 0x349 PUSH1 0x4 DUP1 CALLDATASIZE SUB DUP2 ADD SWAP1 PUSH2 0x344 SWAP2 SWAP1 PUSH2 0x2D10 JUMP JUMPDEST PUSH2 0x959 JUMP JUMPDEST PUSH1 0x40 MLOAD PUSH2 0x356 SWAP2 SWAP1 PUSH2 0x2D4C JUMP JUMPDEST PUSH1 0x40 MLOAD DUP1 SWAP2 SUB SWAP1 RETURN JUMPDEST PUSH2 0x367 PUSH2 0x971 JUMP JUMPDEST PUSH1 0x40 MLOAD PUSH2 0x374 SWAP2 SWAP1 PUSH2 0x2D4C JUMP JUMPDEST PUSH1 0x40 MLOAD DUP1 SWAP2 SUB SWAP1 RETURN JUMPDEST PUSH2 0x397 PUSH1 0x4 DUP1 CALLDATASIZE SUB DUP2 ADD SWAP1 PUSH2 0x392 SWAP2 SWAP1 PUSH2 0x2D10 JUMP JUMPDEST PUSH2 0x977 JUMP JUMPDEST PUSH1 0x40 MLOAD PUSH2 0x3A4 SWAP2 SWAP1 PUSH2 0x2DAC JUMP JUMPDEST PUSH1 0x40 MLOAD DUP1 SWAP2 SUB SWAP1 RETURN JUMPDEST PUSH2 0x3C7 PUSH1 0x4 DUP1 CALLDATASIZE SUB DUP2 ADD SWAP1 PUSH2 0x3C2 SWAP2 SWAP1 PUSH2 0x2D10 JUMP JUMPDEST PUSH2 0x9AA JUMP JUMPDEST PUSH1 0x40 MLOAD PUSH2 0x3D4 SWAP2 SWAP1 PUSH2 0x2D4C JUMP JUMPDEST PUSH1 0x40 MLOAD DUP1 SWAP2 SUB SWAP1 RETURN JUMPDEST PUSH2 0x3E5 PUSH2 0xDBB JUMP JUMPDEST PUSH1 0x40 MLOAD PUSH2 0x3F2 SWAP2 SWAP1 PUSH2 0x2D4C JUMP JUMPDEST PUSH1 0x40 MLOAD DUP1 SWAP2 SUB SWAP1 RETURN JUMPDEST PUSH2 0x403 PUSH2 0xDC1 JUMP JUMPDEST STOP JUMPDEST PUSH2 0x41F PUSH1 0x4 DUP1 CALLDATASIZE SUB DUP2 ADD SWAP1 PUSH2 0x41A SWAP2 SWAP1 PUSH2 0x2D10 JUMP JUMPDEST PUSH2 0xEEE JUMP JUMPDEST STOP JUMPDEST PUSH2 0x43B PUSH1 0x4 DUP1 CALLDATASIZE SUB DUP2 ADD SWAP1 PUSH2 0x436 SWAP2 SWAP1 PUSH2 0x2DC7 JUMP JUMPDEST PUSH2 0x1016 JUMP JUMPDEST STOP JUMPDEST PUSH2 0x445 PUSH2 0x16CB JUMP JUMPDEST PUSH1 0x40 MLOAD PUSH2 0x452 SWAP2 SWAP1 PUSH2 0x2DAC JUMP JUMPDEST PUSH1 0x40 MLOAD DUP1 SWAP2 SUB SWAP1 RETURN JUMPDEST PUSH2 0x475 PUSH1 0x4 DUP1 CALLDATASIZE SUB DUP2 ADD SWAP1 PUSH2 0x470 SWAP2 SWAP1 PUSH2 0x2D10 JUMP JUMPDEST PUSH2 0x16F1 JUMP JUMPDEST PUSH1 0x40 MLOAD PUSH2 0x482 SWAP2 SWAP1 PUSH2 0x2D4C JUMP JUMPDEST PUSH1 0x40 MLOAD DUP1 SWAP2 SUB SWAP1 RETURN JUMPDEST PUSH2 0x4A5 PUSH1 0x4 DUP1 CALLDATASIZE SUB DUP2 ADD SWAP1 PUSH2 0x4A0 SWAP2 SWAP1 PUSH2 0x2D10 JUMP JUMPDEST PUSH2 0x1709 JUMP JUMPDEST STOP JUMPDEST PUSH2 0x4C1 PUSH1 0x4 DUP1 CALLDATASIZE SUB DUP2 ADD SWAP1 PUSH2 0x4BC SWAP2 SWAP1 PUSH2 0x2C85 JUMP JUMPDEST PUSH2 0x1894 JUMP JUMPDEST STOP JUMPDEST PUSH2 0x4CB PUSH2 0x1982 JUMP JUMPDEST PUSH1 0x40 MLOAD PUSH2 0x4D8 SWAP2 SWAP1 PUSH2 0x2D4C JUMP JUMPDEST PUSH1 0x40 MLOAD DUP1 SWAP2 SUB SWAP1 RETURN JUMPDEST PUSH2 0x4E9 PUSH2 0x1988 JUMP JUMPDEST PUSH1 0x40 MLOAD PUSH2 0x4F6 SWAP2 SWAP1 PUSH2 0x2DAC JUMP JUMPDEST PUSH1 0x40 MLOAD DUP1 SWAP2 SUB SWAP1 RETURN JUMPDEST PUSH2 0x519 PUSH1 0x4 DUP1 CALLDATASIZE SUB DUP2 ADD SWAP1 PUSH2 0x514 SWAP2 SWAP1 PUSH2 0x2C85 JUMP JUMPDEST PUSH2 0x19B1 JUMP JUMPDEST STOP JUMPDEST PUSH2 0x535 PUSH1 0x4 DUP1 CALLDATASIZE SUB DUP2 ADD SWAP1 PUSH2 0x530 SWAP2 SWAP1 PUSH2 0x2D10 JUMP JUMPDEST PUSH2 0x1D14 JUMP JUMPDEST PUSH1 0x40 MLOAD PUSH2 0x542 SWAP2 SWAP1 PUSH2 0x2D4C JUMP JUMPDEST PUSH1 0x40 MLOAD DUP1 SWAP2 SUB SWAP1 RETURN JUMPDEST PUSH2 0x553 PUSH2 0x1D2C JUMP JUMPDEST STOP JUMPDEST PUSH2 0x56F PUSH1 0x4 DUP1 CALLDATASIZE SUB DUP2 ADD SWAP1 PUSH2 0x56A SWAP2 SWAP1 PUSH2 0x2D10 JUMP JUMPDEST PUSH2 0x2000 JUMP JUMPDEST PUSH1 0x40 MLOAD PUSH2 0x57C SWAP2 SWAP1 PUSH2 0x2D4C JUMP JUMPDEST PUSH1 0x40 MLOAD DUP1 SWAP2 SUB SWAP1 RETURN JUMPDEST PUSH2 0x58D PUSH2 0x2018 JUMP JUMPDEST PUSH1 0x40 MLOAD PUSH2 0x59A SWAP2 SWAP1 PUSH2 0x2D4C JUMP JUMPDEST PUSH1 0x40 MLOAD DUP1 SWAP2 SUB SWAP1 RETURN JUMPDEST PUSH2 0x5BD PUSH1 0x4 DUP1 CALLDATASIZE SUB DUP2 ADD SWAP1 PUSH2 0x5B8 SWAP2 SWAP1 PUSH2 0x2E46 JUMP JUMPDEST PUSH2 0x201E JUMP JUMPDEST STOP JUMPDEST PUSH2 0x5C7 PUSH2 0x213A JUMP JUMPDEST PUSH1 0x40 MLOAD PUSH2 0x5D4 SWAP2 SWAP1 PUSH2 0x2DAC JUMP JUMPDEST PUSH1 0x40 MLOAD DUP1 SWAP2 SUB SWAP1 RETURN JUMPDEST PUSH2 0x5E5 PUSH2 0x2160 JUMP JUMPDEST STOP JUMPDEST PUSH2 0x601 PUSH1 0x4 DUP1 CALLDATASIZE SUB DUP2 ADD SWAP1 PUSH2 0x5FC SWAP2 SWAP1 PUSH2 0x2D10 JUMP JUMPDEST PUSH2 0x2358 JUMP JUMPDEST PUSH1 0x40 MLOAD PUSH2 0x60E SWAP2 SWAP1 PUSH2 0x2D4C JUMP JUMPDEST PUSH1 0x40 MLOAD DUP1 SWAP2 SUB SWAP1 RETURN JUMPDEST PUSH2 0x61F PUSH2 0x2370 JUMP JUMPDEST STOP JUMPDEST PUSH2 0x63B PUSH1 0x4 DUP1 CALLDATASIZE SUB DUP2 ADD SWAP1 PUSH2 0x636 SWAP2 SWAP1 PUSH2 0x2D10 JUMP JUMPDEST PUSH2 0x26F9 JUMP JUMPDEST PUSH1 0x40 MLOAD PUSH2 0x648 SWAP2 SWAP1 PUSH2 0x2D4C JUMP JUMPDEST PUSH1 0x40 MLOAD DUP1 SWAP2 SUB SWAP1 RETURN JUMPDEST PUSH2 0x659 PUSH2 0x2711 JUMP JUMPDEST PUSH1 0x40 MLOAD PUSH2 0x666 SWAP2 SWAP1 PUSH2 0x2DAC JUMP JUMPDEST PUSH1 0x40 MLOAD DUP1 SWAP2 SUB SWAP1 RETURN JUMPDEST PUSH2 0x689 PUSH1 0x4 DUP1 CALLDATASIZE SUB DUP2 ADD SWAP1 PUSH2 0x684 SWAP2 SWAP1 PUSH2 0x2E86 JUMP JUMPDEST PUSH2 0x2737 JUMP JUMPDEST STOP JUMPDEST PUSH2 0x693 PUSH2 0x29BC JUMP JUMPDEST PUSH1 0x40 MLOAD PUSH2 0x6A0 SWAP2 SWAP1 PUSH2 0x2D82 JUMP JUMPDEST PUSH1 0x40 MLOAD DUP1 SWAP2 SUB SWAP1 RETURN JUMPDEST PUSH2 0x6C3 PUSH1 0x4 DUP1 CALLDATASIZE SUB DUP2 ADD SWAP1 PUSH2 0x6BE SWAP2 SWAP1 PUSH2 0x2D10 JUMP JUMPDEST PUSH2 0x29CF JUMP JUMPDEST STOP JUMPDEST PUSH2 0x6CD PUSH2 0x2BDF JUMP JUMPDEST PUSH1 0x40 MLOAD PUSH2 0x6DA SWAP2 SWAP1 PUSH2 0x2D82 JUMP JUMPDEST PUSH1 0x40 MLOAD DUP1 SWAP2 SUB SWAP1 RETURN JUMPDEST CALLER PUSH20 0xFFFFFFFFFFFFFFFFFFFFFFFFFFFFFFFFFFFFFFFF AND PUSH1 0x0 DUP1 SLOAD SWAP1 PUSH2 0x100 EXP SWAP1 DIV PUSH20 0xFFFFFFFFFFFFFFFFFFFFFFFFFFFFFFFFFFFFFFFF AND PUSH20 0xFFFFFFFFFFFFFFFFFFFFFFFFFFFFFFFFFFFFFFFF AND EQ DUP1 PUSH2 0x788 JUMPI POP CALLER PUSH20 0xFFFFFFFFFFFFFFFFFFFFFFFFFFFFFFFFFFFFFFFF AND PUSH1 0x0 DUP1 SLOAD SWAP1 PUSH2 0x100 EXP SWAP1 DIV PUSH20 0xFFFFFFFFFFFFFFFFFFFFFFFFFFFFFFFFFFFFFFFF AND PUSH20 0xFFFFFFFFFFFFFFFFFFFFFFFFFFFFFFFFFFFFFFFF AND EQ JUMPDEST PUSH2 0x7C7 JUMPI PUSH1 0x40 MLOAD PUSH32 0x8C379A000000000000000000000000000000000000000000000000000000000 DUP2 MSTORE PUSH1 0x4 ADD PUSH2 0x7BE SWAP1 PUSH2 0x2F85 JUMP JUMPDEST PUSH1 0x40 MLOAD DUP1 SWAP2 SUB SWAP1 REVERT JUMPDEST DUP1 PUSH1 0x8 DUP2 SWAP1 SSTORE POP POP JUMP JUMPDEST PUSH1 0x11 PUSH1 0x20 MSTORE DUP1 PUSH1 0x0 MSTORE PUSH1 0x40 PUSH1 0x0 KECCAK256 PUSH1 0x0 SWAP2 POP SWAP1 POP SLOAD DUP2 JUMP JUMPDEST CALLER PUSH20 0xFFFFFFFFFFFFFFFFFFFFFFFFFFFFFFFFFFFFFFFF AND PUSH1 0x0 DUP1 SLOAD SWAP1 PUSH2 0x100 EXP SWAP1 DIV PUSH20 0xFFFFFFFFFFFFFFFFFFFFFFFFFFFFFFFFFFFFFFFF AND PUSH20 0xFFFFFFFFFFFFFFFFFFFFFFFFFFFFFFFFFFFFFFFF AND EQ DUP1 PUSH2 0x88E JUMPI POP CALLER PUSH20 0xFFFFFFFFFFFFFFFFFFFFFFFFFFFFFFFFFFFFFFFF AND PUSH1 0x0 DUP1 SLOAD SWAP1 PUSH2 0x100 EXP SWAP1 DIV PUSH20 0xFFFFFFFFFFFFFFFFFFFFFFFFFFFFFFFFFFFFFFFF AND PUSH20 0xFFFFFFFFFFFFFFFFFFFFFFFFFFFFFFFFFFFFFFFF AND EQ JUMPDEST PUSH2 0x8CD JUMPI PUSH1 0x40 MLOAD PUSH32 0x8C379A000000000000000000000000000000000000000000000000000000000 DUP2 MSTORE PUSH1 0x4 ADD PUSH2 0x8C4 SWAP1 PUSH2 0x2F85 JUMP JUMPDEST PUSH1 0x40 MLOAD DUP1 SWAP2 SUB SWAP1 REVERT JUMPDEST DUP1 PUSH1 0x2 PUSH1 0x0 PUSH2 0x100 EXP DUP2 SLOAD DUP2 PUSH20 0xFFFFFFFFFFFFFFFFFFFFFFFFFFFFFFFFFFFFFFFF MUL NOT AND SWAP1 DUP4 PUSH20 0xFFFFFFFFFFFFFFFFFFFFFFFFFFFFFFFFFFFFFFFF AND MUL OR SWAP1 SSTORE POP POP JUMP JUMPDEST PUSH1 0x0 PUSH1 0x4 SLOAD SWAP1 POP SWAP1 JUMP JUMPDEST PUSH1 0x13 PUSH1 0x20 MSTORE DUP1 PUSH1 0x0 MSTORE PUSH1 0x40 PUSH1 0x0 KECCAK256 PUSH1 0x0 SWAP2 POP SLOAD SWAP1 PUSH2 0x100 EXP SWAP1 DIV PUSH1 0xFF AND DUP2 JUMP JUMPDEST PUSH1 0xF PUSH1 0x20 MSTORE DUP1 PUSH1 0x0 MSTORE PUSH1 0x40 PUSH1 0x0 KECCAK256 PUSH1 0x0 SWAP2 POP SWAP1 POP SLOAD DUP2 JUMP JUMPDEST PUSH1 0x7 SLOAD DUP2 JUMP JUMPDEST PUSH1 0xB PUSH1 0x20 MSTORE DUP1 PUSH1 0x0 MSTORE PUSH1 0x40 PUSH1 0x0 KECCAK256 PUSH1 0x0 SWAP2 POP SWAP1 POP SLOAD DUP2 JUMP JUMPDEST PUSH1 0x4 SLOAD DUP2 JUMP JUMPDEST PUSH1 0x9 PUSH1 0x20 MSTORE DUP1 PUSH1 0x0 MSTORE PUSH1 0x40 PUSH1 0x0 KECCAK256 PUSH1 0x0 SWAP2 POP SLOAD SWAP1 PUSH2 0x100 EXP SWAP1 DIV PUSH20 0xFFFFFFFFFFFFFFFFFFFFFFFFFFFFFFFFFFFFFFFF AND DUP2 JUMP JUMPDEST PUSH1 0x0 DUP1 PUSH1 0x10 PUSH1 0x0 DUP5 PUSH20 0xFFFFFFFFFFFFFFFFFFFFFFFFFFFFFFFFFFFFFFFF AND PUSH20 0xFFFFFFFFFFFFFFFFFFFFFFFFFFFFFFFFFFFFFFFF AND DUP2 MSTORE PUSH1 0x20 ADD SWAP1 DUP2 MSTORE PUSH1 0x20 ADD PUSH1 0x0 KECCAK256 SLOAD TIMESTAMP PUSH2 0x9F8 SWAP2 SWAP1 PUSH2 0x2FD4 JUMP JUMPDEST SWAP1 POP PUSH1 0x0 PUSH1 0x10 PUSH1 0x0 DUP6 PUSH20 0xFFFFFFFFFFFFFFFFFFFFFFFFFFFFFFFFFFFFFFFF AND PUSH20 0xFFFFFFFFFFFFFFFFFFFFFFFFFFFFFFFFFFFFFFFF AND DUP2 MSTORE PUSH1 0x20 ADD SWAP1 DUP2 MSTORE PUSH1 0x20 ADD PUSH1 0x0 KECCAK256 SLOAD EQ DUP1 ISZERO PUSH2 0xA88 JUMPI POP PUSH1 0x0 PUSH1 0xD PUSH1 0x0 DUP6 PUSH20 0xFFFFFFFFFFFFFFFFFFFFFFFFFFFFFFFFFFFFFFFF AND PUSH20 0xFFFFFFFFFFFFFFFFFFFFFFFFFFFFFFFFFFFFFFFF AND DUP2 MSTORE PUSH1 0x20 ADD SWAP1 DUP2 MSTORE PUSH1 0x20 ADD PUSH1 0x0 KECCAK256 SLOAD GT JUMPDEST ISZERO PUSH2 0xADB JUMPI PUSH1 0xF PUSH1 0x0 DUP5 PUSH20 0xFFFFFFFFFFFFFFFFFFFFFFFFFFFFFFFFFFFFFFFF AND PUSH20 0xFFFFFFFFFFFFFFFFFFFFFFFFFFFFFFFFFFFFFFFF AND DUP2 MSTORE PUSH1 0x20 ADD SWAP1 DUP2 MSTORE PUSH1 0x20 ADD PUSH1 0x0 KECCAK256 SLOAD TIMESTAMP PUSH2 0xAD8 SWAP2 SWAP1 PUSH2 0x2FD4 JUMP JUMPDEST SWAP1 POP JUMPDEST PUSH1 0x0 PUSH1 0xD PUSH1 0x0 DUP6 PUSH20 0xFFFFFFFFFFFFFFFFFFFFFFFFFFFFFFFFFFFFFFFF AND PUSH20 0xFFFFFFFFFFFFFFFFFFFFFFFFFFFFFFFFFFFFFFFF AND DUP2 MSTORE PUSH1 0x20 ADD SWAP1 DUP2 MSTORE PUSH1 0x20 ADD PUSH1 0x0 KECCAK256 SLOAD SUB PUSH2 0xB2C JUMPI PUSH1 0x0 SWAP2 POP POP PUSH2 0xDB6 JUMP JUMPDEST PUSH1 0x11 PUSH1 0x0 DUP5 PUSH20 0xFFFFFFFFFFFFFFFFFFFFFFFFFFFFFFFFFFFFFFFF AND PUSH20 0xFFFFFFFFFFFFFFFFFFFFFFFFFFFFFFFFFFFFFFFF AND DUP2 MSTORE PUSH1 0x20 ADD SWAP1 DUP2 MSTORE PUSH1 0x20 ADD PUSH1 0x0 KECCAK256 SLOAD TIMESTAMP GT ISZERO PUSH2 0xCD9 JUMPI PUSH1 0x0 PUSH1 0x10 PUSH1 0x0 DUP6 PUSH20 0xFFFFFFFFFFFFFFFFFFFFFFFFFFFFFFFFFFFFFFFF AND PUSH20 0xFFFFFFFFFFFFFFFFFFFFFFFFFFFFFFFFFFFFFFFF AND DUP2 MSTORE PUSH1 0x20 ADD SWAP1 DUP2 MSTORE PUSH1 0x20 ADD PUSH1 0x0 KECCAK256 SLOAD SUB PUSH2 0xC4B JUMPI PUSH1 0xF PUSH1 0x0 DUP5 PUSH20 0xFFFFFFFFFFFFFFFFFFFFFFFFFFFFFFFFFFFFFFFF AND PUSH20 0xFFFFFFFFFFFFFFFFFFFFFFFFFFFFFFFFFFFFFFFF AND DUP2 MSTORE PUSH1 0x20 ADD SWAP1 DUP2 MSTORE PUSH1 0x20 ADD PUSH1 0x0 KECCAK256 SLOAD PUSH1 0x11 PUSH1 0x0 DUP6 PUSH20 0xFFFFFFFFFFFFFFFFFFFFFFFFFFFFFFFFFFFFFFFF AND PUSH20 0xFFFFFFFFFFFFFFFFFFFFFFFFFFFFFFFFFFFFFFFF AND DUP2 MSTORE PUSH1 0x20 ADD SWAP1 DUP2 MSTORE PUSH1 0x20 ADD PUSH1 0x0 KECCAK256 SLOAD PUSH2 0xC44 SWAP2 SWAP1 PUSH2 0x2FD4 JUMP JUMPDEST SWAP1 POP PUSH2 0xCD8 JUMP JUMPDEST PUSH1 0x10 PUSH1 0x0 DUP5 PUSH20 0xFFFFFFFFFFFFFFFFFFFFFFFFFFFFFFFFFFFFFFFF AND PUSH20 0xFFFFFFFFFFFFFFFFFFFFFFFFFFFFFFFFFFFFFFFF AND DUP2 MSTORE PUSH1 0x20 ADD SWAP1 DUP2 MSTORE PUSH1 0x20 ADD PUSH1 0x0 KECCAK256 SLOAD PUSH1 0x11 PUSH1 0x0 DUP6 PUSH20 0xFFFFFFFFFFFFFFFFFFFFFFFFFFFFFFFFFFFFFFFF AND PUSH20 0xFFFFFFFFFFFFFFFFFFFFFFFFFFFFFFFFFFFFFFFF AND DUP2 MSTORE PUSH1 0x20 ADD SWAP1 DUP2 MSTORE PUSH1 0x20 ADD PUSH1 0x0 KECCAK256 SLOAD PUSH2 0xCD5 SWAP2 SWAP1 PUSH2 0x2FD4 JUMP JUMPDEST SWAP1 POP JUMPDEST JUMPDEST PUSH1 0x11 PUSH1 0x0 DUP5 PUSH20 0xFFFFFFFFFFFFFFFFFFFFFFFFFFFFFFFFFFFFFFFF AND PUSH20 0xFFFFFFFFFFFFFFFFFFFFFFFFFFFFFFFFFFFFFFFF AND DUP2 MSTORE PUSH1 0x20 ADD SWAP1 DUP2 MSTORE PUSH1 0x20 ADD PUSH1 0x0 KECCAK256 SLOAD PUSH1 0x10 PUSH1 0x0 DUP6 PUSH20 0xFFFFFFFFFFFFFFFFFFFFFFFFFFFFFFFFFFFFFFFF AND PUSH20 0xFFFFFFFFFFFFFFFFFFFFFFFFFFFFFFFFFFFFFFFF AND DUP2 MSTORE PUSH1 0x20 ADD SWAP1 DUP2 MSTORE PUSH1 0x20 ADD PUSH1 0x0 KECCAK256 SLOAD GT ISZERO PUSH2 0xD69 JUMPI PUSH1 0x0 SWAP2 POP POP PUSH2 0xDB6 JUMP JUMPDEST PUSH2 0xDB2 DUP2 PUSH1 0x12 PUSH1 0x0 DUP7 PUSH20 0xFFFFFFFFFFFFFFFFFFFFFFFFFFFFFFFFFFFFFFFF AND PUSH20 0xFFFFFFFFFFFFFFFFFFFFFFFFFFFFFFFFFFFFFFFF AND DUP2 MSTORE PUSH1 0x20 ADD SWAP1 DUP2 MSTORE PUSH1 0x20 ADD PUSH1 0x0 KECCAK256 SLOAD PUSH2 0x2BF2 JUMP JUMPDEST SWAP2 POP POP JUMPDEST SWAP2 SWAP1 POP JUMP JUMPDEST PUSH1 0x8 SLOAD DUP2 JUMP JUMPDEST CALLER PUSH20 0xFFFFFFFFFFFFFFFFFFFFFFFFFFFFFFFFFFFFFFFF AND PUSH1 0x0 DUP1 SLOAD SWAP1 PUSH2 0x100 EXP SWAP1 DIV PUSH20 0xFFFFFFFFFFFFFFFFFFFFFFFFFFFFFFFFFFFFFFFF AND PUSH20 0xFFFFFFFFFFFFFFFFFFFFFFFFFFFFFFFFFFFFFFFF AND EQ DUP1 PUSH2 0xE66 JUMPI POP CALLER PUSH20 0xFFFFFFFFFFFFFFFFFFFFFFFFFFFFFFFFFFFFFFFF AND PUSH1 0x0 DUP1 SLOAD SWAP1 PUSH2 0x100 EXP SWAP1 DIV PUSH20 0xFFFFFFFFFFFFFFFFFFFFFFFFFFFFFFFFFFFFFFFF AND PUSH20 0xFFFFFFFFFFFFFFFFFFFFFFFFFFFFFFFFFFFFFFFF AND EQ JUMPDEST PUSH2 0xEA5 JUMPI PUSH1 0x40 MLOAD PUSH32 0x8C379A000000000000000000000000000000000000000000000000000000000 DUP2 MSTORE PUSH1 0x4 ADD PUSH2 0xE9C SWAP1 PUSH2 0x2F85 JUMP JUMPDEST PUSH1 0x40 MLOAD DUP1 SWAP2 SUB SWAP1 REVERT JUMPDEST CALLER PUSH20 0xFFFFFFFFFFFFFFFFFFFFFFFFFFFFFFFFFFFFFFFF AND PUSH2 0x8FC SELFBALANCE SWAP1 DUP2 ISZERO MUL SWAP1 PUSH1 0x40 MLOAD PUSH1 0x0 PUSH1 0x40 MLOAD DUP1 DUP4 SUB DUP2 DUP6 DUP9 DUP9 CALL SWAP4 POP POP POP POP ISZERO DUP1 ISZERO PUSH2 0xEEB JUMPI RETURNDATASIZE PUSH1 0x0 DUP1 RETURNDATACOPY RETURNDATASIZE PUSH1 0x0 REVERT JUMPDEST POP JUMP JUMPDEST CALLER PUSH20 0xFFFFFFFFFFFFFFFFFFFFFFFFFFFFFFFFFFFFFFFF AND PUSH1 0x0 DUP1 SLOAD SWAP1 PUSH2 0x100 EXP SWAP1 DIV PUSH20 0xFFFFFFFFFFFFFFFFFFFFFFFFFFFFFFFFFFFFFFFF AND PUSH20 0xFFFFFFFFFFFFFFFFFFFFFFFFFFFFFFFFFFFFFFFF AND EQ DUP1 PUSH2 0xF93 JUMPI POP CALLER PUSH20 0xFFFFFFFFFFFFFFFFFFFFFFFFFFFFFFFFFFFFFFFF AND PUSH1 0x0 DUP1 SLOAD SWAP1 PUSH2 0x100 EXP SWAP1 DIV PUSH20 0xFFFFFFFFFFFFFFFFFFFFFFFFFFFFFFFFFFFFFFFF AND PUSH20 0xFFFFFFFFFFFFFFFFFFFFFFFFFFFFFFFFFFFFFFFF AND EQ JUMPDEST PUSH2 0xFD2 JUMPI PUSH1 0x40 MLOAD PUSH32 0x8C379A000000000000000000000000000000000000000000000000000000000 DUP2 MSTORE PUSH1 0x4 ADD PUSH2 0xFC9 SWAP1 PUSH2 0x2F85 JUMP JUMPDEST PUSH1 0x40 MLOAD DUP1 SWAP2 SUB SWAP1 REVERT JUMPDEST DUP1 PUSH1 0x3 PUSH1 0x0 PUSH2 0x100 EXP DUP2 SLOAD DUP2 PUSH20 0xFFFFFFFFFFFFFFFFFFFFFFFFFFFFFFFFFFFFFFFF MUL NOT AND SWAP1 DUP4 PUSH20 0xFFFFFFFFFFFFFFFFFFFFFFFFFFFFFFFFFFFFFFFF AND MUL OR SWAP1 SSTORE POP POP JUMP JUMPDEST PUSH1 0xC PUSH1 0x0 SWAP1 SLOAD SWAP1 PUSH2 0x100 EXP SWAP1 DIV PUSH1 0xFF AND PUSH2 0x1065 JUMPI PUSH1 0x40 MLOAD PUSH32 0x8C379A000000000000000000000000000000000000000000000000000000000 DUP2 MSTORE PUSH1 0x4 ADD PUSH2 0x105C SWAP1 PUSH2 0x3054 JUMP JUMPDEST PUSH1 0x40 MLOAD DUP1 SWAP2 SUB SWAP1 REVERT JUMPDEST CALLER PUSH20 0xFFFFFFFFFFFFFFFFFFFFFFFFFFFFFFFFFFFFFFFF AND DUP3 PUSH20 0xFFFFFFFFFFFFFFFFFFFFFFFFFFFFFFFFFFFFFFFF AND SUB PUSH2 0x10D3 JUMPI PUSH1 0x40 MLOAD PUSH32 0x8C379A000000000000000000000000000000000000000000000000000000000 DUP2 MSTORE PUSH1 0x4 ADD PUSH2 0x10CA SWAP1 PUSH2 0x30C0 JUMP JUMPDEST PUSH1 0x40 MLOAD DUP1 SWAP2 SUB SWAP1 REVERT JUMPDEST PUSH1 0x0 PUSH1 0xD PUSH1 0x0 CALLER PUSH20 0xFFFFFFFFFFFFFFFFFFFFFFFFFFFFFFFFFFFFFFFF AND PUSH20 0xFFFFFFFFFFFFFFFFFFFFFFFFFFFFFFFFFFFFFFFF AND DUP2 MSTORE PUSH1 0x20 ADD SWAP1 DUP2 MSTORE PUSH1 0x20 ADD PUSH1 0x0 KECCAK256 SLOAD EQ PUSH2 0x1155 JUMPI PUSH1 0x40 MLOAD PUSH32 0x8C379A000000000000000000000000000000000000000000000000000000000 DUP2 MSTORE PUSH1 0x4 ADD PUSH2 0x114C SWAP1 PUSH2 0x312C JUMP JUMPDEST PUSH1 0x40 MLOAD DUP1 SWAP2 SUB SWAP1 REVERT JUMPDEST PUSH1 0x0 DUP4 GT PUSH2 0x1198 JUMPI PUSH1 0x40 MLOAD PUSH32 0x8C379A000000000000000000000000000000000000000000000000000000000 DUP2 MSTORE PUSH1 0x4 ADD PUSH2 0x118F SWAP1 PUSH2 0x3198 JUMP JUMPDEST PUSH1 0x40 MLOAD DUP1 SWAP2 SUB SWAP1 REVERT JUMPDEST PUSH1 0x5 SLOAD DUP2 EQ DUP1 PUSH2 0x11A9 JUMPI POP PUSH1 0x6 SLOAD DUP2 EQ JUMPDEST DUP1 PUSH2 0x11B5 JUMPI POP PUSH1 0x7 SLOAD DUP2 EQ JUMPDEST PUSH2 0x11F4 JUMPI PUSH1 0x40 MLOAD PUSH32 0x8C379A000000000000000000000000000000000000000000000000000000000 DUP2 MSTORE PUSH1 0x4 ADD PUSH2 0x11EB SWAP1 PUSH2 0x3204 JUMP JUMPDEST PUSH1 0x40 MLOAD DUP1 SWAP2 SUB SWAP1 REVERT JUMPDEST PUSH1 0x0 DUP1 PUSH2 0x11FF PUSH2 0x911 JUMP JUMPDEST SWAP1 POP PUSH1 0x5 SLOAD DUP4 SUB PUSH2 0x1250 JUMPI PUSH2 0x1249 PUSH2 0x1241 PUSH2 0x1239 PUSH2 0x1232 PUSH2 0x122A PUSH2 0x1224 DUP11 PUSH1 0x8 PUSH2 0x2BF2 JUMP JUMPDEST DUP7 PUSH2 0x2BF2 JUMP JUMPDEST PUSH1 0x8 SLOAD PUSH2 0x2BF2 JUMP JUMPDEST PUSH1 0x64 PUSH2 0x2C34 JUMP JUMPDEST PUSH2 0x3E8 PUSH2 0x2C34 JUMP JUMPDEST PUSH1 0x5 SLOAD PUSH2 0x2C34 JUMP JUMPDEST SWAP2 POP PUSH2 0x12EC JUMP JUMPDEST PUSH1 0x6 SLOAD DUP4 SUB PUSH2 0x129F JUMPI PUSH2 0x1298 PUSH2 0x1290 PUSH2 0x1288 PUSH2 0x1281 PUSH2 0x1279 PUSH2 0x1273 DUP11 PUSH1 0xD PUSH2 0x2BF2 JUMP JUMPDEST DUP7 PUSH2 0x2BF2 JUMP JUMPDEST PUSH1 0x8 SLOAD PUSH2 0x2BF2 JUMP JUMPDEST PUSH1 0x64 PUSH2 0x2C34 JUMP JUMPDEST PUSH2 0x3E8 PUSH2 0x2C34 JUMP JUMPDEST PUSH1 0x5 SLOAD PUSH2 0x2C34 JUMP JUMPDEST SWAP2 POP PUSH2 0x12EB JUMP JUMPDEST PUSH1 0x7 SLOAD DUP4 SUB PUSH2 0x12EA JUMPI PUSH2 0x12E7 PUSH2 0x12DF PUSH2 0x12D7 PUSH2 0x12D0 PUSH2 0x12C8 PUSH2 0x12C2 DUP11 PUSH1 0x10 PUSH2 0x2BF2 JUMP JUMPDEST DUP7 PUSH2 0x2BF2 JUMP JUMPDEST PUSH1 0x8 SLOAD PUSH2 0x2BF2 JUMP JUMPDEST PUSH1 0x64 PUSH2 0x2C34 JUMP JUMPDEST PUSH2 0x3E8 PUSH2 0x2C34 JUMP JUMPDEST PUSH1 0x5 SLOAD PUSH2 0x2C34 JUMP JUMPDEST SWAP2 POP JUMPDEST JUMPDEST JUMPDEST PUSH1 0x0 PUSH20 0xFFFFFFFFFFFFFFFFFFFFFFFFFFFFFFFFFFFFFFFF AND DUP5 PUSH20 0xFFFFFFFFFFFFFFFFFFFFFFFFFFFFFFFFFFFFFFFF AND EQ PUSH2 0x147E JUMPI DUP4 PUSH1 0x9 PUSH1 0x0 CALLER PUSH20 0xFFFFFFFFFFFFFFFFFFFFFFFFFFFFFFFFFFFFFFFF AND PUSH20 0xFFFFFFFFFFFFFFFFFFFFFFFFFFFFFFFFFFFFFFFF AND DUP2 MSTORE PUSH1 0x20 ADD SWAP1 DUP2 MSTORE PUSH1 0x20 ADD PUSH1 0x0 KECCAK256 PUSH1 0x0 PUSH2 0x100 EXP DUP2 SLOAD DUP2 PUSH20 0xFFFFFFFFFFFFFFFFFFFFFFFFFFFFFFFFFFFFFFFF MUL NOT AND SWAP1 DUP4 PUSH20 0xFFFFFFFFFFFFFFFFFFFFFFFFFFFFFFFFFFFFFFFF AND MUL OR SWAP1 SSTORE POP PUSH3 0x186A0 PUSH1 0x8 SLOAD PUSH1 0x5 DUP8 DUP5 PUSH2 0x13B3 SWAP2 SWAP1 PUSH2 0x3224 JUMP JUMPDEST PUSH2 0x13BD SWAP2 SWAP1 PUSH2 0x3224 JUMP JUMPDEST PUSH2 0x13C7 SWAP2 SWAP1 PUSH2 0x3224 JUMP JUMPDEST PUSH2 0x13D1 SWAP2 SWAP1 PUSH2 0x3295 JUMP JUMPDEST PUSH1 0xA PUSH1 0x0 DUP7 PUSH20 0xFFFFFFFFFFFFFFFFFFFFFFFFFFFFFFFFFFFFFFFF AND PUSH20 0xFFFFFFFFFFFFFFFFFFFFFFFFFFFFFFFFFFFFFFFF AND DUP2 MSTORE PUSH1 0x20 ADD SWAP1 DUP2 MSTORE PUSH1 0x20 ADD PUSH1 0x0 KECCAK256 PUSH1 0x0 DUP3 DUP3 SLOAD PUSH2 0x141F SWAP2 SWAP1 PUSH2 0x32C6 JUMP JUMPDEST SWAP3 POP POP DUP2 SWAP1 SSTORE POP PUSH1 0x1 PUSH1 0xB PUSH1 0x0 DUP7 PUSH20 0xFFFFFFFFFFFFFFFFFFFFFFFFFFFFFFFFFFFFFFFF AND PUSH20 0xFFFFFFFFFFFFFFFFFFFFFFFFFFFFFFFFFFFFFFFF AND DUP2 MSTORE PUSH1 0x20 ADD SWAP1 DUP2 MSTORE PUSH1 0x20 ADD PUSH1 0x0 KECCAK256 PUSH1 0x0 DUP3 DUP3 SLOAD PUSH2 0x1476 SWAP2 SWAP1 PUSH2 0x32C6 JUMP JUMPDEST SWAP3 POP POP DUP2 SWAP1 SSTORE POP JUMPDEST PUSH1 0x2 PUSH1 0x0 SWAP1 SLOAD SWAP1 PUSH2 0x100 EXP SWAP1 DIV PUSH20 0xFFFFFFFFFFFFFFFFFFFFFFFFFFFFFFFFFFFFFFFF AND PUSH20 0xFFFFFFFFFFFFFFFFFFFFFFFFFFFFFFFFFFFFFFFF AND PUSH4 0x23B872DD CALLER ADDRESS DUP9 PUSH1 0x40 MLOAD DUP5 PUSH4 0xFFFFFFFF AND PUSH1 0xE0 SHL DUP2 MSTORE PUSH1 0x4 ADD PUSH2 0x14DD SWAP4 SWAP3 SWAP2 SWAP1 PUSH2 0x32FA JUMP JUMPDEST PUSH1 0x20 PUSH1 0x40 MLOAD DUP1 DUP4 SUB DUP2 PUSH1 0x0 DUP8 GAS CALL ISZERO DUP1 ISZERO PUSH2 0x14FC JUMPI RETURNDATASIZE PUSH1 0x0 DUP1 RETURNDATACOPY RETURNDATASIZE PUSH1 0x0 REVERT JUMPDEST POP POP POP POP PUSH1 0x40 MLOAD RETURNDATASIZE PUSH1 0x1F NOT PUSH1 0x1F DUP3 ADD AND DUP3 ADD DUP1 PUSH1 0x40 MSTORE POP DUP2 ADD SWAP1 PUSH2 0x1520 SWAP2 SWAP1 PUSH2 0x3346 JUMP JUMPDEST POP DUP5 PUSH1 0xD PUSH1 0x0 CALLER PUSH20 0xFFFFFFFFFFFFFFFFFFFFFFFFFFFFFFFFFFFFFFFF AND PUSH20 0xFFFFFFFFFFFFFFFFFFFFFFFFFFFFFFFFFFFFFFFF AND DUP2 MSTORE PUSH1 0x20 ADD SWAP1 DUP2 MSTORE PUSH1 0x20 ADD PUSH1 0x0 KECCAK256 DUP2 SWAP1 SSTORE POP TIMESTAMP PUSH1 0xF PUSH1 0x0 CALLER PUSH20 0xFFFFFFFFFFFFFFFFFFFFFFFFFFFFFFFFFFFFFFFF AND PUSH20 0xFFFFFFFFFFFFFFFFFFFFFFFFFFFFFFFFFFFFFFFF AND DUP2 MSTORE PUSH1 0x20 ADD SWAP1 DUP2 MSTORE PUSH1 0x20 ADD PUSH1 0x0 KECCAK256 DUP2 SWAP1 SSTORE POP TIMESTAMP PUSH1 0x10 PUSH1 0x0 CALLER PUSH20 0xFFFFFFFFFFFFFFFFFFFFFFFFFFFFFFFFFFFFFFFF AND PUSH20 0xFFFFFFFFFFFFFFFFFFFFFFFFFFFFFFFFFFFFFFFF AND DUP2 MSTORE PUSH1 0x20 ADD SWAP1 DUP2 MSTORE PUSH1 0x20 ADD PUSH1 0x0 KECCAK256 DUP2 SWAP1 SSTORE POP DUP3 TIMESTAMP PUSH2 0x15F9 SWAP2 SWAP1 PUSH2 0x32C6 JUMP JUMPDEST PUSH1 0x11 PUSH1 0x0 CALLER PUSH20 0xFFFFFFFFFFFFFFFFFFFFFFFFFFFFFFFFFFFFFFFF AND PUSH20 0xFFFFFFFFFFFFFFFFFFFFFFFFFFFFFFFFFFFFFFFF AND DUP2 MSTORE PUSH1 0x20 ADD SWAP1 DUP2 MSTORE PUSH1 0x20 ADD PUSH1 0x0 KECCAK256 DUP2 SWAP1 SSTORE POP DUP3 PUSH1 0xE PUSH1 0x0 CALLER PUSH20 0xFFFFFFFFFFFFFFFFFFFFFFFFFFFFFFFFFFFFFFFF AND PUSH20 0xFFFFFFFFFFFFFFFFFFFFFFFFFFFFFFFFFFFFFFFF AND DUP2 MSTORE PUSH1 0x20 ADD SWAP1 DUP2 MSTORE PUSH1 0x20 ADD PUSH1 0x0 KECCAK256 DUP2 SWAP1 SSTORE POP DUP2 PUSH1 0x12 PUSH1 0x0 CALLER PUSH20 0xFFFFFFFFFFFFFFFFFFFFFFFFFFFFFFFFFFFFFFFF AND PUSH20 0xFFFFFFFFFFFFFFFFFFFFFFFFFFFFFFFFFFFFFFFF AND DUP2 MSTORE PUSH1 0x20 ADD SWAP1 DUP2 MSTORE PUSH1 0x20 ADD PUSH1 0x0 KECCAK256 DUP2 SWAP1 SSTORE POP POP POP POP POP POP JUMP JUMPDEST PUSH1 0x2 PUSH1 0x0 SWAP1 SLOAD SWAP1 PUSH2 0x100 EXP SWAP1 DIV PUSH20 0xFFFFFFFFFFFFFFFFFFFFFFFFFFFFFFFFFFFFFFFF AND DUP2 JUMP JUMPDEST PUSH1 0x10 PUSH1 0x20 MSTORE DUP1 PUSH1 0x0 MSTORE PUSH1 0x40 PUSH1 0x0 KECCAK256 PUSH1 0x0 SWAP2 POP SWAP1 POP SLOAD DUP2 JUMP JUMPDEST CALLER PUSH20 0xFFFFFFFFFFFFFFFFFFFFFFFFFFFFFFFFFFFFFFFF AND PUSH1 0x0 DUP1 SLOAD SWAP1 PUSH2 0x100 EXP SWAP1 DIV PUSH20 0xFFFFFFFFFFFFFFFFFFFFFFFFFFFFFFFFFFFFFFFF AND PUSH20 0xFFFFFFFFFFFFFFFFFFFFFFFFFFFFFFFFFFFFFFFF AND EQ DUP1 PUSH2 0x17AE JUMPI POP CALLER PUSH20 0xFFFFFFFFFFFFFFFFFFFFFFFFFFFFFFFFFFFFFFFF AND PUSH1 0x0 DUP1 SLOAD SWAP1 PUSH2 0x100 EXP SWAP1 DIV PUSH20 0xFFFFFFFFFFFFFFFFFFFFFFFFFFFFFFFFFFFFFFFF AND PUSH20 0xFFFFFFFFFFFFFFFFFFFFFFFFFFFFFFFFFFFFFFFF AND EQ JUMPDEST PUSH2 0x17ED JUMPI PUSH1 0x40 MLOAD PUSH32 0x8C379A000000000000000000000000000000000000000000000000000000000 DUP2 MSTORE PUSH1 0x4 ADD PUSH2 0x17E4 SWAP1 PUSH2 0x2F85 JUMP JUMPDEST PUSH1 0x40 MLOAD DUP1 SWAP2 SUB SWAP1 REVERT JUMPDEST PUSH1 0x13 PUSH1 0x0 DUP3 PUSH20 0xFFFFFFFFFFFFFFFFFFFFFFFFFFFFFFFFFFFFFFFF AND PUSH20 0xFFFFFFFFFFFFFFFFFFFFFFFFFFFFFFFFFFFFFFFF AND DUP2 MSTORE PUSH1 0x20 ADD SWAP1 DUP2 MSTORE PUSH1 0x20 ADD PUSH1 0x0 KECCAK256 PUSH1 0x0 SWAP1 SLOAD SWAP1 PUSH2 0x100 EXP SWAP1 DIV PUSH1 0xFF AND ISZERO PUSH1 0x13 PUSH1 0x0 DUP4 PUSH20 0xFFFFFFFFFFFFFFFFFFFFFFFFFFFFFFFFFFFFFFFF AND PUSH20 0xFFFFFFFFFFFFFFFFFFFFFFFFFFFFFFFFFFFFFFFF AND DUP2 MSTORE PUSH1 0x20 ADD SWAP1 DUP2 MSTORE PUSH1 0x20 ADD PUSH1 0x0 KECCAK256 PUSH1 0x0 PUSH2 0x100 EXP DUP2 SLOAD DUP2 PUSH1 0xFF MUL NOT AND SWAP1 DUP4 ISZERO ISZERO MUL OR SWAP1 SSTORE POP POP JUMP JUMPDEST CALLER PUSH20 0xFFFFFFFFFFFFFFFFFFFFFFFFFFFFFFFFFFFFFFFF AND PUSH1 0x0 DUP1 SLOAD SWAP1 PUSH2 0x100 EXP SWAP1 DIV PUSH20 0xFFFFFFFFFFFFFFFFFFFFFFFFFFFFFFFFFFFFFFFF AND PUSH20 0xFFFFFFFFFFFFFFFFFFFFFFFFFFFFFFFFFFFFFFFF AND EQ DUP1 PUSH2 0x1939 JUMPI POP CALLER PUSH20 0xFFFFFFFFFFFFFFFFFFFFFFFFFFFFFFFFFFFFFFFF AND PUSH1 0x0 DUP1 SLOAD SWAP1 PUSH2 0x100 EXP SWAP1 DIV PUSH20 0xFFFFFFFFFFFFFFFFFFFFFFFFFFFFFFFFFFFFFFFF AND PUSH20 0xFFFFFFFFFFFFFFFFFFFFFFFFFFFFFFFFFFFFFFFF AND EQ JUMPDEST PUSH2 0x1978 JUMPI PUSH1 0x40 MLOAD PUSH32 0x8C379A000000000000000000000000000000000000000000000000000000000 DUP2 MSTORE PUSH1 0x4 ADD PUSH2 0x196F SWAP1 PUSH2 0x2F85 JUMP JUMPDEST PUSH1 0x40 MLOAD DUP1 SWAP2 SUB SWAP1 REVERT JUMPDEST DUP1 PUSH1 0x4 DUP2 SWAP1 SSTORE POP POP JUMP JUMPDEST PUSH1 0x6 SLOAD DUP2 JUMP JUMPDEST PUSH1 0x0 DUP1 PUSH1 0x0 SWAP1 SLOAD SWAP1 PUSH2 0x100 EXP SWAP1 DIV PUSH20 0xFFFFFFFFFFFFFFFFFFFFFFFFFFFFFFFFFFFFFFFF AND SWAP1 POP SWAP1 JUMP JUMPDEST CALLER PUSH20 0xFFFFFFFFFFFFFFFFFFFFFFFFFFFFFFFFFFFFFFFF AND PUSH1 0x0 DUP1 SLOAD SWAP1 PUSH2 0x100 EXP SWAP1 DIV PUSH20 0xFFFFFFFFFFFFFFFFFFFFFFFFFFFFFFFFFFFFFFFF AND PUSH20 0xFFFFFFFFFFFFFFFFFFFFFFFFFFFFFFFFFFFFFFFF AND EQ DUP1 PUSH2 0x1A56 JUMPI POP CALLER PUSH20 0xFFFFFFFFFFFFFFFFFFFFFFFFFFFFFFFFFFFFFFFF AND PUSH1 0x0 DUP1 SLOAD SWAP1 PUSH2 0x100 EXP SWAP1 DIV PUSH20 0xFFFFFFFFFFFFFFFFFFFFFFFFFFFFFFFFFFFFFFFF AND PUSH20 0xFFFFFFFFFFFFFFFFFFFFFFFFFFFFFFFFFFFFFFFF AND EQ JUMPDEST PUSH2 0x1A95 JUMPI PUSH1 0x40 MLOAD PUSH32 0x8C379A000000000000000000000000000000000000000000000000000000000 DUP2 MSTORE PUSH1 0x4 ADD PUSH2 0x1A8C SWAP1 PUSH2 0x2F85 JUMP JUMPDEST PUSH1 0x40 MLOAD DUP1 SWAP2 SUB SWAP1 REVERT JUMPDEST PUSH1 0x0 PUSH1 0xD PUSH1 0x0 CALLER PUSH20 0xFFFFFFFFFFFFFFFFFFFFFFFFFFFFFFFFFFFFFFFF AND PUSH20 0xFFFFFFFFFFFFFFFFFFFFFFFFFFFFFFFFFFFFFFFF AND DUP2 MSTORE PUSH1 0x20 ADD SWAP1 DUP2 MSTORE PUSH1 0x20 ADD PUSH1 0x0 KECCAK256 SLOAD GT PUSH2 0x1B17 JUMPI PUSH1 0x40 MLOAD PUSH32 0x8C379A000000000000000000000000000000000000000000000000000000000 DUP2 MSTORE PUSH1 0x4 ADD PUSH2 0x1B0E SWAP1 PUSH2 0x33BF JUMP JUMPDEST PUSH1 0x40 MLOAD DUP1 SWAP2 SUB SWAP1 REVERT JUMPDEST PUSH1 0x2 PUSH1 0x0 SWAP1 SLOAD SWAP1 PUSH2 0x100 EXP SWAP1 DIV PUSH20 0xFFFFFFFFFFFFFFFFFFFFFFFFFFFFFFFFFFFFFFFF AND PUSH20 0xFFFFFFFFFFFFFFFFFFFFFFFFFFFFFFFFFFFFFFFF AND PUSH4 0xA9059CBB CALLER DUP4 PUSH1 0x40 MLOAD DUP4 PUSH4 0xFFFFFFFF AND PUSH1 0xE0 SHL DUP2 MSTORE PUSH1 0x4 ADD PUSH2 0x1B74 SWAP3 SWAP2 SWAP1 PUSH2 0x33DF JUMP JUMPDEST PUSH1 0x20 PUSH1 0x40 MLOAD DUP1 DUP4 SUB DUP2 PUSH1 0x0 DUP8 GAS CALL ISZERO DUP1 ISZERO PUSH2 0x1B93 JUMPI RETURNDATASIZE PUSH1 0x0 DUP1 RETURNDATACOPY RETURNDATASIZE PUSH1 0x0 REVERT JUMPDEST POP POP POP POP PUSH1 0x40 MLOAD RETURNDATASIZE PUSH1 0x1F NOT PUSH1 0x1F DUP3 ADD AND DUP3 ADD DUP1 PUSH1 0x40 MSTORE POP DUP2 ADD SWAP1 PUSH2 0x1BB7 SWAP2 SWAP1 PUSH2 0x3346 JUMP JUMPDEST POP PUSH1 0x0 PUSH1 0xD PUSH1 0x0 CALLER PUSH20 0xFFFFFFFFFFFFFFFFFFFFFFFFFFFFFFFFFFFFFFFF AND PUSH20 0xFFFFFFFFFFFFFFFFFFFFFFFFFFFFFFFFFFFFFFFF AND DUP2 MSTORE PUSH1 0x20 ADD SWAP1 DUP2 MSTORE PUSH1 0x20 ADD PUSH1 0x0 KECCAK256 DUP2 SWAP1 SSTORE POP PUSH1 0x0 PUSH1 0xF PUSH1 0x0 CALLER PUSH20 0xFFFFFFFFFFFFFFFFFFFFFFFFFFFFFFFFFFFFFFFF AND PUSH20 0xFFFFFFFFFFFFFFFFFFFFFFFFFFFFFFFFFFFFFFFF AND DUP2 MSTORE PUSH1 0x20 ADD SWAP1 DUP2 MSTORE PUSH1 0x20 ADD PUSH1 0x0 KECCAK256 DUP2 SWAP1 SSTORE POP PUSH1 0x0 PUSH1 0x11 PUSH1 0x0 CALLER PUSH20 0xFFFFFFFFFFFFFFFFFFFFFFFFFFFFFFFFFFFFFFFF AND PUSH20 0xFFFFFFFFFFFFFFFFFFFFFFFFFFFFFFFFFFFFFFFF AND DUP2 MSTORE PUSH1 0x20 ADD SWAP1 DUP2 MSTORE PUSH1 0x20 ADD PUSH1 0x0 KECCAK256 DUP2 SWAP1 SSTORE POP PUSH1 0x0 PUSH1 0xE PUSH1 0x0 CALLER PUSH20 0xFFFFFFFFFFFFFFFFFFFFFFFFFFFFFFFFFFFFFFFF AND PUSH20 0xFFFFFFFFFFFFFFFFFFFFFFFFFFFFFFFFFFFFFFFF AND DUP2 MSTORE PUSH1 0x20 ADD SWAP1 DUP2 MSTORE PUSH1 0x20 ADD PUSH1 0x0 KECCAK256 DUP2 SWAP1 SSTORE POP PUSH1 0x0 PUSH1 0x12 PUSH1 0x0 CALLER PUSH20 0xFFFFFFFFFFFFFFFFFFFFFFFFFFFFFFFFFFFFFFFF AND PUSH20 0xFFFFFFFFFFFFFFFFFFFFFFFFFFFFFFFFFFFFFFFF AND DUP2 MSTORE PUSH1 0x20 ADD SWAP1 DUP2 MSTORE PUSH1 0x20 ADD PUSH1 0x0 KECCAK256 DUP2 SWAP1 SSTORE POP POP JUMP JUMPDEST PUSH1 0xD PUSH1 0x20 MSTORE DUP1 PUSH1 0x0 MSTORE PUSH1 0x40 PUSH1 0x0 KECCAK256 PUSH1 0x0 SWAP2 POP SWAP1 POP SLOAD DUP2 JUMP JUMPDEST PUSH1 0xC PUSH1 0x1 SWAP1 SLOAD SWAP1 PUSH2 0x100 EXP SWAP1 DIV PUSH1 0xFF AND PUSH2 0x1D7B JUMPI PUSH1 0x40 MLOAD PUSH32 0x8C379A000000000000000000000000000000000000000000000000000000000 DUP2 MSTORE PUSH1 0x4 ADD PUSH2 0x1D72 SWAP1 PUSH2 0x3054 JUMP JUMPDEST PUSH1 0x40 MLOAD DUP1 SWAP2 SUB SWAP1 REVERT JUMPDEST PUSH1 0x0 PUSH1 0xD PUSH1 0x0 CALLER PUSH20 0xFFFFFFFFFFFFFFFFFFFFFFFFFFFFFFFFFFFFFFFF AND PUSH20 0xFFFFFFFFFFFFFFFFFFFFFFFFFFFFFFFFFFFFFFFF AND DUP2 MSTORE PUSH1 0x20 ADD SWAP1 DUP2 MSTORE PUSH1 0x20 ADD PUSH1 0x0 KECCAK256 SLOAD GT PUSH2 0x1DFD JUMPI PUSH1 0x40 MLOAD PUSH32 0x8C379A000000000000000000000000000000000000000000000000000000000 DUP2 MSTORE PUSH1 0x4 ADD PUSH2 0x1DF4 SWAP1 PUSH2 0x33BF JUMP JUMPDEST PUSH1 0x40 MLOAD DUP1 SWAP2 SUB SWAP1 REVERT JUMPDEST PUSH1 0x13 PUSH1 0x0 CALLER PUSH20 0xFFFFFFFFFFFFFFFFFFFFFFFFFFFFFFFFFFFFFFFF AND PUSH20 0xFFFFFFFFFFFFFFFFFFFFFFFFFFFFFFFFFFFFFFFF AND DUP2 MSTORE PUSH1 0x20 ADD SWAP1 DUP2 MSTORE PUSH1 0x20 ADD PUSH1 0x0 KECCAK256 PUSH1 0x0 SWAP1 SLOAD SWAP1 PUSH2 0x100 EXP SWAP1 DIV PUSH1 0xFF AND ISZERO PUSH2 0x1E8A JUMPI PUSH1 0x40 MLOAD PUSH32 0x8C379A000000000000000000000000000000000000000000000000000000000 DUP2 MSTORE PUSH1 0x4 ADD PUSH2 0x1E81 SWAP1 PUSH2 0x3454 JUMP JUMPDEST PUSH1 0x40 MLOAD DUP1 SWAP2 SUB SWAP1 REVERT JUMPDEST TIMESTAMP PUSH1 0x10 PUSH1 0x0 CALLER PUSH20 0xFFFFFFFFFFFFFFFFFFFFFFFFFFFFFFFFFFFFFFFF AND PUSH20 0xFFFFFFFFFFFFFFFFFFFFFFFFFFFFFFFFFFFFFFFF AND DUP2 MSTORE PUSH1 0x20 ADD SWAP1 DUP2 MSTORE PUSH1 0x20 ADD PUSH1 0x0 KECCAK256 SLOAD LT PUSH2 0x1F0B JUMPI PUSH1 0x40 MLOAD PUSH32 0x8C379A000000000000000000000000000000000000000000000000000000000 DUP2 MSTORE PUSH1 0x4 ADD PUSH2 0x1F02 SWAP1 PUSH2 0x34C0 JUMP JUMPDEST PUSH1 0x40 MLOAD DUP1 SWAP2 SUB SWAP1 REVERT JUMPDEST PUSH1 0x0 PUSH2 0x1F16 CALLER PUSH2 0x9AA JUMP JUMPDEST SWAP1 POP TIMESTAMP PUSH1 0x10 PUSH1 0x0 CALLER PUSH20 0xFFFFFFFFFFFFFFFFFFFFFFFFFFFFFFFFFFFFFFFF AND PUSH20 0xFFFFFFFFFFFFFFFFFFFFFFFFFFFFFFFFFFFFFFFF AND DUP2 MSTORE PUSH1 0x20 ADD SWAP1 DUP2 MSTORE PUSH1 0x20 ADD PUSH1 0x0 KECCAK256 DUP2 SWAP1 SSTORE POP PUSH1 0x1 PUSH1 0x0 SWAP1 SLOAD SWAP1 PUSH2 0x100 EXP SWAP1 DIV PUSH20 0xFFFFFFFFFFFFFFFFFFFFFFFFFFFFFFFFFFFFFFFF AND PUSH20 0xFFFFFFFFFFFFFFFFFFFFFFFFFFFFFFFFFFFFFFFF AND PUSH4 0xA9059CBB CALLER DUP4 PUSH1 0x40 MLOAD DUP4 PUSH4 0xFFFFFFFF AND PUSH1 0xE0 SHL DUP2 MSTORE PUSH1 0x4 ADD PUSH2 0x1FB9 SWAP3 SWAP2 SWAP1 PUSH2 0x33DF JUMP JUMPDEST PUSH1 0x20 PUSH1 0x40 MLOAD DUP1 DUP4 SUB DUP2 PUSH1 0x0 DUP8 GAS CALL ISZERO DUP1 ISZERO PUSH2 0x1FD8 JUMPI RETURNDATASIZE PUSH1 0x0 DUP1 RETURNDATACOPY RETURNDATASIZE PUSH1 0x0 REVERT JUMPDEST POP POP POP POP PUSH1 0x40 MLOAD RETURNDATASIZE PUSH1 0x1F NOT PUSH1 0x1F DUP3 ADD AND DUP3 ADD DUP1 PUSH1 0x40 MSTORE POP DUP2 ADD SWAP1 PUSH2 0x1FFC SWAP2 SWAP1 PUSH2 0x3346 JUMP JUMPDEST POP POP JUMP JUMPDEST PUSH1 0xE PUSH1 0x20 MSTORE DUP1 PUSH1 0x0 MSTORE PUSH1 0x40 PUSH1 0x0 KECCAK256 PUSH1 0x0 SWAP2 POP SWAP1 POP SLOAD DUP2 JUMP JUMPDEST PUSH1 0x5 SLOAD DUP2 JUMP JUMPDEST CALLER PUSH20 0xFFFFFFFFFFFFFFFFFFFFFFFFFFFFFFFFFFFFFFFF AND PUSH1 0x0 DUP1 SLOAD SWAP1 PUSH2 0x100 EXP SWAP1 DIV PUSH20 0xFFFFFFFFFFFFFFFFFFFFFFFFFFFFFFFFFFFFFFFF AND PUSH20 0xFFFFFFFFFFFFFFFFFFFFFFFFFFFFFFFFFFFFFFFF AND EQ DUP1 PUSH2 0x20C3 JUMPI POP CALLER PUSH20 0xFFFFFFFFFFFFFFFFFFFFFFFFFFFFFFFFFFFFFFFF AND PUSH1 0x0 DUP1 SLOAD SWAP1 PUSH2 0x100 EXP SWAP1 DIV PUSH20 0xFFFFFFFFFFFFFFFFFFFFFFFFFFFFFFFFFFFFFFFF AND PUSH20 0xFFFFFFFFFFFFFFFFFFFFFFFFFFFFFFFFFFFFFFFF AND EQ JUMPDEST PUSH2 0x2102 JUMPI PUSH1 0x40 MLOAD PUSH32 0x8C379A000000000000000000000000000000000000000000000000000000000 DUP2 MSTORE PUSH1 0x4 ADD PUSH2 0x20F9 SWAP1 PUSH2 0x2F85 JUMP JUMPDEST PUSH1 0x40 MLOAD DUP1 SWAP2 SUB SWAP1 REVERT JUMPDEST DUP2 PUSH1 0xC PUSH1 0x0 PUSH2 0x100 EXP DUP2 SLOAD DUP2 PUSH1 0xFF MUL NOT AND SWAP1 DUP4 ISZERO ISZERO MUL OR SWAP1 SSTORE POP DUP1 PUSH1 0xC PUSH1 0x1 PUSH2 0x100 EXP DUP2 SLOAD DUP2 PUSH1 0xFF MUL NOT AND SWAP1 DUP4 ISZERO ISZERO MUL OR SWAP1 SSTORE POP POP POP JUMP JUMPDEST PUSH1 0x1 PUSH1 0x0 SWAP1 SLOAD SWAP1 PUSH2 0x100 EXP SWAP1 DIV PUSH20 0xFFFFFFFFFFFFFFFFFFFFFFFFFFFFFFFFFFFFFFFF AND DUP2 JUMP JUMPDEST PUSH1 0xC PUSH1 0x1 SWAP1 SLOAD SWAP1 PUSH2 0x100 EXP SWAP1 DIV PUSH1 0xFF AND PUSH2 0x21AF JUMPI PUSH1 0x40 MLOAD PUSH32 0x8C379A000000000000000000000000000000000000000000000000000000000 DUP2 MSTORE PUSH1 0x4 ADD PUSH2 0x21A6 SWAP1 PUSH2 0x3054 JUMP JUMPDEST PUSH1 0x40 MLOAD DUP1 SWAP2 SUB SWAP1 REVERT JUMPDEST PUSH1 0x0 PUSH1 0xA PUSH1 0x0 CALLER PUSH20 0xFFFFFFFFFFFFFFFFFFFFFFFFFFFFFFFFFFFFFFFF AND PUSH20 0xFFFFFFFFFFFFFFFFFFFFFFFFFFFFFFFFFFFFFFFF AND DUP2 MSTORE PUSH1 0x20 ADD SWAP1 DUP2 MSTORE PUSH1 0x20 ADD PUSH1 0x0 KECCAK256 SLOAD GT PUSH2 0x2231 JUMPI PUSH1 0x40 MLOAD PUSH32 0x8C379A000000000000000000000000000000000000000000000000000000000 DUP2 MSTORE PUSH1 0x4 ADD PUSH2 0x2228 SWAP1 PUSH2 0x352C JUMP JUMPDEST PUSH1 0x40 MLOAD DUP1 SWAP2 SUB SWAP1 REVERT JUMPDEST PUSH1 0x1 PUSH1 0x0 SWAP1 SLOAD SWAP1 PUSH2 0x100 EXP SWAP1 DIV PUSH20 0xFFFFFFFFFFFFFFFFFFFFFFFFFFFFFFFFFFFFFFFF AND PUSH20 0xFFFFFFFFFFFFFFFFFFFFFFFFFFFFFFFFFFFFFFFF AND PUSH4 0xA9059CBB CALLER PUSH1 0xA PUSH1 0x0 CALLER PUSH20 0xFFFFFFFFFFFFFFFFFFFFFFFFFFFFFFFFFFFFFFFF AND PUSH20 0xFFFFFFFFFFFFFFFFFFFFFFFFFFFFFFFFFFFFFFFF AND DUP2 MSTORE PUSH1 0x20 ADD SWAP1 DUP2 MSTORE PUSH1 0x20 ADD PUSH1 0x0 KECCAK256 SLOAD PUSH1 0x40 MLOAD DUP4 PUSH4 0xFFFFFFFF AND PUSH1 0xE0 SHL DUP2 MSTORE PUSH1 0x4 ADD PUSH2 0x22CD SWAP3 SWAP2 SWAP1 PUSH2 0x33DF JUMP JUMPDEST PUSH1 0x20 PUSH1 0x40 MLOAD DUP1 DUP4 SUB DUP2 PUSH1 0x0 DUP8 GAS CALL ISZERO DUP1 ISZERO PUSH2 0x22EC JUMPI RETURNDATASIZE PUSH1 0x0 DUP1 RETURNDATACOPY RETURNDATASIZE PUSH1 0x0 REVERT JUMPDEST POP POP POP POP PUSH1 0x40 MLOAD RETURNDATASIZE PUSH1 0x1F NOT PUSH1 0x1F DUP3 ADD AND DUP3 ADD DUP1 PUSH1 0x40 MSTORE POP DUP2 ADD SWAP1 PUSH2 0x2310 SWAP2 SWAP1 PUSH2 0x3346 JUMP JUMPDEST POP PUSH1 0x0 PUSH1 0xA PUSH1 0x0 CALLER PUSH20 0xFFFFFFFFFFFFFFFFFFFFFFFFFFFFFFFFFFFFFFFF AND PUSH20 0xFFFFFFFFFFFFFFFFFFFFFFFFFFFFFFFFFFFFFFFF AND DUP2 MSTORE PUSH1 0x20 ADD SWAP1 DUP2 MSTORE PUSH1 0x20 ADD PUSH1 0x0 KECCAK256 DUP2 SWAP1 SSTORE POP JUMP JUMPDEST PUSH1 0x12 PUSH1 0x20 MSTORE DUP1 PUSH1 0x0 MSTORE PUSH1 0x40 PUSH1 0x0 KECCAK256 PUSH1 0x0 SWAP2 POP SWAP1 POP SLOAD DUP2 JUMP JUMPDEST PUSH1 0xE PUSH1 0x0 CALLER PUSH20 0xFFFFFFFFFFFFFFFFFFFFFFFFFFFFFFFFFFFFFFFF AND PUSH20 0xFFFFFFFFFFFFFFFFFFFFFFFFFFFFFFFFFFFFFFFF AND DUP2 MSTORE PUSH1 0x20 ADD SWAP1 DUP2 MSTORE PUSH1 0x20 ADD PUSH1 0x0 KECCAK256 SLOAD PUSH1 0xF PUSH1 0x0 CALLER PUSH20 0xFFFFFFFFFFFFFFFFFFFFFFFFFFFFFFFFFFFFFFFF AND PUSH20 0xFFFFFFFFFFFFFFFFFFFFFFFFFFFFFFFFFFFFFFFF AND DUP2 MSTORE PUSH1 0x20 ADD SWAP1 DUP2 MSTORE PUSH1 0x20 ADD PUSH1 0x0 KECCAK256 SLOAD TIMESTAMP PUSH2 0x23FB SWAP2 SWAP1 PUSH2 0x2FD4 JUMP JUMPDEST LT ISZERO PUSH2 0x243C JUMPI PUSH1 0x40 MLOAD PUSH32 0x8C379A000000000000000000000000000000000000000000000000000000000 DUP2 MSTORE PUSH1 0x4 ADD PUSH2 0x2433 SWAP1 PUSH2 0x3598 JUMP JUMPDEST PUSH1 0x40 MLOAD DUP1 SWAP2 SUB SWAP1 REVERT JUMPDEST PUSH1 0x0 PUSH1 0xD PUSH1 0x0 CALLER PUSH20 0xFFFFFFFFFFFFFFFFFFFFFFFFFFFFFFFFFFFFFFFF AND PUSH20 0xFFFFFFFFFFFFFFFFFFFFFFFFFFFFFFFFFFFFFFFF AND DUP2 MSTORE PUSH1 0x20 ADD SWAP1 DUP2 MSTORE PUSH1 0x20 ADD PUSH1 0x0 KECCAK256 SLOAD GT PUSH2 0x24BE JUMPI PUSH1 0x40 MLOAD PUSH32 0x8C379A000000000000000000000000000000000000000000000000000000000 DUP2 MSTORE PUSH1 0x4 ADD PUSH2 0x24B5 SWAP1 PUSH2 0x33BF JUMP JUMPDEST PUSH1 0x40 MLOAD DUP1 SWAP2 SUB SWAP1 REVERT JUMPDEST PUSH1 0x2 PUSH1 0x0 SWAP1 SLOAD SWAP1 PUSH2 0x100 EXP SWAP1 DIV PUSH20 0xFFFFFFFFFFFFFFFFFFFFFFFFFFFFFFFFFFFFFFFF AND PUSH20 0xFFFFFFFFFFFFFFFFFFFFFFFFFFFFFFFFFFFFFFFF AND PUSH4 0xA9059CBB CALLER PUSH1 0xD PUSH1 0x0 CALLER PUSH20 0xFFFFFFFFFFFFFFFFFFFFFFFFFFFFFFFFFFFFFFFF AND PUSH20 0xFFFFFFFFFFFFFFFFFFFFFFFFFFFFFFFFFFFFFFFF AND DUP2 MSTORE PUSH1 0x20 ADD SWAP1 DUP2 MSTORE PUSH1 0x20 ADD PUSH1 0x0 KECCAK256 SLOAD PUSH1 0x40 MLOAD DUP4 PUSH4 0xFFFFFFFF AND PUSH1 0xE0 SHL DUP2 MSTORE PUSH1 0x4 ADD PUSH2 0x255A SWAP3 SWAP2 SWAP1 PUSH2 0x33DF JUMP JUMPDEST PUSH1 0x20 PUSH1 0x40 MLOAD DUP1 DUP4 SUB DUP2 PUSH1 0x0 DUP8 GAS CALL ISZERO DUP1 ISZERO PUSH2 0x2579 JUMPI RETURNDATASIZE PUSH1 0x0 DUP1 RETURNDATACOPY RETURNDATASIZE PUSH1 0x0 REVERT JUMPDEST POP POP POP POP PUSH1 0x40 MLOAD RETURNDATASIZE PUSH1 0x1F NOT PUSH1 0x1F DUP3 ADD AND DUP3 ADD DUP1 PUSH1 0x40 MSTORE POP DUP2 ADD SWAP1 PUSH2 0x259D SWAP2 SWAP1 PUSH2 0x3346 JUMP JUMPDEST POP PUSH1 0x0 PUSH1 0xD PUSH1 0x0 CALLER PUSH20 0xFFFFFFFFFFFFFFFFFFFFFFFFFFFFFFFFFFFFFFFF AND PUSH20 0xFFFFFFFFFFFFFFFFFFFFFFFFFFFFFFFFFFFFFFFF AND DUP2 MSTORE PUSH1 0x20 ADD SWAP1 DUP2 MSTORE PUSH1 0x20 ADD PUSH1 0x0 KECCAK256 DUP2 SWAP1 SSTORE POP PUSH1 0x0 PUSH1 0xF PUSH1 0x0 CALLER PUSH20 0xFFFFFFFFFFFFFFFFFFFFFFFFFFFFFFFFFFFFFFFF AND PUSH20 0xFFFFFFFFFFFFFFFFFFFFFFFFFFFFFFFFFFFFFFFF AND DUP2 MSTORE PUSH1 0x20 ADD SWAP1 DUP2 MSTORE PUSH1 0x20 ADD PUSH1 0x0 KECCAK256 DUP2 SWAP1 SSTORE POP PUSH1 0x0 PUSH1 0x11 PUSH1 0x0 CALLER PUSH20 0xFFFFFFFFFFFFFFFFFFFFFFFFFFFFFFFFFFFFFFFF AND PUSH20 0xFFFFFFFFFFFFFFFFFFFFFFFFFFFFFFFFFFFFFFFF AND DUP2 MSTORE PUSH1 0x20 ADD SWAP1 DUP2 MSTORE PUSH1 0x20 ADD PUSH1 0x0 KECCAK256 DUP2 SWAP1 SSTORE POP PUSH1 0x0 PUSH1 0xE PUSH1 0x0 CALLER PUSH20 0xFFFFFFFFFFFFFFFFFFFFFFFFFFFFFFFFFFFFFFFF AND PUSH20 0xFFFFFFFFFFFFFFFFFFFFFFFFFFFFFFFFFFFFFFFF AND DUP2 MSTORE PUSH1 0x20 ADD SWAP1 DUP2 MSTORE PUSH1 0x20 ADD PUSH1 0x0 KECCAK256 DUP2 SWAP1 SSTORE POP PUSH1 0x0 PUSH1 0x12 PUSH1 0x0 CALLER PUSH20 0xFFFFFFFFFFFFFFFFFFFFFFFFFFFFFFFFFFFFFFFF AND PUSH20 0xFFFFFFFFFFFFFFFFFFFFFFFFFFFFFFFFFFFFFFFF AND DUP2 MSTORE PUSH1 0x20 ADD SWAP1 DUP2 MSTORE PUSH1 0x20 ADD PUSH1 0x0 KECCAK256 DUP2 SWAP1 SSTORE POP JUMP JUMPDEST PUSH1 0xA PUSH1 0x20 MSTORE DUP1 PUSH1 0x0 MSTORE PUSH1 0x40 PUSH1 0x0 KECCAK256 PUSH1 0x0 SWAP2 POP SWAP1 POP SLOAD DUP2 JUMP JUMPDEST PUSH1 0x3 PUSH1 0x0 SWAP1 SLOAD SWAP1 PUSH2 0x100 EXP SWAP1 DIV PUSH20 0xFFFFFFFFFFFFFFFFFFFFFFFFFFFFFFFFFFFFFFFF AND DUP2 JUMP JUMPDEST CALLER PUSH20 0xFFFFFFFFFFFFFFFFFFFFFFFFFFFFFFFFFFFFFFFF AND PUSH1 0x0 DUP1 SLOAD SWAP1 PUSH2 0x100 EXP SWAP1 DIV PUSH20 0xFFFFFFFFFFFFFFFFFFFFFFFFFFFFFFFFFFFFFFFF AND PUSH20 0xFFFFFFFFFFFFFFFFFFFFFFFFFFFFFFFFFFFFFFFF AND EQ DUP1 PUSH2 0x27DC JUMPI POP CALLER PUSH20 0xFFFFFFFFFFFFFFFFFFFFFFFFFFFFFFFFFFFFFFFF AND PUSH1 0x0 DUP1 SLOAD SWAP1 PUSH2 0x100 EXP SWAP1 DIV PUSH20 0xFFFFFFFFFFFFFFFFFFFFFFFFFFFFFFFFFFFFFFFF AND PUSH20 0xFFFFFFFFFFFFFFFFFFFFFFFFFFFFFFFFFFFFFFFF AND EQ JUMPDEST PUSH2 0x281B JUMPI PUSH1 0x40 MLOAD PUSH32 0x8C379A000000000000000000000000000000000000000000000000000000000 DUP2 MSTORE PUSH1 0x4 ADD PUSH2 0x2812 SWAP1 PUSH2 0x2F85 JUMP JUMPDEST PUSH1 0x40 MLOAD DUP1 SWAP2 SUB SWAP1 REVERT JUMPDEST DUP6 PUSH1 0xD PUSH1 0x0 DUP10 PUSH20 0xFFFFFFFFFFFFFFFFFFFFFFFFFFFFFFFFFFFFFFFF AND PUSH20 0xFFFFFFFFFFFFFFFFFFFFFFFFFFFFFFFFFFFFFFFF AND DUP2 MSTORE PUSH1 0x20 ADD SWAP1 DUP2 MSTORE PUSH1 0x20 ADD PUSH1 0x0 KECCAK256 DUP2 SWAP1 SSTORE POP DUP5 PUSH1 0xE PUSH1 0x0 DUP10 PUSH20 0xFFFFFFFFFFFFFFFFFFFFFFFFFFFFFFFFFFFFFFFF AND PUSH20 0xFFFFFFFFFFFFFFFFFFFFFFFFFFFFFFFFFFFFFFFF AND DUP2 MSTORE PUSH1 0x20 ADD SWAP1 DUP2 MSTORE PUSH1 0x20 ADD PUSH1 0x0 KECCAK256 DUP2 SWAP1 SSTORE POP DUP4 PUSH1 0xF PUSH1 0x0 DUP10 PUSH20 0xFFFFFFFFFFFFFFFFFFFFFFFFFFFFFFFFFFFFFFFF AND PUSH20 0xFFFFFFFFFFFFFFFFFFFFFFFFFFFFFFFFFFFFFFFF AND DUP2 MSTORE PUSH1 0x20 ADD SWAP1 DUP2 MSTORE PUSH1 0x20 ADD PUSH1 0x0 KECCAK256 DUP2 SWAP1 SSTORE POP DUP3 PUSH1 0x10 PUSH1 0x0 DUP10 PUSH20 0xFFFFFFFFFFFFFFFFFFFFFFFFFFFFFFFFFFFFFFFF AND PUSH20 0xFFFFFFFFFFFFFFFFFFFFFFFFFFFFFFFFFFFFFFFF AND DUP2 MSTORE PUSH1 0x20 ADD SWAP1 DUP2 MSTORE PUSH1 0x20 ADD PUSH1 0x0 KECCAK256 DUP2 SWAP1 SSTORE POP DUP2 PUSH1 0x12 PUSH1 0x0 DUP10 PUSH20 0xFFFFFFFFFFFFFFFFFFFFFFFFFFFFFFFFFFFFFFFF AND PUSH20 0xFFFFFFFFFFFFFFFFFFFFFFFFFFFFFFFFFFFFFFFF AND DUP2 MSTORE PUSH1 0x20 ADD SWAP1 DUP2 MSTORE PUSH1 0x20 ADD PUSH1 0x0 KECCAK256 DUP2 SWAP1 SSTORE POP DUP1 PUSH1 0x11 PUSH1 0x0 DUP10 PUSH20 0xFFFFFFFFFFFFFFFFFFFFFFFFFFFFFFFFFFFFFFFF AND PUSH20 0xFFFFFFFFFFFFFFFFFFFFFFFFFFFFFFFFFFFFFFFF AND DUP2 MSTORE PUSH1 0x20 ADD SWAP1 DUP2 MSTORE PUSH1 0x20 ADD PUSH1 0x0 KECCAK256 DUP2 SWAP1 SSTORE POP POP POP POP POP POP POP POP JUMP JUMPDEST PUSH1 0xC PUSH1 0x1 SWAP1 SLOAD SWAP1 PUSH2 0x100 EXP SWAP1 DIV PUSH1 0xFF AND DUP2 JUMP JUMPDEST CALLER PUSH20 0xFFFFFFFFFFFFFFFFFFFFFFFFFFFFFFFFFFFFFFFF AND PUSH1 0x0 DUP1 SLOAD SWAP1 PUSH2 0x100 EXP SWAP1 DIV PUSH20 0xFFFFFFFFFFFFFFFFFFFFFFFFFFFFFFFFFFFFFFFF AND PUSH20 0xFFFFFFFFFFFFFFFFFFFFFFFFFFFFFFFFFFFFFFFF AND EQ DUP1 PUSH2 0x2A74 JUMPI POP CALLER PUSH20 0xFFFFFFFFFFFFFFFFFFFFFFFFFFFFFFFFFFFFFFFF AND PUSH1 0x0 DUP1 SLOAD SWAP1 PUSH2 0x100 EXP SWAP1 DIV PUSH20 0xFFFFFFFFFFFFFFFFFFFFFFFFFFFFFFFFFFFFFFFF AND PUSH20 0xFFFFFFFFFFFFFFFFFFFFFFFFFFFFFFFFFFFFFFFF AND EQ JUMPDEST PUSH2 0x2AB3 JUMPI PUSH1 0x40 MLOAD PUSH32 0x8C379A000000000000000000000000000000000000000000000000000000000 DUP2 MSTORE PUSH1 0x4 ADD PUSH2 0x2AAA SWAP1 PUSH2 0x2F85 JUMP JUMPDEST PUSH1 0x40 MLOAD DUP1 SWAP2 SUB SWAP1 REVERT JUMPDEST PUSH1 0x0 PUSH20 0xFFFFFFFFFFFFFFFFFFFFFFFFFFFFFFFFFFFFFFFF AND DUP2 PUSH20 0xFFFFFFFFFFFFFFFFFFFFFFFFFFFFFFFFFFFFFFFF AND SUB PUSH2 0x2B22 JUMPI PUSH1 0x40 MLOAD PUSH32 0x8C379A000000000000000000000000000000000000000000000000000000000 DUP2 MSTORE PUSH1 0x4 ADD PUSH2 0x2B19 SWAP1 PUSH2 0x3604 JUMP JUMPDEST PUSH1 0x40 MLOAD DUP1 SWAP2 SUB SWAP1 REVERT JUMPDEST DUP1 PUSH20 0xFFFFFFFFFFFFFFFFFFFFFFFFFFFFFFFFFFFFFFFF AND PUSH1 0x0 DUP1 SLOAD SWAP1 PUSH2 0x100 EXP SWAP1 DIV PUSH20 0xFFFFFFFFFFFFFFFFFFFFFFFFFFFFFFFFFFFFFFFF AND PUSH20 0xFFFFFFFFFFFFFFFFFFFFFFFFFFFFFFFFFFFFFFFF AND PUSH32 0x8BE0079C531659141344CD1FD0A4F28419497F9722A3DAAFE3B4186F6B6457E0 PUSH1 0x40 MLOAD PUSH1 0x40 MLOAD DUP1 SWAP2 SUB SWAP1 LOG3 DUP1 PUSH1 0x0 DUP1 PUSH2 0x100 EXP DUP2 SLOAD DUP2 PUSH20 0xFFFFFFFFFFFFFFFFFFFFFFFFFFFFFFFFFFFFFFFF MUL NOT AND SWAP1 DUP4 PUSH20 0xFFFFFFFFFFFFFFFFFFFFFFFFFFFFFFFFFFFFFFFF AND MUL OR SWAP1 SSTORE POP POP JUMP JUMPDEST PUSH1 0xC PUSH1 0x0 SWAP1 SLOAD SWAP1 PUSH2 0x100 EXP SWAP1 DIV PUSH1 0xFF AND DUP2 JUMP JUMPDEST PUSH1 0x0 DUP1 DUP4 SUB PUSH2 0x2C04 JUMPI PUSH1 0x0 SWAP1 POP PUSH2 0x2C2E JUMP JUMPDEST DUP2 DUP4 PUSH2 0x2C10 SWAP2 SWAP1 PUSH2 0x3224 JUMP JUMPDEST SWAP1 POP DUP2 DUP4 DUP3 PUSH2 0x2C1F SWAP2 SWAP1 PUSH2 0x3295 JUMP JUMPDEST EQ PUSH2 0x2C2D JUMPI PUSH2 0x2C2C PUSH2 0x3624 JUMP JUMPDEST JUMPDEST JUMPDEST SWAP3 SWAP2 POP POP JUMP JUMPDEST PUSH1 0x0 DUP2 DUP4 PUSH2 0x2C42 SWAP2 SWAP1 PUSH2 0x3295 JUMP JUMPDEST SWAP1 POP SWAP3 SWAP2 POP POP JUMP JUMPDEST PUSH1 0x0 DUP1 REVERT JUMPDEST PUSH1 0x0 DUP2 SWAP1 POP SWAP2 SWAP1 POP JUMP JUMPDEST PUSH2 0x2C62 DUP2 PUSH2 0x2C4F JUMP JUMPDEST DUP2 EQ PUSH2 0x2C6D JUMPI PUSH1 0x0 DUP1 REVERT JUMPDEST POP JUMP JUMPDEST PUSH1 0x0 DUP2 CALLDATALOAD SWAP1 POP PUSH2 0x2C7F DUP2 PUSH2 0x2C59 JUMP JUMPDEST SWAP3 SWAP2 POP POP JUMP JUMPDEST PUSH1 0x0 PUSH1 0x20 DUP3 DUP5 SUB SLT ISZERO PUSH2 0x2C9B JUMPI PUSH2 0x2C9A PUSH2 0x2C4A JUMP JUMPDEST JUMPDEST PUSH1 0x0 PUSH2 0x2CA9 DUP5 DUP3 DUP6 ADD PUSH2 0x2C70 JUMP JUMPDEST SWAP2 POP POP SWAP3 SWAP2 POP POP JUMP JUMPDEST PUSH1 0x0 PUSH20 0xFFFFFFFFFFFFFFFFFFFFFFFFFFFFFFFFFFFFFFFF DUP3 AND SWAP1 POP SWAP2 SWAP1 POP JUMP JUMPDEST PUSH1 0x0 PUSH2 0x2CDD DUP3 PUSH2 0x2CB2 JUMP JUMPDEST SWAP1 POP SWAP2 SWAP1 POP JUMP JUMPDEST PUSH2 0x2CED DUP2 PUSH2 0x2CD2 JUMP JUMPDEST DUP2 EQ PUSH2 0x2CF8 JUMPI PUSH1 0x0 DUP1 REVERT JUMPDEST POP JUMP JUMPDEST PUSH1 0x0 DUP2 CALLDATALOAD SWAP1 POP PUSH2 0x2D0A DUP2 PUSH2 0x2CE4 JUMP JUMPDEST SWAP3 SWAP2 POP POP JUMP JUMPDEST PUSH1 0x0 PUSH1 0x20 DUP3 DUP5 SUB SLT ISZERO PUSH2 0x2D26 JUMPI PUSH2 0x2D25 PUSH2 0x2C4A JUMP JUMPDEST JUMPDEST PUSH1 0x0 PUSH2 0x2D34 DUP5 DUP3 DUP6 ADD PUSH2 0x2CFB JUMP JUMPDEST SWAP2 POP POP SWAP3 SWAP2 POP POP JUMP JUMPDEST PUSH2 0x2D46 DUP2 PUSH2 0x2C4F JUMP JUMPDEST DUP3 MSTORE POP POP JUMP JUMPDEST PUSH1 0x0 PUSH1 0x20 DUP3 ADD SWAP1 POP PUSH2 0x2D61 PUSH1 0x0 DUP4 ADD DUP5 PUSH2 0x2D3D JUMP JUMPDEST SWAP3 SWAP2 POP POP JUMP JUMPDEST PUSH1 0x0 DUP2 ISZERO ISZERO SWAP1 POP SWAP2 SWAP1 POP JUMP JUMPDEST PUSH2 0x2D7C DUP2 PUSH2 0x2D67 JUMP JUMPDEST DUP3 MSTORE POP POP JUMP JUMPDEST PUSH1 0x0 PUSH1 0x20 DUP3 ADD SWAP1 POP PUSH2 0x2D97 PUSH1 0x0 DUP4 ADD DUP5 PUSH2 0x2D73 JUMP JUMPDEST SWAP3 SWAP2 POP POP JUMP JUMPDEST PUSH2 0x2DA6 DUP2 PUSH2 0x2CD2 JUMP JUMPDEST DUP3 MSTORE POP POP JUMP JUMPDEST PUSH1 0x0 PUSH1 0x20 DUP3 ADD SWAP1 POP PUSH2 0x2DC1 PUSH1 0x0 DUP4 ADD DUP5 PUSH2 0x2D9D JUMP JUMPDEST SWAP3 SWAP2 POP POP JUMP JUMPDEST PUSH1 0x0 DUP1 PUSH1 0x0 PUSH1 0x60 DUP5 DUP7 SUB SLT ISZERO PUSH2 0x2DE0 JUMPI PUSH2 0x2DDF PUSH2 0x2C4A JUMP JUMPDEST JUMPDEST PUSH1 0x0 PUSH2 0x2DEE DUP7 DUP3 DUP8 ADD PUSH2 0x2C70 JUMP JUMPDEST SWAP4 POP POP PUSH1 0x20 PUSH2 0x2DFF DUP7 DUP3 DUP8 ADD PUSH2 0x2CFB JUMP JUMPDEST SWAP3 POP POP PUSH1 0x40 PUSH2 0x2E10 DUP7 DUP3 DUP8 ADD PUSH2 0x2C70 JUMP JUMPDEST SWAP2 POP POP SWAP3 POP SWAP3 POP SWAP3 JUMP JUMPDEST PUSH2 0x2E23 DUP2 PUSH2 0x2D67 JUMP JUMPDEST DUP2 EQ PUSH2 0x2E2E JUMPI PUSH1 0x0 DUP1 REVERT JUMPDEST POP JUMP JUMPDEST PUSH1 0x0 DUP2 CALLDATALOAD SWAP1 POP PUSH2 0x2E40 DUP2 PUSH2 0x2E1A JUMP JUMPDEST SWAP3 SWAP2 POP POP JUMP JUMPDEST PUSH1 0x0 DUP1 PUSH1 0x40 DUP4 DUP6 SUB SLT ISZERO PUSH2 0x2E5D JUMPI PUSH2 0x2E5C PUSH2 0x2C4A JUMP JUMPDEST JUMPDEST PUSH1 0x0 PUSH2 0x2E6B DUP6 DUP3 DUP7 ADD PUSH2 0x2E31 JUMP JUMPDEST SWAP3 POP POP PUSH1 0x20 PUSH2 0x2E7C DUP6 DUP3 DUP7 ADD PUSH2 0x2E31 JUMP JUMPDEST SWAP2 POP POP SWAP3 POP SWAP3 SWAP1 POP JUMP JUMPDEST PUSH1 0x0 DUP1 PUSH1 0x0 DUP1 PUSH1 0x0 DUP1 PUSH1 0x0 PUSH1 0xE0 DUP9 DUP11 SUB SLT ISZERO PUSH2 0x2EA5 JUMPI PUSH2 0x2EA4 PUSH2 0x2C4A JUMP JUMPDEST JUMPDEST PUSH1 0x0 PUSH2 0x2EB3 DUP11 DUP3 DUP12 ADD PUSH2 0x2CFB JUMP JUMPDEST SWAP8 POP POP PUSH1 0x20 PUSH2 0x2EC4 DUP11 DUP3 DUP12 ADD PUSH2 0x2C70 JUMP JUMPDEST SWAP7 POP POP PUSH1 0x40 PUSH2 0x2ED5 DUP11 DUP3 DUP12 ADD PUSH2 0x2C70 JUMP JUMPDEST SWAP6 POP POP PUSH1 0x60 PUSH2 0x2EE6 DUP11 DUP3 DUP12 ADD PUSH2 0x2C70 JUMP JUMPDEST SWAP5 POP POP PUSH1 0x80 PUSH2 0x2EF7 DUP11 DUP3 DUP12 ADD PUSH2 0x2C70 JUMP JUMPDEST SWAP4 POP POP PUSH1 0xA0 PUSH2 0x2F08 DUP11 DUP3 DUP12 ADD PUSH2 0x2C70 JUMP JUMPDEST SWAP3 POP POP PUSH1 0xC0 PUSH2 0x2F19 DUP11 DUP3 DUP12 ADD PUSH2 0x2C70 JUMP JUMPDEST SWAP2 POP POP SWAP3 SWAP6 SWAP9 SWAP2 SWAP5 SWAP8 POP SWAP3 SWAP6 POP JUMP JUMPDEST PUSH1 0x0 DUP3 DUP3 MSTORE PUSH1 0x20 DUP3 ADD SWAP1 POP SWAP3 SWAP2 POP POP JUMP JUMPDEST PUSH32 0x216F776E65720000000000000000000000000000000000000000000000000000 PUSH1 0x0 DUP3 ADD MSTORE POP JUMP JUMPDEST PUSH1 0x0 PUSH2 0x2F6F PUSH1 0x6 DUP4 PUSH2 0x2F28 JUMP JUMPDEST SWAP2 POP PUSH2 0x2F7A DUP3 PUSH2 0x2F39 JUMP JUMPDEST PUSH1 0x20 DUP3 ADD SWAP1 POP SWAP2 SWAP1 POP JUMP JUMPDEST PUSH1 0x0 PUSH1 0x20 DUP3 ADD SWAP1 POP DUP2 DUP2 SUB PUSH1 0x0 DUP4 ADD MSTORE PUSH2 0x2F9E DUP2 PUSH2 0x2F62 JUMP JUMPDEST SWAP1 POP SWAP2 SWAP1 POP JUMP JUMPDEST PUSH32 0x4E487B7100000000000000000000000000000000000000000000000000000000 PUSH1 0x0 MSTORE PUSH1 0x11 PUSH1 0x4 MSTORE PUSH1 0x24 PUSH1 0x0 REVERT JUMPDEST PUSH1 0x0 PUSH2 0x2FDF DUP3 PUSH2 0x2C4F JUMP JUMPDEST SWAP2 POP PUSH2 0x2FEA DUP4 PUSH2 0x2C4F JUMP JUMPDEST SWAP3 POP DUP3 DUP3 SUB SWAP1 POP DUP2 DUP2 GT ISZERO PUSH2 0x3002 JUMPI PUSH2 0x3001 PUSH2 0x2FA5 JUMP JUMPDEST JUMPDEST SWAP3 SWAP2 POP POP JUMP JUMPDEST PUSH32 0x6E6F742073746172740000000000000000000000000000000000000000000000 PUSH1 0x0 DUP3 ADD MSTORE POP JUMP JUMPDEST PUSH1 0x0 PUSH2 0x303E PUSH1 0x9 DUP4 PUSH2 0x2F28 JUMP JUMPDEST SWAP2 POP PUSH2 0x3049 DUP3 PUSH2 0x3008 JUMP JUMPDEST PUSH1 0x20 DUP3 ADD SWAP1 POP SWAP2 SWAP1 POP JUMP JUMPDEST PUSH1 0x0 PUSH1 0x20 DUP3 ADD SWAP1 POP DUP2 DUP2 SUB PUSH1 0x0 DUP4 ADD MSTORE PUSH2 0x306D DUP2 PUSH2 0x3031 JUMP JUMPDEST SWAP1 POP SWAP2 SWAP1 POP JUMP JUMPDEST PUSH32 0x696E76697465722063616E742062792073656C66000000000000000000000000 PUSH1 0x0 DUP3 ADD MSTORE POP JUMP JUMPDEST PUSH1 0x0 PUSH2 0x30AA PUSH1 0x14 DUP4 PUSH2 0x2F28 JUMP JUMPDEST SWAP2 POP PUSH2 0x30B5 DUP3 PUSH2 0x3074 JUMP JUMPDEST PUSH1 0x20 DUP3 ADD SWAP1 POP SWAP2 SWAP1 POP JUMP JUMPDEST PUSH1 0x0 PUSH1 0x20 DUP3 ADD SWAP1 POP DUP2 DUP2 SUB PUSH1 0x0 DUP4 ADD MSTORE PUSH2 0x30D9 DUP2 PUSH2 0x309D JUMP JUMPDEST SWAP1 POP SWAP2 SWAP1 POP JUMP JUMPDEST PUSH32 0x616C7265616479207374616B6500000000000000000000000000000000000000 PUSH1 0x0 DUP3 ADD MSTORE POP JUMP JUMPDEST PUSH1 0x0 PUSH2 0x3116 PUSH1 0xD DUP4 PUSH2 0x2F28 JUMP JUMPDEST SWAP2 POP PUSH2 0x3121 DUP3 PUSH2 0x30E0 JUMP JUMPDEST PUSH1 0x20 DUP3 ADD SWAP1 POP SWAP2 SWAP1 POP JUMP JUMPDEST PUSH1 0x0 PUSH1 0x20 DUP3 ADD SWAP1 POP DUP2 DUP2 SUB PUSH1 0x0 DUP4 ADD MSTORE PUSH2 0x3145 DUP2 PUSH2 0x3109 JUMP JUMPDEST SWAP1 POP SWAP2 SWAP1 POP JUMP JUMPDEST PUSH32 0x7A65726F207374616B6500000000000000000000000000000000000000000000 PUSH1 0x0 DUP3 ADD MSTORE POP JUMP JUMPDEST PUSH1 0x0 PUSH2 0x3182 PUSH1 0xA DUP4 PUSH2 0x2F28 JUMP JUMPDEST SWAP2 POP PUSH2 0x318D DUP3 PUSH2 0x314C JUMP JUMPDEST PUSH1 0x20 DUP3 ADD SWAP1 POP SWAP2 SWAP1 POP JUMP JUMPDEST PUSH1 0x0 PUSH1 0x20 DUP3 ADD SWAP1 POP DUP2 DUP2 SUB PUSH1 0x0 DUP4 ADD MSTORE PUSH2 0x31B1 DUP2 PUSH2 0x3175 JUMP JUMPDEST SWAP1 POP SWAP2 SWAP1 POP JUMP JUMPDEST PUSH32 0x6E6F742072696768742074696D65000000000000000000000000000000000000 PUSH1 0x0 DUP3 ADD MSTORE POP JUMP JUMPDEST PUSH1 0x0 PUSH2 0x31EE PUSH1 0xE DUP4 PUSH2 0x2F28 JUMP JUMPDEST SWAP2 POP PUSH2 0x31F9 DUP3 PUSH2 0x31B8 JUMP JUMPDEST PUSH1 0x20 DUP3 ADD SWAP1 POP SWAP2 SWAP1 POP JUMP JUMPDEST PUSH1 0x0 PUSH1 0x20 DUP3 ADD SWAP1 POP DUP2 DUP2 SUB PUSH1 0x0 DUP4 ADD MSTORE PUSH2 0x321D DUP2 PUSH2 0x31E1 JUMP JUMPDEST SWAP1 POP SWAP2 SWAP1 POP JUMP JUMPDEST PUSH1 0x0 PUSH2 0x322F DUP3 PUSH2 0x2C4F JUMP JUMPDEST SWAP2 POP PUSH2 0x323A DUP4 PUSH2 0x2C4F JUMP JUMPDEST SWAP3 POP DUP3 DUP3 MUL PUSH2 0x3248 DUP2 PUSH2 0x2C4F JUMP JUMPDEST SWAP2 POP DUP3 DUP3 DIV DUP5 EQ DUP4 ISZERO OR PUSH2 0x325F JUMPI PUSH2 0x325E PUSH2 0x2FA5 JUMP JUMPDEST JUMPDEST POP SWAP3 SWAP2 POP POP JUMP JUMPDEST PUSH32 0x4E487B7100000000000000000000000000000000000000000000000000000000 PUSH1 0x0 MSTORE PUSH1 0x12 PUSH1 0x4 MSTORE PUSH1 0x24 PUSH1 0x0 REVERT JUMPDEST PUSH1 0x0 PUSH2 0x32A0 DUP3 PUSH2 0x2C4F JUMP JUMPDEST SWAP2 POP PUSH2 0x32AB DUP4 PUSH2 0x2C4F JUMP JUMPDEST SWAP3 POP DUP3 PUSH2 0x32BB JUMPI PUSH2 0x32BA PUSH2 0x3266 JUMP JUMPDEST JUMPDEST DUP3 DUP3 DIV SWAP1 POP SWAP3 SWAP2 POP POP JUMP JUMPDEST PUSH1 0x0 PUSH2 0x32D1 DUP3 PUSH2 0x2C4F JUMP JUMPDEST SWAP2 POP PUSH2 0x32DC DUP4 PUSH2 0x2C4F JUMP JUMPDEST SWAP3 POP DUP3 DUP3 ADD SWAP1 POP DUP1 DUP3 GT ISZERO PUSH2 0x32F4 JUMPI PUSH2 0x32F3 PUSH2 0x2FA5 JUMP JUMPDEST JUMPDEST SWAP3 SWAP2 POP POP JUMP JUMPDEST PUSH1 0x0 PUSH1 0x60 DUP3 ADD SWAP1 POP PUSH2 0x330F PUSH1 0x0 DUP4 ADD DUP7 PUSH2 0x2D9D JUMP JUMPDEST PUSH2 0x331C PUSH1 0x20 DUP4 ADD DUP6 PUSH2 0x2D9D JUMP JUMPDEST PUSH2 0x3329 PUSH1 0x40 DUP4 ADD DUP5 PUSH2 0x2D3D JUMP JUMPDEST SWAP5 SWAP4 POP POP POP POP JUMP JUMPDEST PUSH1 0x0 DUP2 MLOAD SWAP1 POP PUSH2 0x3340 DUP2 PUSH2 0x2E1A JUMP JUMPDEST SWAP3 SWAP2 POP POP JUMP JUMPDEST PUSH1 0x0 PUSH1 0x20 DUP3 DUP5 SUB SLT ISZERO PUSH2 0x335C JUMPI PUSH2 0x335B PUSH2 0x2C4A JUMP JUMPDEST JUMPDEST PUSH1 0x0 PUSH2 0x336A DUP5 DUP3 DUP6 ADD PUSH2 0x3331 JUMP JUMPDEST SWAP2 POP POP SWAP3 SWAP2 POP POP JUMP JUMPDEST PUSH32 0x6E6F74207374616B650000000000000000000000000000000000000000000000 PUSH1 0x0 DUP3 ADD MSTORE POP JUMP JUMPDEST PUSH1 0x0 PUSH2 0x33A9 PUSH1 0x9 DUP4 PUSH2 0x2F28 JUMP JUMPDEST SWAP2 POP PUSH2 0x33B4 DUP3 PUSH2 0x3373 JUMP JUMPDEST PUSH1 0x20 DUP3 ADD SWAP1 POP SWAP2 SWAP1 POP JUMP JUMPDEST PUSH1 0x0 PUSH1 0x20 DUP3 ADD SWAP1 POP DUP2 DUP2 SUB PUSH1 0x0 DUP4 ADD MSTORE PUSH2 0x33D8 DUP2 PUSH2 0x339C JUMP JUMPDEST SWAP1 POP SWAP2 SWAP1 POP JUMP JUMPDEST PUSH1 0x0 PUSH1 0x40 DUP3 ADD SWAP1 POP PUSH2 0x33F4 PUSH1 0x0 DUP4 ADD DUP6 PUSH2 0x2D9D JUMP JUMPDEST PUSH2 0x3401 PUSH1 0x20 DUP4 ADD DUP5 PUSH2 0x2D3D JUMP JUMPDEST SWAP4 SWAP3 POP POP POP JUMP JUMPDEST PUSH32 0x7573657220697320696E20626C61636B6C697374000000000000000000000000 PUSH1 0x0 DUP3 ADD MSTORE POP JUMP JUMPDEST PUSH1 0x0 PUSH2 0x343E PUSH1 0x14 DUP4 PUSH2 0x2F28 JUMP JUMPDEST SWAP2 POP PUSH2 0x3449 DUP3 PUSH2 0x3408 JUMP JUMPDEST PUSH1 0x20 DUP3 ADD SWAP1 POP SWAP2 SWAP1 POP JUMP JUMPDEST PUSH1 0x0 PUSH1 0x20 DUP3 ADD SWAP1 POP DUP2 DUP2 SUB PUSH1 0x0 DUP4 ADD MSTORE PUSH2 0x346D DUP2 PUSH2 0x3431 JUMP JUMPDEST SWAP1 POP SWAP2 SWAP1 POP JUMP JUMPDEST PUSH32 0x616C726561647920636C61696D65640000000000000000000000000000000000 PUSH1 0x0 DUP3 ADD MSTORE POP JUMP JUMPDEST PUSH1 0x0 PUSH2 0x34AA PUSH1 0xF DUP4 PUSH2 0x2F28 JUMP JUMPDEST SWAP2 POP PUSH2 0x34B5 DUP3 PUSH2 0x3474 JUMP JUMPDEST PUSH1 0x20 DUP3 ADD SWAP1 POP SWAP2 SWAP1 POP JUMP JUMPDEST PUSH1 0x0 PUSH1 0x20 DUP3 ADD SWAP1 POP DUP2 DUP2 SUB PUSH1 0x0 DUP4 ADD MSTORE PUSH2 0x34D9 DUP2 PUSH2 0x349D JUMP JUMPDEST SWAP1 POP SWAP2 SWAP1 POP JUMP JUMPDEST PUSH32 0x6E6F207265776172640000000000000000000000000000000000000000000000 PUSH1 0x0 DUP3 ADD MSTORE POP JUMP JUMPDEST PUSH1 0x0 PUSH2 0x3516 PUSH1 0x9 DUP4 PUSH2 0x2F28 JUMP JUMPDEST SWAP2 POP PUSH2 0x3521 DUP3 PUSH2 0x34E0 JUMP JUMPDEST PUSH1 0x20 DUP3 ADD SWAP1 POP SWAP2 SWAP1 POP JUMP JUMPDEST PUSH1 0x0 PUSH1 0x20 DUP3 ADD SWAP1 POP DUP2 DUP2 SUB PUSH1 0x0 DUP4 ADD MSTORE PUSH2 0x3545 DUP2 PUSH2 0x3509 JUMP JUMPDEST SWAP1 POP SWAP2 SWAP1 POP JUMP JUMPDEST PUSH32 0x6E6F742074696D65000000000000000000000000000000000000000000000000 PUSH1 0x0 DUP3 ADD MSTORE POP JUMP JUMPDEST PUSH1 0x0 PUSH2 0x3582 PUSH1 0x8 DUP4 PUSH2 0x2F28 JUMP JUMPDEST SWAP2 POP PUSH2 0x358D DUP3 PUSH2 0x354C JUMP JUMPDEST PUSH1 0x20 DUP3 ADD SWAP1 POP SWAP2 SWAP1 POP JUMP JUMPDEST PUSH1 0x0 PUSH1 0x20 DUP3 ADD SWAP1 POP DUP2 DUP2 SUB PUSH1 0x0 DUP4 ADD MSTORE PUSH2 0x35B1 DUP2 PUSH2 0x3575 JUMP JUMPDEST SWAP1 POP SWAP2 SWAP1 POP JUMP JUMPDEST PUSH32 0x6E65772069732030000000000000000000000000000000000000000000000000 PUSH1 0x0 DUP3 ADD MSTORE POP JUMP JUMPDEST PUSH1 0x0 PUSH2 0x35EE PUSH1 0x8 DUP4 PUSH2 0x2F28 JUMP JUMPDEST SWAP2 POP PUSH2 0x35F9 DUP3 PUSH2 0x35B8 JUMP JUMPDEST PUSH1 0x20 DUP3 ADD SWAP1 POP SWAP2 SWAP1 POP JUMP JUMPDEST PUSH1 0x0 PUSH1 0x20 DUP3 ADD SWAP1 POP DUP2 DUP2 SUB PUSH1 0x0 DUP4 ADD MSTORE PUSH2 0x361D DUP2 PUSH2 0x35E1 JUMP JUMPDEST SWAP1 POP SWAP2 SWAP1 POP JUMP JUMPDEST PUSH32 0x4E487B7100000000000000000000000000000000000000000000000000000000 PUSH1 0x0 MSTORE PUSH1 0x1 PUSH1 0x4 MSTORE PUSH1 0x24 PUSH1 0x0 REVERT INVALID LOG2 PUSH5 0x6970667358 0x22 SLT KECCAK256 GASPRICE 0xF6 0xA9 0xB9 PUSH8 0x65460DFB644273E9 0xC3 0x4A DUP10 EXTCODECOPY DUP15 0x2C COINBASE 0xBE RETURN ORIGIN CALLVALUE 0xDE 0xF7 0xF8 ADDMOD EXTCODEHASH DUP4 0x25 PUSH16 0x64736F6C634300081200330000000000 "
				},
				"gasEstimates": {
					"creation": {
						"codeDepositCost": "2792200",
						"executionCost": "260784",
						"totalCost": "3052984"
					},
					"external": {
						"_inviteNum(address)": "2926",
						"_inviterMap(address)": "infinite",
						"_inviterReward(address)": "2947",
						"_lpPriceG()": "2563",
						"_lpPriceToken()": "2558",
						"_proportion()": "2519",
						"_rewardToken()": "2559",
						"_stake1()": "2540",
						"_stake3()": "2497",
						"_stake5()": "2519",
						"_stakeToken()": "2603",
						"_userBlacklist(address)": "2891",
						"_userEndClaimTime(address)": "2883",
						"_userLastClaimTime(address)": "2925",
						"_userPower(address)": "2903",
						"_userStake(address)": "2859",
						"_userStakeStartTime(address)": "2882",
						"_userStakeTime(address)": "2903",
						"cancalStack()": "infinite",
						"cancalStackOver(uint256)": "infinite",
						"claimReward()": "infinite",
						"claimStakeReward()": "infinite",
						"isClaimStart()": "2609",
						"isStakeStart()": "2603",
						"lpPrice()": "2550",
						"owner()": "2612",
						"ownerSetUser(address,uint256,uint256,uint256,uint256,uint256,uint256)": "infinite",
						"pureAmount(address)": "infinite",
						"setProportion(uint256)": "26906",
						"setStakeToken(address)": "29152",
						"setStatus(bool,bool)": "infinite",
						"setUserBlacklist(address)": "31513",
						"setlpPrice(uint256)": "26905",
						"setlpPriceToken(address)": "29106",
						"stake(uint256,address,uint256)": "infinite",
						"transferOwnership(address)": "32884",
						"withdraw()": "infinite"
					}
				},
				"methodIdentifiers": {
					"_inviteNum(address)": "1896b2c4",
					"_inviterMap(address)": "264edc1d",
					"_inviterReward(address)": "dd8158e0",
					"_lpPriceG()": "1c02e4b5",
					"_lpPriceToken()": "e53595ed",
					"_proportion()": "2eae667d",
					"_rewardToken()": "b59c6e0e",
					"_stake1()": "a6b14d5a",
					"_stake3()": "853e03e5",
					"_stake5()": "18883877",
					"_stakeToken()": "71ddda57",
					"_userBlacklist(address)": "115a972e",
					"_userEndClaimTime(address)": "0356c98f",
					"_userLastClaimTime(address)": "7929e29f",
					"_userPower(address)": "bef4533c",
					"_userStake(address)": "9805fa74",
					"_userStakeStartTime(address)": "16c259e1",
					"_userStakeTime(address)": "a041e172",
					"cancalStack()": "d02da761",
					"cancalStackOver(uint256)": "91f6963c",
					"claimReward()": "b88a802f",
					"claimStakeReward()": "9fd3af8b",
					"isClaimStart()": "e650d293",
					"isStakeStart()": "f3ef99bc",
					"lpPrice()": "0c280444",
					"owner()": "8da5cb5b",
					"ownerSetUser(address,uint256,uint256,uint256,uint256,uint256,uint256)": "e61ee218",
					"pureAmount(address)": "29dc425f",
					"setProportion(uint256)": "006cd200",
					"setStakeToken(address)": "0397d458",
					"setStatus(bool,bool)": "b3c2eac1",
					"setUserBlacklist(address)": "7d4cbd57",
					"setlpPrice(uint256)": "7e55d5fe",
					"setlpPriceToken(address)": "6d37b382",
					"stake(uint256,address,uint256)": "6e9c931c",
					"transferOwnership(address)": "f2fde38b",
					"withdraw()": "3ccfd60b"
				}
			},
			"storageLayout": {
				"storage": [
					{
						"astId": 91,
						"contract": "contracts/ymii/stake2Price.sol:Stake",
						"label": "_owner",
						"offset": 0,
						"slot": "0",
						"type": "t_address"
					},
					{
						"astId": 526,
						"contract": "contracts/ymii/stake2Price.sol:Stake",
						"label": "_rewardToken",
						"offset": 0,
						"slot": "1",
						"type": "t_address"
					},
					{
						"astId": 529,
						"contract": "contracts/ymii/stake2Price.sol:Stake",
						"label": "_stakeToken",
						"offset": 0,
						"slot": "2",
						"type": "t_address"
					},
					{
						"astId": 532,
						"contract": "contracts/ymii/stake2Price.sol:Stake",
						"label": "_lpPriceToken",
						"offset": 0,
						"slot": "3",
						"type": "t_address"
					},
					{
						"astId": 535,
						"contract": "contracts/ymii/stake2Price.sol:Stake",
						"label": "_lpPriceG",
						"offset": 0,
						"slot": "4",
						"type": "t_uint256"
					},
					{
						"astId": 542,
						"contract": "contracts/ymii/stake2Price.sol:Stake",
						"label": "_stake1",
						"offset": 0,
						"slot": "5",
						"type": "t_uint256"
					},
					{
						"astId": 549,
						"contract": "contracts/ymii/stake2Price.sol:Stake",
						"label": "_stake3",
						"offset": 0,
						"slot": "6",
						"type": "t_uint256"
					},
					{
						"astId": 556,
						"contract": "contracts/ymii/stake2Price.sol:Stake",
						"label": "_stake5",
						"offset": 0,
						"slot": "7",
						"type": "t_uint256"
					},
					{
						"astId": 559,
						"contract": "contracts/ymii/stake2Price.sol:Stake",
						"label": "_proportion",
						"offset": 0,
						"slot": "8",
						"type": "t_uint256"
					},
					{
						"astId": 563,
						"contract": "contracts/ymii/stake2Price.sol:Stake",
						"label": "_inviterMap",
						"offset": 0,
						"slot": "9",
						"type": "t_mapping(t_address,t_address)"
					},
					{
						"astId": 567,
						"contract": "contracts/ymii/stake2Price.sol:Stake",
						"label": "_inviterReward",
						"offset": 0,
						"slot": "10",
						"type": "t_mapping(t_address,t_uint256)"
					},
					{
						"astId": 571,
						"contract": "contracts/ymii/stake2Price.sol:Stake",
						"label": "_inviteNum",
						"offset": 0,
						"slot": "11",
						"type": "t_mapping(t_address,t_uint256)"
					},
					{
						"astId": 574,
						"contract": "contracts/ymii/stake2Price.sol:Stake",
						"label": "isStakeStart",
						"offset": 0,
						"slot": "12",
						"type": "t_bool"
					},
					{
						"astId": 577,
						"contract": "contracts/ymii/stake2Price.sol:Stake",
						"label": "isClaimStart",
						"offset": 1,
						"slot": "12",
						"type": "t_bool"
					},
					{
						"astId": 581,
						"contract": "contracts/ymii/stake2Price.sol:Stake",
						"label": "_userStake",
						"offset": 0,
						"slot": "13",
						"type": "t_mapping(t_address,t_uint256)"
					},
					{
						"astId": 585,
						"contract": "contracts/ymii/stake2Price.sol:Stake",
						"label": "_userStakeTime",
						"offset": 0,
						"slot": "14",
						"type": "t_mapping(t_address,t_uint256)"
					},
					{
						"astId": 589,
						"contract": "contracts/ymii/stake2Price.sol:Stake",
						"label": "_userStakeStartTime",
						"offset": 0,
						"slot": "15",
						"type": "t_mapping(t_address,t_uint256)"
					},
					{
						"astId": 593,
						"contract": "contracts/ymii/stake2Price.sol:Stake",
						"label": "_userLastClaimTime",
						"offset": 0,
						"slot": "16",
						"type": "t_mapping(t_address,t_uint256)"
					},
					{
						"astId": 597,
						"contract": "contracts/ymii/stake2Price.sol:Stake",
						"label": "_userEndClaimTime",
						"offset": 0,
						"slot": "17",
						"type": "t_mapping(t_address,t_uint256)"
					},
					{
						"astId": 601,
						"contract": "contracts/ymii/stake2Price.sol:Stake",
						"label": "_userPower",
						"offset": 0,
						"slot": "18",
						"type": "t_mapping(t_address,t_uint256)"
					},
					{
						"astId": 605,
						"contract": "contracts/ymii/stake2Price.sol:Stake",
						"label": "_userBlacklist",
						"offset": 0,
						"slot": "19",
						"type": "t_mapping(t_address,t_bool)"
					}
				],
				"types": {
					"t_address": {
						"encoding": "inplace",
						"label": "address",
						"numberOfBytes": "20"
					},
					"t_bool": {
						"encoding": "inplace",
						"label": "bool",
						"numberOfBytes": "1"
					},
					"t_mapping(t_address,t_address)": {
						"encoding": "mapping",
						"key": "t_address",
						"label": "mapping(address => address)",
						"numberOfBytes": "32",
						"value": "t_address"
					},
					"t_mapping(t_address,t_bool)": {
						"encoding": "mapping",
						"key": "t_address",
						"label": "mapping(address => bool)",
						"numberOfBytes": "32",
						"value": "t_bool"
					},
					"t_mapping(t_address,t_uint256)": {
						"encoding": "mapping",
						"key": "t_address",
						"label": "mapping(address => uint256)",
						"numberOfBytes": "32",
						"value": "t_uint256"
					},
					"t_uint256": {
						"encoding": "inplace",
						"label": "uint256",
						"numberOfBytes": "32"
					}
				}
			},
			"userdoc": {
				"kind": "user",
				"methods": {},
				"version": 1
			}
		}
	}
}