{
	"contracts/ymii/yi.sol": {
		"ERC20": {
			"abi": [
				{
					"inputs": [
						{
							"internalType": "string",
							"name": "tokenName",
							"type": "string"
						},
						{
							"internalType": "string",
							"name": "symbolName",
							"type": "string"
						},
						{
							"internalType": "uint8",
							"name": "tokenDecimals",
							"type": "uint8"
						},
						{
							"internalType": "uint256",
							"name": "startTotal",
							"type": "uint256"
						},
						{
							"internalType": "address",
							"name": "account",
							"type": "address"
						}
					],
					"stateMutability": "payable",
					"type": "constructor"
				},
				{
					"anonymous": false,
					"inputs": [
						{
							"indexed": true,
							"internalType": "address",
							"name": "owner",
							"type": "address"
						},
						{
							"indexed": true,
							"internalType": "address",
							"name": "spender",
							"type": "address"
						},
						{
							"indexed": false,
							"internalType": "uint256",
							"name": "value",
							"type": "uint256"
						}
					],
					"name": "Approval",
					"type": "event"
				},
				{
					"anonymous": false,
					"inputs": [
						{
							"indexed": true,
							"internalType": "address",
							"name": "from",
							"type": "address"
						},
						{
							"indexed": true,
							"internalType": "address",
							"name": "to",
							"type": "address"
						},
						{
							"indexed": false,
							"internalType": "uint256",
							"name": "value",
							"type": "uint256"
						}
					],
					"name": "Transfer",
					"type": "event"
				},
				{
					"stateMutability": "payable",
					"type": "fallback"
				},
				{
					"inputs": [],
					"name": "adminAddress",
					"outputs": [
						{
							"internalType": "address payable",
							"name": "",
							"type": "address"
						}
					],
					"stateMutability": "view",
					"type": "function"
				},
				{
					"inputs": [
						{
							"internalType": "address",
							"name": "owner",
							"type": "address"
						},
						{
							"internalType": "address",
							"name": "spender",
							"type": "address"
						}
					],
					"name": "allowance",
					"outputs": [
						{
							"internalType": "uint256",
							"name": "",
							"type": "uint256"
						}
					],
					"stateMutability": "view",
					"type": "function"
				},
				{
					"inputs": [
						{
							"internalType": "address",
							"name": "spender",
							"type": "address"
						},
						{
							"internalType": "uint256",
							"name": "amount",
							"type": "uint256"
						}
					],
					"name": "approve",
					"outputs": [
						{
							"internalType": "bool",
							"name": "",
							"type": "bool"
						}
					],
					"stateMutability": "nonpayable",
					"type": "function"
				},
				{
					"inputs": [
						{
							"internalType": "address",
							"name": "account",
							"type": "address"
						}
					],
					"name": "balanceOf",
					"outputs": [
						{
							"internalType": "uint256",
							"name": "",
							"type": "uint256"
						}
					],
					"stateMutability": "view",
					"type": "function"
				},
				{
					"inputs": [],
					"name": "decimals",
					"outputs": [
						{
							"internalType": "uint8",
							"name": "",
							"type": "uint8"
						}
					],
					"stateMutability": "view",
					"type": "function"
				},
				{
					"inputs": [
						{
							"internalType": "address",
							"name": "spender",
							"type": "address"
						},
						{
							"internalType": "uint256",
							"name": "substractedValue",
							"type": "uint256"
						}
					],
					"name": "decreaseAllowance",
					"outputs": [
						{
							"internalType": "bool",
							"name": "",
							"type": "bool"
						}
					],
					"stateMutability": "nonpayable",
					"type": "function"
				},
				{
					"inputs": [
						{
							"internalType": "address",
							"name": "newAddress",
							"type": "address"
						}
					],
					"name": "editAdmin",
					"outputs": [],
					"stateMutability": "nonpayable",
					"type": "function"
				},
				{
					"inputs": [
						{
							"internalType": "address",
							"name": "spender",
							"type": "address"
						},
						{
							"internalType": "uint256",
							"name": "addedValue",
							"type": "uint256"
						}
					],
					"name": "increaseAllowance",
					"outputs": [
						{
							"internalType": "bool",
							"name": "",
							"type": "bool"
						}
					],
					"stateMutability": "nonpayable",
					"type": "function"
				},
				{
					"inputs": [
						{
							"internalType": "address",
							"name": "account",
							"type": "address"
						},
						{
							"internalType": "uint256",
							"name": "amount",
							"type": "uint256"
						}
					],
					"name": "mint",
					"outputs": [],
					"stateMutability": "nonpayable",
					"type": "function"
				},
				{
					"inputs": [],
					"name": "name",
					"outputs": [
						{
							"internalType": "string",
							"name": "",
							"type": "string"
						}
					],
					"stateMutability": "view",
					"type": "function"
				},
				{
					"inputs": [],
					"name": "symbol",
					"outputs": [
						{
							"internalType": "string",
							"name": "",
							"type": "string"
						}
					],
					"stateMutability": "view",
					"type": "function"
				},
				{
					"inputs": [],
					"name": "totalSupply",
					"outputs": [
						{
							"internalType": "uint256",
							"name": "",
							"type": "uint256"
						}
					],
					"stateMutability": "view",
					"type": "function"
				},
				{
					"inputs": [
						{
							"internalType": "address",
							"name": "to",
							"type": "address"
						},
						{
							"internalType": "uint256",
							"name": "amount",
							"type": "uint256"
						}
					],
					"name": "transfer",
					"outputs": [
						{
							"internalType": "bool",
							"name": "",
							"type": "bool"
						}
					],
					"stateMutability": "nonpayable",
					"type": "function"
				},
				{
					"inputs": [
						{
							"internalType": "address",
							"name": "from",
							"type": "address"
						},
						{
							"internalType": "address",
							"name": "to",
							"type": "address"
						},
						{
							"internalType": "uint256",
							"name": "amount",
							"type": "uint256"
						}
					],
					"name": "transferFrom",
					"outputs": [
						{
							"internalType": "bool",
							"name": "",
							"type": "bool"
						}
					],
					"stateMutability": "nonpayable",
					"type": "function"
				},
				{
					"inputs": [],
					"name": "withdraw",
					"outputs": [],
					"stateMutability": "nonpayable",
					"type": "function"
				},
				{
					"inputs": [
						{
							"internalType": "contract IERC20",
							"name": "token",
							"type": "address"
						}
					],
					"name": "withdrawToken",
					"outputs": [],
					"stateMutability": "payable",
					"type": "function"
				},
				{
					"stateMutability": "payable",
					"type": "receive"
				}
			],
			"devdoc": {
				"kind": "dev",
				"methods": {},
				"version": 1
			},
			"evm": {
				"assembly": "    /* \"contracts/ymii/yi.sol\":1067:7281  contract ERC20 is IERC20, IERC20Metadata {... */\n  mstore(0x40, 0x80)\n    /* \"contracts/ymii/yi.sol\":6861:7193  constructor(string memory tokenName, string memory symbolName, uint8 tokenDecimals, uint256 startTotal, address account) payable {... */\n  mload(0x40)\n  sub(codesize, bytecodeSize)\n  dup1\n  bytecodeSize\n  dup4\n  codecopy\n  dup2\n  dup2\n  add\n  0x40\n  mstore\n  dup2\n  add\n  swap1\n  tag_1\n  swap2\n  swap1\n  tag_2\n  jump\t// in\ntag_1:\n    /* \"contracts/ymii/yi.sol\":7009:7018  tokenName */\n  dup5\n    /* \"contracts/ymii/yi.sol\":7001:7006  _name */\n  0x03\n    /* \"contracts/ymii/yi.sol\":7001:7018  _name = tokenName */\n  swap1\n  dup2\n  tag_5\n  swap2\n  swap1\n  tag_6\n  jump\t// in\ntag_5:\n  pop\n    /* \"contracts/ymii/yi.sol\":7039:7049  symbolName */\n  dup4\n    /* \"contracts/ymii/yi.sol\":7029:7036  _symbol */\n  0x04\n    /* \"contracts/ymii/yi.sol\":7029:7049  _symbol = symbolName */\n  swap1\n  dup2\n  tag_7\n  swap2\n  swap1\n  tag_6\n  jump\t// in\ntag_7:\n  pop\n    /* \"contracts/ymii/yi.sol\":7072:7085  tokenDecimals */\n  dup3\n    /* \"contracts/ymii/yi.sol\":7060:7069  _decimals */\n  0x05\n  0x00\n    /* \"contracts/ymii/yi.sol\":7060:7085  _decimals = tokenDecimals */\n  0x0100\n  exp\n  dup2\n  sload\n  dup2\n  0xff\n  mul\n  not\n  and\n  swap1\n  dup4\n  0xff\n  and\n  mul\n  or\n  swap1\n  sstore\n  pop\n    /* \"contracts/ymii/yi.sol\":7096:7140  _mint(account, startTotal * 10 ** _decimals) */\n  tag_8\n    /* \"contracts/ymii/yi.sol\":7102:7109  account */\n  dup2\n    /* \"contracts/ymii/yi.sol\":7130:7139  _decimals */\n  0x05\n  0x00\n  swap1\n  sload\n  swap1\n  0x0100\n  exp\n  swap1\n  div\n  0xff\n  and\n    /* \"contracts/ymii/yi.sol\":7124:7126  10 */\n  0x0a\n    /* \"contracts/ymii/yi.sol\":7124:7139  10 ** _decimals */\n  tag_9\n  swap2\n  swap1\n  tag_10\n  jump\t// in\ntag_9:\n    /* \"contracts/ymii/yi.sol\":7111:7121  startTotal */\n  dup5\n    /* \"contracts/ymii/yi.sol\":7111:7139  startTotal * 10 ** _decimals */\n  tag_11\n  swap2\n  swap1\n  tag_12\n  jump\t// in\ntag_11:\n    /* \"contracts/ymii/yi.sol\":7096:7101  _mint */\n  shl(0x20, tag_13)\n    /* \"contracts/ymii/yi.sol\":7096:7140  _mint(account, startTotal * 10 ** _decimals) */\n  0x20\n  shr\n  jump\t// in\ntag_8:\n    /* \"contracts/ymii/yi.sol\":7174:7184  msg.sender */\n  caller\n    /* \"contracts/ymii/yi.sol\":7151:7163  adminAddress */\n  0x05\n  0x01\n    /* \"contracts/ymii/yi.sol\":7151:7185  adminAddress = payable(msg.sender) */\n  0x0100\n  exp\n  dup2\n  sload\n  dup2\n  0xffffffffffffffffffffffffffffffffffffffff\n  mul\n  not\n  and\n  swap1\n  dup4\n  0xffffffffffffffffffffffffffffffffffffffff\n  and\n  mul\n  or\n  swap1\n  sstore\n  pop\n    /* \"contracts/ymii/yi.sol\":6861:7193  constructor(string memory tokenName, string memory symbolName, uint8 tokenDecimals, uint256 startTotal, address account) payable {... */\n  pop\n  pop\n  pop\n  pop\n  pop\n    /* \"contracts/ymii/yi.sol\":1067:7281  contract ERC20 is IERC20, IERC20Metadata {... */\n  jump(tag_14)\n    /* \"contracts/ymii/yi.sol\":4778:5171  function _mint(address account, uint256 amount) internal virtual {... */\ntag_13:\n    /* \"contracts/ymii/yi.sol\":4881:4882  0 */\n  0x00\n    /* \"contracts/ymii/yi.sol\":4862:4883  account != address(0) */\n  0xffffffffffffffffffffffffffffffffffffffff\n  and\n    /* \"contracts/ymii/yi.sol\":4862:4869  account */\n  dup3\n    /* \"contracts/ymii/yi.sol\":4862:4883  account != address(0) */\n  0xffffffffffffffffffffffffffffffffffffffff\n  and\n  sub\n    /* \"contracts/ymii/yi.sol\":4854:4919  require(account != address(0), \"ERC20: mint to the zero address\") */\n  tag_16\n  jumpi\n  mload(0x40)\n  0x08c379a000000000000000000000000000000000000000000000000000000000\n  dup2\n  mstore\n  0x04\n  add\n  tag_17\n  swap1\n  tag_18\n  jump\t// in\ntag_17:\n  mload(0x40)\n  dup1\n  swap2\n  sub\n  swap1\n  revert\ntag_16:\n    /* \"contracts/ymii/yi.sol\":4930:4979  _beforeTokenTransfer(address(0), account, amount) */\n  tag_19\n    /* \"contracts/ymii/yi.sol\":4959:4960  0 */\n  0x00\n    /* \"contracts/ymii/yi.sol\":4963:4970  account */\n  dup4\n    /* \"contracts/ymii/yi.sol\":4972:4978  amount */\n  dup4\n    /* \"contracts/ymii/yi.sol\":4930:4950  _beforeTokenTransfer */\n  shl(0x20, tag_20)\n    /* \"contracts/ymii/yi.sol\":4930:4979  _beforeTokenTransfer(address(0), account, amount) */\n  0x20\n  shr\n  jump\t// in\ntag_19:\n    /* \"contracts/ymii/yi.sol\":5006:5012  amount */\n  dup1\n    /* \"contracts/ymii/yi.sol\":4990:5002  _totalSupply */\n  0x02\n  0x00\n    /* \"contracts/ymii/yi.sol\":4990:5012  _totalSupply += amount */\n  dup3\n  dup3\n  sload\n  tag_21\n  swap2\n  swap1\n  tag_22\n  jump\t// in\ntag_21:\n  swap3\n  pop\n  pop\n  dup2\n  swap1\n  sstore\n  pop\n    /* \"contracts/ymii/yi.sol\":5045:5051  amount */\n  dup1\n    /* \"contracts/ymii/yi.sol\":5023:5032  _balances */\n  0x00\n    /* \"contracts/ymii/yi.sol\":5023:5041  _balances[account] */\n  dup1\n    /* \"contracts/ymii/yi.sol\":5033:5040  account */\n  dup5\n    /* \"contracts/ymii/yi.sol\":5023:5041  _balances[account] */\n  0xffffffffffffffffffffffffffffffffffffffff\n  and\n  0xffffffffffffffffffffffffffffffffffffffff\n  and\n  dup2\n  mstore\n  0x20\n  add\n  swap1\n  dup2\n  mstore\n  0x20\n  add\n  0x00\n  keccak256\n  0x00\n    /* \"contracts/ymii/yi.sol\":5023:5051  _balances[account] += amount */\n  dup3\n  dup3\n  sload\n  tag_23\n  swap2\n  swap1\n  tag_22\n  jump\t// in\ntag_23:\n  swap3\n  pop\n  pop\n  dup2\n  swap1\n  sstore\n  pop\n    /* \"contracts/ymii/yi.sol\":5088:5095  account */\n  dup2\n    /* \"contracts/ymii/yi.sol\":5067:5104  Transfer(address(0), account, amount) */\n  0xffffffffffffffffffffffffffffffffffffffff\n  and\n    /* \"contracts/ymii/yi.sol\":5084:5085  0 */\n  0x00\n    /* \"contracts/ymii/yi.sol\":5067:5104  Transfer(address(0), account, amount) */\n  0xffffffffffffffffffffffffffffffffffffffff\n  and\n  0xddf252ad1be2c89b69c2b068fc378daa952ba7f163c4a11628f55a4df523b3ef\n    /* \"contracts/ymii/yi.sol\":5097:5103  amount */\n  dup4\n    /* \"contracts/ymii/yi.sol\":5067:5104  Transfer(address(0), account, amount) */\n  mload(0x40)\n  tag_24\n  swap2\n  swap1\n  tag_25\n  jump\t// in\ntag_24:\n  mload(0x40)\n  dup1\n  swap2\n  sub\n  swap1\n  log3\n    /* \"contracts/ymii/yi.sol\":5115:5163  _afterTokenTransfer(address(0), account, amount) */\n  tag_26\n    /* \"contracts/ymii/yi.sol\":5143:5144  0 */\n  0x00\n    /* \"contracts/ymii/yi.sol\":5147:5154  account */\n  dup4\n    /* \"contracts/ymii/yi.sol\":5156:5162  amount */\n  dup4\n    /* \"contracts/ymii/yi.sol\":5115:5134  _afterTokenTransfer */\n  shl(0x20, tag_27)\n    /* \"contracts/ymii/yi.sol\":5115:5163  _afterTokenTransfer(address(0), account, amount) */\n  0x20\n  shr\n  jump\t// in\ntag_26:\n    /* \"contracts/ymii/yi.sol\":4778:5171  function _mint(address account, uint256 amount) internal virtual {... */\n  pop\n  pop\n  jump\t// out\n    /* \"contracts/ymii/yi.sol\":6598:6723  function _beforeTokenTransfer(... */\ntag_20:\n  pop\n  pop\n  pop\n  jump\t// out\n    /* \"contracts/ymii/yi.sol\":6731:6855  function _afterTokenTransfer(... */\ntag_27:\n  pop\n  pop\n  pop\n  jump\t// out\n    /* \"#utility.yul\":7:82   */\ntag_30:\n    /* \"#utility.yul\":40:46   */\n  0x00\n    /* \"#utility.yul\":73:75   */\n  0x40\n    /* \"#utility.yul\":67:76   */\n  mload\n    /* \"#utility.yul\":57:76   */\n  swap1\n  pop\n    /* \"#utility.yul\":7:82   */\n  swap1\n  jump\t// out\n    /* \"#utility.yul\":88:205   */\ntag_31:\n    /* \"#utility.yul\":197:198   */\n  0x00\n    /* \"#utility.yul\":194:195   */\n  dup1\n    /* \"#utility.yul\":187:199   */\n  revert\n    /* \"#utility.yul\":211:328   */\ntag_32:\n    /* \"#utility.yul\":320:321   */\n  0x00\n    /* \"#utility.yul\":317:318   */\n  dup1\n    /* \"#utility.yul\":310:322   */\n  revert\n    /* \"#utility.yul\":334:451   */\ntag_33:\n    /* \"#utility.yul\":443:444   */\n  0x00\n    /* \"#utility.yul\":440:441   */\n  dup1\n    /* \"#utility.yul\":433:445   */\n  revert\n    /* \"#utility.yul\":457:574   */\ntag_34:\n    /* \"#utility.yul\":566:567   */\n  0x00\n    /* \"#utility.yul\":563:564   */\n  dup1\n    /* \"#utility.yul\":556:568   */\n  revert\n    /* \"#utility.yul\":580:682   */\ntag_35:\n    /* \"#utility.yul\":621:627   */\n  0x00\n    /* \"#utility.yul\":672:674   */\n  0x1f\n    /* \"#utility.yul\":668:675   */\n  not\n    /* \"#utility.yul\":663:665   */\n  0x1f\n    /* \"#utility.yul\":656:661   */\n  dup4\n    /* \"#utility.yul\":652:666   */\n  add\n    /* \"#utility.yul\":648:676   */\n  and\n    /* \"#utility.yul\":638:676   */\n  swap1\n  pop\n    /* \"#utility.yul\":580:682   */\n  swap2\n  swap1\n  pop\n  jump\t// out\n    /* \"#utility.yul\":688:868   */\ntag_36:\n    /* \"#utility.yul\":736:813   */\n  0x4e487b7100000000000000000000000000000000000000000000000000000000\n    /* \"#utility.yul\":733:734   */\n  0x00\n    /* \"#utility.yul\":726:814   */\n  mstore\n    /* \"#utility.yul\":833:837   */\n  0x41\n    /* \"#utility.yul\":830:831   */\n  0x04\n    /* \"#utility.yul\":823:838   */\n  mstore\n    /* \"#utility.yul\":857:861   */\n  0x24\n    /* \"#utility.yul\":854:855   */\n  0x00\n    /* \"#utility.yul\":847:862   */\n  revert\n    /* \"#utility.yul\":874:1155   */\ntag_37:\n    /* \"#utility.yul\":957:984   */\n  tag_88\n    /* \"#utility.yul\":979:983   */\n  dup3\n    /* \"#utility.yul\":957:984   */\n  tag_35\n  jump\t// in\ntag_88:\n    /* \"#utility.yul\":949:955   */\n  dup2\n    /* \"#utility.yul\":945:985   */\n  add\n    /* \"#utility.yul\":1087:1093   */\n  dup2\n    /* \"#utility.yul\":1075:1085   */\n  dup2\n    /* \"#utility.yul\":1072:1094   */\n  lt\n    /* \"#utility.yul\":1051:1069   */\n  0xffffffffffffffff\n    /* \"#utility.yul\":1039:1049   */\n  dup3\n    /* \"#utility.yul\":1036:1070   */\n  gt\n    /* \"#utility.yul\":1033:1095   */\n  or\n    /* \"#utility.yul\":1030:1118   */\n  iszero\n  tag_89\n  jumpi\n    /* \"#utility.yul\":1098:1116   */\n  tag_90\n  tag_36\n  jump\t// in\ntag_90:\n    /* \"#utility.yul\":1030:1118   */\ntag_89:\n    /* \"#utility.yul\":1138:1148   */\n  dup1\n    /* \"#utility.yul\":1134:1136   */\n  0x40\n    /* \"#utility.yul\":1127:1149   */\n  mstore\n    /* \"#utility.yul\":917:1155   */\n  pop\n    /* \"#utility.yul\":874:1155   */\n  pop\n  pop\n  jump\t// out\n    /* \"#utility.yul\":1161:1290   */\ntag_38:\n    /* \"#utility.yul\":1195:1201   */\n  0x00\n    /* \"#utility.yul\":1222:1242   */\n  tag_92\n  tag_30\n  jump\t// in\ntag_92:\n    /* \"#utility.yul\":1212:1242   */\n  swap1\n  pop\n    /* \"#utility.yul\":1251:1284   */\n  tag_93\n    /* \"#utility.yul\":1279:1283   */\n  dup3\n    /* \"#utility.yul\":1271:1277   */\n  dup3\n    /* \"#utility.yul\":1251:1284   */\n  tag_37\n  jump\t// in\ntag_93:\n    /* \"#utility.yul\":1161:1290   */\n  swap2\n  swap1\n  pop\n  jump\t// out\n    /* \"#utility.yul\":1296:1604   */\ntag_39:\n    /* \"#utility.yul\":1358:1362   */\n  0x00\n    /* \"#utility.yul\":1448:1466   */\n  0xffffffffffffffff\n    /* \"#utility.yul\":1440:1446   */\n  dup3\n    /* \"#utility.yul\":1437:1467   */\n  gt\n    /* \"#utility.yul\":1434:1490   */\n  iszero\n  tag_95\n  jumpi\n    /* \"#utility.yul\":1470:1488   */\n  tag_96\n  tag_36\n  jump\t// in\ntag_96:\n    /* \"#utility.yul\":1434:1490   */\ntag_95:\n    /* \"#utility.yul\":1508:1537   */\n  tag_97\n    /* \"#utility.yul\":1530:1536   */\n  dup3\n    /* \"#utility.yul\":1508:1537   */\n  tag_35\n  jump\t// in\ntag_97:\n    /* \"#utility.yul\":1500:1537   */\n  swap1\n  pop\n    /* \"#utility.yul\":1592:1596   */\n  0x20\n    /* \"#utility.yul\":1586:1590   */\n  dup2\n    /* \"#utility.yul\":1582:1597   */\n  add\n    /* \"#utility.yul\":1574:1597   */\n  swap1\n  pop\n    /* \"#utility.yul\":1296:1604   */\n  swap2\n  swap1\n  pop\n  jump\t// out\n    /* \"#utility.yul\":1610:1856   */\ntag_40:\n    /* \"#utility.yul\":1691:1692   */\n  0x00\n    /* \"#utility.yul\":1701:1814   */\ntag_99:\n    /* \"#utility.yul\":1715:1721   */\n  dup4\n    /* \"#utility.yul\":1712:1713   */\n  dup2\n    /* \"#utility.yul\":1709:1722   */\n  lt\n    /* \"#utility.yul\":1701:1814   */\n  iszero\n  tag_101\n  jumpi\n    /* \"#utility.yul\":1800:1801   */\n  dup1\n    /* \"#utility.yul\":1795:1798   */\n  dup3\n    /* \"#utility.yul\":1791:1802   */\n  add\n    /* \"#utility.yul\":1785:1803   */\n  mload\n    /* \"#utility.yul\":1781:1782   */\n  dup2\n    /* \"#utility.yul\":1776:1779   */\n  dup5\n    /* \"#utility.yul\":1772:1783   */\n  add\n    /* \"#utility.yul\":1765:1804   */\n  mstore\n    /* \"#utility.yul\":1737:1739   */\n  0x20\n    /* \"#utility.yul\":1734:1735   */\n  dup2\n    /* \"#utility.yul\":1730:1740   */\n  add\n    /* \"#utility.yul\":1725:1740   */\n  swap1\n  pop\n    /* \"#utility.yul\":1701:1814   */\n  jump(tag_99)\ntag_101:\n    /* \"#utility.yul\":1848:1849   */\n  0x00\n    /* \"#utility.yul\":1839:1845   */\n  dup5\n    /* \"#utility.yul\":1834:1837   */\n  dup5\n    /* \"#utility.yul\":1830:1846   */\n  add\n    /* \"#utility.yul\":1823:1850   */\n  mstore\n    /* \"#utility.yul\":1672:1856   */\n  pop\n    /* \"#utility.yul\":1610:1856   */\n  pop\n  pop\n  pop\n  jump\t// out\n    /* \"#utility.yul\":1862:2296   */\ntag_41:\n    /* \"#utility.yul\":1951:1956   */\n  0x00\n    /* \"#utility.yul\":1976:2042   */\n  tag_103\n    /* \"#utility.yul\":1992:2041   */\n  tag_104\n    /* \"#utility.yul\":2034:2040   */\n  dup5\n    /* \"#utility.yul\":1992:2041   */\n  tag_39\n  jump\t// in\ntag_104:\n    /* \"#utility.yul\":1976:2042   */\n  tag_38\n  jump\t// in\ntag_103:\n    /* \"#utility.yul\":1967:2042   */\n  swap1\n  pop\n    /* \"#utility.yul\":2065:2071   */\n  dup3\n    /* \"#utility.yul\":2058:2063   */\n  dup2\n    /* \"#utility.yul\":2051:2072   */\n  mstore\n    /* \"#utility.yul\":2103:2107   */\n  0x20\n    /* \"#utility.yul\":2096:2101   */\n  dup2\n    /* \"#utility.yul\":2092:2108   */\n  add\n    /* \"#utility.yul\":2141:2144   */\n  dup5\n    /* \"#utility.yul\":2132:2138   */\n  dup5\n    /* \"#utility.yul\":2127:2130   */\n  dup5\n    /* \"#utility.yul\":2123:2139   */\n  add\n    /* \"#utility.yul\":2120:2145   */\n  gt\n    /* \"#utility.yul\":2117:2229   */\n  iszero\n  tag_105\n  jumpi\n    /* \"#utility.yul\":2148:2227   */\n  tag_106\n  tag_34\n  jump\t// in\ntag_106:\n    /* \"#utility.yul\":2117:2229   */\ntag_105:\n    /* \"#utility.yul\":2238:2290   */\n  tag_107\n    /* \"#utility.yul\":2283:2289   */\n  dup5\n    /* \"#utility.yul\":2278:2281   */\n  dup3\n    /* \"#utility.yul\":2273:2276   */\n  dup6\n    /* \"#utility.yul\":2238:2290   */\n  tag_40\n  jump\t// in\ntag_107:\n    /* \"#utility.yul\":1957:2296   */\n  pop\n    /* \"#utility.yul\":1862:2296   */\n  swap4\n  swap3\n  pop\n  pop\n  pop\n  jump\t// out\n    /* \"#utility.yul\":2316:2671   */\ntag_42:\n    /* \"#utility.yul\":2383:2388   */\n  0x00\n    /* \"#utility.yul\":2432:2435   */\n  dup3\n    /* \"#utility.yul\":2425:2429   */\n  0x1f\n    /* \"#utility.yul\":2417:2423   */\n  dup4\n    /* \"#utility.yul\":2413:2430   */\n  add\n    /* \"#utility.yul\":2409:2436   */\n  slt\n    /* \"#utility.yul\":2399:2521   */\n  tag_109\n  jumpi\n    /* \"#utility.yul\":2440:2519   */\n  tag_110\n  tag_33\n  jump\t// in\ntag_110:\n    /* \"#utility.yul\":2399:2521   */\ntag_109:\n    /* \"#utility.yul\":2550:2556   */\n  dup2\n    /* \"#utility.yul\":2544:2557   */\n  mload\n    /* \"#utility.yul\":2575:2665   */\n  tag_111\n    /* \"#utility.yul\":2661:2664   */\n  dup5\n    /* \"#utility.yul\":2653:2659   */\n  dup3\n    /* \"#utility.yul\":2646:2650   */\n  0x20\n    /* \"#utility.yul\":2638:2644   */\n  dup7\n    /* \"#utility.yul\":2634:2651   */\n  add\n    /* \"#utility.yul\":2575:2665   */\n  tag_41\n  jump\t// in\ntag_111:\n    /* \"#utility.yul\":2566:2665   */\n  swap2\n  pop\n    /* \"#utility.yul\":2389:2671   */\n  pop\n    /* \"#utility.yul\":2316:2671   */\n  swap3\n  swap2\n  pop\n  pop\n  jump\t// out\n    /* \"#utility.yul\":2677:2763   */\ntag_43:\n    /* \"#utility.yul\":2712:2719   */\n  0x00\n    /* \"#utility.yul\":2752:2756   */\n  0xff\n    /* \"#utility.yul\":2745:2750   */\n  dup3\n    /* \"#utility.yul\":2741:2757   */\n  and\n    /* \"#utility.yul\":2730:2757   */\n  swap1\n  pop\n    /* \"#utility.yul\":2677:2763   */\n  swap2\n  swap1\n  pop\n  jump\t// out\n    /* \"#utility.yul\":2769:2887   */\ntag_44:\n    /* \"#utility.yul\":2840:2862   */\n  tag_114\n    /* \"#utility.yul\":2856:2861   */\n  dup2\n    /* \"#utility.yul\":2840:2862   */\n  tag_43\n  jump\t// in\ntag_114:\n    /* \"#utility.yul\":2833:2838   */\n  dup2\n    /* \"#utility.yul\":2830:2863   */\n  eq\n    /* \"#utility.yul\":2820:2881   */\n  tag_115\n  jumpi\n    /* \"#utility.yul\":2877:2878   */\n  0x00\n    /* \"#utility.yul\":2874:2875   */\n  dup1\n    /* \"#utility.yul\":2867:2879   */\n  revert\n    /* \"#utility.yul\":2820:2881   */\ntag_115:\n    /* \"#utility.yul\":2769:2887   */\n  pop\n  jump\t// out\n    /* \"#utility.yul\":2893:3032   */\ntag_45:\n    /* \"#utility.yul\":2948:2953   */\n  0x00\n    /* \"#utility.yul\":2979:2985   */\n  dup2\n    /* \"#utility.yul\":2973:2986   */\n  mload\n    /* \"#utility.yul\":2964:2986   */\n  swap1\n  pop\n    /* \"#utility.yul\":2995:3026   */\n  tag_117\n    /* \"#utility.yul\":3020:3025   */\n  dup2\n    /* \"#utility.yul\":2995:3026   */\n  tag_44\n  jump\t// in\ntag_117:\n    /* \"#utility.yul\":2893:3032   */\n  swap3\n  swap2\n  pop\n  pop\n  jump\t// out\n    /* \"#utility.yul\":3038:3115   */\ntag_46:\n    /* \"#utility.yul\":3075:3082   */\n  0x00\n    /* \"#utility.yul\":3104:3109   */\n  dup2\n    /* \"#utility.yul\":3093:3109   */\n  swap1\n  pop\n    /* \"#utility.yul\":3038:3115   */\n  swap2\n  swap1\n  pop\n  jump\t// out\n    /* \"#utility.yul\":3121:3243   */\ntag_47:\n    /* \"#utility.yul\":3194:3218   */\n  tag_120\n    /* \"#utility.yul\":3212:3217   */\n  dup2\n    /* \"#utility.yul\":3194:3218   */\n  tag_46\n  jump\t// in\ntag_120:\n    /* \"#utility.yul\":3187:3192   */\n  dup2\n    /* \"#utility.yul\":3184:3219   */\n  eq\n    /* \"#utility.yul\":3174:3237   */\n  tag_121\n  jumpi\n    /* \"#utility.yul\":3233:3234   */\n  0x00\n    /* \"#utility.yul\":3230:3231   */\n  dup1\n    /* \"#utility.yul\":3223:3235   */\n  revert\n    /* \"#utility.yul\":3174:3237   */\ntag_121:\n    /* \"#utility.yul\":3121:3243   */\n  pop\n  jump\t// out\n    /* \"#utility.yul\":3249:3392   */\ntag_48:\n    /* \"#utility.yul\":3306:3311   */\n  0x00\n    /* \"#utility.yul\":3337:3343   */\n  dup2\n    /* \"#utility.yul\":3331:3344   */\n  mload\n    /* \"#utility.yul\":3322:3344   */\n  swap1\n  pop\n    /* \"#utility.yul\":3353:3386   */\n  tag_123\n    /* \"#utility.yul\":3380:3385   */\n  dup2\n    /* \"#utility.yul\":3353:3386   */\n  tag_47\n  jump\t// in\ntag_123:\n    /* \"#utility.yul\":3249:3392   */\n  swap3\n  swap2\n  pop\n  pop\n  jump\t// out\n    /* \"#utility.yul\":3398:3524   */\ntag_49:\n    /* \"#utility.yul\":3435:3442   */\n  0x00\n    /* \"#utility.yul\":3475:3517   */\n  0xffffffffffffffffffffffffffffffffffffffff\n    /* \"#utility.yul\":3468:3473   */\n  dup3\n    /* \"#utility.yul\":3464:3518   */\n  and\n    /* \"#utility.yul\":3453:3518   */\n  swap1\n  pop\n    /* \"#utility.yul\":3398:3524   */\n  swap2\n  swap1\n  pop\n  jump\t// out\n    /* \"#utility.yul\":3530:3626   */\ntag_50:\n    /* \"#utility.yul\":3567:3574   */\n  0x00\n    /* \"#utility.yul\":3596:3620   */\n  tag_126\n    /* \"#utility.yul\":3614:3619   */\n  dup3\n    /* \"#utility.yul\":3596:3620   */\n  tag_49\n  jump\t// in\ntag_126:\n    /* \"#utility.yul\":3585:3620   */\n  swap1\n  pop\n    /* \"#utility.yul\":3530:3626   */\n  swap2\n  swap1\n  pop\n  jump\t// out\n    /* \"#utility.yul\":3632:3754   */\ntag_51:\n    /* \"#utility.yul\":3705:3729   */\n  tag_128\n    /* \"#utility.yul\":3723:3728   */\n  dup2\n    /* \"#utility.yul\":3705:3729   */\n  tag_50\n  jump\t// in\ntag_128:\n    /* \"#utility.yul\":3698:3703   */\n  dup2\n    /* \"#utility.yul\":3695:3730   */\n  eq\n    /* \"#utility.yul\":3685:3748   */\n  tag_129\n  jumpi\n    /* \"#utility.yul\":3744:3745   */\n  0x00\n    /* \"#utility.yul\":3741:3742   */\n  dup1\n    /* \"#utility.yul\":3734:3746   */\n  revert\n    /* \"#utility.yul\":3685:3748   */\ntag_129:\n    /* \"#utility.yul\":3632:3754   */\n  pop\n  jump\t// out\n    /* \"#utility.yul\":3760:3903   */\ntag_52:\n    /* \"#utility.yul\":3817:3822   */\n  0x00\n    /* \"#utility.yul\":3848:3854   */\n  dup2\n    /* \"#utility.yul\":3842:3855   */\n  mload\n    /* \"#utility.yul\":3833:3855   */\n  swap1\n  pop\n    /* \"#utility.yul\":3864:3897   */\n  tag_131\n    /* \"#utility.yul\":3891:3896   */\n  dup2\n    /* \"#utility.yul\":3864:3897   */\n  tag_51\n  jump\t// in\ntag_131:\n    /* \"#utility.yul\":3760:3903   */\n  swap3\n  swap2\n  pop\n  pop\n  jump\t// out\n    /* \"#utility.yul\":3909:5228   */\ntag_2:\n    /* \"#utility.yul\":4033:4039   */\n  0x00\n    /* \"#utility.yul\":4041:4047   */\n  dup1\n    /* \"#utility.yul\":4049:4055   */\n  0x00\n    /* \"#utility.yul\":4057:4063   */\n  dup1\n    /* \"#utility.yul\":4065:4071   */\n  0x00\n    /* \"#utility.yul\":4114:4117   */\n  0xa0\n    /* \"#utility.yul\":4102:4111   */\n  dup7\n    /* \"#utility.yul\":4093:4100   */\n  dup9\n    /* \"#utility.yul\":4089:4112   */\n  sub\n    /* \"#utility.yul\":4085:4118   */\n  slt\n    /* \"#utility.yul\":4082:4202   */\n  iszero\n  tag_133\n  jumpi\n    /* \"#utility.yul\":4121:4200   */\n  tag_134\n  tag_31\n  jump\t// in\ntag_134:\n    /* \"#utility.yul\":4082:4202   */\ntag_133:\n    /* \"#utility.yul\":4262:4263   */\n  0x00\n    /* \"#utility.yul\":4251:4260   */\n  dup7\n    /* \"#utility.yul\":4247:4264   */\n  add\n    /* \"#utility.yul\":4241:4265   */\n  mload\n    /* \"#utility.yul\":4292:4310   */\n  0xffffffffffffffff\n    /* \"#utility.yul\":4284:4290   */\n  dup2\n    /* \"#utility.yul\":4281:4311   */\n  gt\n    /* \"#utility.yul\":4278:4395   */\n  iszero\n  tag_135\n  jumpi\n    /* \"#utility.yul\":4314:4393   */\n  tag_136\n  tag_32\n  jump\t// in\ntag_136:\n    /* \"#utility.yul\":4278:4395   */\ntag_135:\n    /* \"#utility.yul\":4419:4493   */\n  tag_137\n    /* \"#utility.yul\":4485:4492   */\n  dup9\n    /* \"#utility.yul\":4476:4482   */\n  dup3\n    /* \"#utility.yul\":4465:4474   */\n  dup10\n    /* \"#utility.yul\":4461:4483   */\n  add\n    /* \"#utility.yul\":4419:4493   */\n  tag_42\n  jump\t// in\ntag_137:\n    /* \"#utility.yul\":4409:4493   */\n  swap6\n  pop\n    /* \"#utility.yul\":4212:4503   */\n  pop\n    /* \"#utility.yul\":4563:4565   */\n  0x20\n    /* \"#utility.yul\":4552:4561   */\n  dup7\n    /* \"#utility.yul\":4548:4566   */\n  add\n    /* \"#utility.yul\":4542:4567   */\n  mload\n    /* \"#utility.yul\":4594:4612   */\n  0xffffffffffffffff\n    /* \"#utility.yul\":4586:4592   */\n  dup2\n    /* \"#utility.yul\":4583:4613   */\n  gt\n    /* \"#utility.yul\":4580:4697   */\n  iszero\n  tag_138\n  jumpi\n    /* \"#utility.yul\":4616:4695   */\n  tag_139\n  tag_32\n  jump\t// in\ntag_139:\n    /* \"#utility.yul\":4580:4697   */\ntag_138:\n    /* \"#utility.yul\":4721:4795   */\n  tag_140\n    /* \"#utility.yul\":4787:4794   */\n  dup9\n    /* \"#utility.yul\":4778:4784   */\n  dup3\n    /* \"#utility.yul\":4767:4776   */\n  dup10\n    /* \"#utility.yul\":4763:4785   */\n  add\n    /* \"#utility.yul\":4721:4795   */\n  tag_42\n  jump\t// in\ntag_140:\n    /* \"#utility.yul\":4711:4795   */\n  swap5\n  pop\n    /* \"#utility.yul\":4513:4805   */\n  pop\n    /* \"#utility.yul\":4844:4846   */\n  0x40\n    /* \"#utility.yul\":4870:4932   */\n  tag_141\n    /* \"#utility.yul\":4924:4931   */\n  dup9\n    /* \"#utility.yul\":4915:4921   */\n  dup3\n    /* \"#utility.yul\":4904:4913   */\n  dup10\n    /* \"#utility.yul\":4900:4922   */\n  add\n    /* \"#utility.yul\":4870:4932   */\n  tag_45\n  jump\t// in\ntag_141:\n    /* \"#utility.yul\":4860:4932   */\n  swap4\n  pop\n    /* \"#utility.yul\":4815:4942   */\n  pop\n    /* \"#utility.yul\":4981:4983   */\n  0x60\n    /* \"#utility.yul\":5007:5071   */\n  tag_142\n    /* \"#utility.yul\":5063:5070   */\n  dup9\n    /* \"#utility.yul\":5054:5060   */\n  dup3\n    /* \"#utility.yul\":5043:5052   */\n  dup10\n    /* \"#utility.yul\":5039:5061   */\n  add\n    /* \"#utility.yul\":5007:5071   */\n  tag_48\n  jump\t// in\ntag_142:\n    /* \"#utility.yul\":4997:5071   */\n  swap3\n  pop\n    /* \"#utility.yul\":4952:5081   */\n  pop\n    /* \"#utility.yul\":5120:5123   */\n  0x80\n    /* \"#utility.yul\":5147:5211   */\n  tag_143\n    /* \"#utility.yul\":5203:5210   */\n  dup9\n    /* \"#utility.yul\":5194:5200   */\n  dup3\n    /* \"#utility.yul\":5183:5192   */\n  dup10\n    /* \"#utility.yul\":5179:5201   */\n  add\n    /* \"#utility.yul\":5147:5211   */\n  tag_52\n  jump\t// in\ntag_143:\n    /* \"#utility.yul\":5137:5211   */\n  swap2\n  pop\n    /* \"#utility.yul\":5091:5221   */\n  pop\n    /* \"#utility.yul\":3909:5228   */\n  swap3\n  swap6\n  pop\n  swap3\n  swap6\n  swap1\n  swap4\n  pop\n  jump\t// out\n    /* \"#utility.yul\":5234:5333   */\ntag_53:\n    /* \"#utility.yul\":5286:5292   */\n  0x00\n    /* \"#utility.yul\":5320:5325   */\n  dup2\n    /* \"#utility.yul\":5314:5326   */\n  mload\n    /* \"#utility.yul\":5304:5326   */\n  swap1\n  pop\n    /* \"#utility.yul\":5234:5333   */\n  swap2\n  swap1\n  pop\n  jump\t// out\n    /* \"#utility.yul\":5339:5519   */\ntag_54:\n    /* \"#utility.yul\":5387:5464   */\n  0x4e487b7100000000000000000000000000000000000000000000000000000000\n    /* \"#utility.yul\":5384:5385   */\n  0x00\n    /* \"#utility.yul\":5377:5465   */\n  mstore\n    /* \"#utility.yul\":5484:5488   */\n  0x22\n    /* \"#utility.yul\":5481:5482   */\n  0x04\n    /* \"#utility.yul\":5474:5489   */\n  mstore\n    /* \"#utility.yul\":5508:5512   */\n  0x24\n    /* \"#utility.yul\":5505:5506   */\n  0x00\n    /* \"#utility.yul\":5498:5513   */\n  revert\n    /* \"#utility.yul\":5525:5845   */\ntag_55:\n    /* \"#utility.yul\":5569:5575   */\n  0x00\n    /* \"#utility.yul\":5606:5607   */\n  0x02\n    /* \"#utility.yul\":5600:5604   */\n  dup3\n    /* \"#utility.yul\":5596:5608   */\n  div\n    /* \"#utility.yul\":5586:5608   */\n  swap1\n  pop\n    /* \"#utility.yul\":5653:5654   */\n  0x01\n    /* \"#utility.yul\":5647:5651   */\n  dup3\n    /* \"#utility.yul\":5643:5655   */\n  and\n    /* \"#utility.yul\":5674:5692   */\n  dup1\n    /* \"#utility.yul\":5664:5745   */\n  tag_147\n  jumpi\n    /* \"#utility.yul\":5730:5734   */\n  0x7f\n    /* \"#utility.yul\":5722:5728   */\n  dup3\n    /* \"#utility.yul\":5718:5735   */\n  and\n    /* \"#utility.yul\":5708:5735   */\n  swap2\n  pop\n    /* \"#utility.yul\":5664:5745   */\ntag_147:\n    /* \"#utility.yul\":5792:5794   */\n  0x20\n    /* \"#utility.yul\":5784:5790   */\n  dup3\n    /* \"#utility.yul\":5781:5795   */\n  lt\n    /* \"#utility.yul\":5761:5779   */\n  dup2\n    /* \"#utility.yul\":5758:5796   */\n  sub\n    /* \"#utility.yul\":5755:5839   */\n  tag_148\n  jumpi\n    /* \"#utility.yul\":5811:5829   */\n  tag_149\n  tag_54\n  jump\t// in\ntag_149:\n    /* \"#utility.yul\":5755:5839   */\ntag_148:\n    /* \"#utility.yul\":5576:5845   */\n  pop\n    /* \"#utility.yul\":5525:5845   */\n  swap2\n  swap1\n  pop\n  jump\t// out\n    /* \"#utility.yul\":5851:5992   */\ntag_56:\n    /* \"#utility.yul\":5900:5904   */\n  0x00\n    /* \"#utility.yul\":5923:5926   */\n  dup2\n    /* \"#utility.yul\":5915:5926   */\n  swap1\n  pop\n    /* \"#utility.yul\":5946:5949   */\n  dup2\n    /* \"#utility.yul\":5943:5944   */\n  0x00\n    /* \"#utility.yul\":5936:5950   */\n  mstore\n    /* \"#utility.yul\":5980:5984   */\n  0x20\n    /* \"#utility.yul\":5977:5978   */\n  0x00\n    /* \"#utility.yul\":5967:5985   */\n  keccak256\n    /* \"#utility.yul\":5959:5985   */\n  swap1\n  pop\n    /* \"#utility.yul\":5851:5992   */\n  swap2\n  swap1\n  pop\n  jump\t// out\n    /* \"#utility.yul\":5998:6091   */\ntag_57:\n    /* \"#utility.yul\":6035:6041   */\n  0x00\n    /* \"#utility.yul\":6082:6084   */\n  0x20\n    /* \"#utility.yul\":6077:6079   */\n  0x1f\n    /* \"#utility.yul\":6070:6075   */\n  dup4\n    /* \"#utility.yul\":6066:6080   */\n  add\n    /* \"#utility.yul\":6062:6085   */\n  div\n    /* \"#utility.yul\":6052:6085   */\n  swap1\n  pop\n    /* \"#utility.yul\":5998:6091   */\n  swap2\n  swap1\n  pop\n  jump\t// out\n    /* \"#utility.yul\":6097:6204   */\ntag_58:\n    /* \"#utility.yul\":6141:6149   */\n  0x00\n    /* \"#utility.yul\":6191:6196   */\n  dup3\n    /* \"#utility.yul\":6185:6189   */\n  dup3\n    /* \"#utility.yul\":6181:6197   */\n  shl\n    /* \"#utility.yul\":6160:6197   */\n  swap1\n  pop\n    /* \"#utility.yul\":6097:6204   */\n  swap3\n  swap2\n  pop\n  pop\n  jump\t// out\n    /* \"#utility.yul\":6210:6603   */\ntag_59:\n    /* \"#utility.yul\":6279:6285   */\n  0x00\n    /* \"#utility.yul\":6329:6330   */\n  0x08\n    /* \"#utility.yul\":6317:6327   */\n  dup4\n    /* \"#utility.yul\":6313:6331   */\n  mul\n    /* \"#utility.yul\":6352:6449   */\n  tag_154\n    /* \"#utility.yul\":6382:6448   */\n  0xffffffffffffffffffffffffffffffffffffffffffffffffffffffffffffffff\n    /* \"#utility.yul\":6371:6380   */\n  dup3\n    /* \"#utility.yul\":6352:6449   */\n  tag_58\n  jump\t// in\ntag_154:\n    /* \"#utility.yul\":6470:6509   */\n  tag_155\n    /* \"#utility.yul\":6500:6508   */\n  dup7\n    /* \"#utility.yul\":6489:6498   */\n  dup4\n    /* \"#utility.yul\":6470:6509   */\n  tag_58\n  jump\t// in\ntag_155:\n    /* \"#utility.yul\":6458:6509   */\n  swap6\n  pop\n    /* \"#utility.yul\":6542:6546   */\n  dup1\n    /* \"#utility.yul\":6538:6547   */\n  not\n    /* \"#utility.yul\":6531:6536   */\n  dup5\n    /* \"#utility.yul\":6527:6548   */\n  and\n    /* \"#utility.yul\":6518:6548   */\n  swap4\n  pop\n    /* \"#utility.yul\":6591:6595   */\n  dup1\n    /* \"#utility.yul\":6581:6589   */\n  dup7\n    /* \"#utility.yul\":6577:6596   */\n  and\n    /* \"#utility.yul\":6570:6575   */\n  dup5\n    /* \"#utility.yul\":6567:6597   */\n  or\n    /* \"#utility.yul\":6557:6597   */\n  swap3\n  pop\n    /* \"#utility.yul\":6286:6603   */\n  pop\n  pop\n    /* \"#utility.yul\":6210:6603   */\n  swap4\n  swap3\n  pop\n  pop\n  pop\n  jump\t// out\n    /* \"#utility.yul\":6609:6669   */\ntag_60:\n    /* \"#utility.yul\":6637:6640   */\n  0x00\n    /* \"#utility.yul\":6658:6663   */\n  dup2\n    /* \"#utility.yul\":6651:6663   */\n  swap1\n  pop\n    /* \"#utility.yul\":6609:6669   */\n  swap2\n  swap1\n  pop\n  jump\t// out\n    /* \"#utility.yul\":6675:6817   */\ntag_61:\n    /* \"#utility.yul\":6725:6734   */\n  0x00\n    /* \"#utility.yul\":6758:6811   */\n  tag_158\n    /* \"#utility.yul\":6776:6810   */\n  tag_159\n    /* \"#utility.yul\":6785:6809   */\n  tag_160\n    /* \"#utility.yul\":6803:6808   */\n  dup5\n    /* \"#utility.yul\":6785:6809   */\n  tag_46\n  jump\t// in\ntag_160:\n    /* \"#utility.yul\":6776:6810   */\n  tag_60\n  jump\t// in\ntag_159:\n    /* \"#utility.yul\":6758:6811   */\n  tag_46\n  jump\t// in\ntag_158:\n    /* \"#utility.yul\":6745:6811   */\n  swap1\n  pop\n    /* \"#utility.yul\":6675:6817   */\n  swap2\n  swap1\n  pop\n  jump\t// out\n    /* \"#utility.yul\":6823:6898   */\ntag_62:\n    /* \"#utility.yul\":6866:6869   */\n  0x00\n    /* \"#utility.yul\":6887:6892   */\n  dup2\n    /* \"#utility.yul\":6880:6892   */\n  swap1\n  pop\n    /* \"#utility.yul\":6823:6898   */\n  swap2\n  swap1\n  pop\n  jump\t// out\n    /* \"#utility.yul\":6904:7173   */\ntag_63:\n    /* \"#utility.yul\":7014:7053   */\n  tag_163\n    /* \"#utility.yul\":7045:7052   */\n  dup4\n    /* \"#utility.yul\":7014:7053   */\n  tag_61\n  jump\t// in\ntag_163:\n    /* \"#utility.yul\":7075:7166   */\n  tag_164\n    /* \"#utility.yul\":7124:7165   */\n  tag_165\n    /* \"#utility.yul\":7148:7164   */\n  dup3\n    /* \"#utility.yul\":7124:7165   */\n  tag_62\n  jump\t// in\ntag_165:\n    /* \"#utility.yul\":7116:7122   */\n  dup5\n    /* \"#utility.yul\":7109:7113   */\n  dup5\n    /* \"#utility.yul\":7103:7114   */\n  sload\n    /* \"#utility.yul\":7075:7166   */\n  tag_59\n  jump\t// in\ntag_164:\n    /* \"#utility.yul\":7069:7073   */\n  dup3\n    /* \"#utility.yul\":7062:7167   */\n  sstore\n    /* \"#utility.yul\":6980:7173   */\n  pop\n    /* \"#utility.yul\":6904:7173   */\n  pop\n  pop\n  pop\n  jump\t// out\n    /* \"#utility.yul\":7179:7252   */\ntag_64:\n    /* \"#utility.yul\":7224:7227   */\n  0x00\n    /* \"#utility.yul\":7179:7252   */\n  swap1\n  jump\t// out\n    /* \"#utility.yul\":7258:7447   */\ntag_65:\n    /* \"#utility.yul\":7335:7367   */\n  tag_168\n  tag_64\n  jump\t// in\ntag_168:\n    /* \"#utility.yul\":7376:7441   */\n  tag_169\n    /* \"#utility.yul\":7434:7440   */\n  dup2\n    /* \"#utility.yul\":7426:7432   */\n  dup5\n    /* \"#utility.yul\":7420:7424   */\n  dup5\n    /* \"#utility.yul\":7376:7441   */\n  tag_63\n  jump\t// in\ntag_169:\n    /* \"#utility.yul\":7311:7447   */\n  pop\n    /* \"#utility.yul\":7258:7447   */\n  pop\n  pop\n  jump\t// out\n    /* \"#utility.yul\":7453:7639   */\ntag_66:\n    /* \"#utility.yul\":7513:7633   */\ntag_171:\n    /* \"#utility.yul\":7530:7533   */\n  dup2\n    /* \"#utility.yul\":7523:7528   */\n  dup2\n    /* \"#utility.yul\":7520:7534   */\n  lt\n    /* \"#utility.yul\":7513:7633   */\n  iszero\n  tag_173\n  jumpi\n    /* \"#utility.yul\":7584:7623   */\n  tag_174\n    /* \"#utility.yul\":7621:7622   */\n  0x00\n    /* \"#utility.yul\":7614:7619   */\n  dup3\n    /* \"#utility.yul\":7584:7623   */\n  tag_65\n  jump\t// in\ntag_174:\n    /* \"#utility.yul\":7557:7558   */\n  0x01\n    /* \"#utility.yul\":7550:7555   */\n  dup2\n    /* \"#utility.yul\":7546:7559   */\n  add\n    /* \"#utility.yul\":7537:7559   */\n  swap1\n  pop\n    /* \"#utility.yul\":7513:7633   */\n  jump(tag_171)\ntag_173:\n    /* \"#utility.yul\":7453:7639   */\n  pop\n  pop\n  jump\t// out\n    /* \"#utility.yul\":7645:8188   */\ntag_67:\n    /* \"#utility.yul\":7746:7748   */\n  0x1f\n    /* \"#utility.yul\":7741:7744   */\n  dup3\n    /* \"#utility.yul\":7738:7749   */\n  gt\n    /* \"#utility.yul\":7735:8181   */\n  iszero\n  tag_176\n  jumpi\n    /* \"#utility.yul\":7780:7818   */\n  tag_177\n    /* \"#utility.yul\":7812:7817   */\n  dup2\n    /* \"#utility.yul\":7780:7818   */\n  tag_56\n  jump\t// in\ntag_177:\n    /* \"#utility.yul\":7864:7893   */\n  tag_178\n    /* \"#utility.yul\":7882:7892   */\n  dup5\n    /* \"#utility.yul\":7864:7893   */\n  tag_57\n  jump\t// in\ntag_178:\n    /* \"#utility.yul\":7854:7862   */\n  dup2\n    /* \"#utility.yul\":7850:7894   */\n  add\n    /* \"#utility.yul\":8047:8049   */\n  0x20\n    /* \"#utility.yul\":8035:8045   */\n  dup6\n    /* \"#utility.yul\":8032:8050   */\n  lt\n    /* \"#utility.yul\":8029:8078   */\n  iszero\n  tag_179\n  jumpi\n    /* \"#utility.yul\":8068:8076   */\n  dup2\n    /* \"#utility.yul\":8053:8076   */\n  swap1\n  pop\n    /* \"#utility.yul\":8029:8078   */\ntag_179:\n    /* \"#utility.yul\":8091:8171   */\n  tag_180\n    /* \"#utility.yul\":8147:8169   */\n  tag_181\n    /* \"#utility.yul\":8165:8168   */\n  dup6\n    /* \"#utility.yul\":8147:8169   */\n  tag_57\n  jump\t// in\ntag_181:\n    /* \"#utility.yul\":8137:8145   */\n  dup4\n    /* \"#utility.yul\":8133:8170   */\n  add\n    /* \"#utility.yul\":8120:8131   */\n  dup3\n    /* \"#utility.yul\":8091:8171   */\n  tag_66\n  jump\t// in\ntag_180:\n    /* \"#utility.yul\":7750:8181   */\n  pop\n  pop\n    /* \"#utility.yul\":7735:8181   */\ntag_176:\n    /* \"#utility.yul\":7645:8188   */\n  pop\n  pop\n  pop\n  jump\t// out\n    /* \"#utility.yul\":8194:8311   */\ntag_68:\n    /* \"#utility.yul\":8248:8256   */\n  0x00\n    /* \"#utility.yul\":8298:8303   */\n  dup3\n    /* \"#utility.yul\":8292:8296   */\n  dup3\n    /* \"#utility.yul\":8288:8304   */\n  shr\n    /* \"#utility.yul\":8267:8304   */\n  swap1\n  pop\n    /* \"#utility.yul\":8194:8311   */\n  swap3\n  swap2\n  pop\n  pop\n  jump\t// out\n    /* \"#utility.yul\":8317:8486   */\ntag_69:\n    /* \"#utility.yul\":8361:8367   */\n  0x00\n    /* \"#utility.yul\":8394:8445   */\n  tag_184\n    /* \"#utility.yul\":8442:8443   */\n  0x00\n    /* \"#utility.yul\":8438:8444   */\n  not\n    /* \"#utility.yul\":8430:8435   */\n  dup5\n    /* \"#utility.yul\":8427:8428   */\n  0x08\n    /* \"#utility.yul\":8423:8436   */\n  mul\n    /* \"#utility.yul\":8394:8445   */\n  tag_68\n  jump\t// in\ntag_184:\n    /* \"#utility.yul\":8390:8446   */\n  not\n    /* \"#utility.yul\":8475:8479   */\n  dup1\n    /* \"#utility.yul\":8469:8473   */\n  dup4\n    /* \"#utility.yul\":8465:8480   */\n  and\n    /* \"#utility.yul\":8455:8480   */\n  swap2\n  pop\n    /* \"#utility.yul\":8368:8486   */\n  pop\n    /* \"#utility.yul\":8317:8486   */\n  swap3\n  swap2\n  pop\n  pop\n  jump\t// out\n    /* \"#utility.yul\":8491:8786   */\ntag_70:\n    /* \"#utility.yul\":8567:8571   */\n  0x00\n    /* \"#utility.yul\":8713:8742   */\n  tag_186\n    /* \"#utility.yul\":8738:8741   */\n  dup4\n    /* \"#utility.yul\":8732:8736   */\n  dup4\n    /* \"#utility.yul\":8713:8742   */\n  tag_69\n  jump\t// in\ntag_186:\n    /* \"#utility.yul\":8705:8742   */\n  swap2\n  pop\n    /* \"#utility.yul\":8775:8778   */\n  dup3\n    /* \"#utility.yul\":8772:8773   */\n  0x02\n    /* \"#utility.yul\":8768:8779   */\n  mul\n    /* \"#utility.yul\":8762:8766   */\n  dup3\n    /* \"#utility.yul\":8759:8780   */\n  or\n    /* \"#utility.yul\":8751:8780   */\n  swap1\n  pop\n    /* \"#utility.yul\":8491:8786   */\n  swap3\n  swap2\n  pop\n  pop\n  jump\t// out\n    /* \"#utility.yul\":8791:10186   */\ntag_6:\n    /* \"#utility.yul\":8908:8945   */\n  tag_188\n    /* \"#utility.yul\":8941:8944   */\n  dup3\n    /* \"#utility.yul\":8908:8945   */\n  tag_53\n  jump\t// in\ntag_188:\n    /* \"#utility.yul\":9010:9028   */\n  0xffffffffffffffff\n    /* \"#utility.yul\":9002:9008   */\n  dup2\n    /* \"#utility.yul\":8999:9029   */\n  gt\n    /* \"#utility.yul\":8996:9052   */\n  iszero\n  tag_189\n  jumpi\n    /* \"#utility.yul\":9032:9050   */\n  tag_190\n  tag_36\n  jump\t// in\ntag_190:\n    /* \"#utility.yul\":8996:9052   */\ntag_189:\n    /* \"#utility.yul\":9076:9114   */\n  tag_191\n    /* \"#utility.yul\":9108:9112   */\n  dup3\n    /* \"#utility.yul\":9102:9113   */\n  sload\n    /* \"#utility.yul\":9076:9114   */\n  tag_55\n  jump\t// in\ntag_191:\n    /* \"#utility.yul\":9161:9228   */\n  tag_192\n    /* \"#utility.yul\":9221:9227   */\n  dup3\n    /* \"#utility.yul\":9213:9219   */\n  dup3\n    /* \"#utility.yul\":9207:9211   */\n  dup6\n    /* \"#utility.yul\":9161:9228   */\n  tag_67\n  jump\t// in\ntag_192:\n    /* \"#utility.yul\":9255:9256   */\n  0x00\n    /* \"#utility.yul\":9279:9283   */\n  0x20\n    /* \"#utility.yul\":9266:9283   */\n  swap1\n  pop\n    /* \"#utility.yul\":9311:9313   */\n  0x1f\n    /* \"#utility.yul\":9303:9309   */\n  dup4\n    /* \"#utility.yul\":9300:9314   */\n  gt\n    /* \"#utility.yul\":9328:9329   */\n  0x01\n    /* \"#utility.yul\":9323:9941   */\n  dup2\n  eq\n  tag_194\n  jumpi\n    /* \"#utility.yul\":9985:9986   */\n  0x00\n    /* \"#utility.yul\":10002:10008   */\n  dup5\n    /* \"#utility.yul\":9999:10076   */\n  iszero\n  tag_195\n  jumpi\n    /* \"#utility.yul\":10051:10060   */\n  dup3\n    /* \"#utility.yul\":10046:10049   */\n  dup8\n    /* \"#utility.yul\":10042:10061   */\n  add\n    /* \"#utility.yul\":10036:10062   */\n  mload\n    /* \"#utility.yul\":10027:10062   */\n  swap1\n  pop\n    /* \"#utility.yul\":9999:10076   */\ntag_195:\n    /* \"#utility.yul\":10102:10169   */\n  tag_196\n    /* \"#utility.yul\":10162:10168   */\n  dup6\n    /* \"#utility.yul\":10155:10160   */\n  dup3\n    /* \"#utility.yul\":10102:10169   */\n  tag_70\n  jump\t// in\ntag_196:\n    /* \"#utility.yul\":10096:10100   */\n  dup7\n    /* \"#utility.yul\":10089:10170   */\n  sstore\n    /* \"#utility.yul\":9958:10180   */\n  pop\n    /* \"#utility.yul\":9293:10180   */\n  jump(tag_193)\n    /* \"#utility.yul\":9323:9941   */\ntag_194:\n    /* \"#utility.yul\":9375:9379   */\n  0x1f\n    /* \"#utility.yul\":9371:9380   */\n  not\n    /* \"#utility.yul\":9363:9369   */\n  dup5\n    /* \"#utility.yul\":9359:9381   */\n  and\n    /* \"#utility.yul\":9409:9446   */\n  tag_197\n    /* \"#utility.yul\":9441:9445   */\n  dup7\n    /* \"#utility.yul\":9409:9446   */\n  tag_56\n  jump\t// in\ntag_197:\n    /* \"#utility.yul\":9468:9469   */\n  0x00\n    /* \"#utility.yul\":9482:9690   */\ntag_198:\n    /* \"#utility.yul\":9496:9503   */\n  dup3\n    /* \"#utility.yul\":9493:9494   */\n  dup2\n    /* \"#utility.yul\":9490:9504   */\n  lt\n    /* \"#utility.yul\":9482:9690   */\n  iszero\n  tag_200\n  jumpi\n    /* \"#utility.yul\":9575:9584   */\n  dup5\n    /* \"#utility.yul\":9570:9573   */\n  dup10\n    /* \"#utility.yul\":9566:9585   */\n  add\n    /* \"#utility.yul\":9560:9586   */\n  mload\n    /* \"#utility.yul\":9552:9558   */\n  dup3\n    /* \"#utility.yul\":9545:9587   */\n  sstore\n    /* \"#utility.yul\":9626:9627   */\n  0x01\n    /* \"#utility.yul\":9618:9624   */\n  dup3\n    /* \"#utility.yul\":9614:9628   */\n  add\n    /* \"#utility.yul\":9604:9628   */\n  swap2\n  pop\n    /* \"#utility.yul\":9673:9675   */\n  0x20\n    /* \"#utility.yul\":9662:9671   */\n  dup6\n    /* \"#utility.yul\":9658:9676   */\n  add\n    /* \"#utility.yul\":9645:9676   */\n  swap5\n  pop\n    /* \"#utility.yul\":9519:9523   */\n  0x20\n    /* \"#utility.yul\":9516:9517   */\n  dup2\n    /* \"#utility.yul\":9512:9524   */\n  add\n    /* \"#utility.yul\":9507:9524   */\n  swap1\n  pop\n    /* \"#utility.yul\":9482:9690   */\n  jump(tag_198)\ntag_200:\n    /* \"#utility.yul\":9718:9724   */\n  dup7\n    /* \"#utility.yul\":9709:9716   */\n  dup4\n    /* \"#utility.yul\":9706:9725   */\n  lt\n    /* \"#utility.yul\":9703:9882   */\n  iszero\n  tag_201\n  jumpi\n    /* \"#utility.yul\":9776:9785   */\n  dup5\n    /* \"#utility.yul\":9771:9774   */\n  dup10\n    /* \"#utility.yul\":9767:9786   */\n  add\n    /* \"#utility.yul\":9761:9787   */\n  mload\n    /* \"#utility.yul\":9819:9867   */\n  tag_202\n    /* \"#utility.yul\":9861:9865   */\n  0x1f\n    /* \"#utility.yul\":9853:9859   */\n  dup10\n    /* \"#utility.yul\":9849:9866   */\n  and\n    /* \"#utility.yul\":9838:9847   */\n  dup3\n    /* \"#utility.yul\":9819:9867   */\n  tag_69\n  jump\t// in\ntag_202:\n    /* \"#utility.yul\":9811:9817   */\n  dup4\n    /* \"#utility.yul\":9804:9868   */\n  sstore\n    /* \"#utility.yul\":9726:9882   */\n  pop\n    /* \"#utility.yul\":9703:9882   */\ntag_201:\n    /* \"#utility.yul\":9928:9929   */\n  0x01\n    /* \"#utility.yul\":9924:9925   */\n  0x02\n    /* \"#utility.yul\":9916:9922   */\n  dup9\n    /* \"#utility.yul\":9912:9926   */\n  mul\n    /* \"#utility.yul\":9908:9930   */\n  add\n    /* \"#utility.yul\":9902:9906   */\n  dup9\n    /* \"#utility.yul\":9895:9931   */\n  sstore\n    /* \"#utility.yul\":9330:9941   */\n  pop\n  pop\n  pop\n    /* \"#utility.yul\":9293:10180   */\ntag_193:\n  pop\n    /* \"#utility.yul\":8883:10186   */\n  pop\n  pop\n  pop\n    /* \"#utility.yul\":8791:10186   */\n  pop\n  pop\n  jump\t// out\n    /* \"#utility.yul\":10192:10372   */\ntag_71:\n    /* \"#utility.yul\":10240:10317   */\n  0x4e487b7100000000000000000000000000000000000000000000000000000000\n    /* \"#utility.yul\":10237:10238   */\n  0x00\n    /* \"#utility.yul\":10230:10318   */\n  mstore\n    /* \"#utility.yul\":10337:10341   */\n  0x11\n    /* \"#utility.yul\":10334:10335   */\n  0x04\n    /* \"#utility.yul\":10327:10342   */\n  mstore\n    /* \"#utility.yul\":10361:10365   */\n  0x24\n    /* \"#utility.yul\":10358:10359   */\n  0x00\n    /* \"#utility.yul\":10351:10366   */\n  revert\n    /* \"#utility.yul\":10378:10480   */\ntag_72:\n    /* \"#utility.yul\":10420:10428   */\n  0x00\n    /* \"#utility.yul\":10467:10472   */\n  dup2\n    /* \"#utility.yul\":10464:10465   */\n  0x01\n    /* \"#utility.yul\":10460:10473   */\n  shr\n    /* \"#utility.yul\":10439:10473   */\n  swap1\n  pop\n    /* \"#utility.yul\":10378:10480   */\n  swap2\n  swap1\n  pop\n  jump\t// out\n    /* \"#utility.yul\":10486:11334   */\ntag_73:\n    /* \"#utility.yul\":10547:10552   */\n  0x00\n    /* \"#utility.yul\":10554:10558   */\n  dup1\n    /* \"#utility.yul\":10578:10584   */\n  dup3\n    /* \"#utility.yul\":10569:10584   */\n  swap2\n  pop\n    /* \"#utility.yul\":10602:10607   */\n  dup4\n    /* \"#utility.yul\":10593:10607   */\n  swap1\n  pop\n    /* \"#utility.yul\":10616:11328   */\ntag_206:\n    /* \"#utility.yul\":10637:10638   */\n  0x01\n    /* \"#utility.yul\":10627:10635   */\n  dup6\n    /* \"#utility.yul\":10624:10639   */\n  gt\n    /* \"#utility.yul\":10616:11328   */\n  iszero\n  tag_208\n  jumpi\n    /* \"#utility.yul\":10732:10736   */\n  dup1\n    /* \"#utility.yul\":10727:10730   */\n  dup7\n    /* \"#utility.yul\":10723:10737   */\n  div\n    /* \"#utility.yul\":10717:10721   */\n  dup2\n    /* \"#utility.yul\":10714:10738   */\n  gt\n    /* \"#utility.yul\":10711:10761   */\n  iszero\n  tag_209\n  jumpi\n    /* \"#utility.yul\":10741:10759   */\n  tag_210\n  tag_71\n  jump\t// in\ntag_210:\n    /* \"#utility.yul\":10711:10761   */\ntag_209:\n    /* \"#utility.yul\":10791:10792   */\n  0x01\n    /* \"#utility.yul\":10781:10789   */\n  dup6\n    /* \"#utility.yul\":10777:10793   */\n  and\n    /* \"#utility.yul\":10774:11225   */\n  iszero\n  tag_211\n  jumpi\n    /* \"#utility.yul\":11206:11210   */\n  dup1\n    /* \"#utility.yul\":11199:11204   */\n  dup3\n    /* \"#utility.yul\":11195:11211   */\n  mul\n    /* \"#utility.yul\":11186:11211   */\n  swap2\n  pop\n    /* \"#utility.yul\":10774:11225   */\ntag_211:\n    /* \"#utility.yul\":11256:11260   */\n  dup1\n    /* \"#utility.yul\":11250:11254   */\n  dup2\n    /* \"#utility.yul\":11246:11261   */\n  mul\n    /* \"#utility.yul\":11238:11261   */\n  swap1\n  pop\n    /* \"#utility.yul\":11286:11318   */\n  tag_212\n    /* \"#utility.yul\":11309:11317   */\n  dup6\n    /* \"#utility.yul\":11286:11318   */\n  tag_72\n  jump\t// in\ntag_212:\n    /* \"#utility.yul\":11274:11318   */\n  swap5\n  pop\n    /* \"#utility.yul\":10616:11328   */\n  jump(tag_206)\ntag_208:\n    /* \"#utility.yul\":10486:11334   */\n  swap5\n  pop\n  swap5\n  swap3\n  pop\n  pop\n  pop\n  jump\t// out\n    /* \"#utility.yul\":11340:12413   */\ntag_74:\n    /* \"#utility.yul\":11394:11399   */\n  0x00\n    /* \"#utility.yul\":11585:11593   */\n  dup3\n    /* \"#utility.yul\":11575:11615   */\n  tag_214\n  jumpi\n    /* \"#utility.yul\":11606:11607   */\n  0x01\n    /* \"#utility.yul\":11597:11607   */\n  swap1\n  pop\n    /* \"#utility.yul\":11608:11613   */\n  jump(tag_213)\n    /* \"#utility.yul\":11575:11615   */\ntag_214:\n    /* \"#utility.yul\":11634:11638   */\n  dup2\n    /* \"#utility.yul\":11624:11660   */\n  tag_215\n  jumpi\n    /* \"#utility.yul\":11651:11652   */\n  0x00\n    /* \"#utility.yul\":11642:11652   */\n  swap1\n  pop\n    /* \"#utility.yul\":11653:11658   */\n  jump(tag_213)\n    /* \"#utility.yul\":11624:11660   */\ntag_215:\n    /* \"#utility.yul\":11720:11724   */\n  dup2\n    /* \"#utility.yul\":11768:11769   */\n  0x01\n    /* \"#utility.yul\":11763:11790   */\n  dup2\n  eq\n  tag_217\n  jumpi\n    /* \"#utility.yul\":11804:11805   */\n  0x02\n    /* \"#utility.yul\":11799:11990   */\n  dup2\n  eq\n  tag_218\n  jumpi\n    /* \"#utility.yul\":11713:11990   */\n  jump(tag_216)\n    /* \"#utility.yul\":11763:11790   */\ntag_217:\n    /* \"#utility.yul\":11781:11782   */\n  0x01\n    /* \"#utility.yul\":11772:11782   */\n  swap2\n  pop\n    /* \"#utility.yul\":11783:11788   */\n  pop\n  jump(tag_213)\n    /* \"#utility.yul\":11799:11990   */\ntag_218:\n    /* \"#utility.yul\":11844:11847   */\n  0xff\n    /* \"#utility.yul\":11834:11842   */\n  dup5\n    /* \"#utility.yul\":11831:11848   */\n  gt\n    /* \"#utility.yul\":11828:11871   */\n  iszero\n  tag_219\n  jumpi\n    /* \"#utility.yul\":11851:11869   */\n  tag_220\n  tag_71\n  jump\t// in\ntag_220:\n    /* \"#utility.yul\":11828:11871   */\ntag_219:\n    /* \"#utility.yul\":11900:11908   */\n  dup4\n    /* \"#utility.yul\":11897:11898   */\n  0x02\n    /* \"#utility.yul\":11893:11909   */\n  exp\n    /* \"#utility.yul\":11884:11909   */\n  swap2\n  pop\n    /* \"#utility.yul\":11935:11938   */\n  dup5\n    /* \"#utility.yul\":11928:11933   */\n  dup3\n    /* \"#utility.yul\":11925:11939   */\n  gt\n    /* \"#utility.yul\":11922:11962   */\n  iszero\n  tag_221\n  jumpi\n    /* \"#utility.yul\":11942:11960   */\n  tag_222\n  tag_71\n  jump\t// in\ntag_222:\n    /* \"#utility.yul\":11922:11962   */\ntag_221:\n    /* \"#utility.yul\":11975:11980   */\n  pop\n  jump(tag_213)\n    /* \"#utility.yul\":11713:11990   */\ntag_216:\n  pop\n    /* \"#utility.yul\":12099:12101   */\n  0x20\n    /* \"#utility.yul\":12089:12097   */\n  dup4\n    /* \"#utility.yul\":12086:12102   */\n  lt\n    /* \"#utility.yul\":12080:12083   */\n  0x0133\n    /* \"#utility.yul\":12074:12078   */\n  dup4\n    /* \"#utility.yul\":12071:12084   */\n  lt\n    /* \"#utility.yul\":12067:12103   */\n  and\n    /* \"#utility.yul\":12049:12051   */\n  0x4e\n    /* \"#utility.yul\":12039:12047   */\n  dup5\n    /* \"#utility.yul\":12036:12052   */\n  lt\n    /* \"#utility.yul\":12031:12033   */\n  0x0b\n    /* \"#utility.yul\":12025:12029   */\n  dup5\n    /* \"#utility.yul\":12022:12034   */\n  lt\n    /* \"#utility.yul\":12018:12053   */\n  and\n    /* \"#utility.yul\":12002:12113   */\n  or\n    /* \"#utility.yul\":11999:12245   */\n  iszero\n  tag_223\n  jumpi\n    /* \"#utility.yul\":12155:12163   */\n  dup3\n    /* \"#utility.yul\":12149:12153   */\n  dup3\n    /* \"#utility.yul\":12145:12164   */\n  exp\n    /* \"#utility.yul\":12136:12164   */\n  swap1\n  pop\n    /* \"#utility.yul\":12190:12193   */\n  dup4\n    /* \"#utility.yul\":12183:12188   */\n  dup2\n    /* \"#utility.yul\":12180:12194   */\n  gt\n    /* \"#utility.yul\":12177:12217   */\n  iszero\n  tag_224\n  jumpi\n    /* \"#utility.yul\":12197:12215   */\n  tag_225\n  tag_71\n  jump\t// in\ntag_225:\n    /* \"#utility.yul\":12177:12217   */\ntag_224:\n    /* \"#utility.yul\":12230:12235   */\n  jump(tag_213)\n    /* \"#utility.yul\":11999:12245   */\ntag_223:\n    /* \"#utility.yul\":12270:12312   */\n  tag_226\n    /* \"#utility.yul\":12308:12311   */\n  dup5\n    /* \"#utility.yul\":12298:12306   */\n  dup5\n    /* \"#utility.yul\":12292:12296   */\n  dup5\n    /* \"#utility.yul\":12289:12290   */\n  0x01\n    /* \"#utility.yul\":12270:12312   */\n  tag_73\n  jump\t// in\ntag_226:\n    /* \"#utility.yul\":12255:12312   */\n  swap3\n  pop\n  swap1\n  pop\n    /* \"#utility.yul\":12344:12348   */\n  dup2\n    /* \"#utility.yul\":12339:12342   */\n  dup5\n    /* \"#utility.yul\":12335:12349   */\n  div\n    /* \"#utility.yul\":12328:12333   */\n  dup2\n    /* \"#utility.yul\":12325:12350   */\n  gt\n    /* \"#utility.yul\":12322:12373   */\n  iszero\n  tag_227\n  jumpi\n    /* \"#utility.yul\":12353:12371   */\n  tag_228\n  tag_71\n  jump\t// in\ntag_228:\n    /* \"#utility.yul\":12322:12373   */\ntag_227:\n    /* \"#utility.yul\":12402:12406   */\n  dup2\n    /* \"#utility.yul\":12395:12400   */\n  dup2\n    /* \"#utility.yul\":12391:12407   */\n  mul\n    /* \"#utility.yul\":12382:12407   */\n  swap1\n  pop\n    /* \"#utility.yul\":11340:12413   */\ntag_213:\n  swap4\n  swap3\n  pop\n  pop\n  pop\n  jump\t// out\n    /* \"#utility.yul\":12419:12700   */\ntag_10:\n    /* \"#utility.yul\":12477:12482   */\n  0x00\n    /* \"#utility.yul\":12501:12524   */\n  tag_230\n    /* \"#utility.yul\":12519:12523   */\n  dup3\n    /* \"#utility.yul\":12501:12524   */\n  tag_46\n  jump\t// in\ntag_230:\n    /* \"#utility.yul\":12493:12524   */\n  swap2\n  pop\n    /* \"#utility.yul\":12545:12570   */\n  tag_231\n    /* \"#utility.yul\":12561:12569   */\n  dup4\n    /* \"#utility.yul\":12545:12570   */\n  tag_43\n  jump\t// in\ntag_231:\n    /* \"#utility.yul\":12533:12570   */\n  swap3\n  pop\n    /* \"#utility.yul\":12589:12693   */\n  tag_232\n    /* \"#utility.yul\":12626:12692   */\n  0xffffffffffffffffffffffffffffffffffffffffffffffffffffffffffffffff\n    /* \"#utility.yul\":12616:12624   */\n  dup5\n    /* \"#utility.yul\":12610:12614   */\n  dup5\n    /* \"#utility.yul\":12589:12693   */\n  tag_74\n  jump\t// in\ntag_232:\n    /* \"#utility.yul\":12580:12693   */\n  swap1\n  pop\n    /* \"#utility.yul\":12419:12700   */\n  swap3\n  swap2\n  pop\n  pop\n  jump\t// out\n    /* \"#utility.yul\":12706:13116   */\ntag_12:\n    /* \"#utility.yul\":12746:12753   */\n  0x00\n    /* \"#utility.yul\":12769:12789   */\n  tag_234\n    /* \"#utility.yul\":12787:12788   */\n  dup3\n    /* \"#utility.yul\":12769:12789   */\n  tag_46\n  jump\t// in\ntag_234:\n    /* \"#utility.yul\":12764:12789   */\n  swap2\n  pop\n    /* \"#utility.yul\":12803:12823   */\n  tag_235\n    /* \"#utility.yul\":12821:12822   */\n  dup4\n    /* \"#utility.yul\":12803:12823   */\n  tag_46\n  jump\t// in\ntag_235:\n    /* \"#utility.yul\":12798:12823   */\n  swap3\n  pop\n    /* \"#utility.yul\":12858:12859   */\n  dup3\n    /* \"#utility.yul\":12855:12856   */\n  dup3\n    /* \"#utility.yul\":12851:12860   */\n  mul\n    /* \"#utility.yul\":12880:12910   */\n  tag_236\n    /* \"#utility.yul\":12898:12909   */\n  dup2\n    /* \"#utility.yul\":12880:12910   */\n  tag_46\n  jump\t// in\ntag_236:\n    /* \"#utility.yul\":12869:12910   */\n  swap2\n  pop\n    /* \"#utility.yul\":13059:13060   */\n  dup3\n    /* \"#utility.yul\":13050:13057   */\n  dup3\n    /* \"#utility.yul\":13046:13061   */\n  div\n    /* \"#utility.yul\":13043:13044   */\n  dup5\n    /* \"#utility.yul\":13040:13062   */\n  eq\n    /* \"#utility.yul\":13020:13021   */\n  dup4\n    /* \"#utility.yul\":13013:13022   */\n  iszero\n    /* \"#utility.yul\":12993:13076   */\n  or\n    /* \"#utility.yul\":12970:13109   */\n  tag_237\n  jumpi\n    /* \"#utility.yul\":13089:13107   */\n  tag_238\n  tag_71\n  jump\t// in\ntag_238:\n    /* \"#utility.yul\":12970:13109   */\ntag_237:\n    /* \"#utility.yul\":12754:13116   */\n  pop\n    /* \"#utility.yul\":12706:13116   */\n  swap3\n  swap2\n  pop\n  pop\n  jump\t// out\n    /* \"#utility.yul\":13122:13291   */\ntag_75:\n    /* \"#utility.yul\":13206:13217   */\n  0x00\n    /* \"#utility.yul\":13240:13246   */\n  dup3\n    /* \"#utility.yul\":13235:13238   */\n  dup3\n    /* \"#utility.yul\":13228:13247   */\n  mstore\n    /* \"#utility.yul\":13280:13284   */\n  0x20\n    /* \"#utility.yul\":13275:13278   */\n  dup3\n    /* \"#utility.yul\":13271:13285   */\n  add\n    /* \"#utility.yul\":13256:13285   */\n  swap1\n  pop\n    /* \"#utility.yul\":13122:13291   */\n  swap3\n  swap2\n  pop\n  pop\n  jump\t// out\n    /* \"#utility.yul\":13297:13478   */\ntag_76:\n    /* \"#utility.yul\":13437:13470   */\n  0x45524332303a206d696e7420746f20746865207a65726f206164647265737300\n    /* \"#utility.yul\":13433:13434   */\n  0x00\n    /* \"#utility.yul\":13425:13431   */\n  dup3\n    /* \"#utility.yul\":13421:13435   */\n  add\n    /* \"#utility.yul\":13414:13471   */\n  mstore\n    /* \"#utility.yul\":13297:13478   */\n  pop\n  jump\t// out\n    /* \"#utility.yul\":13484:13850   */\ntag_77:\n    /* \"#utility.yul\":13626:13629   */\n  0x00\n    /* \"#utility.yul\":13647:13714   */\n  tag_242\n    /* \"#utility.yul\":13711:13713   */\n  0x1f\n    /* \"#utility.yul\":13706:13709   */\n  dup4\n    /* \"#utility.yul\":13647:13714   */\n  tag_75\n  jump\t// in\ntag_242:\n    /* \"#utility.yul\":13640:13714   */\n  swap2\n  pop\n    /* \"#utility.yul\":13723:13816   */\n  tag_243\n    /* \"#utility.yul\":13812:13815   */\n  dup3\n    /* \"#utility.yul\":13723:13816   */\n  tag_76\n  jump\t// in\ntag_243:\n    /* \"#utility.yul\":13841:13843   */\n  0x20\n    /* \"#utility.yul\":13836:13839   */\n  dup3\n    /* \"#utility.yul\":13832:13844   */\n  add\n    /* \"#utility.yul\":13825:13844   */\n  swap1\n  pop\n    /* \"#utility.yul\":13484:13850   */\n  swap2\n  swap1\n  pop\n  jump\t// out\n    /* \"#utility.yul\":13856:14275   */\ntag_18:\n    /* \"#utility.yul\":14022:14026   */\n  0x00\n    /* \"#utility.yul\":14060:14062   */\n  0x20\n    /* \"#utility.yul\":14049:14058   */\n  dup3\n    /* \"#utility.yul\":14045:14063   */\n  add\n    /* \"#utility.yul\":14037:14063   */\n  swap1\n  pop\n    /* \"#utility.yul\":14109:14118   */\n  dup2\n    /* \"#utility.yul\":14103:14107   */\n  dup2\n    /* \"#utility.yul\":14099:14119   */\n  sub\n    /* \"#utility.yul\":14095:14096   */\n  0x00\n    /* \"#utility.yul\":14084:14093   */\n  dup4\n    /* \"#utility.yul\":14080:14097   */\n  add\n    /* \"#utility.yul\":14073:14120   */\n  mstore\n    /* \"#utility.yul\":14137:14268   */\n  tag_245\n    /* \"#utility.yul\":14263:14267   */\n  dup2\n    /* \"#utility.yul\":14137:14268   */\n  tag_77\n  jump\t// in\ntag_245:\n    /* \"#utility.yul\":14129:14268   */\n  swap1\n  pop\n    /* \"#utility.yul\":13856:14275   */\n  swap2\n  swap1\n  pop\n  jump\t// out\n    /* \"#utility.yul\":14281:14472   */\ntag_22:\n    /* \"#utility.yul\":14321:14324   */\n  0x00\n    /* \"#utility.yul\":14340:14360   */\n  tag_247\n    /* \"#utility.yul\":14358:14359   */\n  dup3\n    /* \"#utility.yul\":14340:14360   */\n  tag_46\n  jump\t// in\ntag_247:\n    /* \"#utility.yul\":14335:14360   */\n  swap2\n  pop\n    /* \"#utility.yul\":14374:14394   */\n  tag_248\n    /* \"#utility.yul\":14392:14393   */\n  dup4\n    /* \"#utility.yul\":14374:14394   */\n  tag_46\n  jump\t// in\ntag_248:\n    /* \"#utility.yul\":14369:14394   */\n  swap3\n  pop\n    /* \"#utility.yul\":14417:14418   */\n  dup3\n    /* \"#utility.yul\":14414:14415   */\n  dup3\n    /* \"#utility.yul\":14410:14419   */\n  add\n    /* \"#utility.yul\":14403:14419   */\n  swap1\n  pop\n    /* \"#utility.yul\":14438:14441   */\n  dup1\n    /* \"#utility.yul\":14435:14436   */\n  dup3\n    /* \"#utility.yul\":14432:14442   */\n  gt\n    /* \"#utility.yul\":14429:14465   */\n  iszero\n  tag_249\n  jumpi\n    /* \"#utility.yul\":14445:14463   */\n  tag_250\n  tag_71\n  jump\t// in\ntag_250:\n    /* \"#utility.yul\":14429:14465   */\ntag_249:\n    /* \"#utility.yul\":14281:14472   */\n  swap3\n  swap2\n  pop\n  pop\n  jump\t// out\n    /* \"#utility.yul\":14478:14596   */\ntag_78:\n    /* \"#utility.yul\":14565:14589   */\n  tag_252\n    /* \"#utility.yul\":14583:14588   */\n  dup2\n    /* \"#utility.yul\":14565:14589   */\n  tag_46\n  jump\t// in\ntag_252:\n    /* \"#utility.yul\":14560:14563   */\n  dup3\n    /* \"#utility.yul\":14553:14590   */\n  mstore\n    /* \"#utility.yul\":14478:14596   */\n  pop\n  pop\n  jump\t// out\n    /* \"#utility.yul\":14602:14824   */\ntag_25:\n    /* \"#utility.yul\":14695:14699   */\n  0x00\n    /* \"#utility.yul\":14733:14735   */\n  0x20\n    /* \"#utility.yul\":14722:14731   */\n  dup3\n    /* \"#utility.yul\":14718:14736   */\n  add\n    /* \"#utility.yul\":14710:14736   */\n  swap1\n  pop\n    /* \"#utility.yul\":14746:14817   */\n  tag_254\n    /* \"#utility.yul\":14814:14815   */\n  0x00\n    /* \"#utility.yul\":14803:14812   */\n  dup4\n    /* \"#utility.yul\":14799:14816   */\n  add\n    /* \"#utility.yul\":14790:14796   */\n  dup5\n    /* \"#utility.yul\":14746:14817   */\n  tag_78\n  jump\t// in\ntag_254:\n    /* \"#utility.yul\":14602:14824   */\n  swap3\n  swap2\n  pop\n  pop\n  jump\t// out\n    /* \"contracts/ymii/yi.sol\":1067:7281  contract ERC20 is IERC20, IERC20Metadata {... */\ntag_14:\n  dataSize(sub_0)\n  dup1\n  dataOffset(sub_0)\n  0x00\n  codecopy\n  0x00\n  return\nstop\n\nsub_0: assembly {\n        /* \"contracts/ymii/yi.sol\":1067:7281  contract ERC20 is IERC20, IERC20Metadata {... */\n      mstore(0x40, 0x80)\n      jumpi(tag_1, lt(calldatasize, 0x04))\n      shr(0xe0, calldataload(0x00))\n      dup1\n      0x40c10f19\n      gt\n      tag_19\n      jumpi\n      dup1\n      0xa457c2d7\n      gt\n      tag_20\n      jumpi\n      dup1\n      0xa457c2d7\n      eq\n      tag_15\n      jumpi\n      dup1\n      0xa9059cbb\n      eq\n      tag_16\n      jumpi\n      dup1\n      0xdd62ed3e\n      eq\n      tag_17\n      jumpi\n      dup1\n      0xfc6f9468\n      eq\n      tag_18\n      jumpi\n      jump(tag_2)\n    tag_20:\n      dup1\n      0x40c10f19\n      eq\n      tag_11\n      jumpi\n      dup1\n      0x70a08231\n      eq\n      tag_12\n      jumpi\n      dup1\n      0x89476069\n      eq\n      tag_13\n      jumpi\n      dup1\n      0x95d89b41\n      eq\n      tag_14\n      jumpi\n      jump(tag_2)\n    tag_19:\n      dup1\n      0x313ce567\n      gt\n      tag_21\n      jumpi\n      dup1\n      0x313ce567\n      eq\n      tag_7\n      jumpi\n      dup1\n      0x39509351\n      eq\n      tag_8\n      jumpi\n      dup1\n      0x3ccfd60b\n      eq\n      tag_9\n      jumpi\n      dup1\n      0x3d128eec\n      eq\n      tag_10\n      jumpi\n      jump(tag_2)\n    tag_21:\n      dup1\n      0x06fdde03\n      eq\n      tag_3\n      jumpi\n      dup1\n      0x095ea7b3\n      eq\n      tag_4\n      jumpi\n      dup1\n      0x18160ddd\n      eq\n      tag_5\n      jumpi\n      dup1\n      0x23b872dd\n      eq\n      tag_6\n      jumpi\n      jump(tag_2)\n    tag_1:\n      jumpi(tag_2, calldatasize)\n      stop\n    tag_2:\n      stop\n        /* \"contracts/ymii/yi.sol\":2007:2107  function name() public view virtual override returns (string memory) {... */\n    tag_3:\n      callvalue\n      dup1\n      iszero\n      tag_26\n      jumpi\n      0x00\n      dup1\n      revert\n    tag_26:\n      pop\n      tag_27\n      tag_28\n      jump\t// in\n    tag_27:\n      mload(0x40)\n      tag_29\n      swap2\n      swap1\n      tag_30\n      jump\t// in\n    tag_29:\n      mload(0x40)\n      dup1\n      swap2\n      sub\n      swap1\n      return\n        /* \"contracts/ymii/yi.sol\":2930:3129  function approve(address spender, uint256 amount) public virtual override returns (bool) {... */\n    tag_4:\n      callvalue\n      dup1\n      iszero\n      tag_31\n      jumpi\n      0x00\n      dup1\n      revert\n    tag_31:\n      pop\n      tag_32\n      0x04\n      dup1\n      calldatasize\n      sub\n      dup2\n      add\n      swap1\n      tag_33\n      swap2\n      swap1\n      tag_34\n      jump\t// in\n    tag_33:\n      tag_35\n      jump\t// in\n    tag_32:\n      mload(0x40)\n      tag_36\n      swap2\n      swap1\n      tag_37\n      jump\t// in\n    tag_36:\n      mload(0x40)\n      dup1\n      swap2\n      sub\n      swap1\n      return\n        /* \"contracts/ymii/yi.sol\":2329:2437  function totalSupply() public view virtual override returns (uint256) {... */\n    tag_5:\n      callvalue\n      dup1\n      iszero\n      tag_38\n      jumpi\n      0x00\n      dup1\n      revert\n    tag_38:\n      pop\n      tag_39\n      tag_40\n      jump\t// in\n    tag_39:\n      mload(0x40)\n      tag_41\n      swap2\n      swap1\n      tag_42\n      jump\t// in\n    tag_41:\n      mload(0x40)\n      dup1\n      swap2\n      sub\n      swap1\n      return\n        /* \"contracts/ymii/yi.sol\":3135:3428  function transferFrom(... */\n    tag_6:\n      callvalue\n      dup1\n      iszero\n      tag_43\n      jumpi\n      0x00\n      dup1\n      revert\n    tag_43:\n      pop\n      tag_44\n      0x04\n      dup1\n      calldatasize\n      sub\n      dup2\n      add\n      swap1\n      tag_45\n      swap2\n      swap1\n      tag_46\n      jump\t// in\n    tag_45:\n      tag_47\n      jump\t// in\n    tag_44:\n      mload(0x40)\n      tag_48\n      swap2\n      swap1\n      tag_37\n      jump\t// in\n    tag_48:\n      mload(0x40)\n      dup1\n      swap2\n      sub\n      swap1\n      return\n        /* \"contracts/ymii/yi.sol\":2223:2323  function decimals() public view virtual override returns (uint8) {... */\n    tag_7:\n      callvalue\n      dup1\n      iszero\n      tag_49\n      jumpi\n      0x00\n      dup1\n      revert\n    tag_49:\n      pop\n      tag_50\n      tag_51\n      jump\t// in\n    tag_50:\n      mload(0x40)\n      tag_52\n      swap2\n      swap1\n      tag_53\n      jump\t// in\n    tag_52:\n      mload(0x40)\n      dup1\n      swap2\n      sub\n      swap1\n      return\n        /* \"contracts/ymii/yi.sol\":3436:3674  function increaseAllowance(address spender, uint256 addedValue) public virtual returns (bool) {... */\n    tag_8:\n      callvalue\n      dup1\n      iszero\n      tag_54\n      jumpi\n      0x00\n      dup1\n      revert\n    tag_54:\n      pop\n      tag_55\n      0x04\n      dup1\n      calldatasize\n      sub\n      dup2\n      add\n      swap1\n      tag_56\n      swap2\n      swap1\n      tag_34\n      jump\t// in\n    tag_56:\n      tag_57\n      jump\t// in\n    tag_55:\n      mload(0x40)\n      tag_58\n      swap2\n      swap1\n      tag_37\n      jump\t// in\n    tag_58:\n      mload(0x40)\n      dup1\n      swap2\n      sub\n      swap1\n      return\n        /* \"contracts/ymii/yi.sol\":1750:1857  function withdraw() external isAdmin {... */\n    tag_9:\n      callvalue\n      dup1\n      iszero\n      tag_59\n      jumpi\n      0x00\n      dup1\n      revert\n    tag_59:\n      pop\n      tag_60\n      tag_61\n      jump\t// in\n    tag_60:\n      stop\n        /* \"contracts/ymii/yi.sol\":1510:1617  function editAdmin(address newAddress) public isAdmin {... */\n    tag_10:\n      callvalue\n      dup1\n      iszero\n      tag_62\n      jumpi\n      0x00\n      dup1\n      revert\n    tag_62:\n      pop\n      tag_63\n      0x04\n      dup1\n      calldatasize\n      sub\n      dup2\n      add\n      swap1\n      tag_64\n      swap2\n      swap1\n      tag_65\n      jump\t// in\n    tag_64:\n      tag_66\n      jump\t// in\n    tag_63:\n      stop\n        /* \"contracts/ymii/yi.sol\":1623:1744  function mint(address account, uint256 amount) public isAdmin {... */\n    tag_11:\n      callvalue\n      dup1\n      iszero\n      tag_67\n      jumpi\n      0x00\n      dup1\n      revert\n    tag_67:\n      pop\n      tag_68\n      0x04\n      dup1\n      calldatasize\n      sub\n      dup2\n      add\n      swap1\n      tag_69\n      swap2\n      swap1\n      tag_34\n      jump\t// in\n    tag_69:\n      tag_70\n      jump\t// in\n    tag_68:\n      stop\n        /* \"contracts/ymii/yi.sol\":2443:2570  function balanceOf(address account) public view virtual override returns (uint256) {... */\n    tag_12:\n      callvalue\n      dup1\n      iszero\n      tag_71\n      jumpi\n      0x00\n      dup1\n      revert\n    tag_71:\n      pop\n      tag_72\n      0x04\n      dup1\n      calldatasize\n      sub\n      dup2\n      add\n      swap1\n      tag_73\n      swap2\n      swap1\n      tag_65\n      jump\t// in\n    tag_73:\n      tag_74\n      jump\t// in\n    tag_72:\n      mload(0x40)\n      tag_75\n      swap2\n      swap1\n      tag_42\n      jump\t// in\n    tag_75:\n      mload(0x40)\n      dup1\n      swap2\n      sub\n      swap1\n      return\n        /* \"contracts/ymii/yi.sol\":1863:2001  function withdrawToken(IERC20 token) external payable isAdmin {... */\n    tag_13:\n      tag_76\n      0x04\n      dup1\n      calldatasize\n      sub\n      dup2\n      add\n      swap1\n      tag_77\n      swap2\n      swap1\n      tag_78\n      jump\t// in\n    tag_77:\n      tag_79\n      jump\t// in\n    tag_76:\n      stop\n        /* \"contracts/ymii/yi.sol\":2113:2217  function symbol() public view virtual override returns (string memory) {... */\n    tag_14:\n      callvalue\n      dup1\n      iszero\n      tag_80\n      jumpi\n      0x00\n      dup1\n      revert\n    tag_80:\n      pop\n      tag_81\n      tag_82\n      jump\t// in\n    tag_81:\n      mload(0x40)\n      tag_83\n      swap2\n      swap1\n      tag_30\n      jump\t// in\n    tag_83:\n      mload(0x40)\n      dup1\n      swap2\n      sub\n      swap1\n      return\n        /* \"contracts/ymii/yi.sol\":3682:4107  function decreaseAllowance(address spender, uint256 substractedValue) public virtual returns (bool) {... */\n    tag_15:\n      callvalue\n      dup1\n      iszero\n      tag_84\n      jumpi\n      0x00\n      dup1\n      revert\n    tag_84:\n      pop\n      tag_85\n      0x04\n      dup1\n      calldatasize\n      sub\n      dup2\n      add\n      swap1\n      tag_86\n      swap2\n      swap1\n      tag_34\n      jump\t// in\n    tag_86:\n      tag_87\n      jump\t// in\n    tag_85:\n      mload(0x40)\n      tag_88\n      swap2\n      swap1\n      tag_37\n      jump\t// in\n    tag_88:\n      mload(0x40)\n      dup1\n      swap2\n      sub\n      swap1\n      return\n        /* \"contracts/ymii/yi.sol\":2576:2767  function transfer(address to, uint256 amount) public virtual override returns (bool) {... */\n    tag_16:\n      callvalue\n      dup1\n      iszero\n      tag_89\n      jumpi\n      0x00\n      dup1\n      revert\n    tag_89:\n      pop\n      tag_90\n      0x04\n      dup1\n      calldatasize\n      sub\n      dup2\n      add\n      swap1\n      tag_91\n      swap2\n      swap1\n      tag_34\n      jump\t// in\n    tag_91:\n      tag_92\n      jump\t// in\n    tag_90:\n      mload(0x40)\n      tag_93\n      swap2\n      swap1\n      tag_37\n      jump\t// in\n    tag_93:\n      mload(0x40)\n      dup1\n      swap2\n      sub\n      swap1\n      return\n        /* \"contracts/ymii/yi.sol\":2773:2924  function allowance(address owner, address spender) public view virtual override returns (uint256) {... */\n    tag_17:\n      callvalue\n      dup1\n      iszero\n      tag_94\n      jumpi\n      0x00\n      dup1\n      revert\n    tag_94:\n      pop\n      tag_95\n      0x04\n      dup1\n      calldatasize\n      sub\n      dup2\n      add\n      swap1\n      tag_96\n      swap2\n      swap1\n      tag_97\n      jump\t// in\n    tag_96:\n      tag_98\n      jump\t// in\n    tag_95:\n      mload(0x40)\n      tag_99\n      swap2\n      swap1\n      tag_42\n      jump\t// in\n    tag_99:\n      mload(0x40)\n      dup1\n      swap2\n      sub\n      swap1\n      return\n        /* \"contracts/ymii/yi.sol\":1362:1399  address payable public   adminAddress */\n    tag_18:\n      callvalue\n      dup1\n      iszero\n      tag_100\n      jumpi\n      0x00\n      dup1\n      revert\n    tag_100:\n      pop\n      tag_101\n      tag_102\n      jump\t// in\n    tag_101:\n      mload(0x40)\n      tag_103\n      swap2\n      swap1\n      tag_104\n      jump\t// in\n    tag_103:\n      mload(0x40)\n      dup1\n      swap2\n      sub\n      swap1\n      return\n        /* \"contracts/ymii/yi.sol\":2007:2107  function name() public view virtual override returns (string memory) {... */\n    tag_28:\n        /* \"contracts/ymii/yi.sol\":2061:2074  string memory */\n      0x60\n        /* \"contracts/ymii/yi.sol\":2094:2099  _name */\n      0x03\n        /* \"contracts/ymii/yi.sol\":2087:2099  return _name */\n      dup1\n      sload\n      tag_106\n      swap1\n      tag_107\n      jump\t// in\n    tag_106:\n      dup1\n      0x1f\n      add\n      0x20\n      dup1\n      swap2\n      div\n      mul\n      0x20\n      add\n      mload(0x40)\n      swap1\n      dup2\n      add\n      0x40\n      mstore\n      dup1\n      swap3\n      swap2\n      swap1\n      dup2\n      dup2\n      mstore\n      0x20\n      add\n      dup3\n      dup1\n      sload\n      tag_108\n      swap1\n      tag_107\n      jump\t// in\n    tag_108:\n      dup1\n      iszero\n      tag_109\n      jumpi\n      dup1\n      0x1f\n      lt\n      tag_110\n      jumpi\n      0x0100\n      dup1\n      dup4\n      sload\n      div\n      mul\n      dup4\n      mstore\n      swap2\n      0x20\n      add\n      swap2\n      jump(tag_109)\n    tag_110:\n      dup3\n      add\n      swap2\n      swap1\n      0x00\n      mstore\n      keccak256(0x00, 0x20)\n      swap1\n    tag_111:\n      dup2\n      sload\n      dup2\n      mstore\n      swap1\n      0x01\n      add\n      swap1\n      0x20\n      add\n      dup1\n      dup4\n      gt\n      tag_111\n      jumpi\n      dup3\n      swap1\n      sub\n      0x1f\n      and\n      dup3\n      add\n      swap2\n    tag_109:\n      pop\n      pop\n      pop\n      pop\n      pop\n      swap1\n      pop\n        /* \"contracts/ymii/yi.sol\":2007:2107  function name() public view virtual override returns (string memory) {... */\n      swap1\n      jump\t// out\n        /* \"contracts/ymii/yi.sol\":2930:3129  function approve(address spender, uint256 amount) public virtual override returns (bool) {... */\n    tag_35:\n        /* \"contracts/ymii/yi.sol\":3013:3017  bool */\n      0x00\n        /* \"contracts/ymii/yi.sol\":3030:3043  address owner */\n      dup1\n        /* \"contracts/ymii/yi.sol\":3046:3056  msg.sender */\n      caller\n        /* \"contracts/ymii/yi.sol\":3030:3056  address owner = msg.sender */\n      swap1\n      pop\n        /* \"contracts/ymii/yi.sol\":3067:3099  _approve(owner, spender, amount) */\n      tag_113\n        /* \"contracts/ymii/yi.sol\":3076:3081  owner */\n      dup2\n        /* \"contracts/ymii/yi.sol\":3083:3090  spender */\n      dup6\n        /* \"contracts/ymii/yi.sol\":3092:3098  amount */\n      dup6\n        /* \"contracts/ymii/yi.sol\":3067:3075  _approve */\n      tag_114\n        /* \"contracts/ymii/yi.sol\":3067:3099  _approve(owner, spender, amount) */\n      jump\t// in\n    tag_113:\n        /* \"contracts/ymii/yi.sol\":3117:3121  true */\n      0x01\n        /* \"contracts/ymii/yi.sol\":3110:3121  return true */\n      swap2\n      pop\n      pop\n        /* \"contracts/ymii/yi.sol\":2930:3129  function approve(address spender, uint256 amount) public virtual override returns (bool) {... */\n      swap3\n      swap2\n      pop\n      pop\n      jump\t// out\n        /* \"contracts/ymii/yi.sol\":2329:2437  function totalSupply() public view virtual override returns (uint256) {... */\n    tag_40:\n        /* \"contracts/ymii/yi.sol\":2390:2397  uint256 */\n      0x00\n        /* \"contracts/ymii/yi.sol\":2417:2429  _totalSupply */\n      sload(0x02)\n        /* \"contracts/ymii/yi.sol\":2410:2429  return _totalSupply */\n      swap1\n      pop\n        /* \"contracts/ymii/yi.sol\":2329:2437  function totalSupply() public view virtual override returns (uint256) {... */\n      swap1\n      jump\t// out\n        /* \"contracts/ymii/yi.sol\":3135:3428  function transferFrom(... */\n    tag_47:\n        /* \"contracts/ymii/yi.sol\":3266:3270  bool */\n      0x00\n        /* \"contracts/ymii/yi.sol\":3283:3298  address spender */\n      dup1\n        /* \"contracts/ymii/yi.sol\":3301:3311  msg.sender */\n      caller\n        /* \"contracts/ymii/yi.sol\":3283:3311  address spender = msg.sender */\n      swap1\n      pop\n        /* \"contracts/ymii/yi.sol\":3322:3360  _spendAllowance(from, spender, amount) */\n      tag_117\n        /* \"contracts/ymii/yi.sol\":3338:3342  from */\n      dup6\n        /* \"contracts/ymii/yi.sol\":3344:3351  spender */\n      dup3\n        /* \"contracts/ymii/yi.sol\":3353:3359  amount */\n      dup6\n        /* \"contracts/ymii/yi.sol\":3322:3337  _spendAllowance */\n      tag_118\n        /* \"contracts/ymii/yi.sol\":3322:3360  _spendAllowance(from, spender, amount) */\n      jump\t// in\n    tag_117:\n        /* \"contracts/ymii/yi.sol\":3371:3398  _transfer(from, to, amount) */\n      tag_119\n        /* \"contracts/ymii/yi.sol\":3381:3385  from */\n      dup6\n        /* \"contracts/ymii/yi.sol\":3387:3389  to */\n      dup6\n        /* \"contracts/ymii/yi.sol\":3391:3397  amount */\n      dup6\n        /* \"contracts/ymii/yi.sol\":3371:3380  _transfer */\n      tag_120\n        /* \"contracts/ymii/yi.sol\":3371:3398  _transfer(from, to, amount) */\n      jump\t// in\n    tag_119:\n        /* \"contracts/ymii/yi.sol\":3416:3420  true */\n      0x01\n        /* \"contracts/ymii/yi.sol\":3409:3420  return true */\n      swap2\n      pop\n      pop\n        /* \"contracts/ymii/yi.sol\":3135:3428  function transferFrom(... */\n      swap4\n      swap3\n      pop\n      pop\n      pop\n      jump\t// out\n        /* \"contracts/ymii/yi.sol\":2223:2323  function decimals() public view virtual override returns (uint8) {... */\n    tag_51:\n        /* \"contracts/ymii/yi.sol\":2281:2286  uint8 */\n      0x00\n        /* \"contracts/ymii/yi.sol\":2306:2315  _decimals */\n      0x05\n      0x00\n      swap1\n      sload\n      swap1\n      0x0100\n      exp\n      swap1\n      div\n      0xff\n      and\n        /* \"contracts/ymii/yi.sol\":2299:2315  return _decimals */\n      swap1\n      pop\n        /* \"contracts/ymii/yi.sol\":2223:2323  function decimals() public view virtual override returns (uint8) {... */\n      swap1\n      jump\t// out\n        /* \"contracts/ymii/yi.sol\":3436:3674  function increaseAllowance(address spender, uint256 addedValue) public virtual returns (bool) {... */\n    tag_57:\n        /* \"contracts/ymii/yi.sol\":3524:3528  bool */\n      0x00\n        /* \"contracts/ymii/yi.sol\":3541:3554  address owner */\n      dup1\n        /* \"contracts/ymii/yi.sol\":3557:3567  msg.sender */\n      caller\n        /* \"contracts/ymii/yi.sol\":3541:3567  address owner = msg.sender */\n      swap1\n      pop\n        /* \"contracts/ymii/yi.sol\":3578:3644  _approve(owner, spender, _allowances[owner][spender] + addedValue) */\n      tag_123\n        /* \"contracts/ymii/yi.sol\":3587:3592  owner */\n      dup2\n        /* \"contracts/ymii/yi.sol\":3594:3601  spender */\n      dup6\n        /* \"contracts/ymii/yi.sol\":3633:3643  addedValue */\n      dup6\n        /* \"contracts/ymii/yi.sol\":3603:3614  _allowances */\n      0x01\n        /* \"contracts/ymii/yi.sol\":3603:3621  _allowances[owner] */\n      0x00\n        /* \"contracts/ymii/yi.sol\":3615:3620  owner */\n      dup7\n        /* \"contracts/ymii/yi.sol\":3603:3621  _allowances[owner] */\n      0xffffffffffffffffffffffffffffffffffffffff\n      and\n      0xffffffffffffffffffffffffffffffffffffffff\n      and\n      dup2\n      mstore\n      0x20\n      add\n      swap1\n      dup2\n      mstore\n      0x20\n      add\n      0x00\n      keccak256\n        /* \"contracts/ymii/yi.sol\":3603:3630  _allowances[owner][spender] */\n      0x00\n        /* \"contracts/ymii/yi.sol\":3622:3629  spender */\n      dup10\n        /* \"contracts/ymii/yi.sol\":3603:3630  _allowances[owner][spender] */\n      0xffffffffffffffffffffffffffffffffffffffff\n      and\n      0xffffffffffffffffffffffffffffffffffffffff\n      and\n      dup2\n      mstore\n      0x20\n      add\n      swap1\n      dup2\n      mstore\n      0x20\n      add\n      0x00\n      keccak256\n      sload\n        /* \"contracts/ymii/yi.sol\":3603:3643  _allowances[owner][spender] + addedValue */\n      tag_124\n      swap2\n      swap1\n      tag_125\n      jump\t// in\n    tag_124:\n        /* \"contracts/ymii/yi.sol\":3578:3586  _approve */\n      tag_114\n        /* \"contracts/ymii/yi.sol\":3578:3644  _approve(owner, spender, _allowances[owner][spender] + addedValue) */\n      jump\t// in\n    tag_123:\n        /* \"contracts/ymii/yi.sol\":3662:3666  true */\n      0x01\n        /* \"contracts/ymii/yi.sol\":3655:3666  return true */\n      swap2\n      pop\n      pop\n        /* \"contracts/ymii/yi.sol\":3436:3674  function increaseAllowance(address spender, uint256 addedValue) public virtual returns (bool) {... */\n      swap3\n      swap2\n      pop\n      pop\n      jump\t// out\n        /* \"contracts/ymii/yi.sol\":1750:1857  function withdraw() external isAdmin {... */\n    tag_61:\n        /* \"contracts/ymii/yi.sol\":1459:1471  adminAddress */\n      0x05\n      0x01\n      swap1\n      sload\n      swap1\n      0x0100\n      exp\n      swap1\n      div\n      0xffffffffffffffffffffffffffffffffffffffff\n      and\n        /* \"contracts/ymii/yi.sol\":1445:1471  msg.sender == adminAddress */\n      0xffffffffffffffffffffffffffffffffffffffff\n      and\n        /* \"contracts/ymii/yi.sol\":1445:1455  msg.sender */\n      caller\n        /* \"contracts/ymii/yi.sol\":1445:1471  msg.sender == adminAddress */\n      0xffffffffffffffffffffffffffffffffffffffff\n      and\n      eq\n        /* \"contracts/ymii/yi.sol\":1437:1484  require(msg.sender == adminAddress, 'no admin') */\n      tag_127\n      jumpi\n      mload(0x40)\n      0x08c379a000000000000000000000000000000000000000000000000000000000\n      dup2\n      mstore\n      0x04\n      add\n      tag_128\n      swap1\n      tag_129\n      jump\t// in\n    tag_128:\n      mload(0x40)\n      dup1\n      swap2\n      sub\n      swap1\n      revert\n    tag_127:\n        /* \"contracts/ymii/yi.sol\":1806:1816  msg.sender */\n      caller\n        /* \"contracts/ymii/yi.sol\":1798:1826  payable(msg.sender).transfer */\n      0xffffffffffffffffffffffffffffffffffffffff\n      and\n        /* \"contracts/ymii/yi.sol\":1798:1849  payable(msg.sender).transfer(address(this).balance) */\n      0x08fc\n        /* \"contracts/ymii/yi.sol\":1827:1848  address(this).balance */\n      selfbalance\n        /* \"contracts/ymii/yi.sol\":1798:1849  payable(msg.sender).transfer(address(this).balance) */\n      swap1\n      dup2\n      iszero\n      mul\n      swap1\n      mload(0x40)\n      0x00\n      mload(0x40)\n      dup1\n      dup4\n      sub\n      dup2\n      dup6\n      dup9\n      dup9\n      call\n      swap4\n      pop\n      pop\n      pop\n      pop\n      iszero\n      dup1\n      iszero\n      tag_132\n      jumpi\n      returndatasize\n      0x00\n      dup1\n      returndatacopy\n      revert(0x00, returndatasize)\n    tag_132:\n      pop\n        /* \"contracts/ymii/yi.sol\":1750:1857  function withdraw() external isAdmin {... */\n      jump\t// out\n        /* \"contracts/ymii/yi.sol\":1510:1617  function editAdmin(address newAddress) public isAdmin {... */\n    tag_66:\n        /* \"contracts/ymii/yi.sol\":1459:1471  adminAddress */\n      0x05\n      0x01\n      swap1\n      sload\n      swap1\n      0x0100\n      exp\n      swap1\n      div\n      0xffffffffffffffffffffffffffffffffffffffff\n      and\n        /* \"contracts/ymii/yi.sol\":1445:1471  msg.sender == adminAddress */\n      0xffffffffffffffffffffffffffffffffffffffff\n      and\n        /* \"contracts/ymii/yi.sol\":1445:1455  msg.sender */\n      caller\n        /* \"contracts/ymii/yi.sol\":1445:1471  msg.sender == adminAddress */\n      0xffffffffffffffffffffffffffffffffffffffff\n      and\n      eq\n        /* \"contracts/ymii/yi.sol\":1437:1484  require(msg.sender == adminAddress, 'no admin') */\n      tag_134\n      jumpi\n      mload(0x40)\n      0x08c379a000000000000000000000000000000000000000000000000000000000\n      dup2\n      mstore\n      0x04\n      add\n      tag_135\n      swap1\n      tag_129\n      jump\t// in\n    tag_135:\n      mload(0x40)\n      dup1\n      swap2\n      sub\n      swap1\n      revert\n    tag_134:\n        /* \"contracts/ymii/yi.sol\":1598:1608  newAddress */\n      dup1\n        /* \"contracts/ymii/yi.sol\":1575:1587  adminAddress */\n      0x05\n      0x01\n        /* \"contracts/ymii/yi.sol\":1575:1609  adminAddress = payable(newAddress) */\n      0x0100\n      exp\n      dup2\n      sload\n      dup2\n      0xffffffffffffffffffffffffffffffffffffffff\n      mul\n      not\n      and\n      swap1\n      dup4\n      0xffffffffffffffffffffffffffffffffffffffff\n      and\n      mul\n      or\n      swap1\n      sstore\n      pop\n        /* \"contracts/ymii/yi.sol\":1510:1617  function editAdmin(address newAddress) public isAdmin {... */\n      pop\n      jump\t// out\n        /* \"contracts/ymii/yi.sol\":1623:1744  function mint(address account, uint256 amount) public isAdmin {... */\n    tag_70:\n        /* \"contracts/ymii/yi.sol\":1459:1471  adminAddress */\n      0x05\n      0x01\n      swap1\n      sload\n      swap1\n      0x0100\n      exp\n      swap1\n      div\n      0xffffffffffffffffffffffffffffffffffffffff\n      and\n        /* \"contracts/ymii/yi.sol\":1445:1471  msg.sender == adminAddress */\n      0xffffffffffffffffffffffffffffffffffffffff\n      and\n        /* \"contracts/ymii/yi.sol\":1445:1455  msg.sender */\n      caller\n        /* \"contracts/ymii/yi.sol\":1445:1471  msg.sender == adminAddress */\n      0xffffffffffffffffffffffffffffffffffffffff\n      and\n      eq\n        /* \"contracts/ymii/yi.sol\":1437:1484  require(msg.sender == adminAddress, 'no admin') */\n      tag_138\n      jumpi\n      mload(0x40)\n      0x08c379a000000000000000000000000000000000000000000000000000000000\n      dup2\n      mstore\n      0x04\n      add\n      tag_139\n      swap1\n      tag_129\n      jump\t// in\n    tag_139:\n      mload(0x40)\n      dup1\n      swap2\n      sub\n      swap1\n      revert\n    tag_138:\n        /* \"contracts/ymii/yi.sol\":1696:1736  _mint(account, amount * 10 ** _decimals) */\n      tag_141\n        /* \"contracts/ymii/yi.sol\":1702:1709  account */\n      dup3\n        /* \"contracts/ymii/yi.sol\":1726:1735  _decimals */\n      0x05\n      0x00\n      swap1\n      sload\n      swap1\n      0x0100\n      exp\n      swap1\n      div\n      0xff\n      and\n        /* \"contracts/ymii/yi.sol\":1720:1722  10 */\n      0x0a\n        /* \"contracts/ymii/yi.sol\":1720:1735  10 ** _decimals */\n      tag_142\n      swap2\n      swap1\n      tag_143\n      jump\t// in\n    tag_142:\n        /* \"contracts/ymii/yi.sol\":1711:1717  amount */\n      dup4\n        /* \"contracts/ymii/yi.sol\":1711:1735  amount * 10 ** _decimals */\n      tag_144\n      swap2\n      swap1\n      tag_145\n      jump\t// in\n    tag_144:\n        /* \"contracts/ymii/yi.sol\":1696:1701  _mint */\n      tag_146\n        /* \"contracts/ymii/yi.sol\":1696:1736  _mint(account, amount * 10 ** _decimals) */\n      jump\t// in\n    tag_141:\n        /* \"contracts/ymii/yi.sol\":1623:1744  function mint(address account, uint256 amount) public isAdmin {... */\n      pop\n      pop\n      jump\t// out\n        /* \"contracts/ymii/yi.sol\":2443:2570  function balanceOf(address account) public view virtual override returns (uint256) {... */\n    tag_74:\n        /* \"contracts/ymii/yi.sol\":2517:2524  uint256 */\n      0x00\n        /* \"contracts/ymii/yi.sol\":2544:2553  _balances */\n      dup1\n        /* \"contracts/ymii/yi.sol\":2544:2562  _balances[account] */\n      0x00\n        /* \"contracts/ymii/yi.sol\":2554:2561  account */\n      dup4\n        /* \"contracts/ymii/yi.sol\":2544:2562  _balances[account] */\n      0xffffffffffffffffffffffffffffffffffffffff\n      and\n      0xffffffffffffffffffffffffffffffffffffffff\n      and\n      dup2\n      mstore\n      0x20\n      add\n      swap1\n      dup2\n      mstore\n      0x20\n      add\n      0x00\n      keccak256\n      sload\n        /* \"contracts/ymii/yi.sol\":2537:2562  return _balances[account] */\n      swap1\n      pop\n        /* \"contracts/ymii/yi.sol\":2443:2570  function balanceOf(address account) public view virtual override returns (uint256) {... */\n      swap2\n      swap1\n      pop\n      jump\t// out\n        /* \"contracts/ymii/yi.sol\":1863:2001  function withdrawToken(IERC20 token) external payable isAdmin {... */\n    tag_79:\n        /* \"contracts/ymii/yi.sol\":1459:1471  adminAddress */\n      0x05\n      0x01\n      swap1\n      sload\n      swap1\n      0x0100\n      exp\n      swap1\n      div\n      0xffffffffffffffffffffffffffffffffffffffff\n      and\n        /* \"contracts/ymii/yi.sol\":1445:1471  msg.sender == adminAddress */\n      0xffffffffffffffffffffffffffffffffffffffff\n      and\n        /* \"contracts/ymii/yi.sol\":1445:1455  msg.sender */\n      caller\n        /* \"contracts/ymii/yi.sol\":1445:1471  msg.sender == adminAddress */\n      0xffffffffffffffffffffffffffffffffffffffff\n      and\n      eq\n        /* \"contracts/ymii/yi.sol\":1437:1484  require(msg.sender == adminAddress, 'no admin') */\n      tag_149\n      jumpi\n      mload(0x40)\n      0x08c379a000000000000000000000000000000000000000000000000000000000\n      dup2\n      mstore\n      0x04\n      add\n      tag_150\n      swap1\n      tag_129\n      jump\t// in\n    tag_150:\n      mload(0x40)\n      dup1\n      swap2\n      sub\n      swap1\n      revert\n    tag_149:\n        /* \"contracts/ymii/yi.sol\":1936:1941  token */\n      dup1\n        /* \"contracts/ymii/yi.sol\":1936:1950  token.transfer */\n      0xffffffffffffffffffffffffffffffffffffffff\n      and\n      0xa9059cbb\n        /* \"contracts/ymii/yi.sol\":1951:1961  msg.sender */\n      caller\n        /* \"contracts/ymii/yi.sol\":1962:1967  token */\n      dup4\n        /* \"contracts/ymii/yi.sol\":1962:1977  token.balanceOf */\n      0xffffffffffffffffffffffffffffffffffffffff\n      and\n      0x70a08231\n        /* \"contracts/ymii/yi.sol\":1986:1990  this */\n      address\n        /* \"contracts/ymii/yi.sol\":1962:1992  token.balanceOf(address(this)) */\n      mload(0x40)\n      dup3\n      0xffffffff\n      and\n      0xe0\n      shl\n      dup2\n      mstore\n      0x04\n      add\n      tag_152\n      swap2\n      swap1\n      tag_153\n      jump\t// in\n    tag_152:\n      0x20\n      mload(0x40)\n      dup1\n      dup4\n      sub\n      dup2\n      dup7\n      gas\n      staticcall\n      iszero\n      dup1\n      iszero\n      tag_155\n      jumpi\n      returndatasize\n      0x00\n      dup1\n      returndatacopy\n      revert(0x00, returndatasize)\n    tag_155:\n      pop\n      pop\n      pop\n      pop\n      mload(0x40)\n      returndatasize\n      not(0x1f)\n      0x1f\n      dup3\n      add\n      and\n      dup3\n      add\n      dup1\n      0x40\n      mstore\n      pop\n      dup2\n      add\n      swap1\n      tag_156\n      swap2\n      swap1\n      tag_157\n      jump\t// in\n    tag_156:\n        /* \"contracts/ymii/yi.sol\":1936:1993  token.transfer(msg.sender,token.balanceOf(address(this))) */\n      mload(0x40)\n      dup4\n      0xffffffff\n      and\n      0xe0\n      shl\n      dup2\n      mstore\n      0x04\n      add\n      tag_158\n      swap3\n      swap2\n      swap1\n      tag_159\n      jump\t// in\n    tag_158:\n      0x20\n      mload(0x40)\n      dup1\n      dup4\n      sub\n      dup2\n      0x00\n      dup8\n      gas\n      call\n      iszero\n      dup1\n      iszero\n      tag_161\n      jumpi\n      returndatasize\n      0x00\n      dup1\n      returndatacopy\n      revert(0x00, returndatasize)\n    tag_161:\n      pop\n      pop\n      pop\n      pop\n      mload(0x40)\n      returndatasize\n      not(0x1f)\n      0x1f\n      dup3\n      add\n      and\n      dup3\n      add\n      dup1\n      0x40\n      mstore\n      pop\n      dup2\n      add\n      swap1\n      tag_162\n      swap2\n      swap1\n      tag_163\n      jump\t// in\n    tag_162:\n      pop\n        /* \"contracts/ymii/yi.sol\":1863:2001  function withdrawToken(IERC20 token) external payable isAdmin {... */\n      pop\n      jump\t// out\n        /* \"contracts/ymii/yi.sol\":2113:2217  function symbol() public view virtual override returns (string memory) {... */\n    tag_82:\n        /* \"contracts/ymii/yi.sol\":2169:2182  string memory */\n      0x60\n        /* \"contracts/ymii/yi.sol\":2202:2209  _symbol */\n      0x04\n        /* \"contracts/ymii/yi.sol\":2195:2209  return _symbol */\n      dup1\n      sload\n      tag_165\n      swap1\n      tag_107\n      jump\t// in\n    tag_165:\n      dup1\n      0x1f\n      add\n      0x20\n      dup1\n      swap2\n      div\n      mul\n      0x20\n      add\n      mload(0x40)\n      swap1\n      dup2\n      add\n      0x40\n      mstore\n      dup1\n      swap3\n      swap2\n      swap1\n      dup2\n      dup2\n      mstore\n      0x20\n      add\n      dup3\n      dup1\n      sload\n      tag_166\n      swap1\n      tag_107\n      jump\t// in\n    tag_166:\n      dup1\n      iszero\n      tag_167\n      jumpi\n      dup1\n      0x1f\n      lt\n      tag_168\n      jumpi\n      0x0100\n      dup1\n      dup4\n      sload\n      div\n      mul\n      dup4\n      mstore\n      swap2\n      0x20\n      add\n      swap2\n      jump(tag_167)\n    tag_168:\n      dup3\n      add\n      swap2\n      swap1\n      0x00\n      mstore\n      keccak256(0x00, 0x20)\n      swap1\n    tag_169:\n      dup2\n      sload\n      dup2\n      mstore\n      swap1\n      0x01\n      add\n      swap1\n      0x20\n      add\n      dup1\n      dup4\n      gt\n      tag_169\n      jumpi\n      dup3\n      swap1\n      sub\n      0x1f\n      and\n      dup3\n      add\n      swap2\n    tag_167:\n      pop\n      pop\n      pop\n      pop\n      pop\n      swap1\n      pop\n        /* \"contracts/ymii/yi.sol\":2113:2217  function symbol() public view virtual override returns (string memory) {... */\n      swap1\n      jump\t// out\n        /* \"contracts/ymii/yi.sol\":3682:4107  function decreaseAllowance(address spender, uint256 substractedValue) public virtual returns (bool) {... */\n    tag_87:\n        /* \"contracts/ymii/yi.sol\":3776:3780  bool */\n      0x00\n        /* \"contracts/ymii/yi.sol\":3793:3806  address owner */\n      dup1\n        /* \"contracts/ymii/yi.sol\":3809:3819  msg.sender */\n      caller\n        /* \"contracts/ymii/yi.sol\":3793:3819  address owner = msg.sender */\n      swap1\n      pop\n        /* \"contracts/ymii/yi.sol\":3830:3854  uint256 currentAllowance */\n      0x00\n        /* \"contracts/ymii/yi.sol\":3857:3868  _allowances */\n      0x01\n        /* \"contracts/ymii/yi.sol\":3857:3875  _allowances[owner] */\n      0x00\n        /* \"contracts/ymii/yi.sol\":3869:3874  owner */\n      dup4\n        /* \"contracts/ymii/yi.sol\":3857:3875  _allowances[owner] */\n      0xffffffffffffffffffffffffffffffffffffffff\n      and\n      0xffffffffffffffffffffffffffffffffffffffff\n      and\n      dup2\n      mstore\n      0x20\n      add\n      swap1\n      dup2\n      mstore\n      0x20\n      add\n      0x00\n      keccak256\n        /* \"contracts/ymii/yi.sol\":3857:3884  _allowances[owner][spender] */\n      0x00\n        /* \"contracts/ymii/yi.sol\":3876:3883  spender */\n      dup7\n        /* \"contracts/ymii/yi.sol\":3857:3884  _allowances[owner][spender] */\n      0xffffffffffffffffffffffffffffffffffffffff\n      and\n      0xffffffffffffffffffffffffffffffffffffffff\n      and\n      dup2\n      mstore\n      0x20\n      add\n      swap1\n      dup2\n      mstore\n      0x20\n      add\n      0x00\n      keccak256\n      sload\n        /* \"contracts/ymii/yi.sol\":3830:3884  uint256 currentAllowance = _allowances[owner][spender] */\n      swap1\n      pop\n        /* \"contracts/ymii/yi.sol\":3923:3939  substractedValue */\n      dup4\n        /* \"contracts/ymii/yi.sol\":3903:3919  currentAllowance */\n      dup2\n        /* \"contracts/ymii/yi.sol\":3903:3939  currentAllowance >= substractedValue */\n      lt\n      iszero\n        /* \"contracts/ymii/yi.sol\":3895:3981  require(currentAllowance >= substractedValue, \"ERC20: decreased allowance below zero\") */\n      tag_171\n      jumpi\n      mload(0x40)\n      0x08c379a000000000000000000000000000000000000000000000000000000000\n      dup2\n      mstore\n      0x04\n      add\n      tag_172\n      swap1\n      tag_173\n      jump\t// in\n    tag_172:\n      mload(0x40)\n      dup1\n      swap2\n      sub\n      swap1\n      revert\n    tag_171:\n        /* \"contracts/ymii/yi.sol\":4009:4070  _approve(owner, spender, currentAllowance - substractedValue) */\n      tag_174\n        /* \"contracts/ymii/yi.sol\":4018:4023  owner */\n      dup3\n        /* \"contracts/ymii/yi.sol\":4025:4032  spender */\n      dup7\n        /* \"contracts/ymii/yi.sol\":4053:4069  substractedValue */\n      dup7\n        /* \"contracts/ymii/yi.sol\":4034:4050  currentAllowance */\n      dup5\n        /* \"contracts/ymii/yi.sol\":4034:4069  currentAllowance - substractedValue */\n      sub\n        /* \"contracts/ymii/yi.sol\":4009:4017  _approve */\n      tag_114\n        /* \"contracts/ymii/yi.sol\":4009:4070  _approve(owner, spender, currentAllowance - substractedValue) */\n      jump\t// in\n    tag_174:\n        /* \"contracts/ymii/yi.sol\":4095:4099  true */\n      0x01\n        /* \"contracts/ymii/yi.sol\":4088:4099  return true */\n      swap3\n      pop\n      pop\n      pop\n        /* \"contracts/ymii/yi.sol\":3682:4107  function decreaseAllowance(address spender, uint256 substractedValue) public virtual returns (bool) {... */\n      swap3\n      swap2\n      pop\n      pop\n      jump\t// out\n        /* \"contracts/ymii/yi.sol\":2576:2767  function transfer(address to, uint256 amount) public virtual override returns (bool) {... */\n    tag_92:\n        /* \"contracts/ymii/yi.sol\":2655:2659  bool */\n      0x00\n        /* \"contracts/ymii/yi.sol\":2672:2685  address owner */\n      dup1\n        /* \"contracts/ymii/yi.sol\":2688:2698  msg.sender */\n      caller\n        /* \"contracts/ymii/yi.sol\":2672:2698  address owner = msg.sender */\n      swap1\n      pop\n        /* \"contracts/ymii/yi.sol\":2709:2737  _transfer(owner, to, amount) */\n      tag_176\n        /* \"contracts/ymii/yi.sol\":2719:2724  owner */\n      dup2\n        /* \"contracts/ymii/yi.sol\":2726:2728  to */\n      dup6\n        /* \"contracts/ymii/yi.sol\":2730:2736  amount */\n      dup6\n        /* \"contracts/ymii/yi.sol\":2709:2718  _transfer */\n      tag_120\n        /* \"contracts/ymii/yi.sol\":2709:2737  _transfer(owner, to, amount) */\n      jump\t// in\n    tag_176:\n        /* \"contracts/ymii/yi.sol\":2755:2759  true */\n      0x01\n        /* \"contracts/ymii/yi.sol\":2748:2759  return true */\n      swap2\n      pop\n      pop\n        /* \"contracts/ymii/yi.sol\":2576:2767  function transfer(address to, uint256 amount) public virtual override returns (bool) {... */\n      swap3\n      swap2\n      pop\n      pop\n      jump\t// out\n        /* \"contracts/ymii/yi.sol\":2773:2924  function allowance(address owner, address spender) public view virtual override returns (uint256) {... */\n    tag_98:\n        /* \"contracts/ymii/yi.sol\":2862:2869  uint256 */\n      0x00\n        /* \"contracts/ymii/yi.sol\":2889:2900  _allowances */\n      0x01\n        /* \"contracts/ymii/yi.sol\":2889:2907  _allowances[owner] */\n      0x00\n        /* \"contracts/ymii/yi.sol\":2901:2906  owner */\n      dup5\n        /* \"contracts/ymii/yi.sol\":2889:2907  _allowances[owner] */\n      0xffffffffffffffffffffffffffffffffffffffff\n      and\n      0xffffffffffffffffffffffffffffffffffffffff\n      and\n      dup2\n      mstore\n      0x20\n      add\n      swap1\n      dup2\n      mstore\n      0x20\n      add\n      0x00\n      keccak256\n        /* \"contracts/ymii/yi.sol\":2889:2916  _allowances[owner][spender] */\n      0x00\n        /* \"contracts/ymii/yi.sol\":2908:2915  spender */\n      dup4\n        /* \"contracts/ymii/yi.sol\":2889:2916  _allowances[owner][spender] */\n      0xffffffffffffffffffffffffffffffffffffffff\n      and\n      0xffffffffffffffffffffffffffffffffffffffff\n      and\n      dup2\n      mstore\n      0x20\n      add\n      swap1\n      dup2\n      mstore\n      0x20\n      add\n      0x00\n      keccak256\n      sload\n        /* \"contracts/ymii/yi.sol\":2882:2916  return _allowances[owner][spender] */\n      swap1\n      pop\n        /* \"contracts/ymii/yi.sol\":2773:2924  function allowance(address owner, address spender) public view virtual override returns (uint256) {... */\n      swap3\n      swap2\n      pop\n      pop\n      jump\t// out\n        /* \"contracts/ymii/yi.sol\":1362:1399  address payable public   adminAddress */\n    tag_102:\n      0x05\n      0x01\n      swap1\n      sload\n      swap1\n      0x0100\n      exp\n      swap1\n      div\n      0xffffffffffffffffffffffffffffffffffffffff\n      and\n      dup2\n      jump\t// out\n        /* \"contracts/ymii/yi.sol\":5762:6141  function _approve(... */\n    tag_114:\n        /* \"contracts/ymii/yi.sol\":5915:5916  0 */\n      0x00\n        /* \"contracts/ymii/yi.sol\":5898:5917  owner != address(0) */\n      0xffffffffffffffffffffffffffffffffffffffff\n      and\n        /* \"contracts/ymii/yi.sol\":5898:5903  owner */\n      dup4\n        /* \"contracts/ymii/yi.sol\":5898:5917  owner != address(0) */\n      0xffffffffffffffffffffffffffffffffffffffff\n      and\n      sub\n        /* \"contracts/ymii/yi.sol\":5890:5958  require(owner != address(0), \"ERC20: approve from the zero address\") */\n      tag_179\n      jumpi\n      mload(0x40)\n      0x08c379a000000000000000000000000000000000000000000000000000000000\n      dup2\n      mstore\n      0x04\n      add\n      tag_180\n      swap1\n      tag_181\n      jump\t// in\n    tag_180:\n      mload(0x40)\n      dup1\n      swap2\n      sub\n      swap1\n      revert\n    tag_179:\n        /* \"contracts/ymii/yi.sol\":5996:5997  0 */\n      0x00\n        /* \"contracts/ymii/yi.sol\":5977:5998  spender != address(0) */\n      0xffffffffffffffffffffffffffffffffffffffff\n      and\n        /* \"contracts/ymii/yi.sol\":5977:5984  spender */\n      dup3\n        /* \"contracts/ymii/yi.sol\":5977:5998  spender != address(0) */\n      0xffffffffffffffffffffffffffffffffffffffff\n      and\n      sub\n        /* \"contracts/ymii/yi.sol\":5969:6038  require(spender != address(0), \"ERC20: approve  to the zero address\") */\n      tag_182\n      jumpi\n      mload(0x40)\n      0x08c379a000000000000000000000000000000000000000000000000000000000\n      dup2\n      mstore\n      0x04\n      add\n      tag_183\n      swap1\n      tag_184\n      jump\t// in\n    tag_183:\n      mload(0x40)\n      dup1\n      swap2\n      sub\n      swap1\n      revert\n    tag_182:\n        /* \"contracts/ymii/yi.sol\":6079:6085  amount */\n      dup1\n        /* \"contracts/ymii/yi.sol\":6049:6060  _allowances */\n      0x01\n        /* \"contracts/ymii/yi.sol\":6049:6067  _allowances[owner] */\n      0x00\n        /* \"contracts/ymii/yi.sol\":6061:6066  owner */\n      dup6\n        /* \"contracts/ymii/yi.sol\":6049:6067  _allowances[owner] */\n      0xffffffffffffffffffffffffffffffffffffffff\n      and\n      0xffffffffffffffffffffffffffffffffffffffff\n      and\n      dup2\n      mstore\n      0x20\n      add\n      swap1\n      dup2\n      mstore\n      0x20\n      add\n      0x00\n      keccak256\n        /* \"contracts/ymii/yi.sol\":6049:6076  _allowances[owner][spender] */\n      0x00\n        /* \"contracts/ymii/yi.sol\":6068:6075  spender */\n      dup5\n        /* \"contracts/ymii/yi.sol\":6049:6076  _allowances[owner][spender] */\n      0xffffffffffffffffffffffffffffffffffffffff\n      and\n      0xffffffffffffffffffffffffffffffffffffffff\n      and\n      dup2\n      mstore\n      0x20\n      add\n      swap1\n      dup2\n      mstore\n      0x20\n      add\n      0x00\n      keccak256\n        /* \"contracts/ymii/yi.sol\":6049:6085  _allowances[owner][spender] = amount */\n      dup2\n      swap1\n      sstore\n      pop\n        /* \"contracts/ymii/yi.sol\":6117:6124  spender */\n      dup2\n        /* \"contracts/ymii/yi.sol\":6101:6133  Approval(owner, spender, amount) */\n      0xffffffffffffffffffffffffffffffffffffffff\n      and\n        /* \"contracts/ymii/yi.sol\":6110:6115  owner */\n      dup4\n        /* \"contracts/ymii/yi.sol\":6101:6133  Approval(owner, spender, amount) */\n      0xffffffffffffffffffffffffffffffffffffffff\n      and\n      0x8c5be1e5ebec7d5bd14f71427d1e84f3dd0314c0f7b2291e5b200ac8c7c3b925\n        /* \"contracts/ymii/yi.sol\":6126:6132  amount */\n      dup4\n        /* \"contracts/ymii/yi.sol\":6101:6133  Approval(owner, spender, amount) */\n      mload(0x40)\n      tag_185\n      swap2\n      swap1\n      tag_42\n      jump\t// in\n    tag_185:\n      mload(0x40)\n      dup1\n      swap2\n      sub\n      swap1\n      log3\n        /* \"contracts/ymii/yi.sol\":5762:6141  function _approve(... */\n      pop\n      pop\n      pop\n      jump\t// out\n        /* \"contracts/ymii/yi.sol\":6149:6590  function _spendAllowance(... */\n    tag_118:\n        /* \"contracts/ymii/yi.sol\":6284:6308  uint256 currentAllowance */\n      0x00\n        /* \"contracts/ymii/yi.sol\":6311:6336  allowance(owner, spender) */\n      tag_187\n        /* \"contracts/ymii/yi.sol\":6321:6326  owner */\n      dup5\n        /* \"contracts/ymii/yi.sol\":6328:6335  spender */\n      dup5\n        /* \"contracts/ymii/yi.sol\":6311:6320  allowance */\n      tag_98\n        /* \"contracts/ymii/yi.sol\":6311:6336  allowance(owner, spender) */\n      jump\t// in\n    tag_187:\n        /* \"contracts/ymii/yi.sol\":6284:6336  uint256 currentAllowance = allowance(owner, spender) */\n      swap1\n      pop\n        /* \"contracts/ymii/yi.sol\":6371:6388  type(uint256).max */\n      0xffffffffffffffffffffffffffffffffffffffffffffffffffffffffffffffff\n        /* \"contracts/ymii/yi.sol\":6351:6367  currentAllowance */\n      dup2\n        /* \"contracts/ymii/yi.sol\":6351:6388  currentAllowance != type(uint256).max */\n      eq\n        /* \"contracts/ymii/yi.sol\":6347:6583  if (currentAllowance != type(uint256).max) {... */\n      tag_188\n      jumpi\n        /* \"contracts/ymii/yi.sol\":6433:6439  amount */\n      dup2\n        /* \"contracts/ymii/yi.sol\":6413:6429  currentAllowance */\n      dup2\n        /* \"contracts/ymii/yi.sol\":6413:6439  currentAllowance >= amount */\n      lt\n      iszero\n        /* \"contracts/ymii/yi.sol\":6405:6473  require(currentAllowance >= amount, \"ERC20: insufficient allowance\") */\n      tag_189\n      jumpi\n      mload(0x40)\n      0x08c379a000000000000000000000000000000000000000000000000000000000\n      dup2\n      mstore\n      0x04\n      add\n      tag_190\n      swap1\n      tag_191\n      jump\t// in\n    tag_190:\n      mload(0x40)\n      dup1\n      swap2\n      sub\n      swap1\n      revert\n    tag_189:\n        /* \"contracts/ymii/yi.sol\":6509:6560  _approve(owner, spender, currentAllowance - amount) */\n      tag_192\n        /* \"contracts/ymii/yi.sol\":6518:6523  owner */\n      dup5\n        /* \"contracts/ymii/yi.sol\":6525:6532  spender */\n      dup5\n        /* \"contracts/ymii/yi.sol\":6553:6559  amount */\n      dup5\n        /* \"contracts/ymii/yi.sol\":6534:6550  currentAllowance */\n      dup5\n        /* \"contracts/ymii/yi.sol\":6534:6559  currentAllowance - amount */\n      sub\n        /* \"contracts/ymii/yi.sol\":6509:6517  _approve */\n      tag_114\n        /* \"contracts/ymii/yi.sol\":6509:6560  _approve(owner, spender, currentAllowance - amount) */\n      jump\t// in\n    tag_192:\n        /* \"contracts/ymii/yi.sol\":6347:6583  if (currentAllowance != type(uint256).max) {... */\n    tag_188:\n        /* \"contracts/ymii/yi.sol\":6273:6590  {... */\n      pop\n        /* \"contracts/ymii/yi.sol\":6149:6590  function _spendAllowance(... */\n      pop\n      pop\n      pop\n      jump\t// out\n        /* \"contracts/ymii/yi.sol\":4115:4770  function _transfer(... */\n    tag_120:\n        /* \"contracts/ymii/yi.sol\":4262:4263  0 */\n      0x00\n        /* \"contracts/ymii/yi.sol\":4246:4264  from != address(0) */\n      0xffffffffffffffffffffffffffffffffffffffff\n      and\n        /* \"contracts/ymii/yi.sol\":4246:4250  from */\n      dup4\n        /* \"contracts/ymii/yi.sol\":4246:4264  from != address(0) */\n      0xffffffffffffffffffffffffffffffffffffffff\n      and\n      sub\n        /* \"contracts/ymii/yi.sol\":4238:4306  require(from != address(0), \"ERC20: transfer from the zero address\") */\n      tag_194\n      jumpi\n      mload(0x40)\n      0x08c379a000000000000000000000000000000000000000000000000000000000\n      dup2\n      mstore\n      0x04\n      add\n      tag_195\n      swap1\n      tag_196\n      jump\t// in\n    tag_195:\n      mload(0x40)\n      dup1\n      swap2\n      sub\n      swap1\n      revert\n    tag_194:\n        /* \"contracts/ymii/yi.sol\":4339:4340  0 */\n      0x00\n        /* \"contracts/ymii/yi.sol\":4325:4341  to != address(0) */\n      0xffffffffffffffffffffffffffffffffffffffff\n      and\n        /* \"contracts/ymii/yi.sol\":4325:4327  to */\n      dup3\n        /* \"contracts/ymii/yi.sol\":4325:4341  to != address(0) */\n      0xffffffffffffffffffffffffffffffffffffffff\n      and\n      sub\n        /* \"contracts/ymii/yi.sol\":4317:4381  require(to != address(0), \"ERC20: transfer to the zero address\") */\n      tag_197\n      jumpi\n      mload(0x40)\n      0x08c379a000000000000000000000000000000000000000000000000000000000\n      dup2\n      mstore\n      0x04\n      add\n      tag_198\n      swap1\n      tag_199\n      jump\t// in\n    tag_198:\n      mload(0x40)\n      dup1\n      swap2\n      sub\n      swap1\n      revert\n    tag_197:\n        /* \"contracts/ymii/yi.sol\":4394:4432  _beforeTokenTransfer(from, to, amount) */\n      tag_200\n        /* \"contracts/ymii/yi.sol\":4415:4419  from */\n      dup4\n        /* \"contracts/ymii/yi.sol\":4421:4423  to */\n      dup4\n        /* \"contracts/ymii/yi.sol\":4425:4431  amount */\n      dup4\n        /* \"contracts/ymii/yi.sol\":4394:4414  _beforeTokenTransfer */\n      tag_201\n        /* \"contracts/ymii/yi.sol\":4394:4432  _beforeTokenTransfer(from, to, amount) */\n      jump\t// in\n    tag_200:\n        /* \"contracts/ymii/yi.sol\":4445:4464  uint256 fromBalance */\n      0x00\n        /* \"contracts/ymii/yi.sol\":4467:4476  _balances */\n      dup1\n        /* \"contracts/ymii/yi.sol\":4467:4482  _balances[from] */\n      0x00\n        /* \"contracts/ymii/yi.sol\":4477:4481  from */\n      dup6\n        /* \"contracts/ymii/yi.sol\":4467:4482  _balances[from] */\n      0xffffffffffffffffffffffffffffffffffffffff\n      and\n      0xffffffffffffffffffffffffffffffffffffffff\n      and\n      dup2\n      mstore\n      0x20\n      add\n      swap1\n      dup2\n      mstore\n      0x20\n      add\n      0x00\n      keccak256\n      sload\n        /* \"contracts/ymii/yi.sol\":4445:4482  uint256 fromBalance = _balances[from] */\n      swap1\n      pop\n        /* \"contracts/ymii/yi.sol\":4516:4522  amount */\n      dup2\n        /* \"contracts/ymii/yi.sol\":4501:4512  fromBalance */\n      dup2\n        /* \"contracts/ymii/yi.sol\":4501:4522  fromBalance >= amount */\n      lt\n      iszero\n        /* \"contracts/ymii/yi.sol\":4493:4565  require(fromBalance >= amount, \"ERC20: transfer amount exceeds balance\") */\n      tag_202\n      jumpi\n      mload(0x40)\n      0x08c379a000000000000000000000000000000000000000000000000000000000\n      dup2\n      mstore\n      0x04\n      add\n      tag_203\n      swap1\n      tag_204\n      jump\t// in\n    tag_203:\n      mload(0x40)\n      dup1\n      swap2\n      sub\n      swap1\n      revert\n    tag_202:\n        /* \"contracts/ymii/yi.sol\":4625:4631  amount */\n      dup2\n        /* \"contracts/ymii/yi.sol\":4611:4622  fromBalance */\n      dup2\n        /* \"contracts/ymii/yi.sol\":4611:4631  fromBalance - amount */\n      sub\n        /* \"contracts/ymii/yi.sol\":4593:4602  _balances */\n      0x00\n        /* \"contracts/ymii/yi.sol\":4593:4608  _balances[from] */\n      dup1\n        /* \"contracts/ymii/yi.sol\":4603:4607  from */\n      dup7\n        /* \"contracts/ymii/yi.sol\":4593:4608  _balances[from] */\n      0xffffffffffffffffffffffffffffffffffffffff\n      and\n      0xffffffffffffffffffffffffffffffffffffffff\n      and\n      dup2\n      mstore\n      0x20\n      add\n      swap1\n      dup2\n      mstore\n      0x20\n      add\n      0x00\n      keccak256\n        /* \"contracts/ymii/yi.sol\":4593:4631  _balances[from] = fromBalance - amount */\n      dup2\n      swap1\n      sstore\n      pop\n        /* \"contracts/ymii/yi.sol\":4666:4672  amount */\n      dup2\n        /* \"contracts/ymii/yi.sol\":4649:4658  _balances */\n      0x00\n        /* \"contracts/ymii/yi.sol\":4649:4662  _balances[to] */\n      dup1\n        /* \"contracts/ymii/yi.sol\":4659:4661  to */\n      dup6\n        /* \"contracts/ymii/yi.sol\":4649:4662  _balances[to] */\n      0xffffffffffffffffffffffffffffffffffffffff\n      and\n      0xffffffffffffffffffffffffffffffffffffffff\n      and\n      dup2\n      mstore\n      0x20\n      add\n      swap1\n      dup2\n      mstore\n      0x20\n      add\n      0x00\n      keccak256\n      0x00\n        /* \"contracts/ymii/yi.sol\":4649:4672  _balances[to] += amount */\n      dup3\n      dup3\n      sload\n      tag_205\n      swap2\n      swap1\n      tag_125\n      jump\t// in\n    tag_205:\n      swap3\n      pop\n      pop\n      dup2\n      swap1\n      sstore\n      pop\n        /* \"contracts/ymii/yi.sol\":4703:4705  to */\n      dup3\n        /* \"contracts/ymii/yi.sol\":4688:4714  Transfer(from, to, amount) */\n      0xffffffffffffffffffffffffffffffffffffffff\n      and\n        /* \"contracts/ymii/yi.sol\":4697:4701  from */\n      dup5\n        /* \"contracts/ymii/yi.sol\":4688:4714  Transfer(from, to, amount) */\n      0xffffffffffffffffffffffffffffffffffffffff\n      and\n      0xddf252ad1be2c89b69c2b068fc378daa952ba7f163c4a11628f55a4df523b3ef\n        /* \"contracts/ymii/yi.sol\":4707:4713  amount */\n      dup5\n        /* \"contracts/ymii/yi.sol\":4688:4714  Transfer(from, to, amount) */\n      mload(0x40)\n      tag_206\n      swap2\n      swap1\n      tag_42\n      jump\t// in\n    tag_206:\n      mload(0x40)\n      dup1\n      swap2\n      sub\n      swap1\n      log3\n        /* \"contracts/ymii/yi.sol\":4725:4762  _afterTokenTransfer(from, to, amount) */\n      tag_207\n        /* \"contracts/ymii/yi.sol\":4745:4749  from */\n      dup5\n        /* \"contracts/ymii/yi.sol\":4751:4753  to */\n      dup5\n        /* \"contracts/ymii/yi.sol\":4755:4761  amount */\n      dup5\n        /* \"contracts/ymii/yi.sol\":4725:4744  _afterTokenTransfer */\n      tag_208\n        /* \"contracts/ymii/yi.sol\":4725:4762  _afterTokenTransfer(from, to, amount) */\n      jump\t// in\n    tag_207:\n        /* \"contracts/ymii/yi.sol\":4227:4770  {... */\n      pop\n        /* \"contracts/ymii/yi.sol\":4115:4770  function _transfer(... */\n      pop\n      pop\n      pop\n      jump\t// out\n        /* \"contracts/ymii/yi.sol\":4778:5171  function _mint(address account, uint256 amount) internal virtual {... */\n    tag_146:\n        /* \"contracts/ymii/yi.sol\":4881:4882  0 */\n      0x00\n        /* \"contracts/ymii/yi.sol\":4862:4883  account != address(0) */\n      0xffffffffffffffffffffffffffffffffffffffff\n      and\n        /* \"contracts/ymii/yi.sol\":4862:4869  account */\n      dup3\n        /* \"contracts/ymii/yi.sol\":4862:4883  account != address(0) */\n      0xffffffffffffffffffffffffffffffffffffffff\n      and\n      sub\n        /* \"contracts/ymii/yi.sol\":4854:4919  require(account != address(0), \"ERC20: mint to the zero address\") */\n      tag_210\n      jumpi\n      mload(0x40)\n      0x08c379a000000000000000000000000000000000000000000000000000000000\n      dup2\n      mstore\n      0x04\n      add\n      tag_211\n      swap1\n      tag_212\n      jump\t// in\n    tag_211:\n      mload(0x40)\n      dup1\n      swap2\n      sub\n      swap1\n      revert\n    tag_210:\n        /* \"contracts/ymii/yi.sol\":4930:4979  _beforeTokenTransfer(address(0), account, amount) */\n      tag_213\n        /* \"contracts/ymii/yi.sol\":4959:4960  0 */\n      0x00\n        /* \"contracts/ymii/yi.sol\":4963:4970  account */\n      dup4\n        /* \"contracts/ymii/yi.sol\":4972:4978  amount */\n      dup4\n        /* \"contracts/ymii/yi.sol\":4930:4950  _beforeTokenTransfer */\n      tag_201\n        /* \"contracts/ymii/yi.sol\":4930:4979  _beforeTokenTransfer(address(0), account, amount) */\n      jump\t// in\n    tag_213:\n        /* \"contracts/ymii/yi.sol\":5006:5012  amount */\n      dup1\n        /* \"contracts/ymii/yi.sol\":4990:5002  _totalSupply */\n      0x02\n      0x00\n        /* \"contracts/ymii/yi.sol\":4990:5012  _totalSupply += amount */\n      dup3\n      dup3\n      sload\n      tag_214\n      swap2\n      swap1\n      tag_125\n      jump\t// in\n    tag_214:\n      swap3\n      pop\n      pop\n      dup2\n      swap1\n      sstore\n      pop\n        /* \"contracts/ymii/yi.sol\":5045:5051  amount */\n      dup1\n        /* \"contracts/ymii/yi.sol\":5023:5032  _balances */\n      0x00\n        /* \"contracts/ymii/yi.sol\":5023:5041  _balances[account] */\n      dup1\n        /* \"contracts/ymii/yi.sol\":5033:5040  account */\n      dup5\n        /* \"contracts/ymii/yi.sol\":5023:5041  _balances[account] */\n      0xffffffffffffffffffffffffffffffffffffffff\n      and\n      0xffffffffffffffffffffffffffffffffffffffff\n      and\n      dup2\n      mstore\n      0x20\n      add\n      swap1\n      dup2\n      mstore\n      0x20\n      add\n      0x00\n      keccak256\n      0x00\n        /* \"contracts/ymii/yi.sol\":5023:5051  _balances[account] += amount */\n      dup3\n      dup3\n      sload\n      tag_215\n      swap2\n      swap1\n      tag_125\n      jump\t// in\n    tag_215:\n      swap3\n      pop\n      pop\n      dup2\n      swap1\n      sstore\n      pop\n        /* \"contracts/ymii/yi.sol\":5088:5095  account */\n      dup2\n        /* \"contracts/ymii/yi.sol\":5067:5104  Transfer(address(0), account, amount) */\n      0xffffffffffffffffffffffffffffffffffffffff\n      and\n        /* \"contracts/ymii/yi.sol\":5084:5085  0 */\n      0x00\n        /* \"contracts/ymii/yi.sol\":5067:5104  Transfer(address(0), account, amount) */\n      0xffffffffffffffffffffffffffffffffffffffff\n      and\n      0xddf252ad1be2c89b69c2b068fc378daa952ba7f163c4a11628f55a4df523b3ef\n        /* \"contracts/ymii/yi.sol\":5097:5103  amount */\n      dup4\n        /* \"contracts/ymii/yi.sol\":5067:5104  Transfer(address(0), account, amount) */\n      mload(0x40)\n      tag_216\n      swap2\n      swap1\n      tag_42\n      jump\t// in\n    tag_216:\n      mload(0x40)\n      dup1\n      swap2\n      sub\n      swap1\n      log3\n        /* \"contracts/ymii/yi.sol\":5115:5163  _afterTokenTransfer(address(0), account, amount) */\n      tag_217\n        /* \"contracts/ymii/yi.sol\":5143:5144  0 */\n      0x00\n        /* \"contracts/ymii/yi.sol\":5147:5154  account */\n      dup4\n        /* \"contracts/ymii/yi.sol\":5156:5162  amount */\n      dup4\n        /* \"contracts/ymii/yi.sol\":5115:5134  _afterTokenTransfer */\n      tag_208\n        /* \"contracts/ymii/yi.sol\":5115:5163  _afterTokenTransfer(address(0), account, amount) */\n      jump\t// in\n    tag_217:\n        /* \"contracts/ymii/yi.sol\":4778:5171  function _mint(address account, uint256 amount) internal virtual {... */\n      pop\n      pop\n      jump\t// out\n        /* \"contracts/ymii/yi.sol\":6598:6723  function _beforeTokenTransfer(... */\n    tag_201:\n      pop\n      pop\n      pop\n      jump\t// out\n        /* \"contracts/ymii/yi.sol\":6731:6855  function _afterTokenTransfer(... */\n    tag_208:\n      pop\n      pop\n      pop\n      jump\t// out\n        /* \"#utility.yul\":7:106   */\n    tag_220:\n        /* \"#utility.yul\":59:65   */\n      0x00\n        /* \"#utility.yul\":93:98   */\n      dup2\n        /* \"#utility.yul\":87:99   */\n      mload\n        /* \"#utility.yul\":77:99   */\n      swap1\n      pop\n        /* \"#utility.yul\":7:106   */\n      swap2\n      swap1\n      pop\n      jump\t// out\n        /* \"#utility.yul\":112:281   */\n    tag_221:\n        /* \"#utility.yul\":196:207   */\n      0x00\n        /* \"#utility.yul\":230:236   */\n      dup3\n        /* \"#utility.yul\":225:228   */\n      dup3\n        /* \"#utility.yul\":218:237   */\n      mstore\n        /* \"#utility.yul\":270:274   */\n      0x20\n        /* \"#utility.yul\":265:268   */\n      dup3\n        /* \"#utility.yul\":261:275   */\n      add\n        /* \"#utility.yul\":246:275   */\n      swap1\n      pop\n        /* \"#utility.yul\":112:281   */\n      swap3\n      swap2\n      pop\n      pop\n      jump\t// out\n        /* \"#utility.yul\":287:533   */\n    tag_222:\n        /* \"#utility.yul\":368:369   */\n      0x00\n        /* \"#utility.yul\":378:491   */\n    tag_276:\n        /* \"#utility.yul\":392:398   */\n      dup4\n        /* \"#utility.yul\":389:390   */\n      dup2\n        /* \"#utility.yul\":386:399   */\n      lt\n        /* \"#utility.yul\":378:491   */\n      iszero\n      tag_278\n      jumpi\n        /* \"#utility.yul\":477:478   */\n      dup1\n        /* \"#utility.yul\":472:475   */\n      dup3\n        /* \"#utility.yul\":468:479   */\n      add\n        /* \"#utility.yul\":462:480   */\n      mload\n        /* \"#utility.yul\":458:459   */\n      dup2\n        /* \"#utility.yul\":453:456   */\n      dup5\n        /* \"#utility.yul\":449:460   */\n      add\n        /* \"#utility.yul\":442:481   */\n      mstore\n        /* \"#utility.yul\":414:416   */\n      0x20\n        /* \"#utility.yul\":411:412   */\n      dup2\n        /* \"#utility.yul\":407:417   */\n      add\n        /* \"#utility.yul\":402:417   */\n      swap1\n      pop\n        /* \"#utility.yul\":378:491   */\n      jump(tag_276)\n    tag_278:\n        /* \"#utility.yul\":525:526   */\n      0x00\n        /* \"#utility.yul\":516:522   */\n      dup5\n        /* \"#utility.yul\":511:514   */\n      dup5\n        /* \"#utility.yul\":507:523   */\n      add\n        /* \"#utility.yul\":500:527   */\n      mstore\n        /* \"#utility.yul\":349:533   */\n      pop\n        /* \"#utility.yul\":287:533   */\n      pop\n      pop\n      pop\n      jump\t// out\n        /* \"#utility.yul\":539:641   */\n    tag_223:\n        /* \"#utility.yul\":580:586   */\n      0x00\n        /* \"#utility.yul\":631:633   */\n      0x1f\n        /* \"#utility.yul\":627:634   */\n      not\n        /* \"#utility.yul\":622:624   */\n      0x1f\n        /* \"#utility.yul\":615:620   */\n      dup4\n        /* \"#utility.yul\":611:625   */\n      add\n        /* \"#utility.yul\":607:635   */\n      and\n        /* \"#utility.yul\":597:635   */\n      swap1\n      pop\n        /* \"#utility.yul\":539:641   */\n      swap2\n      swap1\n      pop\n      jump\t// out\n        /* \"#utility.yul\":647:1024   */\n    tag_224:\n        /* \"#utility.yul\":735:738   */\n      0x00\n        /* \"#utility.yul\":763:802   */\n      tag_281\n        /* \"#utility.yul\":796:801   */\n      dup3\n        /* \"#utility.yul\":763:802   */\n      tag_220\n      jump\t// in\n    tag_281:\n        /* \"#utility.yul\":818:889   */\n      tag_282\n        /* \"#utility.yul\":882:888   */\n      dup2\n        /* \"#utility.yul\":877:880   */\n      dup6\n        /* \"#utility.yul\":818:889   */\n      tag_221\n      jump\t// in\n    tag_282:\n        /* \"#utility.yul\":811:889   */\n      swap4\n      pop\n        /* \"#utility.yul\":898:963   */\n      tag_283\n        /* \"#utility.yul\":956:962   */\n      dup2\n        /* \"#utility.yul\":951:954   */\n      dup6\n        /* \"#utility.yul\":944:948   */\n      0x20\n        /* \"#utility.yul\":937:942   */\n      dup7\n        /* \"#utility.yul\":933:949   */\n      add\n        /* \"#utility.yul\":898:963   */\n      tag_222\n      jump\t// in\n    tag_283:\n        /* \"#utility.yul\":988:1017   */\n      tag_284\n        /* \"#utility.yul\":1010:1016   */\n      dup2\n        /* \"#utility.yul\":988:1017   */\n      tag_223\n      jump\t// in\n    tag_284:\n        /* \"#utility.yul\":983:986   */\n      dup5\n        /* \"#utility.yul\":979:1018   */\n      add\n        /* \"#utility.yul\":972:1018   */\n      swap2\n      pop\n        /* \"#utility.yul\":739:1024   */\n      pop\n        /* \"#utility.yul\":647:1024   */\n      swap3\n      swap2\n      pop\n      pop\n      jump\t// out\n        /* \"#utility.yul\":1030:1343   */\n    tag_30:\n        /* \"#utility.yul\":1143:1147   */\n      0x00\n        /* \"#utility.yul\":1181:1183   */\n      0x20\n        /* \"#utility.yul\":1170:1179   */\n      dup3\n        /* \"#utility.yul\":1166:1184   */\n      add\n        /* \"#utility.yul\":1158:1184   */\n      swap1\n      pop\n        /* \"#utility.yul\":1230:1239   */\n      dup2\n        /* \"#utility.yul\":1224:1228   */\n      dup2\n        /* \"#utility.yul\":1220:1240   */\n      sub\n        /* \"#utility.yul\":1216:1217   */\n      0x00\n        /* \"#utility.yul\":1205:1214   */\n      dup4\n        /* \"#utility.yul\":1201:1218   */\n      add\n        /* \"#utility.yul\":1194:1241   */\n      mstore\n        /* \"#utility.yul\":1258:1336   */\n      tag_286\n        /* \"#utility.yul\":1331:1335   */\n      dup2\n        /* \"#utility.yul\":1322:1328   */\n      dup5\n        /* \"#utility.yul\":1258:1336   */\n      tag_224\n      jump\t// in\n    tag_286:\n        /* \"#utility.yul\":1250:1336   */\n      swap1\n      pop\n        /* \"#utility.yul\":1030:1343   */\n      swap3\n      swap2\n      pop\n      pop\n      jump\t// out\n        /* \"#utility.yul\":1430:1547   */\n    tag_226:\n        /* \"#utility.yul\":1539:1540   */\n      0x00\n        /* \"#utility.yul\":1536:1537   */\n      dup1\n        /* \"#utility.yul\":1529:1541   */\n      revert\n        /* \"#utility.yul\":1676:1802   */\n    tag_228:\n        /* \"#utility.yul\":1713:1720   */\n      0x00\n        /* \"#utility.yul\":1753:1795   */\n      0xffffffffffffffffffffffffffffffffffffffff\n        /* \"#utility.yul\":1746:1751   */\n      dup3\n        /* \"#utility.yul\":1742:1796   */\n      and\n        /* \"#utility.yul\":1731:1796   */\n      swap1\n      pop\n        /* \"#utility.yul\":1676:1802   */\n      swap2\n      swap1\n      pop\n      jump\t// out\n        /* \"#utility.yul\":1808:1904   */\n    tag_229:\n        /* \"#utility.yul\":1845:1852   */\n      0x00\n        /* \"#utility.yul\":1874:1898   */\n      tag_292\n        /* \"#utility.yul\":1892:1897   */\n      dup3\n        /* \"#utility.yul\":1874:1898   */\n      tag_228\n      jump\t// in\n    tag_292:\n        /* \"#utility.yul\":1863:1898   */\n      swap1\n      pop\n        /* \"#utility.yul\":1808:1904   */\n      swap2\n      swap1\n      pop\n      jump\t// out\n        /* \"#utility.yul\":1910:2032   */\n    tag_230:\n        /* \"#utility.yul\":1983:2007   */\n      tag_294\n        /* \"#utility.yul\":2001:2006   */\n      dup2\n        /* \"#utility.yul\":1983:2007   */\n      tag_229\n      jump\t// in\n    tag_294:\n        /* \"#utility.yul\":1976:1981   */\n      dup2\n        /* \"#utility.yul\":1973:2008   */\n      eq\n        /* \"#utility.yul\":1963:2026   */\n      tag_295\n      jumpi\n        /* \"#utility.yul\":2022:2023   */\n      0x00\n        /* \"#utility.yul\":2019:2020   */\n      dup1\n        /* \"#utility.yul\":2012:2024   */\n      revert\n        /* \"#utility.yul\":1963:2026   */\n    tag_295:\n        /* \"#utility.yul\":1910:2032   */\n      pop\n      jump\t// out\n        /* \"#utility.yul\":2038:2177   */\n    tag_231:\n        /* \"#utility.yul\":2084:2089   */\n      0x00\n        /* \"#utility.yul\":2122:2128   */\n      dup2\n        /* \"#utility.yul\":2109:2129   */\n      calldataload\n        /* \"#utility.yul\":2100:2129   */\n      swap1\n      pop\n        /* \"#utility.yul\":2138:2171   */\n      tag_297\n        /* \"#utility.yul\":2165:2170   */\n      dup2\n        /* \"#utility.yul\":2138:2171   */\n      tag_230\n      jump\t// in\n    tag_297:\n        /* \"#utility.yul\":2038:2177   */\n      swap3\n      swap2\n      pop\n      pop\n      jump\t// out\n        /* \"#utility.yul\":2183:2260   */\n    tag_232:\n        /* \"#utility.yul\":2220:2227   */\n      0x00\n        /* \"#utility.yul\":2249:2254   */\n      dup2\n        /* \"#utility.yul\":2238:2254   */\n      swap1\n      pop\n        /* \"#utility.yul\":2183:2260   */\n      swap2\n      swap1\n      pop\n      jump\t// out\n        /* \"#utility.yul\":2266:2388   */\n    tag_233:\n        /* \"#utility.yul\":2339:2363   */\n      tag_300\n        /* \"#utility.yul\":2357:2362   */\n      dup2\n        /* \"#utility.yul\":2339:2363   */\n      tag_232\n      jump\t// in\n    tag_300:\n        /* \"#utility.yul\":2332:2337   */\n      dup2\n        /* \"#utility.yul\":2329:2364   */\n      eq\n        /* \"#utility.yul\":2319:2382   */\n      tag_301\n      jumpi\n        /* \"#utility.yul\":2378:2379   */\n      0x00\n        /* \"#utility.yul\":2375:2376   */\n      dup1\n        /* \"#utility.yul\":2368:2380   */\n      revert\n        /* \"#utility.yul\":2319:2382   */\n    tag_301:\n        /* \"#utility.yul\":2266:2388   */\n      pop\n      jump\t// out\n        /* \"#utility.yul\":2394:2533   */\n    tag_234:\n        /* \"#utility.yul\":2440:2445   */\n      0x00\n        /* \"#utility.yul\":2478:2484   */\n      dup2\n        /* \"#utility.yul\":2465:2485   */\n      calldataload\n        /* \"#utility.yul\":2456:2485   */\n      swap1\n      pop\n        /* \"#utility.yul\":2494:2527   */\n      tag_303\n        /* \"#utility.yul\":2521:2526   */\n      dup2\n        /* \"#utility.yul\":2494:2527   */\n      tag_233\n      jump\t// in\n    tag_303:\n        /* \"#utility.yul\":2394:2533   */\n      swap3\n      swap2\n      pop\n      pop\n      jump\t// out\n        /* \"#utility.yul\":2539:3013   */\n    tag_34:\n        /* \"#utility.yul\":2607:2613   */\n      0x00\n        /* \"#utility.yul\":2615:2621   */\n      dup1\n        /* \"#utility.yul\":2664:2666   */\n      0x40\n        /* \"#utility.yul\":2652:2661   */\n      dup4\n        /* \"#utility.yul\":2643:2650   */\n      dup6\n        /* \"#utility.yul\":2639:2662   */\n      sub\n        /* \"#utility.yul\":2635:2667   */\n      slt\n        /* \"#utility.yul\":2632:2751   */\n      iszero\n      tag_305\n      jumpi\n        /* \"#utility.yul\":2670:2749   */\n      tag_306\n      tag_226\n      jump\t// in\n    tag_306:\n        /* \"#utility.yul\":2632:2751   */\n    tag_305:\n        /* \"#utility.yul\":2790:2791   */\n      0x00\n        /* \"#utility.yul\":2815:2868   */\n      tag_307\n        /* \"#utility.yul\":2860:2867   */\n      dup6\n        /* \"#utility.yul\":2851:2857   */\n      dup3\n        /* \"#utility.yul\":2840:2849   */\n      dup7\n        /* \"#utility.yul\":2836:2858   */\n      add\n        /* \"#utility.yul\":2815:2868   */\n      tag_231\n      jump\t// in\n    tag_307:\n        /* \"#utility.yul\":2805:2868   */\n      swap3\n      pop\n        /* \"#utility.yul\":2761:2878   */\n      pop\n        /* \"#utility.yul\":2917:2919   */\n      0x20\n        /* \"#utility.yul\":2943:2996   */\n      tag_308\n        /* \"#utility.yul\":2988:2995   */\n      dup6\n        /* \"#utility.yul\":2979:2985   */\n      dup3\n        /* \"#utility.yul\":2968:2977   */\n      dup7\n        /* \"#utility.yul\":2964:2986   */\n      add\n        /* \"#utility.yul\":2943:2996   */\n      tag_234\n      jump\t// in\n    tag_308:\n        /* \"#utility.yul\":2933:2996   */\n      swap2\n      pop\n        /* \"#utility.yul\":2888:3006   */\n      pop\n        /* \"#utility.yul\":2539:3013   */\n      swap3\n      pop\n      swap3\n      swap1\n      pop\n      jump\t// out\n        /* \"#utility.yul\":3019:3109   */\n    tag_235:\n        /* \"#utility.yul\":3053:3060   */\n      0x00\n        /* \"#utility.yul\":3096:3101   */\n      dup2\n        /* \"#utility.yul\":3089:3102   */\n      iszero\n        /* \"#utility.yul\":3082:3103   */\n      iszero\n        /* \"#utility.yul\":3071:3103   */\n      swap1\n      pop\n        /* \"#utility.yul\":3019:3109   */\n      swap2\n      swap1\n      pop\n      jump\t// out\n        /* \"#utility.yul\":3115:3224   */\n    tag_236:\n        /* \"#utility.yul\":3196:3217   */\n      tag_311\n        /* \"#utility.yul\":3211:3216   */\n      dup2\n        /* \"#utility.yul\":3196:3217   */\n      tag_235\n      jump\t// in\n    tag_311:\n        /* \"#utility.yul\":3191:3194   */\n      dup3\n        /* \"#utility.yul\":3184:3218   */\n      mstore\n        /* \"#utility.yul\":3115:3224   */\n      pop\n      pop\n      jump\t// out\n        /* \"#utility.yul\":3230:3440   */\n    tag_37:\n        /* \"#utility.yul\":3317:3321   */\n      0x00\n        /* \"#utility.yul\":3355:3357   */\n      0x20\n        /* \"#utility.yul\":3344:3353   */\n      dup3\n        /* \"#utility.yul\":3340:3358   */\n      add\n        /* \"#utility.yul\":3332:3358   */\n      swap1\n      pop\n        /* \"#utility.yul\":3368:3433   */\n      tag_313\n        /* \"#utility.yul\":3430:3431   */\n      0x00\n        /* \"#utility.yul\":3419:3428   */\n      dup4\n        /* \"#utility.yul\":3415:3432   */\n      add\n        /* \"#utility.yul\":3406:3412   */\n      dup5\n        /* \"#utility.yul\":3368:3433   */\n      tag_236\n      jump\t// in\n    tag_313:\n        /* \"#utility.yul\":3230:3440   */\n      swap3\n      swap2\n      pop\n      pop\n      jump\t// out\n        /* \"#utility.yul\":3446:3564   */\n    tag_237:\n        /* \"#utility.yul\":3533:3557   */\n      tag_315\n        /* \"#utility.yul\":3551:3556   */\n      dup2\n        /* \"#utility.yul\":3533:3557   */\n      tag_232\n      jump\t// in\n    tag_315:\n        /* \"#utility.yul\":3528:3531   */\n      dup3\n        /* \"#utility.yul\":3521:3558   */\n      mstore\n        /* \"#utility.yul\":3446:3564   */\n      pop\n      pop\n      jump\t// out\n        /* \"#utility.yul\":3570:3792   */\n    tag_42:\n        /* \"#utility.yul\":3663:3667   */\n      0x00\n        /* \"#utility.yul\":3701:3703   */\n      0x20\n        /* \"#utility.yul\":3690:3699   */\n      dup3\n        /* \"#utility.yul\":3686:3704   */\n      add\n        /* \"#utility.yul\":3678:3704   */\n      swap1\n      pop\n        /* \"#utility.yul\":3714:3785   */\n      tag_317\n        /* \"#utility.yul\":3782:3783   */\n      0x00\n        /* \"#utility.yul\":3771:3780   */\n      dup4\n        /* \"#utility.yul\":3767:3784   */\n      add\n        /* \"#utility.yul\":3758:3764   */\n      dup5\n        /* \"#utility.yul\":3714:3785   */\n      tag_237\n      jump\t// in\n    tag_317:\n        /* \"#utility.yul\":3570:3792   */\n      swap3\n      swap2\n      pop\n      pop\n      jump\t// out\n        /* \"#utility.yul\":3798:4417   */\n    tag_46:\n        /* \"#utility.yul\":3875:3881   */\n      0x00\n        /* \"#utility.yul\":3883:3889   */\n      dup1\n        /* \"#utility.yul\":3891:3897   */\n      0x00\n        /* \"#utility.yul\":3940:3942   */\n      0x60\n        /* \"#utility.yul\":3928:3937   */\n      dup5\n        /* \"#utility.yul\":3919:3926   */\n      dup7\n        /* \"#utility.yul\":3915:3938   */\n      sub\n        /* \"#utility.yul\":3911:3943   */\n      slt\n        /* \"#utility.yul\":3908:4027   */\n      iszero\n      tag_319\n      jumpi\n        /* \"#utility.yul\":3946:4025   */\n      tag_320\n      tag_226\n      jump\t// in\n    tag_320:\n        /* \"#utility.yul\":3908:4027   */\n    tag_319:\n        /* \"#utility.yul\":4066:4067   */\n      0x00\n        /* \"#utility.yul\":4091:4144   */\n      tag_321\n        /* \"#utility.yul\":4136:4143   */\n      dup7\n        /* \"#utility.yul\":4127:4133   */\n      dup3\n        /* \"#utility.yul\":4116:4125   */\n      dup8\n        /* \"#utility.yul\":4112:4134   */\n      add\n        /* \"#utility.yul\":4091:4144   */\n      tag_231\n      jump\t// in\n    tag_321:\n        /* \"#utility.yul\":4081:4144   */\n      swap4\n      pop\n        /* \"#utility.yul\":4037:4154   */\n      pop\n        /* \"#utility.yul\":4193:4195   */\n      0x20\n        /* \"#utility.yul\":4219:4272   */\n      tag_322\n        /* \"#utility.yul\":4264:4271   */\n      dup7\n        /* \"#utility.yul\":4255:4261   */\n      dup3\n        /* \"#utility.yul\":4244:4253   */\n      dup8\n        /* \"#utility.yul\":4240:4262   */\n      add\n        /* \"#utility.yul\":4219:4272   */\n      tag_231\n      jump\t// in\n    tag_322:\n        /* \"#utility.yul\":4209:4272   */\n      swap3\n      pop\n        /* \"#utility.yul\":4164:4282   */\n      pop\n        /* \"#utility.yul\":4321:4323   */\n      0x40\n        /* \"#utility.yul\":4347:4400   */\n      tag_323\n        /* \"#utility.yul\":4392:4399   */\n      dup7\n        /* \"#utility.yul\":4383:4389   */\n      dup3\n        /* \"#utility.yul\":4372:4381   */\n      dup8\n        /* \"#utility.yul\":4368:4390   */\n      add\n        /* \"#utility.yul\":4347:4400   */\n      tag_234\n      jump\t// in\n    tag_323:\n        /* \"#utility.yul\":4337:4400   */\n      swap2\n      pop\n        /* \"#utility.yul\":4292:4410   */\n      pop\n        /* \"#utility.yul\":3798:4417   */\n      swap3\n      pop\n      swap3\n      pop\n      swap3\n      jump\t// out\n        /* \"#utility.yul\":4423:4509   */\n    tag_238:\n        /* \"#utility.yul\":4458:4465   */\n      0x00\n        /* \"#utility.yul\":4498:4502   */\n      0xff\n        /* \"#utility.yul\":4491:4496   */\n      dup3\n        /* \"#utility.yul\":4487:4503   */\n      and\n        /* \"#utility.yul\":4476:4503   */\n      swap1\n      pop\n        /* \"#utility.yul\":4423:4509   */\n      swap2\n      swap1\n      pop\n      jump\t// out\n        /* \"#utility.yul\":4515:4627   */\n    tag_239:\n        /* \"#utility.yul\":4598:4620   */\n      tag_326\n        /* \"#utility.yul\":4614:4619   */\n      dup2\n        /* \"#utility.yul\":4598:4620   */\n      tag_238\n      jump\t// in\n    tag_326:\n        /* \"#utility.yul\":4593:4596   */\n      dup3\n        /* \"#utility.yul\":4586:4621   */\n      mstore\n        /* \"#utility.yul\":4515:4627   */\n      pop\n      pop\n      jump\t// out\n        /* \"#utility.yul\":4633:4847   */\n    tag_53:\n        /* \"#utility.yul\":4722:4726   */\n      0x00\n        /* \"#utility.yul\":4760:4762   */\n      0x20\n        /* \"#utility.yul\":4749:4758   */\n      dup3\n        /* \"#utility.yul\":4745:4763   */\n      add\n        /* \"#utility.yul\":4737:4763   */\n      swap1\n      pop\n        /* \"#utility.yul\":4773:4840   */\n      tag_328\n        /* \"#utility.yul\":4837:4838   */\n      0x00\n        /* \"#utility.yul\":4826:4835   */\n      dup4\n        /* \"#utility.yul\":4822:4839   */\n      add\n        /* \"#utility.yul\":4813:4819   */\n      dup5\n        /* \"#utility.yul\":4773:4840   */\n      tag_239\n      jump\t// in\n    tag_328:\n        /* \"#utility.yul\":4633:4847   */\n      swap3\n      swap2\n      pop\n      pop\n      jump\t// out\n        /* \"#utility.yul\":4853:5182   */\n    tag_65:\n        /* \"#utility.yul\":4912:4918   */\n      0x00\n        /* \"#utility.yul\":4961:4963   */\n      0x20\n        /* \"#utility.yul\":4949:4958   */\n      dup3\n        /* \"#utility.yul\":4940:4947   */\n      dup5\n        /* \"#utility.yul\":4936:4959   */\n      sub\n        /* \"#utility.yul\":4932:4964   */\n      slt\n        /* \"#utility.yul\":4929:5048   */\n      iszero\n      tag_330\n      jumpi\n        /* \"#utility.yul\":4967:5046   */\n      tag_331\n      tag_226\n      jump\t// in\n    tag_331:\n        /* \"#utility.yul\":4929:5048   */\n    tag_330:\n        /* \"#utility.yul\":5087:5088   */\n      0x00\n        /* \"#utility.yul\":5112:5165   */\n      tag_332\n        /* \"#utility.yul\":5157:5164   */\n      dup5\n        /* \"#utility.yul\":5148:5154   */\n      dup3\n        /* \"#utility.yul\":5137:5146   */\n      dup6\n        /* \"#utility.yul\":5133:5155   */\n      add\n        /* \"#utility.yul\":5112:5165   */\n      tag_231\n      jump\t// in\n    tag_332:\n        /* \"#utility.yul\":5102:5165   */\n      swap2\n      pop\n        /* \"#utility.yul\":5058:5175   */\n      pop\n        /* \"#utility.yul\":4853:5182   */\n      swap3\n      swap2\n      pop\n      pop\n      jump\t// out\n        /* \"#utility.yul\":5188:5297   */\n    tag_240:\n        /* \"#utility.yul\":5238:5245   */\n      0x00\n        /* \"#utility.yul\":5267:5291   */\n      tag_334\n        /* \"#utility.yul\":5285:5290   */\n      dup3\n        /* \"#utility.yul\":5267:5291   */\n      tag_229\n      jump\t// in\n    tag_334:\n        /* \"#utility.yul\":5256:5291   */\n      swap1\n      pop\n        /* \"#utility.yul\":5188:5297   */\n      swap2\n      swap1\n      pop\n      jump\t// out\n        /* \"#utility.yul\":5303:5451   */\n    tag_241:\n        /* \"#utility.yul\":5389:5426   */\n      tag_336\n        /* \"#utility.yul\":5420:5425   */\n      dup2\n        /* \"#utility.yul\":5389:5426   */\n      tag_240\n      jump\t// in\n    tag_336:\n        /* \"#utility.yul\":5382:5387   */\n      dup2\n        /* \"#utility.yul\":5379:5427   */\n      eq\n        /* \"#utility.yul\":5369:5445   */\n      tag_337\n      jumpi\n        /* \"#utility.yul\":5441:5442   */\n      0x00\n        /* \"#utility.yul\":5438:5439   */\n      dup1\n        /* \"#utility.yul\":5431:5443   */\n      revert\n        /* \"#utility.yul\":5369:5445   */\n    tag_337:\n        /* \"#utility.yul\":5303:5451   */\n      pop\n      jump\t// out\n        /* \"#utility.yul\":5457:5622   */\n    tag_242:\n        /* \"#utility.yul\":5516:5521   */\n      0x00\n        /* \"#utility.yul\":5554:5560   */\n      dup2\n        /* \"#utility.yul\":5541:5561   */\n      calldataload\n        /* \"#utility.yul\":5532:5561   */\n      swap1\n      pop\n        /* \"#utility.yul\":5570:5616   */\n      tag_339\n        /* \"#utility.yul\":5610:5615   */\n      dup2\n        /* \"#utility.yul\":5570:5616   */\n      tag_241\n      jump\t// in\n    tag_339:\n        /* \"#utility.yul\":5457:5622   */\n      swap3\n      swap2\n      pop\n      pop\n      jump\t// out\n        /* \"#utility.yul\":5628:5983   */\n    tag_78:\n        /* \"#utility.yul\":5700:5706   */\n      0x00\n        /* \"#utility.yul\":5749:5751   */\n      0x20\n        /* \"#utility.yul\":5737:5746   */\n      dup3\n        /* \"#utility.yul\":5728:5735   */\n      dup5\n        /* \"#utility.yul\":5724:5747   */\n      sub\n        /* \"#utility.yul\":5720:5752   */\n      slt\n        /* \"#utility.yul\":5717:5836   */\n      iszero\n      tag_341\n      jumpi\n        /* \"#utility.yul\":5755:5834   */\n      tag_342\n      tag_226\n      jump\t// in\n    tag_342:\n        /* \"#utility.yul\":5717:5836   */\n    tag_341:\n        /* \"#utility.yul\":5875:5876   */\n      0x00\n        /* \"#utility.yul\":5900:5966   */\n      tag_343\n        /* \"#utility.yul\":5958:5965   */\n      dup5\n        /* \"#utility.yul\":5949:5955   */\n      dup3\n        /* \"#utility.yul\":5938:5947   */\n      dup6\n        /* \"#utility.yul\":5934:5956   */\n      add\n        /* \"#utility.yul\":5900:5966   */\n      tag_242\n      jump\t// in\n    tag_343:\n        /* \"#utility.yul\":5890:5966   */\n      swap2\n      pop\n        /* \"#utility.yul\":5846:5976   */\n      pop\n        /* \"#utility.yul\":5628:5983   */\n      swap3\n      swap2\n      pop\n      pop\n      jump\t// out\n        /* \"#utility.yul\":5989:6463   */\n    tag_97:\n        /* \"#utility.yul\":6057:6063   */\n      0x00\n        /* \"#utility.yul\":6065:6071   */\n      dup1\n        /* \"#utility.yul\":6114:6116   */\n      0x40\n        /* \"#utility.yul\":6102:6111   */\n      dup4\n        /* \"#utility.yul\":6093:6100   */\n      dup6\n        /* \"#utility.yul\":6089:6112   */\n      sub\n        /* \"#utility.yul\":6085:6117   */\n      slt\n        /* \"#utility.yul\":6082:6201   */\n      iszero\n      tag_345\n      jumpi\n        /* \"#utility.yul\":6120:6199   */\n      tag_346\n      tag_226\n      jump\t// in\n    tag_346:\n        /* \"#utility.yul\":6082:6201   */\n    tag_345:\n        /* \"#utility.yul\":6240:6241   */\n      0x00\n        /* \"#utility.yul\":6265:6318   */\n      tag_347\n        /* \"#utility.yul\":6310:6317   */\n      dup6\n        /* \"#utility.yul\":6301:6307   */\n      dup3\n        /* \"#utility.yul\":6290:6299   */\n      dup7\n        /* \"#utility.yul\":6286:6308   */\n      add\n        /* \"#utility.yul\":6265:6318   */\n      tag_231\n      jump\t// in\n    tag_347:\n        /* \"#utility.yul\":6255:6318   */\n      swap3\n      pop\n        /* \"#utility.yul\":6211:6328   */\n      pop\n        /* \"#utility.yul\":6367:6369   */\n      0x20\n        /* \"#utility.yul\":6393:6446   */\n      tag_348\n        /* \"#utility.yul\":6438:6445   */\n      dup6\n        /* \"#utility.yul\":6429:6435   */\n      dup3\n        /* \"#utility.yul\":6418:6427   */\n      dup7\n        /* \"#utility.yul\":6414:6436   */\n      add\n        /* \"#utility.yul\":6393:6446   */\n      tag_231\n      jump\t// in\n    tag_348:\n        /* \"#utility.yul\":6383:6446   */\n      swap2\n      pop\n        /* \"#utility.yul\":6338:6456   */\n      pop\n        /* \"#utility.yul\":5989:6463   */\n      swap3\n      pop\n      swap3\n      swap1\n      pop\n      jump\t// out\n        /* \"#utility.yul\":6469:6573   */\n    tag_243:\n        /* \"#utility.yul\":6514:6521   */\n      0x00\n        /* \"#utility.yul\":6543:6567   */\n      tag_350\n        /* \"#utility.yul\":6561:6566   */\n      dup3\n        /* \"#utility.yul\":6543:6567   */\n      tag_228\n      jump\t// in\n    tag_350:\n        /* \"#utility.yul\":6532:6567   */\n      swap1\n      pop\n        /* \"#utility.yul\":6469:6573   */\n      swap2\n      swap1\n      pop\n      jump\t// out\n        /* \"#utility.yul\":6579:6721   */\n    tag_244:\n        /* \"#utility.yul\":6682:6714   */\n      tag_352\n        /* \"#utility.yul\":6708:6713   */\n      dup2\n        /* \"#utility.yul\":6682:6714   */\n      tag_243\n      jump\t// in\n    tag_352:\n        /* \"#utility.yul\":6677:6680   */\n      dup3\n        /* \"#utility.yul\":6670:6715   */\n      mstore\n        /* \"#utility.yul\":6579:6721   */\n      pop\n      pop\n      jump\t// out\n        /* \"#utility.yul\":6727:6981   */\n    tag_104:\n        /* \"#utility.yul\":6836:6840   */\n      0x00\n        /* \"#utility.yul\":6874:6876   */\n      0x20\n        /* \"#utility.yul\":6863:6872   */\n      dup3\n        /* \"#utility.yul\":6859:6877   */\n      add\n        /* \"#utility.yul\":6851:6877   */\n      swap1\n      pop\n        /* \"#utility.yul\":6887:6974   */\n      tag_354\n        /* \"#utility.yul\":6971:6972   */\n      0x00\n        /* \"#utility.yul\":6960:6969   */\n      dup4\n        /* \"#utility.yul\":6956:6973   */\n      add\n        /* \"#utility.yul\":6947:6953   */\n      dup5\n        /* \"#utility.yul\":6887:6974   */\n      tag_244\n      jump\t// in\n    tag_354:\n        /* \"#utility.yul\":6727:6981   */\n      swap3\n      swap2\n      pop\n      pop\n      jump\t// out\n        /* \"#utility.yul\":6987:7167   */\n    tag_245:\n        /* \"#utility.yul\":7035:7112   */\n      0x4e487b7100000000000000000000000000000000000000000000000000000000\n        /* \"#utility.yul\":7032:7033   */\n      0x00\n        /* \"#utility.yul\":7025:7113   */\n      mstore\n        /* \"#utility.yul\":7132:7136   */\n      0x22\n        /* \"#utility.yul\":7129:7130   */\n      0x04\n        /* \"#utility.yul\":7122:7137   */\n      mstore\n        /* \"#utility.yul\":7156:7160   */\n      0x24\n        /* \"#utility.yul\":7153:7154   */\n      0x00\n        /* \"#utility.yul\":7146:7161   */\n      revert\n        /* \"#utility.yul\":7173:7493   */\n    tag_107:\n        /* \"#utility.yul\":7217:7223   */\n      0x00\n        /* \"#utility.yul\":7254:7255   */\n      0x02\n        /* \"#utility.yul\":7248:7252   */\n      dup3\n        /* \"#utility.yul\":7244:7256   */\n      div\n        /* \"#utility.yul\":7234:7256   */\n      swap1\n      pop\n        /* \"#utility.yul\":7301:7302   */\n      0x01\n        /* \"#utility.yul\":7295:7299   */\n      dup3\n        /* \"#utility.yul\":7291:7303   */\n      and\n        /* \"#utility.yul\":7322:7340   */\n      dup1\n        /* \"#utility.yul\":7312:7393   */\n      tag_357\n      jumpi\n        /* \"#utility.yul\":7378:7382   */\n      0x7f\n        /* \"#utility.yul\":7370:7376   */\n      dup3\n        /* \"#utility.yul\":7366:7383   */\n      and\n        /* \"#utility.yul\":7356:7383   */\n      swap2\n      pop\n        /* \"#utility.yul\":7312:7393   */\n    tag_357:\n        /* \"#utility.yul\":7440:7442   */\n      0x20\n        /* \"#utility.yul\":7432:7438   */\n      dup3\n        /* \"#utility.yul\":7429:7443   */\n      lt\n        /* \"#utility.yul\":7409:7427   */\n      dup2\n        /* \"#utility.yul\":7406:7444   */\n      sub\n        /* \"#utility.yul\":7403:7487   */\n      tag_358\n      jumpi\n        /* \"#utility.yul\":7459:7477   */\n      tag_359\n      tag_245\n      jump\t// in\n    tag_359:\n        /* \"#utility.yul\":7403:7487   */\n    tag_358:\n        /* \"#utility.yul\":7224:7493   */\n      pop\n        /* \"#utility.yul\":7173:7493   */\n      swap2\n      swap1\n      pop\n      jump\t// out\n        /* \"#utility.yul\":7499:7679   */\n    tag_246:\n        /* \"#utility.yul\":7547:7624   */\n      0x4e487b7100000000000000000000000000000000000000000000000000000000\n        /* \"#utility.yul\":7544:7545   */\n      0x00\n        /* \"#utility.yul\":7537:7625   */\n      mstore\n        /* \"#utility.yul\":7644:7648   */\n      0x11\n        /* \"#utility.yul\":7641:7642   */\n      0x04\n        /* \"#utility.yul\":7634:7649   */\n      mstore\n        /* \"#utility.yul\":7668:7672   */\n      0x24\n        /* \"#utility.yul\":7665:7666   */\n      0x00\n        /* \"#utility.yul\":7658:7673   */\n      revert\n        /* \"#utility.yul\":7685:7876   */\n    tag_125:\n        /* \"#utility.yul\":7725:7728   */\n      0x00\n        /* \"#utility.yul\":7744:7764   */\n      tag_362\n        /* \"#utility.yul\":7762:7763   */\n      dup3\n        /* \"#utility.yul\":7744:7764   */\n      tag_232\n      jump\t// in\n    tag_362:\n        /* \"#utility.yul\":7739:7764   */\n      swap2\n      pop\n        /* \"#utility.yul\":7778:7798   */\n      tag_363\n        /* \"#utility.yul\":7796:7797   */\n      dup4\n        /* \"#utility.yul\":7778:7798   */\n      tag_232\n      jump\t// in\n    tag_363:\n        /* \"#utility.yul\":7773:7798   */\n      swap3\n      pop\n        /* \"#utility.yul\":7821:7822   */\n      dup3\n        /* \"#utility.yul\":7818:7819   */\n      dup3\n        /* \"#utility.yul\":7814:7823   */\n      add\n        /* \"#utility.yul\":7807:7823   */\n      swap1\n      pop\n        /* \"#utility.yul\":7842:7845   */\n      dup1\n        /* \"#utility.yul\":7839:7840   */\n      dup3\n        /* \"#utility.yul\":7836:7846   */\n      gt\n        /* \"#utility.yul\":7833:7869   */\n      iszero\n      tag_364\n      jumpi\n        /* \"#utility.yul\":7849:7867   */\n      tag_365\n      tag_246\n      jump\t// in\n    tag_365:\n        /* \"#utility.yul\":7833:7869   */\n    tag_364:\n        /* \"#utility.yul\":7685:7876   */\n      swap3\n      swap2\n      pop\n      pop\n      jump\t// out\n        /* \"#utility.yul\":7882:8040   */\n    tag_247:\n        /* \"#utility.yul\":8022:8032   */\n      0x6e6f2061646d696e000000000000000000000000000000000000000000000000\n        /* \"#utility.yul\":8018:8019   */\n      0x00\n        /* \"#utility.yul\":8010:8016   */\n      dup3\n        /* \"#utility.yul\":8006:8020   */\n      add\n        /* \"#utility.yul\":7999:8033   */\n      mstore\n        /* \"#utility.yul\":7882:8040   */\n      pop\n      jump\t// out\n        /* \"#utility.yul\":8046:8411   */\n    tag_248:\n        /* \"#utility.yul\":8188:8191   */\n      0x00\n        /* \"#utility.yul\":8209:8275   */\n      tag_368\n        /* \"#utility.yul\":8273:8274   */\n      0x08\n        /* \"#utility.yul\":8268:8271   */\n      dup4\n        /* \"#utility.yul\":8209:8275   */\n      tag_221\n      jump\t// in\n    tag_368:\n        /* \"#utility.yul\":8202:8275   */\n      swap2\n      pop\n        /* \"#utility.yul\":8284:8377   */\n      tag_369\n        /* \"#utility.yul\":8373:8376   */\n      dup3\n        /* \"#utility.yul\":8284:8377   */\n      tag_247\n      jump\t// in\n    tag_369:\n        /* \"#utility.yul\":8402:8404   */\n      0x20\n        /* \"#utility.yul\":8397:8400   */\n      dup3\n        /* \"#utility.yul\":8393:8405   */\n      add\n        /* \"#utility.yul\":8386:8405   */\n      swap1\n      pop\n        /* \"#utility.yul\":8046:8411   */\n      swap2\n      swap1\n      pop\n      jump\t// out\n        /* \"#utility.yul\":8417:8836   */\n    tag_129:\n        /* \"#utility.yul\":8583:8587   */\n      0x00\n        /* \"#utility.yul\":8621:8623   */\n      0x20\n        /* \"#utility.yul\":8610:8619   */\n      dup3\n        /* \"#utility.yul\":8606:8624   */\n      add\n        /* \"#utility.yul\":8598:8624   */\n      swap1\n      pop\n        /* \"#utility.yul\":8670:8679   */\n      dup2\n        /* \"#utility.yul\":8664:8668   */\n      dup2\n        /* \"#utility.yul\":8660:8680   */\n      sub\n        /* \"#utility.yul\":8656:8657   */\n      0x00\n        /* \"#utility.yul\":8645:8654   */\n      dup4\n        /* \"#utility.yul\":8641:8658   */\n      add\n        /* \"#utility.yul\":8634:8681   */\n      mstore\n        /* \"#utility.yul\":8698:8829   */\n      tag_371\n        /* \"#utility.yul\":8824:8828   */\n      dup2\n        /* \"#utility.yul\":8698:8829   */\n      tag_248\n      jump\t// in\n    tag_371:\n        /* \"#utility.yul\":8690:8829   */\n      swap1\n      pop\n        /* \"#utility.yul\":8417:8836   */\n      swap2\n      swap1\n      pop\n      jump\t// out\n        /* \"#utility.yul\":8842:8944   */\n    tag_249:\n        /* \"#utility.yul\":8884:8892   */\n      0x00\n        /* \"#utility.yul\":8931:8936   */\n      dup2\n        /* \"#utility.yul\":8928:8929   */\n      0x01\n        /* \"#utility.yul\":8924:8937   */\n      shr\n        /* \"#utility.yul\":8903:8937   */\n      swap1\n      pop\n        /* \"#utility.yul\":8842:8944   */\n      swap2\n      swap1\n      pop\n      jump\t// out\n        /* \"#utility.yul\":8950:9798   */\n    tag_250:\n        /* \"#utility.yul\":9011:9016   */\n      0x00\n        /* \"#utility.yul\":9018:9022   */\n      dup1\n        /* \"#utility.yul\":9042:9048   */\n      dup3\n        /* \"#utility.yul\":9033:9048   */\n      swap2\n      pop\n        /* \"#utility.yul\":9066:9071   */\n      dup4\n        /* \"#utility.yul\":9057:9071   */\n      swap1\n      pop\n        /* \"#utility.yul\":9080:9792   */\n    tag_374:\n        /* \"#utility.yul\":9101:9102   */\n      0x01\n        /* \"#utility.yul\":9091:9099   */\n      dup6\n        /* \"#utility.yul\":9088:9103   */\n      gt\n        /* \"#utility.yul\":9080:9792   */\n      iszero\n      tag_376\n      jumpi\n        /* \"#utility.yul\":9196:9200   */\n      dup1\n        /* \"#utility.yul\":9191:9194   */\n      dup7\n        /* \"#utility.yul\":9187:9201   */\n      div\n        /* \"#utility.yul\":9181:9185   */\n      dup2\n        /* \"#utility.yul\":9178:9202   */\n      gt\n        /* \"#utility.yul\":9175:9225   */\n      iszero\n      tag_377\n      jumpi\n        /* \"#utility.yul\":9205:9223   */\n      tag_378\n      tag_246\n      jump\t// in\n    tag_378:\n        /* \"#utility.yul\":9175:9225   */\n    tag_377:\n        /* \"#utility.yul\":9255:9256   */\n      0x01\n        /* \"#utility.yul\":9245:9253   */\n      dup6\n        /* \"#utility.yul\":9241:9257   */\n      and\n        /* \"#utility.yul\":9238:9689   */\n      iszero\n      tag_379\n      jumpi\n        /* \"#utility.yul\":9670:9674   */\n      dup1\n        /* \"#utility.yul\":9663:9668   */\n      dup3\n        /* \"#utility.yul\":9659:9675   */\n      mul\n        /* \"#utility.yul\":9650:9675   */\n      swap2\n      pop\n        /* \"#utility.yul\":9238:9689   */\n    tag_379:\n        /* \"#utility.yul\":9720:9724   */\n      dup1\n        /* \"#utility.yul\":9714:9718   */\n      dup2\n        /* \"#utility.yul\":9710:9725   */\n      mul\n        /* \"#utility.yul\":9702:9725   */\n      swap1\n      pop\n        /* \"#utility.yul\":9750:9782   */\n      tag_380\n        /* \"#utility.yul\":9773:9781   */\n      dup6\n        /* \"#utility.yul\":9750:9782   */\n      tag_249\n      jump\t// in\n    tag_380:\n        /* \"#utility.yul\":9738:9782   */\n      swap5\n      pop\n        /* \"#utility.yul\":9080:9792   */\n      jump(tag_374)\n    tag_376:\n        /* \"#utility.yul\":8950:9798   */\n      swap5\n      pop\n      swap5\n      swap3\n      pop\n      pop\n      pop\n      jump\t// out\n        /* \"#utility.yul\":9804:10877   */\n    tag_251:\n        /* \"#utility.yul\":9858:9863   */\n      0x00\n        /* \"#utility.yul\":10049:10057   */\n      dup3\n        /* \"#utility.yul\":10039:10079   */\n      tag_382\n      jumpi\n        /* \"#utility.yul\":10070:10071   */\n      0x01\n        /* \"#utility.yul\":10061:10071   */\n      swap1\n      pop\n        /* \"#utility.yul\":10072:10077   */\n      jump(tag_381)\n        /* \"#utility.yul\":10039:10079   */\n    tag_382:\n        /* \"#utility.yul\":10098:10102   */\n      dup2\n        /* \"#utility.yul\":10088:10124   */\n      tag_383\n      jumpi\n        /* \"#utility.yul\":10115:10116   */\n      0x00\n        /* \"#utility.yul\":10106:10116   */\n      swap1\n      pop\n        /* \"#utility.yul\":10117:10122   */\n      jump(tag_381)\n        /* \"#utility.yul\":10088:10124   */\n    tag_383:\n        /* \"#utility.yul\":10184:10188   */\n      dup2\n        /* \"#utility.yul\":10232:10233   */\n      0x01\n        /* \"#utility.yul\":10227:10254   */\n      dup2\n      eq\n      tag_385\n      jumpi\n        /* \"#utility.yul\":10268:10269   */\n      0x02\n        /* \"#utility.yul\":10263:10454   */\n      dup2\n      eq\n      tag_386\n      jumpi\n        /* \"#utility.yul\":10177:10454   */\n      jump(tag_384)\n        /* \"#utility.yul\":10227:10254   */\n    tag_385:\n        /* \"#utility.yul\":10245:10246   */\n      0x01\n        /* \"#utility.yul\":10236:10246   */\n      swap2\n      pop\n        /* \"#utility.yul\":10247:10252   */\n      pop\n      jump(tag_381)\n        /* \"#utility.yul\":10263:10454   */\n    tag_386:\n        /* \"#utility.yul\":10308:10311   */\n      0xff\n        /* \"#utility.yul\":10298:10306   */\n      dup5\n        /* \"#utility.yul\":10295:10312   */\n      gt\n        /* \"#utility.yul\":10292:10335   */\n      iszero\n      tag_387\n      jumpi\n        /* \"#utility.yul\":10315:10333   */\n      tag_388\n      tag_246\n      jump\t// in\n    tag_388:\n        /* \"#utility.yul\":10292:10335   */\n    tag_387:\n        /* \"#utility.yul\":10364:10372   */\n      dup4\n        /* \"#utility.yul\":10361:10362   */\n      0x02\n        /* \"#utility.yul\":10357:10373   */\n      exp\n        /* \"#utility.yul\":10348:10373   */\n      swap2\n      pop\n        /* \"#utility.yul\":10399:10402   */\n      dup5\n        /* \"#utility.yul\":10392:10397   */\n      dup3\n        /* \"#utility.yul\":10389:10403   */\n      gt\n        /* \"#utility.yul\":10386:10426   */\n      iszero\n      tag_389\n      jumpi\n        /* \"#utility.yul\":10406:10424   */\n      tag_390\n      tag_246\n      jump\t// in\n    tag_390:\n        /* \"#utility.yul\":10386:10426   */\n    tag_389:\n        /* \"#utility.yul\":10439:10444   */\n      pop\n      jump(tag_381)\n        /* \"#utility.yul\":10177:10454   */\n    tag_384:\n      pop\n        /* \"#utility.yul\":10563:10565   */\n      0x20\n        /* \"#utility.yul\":10553:10561   */\n      dup4\n        /* \"#utility.yul\":10550:10566   */\n      lt\n        /* \"#utility.yul\":10544:10547   */\n      0x0133\n        /* \"#utility.yul\":10538:10542   */\n      dup4\n        /* \"#utility.yul\":10535:10548   */\n      lt\n        /* \"#utility.yul\":10531:10567   */\n      and\n        /* \"#utility.yul\":10513:10515   */\n      0x4e\n        /* \"#utility.yul\":10503:10511   */\n      dup5\n        /* \"#utility.yul\":10500:10516   */\n      lt\n        /* \"#utility.yul\":10495:10497   */\n      0x0b\n        /* \"#utility.yul\":10489:10493   */\n      dup5\n        /* \"#utility.yul\":10486:10498   */\n      lt\n        /* \"#utility.yul\":10482:10517   */\n      and\n        /* \"#utility.yul\":10466:10577   */\n      or\n        /* \"#utility.yul\":10463:10709   */\n      iszero\n      tag_391\n      jumpi\n        /* \"#utility.yul\":10619:10627   */\n      dup3\n        /* \"#utility.yul\":10613:10617   */\n      dup3\n        /* \"#utility.yul\":10609:10628   */\n      exp\n        /* \"#utility.yul\":10600:10628   */\n      swap1\n      pop\n        /* \"#utility.yul\":10654:10657   */\n      dup4\n        /* \"#utility.yul\":10647:10652   */\n      dup2\n        /* \"#utility.yul\":10644:10658   */\n      gt\n        /* \"#utility.yul\":10641:10681   */\n      iszero\n      tag_392\n      jumpi\n        /* \"#utility.yul\":10661:10679   */\n      tag_393\n      tag_246\n      jump\t// in\n    tag_393:\n        /* \"#utility.yul\":10641:10681   */\n    tag_392:\n        /* \"#utility.yul\":10694:10699   */\n      jump(tag_381)\n        /* \"#utility.yul\":10463:10709   */\n    tag_391:\n        /* \"#utility.yul\":10734:10776   */\n      tag_394\n        /* \"#utility.yul\":10772:10775   */\n      dup5\n        /* \"#utility.yul\":10762:10770   */\n      dup5\n        /* \"#utility.yul\":10756:10760   */\n      dup5\n        /* \"#utility.yul\":10753:10754   */\n      0x01\n        /* \"#utility.yul\":10734:10776   */\n      tag_250\n      jump\t// in\n    tag_394:\n        /* \"#utility.yul\":10719:10776   */\n      swap3\n      pop\n      swap1\n      pop\n        /* \"#utility.yul\":10808:10812   */\n      dup2\n        /* \"#utility.yul\":10803:10806   */\n      dup5\n        /* \"#utility.yul\":10799:10813   */\n      div\n        /* \"#utility.yul\":10792:10797   */\n      dup2\n        /* \"#utility.yul\":10789:10814   */\n      gt\n        /* \"#utility.yul\":10786:10837   */\n      iszero\n      tag_395\n      jumpi\n        /* \"#utility.yul\":10817:10835   */\n      tag_396\n      tag_246\n      jump\t// in\n    tag_396:\n        /* \"#utility.yul\":10786:10837   */\n    tag_395:\n        /* \"#utility.yul\":10866:10870   */\n      dup2\n        /* \"#utility.yul\":10859:10864   */\n      dup2\n        /* \"#utility.yul\":10855:10871   */\n      mul\n        /* \"#utility.yul\":10846:10871   */\n      swap1\n      pop\n        /* \"#utility.yul\":9804:10877   */\n    tag_381:\n      swap4\n      swap3\n      pop\n      pop\n      pop\n      jump\t// out\n        /* \"#utility.yul\":10883:11164   */\n    tag_143:\n        /* \"#utility.yul\":10941:10946   */\n      0x00\n        /* \"#utility.yul\":10965:10988   */\n      tag_398\n        /* \"#utility.yul\":10983:10987   */\n      dup3\n        /* \"#utility.yul\":10965:10988   */\n      tag_232\n      jump\t// in\n    tag_398:\n        /* \"#utility.yul\":10957:10988   */\n      swap2\n      pop\n        /* \"#utility.yul\":11009:11034   */\n      tag_399\n        /* \"#utility.yul\":11025:11033   */\n      dup4\n        /* \"#utility.yul\":11009:11034   */\n      tag_238\n      jump\t// in\n    tag_399:\n        /* \"#utility.yul\":10997:11034   */\n      swap3\n      pop\n        /* \"#utility.yul\":11053:11157   */\n      tag_400\n        /* \"#utility.yul\":11090:11156   */\n      0xffffffffffffffffffffffffffffffffffffffffffffffffffffffffffffffff\n        /* \"#utility.yul\":11080:11088   */\n      dup5\n        /* \"#utility.yul\":11074:11078   */\n      dup5\n        /* \"#utility.yul\":11053:11157   */\n      tag_251\n      jump\t// in\n    tag_400:\n        /* \"#utility.yul\":11044:11157   */\n      swap1\n      pop\n        /* \"#utility.yul\":10883:11164   */\n      swap3\n      swap2\n      pop\n      pop\n      jump\t// out\n        /* \"#utility.yul\":11170:11580   */\n    tag_145:\n        /* \"#utility.yul\":11210:11217   */\n      0x00\n        /* \"#utility.yul\":11233:11253   */\n      tag_402\n        /* \"#utility.yul\":11251:11252   */\n      dup3\n        /* \"#utility.yul\":11233:11253   */\n      tag_232\n      jump\t// in\n    tag_402:\n        /* \"#utility.yul\":11228:11253   */\n      swap2\n      pop\n        /* \"#utility.yul\":11267:11287   */\n      tag_403\n        /* \"#utility.yul\":11285:11286   */\n      dup4\n        /* \"#utility.yul\":11267:11287   */\n      tag_232\n      jump\t// in\n    tag_403:\n        /* \"#utility.yul\":11262:11287   */\n      swap3\n      pop\n        /* \"#utility.yul\":11322:11323   */\n      dup3\n        /* \"#utility.yul\":11319:11320   */\n      dup3\n        /* \"#utility.yul\":11315:11324   */\n      mul\n        /* \"#utility.yul\":11344:11374   */\n      tag_404\n        /* \"#utility.yul\":11362:11373   */\n      dup2\n        /* \"#utility.yul\":11344:11374   */\n      tag_232\n      jump\t// in\n    tag_404:\n        /* \"#utility.yul\":11333:11374   */\n      swap2\n      pop\n        /* \"#utility.yul\":11523:11524   */\n      dup3\n        /* \"#utility.yul\":11514:11521   */\n      dup3\n        /* \"#utility.yul\":11510:11525   */\n      div\n        /* \"#utility.yul\":11507:11508   */\n      dup5\n        /* \"#utility.yul\":11504:11526   */\n      eq\n        /* \"#utility.yul\":11484:11485   */\n      dup4\n        /* \"#utility.yul\":11477:11486   */\n      iszero\n        /* \"#utility.yul\":11457:11540   */\n      or\n        /* \"#utility.yul\":11434:11573   */\n      tag_405\n      jumpi\n        /* \"#utility.yul\":11553:11571   */\n      tag_406\n      tag_246\n      jump\t// in\n    tag_406:\n        /* \"#utility.yul\":11434:11573   */\n    tag_405:\n        /* \"#utility.yul\":11218:11580   */\n      pop\n        /* \"#utility.yul\":11170:11580   */\n      swap3\n      swap2\n      pop\n      pop\n      jump\t// out\n        /* \"#utility.yul\":11586:11704   */\n    tag_252:\n        /* \"#utility.yul\":11673:11697   */\n      tag_408\n        /* \"#utility.yul\":11691:11696   */\n      dup2\n        /* \"#utility.yul\":11673:11697   */\n      tag_229\n      jump\t// in\n    tag_408:\n        /* \"#utility.yul\":11668:11671   */\n      dup3\n        /* \"#utility.yul\":11661:11698   */\n      mstore\n        /* \"#utility.yul\":11586:11704   */\n      pop\n      pop\n      jump\t// out\n        /* \"#utility.yul\":11710:11932   */\n    tag_153:\n        /* \"#utility.yul\":11803:11807   */\n      0x00\n        /* \"#utility.yul\":11841:11843   */\n      0x20\n        /* \"#utility.yul\":11830:11839   */\n      dup3\n        /* \"#utility.yul\":11826:11844   */\n      add\n        /* \"#utility.yul\":11818:11844   */\n      swap1\n      pop\n        /* \"#utility.yul\":11854:11925   */\n      tag_410\n        /* \"#utility.yul\":11922:11923   */\n      0x00\n        /* \"#utility.yul\":11911:11920   */\n      dup4\n        /* \"#utility.yul\":11907:11924   */\n      add\n        /* \"#utility.yul\":11898:11904   */\n      dup5\n        /* \"#utility.yul\":11854:11925   */\n      tag_252\n      jump\t// in\n    tag_410:\n        /* \"#utility.yul\":11710:11932   */\n      swap3\n      swap2\n      pop\n      pop\n      jump\t// out\n        /* \"#utility.yul\":11938:12081   */\n    tag_253:\n        /* \"#utility.yul\":11995:12000   */\n      0x00\n        /* \"#utility.yul\":12026:12032   */\n      dup2\n        /* \"#utility.yul\":12020:12033   */\n      mload\n        /* \"#utility.yul\":12011:12033   */\n      swap1\n      pop\n        /* \"#utility.yul\":12042:12075   */\n      tag_412\n        /* \"#utility.yul\":12069:12074   */\n      dup2\n        /* \"#utility.yul\":12042:12075   */\n      tag_233\n      jump\t// in\n    tag_412:\n        /* \"#utility.yul\":11938:12081   */\n      swap3\n      swap2\n      pop\n      pop\n      jump\t// out\n        /* \"#utility.yul\":12087:12438   */\n    tag_157:\n        /* \"#utility.yul\":12157:12163   */\n      0x00\n        /* \"#utility.yul\":12206:12208   */\n      0x20\n        /* \"#utility.yul\":12194:12203   */\n      dup3\n        /* \"#utility.yul\":12185:12192   */\n      dup5\n        /* \"#utility.yul\":12181:12204   */\n      sub\n        /* \"#utility.yul\":12177:12209   */\n      slt\n        /* \"#utility.yul\":12174:12293   */\n      iszero\n      tag_414\n      jumpi\n        /* \"#utility.yul\":12212:12291   */\n      tag_415\n      tag_226\n      jump\t// in\n    tag_415:\n        /* \"#utility.yul\":12174:12293   */\n    tag_414:\n        /* \"#utility.yul\":12332:12333   */\n      0x00\n        /* \"#utility.yul\":12357:12421   */\n      tag_416\n        /* \"#utility.yul\":12413:12420   */\n      dup5\n        /* \"#utility.yul\":12404:12410   */\n      dup3\n        /* \"#utility.yul\":12393:12402   */\n      dup6\n        /* \"#utility.yul\":12389:12411   */\n      add\n        /* \"#utility.yul\":12357:12421   */\n      tag_253\n      jump\t// in\n    tag_416:\n        /* \"#utility.yul\":12347:12421   */\n      swap2\n      pop\n        /* \"#utility.yul\":12303:12431   */\n      pop\n        /* \"#utility.yul\":12087:12438   */\n      swap3\n      swap2\n      pop\n      pop\n      jump\t// out\n        /* \"#utility.yul\":12444:12776   */\n    tag_159:\n        /* \"#utility.yul\":12565:12569   */\n      0x00\n        /* \"#utility.yul\":12603:12605   */\n      0x40\n        /* \"#utility.yul\":12592:12601   */\n      dup3\n        /* \"#utility.yul\":12588:12606   */\n      add\n        /* \"#utility.yul\":12580:12606   */\n      swap1\n      pop\n        /* \"#utility.yul\":12616:12687   */\n      tag_418\n        /* \"#utility.yul\":12684:12685   */\n      0x00\n        /* \"#utility.yul\":12673:12682   */\n      dup4\n        /* \"#utility.yul\":12669:12686   */\n      add\n        /* \"#utility.yul\":12660:12666   */\n      dup6\n        /* \"#utility.yul\":12616:12687   */\n      tag_252\n      jump\t// in\n    tag_418:\n        /* \"#utility.yul\":12697:12769   */\n      tag_419\n        /* \"#utility.yul\":12765:12767   */\n      0x20\n        /* \"#utility.yul\":12754:12763   */\n      dup4\n        /* \"#utility.yul\":12750:12768   */\n      add\n        /* \"#utility.yul\":12741:12747   */\n      dup5\n        /* \"#utility.yul\":12697:12769   */\n      tag_237\n      jump\t// in\n    tag_419:\n        /* \"#utility.yul\":12444:12776   */\n      swap4\n      swap3\n      pop\n      pop\n      pop\n      jump\t// out\n        /* \"#utility.yul\":12782:12898   */\n    tag_254:\n        /* \"#utility.yul\":12852:12873   */\n      tag_421\n        /* \"#utility.yul\":12867:12872   */\n      dup2\n        /* \"#utility.yul\":12852:12873   */\n      tag_235\n      jump\t// in\n    tag_421:\n        /* \"#utility.yul\":12845:12850   */\n      dup2\n        /* \"#utility.yul\":12842:12874   */\n      eq\n        /* \"#utility.yul\":12832:12892   */\n      tag_422\n      jumpi\n        /* \"#utility.yul\":12888:12889   */\n      0x00\n        /* \"#utility.yul\":12885:12886   */\n      dup1\n        /* \"#utility.yul\":12878:12890   */\n      revert\n        /* \"#utility.yul\":12832:12892   */\n    tag_422:\n        /* \"#utility.yul\":12782:12898   */\n      pop\n      jump\t// out\n        /* \"#utility.yul\":12904:13041   */\n    tag_255:\n        /* \"#utility.yul\":12958:12963   */\n      0x00\n        /* \"#utility.yul\":12989:12995   */\n      dup2\n        /* \"#utility.yul\":12983:12996   */\n      mload\n        /* \"#utility.yul\":12974:12996   */\n      swap1\n      pop\n        /* \"#utility.yul\":13005:13035   */\n      tag_424\n        /* \"#utility.yul\":13029:13034   */\n      dup2\n        /* \"#utility.yul\":13005:13035   */\n      tag_254\n      jump\t// in\n    tag_424:\n        /* \"#utility.yul\":12904:13041   */\n      swap3\n      swap2\n      pop\n      pop\n      jump\t// out\n        /* \"#utility.yul\":13047:13392   */\n    tag_163:\n        /* \"#utility.yul\":13114:13120   */\n      0x00\n        /* \"#utility.yul\":13163:13165   */\n      0x20\n        /* \"#utility.yul\":13151:13160   */\n      dup3\n        /* \"#utility.yul\":13142:13149   */\n      dup5\n        /* \"#utility.yul\":13138:13161   */\n      sub\n        /* \"#utility.yul\":13134:13166   */\n      slt\n        /* \"#utility.yul\":13131:13250   */\n      iszero\n      tag_426\n      jumpi\n        /* \"#utility.yul\":13169:13248   */\n      tag_427\n      tag_226\n      jump\t// in\n    tag_427:\n        /* \"#utility.yul\":13131:13250   */\n    tag_426:\n        /* \"#utility.yul\":13289:13290   */\n      0x00\n        /* \"#utility.yul\":13314:13375   */\n      tag_428\n        /* \"#utility.yul\":13367:13374   */\n      dup5\n        /* \"#utility.yul\":13358:13364   */\n      dup3\n        /* \"#utility.yul\":13347:13356   */\n      dup6\n        /* \"#utility.yul\":13343:13365   */\n      add\n        /* \"#utility.yul\":13314:13375   */\n      tag_255\n      jump\t// in\n    tag_428:\n        /* \"#utility.yul\":13304:13375   */\n      swap2\n      pop\n        /* \"#utility.yul\":13260:13385   */\n      pop\n        /* \"#utility.yul\":13047:13392   */\n      swap3\n      swap2\n      pop\n      pop\n      jump\t// out\n        /* \"#utility.yul\":13398:13622   */\n    tag_256:\n        /* \"#utility.yul\":13538:13572   */\n      0x45524332303a2064656372656173656420616c6c6f77616e63652062656c6f77\n        /* \"#utility.yul\":13534:13535   */\n      0x00\n        /* \"#utility.yul\":13526:13532   */\n      dup3\n        /* \"#utility.yul\":13522:13536   */\n      add\n        /* \"#utility.yul\":13515:13573   */\n      mstore\n        /* \"#utility.yul\":13607:13614   */\n      0x207a65726f000000000000000000000000000000000000000000000000000000\n        /* \"#utility.yul\":13602:13604   */\n      0x20\n        /* \"#utility.yul\":13594:13600   */\n      dup3\n        /* \"#utility.yul\":13590:13605   */\n      add\n        /* \"#utility.yul\":13583:13615   */\n      mstore\n        /* \"#utility.yul\":13398:13622   */\n      pop\n      jump\t// out\n        /* \"#utility.yul\":13628:13994   */\n    tag_257:\n        /* \"#utility.yul\":13770:13773   */\n      0x00\n        /* \"#utility.yul\":13791:13858   */\n      tag_431\n        /* \"#utility.yul\":13855:13857   */\n      0x25\n        /* \"#utility.yul\":13850:13853   */\n      dup4\n        /* \"#utility.yul\":13791:13858   */\n      tag_221\n      jump\t// in\n    tag_431:\n        /* \"#utility.yul\":13784:13858   */\n      swap2\n      pop\n        /* \"#utility.yul\":13867:13960   */\n      tag_432\n        /* \"#utility.yul\":13956:13959   */\n      dup3\n        /* \"#utility.yul\":13867:13960   */\n      tag_256\n      jump\t// in\n    tag_432:\n        /* \"#utility.yul\":13985:13987   */\n      0x40\n        /* \"#utility.yul\":13980:13983   */\n      dup3\n        /* \"#utility.yul\":13976:13988   */\n      add\n        /* \"#utility.yul\":13969:13988   */\n      swap1\n      pop\n        /* \"#utility.yul\":13628:13994   */\n      swap2\n      swap1\n      pop\n      jump\t// out\n        /* \"#utility.yul\":14000:14419   */\n    tag_173:\n        /* \"#utility.yul\":14166:14170   */\n      0x00\n        /* \"#utility.yul\":14204:14206   */\n      0x20\n        /* \"#utility.yul\":14193:14202   */\n      dup3\n        /* \"#utility.yul\":14189:14207   */\n      add\n        /* \"#utility.yul\":14181:14207   */\n      swap1\n      pop\n        /* \"#utility.yul\":14253:14262   */\n      dup2\n        /* \"#utility.yul\":14247:14251   */\n      dup2\n        /* \"#utility.yul\":14243:14263   */\n      sub\n        /* \"#utility.yul\":14239:14240   */\n      0x00\n        /* \"#utility.yul\":14228:14237   */\n      dup4\n        /* \"#utility.yul\":14224:14241   */\n      add\n        /* \"#utility.yul\":14217:14264   */\n      mstore\n        /* \"#utility.yul\":14281:14412   */\n      tag_434\n        /* \"#utility.yul\":14407:14411   */\n      dup2\n        /* \"#utility.yul\":14281:14412   */\n      tag_257\n      jump\t// in\n    tag_434:\n        /* \"#utility.yul\":14273:14412   */\n      swap1\n      pop\n        /* \"#utility.yul\":14000:14419   */\n      swap2\n      swap1\n      pop\n      jump\t// out\n        /* \"#utility.yul\":14425:14648   */\n    tag_258:\n        /* \"#utility.yul\":14565:14599   */\n      0x45524332303a20617070726f76652066726f6d20746865207a65726f20616464\n        /* \"#utility.yul\":14561:14562   */\n      0x00\n        /* \"#utility.yul\":14553:14559   */\n      dup3\n        /* \"#utility.yul\":14549:14563   */\n      add\n        /* \"#utility.yul\":14542:14600   */\n      mstore\n        /* \"#utility.yul\":14634:14640   */\n      0x7265737300000000000000000000000000000000000000000000000000000000\n        /* \"#utility.yul\":14629:14631   */\n      0x20\n        /* \"#utility.yul\":14621:14627   */\n      dup3\n        /* \"#utility.yul\":14617:14632   */\n      add\n        /* \"#utility.yul\":14610:14641   */\n      mstore\n        /* \"#utility.yul\":14425:14648   */\n      pop\n      jump\t// out\n        /* \"#utility.yul\":14654:15020   */\n    tag_259:\n        /* \"#utility.yul\":14796:14799   */\n      0x00\n        /* \"#utility.yul\":14817:14884   */\n      tag_437\n        /* \"#utility.yul\":14881:14883   */\n      0x24\n        /* \"#utility.yul\":14876:14879   */\n      dup4\n        /* \"#utility.yul\":14817:14884   */\n      tag_221\n      jump\t// in\n    tag_437:\n        /* \"#utility.yul\":14810:14884   */\n      swap2\n      pop\n        /* \"#utility.yul\":14893:14986   */\n      tag_438\n        /* \"#utility.yul\":14982:14985   */\n      dup3\n        /* \"#utility.yul\":14893:14986   */\n      tag_258\n      jump\t// in\n    tag_438:\n        /* \"#utility.yul\":15011:15013   */\n      0x40\n        /* \"#utility.yul\":15006:15009   */\n      dup3\n        /* \"#utility.yul\":15002:15014   */\n      add\n        /* \"#utility.yul\":14995:15014   */\n      swap1\n      pop\n        /* \"#utility.yul\":14654:15020   */\n      swap2\n      swap1\n      pop\n      jump\t// out\n        /* \"#utility.yul\":15026:15445   */\n    tag_181:\n        /* \"#utility.yul\":15192:15196   */\n      0x00\n        /* \"#utility.yul\":15230:15232   */\n      0x20\n        /* \"#utility.yul\":15219:15228   */\n      dup3\n        /* \"#utility.yul\":15215:15233   */\n      add\n        /* \"#utility.yul\":15207:15233   */\n      swap1\n      pop\n        /* \"#utility.yul\":15279:15288   */\n      dup2\n        /* \"#utility.yul\":15273:15277   */\n      dup2\n        /* \"#utility.yul\":15269:15289   */\n      sub\n        /* \"#utility.yul\":15265:15266   */\n      0x00\n        /* \"#utility.yul\":15254:15263   */\n      dup4\n        /* \"#utility.yul\":15250:15267   */\n      add\n        /* \"#utility.yul\":15243:15290   */\n      mstore\n        /* \"#utility.yul\":15307:15438   */\n      tag_440\n        /* \"#utility.yul\":15433:15437   */\n      dup2\n        /* \"#utility.yul\":15307:15438   */\n      tag_259\n      jump\t// in\n    tag_440:\n        /* \"#utility.yul\":15299:15438   */\n      swap1\n      pop\n        /* \"#utility.yul\":15026:15445   */\n      swap2\n      swap1\n      pop\n      jump\t// out\n        /* \"#utility.yul\":15451:15673   */\n    tag_260:\n        /* \"#utility.yul\":15591:15625   */\n      0x45524332303a20617070726f76652020746f20746865207a65726f2061646472\n        /* \"#utility.yul\":15587:15588   */\n      0x00\n        /* \"#utility.yul\":15579:15585   */\n      dup3\n        /* \"#utility.yul\":15575:15589   */\n      add\n        /* \"#utility.yul\":15568:15626   */\n      mstore\n        /* \"#utility.yul\":15660:15665   */\n      0x6573730000000000000000000000000000000000000000000000000000000000\n        /* \"#utility.yul\":15655:15657   */\n      0x20\n        /* \"#utility.yul\":15647:15653   */\n      dup3\n        /* \"#utility.yul\":15643:15658   */\n      add\n        /* \"#utility.yul\":15636:15666   */\n      mstore\n        /* \"#utility.yul\":15451:15673   */\n      pop\n      jump\t// out\n        /* \"#utility.yul\":15679:16045   */\n    tag_261:\n        /* \"#utility.yul\":15821:15824   */\n      0x00\n        /* \"#utility.yul\":15842:15909   */\n      tag_443\n        /* \"#utility.yul\":15906:15908   */\n      0x23\n        /* \"#utility.yul\":15901:15904   */\n      dup4\n        /* \"#utility.yul\":15842:15909   */\n      tag_221\n      jump\t// in\n    tag_443:\n        /* \"#utility.yul\":15835:15909   */\n      swap2\n      pop\n        /* \"#utility.yul\":15918:16011   */\n      tag_444\n        /* \"#utility.yul\":16007:16010   */\n      dup3\n        /* \"#utility.yul\":15918:16011   */\n      tag_260\n      jump\t// in\n    tag_444:\n        /* \"#utility.yul\":16036:16038   */\n      0x40\n        /* \"#utility.yul\":16031:16034   */\n      dup3\n        /* \"#utility.yul\":16027:16039   */\n      add\n        /* \"#utility.yul\":16020:16039   */\n      swap1\n      pop\n        /* \"#utility.yul\":15679:16045   */\n      swap2\n      swap1\n      pop\n      jump\t// out\n        /* \"#utility.yul\":16051:16470   */\n    tag_184:\n        /* \"#utility.yul\":16217:16221   */\n      0x00\n        /* \"#utility.yul\":16255:16257   */\n      0x20\n        /* \"#utility.yul\":16244:16253   */\n      dup3\n        /* \"#utility.yul\":16240:16258   */\n      add\n        /* \"#utility.yul\":16232:16258   */\n      swap1\n      pop\n        /* \"#utility.yul\":16304:16313   */\n      dup2\n        /* \"#utility.yul\":16298:16302   */\n      dup2\n        /* \"#utility.yul\":16294:16314   */\n      sub\n        /* \"#utility.yul\":16290:16291   */\n      0x00\n        /* \"#utility.yul\":16279:16288   */\n      dup4\n        /* \"#utility.yul\":16275:16292   */\n      add\n        /* \"#utility.yul\":16268:16315   */\n      mstore\n        /* \"#utility.yul\":16332:16463   */\n      tag_446\n        /* \"#utility.yul\":16458:16462   */\n      dup2\n        /* \"#utility.yul\":16332:16463   */\n      tag_261\n      jump\t// in\n    tag_446:\n        /* \"#utility.yul\":16324:16463   */\n      swap1\n      pop\n        /* \"#utility.yul\":16051:16470   */\n      swap2\n      swap1\n      pop\n      jump\t// out\n        /* \"#utility.yul\":16476:16655   */\n    tag_262:\n        /* \"#utility.yul\":16616:16647   */\n      0x45524332303a20696e73756666696369656e7420616c6c6f77616e6365000000\n        /* \"#utility.yul\":16612:16613   */\n      0x00\n        /* \"#utility.yul\":16604:16610   */\n      dup3\n        /* \"#utility.yul\":16600:16614   */\n      add\n        /* \"#utility.yul\":16593:16648   */\n      mstore\n        /* \"#utility.yul\":16476:16655   */\n      pop\n      jump\t// out\n        /* \"#utility.yul\":16661:17027   */\n    tag_263:\n        /* \"#utility.yul\":16803:16806   */\n      0x00\n        /* \"#utility.yul\":16824:16891   */\n      tag_449\n        /* \"#utility.yul\":16888:16890   */\n      0x1d\n        /* \"#utility.yul\":16883:16886   */\n      dup4\n        /* \"#utility.yul\":16824:16891   */\n      tag_221\n      jump\t// in\n    tag_449:\n        /* \"#utility.yul\":16817:16891   */\n      swap2\n      pop\n        /* \"#utility.yul\":16900:16993   */\n      tag_450\n        /* \"#utility.yul\":16989:16992   */\n      dup3\n        /* \"#utility.yul\":16900:16993   */\n      tag_262\n      jump\t// in\n    tag_450:\n        /* \"#utility.yul\":17018:17020   */\n      0x20\n        /* \"#utility.yul\":17013:17016   */\n      dup3\n        /* \"#utility.yul\":17009:17021   */\n      add\n        /* \"#utility.yul\":17002:17021   */\n      swap1\n      pop\n        /* \"#utility.yul\":16661:17027   */\n      swap2\n      swap1\n      pop\n      jump\t// out\n        /* \"#utility.yul\":17033:17452   */\n    tag_191:\n        /* \"#utility.yul\":17199:17203   */\n      0x00\n        /* \"#utility.yul\":17237:17239   */\n      0x20\n        /* \"#utility.yul\":17226:17235   */\n      dup3\n        /* \"#utility.yul\":17222:17240   */\n      add\n        /* \"#utility.yul\":17214:17240   */\n      swap1\n      pop\n        /* \"#utility.yul\":17286:17295   */\n      dup2\n        /* \"#utility.yul\":17280:17284   */\n      dup2\n        /* \"#utility.yul\":17276:17296   */\n      sub\n        /* \"#utility.yul\":17272:17273   */\n      0x00\n        /* \"#utility.yul\":17261:17270   */\n      dup4\n        /* \"#utility.yul\":17257:17274   */\n      add\n        /* \"#utility.yul\":17250:17297   */\n      mstore\n        /* \"#utility.yul\":17314:17445   */\n      tag_452\n        /* \"#utility.yul\":17440:17444   */\n      dup2\n        /* \"#utility.yul\":17314:17445   */\n      tag_263\n      jump\t// in\n    tag_452:\n        /* \"#utility.yul\":17306:17445   */\n      swap1\n      pop\n        /* \"#utility.yul\":17033:17452   */\n      swap2\n      swap1\n      pop\n      jump\t// out\n        /* \"#utility.yul\":17458:17682   */\n    tag_264:\n        /* \"#utility.yul\":17598:17632   */\n      0x45524332303a207472616e736665722066726f6d20746865207a65726f206164\n        /* \"#utility.yul\":17594:17595   */\n      0x00\n        /* \"#utility.yul\":17586:17592   */\n      dup3\n        /* \"#utility.yul\":17582:17596   */\n      add\n        /* \"#utility.yul\":17575:17633   */\n      mstore\n        /* \"#utility.yul\":17667:17674   */\n      0x6472657373000000000000000000000000000000000000000000000000000000\n        /* \"#utility.yul\":17662:17664   */\n      0x20\n        /* \"#utility.yul\":17654:17660   */\n      dup3\n        /* \"#utility.yul\":17650:17665   */\n      add\n        /* \"#utility.yul\":17643:17675   */\n      mstore\n        /* \"#utility.yul\":17458:17682   */\n      pop\n      jump\t// out\n        /* \"#utility.yul\":17688:18054   */\n    tag_265:\n        /* \"#utility.yul\":17830:17833   */\n      0x00\n        /* \"#utility.yul\":17851:17918   */\n      tag_455\n        /* \"#utility.yul\":17915:17917   */\n      0x25\n        /* \"#utility.yul\":17910:17913   */\n      dup4\n        /* \"#utility.yul\":17851:17918   */\n      tag_221\n      jump\t// in\n    tag_455:\n        /* \"#utility.yul\":17844:17918   */\n      swap2\n      pop\n        /* \"#utility.yul\":17927:18020   */\n      tag_456\n        /* \"#utility.yul\":18016:18019   */\n      dup3\n        /* \"#utility.yul\":17927:18020   */\n      tag_264\n      jump\t// in\n    tag_456:\n        /* \"#utility.yul\":18045:18047   */\n      0x40\n        /* \"#utility.yul\":18040:18043   */\n      dup3\n        /* \"#utility.yul\":18036:18048   */\n      add\n        /* \"#utility.yul\":18029:18048   */\n      swap1\n      pop\n        /* \"#utility.yul\":17688:18054   */\n      swap2\n      swap1\n      pop\n      jump\t// out\n        /* \"#utility.yul\":18060:18479   */\n    tag_196:\n        /* \"#utility.yul\":18226:18230   */\n      0x00\n        /* \"#utility.yul\":18264:18266   */\n      0x20\n        /* \"#utility.yul\":18253:18262   */\n      dup3\n        /* \"#utility.yul\":18249:18267   */\n      add\n        /* \"#utility.yul\":18241:18267   */\n      swap1\n      pop\n        /* \"#utility.yul\":18313:18322   */\n      dup2\n        /* \"#utility.yul\":18307:18311   */\n      dup2\n        /* \"#utility.yul\":18303:18323   */\n      sub\n        /* \"#utility.yul\":18299:18300   */\n      0x00\n        /* \"#utility.yul\":18288:18297   */\n      dup4\n        /* \"#utility.yul\":18284:18301   */\n      add\n        /* \"#utility.yul\":18277:18324   */\n      mstore\n        /* \"#utility.yul\":18341:18472   */\n      tag_458\n        /* \"#utility.yul\":18467:18471   */\n      dup2\n        /* \"#utility.yul\":18341:18472   */\n      tag_265\n      jump\t// in\n    tag_458:\n        /* \"#utility.yul\":18333:18472   */\n      swap1\n      pop\n        /* \"#utility.yul\":18060:18479   */\n      swap2\n      swap1\n      pop\n      jump\t// out\n        /* \"#utility.yul\":18485:18707   */\n    tag_266:\n        /* \"#utility.yul\":18625:18659   */\n      0x45524332303a207472616e7366657220746f20746865207a65726f2061646472\n        /* \"#utility.yul\":18621:18622   */\n      0x00\n        /* \"#utility.yul\":18613:18619   */\n      dup3\n        /* \"#utility.yul\":18609:18623   */\n      add\n        /* \"#utility.yul\":18602:18660   */\n      mstore\n        /* \"#utility.yul\":18694:18699   */\n      0x6573730000000000000000000000000000000000000000000000000000000000\n        /* \"#utility.yul\":18689:18691   */\n      0x20\n        /* \"#utility.yul\":18681:18687   */\n      dup3\n        /* \"#utility.yul\":18677:18692   */\n      add\n        /* \"#utility.yul\":18670:18700   */\n      mstore\n        /* \"#utility.yul\":18485:18707   */\n      pop\n      jump\t// out\n        /* \"#utility.yul\":18713:19079   */\n    tag_267:\n        /* \"#utility.yul\":18855:18858   */\n      0x00\n        /* \"#utility.yul\":18876:18943   */\n      tag_461\n        /* \"#utility.yul\":18940:18942   */\n      0x23\n        /* \"#utility.yul\":18935:18938   */\n      dup4\n        /* \"#utility.yul\":18876:18943   */\n      tag_221\n      jump\t// in\n    tag_461:\n        /* \"#utility.yul\":18869:18943   */\n      swap2\n      pop\n        /* \"#utility.yul\":18952:19045   */\n      tag_462\n        /* \"#utility.yul\":19041:19044   */\n      dup3\n        /* \"#utility.yul\":18952:19045   */\n      tag_266\n      jump\t// in\n    tag_462:\n        /* \"#utility.yul\":19070:19072   */\n      0x40\n        /* \"#utility.yul\":19065:19068   */\n      dup3\n        /* \"#utility.yul\":19061:19073   */\n      add\n        /* \"#utility.yul\":19054:19073   */\n      swap1\n      pop\n        /* \"#utility.yul\":18713:19079   */\n      swap2\n      swap1\n      pop\n      jump\t// out\n        /* \"#utility.yul\":19085:19504   */\n    tag_199:\n        /* \"#utility.yul\":19251:19255   */\n      0x00\n        /* \"#utility.yul\":19289:19291   */\n      0x20\n        /* \"#utility.yul\":19278:19287   */\n      dup3\n        /* \"#utility.yul\":19274:19292   */\n      add\n        /* \"#utility.yul\":19266:19292   */\n      swap1\n      pop\n        /* \"#utility.yul\":19338:19347   */\n      dup2\n        /* \"#utility.yul\":19332:19336   */\n      dup2\n        /* \"#utility.yul\":19328:19348   */\n      sub\n        /* \"#utility.yul\":19324:19325   */\n      0x00\n        /* \"#utility.yul\":19313:19322   */\n      dup4\n        /* \"#utility.yul\":19309:19326   */\n      add\n        /* \"#utility.yul\":19302:19349   */\n      mstore\n        /* \"#utility.yul\":19366:19497   */\n      tag_464\n        /* \"#utility.yul\":19492:19496   */\n      dup2\n        /* \"#utility.yul\":19366:19497   */\n      tag_267\n      jump\t// in\n    tag_464:\n        /* \"#utility.yul\":19358:19497   */\n      swap1\n      pop\n        /* \"#utility.yul\":19085:19504   */\n      swap2\n      swap1\n      pop\n      jump\t// out\n        /* \"#utility.yul\":19510:19735   */\n    tag_268:\n        /* \"#utility.yul\":19650:19684   */\n      0x45524332303a207472616e7366657220616d6f756e7420657863656564732062\n        /* \"#utility.yul\":19646:19647   */\n      0x00\n        /* \"#utility.yul\":19638:19644   */\n      dup3\n        /* \"#utility.yul\":19634:19648   */\n      add\n        /* \"#utility.yul\":19627:19685   */\n      mstore\n        /* \"#utility.yul\":19719:19727   */\n      0x616c616e63650000000000000000000000000000000000000000000000000000\n        /* \"#utility.yul\":19714:19716   */\n      0x20\n        /* \"#utility.yul\":19706:19712   */\n      dup3\n        /* \"#utility.yul\":19702:19717   */\n      add\n        /* \"#utility.yul\":19695:19728   */\n      mstore\n        /* \"#utility.yul\":19510:19735   */\n      pop\n      jump\t// out\n        /* \"#utility.yul\":19741:20107   */\n    tag_269:\n        /* \"#utility.yul\":19883:19886   */\n      0x00\n        /* \"#utility.yul\":19904:19971   */\n      tag_467\n        /* \"#utility.yul\":19968:19970   */\n      0x26\n        /* \"#utility.yul\":19963:19966   */\n      dup4\n        /* \"#utility.yul\":19904:19971   */\n      tag_221\n      jump\t// in\n    tag_467:\n        /* \"#utility.yul\":19897:19971   */\n      swap2\n      pop\n        /* \"#utility.yul\":19980:20073   */\n      tag_468\n        /* \"#utility.yul\":20069:20072   */\n      dup3\n        /* \"#utility.yul\":19980:20073   */\n      tag_268\n      jump\t// in\n    tag_468:\n        /* \"#utility.yul\":20098:20100   */\n      0x40\n        /* \"#utility.yul\":20093:20096   */\n      dup3\n        /* \"#utility.yul\":20089:20101   */\n      add\n        /* \"#utility.yul\":20082:20101   */\n      swap1\n      pop\n        /* \"#utility.yul\":19741:20107   */\n      swap2\n      swap1\n      pop\n      jump\t// out\n        /* \"#utility.yul\":20113:20532   */\n    tag_204:\n        /* \"#utility.yul\":20279:20283   */\n      0x00\n        /* \"#utility.yul\":20317:20319   */\n      0x20\n        /* \"#utility.yul\":20306:20315   */\n      dup3\n        /* \"#utility.yul\":20302:20320   */\n      add\n        /* \"#utility.yul\":20294:20320   */\n      swap1\n      pop\n        /* \"#utility.yul\":20366:20375   */\n      dup2\n        /* \"#utility.yul\":20360:20364   */\n      dup2\n        /* \"#utility.yul\":20356:20376   */\n      sub\n        /* \"#utility.yul\":20352:20353   */\n      0x00\n        /* \"#utility.yul\":20341:20350   */\n      dup4\n        /* \"#utility.yul\":20337:20354   */\n      add\n        /* \"#utility.yul\":20330:20377   */\n      mstore\n        /* \"#utility.yul\":20394:20525   */\n      tag_470\n        /* \"#utility.yul\":20520:20524   */\n      dup2\n        /* \"#utility.yul\":20394:20525   */\n      tag_269\n      jump\t// in\n    tag_470:\n        /* \"#utility.yul\":20386:20525   */\n      swap1\n      pop\n        /* \"#utility.yul\":20113:20532   */\n      swap2\n      swap1\n      pop\n      jump\t// out\n        /* \"#utility.yul\":20538:20719   */\n    tag_270:\n        /* \"#utility.yul\":20678:20711   */\n      0x45524332303a206d696e7420746f20746865207a65726f206164647265737300\n        /* \"#utility.yul\":20674:20675   */\n      0x00\n        /* \"#utility.yul\":20666:20672   */\n      dup3\n        /* \"#utility.yul\":20662:20676   */\n      add\n        /* \"#utility.yul\":20655:20712   */\n      mstore\n        /* \"#utility.yul\":20538:20719   */\n      pop\n      jump\t// out\n        /* \"#utility.yul\":20725:21091   */\n    tag_271:\n        /* \"#utility.yul\":20867:20870   */\n      0x00\n        /* \"#utility.yul\":20888:20955   */\n      tag_473\n        /* \"#utility.yul\":20952:20954   */\n      0x1f\n        /* \"#utility.yul\":20947:20950   */\n      dup4\n        /* \"#utility.yul\":20888:20955   */\n      tag_221\n      jump\t// in\n    tag_473:\n        /* \"#utility.yul\":20881:20955   */\n      swap2\n      pop\n        /* \"#utility.yul\":20964:21057   */\n      tag_474\n        /* \"#utility.yul\":21053:21056   */\n      dup3\n        /* \"#utility.yul\":20964:21057   */\n      tag_270\n      jump\t// in\n    tag_474:\n        /* \"#utility.yul\":21082:21084   */\n      0x20\n        /* \"#utility.yul\":21077:21080   */\n      dup3\n        /* \"#utility.yul\":21073:21085   */\n      add\n        /* \"#utility.yul\":21066:21085   */\n      swap1\n      pop\n        /* \"#utility.yul\":20725:21091   */\n      swap2\n      swap1\n      pop\n      jump\t// out\n        /* \"#utility.yul\":21097:21516   */\n    tag_212:\n        /* \"#utility.yul\":21263:21267   */\n      0x00\n        /* \"#utility.yul\":21301:21303   */\n      0x20\n        /* \"#utility.yul\":21290:21299   */\n      dup3\n        /* \"#utility.yul\":21286:21304   */\n      add\n        /* \"#utility.yul\":21278:21304   */\n      swap1\n      pop\n        /* \"#utility.yul\":21350:21359   */\n      dup2\n        /* \"#utility.yul\":21344:21348   */\n      dup2\n        /* \"#utility.yul\":21340:21360   */\n      sub\n        /* \"#utility.yul\":21336:21337   */\n      0x00\n        /* \"#utility.yul\":21325:21334   */\n      dup4\n        /* \"#utility.yul\":21321:21338   */\n      add\n        /* \"#utility.yul\":21314:21361   */\n      mstore\n        /* \"#utility.yul\":21378:21509   */\n      tag_476\n        /* \"#utility.yul\":21504:21508   */\n      dup2\n        /* \"#utility.yul\":21378:21509   */\n      tag_271\n      jump\t// in\n    tag_476:\n        /* \"#utility.yul\":21370:21509   */\n      swap1\n      pop\n        /* \"#utility.yul\":21097:21516   */\n      swap2\n      swap1\n      pop\n      jump\t// out\n\n    auxdata: 0xa26469706673582212200d6a51b6c7479e52dedde4be0f19c8c29b0f4ccba1d0bcdb0b226c7b326405b964736f6c63430008130033\n}\n",
				"bytecode": {
					"linkReferences": {},
					"object": "608060405260405162002a2c38038062002a2c8339818101604052810190620000299190620004e3565b84600390816200003a9190620007ea565b5083600490816200004c9190620007ea565b5082600560006101000a81548160ff021916908360ff160217905550620000a481600560009054906101000a900460ff16600a6200008b919062000a54565b8462000098919062000aa5565b620000f060201b60201c565b33600560016101000a81548173ffffffffffffffffffffffffffffffffffffffff021916908373ffffffffffffffffffffffffffffffffffffffff160217905550505050505062000bdc565b600073ffffffffffffffffffffffffffffffffffffffff168273ffffffffffffffffffffffffffffffffffffffff160362000162576040517f08c379a0000000000000000000000000000000000000000000000000000000008152600401620001599062000b51565b60405180910390fd5b62000176600083836200026860201b60201c565b80600260008282546200018a919062000b73565b92505081905550806000808473ffffffffffffffffffffffffffffffffffffffff1673ffffffffffffffffffffffffffffffffffffffff1681526020019081526020016000206000828254620001e1919062000b73565b925050819055508173ffffffffffffffffffffffffffffffffffffffff16600073ffffffffffffffffffffffffffffffffffffffff167fddf252ad1be2c89b69c2b068fc378daa952ba7f163c4a11628f55a4df523b3ef8360405162000248919062000bbf565b60405180910390a362000264600083836200026d60201b60201c565b5050565b505050565b505050565b6000604051905090565b600080fd5b600080fd5b600080fd5b600080fd5b6000601f19601f8301169050919050565b7f4e487b7100000000000000000000000000000000000000000000000000000000600052604160045260246000fd5b620002db8262000290565b810181811067ffffffffffffffff82111715620002fd57620002fc620002a1565b5b80604052505050565b60006200031262000272565b9050620003208282620002d0565b919050565b600067ffffffffffffffff821115620003435762000342620002a1565b5b6200034e8262000290565b9050602081019050919050565b60005b838110156200037b5780820151818401526020810190506200035e565b60008484015250505050565b60006200039e620003988462000325565b62000306565b905082815260208101848484011115620003bd57620003bc6200028b565b5b620003ca8482856200035b565b509392505050565b600082601f830112620003ea57620003e962000286565b5b8151620003fc84826020860162000387565b91505092915050565b600060ff82169050919050565b6200041d8162000405565b81146200042957600080fd5b50565b6000815190506200043d8162000412565b92915050565b6000819050919050565b620004588162000443565b81146200046457600080fd5b50565b60008151905062000478816200044d565b92915050565b600073ffffffffffffffffffffffffffffffffffffffff82169050919050565b6000620004ab826200047e565b9050919050565b620004bd816200049e565b8114620004c957600080fd5b50565b600081519050620004dd81620004b2565b92915050565b600080600080600060a086880312156200050257620005016200027c565b5b600086015167ffffffffffffffff81111562000523576200052262000281565b5b6200053188828901620003d2565b955050602086015167ffffffffffffffff81111562000555576200055462000281565b5b6200056388828901620003d2565b945050604062000576888289016200042c565b9350506060620005898882890162000467565b92505060806200059c88828901620004cc565b9150509295509295909350565b600081519050919050565b7f4e487b7100000000000000000000000000000000000000000000000000000000600052602260045260246000fd5b60006002820490506001821680620005fc57607f821691505b602082108103620006125762000611620005b4565b5b50919050565b60008190508160005260206000209050919050565b60006020601f8301049050919050565b600082821b905092915050565b6000600883026200067c7fffffffffffffffffffffffffffffffffffffffffffffffffffffffffffffffff826200063d565b6200068886836200063d565b95508019841693508086168417925050509392505050565b6000819050919050565b6000620006cb620006c5620006bf8462000443565b620006a0565b62000443565b9050919050565b6000819050919050565b620006e783620006aa565b620006ff620006f682620006d2565b8484546200064a565b825550505050565b600090565b6200071662000707565b62000723818484620006dc565b505050565b5b818110156200074b576200073f6000826200070c565b60018101905062000729565b5050565b601f8211156200079a57620007648162000618565b6200076f846200062d565b810160208510156200077f578190505b620007976200078e856200062d565b83018262000728565b50505b505050565b600082821c905092915050565b6000620007bf600019846008026200079f565b1980831691505092915050565b6000620007da8383620007ac565b9150826002028217905092915050565b620007f582620005a9565b67ffffffffffffffff811115620008115762000810620002a1565b5b6200081d8254620005e3565b6200082a8282856200074f565b600060209050601f8311600181146200086257600084156200084d578287015190505b620008598582620007cc565b865550620008c9565b601f198416620008728662000618565b60005b828110156200089c5784890151825560018201915060208501945060208101905062000875565b86831015620008bc5784890151620008b8601f891682620007ac565b8355505b6001600288020188555050505b505050505050565b7f4e487b7100000000000000000000000000000000000000000000000000000000600052601160045260246000fd5b60008160011c9050919050565b6000808291508390505b60018511156200095f57808604811115620009375762000936620008d1565b5b6001851615620009475780820291505b8081029050620009578562000900565b945062000917565b94509492505050565b6000826200097a576001905062000a4d565b816200098a576000905062000a4d565b8160018114620009a35760028114620009ae57620009e4565b600191505062000a4d565b60ff841115620009c357620009c2620008d1565b5b8360020a915084821115620009dd57620009dc620008d1565b5b5062000a4d565b5060208310610133831016604e8410600b841016171562000a1e5782820a90508381111562000a185762000a17620008d1565b5b62000a4d565b62000a2d84848460016200090d565b9250905081840481111562000a475762000a46620008d1565b5b81810290505b9392505050565b600062000a618262000443565b915062000a6e8362000405565b925062000a9d7fffffffffffffffffffffffffffffffffffffffffffffffffffffffffffffffff848462000968565b905092915050565b600062000ab28262000443565b915062000abf8362000443565b925082820262000acf8162000443565b9150828204841483151762000ae95762000ae8620008d1565b5b5092915050565b600082825260208201905092915050565b7f45524332303a206d696e7420746f20746865207a65726f206164647265737300600082015250565b600062000b39601f8362000af0565b915062000b468262000b01565b602082019050919050565b6000602082019050818103600083015262000b6c8162000b2a565b9050919050565b600062000b808262000443565b915062000b8d8362000443565b925082820190508082111562000ba85762000ba7620008d1565b5b92915050565b62000bb98162000443565b82525050565b600060208201905062000bd6600083018462000bae565b92915050565b611e408062000bec6000396000f3fe6080604052600436106100f75760003560e01c806340c10f191161008a578063a457c2d711610059578063a457c2d714610325578063a9059cbb14610362578063dd62ed3e1461039f578063fc6f9468146103dc576100fe565b806340c10f191461027857806370a08231146102a157806389476069146102de57806395d89b41146102fa576100fe565b8063313ce567116100c6578063313ce567146101d057806339509351146101fb5780633ccfd60b146102385780633d128eec1461024f576100fe565b806306fdde0314610100578063095ea7b31461012b57806318160ddd1461016857806323b872dd14610193576100fe565b366100fe57005b005b34801561010c57600080fd5b50610115610407565b60405161012291906112f0565b60405180910390f35b34801561013757600080fd5b50610152600480360381019061014d91906113ab565b610499565b60405161015f9190611406565b60405180910390f35b34801561017457600080fd5b5061017d6104b5565b60405161018a9190611430565b60405180910390f35b34801561019f57600080fd5b506101ba60048036038101906101b5919061144b565b6104bf565b6040516101c79190611406565b60405180910390f35b3480156101dc57600080fd5b506101e56104e7565b6040516101f291906114ba565b60405180910390f35b34801561020757600080fd5b50610222600480360381019061021d91906113ab565b6104fe565b60405161022f9190611406565b60405180910390f35b34801561024457600080fd5b5061024d6105a1565b005b34801561025b57600080fd5b50610276600480360381019061027191906114d5565b61067a565b005b34801561028457600080fd5b5061029f600480360381019061029a91906113ab565b61074e565b005b3480156102ad57600080fd5b506102c860048036038101906102c391906114d5565b610812565b6040516102d59190611430565b60405180910390f35b6102f860048036038101906102f39190611540565b61085a565b005b34801561030657600080fd5b5061030f6109e5565b60405161031c91906112f0565b60405180910390f35b34801561033157600080fd5b5061034c600480360381019061034791906113ab565b610a77565b6040516103599190611406565b60405180910390f35b34801561036e57600080fd5b50610389600480360381019061038491906113ab565b610b5a565b6040516103969190611406565b60405180910390f35b3480156103ab57600080fd5b506103c660048036038101906103c1919061156d565b610b76565b6040516103d39190611430565b60405180910390f35b3480156103e857600080fd5b506103f1610bfd565b6040516103fe91906115ce565b60405180910390f35b60606003805461041690611618565b80601f016020809104026020016040519081016040528092919081815260200182805461044290611618565b801561048f5780601f106104645761010080835404028352916020019161048f565b820191906000526020600020905b81548152906001019060200180831161047257829003601f168201915b5050505050905090565b6000803390506104aa818585610c23565b600191505092915050565b6000600254905090565b6000803390506104d0858285610dec565b6104db858585610e78565b60019150509392505050565b6000600560009054906101000a900460ff16905090565b600080339050610596818585600160008673ffffffffffffffffffffffffffffffffffffffff1673ffffffffffffffffffffffffffffffffffffffff16815260200190815260200160002060008973ffffffffffffffffffffffffffffffffffffffff1673ffffffffffffffffffffffffffffffffffffffff168152602001908152602001600020546105919190611678565b610c23565b600191505092915050565b600560019054906101000a900473ffffffffffffffffffffffffffffffffffffffff1673ffffffffffffffffffffffffffffffffffffffff163373ffffffffffffffffffffffffffffffffffffffff1614610631576040517f08c379a0000000000000000000000000000000000000000000000000000000008152600401610628906116f8565b60405180910390fd5b3373ffffffffffffffffffffffffffffffffffffffff166108fc479081150290604051600060405180830381858888f19350505050158015610677573d6000803e3d6000fd5b50565b600560019054906101000a900473ffffffffffffffffffffffffffffffffffffffff1673ffffffffffffffffffffffffffffffffffffffff163373ffffffffffffffffffffffffffffffffffffffff161461070a576040517f08c379a0000000000000000000000000000000000000000000000000000000008152600401610701906116f8565b60405180910390fd5b80600560016101000a81548173ffffffffffffffffffffffffffffffffffffffff021916908373ffffffffffffffffffffffffffffffffffffffff16021790555050565b600560019054906101000a900473ffffffffffffffffffffffffffffffffffffffff1673ffffffffffffffffffffffffffffffffffffffff163373ffffffffffffffffffffffffffffffffffffffff16146107de576040517f08c379a00000000000000000000000000000000000000000000000000000000081526004016107d5906116f8565b60405180910390fd5b61080e82600560009054906101000a900460ff16600a6107fe919061184b565b836108099190611896565b6110f7565b5050565b60008060008373ffffffffffffffffffffffffffffffffffffffff1673ffffffffffffffffffffffffffffffffffffffff168152602001908152602001600020549050919050565b600560019054906101000a900473ffffffffffffffffffffffffffffffffffffffff1673ffffffffffffffffffffffffffffffffffffffff163373ffffffffffffffffffffffffffffffffffffffff16146108ea576040517f08c379a00000000000000000000000000000000000000000000000000000000081526004016108e1906116f8565b60405180910390fd5b8073ffffffffffffffffffffffffffffffffffffffff1663a9059cbb338373ffffffffffffffffffffffffffffffffffffffff166370a08231306040518263ffffffff1660e01b815260040161094091906118e7565b602060405180830381865afa15801561095d573d6000803e3d6000fd5b505050506040513d601f19601f820116820180604052508101906109819190611917565b6040518363ffffffff1660e01b815260040161099e929190611944565b6020604051808303816000875af11580156109bd573d6000803e3d6000fd5b505050506040513d601f19601f820116820180604052508101906109e19190611999565b5050565b6060600480546109f490611618565b80601f0160208091040260200160405190810160405280929190818152602001828054610a2090611618565b8015610a6d5780601f10610a4257610100808354040283529160200191610a6d565b820191906000526020600020905b815481529060010190602001808311610a5057829003601f168201915b5050505050905090565b6000803390506000600160008373ffffffffffffffffffffffffffffffffffffffff1673ffffffffffffffffffffffffffffffffffffffff16815260200190815260200160002060008673ffffffffffffffffffffffffffffffffffffffff1673ffffffffffffffffffffffffffffffffffffffff16815260200190815260200160002054905083811015610b41576040517f08c379a0000000000000000000000000000000000000000000000000000000008152600401610b3890611a38565b60405180910390fd5b610b4e8286868403610c23565b60019250505092915050565b600080339050610b6b818585610e78565b600191505092915050565b6000600160008473ffffffffffffffffffffffffffffffffffffffff1673ffffffffffffffffffffffffffffffffffffffff16815260200190815260200160002060008373ffffffffffffffffffffffffffffffffffffffff1673ffffffffffffffffffffffffffffffffffffffff16815260200190815260200160002054905092915050565b600560019054906101000a900473ffffffffffffffffffffffffffffffffffffffff1681565b600073ffffffffffffffffffffffffffffffffffffffff168373ffffffffffffffffffffffffffffffffffffffff1603610c92576040517f08c379a0000000000000000000000000000000000000000000000000000000008152600401610c8990611aca565b60405180910390fd5b600073ffffffffffffffffffffffffffffffffffffffff168273ffffffffffffffffffffffffffffffffffffffff1603610d01576040517f08c379a0000000000000000000000000000000000000000000000000000000008152600401610cf890611b5c565b60405180910390fd5b80600160008573ffffffffffffffffffffffffffffffffffffffff1673ffffffffffffffffffffffffffffffffffffffff16815260200190815260200160002060008473ffffffffffffffffffffffffffffffffffffffff1673ffffffffffffffffffffffffffffffffffffffff168152602001908152602001600020819055508173ffffffffffffffffffffffffffffffffffffffff168373ffffffffffffffffffffffffffffffffffffffff167f8c5be1e5ebec7d5bd14f71427d1e84f3dd0314c0f7b2291e5b200ac8c7c3b92583604051610ddf9190611430565b60405180910390a3505050565b6000610df88484610b76565b90507fffffffffffffffffffffffffffffffffffffffffffffffffffffffffffffffff8114610e725781811015610e64576040517f08c379a0000000000000000000000000000000000000000000000000000000008152600401610e5b90611bc8565b60405180910390fd5b610e718484848403610c23565b5b50505050565b600073ffffffffffffffffffffffffffffffffffffffff168373ffffffffffffffffffffffffffffffffffffffff1603610ee7576040517f08c379a0000000000000000000000000000000000000000000000000000000008152600401610ede90611c5a565b60405180910390fd5b600073ffffffffffffffffffffffffffffffffffffffff168273ffffffffffffffffffffffffffffffffffffffff1603610f56576040517f08c379a0000000000000000000000000000000000000000000000000000000008152600401610f4d90611cec565b60405180910390fd5b610f61838383611256565b60008060008573ffffffffffffffffffffffffffffffffffffffff1673ffffffffffffffffffffffffffffffffffffffff16815260200190815260200160002054905081811015610fe7576040517f08c379a0000000000000000000000000000000000000000000000000000000008152600401610fde90611d7e565b60405180910390fd5b8181036000808673ffffffffffffffffffffffffffffffffffffffff1673ffffffffffffffffffffffffffffffffffffffff16815260200190815260200160002081905550816000808573ffffffffffffffffffffffffffffffffffffffff1673ffffffffffffffffffffffffffffffffffffffff168152602001908152602001600020600082825461107a9190611678565b925050819055508273ffffffffffffffffffffffffffffffffffffffff168473ffffffffffffffffffffffffffffffffffffffff167fddf252ad1be2c89b69c2b068fc378daa952ba7f163c4a11628f55a4df523b3ef846040516110de9190611430565b60405180910390a36110f184848461125b565b50505050565b600073ffffffffffffffffffffffffffffffffffffffff168273ffffffffffffffffffffffffffffffffffffffff1603611166576040517f08c379a000000000000000000000000000000000000000000000000000000000815260040161115d90611dea565b60405180910390fd5b61117260008383611256565b80600260008282546111849190611678565b92505081905550806000808473ffffffffffffffffffffffffffffffffffffffff1673ffffffffffffffffffffffffffffffffffffffff16815260200190815260200160002060008282546111d99190611678565b925050819055508173ffffffffffffffffffffffffffffffffffffffff16600073ffffffffffffffffffffffffffffffffffffffff167fddf252ad1be2c89b69c2b068fc378daa952ba7f163c4a11628f55a4df523b3ef8360405161123e9190611430565b60405180910390a36112526000838361125b565b5050565b505050565b505050565b600081519050919050565b600082825260208201905092915050565b60005b8381101561129a57808201518184015260208101905061127f565b60008484015250505050565b6000601f19601f8301169050919050565b60006112c282611260565b6112cc818561126b565b93506112dc81856020860161127c565b6112e5816112a6565b840191505092915050565b6000602082019050818103600083015261130a81846112b7565b905092915050565b600080fd5b600073ffffffffffffffffffffffffffffffffffffffff82169050919050565b600061134282611317565b9050919050565b61135281611337565b811461135d57600080fd5b50565b60008135905061136f81611349565b92915050565b6000819050919050565b61138881611375565b811461139357600080fd5b50565b6000813590506113a58161137f565b92915050565b600080604083850312156113c2576113c1611312565b5b60006113d085828601611360565b92505060206113e185828601611396565b9150509250929050565b60008115159050919050565b611400816113eb565b82525050565b600060208201905061141b60008301846113f7565b92915050565b61142a81611375565b82525050565b60006020820190506114456000830184611421565b92915050565b60008060006060848603121561146457611463611312565b5b600061147286828701611360565b935050602061148386828701611360565b925050604061149486828701611396565b9150509250925092565b600060ff82169050919050565b6114b48161149e565b82525050565b60006020820190506114cf60008301846114ab565b92915050565b6000602082840312156114eb576114ea611312565b5b60006114f984828501611360565b91505092915050565b600061150d82611337565b9050919050565b61151d81611502565b811461152857600080fd5b50565b60008135905061153a81611514565b92915050565b60006020828403121561155657611555611312565b5b60006115648482850161152b565b91505092915050565b6000806040838503121561158457611583611312565b5b600061159285828601611360565b92505060206115a385828601611360565b9150509250929050565b60006115b882611317565b9050919050565b6115c8816115ad565b82525050565b60006020820190506115e360008301846115bf565b92915050565b7f4e487b7100000000000000000000000000000000000000000000000000000000600052602260045260246000fd5b6000600282049050600182168061163057607f821691505b602082108103611643576116426115e9565b5b50919050565b7f4e487b7100000000000000000000000000000000000000000000000000000000600052601160045260246000fd5b600061168382611375565b915061168e83611375565b92508282019050808211156116a6576116a5611649565b5b92915050565b7f6e6f2061646d696e000000000000000000000000000000000000000000000000600082015250565b60006116e260088361126b565b91506116ed826116ac565b602082019050919050565b60006020820190508181036000830152611711816116d5565b9050919050565b60008160011c9050919050565b6000808291508390505b600185111561176f5780860481111561174b5761174a611649565b5b600185161561175a5780820291505b808102905061176885611718565b945061172f565b94509492505050565b6000826117885760019050611844565b816117965760009050611844565b81600181146117ac57600281146117b6576117e5565b6001915050611844565b60ff8411156117c8576117c7611649565b5b8360020a9150848211156117df576117de611649565b5b50611844565b5060208310610133831016604e8410600b841016171561181a5782820a90508381111561181557611814611649565b5b611844565b6118278484846001611725565b9250905081840481111561183e5761183d611649565b5b81810290505b9392505050565b600061185682611375565b91506118618361149e565b925061188e7fffffffffffffffffffffffffffffffffffffffffffffffffffffffffffffffff8484611778565b905092915050565b60006118a182611375565b91506118ac83611375565b92508282026118ba81611375565b915082820484148315176118d1576118d0611649565b5b5092915050565b6118e181611337565b82525050565b60006020820190506118fc60008301846118d8565b92915050565b6000815190506119118161137f565b92915050565b60006020828403121561192d5761192c611312565b5b600061193b84828501611902565b91505092915050565b600060408201905061195960008301856118d8565b6119666020830184611421565b9392505050565b611976816113eb565b811461198157600080fd5b50565b6000815190506119938161196d565b92915050565b6000602082840312156119af576119ae611312565b5b60006119bd84828501611984565b91505092915050565b7f45524332303a2064656372656173656420616c6c6f77616e63652062656c6f7760008201527f207a65726f000000000000000000000000000000000000000000000000000000602082015250565b6000611a2260258361126b565b9150611a2d826119c6565b604082019050919050565b60006020820190508181036000830152611a5181611a15565b9050919050565b7f45524332303a20617070726f76652066726f6d20746865207a65726f2061646460008201527f7265737300000000000000000000000000000000000000000000000000000000602082015250565b6000611ab460248361126b565b9150611abf82611a58565b604082019050919050565b60006020820190508181036000830152611ae381611aa7565b9050919050565b7f45524332303a20617070726f76652020746f20746865207a65726f206164647260008201527f6573730000000000000000000000000000000000000000000000000000000000602082015250565b6000611b4660238361126b565b9150611b5182611aea565b604082019050919050565b60006020820190508181036000830152611b7581611b39565b9050919050565b7f45524332303a20696e73756666696369656e7420616c6c6f77616e6365000000600082015250565b6000611bb2601d8361126b565b9150611bbd82611b7c565b602082019050919050565b60006020820190508181036000830152611be181611ba5565b9050919050565b7f45524332303a207472616e736665722066726f6d20746865207a65726f20616460008201527f6472657373000000000000000000000000000000000000000000000000000000602082015250565b6000611c4460258361126b565b9150611c4f82611be8565b604082019050919050565b60006020820190508181036000830152611c7381611c37565b9050919050565b7f45524332303a207472616e7366657220746f20746865207a65726f206164647260008201527f6573730000000000000000000000000000000000000000000000000000000000602082015250565b6000611cd660238361126b565b9150611ce182611c7a565b604082019050919050565b60006020820190508181036000830152611d0581611cc9565b9050919050565b7f45524332303a207472616e7366657220616d6f756e742065786365656473206260008201527f616c616e63650000000000000000000000000000000000000000000000000000602082015250565b6000611d6860268361126b565b9150611d7382611d0c565b604082019050919050565b60006020820190508181036000830152611d9781611d5b565b9050919050565b7f45524332303a206d696e7420746f20746865207a65726f206164647265737300600082015250565b6000611dd4601f8361126b565b9150611ddf82611d9e565b602082019050919050565b60006020820190508181036000830152611e0381611dc7565b905091905056fea26469706673582212200d6a51b6c7479e52dedde4be0f19c8c29b0f4ccba1d0bcdb0b226c7b326405b964736f6c63430008130033",
					"opcodes": "PUSH1 0x80 PUSH1 0x40 MSTORE PUSH1 0x40 MLOAD PUSH3 0x2A2C CODESIZE SUB DUP1 PUSH3 0x2A2C DUP4 CODECOPY DUP2 DUP2 ADD PUSH1 0x40 MSTORE DUP2 ADD SWAP1 PUSH3 0x29 SWAP2 SWAP1 PUSH3 0x4E3 JUMP JUMPDEST DUP5 PUSH1 0x3 SWAP1 DUP2 PUSH3 0x3A SWAP2 SWAP1 PUSH3 0x7EA JUMP JUMPDEST POP DUP4 PUSH1 0x4 SWAP1 DUP2 PUSH3 0x4C SWAP2 SWAP1 PUSH3 0x7EA JUMP JUMPDEST POP DUP3 PUSH1 0x5 PUSH1 0x0 PUSH2 0x100 EXP DUP2 SLOAD DUP2 PUSH1 0xFF MUL NOT AND SWAP1 DUP4 PUSH1 0xFF AND MUL OR SWAP1 SSTORE POP PUSH3 0xA4 DUP2 PUSH1 0x5 PUSH1 0x0 SWAP1 SLOAD SWAP1 PUSH2 0x100 EXP SWAP1 DIV PUSH1 0xFF AND PUSH1 0xA PUSH3 0x8B SWAP2 SWAP1 PUSH3 0xA54 JUMP JUMPDEST DUP5 PUSH3 0x98 SWAP2 SWAP1 PUSH3 0xAA5 JUMP JUMPDEST PUSH3 0xF0 PUSH1 0x20 SHL PUSH1 0x20 SHR JUMP JUMPDEST CALLER PUSH1 0x5 PUSH1 0x1 PUSH2 0x100 EXP DUP2 SLOAD DUP2 PUSH20 0xFFFFFFFFFFFFFFFFFFFFFFFFFFFFFFFFFFFFFFFF MUL NOT AND SWAP1 DUP4 PUSH20 0xFFFFFFFFFFFFFFFFFFFFFFFFFFFFFFFFFFFFFFFF AND MUL OR SWAP1 SSTORE POP POP POP POP POP POP PUSH3 0xBDC JUMP JUMPDEST PUSH1 0x0 PUSH20 0xFFFFFFFFFFFFFFFFFFFFFFFFFFFFFFFFFFFFFFFF AND DUP3 PUSH20 0xFFFFFFFFFFFFFFFFFFFFFFFFFFFFFFFFFFFFFFFF AND SUB PUSH3 0x162 JUMPI PUSH1 0x40 MLOAD PUSH32 0x8C379A000000000000000000000000000000000000000000000000000000000 DUP2 MSTORE PUSH1 0x4 ADD PUSH3 0x159 SWAP1 PUSH3 0xB51 JUMP JUMPDEST PUSH1 0x40 MLOAD DUP1 SWAP2 SUB SWAP1 REVERT JUMPDEST PUSH3 0x176 PUSH1 0x0 DUP4 DUP4 PUSH3 0x268 PUSH1 0x20 SHL PUSH1 0x20 SHR JUMP JUMPDEST DUP1 PUSH1 0x2 PUSH1 0x0 DUP3 DUP3 SLOAD PUSH3 0x18A SWAP2 SWAP1 PUSH3 0xB73 JUMP JUMPDEST SWAP3 POP POP DUP2 SWAP1 SSTORE POP DUP1 PUSH1 0x0 DUP1 DUP5 PUSH20 0xFFFFFFFFFFFFFFFFFFFFFFFFFFFFFFFFFFFFFFFF AND PUSH20 0xFFFFFFFFFFFFFFFFFFFFFFFFFFFFFFFFFFFFFFFF AND DUP2 MSTORE PUSH1 0x20 ADD SWAP1 DUP2 MSTORE PUSH1 0x20 ADD PUSH1 0x0 KECCAK256 PUSH1 0x0 DUP3 DUP3 SLOAD PUSH3 0x1E1 SWAP2 SWAP1 PUSH3 0xB73 JUMP JUMPDEST SWAP3 POP POP DUP2 SWAP1 SSTORE POP DUP2 PUSH20 0xFFFFFFFFFFFFFFFFFFFFFFFFFFFFFFFFFFFFFFFF AND PUSH1 0x0 PUSH20 0xFFFFFFFFFFFFFFFFFFFFFFFFFFFFFFFFFFFFFFFF AND PUSH32 0xDDF252AD1BE2C89B69C2B068FC378DAA952BA7F163C4A11628F55A4DF523B3EF DUP4 PUSH1 0x40 MLOAD PUSH3 0x248 SWAP2 SWAP1 PUSH3 0xBBF JUMP JUMPDEST PUSH1 0x40 MLOAD DUP1 SWAP2 SUB SWAP1 LOG3 PUSH3 0x264 PUSH1 0x0 DUP4 DUP4 PUSH3 0x26D PUSH1 0x20 SHL PUSH1 0x20 SHR JUMP JUMPDEST POP POP JUMP JUMPDEST POP POP POP JUMP JUMPDEST POP POP POP JUMP JUMPDEST PUSH1 0x0 PUSH1 0x40 MLOAD SWAP1 POP SWAP1 JUMP JUMPDEST PUSH1 0x0 DUP1 REVERT JUMPDEST PUSH1 0x0 DUP1 REVERT JUMPDEST PUSH1 0x0 DUP1 REVERT JUMPDEST PUSH1 0x0 DUP1 REVERT JUMPDEST PUSH1 0x0 PUSH1 0x1F NOT PUSH1 0x1F DUP4 ADD AND SWAP1 POP SWAP2 SWAP1 POP JUMP JUMPDEST PUSH32 0x4E487B7100000000000000000000000000000000000000000000000000000000 PUSH1 0x0 MSTORE PUSH1 0x41 PUSH1 0x4 MSTORE PUSH1 0x24 PUSH1 0x0 REVERT JUMPDEST PUSH3 0x2DB DUP3 PUSH3 0x290 JUMP JUMPDEST DUP2 ADD DUP2 DUP2 LT PUSH8 0xFFFFFFFFFFFFFFFF DUP3 GT OR ISZERO PUSH3 0x2FD JUMPI PUSH3 0x2FC PUSH3 0x2A1 JUMP JUMPDEST JUMPDEST DUP1 PUSH1 0x40 MSTORE POP POP POP JUMP JUMPDEST PUSH1 0x0 PUSH3 0x312 PUSH3 0x272 JUMP JUMPDEST SWAP1 POP PUSH3 0x320 DUP3 DUP3 PUSH3 0x2D0 JUMP JUMPDEST SWAP2 SWAP1 POP JUMP JUMPDEST PUSH1 0x0 PUSH8 0xFFFFFFFFFFFFFFFF DUP3 GT ISZERO PUSH3 0x343 JUMPI PUSH3 0x342 PUSH3 0x2A1 JUMP JUMPDEST JUMPDEST PUSH3 0x34E DUP3 PUSH3 0x290 JUMP JUMPDEST SWAP1 POP PUSH1 0x20 DUP2 ADD SWAP1 POP SWAP2 SWAP1 POP JUMP JUMPDEST PUSH1 0x0 JUMPDEST DUP4 DUP2 LT ISZERO PUSH3 0x37B JUMPI DUP1 DUP3 ADD MLOAD DUP2 DUP5 ADD MSTORE PUSH1 0x20 DUP2 ADD SWAP1 POP PUSH3 0x35E JUMP JUMPDEST PUSH1 0x0 DUP5 DUP5 ADD MSTORE POP POP POP POP JUMP JUMPDEST PUSH1 0x0 PUSH3 0x39E PUSH3 0x398 DUP5 PUSH3 0x325 JUMP JUMPDEST PUSH3 0x306 JUMP JUMPDEST SWAP1 POP DUP3 DUP2 MSTORE PUSH1 0x20 DUP2 ADD DUP5 DUP5 DUP5 ADD GT ISZERO PUSH3 0x3BD JUMPI PUSH3 0x3BC PUSH3 0x28B JUMP JUMPDEST JUMPDEST PUSH3 0x3CA DUP5 DUP3 DUP6 PUSH3 0x35B JUMP JUMPDEST POP SWAP4 SWAP3 POP POP POP JUMP JUMPDEST PUSH1 0x0 DUP3 PUSH1 0x1F DUP4 ADD SLT PUSH3 0x3EA JUMPI PUSH3 0x3E9 PUSH3 0x286 JUMP JUMPDEST JUMPDEST DUP2 MLOAD PUSH3 0x3FC DUP5 DUP3 PUSH1 0x20 DUP7 ADD PUSH3 0x387 JUMP JUMPDEST SWAP2 POP POP SWAP3 SWAP2 POP POP JUMP JUMPDEST PUSH1 0x0 PUSH1 0xFF DUP3 AND SWAP1 POP SWAP2 SWAP1 POP JUMP JUMPDEST PUSH3 0x41D DUP2 PUSH3 0x405 JUMP JUMPDEST DUP2 EQ PUSH3 0x429 JUMPI PUSH1 0x0 DUP1 REVERT JUMPDEST POP JUMP JUMPDEST PUSH1 0x0 DUP2 MLOAD SWAP1 POP PUSH3 0x43D DUP2 PUSH3 0x412 JUMP JUMPDEST SWAP3 SWAP2 POP POP JUMP JUMPDEST PUSH1 0x0 DUP2 SWAP1 POP SWAP2 SWAP1 POP JUMP JUMPDEST PUSH3 0x458 DUP2 PUSH3 0x443 JUMP JUMPDEST DUP2 EQ PUSH3 0x464 JUMPI PUSH1 0x0 DUP1 REVERT JUMPDEST POP JUMP JUMPDEST PUSH1 0x0 DUP2 MLOAD SWAP1 POP PUSH3 0x478 DUP2 PUSH3 0x44D JUMP JUMPDEST SWAP3 SWAP2 POP POP JUMP JUMPDEST PUSH1 0x0 PUSH20 0xFFFFFFFFFFFFFFFFFFFFFFFFFFFFFFFFFFFFFFFF DUP3 AND SWAP1 POP SWAP2 SWAP1 POP JUMP JUMPDEST PUSH1 0x0 PUSH3 0x4AB DUP3 PUSH3 0x47E JUMP JUMPDEST SWAP1 POP SWAP2 SWAP1 POP JUMP JUMPDEST PUSH3 0x4BD DUP2 PUSH3 0x49E JUMP JUMPDEST DUP2 EQ PUSH3 0x4C9 JUMPI PUSH1 0x0 DUP1 REVERT JUMPDEST POP JUMP JUMPDEST PUSH1 0x0 DUP2 MLOAD SWAP1 POP PUSH3 0x4DD DUP2 PUSH3 0x4B2 JUMP JUMPDEST SWAP3 SWAP2 POP POP JUMP JUMPDEST PUSH1 0x0 DUP1 PUSH1 0x0 DUP1 PUSH1 0x0 PUSH1 0xA0 DUP7 DUP9 SUB SLT ISZERO PUSH3 0x502 JUMPI PUSH3 0x501 PUSH3 0x27C JUMP JUMPDEST JUMPDEST PUSH1 0x0 DUP7 ADD MLOAD PUSH8 0xFFFFFFFFFFFFFFFF DUP2 GT ISZERO PUSH3 0x523 JUMPI PUSH3 0x522 PUSH3 0x281 JUMP JUMPDEST JUMPDEST PUSH3 0x531 DUP9 DUP3 DUP10 ADD PUSH3 0x3D2 JUMP JUMPDEST SWAP6 POP POP PUSH1 0x20 DUP7 ADD MLOAD PUSH8 0xFFFFFFFFFFFFFFFF DUP2 GT ISZERO PUSH3 0x555 JUMPI PUSH3 0x554 PUSH3 0x281 JUMP JUMPDEST JUMPDEST PUSH3 0x563 DUP9 DUP3 DUP10 ADD PUSH3 0x3D2 JUMP JUMPDEST SWAP5 POP POP PUSH1 0x40 PUSH3 0x576 DUP9 DUP3 DUP10 ADD PUSH3 0x42C JUMP JUMPDEST SWAP4 POP POP PUSH1 0x60 PUSH3 0x589 DUP9 DUP3 DUP10 ADD PUSH3 0x467 JUMP JUMPDEST SWAP3 POP POP PUSH1 0x80 PUSH3 0x59C DUP9 DUP3 DUP10 ADD PUSH3 0x4CC JUMP JUMPDEST SWAP2 POP POP SWAP3 SWAP6 POP SWAP3 SWAP6 SWAP1 SWAP4 POP JUMP JUMPDEST PUSH1 0x0 DUP2 MLOAD SWAP1 POP SWAP2 SWAP1 POP JUMP JUMPDEST PUSH32 0x4E487B7100000000000000000000000000000000000000000000000000000000 PUSH1 0x0 MSTORE PUSH1 0x22 PUSH1 0x4 MSTORE PUSH1 0x24 PUSH1 0x0 REVERT JUMPDEST PUSH1 0x0 PUSH1 0x2 DUP3 DIV SWAP1 POP PUSH1 0x1 DUP3 AND DUP1 PUSH3 0x5FC JUMPI PUSH1 0x7F DUP3 AND SWAP2 POP JUMPDEST PUSH1 0x20 DUP3 LT DUP2 SUB PUSH3 0x612 JUMPI PUSH3 0x611 PUSH3 0x5B4 JUMP JUMPDEST JUMPDEST POP SWAP2 SWAP1 POP JUMP JUMPDEST PUSH1 0x0 DUP2 SWAP1 POP DUP2 PUSH1 0x0 MSTORE PUSH1 0x20 PUSH1 0x0 KECCAK256 SWAP1 POP SWAP2 SWAP1 POP JUMP JUMPDEST PUSH1 0x0 PUSH1 0x20 PUSH1 0x1F DUP4 ADD DIV SWAP1 POP SWAP2 SWAP1 POP JUMP JUMPDEST PUSH1 0x0 DUP3 DUP3 SHL SWAP1 POP SWAP3 SWAP2 POP POP JUMP JUMPDEST PUSH1 0x0 PUSH1 0x8 DUP4 MUL PUSH3 0x67C PUSH32 0xFFFFFFFFFFFFFFFFFFFFFFFFFFFFFFFFFFFFFFFFFFFFFFFFFFFFFFFFFFFFFFFF DUP3 PUSH3 0x63D JUMP JUMPDEST PUSH3 0x688 DUP7 DUP4 PUSH3 0x63D JUMP JUMPDEST SWAP6 POP DUP1 NOT DUP5 AND SWAP4 POP DUP1 DUP7 AND DUP5 OR SWAP3 POP POP POP SWAP4 SWAP3 POP POP POP JUMP JUMPDEST PUSH1 0x0 DUP2 SWAP1 POP SWAP2 SWAP1 POP JUMP JUMPDEST PUSH1 0x0 PUSH3 0x6CB PUSH3 0x6C5 PUSH3 0x6BF DUP5 PUSH3 0x443 JUMP JUMPDEST PUSH3 0x6A0 JUMP JUMPDEST PUSH3 0x443 JUMP JUMPDEST SWAP1 POP SWAP2 SWAP1 POP JUMP JUMPDEST PUSH1 0x0 DUP2 SWAP1 POP SWAP2 SWAP1 POP JUMP JUMPDEST PUSH3 0x6E7 DUP4 PUSH3 0x6AA JUMP JUMPDEST PUSH3 0x6FF PUSH3 0x6F6 DUP3 PUSH3 0x6D2 JUMP JUMPDEST DUP5 DUP5 SLOAD PUSH3 0x64A JUMP JUMPDEST DUP3 SSTORE POP POP POP POP JUMP JUMPDEST PUSH1 0x0 SWAP1 JUMP JUMPDEST PUSH3 0x716 PUSH3 0x707 JUMP JUMPDEST PUSH3 0x723 DUP2 DUP5 DUP5 PUSH3 0x6DC JUMP JUMPDEST POP POP POP JUMP JUMPDEST JUMPDEST DUP2 DUP2 LT ISZERO PUSH3 0x74B JUMPI PUSH3 0x73F PUSH1 0x0 DUP3 PUSH3 0x70C JUMP JUMPDEST PUSH1 0x1 DUP2 ADD SWAP1 POP PUSH3 0x729 JUMP JUMPDEST POP POP JUMP JUMPDEST PUSH1 0x1F DUP3 GT ISZERO PUSH3 0x79A JUMPI PUSH3 0x764 DUP2 PUSH3 0x618 JUMP JUMPDEST PUSH3 0x76F DUP5 PUSH3 0x62D JUMP JUMPDEST DUP2 ADD PUSH1 0x20 DUP6 LT ISZERO PUSH3 0x77F JUMPI DUP2 SWAP1 POP JUMPDEST PUSH3 0x797 PUSH3 0x78E DUP6 PUSH3 0x62D JUMP JUMPDEST DUP4 ADD DUP3 PUSH3 0x728 JUMP JUMPDEST POP POP JUMPDEST POP POP POP JUMP JUMPDEST PUSH1 0x0 DUP3 DUP3 SHR SWAP1 POP SWAP3 SWAP2 POP POP JUMP JUMPDEST PUSH1 0x0 PUSH3 0x7BF PUSH1 0x0 NOT DUP5 PUSH1 0x8 MUL PUSH3 0x79F JUMP JUMPDEST NOT DUP1 DUP4 AND SWAP2 POP POP SWAP3 SWAP2 POP POP JUMP JUMPDEST PUSH1 0x0 PUSH3 0x7DA DUP4 DUP4 PUSH3 0x7AC JUMP JUMPDEST SWAP2 POP DUP3 PUSH1 0x2 MUL DUP3 OR SWAP1 POP SWAP3 SWAP2 POP POP JUMP JUMPDEST PUSH3 0x7F5 DUP3 PUSH3 0x5A9 JUMP JUMPDEST PUSH8 0xFFFFFFFFFFFFFFFF DUP2 GT ISZERO PUSH3 0x811 JUMPI PUSH3 0x810 PUSH3 0x2A1 JUMP JUMPDEST JUMPDEST PUSH3 0x81D DUP3 SLOAD PUSH3 0x5E3 JUMP JUMPDEST PUSH3 0x82A DUP3 DUP3 DUP6 PUSH3 0x74F JUMP JUMPDEST PUSH1 0x0 PUSH1 0x20 SWAP1 POP PUSH1 0x1F DUP4 GT PUSH1 0x1 DUP2 EQ PUSH3 0x862 JUMPI PUSH1 0x0 DUP5 ISZERO PUSH3 0x84D JUMPI DUP3 DUP8 ADD MLOAD SWAP1 POP JUMPDEST PUSH3 0x859 DUP6 DUP3 PUSH3 0x7CC JUMP JUMPDEST DUP7 SSTORE POP PUSH3 0x8C9 JUMP JUMPDEST PUSH1 0x1F NOT DUP5 AND PUSH3 0x872 DUP7 PUSH3 0x618 JUMP JUMPDEST PUSH1 0x0 JUMPDEST DUP3 DUP2 LT ISZERO PUSH3 0x89C JUMPI DUP5 DUP10 ADD MLOAD DUP3 SSTORE PUSH1 0x1 DUP3 ADD SWAP2 POP PUSH1 0x20 DUP6 ADD SWAP5 POP PUSH1 0x20 DUP2 ADD SWAP1 POP PUSH3 0x875 JUMP JUMPDEST DUP7 DUP4 LT ISZERO PUSH3 0x8BC JUMPI DUP5 DUP10 ADD MLOAD PUSH3 0x8B8 PUSH1 0x1F DUP10 AND DUP3 PUSH3 0x7AC JUMP JUMPDEST DUP4 SSTORE POP JUMPDEST PUSH1 0x1 PUSH1 0x2 DUP9 MUL ADD DUP9 SSTORE POP POP POP JUMPDEST POP POP POP POP POP POP JUMP JUMPDEST PUSH32 0x4E487B7100000000000000000000000000000000000000000000000000000000 PUSH1 0x0 MSTORE PUSH1 0x11 PUSH1 0x4 MSTORE PUSH1 0x24 PUSH1 0x0 REVERT JUMPDEST PUSH1 0x0 DUP2 PUSH1 0x1 SHR SWAP1 POP SWAP2 SWAP1 POP JUMP JUMPDEST PUSH1 0x0 DUP1 DUP3 SWAP2 POP DUP4 SWAP1 POP JUMPDEST PUSH1 0x1 DUP6 GT ISZERO PUSH3 0x95F JUMPI DUP1 DUP7 DIV DUP2 GT ISZERO PUSH3 0x937 JUMPI PUSH3 0x936 PUSH3 0x8D1 JUMP JUMPDEST JUMPDEST PUSH1 0x1 DUP6 AND ISZERO PUSH3 0x947 JUMPI DUP1 DUP3 MUL SWAP2 POP JUMPDEST DUP1 DUP2 MUL SWAP1 POP PUSH3 0x957 DUP6 PUSH3 0x900 JUMP JUMPDEST SWAP5 POP PUSH3 0x917 JUMP JUMPDEST SWAP5 POP SWAP5 SWAP3 POP POP POP JUMP JUMPDEST PUSH1 0x0 DUP3 PUSH3 0x97A JUMPI PUSH1 0x1 SWAP1 POP PUSH3 0xA4D JUMP JUMPDEST DUP2 PUSH3 0x98A JUMPI PUSH1 0x0 SWAP1 POP PUSH3 0xA4D JUMP JUMPDEST DUP2 PUSH1 0x1 DUP2 EQ PUSH3 0x9A3 JUMPI PUSH1 0x2 DUP2 EQ PUSH3 0x9AE JUMPI PUSH3 0x9E4 JUMP JUMPDEST PUSH1 0x1 SWAP2 POP POP PUSH3 0xA4D JUMP JUMPDEST PUSH1 0xFF DUP5 GT ISZERO PUSH3 0x9C3 JUMPI PUSH3 0x9C2 PUSH3 0x8D1 JUMP JUMPDEST JUMPDEST DUP4 PUSH1 0x2 EXP SWAP2 POP DUP5 DUP3 GT ISZERO PUSH3 0x9DD JUMPI PUSH3 0x9DC PUSH3 0x8D1 JUMP JUMPDEST JUMPDEST POP PUSH3 0xA4D JUMP JUMPDEST POP PUSH1 0x20 DUP4 LT PUSH2 0x133 DUP4 LT AND PUSH1 0x4E DUP5 LT PUSH1 0xB DUP5 LT AND OR ISZERO PUSH3 0xA1E JUMPI DUP3 DUP3 EXP SWAP1 POP DUP4 DUP2 GT ISZERO PUSH3 0xA18 JUMPI PUSH3 0xA17 PUSH3 0x8D1 JUMP JUMPDEST JUMPDEST PUSH3 0xA4D JUMP JUMPDEST PUSH3 0xA2D DUP5 DUP5 DUP5 PUSH1 0x1 PUSH3 0x90D JUMP JUMPDEST SWAP3 POP SWAP1 POP DUP2 DUP5 DIV DUP2 GT ISZERO PUSH3 0xA47 JUMPI PUSH3 0xA46 PUSH3 0x8D1 JUMP JUMPDEST JUMPDEST DUP2 DUP2 MUL SWAP1 POP JUMPDEST SWAP4 SWAP3 POP POP POP JUMP JUMPDEST PUSH1 0x0 PUSH3 0xA61 DUP3 PUSH3 0x443 JUMP JUMPDEST SWAP2 POP PUSH3 0xA6E DUP4 PUSH3 0x405 JUMP JUMPDEST SWAP3 POP PUSH3 0xA9D PUSH32 0xFFFFFFFFFFFFFFFFFFFFFFFFFFFFFFFFFFFFFFFFFFFFFFFFFFFFFFFFFFFFFFFF DUP5 DUP5 PUSH3 0x968 JUMP JUMPDEST SWAP1 POP SWAP3 SWAP2 POP POP JUMP JUMPDEST PUSH1 0x0 PUSH3 0xAB2 DUP3 PUSH3 0x443 JUMP JUMPDEST SWAP2 POP PUSH3 0xABF DUP4 PUSH3 0x443 JUMP JUMPDEST SWAP3 POP DUP3 DUP3 MUL PUSH3 0xACF DUP2 PUSH3 0x443 JUMP JUMPDEST SWAP2 POP DUP3 DUP3 DIV DUP5 EQ DUP4 ISZERO OR PUSH3 0xAE9 JUMPI PUSH3 0xAE8 PUSH3 0x8D1 JUMP JUMPDEST JUMPDEST POP SWAP3 SWAP2 POP POP JUMP JUMPDEST PUSH1 0x0 DUP3 DUP3 MSTORE PUSH1 0x20 DUP3 ADD SWAP1 POP SWAP3 SWAP2 POP POP JUMP JUMPDEST PUSH32 0x45524332303A206D696E7420746F20746865207A65726F206164647265737300 PUSH1 0x0 DUP3 ADD MSTORE POP JUMP JUMPDEST PUSH1 0x0 PUSH3 0xB39 PUSH1 0x1F DUP4 PUSH3 0xAF0 JUMP JUMPDEST SWAP2 POP PUSH3 0xB46 DUP3 PUSH3 0xB01 JUMP JUMPDEST PUSH1 0x20 DUP3 ADD SWAP1 POP SWAP2 SWAP1 POP JUMP JUMPDEST PUSH1 0x0 PUSH1 0x20 DUP3 ADD SWAP1 POP DUP2 DUP2 SUB PUSH1 0x0 DUP4 ADD MSTORE PUSH3 0xB6C DUP2 PUSH3 0xB2A JUMP JUMPDEST SWAP1 POP SWAP2 SWAP1 POP JUMP JUMPDEST PUSH1 0x0 PUSH3 0xB80 DUP3 PUSH3 0x443 JUMP JUMPDEST SWAP2 POP PUSH3 0xB8D DUP4 PUSH3 0x443 JUMP JUMPDEST SWAP3 POP DUP3 DUP3 ADD SWAP1 POP DUP1 DUP3 GT ISZERO PUSH3 0xBA8 JUMPI PUSH3 0xBA7 PUSH3 0x8D1 JUMP JUMPDEST JUMPDEST SWAP3 SWAP2 POP POP JUMP JUMPDEST PUSH3 0xBB9 DUP2 PUSH3 0x443 JUMP JUMPDEST DUP3 MSTORE POP POP JUMP JUMPDEST PUSH1 0x0 PUSH1 0x20 DUP3 ADD SWAP1 POP PUSH3 0xBD6 PUSH1 0x0 DUP4 ADD DUP5 PUSH3 0xBAE JUMP JUMPDEST SWAP3 SWAP2 POP POP JUMP JUMPDEST PUSH2 0x1E40 DUP1 PUSH3 0xBEC PUSH1 0x0 CODECOPY PUSH1 0x0 RETURN INVALID PUSH1 0x80 PUSH1 0x40 MSTORE PUSH1 0x4 CALLDATASIZE LT PUSH2 0xF7 JUMPI PUSH1 0x0 CALLDATALOAD PUSH1 0xE0 SHR DUP1 PUSH4 0x40C10F19 GT PUSH2 0x8A JUMPI DUP1 PUSH4 0xA457C2D7 GT PUSH2 0x59 JUMPI DUP1 PUSH4 0xA457C2D7 EQ PUSH2 0x325 JUMPI DUP1 PUSH4 0xA9059CBB EQ PUSH2 0x362 JUMPI DUP1 PUSH4 0xDD62ED3E EQ PUSH2 0x39F JUMPI DUP1 PUSH4 0xFC6F9468 EQ PUSH2 0x3DC JUMPI PUSH2 0xFE JUMP JUMPDEST DUP1 PUSH4 0x40C10F19 EQ PUSH2 0x278 JUMPI DUP1 PUSH4 0x70A08231 EQ PUSH2 0x2A1 JUMPI DUP1 PUSH4 0x89476069 EQ PUSH2 0x2DE JUMPI DUP1 PUSH4 0x95D89B41 EQ PUSH2 0x2FA JUMPI PUSH2 0xFE JUMP JUMPDEST DUP1 PUSH4 0x313CE567 GT PUSH2 0xC6 JUMPI DUP1 PUSH4 0x313CE567 EQ PUSH2 0x1D0 JUMPI DUP1 PUSH4 0x39509351 EQ PUSH2 0x1FB JUMPI DUP1 PUSH4 0x3CCFD60B EQ PUSH2 0x238 JUMPI DUP1 PUSH4 0x3D128EEC EQ PUSH2 0x24F JUMPI PUSH2 0xFE JUMP JUMPDEST DUP1 PUSH4 0x6FDDE03 EQ PUSH2 0x100 JUMPI DUP1 PUSH4 0x95EA7B3 EQ PUSH2 0x12B JUMPI DUP1 PUSH4 0x18160DDD EQ PUSH2 0x168 JUMPI DUP1 PUSH4 0x23B872DD EQ PUSH2 0x193 JUMPI PUSH2 0xFE JUMP JUMPDEST CALLDATASIZE PUSH2 0xFE JUMPI STOP JUMPDEST STOP JUMPDEST CALLVALUE DUP1 ISZERO PUSH2 0x10C JUMPI PUSH1 0x0 DUP1 REVERT JUMPDEST POP PUSH2 0x115 PUSH2 0x407 JUMP JUMPDEST PUSH1 0x40 MLOAD PUSH2 0x122 SWAP2 SWAP1 PUSH2 0x12F0 JUMP JUMPDEST PUSH1 0x40 MLOAD DUP1 SWAP2 SUB SWAP1 RETURN JUMPDEST CALLVALUE DUP1 ISZERO PUSH2 0x137 JUMPI PUSH1 0x0 DUP1 REVERT JUMPDEST POP PUSH2 0x152 PUSH1 0x4 DUP1 CALLDATASIZE SUB DUP2 ADD SWAP1 PUSH2 0x14D SWAP2 SWAP1 PUSH2 0x13AB JUMP JUMPDEST PUSH2 0x499 JUMP JUMPDEST PUSH1 0x40 MLOAD PUSH2 0x15F SWAP2 SWAP1 PUSH2 0x1406 JUMP JUMPDEST PUSH1 0x40 MLOAD DUP1 SWAP2 SUB SWAP1 RETURN JUMPDEST CALLVALUE DUP1 ISZERO PUSH2 0x174 JUMPI PUSH1 0x0 DUP1 REVERT JUMPDEST POP PUSH2 0x17D PUSH2 0x4B5 JUMP JUMPDEST PUSH1 0x40 MLOAD PUSH2 0x18A SWAP2 SWAP1 PUSH2 0x1430 JUMP JUMPDEST PUSH1 0x40 MLOAD DUP1 SWAP2 SUB SWAP1 RETURN JUMPDEST CALLVALUE DUP1 ISZERO PUSH2 0x19F JUMPI PUSH1 0x0 DUP1 REVERT JUMPDEST POP PUSH2 0x1BA PUSH1 0x4 DUP1 CALLDATASIZE SUB DUP2 ADD SWAP1 PUSH2 0x1B5 SWAP2 SWAP1 PUSH2 0x144B JUMP JUMPDEST PUSH2 0x4BF JUMP JUMPDEST PUSH1 0x40 MLOAD PUSH2 0x1C7 SWAP2 SWAP1 PUSH2 0x1406 JUMP JUMPDEST PUSH1 0x40 MLOAD DUP1 SWAP2 SUB SWAP1 RETURN JUMPDEST CALLVALUE DUP1 ISZERO PUSH2 0x1DC JUMPI PUSH1 0x0 DUP1 REVERT JUMPDEST POP PUSH2 0x1E5 PUSH2 0x4E7 JUMP JUMPDEST PUSH1 0x40 MLOAD PUSH2 0x1F2 SWAP2 SWAP1 PUSH2 0x14BA JUMP JUMPDEST PUSH1 0x40 MLOAD DUP1 SWAP2 SUB SWAP1 RETURN JUMPDEST CALLVALUE DUP1 ISZERO PUSH2 0x207 JUMPI PUSH1 0x0 DUP1 REVERT JUMPDEST POP PUSH2 0x222 PUSH1 0x4 DUP1 CALLDATASIZE SUB DUP2 ADD SWAP1 PUSH2 0x21D SWAP2 SWAP1 PUSH2 0x13AB JUMP JUMPDEST PUSH2 0x4FE JUMP JUMPDEST PUSH1 0x40 MLOAD PUSH2 0x22F SWAP2 SWAP1 PUSH2 0x1406 JUMP JUMPDEST PUSH1 0x40 MLOAD DUP1 SWAP2 SUB SWAP1 RETURN JUMPDEST CALLVALUE DUP1 ISZERO PUSH2 0x244 JUMPI PUSH1 0x0 DUP1 REVERT JUMPDEST POP PUSH2 0x24D PUSH2 0x5A1 JUMP JUMPDEST STOP JUMPDEST CALLVALUE DUP1 ISZERO PUSH2 0x25B JUMPI PUSH1 0x0 DUP1 REVERT JUMPDEST POP PUSH2 0x276 PUSH1 0x4 DUP1 CALLDATASIZE SUB DUP2 ADD SWAP1 PUSH2 0x271 SWAP2 SWAP1 PUSH2 0x14D5 JUMP JUMPDEST PUSH2 0x67A JUMP JUMPDEST STOP JUMPDEST CALLVALUE DUP1 ISZERO PUSH2 0x284 JUMPI PUSH1 0x0 DUP1 REVERT JUMPDEST POP PUSH2 0x29F PUSH1 0x4 DUP1 CALLDATASIZE SUB DUP2 ADD SWAP1 PUSH2 0x29A SWAP2 SWAP1 PUSH2 0x13AB JUMP JUMPDEST PUSH2 0x74E JUMP JUMPDEST STOP JUMPDEST CALLVALUE DUP1 ISZERO PUSH2 0x2AD JUMPI PUSH1 0x0 DUP1 REVERT JUMPDEST POP PUSH2 0x2C8 PUSH1 0x4 DUP1 CALLDATASIZE SUB DUP2 ADD SWAP1 PUSH2 0x2C3 SWAP2 SWAP1 PUSH2 0x14D5 JUMP JUMPDEST PUSH2 0x812 JUMP JUMPDEST PUSH1 0x40 MLOAD PUSH2 0x2D5 SWAP2 SWAP1 PUSH2 0x1430 JUMP JUMPDEST PUSH1 0x40 MLOAD DUP1 SWAP2 SUB SWAP1 RETURN JUMPDEST PUSH2 0x2F8 PUSH1 0x4 DUP1 CALLDATASIZE SUB DUP2 ADD SWAP1 PUSH2 0x2F3 SWAP2 SWAP1 PUSH2 0x1540 JUMP JUMPDEST PUSH2 0x85A JUMP JUMPDEST STOP JUMPDEST CALLVALUE DUP1 ISZERO PUSH2 0x306 JUMPI PUSH1 0x0 DUP1 REVERT JUMPDEST POP PUSH2 0x30F PUSH2 0x9E5 JUMP JUMPDEST PUSH1 0x40 MLOAD PUSH2 0x31C SWAP2 SWAP1 PUSH2 0x12F0 JUMP JUMPDEST PUSH1 0x40 MLOAD DUP1 SWAP2 SUB SWAP1 RETURN JUMPDEST CALLVALUE DUP1 ISZERO PUSH2 0x331 JUMPI PUSH1 0x0 DUP1 REVERT JUMPDEST POP PUSH2 0x34C PUSH1 0x4 DUP1 CALLDATASIZE SUB DUP2 ADD SWAP1 PUSH2 0x347 SWAP2 SWAP1 PUSH2 0x13AB JUMP JUMPDEST PUSH2 0xA77 JUMP JUMPDEST PUSH1 0x40 MLOAD PUSH2 0x359 SWAP2 SWAP1 PUSH2 0x1406 JUMP JUMPDEST PUSH1 0x40 MLOAD DUP1 SWAP2 SUB SWAP1 RETURN JUMPDEST CALLVALUE DUP1 ISZERO PUSH2 0x36E JUMPI PUSH1 0x0 DUP1 REVERT JUMPDEST POP PUSH2 0x389 PUSH1 0x4 DUP1 CALLDATASIZE SUB DUP2 ADD SWAP1 PUSH2 0x384 SWAP2 SWAP1 PUSH2 0x13AB JUMP JUMPDEST PUSH2 0xB5A JUMP JUMPDEST PUSH1 0x40 MLOAD PUSH2 0x396 SWAP2 SWAP1 PUSH2 0x1406 JUMP JUMPDEST PUSH1 0x40 MLOAD DUP1 SWAP2 SUB SWAP1 RETURN JUMPDEST CALLVALUE DUP1 ISZERO PUSH2 0x3AB JUMPI PUSH1 0x0 DUP1 REVERT JUMPDEST POP PUSH2 0x3C6 PUSH1 0x4 DUP1 CALLDATASIZE SUB DUP2 ADD SWAP1 PUSH2 0x3C1 SWAP2 SWAP1 PUSH2 0x156D JUMP JUMPDEST PUSH2 0xB76 JUMP JUMPDEST PUSH1 0x40 MLOAD PUSH2 0x3D3 SWAP2 SWAP1 PUSH2 0x1430 JUMP JUMPDEST PUSH1 0x40 MLOAD DUP1 SWAP2 SUB SWAP1 RETURN JUMPDEST CALLVALUE DUP1 ISZERO PUSH2 0x3E8 JUMPI PUSH1 0x0 DUP1 REVERT JUMPDEST POP PUSH2 0x3F1 PUSH2 0xBFD JUMP JUMPDEST PUSH1 0x40 MLOAD PUSH2 0x3FE SWAP2 SWAP1 PUSH2 0x15CE JUMP JUMPDEST PUSH1 0x40 MLOAD DUP1 SWAP2 SUB SWAP1 RETURN JUMPDEST PUSH1 0x60 PUSH1 0x3 DUP1 SLOAD PUSH2 0x416 SWAP1 PUSH2 0x1618 JUMP JUMPDEST DUP1 PUSH1 0x1F ADD PUSH1 0x20 DUP1 SWAP2 DIV MUL PUSH1 0x20 ADD PUSH1 0x40 MLOAD SWAP1 DUP2 ADD PUSH1 0x40 MSTORE DUP1 SWAP3 SWAP2 SWAP1 DUP2 DUP2 MSTORE PUSH1 0x20 ADD DUP3 DUP1 SLOAD PUSH2 0x442 SWAP1 PUSH2 0x1618 JUMP JUMPDEST DUP1 ISZERO PUSH2 0x48F JUMPI DUP1 PUSH1 0x1F LT PUSH2 0x464 JUMPI PUSH2 0x100 DUP1 DUP4 SLOAD DIV MUL DUP4 MSTORE SWAP2 PUSH1 0x20 ADD SWAP2 PUSH2 0x48F JUMP JUMPDEST DUP3 ADD SWAP2 SWAP1 PUSH1 0x0 MSTORE PUSH1 0x20 PUSH1 0x0 KECCAK256 SWAP1 JUMPDEST DUP2 SLOAD DUP2 MSTORE SWAP1 PUSH1 0x1 ADD SWAP1 PUSH1 0x20 ADD DUP1 DUP4 GT PUSH2 0x472 JUMPI DUP3 SWAP1 SUB PUSH1 0x1F AND DUP3 ADD SWAP2 JUMPDEST POP POP POP POP POP SWAP1 POP SWAP1 JUMP JUMPDEST PUSH1 0x0 DUP1 CALLER SWAP1 POP PUSH2 0x4AA DUP2 DUP6 DUP6 PUSH2 0xC23 JUMP JUMPDEST PUSH1 0x1 SWAP2 POP POP SWAP3 SWAP2 POP POP JUMP JUMPDEST PUSH1 0x0 PUSH1 0x2 SLOAD SWAP1 POP SWAP1 JUMP JUMPDEST PUSH1 0x0 DUP1 CALLER SWAP1 POP PUSH2 0x4D0 DUP6 DUP3 DUP6 PUSH2 0xDEC JUMP JUMPDEST PUSH2 0x4DB DUP6 DUP6 DUP6 PUSH2 0xE78 JUMP JUMPDEST PUSH1 0x1 SWAP2 POP POP SWAP4 SWAP3 POP POP POP JUMP JUMPDEST PUSH1 0x0 PUSH1 0x5 PUSH1 0x0 SWAP1 SLOAD SWAP1 PUSH2 0x100 EXP SWAP1 DIV PUSH1 0xFF AND SWAP1 POP SWAP1 JUMP JUMPDEST PUSH1 0x0 DUP1 CALLER SWAP1 POP PUSH2 0x596 DUP2 DUP6 DUP6 PUSH1 0x1 PUSH1 0x0 DUP7 PUSH20 0xFFFFFFFFFFFFFFFFFFFFFFFFFFFFFFFFFFFFFFFF AND PUSH20 0xFFFFFFFFFFFFFFFFFFFFFFFFFFFFFFFFFFFFFFFF AND DUP2 MSTORE PUSH1 0x20 ADD SWAP1 DUP2 MSTORE PUSH1 0x20 ADD PUSH1 0x0 KECCAK256 PUSH1 0x0 DUP10 PUSH20 0xFFFFFFFFFFFFFFFFFFFFFFFFFFFFFFFFFFFFFFFF AND PUSH20 0xFFFFFFFFFFFFFFFFFFFFFFFFFFFFFFFFFFFFFFFF AND DUP2 MSTORE PUSH1 0x20 ADD SWAP1 DUP2 MSTORE PUSH1 0x20 ADD PUSH1 0x0 KECCAK256 SLOAD PUSH2 0x591 SWAP2 SWAP1 PUSH2 0x1678 JUMP JUMPDEST PUSH2 0xC23 JUMP JUMPDEST PUSH1 0x1 SWAP2 POP POP SWAP3 SWAP2 POP POP JUMP JUMPDEST PUSH1 0x5 PUSH1 0x1 SWAP1 SLOAD SWAP1 PUSH2 0x100 EXP SWAP1 DIV PUSH20 0xFFFFFFFFFFFFFFFFFFFFFFFFFFFFFFFFFFFFFFFF AND PUSH20 0xFFFFFFFFFFFFFFFFFFFFFFFFFFFFFFFFFFFFFFFF AND CALLER PUSH20 0xFFFFFFFFFFFFFFFFFFFFFFFFFFFFFFFFFFFFFFFF AND EQ PUSH2 0x631 JUMPI PUSH1 0x40 MLOAD PUSH32 0x8C379A000000000000000000000000000000000000000000000000000000000 DUP2 MSTORE PUSH1 0x4 ADD PUSH2 0x628 SWAP1 PUSH2 0x16F8 JUMP JUMPDEST PUSH1 0x40 MLOAD DUP1 SWAP2 SUB SWAP1 REVERT JUMPDEST CALLER PUSH20 0xFFFFFFFFFFFFFFFFFFFFFFFFFFFFFFFFFFFFFFFF AND PUSH2 0x8FC SELFBALANCE SWAP1 DUP2 ISZERO MUL SWAP1 PUSH1 0x40 MLOAD PUSH1 0x0 PUSH1 0x40 MLOAD DUP1 DUP4 SUB DUP2 DUP6 DUP9 DUP9 CALL SWAP4 POP POP POP POP ISZERO DUP1 ISZERO PUSH2 0x677 JUMPI RETURNDATASIZE PUSH1 0x0 DUP1 RETURNDATACOPY RETURNDATASIZE PUSH1 0x0 REVERT JUMPDEST POP JUMP JUMPDEST PUSH1 0x5 PUSH1 0x1 SWAP1 SLOAD SWAP1 PUSH2 0x100 EXP SWAP1 DIV PUSH20 0xFFFFFFFFFFFFFFFFFFFFFFFFFFFFFFFFFFFFFFFF AND PUSH20 0xFFFFFFFFFFFFFFFFFFFFFFFFFFFFFFFFFFFFFFFF AND CALLER PUSH20 0xFFFFFFFFFFFFFFFFFFFFFFFFFFFFFFFFFFFFFFFF AND EQ PUSH2 0x70A JUMPI PUSH1 0x40 MLOAD PUSH32 0x8C379A000000000000000000000000000000000000000000000000000000000 DUP2 MSTORE PUSH1 0x4 ADD PUSH2 0x701 SWAP1 PUSH2 0x16F8 JUMP JUMPDEST PUSH1 0x40 MLOAD DUP1 SWAP2 SUB SWAP1 REVERT JUMPDEST DUP1 PUSH1 0x5 PUSH1 0x1 PUSH2 0x100 EXP DUP2 SLOAD DUP2 PUSH20 0xFFFFFFFFFFFFFFFFFFFFFFFFFFFFFFFFFFFFFFFF MUL NOT AND SWAP1 DUP4 PUSH20 0xFFFFFFFFFFFFFFFFFFFFFFFFFFFFFFFFFFFFFFFF AND MUL OR SWAP1 SSTORE POP POP JUMP JUMPDEST PUSH1 0x5 PUSH1 0x1 SWAP1 SLOAD SWAP1 PUSH2 0x100 EXP SWAP1 DIV PUSH20 0xFFFFFFFFFFFFFFFFFFFFFFFFFFFFFFFFFFFFFFFF AND PUSH20 0xFFFFFFFFFFFFFFFFFFFFFFFFFFFFFFFFFFFFFFFF AND CALLER PUSH20 0xFFFFFFFFFFFFFFFFFFFFFFFFFFFFFFFFFFFFFFFF AND EQ PUSH2 0x7DE JUMPI PUSH1 0x40 MLOAD PUSH32 0x8C379A000000000000000000000000000000000000000000000000000000000 DUP2 MSTORE PUSH1 0x4 ADD PUSH2 0x7D5 SWAP1 PUSH2 0x16F8 JUMP JUMPDEST PUSH1 0x40 MLOAD DUP1 SWAP2 SUB SWAP1 REVERT JUMPDEST PUSH2 0x80E DUP3 PUSH1 0x5 PUSH1 0x0 SWAP1 SLOAD SWAP1 PUSH2 0x100 EXP SWAP1 DIV PUSH1 0xFF AND PUSH1 0xA PUSH2 0x7FE SWAP2 SWAP1 PUSH2 0x184B JUMP JUMPDEST DUP4 PUSH2 0x809 SWAP2 SWAP1 PUSH2 0x1896 JUMP JUMPDEST PUSH2 0x10F7 JUMP JUMPDEST POP POP JUMP JUMPDEST PUSH1 0x0 DUP1 PUSH1 0x0 DUP4 PUSH20 0xFFFFFFFFFFFFFFFFFFFFFFFFFFFFFFFFFFFFFFFF AND PUSH20 0xFFFFFFFFFFFFFFFFFFFFFFFFFFFFFFFFFFFFFFFF AND DUP2 MSTORE PUSH1 0x20 ADD SWAP1 DUP2 MSTORE PUSH1 0x20 ADD PUSH1 0x0 KECCAK256 SLOAD SWAP1 POP SWAP2 SWAP1 POP JUMP JUMPDEST PUSH1 0x5 PUSH1 0x1 SWAP1 SLOAD SWAP1 PUSH2 0x100 EXP SWAP1 DIV PUSH20 0xFFFFFFFFFFFFFFFFFFFFFFFFFFFFFFFFFFFFFFFF AND PUSH20 0xFFFFFFFFFFFFFFFFFFFFFFFFFFFFFFFFFFFFFFFF AND CALLER PUSH20 0xFFFFFFFFFFFFFFFFFFFFFFFFFFFFFFFFFFFFFFFF AND EQ PUSH2 0x8EA JUMPI PUSH1 0x40 MLOAD PUSH32 0x8C379A000000000000000000000000000000000000000000000000000000000 DUP2 MSTORE PUSH1 0x4 ADD PUSH2 0x8E1 SWAP1 PUSH2 0x16F8 JUMP JUMPDEST PUSH1 0x40 MLOAD DUP1 SWAP2 SUB SWAP1 REVERT JUMPDEST DUP1 PUSH20 0xFFFFFFFFFFFFFFFFFFFFFFFFFFFFFFFFFFFFFFFF AND PUSH4 0xA9059CBB CALLER DUP4 PUSH20 0xFFFFFFFFFFFFFFFFFFFFFFFFFFFFFFFFFFFFFFFF AND PUSH4 0x70A08231 ADDRESS PUSH1 0x40 MLOAD DUP3 PUSH4 0xFFFFFFFF AND PUSH1 0xE0 SHL DUP2 MSTORE PUSH1 0x4 ADD PUSH2 0x940 SWAP2 SWAP1 PUSH2 0x18E7 JUMP JUMPDEST PUSH1 0x20 PUSH1 0x40 MLOAD DUP1 DUP4 SUB DUP2 DUP7 GAS STATICCALL ISZERO DUP1 ISZERO PUSH2 0x95D JUMPI RETURNDATASIZE PUSH1 0x0 DUP1 RETURNDATACOPY RETURNDATASIZE PUSH1 0x0 REVERT JUMPDEST POP POP POP POP PUSH1 0x40 MLOAD RETURNDATASIZE PUSH1 0x1F NOT PUSH1 0x1F DUP3 ADD AND DUP3 ADD DUP1 PUSH1 0x40 MSTORE POP DUP2 ADD SWAP1 PUSH2 0x981 SWAP2 SWAP1 PUSH2 0x1917 JUMP JUMPDEST PUSH1 0x40 MLOAD DUP4 PUSH4 0xFFFFFFFF AND PUSH1 0xE0 SHL DUP2 MSTORE PUSH1 0x4 ADD PUSH2 0x99E SWAP3 SWAP2 SWAP1 PUSH2 0x1944 JUMP JUMPDEST PUSH1 0x20 PUSH1 0x40 MLOAD DUP1 DUP4 SUB DUP2 PUSH1 0x0 DUP8 GAS CALL ISZERO DUP1 ISZERO PUSH2 0x9BD JUMPI RETURNDATASIZE PUSH1 0x0 DUP1 RETURNDATACOPY RETURNDATASIZE PUSH1 0x0 REVERT JUMPDEST POP POP POP POP PUSH1 0x40 MLOAD RETURNDATASIZE PUSH1 0x1F NOT PUSH1 0x1F DUP3 ADD AND DUP3 ADD DUP1 PUSH1 0x40 MSTORE POP DUP2 ADD SWAP1 PUSH2 0x9E1 SWAP2 SWAP1 PUSH2 0x1999 JUMP JUMPDEST POP POP JUMP JUMPDEST PUSH1 0x60 PUSH1 0x4 DUP1 SLOAD PUSH2 0x9F4 SWAP1 PUSH2 0x1618 JUMP JUMPDEST DUP1 PUSH1 0x1F ADD PUSH1 0x20 DUP1 SWAP2 DIV MUL PUSH1 0x20 ADD PUSH1 0x40 MLOAD SWAP1 DUP2 ADD PUSH1 0x40 MSTORE DUP1 SWAP3 SWAP2 SWAP1 DUP2 DUP2 MSTORE PUSH1 0x20 ADD DUP3 DUP1 SLOAD PUSH2 0xA20 SWAP1 PUSH2 0x1618 JUMP JUMPDEST DUP1 ISZERO PUSH2 0xA6D JUMPI DUP1 PUSH1 0x1F LT PUSH2 0xA42 JUMPI PUSH2 0x100 DUP1 DUP4 SLOAD DIV MUL DUP4 MSTORE SWAP2 PUSH1 0x20 ADD SWAP2 PUSH2 0xA6D JUMP JUMPDEST DUP3 ADD SWAP2 SWAP1 PUSH1 0x0 MSTORE PUSH1 0x20 PUSH1 0x0 KECCAK256 SWAP1 JUMPDEST DUP2 SLOAD DUP2 MSTORE SWAP1 PUSH1 0x1 ADD SWAP1 PUSH1 0x20 ADD DUP1 DUP4 GT PUSH2 0xA50 JUMPI DUP3 SWAP1 SUB PUSH1 0x1F AND DUP3 ADD SWAP2 JUMPDEST POP POP POP POP POP SWAP1 POP SWAP1 JUMP JUMPDEST PUSH1 0x0 DUP1 CALLER SWAP1 POP PUSH1 0x0 PUSH1 0x1 PUSH1 0x0 DUP4 PUSH20 0xFFFFFFFFFFFFFFFFFFFFFFFFFFFFFFFFFFFFFFFF AND PUSH20 0xFFFFFFFFFFFFFFFFFFFFFFFFFFFFFFFFFFFFFFFF AND DUP2 MSTORE PUSH1 0x20 ADD SWAP1 DUP2 MSTORE PUSH1 0x20 ADD PUSH1 0x0 KECCAK256 PUSH1 0x0 DUP7 PUSH20 0xFFFFFFFFFFFFFFFFFFFFFFFFFFFFFFFFFFFFFFFF AND PUSH20 0xFFFFFFFFFFFFFFFFFFFFFFFFFFFFFFFFFFFFFFFF AND DUP2 MSTORE PUSH1 0x20 ADD SWAP1 DUP2 MSTORE PUSH1 0x20 ADD PUSH1 0x0 KECCAK256 SLOAD SWAP1 POP DUP4 DUP2 LT ISZERO PUSH2 0xB41 JUMPI PUSH1 0x40 MLOAD PUSH32 0x8C379A000000000000000000000000000000000000000000000000000000000 DUP2 MSTORE PUSH1 0x4 ADD PUSH2 0xB38 SWAP1 PUSH2 0x1A38 JUMP JUMPDEST PUSH1 0x40 MLOAD DUP1 SWAP2 SUB SWAP1 REVERT JUMPDEST PUSH2 0xB4E DUP3 DUP7 DUP7 DUP5 SUB PUSH2 0xC23 JUMP JUMPDEST PUSH1 0x1 SWAP3 POP POP POP SWAP3 SWAP2 POP POP JUMP JUMPDEST PUSH1 0x0 DUP1 CALLER SWAP1 POP PUSH2 0xB6B DUP2 DUP6 DUP6 PUSH2 0xE78 JUMP JUMPDEST PUSH1 0x1 SWAP2 POP POP SWAP3 SWAP2 POP POP JUMP JUMPDEST PUSH1 0x0 PUSH1 0x1 PUSH1 0x0 DUP5 PUSH20 0xFFFFFFFFFFFFFFFFFFFFFFFFFFFFFFFFFFFFFFFF AND PUSH20 0xFFFFFFFFFFFFFFFFFFFFFFFFFFFFFFFFFFFFFFFF AND DUP2 MSTORE PUSH1 0x20 ADD SWAP1 DUP2 MSTORE PUSH1 0x20 ADD PUSH1 0x0 KECCAK256 PUSH1 0x0 DUP4 PUSH20 0xFFFFFFFFFFFFFFFFFFFFFFFFFFFFFFFFFFFFFFFF AND PUSH20 0xFFFFFFFFFFFFFFFFFFFFFFFFFFFFFFFFFFFFFFFF AND DUP2 MSTORE PUSH1 0x20 ADD SWAP1 DUP2 MSTORE PUSH1 0x20 ADD PUSH1 0x0 KECCAK256 SLOAD SWAP1 POP SWAP3 SWAP2 POP POP JUMP JUMPDEST PUSH1 0x5 PUSH1 0x1 SWAP1 SLOAD SWAP1 PUSH2 0x100 EXP SWAP1 DIV PUSH20 0xFFFFFFFFFFFFFFFFFFFFFFFFFFFFFFFFFFFFFFFF AND DUP2 JUMP JUMPDEST PUSH1 0x0 PUSH20 0xFFFFFFFFFFFFFFFFFFFFFFFFFFFFFFFFFFFFFFFF AND DUP4 PUSH20 0xFFFFFFFFFFFFFFFFFFFFFFFFFFFFFFFFFFFFFFFF AND SUB PUSH2 0xC92 JUMPI PUSH1 0x40 MLOAD PUSH32 0x8C379A000000000000000000000000000000000000000000000000000000000 DUP2 MSTORE PUSH1 0x4 ADD PUSH2 0xC89 SWAP1 PUSH2 0x1ACA JUMP JUMPDEST PUSH1 0x40 MLOAD DUP1 SWAP2 SUB SWAP1 REVERT JUMPDEST PUSH1 0x0 PUSH20 0xFFFFFFFFFFFFFFFFFFFFFFFFFFFFFFFFFFFFFFFF AND DUP3 PUSH20 0xFFFFFFFFFFFFFFFFFFFFFFFFFFFFFFFFFFFFFFFF AND SUB PUSH2 0xD01 JUMPI PUSH1 0x40 MLOAD PUSH32 0x8C379A000000000000000000000000000000000000000000000000000000000 DUP2 MSTORE PUSH1 0x4 ADD PUSH2 0xCF8 SWAP1 PUSH2 0x1B5C JUMP JUMPDEST PUSH1 0x40 MLOAD DUP1 SWAP2 SUB SWAP1 REVERT JUMPDEST DUP1 PUSH1 0x1 PUSH1 0x0 DUP6 PUSH20 0xFFFFFFFFFFFFFFFFFFFFFFFFFFFFFFFFFFFFFFFF AND PUSH20 0xFFFFFFFFFFFFFFFFFFFFFFFFFFFFFFFFFFFFFFFF AND DUP2 MSTORE PUSH1 0x20 ADD SWAP1 DUP2 MSTORE PUSH1 0x20 ADD PUSH1 0x0 KECCAK256 PUSH1 0x0 DUP5 PUSH20 0xFFFFFFFFFFFFFFFFFFFFFFFFFFFFFFFFFFFFFFFF AND PUSH20 0xFFFFFFFFFFFFFFFFFFFFFFFFFFFFFFFFFFFFFFFF AND DUP2 MSTORE PUSH1 0x20 ADD SWAP1 DUP2 MSTORE PUSH1 0x20 ADD PUSH1 0x0 KECCAK256 DUP2 SWAP1 SSTORE POP DUP2 PUSH20 0xFFFFFFFFFFFFFFFFFFFFFFFFFFFFFFFFFFFFFFFF AND DUP4 PUSH20 0xFFFFFFFFFFFFFFFFFFFFFFFFFFFFFFFFFFFFFFFF AND PUSH32 0x8C5BE1E5EBEC7D5BD14F71427D1E84F3DD0314C0F7B2291E5B200AC8C7C3B925 DUP4 PUSH1 0x40 MLOAD PUSH2 0xDDF SWAP2 SWAP1 PUSH2 0x1430 JUMP JUMPDEST PUSH1 0x40 MLOAD DUP1 SWAP2 SUB SWAP1 LOG3 POP POP POP JUMP JUMPDEST PUSH1 0x0 PUSH2 0xDF8 DUP5 DUP5 PUSH2 0xB76 JUMP JUMPDEST SWAP1 POP PUSH32 0xFFFFFFFFFFFFFFFFFFFFFFFFFFFFFFFFFFFFFFFFFFFFFFFFFFFFFFFFFFFFFFFF DUP2 EQ PUSH2 0xE72 JUMPI DUP2 DUP2 LT ISZERO PUSH2 0xE64 JUMPI PUSH1 0x40 MLOAD PUSH32 0x8C379A000000000000000000000000000000000000000000000000000000000 DUP2 MSTORE PUSH1 0x4 ADD PUSH2 0xE5B SWAP1 PUSH2 0x1BC8 JUMP JUMPDEST PUSH1 0x40 MLOAD DUP1 SWAP2 SUB SWAP1 REVERT JUMPDEST PUSH2 0xE71 DUP5 DUP5 DUP5 DUP5 SUB PUSH2 0xC23 JUMP JUMPDEST JUMPDEST POP POP POP POP JUMP JUMPDEST PUSH1 0x0 PUSH20 0xFFFFFFFFFFFFFFFFFFFFFFFFFFFFFFFFFFFFFFFF AND DUP4 PUSH20 0xFFFFFFFFFFFFFFFFFFFFFFFFFFFFFFFFFFFFFFFF AND SUB PUSH2 0xEE7 JUMPI PUSH1 0x40 MLOAD PUSH32 0x8C379A000000000000000000000000000000000000000000000000000000000 DUP2 MSTORE PUSH1 0x4 ADD PUSH2 0xEDE SWAP1 PUSH2 0x1C5A JUMP JUMPDEST PUSH1 0x40 MLOAD DUP1 SWAP2 SUB SWAP1 REVERT JUMPDEST PUSH1 0x0 PUSH20 0xFFFFFFFFFFFFFFFFFFFFFFFFFFFFFFFFFFFFFFFF AND DUP3 PUSH20 0xFFFFFFFFFFFFFFFFFFFFFFFFFFFFFFFFFFFFFFFF AND SUB PUSH2 0xF56 JUMPI PUSH1 0x40 MLOAD PUSH32 0x8C379A000000000000000000000000000000000000000000000000000000000 DUP2 MSTORE PUSH1 0x4 ADD PUSH2 0xF4D SWAP1 PUSH2 0x1CEC JUMP JUMPDEST PUSH1 0x40 MLOAD DUP1 SWAP2 SUB SWAP1 REVERT JUMPDEST PUSH2 0xF61 DUP4 DUP4 DUP4 PUSH2 0x1256 JUMP JUMPDEST PUSH1 0x0 DUP1 PUSH1 0x0 DUP6 PUSH20 0xFFFFFFFFFFFFFFFFFFFFFFFFFFFFFFFFFFFFFFFF AND PUSH20 0xFFFFFFFFFFFFFFFFFFFFFFFFFFFFFFFFFFFFFFFF AND DUP2 MSTORE PUSH1 0x20 ADD SWAP1 DUP2 MSTORE PUSH1 0x20 ADD PUSH1 0x0 KECCAK256 SLOAD SWAP1 POP DUP2 DUP2 LT ISZERO PUSH2 0xFE7 JUMPI PUSH1 0x40 MLOAD PUSH32 0x8C379A000000000000000000000000000000000000000000000000000000000 DUP2 MSTORE PUSH1 0x4 ADD PUSH2 0xFDE SWAP1 PUSH2 0x1D7E JUMP JUMPDEST PUSH1 0x40 MLOAD DUP1 SWAP2 SUB SWAP1 REVERT JUMPDEST DUP2 DUP2 SUB PUSH1 0x0 DUP1 DUP7 PUSH20 0xFFFFFFFFFFFFFFFFFFFFFFFFFFFFFFFFFFFFFFFF AND PUSH20 0xFFFFFFFFFFFFFFFFFFFFFFFFFFFFFFFFFFFFFFFF AND DUP2 MSTORE PUSH1 0x20 ADD SWAP1 DUP2 MSTORE PUSH1 0x20 ADD PUSH1 0x0 KECCAK256 DUP2 SWAP1 SSTORE POP DUP2 PUSH1 0x0 DUP1 DUP6 PUSH20 0xFFFFFFFFFFFFFFFFFFFFFFFFFFFFFFFFFFFFFFFF AND PUSH20 0xFFFFFFFFFFFFFFFFFFFFFFFFFFFFFFFFFFFFFFFF AND DUP2 MSTORE PUSH1 0x20 ADD SWAP1 DUP2 MSTORE PUSH1 0x20 ADD PUSH1 0x0 KECCAK256 PUSH1 0x0 DUP3 DUP3 SLOAD PUSH2 0x107A SWAP2 SWAP1 PUSH2 0x1678 JUMP JUMPDEST SWAP3 POP POP DUP2 SWAP1 SSTORE POP DUP3 PUSH20 0xFFFFFFFFFFFFFFFFFFFFFFFFFFFFFFFFFFFFFFFF AND DUP5 PUSH20 0xFFFFFFFFFFFFFFFFFFFFFFFFFFFFFFFFFFFFFFFF AND PUSH32 0xDDF252AD1BE2C89B69C2B068FC378DAA952BA7F163C4A11628F55A4DF523B3EF DUP5 PUSH1 0x40 MLOAD PUSH2 0x10DE SWAP2 SWAP1 PUSH2 0x1430 JUMP JUMPDEST PUSH1 0x40 MLOAD DUP1 SWAP2 SUB SWAP1 LOG3 PUSH2 0x10F1 DUP5 DUP5 DUP5 PUSH2 0x125B JUMP JUMPDEST POP POP POP POP JUMP JUMPDEST PUSH1 0x0 PUSH20 0xFFFFFFFFFFFFFFFFFFFFFFFFFFFFFFFFFFFFFFFF AND DUP3 PUSH20 0xFFFFFFFFFFFFFFFFFFFFFFFFFFFFFFFFFFFFFFFF AND SUB PUSH2 0x1166 JUMPI PUSH1 0x40 MLOAD PUSH32 0x8C379A000000000000000000000000000000000000000000000000000000000 DUP2 MSTORE PUSH1 0x4 ADD PUSH2 0x115D SWAP1 PUSH2 0x1DEA JUMP JUMPDEST PUSH1 0x40 MLOAD DUP1 SWAP2 SUB SWAP1 REVERT JUMPDEST PUSH2 0x1172 PUSH1 0x0 DUP4 DUP4 PUSH2 0x1256 JUMP JUMPDEST DUP1 PUSH1 0x2 PUSH1 0x0 DUP3 DUP3 SLOAD PUSH2 0x1184 SWAP2 SWAP1 PUSH2 0x1678 JUMP JUMPDEST SWAP3 POP POP DUP2 SWAP1 SSTORE POP DUP1 PUSH1 0x0 DUP1 DUP5 PUSH20 0xFFFFFFFFFFFFFFFFFFFFFFFFFFFFFFFFFFFFFFFF AND PUSH20 0xFFFFFFFFFFFFFFFFFFFFFFFFFFFFFFFFFFFFFFFF AND DUP2 MSTORE PUSH1 0x20 ADD SWAP1 DUP2 MSTORE PUSH1 0x20 ADD PUSH1 0x0 KECCAK256 PUSH1 0x0 DUP3 DUP3 SLOAD PUSH2 0x11D9 SWAP2 SWAP1 PUSH2 0x1678 JUMP JUMPDEST SWAP3 POP POP DUP2 SWAP1 SSTORE POP DUP2 PUSH20 0xFFFFFFFFFFFFFFFFFFFFFFFFFFFFFFFFFFFFFFFF AND PUSH1 0x0 PUSH20 0xFFFFFFFFFFFFFFFFFFFFFFFFFFFFFFFFFFFFFFFF AND PUSH32 0xDDF252AD1BE2C89B69C2B068FC378DAA952BA7F163C4A11628F55A4DF523B3EF DUP4 PUSH1 0x40 MLOAD PUSH2 0x123E SWAP2 SWAP1 PUSH2 0x1430 JUMP JUMPDEST PUSH1 0x40 MLOAD DUP1 SWAP2 SUB SWAP1 LOG3 PUSH2 0x1252 PUSH1 0x0 DUP4 DUP4 PUSH2 0x125B JUMP JUMPDEST POP POP JUMP JUMPDEST POP POP POP JUMP JUMPDEST POP POP POP JUMP JUMPDEST PUSH1 0x0 DUP2 MLOAD SWAP1 POP SWAP2 SWAP1 POP JUMP JUMPDEST PUSH1 0x0 DUP3 DUP3 MSTORE PUSH1 0x20 DUP3 ADD SWAP1 POP SWAP3 SWAP2 POP POP JUMP JUMPDEST PUSH1 0x0 JUMPDEST DUP4 DUP2 LT ISZERO PUSH2 0x129A JUMPI DUP1 DUP3 ADD MLOAD DUP2 DUP5 ADD MSTORE PUSH1 0x20 DUP2 ADD SWAP1 POP PUSH2 0x127F JUMP JUMPDEST PUSH1 0x0 DUP5 DUP5 ADD MSTORE POP POP POP POP JUMP JUMPDEST PUSH1 0x0 PUSH1 0x1F NOT PUSH1 0x1F DUP4 ADD AND SWAP1 POP SWAP2 SWAP1 POP JUMP JUMPDEST PUSH1 0x0 PUSH2 0x12C2 DUP3 PUSH2 0x1260 JUMP JUMPDEST PUSH2 0x12CC DUP2 DUP6 PUSH2 0x126B JUMP JUMPDEST SWAP4 POP PUSH2 0x12DC DUP2 DUP6 PUSH1 0x20 DUP7 ADD PUSH2 0x127C JUMP JUMPDEST PUSH2 0x12E5 DUP2 PUSH2 0x12A6 JUMP JUMPDEST DUP5 ADD SWAP2 POP POP SWAP3 SWAP2 POP POP JUMP JUMPDEST PUSH1 0x0 PUSH1 0x20 DUP3 ADD SWAP1 POP DUP2 DUP2 SUB PUSH1 0x0 DUP4 ADD MSTORE PUSH2 0x130A DUP2 DUP5 PUSH2 0x12B7 JUMP JUMPDEST SWAP1 POP SWAP3 SWAP2 POP POP JUMP JUMPDEST PUSH1 0x0 DUP1 REVERT JUMPDEST PUSH1 0x0 PUSH20 0xFFFFFFFFFFFFFFFFFFFFFFFFFFFFFFFFFFFFFFFF DUP3 AND SWAP1 POP SWAP2 SWAP1 POP JUMP JUMPDEST PUSH1 0x0 PUSH2 0x1342 DUP3 PUSH2 0x1317 JUMP JUMPDEST SWAP1 POP SWAP2 SWAP1 POP JUMP JUMPDEST PUSH2 0x1352 DUP2 PUSH2 0x1337 JUMP JUMPDEST DUP2 EQ PUSH2 0x135D JUMPI PUSH1 0x0 DUP1 REVERT JUMPDEST POP JUMP JUMPDEST PUSH1 0x0 DUP2 CALLDATALOAD SWAP1 POP PUSH2 0x136F DUP2 PUSH2 0x1349 JUMP JUMPDEST SWAP3 SWAP2 POP POP JUMP JUMPDEST PUSH1 0x0 DUP2 SWAP1 POP SWAP2 SWAP1 POP JUMP JUMPDEST PUSH2 0x1388 DUP2 PUSH2 0x1375 JUMP JUMPDEST DUP2 EQ PUSH2 0x1393 JUMPI PUSH1 0x0 DUP1 REVERT JUMPDEST POP JUMP JUMPDEST PUSH1 0x0 DUP2 CALLDATALOAD SWAP1 POP PUSH2 0x13A5 DUP2 PUSH2 0x137F JUMP JUMPDEST SWAP3 SWAP2 POP POP JUMP JUMPDEST PUSH1 0x0 DUP1 PUSH1 0x40 DUP4 DUP6 SUB SLT ISZERO PUSH2 0x13C2 JUMPI PUSH2 0x13C1 PUSH2 0x1312 JUMP JUMPDEST JUMPDEST PUSH1 0x0 PUSH2 0x13D0 DUP6 DUP3 DUP7 ADD PUSH2 0x1360 JUMP JUMPDEST SWAP3 POP POP PUSH1 0x20 PUSH2 0x13E1 DUP6 DUP3 DUP7 ADD PUSH2 0x1396 JUMP JUMPDEST SWAP2 POP POP SWAP3 POP SWAP3 SWAP1 POP JUMP JUMPDEST PUSH1 0x0 DUP2 ISZERO ISZERO SWAP1 POP SWAP2 SWAP1 POP JUMP JUMPDEST PUSH2 0x1400 DUP2 PUSH2 0x13EB JUMP JUMPDEST DUP3 MSTORE POP POP JUMP JUMPDEST PUSH1 0x0 PUSH1 0x20 DUP3 ADD SWAP1 POP PUSH2 0x141B PUSH1 0x0 DUP4 ADD DUP5 PUSH2 0x13F7 JUMP JUMPDEST SWAP3 SWAP2 POP POP JUMP JUMPDEST PUSH2 0x142A DUP2 PUSH2 0x1375 JUMP JUMPDEST DUP3 MSTORE POP POP JUMP JUMPDEST PUSH1 0x0 PUSH1 0x20 DUP3 ADD SWAP1 POP PUSH2 0x1445 PUSH1 0x0 DUP4 ADD DUP5 PUSH2 0x1421 JUMP JUMPDEST SWAP3 SWAP2 POP POP JUMP JUMPDEST PUSH1 0x0 DUP1 PUSH1 0x0 PUSH1 0x60 DUP5 DUP7 SUB SLT ISZERO PUSH2 0x1464 JUMPI PUSH2 0x1463 PUSH2 0x1312 JUMP JUMPDEST JUMPDEST PUSH1 0x0 PUSH2 0x1472 DUP7 DUP3 DUP8 ADD PUSH2 0x1360 JUMP JUMPDEST SWAP4 POP POP PUSH1 0x20 PUSH2 0x1483 DUP7 DUP3 DUP8 ADD PUSH2 0x1360 JUMP JUMPDEST SWAP3 POP POP PUSH1 0x40 PUSH2 0x1494 DUP7 DUP3 DUP8 ADD PUSH2 0x1396 JUMP JUMPDEST SWAP2 POP POP SWAP3 POP SWAP3 POP SWAP3 JUMP JUMPDEST PUSH1 0x0 PUSH1 0xFF DUP3 AND SWAP1 POP SWAP2 SWAP1 POP JUMP JUMPDEST PUSH2 0x14B4 DUP2 PUSH2 0x149E JUMP JUMPDEST DUP3 MSTORE POP POP JUMP JUMPDEST PUSH1 0x0 PUSH1 0x20 DUP3 ADD SWAP1 POP PUSH2 0x14CF PUSH1 0x0 DUP4 ADD DUP5 PUSH2 0x14AB JUMP JUMPDEST SWAP3 SWAP2 POP POP JUMP JUMPDEST PUSH1 0x0 PUSH1 0x20 DUP3 DUP5 SUB SLT ISZERO PUSH2 0x14EB JUMPI PUSH2 0x14EA PUSH2 0x1312 JUMP JUMPDEST JUMPDEST PUSH1 0x0 PUSH2 0x14F9 DUP5 DUP3 DUP6 ADD PUSH2 0x1360 JUMP JUMPDEST SWAP2 POP POP SWAP3 SWAP2 POP POP JUMP JUMPDEST PUSH1 0x0 PUSH2 0x150D DUP3 PUSH2 0x1337 JUMP JUMPDEST SWAP1 POP SWAP2 SWAP1 POP JUMP JUMPDEST PUSH2 0x151D DUP2 PUSH2 0x1502 JUMP JUMPDEST DUP2 EQ PUSH2 0x1528 JUMPI PUSH1 0x0 DUP1 REVERT JUMPDEST POP JUMP JUMPDEST PUSH1 0x0 DUP2 CALLDATALOAD SWAP1 POP PUSH2 0x153A DUP2 PUSH2 0x1514 JUMP JUMPDEST SWAP3 SWAP2 POP POP JUMP JUMPDEST PUSH1 0x0 PUSH1 0x20 DUP3 DUP5 SUB SLT ISZERO PUSH2 0x1556 JUMPI PUSH2 0x1555 PUSH2 0x1312 JUMP JUMPDEST JUMPDEST PUSH1 0x0 PUSH2 0x1564 DUP5 DUP3 DUP6 ADD PUSH2 0x152B JUMP JUMPDEST SWAP2 POP POP SWAP3 SWAP2 POP POP JUMP JUMPDEST PUSH1 0x0 DUP1 PUSH1 0x40 DUP4 DUP6 SUB SLT ISZERO PUSH2 0x1584 JUMPI PUSH2 0x1583 PUSH2 0x1312 JUMP JUMPDEST JUMPDEST PUSH1 0x0 PUSH2 0x1592 DUP6 DUP3 DUP7 ADD PUSH2 0x1360 JUMP JUMPDEST SWAP3 POP POP PUSH1 0x20 PUSH2 0x15A3 DUP6 DUP3 DUP7 ADD PUSH2 0x1360 JUMP JUMPDEST SWAP2 POP POP SWAP3 POP SWAP3 SWAP1 POP JUMP JUMPDEST PUSH1 0x0 PUSH2 0x15B8 DUP3 PUSH2 0x1317 JUMP JUMPDEST SWAP1 POP SWAP2 SWAP1 POP JUMP JUMPDEST PUSH2 0x15C8 DUP2 PUSH2 0x15AD JUMP JUMPDEST DUP3 MSTORE POP POP JUMP JUMPDEST PUSH1 0x0 PUSH1 0x20 DUP3 ADD SWAP1 POP PUSH2 0x15E3 PUSH1 0x0 DUP4 ADD DUP5 PUSH2 0x15BF JUMP JUMPDEST SWAP3 SWAP2 POP POP JUMP JUMPDEST PUSH32 0x4E487B7100000000000000000000000000000000000000000000000000000000 PUSH1 0x0 MSTORE PUSH1 0x22 PUSH1 0x4 MSTORE PUSH1 0x24 PUSH1 0x0 REVERT JUMPDEST PUSH1 0x0 PUSH1 0x2 DUP3 DIV SWAP1 POP PUSH1 0x1 DUP3 AND DUP1 PUSH2 0x1630 JUMPI PUSH1 0x7F DUP3 AND SWAP2 POP JUMPDEST PUSH1 0x20 DUP3 LT DUP2 SUB PUSH2 0x1643 JUMPI PUSH2 0x1642 PUSH2 0x15E9 JUMP JUMPDEST JUMPDEST POP SWAP2 SWAP1 POP JUMP JUMPDEST PUSH32 0x4E487B7100000000000000000000000000000000000000000000000000000000 PUSH1 0x0 MSTORE PUSH1 0x11 PUSH1 0x4 MSTORE PUSH1 0x24 PUSH1 0x0 REVERT JUMPDEST PUSH1 0x0 PUSH2 0x1683 DUP3 PUSH2 0x1375 JUMP JUMPDEST SWAP2 POP PUSH2 0x168E DUP4 PUSH2 0x1375 JUMP JUMPDEST SWAP3 POP DUP3 DUP3 ADD SWAP1 POP DUP1 DUP3 GT ISZERO PUSH2 0x16A6 JUMPI PUSH2 0x16A5 PUSH2 0x1649 JUMP JUMPDEST JUMPDEST SWAP3 SWAP2 POP POP JUMP JUMPDEST PUSH32 0x6E6F2061646D696E000000000000000000000000000000000000000000000000 PUSH1 0x0 DUP3 ADD MSTORE POP JUMP JUMPDEST PUSH1 0x0 PUSH2 0x16E2 PUSH1 0x8 DUP4 PUSH2 0x126B JUMP JUMPDEST SWAP2 POP PUSH2 0x16ED DUP3 PUSH2 0x16AC JUMP JUMPDEST PUSH1 0x20 DUP3 ADD SWAP1 POP SWAP2 SWAP1 POP JUMP JUMPDEST PUSH1 0x0 PUSH1 0x20 DUP3 ADD SWAP1 POP DUP2 DUP2 SUB PUSH1 0x0 DUP4 ADD MSTORE PUSH2 0x1711 DUP2 PUSH2 0x16D5 JUMP JUMPDEST SWAP1 POP SWAP2 SWAP1 POP JUMP JUMPDEST PUSH1 0x0 DUP2 PUSH1 0x1 SHR SWAP1 POP SWAP2 SWAP1 POP JUMP JUMPDEST PUSH1 0x0 DUP1 DUP3 SWAP2 POP DUP4 SWAP1 POP JUMPDEST PUSH1 0x1 DUP6 GT ISZERO PUSH2 0x176F JUMPI DUP1 DUP7 DIV DUP2 GT ISZERO PUSH2 0x174B JUMPI PUSH2 0x174A PUSH2 0x1649 JUMP JUMPDEST JUMPDEST PUSH1 0x1 DUP6 AND ISZERO PUSH2 0x175A JUMPI DUP1 DUP3 MUL SWAP2 POP JUMPDEST DUP1 DUP2 MUL SWAP1 POP PUSH2 0x1768 DUP6 PUSH2 0x1718 JUMP JUMPDEST SWAP5 POP PUSH2 0x172F JUMP JUMPDEST SWAP5 POP SWAP5 SWAP3 POP POP POP JUMP JUMPDEST PUSH1 0x0 DUP3 PUSH2 0x1788 JUMPI PUSH1 0x1 SWAP1 POP PUSH2 0x1844 JUMP JUMPDEST DUP2 PUSH2 0x1796 JUMPI PUSH1 0x0 SWAP1 POP PUSH2 0x1844 JUMP JUMPDEST DUP2 PUSH1 0x1 DUP2 EQ PUSH2 0x17AC JUMPI PUSH1 0x2 DUP2 EQ PUSH2 0x17B6 JUMPI PUSH2 0x17E5 JUMP JUMPDEST PUSH1 0x1 SWAP2 POP POP PUSH2 0x1844 JUMP JUMPDEST PUSH1 0xFF DUP5 GT ISZERO PUSH2 0x17C8 JUMPI PUSH2 0x17C7 PUSH2 0x1649 JUMP JUMPDEST JUMPDEST DUP4 PUSH1 0x2 EXP SWAP2 POP DUP5 DUP3 GT ISZERO PUSH2 0x17DF JUMPI PUSH2 0x17DE PUSH2 0x1649 JUMP JUMPDEST JUMPDEST POP PUSH2 0x1844 JUMP JUMPDEST POP PUSH1 0x20 DUP4 LT PUSH2 0x133 DUP4 LT AND PUSH1 0x4E DUP5 LT PUSH1 0xB DUP5 LT AND OR ISZERO PUSH2 0x181A JUMPI DUP3 DUP3 EXP SWAP1 POP DUP4 DUP2 GT ISZERO PUSH2 0x1815 JUMPI PUSH2 0x1814 PUSH2 0x1649 JUMP JUMPDEST JUMPDEST PUSH2 0x1844 JUMP JUMPDEST PUSH2 0x1827 DUP5 DUP5 DUP5 PUSH1 0x1 PUSH2 0x1725 JUMP JUMPDEST SWAP3 POP SWAP1 POP DUP2 DUP5 DIV DUP2 GT ISZERO PUSH2 0x183E JUMPI PUSH2 0x183D PUSH2 0x1649 JUMP JUMPDEST JUMPDEST DUP2 DUP2 MUL SWAP1 POP JUMPDEST SWAP4 SWAP3 POP POP POP JUMP JUMPDEST PUSH1 0x0 PUSH2 0x1856 DUP3 PUSH2 0x1375 JUMP JUMPDEST SWAP2 POP PUSH2 0x1861 DUP4 PUSH2 0x149E JUMP JUMPDEST SWAP3 POP PUSH2 0x188E PUSH32 0xFFFFFFFFFFFFFFFFFFFFFFFFFFFFFFFFFFFFFFFFFFFFFFFFFFFFFFFFFFFFFFFF DUP5 DUP5 PUSH2 0x1778 JUMP JUMPDEST SWAP1 POP SWAP3 SWAP2 POP POP JUMP JUMPDEST PUSH1 0x0 PUSH2 0x18A1 DUP3 PUSH2 0x1375 JUMP JUMPDEST SWAP2 POP PUSH2 0x18AC DUP4 PUSH2 0x1375 JUMP JUMPDEST SWAP3 POP DUP3 DUP3 MUL PUSH2 0x18BA DUP2 PUSH2 0x1375 JUMP JUMPDEST SWAP2 POP DUP3 DUP3 DIV DUP5 EQ DUP4 ISZERO OR PUSH2 0x18D1 JUMPI PUSH2 0x18D0 PUSH2 0x1649 JUMP JUMPDEST JUMPDEST POP SWAP3 SWAP2 POP POP JUMP JUMPDEST PUSH2 0x18E1 DUP2 PUSH2 0x1337 JUMP JUMPDEST DUP3 MSTORE POP POP JUMP JUMPDEST PUSH1 0x0 PUSH1 0x20 DUP3 ADD SWAP1 POP PUSH2 0x18FC PUSH1 0x0 DUP4 ADD DUP5 PUSH2 0x18D8 JUMP JUMPDEST SWAP3 SWAP2 POP POP JUMP JUMPDEST PUSH1 0x0 DUP2 MLOAD SWAP1 POP PUSH2 0x1911 DUP2 PUSH2 0x137F JUMP JUMPDEST SWAP3 SWAP2 POP POP JUMP JUMPDEST PUSH1 0x0 PUSH1 0x20 DUP3 DUP5 SUB SLT ISZERO PUSH2 0x192D JUMPI PUSH2 0x192C PUSH2 0x1312 JUMP JUMPDEST JUMPDEST PUSH1 0x0 PUSH2 0x193B DUP5 DUP3 DUP6 ADD PUSH2 0x1902 JUMP JUMPDEST SWAP2 POP POP SWAP3 SWAP2 POP POP JUMP JUMPDEST PUSH1 0x0 PUSH1 0x40 DUP3 ADD SWAP1 POP PUSH2 0x1959 PUSH1 0x0 DUP4 ADD DUP6 PUSH2 0x18D8 JUMP JUMPDEST PUSH2 0x1966 PUSH1 0x20 DUP4 ADD DUP5 PUSH2 0x1421 JUMP JUMPDEST SWAP4 SWAP3 POP POP POP JUMP JUMPDEST PUSH2 0x1976 DUP2 PUSH2 0x13EB JUMP JUMPDEST DUP2 EQ PUSH2 0x1981 JUMPI PUSH1 0x0 DUP1 REVERT JUMPDEST POP JUMP JUMPDEST PUSH1 0x0 DUP2 MLOAD SWAP1 POP PUSH2 0x1993 DUP2 PUSH2 0x196D JUMP JUMPDEST SWAP3 SWAP2 POP POP JUMP JUMPDEST PUSH1 0x0 PUSH1 0x20 DUP3 DUP5 SUB SLT ISZERO PUSH2 0x19AF JUMPI PUSH2 0x19AE PUSH2 0x1312 JUMP JUMPDEST JUMPDEST PUSH1 0x0 PUSH2 0x19BD DUP5 DUP3 DUP6 ADD PUSH2 0x1984 JUMP JUMPDEST SWAP2 POP POP SWAP3 SWAP2 POP POP JUMP JUMPDEST PUSH32 0x45524332303A2064656372656173656420616C6C6F77616E63652062656C6F77 PUSH1 0x0 DUP3 ADD MSTORE PUSH32 0x207A65726F000000000000000000000000000000000000000000000000000000 PUSH1 0x20 DUP3 ADD MSTORE POP JUMP JUMPDEST PUSH1 0x0 PUSH2 0x1A22 PUSH1 0x25 DUP4 PUSH2 0x126B JUMP JUMPDEST SWAP2 POP PUSH2 0x1A2D DUP3 PUSH2 0x19C6 JUMP JUMPDEST PUSH1 0x40 DUP3 ADD SWAP1 POP SWAP2 SWAP1 POP JUMP JUMPDEST PUSH1 0x0 PUSH1 0x20 DUP3 ADD SWAP1 POP DUP2 DUP2 SUB PUSH1 0x0 DUP4 ADD MSTORE PUSH2 0x1A51 DUP2 PUSH2 0x1A15 JUMP JUMPDEST SWAP1 POP SWAP2 SWAP1 POP JUMP JUMPDEST PUSH32 0x45524332303A20617070726F76652066726F6D20746865207A65726F20616464 PUSH1 0x0 DUP3 ADD MSTORE PUSH32 0x7265737300000000000000000000000000000000000000000000000000000000 PUSH1 0x20 DUP3 ADD MSTORE POP JUMP JUMPDEST PUSH1 0x0 PUSH2 0x1AB4 PUSH1 0x24 DUP4 PUSH2 0x126B JUMP JUMPDEST SWAP2 POP PUSH2 0x1ABF DUP3 PUSH2 0x1A58 JUMP JUMPDEST PUSH1 0x40 DUP3 ADD SWAP1 POP SWAP2 SWAP1 POP JUMP JUMPDEST PUSH1 0x0 PUSH1 0x20 DUP3 ADD SWAP1 POP DUP2 DUP2 SUB PUSH1 0x0 DUP4 ADD MSTORE PUSH2 0x1AE3 DUP2 PUSH2 0x1AA7 JUMP JUMPDEST SWAP1 POP SWAP2 SWAP1 POP JUMP JUMPDEST PUSH32 0x45524332303A20617070726F76652020746F20746865207A65726F2061646472 PUSH1 0x0 DUP3 ADD MSTORE PUSH32 0x6573730000000000000000000000000000000000000000000000000000000000 PUSH1 0x20 DUP3 ADD MSTORE POP JUMP JUMPDEST PUSH1 0x0 PUSH2 0x1B46 PUSH1 0x23 DUP4 PUSH2 0x126B JUMP JUMPDEST SWAP2 POP PUSH2 0x1B51 DUP3 PUSH2 0x1AEA JUMP JUMPDEST PUSH1 0x40 DUP3 ADD SWAP1 POP SWAP2 SWAP1 POP JUMP JUMPDEST PUSH1 0x0 PUSH1 0x20 DUP3 ADD SWAP1 POP DUP2 DUP2 SUB PUSH1 0x0 DUP4 ADD MSTORE PUSH2 0x1B75 DUP2 PUSH2 0x1B39 JUMP JUMPDEST SWAP1 POP SWAP2 SWAP1 POP JUMP JUMPDEST PUSH32 0x45524332303A20696E73756666696369656E7420616C6C6F77616E6365000000 PUSH1 0x0 DUP3 ADD MSTORE POP JUMP JUMPDEST PUSH1 0x0 PUSH2 0x1BB2 PUSH1 0x1D DUP4 PUSH2 0x126B JUMP JUMPDEST SWAP2 POP PUSH2 0x1BBD DUP3 PUSH2 0x1B7C JUMP JUMPDEST PUSH1 0x20 DUP3 ADD SWAP1 POP SWAP2 SWAP1 POP JUMP JUMPDEST PUSH1 0x0 PUSH1 0x20 DUP3 ADD SWAP1 POP DUP2 DUP2 SUB PUSH1 0x0 DUP4 ADD MSTORE PUSH2 0x1BE1 DUP2 PUSH2 0x1BA5 JUMP JUMPDEST SWAP1 POP SWAP2 SWAP1 POP JUMP JUMPDEST PUSH32 0x45524332303A207472616E736665722066726F6D20746865207A65726F206164 PUSH1 0x0 DUP3 ADD MSTORE PUSH32 0x6472657373000000000000000000000000000000000000000000000000000000 PUSH1 0x20 DUP3 ADD MSTORE POP JUMP JUMPDEST PUSH1 0x0 PUSH2 0x1C44 PUSH1 0x25 DUP4 PUSH2 0x126B JUMP JUMPDEST SWAP2 POP PUSH2 0x1C4F DUP3 PUSH2 0x1BE8 JUMP JUMPDEST PUSH1 0x40 DUP3 ADD SWAP1 POP SWAP2 SWAP1 POP JUMP JUMPDEST PUSH1 0x0 PUSH1 0x20 DUP3 ADD SWAP1 POP DUP2 DUP2 SUB PUSH1 0x0 DUP4 ADD MSTORE PUSH2 0x1C73 DUP2 PUSH2 0x1C37 JUMP JUMPDEST SWAP1 POP SWAP2 SWAP1 POP JUMP JUMPDEST PUSH32 0x45524332303A207472616E7366657220746F20746865207A65726F2061646472 PUSH1 0x0 DUP3 ADD MSTORE PUSH32 0x6573730000000000000000000000000000000000000000000000000000000000 PUSH1 0x20 DUP3 ADD MSTORE POP JUMP JUMPDEST PUSH1 0x0 PUSH2 0x1CD6 PUSH1 0x23 DUP4 PUSH2 0x126B JUMP JUMPDEST SWAP2 POP PUSH2 0x1CE1 DUP3 PUSH2 0x1C7A JUMP JUMPDEST PUSH1 0x40 DUP3 ADD SWAP1 POP SWAP2 SWAP1 POP JUMP JUMPDEST PUSH1 0x0 PUSH1 0x20 DUP3 ADD SWAP1 POP DUP2 DUP2 SUB PUSH1 0x0 DUP4 ADD MSTORE PUSH2 0x1D05 DUP2 PUSH2 0x1CC9 JUMP JUMPDEST SWAP1 POP SWAP2 SWAP1 POP JUMP JUMPDEST PUSH32 0x45524332303A207472616E7366657220616D6F756E7420657863656564732062 PUSH1 0x0 DUP3 ADD MSTORE PUSH32 0x616C616E63650000000000000000000000000000000000000000000000000000 PUSH1 0x20 DUP3 ADD MSTORE POP JUMP JUMPDEST PUSH1 0x0 PUSH2 0x1D68 PUSH1 0x26 DUP4 PUSH2 0x126B JUMP JUMPDEST SWAP2 POP PUSH2 0x1D73 DUP3 PUSH2 0x1D0C JUMP JUMPDEST PUSH1 0x40 DUP3 ADD SWAP1 POP SWAP2 SWAP1 POP JUMP JUMPDEST PUSH1 0x0 PUSH1 0x20 DUP3 ADD SWAP1 POP DUP2 DUP2 SUB PUSH1 0x0 DUP4 ADD MSTORE PUSH2 0x1D97 DUP2 PUSH2 0x1D5B JUMP JUMPDEST SWAP1 POP SWAP2 SWAP1 POP JUMP JUMPDEST PUSH32 0x45524332303A206D696E7420746F20746865207A65726F206164647265737300 PUSH1 0x0 DUP3 ADD MSTORE POP JUMP JUMPDEST PUSH1 0x0 PUSH2 0x1DD4 PUSH1 0x1F DUP4 PUSH2 0x126B JUMP JUMPDEST SWAP2 POP PUSH2 0x1DDF DUP3 PUSH2 0x1D9E JUMP JUMPDEST PUSH1 0x20 DUP3 ADD SWAP1 POP SWAP2 SWAP1 POP JUMP JUMPDEST PUSH1 0x0 PUSH1 0x20 DUP3 ADD SWAP1 POP DUP2 DUP2 SUB PUSH1 0x0 DUP4 ADD MSTORE PUSH2 0x1E03 DUP2 PUSH2 0x1DC7 JUMP JUMPDEST SWAP1 POP SWAP2 SWAP1 POP JUMP INVALID LOG2 PUSH5 0x6970667358 0x22 SLT KECCAK256 0xD PUSH11 0x51B6C7479E52DEDDE4BE0F NOT 0xC8 0xC2 SWAP12 0xF 0x4C 0xCB LOG1 0xD0 0xBC 0xDB SIGNEXTEND 0x22 PUSH13 0x7B326405B964736F6C63430008 SGT STOP CALLER "
				},
				"gasEstimates": {
					"creation": {
						"codeDepositCost": "1548800",
						"executionCost": "infinite",
						"totalCost": "infinite"
					},
					"external": {
						"": "197",
						"adminAddress()": "2652",
						"allowance(address,address)": "infinite",
						"approve(address,uint256)": "infinite",
						"balanceOf(address)": "2886",
						"decimals()": "2502",
						"decreaseAllowance(address,uint256)": "infinite",
						"editAdmin(address)": "27081",
						"increaseAllowance(address,uint256)": "infinite",
						"mint(address,uint256)": "infinite",
						"name()": "infinite",
						"symbol()": "infinite",
						"totalSupply()": "2505",
						"transfer(address,uint256)": "infinite",
						"transferFrom(address,address,uint256)": "infinite",
						"withdraw()": "infinite",
						"withdrawToken(address)": "infinite"
					},
					"internal": {
						"_afterTokenTransfer(address,address,uint256)": "15",
						"_approve(address,address,uint256)": "infinite",
						"_beforeTokenTransfer(address,address,uint256)": "15",
						"_burn(address,uint256)": "infinite",
						"_mint(address,uint256)": "infinite",
						"_spendAllowance(address,address,uint256)": "infinite",
						"_transfer(address,address,uint256)": "infinite"
					}
				},
				"methodIdentifiers": {
					"adminAddress()": "fc6f9468",
					"allowance(address,address)": "dd62ed3e",
					"approve(address,uint256)": "095ea7b3",
					"balanceOf(address)": "70a08231",
					"decimals()": "313ce567",
					"decreaseAllowance(address,uint256)": "a457c2d7",
					"editAdmin(address)": "3d128eec",
					"increaseAllowance(address,uint256)": "39509351",
					"mint(address,uint256)": "40c10f19",
					"name()": "06fdde03",
					"symbol()": "95d89b41",
					"totalSupply()": "18160ddd",
					"transfer(address,uint256)": "a9059cbb",
					"transferFrom(address,address,uint256)": "23b872dd",
					"withdraw()": "3ccfd60b",
					"withdrawToken(address)": "89476069"
				}
			},
			"storageLayout": {
				"storage": [
					{
						"astId": 94,
						"contract": "contracts/ymii/yi.sol:ERC20",
						"label": "_balances",
						"offset": 0,
						"slot": "0",
						"type": "t_mapping(t_address,t_uint256)"
					},
					{
						"astId": 100,
						"contract": "contracts/ymii/yi.sol:ERC20",
						"label": "_allowances",
						"offset": 0,
						"slot": "1",
						"type": "t_mapping(t_address,t_mapping(t_address,t_uint256))"
					},
					{
						"astId": 102,
						"contract": "contracts/ymii/yi.sol:ERC20",
						"label": "_totalSupply",
						"offset": 0,
						"slot": "2",
						"type": "t_uint256"
					},
					{
						"astId": 104,
						"contract": "contracts/ymii/yi.sol:ERC20",
						"label": "_name",
						"offset": 0,
						"slot": "3",
						"type": "t_string_storage"
					},
					{
						"astId": 106,
						"contract": "contracts/ymii/yi.sol:ERC20",
						"label": "_symbol",
						"offset": 0,
						"slot": "4",
						"type": "t_string_storage"
					},
					{
						"astId": 108,
						"contract": "contracts/ymii/yi.sol:ERC20",
						"label": "_decimals",
						"offset": 0,
						"slot": "5",
						"type": "t_uint8"
					},
					{
						"astId": 110,
						"contract": "contracts/ymii/yi.sol:ERC20",
						"label": "adminAddress",
						"offset": 1,
						"slot": "5",
						"type": "t_address_payable"
					}
				],
				"types": {
					"t_address": {
						"encoding": "inplace",
						"label": "address",
						"numberOfBytes": "20"
					},
					"t_address_payable": {
						"encoding": "inplace",
						"label": "address payable",
						"numberOfBytes": "20"
					},
					"t_mapping(t_address,t_mapping(t_address,t_uint256))": {
						"encoding": "mapping",
						"key": "t_address",
						"label": "mapping(address => mapping(address => uint256))",
						"numberOfBytes": "32",
						"value": "t_mapping(t_address,t_uint256)"
					},
					"t_mapping(t_address,t_uint256)": {
						"encoding": "mapping",
						"key": "t_address",
						"label": "mapping(address => uint256)",
						"numberOfBytes": "32",
						"value": "t_uint256"
					},
					"t_string_storage": {
						"encoding": "bytes",
						"label": "string",
						"numberOfBytes": "32"
					},
					"t_uint256": {
						"encoding": "inplace",
						"label": "uint256",
						"numberOfBytes": "32"
					},
					"t_uint8": {
						"encoding": "inplace",
						"label": "uint8",
						"numberOfBytes": "1"
					}
				}
			},
			"userdoc": {
				"kind": "user",
				"methods": {},
				"version": 1
			}
		}
	}
}