{
	"contracts/yyi.sol": {
		"ERC20": {
			"abi": [
				{
					"inputs": [
						{
							"internalType": "string",
							"name": "tokenName",
							"type": "string"
						},
						{
							"internalType": "string",
							"name": "symbolName",
							"type": "string"
						},
						{
							"internalType": "uint8",
							"name": "tokenDecimals",
							"type": "uint8"
						},
						{
							"internalType": "uint256",
							"name": "startTotal",
							"type": "uint256"
						},
						{
							"internalType": "address",
							"name": "account",
							"type": "address"
						}
					],
					"stateMutability": "payable",
					"type": "constructor"
				},
				{
					"anonymous": false,
					"inputs": [
						{
							"indexed": true,
							"internalType": "address",
							"name": "owner",
							"type": "address"
						},
						{
							"indexed": true,
							"internalType": "address",
							"name": "spender",
							"type": "address"
						},
						{
							"indexed": false,
							"internalType": "uint256",
							"name": "value",
							"type": "uint256"
						}
					],
					"name": "Approval",
					"type": "event"
				},
				{
					"anonymous": false,
					"inputs": [
						{
							"indexed": true,
							"internalType": "address",
							"name": "from",
							"type": "address"
						},
						{
							"indexed": true,
							"internalType": "address",
							"name": "to",
							"type": "address"
						},
						{
							"indexed": false,
							"internalType": "uint256",
							"name": "value",
							"type": "uint256"
						}
					],
					"name": "Transfer",
					"type": "event"
				},
				{
					"stateMutability": "payable",
					"type": "fallback"
				},
				{
					"inputs": [],
					"name": "adminAddress",
					"outputs": [
						{
							"internalType": "address payable",
							"name": "",
							"type": "address"
						}
					],
					"stateMutability": "view",
					"type": "function"
				},
				{
					"inputs": [
						{
							"internalType": "address",
							"name": "owner",
							"type": "address"
						},
						{
							"internalType": "address",
							"name": "spender",
							"type": "address"
						}
					],
					"name": "allowance",
					"outputs": [
						{
							"internalType": "uint256",
							"name": "",
							"type": "uint256"
						}
					],
					"stateMutability": "view",
					"type": "function"
				},
				{
					"inputs": [
						{
							"internalType": "address",
							"name": "spender",
							"type": "address"
						},
						{
							"internalType": "uint256",
							"name": "amount",
							"type": "uint256"
						}
					],
					"name": "approve",
					"outputs": [
						{
							"internalType": "bool",
							"name": "",
							"type": "bool"
						}
					],
					"stateMutability": "nonpayable",
					"type": "function"
				},
				{
					"inputs": [
						{
							"internalType": "address",
							"name": "account",
							"type": "address"
						}
					],
					"name": "balanceOf",
					"outputs": [
						{
							"internalType": "uint256",
							"name": "",
							"type": "uint256"
						}
					],
					"stateMutability": "view",
					"type": "function"
				},
				{
					"inputs": [],
					"name": "decimals",
					"outputs": [
						{
							"internalType": "uint8",
							"name": "",
							"type": "uint8"
						}
					],
					"stateMutability": "view",
					"type": "function"
				},
				{
					"inputs": [
						{
							"internalType": "address",
							"name": "spender",
							"type": "address"
						},
						{
							"internalType": "uint256",
							"name": "substractedValue",
							"type": "uint256"
						}
					],
					"name": "decreaseAllowance",
					"outputs": [
						{
							"internalType": "bool",
							"name": "",
							"type": "bool"
						}
					],
					"stateMutability": "nonpayable",
					"type": "function"
				},
				{
					"inputs": [
						{
							"internalType": "address",
							"name": "newAddress",
							"type": "address"
						}
					],
					"name": "editAdmin",
					"outputs": [],
					"stateMutability": "nonpayable",
					"type": "function"
				},
				{
					"inputs": [
						{
							"internalType": "address",
							"name": "spender",
							"type": "address"
						},
						{
							"internalType": "uint256",
							"name": "addedValue",
							"type": "uint256"
						}
					],
					"name": "increaseAllowance",
					"outputs": [
						{
							"internalType": "bool",
							"name": "",
							"type": "bool"
						}
					],
					"stateMutability": "nonpayable",
					"type": "function"
				},
				{
					"inputs": [
						{
							"internalType": "address",
							"name": "account",
							"type": "address"
						},
						{
							"internalType": "uint256",
							"name": "amount",
							"type": "uint256"
						}
					],
					"name": "mint",
					"outputs": [],
					"stateMutability": "nonpayable",
					"type": "function"
				},
				{
					"inputs": [],
					"name": "name",
					"outputs": [
						{
							"internalType": "string",
							"name": "",
							"type": "string"
						}
					],
					"stateMutability": "view",
					"type": "function"
				},
				{
					"inputs": [],
					"name": "symbol",
					"outputs": [
						{
							"internalType": "string",
							"name": "",
							"type": "string"
						}
					],
					"stateMutability": "view",
					"type": "function"
				},
				{
					"inputs": [],
					"name": "totalSupply",
					"outputs": [
						{
							"internalType": "uint256",
							"name": "",
							"type": "uint256"
						}
					],
					"stateMutability": "view",
					"type": "function"
				},
				{
					"inputs": [
						{
							"internalType": "address",
							"name": "to",
							"type": "address"
						},
						{
							"internalType": "uint256",
							"name": "amount",
							"type": "uint256"
						}
					],
					"name": "transfer",
					"outputs": [
						{
							"internalType": "bool",
							"name": "",
							"type": "bool"
						}
					],
					"stateMutability": "nonpayable",
					"type": "function"
				},
				{
					"inputs": [
						{
							"internalType": "address",
							"name": "from",
							"type": "address"
						},
						{
							"internalType": "address",
							"name": "to",
							"type": "address"
						},
						{
							"internalType": "uint256",
							"name": "amount",
							"type": "uint256"
						}
					],
					"name": "transferFrom",
					"outputs": [
						{
							"internalType": "bool",
							"name": "",
							"type": "bool"
						}
					],
					"stateMutability": "nonpayable",
					"type": "function"
				},
				{
					"inputs": [],
					"name": "withdraw",
					"outputs": [],
					"stateMutability": "nonpayable",
					"type": "function"
				},
				{
					"inputs": [
						{
							"internalType": "contract IERC20",
							"name": "token",
							"type": "address"
						}
					],
					"name": "withdrawToken",
					"outputs": [],
					"stateMutability": "payable",
					"type": "function"
				},
				{
					"stateMutability": "payable",
					"type": "receive"
				}
			],
			"devdoc": {
				"kind": "dev",
				"methods": {},
				"version": 1
			},
			"evm": {
				"assembly": "    /* \"contracts/yyi.sol\":1068:7282  contract ERC20 is IERC20, IERC20Metadata {... */\n  mstore(0x40, 0x80)\n    /* \"contracts/yyi.sol\":6862:7194  constructor(string memory tokenName, string memory symbolName, uint8 tokenDecimals, uint256 startTotal, address account) payable {... */\n  mload(0x40)\n  sub(codesize, bytecodeSize)\n  dup1\n  bytecodeSize\n  dup4\n  codecopy\n  dup2\n  dup2\n  add\n  0x40\n  mstore\n  dup2\n  add\n  swap1\n  tag_1\n  swap2\n  swap1\n  tag_2\n  jump\t// in\ntag_1:\n    /* \"contracts/yyi.sol\":7010:7019  tokenName */\n  dup5\n    /* \"contracts/yyi.sol\":7002:7007  _name */\n  0x03\n    /* \"contracts/yyi.sol\":7002:7019  _name = tokenName */\n  swap1\n  dup1\n  mload\n  swap1\n  0x20\n  add\n  swap1\n  tag_5\n  swap3\n  swap2\n  swap1\n  tag_6\n  jump\t// in\ntag_5:\n  pop\n    /* \"contracts/yyi.sol\":7040:7050  symbolName */\n  dup4\n    /* \"contracts/yyi.sol\":7030:7037  _symbol */\n  0x04\n    /* \"contracts/yyi.sol\":7030:7050  _symbol = symbolName */\n  swap1\n  dup1\n  mload\n  swap1\n  0x20\n  add\n  swap1\n  tag_7\n  swap3\n  swap2\n  swap1\n  tag_6\n  jump\t// in\ntag_7:\n  pop\n    /* \"contracts/yyi.sol\":7073:7086  tokenDecimals */\n  dup3\n    /* \"contracts/yyi.sol\":7061:7070  _decimals */\n  0x05\n  0x00\n    /* \"contracts/yyi.sol\":7061:7086  _decimals = tokenDecimals */\n  0x0100\n  exp\n  dup2\n  sload\n  dup2\n  0xff\n  mul\n  not\n  and\n  swap1\n  dup4\n  0xff\n  and\n  mul\n  or\n  swap1\n  sstore\n  pop\n    /* \"contracts/yyi.sol\":7097:7141  _mint(account, startTotal * 10 ** _decimals) */\n  tag_8\n    /* \"contracts/yyi.sol\":7103:7110  account */\n  dup2\n    /* \"contracts/yyi.sol\":7131:7140  _decimals */\n  0x05\n  0x00\n  swap1\n  sload\n  swap1\n  0x0100\n  exp\n  swap1\n  div\n  0xff\n  and\n    /* \"contracts/yyi.sol\":7125:7127  10 */\n  0x0a\n    /* \"contracts/yyi.sol\":7125:7140  10 ** _decimals */\n  tag_9\n  swap2\n  swap1\n  tag_10\n  jump\t// in\ntag_9:\n    /* \"contracts/yyi.sol\":7112:7122  startTotal */\n  dup5\n    /* \"contracts/yyi.sol\":7112:7140  startTotal * 10 ** _decimals */\n  tag_11\n  swap2\n  swap1\n  tag_12\n  jump\t// in\ntag_11:\n    /* \"contracts/yyi.sol\":7097:7102  _mint */\n  shl(0x20, tag_13)\n    /* \"contracts/yyi.sol\":7097:7141  _mint(account, startTotal * 10 ** _decimals) */\n  0x20\n  shr\n  jump\t// in\ntag_8:\n    /* \"contracts/yyi.sol\":7175:7185  msg.sender */\n  caller\n    /* \"contracts/yyi.sol\":7152:7164  adminAddress */\n  0x05\n  0x01\n    /* \"contracts/yyi.sol\":7152:7186  adminAddress = payable(msg.sender) */\n  0x0100\n  exp\n  dup2\n  sload\n  dup2\n  0xffffffffffffffffffffffffffffffffffffffff\n  mul\n  not\n  and\n  swap1\n  dup4\n  0xffffffffffffffffffffffffffffffffffffffff\n  and\n  mul\n  or\n  swap1\n  sstore\n  pop\n    /* \"contracts/yyi.sol\":6862:7194  constructor(string memory tokenName, string memory symbolName, uint8 tokenDecimals, uint256 startTotal, address account) payable {... */\n  pop\n  pop\n  pop\n  pop\n  pop\n    /* \"contracts/yyi.sol\":1068:7282  contract ERC20 is IERC20, IERC20Metadata {... */\n  jump(tag_14)\n    /* \"contracts/yyi.sol\":4779:5172  function _mint(address account, uint256 amount) internal virtual {... */\ntag_13:\n    /* \"contracts/yyi.sol\":4882:4883  0 */\n  0x00\n    /* \"contracts/yyi.sol\":4863:4884  account != address(0) */\n  0xffffffffffffffffffffffffffffffffffffffff\n  and\n    /* \"contracts/yyi.sol\":4863:4870  account */\n  dup3\n    /* \"contracts/yyi.sol\":4863:4884  account != address(0) */\n  0xffffffffffffffffffffffffffffffffffffffff\n  and\n  sub\n    /* \"contracts/yyi.sol\":4855:4920  require(account != address(0), \"ERC20: mint to the zero address\") */\n  tag_16\n  jumpi\n  mload(0x40)\n  0x08c379a000000000000000000000000000000000000000000000000000000000\n  dup2\n  mstore\n  0x04\n  add\n  tag_17\n  swap1\n  tag_18\n  jump\t// in\ntag_17:\n  mload(0x40)\n  dup1\n  swap2\n  sub\n  swap1\n  revert\ntag_16:\n    /* \"contracts/yyi.sol\":4931:4980  _beforeTokenTransfer(address(0), account, amount) */\n  tag_19\n    /* \"contracts/yyi.sol\":4960:4961  0 */\n  0x00\n    /* \"contracts/yyi.sol\":4964:4971  account */\n  dup4\n    /* \"contracts/yyi.sol\":4973:4979  amount */\n  dup4\n    /* \"contracts/yyi.sol\":4931:4951  _beforeTokenTransfer */\n  shl(0x20, tag_20)\n    /* \"contracts/yyi.sol\":4931:4980  _beforeTokenTransfer(address(0), account, amount) */\n  0x20\n  shr\n  jump\t// in\ntag_19:\n    /* \"contracts/yyi.sol\":5007:5013  amount */\n  dup1\n    /* \"contracts/yyi.sol\":4991:5003  _totalSupply */\n  0x02\n  0x00\n    /* \"contracts/yyi.sol\":4991:5013  _totalSupply += amount */\n  dup3\n  dup3\n  sload\n  tag_21\n  swap2\n  swap1\n  tag_22\n  jump\t// in\ntag_21:\n  swap3\n  pop\n  pop\n  dup2\n  swap1\n  sstore\n  pop\n    /* \"contracts/yyi.sol\":5046:5052  amount */\n  dup1\n    /* \"contracts/yyi.sol\":5024:5033  _balances */\n  0x00\n    /* \"contracts/yyi.sol\":5024:5042  _balances[account] */\n  dup1\n    /* \"contracts/yyi.sol\":5034:5041  account */\n  dup5\n    /* \"contracts/yyi.sol\":5024:5042  _balances[account] */\n  0xffffffffffffffffffffffffffffffffffffffff\n  and\n  0xffffffffffffffffffffffffffffffffffffffff\n  and\n  dup2\n  mstore\n  0x20\n  add\n  swap1\n  dup2\n  mstore\n  0x20\n  add\n  0x00\n  keccak256\n  0x00\n    /* \"contracts/yyi.sol\":5024:5052  _balances[account] += amount */\n  dup3\n  dup3\n  sload\n  tag_23\n  swap2\n  swap1\n  tag_22\n  jump\t// in\ntag_23:\n  swap3\n  pop\n  pop\n  dup2\n  swap1\n  sstore\n  pop\n    /* \"contracts/yyi.sol\":5089:5096  account */\n  dup2\n    /* \"contracts/yyi.sol\":5068:5105  Transfer(address(0), account, amount) */\n  0xffffffffffffffffffffffffffffffffffffffff\n  and\n    /* \"contracts/yyi.sol\":5085:5086  0 */\n  0x00\n    /* \"contracts/yyi.sol\":5068:5105  Transfer(address(0), account, amount) */\n  0xffffffffffffffffffffffffffffffffffffffff\n  and\n  0xddf252ad1be2c89b69c2b068fc378daa952ba7f163c4a11628f55a4df523b3ef\n    /* \"contracts/yyi.sol\":5098:5104  amount */\n  dup4\n    /* \"contracts/yyi.sol\":5068:5105  Transfer(address(0), account, amount) */\n  mload(0x40)\n  tag_24\n  swap2\n  swap1\n  tag_25\n  jump\t// in\ntag_24:\n  mload(0x40)\n  dup1\n  swap2\n  sub\n  swap1\n  log3\n    /* \"contracts/yyi.sol\":5116:5164  _afterTokenTransfer(address(0), account, amount) */\n  tag_26\n    /* \"contracts/yyi.sol\":5144:5145  0 */\n  0x00\n    /* \"contracts/yyi.sol\":5148:5155  account */\n  dup4\n    /* \"contracts/yyi.sol\":5157:5163  amount */\n  dup4\n    /* \"contracts/yyi.sol\":5116:5135  _afterTokenTransfer */\n  shl(0x20, tag_27)\n    /* \"contracts/yyi.sol\":5116:5164  _afterTokenTransfer(address(0), account, amount) */\n  0x20\n  shr\n  jump\t// in\ntag_26:\n    /* \"contracts/yyi.sol\":4779:5172  function _mint(address account, uint256 amount) internal virtual {... */\n  pop\n  pop\n  jump\t// out\n    /* \"contracts/yyi.sol\":6599:6724  function _beforeTokenTransfer(... */\ntag_20:\n  pop\n  pop\n  pop\n  jump\t// out\n    /* \"contracts/yyi.sol\":6732:6856  function _afterTokenTransfer(... */\ntag_27:\n  pop\n  pop\n  pop\n  jump\t// out\n    /* \"contracts/yyi.sol\":1068:7282  contract ERC20 is IERC20, IERC20Metadata {... */\ntag_6:\n  dup3\n  dup1\n  sload\n  tag_30\n  swap1\n  tag_31\n  jump\t// in\ntag_30:\n  swap1\n  0x00\n  mstore\n  keccak256(0x00, 0x20)\n  swap1\n  0x1f\n  add\n  0x20\n  swap1\n  div\n  dup2\n  add\n  swap3\n  dup3\n  tag_33\n  jumpi\n  0x00\n  dup6\n  sstore\n  jump(tag_32)\ntag_33:\n  dup3\n  0x1f\n  lt\n  tag_34\n  jumpi\n  dup1\n  mload\n  not(0xff)\n  and\n  dup4\n  dup1\n  add\n  or\n  dup6\n  sstore\n  jump(tag_32)\ntag_34:\n  dup3\n  dup1\n  add\n  0x01\n  add\n  dup6\n  sstore\n  dup3\n  iszero\n  tag_32\n  jumpi\n  swap2\n  dup3\n  add\ntag_35:\n  dup3\n  dup2\n  gt\n  iszero\n  tag_36\n  jumpi\n  dup3\n  mload\n  dup3\n  sstore\n  swap2\n  0x20\n  add\n  swap2\n  swap1\n  0x01\n  add\n  swap1\n  jump(tag_35)\ntag_36:\ntag_32:\n  pop\n  swap1\n  pop\n  tag_37\n  swap2\n  swap1\n  tag_38\n  jump\t// in\ntag_37:\n  pop\n  swap1\n  jump\t// out\ntag_38:\ntag_39:\n  dup1\n  dup3\n  gt\n  iszero\n  tag_40\n  jumpi\n  0x00\n  dup2\n  0x00\n  swap1\n  sstore\n  pop\n  0x01\n  add\n  jump(tag_39)\ntag_40:\n  pop\n  swap1\n  jump\t// out\n    /* \"#utility.yul\":7:82   */\ntag_41:\n    /* \"#utility.yul\":40:46   */\n  0x00\n    /* \"#utility.yul\":73:75   */\n  0x40\n    /* \"#utility.yul\":67:76   */\n  mload\n    /* \"#utility.yul\":57:76   */\n  swap1\n  pop\n    /* \"#utility.yul\":7:82   */\n  swap1\n  jump\t// out\n    /* \"#utility.yul\":88:205   */\ntag_42:\n    /* \"#utility.yul\":197:198   */\n  0x00\n    /* \"#utility.yul\":194:195   */\n  dup1\n    /* \"#utility.yul\":187:199   */\n  revert\n    /* \"#utility.yul\":211:328   */\ntag_43:\n    /* \"#utility.yul\":320:321   */\n  0x00\n    /* \"#utility.yul\":317:318   */\n  dup1\n    /* \"#utility.yul\":310:322   */\n  revert\n    /* \"#utility.yul\":334:451   */\ntag_44:\n    /* \"#utility.yul\":443:444   */\n  0x00\n    /* \"#utility.yul\":440:441   */\n  dup1\n    /* \"#utility.yul\":433:445   */\n  revert\n    /* \"#utility.yul\":457:574   */\ntag_45:\n    /* \"#utility.yul\":566:567   */\n  0x00\n    /* \"#utility.yul\":563:564   */\n  dup1\n    /* \"#utility.yul\":556:568   */\n  revert\n    /* \"#utility.yul\":580:682   */\ntag_46:\n    /* \"#utility.yul\":621:627   */\n  0x00\n    /* \"#utility.yul\":672:674   */\n  0x1f\n    /* \"#utility.yul\":668:675   */\n  not\n    /* \"#utility.yul\":663:665   */\n  0x1f\n    /* \"#utility.yul\":656:661   */\n  dup4\n    /* \"#utility.yul\":652:666   */\n  add\n    /* \"#utility.yul\":648:676   */\n  and\n    /* \"#utility.yul\":638:676   */\n  swap1\n  pop\n    /* \"#utility.yul\":580:682   */\n  swap2\n  swap1\n  pop\n  jump\t// out\n    /* \"#utility.yul\":688:868   */\ntag_47:\n    /* \"#utility.yul\":736:813   */\n  0x4e487b7100000000000000000000000000000000000000000000000000000000\n    /* \"#utility.yul\":733:734   */\n  0x00\n    /* \"#utility.yul\":726:814   */\n  mstore\n    /* \"#utility.yul\":833:837   */\n  0x41\n    /* \"#utility.yul\":830:831   */\n  0x04\n    /* \"#utility.yul\":823:838   */\n  mstore\n    /* \"#utility.yul\":857:861   */\n  0x24\n    /* \"#utility.yul\":854:855   */\n  0x00\n    /* \"#utility.yul\":847:862   */\n  revert\n    /* \"#utility.yul\":874:1155   */\ntag_48:\n    /* \"#utility.yul\":957:984   */\n  tag_82\n    /* \"#utility.yul\":979:983   */\n  dup3\n    /* \"#utility.yul\":957:984   */\n  tag_46\n  jump\t// in\ntag_82:\n    /* \"#utility.yul\":949:955   */\n  dup2\n    /* \"#utility.yul\":945:985   */\n  add\n    /* \"#utility.yul\":1087:1093   */\n  dup2\n    /* \"#utility.yul\":1075:1085   */\n  dup2\n    /* \"#utility.yul\":1072:1094   */\n  lt\n    /* \"#utility.yul\":1051:1069   */\n  0xffffffffffffffff\n    /* \"#utility.yul\":1039:1049   */\n  dup3\n    /* \"#utility.yul\":1036:1070   */\n  gt\n    /* \"#utility.yul\":1033:1095   */\n  or\n    /* \"#utility.yul\":1030:1118   */\n  iszero\n  tag_83\n  jumpi\n    /* \"#utility.yul\":1098:1116   */\n  tag_84\n  tag_47\n  jump\t// in\ntag_84:\n    /* \"#utility.yul\":1030:1118   */\ntag_83:\n    /* \"#utility.yul\":1138:1148   */\n  dup1\n    /* \"#utility.yul\":1134:1136   */\n  0x40\n    /* \"#utility.yul\":1127:1149   */\n  mstore\n    /* \"#utility.yul\":917:1155   */\n  pop\n    /* \"#utility.yul\":874:1155   */\n  pop\n  pop\n  jump\t// out\n    /* \"#utility.yul\":1161:1290   */\ntag_49:\n    /* \"#utility.yul\":1195:1201   */\n  0x00\n    /* \"#utility.yul\":1222:1242   */\n  tag_86\n  tag_41\n  jump\t// in\ntag_86:\n    /* \"#utility.yul\":1212:1242   */\n  swap1\n  pop\n    /* \"#utility.yul\":1251:1284   */\n  tag_87\n    /* \"#utility.yul\":1279:1283   */\n  dup3\n    /* \"#utility.yul\":1271:1277   */\n  dup3\n    /* \"#utility.yul\":1251:1284   */\n  tag_48\n  jump\t// in\ntag_87:\n    /* \"#utility.yul\":1161:1290   */\n  swap2\n  swap1\n  pop\n  jump\t// out\n    /* \"#utility.yul\":1296:1604   */\ntag_50:\n    /* \"#utility.yul\":1358:1362   */\n  0x00\n    /* \"#utility.yul\":1448:1466   */\n  0xffffffffffffffff\n    /* \"#utility.yul\":1440:1446   */\n  dup3\n    /* \"#utility.yul\":1437:1467   */\n  gt\n    /* \"#utility.yul\":1434:1490   */\n  iszero\n  tag_89\n  jumpi\n    /* \"#utility.yul\":1470:1488   */\n  tag_90\n  tag_47\n  jump\t// in\ntag_90:\n    /* \"#utility.yul\":1434:1490   */\ntag_89:\n    /* \"#utility.yul\":1508:1537   */\n  tag_91\n    /* \"#utility.yul\":1530:1536   */\n  dup3\n    /* \"#utility.yul\":1508:1537   */\n  tag_46\n  jump\t// in\ntag_91:\n    /* \"#utility.yul\":1500:1537   */\n  swap1\n  pop\n    /* \"#utility.yul\":1592:1596   */\n  0x20\n    /* \"#utility.yul\":1586:1590   */\n  dup2\n    /* \"#utility.yul\":1582:1597   */\n  add\n    /* \"#utility.yul\":1574:1597   */\n  swap1\n  pop\n    /* \"#utility.yul\":1296:1604   */\n  swap2\n  swap1\n  pop\n  jump\t// out\n    /* \"#utility.yul\":1610:1917   */\ntag_51:\n    /* \"#utility.yul\":1678:1679   */\n  0x00\n    /* \"#utility.yul\":1688:1801   */\ntag_93:\n    /* \"#utility.yul\":1702:1708   */\n  dup4\n    /* \"#utility.yul\":1699:1700   */\n  dup2\n    /* \"#utility.yul\":1696:1709   */\n  lt\n    /* \"#utility.yul\":1688:1801   */\n  iszero\n  tag_95\n  jumpi\n    /* \"#utility.yul\":1787:1788   */\n  dup1\n    /* \"#utility.yul\":1782:1785   */\n  dup3\n    /* \"#utility.yul\":1778:1789   */\n  add\n    /* \"#utility.yul\":1772:1790   */\n  mload\n    /* \"#utility.yul\":1768:1769   */\n  dup2\n    /* \"#utility.yul\":1763:1766   */\n  dup5\n    /* \"#utility.yul\":1759:1770   */\n  add\n    /* \"#utility.yul\":1752:1791   */\n  mstore\n    /* \"#utility.yul\":1724:1726   */\n  0x20\n    /* \"#utility.yul\":1721:1722   */\n  dup2\n    /* \"#utility.yul\":1717:1727   */\n  add\n    /* \"#utility.yul\":1712:1727   */\n  swap1\n  pop\n    /* \"#utility.yul\":1688:1801   */\n  jump(tag_93)\ntag_95:\n    /* \"#utility.yul\":1819:1825   */\n  dup4\n    /* \"#utility.yul\":1816:1817   */\n  dup2\n    /* \"#utility.yul\":1813:1826   */\n  gt\n    /* \"#utility.yul\":1810:1911   */\n  iszero\n  tag_96\n  jumpi\n    /* \"#utility.yul\":1899:1900   */\n  0x00\n    /* \"#utility.yul\":1890:1896   */\n  dup5\n    /* \"#utility.yul\":1885:1888   */\n  dup5\n    /* \"#utility.yul\":1881:1897   */\n  add\n    /* \"#utility.yul\":1874:1901   */\n  mstore\n    /* \"#utility.yul\":1810:1911   */\ntag_96:\n    /* \"#utility.yul\":1659:1917   */\n  pop\n    /* \"#utility.yul\":1610:1917   */\n  pop\n  pop\n  pop\n  jump\t// out\n    /* \"#utility.yul\":1923:2344   */\ntag_52:\n    /* \"#utility.yul\":2012:2017   */\n  0x00\n    /* \"#utility.yul\":2037:2103   */\n  tag_98\n    /* \"#utility.yul\":2053:2102   */\n  tag_99\n    /* \"#utility.yul\":2095:2101   */\n  dup5\n    /* \"#utility.yul\":2053:2102   */\n  tag_50\n  jump\t// in\ntag_99:\n    /* \"#utility.yul\":2037:2103   */\n  tag_49\n  jump\t// in\ntag_98:\n    /* \"#utility.yul\":2028:2103   */\n  swap1\n  pop\n    /* \"#utility.yul\":2126:2132   */\n  dup3\n    /* \"#utility.yul\":2119:2124   */\n  dup2\n    /* \"#utility.yul\":2112:2133   */\n  mstore\n    /* \"#utility.yul\":2164:2168   */\n  0x20\n    /* \"#utility.yul\":2157:2162   */\n  dup2\n    /* \"#utility.yul\":2153:2169   */\n  add\n    /* \"#utility.yul\":2202:2205   */\n  dup5\n    /* \"#utility.yul\":2193:2199   */\n  dup5\n    /* \"#utility.yul\":2188:2191   */\n  dup5\n    /* \"#utility.yul\":2184:2200   */\n  add\n    /* \"#utility.yul\":2181:2206   */\n  gt\n    /* \"#utility.yul\":2178:2290   */\n  iszero\n  tag_100\n  jumpi\n    /* \"#utility.yul\":2209:2288   */\n  tag_101\n  tag_45\n  jump\t// in\ntag_101:\n    /* \"#utility.yul\":2178:2290   */\ntag_100:\n    /* \"#utility.yul\":2299:2338   */\n  tag_102\n    /* \"#utility.yul\":2331:2337   */\n  dup5\n    /* \"#utility.yul\":2326:2329   */\n  dup3\n    /* \"#utility.yul\":2321:2324   */\n  dup6\n    /* \"#utility.yul\":2299:2338   */\n  tag_51\n  jump\t// in\ntag_102:\n    /* \"#utility.yul\":2018:2344   */\n  pop\n    /* \"#utility.yul\":1923:2344   */\n  swap4\n  swap3\n  pop\n  pop\n  pop\n  jump\t// out\n    /* \"#utility.yul\":2364:2719   */\ntag_53:\n    /* \"#utility.yul\":2431:2436   */\n  0x00\n    /* \"#utility.yul\":2480:2483   */\n  dup3\n    /* \"#utility.yul\":2473:2477   */\n  0x1f\n    /* \"#utility.yul\":2465:2471   */\n  dup4\n    /* \"#utility.yul\":2461:2478   */\n  add\n    /* \"#utility.yul\":2457:2484   */\n  slt\n    /* \"#utility.yul\":2447:2569   */\n  tag_104\n  jumpi\n    /* \"#utility.yul\":2488:2567   */\n  tag_105\n  tag_44\n  jump\t// in\ntag_105:\n    /* \"#utility.yul\":2447:2569   */\ntag_104:\n    /* \"#utility.yul\":2598:2604   */\n  dup2\n    /* \"#utility.yul\":2592:2605   */\n  mload\n    /* \"#utility.yul\":2623:2713   */\n  tag_106\n    /* \"#utility.yul\":2709:2712   */\n  dup5\n    /* \"#utility.yul\":2701:2707   */\n  dup3\n    /* \"#utility.yul\":2694:2698   */\n  0x20\n    /* \"#utility.yul\":2686:2692   */\n  dup7\n    /* \"#utility.yul\":2682:2699   */\n  add\n    /* \"#utility.yul\":2623:2713   */\n  tag_52\n  jump\t// in\ntag_106:\n    /* \"#utility.yul\":2614:2713   */\n  swap2\n  pop\n    /* \"#utility.yul\":2437:2719   */\n  pop\n    /* \"#utility.yul\":2364:2719   */\n  swap3\n  swap2\n  pop\n  pop\n  jump\t// out\n    /* \"#utility.yul\":2725:2811   */\ntag_54:\n    /* \"#utility.yul\":2760:2767   */\n  0x00\n    /* \"#utility.yul\":2800:2804   */\n  0xff\n    /* \"#utility.yul\":2793:2798   */\n  dup3\n    /* \"#utility.yul\":2789:2805   */\n  and\n    /* \"#utility.yul\":2778:2805   */\n  swap1\n  pop\n    /* \"#utility.yul\":2725:2811   */\n  swap2\n  swap1\n  pop\n  jump\t// out\n    /* \"#utility.yul\":2817:2935   */\ntag_55:\n    /* \"#utility.yul\":2888:2910   */\n  tag_109\n    /* \"#utility.yul\":2904:2909   */\n  dup2\n    /* \"#utility.yul\":2888:2910   */\n  tag_54\n  jump\t// in\ntag_109:\n    /* \"#utility.yul\":2881:2886   */\n  dup2\n    /* \"#utility.yul\":2878:2911   */\n  eq\n    /* \"#utility.yul\":2868:2929   */\n  tag_110\n  jumpi\n    /* \"#utility.yul\":2925:2926   */\n  0x00\n    /* \"#utility.yul\":2922:2923   */\n  dup1\n    /* \"#utility.yul\":2915:2927   */\n  revert\n    /* \"#utility.yul\":2868:2929   */\ntag_110:\n    /* \"#utility.yul\":2817:2935   */\n  pop\n  jump\t// out\n    /* \"#utility.yul\":2941:3080   */\ntag_56:\n    /* \"#utility.yul\":2996:3001   */\n  0x00\n    /* \"#utility.yul\":3027:3033   */\n  dup2\n    /* \"#utility.yul\":3021:3034   */\n  mload\n    /* \"#utility.yul\":3012:3034   */\n  swap1\n  pop\n    /* \"#utility.yul\":3043:3074   */\n  tag_112\n    /* \"#utility.yul\":3068:3073   */\n  dup2\n    /* \"#utility.yul\":3043:3074   */\n  tag_55\n  jump\t// in\ntag_112:\n    /* \"#utility.yul\":2941:3080   */\n  swap3\n  swap2\n  pop\n  pop\n  jump\t// out\n    /* \"#utility.yul\":3086:3163   */\ntag_57:\n    /* \"#utility.yul\":3123:3130   */\n  0x00\n    /* \"#utility.yul\":3152:3157   */\n  dup2\n    /* \"#utility.yul\":3141:3157   */\n  swap1\n  pop\n    /* \"#utility.yul\":3086:3163   */\n  swap2\n  swap1\n  pop\n  jump\t// out\n    /* \"#utility.yul\":3169:3291   */\ntag_58:\n    /* \"#utility.yul\":3242:3266   */\n  tag_115\n    /* \"#utility.yul\":3260:3265   */\n  dup2\n    /* \"#utility.yul\":3242:3266   */\n  tag_57\n  jump\t// in\ntag_115:\n    /* \"#utility.yul\":3235:3240   */\n  dup2\n    /* \"#utility.yul\":3232:3267   */\n  eq\n    /* \"#utility.yul\":3222:3285   */\n  tag_116\n  jumpi\n    /* \"#utility.yul\":3281:3282   */\n  0x00\n    /* \"#utility.yul\":3278:3279   */\n  dup1\n    /* \"#utility.yul\":3271:3283   */\n  revert\n    /* \"#utility.yul\":3222:3285   */\ntag_116:\n    /* \"#utility.yul\":3169:3291   */\n  pop\n  jump\t// out\n    /* \"#utility.yul\":3297:3440   */\ntag_59:\n    /* \"#utility.yul\":3354:3359   */\n  0x00\n    /* \"#utility.yul\":3385:3391   */\n  dup2\n    /* \"#utility.yul\":3379:3392   */\n  mload\n    /* \"#utility.yul\":3370:3392   */\n  swap1\n  pop\n    /* \"#utility.yul\":3401:3434   */\n  tag_118\n    /* \"#utility.yul\":3428:3433   */\n  dup2\n    /* \"#utility.yul\":3401:3434   */\n  tag_58\n  jump\t// in\ntag_118:\n    /* \"#utility.yul\":3297:3440   */\n  swap3\n  swap2\n  pop\n  pop\n  jump\t// out\n    /* \"#utility.yul\":3446:3572   */\ntag_60:\n    /* \"#utility.yul\":3483:3490   */\n  0x00\n    /* \"#utility.yul\":3523:3565   */\n  0xffffffffffffffffffffffffffffffffffffffff\n    /* \"#utility.yul\":3516:3521   */\n  dup3\n    /* \"#utility.yul\":3512:3566   */\n  and\n    /* \"#utility.yul\":3501:3566   */\n  swap1\n  pop\n    /* \"#utility.yul\":3446:3572   */\n  swap2\n  swap1\n  pop\n  jump\t// out\n    /* \"#utility.yul\":3578:3674   */\ntag_61:\n    /* \"#utility.yul\":3615:3622   */\n  0x00\n    /* \"#utility.yul\":3644:3668   */\n  tag_121\n    /* \"#utility.yul\":3662:3667   */\n  dup3\n    /* \"#utility.yul\":3644:3668   */\n  tag_60\n  jump\t// in\ntag_121:\n    /* \"#utility.yul\":3633:3668   */\n  swap1\n  pop\n    /* \"#utility.yul\":3578:3674   */\n  swap2\n  swap1\n  pop\n  jump\t// out\n    /* \"#utility.yul\":3680:3802   */\ntag_62:\n    /* \"#utility.yul\":3753:3777   */\n  tag_123\n    /* \"#utility.yul\":3771:3776   */\n  dup2\n    /* \"#utility.yul\":3753:3777   */\n  tag_61\n  jump\t// in\ntag_123:\n    /* \"#utility.yul\":3746:3751   */\n  dup2\n    /* \"#utility.yul\":3743:3778   */\n  eq\n    /* \"#utility.yul\":3733:3796   */\n  tag_124\n  jumpi\n    /* \"#utility.yul\":3792:3793   */\n  0x00\n    /* \"#utility.yul\":3789:3790   */\n  dup1\n    /* \"#utility.yul\":3782:3794   */\n  revert\n    /* \"#utility.yul\":3733:3796   */\ntag_124:\n    /* \"#utility.yul\":3680:3802   */\n  pop\n  jump\t// out\n    /* \"#utility.yul\":3808:3951   */\ntag_63:\n    /* \"#utility.yul\":3865:3870   */\n  0x00\n    /* \"#utility.yul\":3896:3902   */\n  dup2\n    /* \"#utility.yul\":3890:3903   */\n  mload\n    /* \"#utility.yul\":3881:3903   */\n  swap1\n  pop\n    /* \"#utility.yul\":3912:3945   */\n  tag_126\n    /* \"#utility.yul\":3939:3944   */\n  dup2\n    /* \"#utility.yul\":3912:3945   */\n  tag_62\n  jump\t// in\ntag_126:\n    /* \"#utility.yul\":3808:3951   */\n  swap3\n  swap2\n  pop\n  pop\n  jump\t// out\n    /* \"#utility.yul\":3957:5276   */\ntag_2:\n    /* \"#utility.yul\":4081:4087   */\n  0x00\n    /* \"#utility.yul\":4089:4095   */\n  dup1\n    /* \"#utility.yul\":4097:4103   */\n  0x00\n    /* \"#utility.yul\":4105:4111   */\n  dup1\n    /* \"#utility.yul\":4113:4119   */\n  0x00\n    /* \"#utility.yul\":4162:4165   */\n  0xa0\n    /* \"#utility.yul\":4150:4159   */\n  dup7\n    /* \"#utility.yul\":4141:4148   */\n  dup9\n    /* \"#utility.yul\":4137:4160   */\n  sub\n    /* \"#utility.yul\":4133:4166   */\n  slt\n    /* \"#utility.yul\":4130:4250   */\n  iszero\n  tag_128\n  jumpi\n    /* \"#utility.yul\":4169:4248   */\n  tag_129\n  tag_42\n  jump\t// in\ntag_129:\n    /* \"#utility.yul\":4130:4250   */\ntag_128:\n    /* \"#utility.yul\":4310:4311   */\n  0x00\n    /* \"#utility.yul\":4299:4308   */\n  dup7\n    /* \"#utility.yul\":4295:4312   */\n  add\n    /* \"#utility.yul\":4289:4313   */\n  mload\n    /* \"#utility.yul\":4340:4358   */\n  0xffffffffffffffff\n    /* \"#utility.yul\":4332:4338   */\n  dup2\n    /* \"#utility.yul\":4329:4359   */\n  gt\n    /* \"#utility.yul\":4326:4443   */\n  iszero\n  tag_130\n  jumpi\n    /* \"#utility.yul\":4362:4441   */\n  tag_131\n  tag_43\n  jump\t// in\ntag_131:\n    /* \"#utility.yul\":4326:4443   */\ntag_130:\n    /* \"#utility.yul\":4467:4541   */\n  tag_132\n    /* \"#utility.yul\":4533:4540   */\n  dup9\n    /* \"#utility.yul\":4524:4530   */\n  dup3\n    /* \"#utility.yul\":4513:4522   */\n  dup10\n    /* \"#utility.yul\":4509:4531   */\n  add\n    /* \"#utility.yul\":4467:4541   */\n  tag_53\n  jump\t// in\ntag_132:\n    /* \"#utility.yul\":4457:4541   */\n  swap6\n  pop\n    /* \"#utility.yul\":4260:4551   */\n  pop\n    /* \"#utility.yul\":4611:4613   */\n  0x20\n    /* \"#utility.yul\":4600:4609   */\n  dup7\n    /* \"#utility.yul\":4596:4614   */\n  add\n    /* \"#utility.yul\":4590:4615   */\n  mload\n    /* \"#utility.yul\":4642:4660   */\n  0xffffffffffffffff\n    /* \"#utility.yul\":4634:4640   */\n  dup2\n    /* \"#utility.yul\":4631:4661   */\n  gt\n    /* \"#utility.yul\":4628:4745   */\n  iszero\n  tag_133\n  jumpi\n    /* \"#utility.yul\":4664:4743   */\n  tag_134\n  tag_43\n  jump\t// in\ntag_134:\n    /* \"#utility.yul\":4628:4745   */\ntag_133:\n    /* \"#utility.yul\":4769:4843   */\n  tag_135\n    /* \"#utility.yul\":4835:4842   */\n  dup9\n    /* \"#utility.yul\":4826:4832   */\n  dup3\n    /* \"#utility.yul\":4815:4824   */\n  dup10\n    /* \"#utility.yul\":4811:4833   */\n  add\n    /* \"#utility.yul\":4769:4843   */\n  tag_53\n  jump\t// in\ntag_135:\n    /* \"#utility.yul\":4759:4843   */\n  swap5\n  pop\n    /* \"#utility.yul\":4561:4853   */\n  pop\n    /* \"#utility.yul\":4892:4894   */\n  0x40\n    /* \"#utility.yul\":4918:4980   */\n  tag_136\n    /* \"#utility.yul\":4972:4979   */\n  dup9\n    /* \"#utility.yul\":4963:4969   */\n  dup3\n    /* \"#utility.yul\":4952:4961   */\n  dup10\n    /* \"#utility.yul\":4948:4970   */\n  add\n    /* \"#utility.yul\":4918:4980   */\n  tag_56\n  jump\t// in\ntag_136:\n    /* \"#utility.yul\":4908:4980   */\n  swap4\n  pop\n    /* \"#utility.yul\":4863:4990   */\n  pop\n    /* \"#utility.yul\":5029:5031   */\n  0x60\n    /* \"#utility.yul\":5055:5119   */\n  tag_137\n    /* \"#utility.yul\":5111:5118   */\n  dup9\n    /* \"#utility.yul\":5102:5108   */\n  dup3\n    /* \"#utility.yul\":5091:5100   */\n  dup10\n    /* \"#utility.yul\":5087:5109   */\n  add\n    /* \"#utility.yul\":5055:5119   */\n  tag_59\n  jump\t// in\ntag_137:\n    /* \"#utility.yul\":5045:5119   */\n  swap3\n  pop\n    /* \"#utility.yul\":5000:5129   */\n  pop\n    /* \"#utility.yul\":5168:5171   */\n  0x80\n    /* \"#utility.yul\":5195:5259   */\n  tag_138\n    /* \"#utility.yul\":5251:5258   */\n  dup9\n    /* \"#utility.yul\":5242:5248   */\n  dup3\n    /* \"#utility.yul\":5231:5240   */\n  dup10\n    /* \"#utility.yul\":5227:5249   */\n  add\n    /* \"#utility.yul\":5195:5259   */\n  tag_63\n  jump\t// in\ntag_138:\n    /* \"#utility.yul\":5185:5259   */\n  swap2\n  pop\n    /* \"#utility.yul\":5139:5269   */\n  pop\n    /* \"#utility.yul\":3957:5276   */\n  swap3\n  swap6\n  pop\n  swap3\n  swap6\n  swap1\n  swap4\n  pop\n  jump\t// out\n    /* \"#utility.yul\":5282:5462   */\ntag_64:\n    /* \"#utility.yul\":5330:5407   */\n  0x4e487b7100000000000000000000000000000000000000000000000000000000\n    /* \"#utility.yul\":5327:5328   */\n  0x00\n    /* \"#utility.yul\":5320:5408   */\n  mstore\n    /* \"#utility.yul\":5427:5431   */\n  0x11\n    /* \"#utility.yul\":5424:5425   */\n  0x04\n    /* \"#utility.yul\":5417:5432   */\n  mstore\n    /* \"#utility.yul\":5451:5455   */\n  0x24\n    /* \"#utility.yul\":5448:5449   */\n  0x00\n    /* \"#utility.yul\":5441:5456   */\n  revert\n    /* \"#utility.yul\":5468:5570   */\ntag_65:\n    /* \"#utility.yul\":5510:5518   */\n  0x00\n    /* \"#utility.yul\":5557:5562   */\n  dup2\n    /* \"#utility.yul\":5554:5555   */\n  0x01\n    /* \"#utility.yul\":5550:5563   */\n  shr\n    /* \"#utility.yul\":5529:5563   */\n  swap1\n  pop\n    /* \"#utility.yul\":5468:5570   */\n  swap2\n  swap1\n  pop\n  jump\t// out\n    /* \"#utility.yul\":5576:6424   */\ntag_66:\n    /* \"#utility.yul\":5637:5642   */\n  0x00\n    /* \"#utility.yul\":5644:5648   */\n  dup1\n    /* \"#utility.yul\":5668:5674   */\n  dup3\n    /* \"#utility.yul\":5659:5674   */\n  swap2\n  pop\n    /* \"#utility.yul\":5692:5697   */\n  dup4\n    /* \"#utility.yul\":5683:5697   */\n  swap1\n  pop\n    /* \"#utility.yul\":5706:6418   */\ntag_142:\n    /* \"#utility.yul\":5727:5728   */\n  0x01\n    /* \"#utility.yul\":5717:5725   */\n  dup6\n    /* \"#utility.yul\":5714:5729   */\n  gt\n    /* \"#utility.yul\":5706:6418   */\n  iszero\n  tag_144\n  jumpi\n    /* \"#utility.yul\":5822:5826   */\n  dup1\n    /* \"#utility.yul\":5817:5820   */\n  dup7\n    /* \"#utility.yul\":5813:5827   */\n  div\n    /* \"#utility.yul\":5807:5811   */\n  dup2\n    /* \"#utility.yul\":5804:5828   */\n  gt\n    /* \"#utility.yul\":5801:5851   */\n  iszero\n  tag_145\n  jumpi\n    /* \"#utility.yul\":5831:5849   */\n  tag_146\n  tag_64\n  jump\t// in\ntag_146:\n    /* \"#utility.yul\":5801:5851   */\ntag_145:\n    /* \"#utility.yul\":5881:5882   */\n  0x01\n    /* \"#utility.yul\":5871:5879   */\n  dup6\n    /* \"#utility.yul\":5867:5883   */\n  and\n    /* \"#utility.yul\":5864:6315   */\n  iszero\n  tag_147\n  jumpi\n    /* \"#utility.yul\":6296:6300   */\n  dup1\n    /* \"#utility.yul\":6289:6294   */\n  dup3\n    /* \"#utility.yul\":6285:6301   */\n  mul\n    /* \"#utility.yul\":6276:6301   */\n  swap2\n  pop\n    /* \"#utility.yul\":5864:6315   */\ntag_147:\n    /* \"#utility.yul\":6346:6350   */\n  dup1\n    /* \"#utility.yul\":6340:6344   */\n  dup2\n    /* \"#utility.yul\":6336:6351   */\n  mul\n    /* \"#utility.yul\":6328:6351   */\n  swap1\n  pop\n    /* \"#utility.yul\":6376:6408   */\n  tag_148\n    /* \"#utility.yul\":6399:6407   */\n  dup6\n    /* \"#utility.yul\":6376:6408   */\n  tag_65\n  jump\t// in\ntag_148:\n    /* \"#utility.yul\":6364:6408   */\n  swap5\n  pop\n    /* \"#utility.yul\":5706:6418   */\n  jump(tag_142)\ntag_144:\n    /* \"#utility.yul\":5576:6424   */\n  swap5\n  pop\n  swap5\n  swap3\n  pop\n  pop\n  pop\n  jump\t// out\n    /* \"#utility.yul\":6430:7503   */\ntag_67:\n    /* \"#utility.yul\":6484:6489   */\n  0x00\n    /* \"#utility.yul\":6675:6683   */\n  dup3\n    /* \"#utility.yul\":6665:6705   */\n  tag_150\n  jumpi\n    /* \"#utility.yul\":6696:6697   */\n  0x01\n    /* \"#utility.yul\":6687:6697   */\n  swap1\n  pop\n    /* \"#utility.yul\":6698:6703   */\n  jump(tag_149)\n    /* \"#utility.yul\":6665:6705   */\ntag_150:\n    /* \"#utility.yul\":6724:6728   */\n  dup2\n    /* \"#utility.yul\":6714:6750   */\n  tag_151\n  jumpi\n    /* \"#utility.yul\":6741:6742   */\n  0x00\n    /* \"#utility.yul\":6732:6742   */\n  swap1\n  pop\n    /* \"#utility.yul\":6743:6748   */\n  jump(tag_149)\n    /* \"#utility.yul\":6714:6750   */\ntag_151:\n    /* \"#utility.yul\":6810:6814   */\n  dup2\n    /* \"#utility.yul\":6858:6859   */\n  0x01\n    /* \"#utility.yul\":6853:6880   */\n  dup2\n  eq\n  tag_153\n  jumpi\n    /* \"#utility.yul\":6894:6895   */\n  0x02\n    /* \"#utility.yul\":6889:7080   */\n  dup2\n  eq\n  tag_154\n  jumpi\n    /* \"#utility.yul\":6803:7080   */\n  jump(tag_152)\n    /* \"#utility.yul\":6853:6880   */\ntag_153:\n    /* \"#utility.yul\":6871:6872   */\n  0x01\n    /* \"#utility.yul\":6862:6872   */\n  swap2\n  pop\n    /* \"#utility.yul\":6873:6878   */\n  pop\n  jump(tag_149)\n    /* \"#utility.yul\":6889:7080   */\ntag_154:\n    /* \"#utility.yul\":6934:6937   */\n  0xff\n    /* \"#utility.yul\":6924:6932   */\n  dup5\n    /* \"#utility.yul\":6921:6938   */\n  gt\n    /* \"#utility.yul\":6918:6961   */\n  iszero\n  tag_155\n  jumpi\n    /* \"#utility.yul\":6941:6959   */\n  tag_156\n  tag_64\n  jump\t// in\ntag_156:\n    /* \"#utility.yul\":6918:6961   */\ntag_155:\n    /* \"#utility.yul\":6990:6998   */\n  dup4\n    /* \"#utility.yul\":6987:6988   */\n  0x02\n    /* \"#utility.yul\":6983:6999   */\n  exp\n    /* \"#utility.yul\":6974:6999   */\n  swap2\n  pop\n    /* \"#utility.yul\":7025:7028   */\n  dup5\n    /* \"#utility.yul\":7018:7023   */\n  dup3\n    /* \"#utility.yul\":7015:7029   */\n  gt\n    /* \"#utility.yul\":7012:7052   */\n  iszero\n  tag_157\n  jumpi\n    /* \"#utility.yul\":7032:7050   */\n  tag_158\n  tag_64\n  jump\t// in\ntag_158:\n    /* \"#utility.yul\":7012:7052   */\ntag_157:\n    /* \"#utility.yul\":7065:7070   */\n  pop\n  jump(tag_149)\n    /* \"#utility.yul\":6803:7080   */\ntag_152:\n  pop\n    /* \"#utility.yul\":7189:7191   */\n  0x20\n    /* \"#utility.yul\":7179:7187   */\n  dup4\n    /* \"#utility.yul\":7176:7192   */\n  lt\n    /* \"#utility.yul\":7170:7173   */\n  0x0133\n    /* \"#utility.yul\":7164:7168   */\n  dup4\n    /* \"#utility.yul\":7161:7174   */\n  lt\n    /* \"#utility.yul\":7157:7193   */\n  and\n    /* \"#utility.yul\":7139:7141   */\n  0x4e\n    /* \"#utility.yul\":7129:7137   */\n  dup5\n    /* \"#utility.yul\":7126:7142   */\n  lt\n    /* \"#utility.yul\":7121:7123   */\n  0x0b\n    /* \"#utility.yul\":7115:7119   */\n  dup5\n    /* \"#utility.yul\":7112:7124   */\n  lt\n    /* \"#utility.yul\":7108:7143   */\n  and\n    /* \"#utility.yul\":7092:7203   */\n  or\n    /* \"#utility.yul\":7089:7335   */\n  iszero\n  tag_159\n  jumpi\n    /* \"#utility.yul\":7245:7253   */\n  dup3\n    /* \"#utility.yul\":7239:7243   */\n  dup3\n    /* \"#utility.yul\":7235:7254   */\n  exp\n    /* \"#utility.yul\":7226:7254   */\n  swap1\n  pop\n    /* \"#utility.yul\":7280:7283   */\n  dup4\n    /* \"#utility.yul\":7273:7278   */\n  dup2\n    /* \"#utility.yul\":7270:7284   */\n  gt\n    /* \"#utility.yul\":7267:7307   */\n  iszero\n  tag_160\n  jumpi\n    /* \"#utility.yul\":7287:7305   */\n  tag_161\n  tag_64\n  jump\t// in\ntag_161:\n    /* \"#utility.yul\":7267:7307   */\ntag_160:\n    /* \"#utility.yul\":7320:7325   */\n  jump(tag_149)\n    /* \"#utility.yul\":7089:7335   */\ntag_159:\n    /* \"#utility.yul\":7360:7402   */\n  tag_162\n    /* \"#utility.yul\":7398:7401   */\n  dup5\n    /* \"#utility.yul\":7388:7396   */\n  dup5\n    /* \"#utility.yul\":7382:7386   */\n  dup5\n    /* \"#utility.yul\":7379:7380   */\n  0x01\n    /* \"#utility.yul\":7360:7402   */\n  tag_66\n  jump\t// in\ntag_162:\n    /* \"#utility.yul\":7345:7402   */\n  swap3\n  pop\n  swap1\n  pop\n    /* \"#utility.yul\":7434:7438   */\n  dup2\n    /* \"#utility.yul\":7429:7432   */\n  dup5\n    /* \"#utility.yul\":7425:7439   */\n  div\n    /* \"#utility.yul\":7418:7423   */\n  dup2\n    /* \"#utility.yul\":7415:7440   */\n  gt\n    /* \"#utility.yul\":7412:7463   */\n  iszero\n  tag_163\n  jumpi\n    /* \"#utility.yul\":7443:7461   */\n  tag_164\n  tag_64\n  jump\t// in\ntag_164:\n    /* \"#utility.yul\":7412:7463   */\ntag_163:\n    /* \"#utility.yul\":7492:7496   */\n  dup2\n    /* \"#utility.yul\":7485:7490   */\n  dup2\n    /* \"#utility.yul\":7481:7497   */\n  mul\n    /* \"#utility.yul\":7472:7497   */\n  swap1\n  pop\n    /* \"#utility.yul\":6430:7503   */\ntag_149:\n  swap4\n  swap3\n  pop\n  pop\n  pop\n  jump\t// out\n    /* \"#utility.yul\":7509:7790   */\ntag_10:\n    /* \"#utility.yul\":7567:7572   */\n  0x00\n    /* \"#utility.yul\":7591:7614   */\n  tag_166\n    /* \"#utility.yul\":7609:7613   */\n  dup3\n    /* \"#utility.yul\":7591:7614   */\n  tag_57\n  jump\t// in\ntag_166:\n    /* \"#utility.yul\":7583:7614   */\n  swap2\n  pop\n    /* \"#utility.yul\":7635:7660   */\n  tag_167\n    /* \"#utility.yul\":7651:7659   */\n  dup4\n    /* \"#utility.yul\":7635:7660   */\n  tag_54\n  jump\t// in\ntag_167:\n    /* \"#utility.yul\":7623:7660   */\n  swap3\n  pop\n    /* \"#utility.yul\":7679:7783   */\n  tag_168\n    /* \"#utility.yul\":7716:7782   */\n  0xffffffffffffffffffffffffffffffffffffffffffffffffffffffffffffffff\n    /* \"#utility.yul\":7706:7714   */\n  dup5\n    /* \"#utility.yul\":7700:7704   */\n  dup5\n    /* \"#utility.yul\":7679:7783   */\n  tag_67\n  jump\t// in\ntag_168:\n    /* \"#utility.yul\":7670:7783   */\n  swap1\n  pop\n    /* \"#utility.yul\":7509:7790   */\n  swap3\n  swap2\n  pop\n  pop\n  jump\t// out\n    /* \"#utility.yul\":7796:8144   */\ntag_12:\n    /* \"#utility.yul\":7836:7843   */\n  0x00\n    /* \"#utility.yul\":7859:7879   */\n  tag_170\n    /* \"#utility.yul\":7877:7878   */\n  dup3\n    /* \"#utility.yul\":7859:7879   */\n  tag_57\n  jump\t// in\ntag_170:\n    /* \"#utility.yul\":7854:7879   */\n  swap2\n  pop\n    /* \"#utility.yul\":7893:7913   */\n  tag_171\n    /* \"#utility.yul\":7911:7912   */\n  dup4\n    /* \"#utility.yul\":7893:7913   */\n  tag_57\n  jump\t// in\ntag_171:\n    /* \"#utility.yul\":7888:7913   */\n  swap3\n  pop\n    /* \"#utility.yul\":8081:8082   */\n  dup2\n    /* \"#utility.yul\":8013:8079   */\n  0xffffffffffffffffffffffffffffffffffffffffffffffffffffffffffffffff\n    /* \"#utility.yul\":8009:8083   */\n  div\n    /* \"#utility.yul\":8006:8007   */\n  dup4\n    /* \"#utility.yul\":8003:8084   */\n  gt\n    /* \"#utility.yul\":7998:7999   */\n  dup3\n    /* \"#utility.yul\":7991:8000   */\n  iszero\n    /* \"#utility.yul\":7984:8001   */\n  iszero\n    /* \"#utility.yul\":7980:8085   */\n  and\n    /* \"#utility.yul\":7977:8108   */\n  iszero\n  tag_172\n  jumpi\n    /* \"#utility.yul\":8088:8106   */\n  tag_173\n  tag_64\n  jump\t// in\ntag_173:\n    /* \"#utility.yul\":7977:8108   */\ntag_172:\n    /* \"#utility.yul\":8136:8137   */\n  dup3\n    /* \"#utility.yul\":8133:8134   */\n  dup3\n    /* \"#utility.yul\":8129:8138   */\n  mul\n    /* \"#utility.yul\":8118:8138   */\n  swap1\n  pop\n    /* \"#utility.yul\":7796:8144   */\n  swap3\n  swap2\n  pop\n  pop\n  jump\t// out\n    /* \"#utility.yul\":8150:8319   */\ntag_68:\n    /* \"#utility.yul\":8234:8245   */\n  0x00\n    /* \"#utility.yul\":8268:8274   */\n  dup3\n    /* \"#utility.yul\":8263:8266   */\n  dup3\n    /* \"#utility.yul\":8256:8275   */\n  mstore\n    /* \"#utility.yul\":8308:8312   */\n  0x20\n    /* \"#utility.yul\":8303:8306   */\n  dup3\n    /* \"#utility.yul\":8299:8313   */\n  add\n    /* \"#utility.yul\":8284:8313   */\n  swap1\n  pop\n    /* \"#utility.yul\":8150:8319   */\n  swap3\n  swap2\n  pop\n  pop\n  jump\t// out\n    /* \"#utility.yul\":8325:8506   */\ntag_69:\n    /* \"#utility.yul\":8465:8498   */\n  0x45524332303a206d696e7420746f20746865207a65726f206164647265737300\n    /* \"#utility.yul\":8461:8462   */\n  0x00\n    /* \"#utility.yul\":8453:8459   */\n  dup3\n    /* \"#utility.yul\":8449:8463   */\n  add\n    /* \"#utility.yul\":8442:8499   */\n  mstore\n    /* \"#utility.yul\":8325:8506   */\n  pop\n  jump\t// out\n    /* \"#utility.yul\":8512:8878   */\ntag_70:\n    /* \"#utility.yul\":8654:8657   */\n  0x00\n    /* \"#utility.yul\":8675:8742   */\n  tag_177\n    /* \"#utility.yul\":8739:8741   */\n  0x1f\n    /* \"#utility.yul\":8734:8737   */\n  dup4\n    /* \"#utility.yul\":8675:8742   */\n  tag_68\n  jump\t// in\ntag_177:\n    /* \"#utility.yul\":8668:8742   */\n  swap2\n  pop\n    /* \"#utility.yul\":8751:8844   */\n  tag_178\n    /* \"#utility.yul\":8840:8843   */\n  dup3\n    /* \"#utility.yul\":8751:8844   */\n  tag_69\n  jump\t// in\ntag_178:\n    /* \"#utility.yul\":8869:8871   */\n  0x20\n    /* \"#utility.yul\":8864:8867   */\n  dup3\n    /* \"#utility.yul\":8860:8872   */\n  add\n    /* \"#utility.yul\":8853:8872   */\n  swap1\n  pop\n    /* \"#utility.yul\":8512:8878   */\n  swap2\n  swap1\n  pop\n  jump\t// out\n    /* \"#utility.yul\":8884:9303   */\ntag_18:\n    /* \"#utility.yul\":9050:9054   */\n  0x00\n    /* \"#utility.yul\":9088:9090   */\n  0x20\n    /* \"#utility.yul\":9077:9086   */\n  dup3\n    /* \"#utility.yul\":9073:9091   */\n  add\n    /* \"#utility.yul\":9065:9091   */\n  swap1\n  pop\n    /* \"#utility.yul\":9137:9146   */\n  dup2\n    /* \"#utility.yul\":9131:9135   */\n  dup2\n    /* \"#utility.yul\":9127:9147   */\n  sub\n    /* \"#utility.yul\":9123:9124   */\n  0x00\n    /* \"#utility.yul\":9112:9121   */\n  dup4\n    /* \"#utility.yul\":9108:9125   */\n  add\n    /* \"#utility.yul\":9101:9148   */\n  mstore\n    /* \"#utility.yul\":9165:9296   */\n  tag_180\n    /* \"#utility.yul\":9291:9295   */\n  dup2\n    /* \"#utility.yul\":9165:9296   */\n  tag_70\n  jump\t// in\ntag_180:\n    /* \"#utility.yul\":9157:9296   */\n  swap1\n  pop\n    /* \"#utility.yul\":8884:9303   */\n  swap2\n  swap1\n  pop\n  jump\t// out\n    /* \"#utility.yul\":9309:9614   */\ntag_22:\n    /* \"#utility.yul\":9349:9352   */\n  0x00\n    /* \"#utility.yul\":9368:9388   */\n  tag_182\n    /* \"#utility.yul\":9386:9387   */\n  dup3\n    /* \"#utility.yul\":9368:9388   */\n  tag_57\n  jump\t// in\ntag_182:\n    /* \"#utility.yul\":9363:9388   */\n  swap2\n  pop\n    /* \"#utility.yul\":9402:9422   */\n  tag_183\n    /* \"#utility.yul\":9420:9421   */\n  dup4\n    /* \"#utility.yul\":9402:9422   */\n  tag_57\n  jump\t// in\ntag_183:\n    /* \"#utility.yul\":9397:9422   */\n  swap3\n  pop\n    /* \"#utility.yul\":9556:9557   */\n  dup3\n    /* \"#utility.yul\":9488:9554   */\n  0xffffffffffffffffffffffffffffffffffffffffffffffffffffffffffffffff\n    /* \"#utility.yul\":9484:9558   */\n  sub\n    /* \"#utility.yul\":9481:9482   */\n  dup3\n    /* \"#utility.yul\":9478:9559   */\n  gt\n    /* \"#utility.yul\":9475:9582   */\n  iszero\n  tag_184\n  jumpi\n    /* \"#utility.yul\":9562:9580   */\n  tag_185\n  tag_64\n  jump\t// in\ntag_185:\n    /* \"#utility.yul\":9475:9582   */\ntag_184:\n    /* \"#utility.yul\":9606:9607   */\n  dup3\n    /* \"#utility.yul\":9603:9604   */\n  dup3\n    /* \"#utility.yul\":9599:9608   */\n  add\n    /* \"#utility.yul\":9592:9608   */\n  swap1\n  pop\n    /* \"#utility.yul\":9309:9614   */\n  swap3\n  swap2\n  pop\n  pop\n  jump\t// out\n    /* \"#utility.yul\":9620:9738   */\ntag_71:\n    /* \"#utility.yul\":9707:9731   */\n  tag_187\n    /* \"#utility.yul\":9725:9730   */\n  dup2\n    /* \"#utility.yul\":9707:9731   */\n  tag_57\n  jump\t// in\ntag_187:\n    /* \"#utility.yul\":9702:9705   */\n  dup3\n    /* \"#utility.yul\":9695:9732   */\n  mstore\n    /* \"#utility.yul\":9620:9738   */\n  pop\n  pop\n  jump\t// out\n    /* \"#utility.yul\":9744:9966   */\ntag_25:\n    /* \"#utility.yul\":9837:9841   */\n  0x00\n    /* \"#utility.yul\":9875:9877   */\n  0x20\n    /* \"#utility.yul\":9864:9873   */\n  dup3\n    /* \"#utility.yul\":9860:9878   */\n  add\n    /* \"#utility.yul\":9852:9878   */\n  swap1\n  pop\n    /* \"#utility.yul\":9888:9959   */\n  tag_189\n    /* \"#utility.yul\":9956:9957   */\n  0x00\n    /* \"#utility.yul\":9945:9954   */\n  dup4\n    /* \"#utility.yul\":9941:9958   */\n  add\n    /* \"#utility.yul\":9932:9938   */\n  dup5\n    /* \"#utility.yul\":9888:9959   */\n  tag_71\n  jump\t// in\ntag_189:\n    /* \"#utility.yul\":9744:9966   */\n  swap3\n  swap2\n  pop\n  pop\n  jump\t// out\n    /* \"#utility.yul\":9972:10152   */\ntag_72:\n    /* \"#utility.yul\":10020:10097   */\n  0x4e487b7100000000000000000000000000000000000000000000000000000000\n    /* \"#utility.yul\":10017:10018   */\n  0x00\n    /* \"#utility.yul\":10010:10098   */\n  mstore\n    /* \"#utility.yul\":10117:10121   */\n  0x22\n    /* \"#utility.yul\":10114:10115   */\n  0x04\n    /* \"#utility.yul\":10107:10122   */\n  mstore\n    /* \"#utility.yul\":10141:10145   */\n  0x24\n    /* \"#utility.yul\":10138:10139   */\n  0x00\n    /* \"#utility.yul\":10131:10146   */\n  revert\n    /* \"#utility.yul\":10158:10478   */\ntag_31:\n    /* \"#utility.yul\":10202:10208   */\n  0x00\n    /* \"#utility.yul\":10239:10240   */\n  0x02\n    /* \"#utility.yul\":10233:10237   */\n  dup3\n    /* \"#utility.yul\":10229:10241   */\n  div\n    /* \"#utility.yul\":10219:10241   */\n  swap1\n  pop\n    /* \"#utility.yul\":10286:10287   */\n  0x01\n    /* \"#utility.yul\":10280:10284   */\n  dup3\n    /* \"#utility.yul\":10276:10288   */\n  and\n    /* \"#utility.yul\":10307:10325   */\n  dup1\n    /* \"#utility.yul\":10297:10378   */\n  tag_192\n  jumpi\n    /* \"#utility.yul\":10363:10367   */\n  0x7f\n    /* \"#utility.yul\":10355:10361   */\n  dup3\n    /* \"#utility.yul\":10351:10368   */\n  and\n    /* \"#utility.yul\":10341:10368   */\n  swap2\n  pop\n    /* \"#utility.yul\":10297:10378   */\ntag_192:\n    /* \"#utility.yul\":10425:10427   */\n  0x20\n    /* \"#utility.yul\":10417:10423   */\n  dup3\n    /* \"#utility.yul\":10414:10428   */\n  lt\n    /* \"#utility.yul\":10394:10412   */\n  dup2\n    /* \"#utility.yul\":10391:10429   */\n  sub\n    /* \"#utility.yul\":10388:10472   */\n  tag_193\n  jumpi\n    /* \"#utility.yul\":10444:10462   */\n  tag_194\n  tag_72\n  jump\t// in\ntag_194:\n    /* \"#utility.yul\":10388:10472   */\ntag_193:\n    /* \"#utility.yul\":10209:10478   */\n  pop\n    /* \"#utility.yul\":10158:10478   */\n  swap2\n  swap1\n  pop\n  jump\t// out\n    /* \"contracts/yyi.sol\":1068:7282  contract ERC20 is IERC20, IERC20Metadata {... */\ntag_14:\n  dataSize(sub_0)\n  dup1\n  dataOffset(sub_0)\n  0x00\n  codecopy\n  0x00\n  return\nstop\n\nsub_0: assembly {\n        /* \"contracts/yyi.sol\":1068:7282  contract ERC20 is IERC20, IERC20Metadata {... */\n      mstore(0x40, 0x80)\n      jumpi(tag_1, lt(calldatasize, 0x04))\n      shr(0xe0, calldataload(0x00))\n      dup1\n      0x40c10f19\n      gt\n      tag_19\n      jumpi\n      dup1\n      0xa457c2d7\n      gt\n      tag_20\n      jumpi\n      dup1\n      0xa457c2d7\n      eq\n      tag_15\n      jumpi\n      dup1\n      0xa9059cbb\n      eq\n      tag_16\n      jumpi\n      dup1\n      0xdd62ed3e\n      eq\n      tag_17\n      jumpi\n      dup1\n      0xfc6f9468\n      eq\n      tag_18\n      jumpi\n      jump(tag_2)\n    tag_20:\n      dup1\n      0x40c10f19\n      eq\n      tag_11\n      jumpi\n      dup1\n      0x70a08231\n      eq\n      tag_12\n      jumpi\n      dup1\n      0x89476069\n      eq\n      tag_13\n      jumpi\n      dup1\n      0x95d89b41\n      eq\n      tag_14\n      jumpi\n      jump(tag_2)\n    tag_19:\n      dup1\n      0x313ce567\n      gt\n      tag_21\n      jumpi\n      dup1\n      0x313ce567\n      eq\n      tag_7\n      jumpi\n      dup1\n      0x39509351\n      eq\n      tag_8\n      jumpi\n      dup1\n      0x3ccfd60b\n      eq\n      tag_9\n      jumpi\n      dup1\n      0x3d128eec\n      eq\n      tag_10\n      jumpi\n      jump(tag_2)\n    tag_21:\n      dup1\n      0x06fdde03\n      eq\n      tag_3\n      jumpi\n      dup1\n      0x095ea7b3\n      eq\n      tag_4\n      jumpi\n      dup1\n      0x18160ddd\n      eq\n      tag_5\n      jumpi\n      dup1\n      0x23b872dd\n      eq\n      tag_6\n      jumpi\n      jump(tag_2)\n    tag_1:\n      jumpi(tag_2, calldatasize)\n      stop\n    tag_2:\n      stop\n        /* \"contracts/yyi.sol\":2008:2108  function name() public view virtual override returns (string memory) {... */\n    tag_3:\n      callvalue\n      dup1\n      iszero\n      tag_26\n      jumpi\n      0x00\n      dup1\n      revert\n    tag_26:\n      pop\n      tag_27\n      tag_28\n      jump\t// in\n    tag_27:\n      mload(0x40)\n      tag_29\n      swap2\n      swap1\n      tag_30\n      jump\t// in\n    tag_29:\n      mload(0x40)\n      dup1\n      swap2\n      sub\n      swap1\n      return\n        /* \"contracts/yyi.sol\":2931:3130  function approve(address spender, uint256 amount) public virtual override returns (bool) {... */\n    tag_4:\n      callvalue\n      dup1\n      iszero\n      tag_31\n      jumpi\n      0x00\n      dup1\n      revert\n    tag_31:\n      pop\n      tag_32\n      0x04\n      dup1\n      calldatasize\n      sub\n      dup2\n      add\n      swap1\n      tag_33\n      swap2\n      swap1\n      tag_34\n      jump\t// in\n    tag_33:\n      tag_35\n      jump\t// in\n    tag_32:\n      mload(0x40)\n      tag_36\n      swap2\n      swap1\n      tag_37\n      jump\t// in\n    tag_36:\n      mload(0x40)\n      dup1\n      swap2\n      sub\n      swap1\n      return\n        /* \"contracts/yyi.sol\":2330:2438  function totalSupply() public view virtual override returns (uint256) {... */\n    tag_5:\n      callvalue\n      dup1\n      iszero\n      tag_38\n      jumpi\n      0x00\n      dup1\n      revert\n    tag_38:\n      pop\n      tag_39\n      tag_40\n      jump\t// in\n    tag_39:\n      mload(0x40)\n      tag_41\n      swap2\n      swap1\n      tag_42\n      jump\t// in\n    tag_41:\n      mload(0x40)\n      dup1\n      swap2\n      sub\n      swap1\n      return\n        /* \"contracts/yyi.sol\":3136:3429  function transferFrom(... */\n    tag_6:\n      callvalue\n      dup1\n      iszero\n      tag_43\n      jumpi\n      0x00\n      dup1\n      revert\n    tag_43:\n      pop\n      tag_44\n      0x04\n      dup1\n      calldatasize\n      sub\n      dup2\n      add\n      swap1\n      tag_45\n      swap2\n      swap1\n      tag_46\n      jump\t// in\n    tag_45:\n      tag_47\n      jump\t// in\n    tag_44:\n      mload(0x40)\n      tag_48\n      swap2\n      swap1\n      tag_37\n      jump\t// in\n    tag_48:\n      mload(0x40)\n      dup1\n      swap2\n      sub\n      swap1\n      return\n        /* \"contracts/yyi.sol\":2224:2324  function decimals() public view virtual override returns (uint8) {... */\n    tag_7:\n      callvalue\n      dup1\n      iszero\n      tag_49\n      jumpi\n      0x00\n      dup1\n      revert\n    tag_49:\n      pop\n      tag_50\n      tag_51\n      jump\t// in\n    tag_50:\n      mload(0x40)\n      tag_52\n      swap2\n      swap1\n      tag_53\n      jump\t// in\n    tag_52:\n      mload(0x40)\n      dup1\n      swap2\n      sub\n      swap1\n      return\n        /* \"contracts/yyi.sol\":3437:3675  function increaseAllowance(address spender, uint256 addedValue) public virtual returns (bool) {... */\n    tag_8:\n      callvalue\n      dup1\n      iszero\n      tag_54\n      jumpi\n      0x00\n      dup1\n      revert\n    tag_54:\n      pop\n      tag_55\n      0x04\n      dup1\n      calldatasize\n      sub\n      dup2\n      add\n      swap1\n      tag_56\n      swap2\n      swap1\n      tag_34\n      jump\t// in\n    tag_56:\n      tag_57\n      jump\t// in\n    tag_55:\n      mload(0x40)\n      tag_58\n      swap2\n      swap1\n      tag_37\n      jump\t// in\n    tag_58:\n      mload(0x40)\n      dup1\n      swap2\n      sub\n      swap1\n      return\n        /* \"contracts/yyi.sol\":1751:1858  function withdraw() external isAdmin {... */\n    tag_9:\n      callvalue\n      dup1\n      iszero\n      tag_59\n      jumpi\n      0x00\n      dup1\n      revert\n    tag_59:\n      pop\n      tag_60\n      tag_61\n      jump\t// in\n    tag_60:\n      stop\n        /* \"contracts/yyi.sol\":1511:1618  function editAdmin(address newAddress) public isAdmin {... */\n    tag_10:\n      callvalue\n      dup1\n      iszero\n      tag_62\n      jumpi\n      0x00\n      dup1\n      revert\n    tag_62:\n      pop\n      tag_63\n      0x04\n      dup1\n      calldatasize\n      sub\n      dup2\n      add\n      swap1\n      tag_64\n      swap2\n      swap1\n      tag_65\n      jump\t// in\n    tag_64:\n      tag_66\n      jump\t// in\n    tag_63:\n      stop\n        /* \"contracts/yyi.sol\":1624:1745  function mint(address account, uint256 amount) public isAdmin {... */\n    tag_11:\n      callvalue\n      dup1\n      iszero\n      tag_67\n      jumpi\n      0x00\n      dup1\n      revert\n    tag_67:\n      pop\n      tag_68\n      0x04\n      dup1\n      calldatasize\n      sub\n      dup2\n      add\n      swap1\n      tag_69\n      swap2\n      swap1\n      tag_34\n      jump\t// in\n    tag_69:\n      tag_70\n      jump\t// in\n    tag_68:\n      stop\n        /* \"contracts/yyi.sol\":2444:2571  function balanceOf(address account) public view virtual override returns (uint256) {... */\n    tag_12:\n      callvalue\n      dup1\n      iszero\n      tag_71\n      jumpi\n      0x00\n      dup1\n      revert\n    tag_71:\n      pop\n      tag_72\n      0x04\n      dup1\n      calldatasize\n      sub\n      dup2\n      add\n      swap1\n      tag_73\n      swap2\n      swap1\n      tag_65\n      jump\t// in\n    tag_73:\n      tag_74\n      jump\t// in\n    tag_72:\n      mload(0x40)\n      tag_75\n      swap2\n      swap1\n      tag_42\n      jump\t// in\n    tag_75:\n      mload(0x40)\n      dup1\n      swap2\n      sub\n      swap1\n      return\n        /* \"contracts/yyi.sol\":1864:2002  function withdrawToken(IERC20 token) external payable isAdmin {... */\n    tag_13:\n      tag_76\n      0x04\n      dup1\n      calldatasize\n      sub\n      dup2\n      add\n      swap1\n      tag_77\n      swap2\n      swap1\n      tag_78\n      jump\t// in\n    tag_77:\n      tag_79\n      jump\t// in\n    tag_76:\n      stop\n        /* \"contracts/yyi.sol\":2114:2218  function symbol() public view virtual override returns (string memory) {... */\n    tag_14:\n      callvalue\n      dup1\n      iszero\n      tag_80\n      jumpi\n      0x00\n      dup1\n      revert\n    tag_80:\n      pop\n      tag_81\n      tag_82\n      jump\t// in\n    tag_81:\n      mload(0x40)\n      tag_83\n      swap2\n      swap1\n      tag_30\n      jump\t// in\n    tag_83:\n      mload(0x40)\n      dup1\n      swap2\n      sub\n      swap1\n      return\n        /* \"contracts/yyi.sol\":3683:4108  function decreaseAllowance(address spender, uint256 substractedValue) public virtual returns (bool) {... */\n    tag_15:\n      callvalue\n      dup1\n      iszero\n      tag_84\n      jumpi\n      0x00\n      dup1\n      revert\n    tag_84:\n      pop\n      tag_85\n      0x04\n      dup1\n      calldatasize\n      sub\n      dup2\n      add\n      swap1\n      tag_86\n      swap2\n      swap1\n      tag_34\n      jump\t// in\n    tag_86:\n      tag_87\n      jump\t// in\n    tag_85:\n      mload(0x40)\n      tag_88\n      swap2\n      swap1\n      tag_37\n      jump\t// in\n    tag_88:\n      mload(0x40)\n      dup1\n      swap2\n      sub\n      swap1\n      return\n        /* \"contracts/yyi.sol\":2577:2768  function transfer(address to, uint256 amount) public virtual override returns (bool) {... */\n    tag_16:\n      callvalue\n      dup1\n      iszero\n      tag_89\n      jumpi\n      0x00\n      dup1\n      revert\n    tag_89:\n      pop\n      tag_90\n      0x04\n      dup1\n      calldatasize\n      sub\n      dup2\n      add\n      swap1\n      tag_91\n      swap2\n      swap1\n      tag_34\n      jump\t// in\n    tag_91:\n      tag_92\n      jump\t// in\n    tag_90:\n      mload(0x40)\n      tag_93\n      swap2\n      swap1\n      tag_37\n      jump\t// in\n    tag_93:\n      mload(0x40)\n      dup1\n      swap2\n      sub\n      swap1\n      return\n        /* \"contracts/yyi.sol\":2774:2925  function allowance(address owner, address spender) public view virtual override returns (uint256) {... */\n    tag_17:\n      callvalue\n      dup1\n      iszero\n      tag_94\n      jumpi\n      0x00\n      dup1\n      revert\n    tag_94:\n      pop\n      tag_95\n      0x04\n      dup1\n      calldatasize\n      sub\n      dup2\n      add\n      swap1\n      tag_96\n      swap2\n      swap1\n      tag_97\n      jump\t// in\n    tag_96:\n      tag_98\n      jump\t// in\n    tag_95:\n      mload(0x40)\n      tag_99\n      swap2\n      swap1\n      tag_42\n      jump\t// in\n    tag_99:\n      mload(0x40)\n      dup1\n      swap2\n      sub\n      swap1\n      return\n        /* \"contracts/yyi.sol\":1363:1400  address payable public   adminAddress */\n    tag_18:\n      callvalue\n      dup1\n      iszero\n      tag_100\n      jumpi\n      0x00\n      dup1\n      revert\n    tag_100:\n      pop\n      tag_101\n      tag_102\n      jump\t// in\n    tag_101:\n      mload(0x40)\n      tag_103\n      swap2\n      swap1\n      tag_104\n      jump\t// in\n    tag_103:\n      mload(0x40)\n      dup1\n      swap2\n      sub\n      swap1\n      return\n        /* \"contracts/yyi.sol\":2008:2108  function name() public view virtual override returns (string memory) {... */\n    tag_28:\n        /* \"contracts/yyi.sol\":2062:2075  string memory */\n      0x60\n        /* \"contracts/yyi.sol\":2095:2100  _name */\n      0x03\n        /* \"contracts/yyi.sol\":2088:2100  return _name */\n      dup1\n      sload\n      tag_106\n      swap1\n      tag_107\n      jump\t// in\n    tag_106:\n      dup1\n      0x1f\n      add\n      0x20\n      dup1\n      swap2\n      div\n      mul\n      0x20\n      add\n      mload(0x40)\n      swap1\n      dup2\n      add\n      0x40\n      mstore\n      dup1\n      swap3\n      swap2\n      swap1\n      dup2\n      dup2\n      mstore\n      0x20\n      add\n      dup3\n      dup1\n      sload\n      tag_108\n      swap1\n      tag_107\n      jump\t// in\n    tag_108:\n      dup1\n      iszero\n      tag_109\n      jumpi\n      dup1\n      0x1f\n      lt\n      tag_110\n      jumpi\n      0x0100\n      dup1\n      dup4\n      sload\n      div\n      mul\n      dup4\n      mstore\n      swap2\n      0x20\n      add\n      swap2\n      jump(tag_109)\n    tag_110:\n      dup3\n      add\n      swap2\n      swap1\n      0x00\n      mstore\n      keccak256(0x00, 0x20)\n      swap1\n    tag_111:\n      dup2\n      sload\n      dup2\n      mstore\n      swap1\n      0x01\n      add\n      swap1\n      0x20\n      add\n      dup1\n      dup4\n      gt\n      tag_111\n      jumpi\n      dup3\n      swap1\n      sub\n      0x1f\n      and\n      dup3\n      add\n      swap2\n    tag_109:\n      pop\n      pop\n      pop\n      pop\n      pop\n      swap1\n      pop\n        /* \"contracts/yyi.sol\":2008:2108  function name() public view virtual override returns (string memory) {... */\n      swap1\n      jump\t// out\n        /* \"contracts/yyi.sol\":2931:3130  function approve(address spender, uint256 amount) public virtual override returns (bool) {... */\n    tag_35:\n        /* \"contracts/yyi.sol\":3014:3018  bool */\n      0x00\n        /* \"contracts/yyi.sol\":3031:3044  address owner */\n      dup1\n        /* \"contracts/yyi.sol\":3047:3057  msg.sender */\n      caller\n        /* \"contracts/yyi.sol\":3031:3057  address owner = msg.sender */\n      swap1\n      pop\n        /* \"contracts/yyi.sol\":3068:3100  _approve(owner, spender, amount) */\n      tag_113\n        /* \"contracts/yyi.sol\":3077:3082  owner */\n      dup2\n        /* \"contracts/yyi.sol\":3084:3091  spender */\n      dup6\n        /* \"contracts/yyi.sol\":3093:3099  amount */\n      dup6\n        /* \"contracts/yyi.sol\":3068:3076  _approve */\n      tag_114\n        /* \"contracts/yyi.sol\":3068:3100  _approve(owner, spender, amount) */\n      jump\t// in\n    tag_113:\n        /* \"contracts/yyi.sol\":3118:3122  true */\n      0x01\n        /* \"contracts/yyi.sol\":3111:3122  return true */\n      swap2\n      pop\n      pop\n        /* \"contracts/yyi.sol\":2931:3130  function approve(address spender, uint256 amount) public virtual override returns (bool) {... */\n      swap3\n      swap2\n      pop\n      pop\n      jump\t// out\n        /* \"contracts/yyi.sol\":2330:2438  function totalSupply() public view virtual override returns (uint256) {... */\n    tag_40:\n        /* \"contracts/yyi.sol\":2391:2398  uint256 */\n      0x00\n        /* \"contracts/yyi.sol\":2418:2430  _totalSupply */\n      sload(0x02)\n        /* \"contracts/yyi.sol\":2411:2430  return _totalSupply */\n      swap1\n      pop\n        /* \"contracts/yyi.sol\":2330:2438  function totalSupply() public view virtual override returns (uint256) {... */\n      swap1\n      jump\t// out\n        /* \"contracts/yyi.sol\":3136:3429  function transferFrom(... */\n    tag_47:\n        /* \"contracts/yyi.sol\":3267:3271  bool */\n      0x00\n        /* \"contracts/yyi.sol\":3284:3299  address spender */\n      dup1\n        /* \"contracts/yyi.sol\":3302:3312  msg.sender */\n      caller\n        /* \"contracts/yyi.sol\":3284:3312  address spender = msg.sender */\n      swap1\n      pop\n        /* \"contracts/yyi.sol\":3323:3361  _spendAllowance(from, spender, amount) */\n      tag_117\n        /* \"contracts/yyi.sol\":3339:3343  from */\n      dup6\n        /* \"contracts/yyi.sol\":3345:3352  spender */\n      dup3\n        /* \"contracts/yyi.sol\":3354:3360  amount */\n      dup6\n        /* \"contracts/yyi.sol\":3323:3338  _spendAllowance */\n      tag_118\n        /* \"contracts/yyi.sol\":3323:3361  _spendAllowance(from, spender, amount) */\n      jump\t// in\n    tag_117:\n        /* \"contracts/yyi.sol\":3372:3399  _transfer(from, to, amount) */\n      tag_119\n        /* \"contracts/yyi.sol\":3382:3386  from */\n      dup6\n        /* \"contracts/yyi.sol\":3388:3390  to */\n      dup6\n        /* \"contracts/yyi.sol\":3392:3398  amount */\n      dup6\n        /* \"contracts/yyi.sol\":3372:3381  _transfer */\n      tag_120\n        /* \"contracts/yyi.sol\":3372:3399  _transfer(from, to, amount) */\n      jump\t// in\n    tag_119:\n        /* \"contracts/yyi.sol\":3417:3421  true */\n      0x01\n        /* \"contracts/yyi.sol\":3410:3421  return true */\n      swap2\n      pop\n      pop\n        /* \"contracts/yyi.sol\":3136:3429  function transferFrom(... */\n      swap4\n      swap3\n      pop\n      pop\n      pop\n      jump\t// out\n        /* \"contracts/yyi.sol\":2224:2324  function decimals() public view virtual override returns (uint8) {... */\n    tag_51:\n        /* \"contracts/yyi.sol\":2282:2287  uint8 */\n      0x00\n        /* \"contracts/yyi.sol\":2307:2316  _decimals */\n      0x05\n      0x00\n      swap1\n      sload\n      swap1\n      0x0100\n      exp\n      swap1\n      div\n      0xff\n      and\n        /* \"contracts/yyi.sol\":2300:2316  return _decimals */\n      swap1\n      pop\n        /* \"contracts/yyi.sol\":2224:2324  function decimals() public view virtual override returns (uint8) {... */\n      swap1\n      jump\t// out\n        /* \"contracts/yyi.sol\":3437:3675  function increaseAllowance(address spender, uint256 addedValue) public virtual returns (bool) {... */\n    tag_57:\n        /* \"contracts/yyi.sol\":3525:3529  bool */\n      0x00\n        /* \"contracts/yyi.sol\":3542:3555  address owner */\n      dup1\n        /* \"contracts/yyi.sol\":3558:3568  msg.sender */\n      caller\n        /* \"contracts/yyi.sol\":3542:3568  address owner = msg.sender */\n      swap1\n      pop\n        /* \"contracts/yyi.sol\":3579:3645  _approve(owner, spender, _allowances[owner][spender] + addedValue) */\n      tag_123\n        /* \"contracts/yyi.sol\":3588:3593  owner */\n      dup2\n        /* \"contracts/yyi.sol\":3595:3602  spender */\n      dup6\n        /* \"contracts/yyi.sol\":3634:3644  addedValue */\n      dup6\n        /* \"contracts/yyi.sol\":3604:3615  _allowances */\n      0x01\n        /* \"contracts/yyi.sol\":3604:3622  _allowances[owner] */\n      0x00\n        /* \"contracts/yyi.sol\":3616:3621  owner */\n      dup7\n        /* \"contracts/yyi.sol\":3604:3622  _allowances[owner] */\n      0xffffffffffffffffffffffffffffffffffffffff\n      and\n      0xffffffffffffffffffffffffffffffffffffffff\n      and\n      dup2\n      mstore\n      0x20\n      add\n      swap1\n      dup2\n      mstore\n      0x20\n      add\n      0x00\n      keccak256\n        /* \"contracts/yyi.sol\":3604:3631  _allowances[owner][spender] */\n      0x00\n        /* \"contracts/yyi.sol\":3623:3630  spender */\n      dup10\n        /* \"contracts/yyi.sol\":3604:3631  _allowances[owner][spender] */\n      0xffffffffffffffffffffffffffffffffffffffff\n      and\n      0xffffffffffffffffffffffffffffffffffffffff\n      and\n      dup2\n      mstore\n      0x20\n      add\n      swap1\n      dup2\n      mstore\n      0x20\n      add\n      0x00\n      keccak256\n      sload\n        /* \"contracts/yyi.sol\":3604:3644  _allowances[owner][spender] + addedValue */\n      tag_124\n      swap2\n      swap1\n      tag_125\n      jump\t// in\n    tag_124:\n        /* \"contracts/yyi.sol\":3579:3587  _approve */\n      tag_114\n        /* \"contracts/yyi.sol\":3579:3645  _approve(owner, spender, _allowances[owner][spender] + addedValue) */\n      jump\t// in\n    tag_123:\n        /* \"contracts/yyi.sol\":3663:3667  true */\n      0x01\n        /* \"contracts/yyi.sol\":3656:3667  return true */\n      swap2\n      pop\n      pop\n        /* \"contracts/yyi.sol\":3437:3675  function increaseAllowance(address spender, uint256 addedValue) public virtual returns (bool) {... */\n      swap3\n      swap2\n      pop\n      pop\n      jump\t// out\n        /* \"contracts/yyi.sol\":1751:1858  function withdraw() external isAdmin {... */\n    tag_61:\n        /* \"contracts/yyi.sol\":1460:1472  adminAddress */\n      0x05\n      0x01\n      swap1\n      sload\n      swap1\n      0x0100\n      exp\n      swap1\n      div\n      0xffffffffffffffffffffffffffffffffffffffff\n      and\n        /* \"contracts/yyi.sol\":1446:1472  msg.sender == adminAddress */\n      0xffffffffffffffffffffffffffffffffffffffff\n      and\n        /* \"contracts/yyi.sol\":1446:1456  msg.sender */\n      caller\n        /* \"contracts/yyi.sol\":1446:1472  msg.sender == adminAddress */\n      0xffffffffffffffffffffffffffffffffffffffff\n      and\n      eq\n        /* \"contracts/yyi.sol\":1438:1485  require(msg.sender == adminAddress, 'no admin') */\n      tag_127\n      jumpi\n      mload(0x40)\n      0x08c379a000000000000000000000000000000000000000000000000000000000\n      dup2\n      mstore\n      0x04\n      add\n      tag_128\n      swap1\n      tag_129\n      jump\t// in\n    tag_128:\n      mload(0x40)\n      dup1\n      swap2\n      sub\n      swap1\n      revert\n    tag_127:\n        /* \"contracts/yyi.sol\":1807:1817  msg.sender */\n      caller\n        /* \"contracts/yyi.sol\":1799:1827  payable(msg.sender).transfer */\n      0xffffffffffffffffffffffffffffffffffffffff\n      and\n        /* \"contracts/yyi.sol\":1799:1850  payable(msg.sender).transfer(address(this).balance) */\n      0x08fc\n        /* \"contracts/yyi.sol\":1828:1849  address(this).balance */\n      selfbalance\n        /* \"contracts/yyi.sol\":1799:1850  payable(msg.sender).transfer(address(this).balance) */\n      swap1\n      dup2\n      iszero\n      mul\n      swap1\n      mload(0x40)\n      0x00\n      mload(0x40)\n      dup1\n      dup4\n      sub\n      dup2\n      dup6\n      dup9\n      dup9\n      call\n      swap4\n      pop\n      pop\n      pop\n      pop\n      iszero\n      dup1\n      iszero\n      tag_132\n      jumpi\n      returndatasize\n      0x00\n      dup1\n      returndatacopy\n      revert(0x00, returndatasize)\n    tag_132:\n      pop\n        /* \"contracts/yyi.sol\":1751:1858  function withdraw() external isAdmin {... */\n      jump\t// out\n        /* \"contracts/yyi.sol\":1511:1618  function editAdmin(address newAddress) public isAdmin {... */\n    tag_66:\n        /* \"contracts/yyi.sol\":1460:1472  adminAddress */\n      0x05\n      0x01\n      swap1\n      sload\n      swap1\n      0x0100\n      exp\n      swap1\n      div\n      0xffffffffffffffffffffffffffffffffffffffff\n      and\n        /* \"contracts/yyi.sol\":1446:1472  msg.sender == adminAddress */\n      0xffffffffffffffffffffffffffffffffffffffff\n      and\n        /* \"contracts/yyi.sol\":1446:1456  msg.sender */\n      caller\n        /* \"contracts/yyi.sol\":1446:1472  msg.sender == adminAddress */\n      0xffffffffffffffffffffffffffffffffffffffff\n      and\n      eq\n        /* \"contracts/yyi.sol\":1438:1485  require(msg.sender == adminAddress, 'no admin') */\n      tag_134\n      jumpi\n      mload(0x40)\n      0x08c379a000000000000000000000000000000000000000000000000000000000\n      dup2\n      mstore\n      0x04\n      add\n      tag_135\n      swap1\n      tag_129\n      jump\t// in\n    tag_135:\n      mload(0x40)\n      dup1\n      swap2\n      sub\n      swap1\n      revert\n    tag_134:\n        /* \"contracts/yyi.sol\":1599:1609  newAddress */\n      dup1\n        /* \"contracts/yyi.sol\":1576:1588  adminAddress */\n      0x05\n      0x01\n        /* \"contracts/yyi.sol\":1576:1610  adminAddress = payable(newAddress) */\n      0x0100\n      exp\n      dup2\n      sload\n      dup2\n      0xffffffffffffffffffffffffffffffffffffffff\n      mul\n      not\n      and\n      swap1\n      dup4\n      0xffffffffffffffffffffffffffffffffffffffff\n      and\n      mul\n      or\n      swap1\n      sstore\n      pop\n        /* \"contracts/yyi.sol\":1511:1618  function editAdmin(address newAddress) public isAdmin {... */\n      pop\n      jump\t// out\n        /* \"contracts/yyi.sol\":1624:1745  function mint(address account, uint256 amount) public isAdmin {... */\n    tag_70:\n        /* \"contracts/yyi.sol\":1460:1472  adminAddress */\n      0x05\n      0x01\n      swap1\n      sload\n      swap1\n      0x0100\n      exp\n      swap1\n      div\n      0xffffffffffffffffffffffffffffffffffffffff\n      and\n        /* \"contracts/yyi.sol\":1446:1472  msg.sender == adminAddress */\n      0xffffffffffffffffffffffffffffffffffffffff\n      and\n        /* \"contracts/yyi.sol\":1446:1456  msg.sender */\n      caller\n        /* \"contracts/yyi.sol\":1446:1472  msg.sender == adminAddress */\n      0xffffffffffffffffffffffffffffffffffffffff\n      and\n      eq\n        /* \"contracts/yyi.sol\":1438:1485  require(msg.sender == adminAddress, 'no admin') */\n      tag_138\n      jumpi\n      mload(0x40)\n      0x08c379a000000000000000000000000000000000000000000000000000000000\n      dup2\n      mstore\n      0x04\n      add\n      tag_139\n      swap1\n      tag_129\n      jump\t// in\n    tag_139:\n      mload(0x40)\n      dup1\n      swap2\n      sub\n      swap1\n      revert\n    tag_138:\n        /* \"contracts/yyi.sol\":1697:1737  _mint(account, amount * 10 ** _decimals) */\n      tag_141\n        /* \"contracts/yyi.sol\":1703:1710  account */\n      dup3\n        /* \"contracts/yyi.sol\":1727:1736  _decimals */\n      0x05\n      0x00\n      swap1\n      sload\n      swap1\n      0x0100\n      exp\n      swap1\n      div\n      0xff\n      and\n        /* \"contracts/yyi.sol\":1721:1723  10 */\n      0x0a\n        /* \"contracts/yyi.sol\":1721:1736  10 ** _decimals */\n      tag_142\n      swap2\n      swap1\n      tag_143\n      jump\t// in\n    tag_142:\n        /* \"contracts/yyi.sol\":1712:1718  amount */\n      dup4\n        /* \"contracts/yyi.sol\":1712:1736  amount * 10 ** _decimals */\n      tag_144\n      swap2\n      swap1\n      tag_145\n      jump\t// in\n    tag_144:\n        /* \"contracts/yyi.sol\":1697:1702  _mint */\n      tag_146\n        /* \"contracts/yyi.sol\":1697:1737  _mint(account, amount * 10 ** _decimals) */\n      jump\t// in\n    tag_141:\n        /* \"contracts/yyi.sol\":1624:1745  function mint(address account, uint256 amount) public isAdmin {... */\n      pop\n      pop\n      jump\t// out\n        /* \"contracts/yyi.sol\":2444:2571  function balanceOf(address account) public view virtual override returns (uint256) {... */\n    tag_74:\n        /* \"contracts/yyi.sol\":2518:2525  uint256 */\n      0x00\n        /* \"contracts/yyi.sol\":2545:2554  _balances */\n      dup1\n        /* \"contracts/yyi.sol\":2545:2563  _balances[account] */\n      0x00\n        /* \"contracts/yyi.sol\":2555:2562  account */\n      dup4\n        /* \"contracts/yyi.sol\":2545:2563  _balances[account] */\n      0xffffffffffffffffffffffffffffffffffffffff\n      and\n      0xffffffffffffffffffffffffffffffffffffffff\n      and\n      dup2\n      mstore\n      0x20\n      add\n      swap1\n      dup2\n      mstore\n      0x20\n      add\n      0x00\n      keccak256\n      sload\n        /* \"contracts/yyi.sol\":2538:2563  return _balances[account] */\n      swap1\n      pop\n        /* \"contracts/yyi.sol\":2444:2571  function balanceOf(address account) public view virtual override returns (uint256) {... */\n      swap2\n      swap1\n      pop\n      jump\t// out\n        /* \"contracts/yyi.sol\":1864:2002  function withdrawToken(IERC20 token) external payable isAdmin {... */\n    tag_79:\n        /* \"contracts/yyi.sol\":1460:1472  adminAddress */\n      0x05\n      0x01\n      swap1\n      sload\n      swap1\n      0x0100\n      exp\n      swap1\n      div\n      0xffffffffffffffffffffffffffffffffffffffff\n      and\n        /* \"contracts/yyi.sol\":1446:1472  msg.sender == adminAddress */\n      0xffffffffffffffffffffffffffffffffffffffff\n      and\n        /* \"contracts/yyi.sol\":1446:1456  msg.sender */\n      caller\n        /* \"contracts/yyi.sol\":1446:1472  msg.sender == adminAddress */\n      0xffffffffffffffffffffffffffffffffffffffff\n      and\n      eq\n        /* \"contracts/yyi.sol\":1438:1485  require(msg.sender == adminAddress, 'no admin') */\n      tag_149\n      jumpi\n      mload(0x40)\n      0x08c379a000000000000000000000000000000000000000000000000000000000\n      dup2\n      mstore\n      0x04\n      add\n      tag_150\n      swap1\n      tag_129\n      jump\t// in\n    tag_150:\n      mload(0x40)\n      dup1\n      swap2\n      sub\n      swap1\n      revert\n    tag_149:\n        /* \"contracts/yyi.sol\":1937:1942  token */\n      dup1\n        /* \"contracts/yyi.sol\":1937:1951  token.transfer */\n      0xffffffffffffffffffffffffffffffffffffffff\n      and\n      0xa9059cbb\n        /* \"contracts/yyi.sol\":1952:1962  msg.sender */\n      caller\n        /* \"contracts/yyi.sol\":1963:1968  token */\n      dup4\n        /* \"contracts/yyi.sol\":1963:1978  token.balanceOf */\n      0xffffffffffffffffffffffffffffffffffffffff\n      and\n      0x70a08231\n        /* \"contracts/yyi.sol\":1987:1991  this */\n      address\n        /* \"contracts/yyi.sol\":1963:1993  token.balanceOf(address(this)) */\n      mload(0x40)\n      dup3\n      0xffffffff\n      and\n      0xe0\n      shl\n      dup2\n      mstore\n      0x04\n      add\n      tag_152\n      swap2\n      swap1\n      tag_153\n      jump\t// in\n    tag_152:\n      0x20\n      mload(0x40)\n      dup1\n      dup4\n      sub\n      dup2\n      dup7\n      gas\n      staticcall\n      iszero\n      dup1\n      iszero\n      tag_155\n      jumpi\n      returndatasize\n      0x00\n      dup1\n      returndatacopy\n      revert(0x00, returndatasize)\n    tag_155:\n      pop\n      pop\n      pop\n      pop\n      mload(0x40)\n      returndatasize\n      not(0x1f)\n      0x1f\n      dup3\n      add\n      and\n      dup3\n      add\n      dup1\n      0x40\n      mstore\n      pop\n      dup2\n      add\n      swap1\n      tag_156\n      swap2\n      swap1\n      tag_157\n      jump\t// in\n    tag_156:\n        /* \"contracts/yyi.sol\":1937:1994  token.transfer(msg.sender,token.balanceOf(address(this))) */\n      mload(0x40)\n      dup4\n      0xffffffff\n      and\n      0xe0\n      shl\n      dup2\n      mstore\n      0x04\n      add\n      tag_158\n      swap3\n      swap2\n      swap1\n      tag_159\n      jump\t// in\n    tag_158:\n      0x20\n      mload(0x40)\n      dup1\n      dup4\n      sub\n      dup2\n      0x00\n      dup8\n      gas\n      call\n      iszero\n      dup1\n      iszero\n      tag_161\n      jumpi\n      returndatasize\n      0x00\n      dup1\n      returndatacopy\n      revert(0x00, returndatasize)\n    tag_161:\n      pop\n      pop\n      pop\n      pop\n      mload(0x40)\n      returndatasize\n      not(0x1f)\n      0x1f\n      dup3\n      add\n      and\n      dup3\n      add\n      dup1\n      0x40\n      mstore\n      pop\n      dup2\n      add\n      swap1\n      tag_162\n      swap2\n      swap1\n      tag_163\n      jump\t// in\n    tag_162:\n      pop\n        /* \"contracts/yyi.sol\":1864:2002  function withdrawToken(IERC20 token) external payable isAdmin {... */\n      pop\n      jump\t// out\n        /* \"contracts/yyi.sol\":2114:2218  function symbol() public view virtual override returns (string memory) {... */\n    tag_82:\n        /* \"contracts/yyi.sol\":2170:2183  string memory */\n      0x60\n        /* \"contracts/yyi.sol\":2203:2210  _symbol */\n      0x04\n        /* \"contracts/yyi.sol\":2196:2210  return _symbol */\n      dup1\n      sload\n      tag_165\n      swap1\n      tag_107\n      jump\t// in\n    tag_165:\n      dup1\n      0x1f\n      add\n      0x20\n      dup1\n      swap2\n      div\n      mul\n      0x20\n      add\n      mload(0x40)\n      swap1\n      dup2\n      add\n      0x40\n      mstore\n      dup1\n      swap3\n      swap2\n      swap1\n      dup2\n      dup2\n      mstore\n      0x20\n      add\n      dup3\n      dup1\n      sload\n      tag_166\n      swap1\n      tag_107\n      jump\t// in\n    tag_166:\n      dup1\n      iszero\n      tag_167\n      jumpi\n      dup1\n      0x1f\n      lt\n      tag_168\n      jumpi\n      0x0100\n      dup1\n      dup4\n      sload\n      div\n      mul\n      dup4\n      mstore\n      swap2\n      0x20\n      add\n      swap2\n      jump(tag_167)\n    tag_168:\n      dup3\n      add\n      swap2\n      swap1\n      0x00\n      mstore\n      keccak256(0x00, 0x20)\n      swap1\n    tag_169:\n      dup2\n      sload\n      dup2\n      mstore\n      swap1\n      0x01\n      add\n      swap1\n      0x20\n      add\n      dup1\n      dup4\n      gt\n      tag_169\n      jumpi\n      dup3\n      swap1\n      sub\n      0x1f\n      and\n      dup3\n      add\n      swap2\n    tag_167:\n      pop\n      pop\n      pop\n      pop\n      pop\n      swap1\n      pop\n        /* \"contracts/yyi.sol\":2114:2218  function symbol() public view virtual override returns (string memory) {... */\n      swap1\n      jump\t// out\n        /* \"contracts/yyi.sol\":3683:4108  function decreaseAllowance(address spender, uint256 substractedValue) public virtual returns (bool) {... */\n    tag_87:\n        /* \"contracts/yyi.sol\":3777:3781  bool */\n      0x00\n        /* \"contracts/yyi.sol\":3794:3807  address owner */\n      dup1\n        /* \"contracts/yyi.sol\":3810:3820  msg.sender */\n      caller\n        /* \"contracts/yyi.sol\":3794:3820  address owner = msg.sender */\n      swap1\n      pop\n        /* \"contracts/yyi.sol\":3831:3855  uint256 currentAllowance */\n      0x00\n        /* \"contracts/yyi.sol\":3858:3869  _allowances */\n      0x01\n        /* \"contracts/yyi.sol\":3858:3876  _allowances[owner] */\n      0x00\n        /* \"contracts/yyi.sol\":3870:3875  owner */\n      dup4\n        /* \"contracts/yyi.sol\":3858:3876  _allowances[owner] */\n      0xffffffffffffffffffffffffffffffffffffffff\n      and\n      0xffffffffffffffffffffffffffffffffffffffff\n      and\n      dup2\n      mstore\n      0x20\n      add\n      swap1\n      dup2\n      mstore\n      0x20\n      add\n      0x00\n      keccak256\n        /* \"contracts/yyi.sol\":3858:3885  _allowances[owner][spender] */\n      0x00\n        /* \"contracts/yyi.sol\":3877:3884  spender */\n      dup7\n        /* \"contracts/yyi.sol\":3858:3885  _allowances[owner][spender] */\n      0xffffffffffffffffffffffffffffffffffffffff\n      and\n      0xffffffffffffffffffffffffffffffffffffffff\n      and\n      dup2\n      mstore\n      0x20\n      add\n      swap1\n      dup2\n      mstore\n      0x20\n      add\n      0x00\n      keccak256\n      sload\n        /* \"contracts/yyi.sol\":3831:3885  uint256 currentAllowance = _allowances[owner][spender] */\n      swap1\n      pop\n        /* \"contracts/yyi.sol\":3924:3940  substractedValue */\n      dup4\n        /* \"contracts/yyi.sol\":3904:3920  currentAllowance */\n      dup2\n        /* \"contracts/yyi.sol\":3904:3940  currentAllowance >= substractedValue */\n      lt\n      iszero\n        /* \"contracts/yyi.sol\":3896:3982  require(currentAllowance >= substractedValue, \"ERC20: decreased allowance below zero\") */\n      tag_171\n      jumpi\n      mload(0x40)\n      0x08c379a000000000000000000000000000000000000000000000000000000000\n      dup2\n      mstore\n      0x04\n      add\n      tag_172\n      swap1\n      tag_173\n      jump\t// in\n    tag_172:\n      mload(0x40)\n      dup1\n      swap2\n      sub\n      swap1\n      revert\n    tag_171:\n        /* \"contracts/yyi.sol\":4010:4071  _approve(owner, spender, currentAllowance - substractedValue) */\n      tag_174\n        /* \"contracts/yyi.sol\":4019:4024  owner */\n      dup3\n        /* \"contracts/yyi.sol\":4026:4033  spender */\n      dup7\n        /* \"contracts/yyi.sol\":4054:4070  substractedValue */\n      dup7\n        /* \"contracts/yyi.sol\":4035:4051  currentAllowance */\n      dup5\n        /* \"contracts/yyi.sol\":4035:4070  currentAllowance - substractedValue */\n      sub\n        /* \"contracts/yyi.sol\":4010:4018  _approve */\n      tag_114\n        /* \"contracts/yyi.sol\":4010:4071  _approve(owner, spender, currentAllowance - substractedValue) */\n      jump\t// in\n    tag_174:\n        /* \"contracts/yyi.sol\":4096:4100  true */\n      0x01\n        /* \"contracts/yyi.sol\":4089:4100  return true */\n      swap3\n      pop\n      pop\n      pop\n        /* \"contracts/yyi.sol\":3683:4108  function decreaseAllowance(address spender, uint256 substractedValue) public virtual returns (bool) {... */\n      swap3\n      swap2\n      pop\n      pop\n      jump\t// out\n        /* \"contracts/yyi.sol\":2577:2768  function transfer(address to, uint256 amount) public virtual override returns (bool) {... */\n    tag_92:\n        /* \"contracts/yyi.sol\":2656:2660  bool */\n      0x00\n        /* \"contracts/yyi.sol\":2673:2686  address owner */\n      dup1\n        /* \"contracts/yyi.sol\":2689:2699  msg.sender */\n      caller\n        /* \"contracts/yyi.sol\":2673:2699  address owner = msg.sender */\n      swap1\n      pop\n        /* \"contracts/yyi.sol\":2710:2738  _transfer(owner, to, amount) */\n      tag_176\n        /* \"contracts/yyi.sol\":2720:2725  owner */\n      dup2\n        /* \"contracts/yyi.sol\":2727:2729  to */\n      dup6\n        /* \"contracts/yyi.sol\":2731:2737  amount */\n      dup6\n        /* \"contracts/yyi.sol\":2710:2719  _transfer */\n      tag_120\n        /* \"contracts/yyi.sol\":2710:2738  _transfer(owner, to, amount) */\n      jump\t// in\n    tag_176:\n        /* \"contracts/yyi.sol\":2756:2760  true */\n      0x01\n        /* \"contracts/yyi.sol\":2749:2760  return true */\n      swap2\n      pop\n      pop\n        /* \"contracts/yyi.sol\":2577:2768  function transfer(address to, uint256 amount) public virtual override returns (bool) {... */\n      swap3\n      swap2\n      pop\n      pop\n      jump\t// out\n        /* \"contracts/yyi.sol\":2774:2925  function allowance(address owner, address spender) public view virtual override returns (uint256) {... */\n    tag_98:\n        /* \"contracts/yyi.sol\":2863:2870  uint256 */\n      0x00\n        /* \"contracts/yyi.sol\":2890:2901  _allowances */\n      0x01\n        /* \"contracts/yyi.sol\":2890:2908  _allowances[owner] */\n      0x00\n        /* \"contracts/yyi.sol\":2902:2907  owner */\n      dup5\n        /* \"contracts/yyi.sol\":2890:2908  _allowances[owner] */\n      0xffffffffffffffffffffffffffffffffffffffff\n      and\n      0xffffffffffffffffffffffffffffffffffffffff\n      and\n      dup2\n      mstore\n      0x20\n      add\n      swap1\n      dup2\n      mstore\n      0x20\n      add\n      0x00\n      keccak256\n        /* \"contracts/yyi.sol\":2890:2917  _allowances[owner][spender] */\n      0x00\n        /* \"contracts/yyi.sol\":2909:2916  spender */\n      dup4\n        /* \"contracts/yyi.sol\":2890:2917  _allowances[owner][spender] */\n      0xffffffffffffffffffffffffffffffffffffffff\n      and\n      0xffffffffffffffffffffffffffffffffffffffff\n      and\n      dup2\n      mstore\n      0x20\n      add\n      swap1\n      dup2\n      mstore\n      0x20\n      add\n      0x00\n      keccak256\n      sload\n        /* \"contracts/yyi.sol\":2883:2917  return _allowances[owner][spender] */\n      swap1\n      pop\n        /* \"contracts/yyi.sol\":2774:2925  function allowance(address owner, address spender) public view virtual override returns (uint256) {... */\n      swap3\n      swap2\n      pop\n      pop\n      jump\t// out\n        /* \"contracts/yyi.sol\":1363:1400  address payable public   adminAddress */\n    tag_102:\n      0x05\n      0x01\n      swap1\n      sload\n      swap1\n      0x0100\n      exp\n      swap1\n      div\n      0xffffffffffffffffffffffffffffffffffffffff\n      and\n      dup2\n      jump\t// out\n        /* \"contracts/yyi.sol\":5763:6142  function _approve(... */\n    tag_114:\n        /* \"contracts/yyi.sol\":5916:5917  0 */\n      0x00\n        /* \"contracts/yyi.sol\":5899:5918  owner != address(0) */\n      0xffffffffffffffffffffffffffffffffffffffff\n      and\n        /* \"contracts/yyi.sol\":5899:5904  owner */\n      dup4\n        /* \"contracts/yyi.sol\":5899:5918  owner != address(0) */\n      0xffffffffffffffffffffffffffffffffffffffff\n      and\n      sub\n        /* \"contracts/yyi.sol\":5891:5959  require(owner != address(0), \"ERC20: approve from the zero address\") */\n      tag_179\n      jumpi\n      mload(0x40)\n      0x08c379a000000000000000000000000000000000000000000000000000000000\n      dup2\n      mstore\n      0x04\n      add\n      tag_180\n      swap1\n      tag_181\n      jump\t// in\n    tag_180:\n      mload(0x40)\n      dup1\n      swap2\n      sub\n      swap1\n      revert\n    tag_179:\n        /* \"contracts/yyi.sol\":5997:5998  0 */\n      0x00\n        /* \"contracts/yyi.sol\":5978:5999  spender != address(0) */\n      0xffffffffffffffffffffffffffffffffffffffff\n      and\n        /* \"contracts/yyi.sol\":5978:5985  spender */\n      dup3\n        /* \"contracts/yyi.sol\":5978:5999  spender != address(0) */\n      0xffffffffffffffffffffffffffffffffffffffff\n      and\n      sub\n        /* \"contracts/yyi.sol\":5970:6039  require(spender != address(0), \"ERC20: approve  to the zero address\") */\n      tag_182\n      jumpi\n      mload(0x40)\n      0x08c379a000000000000000000000000000000000000000000000000000000000\n      dup2\n      mstore\n      0x04\n      add\n      tag_183\n      swap1\n      tag_184\n      jump\t// in\n    tag_183:\n      mload(0x40)\n      dup1\n      swap2\n      sub\n      swap1\n      revert\n    tag_182:\n        /* \"contracts/yyi.sol\":6080:6086  amount */\n      dup1\n        /* \"contracts/yyi.sol\":6050:6061  _allowances */\n      0x01\n        /* \"contracts/yyi.sol\":6050:6068  _allowances[owner] */\n      0x00\n        /* \"contracts/yyi.sol\":6062:6067  owner */\n      dup6\n        /* \"contracts/yyi.sol\":6050:6068  _allowances[owner] */\n      0xffffffffffffffffffffffffffffffffffffffff\n      and\n      0xffffffffffffffffffffffffffffffffffffffff\n      and\n      dup2\n      mstore\n      0x20\n      add\n      swap1\n      dup2\n      mstore\n      0x20\n      add\n      0x00\n      keccak256\n        /* \"contracts/yyi.sol\":6050:6077  _allowances[owner][spender] */\n      0x00\n        /* \"contracts/yyi.sol\":6069:6076  spender */\n      dup5\n        /* \"contracts/yyi.sol\":6050:6077  _allowances[owner][spender] */\n      0xffffffffffffffffffffffffffffffffffffffff\n      and\n      0xffffffffffffffffffffffffffffffffffffffff\n      and\n      dup2\n      mstore\n      0x20\n      add\n      swap1\n      dup2\n      mstore\n      0x20\n      add\n      0x00\n      keccak256\n        /* \"contracts/yyi.sol\":6050:6086  _allowances[owner][spender] = amount */\n      dup2\n      swap1\n      sstore\n      pop\n        /* \"contracts/yyi.sol\":6118:6125  spender */\n      dup2\n        /* \"contracts/yyi.sol\":6102:6134  Approval(owner, spender, amount) */\n      0xffffffffffffffffffffffffffffffffffffffff\n      and\n        /* \"contracts/yyi.sol\":6111:6116  owner */\n      dup4\n        /* \"contracts/yyi.sol\":6102:6134  Approval(owner, spender, amount) */\n      0xffffffffffffffffffffffffffffffffffffffff\n      and\n      0x8c5be1e5ebec7d5bd14f71427d1e84f3dd0314c0f7b2291e5b200ac8c7c3b925\n        /* \"contracts/yyi.sol\":6127:6133  amount */\n      dup4\n        /* \"contracts/yyi.sol\":6102:6134  Approval(owner, spender, amount) */\n      mload(0x40)\n      tag_185\n      swap2\n      swap1\n      tag_42\n      jump\t// in\n    tag_185:\n      mload(0x40)\n      dup1\n      swap2\n      sub\n      swap1\n      log3\n        /* \"contracts/yyi.sol\":5763:6142  function _approve(... */\n      pop\n      pop\n      pop\n      jump\t// out\n        /* \"contracts/yyi.sol\":6150:6591  function _spendAllowance(... */\n    tag_118:\n        /* \"contracts/yyi.sol\":6285:6309  uint256 currentAllowance */\n      0x00\n        /* \"contracts/yyi.sol\":6312:6337  allowance(owner, spender) */\n      tag_187\n        /* \"contracts/yyi.sol\":6322:6327  owner */\n      dup5\n        /* \"contracts/yyi.sol\":6329:6336  spender */\n      dup5\n        /* \"contracts/yyi.sol\":6312:6321  allowance */\n      tag_98\n        /* \"contracts/yyi.sol\":6312:6337  allowance(owner, spender) */\n      jump\t// in\n    tag_187:\n        /* \"contracts/yyi.sol\":6285:6337  uint256 currentAllowance = allowance(owner, spender) */\n      swap1\n      pop\n        /* \"contracts/yyi.sol\":6372:6389  type(uint256).max */\n      0xffffffffffffffffffffffffffffffffffffffffffffffffffffffffffffffff\n        /* \"contracts/yyi.sol\":6352:6368  currentAllowance */\n      dup2\n        /* \"contracts/yyi.sol\":6352:6389  currentAllowance != type(uint256).max */\n      eq\n        /* \"contracts/yyi.sol\":6348:6584  if (currentAllowance != type(uint256).max) {... */\n      tag_188\n      jumpi\n        /* \"contracts/yyi.sol\":6434:6440  amount */\n      dup2\n        /* \"contracts/yyi.sol\":6414:6430  currentAllowance */\n      dup2\n        /* \"contracts/yyi.sol\":6414:6440  currentAllowance >= amount */\n      lt\n      iszero\n        /* \"contracts/yyi.sol\":6406:6474  require(currentAllowance >= amount, \"ERC20: insufficient allowance\") */\n      tag_189\n      jumpi\n      mload(0x40)\n      0x08c379a000000000000000000000000000000000000000000000000000000000\n      dup2\n      mstore\n      0x04\n      add\n      tag_190\n      swap1\n      tag_191\n      jump\t// in\n    tag_190:\n      mload(0x40)\n      dup1\n      swap2\n      sub\n      swap1\n      revert\n    tag_189:\n        /* \"contracts/yyi.sol\":6510:6561  _approve(owner, spender, currentAllowance - amount) */\n      tag_192\n        /* \"contracts/yyi.sol\":6519:6524  owner */\n      dup5\n        /* \"contracts/yyi.sol\":6526:6533  spender */\n      dup5\n        /* \"contracts/yyi.sol\":6554:6560  amount */\n      dup5\n        /* \"contracts/yyi.sol\":6535:6551  currentAllowance */\n      dup5\n        /* \"contracts/yyi.sol\":6535:6560  currentAllowance - amount */\n      sub\n        /* \"contracts/yyi.sol\":6510:6518  _approve */\n      tag_114\n        /* \"contracts/yyi.sol\":6510:6561  _approve(owner, spender, currentAllowance - amount) */\n      jump\t// in\n    tag_192:\n        /* \"contracts/yyi.sol\":6348:6584  if (currentAllowance != type(uint256).max) {... */\n    tag_188:\n        /* \"contracts/yyi.sol\":6274:6591  {... */\n      pop\n        /* \"contracts/yyi.sol\":6150:6591  function _spendAllowance(... */\n      pop\n      pop\n      pop\n      jump\t// out\n        /* \"contracts/yyi.sol\":4116:4771  function _transfer(... */\n    tag_120:\n        /* \"contracts/yyi.sol\":4263:4264  0 */\n      0x00\n        /* \"contracts/yyi.sol\":4247:4265  from != address(0) */\n      0xffffffffffffffffffffffffffffffffffffffff\n      and\n        /* \"contracts/yyi.sol\":4247:4251  from */\n      dup4\n        /* \"contracts/yyi.sol\":4247:4265  from != address(0) */\n      0xffffffffffffffffffffffffffffffffffffffff\n      and\n      sub\n        /* \"contracts/yyi.sol\":4239:4307  require(from != address(0), \"ERC20: transfer from the zero address\") */\n      tag_194\n      jumpi\n      mload(0x40)\n      0x08c379a000000000000000000000000000000000000000000000000000000000\n      dup2\n      mstore\n      0x04\n      add\n      tag_195\n      swap1\n      tag_196\n      jump\t// in\n    tag_195:\n      mload(0x40)\n      dup1\n      swap2\n      sub\n      swap1\n      revert\n    tag_194:\n        /* \"contracts/yyi.sol\":4340:4341  0 */\n      0x00\n        /* \"contracts/yyi.sol\":4326:4342  to != address(0) */\n      0xffffffffffffffffffffffffffffffffffffffff\n      and\n        /* \"contracts/yyi.sol\":4326:4328  to */\n      dup3\n        /* \"contracts/yyi.sol\":4326:4342  to != address(0) */\n      0xffffffffffffffffffffffffffffffffffffffff\n      and\n      sub\n        /* \"contracts/yyi.sol\":4318:4382  require(to != address(0), \"ERC20: transfer to the zero address\") */\n      tag_197\n      jumpi\n      mload(0x40)\n      0x08c379a000000000000000000000000000000000000000000000000000000000\n      dup2\n      mstore\n      0x04\n      add\n      tag_198\n      swap1\n      tag_199\n      jump\t// in\n    tag_198:\n      mload(0x40)\n      dup1\n      swap2\n      sub\n      swap1\n      revert\n    tag_197:\n        /* \"contracts/yyi.sol\":4395:4433  _beforeTokenTransfer(from, to, amount) */\n      tag_200\n        /* \"contracts/yyi.sol\":4416:4420  from */\n      dup4\n        /* \"contracts/yyi.sol\":4422:4424  to */\n      dup4\n        /* \"contracts/yyi.sol\":4426:4432  amount */\n      dup4\n        /* \"contracts/yyi.sol\":4395:4415  _beforeTokenTransfer */\n      tag_201\n        /* \"contracts/yyi.sol\":4395:4433  _beforeTokenTransfer(from, to, amount) */\n      jump\t// in\n    tag_200:\n        /* \"contracts/yyi.sol\":4446:4465  uint256 fromBalance */\n      0x00\n        /* \"contracts/yyi.sol\":4468:4477  _balances */\n      dup1\n        /* \"contracts/yyi.sol\":4468:4483  _balances[from] */\n      0x00\n        /* \"contracts/yyi.sol\":4478:4482  from */\n      dup6\n        /* \"contracts/yyi.sol\":4468:4483  _balances[from] */\n      0xffffffffffffffffffffffffffffffffffffffff\n      and\n      0xffffffffffffffffffffffffffffffffffffffff\n      and\n      dup2\n      mstore\n      0x20\n      add\n      swap1\n      dup2\n      mstore\n      0x20\n      add\n      0x00\n      keccak256\n      sload\n        /* \"contracts/yyi.sol\":4446:4483  uint256 fromBalance = _balances[from] */\n      swap1\n      pop\n        /* \"contracts/yyi.sol\":4517:4523  amount */\n      dup2\n        /* \"contracts/yyi.sol\":4502:4513  fromBalance */\n      dup2\n        /* \"contracts/yyi.sol\":4502:4523  fromBalance >= amount */\n      lt\n      iszero\n        /* \"contracts/yyi.sol\":4494:4566  require(fromBalance >= amount, \"ERC20: transfer amount exceeds balance\") */\n      tag_202\n      jumpi\n      mload(0x40)\n      0x08c379a000000000000000000000000000000000000000000000000000000000\n      dup2\n      mstore\n      0x04\n      add\n      tag_203\n      swap1\n      tag_204\n      jump\t// in\n    tag_203:\n      mload(0x40)\n      dup1\n      swap2\n      sub\n      swap1\n      revert\n    tag_202:\n        /* \"contracts/yyi.sol\":4626:4632  amount */\n      dup2\n        /* \"contracts/yyi.sol\":4612:4623  fromBalance */\n      dup2\n        /* \"contracts/yyi.sol\":4612:4632  fromBalance - amount */\n      sub\n        /* \"contracts/yyi.sol\":4594:4603  _balances */\n      0x00\n        /* \"contracts/yyi.sol\":4594:4609  _balances[from] */\n      dup1\n        /* \"contracts/yyi.sol\":4604:4608  from */\n      dup7\n        /* \"contracts/yyi.sol\":4594:4609  _balances[from] */\n      0xffffffffffffffffffffffffffffffffffffffff\n      and\n      0xffffffffffffffffffffffffffffffffffffffff\n      and\n      dup2\n      mstore\n      0x20\n      add\n      swap1\n      dup2\n      mstore\n      0x20\n      add\n      0x00\n      keccak256\n        /* \"contracts/yyi.sol\":4594:4632  _balances[from] = fromBalance - amount */\n      dup2\n      swap1\n      sstore\n      pop\n        /* \"contracts/yyi.sol\":4667:4673  amount */\n      dup2\n        /* \"contracts/yyi.sol\":4650:4659  _balances */\n      0x00\n        /* \"contracts/yyi.sol\":4650:4663  _balances[to] */\n      dup1\n        /* \"contracts/yyi.sol\":4660:4662  to */\n      dup6\n        /* \"contracts/yyi.sol\":4650:4663  _balances[to] */\n      0xffffffffffffffffffffffffffffffffffffffff\n      and\n      0xffffffffffffffffffffffffffffffffffffffff\n      and\n      dup2\n      mstore\n      0x20\n      add\n      swap1\n      dup2\n      mstore\n      0x20\n      add\n      0x00\n      keccak256\n      0x00\n        /* \"contracts/yyi.sol\":4650:4673  _balances[to] += amount */\n      dup3\n      dup3\n      sload\n      tag_205\n      swap2\n      swap1\n      tag_125\n      jump\t// in\n    tag_205:\n      swap3\n      pop\n      pop\n      dup2\n      swap1\n      sstore\n      pop\n        /* \"contracts/yyi.sol\":4704:4706  to */\n      dup3\n        /* \"contracts/yyi.sol\":4689:4715  Transfer(from, to, amount) */\n      0xffffffffffffffffffffffffffffffffffffffff\n      and\n        /* \"contracts/yyi.sol\":4698:4702  from */\n      dup5\n        /* \"contracts/yyi.sol\":4689:4715  Transfer(from, to, amount) */\n      0xffffffffffffffffffffffffffffffffffffffff\n      and\n      0xddf252ad1be2c89b69c2b068fc378daa952ba7f163c4a11628f55a4df523b3ef\n        /* \"contracts/yyi.sol\":4708:4714  amount */\n      dup5\n        /* \"contracts/yyi.sol\":4689:4715  Transfer(from, to, amount) */\n      mload(0x40)\n      tag_206\n      swap2\n      swap1\n      tag_42\n      jump\t// in\n    tag_206:\n      mload(0x40)\n      dup1\n      swap2\n      sub\n      swap1\n      log3\n        /* \"contracts/yyi.sol\":4726:4763  _afterTokenTransfer(from, to, amount) */\n      tag_207\n        /* \"contracts/yyi.sol\":4746:4750  from */\n      dup5\n        /* \"contracts/yyi.sol\":4752:4754  to */\n      dup5\n        /* \"contracts/yyi.sol\":4756:4762  amount */\n      dup5\n        /* \"contracts/yyi.sol\":4726:4745  _afterTokenTransfer */\n      tag_208\n        /* \"contracts/yyi.sol\":4726:4763  _afterTokenTransfer(from, to, amount) */\n      jump\t// in\n    tag_207:\n        /* \"contracts/yyi.sol\":4228:4771  {... */\n      pop\n        /* \"contracts/yyi.sol\":4116:4771  function _transfer(... */\n      pop\n      pop\n      pop\n      jump\t// out\n        /* \"contracts/yyi.sol\":4779:5172  function _mint(address account, uint256 amount) internal virtual {... */\n    tag_146:\n        /* \"contracts/yyi.sol\":4882:4883  0 */\n      0x00\n        /* \"contracts/yyi.sol\":4863:4884  account != address(0) */\n      0xffffffffffffffffffffffffffffffffffffffff\n      and\n        /* \"contracts/yyi.sol\":4863:4870  account */\n      dup3\n        /* \"contracts/yyi.sol\":4863:4884  account != address(0) */\n      0xffffffffffffffffffffffffffffffffffffffff\n      and\n      sub\n        /* \"contracts/yyi.sol\":4855:4920  require(account != address(0), \"ERC20: mint to the zero address\") */\n      tag_210\n      jumpi\n      mload(0x40)\n      0x08c379a000000000000000000000000000000000000000000000000000000000\n      dup2\n      mstore\n      0x04\n      add\n      tag_211\n      swap1\n      tag_212\n      jump\t// in\n    tag_211:\n      mload(0x40)\n      dup1\n      swap2\n      sub\n      swap1\n      revert\n    tag_210:\n        /* \"contracts/yyi.sol\":4931:4980  _beforeTokenTransfer(address(0), account, amount) */\n      tag_213\n        /* \"contracts/yyi.sol\":4960:4961  0 */\n      0x00\n        /* \"contracts/yyi.sol\":4964:4971  account */\n      dup4\n        /* \"contracts/yyi.sol\":4973:4979  amount */\n      dup4\n        /* \"contracts/yyi.sol\":4931:4951  _beforeTokenTransfer */\n      tag_201\n        /* \"contracts/yyi.sol\":4931:4980  _beforeTokenTransfer(address(0), account, amount) */\n      jump\t// in\n    tag_213:\n        /* \"contracts/yyi.sol\":5007:5013  amount */\n      dup1\n        /* \"contracts/yyi.sol\":4991:5003  _totalSupply */\n      0x02\n      0x00\n        /* \"contracts/yyi.sol\":4991:5013  _totalSupply += amount */\n      dup3\n      dup3\n      sload\n      tag_214\n      swap2\n      swap1\n      tag_125\n      jump\t// in\n    tag_214:\n      swap3\n      pop\n      pop\n      dup2\n      swap1\n      sstore\n      pop\n        /* \"contracts/yyi.sol\":5046:5052  amount */\n      dup1\n        /* \"contracts/yyi.sol\":5024:5033  _balances */\n      0x00\n        /* \"contracts/yyi.sol\":5024:5042  _balances[account] */\n      dup1\n        /* \"contracts/yyi.sol\":5034:5041  account */\n      dup5\n        /* \"contracts/yyi.sol\":5024:5042  _balances[account] */\n      0xffffffffffffffffffffffffffffffffffffffff\n      and\n      0xffffffffffffffffffffffffffffffffffffffff\n      and\n      dup2\n      mstore\n      0x20\n      add\n      swap1\n      dup2\n      mstore\n      0x20\n      add\n      0x00\n      keccak256\n      0x00\n        /* \"contracts/yyi.sol\":5024:5052  _balances[account] += amount */\n      dup3\n      dup3\n      sload\n      tag_215\n      swap2\n      swap1\n      tag_125\n      jump\t// in\n    tag_215:\n      swap3\n      pop\n      pop\n      dup2\n      swap1\n      sstore\n      pop\n        /* \"contracts/yyi.sol\":5089:5096  account */\n      dup2\n        /* \"contracts/yyi.sol\":5068:5105  Transfer(address(0), account, amount) */\n      0xffffffffffffffffffffffffffffffffffffffff\n      and\n        /* \"contracts/yyi.sol\":5085:5086  0 */\n      0x00\n        /* \"contracts/yyi.sol\":5068:5105  Transfer(address(0), account, amount) */\n      0xffffffffffffffffffffffffffffffffffffffff\n      and\n      0xddf252ad1be2c89b69c2b068fc378daa952ba7f163c4a11628f55a4df523b3ef\n        /* \"contracts/yyi.sol\":5098:5104  amount */\n      dup4\n        /* \"contracts/yyi.sol\":5068:5105  Transfer(address(0), account, amount) */\n      mload(0x40)\n      tag_216\n      swap2\n      swap1\n      tag_42\n      jump\t// in\n    tag_216:\n      mload(0x40)\n      dup1\n      swap2\n      sub\n      swap1\n      log3\n        /* \"contracts/yyi.sol\":5116:5164  _afterTokenTransfer(address(0), account, amount) */\n      tag_217\n        /* \"contracts/yyi.sol\":5144:5145  0 */\n      0x00\n        /* \"contracts/yyi.sol\":5148:5155  account */\n      dup4\n        /* \"contracts/yyi.sol\":5157:5163  amount */\n      dup4\n        /* \"contracts/yyi.sol\":5116:5135  _afterTokenTransfer */\n      tag_208\n        /* \"contracts/yyi.sol\":5116:5164  _afterTokenTransfer(address(0), account, amount) */\n      jump\t// in\n    tag_217:\n        /* \"contracts/yyi.sol\":4779:5172  function _mint(address account, uint256 amount) internal virtual {... */\n      pop\n      pop\n      jump\t// out\n        /* \"contracts/yyi.sol\":6599:6724  function _beforeTokenTransfer(... */\n    tag_201:\n      pop\n      pop\n      pop\n      jump\t// out\n        /* \"contracts/yyi.sol\":6732:6856  function _afterTokenTransfer(... */\n    tag_208:\n      pop\n      pop\n      pop\n      jump\t// out\n        /* \"#utility.yul\":7:106   */\n    tag_220:\n        /* \"#utility.yul\":59:65   */\n      0x00\n        /* \"#utility.yul\":93:98   */\n      dup2\n        /* \"#utility.yul\":87:99   */\n      mload\n        /* \"#utility.yul\":77:99   */\n      swap1\n      pop\n        /* \"#utility.yul\":7:106   */\n      swap2\n      swap1\n      pop\n      jump\t// out\n        /* \"#utility.yul\":112:281   */\n    tag_221:\n        /* \"#utility.yul\":196:207   */\n      0x00\n        /* \"#utility.yul\":230:236   */\n      dup3\n        /* \"#utility.yul\":225:228   */\n      dup3\n        /* \"#utility.yul\":218:237   */\n      mstore\n        /* \"#utility.yul\":270:274   */\n      0x20\n        /* \"#utility.yul\":265:268   */\n      dup3\n        /* \"#utility.yul\":261:275   */\n      add\n        /* \"#utility.yul\":246:275   */\n      swap1\n      pop\n        /* \"#utility.yul\":112:281   */\n      swap3\n      swap2\n      pop\n      pop\n      jump\t// out\n        /* \"#utility.yul\":287:594   */\n    tag_222:\n        /* \"#utility.yul\":355:356   */\n      0x00\n        /* \"#utility.yul\":365:478   */\n    tag_276:\n        /* \"#utility.yul\":379:385   */\n      dup4\n        /* \"#utility.yul\":376:377   */\n      dup2\n        /* \"#utility.yul\":373:386   */\n      lt\n        /* \"#utility.yul\":365:478   */\n      iszero\n      tag_278\n      jumpi\n        /* \"#utility.yul\":464:465   */\n      dup1\n        /* \"#utility.yul\":459:462   */\n      dup3\n        /* \"#utility.yul\":455:466   */\n      add\n        /* \"#utility.yul\":449:467   */\n      mload\n        /* \"#utility.yul\":445:446   */\n      dup2\n        /* \"#utility.yul\":440:443   */\n      dup5\n        /* \"#utility.yul\":436:447   */\n      add\n        /* \"#utility.yul\":429:468   */\n      mstore\n        /* \"#utility.yul\":401:403   */\n      0x20\n        /* \"#utility.yul\":398:399   */\n      dup2\n        /* \"#utility.yul\":394:404   */\n      add\n        /* \"#utility.yul\":389:404   */\n      swap1\n      pop\n        /* \"#utility.yul\":365:478   */\n      jump(tag_276)\n    tag_278:\n        /* \"#utility.yul\":496:502   */\n      dup4\n        /* \"#utility.yul\":493:494   */\n      dup2\n        /* \"#utility.yul\":490:503   */\n      gt\n        /* \"#utility.yul\":487:588   */\n      iszero\n      tag_279\n      jumpi\n        /* \"#utility.yul\":576:577   */\n      0x00\n        /* \"#utility.yul\":567:573   */\n      dup5\n        /* \"#utility.yul\":562:565   */\n      dup5\n        /* \"#utility.yul\":558:574   */\n      add\n        /* \"#utility.yul\":551:578   */\n      mstore\n        /* \"#utility.yul\":487:588   */\n    tag_279:\n        /* \"#utility.yul\":336:594   */\n      pop\n        /* \"#utility.yul\":287:594   */\n      pop\n      pop\n      pop\n      jump\t// out\n        /* \"#utility.yul\":600:702   */\n    tag_223:\n        /* \"#utility.yul\":641:647   */\n      0x00\n        /* \"#utility.yul\":692:694   */\n      0x1f\n        /* \"#utility.yul\":688:695   */\n      not\n        /* \"#utility.yul\":683:685   */\n      0x1f\n        /* \"#utility.yul\":676:681   */\n      dup4\n        /* \"#utility.yul\":672:686   */\n      add\n        /* \"#utility.yul\":668:696   */\n      and\n        /* \"#utility.yul\":658:696   */\n      swap1\n      pop\n        /* \"#utility.yul\":600:702   */\n      swap2\n      swap1\n      pop\n      jump\t// out\n        /* \"#utility.yul\":708:1072   */\n    tag_224:\n        /* \"#utility.yul\":796:799   */\n      0x00\n        /* \"#utility.yul\":824:863   */\n      tag_282\n        /* \"#utility.yul\":857:862   */\n      dup3\n        /* \"#utility.yul\":824:863   */\n      tag_220\n      jump\t// in\n    tag_282:\n        /* \"#utility.yul\":879:950   */\n      tag_283\n        /* \"#utility.yul\":943:949   */\n      dup2\n        /* \"#utility.yul\":938:941   */\n      dup6\n        /* \"#utility.yul\":879:950   */\n      tag_221\n      jump\t// in\n    tag_283:\n        /* \"#utility.yul\":872:950   */\n      swap4\n      pop\n        /* \"#utility.yul\":959:1011   */\n      tag_284\n        /* \"#utility.yul\":1004:1010   */\n      dup2\n        /* \"#utility.yul\":999:1002   */\n      dup6\n        /* \"#utility.yul\":992:996   */\n      0x20\n        /* \"#utility.yul\":985:990   */\n      dup7\n        /* \"#utility.yul\":981:997   */\n      add\n        /* \"#utility.yul\":959:1011   */\n      tag_222\n      jump\t// in\n    tag_284:\n        /* \"#utility.yul\":1036:1065   */\n      tag_285\n        /* \"#utility.yul\":1058:1064   */\n      dup2\n        /* \"#utility.yul\":1036:1065   */\n      tag_223\n      jump\t// in\n    tag_285:\n        /* \"#utility.yul\":1031:1034   */\n      dup5\n        /* \"#utility.yul\":1027:1066   */\n      add\n        /* \"#utility.yul\":1020:1066   */\n      swap2\n      pop\n        /* \"#utility.yul\":800:1072   */\n      pop\n        /* \"#utility.yul\":708:1072   */\n      swap3\n      swap2\n      pop\n      pop\n      jump\t// out\n        /* \"#utility.yul\":1078:1391   */\n    tag_30:\n        /* \"#utility.yul\":1191:1195   */\n      0x00\n        /* \"#utility.yul\":1229:1231   */\n      0x20\n        /* \"#utility.yul\":1218:1227   */\n      dup3\n        /* \"#utility.yul\":1214:1232   */\n      add\n        /* \"#utility.yul\":1206:1232   */\n      swap1\n      pop\n        /* \"#utility.yul\":1278:1287   */\n      dup2\n        /* \"#utility.yul\":1272:1276   */\n      dup2\n        /* \"#utility.yul\":1268:1288   */\n      sub\n        /* \"#utility.yul\":1264:1265   */\n      0x00\n        /* \"#utility.yul\":1253:1262   */\n      dup4\n        /* \"#utility.yul\":1249:1266   */\n      add\n        /* \"#utility.yul\":1242:1289   */\n      mstore\n        /* \"#utility.yul\":1306:1384   */\n      tag_287\n        /* \"#utility.yul\":1379:1383   */\n      dup2\n        /* \"#utility.yul\":1370:1376   */\n      dup5\n        /* \"#utility.yul\":1306:1384   */\n      tag_224\n      jump\t// in\n    tag_287:\n        /* \"#utility.yul\":1298:1384   */\n      swap1\n      pop\n        /* \"#utility.yul\":1078:1391   */\n      swap3\n      swap2\n      pop\n      pop\n      jump\t// out\n        /* \"#utility.yul\":1478:1595   */\n    tag_226:\n        /* \"#utility.yul\":1587:1588   */\n      0x00\n        /* \"#utility.yul\":1584:1585   */\n      dup1\n        /* \"#utility.yul\":1577:1589   */\n      revert\n        /* \"#utility.yul\":1724:1850   */\n    tag_228:\n        /* \"#utility.yul\":1761:1768   */\n      0x00\n        /* \"#utility.yul\":1801:1843   */\n      0xffffffffffffffffffffffffffffffffffffffff\n        /* \"#utility.yul\":1794:1799   */\n      dup3\n        /* \"#utility.yul\":1790:1844   */\n      and\n        /* \"#utility.yul\":1779:1844   */\n      swap1\n      pop\n        /* \"#utility.yul\":1724:1850   */\n      swap2\n      swap1\n      pop\n      jump\t// out\n        /* \"#utility.yul\":1856:1952   */\n    tag_229:\n        /* \"#utility.yul\":1893:1900   */\n      0x00\n        /* \"#utility.yul\":1922:1946   */\n      tag_293\n        /* \"#utility.yul\":1940:1945   */\n      dup3\n        /* \"#utility.yul\":1922:1946   */\n      tag_228\n      jump\t// in\n    tag_293:\n        /* \"#utility.yul\":1911:1946   */\n      swap1\n      pop\n        /* \"#utility.yul\":1856:1952   */\n      swap2\n      swap1\n      pop\n      jump\t// out\n        /* \"#utility.yul\":1958:2080   */\n    tag_230:\n        /* \"#utility.yul\":2031:2055   */\n      tag_295\n        /* \"#utility.yul\":2049:2054   */\n      dup2\n        /* \"#utility.yul\":2031:2055   */\n      tag_229\n      jump\t// in\n    tag_295:\n        /* \"#utility.yul\":2024:2029   */\n      dup2\n        /* \"#utility.yul\":2021:2056   */\n      eq\n        /* \"#utility.yul\":2011:2074   */\n      tag_296\n      jumpi\n        /* \"#utility.yul\":2070:2071   */\n      0x00\n        /* \"#utility.yul\":2067:2068   */\n      dup1\n        /* \"#utility.yul\":2060:2072   */\n      revert\n        /* \"#utility.yul\":2011:2074   */\n    tag_296:\n        /* \"#utility.yul\":1958:2080   */\n      pop\n      jump\t// out\n        /* \"#utility.yul\":2086:2225   */\n    tag_231:\n        /* \"#utility.yul\":2132:2137   */\n      0x00\n        /* \"#utility.yul\":2170:2176   */\n      dup2\n        /* \"#utility.yul\":2157:2177   */\n      calldataload\n        /* \"#utility.yul\":2148:2177   */\n      swap1\n      pop\n        /* \"#utility.yul\":2186:2219   */\n      tag_298\n        /* \"#utility.yul\":2213:2218   */\n      dup2\n        /* \"#utility.yul\":2186:2219   */\n      tag_230\n      jump\t// in\n    tag_298:\n        /* \"#utility.yul\":2086:2225   */\n      swap3\n      swap2\n      pop\n      pop\n      jump\t// out\n        /* \"#utility.yul\":2231:2308   */\n    tag_232:\n        /* \"#utility.yul\":2268:2275   */\n      0x00\n        /* \"#utility.yul\":2297:2302   */\n      dup2\n        /* \"#utility.yul\":2286:2302   */\n      swap1\n      pop\n        /* \"#utility.yul\":2231:2308   */\n      swap2\n      swap1\n      pop\n      jump\t// out\n        /* \"#utility.yul\":2314:2436   */\n    tag_233:\n        /* \"#utility.yul\":2387:2411   */\n      tag_301\n        /* \"#utility.yul\":2405:2410   */\n      dup2\n        /* \"#utility.yul\":2387:2411   */\n      tag_232\n      jump\t// in\n    tag_301:\n        /* \"#utility.yul\":2380:2385   */\n      dup2\n        /* \"#utility.yul\":2377:2412   */\n      eq\n        /* \"#utility.yul\":2367:2430   */\n      tag_302\n      jumpi\n        /* \"#utility.yul\":2426:2427   */\n      0x00\n        /* \"#utility.yul\":2423:2424   */\n      dup1\n        /* \"#utility.yul\":2416:2428   */\n      revert\n        /* \"#utility.yul\":2367:2430   */\n    tag_302:\n        /* \"#utility.yul\":2314:2436   */\n      pop\n      jump\t// out\n        /* \"#utility.yul\":2442:2581   */\n    tag_234:\n        /* \"#utility.yul\":2488:2493   */\n      0x00\n        /* \"#utility.yul\":2526:2532   */\n      dup2\n        /* \"#utility.yul\":2513:2533   */\n      calldataload\n        /* \"#utility.yul\":2504:2533   */\n      swap1\n      pop\n        /* \"#utility.yul\":2542:2575   */\n      tag_304\n        /* \"#utility.yul\":2569:2574   */\n      dup2\n        /* \"#utility.yul\":2542:2575   */\n      tag_233\n      jump\t// in\n    tag_304:\n        /* \"#utility.yul\":2442:2581   */\n      swap3\n      swap2\n      pop\n      pop\n      jump\t// out\n        /* \"#utility.yul\":2587:3061   */\n    tag_34:\n        /* \"#utility.yul\":2655:2661   */\n      0x00\n        /* \"#utility.yul\":2663:2669   */\n      dup1\n        /* \"#utility.yul\":2712:2714   */\n      0x40\n        /* \"#utility.yul\":2700:2709   */\n      dup4\n        /* \"#utility.yul\":2691:2698   */\n      dup6\n        /* \"#utility.yul\":2687:2710   */\n      sub\n        /* \"#utility.yul\":2683:2715   */\n      slt\n        /* \"#utility.yul\":2680:2799   */\n      iszero\n      tag_306\n      jumpi\n        /* \"#utility.yul\":2718:2797   */\n      tag_307\n      tag_226\n      jump\t// in\n    tag_307:\n        /* \"#utility.yul\":2680:2799   */\n    tag_306:\n        /* \"#utility.yul\":2838:2839   */\n      0x00\n        /* \"#utility.yul\":2863:2916   */\n      tag_308\n        /* \"#utility.yul\":2908:2915   */\n      dup6\n        /* \"#utility.yul\":2899:2905   */\n      dup3\n        /* \"#utility.yul\":2888:2897   */\n      dup7\n        /* \"#utility.yul\":2884:2906   */\n      add\n        /* \"#utility.yul\":2863:2916   */\n      tag_231\n      jump\t// in\n    tag_308:\n        /* \"#utility.yul\":2853:2916   */\n      swap3\n      pop\n        /* \"#utility.yul\":2809:2926   */\n      pop\n        /* \"#utility.yul\":2965:2967   */\n      0x20\n        /* \"#utility.yul\":2991:3044   */\n      tag_309\n        /* \"#utility.yul\":3036:3043   */\n      dup6\n        /* \"#utility.yul\":3027:3033   */\n      dup3\n        /* \"#utility.yul\":3016:3025   */\n      dup7\n        /* \"#utility.yul\":3012:3034   */\n      add\n        /* \"#utility.yul\":2991:3044   */\n      tag_234\n      jump\t// in\n    tag_309:\n        /* \"#utility.yul\":2981:3044   */\n      swap2\n      pop\n        /* \"#utility.yul\":2936:3054   */\n      pop\n        /* \"#utility.yul\":2587:3061   */\n      swap3\n      pop\n      swap3\n      swap1\n      pop\n      jump\t// out\n        /* \"#utility.yul\":3067:3157   */\n    tag_235:\n        /* \"#utility.yul\":3101:3108   */\n      0x00\n        /* \"#utility.yul\":3144:3149   */\n      dup2\n        /* \"#utility.yul\":3137:3150   */\n      iszero\n        /* \"#utility.yul\":3130:3151   */\n      iszero\n        /* \"#utility.yul\":3119:3151   */\n      swap1\n      pop\n        /* \"#utility.yul\":3067:3157   */\n      swap2\n      swap1\n      pop\n      jump\t// out\n        /* \"#utility.yul\":3163:3272   */\n    tag_236:\n        /* \"#utility.yul\":3244:3265   */\n      tag_312\n        /* \"#utility.yul\":3259:3264   */\n      dup2\n        /* \"#utility.yul\":3244:3265   */\n      tag_235\n      jump\t// in\n    tag_312:\n        /* \"#utility.yul\":3239:3242   */\n      dup3\n        /* \"#utility.yul\":3232:3266   */\n      mstore\n        /* \"#utility.yul\":3163:3272   */\n      pop\n      pop\n      jump\t// out\n        /* \"#utility.yul\":3278:3488   */\n    tag_37:\n        /* \"#utility.yul\":3365:3369   */\n      0x00\n        /* \"#utility.yul\":3403:3405   */\n      0x20\n        /* \"#utility.yul\":3392:3401   */\n      dup3\n        /* \"#utility.yul\":3388:3406   */\n      add\n        /* \"#utility.yul\":3380:3406   */\n      swap1\n      pop\n        /* \"#utility.yul\":3416:3481   */\n      tag_314\n        /* \"#utility.yul\":3478:3479   */\n      0x00\n        /* \"#utility.yul\":3467:3476   */\n      dup4\n        /* \"#utility.yul\":3463:3480   */\n      add\n        /* \"#utility.yul\":3454:3460   */\n      dup5\n        /* \"#utility.yul\":3416:3481   */\n      tag_236\n      jump\t// in\n    tag_314:\n        /* \"#utility.yul\":3278:3488   */\n      swap3\n      swap2\n      pop\n      pop\n      jump\t// out\n        /* \"#utility.yul\":3494:3612   */\n    tag_237:\n        /* \"#utility.yul\":3581:3605   */\n      tag_316\n        /* \"#utility.yul\":3599:3604   */\n      dup2\n        /* \"#utility.yul\":3581:3605   */\n      tag_232\n      jump\t// in\n    tag_316:\n        /* \"#utility.yul\":3576:3579   */\n      dup3\n        /* \"#utility.yul\":3569:3606   */\n      mstore\n        /* \"#utility.yul\":3494:3612   */\n      pop\n      pop\n      jump\t// out\n        /* \"#utility.yul\":3618:3840   */\n    tag_42:\n        /* \"#utility.yul\":3711:3715   */\n      0x00\n        /* \"#utility.yul\":3749:3751   */\n      0x20\n        /* \"#utility.yul\":3738:3747   */\n      dup3\n        /* \"#utility.yul\":3734:3752   */\n      add\n        /* \"#utility.yul\":3726:3752   */\n      swap1\n      pop\n        /* \"#utility.yul\":3762:3833   */\n      tag_318\n        /* \"#utility.yul\":3830:3831   */\n      0x00\n        /* \"#utility.yul\":3819:3828   */\n      dup4\n        /* \"#utility.yul\":3815:3832   */\n      add\n        /* \"#utility.yul\":3806:3812   */\n      dup5\n        /* \"#utility.yul\":3762:3833   */\n      tag_237\n      jump\t// in\n    tag_318:\n        /* \"#utility.yul\":3618:3840   */\n      swap3\n      swap2\n      pop\n      pop\n      jump\t// out\n        /* \"#utility.yul\":3846:4465   */\n    tag_46:\n        /* \"#utility.yul\":3923:3929   */\n      0x00\n        /* \"#utility.yul\":3931:3937   */\n      dup1\n        /* \"#utility.yul\":3939:3945   */\n      0x00\n        /* \"#utility.yul\":3988:3990   */\n      0x60\n        /* \"#utility.yul\":3976:3985   */\n      dup5\n        /* \"#utility.yul\":3967:3974   */\n      dup7\n        /* \"#utility.yul\":3963:3986   */\n      sub\n        /* \"#utility.yul\":3959:3991   */\n      slt\n        /* \"#utility.yul\":3956:4075   */\n      iszero\n      tag_320\n      jumpi\n        /* \"#utility.yul\":3994:4073   */\n      tag_321\n      tag_226\n      jump\t// in\n    tag_321:\n        /* \"#utility.yul\":3956:4075   */\n    tag_320:\n        /* \"#utility.yul\":4114:4115   */\n      0x00\n        /* \"#utility.yul\":4139:4192   */\n      tag_322\n        /* \"#utility.yul\":4184:4191   */\n      dup7\n        /* \"#utility.yul\":4175:4181   */\n      dup3\n        /* \"#utility.yul\":4164:4173   */\n      dup8\n        /* \"#utility.yul\":4160:4182   */\n      add\n        /* \"#utility.yul\":4139:4192   */\n      tag_231\n      jump\t// in\n    tag_322:\n        /* \"#utility.yul\":4129:4192   */\n      swap4\n      pop\n        /* \"#utility.yul\":4085:4202   */\n      pop\n        /* \"#utility.yul\":4241:4243   */\n      0x20\n        /* \"#utility.yul\":4267:4320   */\n      tag_323\n        /* \"#utility.yul\":4312:4319   */\n      dup7\n        /* \"#utility.yul\":4303:4309   */\n      dup3\n        /* \"#utility.yul\":4292:4301   */\n      dup8\n        /* \"#utility.yul\":4288:4310   */\n      add\n        /* \"#utility.yul\":4267:4320   */\n      tag_231\n      jump\t// in\n    tag_323:\n        /* \"#utility.yul\":4257:4320   */\n      swap3\n      pop\n        /* \"#utility.yul\":4212:4330   */\n      pop\n        /* \"#utility.yul\":4369:4371   */\n      0x40\n        /* \"#utility.yul\":4395:4448   */\n      tag_324\n        /* \"#utility.yul\":4440:4447   */\n      dup7\n        /* \"#utility.yul\":4431:4437   */\n      dup3\n        /* \"#utility.yul\":4420:4429   */\n      dup8\n        /* \"#utility.yul\":4416:4438   */\n      add\n        /* \"#utility.yul\":4395:4448   */\n      tag_234\n      jump\t// in\n    tag_324:\n        /* \"#utility.yul\":4385:4448   */\n      swap2\n      pop\n        /* \"#utility.yul\":4340:4458   */\n      pop\n        /* \"#utility.yul\":3846:4465   */\n      swap3\n      pop\n      swap3\n      pop\n      swap3\n      jump\t// out\n        /* \"#utility.yul\":4471:4557   */\n    tag_238:\n        /* \"#utility.yul\":4506:4513   */\n      0x00\n        /* \"#utility.yul\":4546:4550   */\n      0xff\n        /* \"#utility.yul\":4539:4544   */\n      dup3\n        /* \"#utility.yul\":4535:4551   */\n      and\n        /* \"#utility.yul\":4524:4551   */\n      swap1\n      pop\n        /* \"#utility.yul\":4471:4557   */\n      swap2\n      swap1\n      pop\n      jump\t// out\n        /* \"#utility.yul\":4563:4675   */\n    tag_239:\n        /* \"#utility.yul\":4646:4668   */\n      tag_327\n        /* \"#utility.yul\":4662:4667   */\n      dup2\n        /* \"#utility.yul\":4646:4668   */\n      tag_238\n      jump\t// in\n    tag_327:\n        /* \"#utility.yul\":4641:4644   */\n      dup3\n        /* \"#utility.yul\":4634:4669   */\n      mstore\n        /* \"#utility.yul\":4563:4675   */\n      pop\n      pop\n      jump\t// out\n        /* \"#utility.yul\":4681:4895   */\n    tag_53:\n        /* \"#utility.yul\":4770:4774   */\n      0x00\n        /* \"#utility.yul\":4808:4810   */\n      0x20\n        /* \"#utility.yul\":4797:4806   */\n      dup3\n        /* \"#utility.yul\":4793:4811   */\n      add\n        /* \"#utility.yul\":4785:4811   */\n      swap1\n      pop\n        /* \"#utility.yul\":4821:4888   */\n      tag_329\n        /* \"#utility.yul\":4885:4886   */\n      0x00\n        /* \"#utility.yul\":4874:4883   */\n      dup4\n        /* \"#utility.yul\":4870:4887   */\n      add\n        /* \"#utility.yul\":4861:4867   */\n      dup5\n        /* \"#utility.yul\":4821:4888   */\n      tag_239\n      jump\t// in\n    tag_329:\n        /* \"#utility.yul\":4681:4895   */\n      swap3\n      swap2\n      pop\n      pop\n      jump\t// out\n        /* \"#utility.yul\":4901:5230   */\n    tag_65:\n        /* \"#utility.yul\":4960:4966   */\n      0x00\n        /* \"#utility.yul\":5009:5011   */\n      0x20\n        /* \"#utility.yul\":4997:5006   */\n      dup3\n        /* \"#utility.yul\":4988:4995   */\n      dup5\n        /* \"#utility.yul\":4984:5007   */\n      sub\n        /* \"#utility.yul\":4980:5012   */\n      slt\n        /* \"#utility.yul\":4977:5096   */\n      iszero\n      tag_331\n      jumpi\n        /* \"#utility.yul\":5015:5094   */\n      tag_332\n      tag_226\n      jump\t// in\n    tag_332:\n        /* \"#utility.yul\":4977:5096   */\n    tag_331:\n        /* \"#utility.yul\":5135:5136   */\n      0x00\n        /* \"#utility.yul\":5160:5213   */\n      tag_333\n        /* \"#utility.yul\":5205:5212   */\n      dup5\n        /* \"#utility.yul\":5196:5202   */\n      dup3\n        /* \"#utility.yul\":5185:5194   */\n      dup6\n        /* \"#utility.yul\":5181:5203   */\n      add\n        /* \"#utility.yul\":5160:5213   */\n      tag_231\n      jump\t// in\n    tag_333:\n        /* \"#utility.yul\":5150:5213   */\n      swap2\n      pop\n        /* \"#utility.yul\":5106:5223   */\n      pop\n        /* \"#utility.yul\":4901:5230   */\n      swap3\n      swap2\n      pop\n      pop\n      jump\t// out\n        /* \"#utility.yul\":5236:5345   */\n    tag_240:\n        /* \"#utility.yul\":5286:5293   */\n      0x00\n        /* \"#utility.yul\":5315:5339   */\n      tag_335\n        /* \"#utility.yul\":5333:5338   */\n      dup3\n        /* \"#utility.yul\":5315:5339   */\n      tag_229\n      jump\t// in\n    tag_335:\n        /* \"#utility.yul\":5304:5339   */\n      swap1\n      pop\n        /* \"#utility.yul\":5236:5345   */\n      swap2\n      swap1\n      pop\n      jump\t// out\n        /* \"#utility.yul\":5351:5499   */\n    tag_241:\n        /* \"#utility.yul\":5437:5474   */\n      tag_337\n        /* \"#utility.yul\":5468:5473   */\n      dup2\n        /* \"#utility.yul\":5437:5474   */\n      tag_240\n      jump\t// in\n    tag_337:\n        /* \"#utility.yul\":5430:5435   */\n      dup2\n        /* \"#utility.yul\":5427:5475   */\n      eq\n        /* \"#utility.yul\":5417:5493   */\n      tag_338\n      jumpi\n        /* \"#utility.yul\":5489:5490   */\n      0x00\n        /* \"#utility.yul\":5486:5487   */\n      dup1\n        /* \"#utility.yul\":5479:5491   */\n      revert\n        /* \"#utility.yul\":5417:5493   */\n    tag_338:\n        /* \"#utility.yul\":5351:5499   */\n      pop\n      jump\t// out\n        /* \"#utility.yul\":5505:5670   */\n    tag_242:\n        /* \"#utility.yul\":5564:5569   */\n      0x00\n        /* \"#utility.yul\":5602:5608   */\n      dup2\n        /* \"#utility.yul\":5589:5609   */\n      calldataload\n        /* \"#utility.yul\":5580:5609   */\n      swap1\n      pop\n        /* \"#utility.yul\":5618:5664   */\n      tag_340\n        /* \"#utility.yul\":5658:5663   */\n      dup2\n        /* \"#utility.yul\":5618:5664   */\n      tag_241\n      jump\t// in\n    tag_340:\n        /* \"#utility.yul\":5505:5670   */\n      swap3\n      swap2\n      pop\n      pop\n      jump\t// out\n        /* \"#utility.yul\":5676:6031   */\n    tag_78:\n        /* \"#utility.yul\":5748:5754   */\n      0x00\n        /* \"#utility.yul\":5797:5799   */\n      0x20\n        /* \"#utility.yul\":5785:5794   */\n      dup3\n        /* \"#utility.yul\":5776:5783   */\n      dup5\n        /* \"#utility.yul\":5772:5795   */\n      sub\n        /* \"#utility.yul\":5768:5800   */\n      slt\n        /* \"#utility.yul\":5765:5884   */\n      iszero\n      tag_342\n      jumpi\n        /* \"#utility.yul\":5803:5882   */\n      tag_343\n      tag_226\n      jump\t// in\n    tag_343:\n        /* \"#utility.yul\":5765:5884   */\n    tag_342:\n        /* \"#utility.yul\":5923:5924   */\n      0x00\n        /* \"#utility.yul\":5948:6014   */\n      tag_344\n        /* \"#utility.yul\":6006:6013   */\n      dup5\n        /* \"#utility.yul\":5997:6003   */\n      dup3\n        /* \"#utility.yul\":5986:5995   */\n      dup6\n        /* \"#utility.yul\":5982:6004   */\n      add\n        /* \"#utility.yul\":5948:6014   */\n      tag_242\n      jump\t// in\n    tag_344:\n        /* \"#utility.yul\":5938:6014   */\n      swap2\n      pop\n        /* \"#utility.yul\":5894:6024   */\n      pop\n        /* \"#utility.yul\":5676:6031   */\n      swap3\n      swap2\n      pop\n      pop\n      jump\t// out\n        /* \"#utility.yul\":6037:6511   */\n    tag_97:\n        /* \"#utility.yul\":6105:6111   */\n      0x00\n        /* \"#utility.yul\":6113:6119   */\n      dup1\n        /* \"#utility.yul\":6162:6164   */\n      0x40\n        /* \"#utility.yul\":6150:6159   */\n      dup4\n        /* \"#utility.yul\":6141:6148   */\n      dup6\n        /* \"#utility.yul\":6137:6160   */\n      sub\n        /* \"#utility.yul\":6133:6165   */\n      slt\n        /* \"#utility.yul\":6130:6249   */\n      iszero\n      tag_346\n      jumpi\n        /* \"#utility.yul\":6168:6247   */\n      tag_347\n      tag_226\n      jump\t// in\n    tag_347:\n        /* \"#utility.yul\":6130:6249   */\n    tag_346:\n        /* \"#utility.yul\":6288:6289   */\n      0x00\n        /* \"#utility.yul\":6313:6366   */\n      tag_348\n        /* \"#utility.yul\":6358:6365   */\n      dup6\n        /* \"#utility.yul\":6349:6355   */\n      dup3\n        /* \"#utility.yul\":6338:6347   */\n      dup7\n        /* \"#utility.yul\":6334:6356   */\n      add\n        /* \"#utility.yul\":6313:6366   */\n      tag_231\n      jump\t// in\n    tag_348:\n        /* \"#utility.yul\":6303:6366   */\n      swap3\n      pop\n        /* \"#utility.yul\":6259:6376   */\n      pop\n        /* \"#utility.yul\":6415:6417   */\n      0x20\n        /* \"#utility.yul\":6441:6494   */\n      tag_349\n        /* \"#utility.yul\":6486:6493   */\n      dup6\n        /* \"#utility.yul\":6477:6483   */\n      dup3\n        /* \"#utility.yul\":6466:6475   */\n      dup7\n        /* \"#utility.yul\":6462:6484   */\n      add\n        /* \"#utility.yul\":6441:6494   */\n      tag_231\n      jump\t// in\n    tag_349:\n        /* \"#utility.yul\":6431:6494   */\n      swap2\n      pop\n        /* \"#utility.yul\":6386:6504   */\n      pop\n        /* \"#utility.yul\":6037:6511   */\n      swap3\n      pop\n      swap3\n      swap1\n      pop\n      jump\t// out\n        /* \"#utility.yul\":6517:6621   */\n    tag_243:\n        /* \"#utility.yul\":6562:6569   */\n      0x00\n        /* \"#utility.yul\":6591:6615   */\n      tag_351\n        /* \"#utility.yul\":6609:6614   */\n      dup3\n        /* \"#utility.yul\":6591:6615   */\n      tag_228\n      jump\t// in\n    tag_351:\n        /* \"#utility.yul\":6580:6615   */\n      swap1\n      pop\n        /* \"#utility.yul\":6517:6621   */\n      swap2\n      swap1\n      pop\n      jump\t// out\n        /* \"#utility.yul\":6627:6769   */\n    tag_244:\n        /* \"#utility.yul\":6730:6762   */\n      tag_353\n        /* \"#utility.yul\":6756:6761   */\n      dup2\n        /* \"#utility.yul\":6730:6762   */\n      tag_243\n      jump\t// in\n    tag_353:\n        /* \"#utility.yul\":6725:6728   */\n      dup3\n        /* \"#utility.yul\":6718:6763   */\n      mstore\n        /* \"#utility.yul\":6627:6769   */\n      pop\n      pop\n      jump\t// out\n        /* \"#utility.yul\":6775:7029   */\n    tag_104:\n        /* \"#utility.yul\":6884:6888   */\n      0x00\n        /* \"#utility.yul\":6922:6924   */\n      0x20\n        /* \"#utility.yul\":6911:6920   */\n      dup3\n        /* \"#utility.yul\":6907:6925   */\n      add\n        /* \"#utility.yul\":6899:6925   */\n      swap1\n      pop\n        /* \"#utility.yul\":6935:7022   */\n      tag_355\n        /* \"#utility.yul\":7019:7020   */\n      0x00\n        /* \"#utility.yul\":7008:7017   */\n      dup4\n        /* \"#utility.yul\":7004:7021   */\n      add\n        /* \"#utility.yul\":6995:7001   */\n      dup5\n        /* \"#utility.yul\":6935:7022   */\n      tag_244\n      jump\t// in\n    tag_355:\n        /* \"#utility.yul\":6775:7029   */\n      swap3\n      swap2\n      pop\n      pop\n      jump\t// out\n        /* \"#utility.yul\":7035:7215   */\n    tag_245:\n        /* \"#utility.yul\":7083:7160   */\n      0x4e487b7100000000000000000000000000000000000000000000000000000000\n        /* \"#utility.yul\":7080:7081   */\n      0x00\n        /* \"#utility.yul\":7073:7161   */\n      mstore\n        /* \"#utility.yul\":7180:7184   */\n      0x22\n        /* \"#utility.yul\":7177:7178   */\n      0x04\n        /* \"#utility.yul\":7170:7185   */\n      mstore\n        /* \"#utility.yul\":7204:7208   */\n      0x24\n        /* \"#utility.yul\":7201:7202   */\n      0x00\n        /* \"#utility.yul\":7194:7209   */\n      revert\n        /* \"#utility.yul\":7221:7541   */\n    tag_107:\n        /* \"#utility.yul\":7265:7271   */\n      0x00\n        /* \"#utility.yul\":7302:7303   */\n      0x02\n        /* \"#utility.yul\":7296:7300   */\n      dup3\n        /* \"#utility.yul\":7292:7304   */\n      div\n        /* \"#utility.yul\":7282:7304   */\n      swap1\n      pop\n        /* \"#utility.yul\":7349:7350   */\n      0x01\n        /* \"#utility.yul\":7343:7347   */\n      dup3\n        /* \"#utility.yul\":7339:7351   */\n      and\n        /* \"#utility.yul\":7370:7388   */\n      dup1\n        /* \"#utility.yul\":7360:7441   */\n      tag_358\n      jumpi\n        /* \"#utility.yul\":7426:7430   */\n      0x7f\n        /* \"#utility.yul\":7418:7424   */\n      dup3\n        /* \"#utility.yul\":7414:7431   */\n      and\n        /* \"#utility.yul\":7404:7431   */\n      swap2\n      pop\n        /* \"#utility.yul\":7360:7441   */\n    tag_358:\n        /* \"#utility.yul\":7488:7490   */\n      0x20\n        /* \"#utility.yul\":7480:7486   */\n      dup3\n        /* \"#utility.yul\":7477:7491   */\n      lt\n        /* \"#utility.yul\":7457:7475   */\n      dup2\n        /* \"#utility.yul\":7454:7492   */\n      sub\n        /* \"#utility.yul\":7451:7535   */\n      tag_359\n      jumpi\n        /* \"#utility.yul\":7507:7525   */\n      tag_360\n      tag_245\n      jump\t// in\n    tag_360:\n        /* \"#utility.yul\":7451:7535   */\n    tag_359:\n        /* \"#utility.yul\":7272:7541   */\n      pop\n        /* \"#utility.yul\":7221:7541   */\n      swap2\n      swap1\n      pop\n      jump\t// out\n        /* \"#utility.yul\":7547:7727   */\n    tag_246:\n        /* \"#utility.yul\":7595:7672   */\n      0x4e487b7100000000000000000000000000000000000000000000000000000000\n        /* \"#utility.yul\":7592:7593   */\n      0x00\n        /* \"#utility.yul\":7585:7673   */\n      mstore\n        /* \"#utility.yul\":7692:7696   */\n      0x11\n        /* \"#utility.yul\":7689:7690   */\n      0x04\n        /* \"#utility.yul\":7682:7697   */\n      mstore\n        /* \"#utility.yul\":7716:7720   */\n      0x24\n        /* \"#utility.yul\":7713:7714   */\n      0x00\n        /* \"#utility.yul\":7706:7721   */\n      revert\n        /* \"#utility.yul\":7733:8038   */\n    tag_125:\n        /* \"#utility.yul\":7773:7776   */\n      0x00\n        /* \"#utility.yul\":7792:7812   */\n      tag_363\n        /* \"#utility.yul\":7810:7811   */\n      dup3\n        /* \"#utility.yul\":7792:7812   */\n      tag_232\n      jump\t// in\n    tag_363:\n        /* \"#utility.yul\":7787:7812   */\n      swap2\n      pop\n        /* \"#utility.yul\":7826:7846   */\n      tag_364\n        /* \"#utility.yul\":7844:7845   */\n      dup4\n        /* \"#utility.yul\":7826:7846   */\n      tag_232\n      jump\t// in\n    tag_364:\n        /* \"#utility.yul\":7821:7846   */\n      swap3\n      pop\n        /* \"#utility.yul\":7980:7981   */\n      dup3\n        /* \"#utility.yul\":7912:7978   */\n      0xffffffffffffffffffffffffffffffffffffffffffffffffffffffffffffffff\n        /* \"#utility.yul\":7908:7982   */\n      sub\n        /* \"#utility.yul\":7905:7906   */\n      dup3\n        /* \"#utility.yul\":7902:7983   */\n      gt\n        /* \"#utility.yul\":7899:8006   */\n      iszero\n      tag_365\n      jumpi\n        /* \"#utility.yul\":7986:8004   */\n      tag_366\n      tag_246\n      jump\t// in\n    tag_366:\n        /* \"#utility.yul\":7899:8006   */\n    tag_365:\n        /* \"#utility.yul\":8030:8031   */\n      dup3\n        /* \"#utility.yul\":8027:8028   */\n      dup3\n        /* \"#utility.yul\":8023:8032   */\n      add\n        /* \"#utility.yul\":8016:8032   */\n      swap1\n      pop\n        /* \"#utility.yul\":7733:8038   */\n      swap3\n      swap2\n      pop\n      pop\n      jump\t// out\n        /* \"#utility.yul\":8044:8202   */\n    tag_247:\n        /* \"#utility.yul\":8184:8194   */\n      0x6e6f2061646d696e000000000000000000000000000000000000000000000000\n        /* \"#utility.yul\":8180:8181   */\n      0x00\n        /* \"#utility.yul\":8172:8178   */\n      dup3\n        /* \"#utility.yul\":8168:8182   */\n      add\n        /* \"#utility.yul\":8161:8195   */\n      mstore\n        /* \"#utility.yul\":8044:8202   */\n      pop\n      jump\t// out\n        /* \"#utility.yul\":8208:8573   */\n    tag_248:\n        /* \"#utility.yul\":8350:8353   */\n      0x00\n        /* \"#utility.yul\":8371:8437   */\n      tag_369\n        /* \"#utility.yul\":8435:8436   */\n      0x08\n        /* \"#utility.yul\":8430:8433   */\n      dup4\n        /* \"#utility.yul\":8371:8437   */\n      tag_221\n      jump\t// in\n    tag_369:\n        /* \"#utility.yul\":8364:8437   */\n      swap2\n      pop\n        /* \"#utility.yul\":8446:8539   */\n      tag_370\n        /* \"#utility.yul\":8535:8538   */\n      dup3\n        /* \"#utility.yul\":8446:8539   */\n      tag_247\n      jump\t// in\n    tag_370:\n        /* \"#utility.yul\":8564:8566   */\n      0x20\n        /* \"#utility.yul\":8559:8562   */\n      dup3\n        /* \"#utility.yul\":8555:8567   */\n      add\n        /* \"#utility.yul\":8548:8567   */\n      swap1\n      pop\n        /* \"#utility.yul\":8208:8573   */\n      swap2\n      swap1\n      pop\n      jump\t// out\n        /* \"#utility.yul\":8579:8998   */\n    tag_129:\n        /* \"#utility.yul\":8745:8749   */\n      0x00\n        /* \"#utility.yul\":8783:8785   */\n      0x20\n        /* \"#utility.yul\":8772:8781   */\n      dup3\n        /* \"#utility.yul\":8768:8786   */\n      add\n        /* \"#utility.yul\":8760:8786   */\n      swap1\n      pop\n        /* \"#utility.yul\":8832:8841   */\n      dup2\n        /* \"#utility.yul\":8826:8830   */\n      dup2\n        /* \"#utility.yul\":8822:8842   */\n      sub\n        /* \"#utility.yul\":8818:8819   */\n      0x00\n        /* \"#utility.yul\":8807:8816   */\n      dup4\n        /* \"#utility.yul\":8803:8820   */\n      add\n        /* \"#utility.yul\":8796:8843   */\n      mstore\n        /* \"#utility.yul\":8860:8991   */\n      tag_372\n        /* \"#utility.yul\":8986:8990   */\n      dup2\n        /* \"#utility.yul\":8860:8991   */\n      tag_248\n      jump\t// in\n    tag_372:\n        /* \"#utility.yul\":8852:8991   */\n      swap1\n      pop\n        /* \"#utility.yul\":8579:8998   */\n      swap2\n      swap1\n      pop\n      jump\t// out\n        /* \"#utility.yul\":9004:9106   */\n    tag_249:\n        /* \"#utility.yul\":9046:9054   */\n      0x00\n        /* \"#utility.yul\":9093:9098   */\n      dup2\n        /* \"#utility.yul\":9090:9091   */\n      0x01\n        /* \"#utility.yul\":9086:9099   */\n      shr\n        /* \"#utility.yul\":9065:9099   */\n      swap1\n      pop\n        /* \"#utility.yul\":9004:9106   */\n      swap2\n      swap1\n      pop\n      jump\t// out\n        /* \"#utility.yul\":9112:9960   */\n    tag_250:\n        /* \"#utility.yul\":9173:9178   */\n      0x00\n        /* \"#utility.yul\":9180:9184   */\n      dup1\n        /* \"#utility.yul\":9204:9210   */\n      dup3\n        /* \"#utility.yul\":9195:9210   */\n      swap2\n      pop\n        /* \"#utility.yul\":9228:9233   */\n      dup4\n        /* \"#utility.yul\":9219:9233   */\n      swap1\n      pop\n        /* \"#utility.yul\":9242:9954   */\n    tag_375:\n        /* \"#utility.yul\":9263:9264   */\n      0x01\n        /* \"#utility.yul\":9253:9261   */\n      dup6\n        /* \"#utility.yul\":9250:9265   */\n      gt\n        /* \"#utility.yul\":9242:9954   */\n      iszero\n      tag_377\n      jumpi\n        /* \"#utility.yul\":9358:9362   */\n      dup1\n        /* \"#utility.yul\":9353:9356   */\n      dup7\n        /* \"#utility.yul\":9349:9363   */\n      div\n        /* \"#utility.yul\":9343:9347   */\n      dup2\n        /* \"#utility.yul\":9340:9364   */\n      gt\n        /* \"#utility.yul\":9337:9387   */\n      iszero\n      tag_378\n      jumpi\n        /* \"#utility.yul\":9367:9385   */\n      tag_379\n      tag_246\n      jump\t// in\n    tag_379:\n        /* \"#utility.yul\":9337:9387   */\n    tag_378:\n        /* \"#utility.yul\":9417:9418   */\n      0x01\n        /* \"#utility.yul\":9407:9415   */\n      dup6\n        /* \"#utility.yul\":9403:9419   */\n      and\n        /* \"#utility.yul\":9400:9851   */\n      iszero\n      tag_380\n      jumpi\n        /* \"#utility.yul\":9832:9836   */\n      dup1\n        /* \"#utility.yul\":9825:9830   */\n      dup3\n        /* \"#utility.yul\":9821:9837   */\n      mul\n        /* \"#utility.yul\":9812:9837   */\n      swap2\n      pop\n        /* \"#utility.yul\":9400:9851   */\n    tag_380:\n        /* \"#utility.yul\":9882:9886   */\n      dup1\n        /* \"#utility.yul\":9876:9880   */\n      dup2\n        /* \"#utility.yul\":9872:9887   */\n      mul\n        /* \"#utility.yul\":9864:9887   */\n      swap1\n      pop\n        /* \"#utility.yul\":9912:9944   */\n      tag_381\n        /* \"#utility.yul\":9935:9943   */\n      dup6\n        /* \"#utility.yul\":9912:9944   */\n      tag_249\n      jump\t// in\n    tag_381:\n        /* \"#utility.yul\":9900:9944   */\n      swap5\n      pop\n        /* \"#utility.yul\":9242:9954   */\n      jump(tag_375)\n    tag_377:\n        /* \"#utility.yul\":9112:9960   */\n      swap5\n      pop\n      swap5\n      swap3\n      pop\n      pop\n      pop\n      jump\t// out\n        /* \"#utility.yul\":9966:11039   */\n    tag_251:\n        /* \"#utility.yul\":10020:10025   */\n      0x00\n        /* \"#utility.yul\":10211:10219   */\n      dup3\n        /* \"#utility.yul\":10201:10241   */\n      tag_383\n      jumpi\n        /* \"#utility.yul\":10232:10233   */\n      0x01\n        /* \"#utility.yul\":10223:10233   */\n      swap1\n      pop\n        /* \"#utility.yul\":10234:10239   */\n      jump(tag_382)\n        /* \"#utility.yul\":10201:10241   */\n    tag_383:\n        /* \"#utility.yul\":10260:10264   */\n      dup2\n        /* \"#utility.yul\":10250:10286   */\n      tag_384\n      jumpi\n        /* \"#utility.yul\":10277:10278   */\n      0x00\n        /* \"#utility.yul\":10268:10278   */\n      swap1\n      pop\n        /* \"#utility.yul\":10279:10284   */\n      jump(tag_382)\n        /* \"#utility.yul\":10250:10286   */\n    tag_384:\n        /* \"#utility.yul\":10346:10350   */\n      dup2\n        /* \"#utility.yul\":10394:10395   */\n      0x01\n        /* \"#utility.yul\":10389:10416   */\n      dup2\n      eq\n      tag_386\n      jumpi\n        /* \"#utility.yul\":10430:10431   */\n      0x02\n        /* \"#utility.yul\":10425:10616   */\n      dup2\n      eq\n      tag_387\n      jumpi\n        /* \"#utility.yul\":10339:10616   */\n      jump(tag_385)\n        /* \"#utility.yul\":10389:10416   */\n    tag_386:\n        /* \"#utility.yul\":10407:10408   */\n      0x01\n        /* \"#utility.yul\":10398:10408   */\n      swap2\n      pop\n        /* \"#utility.yul\":10409:10414   */\n      pop\n      jump(tag_382)\n        /* \"#utility.yul\":10425:10616   */\n    tag_387:\n        /* \"#utility.yul\":10470:10473   */\n      0xff\n        /* \"#utility.yul\":10460:10468   */\n      dup5\n        /* \"#utility.yul\":10457:10474   */\n      gt\n        /* \"#utility.yul\":10454:10497   */\n      iszero\n      tag_388\n      jumpi\n        /* \"#utility.yul\":10477:10495   */\n      tag_389\n      tag_246\n      jump\t// in\n    tag_389:\n        /* \"#utility.yul\":10454:10497   */\n    tag_388:\n        /* \"#utility.yul\":10526:10534   */\n      dup4\n        /* \"#utility.yul\":10523:10524   */\n      0x02\n        /* \"#utility.yul\":10519:10535   */\n      exp\n        /* \"#utility.yul\":10510:10535   */\n      swap2\n      pop\n        /* \"#utility.yul\":10561:10564   */\n      dup5\n        /* \"#utility.yul\":10554:10559   */\n      dup3\n        /* \"#utility.yul\":10551:10565   */\n      gt\n        /* \"#utility.yul\":10548:10588   */\n      iszero\n      tag_390\n      jumpi\n        /* \"#utility.yul\":10568:10586   */\n      tag_391\n      tag_246\n      jump\t// in\n    tag_391:\n        /* \"#utility.yul\":10548:10588   */\n    tag_390:\n        /* \"#utility.yul\":10601:10606   */\n      pop\n      jump(tag_382)\n        /* \"#utility.yul\":10339:10616   */\n    tag_385:\n      pop\n        /* \"#utility.yul\":10725:10727   */\n      0x20\n        /* \"#utility.yul\":10715:10723   */\n      dup4\n        /* \"#utility.yul\":10712:10728   */\n      lt\n        /* \"#utility.yul\":10706:10709   */\n      0x0133\n        /* \"#utility.yul\":10700:10704   */\n      dup4\n        /* \"#utility.yul\":10697:10710   */\n      lt\n        /* \"#utility.yul\":10693:10729   */\n      and\n        /* \"#utility.yul\":10675:10677   */\n      0x4e\n        /* \"#utility.yul\":10665:10673   */\n      dup5\n        /* \"#utility.yul\":10662:10678   */\n      lt\n        /* \"#utility.yul\":10657:10659   */\n      0x0b\n        /* \"#utility.yul\":10651:10655   */\n      dup5\n        /* \"#utility.yul\":10648:10660   */\n      lt\n        /* \"#utility.yul\":10644:10679   */\n      and\n        /* \"#utility.yul\":10628:10739   */\n      or\n        /* \"#utility.yul\":10625:10871   */\n      iszero\n      tag_392\n      jumpi\n        /* \"#utility.yul\":10781:10789   */\n      dup3\n        /* \"#utility.yul\":10775:10779   */\n      dup3\n        /* \"#utility.yul\":10771:10790   */\n      exp\n        /* \"#utility.yul\":10762:10790   */\n      swap1\n      pop\n        /* \"#utility.yul\":10816:10819   */\n      dup4\n        /* \"#utility.yul\":10809:10814   */\n      dup2\n        /* \"#utility.yul\":10806:10820   */\n      gt\n        /* \"#utility.yul\":10803:10843   */\n      iszero\n      tag_393\n      jumpi\n        /* \"#utility.yul\":10823:10841   */\n      tag_394\n      tag_246\n      jump\t// in\n    tag_394:\n        /* \"#utility.yul\":10803:10843   */\n    tag_393:\n        /* \"#utility.yul\":10856:10861   */\n      jump(tag_382)\n        /* \"#utility.yul\":10625:10871   */\n    tag_392:\n        /* \"#utility.yul\":10896:10938   */\n      tag_395\n        /* \"#utility.yul\":10934:10937   */\n      dup5\n        /* \"#utility.yul\":10924:10932   */\n      dup5\n        /* \"#utility.yul\":10918:10922   */\n      dup5\n        /* \"#utility.yul\":10915:10916   */\n      0x01\n        /* \"#utility.yul\":10896:10938   */\n      tag_250\n      jump\t// in\n    tag_395:\n        /* \"#utility.yul\":10881:10938   */\n      swap3\n      pop\n      swap1\n      pop\n        /* \"#utility.yul\":10970:10974   */\n      dup2\n        /* \"#utility.yul\":10965:10968   */\n      dup5\n        /* \"#utility.yul\":10961:10975   */\n      div\n        /* \"#utility.yul\":10954:10959   */\n      dup2\n        /* \"#utility.yul\":10951:10976   */\n      gt\n        /* \"#utility.yul\":10948:10999   */\n      iszero\n      tag_396\n      jumpi\n        /* \"#utility.yul\":10979:10997   */\n      tag_397\n      tag_246\n      jump\t// in\n    tag_397:\n        /* \"#utility.yul\":10948:10999   */\n    tag_396:\n        /* \"#utility.yul\":11028:11032   */\n      dup2\n        /* \"#utility.yul\":11021:11026   */\n      dup2\n        /* \"#utility.yul\":11017:11033   */\n      mul\n        /* \"#utility.yul\":11008:11033   */\n      swap1\n      pop\n        /* \"#utility.yul\":9966:11039   */\n    tag_382:\n      swap4\n      swap3\n      pop\n      pop\n      pop\n      jump\t// out\n        /* \"#utility.yul\":11045:11326   */\n    tag_143:\n        /* \"#utility.yul\":11103:11108   */\n      0x00\n        /* \"#utility.yul\":11127:11150   */\n      tag_399\n        /* \"#utility.yul\":11145:11149   */\n      dup3\n        /* \"#utility.yul\":11127:11150   */\n      tag_232\n      jump\t// in\n    tag_399:\n        /* \"#utility.yul\":11119:11150   */\n      swap2\n      pop\n        /* \"#utility.yul\":11171:11196   */\n      tag_400\n        /* \"#utility.yul\":11187:11195   */\n      dup4\n        /* \"#utility.yul\":11171:11196   */\n      tag_238\n      jump\t// in\n    tag_400:\n        /* \"#utility.yul\":11159:11196   */\n      swap3\n      pop\n        /* \"#utility.yul\":11215:11319   */\n      tag_401\n        /* \"#utility.yul\":11252:11318   */\n      0xffffffffffffffffffffffffffffffffffffffffffffffffffffffffffffffff\n        /* \"#utility.yul\":11242:11250   */\n      dup5\n        /* \"#utility.yul\":11236:11240   */\n      dup5\n        /* \"#utility.yul\":11215:11319   */\n      tag_251\n      jump\t// in\n    tag_401:\n        /* \"#utility.yul\":11206:11319   */\n      swap1\n      pop\n        /* \"#utility.yul\":11045:11326   */\n      swap3\n      swap2\n      pop\n      pop\n      jump\t// out\n        /* \"#utility.yul\":11332:11680   */\n    tag_145:\n        /* \"#utility.yul\":11372:11379   */\n      0x00\n        /* \"#utility.yul\":11395:11415   */\n      tag_403\n        /* \"#utility.yul\":11413:11414   */\n      dup3\n        /* \"#utility.yul\":11395:11415   */\n      tag_232\n      jump\t// in\n    tag_403:\n        /* \"#utility.yul\":11390:11415   */\n      swap2\n      pop\n        /* \"#utility.yul\":11429:11449   */\n      tag_404\n        /* \"#utility.yul\":11447:11448   */\n      dup4\n        /* \"#utility.yul\":11429:11449   */\n      tag_232\n      jump\t// in\n    tag_404:\n        /* \"#utility.yul\":11424:11449   */\n      swap3\n      pop\n        /* \"#utility.yul\":11617:11618   */\n      dup2\n        /* \"#utility.yul\":11549:11615   */\n      0xffffffffffffffffffffffffffffffffffffffffffffffffffffffffffffffff\n        /* \"#utility.yul\":11545:11619   */\n      div\n        /* \"#utility.yul\":11542:11543   */\n      dup4\n        /* \"#utility.yul\":11539:11620   */\n      gt\n        /* \"#utility.yul\":11534:11535   */\n      dup3\n        /* \"#utility.yul\":11527:11536   */\n      iszero\n        /* \"#utility.yul\":11520:11537   */\n      iszero\n        /* \"#utility.yul\":11516:11621   */\n      and\n        /* \"#utility.yul\":11513:11644   */\n      iszero\n      tag_405\n      jumpi\n        /* \"#utility.yul\":11624:11642   */\n      tag_406\n      tag_246\n      jump\t// in\n    tag_406:\n        /* \"#utility.yul\":11513:11644   */\n    tag_405:\n        /* \"#utility.yul\":11672:11673   */\n      dup3\n        /* \"#utility.yul\":11669:11670   */\n      dup3\n        /* \"#utility.yul\":11665:11674   */\n      mul\n        /* \"#utility.yul\":11654:11674   */\n      swap1\n      pop\n        /* \"#utility.yul\":11332:11680   */\n      swap3\n      swap2\n      pop\n      pop\n      jump\t// out\n        /* \"#utility.yul\":11686:11804   */\n    tag_252:\n        /* \"#utility.yul\":11773:11797   */\n      tag_408\n        /* \"#utility.yul\":11791:11796   */\n      dup2\n        /* \"#utility.yul\":11773:11797   */\n      tag_229\n      jump\t// in\n    tag_408:\n        /* \"#utility.yul\":11768:11771   */\n      dup3\n        /* \"#utility.yul\":11761:11798   */\n      mstore\n        /* \"#utility.yul\":11686:11804   */\n      pop\n      pop\n      jump\t// out\n        /* \"#utility.yul\":11810:12032   */\n    tag_153:\n        /* \"#utility.yul\":11903:11907   */\n      0x00\n        /* \"#utility.yul\":11941:11943   */\n      0x20\n        /* \"#utility.yul\":11930:11939   */\n      dup3\n        /* \"#utility.yul\":11926:11944   */\n      add\n        /* \"#utility.yul\":11918:11944   */\n      swap1\n      pop\n        /* \"#utility.yul\":11954:12025   */\n      tag_410\n        /* \"#utility.yul\":12022:12023   */\n      0x00\n        /* \"#utility.yul\":12011:12020   */\n      dup4\n        /* \"#utility.yul\":12007:12024   */\n      add\n        /* \"#utility.yul\":11998:12004   */\n      dup5\n        /* \"#utility.yul\":11954:12025   */\n      tag_252\n      jump\t// in\n    tag_410:\n        /* \"#utility.yul\":11810:12032   */\n      swap3\n      swap2\n      pop\n      pop\n      jump\t// out\n        /* \"#utility.yul\":12038:12181   */\n    tag_253:\n        /* \"#utility.yul\":12095:12100   */\n      0x00\n        /* \"#utility.yul\":12126:12132   */\n      dup2\n        /* \"#utility.yul\":12120:12133   */\n      mload\n        /* \"#utility.yul\":12111:12133   */\n      swap1\n      pop\n        /* \"#utility.yul\":12142:12175   */\n      tag_412\n        /* \"#utility.yul\":12169:12174   */\n      dup2\n        /* \"#utility.yul\":12142:12175   */\n      tag_233\n      jump\t// in\n    tag_412:\n        /* \"#utility.yul\":12038:12181   */\n      swap3\n      swap2\n      pop\n      pop\n      jump\t// out\n        /* \"#utility.yul\":12187:12538   */\n    tag_157:\n        /* \"#utility.yul\":12257:12263   */\n      0x00\n        /* \"#utility.yul\":12306:12308   */\n      0x20\n        /* \"#utility.yul\":12294:12303   */\n      dup3\n        /* \"#utility.yul\":12285:12292   */\n      dup5\n        /* \"#utility.yul\":12281:12304   */\n      sub\n        /* \"#utility.yul\":12277:12309   */\n      slt\n        /* \"#utility.yul\":12274:12393   */\n      iszero\n      tag_414\n      jumpi\n        /* \"#utility.yul\":12312:12391   */\n      tag_415\n      tag_226\n      jump\t// in\n    tag_415:\n        /* \"#utility.yul\":12274:12393   */\n    tag_414:\n        /* \"#utility.yul\":12432:12433   */\n      0x00\n        /* \"#utility.yul\":12457:12521   */\n      tag_416\n        /* \"#utility.yul\":12513:12520   */\n      dup5\n        /* \"#utility.yul\":12504:12510   */\n      dup3\n        /* \"#utility.yul\":12493:12502   */\n      dup6\n        /* \"#utility.yul\":12489:12511   */\n      add\n        /* \"#utility.yul\":12457:12521   */\n      tag_253\n      jump\t// in\n    tag_416:\n        /* \"#utility.yul\":12447:12521   */\n      swap2\n      pop\n        /* \"#utility.yul\":12403:12531   */\n      pop\n        /* \"#utility.yul\":12187:12538   */\n      swap3\n      swap2\n      pop\n      pop\n      jump\t// out\n        /* \"#utility.yul\":12544:12876   */\n    tag_159:\n        /* \"#utility.yul\":12665:12669   */\n      0x00\n        /* \"#utility.yul\":12703:12705   */\n      0x40\n        /* \"#utility.yul\":12692:12701   */\n      dup3\n        /* \"#utility.yul\":12688:12706   */\n      add\n        /* \"#utility.yul\":12680:12706   */\n      swap1\n      pop\n        /* \"#utility.yul\":12716:12787   */\n      tag_418\n        /* \"#utility.yul\":12784:12785   */\n      0x00\n        /* \"#utility.yul\":12773:12782   */\n      dup4\n        /* \"#utility.yul\":12769:12786   */\n      add\n        /* \"#utility.yul\":12760:12766   */\n      dup6\n        /* \"#utility.yul\":12716:12787   */\n      tag_252\n      jump\t// in\n    tag_418:\n        /* \"#utility.yul\":12797:12869   */\n      tag_419\n        /* \"#utility.yul\":12865:12867   */\n      0x20\n        /* \"#utility.yul\":12854:12863   */\n      dup4\n        /* \"#utility.yul\":12850:12868   */\n      add\n        /* \"#utility.yul\":12841:12847   */\n      dup5\n        /* \"#utility.yul\":12797:12869   */\n      tag_237\n      jump\t// in\n    tag_419:\n        /* \"#utility.yul\":12544:12876   */\n      swap4\n      swap3\n      pop\n      pop\n      pop\n      jump\t// out\n        /* \"#utility.yul\":12882:12998   */\n    tag_254:\n        /* \"#utility.yul\":12952:12973   */\n      tag_421\n        /* \"#utility.yul\":12967:12972   */\n      dup2\n        /* \"#utility.yul\":12952:12973   */\n      tag_235\n      jump\t// in\n    tag_421:\n        /* \"#utility.yul\":12945:12950   */\n      dup2\n        /* \"#utility.yul\":12942:12974   */\n      eq\n        /* \"#utility.yul\":12932:12992   */\n      tag_422\n      jumpi\n        /* \"#utility.yul\":12988:12989   */\n      0x00\n        /* \"#utility.yul\":12985:12986   */\n      dup1\n        /* \"#utility.yul\":12978:12990   */\n      revert\n        /* \"#utility.yul\":12932:12992   */\n    tag_422:\n        /* \"#utility.yul\":12882:12998   */\n      pop\n      jump\t// out\n        /* \"#utility.yul\":13004:13141   */\n    tag_255:\n        /* \"#utility.yul\":13058:13063   */\n      0x00\n        /* \"#utility.yul\":13089:13095   */\n      dup2\n        /* \"#utility.yul\":13083:13096   */\n      mload\n        /* \"#utility.yul\":13074:13096   */\n      swap1\n      pop\n        /* \"#utility.yul\":13105:13135   */\n      tag_424\n        /* \"#utility.yul\":13129:13134   */\n      dup2\n        /* \"#utility.yul\":13105:13135   */\n      tag_254\n      jump\t// in\n    tag_424:\n        /* \"#utility.yul\":13004:13141   */\n      swap3\n      swap2\n      pop\n      pop\n      jump\t// out\n        /* \"#utility.yul\":13147:13492   */\n    tag_163:\n        /* \"#utility.yul\":13214:13220   */\n      0x00\n        /* \"#utility.yul\":13263:13265   */\n      0x20\n        /* \"#utility.yul\":13251:13260   */\n      dup3\n        /* \"#utility.yul\":13242:13249   */\n      dup5\n        /* \"#utility.yul\":13238:13261   */\n      sub\n        /* \"#utility.yul\":13234:13266   */\n      slt\n        /* \"#utility.yul\":13231:13350   */\n      iszero\n      tag_426\n      jumpi\n        /* \"#utility.yul\":13269:13348   */\n      tag_427\n      tag_226\n      jump\t// in\n    tag_427:\n        /* \"#utility.yul\":13231:13350   */\n    tag_426:\n        /* \"#utility.yul\":13389:13390   */\n      0x00\n        /* \"#utility.yul\":13414:13475   */\n      tag_428\n        /* \"#utility.yul\":13467:13474   */\n      dup5\n        /* \"#utility.yul\":13458:13464   */\n      dup3\n        /* \"#utility.yul\":13447:13456   */\n      dup6\n        /* \"#utility.yul\":13443:13465   */\n      add\n        /* \"#utility.yul\":13414:13475   */\n      tag_255\n      jump\t// in\n    tag_428:\n        /* \"#utility.yul\":13404:13475   */\n      swap2\n      pop\n        /* \"#utility.yul\":13360:13485   */\n      pop\n        /* \"#utility.yul\":13147:13492   */\n      swap3\n      swap2\n      pop\n      pop\n      jump\t// out\n        /* \"#utility.yul\":13498:13722   */\n    tag_256:\n        /* \"#utility.yul\":13638:13672   */\n      0x45524332303a2064656372656173656420616c6c6f77616e63652062656c6f77\n        /* \"#utility.yul\":13634:13635   */\n      0x00\n        /* \"#utility.yul\":13626:13632   */\n      dup3\n        /* \"#utility.yul\":13622:13636   */\n      add\n        /* \"#utility.yul\":13615:13673   */\n      mstore\n        /* \"#utility.yul\":13707:13714   */\n      0x207a65726f000000000000000000000000000000000000000000000000000000\n        /* \"#utility.yul\":13702:13704   */\n      0x20\n        /* \"#utility.yul\":13694:13700   */\n      dup3\n        /* \"#utility.yul\":13690:13705   */\n      add\n        /* \"#utility.yul\":13683:13715   */\n      mstore\n        /* \"#utility.yul\":13498:13722   */\n      pop\n      jump\t// out\n        /* \"#utility.yul\":13728:14094   */\n    tag_257:\n        /* \"#utility.yul\":13870:13873   */\n      0x00\n        /* \"#utility.yul\":13891:13958   */\n      tag_431\n        /* \"#utility.yul\":13955:13957   */\n      0x25\n        /* \"#utility.yul\":13950:13953   */\n      dup4\n        /* \"#utility.yul\":13891:13958   */\n      tag_221\n      jump\t// in\n    tag_431:\n        /* \"#utility.yul\":13884:13958   */\n      swap2\n      pop\n        /* \"#utility.yul\":13967:14060   */\n      tag_432\n        /* \"#utility.yul\":14056:14059   */\n      dup3\n        /* \"#utility.yul\":13967:14060   */\n      tag_256\n      jump\t// in\n    tag_432:\n        /* \"#utility.yul\":14085:14087   */\n      0x40\n        /* \"#utility.yul\":14080:14083   */\n      dup3\n        /* \"#utility.yul\":14076:14088   */\n      add\n        /* \"#utility.yul\":14069:14088   */\n      swap1\n      pop\n        /* \"#utility.yul\":13728:14094   */\n      swap2\n      swap1\n      pop\n      jump\t// out\n        /* \"#utility.yul\":14100:14519   */\n    tag_173:\n        /* \"#utility.yul\":14266:14270   */\n      0x00\n        /* \"#utility.yul\":14304:14306   */\n      0x20\n        /* \"#utility.yul\":14293:14302   */\n      dup3\n        /* \"#utility.yul\":14289:14307   */\n      add\n        /* \"#utility.yul\":14281:14307   */\n      swap1\n      pop\n        /* \"#utility.yul\":14353:14362   */\n      dup2\n        /* \"#utility.yul\":14347:14351   */\n      dup2\n        /* \"#utility.yul\":14343:14363   */\n      sub\n        /* \"#utility.yul\":14339:14340   */\n      0x00\n        /* \"#utility.yul\":14328:14337   */\n      dup4\n        /* \"#utility.yul\":14324:14341   */\n      add\n        /* \"#utility.yul\":14317:14364   */\n      mstore\n        /* \"#utility.yul\":14381:14512   */\n      tag_434\n        /* \"#utility.yul\":14507:14511   */\n      dup2\n        /* \"#utility.yul\":14381:14512   */\n      tag_257\n      jump\t// in\n    tag_434:\n        /* \"#utility.yul\":14373:14512   */\n      swap1\n      pop\n        /* \"#utility.yul\":14100:14519   */\n      swap2\n      swap1\n      pop\n      jump\t// out\n        /* \"#utility.yul\":14525:14748   */\n    tag_258:\n        /* \"#utility.yul\":14665:14699   */\n      0x45524332303a20617070726f76652066726f6d20746865207a65726f20616464\n        /* \"#utility.yul\":14661:14662   */\n      0x00\n        /* \"#utility.yul\":14653:14659   */\n      dup3\n        /* \"#utility.yul\":14649:14663   */\n      add\n        /* \"#utility.yul\":14642:14700   */\n      mstore\n        /* \"#utility.yul\":14734:14740   */\n      0x7265737300000000000000000000000000000000000000000000000000000000\n        /* \"#utility.yul\":14729:14731   */\n      0x20\n        /* \"#utility.yul\":14721:14727   */\n      dup3\n        /* \"#utility.yul\":14717:14732   */\n      add\n        /* \"#utility.yul\":14710:14741   */\n      mstore\n        /* \"#utility.yul\":14525:14748   */\n      pop\n      jump\t// out\n        /* \"#utility.yul\":14754:15120   */\n    tag_259:\n        /* \"#utility.yul\":14896:14899   */\n      0x00\n        /* \"#utility.yul\":14917:14984   */\n      tag_437\n        /* \"#utility.yul\":14981:14983   */\n      0x24\n        /* \"#utility.yul\":14976:14979   */\n      dup4\n        /* \"#utility.yul\":14917:14984   */\n      tag_221\n      jump\t// in\n    tag_437:\n        /* \"#utility.yul\":14910:14984   */\n      swap2\n      pop\n        /* \"#utility.yul\":14993:15086   */\n      tag_438\n        /* \"#utility.yul\":15082:15085   */\n      dup3\n        /* \"#utility.yul\":14993:15086   */\n      tag_258\n      jump\t// in\n    tag_438:\n        /* \"#utility.yul\":15111:15113   */\n      0x40\n        /* \"#utility.yul\":15106:15109   */\n      dup3\n        /* \"#utility.yul\":15102:15114   */\n      add\n        /* \"#utility.yul\":15095:15114   */\n      swap1\n      pop\n        /* \"#utility.yul\":14754:15120   */\n      swap2\n      swap1\n      pop\n      jump\t// out\n        /* \"#utility.yul\":15126:15545   */\n    tag_181:\n        /* \"#utility.yul\":15292:15296   */\n      0x00\n        /* \"#utility.yul\":15330:15332   */\n      0x20\n        /* \"#utility.yul\":15319:15328   */\n      dup3\n        /* \"#utility.yul\":15315:15333   */\n      add\n        /* \"#utility.yul\":15307:15333   */\n      swap1\n      pop\n        /* \"#utility.yul\":15379:15388   */\n      dup2\n        /* \"#utility.yul\":15373:15377   */\n      dup2\n        /* \"#utility.yul\":15369:15389   */\n      sub\n        /* \"#utility.yul\":15365:15366   */\n      0x00\n        /* \"#utility.yul\":15354:15363   */\n      dup4\n        /* \"#utility.yul\":15350:15367   */\n      add\n        /* \"#utility.yul\":15343:15390   */\n      mstore\n        /* \"#utility.yul\":15407:15538   */\n      tag_440\n        /* \"#utility.yul\":15533:15537   */\n      dup2\n        /* \"#utility.yul\":15407:15538   */\n      tag_259\n      jump\t// in\n    tag_440:\n        /* \"#utility.yul\":15399:15538   */\n      swap1\n      pop\n        /* \"#utility.yul\":15126:15545   */\n      swap2\n      swap1\n      pop\n      jump\t// out\n        /* \"#utility.yul\":15551:15773   */\n    tag_260:\n        /* \"#utility.yul\":15691:15725   */\n      0x45524332303a20617070726f76652020746f20746865207a65726f2061646472\n        /* \"#utility.yul\":15687:15688   */\n      0x00\n        /* \"#utility.yul\":15679:15685   */\n      dup3\n        /* \"#utility.yul\":15675:15689   */\n      add\n        /* \"#utility.yul\":15668:15726   */\n      mstore\n        /* \"#utility.yul\":15760:15765   */\n      0x6573730000000000000000000000000000000000000000000000000000000000\n        /* \"#utility.yul\":15755:15757   */\n      0x20\n        /* \"#utility.yul\":15747:15753   */\n      dup3\n        /* \"#utility.yul\":15743:15758   */\n      add\n        /* \"#utility.yul\":15736:15766   */\n      mstore\n        /* \"#utility.yul\":15551:15773   */\n      pop\n      jump\t// out\n        /* \"#utility.yul\":15779:16145   */\n    tag_261:\n        /* \"#utility.yul\":15921:15924   */\n      0x00\n        /* \"#utility.yul\":15942:16009   */\n      tag_443\n        /* \"#utility.yul\":16006:16008   */\n      0x23\n        /* \"#utility.yul\":16001:16004   */\n      dup4\n        /* \"#utility.yul\":15942:16009   */\n      tag_221\n      jump\t// in\n    tag_443:\n        /* \"#utility.yul\":15935:16009   */\n      swap2\n      pop\n        /* \"#utility.yul\":16018:16111   */\n      tag_444\n        /* \"#utility.yul\":16107:16110   */\n      dup3\n        /* \"#utility.yul\":16018:16111   */\n      tag_260\n      jump\t// in\n    tag_444:\n        /* \"#utility.yul\":16136:16138   */\n      0x40\n        /* \"#utility.yul\":16131:16134   */\n      dup3\n        /* \"#utility.yul\":16127:16139   */\n      add\n        /* \"#utility.yul\":16120:16139   */\n      swap1\n      pop\n        /* \"#utility.yul\":15779:16145   */\n      swap2\n      swap1\n      pop\n      jump\t// out\n        /* \"#utility.yul\":16151:16570   */\n    tag_184:\n        /* \"#utility.yul\":16317:16321   */\n      0x00\n        /* \"#utility.yul\":16355:16357   */\n      0x20\n        /* \"#utility.yul\":16344:16353   */\n      dup3\n        /* \"#utility.yul\":16340:16358   */\n      add\n        /* \"#utility.yul\":16332:16358   */\n      swap1\n      pop\n        /* \"#utility.yul\":16404:16413   */\n      dup2\n        /* \"#utility.yul\":16398:16402   */\n      dup2\n        /* \"#utility.yul\":16394:16414   */\n      sub\n        /* \"#utility.yul\":16390:16391   */\n      0x00\n        /* \"#utility.yul\":16379:16388   */\n      dup4\n        /* \"#utility.yul\":16375:16392   */\n      add\n        /* \"#utility.yul\":16368:16415   */\n      mstore\n        /* \"#utility.yul\":16432:16563   */\n      tag_446\n        /* \"#utility.yul\":16558:16562   */\n      dup2\n        /* \"#utility.yul\":16432:16563   */\n      tag_261\n      jump\t// in\n    tag_446:\n        /* \"#utility.yul\":16424:16563   */\n      swap1\n      pop\n        /* \"#utility.yul\":16151:16570   */\n      swap2\n      swap1\n      pop\n      jump\t// out\n        /* \"#utility.yul\":16576:16755   */\n    tag_262:\n        /* \"#utility.yul\":16716:16747   */\n      0x45524332303a20696e73756666696369656e7420616c6c6f77616e6365000000\n        /* \"#utility.yul\":16712:16713   */\n      0x00\n        /* \"#utility.yul\":16704:16710   */\n      dup3\n        /* \"#utility.yul\":16700:16714   */\n      add\n        /* \"#utility.yul\":16693:16748   */\n      mstore\n        /* \"#utility.yul\":16576:16755   */\n      pop\n      jump\t// out\n        /* \"#utility.yul\":16761:17127   */\n    tag_263:\n        /* \"#utility.yul\":16903:16906   */\n      0x00\n        /* \"#utility.yul\":16924:16991   */\n      tag_449\n        /* \"#utility.yul\":16988:16990   */\n      0x1d\n        /* \"#utility.yul\":16983:16986   */\n      dup4\n        /* \"#utility.yul\":16924:16991   */\n      tag_221\n      jump\t// in\n    tag_449:\n        /* \"#utility.yul\":16917:16991   */\n      swap2\n      pop\n        /* \"#utility.yul\":17000:17093   */\n      tag_450\n        /* \"#utility.yul\":17089:17092   */\n      dup3\n        /* \"#utility.yul\":17000:17093   */\n      tag_262\n      jump\t// in\n    tag_450:\n        /* \"#utility.yul\":17118:17120   */\n      0x20\n        /* \"#utility.yul\":17113:17116   */\n      dup3\n        /* \"#utility.yul\":17109:17121   */\n      add\n        /* \"#utility.yul\":17102:17121   */\n      swap1\n      pop\n        /* \"#utility.yul\":16761:17127   */\n      swap2\n      swap1\n      pop\n      jump\t// out\n        /* \"#utility.yul\":17133:17552   */\n    tag_191:\n        /* \"#utility.yul\":17299:17303   */\n      0x00\n        /* \"#utility.yul\":17337:17339   */\n      0x20\n        /* \"#utility.yul\":17326:17335   */\n      dup3\n        /* \"#utility.yul\":17322:17340   */\n      add\n        /* \"#utility.yul\":17314:17340   */\n      swap1\n      pop\n        /* \"#utility.yul\":17386:17395   */\n      dup2\n        /* \"#utility.yul\":17380:17384   */\n      dup2\n        /* \"#utility.yul\":17376:17396   */\n      sub\n        /* \"#utility.yul\":17372:17373   */\n      0x00\n        /* \"#utility.yul\":17361:17370   */\n      dup4\n        /* \"#utility.yul\":17357:17374   */\n      add\n        /* \"#utility.yul\":17350:17397   */\n      mstore\n        /* \"#utility.yul\":17414:17545   */\n      tag_452\n        /* \"#utility.yul\":17540:17544   */\n      dup2\n        /* \"#utility.yul\":17414:17545   */\n      tag_263\n      jump\t// in\n    tag_452:\n        /* \"#utility.yul\":17406:17545   */\n      swap1\n      pop\n        /* \"#utility.yul\":17133:17552   */\n      swap2\n      swap1\n      pop\n      jump\t// out\n        /* \"#utility.yul\":17558:17782   */\n    tag_264:\n        /* \"#utility.yul\":17698:17732   */\n      0x45524332303a207472616e736665722066726f6d20746865207a65726f206164\n        /* \"#utility.yul\":17694:17695   */\n      0x00\n        /* \"#utility.yul\":17686:17692   */\n      dup3\n        /* \"#utility.yul\":17682:17696   */\n      add\n        /* \"#utility.yul\":17675:17733   */\n      mstore\n        /* \"#utility.yul\":17767:17774   */\n      0x6472657373000000000000000000000000000000000000000000000000000000\n        /* \"#utility.yul\":17762:17764   */\n      0x20\n        /* \"#utility.yul\":17754:17760   */\n      dup3\n        /* \"#utility.yul\":17750:17765   */\n      add\n        /* \"#utility.yul\":17743:17775   */\n      mstore\n        /* \"#utility.yul\":17558:17782   */\n      pop\n      jump\t// out\n        /* \"#utility.yul\":17788:18154   */\n    tag_265:\n        /* \"#utility.yul\":17930:17933   */\n      0x00\n        /* \"#utility.yul\":17951:18018   */\n      tag_455\n        /* \"#utility.yul\":18015:18017   */\n      0x25\n        /* \"#utility.yul\":18010:18013   */\n      dup4\n        /* \"#utility.yul\":17951:18018   */\n      tag_221\n      jump\t// in\n    tag_455:\n        /* \"#utility.yul\":17944:18018   */\n      swap2\n      pop\n        /* \"#utility.yul\":18027:18120   */\n      tag_456\n        /* \"#utility.yul\":18116:18119   */\n      dup3\n        /* \"#utility.yul\":18027:18120   */\n      tag_264\n      jump\t// in\n    tag_456:\n        /* \"#utility.yul\":18145:18147   */\n      0x40\n        /* \"#utility.yul\":18140:18143   */\n      dup3\n        /* \"#utility.yul\":18136:18148   */\n      add\n        /* \"#utility.yul\":18129:18148   */\n      swap1\n      pop\n        /* \"#utility.yul\":17788:18154   */\n      swap2\n      swap1\n      pop\n      jump\t// out\n        /* \"#utility.yul\":18160:18579   */\n    tag_196:\n        /* \"#utility.yul\":18326:18330   */\n      0x00\n        /* \"#utility.yul\":18364:18366   */\n      0x20\n        /* \"#utility.yul\":18353:18362   */\n      dup3\n        /* \"#utility.yul\":18349:18367   */\n      add\n        /* \"#utility.yul\":18341:18367   */\n      swap1\n      pop\n        /* \"#utility.yul\":18413:18422   */\n      dup2\n        /* \"#utility.yul\":18407:18411   */\n      dup2\n        /* \"#utility.yul\":18403:18423   */\n      sub\n        /* \"#utility.yul\":18399:18400   */\n      0x00\n        /* \"#utility.yul\":18388:18397   */\n      dup4\n        /* \"#utility.yul\":18384:18401   */\n      add\n        /* \"#utility.yul\":18377:18424   */\n      mstore\n        /* \"#utility.yul\":18441:18572   */\n      tag_458\n        /* \"#utility.yul\":18567:18571   */\n      dup2\n        /* \"#utility.yul\":18441:18572   */\n      tag_265\n      jump\t// in\n    tag_458:\n        /* \"#utility.yul\":18433:18572   */\n      swap1\n      pop\n        /* \"#utility.yul\":18160:18579   */\n      swap2\n      swap1\n      pop\n      jump\t// out\n        /* \"#utility.yul\":18585:18807   */\n    tag_266:\n        /* \"#utility.yul\":18725:18759   */\n      0x45524332303a207472616e7366657220746f20746865207a65726f2061646472\n        /* \"#utility.yul\":18721:18722   */\n      0x00\n        /* \"#utility.yul\":18713:18719   */\n      dup3\n        /* \"#utility.yul\":18709:18723   */\n      add\n        /* \"#utility.yul\":18702:18760   */\n      mstore\n        /* \"#utility.yul\":18794:18799   */\n      0x6573730000000000000000000000000000000000000000000000000000000000\n        /* \"#utility.yul\":18789:18791   */\n      0x20\n        /* \"#utility.yul\":18781:18787   */\n      dup3\n        /* \"#utility.yul\":18777:18792   */\n      add\n        /* \"#utility.yul\":18770:18800   */\n      mstore\n        /* \"#utility.yul\":18585:18807   */\n      pop\n      jump\t// out\n        /* \"#utility.yul\":18813:19179   */\n    tag_267:\n        /* \"#utility.yul\":18955:18958   */\n      0x00\n        /* \"#utility.yul\":18976:19043   */\n      tag_461\n        /* \"#utility.yul\":19040:19042   */\n      0x23\n        /* \"#utility.yul\":19035:19038   */\n      dup4\n        /* \"#utility.yul\":18976:19043   */\n      tag_221\n      jump\t// in\n    tag_461:\n        /* \"#utility.yul\":18969:19043   */\n      swap2\n      pop\n        /* \"#utility.yul\":19052:19145   */\n      tag_462\n        /* \"#utility.yul\":19141:19144   */\n      dup3\n        /* \"#utility.yul\":19052:19145   */\n      tag_266\n      jump\t// in\n    tag_462:\n        /* \"#utility.yul\":19170:19172   */\n      0x40\n        /* \"#utility.yul\":19165:19168   */\n      dup3\n        /* \"#utility.yul\":19161:19173   */\n      add\n        /* \"#utility.yul\":19154:19173   */\n      swap1\n      pop\n        /* \"#utility.yul\":18813:19179   */\n      swap2\n      swap1\n      pop\n      jump\t// out\n        /* \"#utility.yul\":19185:19604   */\n    tag_199:\n        /* \"#utility.yul\":19351:19355   */\n      0x00\n        /* \"#utility.yul\":19389:19391   */\n      0x20\n        /* \"#utility.yul\":19378:19387   */\n      dup3\n        /* \"#utility.yul\":19374:19392   */\n      add\n        /* \"#utility.yul\":19366:19392   */\n      swap1\n      pop\n        /* \"#utility.yul\":19438:19447   */\n      dup2\n        /* \"#utility.yul\":19432:19436   */\n      dup2\n        /* \"#utility.yul\":19428:19448   */\n      sub\n        /* \"#utility.yul\":19424:19425   */\n      0x00\n        /* \"#utility.yul\":19413:19422   */\n      dup4\n        /* \"#utility.yul\":19409:19426   */\n      add\n        /* \"#utility.yul\":19402:19449   */\n      mstore\n        /* \"#utility.yul\":19466:19597   */\n      tag_464\n        /* \"#utility.yul\":19592:19596   */\n      dup2\n        /* \"#utility.yul\":19466:19597   */\n      tag_267\n      jump\t// in\n    tag_464:\n        /* \"#utility.yul\":19458:19597   */\n      swap1\n      pop\n        /* \"#utility.yul\":19185:19604   */\n      swap2\n      swap1\n      pop\n      jump\t// out\n        /* \"#utility.yul\":19610:19835   */\n    tag_268:\n        /* \"#utility.yul\":19750:19784   */\n      0x45524332303a207472616e7366657220616d6f756e7420657863656564732062\n        /* \"#utility.yul\":19746:19747   */\n      0x00\n        /* \"#utility.yul\":19738:19744   */\n      dup3\n        /* \"#utility.yul\":19734:19748   */\n      add\n        /* \"#utility.yul\":19727:19785   */\n      mstore\n        /* \"#utility.yul\":19819:19827   */\n      0x616c616e63650000000000000000000000000000000000000000000000000000\n        /* \"#utility.yul\":19814:19816   */\n      0x20\n        /* \"#utility.yul\":19806:19812   */\n      dup3\n        /* \"#utility.yul\":19802:19817   */\n      add\n        /* \"#utility.yul\":19795:19828   */\n      mstore\n        /* \"#utility.yul\":19610:19835   */\n      pop\n      jump\t// out\n        /* \"#utility.yul\":19841:20207   */\n    tag_269:\n        /* \"#utility.yul\":19983:19986   */\n      0x00\n        /* \"#utility.yul\":20004:20071   */\n      tag_467\n        /* \"#utility.yul\":20068:20070   */\n      0x26\n        /* \"#utility.yul\":20063:20066   */\n      dup4\n        /* \"#utility.yul\":20004:20071   */\n      tag_221\n      jump\t// in\n    tag_467:\n        /* \"#utility.yul\":19997:20071   */\n      swap2\n      pop\n        /* \"#utility.yul\":20080:20173   */\n      tag_468\n        /* \"#utility.yul\":20169:20172   */\n      dup3\n        /* \"#utility.yul\":20080:20173   */\n      tag_268\n      jump\t// in\n    tag_468:\n        /* \"#utility.yul\":20198:20200   */\n      0x40\n        /* \"#utility.yul\":20193:20196   */\n      dup3\n        /* \"#utility.yul\":20189:20201   */\n      add\n        /* \"#utility.yul\":20182:20201   */\n      swap1\n      pop\n        /* \"#utility.yul\":19841:20207   */\n      swap2\n      swap1\n      pop\n      jump\t// out\n        /* \"#utility.yul\":20213:20632   */\n    tag_204:\n        /* \"#utility.yul\":20379:20383   */\n      0x00\n        /* \"#utility.yul\":20417:20419   */\n      0x20\n        /* \"#utility.yul\":20406:20415   */\n      dup3\n        /* \"#utility.yul\":20402:20420   */\n      add\n        /* \"#utility.yul\":20394:20420   */\n      swap1\n      pop\n        /* \"#utility.yul\":20466:20475   */\n      dup2\n        /* \"#utility.yul\":20460:20464   */\n      dup2\n        /* \"#utility.yul\":20456:20476   */\n      sub\n        /* \"#utility.yul\":20452:20453   */\n      0x00\n        /* \"#utility.yul\":20441:20450   */\n      dup4\n        /* \"#utility.yul\":20437:20454   */\n      add\n        /* \"#utility.yul\":20430:20477   */\n      mstore\n        /* \"#utility.yul\":20494:20625   */\n      tag_470\n        /* \"#utility.yul\":20620:20624   */\n      dup2\n        /* \"#utility.yul\":20494:20625   */\n      tag_269\n      jump\t// in\n    tag_470:\n        /* \"#utility.yul\":20486:20625   */\n      swap1\n      pop\n        /* \"#utility.yul\":20213:20632   */\n      swap2\n      swap1\n      pop\n      jump\t// out\n        /* \"#utility.yul\":20638:20819   */\n    tag_270:\n        /* \"#utility.yul\":20778:20811   */\n      0x45524332303a206d696e7420746f20746865207a65726f206164647265737300\n        /* \"#utility.yul\":20774:20775   */\n      0x00\n        /* \"#utility.yul\":20766:20772   */\n      dup3\n        /* \"#utility.yul\":20762:20776   */\n      add\n        /* \"#utility.yul\":20755:20812   */\n      mstore\n        /* \"#utility.yul\":20638:20819   */\n      pop\n      jump\t// out\n        /* \"#utility.yul\":20825:21191   */\n    tag_271:\n        /* \"#utility.yul\":20967:20970   */\n      0x00\n        /* \"#utility.yul\":20988:21055   */\n      tag_473\n        /* \"#utility.yul\":21052:21054   */\n      0x1f\n        /* \"#utility.yul\":21047:21050   */\n      dup4\n        /* \"#utility.yul\":20988:21055   */\n      tag_221\n      jump\t// in\n    tag_473:\n        /* \"#utility.yul\":20981:21055   */\n      swap2\n      pop\n        /* \"#utility.yul\":21064:21157   */\n      tag_474\n        /* \"#utility.yul\":21153:21156   */\n      dup3\n        /* \"#utility.yul\":21064:21157   */\n      tag_270\n      jump\t// in\n    tag_474:\n        /* \"#utility.yul\":21182:21184   */\n      0x20\n        /* \"#utility.yul\":21177:21180   */\n      dup3\n        /* \"#utility.yul\":21173:21185   */\n      add\n        /* \"#utility.yul\":21166:21185   */\n      swap1\n      pop\n        /* \"#utility.yul\":20825:21191   */\n      swap2\n      swap1\n      pop\n      jump\t// out\n        /* \"#utility.yul\":21197:21616   */\n    tag_212:\n        /* \"#utility.yul\":21363:21367   */\n      0x00\n        /* \"#utility.yul\":21401:21403   */\n      0x20\n        /* \"#utility.yul\":21390:21399   */\n      dup3\n        /* \"#utility.yul\":21386:21404   */\n      add\n        /* \"#utility.yul\":21378:21404   */\n      swap1\n      pop\n        /* \"#utility.yul\":21450:21459   */\n      dup2\n        /* \"#utility.yul\":21444:21448   */\n      dup2\n        /* \"#utility.yul\":21440:21460   */\n      sub\n        /* \"#utility.yul\":21436:21437   */\n      0x00\n        /* \"#utility.yul\":21425:21434   */\n      dup4\n        /* \"#utility.yul\":21421:21438   */\n      add\n        /* \"#utility.yul\":21414:21461   */\n      mstore\n        /* \"#utility.yul\":21478:21609   */\n      tag_476\n        /* \"#utility.yul\":21604:21608   */\n      dup2\n        /* \"#utility.yul\":21478:21609   */\n      tag_271\n      jump\t// in\n    tag_476:\n        /* \"#utility.yul\":21470:21609   */\n      swap1\n      pop\n        /* \"#utility.yul\":21197:21616   */\n      swap2\n      swap1\n      pop\n      jump\t// out\n\n    auxdata: 0xa26469706673582212207564a5626a0c57df045fef0c5ac56f99ecd0bed53767743b195371a95dad3ccc64736f6c634300080d0033\n}\n",
				"bytecode": {
					"linkReferences": {},
					"object": "6080604052604051620028ab380380620028ab8339818101604052810190620000299190620005ab565b84600390805190602001906200004192919062000280565b5083600490805190602001906200005a92919062000280565b5082600560006101000a81548160ff021916908360ff160217905550620000b281600560009054906101000a900460ff16600a620000999190620007f4565b84620000a6919062000845565b620000fe60201b60201c565b33600560016101000a81548173ffffffffffffffffffffffffffffffffffffffff021916908373ffffffffffffffffffffffffffffffffffffffff160217905550505050505062000a18565b600073ffffffffffffffffffffffffffffffffffffffff168273ffffffffffffffffffffffffffffffffffffffff160362000170576040517f08c379a0000000000000000000000000000000000000000000000000000000008152600401620001679062000907565b60405180910390fd5b62000184600083836200027660201b60201c565b806002600082825462000198919062000929565b92505081905550806000808473ffffffffffffffffffffffffffffffffffffffff1673ffffffffffffffffffffffffffffffffffffffff1681526020019081526020016000206000828254620001ef919062000929565b925050819055508173ffffffffffffffffffffffffffffffffffffffff16600073ffffffffffffffffffffffffffffffffffffffff167fddf252ad1be2c89b69c2b068fc378daa952ba7f163c4a11628f55a4df523b3ef8360405162000256919062000997565b60405180910390a362000272600083836200027b60201b60201c565b5050565b505050565b505050565b8280546200028e90620009e3565b90600052602060002090601f016020900481019282620002b25760008555620002fe565b82601f10620002cd57805160ff1916838001178555620002fe565b82800160010185558215620002fe579182015b82811115620002fd578251825591602001919060010190620002e0565b5b5090506200030d919062000311565b5090565b5b808211156200032c57600081600090555060010162000312565b5090565b6000604051905090565b600080fd5b600080fd5b600080fd5b600080fd5b6000601f19601f8301169050919050565b7f4e487b7100000000000000000000000000000000000000000000000000000000600052604160045260246000fd5b62000399826200034e565b810181811067ffffffffffffffff82111715620003bb57620003ba6200035f565b5b80604052505050565b6000620003d062000330565b9050620003de82826200038e565b919050565b600067ffffffffffffffff8211156200040157620004006200035f565b5b6200040c826200034e565b9050602081019050919050565b60005b83811015620004395780820151818401526020810190506200041c565b8381111562000449576000848401525b50505050565b6000620004666200046084620003e3565b620003c4565b90508281526020810184848401111562000485576200048462000349565b5b6200049284828562000419565b509392505050565b600082601f830112620004b257620004b162000344565b5b8151620004c48482602086016200044f565b91505092915050565b600060ff82169050919050565b620004e581620004cd565b8114620004f157600080fd5b50565b6000815190506200050581620004da565b92915050565b6000819050919050565b62000520816200050b565b81146200052c57600080fd5b50565b600081519050620005408162000515565b92915050565b600073ffffffffffffffffffffffffffffffffffffffff82169050919050565b6000620005738262000546565b9050919050565b620005858162000566565b81146200059157600080fd5b50565b600081519050620005a5816200057a565b92915050565b600080600080600060a08688031215620005ca57620005c96200033a565b5b600086015167ffffffffffffffff811115620005eb57620005ea6200033f565b5b620005f9888289016200049a565b955050602086015167ffffffffffffffff8111156200061d576200061c6200033f565b5b6200062b888289016200049a565b94505060406200063e88828901620004f4565b935050606062000651888289016200052f565b9250506080620006648882890162000594565b9150509295509295909350565b7f4e487b7100000000000000000000000000000000000000000000000000000000600052601160045260246000fd5b60008160011c9050919050565b6000808291508390505b6001851115620006ff57808604811115620006d757620006d662000671565b5b6001851615620006e75780820291505b8081029050620006f785620006a0565b9450620006b7565b94509492505050565b6000826200071a5760019050620007ed565b816200072a5760009050620007ed565b81600181146200074357600281146200074e5762000784565b6001915050620007ed565b60ff84111562000763576200076262000671565b5b8360020a9150848211156200077d576200077c62000671565b5b50620007ed565b5060208310610133831016604e8410600b8410161715620007be5782820a905083811115620007b857620007b762000671565b5b620007ed565b620007cd8484846001620006ad565b92509050818404811115620007e757620007e662000671565b5b81810290505b9392505050565b600062000801826200050b565b91506200080e83620004cd565b92506200083d7fffffffffffffffffffffffffffffffffffffffffffffffffffffffffffffffff848462000708565b905092915050565b600062000852826200050b565b91506200085f836200050b565b9250817fffffffffffffffffffffffffffffffffffffffffffffffffffffffffffffffff04831182151516156200089b576200089a62000671565b5b828202905092915050565b600082825260208201905092915050565b7f45524332303a206d696e7420746f20746865207a65726f206164647265737300600082015250565b6000620008ef601f83620008a6565b9150620008fc82620008b7565b602082019050919050565b600060208201905081810360008301526200092281620008e0565b9050919050565b600062000936826200050b565b915062000943836200050b565b9250827fffffffffffffffffffffffffffffffffffffffffffffffffffffffffffffffff038211156200097b576200097a62000671565b5b828201905092915050565b62000991816200050b565b82525050565b6000602082019050620009ae600083018462000986565b92915050565b7f4e487b7100000000000000000000000000000000000000000000000000000000600052602260045260246000fd5b60006002820490506001821680620009fc57607f821691505b60208210810362000a125762000a11620009b4565b5b50919050565b611e838062000a286000396000f3fe6080604052600436106100f75760003560e01c806340c10f191161008a578063a457c2d711610059578063a457c2d714610325578063a9059cbb14610362578063dd62ed3e1461039f578063fc6f9468146103dc576100fe565b806340c10f191461027857806370a08231146102a157806389476069146102de57806395d89b41146102fa576100fe565b8063313ce567116100c6578063313ce567146101d057806339509351146101fb5780633ccfd60b146102385780633d128eec1461024f576100fe565b806306fdde0314610100578063095ea7b31461012b57806318160ddd1461016857806323b872dd14610193576100fe565b366100fe57005b005b34801561010c57600080fd5b50610115610407565b60405161012291906112f9565b60405180910390f35b34801561013757600080fd5b50610152600480360381019061014d91906113b4565b610499565b60405161015f919061140f565b60405180910390f35b34801561017457600080fd5b5061017d6104b5565b60405161018a9190611439565b60405180910390f35b34801561019f57600080fd5b506101ba60048036038101906101b59190611454565b6104bf565b6040516101c7919061140f565b60405180910390f35b3480156101dc57600080fd5b506101e56104e7565b6040516101f291906114c3565b60405180910390f35b34801561020757600080fd5b50610222600480360381019061021d91906113b4565b6104fe565b60405161022f919061140f565b60405180910390f35b34801561024457600080fd5b5061024d6105a1565b005b34801561025b57600080fd5b50610276600480360381019061027191906114de565b61067a565b005b34801561028457600080fd5b5061029f600480360381019061029a91906113b4565b61074e565b005b3480156102ad57600080fd5b506102c860048036038101906102c391906114de565b610812565b6040516102d59190611439565b60405180910390f35b6102f860048036038101906102f39190611549565b61085a565b005b34801561030657600080fd5b5061030f6109e5565b60405161031c91906112f9565b60405180910390f35b34801561033157600080fd5b5061034c600480360381019061034791906113b4565b610a77565b604051610359919061140f565b60405180910390f35b34801561036e57600080fd5b50610389600480360381019061038491906113b4565b610b5a565b604051610396919061140f565b60405180910390f35b3480156103ab57600080fd5b506103c660048036038101906103c19190611576565b610b76565b6040516103d39190611439565b60405180910390f35b3480156103e857600080fd5b506103f1610bfd565b6040516103fe91906115d7565b60405180910390f35b60606003805461041690611621565b80601f016020809104026020016040519081016040528092919081815260200182805461044290611621565b801561048f5780601f106104645761010080835404028352916020019161048f565b820191906000526020600020905b81548152906001019060200180831161047257829003601f168201915b5050505050905090565b6000803390506104aa818585610c23565b600191505092915050565b6000600254905090565b6000803390506104d0858285610dec565b6104db858585610e78565b60019150509392505050565b6000600560009054906101000a900460ff16905090565b600080339050610596818585600160008673ffffffffffffffffffffffffffffffffffffffff1673ffffffffffffffffffffffffffffffffffffffff16815260200190815260200160002060008973ffffffffffffffffffffffffffffffffffffffff1673ffffffffffffffffffffffffffffffffffffffff168152602001908152602001600020546105919190611681565b610c23565b600191505092915050565b600560019054906101000a900473ffffffffffffffffffffffffffffffffffffffff1673ffffffffffffffffffffffffffffffffffffffff163373ffffffffffffffffffffffffffffffffffffffff1614610631576040517f08c379a000000000000000000000000000000000000000000000000000000000815260040161062890611723565b60405180910390fd5b3373ffffffffffffffffffffffffffffffffffffffff166108fc479081150290604051600060405180830381858888f19350505050158015610677573d6000803e3d6000fd5b50565b600560019054906101000a900473ffffffffffffffffffffffffffffffffffffffff1673ffffffffffffffffffffffffffffffffffffffff163373ffffffffffffffffffffffffffffffffffffffff161461070a576040517f08c379a000000000000000000000000000000000000000000000000000000000815260040161070190611723565b60405180910390fd5b80600560016101000a81548173ffffffffffffffffffffffffffffffffffffffff021916908373ffffffffffffffffffffffffffffffffffffffff16021790555050565b600560019054906101000a900473ffffffffffffffffffffffffffffffffffffffff1673ffffffffffffffffffffffffffffffffffffffff163373ffffffffffffffffffffffffffffffffffffffff16146107de576040517f08c379a00000000000000000000000000000000000000000000000000000000081526004016107d590611723565b60405180910390fd5b61080e82600560009054906101000a900460ff16600a6107fe9190611876565b8361080991906118c1565b6110f7565b5050565b60008060008373ffffffffffffffffffffffffffffffffffffffff1673ffffffffffffffffffffffffffffffffffffffff168152602001908152602001600020549050919050565b600560019054906101000a900473ffffffffffffffffffffffffffffffffffffffff1673ffffffffffffffffffffffffffffffffffffffff163373ffffffffffffffffffffffffffffffffffffffff16146108ea576040517f08c379a00000000000000000000000000000000000000000000000000000000081526004016108e190611723565b60405180910390fd5b8073ffffffffffffffffffffffffffffffffffffffff1663a9059cbb338373ffffffffffffffffffffffffffffffffffffffff166370a08231306040518263ffffffff1660e01b8152600401610940919061192a565b602060405180830381865afa15801561095d573d6000803e3d6000fd5b505050506040513d601f19601f82011682018060405250810190610981919061195a565b6040518363ffffffff1660e01b815260040161099e929190611987565b6020604051808303816000875af11580156109bd573d6000803e3d6000fd5b505050506040513d601f19601f820116820180604052508101906109e191906119dc565b5050565b6060600480546109f490611621565b80601f0160208091040260200160405190810160405280929190818152602001828054610a2090611621565b8015610a6d5780601f10610a4257610100808354040283529160200191610a6d565b820191906000526020600020905b815481529060010190602001808311610a5057829003601f168201915b5050505050905090565b6000803390506000600160008373ffffffffffffffffffffffffffffffffffffffff1673ffffffffffffffffffffffffffffffffffffffff16815260200190815260200160002060008673ffffffffffffffffffffffffffffffffffffffff1673ffffffffffffffffffffffffffffffffffffffff16815260200190815260200160002054905083811015610b41576040517f08c379a0000000000000000000000000000000000000000000000000000000008152600401610b3890611a7b565b60405180910390fd5b610b4e8286868403610c23565b60019250505092915050565b600080339050610b6b818585610e78565b600191505092915050565b6000600160008473ffffffffffffffffffffffffffffffffffffffff1673ffffffffffffffffffffffffffffffffffffffff16815260200190815260200160002060008373ffffffffffffffffffffffffffffffffffffffff1673ffffffffffffffffffffffffffffffffffffffff16815260200190815260200160002054905092915050565b600560019054906101000a900473ffffffffffffffffffffffffffffffffffffffff1681565b600073ffffffffffffffffffffffffffffffffffffffff168373ffffffffffffffffffffffffffffffffffffffff1603610c92576040517f08c379a0000000000000000000000000000000000000000000000000000000008152600401610c8990611b0d565b60405180910390fd5b600073ffffffffffffffffffffffffffffffffffffffff168273ffffffffffffffffffffffffffffffffffffffff1603610d01576040517f08c379a0000000000000000000000000000000000000000000000000000000008152600401610cf890611b9f565b60405180910390fd5b80600160008573ffffffffffffffffffffffffffffffffffffffff1673ffffffffffffffffffffffffffffffffffffffff16815260200190815260200160002060008473ffffffffffffffffffffffffffffffffffffffff1673ffffffffffffffffffffffffffffffffffffffff168152602001908152602001600020819055508173ffffffffffffffffffffffffffffffffffffffff168373ffffffffffffffffffffffffffffffffffffffff167f8c5be1e5ebec7d5bd14f71427d1e84f3dd0314c0f7b2291e5b200ac8c7c3b92583604051610ddf9190611439565b60405180910390a3505050565b6000610df88484610b76565b90507fffffffffffffffffffffffffffffffffffffffffffffffffffffffffffffffff8114610e725781811015610e64576040517f08c379a0000000000000000000000000000000000000000000000000000000008152600401610e5b90611c0b565b60405180910390fd5b610e718484848403610c23565b5b50505050565b600073ffffffffffffffffffffffffffffffffffffffff168373ffffffffffffffffffffffffffffffffffffffff1603610ee7576040517f08c379a0000000000000000000000000000000000000000000000000000000008152600401610ede90611c9d565b60405180910390fd5b600073ffffffffffffffffffffffffffffffffffffffff168273ffffffffffffffffffffffffffffffffffffffff1603610f56576040517f08c379a0000000000000000000000000000000000000000000000000000000008152600401610f4d90611d2f565b60405180910390fd5b610f61838383611256565b60008060008573ffffffffffffffffffffffffffffffffffffffff1673ffffffffffffffffffffffffffffffffffffffff16815260200190815260200160002054905081811015610fe7576040517f08c379a0000000000000000000000000000000000000000000000000000000008152600401610fde90611dc1565b60405180910390fd5b8181036000808673ffffffffffffffffffffffffffffffffffffffff1673ffffffffffffffffffffffffffffffffffffffff16815260200190815260200160002081905550816000808573ffffffffffffffffffffffffffffffffffffffff1673ffffffffffffffffffffffffffffffffffffffff168152602001908152602001600020600082825461107a9190611681565b925050819055508273ffffffffffffffffffffffffffffffffffffffff168473ffffffffffffffffffffffffffffffffffffffff167fddf252ad1be2c89b69c2b068fc378daa952ba7f163c4a11628f55a4df523b3ef846040516110de9190611439565b60405180910390a36110f184848461125b565b50505050565b600073ffffffffffffffffffffffffffffffffffffffff168273ffffffffffffffffffffffffffffffffffffffff1603611166576040517f08c379a000000000000000000000000000000000000000000000000000000000815260040161115d90611e2d565b60405180910390fd5b61117260008383611256565b80600260008282546111849190611681565b92505081905550806000808473ffffffffffffffffffffffffffffffffffffffff1673ffffffffffffffffffffffffffffffffffffffff16815260200190815260200160002060008282546111d99190611681565b925050819055508173ffffffffffffffffffffffffffffffffffffffff16600073ffffffffffffffffffffffffffffffffffffffff167fddf252ad1be2c89b69c2b068fc378daa952ba7f163c4a11628f55a4df523b3ef8360405161123e9190611439565b60405180910390a36112526000838361125b565b5050565b505050565b505050565b600081519050919050565b600082825260208201905092915050565b60005b8381101561129a57808201518184015260208101905061127f565b838111156112a9576000848401525b50505050565b6000601f19601f8301169050919050565b60006112cb82611260565b6112d5818561126b565b93506112e581856020860161127c565b6112ee816112af565b840191505092915050565b6000602082019050818103600083015261131381846112c0565b905092915050565b600080fd5b600073ffffffffffffffffffffffffffffffffffffffff82169050919050565b600061134b82611320565b9050919050565b61135b81611340565b811461136657600080fd5b50565b60008135905061137881611352565b92915050565b6000819050919050565b6113918161137e565b811461139c57600080fd5b50565b6000813590506113ae81611388565b92915050565b600080604083850312156113cb576113ca61131b565b5b60006113d985828601611369565b92505060206113ea8582860161139f565b9150509250929050565b60008115159050919050565b611409816113f4565b82525050565b60006020820190506114246000830184611400565b92915050565b6114338161137e565b82525050565b600060208201905061144e600083018461142a565b92915050565b60008060006060848603121561146d5761146c61131b565b5b600061147b86828701611369565b935050602061148c86828701611369565b925050604061149d8682870161139f565b9150509250925092565b600060ff82169050919050565b6114bd816114a7565b82525050565b60006020820190506114d860008301846114b4565b92915050565b6000602082840312156114f4576114f361131b565b5b600061150284828501611369565b91505092915050565b600061151682611340565b9050919050565b6115268161150b565b811461153157600080fd5b50565b6000813590506115438161151d565b92915050565b60006020828403121561155f5761155e61131b565b5b600061156d84828501611534565b91505092915050565b6000806040838503121561158d5761158c61131b565b5b600061159b85828601611369565b92505060206115ac85828601611369565b9150509250929050565b60006115c182611320565b9050919050565b6115d1816115b6565b82525050565b60006020820190506115ec60008301846115c8565b92915050565b7f4e487b7100000000000000000000000000000000000000000000000000000000600052602260045260246000fd5b6000600282049050600182168061163957607f821691505b60208210810361164c5761164b6115f2565b5b50919050565b7f4e487b7100000000000000000000000000000000000000000000000000000000600052601160045260246000fd5b600061168c8261137e565b91506116978361137e565b9250827fffffffffffffffffffffffffffffffffffffffffffffffffffffffffffffffff038211156116cc576116cb611652565b5b828201905092915050565b7f6e6f2061646d696e000000000000000000000000000000000000000000000000600082015250565b600061170d60088361126b565b9150611718826116d7565b602082019050919050565b6000602082019050818103600083015261173c81611700565b9050919050565b60008160011c9050919050565b6000808291508390505b600185111561179a5780860481111561177657611775611652565b5b60018516156117855780820291505b808102905061179385611743565b945061175a565b94509492505050565b6000826117b3576001905061186f565b816117c1576000905061186f565b81600181146117d757600281146117e157611810565b600191505061186f565b60ff8411156117f3576117f2611652565b5b8360020a91508482111561180a57611809611652565b5b5061186f565b5060208310610133831016604e8410600b84101617156118455782820a9050838111156118405761183f611652565b5b61186f565b6118528484846001611750565b9250905081840481111561186957611868611652565b5b81810290505b9392505050565b60006118818261137e565b915061188c836114a7565b92506118b97fffffffffffffffffffffffffffffffffffffffffffffffffffffffffffffffff84846117a3565b905092915050565b60006118cc8261137e565b91506118d78361137e565b9250817fffffffffffffffffffffffffffffffffffffffffffffffffffffffffffffffff04831182151516156119105761190f611652565b5b828202905092915050565b61192481611340565b82525050565b600060208201905061193f600083018461191b565b92915050565b60008151905061195481611388565b92915050565b6000602082840312156119705761196f61131b565b5b600061197e84828501611945565b91505092915050565b600060408201905061199c600083018561191b565b6119a9602083018461142a565b9392505050565b6119b9816113f4565b81146119c457600080fd5b50565b6000815190506119d6816119b0565b92915050565b6000602082840312156119f2576119f161131b565b5b6000611a00848285016119c7565b91505092915050565b7f45524332303a2064656372656173656420616c6c6f77616e63652062656c6f7760008201527f207a65726f000000000000000000000000000000000000000000000000000000602082015250565b6000611a6560258361126b565b9150611a7082611a09565b604082019050919050565b60006020820190508181036000830152611a9481611a58565b9050919050565b7f45524332303a20617070726f76652066726f6d20746865207a65726f2061646460008201527f7265737300000000000000000000000000000000000000000000000000000000602082015250565b6000611af760248361126b565b9150611b0282611a9b565b604082019050919050565b60006020820190508181036000830152611b2681611aea565b9050919050565b7f45524332303a20617070726f76652020746f20746865207a65726f206164647260008201527f6573730000000000000000000000000000000000000000000000000000000000602082015250565b6000611b8960238361126b565b9150611b9482611b2d565b604082019050919050565b60006020820190508181036000830152611bb881611b7c565b9050919050565b7f45524332303a20696e73756666696369656e7420616c6c6f77616e6365000000600082015250565b6000611bf5601d8361126b565b9150611c0082611bbf565b602082019050919050565b60006020820190508181036000830152611c2481611be8565b9050919050565b7f45524332303a207472616e736665722066726f6d20746865207a65726f20616460008201527f6472657373000000000000000000000000000000000000000000000000000000602082015250565b6000611c8760258361126b565b9150611c9282611c2b565b604082019050919050565b60006020820190508181036000830152611cb681611c7a565b9050919050565b7f45524332303a207472616e7366657220746f20746865207a65726f206164647260008201527f6573730000000000000000000000000000000000000000000000000000000000602082015250565b6000611d1960238361126b565b9150611d2482611cbd565b604082019050919050565b60006020820190508181036000830152611d4881611d0c565b9050919050565b7f45524332303a207472616e7366657220616d6f756e742065786365656473206260008201527f616c616e63650000000000000000000000000000000000000000000000000000602082015250565b6000611dab60268361126b565b9150611db682611d4f565b604082019050919050565b60006020820190508181036000830152611dda81611d9e565b9050919050565b7f45524332303a206d696e7420746f20746865207a65726f206164647265737300600082015250565b6000611e17601f8361126b565b9150611e2282611de1565b602082019050919050565b60006020820190508181036000830152611e4681611e0a565b905091905056fea26469706673582212207564a5626a0c57df045fef0c5ac56f99ecd0bed53767743b195371a95dad3ccc64736f6c634300080d0033",
					"opcodes": "PUSH1 0x80 PUSH1 0x40 MSTORE PUSH1 0x40 MLOAD PUSH3 0x28AB CODESIZE SUB DUP1 PUSH3 0x28AB DUP4 CODECOPY DUP2 DUP2 ADD PUSH1 0x40 MSTORE DUP2 ADD SWAP1 PUSH3 0x29 SWAP2 SWAP1 PUSH3 0x5AB JUMP JUMPDEST DUP5 PUSH1 0x3 SWAP1 DUP1 MLOAD SWAP1 PUSH1 0x20 ADD SWAP1 PUSH3 0x41 SWAP3 SWAP2 SWAP1 PUSH3 0x280 JUMP JUMPDEST POP DUP4 PUSH1 0x4 SWAP1 DUP1 MLOAD SWAP1 PUSH1 0x20 ADD SWAP1 PUSH3 0x5A SWAP3 SWAP2 SWAP1 PUSH3 0x280 JUMP JUMPDEST POP DUP3 PUSH1 0x5 PUSH1 0x0 PUSH2 0x100 EXP DUP2 SLOAD DUP2 PUSH1 0xFF MUL NOT AND SWAP1 DUP4 PUSH1 0xFF AND MUL OR SWAP1 SSTORE POP PUSH3 0xB2 DUP2 PUSH1 0x5 PUSH1 0x0 SWAP1 SLOAD SWAP1 PUSH2 0x100 EXP SWAP1 DIV PUSH1 0xFF AND PUSH1 0xA PUSH3 0x99 SWAP2 SWAP1 PUSH3 0x7F4 JUMP JUMPDEST DUP5 PUSH3 0xA6 SWAP2 SWAP1 PUSH3 0x845 JUMP JUMPDEST PUSH3 0xFE PUSH1 0x20 SHL PUSH1 0x20 SHR JUMP JUMPDEST CALLER PUSH1 0x5 PUSH1 0x1 PUSH2 0x100 EXP DUP2 SLOAD DUP2 PUSH20 0xFFFFFFFFFFFFFFFFFFFFFFFFFFFFFFFFFFFFFFFF MUL NOT AND SWAP1 DUP4 PUSH20 0xFFFFFFFFFFFFFFFFFFFFFFFFFFFFFFFFFFFFFFFF AND MUL OR SWAP1 SSTORE POP POP POP POP POP POP PUSH3 0xA18 JUMP JUMPDEST PUSH1 0x0 PUSH20 0xFFFFFFFFFFFFFFFFFFFFFFFFFFFFFFFFFFFFFFFF AND DUP3 PUSH20 0xFFFFFFFFFFFFFFFFFFFFFFFFFFFFFFFFFFFFFFFF AND SUB PUSH3 0x170 JUMPI PUSH1 0x40 MLOAD PUSH32 0x8C379A000000000000000000000000000000000000000000000000000000000 DUP2 MSTORE PUSH1 0x4 ADD PUSH3 0x167 SWAP1 PUSH3 0x907 JUMP JUMPDEST PUSH1 0x40 MLOAD DUP1 SWAP2 SUB SWAP1 REVERT JUMPDEST PUSH3 0x184 PUSH1 0x0 DUP4 DUP4 PUSH3 0x276 PUSH1 0x20 SHL PUSH1 0x20 SHR JUMP JUMPDEST DUP1 PUSH1 0x2 PUSH1 0x0 DUP3 DUP3 SLOAD PUSH3 0x198 SWAP2 SWAP1 PUSH3 0x929 JUMP JUMPDEST SWAP3 POP POP DUP2 SWAP1 SSTORE POP DUP1 PUSH1 0x0 DUP1 DUP5 PUSH20 0xFFFFFFFFFFFFFFFFFFFFFFFFFFFFFFFFFFFFFFFF AND PUSH20 0xFFFFFFFFFFFFFFFFFFFFFFFFFFFFFFFFFFFFFFFF AND DUP2 MSTORE PUSH1 0x20 ADD SWAP1 DUP2 MSTORE PUSH1 0x20 ADD PUSH1 0x0 KECCAK256 PUSH1 0x0 DUP3 DUP3 SLOAD PUSH3 0x1EF SWAP2 SWAP1 PUSH3 0x929 JUMP JUMPDEST SWAP3 POP POP DUP2 SWAP1 SSTORE POP DUP2 PUSH20 0xFFFFFFFFFFFFFFFFFFFFFFFFFFFFFFFFFFFFFFFF AND PUSH1 0x0 PUSH20 0xFFFFFFFFFFFFFFFFFFFFFFFFFFFFFFFFFFFFFFFF AND PUSH32 0xDDF252AD1BE2C89B69C2B068FC378DAA952BA7F163C4A11628F55A4DF523B3EF DUP4 PUSH1 0x40 MLOAD PUSH3 0x256 SWAP2 SWAP1 PUSH3 0x997 JUMP JUMPDEST PUSH1 0x40 MLOAD DUP1 SWAP2 SUB SWAP1 LOG3 PUSH3 0x272 PUSH1 0x0 DUP4 DUP4 PUSH3 0x27B PUSH1 0x20 SHL PUSH1 0x20 SHR JUMP JUMPDEST POP POP JUMP JUMPDEST POP POP POP JUMP JUMPDEST POP POP POP JUMP JUMPDEST DUP3 DUP1 SLOAD PUSH3 0x28E SWAP1 PUSH3 0x9E3 JUMP JUMPDEST SWAP1 PUSH1 0x0 MSTORE PUSH1 0x20 PUSH1 0x0 KECCAK256 SWAP1 PUSH1 0x1F ADD PUSH1 0x20 SWAP1 DIV DUP2 ADD SWAP3 DUP3 PUSH3 0x2B2 JUMPI PUSH1 0x0 DUP6 SSTORE PUSH3 0x2FE JUMP JUMPDEST DUP3 PUSH1 0x1F LT PUSH3 0x2CD JUMPI DUP1 MLOAD PUSH1 0xFF NOT AND DUP4 DUP1 ADD OR DUP6 SSTORE PUSH3 0x2FE JUMP JUMPDEST DUP3 DUP1 ADD PUSH1 0x1 ADD DUP6 SSTORE DUP3 ISZERO PUSH3 0x2FE JUMPI SWAP2 DUP3 ADD JUMPDEST DUP3 DUP2 GT ISZERO PUSH3 0x2FD JUMPI DUP3 MLOAD DUP3 SSTORE SWAP2 PUSH1 0x20 ADD SWAP2 SWAP1 PUSH1 0x1 ADD SWAP1 PUSH3 0x2E0 JUMP JUMPDEST JUMPDEST POP SWAP1 POP PUSH3 0x30D SWAP2 SWAP1 PUSH3 0x311 JUMP JUMPDEST POP SWAP1 JUMP JUMPDEST JUMPDEST DUP1 DUP3 GT ISZERO PUSH3 0x32C JUMPI PUSH1 0x0 DUP2 PUSH1 0x0 SWAP1 SSTORE POP PUSH1 0x1 ADD PUSH3 0x312 JUMP JUMPDEST POP SWAP1 JUMP JUMPDEST PUSH1 0x0 PUSH1 0x40 MLOAD SWAP1 POP SWAP1 JUMP JUMPDEST PUSH1 0x0 DUP1 REVERT JUMPDEST PUSH1 0x0 DUP1 REVERT JUMPDEST PUSH1 0x0 DUP1 REVERT JUMPDEST PUSH1 0x0 DUP1 REVERT JUMPDEST PUSH1 0x0 PUSH1 0x1F NOT PUSH1 0x1F DUP4 ADD AND SWAP1 POP SWAP2 SWAP1 POP JUMP JUMPDEST PUSH32 0x4E487B7100000000000000000000000000000000000000000000000000000000 PUSH1 0x0 MSTORE PUSH1 0x41 PUSH1 0x4 MSTORE PUSH1 0x24 PUSH1 0x0 REVERT JUMPDEST PUSH3 0x399 DUP3 PUSH3 0x34E JUMP JUMPDEST DUP2 ADD DUP2 DUP2 LT PUSH8 0xFFFFFFFFFFFFFFFF DUP3 GT OR ISZERO PUSH3 0x3BB JUMPI PUSH3 0x3BA PUSH3 0x35F JUMP JUMPDEST JUMPDEST DUP1 PUSH1 0x40 MSTORE POP POP POP JUMP JUMPDEST PUSH1 0x0 PUSH3 0x3D0 PUSH3 0x330 JUMP JUMPDEST SWAP1 POP PUSH3 0x3DE DUP3 DUP3 PUSH3 0x38E JUMP JUMPDEST SWAP2 SWAP1 POP JUMP JUMPDEST PUSH1 0x0 PUSH8 0xFFFFFFFFFFFFFFFF DUP3 GT ISZERO PUSH3 0x401 JUMPI PUSH3 0x400 PUSH3 0x35F JUMP JUMPDEST JUMPDEST PUSH3 0x40C DUP3 PUSH3 0x34E JUMP JUMPDEST SWAP1 POP PUSH1 0x20 DUP2 ADD SWAP1 POP SWAP2 SWAP1 POP JUMP JUMPDEST PUSH1 0x0 JUMPDEST DUP4 DUP2 LT ISZERO PUSH3 0x439 JUMPI DUP1 DUP3 ADD MLOAD DUP2 DUP5 ADD MSTORE PUSH1 0x20 DUP2 ADD SWAP1 POP PUSH3 0x41C JUMP JUMPDEST DUP4 DUP2 GT ISZERO PUSH3 0x449 JUMPI PUSH1 0x0 DUP5 DUP5 ADD MSTORE JUMPDEST POP POP POP POP JUMP JUMPDEST PUSH1 0x0 PUSH3 0x466 PUSH3 0x460 DUP5 PUSH3 0x3E3 JUMP JUMPDEST PUSH3 0x3C4 JUMP JUMPDEST SWAP1 POP DUP3 DUP2 MSTORE PUSH1 0x20 DUP2 ADD DUP5 DUP5 DUP5 ADD GT ISZERO PUSH3 0x485 JUMPI PUSH3 0x484 PUSH3 0x349 JUMP JUMPDEST JUMPDEST PUSH3 0x492 DUP5 DUP3 DUP6 PUSH3 0x419 JUMP JUMPDEST POP SWAP4 SWAP3 POP POP POP JUMP JUMPDEST PUSH1 0x0 DUP3 PUSH1 0x1F DUP4 ADD SLT PUSH3 0x4B2 JUMPI PUSH3 0x4B1 PUSH3 0x344 JUMP JUMPDEST JUMPDEST DUP2 MLOAD PUSH3 0x4C4 DUP5 DUP3 PUSH1 0x20 DUP7 ADD PUSH3 0x44F JUMP JUMPDEST SWAP2 POP POP SWAP3 SWAP2 POP POP JUMP JUMPDEST PUSH1 0x0 PUSH1 0xFF DUP3 AND SWAP1 POP SWAP2 SWAP1 POP JUMP JUMPDEST PUSH3 0x4E5 DUP2 PUSH3 0x4CD JUMP JUMPDEST DUP2 EQ PUSH3 0x4F1 JUMPI PUSH1 0x0 DUP1 REVERT JUMPDEST POP JUMP JUMPDEST PUSH1 0x0 DUP2 MLOAD SWAP1 POP PUSH3 0x505 DUP2 PUSH3 0x4DA JUMP JUMPDEST SWAP3 SWAP2 POP POP JUMP JUMPDEST PUSH1 0x0 DUP2 SWAP1 POP SWAP2 SWAP1 POP JUMP JUMPDEST PUSH3 0x520 DUP2 PUSH3 0x50B JUMP JUMPDEST DUP2 EQ PUSH3 0x52C JUMPI PUSH1 0x0 DUP1 REVERT JUMPDEST POP JUMP JUMPDEST PUSH1 0x0 DUP2 MLOAD SWAP1 POP PUSH3 0x540 DUP2 PUSH3 0x515 JUMP JUMPDEST SWAP3 SWAP2 POP POP JUMP JUMPDEST PUSH1 0x0 PUSH20 0xFFFFFFFFFFFFFFFFFFFFFFFFFFFFFFFFFFFFFFFF DUP3 AND SWAP1 POP SWAP2 SWAP1 POP JUMP JUMPDEST PUSH1 0x0 PUSH3 0x573 DUP3 PUSH3 0x546 JUMP JUMPDEST SWAP1 POP SWAP2 SWAP1 POP JUMP JUMPDEST PUSH3 0x585 DUP2 PUSH3 0x566 JUMP JUMPDEST DUP2 EQ PUSH3 0x591 JUMPI PUSH1 0x0 DUP1 REVERT JUMPDEST POP JUMP JUMPDEST PUSH1 0x0 DUP2 MLOAD SWAP1 POP PUSH3 0x5A5 DUP2 PUSH3 0x57A JUMP JUMPDEST SWAP3 SWAP2 POP POP JUMP JUMPDEST PUSH1 0x0 DUP1 PUSH1 0x0 DUP1 PUSH1 0x0 PUSH1 0xA0 DUP7 DUP9 SUB SLT ISZERO PUSH3 0x5CA JUMPI PUSH3 0x5C9 PUSH3 0x33A JUMP JUMPDEST JUMPDEST PUSH1 0x0 DUP7 ADD MLOAD PUSH8 0xFFFFFFFFFFFFFFFF DUP2 GT ISZERO PUSH3 0x5EB JUMPI PUSH3 0x5EA PUSH3 0x33F JUMP JUMPDEST JUMPDEST PUSH3 0x5F9 DUP9 DUP3 DUP10 ADD PUSH3 0x49A JUMP JUMPDEST SWAP6 POP POP PUSH1 0x20 DUP7 ADD MLOAD PUSH8 0xFFFFFFFFFFFFFFFF DUP2 GT ISZERO PUSH3 0x61D JUMPI PUSH3 0x61C PUSH3 0x33F JUMP JUMPDEST JUMPDEST PUSH3 0x62B DUP9 DUP3 DUP10 ADD PUSH3 0x49A JUMP JUMPDEST SWAP5 POP POP PUSH1 0x40 PUSH3 0x63E DUP9 DUP3 DUP10 ADD PUSH3 0x4F4 JUMP JUMPDEST SWAP4 POP POP PUSH1 0x60 PUSH3 0x651 DUP9 DUP3 DUP10 ADD PUSH3 0x52F JUMP JUMPDEST SWAP3 POP POP PUSH1 0x80 PUSH3 0x664 DUP9 DUP3 DUP10 ADD PUSH3 0x594 JUMP JUMPDEST SWAP2 POP POP SWAP3 SWAP6 POP SWAP3 SWAP6 SWAP1 SWAP4 POP JUMP JUMPDEST PUSH32 0x4E487B7100000000000000000000000000000000000000000000000000000000 PUSH1 0x0 MSTORE PUSH1 0x11 PUSH1 0x4 MSTORE PUSH1 0x24 PUSH1 0x0 REVERT JUMPDEST PUSH1 0x0 DUP2 PUSH1 0x1 SHR SWAP1 POP SWAP2 SWAP1 POP JUMP JUMPDEST PUSH1 0x0 DUP1 DUP3 SWAP2 POP DUP4 SWAP1 POP JUMPDEST PUSH1 0x1 DUP6 GT ISZERO PUSH3 0x6FF JUMPI DUP1 DUP7 DIV DUP2 GT ISZERO PUSH3 0x6D7 JUMPI PUSH3 0x6D6 PUSH3 0x671 JUMP JUMPDEST JUMPDEST PUSH1 0x1 DUP6 AND ISZERO PUSH3 0x6E7 JUMPI DUP1 DUP3 MUL SWAP2 POP JUMPDEST DUP1 DUP2 MUL SWAP1 POP PUSH3 0x6F7 DUP6 PUSH3 0x6A0 JUMP JUMPDEST SWAP5 POP PUSH3 0x6B7 JUMP JUMPDEST SWAP5 POP SWAP5 SWAP3 POP POP POP JUMP JUMPDEST PUSH1 0x0 DUP3 PUSH3 0x71A JUMPI PUSH1 0x1 SWAP1 POP PUSH3 0x7ED JUMP JUMPDEST DUP2 PUSH3 0x72A JUMPI PUSH1 0x0 SWAP1 POP PUSH3 0x7ED JUMP JUMPDEST DUP2 PUSH1 0x1 DUP2 EQ PUSH3 0x743 JUMPI PUSH1 0x2 DUP2 EQ PUSH3 0x74E JUMPI PUSH3 0x784 JUMP JUMPDEST PUSH1 0x1 SWAP2 POP POP PUSH3 0x7ED JUMP JUMPDEST PUSH1 0xFF DUP5 GT ISZERO PUSH3 0x763 JUMPI PUSH3 0x762 PUSH3 0x671 JUMP JUMPDEST JUMPDEST DUP4 PUSH1 0x2 EXP SWAP2 POP DUP5 DUP3 GT ISZERO PUSH3 0x77D JUMPI PUSH3 0x77C PUSH3 0x671 JUMP JUMPDEST JUMPDEST POP PUSH3 0x7ED JUMP JUMPDEST POP PUSH1 0x20 DUP4 LT PUSH2 0x133 DUP4 LT AND PUSH1 0x4E DUP5 LT PUSH1 0xB DUP5 LT AND OR ISZERO PUSH3 0x7BE JUMPI DUP3 DUP3 EXP SWAP1 POP DUP4 DUP2 GT ISZERO PUSH3 0x7B8 JUMPI PUSH3 0x7B7 PUSH3 0x671 JUMP JUMPDEST JUMPDEST PUSH3 0x7ED JUMP JUMPDEST PUSH3 0x7CD DUP5 DUP5 DUP5 PUSH1 0x1 PUSH3 0x6AD JUMP JUMPDEST SWAP3 POP SWAP1 POP DUP2 DUP5 DIV DUP2 GT ISZERO PUSH3 0x7E7 JUMPI PUSH3 0x7E6 PUSH3 0x671 JUMP JUMPDEST JUMPDEST DUP2 DUP2 MUL SWAP1 POP JUMPDEST SWAP4 SWAP3 POP POP POP JUMP JUMPDEST PUSH1 0x0 PUSH3 0x801 DUP3 PUSH3 0x50B JUMP JUMPDEST SWAP2 POP PUSH3 0x80E DUP4 PUSH3 0x4CD JUMP JUMPDEST SWAP3 POP PUSH3 0x83D PUSH32 0xFFFFFFFFFFFFFFFFFFFFFFFFFFFFFFFFFFFFFFFFFFFFFFFFFFFFFFFFFFFFFFFF DUP5 DUP5 PUSH3 0x708 JUMP JUMPDEST SWAP1 POP SWAP3 SWAP2 POP POP JUMP JUMPDEST PUSH1 0x0 PUSH3 0x852 DUP3 PUSH3 0x50B JUMP JUMPDEST SWAP2 POP PUSH3 0x85F DUP4 PUSH3 0x50B JUMP JUMPDEST SWAP3 POP DUP2 PUSH32 0xFFFFFFFFFFFFFFFFFFFFFFFFFFFFFFFFFFFFFFFFFFFFFFFFFFFFFFFFFFFFFFFF DIV DUP4 GT DUP3 ISZERO ISZERO AND ISZERO PUSH3 0x89B JUMPI PUSH3 0x89A PUSH3 0x671 JUMP JUMPDEST JUMPDEST DUP3 DUP3 MUL SWAP1 POP SWAP3 SWAP2 POP POP JUMP JUMPDEST PUSH1 0x0 DUP3 DUP3 MSTORE PUSH1 0x20 DUP3 ADD SWAP1 POP SWAP3 SWAP2 POP POP JUMP JUMPDEST PUSH32 0x45524332303A206D696E7420746F20746865207A65726F206164647265737300 PUSH1 0x0 DUP3 ADD MSTORE POP JUMP JUMPDEST PUSH1 0x0 PUSH3 0x8EF PUSH1 0x1F DUP4 PUSH3 0x8A6 JUMP JUMPDEST SWAP2 POP PUSH3 0x8FC DUP3 PUSH3 0x8B7 JUMP JUMPDEST PUSH1 0x20 DUP3 ADD SWAP1 POP SWAP2 SWAP1 POP JUMP JUMPDEST PUSH1 0x0 PUSH1 0x20 DUP3 ADD SWAP1 POP DUP2 DUP2 SUB PUSH1 0x0 DUP4 ADD MSTORE PUSH3 0x922 DUP2 PUSH3 0x8E0 JUMP JUMPDEST SWAP1 POP SWAP2 SWAP1 POP JUMP JUMPDEST PUSH1 0x0 PUSH3 0x936 DUP3 PUSH3 0x50B JUMP JUMPDEST SWAP2 POP PUSH3 0x943 DUP4 PUSH3 0x50B JUMP JUMPDEST SWAP3 POP DUP3 PUSH32 0xFFFFFFFFFFFFFFFFFFFFFFFFFFFFFFFFFFFFFFFFFFFFFFFFFFFFFFFFFFFFFFFF SUB DUP3 GT ISZERO PUSH3 0x97B JUMPI PUSH3 0x97A PUSH3 0x671 JUMP JUMPDEST JUMPDEST DUP3 DUP3 ADD SWAP1 POP SWAP3 SWAP2 POP POP JUMP JUMPDEST PUSH3 0x991 DUP2 PUSH3 0x50B JUMP JUMPDEST DUP3 MSTORE POP POP JUMP JUMPDEST PUSH1 0x0 PUSH1 0x20 DUP3 ADD SWAP1 POP PUSH3 0x9AE PUSH1 0x0 DUP4 ADD DUP5 PUSH3 0x986 JUMP JUMPDEST SWAP3 SWAP2 POP POP JUMP JUMPDEST PUSH32 0x4E487B7100000000000000000000000000000000000000000000000000000000 PUSH1 0x0 MSTORE PUSH1 0x22 PUSH1 0x4 MSTORE PUSH1 0x24 PUSH1 0x0 REVERT JUMPDEST PUSH1 0x0 PUSH1 0x2 DUP3 DIV SWAP1 POP PUSH1 0x1 DUP3 AND DUP1 PUSH3 0x9FC JUMPI PUSH1 0x7F DUP3 AND SWAP2 POP JUMPDEST PUSH1 0x20 DUP3 LT DUP2 SUB PUSH3 0xA12 JUMPI PUSH3 0xA11 PUSH3 0x9B4 JUMP JUMPDEST JUMPDEST POP SWAP2 SWAP1 POP JUMP JUMPDEST PUSH2 0x1E83 DUP1 PUSH3 0xA28 PUSH1 0x0 CODECOPY PUSH1 0x0 RETURN INVALID PUSH1 0x80 PUSH1 0x40 MSTORE PUSH1 0x4 CALLDATASIZE LT PUSH2 0xF7 JUMPI PUSH1 0x0 CALLDATALOAD PUSH1 0xE0 SHR DUP1 PUSH4 0x40C10F19 GT PUSH2 0x8A JUMPI DUP1 PUSH4 0xA457C2D7 GT PUSH2 0x59 JUMPI DUP1 PUSH4 0xA457C2D7 EQ PUSH2 0x325 JUMPI DUP1 PUSH4 0xA9059CBB EQ PUSH2 0x362 JUMPI DUP1 PUSH4 0xDD62ED3E EQ PUSH2 0x39F JUMPI DUP1 PUSH4 0xFC6F9468 EQ PUSH2 0x3DC JUMPI PUSH2 0xFE JUMP JUMPDEST DUP1 PUSH4 0x40C10F19 EQ PUSH2 0x278 JUMPI DUP1 PUSH4 0x70A08231 EQ PUSH2 0x2A1 JUMPI DUP1 PUSH4 0x89476069 EQ PUSH2 0x2DE JUMPI DUP1 PUSH4 0x95D89B41 EQ PUSH2 0x2FA JUMPI PUSH2 0xFE JUMP JUMPDEST DUP1 PUSH4 0x313CE567 GT PUSH2 0xC6 JUMPI DUP1 PUSH4 0x313CE567 EQ PUSH2 0x1D0 JUMPI DUP1 PUSH4 0x39509351 EQ PUSH2 0x1FB JUMPI DUP1 PUSH4 0x3CCFD60B EQ PUSH2 0x238 JUMPI DUP1 PUSH4 0x3D128EEC EQ PUSH2 0x24F JUMPI PUSH2 0xFE JUMP JUMPDEST DUP1 PUSH4 0x6FDDE03 EQ PUSH2 0x100 JUMPI DUP1 PUSH4 0x95EA7B3 EQ PUSH2 0x12B JUMPI DUP1 PUSH4 0x18160DDD EQ PUSH2 0x168 JUMPI DUP1 PUSH4 0x23B872DD EQ PUSH2 0x193 JUMPI PUSH2 0xFE JUMP JUMPDEST CALLDATASIZE PUSH2 0xFE JUMPI STOP JUMPDEST STOP JUMPDEST CALLVALUE DUP1 ISZERO PUSH2 0x10C JUMPI PUSH1 0x0 DUP1 REVERT JUMPDEST POP PUSH2 0x115 PUSH2 0x407 JUMP JUMPDEST PUSH1 0x40 MLOAD PUSH2 0x122 SWAP2 SWAP1 PUSH2 0x12F9 JUMP JUMPDEST PUSH1 0x40 MLOAD DUP1 SWAP2 SUB SWAP1 RETURN JUMPDEST CALLVALUE DUP1 ISZERO PUSH2 0x137 JUMPI PUSH1 0x0 DUP1 REVERT JUMPDEST POP PUSH2 0x152 PUSH1 0x4 DUP1 CALLDATASIZE SUB DUP2 ADD SWAP1 PUSH2 0x14D SWAP2 SWAP1 PUSH2 0x13B4 JUMP JUMPDEST PUSH2 0x499 JUMP JUMPDEST PUSH1 0x40 MLOAD PUSH2 0x15F SWAP2 SWAP1 PUSH2 0x140F JUMP JUMPDEST PUSH1 0x40 MLOAD DUP1 SWAP2 SUB SWAP1 RETURN JUMPDEST CALLVALUE DUP1 ISZERO PUSH2 0x174 JUMPI PUSH1 0x0 DUP1 REVERT JUMPDEST POP PUSH2 0x17D PUSH2 0x4B5 JUMP JUMPDEST PUSH1 0x40 MLOAD PUSH2 0x18A SWAP2 SWAP1 PUSH2 0x1439 JUMP JUMPDEST PUSH1 0x40 MLOAD DUP1 SWAP2 SUB SWAP1 RETURN JUMPDEST CALLVALUE DUP1 ISZERO PUSH2 0x19F JUMPI PUSH1 0x0 DUP1 REVERT JUMPDEST POP PUSH2 0x1BA PUSH1 0x4 DUP1 CALLDATASIZE SUB DUP2 ADD SWAP1 PUSH2 0x1B5 SWAP2 SWAP1 PUSH2 0x1454 JUMP JUMPDEST PUSH2 0x4BF JUMP JUMPDEST PUSH1 0x40 MLOAD PUSH2 0x1C7 SWAP2 SWAP1 PUSH2 0x140F JUMP JUMPDEST PUSH1 0x40 MLOAD DUP1 SWAP2 SUB SWAP1 RETURN JUMPDEST CALLVALUE DUP1 ISZERO PUSH2 0x1DC JUMPI PUSH1 0x0 DUP1 REVERT JUMPDEST POP PUSH2 0x1E5 PUSH2 0x4E7 JUMP JUMPDEST PUSH1 0x40 MLOAD PUSH2 0x1F2 SWAP2 SWAP1 PUSH2 0x14C3 JUMP JUMPDEST PUSH1 0x40 MLOAD DUP1 SWAP2 SUB SWAP1 RETURN JUMPDEST CALLVALUE DUP1 ISZERO PUSH2 0x207 JUMPI PUSH1 0x0 DUP1 REVERT JUMPDEST POP PUSH2 0x222 PUSH1 0x4 DUP1 CALLDATASIZE SUB DUP2 ADD SWAP1 PUSH2 0x21D SWAP2 SWAP1 PUSH2 0x13B4 JUMP JUMPDEST PUSH2 0x4FE JUMP JUMPDEST PUSH1 0x40 MLOAD PUSH2 0x22F SWAP2 SWAP1 PUSH2 0x140F JUMP JUMPDEST PUSH1 0x40 MLOAD DUP1 SWAP2 SUB SWAP1 RETURN JUMPDEST CALLVALUE DUP1 ISZERO PUSH2 0x244 JUMPI PUSH1 0x0 DUP1 REVERT JUMPDEST POP PUSH2 0x24D PUSH2 0x5A1 JUMP JUMPDEST STOP JUMPDEST CALLVALUE DUP1 ISZERO PUSH2 0x25B JUMPI PUSH1 0x0 DUP1 REVERT JUMPDEST POP PUSH2 0x276 PUSH1 0x4 DUP1 CALLDATASIZE SUB DUP2 ADD SWAP1 PUSH2 0x271 SWAP2 SWAP1 PUSH2 0x14DE JUMP JUMPDEST PUSH2 0x67A JUMP JUMPDEST STOP JUMPDEST CALLVALUE DUP1 ISZERO PUSH2 0x284 JUMPI PUSH1 0x0 DUP1 REVERT JUMPDEST POP PUSH2 0x29F PUSH1 0x4 DUP1 CALLDATASIZE SUB DUP2 ADD SWAP1 PUSH2 0x29A SWAP2 SWAP1 PUSH2 0x13B4 JUMP JUMPDEST PUSH2 0x74E JUMP JUMPDEST STOP JUMPDEST CALLVALUE DUP1 ISZERO PUSH2 0x2AD JUMPI PUSH1 0x0 DUP1 REVERT JUMPDEST POP PUSH2 0x2C8 PUSH1 0x4 DUP1 CALLDATASIZE SUB DUP2 ADD SWAP1 PUSH2 0x2C3 SWAP2 SWAP1 PUSH2 0x14DE JUMP JUMPDEST PUSH2 0x812 JUMP JUMPDEST PUSH1 0x40 MLOAD PUSH2 0x2D5 SWAP2 SWAP1 PUSH2 0x1439 JUMP JUMPDEST PUSH1 0x40 MLOAD DUP1 SWAP2 SUB SWAP1 RETURN JUMPDEST PUSH2 0x2F8 PUSH1 0x4 DUP1 CALLDATASIZE SUB DUP2 ADD SWAP1 PUSH2 0x2F3 SWAP2 SWAP1 PUSH2 0x1549 JUMP JUMPDEST PUSH2 0x85A JUMP JUMPDEST STOP JUMPDEST CALLVALUE DUP1 ISZERO PUSH2 0x306 JUMPI PUSH1 0x0 DUP1 REVERT JUMPDEST POP PUSH2 0x30F PUSH2 0x9E5 JUMP JUMPDEST PUSH1 0x40 MLOAD PUSH2 0x31C SWAP2 SWAP1 PUSH2 0x12F9 JUMP JUMPDEST PUSH1 0x40 MLOAD DUP1 SWAP2 SUB SWAP1 RETURN JUMPDEST CALLVALUE DUP1 ISZERO PUSH2 0x331 JUMPI PUSH1 0x0 DUP1 REVERT JUMPDEST POP PUSH2 0x34C PUSH1 0x4 DUP1 CALLDATASIZE SUB DUP2 ADD SWAP1 PUSH2 0x347 SWAP2 SWAP1 PUSH2 0x13B4 JUMP JUMPDEST PUSH2 0xA77 JUMP JUMPDEST PUSH1 0x40 MLOAD PUSH2 0x359 SWAP2 SWAP1 PUSH2 0x140F JUMP JUMPDEST PUSH1 0x40 MLOAD DUP1 SWAP2 SUB SWAP1 RETURN JUMPDEST CALLVALUE DUP1 ISZERO PUSH2 0x36E JUMPI PUSH1 0x0 DUP1 REVERT JUMPDEST POP PUSH2 0x389 PUSH1 0x4 DUP1 CALLDATASIZE SUB DUP2 ADD SWAP1 PUSH2 0x384 SWAP2 SWAP1 PUSH2 0x13B4 JUMP JUMPDEST PUSH2 0xB5A JUMP JUMPDEST PUSH1 0x40 MLOAD PUSH2 0x396 SWAP2 SWAP1 PUSH2 0x140F JUMP JUMPDEST PUSH1 0x40 MLOAD DUP1 SWAP2 SUB SWAP1 RETURN JUMPDEST CALLVALUE DUP1 ISZERO PUSH2 0x3AB JUMPI PUSH1 0x0 DUP1 REVERT JUMPDEST POP PUSH2 0x3C6 PUSH1 0x4 DUP1 CALLDATASIZE SUB DUP2 ADD SWAP1 PUSH2 0x3C1 SWAP2 SWAP1 PUSH2 0x1576 JUMP JUMPDEST PUSH2 0xB76 JUMP JUMPDEST PUSH1 0x40 MLOAD PUSH2 0x3D3 SWAP2 SWAP1 PUSH2 0x1439 JUMP JUMPDEST PUSH1 0x40 MLOAD DUP1 SWAP2 SUB SWAP1 RETURN JUMPDEST CALLVALUE DUP1 ISZERO PUSH2 0x3E8 JUMPI PUSH1 0x0 DUP1 REVERT JUMPDEST POP PUSH2 0x3F1 PUSH2 0xBFD JUMP JUMPDEST PUSH1 0x40 MLOAD PUSH2 0x3FE SWAP2 SWAP1 PUSH2 0x15D7 JUMP JUMPDEST PUSH1 0x40 MLOAD DUP1 SWAP2 SUB SWAP1 RETURN JUMPDEST PUSH1 0x60 PUSH1 0x3 DUP1 SLOAD PUSH2 0x416 SWAP1 PUSH2 0x1621 JUMP JUMPDEST DUP1 PUSH1 0x1F ADD PUSH1 0x20 DUP1 SWAP2 DIV MUL PUSH1 0x20 ADD PUSH1 0x40 MLOAD SWAP1 DUP2 ADD PUSH1 0x40 MSTORE DUP1 SWAP3 SWAP2 SWAP1 DUP2 DUP2 MSTORE PUSH1 0x20 ADD DUP3 DUP1 SLOAD PUSH2 0x442 SWAP1 PUSH2 0x1621 JUMP JUMPDEST DUP1 ISZERO PUSH2 0x48F JUMPI DUP1 PUSH1 0x1F LT PUSH2 0x464 JUMPI PUSH2 0x100 DUP1 DUP4 SLOAD DIV MUL DUP4 MSTORE SWAP2 PUSH1 0x20 ADD SWAP2 PUSH2 0x48F JUMP JUMPDEST DUP3 ADD SWAP2 SWAP1 PUSH1 0x0 MSTORE PUSH1 0x20 PUSH1 0x0 KECCAK256 SWAP1 JUMPDEST DUP2 SLOAD DUP2 MSTORE SWAP1 PUSH1 0x1 ADD SWAP1 PUSH1 0x20 ADD DUP1 DUP4 GT PUSH2 0x472 JUMPI DUP3 SWAP1 SUB PUSH1 0x1F AND DUP3 ADD SWAP2 JUMPDEST POP POP POP POP POP SWAP1 POP SWAP1 JUMP JUMPDEST PUSH1 0x0 DUP1 CALLER SWAP1 POP PUSH2 0x4AA DUP2 DUP6 DUP6 PUSH2 0xC23 JUMP JUMPDEST PUSH1 0x1 SWAP2 POP POP SWAP3 SWAP2 POP POP JUMP JUMPDEST PUSH1 0x0 PUSH1 0x2 SLOAD SWAP1 POP SWAP1 JUMP JUMPDEST PUSH1 0x0 DUP1 CALLER SWAP1 POP PUSH2 0x4D0 DUP6 DUP3 DUP6 PUSH2 0xDEC JUMP JUMPDEST PUSH2 0x4DB DUP6 DUP6 DUP6 PUSH2 0xE78 JUMP JUMPDEST PUSH1 0x1 SWAP2 POP POP SWAP4 SWAP3 POP POP POP JUMP JUMPDEST PUSH1 0x0 PUSH1 0x5 PUSH1 0x0 SWAP1 SLOAD SWAP1 PUSH2 0x100 EXP SWAP1 DIV PUSH1 0xFF AND SWAP1 POP SWAP1 JUMP JUMPDEST PUSH1 0x0 DUP1 CALLER SWAP1 POP PUSH2 0x596 DUP2 DUP6 DUP6 PUSH1 0x1 PUSH1 0x0 DUP7 PUSH20 0xFFFFFFFFFFFFFFFFFFFFFFFFFFFFFFFFFFFFFFFF AND PUSH20 0xFFFFFFFFFFFFFFFFFFFFFFFFFFFFFFFFFFFFFFFF AND DUP2 MSTORE PUSH1 0x20 ADD SWAP1 DUP2 MSTORE PUSH1 0x20 ADD PUSH1 0x0 KECCAK256 PUSH1 0x0 DUP10 PUSH20 0xFFFFFFFFFFFFFFFFFFFFFFFFFFFFFFFFFFFFFFFF AND PUSH20 0xFFFFFFFFFFFFFFFFFFFFFFFFFFFFFFFFFFFFFFFF AND DUP2 MSTORE PUSH1 0x20 ADD SWAP1 DUP2 MSTORE PUSH1 0x20 ADD PUSH1 0x0 KECCAK256 SLOAD PUSH2 0x591 SWAP2 SWAP1 PUSH2 0x1681 JUMP JUMPDEST PUSH2 0xC23 JUMP JUMPDEST PUSH1 0x1 SWAP2 POP POP SWAP3 SWAP2 POP POP JUMP JUMPDEST PUSH1 0x5 PUSH1 0x1 SWAP1 SLOAD SWAP1 PUSH2 0x100 EXP SWAP1 DIV PUSH20 0xFFFFFFFFFFFFFFFFFFFFFFFFFFFFFFFFFFFFFFFF AND PUSH20 0xFFFFFFFFFFFFFFFFFFFFFFFFFFFFFFFFFFFFFFFF AND CALLER PUSH20 0xFFFFFFFFFFFFFFFFFFFFFFFFFFFFFFFFFFFFFFFF AND EQ PUSH2 0x631 JUMPI PUSH1 0x40 MLOAD PUSH32 0x8C379A000000000000000000000000000000000000000000000000000000000 DUP2 MSTORE PUSH1 0x4 ADD PUSH2 0x628 SWAP1 PUSH2 0x1723 JUMP JUMPDEST PUSH1 0x40 MLOAD DUP1 SWAP2 SUB SWAP1 REVERT JUMPDEST CALLER PUSH20 0xFFFFFFFFFFFFFFFFFFFFFFFFFFFFFFFFFFFFFFFF AND PUSH2 0x8FC SELFBALANCE SWAP1 DUP2 ISZERO MUL SWAP1 PUSH1 0x40 MLOAD PUSH1 0x0 PUSH1 0x40 MLOAD DUP1 DUP4 SUB DUP2 DUP6 DUP9 DUP9 CALL SWAP4 POP POP POP POP ISZERO DUP1 ISZERO PUSH2 0x677 JUMPI RETURNDATASIZE PUSH1 0x0 DUP1 RETURNDATACOPY RETURNDATASIZE PUSH1 0x0 REVERT JUMPDEST POP JUMP JUMPDEST PUSH1 0x5 PUSH1 0x1 SWAP1 SLOAD SWAP1 PUSH2 0x100 EXP SWAP1 DIV PUSH20 0xFFFFFFFFFFFFFFFFFFFFFFFFFFFFFFFFFFFFFFFF AND PUSH20 0xFFFFFFFFFFFFFFFFFFFFFFFFFFFFFFFFFFFFFFFF AND CALLER PUSH20 0xFFFFFFFFFFFFFFFFFFFFFFFFFFFFFFFFFFFFFFFF AND EQ PUSH2 0x70A JUMPI PUSH1 0x40 MLOAD PUSH32 0x8C379A000000000000000000000000000000000000000000000000000000000 DUP2 MSTORE PUSH1 0x4 ADD PUSH2 0x701 SWAP1 PUSH2 0x1723 JUMP JUMPDEST PUSH1 0x40 MLOAD DUP1 SWAP2 SUB SWAP1 REVERT JUMPDEST DUP1 PUSH1 0x5 PUSH1 0x1 PUSH2 0x100 EXP DUP2 SLOAD DUP2 PUSH20 0xFFFFFFFFFFFFFFFFFFFFFFFFFFFFFFFFFFFFFFFF MUL NOT AND SWAP1 DUP4 PUSH20 0xFFFFFFFFFFFFFFFFFFFFFFFFFFFFFFFFFFFFFFFF AND MUL OR SWAP1 SSTORE POP POP JUMP JUMPDEST PUSH1 0x5 PUSH1 0x1 SWAP1 SLOAD SWAP1 PUSH2 0x100 EXP SWAP1 DIV PUSH20 0xFFFFFFFFFFFFFFFFFFFFFFFFFFFFFFFFFFFFFFFF AND PUSH20 0xFFFFFFFFFFFFFFFFFFFFFFFFFFFFFFFFFFFFFFFF AND CALLER PUSH20 0xFFFFFFFFFFFFFFFFFFFFFFFFFFFFFFFFFFFFFFFF AND EQ PUSH2 0x7DE JUMPI PUSH1 0x40 MLOAD PUSH32 0x8C379A000000000000000000000000000000000000000000000000000000000 DUP2 MSTORE PUSH1 0x4 ADD PUSH2 0x7D5 SWAP1 PUSH2 0x1723 JUMP JUMPDEST PUSH1 0x40 MLOAD DUP1 SWAP2 SUB SWAP1 REVERT JUMPDEST PUSH2 0x80E DUP3 PUSH1 0x5 PUSH1 0x0 SWAP1 SLOAD SWAP1 PUSH2 0x100 EXP SWAP1 DIV PUSH1 0xFF AND PUSH1 0xA PUSH2 0x7FE SWAP2 SWAP1 PUSH2 0x1876 JUMP JUMPDEST DUP4 PUSH2 0x809 SWAP2 SWAP1 PUSH2 0x18C1 JUMP JUMPDEST PUSH2 0x10F7 JUMP JUMPDEST POP POP JUMP JUMPDEST PUSH1 0x0 DUP1 PUSH1 0x0 DUP4 PUSH20 0xFFFFFFFFFFFFFFFFFFFFFFFFFFFFFFFFFFFFFFFF AND PUSH20 0xFFFFFFFFFFFFFFFFFFFFFFFFFFFFFFFFFFFFFFFF AND DUP2 MSTORE PUSH1 0x20 ADD SWAP1 DUP2 MSTORE PUSH1 0x20 ADD PUSH1 0x0 KECCAK256 SLOAD SWAP1 POP SWAP2 SWAP1 POP JUMP JUMPDEST PUSH1 0x5 PUSH1 0x1 SWAP1 SLOAD SWAP1 PUSH2 0x100 EXP SWAP1 DIV PUSH20 0xFFFFFFFFFFFFFFFFFFFFFFFFFFFFFFFFFFFFFFFF AND PUSH20 0xFFFFFFFFFFFFFFFFFFFFFFFFFFFFFFFFFFFFFFFF AND CALLER PUSH20 0xFFFFFFFFFFFFFFFFFFFFFFFFFFFFFFFFFFFFFFFF AND EQ PUSH2 0x8EA JUMPI PUSH1 0x40 MLOAD PUSH32 0x8C379A000000000000000000000000000000000000000000000000000000000 DUP2 MSTORE PUSH1 0x4 ADD PUSH2 0x8E1 SWAP1 PUSH2 0x1723 JUMP JUMPDEST PUSH1 0x40 MLOAD DUP1 SWAP2 SUB SWAP1 REVERT JUMPDEST DUP1 PUSH20 0xFFFFFFFFFFFFFFFFFFFFFFFFFFFFFFFFFFFFFFFF AND PUSH4 0xA9059CBB CALLER DUP4 PUSH20 0xFFFFFFFFFFFFFFFFFFFFFFFFFFFFFFFFFFFFFFFF AND PUSH4 0x70A08231 ADDRESS PUSH1 0x40 MLOAD DUP3 PUSH4 0xFFFFFFFF AND PUSH1 0xE0 SHL DUP2 MSTORE PUSH1 0x4 ADD PUSH2 0x940 SWAP2 SWAP1 PUSH2 0x192A JUMP JUMPDEST PUSH1 0x20 PUSH1 0x40 MLOAD DUP1 DUP4 SUB DUP2 DUP7 GAS STATICCALL ISZERO DUP1 ISZERO PUSH2 0x95D JUMPI RETURNDATASIZE PUSH1 0x0 DUP1 RETURNDATACOPY RETURNDATASIZE PUSH1 0x0 REVERT JUMPDEST POP POP POP POP PUSH1 0x40 MLOAD RETURNDATASIZE PUSH1 0x1F NOT PUSH1 0x1F DUP3 ADD AND DUP3 ADD DUP1 PUSH1 0x40 MSTORE POP DUP2 ADD SWAP1 PUSH2 0x981 SWAP2 SWAP1 PUSH2 0x195A JUMP JUMPDEST PUSH1 0x40 MLOAD DUP4 PUSH4 0xFFFFFFFF AND PUSH1 0xE0 SHL DUP2 MSTORE PUSH1 0x4 ADD PUSH2 0x99E SWAP3 SWAP2 SWAP1 PUSH2 0x1987 JUMP JUMPDEST PUSH1 0x20 PUSH1 0x40 MLOAD DUP1 DUP4 SUB DUP2 PUSH1 0x0 DUP8 GAS CALL ISZERO DUP1 ISZERO PUSH2 0x9BD JUMPI RETURNDATASIZE PUSH1 0x0 DUP1 RETURNDATACOPY RETURNDATASIZE PUSH1 0x0 REVERT JUMPDEST POP POP POP POP PUSH1 0x40 MLOAD RETURNDATASIZE PUSH1 0x1F NOT PUSH1 0x1F DUP3 ADD AND DUP3 ADD DUP1 PUSH1 0x40 MSTORE POP DUP2 ADD SWAP1 PUSH2 0x9E1 SWAP2 SWAP1 PUSH2 0x19DC JUMP JUMPDEST POP POP JUMP JUMPDEST PUSH1 0x60 PUSH1 0x4 DUP1 SLOAD PUSH2 0x9F4 SWAP1 PUSH2 0x1621 JUMP JUMPDEST DUP1 PUSH1 0x1F ADD PUSH1 0x20 DUP1 SWAP2 DIV MUL PUSH1 0x20 ADD PUSH1 0x40 MLOAD SWAP1 DUP2 ADD PUSH1 0x40 MSTORE DUP1 SWAP3 SWAP2 SWAP1 DUP2 DUP2 MSTORE PUSH1 0x20 ADD DUP3 DUP1 SLOAD PUSH2 0xA20 SWAP1 PUSH2 0x1621 JUMP JUMPDEST DUP1 ISZERO PUSH2 0xA6D JUMPI DUP1 PUSH1 0x1F LT PUSH2 0xA42 JUMPI PUSH2 0x100 DUP1 DUP4 SLOAD DIV MUL DUP4 MSTORE SWAP2 PUSH1 0x20 ADD SWAP2 PUSH2 0xA6D JUMP JUMPDEST DUP3 ADD SWAP2 SWAP1 PUSH1 0x0 MSTORE PUSH1 0x20 PUSH1 0x0 KECCAK256 SWAP1 JUMPDEST DUP2 SLOAD DUP2 MSTORE SWAP1 PUSH1 0x1 ADD SWAP1 PUSH1 0x20 ADD DUP1 DUP4 GT PUSH2 0xA50 JUMPI DUP3 SWAP1 SUB PUSH1 0x1F AND DUP3 ADD SWAP2 JUMPDEST POP POP POP POP POP SWAP1 POP SWAP1 JUMP JUMPDEST PUSH1 0x0 DUP1 CALLER SWAP1 POP PUSH1 0x0 PUSH1 0x1 PUSH1 0x0 DUP4 PUSH20 0xFFFFFFFFFFFFFFFFFFFFFFFFFFFFFFFFFFFFFFFF AND PUSH20 0xFFFFFFFFFFFFFFFFFFFFFFFFFFFFFFFFFFFFFFFF AND DUP2 MSTORE PUSH1 0x20 ADD SWAP1 DUP2 MSTORE PUSH1 0x20 ADD PUSH1 0x0 KECCAK256 PUSH1 0x0 DUP7 PUSH20 0xFFFFFFFFFFFFFFFFFFFFFFFFFFFFFFFFFFFFFFFF AND PUSH20 0xFFFFFFFFFFFFFFFFFFFFFFFFFFFFFFFFFFFFFFFF AND DUP2 MSTORE PUSH1 0x20 ADD SWAP1 DUP2 MSTORE PUSH1 0x20 ADD PUSH1 0x0 KECCAK256 SLOAD SWAP1 POP DUP4 DUP2 LT ISZERO PUSH2 0xB41 JUMPI PUSH1 0x40 MLOAD PUSH32 0x8C379A000000000000000000000000000000000000000000000000000000000 DUP2 MSTORE PUSH1 0x4 ADD PUSH2 0xB38 SWAP1 PUSH2 0x1A7B JUMP JUMPDEST PUSH1 0x40 MLOAD DUP1 SWAP2 SUB SWAP1 REVERT JUMPDEST PUSH2 0xB4E DUP3 DUP7 DUP7 DUP5 SUB PUSH2 0xC23 JUMP JUMPDEST PUSH1 0x1 SWAP3 POP POP POP SWAP3 SWAP2 POP POP JUMP JUMPDEST PUSH1 0x0 DUP1 CALLER SWAP1 POP PUSH2 0xB6B DUP2 DUP6 DUP6 PUSH2 0xE78 JUMP JUMPDEST PUSH1 0x1 SWAP2 POP POP SWAP3 SWAP2 POP POP JUMP JUMPDEST PUSH1 0x0 PUSH1 0x1 PUSH1 0x0 DUP5 PUSH20 0xFFFFFFFFFFFFFFFFFFFFFFFFFFFFFFFFFFFFFFFF AND PUSH20 0xFFFFFFFFFFFFFFFFFFFFFFFFFFFFFFFFFFFFFFFF AND DUP2 MSTORE PUSH1 0x20 ADD SWAP1 DUP2 MSTORE PUSH1 0x20 ADD PUSH1 0x0 KECCAK256 PUSH1 0x0 DUP4 PUSH20 0xFFFFFFFFFFFFFFFFFFFFFFFFFFFFFFFFFFFFFFFF AND PUSH20 0xFFFFFFFFFFFFFFFFFFFFFFFFFFFFFFFFFFFFFFFF AND DUP2 MSTORE PUSH1 0x20 ADD SWAP1 DUP2 MSTORE PUSH1 0x20 ADD PUSH1 0x0 KECCAK256 SLOAD SWAP1 POP SWAP3 SWAP2 POP POP JUMP JUMPDEST PUSH1 0x5 PUSH1 0x1 SWAP1 SLOAD SWAP1 PUSH2 0x100 EXP SWAP1 DIV PUSH20 0xFFFFFFFFFFFFFFFFFFFFFFFFFFFFFFFFFFFFFFFF AND DUP2 JUMP JUMPDEST PUSH1 0x0 PUSH20 0xFFFFFFFFFFFFFFFFFFFFFFFFFFFFFFFFFFFFFFFF AND DUP4 PUSH20 0xFFFFFFFFFFFFFFFFFFFFFFFFFFFFFFFFFFFFFFFF AND SUB PUSH2 0xC92 JUMPI PUSH1 0x40 MLOAD PUSH32 0x8C379A000000000000000000000000000000000000000000000000000000000 DUP2 MSTORE PUSH1 0x4 ADD PUSH2 0xC89 SWAP1 PUSH2 0x1B0D JUMP JUMPDEST PUSH1 0x40 MLOAD DUP1 SWAP2 SUB SWAP1 REVERT JUMPDEST PUSH1 0x0 PUSH20 0xFFFFFFFFFFFFFFFFFFFFFFFFFFFFFFFFFFFFFFFF AND DUP3 PUSH20 0xFFFFFFFFFFFFFFFFFFFFFFFFFFFFFFFFFFFFFFFF AND SUB PUSH2 0xD01 JUMPI PUSH1 0x40 MLOAD PUSH32 0x8C379A000000000000000000000000000000000000000000000000000000000 DUP2 MSTORE PUSH1 0x4 ADD PUSH2 0xCF8 SWAP1 PUSH2 0x1B9F JUMP JUMPDEST PUSH1 0x40 MLOAD DUP1 SWAP2 SUB SWAP1 REVERT JUMPDEST DUP1 PUSH1 0x1 PUSH1 0x0 DUP6 PUSH20 0xFFFFFFFFFFFFFFFFFFFFFFFFFFFFFFFFFFFFFFFF AND PUSH20 0xFFFFFFFFFFFFFFFFFFFFFFFFFFFFFFFFFFFFFFFF AND DUP2 MSTORE PUSH1 0x20 ADD SWAP1 DUP2 MSTORE PUSH1 0x20 ADD PUSH1 0x0 KECCAK256 PUSH1 0x0 DUP5 PUSH20 0xFFFFFFFFFFFFFFFFFFFFFFFFFFFFFFFFFFFFFFFF AND PUSH20 0xFFFFFFFFFFFFFFFFFFFFFFFFFFFFFFFFFFFFFFFF AND DUP2 MSTORE PUSH1 0x20 ADD SWAP1 DUP2 MSTORE PUSH1 0x20 ADD PUSH1 0x0 KECCAK256 DUP2 SWAP1 SSTORE POP DUP2 PUSH20 0xFFFFFFFFFFFFFFFFFFFFFFFFFFFFFFFFFFFFFFFF AND DUP4 PUSH20 0xFFFFFFFFFFFFFFFFFFFFFFFFFFFFFFFFFFFFFFFF AND PUSH32 0x8C5BE1E5EBEC7D5BD14F71427D1E84F3DD0314C0F7B2291E5B200AC8C7C3B925 DUP4 PUSH1 0x40 MLOAD PUSH2 0xDDF SWAP2 SWAP1 PUSH2 0x1439 JUMP JUMPDEST PUSH1 0x40 MLOAD DUP1 SWAP2 SUB SWAP1 LOG3 POP POP POP JUMP JUMPDEST PUSH1 0x0 PUSH2 0xDF8 DUP5 DUP5 PUSH2 0xB76 JUMP JUMPDEST SWAP1 POP PUSH32 0xFFFFFFFFFFFFFFFFFFFFFFFFFFFFFFFFFFFFFFFFFFFFFFFFFFFFFFFFFFFFFFFF DUP2 EQ PUSH2 0xE72 JUMPI DUP2 DUP2 LT ISZERO PUSH2 0xE64 JUMPI PUSH1 0x40 MLOAD PUSH32 0x8C379A000000000000000000000000000000000000000000000000000000000 DUP2 MSTORE PUSH1 0x4 ADD PUSH2 0xE5B SWAP1 PUSH2 0x1C0B JUMP JUMPDEST PUSH1 0x40 MLOAD DUP1 SWAP2 SUB SWAP1 REVERT JUMPDEST PUSH2 0xE71 DUP5 DUP5 DUP5 DUP5 SUB PUSH2 0xC23 JUMP JUMPDEST JUMPDEST POP POP POP POP JUMP JUMPDEST PUSH1 0x0 PUSH20 0xFFFFFFFFFFFFFFFFFFFFFFFFFFFFFFFFFFFFFFFF AND DUP4 PUSH20 0xFFFFFFFFFFFFFFFFFFFFFFFFFFFFFFFFFFFFFFFF AND SUB PUSH2 0xEE7 JUMPI PUSH1 0x40 MLOAD PUSH32 0x8C379A000000000000000000000000000000000000000000000000000000000 DUP2 MSTORE PUSH1 0x4 ADD PUSH2 0xEDE SWAP1 PUSH2 0x1C9D JUMP JUMPDEST PUSH1 0x40 MLOAD DUP1 SWAP2 SUB SWAP1 REVERT JUMPDEST PUSH1 0x0 PUSH20 0xFFFFFFFFFFFFFFFFFFFFFFFFFFFFFFFFFFFFFFFF AND DUP3 PUSH20 0xFFFFFFFFFFFFFFFFFFFFFFFFFFFFFFFFFFFFFFFF AND SUB PUSH2 0xF56 JUMPI PUSH1 0x40 MLOAD PUSH32 0x8C379A000000000000000000000000000000000000000000000000000000000 DUP2 MSTORE PUSH1 0x4 ADD PUSH2 0xF4D SWAP1 PUSH2 0x1D2F JUMP JUMPDEST PUSH1 0x40 MLOAD DUP1 SWAP2 SUB SWAP1 REVERT JUMPDEST PUSH2 0xF61 DUP4 DUP4 DUP4 PUSH2 0x1256 JUMP JUMPDEST PUSH1 0x0 DUP1 PUSH1 0x0 DUP6 PUSH20 0xFFFFFFFFFFFFFFFFFFFFFFFFFFFFFFFFFFFFFFFF AND PUSH20 0xFFFFFFFFFFFFFFFFFFFFFFFFFFFFFFFFFFFFFFFF AND DUP2 MSTORE PUSH1 0x20 ADD SWAP1 DUP2 MSTORE PUSH1 0x20 ADD PUSH1 0x0 KECCAK256 SLOAD SWAP1 POP DUP2 DUP2 LT ISZERO PUSH2 0xFE7 JUMPI PUSH1 0x40 MLOAD PUSH32 0x8C379A000000000000000000000000000000000000000000000000000000000 DUP2 MSTORE PUSH1 0x4 ADD PUSH2 0xFDE SWAP1 PUSH2 0x1DC1 JUMP JUMPDEST PUSH1 0x40 MLOAD DUP1 SWAP2 SUB SWAP1 REVERT JUMPDEST DUP2 DUP2 SUB PUSH1 0x0 DUP1 DUP7 PUSH20 0xFFFFFFFFFFFFFFFFFFFFFFFFFFFFFFFFFFFFFFFF AND PUSH20 0xFFFFFFFFFFFFFFFFFFFFFFFFFFFFFFFFFFFFFFFF AND DUP2 MSTORE PUSH1 0x20 ADD SWAP1 DUP2 MSTORE PUSH1 0x20 ADD PUSH1 0x0 KECCAK256 DUP2 SWAP1 SSTORE POP DUP2 PUSH1 0x0 DUP1 DUP6 PUSH20 0xFFFFFFFFFFFFFFFFFFFFFFFFFFFFFFFFFFFFFFFF AND PUSH20 0xFFFFFFFFFFFFFFFFFFFFFFFFFFFFFFFFFFFFFFFF AND DUP2 MSTORE PUSH1 0x20 ADD SWAP1 DUP2 MSTORE PUSH1 0x20 ADD PUSH1 0x0 KECCAK256 PUSH1 0x0 DUP3 DUP3 SLOAD PUSH2 0x107A SWAP2 SWAP1 PUSH2 0x1681 JUMP JUMPDEST SWAP3 POP POP DUP2 SWAP1 SSTORE POP DUP3 PUSH20 0xFFFFFFFFFFFFFFFFFFFFFFFFFFFFFFFFFFFFFFFF AND DUP5 PUSH20 0xFFFFFFFFFFFFFFFFFFFFFFFFFFFFFFFFFFFFFFFF AND PUSH32 0xDDF252AD1BE2C89B69C2B068FC378DAA952BA7F163C4A11628F55A4DF523B3EF DUP5 PUSH1 0x40 MLOAD PUSH2 0x10DE SWAP2 SWAP1 PUSH2 0x1439 JUMP JUMPDEST PUSH1 0x40 MLOAD DUP1 SWAP2 SUB SWAP1 LOG3 PUSH2 0x10F1 DUP5 DUP5 DUP5 PUSH2 0x125B JUMP JUMPDEST POP POP POP POP JUMP JUMPDEST PUSH1 0x0 PUSH20 0xFFFFFFFFFFFFFFFFFFFFFFFFFFFFFFFFFFFFFFFF AND DUP3 PUSH20 0xFFFFFFFFFFFFFFFFFFFFFFFFFFFFFFFFFFFFFFFF AND SUB PUSH2 0x1166 JUMPI PUSH1 0x40 MLOAD PUSH32 0x8C379A000000000000000000000000000000000000000000000000000000000 DUP2 MSTORE PUSH1 0x4 ADD PUSH2 0x115D SWAP1 PUSH2 0x1E2D JUMP JUMPDEST PUSH1 0x40 MLOAD DUP1 SWAP2 SUB SWAP1 REVERT JUMPDEST PUSH2 0x1172 PUSH1 0x0 DUP4 DUP4 PUSH2 0x1256 JUMP JUMPDEST DUP1 PUSH1 0x2 PUSH1 0x0 DUP3 DUP3 SLOAD PUSH2 0x1184 SWAP2 SWAP1 PUSH2 0x1681 JUMP JUMPDEST SWAP3 POP POP DUP2 SWAP1 SSTORE POP DUP1 PUSH1 0x0 DUP1 DUP5 PUSH20 0xFFFFFFFFFFFFFFFFFFFFFFFFFFFFFFFFFFFFFFFF AND PUSH20 0xFFFFFFFFFFFFFFFFFFFFFFFFFFFFFFFFFFFFFFFF AND DUP2 MSTORE PUSH1 0x20 ADD SWAP1 DUP2 MSTORE PUSH1 0x20 ADD PUSH1 0x0 KECCAK256 PUSH1 0x0 DUP3 DUP3 SLOAD PUSH2 0x11D9 SWAP2 SWAP1 PUSH2 0x1681 JUMP JUMPDEST SWAP3 POP POP DUP2 SWAP1 SSTORE POP DUP2 PUSH20 0xFFFFFFFFFFFFFFFFFFFFFFFFFFFFFFFFFFFFFFFF AND PUSH1 0x0 PUSH20 0xFFFFFFFFFFFFFFFFFFFFFFFFFFFFFFFFFFFFFFFF AND PUSH32 0xDDF252AD1BE2C89B69C2B068FC378DAA952BA7F163C4A11628F55A4DF523B3EF DUP4 PUSH1 0x40 MLOAD PUSH2 0x123E SWAP2 SWAP1 PUSH2 0x1439 JUMP JUMPDEST PUSH1 0x40 MLOAD DUP1 SWAP2 SUB SWAP1 LOG3 PUSH2 0x1252 PUSH1 0x0 DUP4 DUP4 PUSH2 0x125B JUMP JUMPDEST POP POP JUMP JUMPDEST POP POP POP JUMP JUMPDEST POP POP POP JUMP JUMPDEST PUSH1 0x0 DUP2 MLOAD SWAP1 POP SWAP2 SWAP1 POP JUMP JUMPDEST PUSH1 0x0 DUP3 DUP3 MSTORE PUSH1 0x20 DUP3 ADD SWAP1 POP SWAP3 SWAP2 POP POP JUMP JUMPDEST PUSH1 0x0 JUMPDEST DUP4 DUP2 LT ISZERO PUSH2 0x129A JUMPI DUP1 DUP3 ADD MLOAD DUP2 DUP5 ADD MSTORE PUSH1 0x20 DUP2 ADD SWAP1 POP PUSH2 0x127F JUMP JUMPDEST DUP4 DUP2 GT ISZERO PUSH2 0x12A9 JUMPI PUSH1 0x0 DUP5 DUP5 ADD MSTORE JUMPDEST POP POP POP POP JUMP JUMPDEST PUSH1 0x0 PUSH1 0x1F NOT PUSH1 0x1F DUP4 ADD AND SWAP1 POP SWAP2 SWAP1 POP JUMP JUMPDEST PUSH1 0x0 PUSH2 0x12CB DUP3 PUSH2 0x1260 JUMP JUMPDEST PUSH2 0x12D5 DUP2 DUP6 PUSH2 0x126B JUMP JUMPDEST SWAP4 POP PUSH2 0x12E5 DUP2 DUP6 PUSH1 0x20 DUP7 ADD PUSH2 0x127C JUMP JUMPDEST PUSH2 0x12EE DUP2 PUSH2 0x12AF JUMP JUMPDEST DUP5 ADD SWAP2 POP POP SWAP3 SWAP2 POP POP JUMP JUMPDEST PUSH1 0x0 PUSH1 0x20 DUP3 ADD SWAP1 POP DUP2 DUP2 SUB PUSH1 0x0 DUP4 ADD MSTORE PUSH2 0x1313 DUP2 DUP5 PUSH2 0x12C0 JUMP JUMPDEST SWAP1 POP SWAP3 SWAP2 POP POP JUMP JUMPDEST PUSH1 0x0 DUP1 REVERT JUMPDEST PUSH1 0x0 PUSH20 0xFFFFFFFFFFFFFFFFFFFFFFFFFFFFFFFFFFFFFFFF DUP3 AND SWAP1 POP SWAP2 SWAP1 POP JUMP JUMPDEST PUSH1 0x0 PUSH2 0x134B DUP3 PUSH2 0x1320 JUMP JUMPDEST SWAP1 POP SWAP2 SWAP1 POP JUMP JUMPDEST PUSH2 0x135B DUP2 PUSH2 0x1340 JUMP JUMPDEST DUP2 EQ PUSH2 0x1366 JUMPI PUSH1 0x0 DUP1 REVERT JUMPDEST POP JUMP JUMPDEST PUSH1 0x0 DUP2 CALLDATALOAD SWAP1 POP PUSH2 0x1378 DUP2 PUSH2 0x1352 JUMP JUMPDEST SWAP3 SWAP2 POP POP JUMP JUMPDEST PUSH1 0x0 DUP2 SWAP1 POP SWAP2 SWAP1 POP JUMP JUMPDEST PUSH2 0x1391 DUP2 PUSH2 0x137E JUMP JUMPDEST DUP2 EQ PUSH2 0x139C JUMPI PUSH1 0x0 DUP1 REVERT JUMPDEST POP JUMP JUMPDEST PUSH1 0x0 DUP2 CALLDATALOAD SWAP1 POP PUSH2 0x13AE DUP2 PUSH2 0x1388 JUMP JUMPDEST SWAP3 SWAP2 POP POP JUMP JUMPDEST PUSH1 0x0 DUP1 PUSH1 0x40 DUP4 DUP6 SUB SLT ISZERO PUSH2 0x13CB JUMPI PUSH2 0x13CA PUSH2 0x131B JUMP JUMPDEST JUMPDEST PUSH1 0x0 PUSH2 0x13D9 DUP6 DUP3 DUP7 ADD PUSH2 0x1369 JUMP JUMPDEST SWAP3 POP POP PUSH1 0x20 PUSH2 0x13EA DUP6 DUP3 DUP7 ADD PUSH2 0x139F JUMP JUMPDEST SWAP2 POP POP SWAP3 POP SWAP3 SWAP1 POP JUMP JUMPDEST PUSH1 0x0 DUP2 ISZERO ISZERO SWAP1 POP SWAP2 SWAP1 POP JUMP JUMPDEST PUSH2 0x1409 DUP2 PUSH2 0x13F4 JUMP JUMPDEST DUP3 MSTORE POP POP JUMP JUMPDEST PUSH1 0x0 PUSH1 0x20 DUP3 ADD SWAP1 POP PUSH2 0x1424 PUSH1 0x0 DUP4 ADD DUP5 PUSH2 0x1400 JUMP JUMPDEST SWAP3 SWAP2 POP POP JUMP JUMPDEST PUSH2 0x1433 DUP2 PUSH2 0x137E JUMP JUMPDEST DUP3 MSTORE POP POP JUMP JUMPDEST PUSH1 0x0 PUSH1 0x20 DUP3 ADD SWAP1 POP PUSH2 0x144E PUSH1 0x0 DUP4 ADD DUP5 PUSH2 0x142A JUMP JUMPDEST SWAP3 SWAP2 POP POP JUMP JUMPDEST PUSH1 0x0 DUP1 PUSH1 0x0 PUSH1 0x60 DUP5 DUP7 SUB SLT ISZERO PUSH2 0x146D JUMPI PUSH2 0x146C PUSH2 0x131B JUMP JUMPDEST JUMPDEST PUSH1 0x0 PUSH2 0x147B DUP7 DUP3 DUP8 ADD PUSH2 0x1369 JUMP JUMPDEST SWAP4 POP POP PUSH1 0x20 PUSH2 0x148C DUP7 DUP3 DUP8 ADD PUSH2 0x1369 JUMP JUMPDEST SWAP3 POP POP PUSH1 0x40 PUSH2 0x149D DUP7 DUP3 DUP8 ADD PUSH2 0x139F JUMP JUMPDEST SWAP2 POP POP SWAP3 POP SWAP3 POP SWAP3 JUMP JUMPDEST PUSH1 0x0 PUSH1 0xFF DUP3 AND SWAP1 POP SWAP2 SWAP1 POP JUMP JUMPDEST PUSH2 0x14BD DUP2 PUSH2 0x14A7 JUMP JUMPDEST DUP3 MSTORE POP POP JUMP JUMPDEST PUSH1 0x0 PUSH1 0x20 DUP3 ADD SWAP1 POP PUSH2 0x14D8 PUSH1 0x0 DUP4 ADD DUP5 PUSH2 0x14B4 JUMP JUMPDEST SWAP3 SWAP2 POP POP JUMP JUMPDEST PUSH1 0x0 PUSH1 0x20 DUP3 DUP5 SUB SLT ISZERO PUSH2 0x14F4 JUMPI PUSH2 0x14F3 PUSH2 0x131B JUMP JUMPDEST JUMPDEST PUSH1 0x0 PUSH2 0x1502 DUP5 DUP3 DUP6 ADD PUSH2 0x1369 JUMP JUMPDEST SWAP2 POP POP SWAP3 SWAP2 POP POP JUMP JUMPDEST PUSH1 0x0 PUSH2 0x1516 DUP3 PUSH2 0x1340 JUMP JUMPDEST SWAP1 POP SWAP2 SWAP1 POP JUMP JUMPDEST PUSH2 0x1526 DUP2 PUSH2 0x150B JUMP JUMPDEST DUP2 EQ PUSH2 0x1531 JUMPI PUSH1 0x0 DUP1 REVERT JUMPDEST POP JUMP JUMPDEST PUSH1 0x0 DUP2 CALLDATALOAD SWAP1 POP PUSH2 0x1543 DUP2 PUSH2 0x151D JUMP JUMPDEST SWAP3 SWAP2 POP POP JUMP JUMPDEST PUSH1 0x0 PUSH1 0x20 DUP3 DUP5 SUB SLT ISZERO PUSH2 0x155F JUMPI PUSH2 0x155E PUSH2 0x131B JUMP JUMPDEST JUMPDEST PUSH1 0x0 PUSH2 0x156D DUP5 DUP3 DUP6 ADD PUSH2 0x1534 JUMP JUMPDEST SWAP2 POP POP SWAP3 SWAP2 POP POP JUMP JUMPDEST PUSH1 0x0 DUP1 PUSH1 0x40 DUP4 DUP6 SUB SLT ISZERO PUSH2 0x158D JUMPI PUSH2 0x158C PUSH2 0x131B JUMP JUMPDEST JUMPDEST PUSH1 0x0 PUSH2 0x159B DUP6 DUP3 DUP7 ADD PUSH2 0x1369 JUMP JUMPDEST SWAP3 POP POP PUSH1 0x20 PUSH2 0x15AC DUP6 DUP3 DUP7 ADD PUSH2 0x1369 JUMP JUMPDEST SWAP2 POP POP SWAP3 POP SWAP3 SWAP1 POP JUMP JUMPDEST PUSH1 0x0 PUSH2 0x15C1 DUP3 PUSH2 0x1320 JUMP JUMPDEST SWAP1 POP SWAP2 SWAP1 POP JUMP JUMPDEST PUSH2 0x15D1 DUP2 PUSH2 0x15B6 JUMP JUMPDEST DUP3 MSTORE POP POP JUMP JUMPDEST PUSH1 0x0 PUSH1 0x20 DUP3 ADD SWAP1 POP PUSH2 0x15EC PUSH1 0x0 DUP4 ADD DUP5 PUSH2 0x15C8 JUMP JUMPDEST SWAP3 SWAP2 POP POP JUMP JUMPDEST PUSH32 0x4E487B7100000000000000000000000000000000000000000000000000000000 PUSH1 0x0 MSTORE PUSH1 0x22 PUSH1 0x4 MSTORE PUSH1 0x24 PUSH1 0x0 REVERT JUMPDEST PUSH1 0x0 PUSH1 0x2 DUP3 DIV SWAP1 POP PUSH1 0x1 DUP3 AND DUP1 PUSH2 0x1639 JUMPI PUSH1 0x7F DUP3 AND SWAP2 POP JUMPDEST PUSH1 0x20 DUP3 LT DUP2 SUB PUSH2 0x164C JUMPI PUSH2 0x164B PUSH2 0x15F2 JUMP JUMPDEST JUMPDEST POP SWAP2 SWAP1 POP JUMP JUMPDEST PUSH32 0x4E487B7100000000000000000000000000000000000000000000000000000000 PUSH1 0x0 MSTORE PUSH1 0x11 PUSH1 0x4 MSTORE PUSH1 0x24 PUSH1 0x0 REVERT JUMPDEST PUSH1 0x0 PUSH2 0x168C DUP3 PUSH2 0x137E JUMP JUMPDEST SWAP2 POP PUSH2 0x1697 DUP4 PUSH2 0x137E JUMP JUMPDEST SWAP3 POP DUP3 PUSH32 0xFFFFFFFFFFFFFFFFFFFFFFFFFFFFFFFFFFFFFFFFFFFFFFFFFFFFFFFFFFFFFFFF SUB DUP3 GT ISZERO PUSH2 0x16CC JUMPI PUSH2 0x16CB PUSH2 0x1652 JUMP JUMPDEST JUMPDEST DUP3 DUP3 ADD SWAP1 POP SWAP3 SWAP2 POP POP JUMP JUMPDEST PUSH32 0x6E6F2061646D696E000000000000000000000000000000000000000000000000 PUSH1 0x0 DUP3 ADD MSTORE POP JUMP JUMPDEST PUSH1 0x0 PUSH2 0x170D PUSH1 0x8 DUP4 PUSH2 0x126B JUMP JUMPDEST SWAP2 POP PUSH2 0x1718 DUP3 PUSH2 0x16D7 JUMP JUMPDEST PUSH1 0x20 DUP3 ADD SWAP1 POP SWAP2 SWAP1 POP JUMP JUMPDEST PUSH1 0x0 PUSH1 0x20 DUP3 ADD SWAP1 POP DUP2 DUP2 SUB PUSH1 0x0 DUP4 ADD MSTORE PUSH2 0x173C DUP2 PUSH2 0x1700 JUMP JUMPDEST SWAP1 POP SWAP2 SWAP1 POP JUMP JUMPDEST PUSH1 0x0 DUP2 PUSH1 0x1 SHR SWAP1 POP SWAP2 SWAP1 POP JUMP JUMPDEST PUSH1 0x0 DUP1 DUP3 SWAP2 POP DUP4 SWAP1 POP JUMPDEST PUSH1 0x1 DUP6 GT ISZERO PUSH2 0x179A JUMPI DUP1 DUP7 DIV DUP2 GT ISZERO PUSH2 0x1776 JUMPI PUSH2 0x1775 PUSH2 0x1652 JUMP JUMPDEST JUMPDEST PUSH1 0x1 DUP6 AND ISZERO PUSH2 0x1785 JUMPI DUP1 DUP3 MUL SWAP2 POP JUMPDEST DUP1 DUP2 MUL SWAP1 POP PUSH2 0x1793 DUP6 PUSH2 0x1743 JUMP JUMPDEST SWAP5 POP PUSH2 0x175A JUMP JUMPDEST SWAP5 POP SWAP5 SWAP3 POP POP POP JUMP JUMPDEST PUSH1 0x0 DUP3 PUSH2 0x17B3 JUMPI PUSH1 0x1 SWAP1 POP PUSH2 0x186F JUMP JUMPDEST DUP2 PUSH2 0x17C1 JUMPI PUSH1 0x0 SWAP1 POP PUSH2 0x186F JUMP JUMPDEST DUP2 PUSH1 0x1 DUP2 EQ PUSH2 0x17D7 JUMPI PUSH1 0x2 DUP2 EQ PUSH2 0x17E1 JUMPI PUSH2 0x1810 JUMP JUMPDEST PUSH1 0x1 SWAP2 POP POP PUSH2 0x186F JUMP JUMPDEST PUSH1 0xFF DUP5 GT ISZERO PUSH2 0x17F3 JUMPI PUSH2 0x17F2 PUSH2 0x1652 JUMP JUMPDEST JUMPDEST DUP4 PUSH1 0x2 EXP SWAP2 POP DUP5 DUP3 GT ISZERO PUSH2 0x180A JUMPI PUSH2 0x1809 PUSH2 0x1652 JUMP JUMPDEST JUMPDEST POP PUSH2 0x186F JUMP JUMPDEST POP PUSH1 0x20 DUP4 LT PUSH2 0x133 DUP4 LT AND PUSH1 0x4E DUP5 LT PUSH1 0xB DUP5 LT AND OR ISZERO PUSH2 0x1845 JUMPI DUP3 DUP3 EXP SWAP1 POP DUP4 DUP2 GT ISZERO PUSH2 0x1840 JUMPI PUSH2 0x183F PUSH2 0x1652 JUMP JUMPDEST JUMPDEST PUSH2 0x186F JUMP JUMPDEST PUSH2 0x1852 DUP5 DUP5 DUP5 PUSH1 0x1 PUSH2 0x1750 JUMP JUMPDEST SWAP3 POP SWAP1 POP DUP2 DUP5 DIV DUP2 GT ISZERO PUSH2 0x1869 JUMPI PUSH2 0x1868 PUSH2 0x1652 JUMP JUMPDEST JUMPDEST DUP2 DUP2 MUL SWAP1 POP JUMPDEST SWAP4 SWAP3 POP POP POP JUMP JUMPDEST PUSH1 0x0 PUSH2 0x1881 DUP3 PUSH2 0x137E JUMP JUMPDEST SWAP2 POP PUSH2 0x188C DUP4 PUSH2 0x14A7 JUMP JUMPDEST SWAP3 POP PUSH2 0x18B9 PUSH32 0xFFFFFFFFFFFFFFFFFFFFFFFFFFFFFFFFFFFFFFFFFFFFFFFFFFFFFFFFFFFFFFFF DUP5 DUP5 PUSH2 0x17A3 JUMP JUMPDEST SWAP1 POP SWAP3 SWAP2 POP POP JUMP JUMPDEST PUSH1 0x0 PUSH2 0x18CC DUP3 PUSH2 0x137E JUMP JUMPDEST SWAP2 POP PUSH2 0x18D7 DUP4 PUSH2 0x137E JUMP JUMPDEST SWAP3 POP DUP2 PUSH32 0xFFFFFFFFFFFFFFFFFFFFFFFFFFFFFFFFFFFFFFFFFFFFFFFFFFFFFFFFFFFFFFFF DIV DUP4 GT DUP3 ISZERO ISZERO AND ISZERO PUSH2 0x1910 JUMPI PUSH2 0x190F PUSH2 0x1652 JUMP JUMPDEST JUMPDEST DUP3 DUP3 MUL SWAP1 POP SWAP3 SWAP2 POP POP JUMP JUMPDEST PUSH2 0x1924 DUP2 PUSH2 0x1340 JUMP JUMPDEST DUP3 MSTORE POP POP JUMP JUMPDEST PUSH1 0x0 PUSH1 0x20 DUP3 ADD SWAP1 POP PUSH2 0x193F PUSH1 0x0 DUP4 ADD DUP5 PUSH2 0x191B JUMP JUMPDEST SWAP3 SWAP2 POP POP JUMP JUMPDEST PUSH1 0x0 DUP2 MLOAD SWAP1 POP PUSH2 0x1954 DUP2 PUSH2 0x1388 JUMP JUMPDEST SWAP3 SWAP2 POP POP JUMP JUMPDEST PUSH1 0x0 PUSH1 0x20 DUP3 DUP5 SUB SLT ISZERO PUSH2 0x1970 JUMPI PUSH2 0x196F PUSH2 0x131B JUMP JUMPDEST JUMPDEST PUSH1 0x0 PUSH2 0x197E DUP5 DUP3 DUP6 ADD PUSH2 0x1945 JUMP JUMPDEST SWAP2 POP POP SWAP3 SWAP2 POP POP JUMP JUMPDEST PUSH1 0x0 PUSH1 0x40 DUP3 ADD SWAP1 POP PUSH2 0x199C PUSH1 0x0 DUP4 ADD DUP6 PUSH2 0x191B JUMP JUMPDEST PUSH2 0x19A9 PUSH1 0x20 DUP4 ADD DUP5 PUSH2 0x142A JUMP JUMPDEST SWAP4 SWAP3 POP POP POP JUMP JUMPDEST PUSH2 0x19B9 DUP2 PUSH2 0x13F4 JUMP JUMPDEST DUP2 EQ PUSH2 0x19C4 JUMPI PUSH1 0x0 DUP1 REVERT JUMPDEST POP JUMP JUMPDEST PUSH1 0x0 DUP2 MLOAD SWAP1 POP PUSH2 0x19D6 DUP2 PUSH2 0x19B0 JUMP JUMPDEST SWAP3 SWAP2 POP POP JUMP JUMPDEST PUSH1 0x0 PUSH1 0x20 DUP3 DUP5 SUB SLT ISZERO PUSH2 0x19F2 JUMPI PUSH2 0x19F1 PUSH2 0x131B JUMP JUMPDEST JUMPDEST PUSH1 0x0 PUSH2 0x1A00 DUP5 DUP3 DUP6 ADD PUSH2 0x19C7 JUMP JUMPDEST SWAP2 POP POP SWAP3 SWAP2 POP POP JUMP JUMPDEST PUSH32 0x45524332303A2064656372656173656420616C6C6F77616E63652062656C6F77 PUSH1 0x0 DUP3 ADD MSTORE PUSH32 0x207A65726F000000000000000000000000000000000000000000000000000000 PUSH1 0x20 DUP3 ADD MSTORE POP JUMP JUMPDEST PUSH1 0x0 PUSH2 0x1A65 PUSH1 0x25 DUP4 PUSH2 0x126B JUMP JUMPDEST SWAP2 POP PUSH2 0x1A70 DUP3 PUSH2 0x1A09 JUMP JUMPDEST PUSH1 0x40 DUP3 ADD SWAP1 POP SWAP2 SWAP1 POP JUMP JUMPDEST PUSH1 0x0 PUSH1 0x20 DUP3 ADD SWAP1 POP DUP2 DUP2 SUB PUSH1 0x0 DUP4 ADD MSTORE PUSH2 0x1A94 DUP2 PUSH2 0x1A58 JUMP JUMPDEST SWAP1 POP SWAP2 SWAP1 POP JUMP JUMPDEST PUSH32 0x45524332303A20617070726F76652066726F6D20746865207A65726F20616464 PUSH1 0x0 DUP3 ADD MSTORE PUSH32 0x7265737300000000000000000000000000000000000000000000000000000000 PUSH1 0x20 DUP3 ADD MSTORE POP JUMP JUMPDEST PUSH1 0x0 PUSH2 0x1AF7 PUSH1 0x24 DUP4 PUSH2 0x126B JUMP JUMPDEST SWAP2 POP PUSH2 0x1B02 DUP3 PUSH2 0x1A9B JUMP JUMPDEST PUSH1 0x40 DUP3 ADD SWAP1 POP SWAP2 SWAP1 POP JUMP JUMPDEST PUSH1 0x0 PUSH1 0x20 DUP3 ADD SWAP1 POP DUP2 DUP2 SUB PUSH1 0x0 DUP4 ADD MSTORE PUSH2 0x1B26 DUP2 PUSH2 0x1AEA JUMP JUMPDEST SWAP1 POP SWAP2 SWAP1 POP JUMP JUMPDEST PUSH32 0x45524332303A20617070726F76652020746F20746865207A65726F2061646472 PUSH1 0x0 DUP3 ADD MSTORE PUSH32 0x6573730000000000000000000000000000000000000000000000000000000000 PUSH1 0x20 DUP3 ADD MSTORE POP JUMP JUMPDEST PUSH1 0x0 PUSH2 0x1B89 PUSH1 0x23 DUP4 PUSH2 0x126B JUMP JUMPDEST SWAP2 POP PUSH2 0x1B94 DUP3 PUSH2 0x1B2D JUMP JUMPDEST PUSH1 0x40 DUP3 ADD SWAP1 POP SWAP2 SWAP1 POP JUMP JUMPDEST PUSH1 0x0 PUSH1 0x20 DUP3 ADD SWAP1 POP DUP2 DUP2 SUB PUSH1 0x0 DUP4 ADD MSTORE PUSH2 0x1BB8 DUP2 PUSH2 0x1B7C JUMP JUMPDEST SWAP1 POP SWAP2 SWAP1 POP JUMP JUMPDEST PUSH32 0x45524332303A20696E73756666696369656E7420616C6C6F77616E6365000000 PUSH1 0x0 DUP3 ADD MSTORE POP JUMP JUMPDEST PUSH1 0x0 PUSH2 0x1BF5 PUSH1 0x1D DUP4 PUSH2 0x126B JUMP JUMPDEST SWAP2 POP PUSH2 0x1C00 DUP3 PUSH2 0x1BBF JUMP JUMPDEST PUSH1 0x20 DUP3 ADD SWAP1 POP SWAP2 SWAP1 POP JUMP JUMPDEST PUSH1 0x0 PUSH1 0x20 DUP3 ADD SWAP1 POP DUP2 DUP2 SUB PUSH1 0x0 DUP4 ADD MSTORE PUSH2 0x1C24 DUP2 PUSH2 0x1BE8 JUMP JUMPDEST SWAP1 POP SWAP2 SWAP1 POP JUMP JUMPDEST PUSH32 0x45524332303A207472616E736665722066726F6D20746865207A65726F206164 PUSH1 0x0 DUP3 ADD MSTORE PUSH32 0x6472657373000000000000000000000000000000000000000000000000000000 PUSH1 0x20 DUP3 ADD MSTORE POP JUMP JUMPDEST PUSH1 0x0 PUSH2 0x1C87 PUSH1 0x25 DUP4 PUSH2 0x126B JUMP JUMPDEST SWAP2 POP PUSH2 0x1C92 DUP3 PUSH2 0x1C2B JUMP JUMPDEST PUSH1 0x40 DUP3 ADD SWAP1 POP SWAP2 SWAP1 POP JUMP JUMPDEST PUSH1 0x0 PUSH1 0x20 DUP3 ADD SWAP1 POP DUP2 DUP2 SUB PUSH1 0x0 DUP4 ADD MSTORE PUSH2 0x1CB6 DUP2 PUSH2 0x1C7A JUMP JUMPDEST SWAP1 POP SWAP2 SWAP1 POP JUMP JUMPDEST PUSH32 0x45524332303A207472616E7366657220746F20746865207A65726F2061646472 PUSH1 0x0 DUP3 ADD MSTORE PUSH32 0x6573730000000000000000000000000000000000000000000000000000000000 PUSH1 0x20 DUP3 ADD MSTORE POP JUMP JUMPDEST PUSH1 0x0 PUSH2 0x1D19 PUSH1 0x23 DUP4 PUSH2 0x126B JUMP JUMPDEST SWAP2 POP PUSH2 0x1D24 DUP3 PUSH2 0x1CBD JUMP JUMPDEST PUSH1 0x40 DUP3 ADD SWAP1 POP SWAP2 SWAP1 POP JUMP JUMPDEST PUSH1 0x0 PUSH1 0x20 DUP3 ADD SWAP1 POP DUP2 DUP2 SUB PUSH1 0x0 DUP4 ADD MSTORE PUSH2 0x1D48 DUP2 PUSH2 0x1D0C JUMP JUMPDEST SWAP1 POP SWAP2 SWAP1 POP JUMP JUMPDEST PUSH32 0x45524332303A207472616E7366657220616D6F756E7420657863656564732062 PUSH1 0x0 DUP3 ADD MSTORE PUSH32 0x616C616E63650000000000000000000000000000000000000000000000000000 PUSH1 0x20 DUP3 ADD MSTORE POP JUMP JUMPDEST PUSH1 0x0 PUSH2 0x1DAB PUSH1 0x26 DUP4 PUSH2 0x126B JUMP JUMPDEST SWAP2 POP PUSH2 0x1DB6 DUP3 PUSH2 0x1D4F JUMP JUMPDEST PUSH1 0x40 DUP3 ADD SWAP1 POP SWAP2 SWAP1 POP JUMP JUMPDEST PUSH1 0x0 PUSH1 0x20 DUP3 ADD SWAP1 POP DUP2 DUP2 SUB PUSH1 0x0 DUP4 ADD MSTORE PUSH2 0x1DDA DUP2 PUSH2 0x1D9E JUMP JUMPDEST SWAP1 POP SWAP2 SWAP1 POP JUMP JUMPDEST PUSH32 0x45524332303A206D696E7420746F20746865207A65726F206164647265737300 PUSH1 0x0 DUP3 ADD MSTORE POP JUMP JUMPDEST PUSH1 0x0 PUSH2 0x1E17 PUSH1 0x1F DUP4 PUSH2 0x126B JUMP JUMPDEST SWAP2 POP PUSH2 0x1E22 DUP3 PUSH2 0x1DE1 JUMP JUMPDEST PUSH1 0x20 DUP3 ADD SWAP1 POP SWAP2 SWAP1 POP JUMP JUMPDEST PUSH1 0x0 PUSH1 0x20 DUP3 ADD SWAP1 POP DUP2 DUP2 SUB PUSH1 0x0 DUP4 ADD MSTORE PUSH2 0x1E46 DUP2 PUSH2 0x1E0A JUMP JUMPDEST SWAP1 POP SWAP2 SWAP1 POP JUMP INVALID LOG2 PUSH5 0x6970667358 0x22 SLT KECCAK256 PUSH22 0x64A5626A0C57DF045FEF0C5AC56F99ECD0BED5376774 EXTCODESIZE NOT MSTORE8 PUSH18 0xA95DAD3CCC64736F6C634300080D00330000 "
				},
				"gasEstimates": {
					"creation": {
						"codeDepositCost": "1562200",
						"executionCost": "infinite",
						"totalCost": "infinite"
					},
					"external": {
						"": "197",
						"adminAddress()": "2652",
						"allowance(address,address)": "infinite",
						"approve(address,uint256)": "infinite",
						"balanceOf(address)": "2886",
						"decimals()": "2502",
						"decreaseAllowance(address,uint256)": "infinite",
						"editAdmin(address)": "27081",
						"increaseAllowance(address,uint256)": "infinite",
						"mint(address,uint256)": "infinite",
						"name()": "infinite",
						"symbol()": "infinite",
						"totalSupply()": "2505",
						"transfer(address,uint256)": "infinite",
						"transferFrom(address,address,uint256)": "infinite",
						"withdraw()": "infinite",
						"withdrawToken(address)": "infinite"
					},
					"internal": {
						"_afterTokenTransfer(address,address,uint256)": "15",
						"_approve(address,address,uint256)": "infinite",
						"_beforeTokenTransfer(address,address,uint256)": "15",
						"_burn(address,uint256)": "infinite",
						"_mint(address,uint256)": "infinite",
						"_spendAllowance(address,address,uint256)": "infinite",
						"_transfer(address,address,uint256)": "infinite"
					}
				},
				"methodIdentifiers": {
					"adminAddress()": "fc6f9468",
					"allowance(address,address)": "dd62ed3e",
					"approve(address,uint256)": "095ea7b3",
					"balanceOf(address)": "70a08231",
					"decimals()": "313ce567",
					"decreaseAllowance(address,uint256)": "a457c2d7",
					"editAdmin(address)": "3d128eec",
					"increaseAllowance(address,uint256)": "39509351",
					"mint(address,uint256)": "40c10f19",
					"name()": "06fdde03",
					"symbol()": "95d89b41",
					"totalSupply()": "18160ddd",
					"transfer(address,uint256)": "a9059cbb",
					"transferFrom(address,address,uint256)": "23b872dd",
					"withdraw()": "3ccfd60b",
					"withdrawToken(address)": "89476069"
				}
			},
			"storageLayout": {
				"storage": [
					{
						"astId": 94,
						"contract": "contracts/yyi.sol:ERC20",
						"label": "_balances",
						"offset": 0,
						"slot": "0",
						"type": "t_mapping(t_address,t_uint256)"
					},
					{
						"astId": 100,
						"contract": "contracts/yyi.sol:ERC20",
						"label": "_allowances",
						"offset": 0,
						"slot": "1",
						"type": "t_mapping(t_address,t_mapping(t_address,t_uint256))"
					},
					{
						"astId": 102,
						"contract": "contracts/yyi.sol:ERC20",
						"label": "_totalSupply",
						"offset": 0,
						"slot": "2",
						"type": "t_uint256"
					},
					{
						"astId": 104,
						"contract": "contracts/yyi.sol:ERC20",
						"label": "_name",
						"offset": 0,
						"slot": "3",
						"type": "t_string_storage"
					},
					{
						"astId": 106,
						"contract": "contracts/yyi.sol:ERC20",
						"label": "_symbol",
						"offset": 0,
						"slot": "4",
						"type": "t_string_storage"
					},
					{
						"astId": 108,
						"contract": "contracts/yyi.sol:ERC20",
						"label": "_decimals",
						"offset": 0,
						"slot": "5",
						"type": "t_uint8"
					},
					{
						"astId": 110,
						"contract": "contracts/yyi.sol:ERC20",
						"label": "adminAddress",
						"offset": 1,
						"slot": "5",
						"type": "t_address_payable"
					}
				],
				"types": {
					"t_address": {
						"encoding": "inplace",
						"label": "address",
						"numberOfBytes": "20"
					},
					"t_address_payable": {
						"encoding": "inplace",
						"label": "address payable",
						"numberOfBytes": "20"
					},
					"t_mapping(t_address,t_mapping(t_address,t_uint256))": {
						"encoding": "mapping",
						"key": "t_address",
						"label": "mapping(address => mapping(address => uint256))",
						"numberOfBytes": "32",
						"value": "t_mapping(t_address,t_uint256)"
					},
					"t_mapping(t_address,t_uint256)": {
						"encoding": "mapping",
						"key": "t_address",
						"label": "mapping(address => uint256)",
						"numberOfBytes": "32",
						"value": "t_uint256"
					},
					"t_string_storage": {
						"encoding": "bytes",
						"label": "string",
						"numberOfBytes": "32"
					},
					"t_uint256": {
						"encoding": "inplace",
						"label": "uint256",
						"numberOfBytes": "32"
					},
					"t_uint8": {
						"encoding": "inplace",
						"label": "uint8",
						"numberOfBytes": "1"
					}
				}
			},
			"userdoc": {
				"kind": "user",
				"methods": {},
				"version": 1
			}
		}
	}
}