{
	"contracts/yi.sol": {
		"YI": {
			"abi": [
				{
					"inputs": [],
					"stateMutability": "nonpayable",
					"type": "constructor"
				},
				{
					"anonymous": false,
					"inputs": [
						{
							"indexed": true,
							"internalType": "address",
							"name": "owner",
							"type": "address"
						},
						{
							"indexed": true,
							"internalType": "address",
							"name": "spender",
							"type": "address"
						},
						{
							"indexed": false,
							"internalType": "uint256",
							"name": "value",
							"type": "uint256"
						}
					],
					"name": "Approval",
					"type": "event"
				},
				{
					"anonymous": false,
					"inputs": [
						{
							"indexed": true,
							"internalType": "address",
							"name": "previousOwner",
							"type": "address"
						},
						{
							"indexed": true,
							"internalType": "address",
							"name": "newOwner",
							"type": "address"
						}
					],
					"name": "OwnershipTransferred",
					"type": "event"
				},
				{
					"anonymous": false,
					"inputs": [
						{
							"indexed": false,
							"internalType": "uint256",
							"name": "tokensSwapped",
							"type": "uint256"
						},
						{
							"indexed": false,
							"internalType": "uint256",
							"name": "ethReceived",
							"type": "uint256"
						},
						{
							"indexed": false,
							"internalType": "uint256",
							"name": "tokensIntoLiqudity",
							"type": "uint256"
						}
					],
					"name": "SwapAndLiquify",
					"type": "event"
				},
				{
					"anonymous": false,
					"inputs": [
						{
							"indexed": false,
							"internalType": "bool",
							"name": "enabled",
							"type": "bool"
						}
					],
					"name": "SwapAndLiquifyEnabledUpdated",
					"type": "event"
				},
				{
					"anonymous": false,
					"inputs": [
						{
							"indexed": false,
							"internalType": "uint256",
							"name": "amountIn",
							"type": "uint256"
						},
						{
							"indexed": false,
							"internalType": "address[]",
							"name": "path",
							"type": "address[]"
						}
					],
					"name": "SwapETHForTokens",
					"type": "event"
				},
				{
					"anonymous": false,
					"inputs": [
						{
							"indexed": false,
							"internalType": "uint256",
							"name": "amountIn",
							"type": "uint256"
						},
						{
							"indexed": false,
							"internalType": "address[]",
							"name": "path",
							"type": "address[]"
						}
					],
					"name": "SwapTokensForETH",
					"type": "event"
				},
				{
					"anonymous": false,
					"inputs": [
						{
							"indexed": true,
							"internalType": "address",
							"name": "from",
							"type": "address"
						},
						{
							"indexed": true,
							"internalType": "address",
							"name": "to",
							"type": "address"
						},
						{
							"indexed": false,
							"internalType": "uint256",
							"name": "value",
							"type": "uint256"
						}
					],
					"name": "Transfer",
					"type": "event"
				},
				{
					"inputs": [],
					"name": "_marketingFee",
					"outputs": [
						{
							"internalType": "uint256",
							"name": "",
							"type": "uint256"
						}
					],
					"stateMutability": "view",
					"type": "function"
				},
				{
					"inputs": [],
					"name": "_totalTax",
					"outputs": [
						{
							"internalType": "uint256",
							"name": "",
							"type": "uint256"
						}
					],
					"stateMutability": "view",
					"type": "function"
				},
				{
					"inputs": [
						{
							"internalType": "address",
							"name": "owner",
							"type": "address"
						},
						{
							"internalType": "address",
							"name": "spender",
							"type": "address"
						}
					],
					"name": "allowance",
					"outputs": [
						{
							"internalType": "uint256",
							"name": "",
							"type": "uint256"
						}
					],
					"stateMutability": "view",
					"type": "function"
				},
				{
					"inputs": [
						{
							"internalType": "address",
							"name": "spender",
							"type": "address"
						},
						{
							"internalType": "uint256",
							"name": "amount",
							"type": "uint256"
						}
					],
					"name": "approve",
					"outputs": [
						{
							"internalType": "bool",
							"name": "",
							"type": "bool"
						}
					],
					"stateMutability": "nonpayable",
					"type": "function"
				},
				{
					"inputs": [
						{
							"internalType": "address",
							"name": "account",
							"type": "address"
						}
					],
					"name": "balanceOf",
					"outputs": [
						{
							"internalType": "uint256",
							"name": "",
							"type": "uint256"
						}
					],
					"stateMutability": "view",
					"type": "function"
				},
				{
					"inputs": [],
					"name": "deadAddress",
					"outputs": [
						{
							"internalType": "address",
							"name": "",
							"type": "address"
						}
					],
					"stateMutability": "view",
					"type": "function"
				},
				{
					"inputs": [],
					"name": "decimals",
					"outputs": [
						{
							"internalType": "uint8",
							"name": "",
							"type": "uint8"
						}
					],
					"stateMutability": "view",
					"type": "function"
				},
				{
					"inputs": [
						{
							"internalType": "address",
							"name": "spender",
							"type": "address"
						},
						{
							"internalType": "uint256",
							"name": "subtractedValue",
							"type": "uint256"
						}
					],
					"name": "decreaseAllowance",
					"outputs": [
						{
							"internalType": "bool",
							"name": "",
							"type": "bool"
						}
					],
					"stateMutability": "nonpayable",
					"type": "function"
				},
				{
					"inputs": [],
					"name": "getCirculatingSupply",
					"outputs": [
						{
							"internalType": "uint256",
							"name": "",
							"type": "uint256"
						}
					],
					"stateMutability": "view",
					"type": "function"
				},
				{
					"inputs": [
						{
							"internalType": "address",
							"name": "spender",
							"type": "address"
						},
						{
							"internalType": "uint256",
							"name": "addedValue",
							"type": "uint256"
						}
					],
					"name": "increaseAllowance",
					"outputs": [
						{
							"internalType": "bool",
							"name": "",
							"type": "bool"
						}
					],
					"stateMutability": "nonpayable",
					"type": "function"
				},
				{
					"inputs": [
						{
							"internalType": "address",
							"name": "",
							"type": "address"
						}
					],
					"name": "isExcludedFromFee",
					"outputs": [
						{
							"internalType": "bool",
							"name": "",
							"type": "bool"
						}
					],
					"stateMutability": "view",
					"type": "function"
				},
				{
					"inputs": [
						{
							"internalType": "address",
							"name": "",
							"type": "address"
						}
					],
					"name": "isMarketPair",
					"outputs": [
						{
							"internalType": "bool",
							"name": "",
							"type": "bool"
						}
					],
					"stateMutability": "view",
					"type": "function"
				},
				{
					"inputs": [],
					"name": "marketingWallet",
					"outputs": [
						{
							"internalType": "address payable",
							"name": "",
							"type": "address"
						}
					],
					"stateMutability": "view",
					"type": "function"
				},
				{
					"inputs": [],
					"name": "minimumTokensBeforeSwapAmount",
					"outputs": [
						{
							"internalType": "uint256",
							"name": "",
							"type": "uint256"
						}
					],
					"stateMutability": "view",
					"type": "function"
				},
				{
					"inputs": [],
					"name": "name",
					"outputs": [
						{
							"internalType": "string",
							"name": "",
							"type": "string"
						}
					],
					"stateMutability": "view",
					"type": "function"
				},
				{
					"inputs": [],
					"name": "owner",
					"outputs": [
						{
							"internalType": "address",
							"name": "",
							"type": "address"
						}
					],
					"stateMutability": "view",
					"type": "function"
				},
				{
					"inputs": [
						{
							"internalType": "address",
							"name": "account",
							"type": "address"
						},
						{
							"internalType": "bool",
							"name": "newValue",
							"type": "bool"
						}
					],
					"name": "setIsExcludedFromFee",
					"outputs": [],
					"stateMutability": "nonpayable",
					"type": "function"
				},
				{
					"inputs": [
						{
							"internalType": "address",
							"name": "account",
							"type": "address"
						},
						{
							"internalType": "bool",
							"name": "newValue",
							"type": "bool"
						}
					],
					"name": "setMarketPairStatus",
					"outputs": [],
					"stateMutability": "nonpayable",
					"type": "function"
				},
				{
					"inputs": [
						{
							"internalType": "address payable",
							"name": "account",
							"type": "address"
						}
					],
					"name": "setMarketingWallet",
					"outputs": [],
					"stateMutability": "nonpayable",
					"type": "function"
				},
				{
					"inputs": [
						{
							"internalType": "uint256",
							"name": "newLimit",
							"type": "uint256"
						}
					],
					"name": "setNumTokensBeforeSwap",
					"outputs": [],
					"stateMutability": "nonpayable",
					"type": "function"
				},
				{
					"inputs": [],
					"name": "swapAndLiquifyByLimitOnly",
					"outputs": [
						{
							"internalType": "bool",
							"name": "",
							"type": "bool"
						}
					],
					"stateMutability": "view",
					"type": "function"
				},
				{
					"inputs": [],
					"name": "swapAndLiquifyEnabled",
					"outputs": [
						{
							"internalType": "bool",
							"name": "",
							"type": "bool"
						}
					],
					"stateMutability": "view",
					"type": "function"
				},
				{
					"inputs": [],
					"name": "symbol",
					"outputs": [
						{
							"internalType": "string",
							"name": "",
							"type": "string"
						}
					],
					"stateMutability": "view",
					"type": "function"
				},
				{
					"inputs": [],
					"name": "totalSupply",
					"outputs": [
						{
							"internalType": "uint256",
							"name": "",
							"type": "uint256"
						}
					],
					"stateMutability": "view",
					"type": "function"
				},
				{
					"inputs": [
						{
							"internalType": "address",
							"name": "recipient",
							"type": "address"
						},
						{
							"internalType": "uint256",
							"name": "amount",
							"type": "uint256"
						}
					],
					"name": "transfer",
					"outputs": [
						{
							"internalType": "bool",
							"name": "",
							"type": "bool"
						}
					],
					"stateMutability": "nonpayable",
					"type": "function"
				},
				{
					"inputs": [
						{
							"internalType": "address",
							"name": "sender",
							"type": "address"
						},
						{
							"internalType": "address",
							"name": "recipient",
							"type": "address"
						},
						{
							"internalType": "uint256",
							"name": "amount",
							"type": "uint256"
						}
					],
					"name": "transferFrom",
					"outputs": [
						{
							"internalType": "bool",
							"name": "",
							"type": "bool"
						}
					],
					"stateMutability": "nonpayable",
					"type": "function"
				},
				{
					"inputs": [
						{
							"internalType": "address",
							"name": "newOwner",
							"type": "address"
						}
					],
					"name": "transferOwnership",
					"outputs": [],
					"stateMutability": "nonpayable",
					"type": "function"
				},
				{
					"inputs": [],
					"name": "uniswapPair",
					"outputs": [
						{
							"internalType": "address",
							"name": "",
							"type": "address"
						}
					],
					"stateMutability": "view",
					"type": "function"
				},
				{
					"inputs": [],
					"name": "uniswapV2Router",
					"outputs": [
						{
							"internalType": "contract IUniswapV2Router02",
							"name": "",
							"type": "address"
						}
					],
					"stateMutability": "view",
					"type": "function"
				},
				{
					"inputs": [],
					"name": "waiveOwnership",
					"outputs": [],
					"stateMutability": "nonpayable",
					"type": "function"
				},
				{
					"stateMutability": "payable",
					"type": "receive"
				}
			],
			"devdoc": {
				"kind": "dev",
				"methods": {},
				"version": 1
			},
			"evm": {
				"assembly": "    /* \"contracts/yi.sol\":14334:23115  contract YI is Context, IERC20, Ownable {... */\n  mstore(0x40, 0x80)\n    /* \"contracts/yi.sol\":14458:14497  string private _name = \"Young Inspired\" */\n  mload(0x40)\n  dup1\n  0x40\n  add\n  0x40\n  mstore\n  dup1\n  0x0e\n  dup2\n  mstore\n  0x20\n  add\n  0x596f756e6720496e737069726564000000000000000000000000000000000000\n  dup2\n  mstore\n  pop\n  0x01\n  swap1\n  dup2\n  tag_1\n  swap2\n  swap1\n  tag_2\n  jump\t// in\ntag_1:\n  pop\n    /* \"contracts/yi.sol\":14504:14533  string private _symbol = \"Yi\" */\n  mload(0x40)\n  dup1\n  0x40\n  add\n  0x40\n  mstore\n  dup1\n  0x02\n  dup2\n  mstore\n  0x20\n  add\n  0x5969000000000000000000000000000000000000000000000000000000000000\n  dup2\n  mstore\n  pop\n  0x02\n  swap1\n  dup2\n  tag_3\n  swap2\n  swap1\n  tag_2\n  jump\t// in\ntag_3:\n  pop\n    /* \"contracts/yi.sol\":14566:14567  9 */\n  0x09\n    /* \"contracts/yi.sol\":14540:14567  uint8 private _decimals = 9 */\n  0x03\n  exp(0x0100, 0x00)\n  dup2\n  sload\n  dup2\n  0xff\n  mul\n  not\n  and\n  swap1\n  dup4\n  0xff\n  and\n  mul\n  or\n  swap1\n  sstore\n  pop\n    /* \"contracts/yi.sol\":14625:14667  0x000000000000000000000000000000000000dEaD */\n  0xdead\n    /* \"contracts/yi.sol\":14576:14668  address payable public marketingWallet = payable(0x000000000000000000000000000000000000dEaD) */\n  0x03\n  exp(0x0100, 0x01)\n  dup2\n  sload\n  dup2\n  0xffffffffffffffffffffffffffffffffffffffff\n  mul\n  not\n  and\n  swap1\n  dup4\n  0xffffffffffffffffffffffffffffffffffffffff\n  and\n  mul\n  or\n  swap1\n  sstore\n  pop\n    /* \"contracts/yi.sol\":14706:14748  0x000000000000000000000000000000000000dEaD */\n  0xdead\n    /* \"contracts/yi.sol\":14677:14748  address public deadAddress = 0x000000000000000000000000000000000000dEaD */\n  0x04\n  exp(0x0100, 0x00)\n  dup2\n  sload\n  dup2\n  0xffffffffffffffffffffffffffffffffffffffff\n  mul\n  not\n  and\n  swap1\n  dup4\n  0xffffffffffffffffffffffffffffffffffffffff\n  and\n  mul\n  or\n  swap1\n  sstore\n  pop\n    /* \"contracts/yi.sol\":15030:15031  0 */\n  0x00\n    /* \"contracts/yi.sol\":14999:15031  uint256 public _marketingFee = 0 */\n  0x09\n  sstore\n    /* \"contracts/yi.sol\":15067:15080  _marketingFee */\n  sload(0x09)\n    /* \"contracts/yi.sol\":15040:15080  uint256 public _totalTax = _marketingFee */\n  0x0a\n  sstore\n    /* \"contracts/yi.sol\":15140:15149  _decimals */\n  0x03\n  0x00\n  swap1\n  sload\n  swap1\n  0x0100\n  exp\n  swap1\n  div\n  0xff\n  and\n    /* \"contracts/yi.sol\":15134:15136  10 */\n  0x0a\n    /* \"contracts/yi.sol\":15134:15149  10 ** _decimals */\n  tag_4\n  swap2\n  swap1\n  tag_5\n  jump\t// in\ntag_4:\n    /* \"contracts/yi.sol\":15120:15131  11000000000 */\n  0x028fa6ae00\n    /* \"contracts/yi.sol\":15120:15149  11000000000 * 10 ** _decimals */\n  tag_6\n  swap2\n  swap1\n  tag_7\n  jump\t// in\ntag_6:\n    /* \"contracts/yi.sol\":15089:15149  uint256 private _totalSupply = 11000000000 * 10 ** _decimals */\n  0x0b\n  sstore\n    /* \"contracts/yi.sol\":15210:15219  _decimals */\n  0x03\n  0x00\n  swap1\n  sload\n  swap1\n  0x0100\n  exp\n  swap1\n  div\n  0xff\n  and\n    /* \"contracts/yi.sol\":15204:15206  10 */\n  0x0a\n    /* \"contracts/yi.sol\":15204:15219  10 ** _decimals */\n  tag_8\n  swap2\n  swap1\n  tag_5\n  jump\t// in\ntag_8:\n    /* \"contracts/yi.sol\":15198:15201  100 */\n  0x64\n    /* \"contracts/yi.sol\":15198:15219  100 * 10 ** _decimals */\n  tag_9\n  swap2\n  swap1\n  tag_7\n  jump\t// in\ntag_9:\n    /* \"contracts/yi.sol\":15156:15219  uint256 private minimumTokensBeforeSwap = 100 * 10 ** _decimals */\n  0x0c\n  sstore\n    /* \"contracts/yi.sol\":15380:15384  true */\n  0x01\n    /* \"contracts/yi.sol\":15344:15384  bool public swapAndLiquifyEnabled = true */\n  0x0e\n  exp(0x0100, 0x15)\n  dup2\n  sload\n  dup2\n  0xff\n  mul\n  not\n  and\n  swap1\n  dup4\n  iszero\n  iszero\n  mul\n  or\n  swap1\n  sstore\n  pop\n    /* \"contracts/yi.sol\":15431:15436  false */\n  0x00\n    /* \"contracts/yi.sol\":15391:15436  bool public swapAndLiquifyByLimitOnly = false */\n  0x0e\n  exp(0x0100, 0x16)\n  dup2\n  sload\n  dup2\n  0xff\n  mul\n  not\n  and\n  swap1\n  dup4\n  iszero\n  iszero\n  mul\n  or\n  swap1\n  sstore\n  pop\n    /* \"contracts/yi.sol\":15949:16767  constructor () {... */\n  callvalue\n  dup1\n  iszero\n  tag_10\n  jumpi\n  0x00\n  dup1\n  revert\ntag_10:\n  pop\n    /* \"contracts/yi.sol\":5737:5754  address msgSender */\n  0x00\n    /* \"contracts/yi.sol\":5757:5769  _msgSender() */\n  tag_14\n    /* \"contracts/yi.sol\":5757:5767  _msgSender */\n  shl(0x20, tag_15)\n    /* \"contracts/yi.sol\":5757:5769  _msgSender() */\n  0x20\n  shr\n  jump\t// in\ntag_14:\n    /* \"contracts/yi.sol\":5737:5769  address msgSender = _msgSender() */\n  swap1\n  pop\n    /* \"contracts/yi.sol\":5789:5798  msgSender */\n  dup1\n    /* \"contracts/yi.sol\":5780:5786  _owner */\n  0x00\n  dup1\n    /* \"contracts/yi.sol\":5780:5798  _owner = msgSender */\n  0x0100\n  exp\n  dup2\n  sload\n  dup2\n  0xffffffffffffffffffffffffffffffffffffffff\n  mul\n  not\n  and\n  swap1\n  dup4\n  0xffffffffffffffffffffffffffffffffffffffff\n  and\n  mul\n  or\n  swap1\n  sstore\n  pop\n    /* \"contracts/yi.sol\":5847:5856  msgSender */\n  dup1\n    /* \"contracts/yi.sol\":5814:5857  OwnershipTransferred(address(0), msgSender) */\n  0xffffffffffffffffffffffffffffffffffffffff\n  and\n    /* \"contracts/yi.sol\":5843:5844  0 */\n  0x00\n    /* \"contracts/yi.sol\":5814:5857  OwnershipTransferred(address(0), msgSender) */\n  0xffffffffffffffffffffffffffffffffffffffff\n  and\n  0x8be0079c531659141344cd1fd0a4f28419497f9722a3daafe3b4186f6b6457e0\n  mload(0x40)\n  mload(0x40)\n  dup1\n  swap2\n  sub\n  swap1\n  log3\n    /* \"contracts/yi.sol\":5726:5865  {... */\n  pop\n    /* \"contracts/yi.sol\":15985:16020  IUniswapV2Router02 _uniswapV2Router */\n  0x00\n    /* \"contracts/yi.sol\":16042:16084  0x10ED43C718714eb63d5aA57B78B54704E256024E */\n  0x10ed43c718714eb63d5aa57b78b54704e256024e\n    /* \"contracts/yi.sol\":15985:16085  IUniswapV2Router02 _uniswapV2Router = IUniswapV2Router02(0x10ED43C718714eb63d5aA57B78B54704E256024E) */\n  swap1\n  pop\n    /* \"contracts/yi.sol\":16131:16147  _uniswapV2Router */\n  dup1\n    /* \"contracts/yi.sol\":16131:16155  _uniswapV2Router.factory */\n  0xffffffffffffffffffffffffffffffffffffffff\n  and\n  0xc45a0155\n    /* \"contracts/yi.sol\":16131:16157  _uniswapV2Router.factory() */\n  mload(0x40)\n  dup2\n  0xffffffff\n  and\n  0xe0\n  shl\n  dup2\n  mstore\n  0x04\n  add\n  0x20\n  mload(0x40)\n  dup1\n  dup4\n  sub\n  dup2\n  dup7\n  gas\n  staticcall\n  iszero\n  dup1\n  iszero\n  tag_18\n  jumpi\n  returndatasize\n  0x00\n  dup1\n  returndatacopy\n  revert(0x00, returndatasize)\ntag_18:\n  pop\n  pop\n  pop\n  pop\n  mload(0x40)\n  returndatasize\n  not(0x1f)\n  0x1f\n  dup3\n  add\n  and\n  dup3\n  add\n  dup1\n  0x40\n  mstore\n  pop\n  dup2\n  add\n  swap1\n  tag_19\n  swap2\n  swap1\n  tag_20\n  jump\t// in\ntag_19:\n    /* \"contracts/yi.sol\":16113:16183  IUniswapV2Factory(_uniswapV2Router.factory())... */\n  0xffffffffffffffffffffffffffffffffffffffff\n  and\n  0xc9c65396\n    /* \"contracts/yi.sol\":16192:16196  this */\n  address\n    /* \"contracts/yi.sol\":16199:16215  _uniswapV2Router */\n  dup4\n    /* \"contracts/yi.sol\":16199:16220  _uniswapV2Router.WETH */\n  0xffffffffffffffffffffffffffffffffffffffff\n  and\n  0xad5c4648\n    /* \"contracts/yi.sol\":16199:16222  _uniswapV2Router.WETH() */\n  mload(0x40)\n  dup2\n  0xffffffff\n  and\n  0xe0\n  shl\n  dup2\n  mstore\n  0x04\n  add\n  0x20\n  mload(0x40)\n  dup1\n  dup4\n  sub\n  dup2\n  dup7\n  gas\n  staticcall\n  iszero\n  dup1\n  iszero\n  tag_22\n  jumpi\n  returndatasize\n  0x00\n  dup1\n  returndatacopy\n  revert(0x00, returndatasize)\ntag_22:\n  pop\n  pop\n  pop\n  pop\n  mload(0x40)\n  returndatasize\n  not(0x1f)\n  0x1f\n  dup3\n  add\n  and\n  dup3\n  add\n  dup1\n  0x40\n  mstore\n  pop\n  dup2\n  add\n  swap1\n  tag_23\n  swap2\n  swap1\n  tag_20\n  jump\t// in\ntag_23:\n    /* \"contracts/yi.sol\":16113:16223  IUniswapV2Factory(_uniswapV2Router.factory())... */\n  mload(0x40)\n  dup4\n  0xffffffff\n  and\n  0xe0\n  shl\n  dup2\n  mstore\n  0x04\n  add\n  tag_24\n  swap3\n  swap2\n  swap1\n  tag_25\n  jump\t// in\ntag_24:\n  0x20\n  mload(0x40)\n  dup1\n  dup4\n  sub\n  dup2\n  0x00\n  dup8\n  gas\n  call\n  iszero\n  dup1\n  iszero\n  tag_27\n  jumpi\n  returndatasize\n  0x00\n  dup1\n  returndatacopy\n  revert(0x00, returndatasize)\ntag_27:\n  pop\n  pop\n  pop\n  pop\n  mload(0x40)\n  returndatasize\n  not(0x1f)\n  0x1f\n  dup3\n  add\n  and\n  dup3\n  add\n  dup1\n  0x40\n  mstore\n  pop\n  dup2\n  add\n  swap1\n  tag_28\n  swap2\n  swap1\n  tag_20\n  jump\t// in\ntag_28:\n    /* \"contracts/yi.sol\":16099:16110  uniswapPair */\n  0x0e\n  0x00\n    /* \"contracts/yi.sol\":16099:16223  uniswapPair = IUniswapV2Factory(_uniswapV2Router.factory())... */\n  0x0100\n  exp\n  dup2\n  sload\n  dup2\n  0xffffffffffffffffffffffffffffffffffffffff\n  mul\n  not\n  and\n  swap1\n  dup4\n  0xffffffffffffffffffffffffffffffffffffffff\n  and\n  mul\n  or\n  swap1\n  sstore\n  pop\n    /* \"contracts/yi.sol\":16254:16270  _uniswapV2Router */\n  dup1\n    /* \"contracts/yi.sol\":16236:16251  uniswapV2Router */\n  0x0d\n  0x00\n    /* \"contracts/yi.sol\":16236:16270  uniswapV2Router = _uniswapV2Router */\n  0x0100\n  exp\n  dup2\n  sload\n  dup2\n  0xffffffffffffffffffffffffffffffffffffffff\n  mul\n  not\n  and\n  swap1\n  dup4\n  0xffffffffffffffffffffffffffffffffffffffff\n  and\n  mul\n  or\n  swap1\n  sstore\n  pop\n    /* \"contracts/yi.sol\":16336:16348  _totalSupply */\n  sload(0x0b)\n    /* \"contracts/yi.sol\":16281:16292  _allowances */\n  0x06\n    /* \"contracts/yi.sol\":16281:16307  _allowances[address(this)] */\n  0x00\n    /* \"contracts/yi.sol\":16301:16305  this */\n  address\n    /* \"contracts/yi.sol\":16281:16307  _allowances[address(this)] */\n  0xffffffffffffffffffffffffffffffffffffffff\n  and\n  0xffffffffffffffffffffffffffffffffffffffff\n  and\n  dup2\n  mstore\n  0x20\n  add\n  swap1\n  dup2\n  mstore\n  0x20\n  add\n  0x00\n  keccak256\n    /* \"contracts/yi.sol\":16281:16333  _allowances[address(this)][address(uniswapV2Router)] */\n  0x00\n    /* \"contracts/yi.sol\":16316:16331  uniswapV2Router */\n  0x0d\n  0x00\n  swap1\n  sload\n  swap1\n  0x0100\n  exp\n  swap1\n  div\n  0xffffffffffffffffffffffffffffffffffffffff\n  and\n    /* \"contracts/yi.sol\":16281:16333  _allowances[address(this)][address(uniswapV2Router)] */\n  0xffffffffffffffffffffffffffffffffffffffff\n  and\n  0xffffffffffffffffffffffffffffffffffffffff\n  and\n  dup2\n  mstore\n  0x20\n  add\n  swap1\n  dup2\n  mstore\n  0x20\n  add\n  0x00\n  keccak256\n    /* \"contracts/yi.sol\":16281:16348  _allowances[address(this)][address(uniswapV2Router)] = _totalSupply */\n  dup2\n  swap1\n  sstore\n  pop\n    /* \"contracts/yi.sol\":16390:16394  true */\n  0x01\n    /* \"contracts/yi.sol\":16361:16378  isExcludedFromFee */\n  0x07\n    /* \"contracts/yi.sol\":16361:16387  isExcludedFromFee[owner()] */\n  0x00\n    /* \"contracts/yi.sol\":16379:16386  owner() */\n  tag_29\n    /* \"contracts/yi.sol\":16379:16384  owner */\n  shl(0x20, tag_30)\n    /* \"contracts/yi.sol\":16379:16386  owner() */\n  0x20\n  shr\n  jump\t// in\ntag_29:\n    /* \"contracts/yi.sol\":16361:16387  isExcludedFromFee[owner()] */\n  0xffffffffffffffffffffffffffffffffffffffff\n  and\n  0xffffffffffffffffffffffffffffffffffffffff\n  and\n  dup2\n  mstore\n  0x20\n  add\n  swap1\n  dup2\n  mstore\n  0x20\n  add\n  0x00\n  keccak256\n  0x00\n    /* \"contracts/yi.sol\":16361:16394  isExcludedFromFee[owner()] = true */\n  0x0100\n  exp\n  dup2\n  sload\n  dup2\n  0xff\n  mul\n  not\n  and\n  swap1\n  dup4\n  iszero\n  iszero\n  mul\n  or\n  swap1\n  sstore\n  pop\n    /* \"contracts/yi.sol\":16440:16444  true */\n  0x01\n    /* \"contracts/yi.sol\":16405:16422  isExcludedFromFee */\n  0x07\n    /* \"contracts/yi.sol\":16405:16437  isExcludedFromFee[address(this)] */\n  0x00\n    /* \"contracts/yi.sol\":16431:16435  this */\n  address\n    /* \"contracts/yi.sol\":16405:16437  isExcludedFromFee[address(this)] */\n  0xffffffffffffffffffffffffffffffffffffffff\n  and\n  0xffffffffffffffffffffffffffffffffffffffff\n  and\n  dup2\n  mstore\n  0x20\n  add\n  swap1\n  dup2\n  mstore\n  0x20\n  add\n  0x00\n  keccak256\n  0x00\n    /* \"contracts/yi.sol\":16405:16444  isExcludedFromFee[address(this)] = true */\n  0x0100\n  exp\n  dup2\n  sload\n  dup2\n  0xff\n  mul\n  not\n  and\n  swap1\n  dup4\n  iszero\n  iszero\n  mul\n  or\n  swap1\n  sstore\n  pop\n    /* \"contracts/yi.sol\":16488:16492  true */\n  0x01\n    /* \"contracts/yi.sol\":16455:16472  isExcludedFromFee */\n  0x07\n    /* \"contracts/yi.sol\":16455:16485  isExcludedFromFee[deadAddress] */\n  0x00\n    /* \"contracts/yi.sol\":16473:16484  deadAddress */\n  0x04\n  0x00\n  swap1\n  sload\n  swap1\n  0x0100\n  exp\n  swap1\n  div\n  0xffffffffffffffffffffffffffffffffffffffff\n  and\n    /* \"contracts/yi.sol\":16455:16485  isExcludedFromFee[deadAddress] */\n  0xffffffffffffffffffffffffffffffffffffffff\n  and\n  0xffffffffffffffffffffffffffffffffffffffff\n  and\n  dup2\n  mstore\n  0x20\n  add\n  swap1\n  dup2\n  mstore\n  0x20\n  add\n  0x00\n  keccak256\n  0x00\n    /* \"contracts/yi.sol\":16455:16492  isExcludedFromFee[deadAddress] = true */\n  0x0100\n  exp\n  dup2\n  sload\n  dup2\n  0xff\n  mul\n  not\n  and\n  swap1\n  dup4\n  iszero\n  iszero\n  mul\n  or\n  swap1\n  sstore\n  pop\n    /* \"contracts/yi.sol\":16540:16544  true */\n  0x01\n    /* \"contracts/yi.sol\":16503:16520  isExcludedFromFee */\n  0x07\n    /* \"contracts/yi.sol\":16503:16537  isExcludedFromFee[marketingWallet] */\n  0x00\n    /* \"contracts/yi.sol\":16521:16536  marketingWallet */\n  0x03\n  0x01\n  swap1\n  sload\n  swap1\n  0x0100\n  exp\n  swap1\n  div\n  0xffffffffffffffffffffffffffffffffffffffff\n  and\n    /* \"contracts/yi.sol\":16503:16537  isExcludedFromFee[marketingWallet] */\n  0xffffffffffffffffffffffffffffffffffffffff\n  and\n  0xffffffffffffffffffffffffffffffffffffffff\n  and\n  dup2\n  mstore\n  0x20\n  add\n  swap1\n  dup2\n  mstore\n  0x20\n  add\n  0x00\n  keccak256\n  0x00\n    /* \"contracts/yi.sol\":16503:16544  isExcludedFromFee[marketingWallet] = true */\n  0x0100\n  exp\n  dup2\n  sload\n  dup2\n  0xff\n  mul\n  not\n  and\n  swap1\n  dup4\n  iszero\n  iszero\n  mul\n  or\n  swap1\n  sstore\n  pop\n    /* \"contracts/yi.sol\":16577:16590  _marketingFee */\n  sload(0x09)\n    /* \"contracts/yi.sol\":16565:16574  _totalTax */\n  0x0a\n    /* \"contracts/yi.sol\":16565:16590  _totalTax = _marketingFee */\n  dup2\n  swap1\n  sstore\n  pop\n    /* \"contracts/yi.sol\":16640:16644  true */\n  0x01\n    /* \"contracts/yi.sol\":16603:16615  isMarketPair */\n  0x08\n    /* \"contracts/yi.sol\":16603:16637  isMarketPair[address(uniswapPair)] */\n  0x00\n    /* \"contracts/yi.sol\":16624:16635  uniswapPair */\n  0x0e\n  0x00\n  swap1\n  sload\n  swap1\n  0x0100\n  exp\n  swap1\n  div\n  0xffffffffffffffffffffffffffffffffffffffff\n  and\n    /* \"contracts/yi.sol\":16603:16637  isMarketPair[address(uniswapPair)] */\n  0xffffffffffffffffffffffffffffffffffffffff\n  and\n  0xffffffffffffffffffffffffffffffffffffffff\n  and\n  dup2\n  mstore\n  0x20\n  add\n  swap1\n  dup2\n  mstore\n  0x20\n  add\n  0x00\n  keccak256\n  0x00\n    /* \"contracts/yi.sol\":16603:16644  isMarketPair[address(uniswapPair)] = true */\n  0x0100\n  exp\n  dup2\n  sload\n  dup2\n  0xff\n  mul\n  not\n  and\n  swap1\n  dup4\n  iszero\n  iszero\n  mul\n  or\n  swap1\n  sstore\n  pop\n    /* \"contracts/yi.sol\":16683:16695  _totalSupply */\n  sload(0x0b)\n    /* \"contracts/yi.sol\":16657:16666  _balances */\n  0x05\n    /* \"contracts/yi.sol\":16657:16680  _balances[_msgSender()] */\n  0x00\n    /* \"contracts/yi.sol\":16667:16679  _msgSender() */\n  tag_31\n    /* \"contracts/yi.sol\":16667:16677  _msgSender */\n  shl(0x20, tag_15)\n    /* \"contracts/yi.sol\":16667:16679  _msgSender() */\n  0x20\n  shr\n  jump\t// in\ntag_31:\n    /* \"contracts/yi.sol\":16657:16680  _balances[_msgSender()] */\n  0xffffffffffffffffffffffffffffffffffffffff\n  and\n  0xffffffffffffffffffffffffffffffffffffffff\n  and\n  dup2\n  mstore\n  0x20\n  add\n  swap1\n  dup2\n  mstore\n  0x20\n  add\n  0x00\n  keccak256\n    /* \"contracts/yi.sol\":16657:16695  _balances[_msgSender()] = _totalSupply */\n  dup2\n  swap1\n  sstore\n  pop\n    /* \"contracts/yi.sol\":16732:16744  _msgSender() */\n  tag_32\n    /* \"contracts/yi.sol\":16732:16742  _msgSender */\n  shl(0x20, tag_15)\n    /* \"contracts/yi.sol\":16732:16744  _msgSender() */\n  0x20\n  shr\n  jump\t// in\ntag_32:\n    /* \"contracts/yi.sol\":16711:16759  Transfer(address(0), _msgSender(), _totalSupply) */\n  0xffffffffffffffffffffffffffffffffffffffff\n  and\n    /* \"contracts/yi.sol\":16728:16729  0 */\n  0x00\n    /* \"contracts/yi.sol\":16711:16759  Transfer(address(0), _msgSender(), _totalSupply) */\n  0xffffffffffffffffffffffffffffffffffffffff\n  and\n  0xddf252ad1be2c89b69c2b068fc378daa952ba7f163c4a11628f55a4df523b3ef\n    /* \"contracts/yi.sol\":16746:16758  _totalSupply */\n  sload(0x0b)\n    /* \"contracts/yi.sol\":16711:16759  Transfer(address(0), _msgSender(), _totalSupply) */\n  mload(0x40)\n  tag_33\n  swap2\n  swap1\n  tag_34\n  jump\t// in\ntag_33:\n  mload(0x40)\n  dup1\n  swap2\n  sub\n  swap1\n  log3\n    /* \"contracts/yi.sol\":15964:16767  {... */\n  pop\n    /* \"contracts/yi.sol\":14334:23115  contract YI is Context, IERC20, Ownable {... */\n  jump(tag_35)\n    /* \"contracts/yi.sol\":244:359  function _msgSender() internal view virtual returns (address payable) {... */\ntag_15:\n    /* \"contracts/yi.sol\":297:312  address payable */\n  0x00\n    /* \"contracts/yi.sol\":340:350  msg.sender */\n  caller\n    /* \"contracts/yi.sol\":325:351  return payable(msg.sender) */\n  swap1\n  pop\n    /* \"contracts/yi.sol\":244:359  function _msgSender() internal view virtual returns (address payable) {... */\n  swap1\n  jump\t// out\n    /* \"contracts/yi.sol\":5873:5952  function owner() public view returns (address) {... */\ntag_30:\n    /* \"contracts/yi.sol\":5911:5918  address */\n  0x00\n    /* \"contracts/yi.sol\":5938:5944  _owner */\n  dup1\n  0x00\n  swap1\n  sload\n  swap1\n  0x0100\n  exp\n  swap1\n  div\n  0xffffffffffffffffffffffffffffffffffffffff\n  and\n    /* \"contracts/yi.sol\":5931:5944  return _owner */\n  swap1\n  pop\n    /* \"contracts/yi.sol\":5873:5952  function owner() public view returns (address) {... */\n  swap1\n  jump\t// out\n    /* \"#utility.yul\":7:106   */\ntag_38:\n    /* \"#utility.yul\":59:65   */\n  0x00\n    /* \"#utility.yul\":93:98   */\n  dup2\n    /* \"#utility.yul\":87:99   */\n  mload\n    /* \"#utility.yul\":77:99   */\n  swap1\n  pop\n    /* \"#utility.yul\":7:106   */\n  swap2\n  swap1\n  pop\n  jump\t// out\n    /* \"#utility.yul\":112:292   */\ntag_39:\n    /* \"#utility.yul\":160:237   */\n  0x4e487b7100000000000000000000000000000000000000000000000000000000\n    /* \"#utility.yul\":157:158   */\n  0x00\n    /* \"#utility.yul\":150:238   */\n  mstore\n    /* \"#utility.yul\":257:261   */\n  0x41\n    /* \"#utility.yul\":254:255   */\n  0x04\n    /* \"#utility.yul\":247:262   */\n  mstore\n    /* \"#utility.yul\":281:285   */\n  0x24\n    /* \"#utility.yul\":278:279   */\n  0x00\n    /* \"#utility.yul\":271:286   */\n  revert\n    /* \"#utility.yul\":298:478   */\ntag_40:\n    /* \"#utility.yul\":346:423   */\n  0x4e487b7100000000000000000000000000000000000000000000000000000000\n    /* \"#utility.yul\":343:344   */\n  0x00\n    /* \"#utility.yul\":336:424   */\n  mstore\n    /* \"#utility.yul\":443:447   */\n  0x22\n    /* \"#utility.yul\":440:441   */\n  0x04\n    /* \"#utility.yul\":433:448   */\n  mstore\n    /* \"#utility.yul\":467:471   */\n  0x24\n    /* \"#utility.yul\":464:465   */\n  0x00\n    /* \"#utility.yul\":457:472   */\n  revert\n    /* \"#utility.yul\":484:804   */\ntag_41:\n    /* \"#utility.yul\":528:534   */\n  0x00\n    /* \"#utility.yul\":565:566   */\n  0x02\n    /* \"#utility.yul\":559:563   */\n  dup3\n    /* \"#utility.yul\":555:567   */\n  div\n    /* \"#utility.yul\":545:567   */\n  swap1\n  pop\n    /* \"#utility.yul\":612:613   */\n  0x01\n    /* \"#utility.yul\":606:610   */\n  dup3\n    /* \"#utility.yul\":602:614   */\n  and\n    /* \"#utility.yul\":633:651   */\n  dup1\n    /* \"#utility.yul\":623:704   */\n  tag_77\n  jumpi\n    /* \"#utility.yul\":689:693   */\n  0x7f\n    /* \"#utility.yul\":681:687   */\n  dup3\n    /* \"#utility.yul\":677:694   */\n  and\n    /* \"#utility.yul\":667:694   */\n  swap2\n  pop\n    /* \"#utility.yul\":623:704   */\ntag_77:\n    /* \"#utility.yul\":751:753   */\n  0x20\n    /* \"#utility.yul\":743:749   */\n  dup3\n    /* \"#utility.yul\":740:754   */\n  lt\n    /* \"#utility.yul\":720:738   */\n  dup2\n    /* \"#utility.yul\":717:755   */\n  sub\n    /* \"#utility.yul\":714:798   */\n  tag_78\n  jumpi\n    /* \"#utility.yul\":770:788   */\n  tag_79\n  tag_40\n  jump\t// in\ntag_79:\n    /* \"#utility.yul\":714:798   */\ntag_78:\n    /* \"#utility.yul\":535:804   */\n  pop\n    /* \"#utility.yul\":484:804   */\n  swap2\n  swap1\n  pop\n  jump\t// out\n    /* \"#utility.yul\":810:951   */\ntag_42:\n    /* \"#utility.yul\":859:863   */\n  0x00\n    /* \"#utility.yul\":882:885   */\n  dup2\n    /* \"#utility.yul\":874:885   */\n  swap1\n  pop\n    /* \"#utility.yul\":905:908   */\n  dup2\n    /* \"#utility.yul\":902:903   */\n  0x00\n    /* \"#utility.yul\":895:909   */\n  mstore\n    /* \"#utility.yul\":939:943   */\n  0x20\n    /* \"#utility.yul\":936:937   */\n  0x00\n    /* \"#utility.yul\":926:944   */\n  keccak256\n    /* \"#utility.yul\":918:944   */\n  swap1\n  pop\n    /* \"#utility.yul\":810:951   */\n  swap2\n  swap1\n  pop\n  jump\t// out\n    /* \"#utility.yul\":957:1050   */\ntag_43:\n    /* \"#utility.yul\":994:1000   */\n  0x00\n    /* \"#utility.yul\":1041:1043   */\n  0x20\n    /* \"#utility.yul\":1036:1038   */\n  0x1f\n    /* \"#utility.yul\":1029:1034   */\n  dup4\n    /* \"#utility.yul\":1025:1039   */\n  add\n    /* \"#utility.yul\":1021:1044   */\n  div\n    /* \"#utility.yul\":1011:1044   */\n  swap1\n  pop\n    /* \"#utility.yul\":957:1050   */\n  swap2\n  swap1\n  pop\n  jump\t// out\n    /* \"#utility.yul\":1056:1163   */\ntag_44:\n    /* \"#utility.yul\":1100:1108   */\n  0x00\n    /* \"#utility.yul\":1150:1155   */\n  dup3\n    /* \"#utility.yul\":1144:1148   */\n  dup3\n    /* \"#utility.yul\":1140:1156   */\n  shl\n    /* \"#utility.yul\":1119:1156   */\n  swap1\n  pop\n    /* \"#utility.yul\":1056:1163   */\n  swap3\n  swap2\n  pop\n  pop\n  jump\t// out\n    /* \"#utility.yul\":1169:1562   */\ntag_45:\n    /* \"#utility.yul\":1238:1244   */\n  0x00\n    /* \"#utility.yul\":1288:1289   */\n  0x08\n    /* \"#utility.yul\":1276:1286   */\n  dup4\n    /* \"#utility.yul\":1272:1290   */\n  mul\n    /* \"#utility.yul\":1311:1408   */\n  tag_84\n    /* \"#utility.yul\":1341:1407   */\n  0xffffffffffffffffffffffffffffffffffffffffffffffffffffffffffffffff\n    /* \"#utility.yul\":1330:1339   */\n  dup3\n    /* \"#utility.yul\":1311:1408   */\n  tag_44\n  jump\t// in\ntag_84:\n    /* \"#utility.yul\":1429:1468   */\n  tag_85\n    /* \"#utility.yul\":1459:1467   */\n  dup7\n    /* \"#utility.yul\":1448:1457   */\n  dup4\n    /* \"#utility.yul\":1429:1468   */\n  tag_44\n  jump\t// in\ntag_85:\n    /* \"#utility.yul\":1417:1468   */\n  swap6\n  pop\n    /* \"#utility.yul\":1501:1505   */\n  dup1\n    /* \"#utility.yul\":1497:1506   */\n  not\n    /* \"#utility.yul\":1490:1495   */\n  dup5\n    /* \"#utility.yul\":1486:1507   */\n  and\n    /* \"#utility.yul\":1477:1507   */\n  swap4\n  pop\n    /* \"#utility.yul\":1550:1554   */\n  dup1\n    /* \"#utility.yul\":1540:1548   */\n  dup7\n    /* \"#utility.yul\":1536:1555   */\n  and\n    /* \"#utility.yul\":1529:1534   */\n  dup5\n    /* \"#utility.yul\":1526:1556   */\n  or\n    /* \"#utility.yul\":1516:1556   */\n  swap3\n  pop\n    /* \"#utility.yul\":1245:1562   */\n  pop\n  pop\n    /* \"#utility.yul\":1169:1562   */\n  swap4\n  swap3\n  pop\n  pop\n  pop\n  jump\t// out\n    /* \"#utility.yul\":1568:1645   */\ntag_46:\n    /* \"#utility.yul\":1605:1612   */\n  0x00\n    /* \"#utility.yul\":1634:1639   */\n  dup2\n    /* \"#utility.yul\":1623:1639   */\n  swap1\n  pop\n    /* \"#utility.yul\":1568:1645   */\n  swap2\n  swap1\n  pop\n  jump\t// out\n    /* \"#utility.yul\":1651:1711   */\ntag_47:\n    /* \"#utility.yul\":1679:1682   */\n  0x00\n    /* \"#utility.yul\":1700:1705   */\n  dup2\n    /* \"#utility.yul\":1693:1705   */\n  swap1\n  pop\n    /* \"#utility.yul\":1651:1711   */\n  swap2\n  swap1\n  pop\n  jump\t// out\n    /* \"#utility.yul\":1717:1859   */\ntag_48:\n    /* \"#utility.yul\":1767:1776   */\n  0x00\n    /* \"#utility.yul\":1800:1853   */\n  tag_89\n    /* \"#utility.yul\":1818:1852   */\n  tag_90\n    /* \"#utility.yul\":1827:1851   */\n  tag_91\n    /* \"#utility.yul\":1845:1850   */\n  dup5\n    /* \"#utility.yul\":1827:1851   */\n  tag_46\n  jump\t// in\ntag_91:\n    /* \"#utility.yul\":1818:1852   */\n  tag_47\n  jump\t// in\ntag_90:\n    /* \"#utility.yul\":1800:1853   */\n  tag_46\n  jump\t// in\ntag_89:\n    /* \"#utility.yul\":1787:1853   */\n  swap1\n  pop\n    /* \"#utility.yul\":1717:1859   */\n  swap2\n  swap1\n  pop\n  jump\t// out\n    /* \"#utility.yul\":1865:1940   */\ntag_49:\n    /* \"#utility.yul\":1908:1911   */\n  0x00\n    /* \"#utility.yul\":1929:1934   */\n  dup2\n    /* \"#utility.yul\":1922:1934   */\n  swap1\n  pop\n    /* \"#utility.yul\":1865:1940   */\n  swap2\n  swap1\n  pop\n  jump\t// out\n    /* \"#utility.yul\":1946:2215   */\ntag_50:\n    /* \"#utility.yul\":2056:2095   */\n  tag_94\n    /* \"#utility.yul\":2087:2094   */\n  dup4\n    /* \"#utility.yul\":2056:2095   */\n  tag_48\n  jump\t// in\ntag_94:\n    /* \"#utility.yul\":2117:2208   */\n  tag_95\n    /* \"#utility.yul\":2166:2207   */\n  tag_96\n    /* \"#utility.yul\":2190:2206   */\n  dup3\n    /* \"#utility.yul\":2166:2207   */\n  tag_49\n  jump\t// in\ntag_96:\n    /* \"#utility.yul\":2158:2164   */\n  dup5\n    /* \"#utility.yul\":2151:2155   */\n  dup5\n    /* \"#utility.yul\":2145:2156   */\n  sload\n    /* \"#utility.yul\":2117:2208   */\n  tag_45\n  jump\t// in\ntag_95:\n    /* \"#utility.yul\":2111:2115   */\n  dup3\n    /* \"#utility.yul\":2104:2209   */\n  sstore\n    /* \"#utility.yul\":2022:2215   */\n  pop\n    /* \"#utility.yul\":1946:2215   */\n  pop\n  pop\n  pop\n  jump\t// out\n    /* \"#utility.yul\":2221:2294   */\ntag_51:\n    /* \"#utility.yul\":2266:2269   */\n  0x00\n    /* \"#utility.yul\":2221:2294   */\n  swap1\n  jump\t// out\n    /* \"#utility.yul\":2300:2489   */\ntag_52:\n    /* \"#utility.yul\":2377:2409   */\n  tag_99\n  tag_51\n  jump\t// in\ntag_99:\n    /* \"#utility.yul\":2418:2483   */\n  tag_100\n    /* \"#utility.yul\":2476:2482   */\n  dup2\n    /* \"#utility.yul\":2468:2474   */\n  dup5\n    /* \"#utility.yul\":2462:2466   */\n  dup5\n    /* \"#utility.yul\":2418:2483   */\n  tag_50\n  jump\t// in\ntag_100:\n    /* \"#utility.yul\":2353:2489   */\n  pop\n    /* \"#utility.yul\":2300:2489   */\n  pop\n  pop\n  jump\t// out\n    /* \"#utility.yul\":2495:2681   */\ntag_53:\n    /* \"#utility.yul\":2555:2675   */\ntag_102:\n    /* \"#utility.yul\":2572:2575   */\n  dup2\n    /* \"#utility.yul\":2565:2570   */\n  dup2\n    /* \"#utility.yul\":2562:2576   */\n  lt\n    /* \"#utility.yul\":2555:2675   */\n  iszero\n  tag_104\n  jumpi\n    /* \"#utility.yul\":2626:2665   */\n  tag_105\n    /* \"#utility.yul\":2663:2664   */\n  0x00\n    /* \"#utility.yul\":2656:2661   */\n  dup3\n    /* \"#utility.yul\":2626:2665   */\n  tag_52\n  jump\t// in\ntag_105:\n    /* \"#utility.yul\":2599:2600   */\n  0x01\n    /* \"#utility.yul\":2592:2597   */\n  dup2\n    /* \"#utility.yul\":2588:2601   */\n  add\n    /* \"#utility.yul\":2579:2601   */\n  swap1\n  pop\n    /* \"#utility.yul\":2555:2675   */\n  jump(tag_102)\ntag_104:\n    /* \"#utility.yul\":2495:2681   */\n  pop\n  pop\n  jump\t// out\n    /* \"#utility.yul\":2687:3230   */\ntag_54:\n    /* \"#utility.yul\":2788:2790   */\n  0x1f\n    /* \"#utility.yul\":2783:2786   */\n  dup3\n    /* \"#utility.yul\":2780:2791   */\n  gt\n    /* \"#utility.yul\":2777:3223   */\n  iszero\n  tag_107\n  jumpi\n    /* \"#utility.yul\":2822:2860   */\n  tag_108\n    /* \"#utility.yul\":2854:2859   */\n  dup2\n    /* \"#utility.yul\":2822:2860   */\n  tag_42\n  jump\t// in\ntag_108:\n    /* \"#utility.yul\":2906:2935   */\n  tag_109\n    /* \"#utility.yul\":2924:2934   */\n  dup5\n    /* \"#utility.yul\":2906:2935   */\n  tag_43\n  jump\t// in\ntag_109:\n    /* \"#utility.yul\":2896:2904   */\n  dup2\n    /* \"#utility.yul\":2892:2936   */\n  add\n    /* \"#utility.yul\":3089:3091   */\n  0x20\n    /* \"#utility.yul\":3077:3087   */\n  dup6\n    /* \"#utility.yul\":3074:3092   */\n  lt\n    /* \"#utility.yul\":3071:3120   */\n  iszero\n  tag_110\n  jumpi\n    /* \"#utility.yul\":3110:3118   */\n  dup2\n    /* \"#utility.yul\":3095:3118   */\n  swap1\n  pop\n    /* \"#utility.yul\":3071:3120   */\ntag_110:\n    /* \"#utility.yul\":3133:3213   */\n  tag_111\n    /* \"#utility.yul\":3189:3211   */\n  tag_112\n    /* \"#utility.yul\":3207:3210   */\n  dup6\n    /* \"#utility.yul\":3189:3211   */\n  tag_43\n  jump\t// in\ntag_112:\n    /* \"#utility.yul\":3179:3187   */\n  dup4\n    /* \"#utility.yul\":3175:3212   */\n  add\n    /* \"#utility.yul\":3162:3173   */\n  dup3\n    /* \"#utility.yul\":3133:3213   */\n  tag_53\n  jump\t// in\ntag_111:\n    /* \"#utility.yul\":2792:3223   */\n  pop\n  pop\n    /* \"#utility.yul\":2777:3223   */\ntag_107:\n    /* \"#utility.yul\":2687:3230   */\n  pop\n  pop\n  pop\n  jump\t// out\n    /* \"#utility.yul\":3236:3353   */\ntag_55:\n    /* \"#utility.yul\":3290:3298   */\n  0x00\n    /* \"#utility.yul\":3340:3345   */\n  dup3\n    /* \"#utility.yul\":3334:3338   */\n  dup3\n    /* \"#utility.yul\":3330:3346   */\n  shr\n    /* \"#utility.yul\":3309:3346   */\n  swap1\n  pop\n    /* \"#utility.yul\":3236:3353   */\n  swap3\n  swap2\n  pop\n  pop\n  jump\t// out\n    /* \"#utility.yul\":3359:3528   */\ntag_56:\n    /* \"#utility.yul\":3403:3409   */\n  0x00\n    /* \"#utility.yul\":3436:3487   */\n  tag_115\n    /* \"#utility.yul\":3484:3485   */\n  0x00\n    /* \"#utility.yul\":3480:3486   */\n  not\n    /* \"#utility.yul\":3472:3477   */\n  dup5\n    /* \"#utility.yul\":3469:3470   */\n  0x08\n    /* \"#utility.yul\":3465:3478   */\n  mul\n    /* \"#utility.yul\":3436:3487   */\n  tag_55\n  jump\t// in\ntag_115:\n    /* \"#utility.yul\":3432:3488   */\n  not\n    /* \"#utility.yul\":3517:3521   */\n  dup1\n    /* \"#utility.yul\":3511:3515   */\n  dup4\n    /* \"#utility.yul\":3507:3522   */\n  and\n    /* \"#utility.yul\":3497:3522   */\n  swap2\n  pop\n    /* \"#utility.yul\":3410:3528   */\n  pop\n    /* \"#utility.yul\":3359:3528   */\n  swap3\n  swap2\n  pop\n  pop\n  jump\t// out\n    /* \"#utility.yul\":3533:3828   */\ntag_57:\n    /* \"#utility.yul\":3609:3613   */\n  0x00\n    /* \"#utility.yul\":3755:3784   */\n  tag_117\n    /* \"#utility.yul\":3780:3783   */\n  dup4\n    /* \"#utility.yul\":3774:3778   */\n  dup4\n    /* \"#utility.yul\":3755:3784   */\n  tag_56\n  jump\t// in\ntag_117:\n    /* \"#utility.yul\":3747:3784   */\n  swap2\n  pop\n    /* \"#utility.yul\":3817:3820   */\n  dup3\n    /* \"#utility.yul\":3814:3815   */\n  0x02\n    /* \"#utility.yul\":3810:3821   */\n  mul\n    /* \"#utility.yul\":3804:3808   */\n  dup3\n    /* \"#utility.yul\":3801:3822   */\n  or\n    /* \"#utility.yul\":3793:3822   */\n  swap1\n  pop\n    /* \"#utility.yul\":3533:3828   */\n  swap3\n  swap2\n  pop\n  pop\n  jump\t// out\n    /* \"#utility.yul\":3833:5228   */\ntag_2:\n    /* \"#utility.yul\":3950:3987   */\n  tag_119\n    /* \"#utility.yul\":3983:3986   */\n  dup3\n    /* \"#utility.yul\":3950:3987   */\n  tag_38\n  jump\t// in\ntag_119:\n    /* \"#utility.yul\":4052:4070   */\n  0xffffffffffffffff\n    /* \"#utility.yul\":4044:4050   */\n  dup2\n    /* \"#utility.yul\":4041:4071   */\n  gt\n    /* \"#utility.yul\":4038:4094   */\n  iszero\n  tag_120\n  jumpi\n    /* \"#utility.yul\":4074:4092   */\n  tag_121\n  tag_39\n  jump\t// in\ntag_121:\n    /* \"#utility.yul\":4038:4094   */\ntag_120:\n    /* \"#utility.yul\":4118:4156   */\n  tag_122\n    /* \"#utility.yul\":4150:4154   */\n  dup3\n    /* \"#utility.yul\":4144:4155   */\n  sload\n    /* \"#utility.yul\":4118:4156   */\n  tag_41\n  jump\t// in\ntag_122:\n    /* \"#utility.yul\":4203:4270   */\n  tag_123\n    /* \"#utility.yul\":4263:4269   */\n  dup3\n    /* \"#utility.yul\":4255:4261   */\n  dup3\n    /* \"#utility.yul\":4249:4253   */\n  dup6\n    /* \"#utility.yul\":4203:4270   */\n  tag_54\n  jump\t// in\ntag_123:\n    /* \"#utility.yul\":4297:4298   */\n  0x00\n    /* \"#utility.yul\":4321:4325   */\n  0x20\n    /* \"#utility.yul\":4308:4325   */\n  swap1\n  pop\n    /* \"#utility.yul\":4353:4355   */\n  0x1f\n    /* \"#utility.yul\":4345:4351   */\n  dup4\n    /* \"#utility.yul\":4342:4356   */\n  gt\n    /* \"#utility.yul\":4370:4371   */\n  0x01\n    /* \"#utility.yul\":4365:4983   */\n  dup2\n  eq\n  tag_125\n  jumpi\n    /* \"#utility.yul\":5027:5028   */\n  0x00\n    /* \"#utility.yul\":5044:5050   */\n  dup5\n    /* \"#utility.yul\":5041:5118   */\n  iszero\n  tag_126\n  jumpi\n    /* \"#utility.yul\":5093:5102   */\n  dup3\n    /* \"#utility.yul\":5088:5091   */\n  dup8\n    /* \"#utility.yul\":5084:5103   */\n  add\n    /* \"#utility.yul\":5078:5104   */\n  mload\n    /* \"#utility.yul\":5069:5104   */\n  swap1\n  pop\n    /* \"#utility.yul\":5041:5118   */\ntag_126:\n    /* \"#utility.yul\":5144:5211   */\n  tag_127\n    /* \"#utility.yul\":5204:5210   */\n  dup6\n    /* \"#utility.yul\":5197:5202   */\n  dup3\n    /* \"#utility.yul\":5144:5211   */\n  tag_57\n  jump\t// in\ntag_127:\n    /* \"#utility.yul\":5138:5142   */\n  dup7\n    /* \"#utility.yul\":5131:5212   */\n  sstore\n    /* \"#utility.yul\":5000:5222   */\n  pop\n    /* \"#utility.yul\":4335:5222   */\n  jump(tag_124)\n    /* \"#utility.yul\":4365:4983   */\ntag_125:\n    /* \"#utility.yul\":4417:4421   */\n  0x1f\n    /* \"#utility.yul\":4413:4422   */\n  not\n    /* \"#utility.yul\":4405:4411   */\n  dup5\n    /* \"#utility.yul\":4401:4423   */\n  and\n    /* \"#utility.yul\":4451:4488   */\n  tag_128\n    /* \"#utility.yul\":4483:4487   */\n  dup7\n    /* \"#utility.yul\":4451:4488   */\n  tag_42\n  jump\t// in\ntag_128:\n    /* \"#utility.yul\":4510:4511   */\n  0x00\n    /* \"#utility.yul\":4524:4732   */\ntag_129:\n    /* \"#utility.yul\":4538:4545   */\n  dup3\n    /* \"#utility.yul\":4535:4536   */\n  dup2\n    /* \"#utility.yul\":4532:4546   */\n  lt\n    /* \"#utility.yul\":4524:4732   */\n  iszero\n  tag_131\n  jumpi\n    /* \"#utility.yul\":4617:4626   */\n  dup5\n    /* \"#utility.yul\":4612:4615   */\n  dup10\n    /* \"#utility.yul\":4608:4627   */\n  add\n    /* \"#utility.yul\":4602:4628   */\n  mload\n    /* \"#utility.yul\":4594:4600   */\n  dup3\n    /* \"#utility.yul\":4587:4629   */\n  sstore\n    /* \"#utility.yul\":4668:4669   */\n  0x01\n    /* \"#utility.yul\":4660:4666   */\n  dup3\n    /* \"#utility.yul\":4656:4670   */\n  add\n    /* \"#utility.yul\":4646:4670   */\n  swap2\n  pop\n    /* \"#utility.yul\":4715:4717   */\n  0x20\n    /* \"#utility.yul\":4704:4713   */\n  dup6\n    /* \"#utility.yul\":4700:4718   */\n  add\n    /* \"#utility.yul\":4687:4718   */\n  swap5\n  pop\n    /* \"#utility.yul\":4561:4565   */\n  0x20\n    /* \"#utility.yul\":4558:4559   */\n  dup2\n    /* \"#utility.yul\":4554:4566   */\n  add\n    /* \"#utility.yul\":4549:4566   */\n  swap1\n  pop\n    /* \"#utility.yul\":4524:4732   */\n  jump(tag_129)\ntag_131:\n    /* \"#utility.yul\":4760:4766   */\n  dup7\n    /* \"#utility.yul\":4751:4758   */\n  dup4\n    /* \"#utility.yul\":4748:4767   */\n  lt\n    /* \"#utility.yul\":4745:4924   */\n  iszero\n  tag_132\n  jumpi\n    /* \"#utility.yul\":4818:4827   */\n  dup5\n    /* \"#utility.yul\":4813:4816   */\n  dup10\n    /* \"#utility.yul\":4809:4828   */\n  add\n    /* \"#utility.yul\":4803:4829   */\n  mload\n    /* \"#utility.yul\":4861:4909   */\n  tag_133\n    /* \"#utility.yul\":4903:4907   */\n  0x1f\n    /* \"#utility.yul\":4895:4901   */\n  dup10\n    /* \"#utility.yul\":4891:4908   */\n  and\n    /* \"#utility.yul\":4880:4889   */\n  dup3\n    /* \"#utility.yul\":4861:4909   */\n  tag_56\n  jump\t// in\ntag_133:\n    /* \"#utility.yul\":4853:4859   */\n  dup4\n    /* \"#utility.yul\":4846:4910   */\n  sstore\n    /* \"#utility.yul\":4768:4924   */\n  pop\n    /* \"#utility.yul\":4745:4924   */\ntag_132:\n    /* \"#utility.yul\":4970:4971   */\n  0x01\n    /* \"#utility.yul\":4966:4967   */\n  0x02\n    /* \"#utility.yul\":4958:4964   */\n  dup9\n    /* \"#utility.yul\":4954:4968   */\n  mul\n    /* \"#utility.yul\":4950:4972   */\n  add\n    /* \"#utility.yul\":4944:4948   */\n  dup9\n    /* \"#utility.yul\":4937:4973   */\n  sstore\n    /* \"#utility.yul\":4372:4983   */\n  pop\n  pop\n  pop\n    /* \"#utility.yul\":4335:5222   */\ntag_124:\n  pop\n    /* \"#utility.yul\":3925:5228   */\n  pop\n  pop\n  pop\n    /* \"#utility.yul\":3833:5228   */\n  pop\n  pop\n  jump\t// out\n    /* \"#utility.yul\":5234:5414   */\ntag_58:\n    /* \"#utility.yul\":5282:5359   */\n  0x4e487b7100000000000000000000000000000000000000000000000000000000\n    /* \"#utility.yul\":5279:5280   */\n  0x00\n    /* \"#utility.yul\":5272:5360   */\n  mstore\n    /* \"#utility.yul\":5379:5383   */\n  0x11\n    /* \"#utility.yul\":5376:5377   */\n  0x04\n    /* \"#utility.yul\":5369:5384   */\n  mstore\n    /* \"#utility.yul\":5403:5407   */\n  0x24\n    /* \"#utility.yul\":5400:5401   */\n  0x00\n    /* \"#utility.yul\":5393:5408   */\n  revert\n    /* \"#utility.yul\":5420:5522   */\ntag_59:\n    /* \"#utility.yul\":5462:5470   */\n  0x00\n    /* \"#utility.yul\":5509:5514   */\n  dup2\n    /* \"#utility.yul\":5506:5507   */\n  0x01\n    /* \"#utility.yul\":5502:5515   */\n  shr\n    /* \"#utility.yul\":5481:5515   */\n  swap1\n  pop\n    /* \"#utility.yul\":5420:5522   */\n  swap2\n  swap1\n  pop\n  jump\t// out\n    /* \"#utility.yul\":5528:6376   */\ntag_60:\n    /* \"#utility.yul\":5589:5594   */\n  0x00\n    /* \"#utility.yul\":5596:5600   */\n  dup1\n    /* \"#utility.yul\":5620:5626   */\n  dup3\n    /* \"#utility.yul\":5611:5626   */\n  swap2\n  pop\n    /* \"#utility.yul\":5644:5649   */\n  dup4\n    /* \"#utility.yul\":5635:5649   */\n  swap1\n  pop\n    /* \"#utility.yul\":5658:6370   */\ntag_137:\n    /* \"#utility.yul\":5679:5680   */\n  0x01\n    /* \"#utility.yul\":5669:5677   */\n  dup6\n    /* \"#utility.yul\":5666:5681   */\n  gt\n    /* \"#utility.yul\":5658:6370   */\n  iszero\n  tag_139\n  jumpi\n    /* \"#utility.yul\":5774:5778   */\n  dup1\n    /* \"#utility.yul\":5769:5772   */\n  dup7\n    /* \"#utility.yul\":5765:5779   */\n  div\n    /* \"#utility.yul\":5759:5763   */\n  dup2\n    /* \"#utility.yul\":5756:5780   */\n  gt\n    /* \"#utility.yul\":5753:5803   */\n  iszero\n  tag_140\n  jumpi\n    /* \"#utility.yul\":5783:5801   */\n  tag_141\n  tag_58\n  jump\t// in\ntag_141:\n    /* \"#utility.yul\":5753:5803   */\ntag_140:\n    /* \"#utility.yul\":5833:5834   */\n  0x01\n    /* \"#utility.yul\":5823:5831   */\n  dup6\n    /* \"#utility.yul\":5819:5835   */\n  and\n    /* \"#utility.yul\":5816:6267   */\n  iszero\n  tag_142\n  jumpi\n    /* \"#utility.yul\":6248:6252   */\n  dup1\n    /* \"#utility.yul\":6241:6246   */\n  dup3\n    /* \"#utility.yul\":6237:6253   */\n  mul\n    /* \"#utility.yul\":6228:6253   */\n  swap2\n  pop\n    /* \"#utility.yul\":5816:6267   */\ntag_142:\n    /* \"#utility.yul\":6298:6302   */\n  dup1\n    /* \"#utility.yul\":6292:6296   */\n  dup2\n    /* \"#utility.yul\":6288:6303   */\n  mul\n    /* \"#utility.yul\":6280:6303   */\n  swap1\n  pop\n    /* \"#utility.yul\":6328:6360   */\n  tag_143\n    /* \"#utility.yul\":6351:6359   */\n  dup6\n    /* \"#utility.yul\":6328:6360   */\n  tag_59\n  jump\t// in\ntag_143:\n    /* \"#utility.yul\":6316:6360   */\n  swap5\n  pop\n    /* \"#utility.yul\":5658:6370   */\n  jump(tag_137)\ntag_139:\n    /* \"#utility.yul\":5528:6376   */\n  swap5\n  pop\n  swap5\n  swap3\n  pop\n  pop\n  pop\n  jump\t// out\n    /* \"#utility.yul\":6382:7455   */\ntag_61:\n    /* \"#utility.yul\":6436:6441   */\n  0x00\n    /* \"#utility.yul\":6627:6635   */\n  dup3\n    /* \"#utility.yul\":6617:6657   */\n  tag_145\n  jumpi\n    /* \"#utility.yul\":6648:6649   */\n  0x01\n    /* \"#utility.yul\":6639:6649   */\n  swap1\n  pop\n    /* \"#utility.yul\":6650:6655   */\n  jump(tag_144)\n    /* \"#utility.yul\":6617:6657   */\ntag_145:\n    /* \"#utility.yul\":6676:6680   */\n  dup2\n    /* \"#utility.yul\":6666:6702   */\n  tag_146\n  jumpi\n    /* \"#utility.yul\":6693:6694   */\n  0x00\n    /* \"#utility.yul\":6684:6694   */\n  swap1\n  pop\n    /* \"#utility.yul\":6695:6700   */\n  jump(tag_144)\n    /* \"#utility.yul\":6666:6702   */\ntag_146:\n    /* \"#utility.yul\":6762:6766   */\n  dup2\n    /* \"#utility.yul\":6810:6811   */\n  0x01\n    /* \"#utility.yul\":6805:6832   */\n  dup2\n  eq\n  tag_148\n  jumpi\n    /* \"#utility.yul\":6846:6847   */\n  0x02\n    /* \"#utility.yul\":6841:7032   */\n  dup2\n  eq\n  tag_149\n  jumpi\n    /* \"#utility.yul\":6755:7032   */\n  jump(tag_147)\n    /* \"#utility.yul\":6805:6832   */\ntag_148:\n    /* \"#utility.yul\":6823:6824   */\n  0x01\n    /* \"#utility.yul\":6814:6824   */\n  swap2\n  pop\n    /* \"#utility.yul\":6825:6830   */\n  pop\n  jump(tag_144)\n    /* \"#utility.yul\":6841:7032   */\ntag_149:\n    /* \"#utility.yul\":6886:6889   */\n  0xff\n    /* \"#utility.yul\":6876:6884   */\n  dup5\n    /* \"#utility.yul\":6873:6890   */\n  gt\n    /* \"#utility.yul\":6870:6913   */\n  iszero\n  tag_150\n  jumpi\n    /* \"#utility.yul\":6893:6911   */\n  tag_151\n  tag_58\n  jump\t// in\ntag_151:\n    /* \"#utility.yul\":6870:6913   */\ntag_150:\n    /* \"#utility.yul\":6942:6950   */\n  dup4\n    /* \"#utility.yul\":6939:6940   */\n  0x02\n    /* \"#utility.yul\":6935:6951   */\n  exp\n    /* \"#utility.yul\":6926:6951   */\n  swap2\n  pop\n    /* \"#utility.yul\":6977:6980   */\n  dup5\n    /* \"#utility.yul\":6970:6975   */\n  dup3\n    /* \"#utility.yul\":6967:6981   */\n  gt\n    /* \"#utility.yul\":6964:7004   */\n  iszero\n  tag_152\n  jumpi\n    /* \"#utility.yul\":6984:7002   */\n  tag_153\n  tag_58\n  jump\t// in\ntag_153:\n    /* \"#utility.yul\":6964:7004   */\ntag_152:\n    /* \"#utility.yul\":7017:7022   */\n  pop\n  jump(tag_144)\n    /* \"#utility.yul\":6755:7032   */\ntag_147:\n  pop\n    /* \"#utility.yul\":7141:7143   */\n  0x20\n    /* \"#utility.yul\":7131:7139   */\n  dup4\n    /* \"#utility.yul\":7128:7144   */\n  lt\n    /* \"#utility.yul\":7122:7125   */\n  0x0133\n    /* \"#utility.yul\":7116:7120   */\n  dup4\n    /* \"#utility.yul\":7113:7126   */\n  lt\n    /* \"#utility.yul\":7109:7145   */\n  and\n    /* \"#utility.yul\":7091:7093   */\n  0x4e\n    /* \"#utility.yul\":7081:7089   */\n  dup5\n    /* \"#utility.yul\":7078:7094   */\n  lt\n    /* \"#utility.yul\":7073:7075   */\n  0x0b\n    /* \"#utility.yul\":7067:7071   */\n  dup5\n    /* \"#utility.yul\":7064:7076   */\n  lt\n    /* \"#utility.yul\":7060:7095   */\n  and\n    /* \"#utility.yul\":7044:7155   */\n  or\n    /* \"#utility.yul\":7041:7287   */\n  iszero\n  tag_154\n  jumpi\n    /* \"#utility.yul\":7197:7205   */\n  dup3\n    /* \"#utility.yul\":7191:7195   */\n  dup3\n    /* \"#utility.yul\":7187:7206   */\n  exp\n    /* \"#utility.yul\":7178:7206   */\n  swap1\n  pop\n    /* \"#utility.yul\":7232:7235   */\n  dup4\n    /* \"#utility.yul\":7225:7230   */\n  dup2\n    /* \"#utility.yul\":7222:7236   */\n  gt\n    /* \"#utility.yul\":7219:7259   */\n  iszero\n  tag_155\n  jumpi\n    /* \"#utility.yul\":7239:7257   */\n  tag_156\n  tag_58\n  jump\t// in\ntag_156:\n    /* \"#utility.yul\":7219:7259   */\ntag_155:\n    /* \"#utility.yul\":7272:7277   */\n  jump(tag_144)\n    /* \"#utility.yul\":7041:7287   */\ntag_154:\n    /* \"#utility.yul\":7312:7354   */\n  tag_157\n    /* \"#utility.yul\":7350:7353   */\n  dup5\n    /* \"#utility.yul\":7340:7348   */\n  dup5\n    /* \"#utility.yul\":7334:7338   */\n  dup5\n    /* \"#utility.yul\":7331:7332   */\n  0x01\n    /* \"#utility.yul\":7312:7354   */\n  tag_60\n  jump\t// in\ntag_157:\n    /* \"#utility.yul\":7297:7354   */\n  swap3\n  pop\n  swap1\n  pop\n    /* \"#utility.yul\":7386:7390   */\n  dup2\n    /* \"#utility.yul\":7381:7384   */\n  dup5\n    /* \"#utility.yul\":7377:7391   */\n  div\n    /* \"#utility.yul\":7370:7375   */\n  dup2\n    /* \"#utility.yul\":7367:7392   */\n  gt\n    /* \"#utility.yul\":7364:7415   */\n  iszero\n  tag_158\n  jumpi\n    /* \"#utility.yul\":7395:7413   */\n  tag_159\n  tag_58\n  jump\t// in\ntag_159:\n    /* \"#utility.yul\":7364:7415   */\ntag_158:\n    /* \"#utility.yul\":7444:7448   */\n  dup2\n    /* \"#utility.yul\":7437:7442   */\n  dup2\n    /* \"#utility.yul\":7433:7449   */\n  mul\n    /* \"#utility.yul\":7424:7449   */\n  swap1\n  pop\n    /* \"#utility.yul\":6382:7455   */\ntag_144:\n  swap4\n  swap3\n  pop\n  pop\n  pop\n  jump\t// out\n    /* \"#utility.yul\":7461:7547   */\ntag_62:\n    /* \"#utility.yul\":7496:7503   */\n  0x00\n    /* \"#utility.yul\":7536:7540   */\n  0xff\n    /* \"#utility.yul\":7529:7534   */\n  dup3\n    /* \"#utility.yul\":7525:7541   */\n  and\n    /* \"#utility.yul\":7514:7541   */\n  swap1\n  pop\n    /* \"#utility.yul\":7461:7547   */\n  swap2\n  swap1\n  pop\n  jump\t// out\n    /* \"#utility.yul\":7553:7834   */\ntag_5:\n    /* \"#utility.yul\":7611:7616   */\n  0x00\n    /* \"#utility.yul\":7635:7658   */\n  tag_162\n    /* \"#utility.yul\":7653:7657   */\n  dup3\n    /* \"#utility.yul\":7635:7658   */\n  tag_46\n  jump\t// in\ntag_162:\n    /* \"#utility.yul\":7627:7658   */\n  swap2\n  pop\n    /* \"#utility.yul\":7679:7704   */\n  tag_163\n    /* \"#utility.yul\":7695:7703   */\n  dup4\n    /* \"#utility.yul\":7679:7704   */\n  tag_62\n  jump\t// in\ntag_163:\n    /* \"#utility.yul\":7667:7704   */\n  swap3\n  pop\n    /* \"#utility.yul\":7723:7827   */\n  tag_164\n    /* \"#utility.yul\":7760:7826   */\n  0xffffffffffffffffffffffffffffffffffffffffffffffffffffffffffffffff\n    /* \"#utility.yul\":7750:7758   */\n  dup5\n    /* \"#utility.yul\":7744:7748   */\n  dup5\n    /* \"#utility.yul\":7723:7827   */\n  tag_61\n  jump\t// in\ntag_164:\n    /* \"#utility.yul\":7714:7827   */\n  swap1\n  pop\n    /* \"#utility.yul\":7553:7834   */\n  swap3\n  swap2\n  pop\n  pop\n  jump\t// out\n    /* \"#utility.yul\":7840:8250   */\ntag_7:\n    /* \"#utility.yul\":7880:7887   */\n  0x00\n    /* \"#utility.yul\":7903:7923   */\n  tag_166\n    /* \"#utility.yul\":7921:7922   */\n  dup3\n    /* \"#utility.yul\":7903:7923   */\n  tag_46\n  jump\t// in\ntag_166:\n    /* \"#utility.yul\":7898:7923   */\n  swap2\n  pop\n    /* \"#utility.yul\":7937:7957   */\n  tag_167\n    /* \"#utility.yul\":7955:7956   */\n  dup4\n    /* \"#utility.yul\":7937:7957   */\n  tag_46\n  jump\t// in\ntag_167:\n    /* \"#utility.yul\":7932:7957   */\n  swap3\n  pop\n    /* \"#utility.yul\":7992:7993   */\n  dup3\n    /* \"#utility.yul\":7989:7990   */\n  dup3\n    /* \"#utility.yul\":7985:7994   */\n  mul\n    /* \"#utility.yul\":8014:8044   */\n  tag_168\n    /* \"#utility.yul\":8032:8043   */\n  dup2\n    /* \"#utility.yul\":8014:8044   */\n  tag_46\n  jump\t// in\ntag_168:\n    /* \"#utility.yul\":8003:8044   */\n  swap2\n  pop\n    /* \"#utility.yul\":8193:8194   */\n  dup3\n    /* \"#utility.yul\":8184:8191   */\n  dup3\n    /* \"#utility.yul\":8180:8195   */\n  div\n    /* \"#utility.yul\":8177:8178   */\n  dup5\n    /* \"#utility.yul\":8174:8196   */\n  eq\n    /* \"#utility.yul\":8154:8155   */\n  dup4\n    /* \"#utility.yul\":8147:8156   */\n  iszero\n    /* \"#utility.yul\":8127:8210   */\n  or\n    /* \"#utility.yul\":8104:8243   */\n  tag_169\n  jumpi\n    /* \"#utility.yul\":8223:8241   */\n  tag_170\n  tag_58\n  jump\t// in\ntag_170:\n    /* \"#utility.yul\":8104:8243   */\ntag_169:\n    /* \"#utility.yul\":7888:8250   */\n  pop\n    /* \"#utility.yul\":7840:8250   */\n  swap3\n  swap2\n  pop\n  pop\n  jump\t// out\n    /* \"#utility.yul\":8337:8454   */\ntag_64:\n    /* \"#utility.yul\":8446:8447   */\n  0x00\n    /* \"#utility.yul\":8443:8444   */\n  dup1\n    /* \"#utility.yul\":8436:8448   */\n  revert\n    /* \"#utility.yul\":8583:8709   */\ntag_66:\n    /* \"#utility.yul\":8620:8627   */\n  0x00\n    /* \"#utility.yul\":8660:8702   */\n  0xffffffffffffffffffffffffffffffffffffffff\n    /* \"#utility.yul\":8653:8658   */\n  dup3\n    /* \"#utility.yul\":8649:8703   */\n  and\n    /* \"#utility.yul\":8638:8703   */\n  swap1\n  pop\n    /* \"#utility.yul\":8583:8709   */\n  swap2\n  swap1\n  pop\n  jump\t// out\n    /* \"#utility.yul\":8715:8811   */\ntag_67:\n    /* \"#utility.yul\":8752:8759   */\n  0x00\n    /* \"#utility.yul\":8781:8805   */\n  tag_176\n    /* \"#utility.yul\":8799:8804   */\n  dup3\n    /* \"#utility.yul\":8781:8805   */\n  tag_66\n  jump\t// in\ntag_176:\n    /* \"#utility.yul\":8770:8805   */\n  swap1\n  pop\n    /* \"#utility.yul\":8715:8811   */\n  swap2\n  swap1\n  pop\n  jump\t// out\n    /* \"#utility.yul\":8817:8939   */\ntag_68:\n    /* \"#utility.yul\":8890:8914   */\n  tag_178\n    /* \"#utility.yul\":8908:8913   */\n  dup2\n    /* \"#utility.yul\":8890:8914   */\n  tag_67\n  jump\t// in\ntag_178:\n    /* \"#utility.yul\":8883:8888   */\n  dup2\n    /* \"#utility.yul\":8880:8915   */\n  eq\n    /* \"#utility.yul\":8870:8933   */\n  tag_179\n  jumpi\n    /* \"#utility.yul\":8929:8930   */\n  0x00\n    /* \"#utility.yul\":8926:8927   */\n  dup1\n    /* \"#utility.yul\":8919:8931   */\n  revert\n    /* \"#utility.yul\":8870:8933   */\ntag_179:\n    /* \"#utility.yul\":8817:8939   */\n  pop\n  jump\t// out\n    /* \"#utility.yul\":8945:9088   */\ntag_69:\n    /* \"#utility.yul\":9002:9007   */\n  0x00\n    /* \"#utility.yul\":9033:9039   */\n  dup2\n    /* \"#utility.yul\":9027:9040   */\n  mload\n    /* \"#utility.yul\":9018:9040   */\n  swap1\n  pop\n    /* \"#utility.yul\":9049:9082   */\n  tag_181\n    /* \"#utility.yul\":9076:9081   */\n  dup2\n    /* \"#utility.yul\":9049:9082   */\n  tag_68\n  jump\t// in\ntag_181:\n    /* \"#utility.yul\":8945:9088   */\n  swap3\n  swap2\n  pop\n  pop\n  jump\t// out\n    /* \"#utility.yul\":9094:9445   */\ntag_20:\n    /* \"#utility.yul\":9164:9170   */\n  0x00\n    /* \"#utility.yul\":9213:9215   */\n  0x20\n    /* \"#utility.yul\":9201:9210   */\n  dup3\n    /* \"#utility.yul\":9192:9199   */\n  dup5\n    /* \"#utility.yul\":9188:9211   */\n  sub\n    /* \"#utility.yul\":9184:9216   */\n  slt\n    /* \"#utility.yul\":9181:9300   */\n  iszero\n  tag_183\n  jumpi\n    /* \"#utility.yul\":9219:9298   */\n  tag_184\n  tag_64\n  jump\t// in\ntag_184:\n    /* \"#utility.yul\":9181:9300   */\ntag_183:\n    /* \"#utility.yul\":9339:9340   */\n  0x00\n    /* \"#utility.yul\":9364:9428   */\n  tag_185\n    /* \"#utility.yul\":9420:9427   */\n  dup5\n    /* \"#utility.yul\":9411:9417   */\n  dup3\n    /* \"#utility.yul\":9400:9409   */\n  dup6\n    /* \"#utility.yul\":9396:9418   */\n  add\n    /* \"#utility.yul\":9364:9428   */\n  tag_69\n  jump\t// in\ntag_185:\n    /* \"#utility.yul\":9354:9428   */\n  swap2\n  pop\n    /* \"#utility.yul\":9310:9438   */\n  pop\n    /* \"#utility.yul\":9094:9445   */\n  swap3\n  swap2\n  pop\n  pop\n  jump\t// out\n    /* \"#utility.yul\":9451:9569   */\ntag_70:\n    /* \"#utility.yul\":9538:9562   */\n  tag_187\n    /* \"#utility.yul\":9556:9561   */\n  dup2\n    /* \"#utility.yul\":9538:9562   */\n  tag_67\n  jump\t// in\ntag_187:\n    /* \"#utility.yul\":9533:9536   */\n  dup3\n    /* \"#utility.yul\":9526:9563   */\n  mstore\n    /* \"#utility.yul\":9451:9569   */\n  pop\n  pop\n  jump\t// out\n    /* \"#utility.yul\":9575:9907   */\ntag_25:\n    /* \"#utility.yul\":9696:9700   */\n  0x00\n    /* \"#utility.yul\":9734:9736   */\n  0x40\n    /* \"#utility.yul\":9723:9732   */\n  dup3\n    /* \"#utility.yul\":9719:9737   */\n  add\n    /* \"#utility.yul\":9711:9737   */\n  swap1\n  pop\n    /* \"#utility.yul\":9747:9818   */\n  tag_189\n    /* \"#utility.yul\":9815:9816   */\n  0x00\n    /* \"#utility.yul\":9804:9813   */\n  dup4\n    /* \"#utility.yul\":9800:9817   */\n  add\n    /* \"#utility.yul\":9791:9797   */\n  dup6\n    /* \"#utility.yul\":9747:9818   */\n  tag_70\n  jump\t// in\ntag_189:\n    /* \"#utility.yul\":9828:9900   */\n  tag_190\n    /* \"#utility.yul\":9896:9898   */\n  0x20\n    /* \"#utility.yul\":9885:9894   */\n  dup4\n    /* \"#utility.yul\":9881:9899   */\n  add\n    /* \"#utility.yul\":9872:9878   */\n  dup5\n    /* \"#utility.yul\":9828:9900   */\n  tag_70\n  jump\t// in\ntag_190:\n    /* \"#utility.yul\":9575:9907   */\n  swap4\n  swap3\n  pop\n  pop\n  pop\n  jump\t// out\n    /* \"#utility.yul\":9913:10031   */\ntag_71:\n    /* \"#utility.yul\":10000:10024   */\n  tag_192\n    /* \"#utility.yul\":10018:10023   */\n  dup2\n    /* \"#utility.yul\":10000:10024   */\n  tag_46\n  jump\t// in\ntag_192:\n    /* \"#utility.yul\":9995:9998   */\n  dup3\n    /* \"#utility.yul\":9988:10025   */\n  mstore\n    /* \"#utility.yul\":9913:10031   */\n  pop\n  pop\n  jump\t// out\n    /* \"#utility.yul\":10037:10259   */\ntag_34:\n    /* \"#utility.yul\":10130:10134   */\n  0x00\n    /* \"#utility.yul\":10168:10170   */\n  0x20\n    /* \"#utility.yul\":10157:10166   */\n  dup3\n    /* \"#utility.yul\":10153:10171   */\n  add\n    /* \"#utility.yul\":10145:10171   */\n  swap1\n  pop\n    /* \"#utility.yul\":10181:10252   */\n  tag_194\n    /* \"#utility.yul\":10249:10250   */\n  0x00\n    /* \"#utility.yul\":10238:10247   */\n  dup4\n    /* \"#utility.yul\":10234:10251   */\n  add\n    /* \"#utility.yul\":10225:10231   */\n  dup5\n    /* \"#utility.yul\":10181:10252   */\n  tag_71\n  jump\t// in\ntag_194:\n    /* \"#utility.yul\":10037:10259   */\n  swap3\n  swap2\n  pop\n  pop\n  jump\t// out\n    /* \"contracts/yi.sol\":14334:23115  contract YI is Context, IERC20, Ownable {... */\ntag_35:\n  dataSize(sub_0)\n  dup1\n  dataOffset(sub_0)\n  0x00\n  codecopy\n  0x00\n  return\nstop\n\nsub_0: assembly {\n        /* \"contracts/yi.sol\":14334:23115  contract YI is Context, IERC20, Ownable {... */\n      mstore(0x40, 0x80)\n      jumpi(tag_1, lt(calldatasize, 0x04))\n      shr(0xe0, calldataload(0x00))\n      dup1\n      0x70a08231\n      gt\n      tag_33\n      jumpi\n      dup1\n      0xa1ca5347\n      gt\n      tag_34\n      jumpi\n      dup1\n      0xda00097d\n      gt\n      tag_35\n      jumpi\n      dup1\n      0xda00097d\n      eq\n      tag_29\n      jumpi\n      dup1\n      0xdd62ed3e\n      eq\n      tag_30\n      jumpi\n      dup1\n      0xef422a18\n      eq\n      tag_31\n      jumpi\n      dup1\n      0xf2fde38b\n      eq\n      tag_32\n      jumpi\n      jump(tag_2)\n    tag_35:\n      dup1\n      0xa1ca5347\n      eq\n      tag_25\n      jumpi\n      dup1\n      0xa457c2d7\n      eq\n      tag_26\n      jumpi\n      dup1\n      0xa9059cbb\n      eq\n      tag_27\n      jumpi\n      dup1\n      0xc816841b\n      eq\n      tag_28\n      jumpi\n      jump(tag_2)\n    tag_34:\n      dup1\n      0x8da5cb5b\n      gt\n      tag_36\n      jumpi\n      dup1\n      0x8da5cb5b\n      eq\n      tag_21\n      jumpi\n      dup1\n      0x914eb66a\n      eq\n      tag_22\n      jumpi\n      dup1\n      0x95d89b41\n      eq\n      tag_23\n      jumpi\n      dup1\n      0xa073d37f\n      eq\n      tag_24\n      jumpi\n      jump(tag_2)\n    tag_36:\n      dup1\n      0x70a08231\n      eq\n      tag_18\n      jumpi\n      dup1\n      0x75f0a874\n      eq\n      tag_19\n      jumpi\n      dup1\n      0x844d591c\n      eq\n      tag_20\n      jumpi\n      jump(tag_2)\n    tag_33:\n      dup1\n      0x2b112e49\n      gt\n      tag_37\n      jumpi\n      dup1\n      0x3ecad271\n      gt\n      tag_38\n      jumpi\n      dup1\n      0x3ecad271\n      eq\n      tag_14\n      jumpi\n      dup1\n      0x4a74bb02\n      eq\n      tag_15\n      jumpi\n      dup1\n      0x5342acb4\n      eq\n      tag_16\n      jumpi\n      dup1\n      0x5d098b38\n      eq\n      tag_17\n      jumpi\n      jump(tag_2)\n    tag_38:\n      dup1\n      0x2b112e49\n      eq\n      tag_10\n      jumpi\n      dup1\n      0x313ce567\n      eq\n      tag_11\n      jumpi\n      dup1\n      0x39509351\n      eq\n      tag_12\n      jumpi\n      dup1\n      0x3b97084a\n      eq\n      tag_13\n      jumpi\n      jump(tag_2)\n    tag_37:\n      dup1\n      0x18160ddd\n      gt\n      tag_39\n      jumpi\n      dup1\n      0x18160ddd\n      eq\n      tag_6\n      jumpi\n      dup1\n      0x22976e0d\n      eq\n      tag_7\n      jumpi\n      dup1\n      0x23b872dd\n      eq\n      tag_8\n      jumpi\n      dup1\n      0x27c8f835\n      eq\n      tag_9\n      jumpi\n      jump(tag_2)\n    tag_39:\n      dup1\n      0x06fdde03\n      eq\n      tag_3\n      jumpi\n      dup1\n      0x095ea7b3\n      eq\n      tag_4\n      jumpi\n      dup1\n      0x1694505e\n      eq\n      tag_5\n      jumpi\n      jump(tag_2)\n    tag_1:\n      jumpi(tag_2, calldatasize)\n      stop\n    tag_2:\n      0x00\n      dup1\n      revert\n        /* \"contracts/yi.sol\":16775:16858  function name() public view returns (string memory) {... */\n    tag_3:\n      callvalue\n      dup1\n      iszero\n      tag_42\n      jumpi\n      0x00\n      dup1\n      revert\n    tag_42:\n      pop\n      tag_43\n      tag_44\n      jump\t// in\n    tag_43:\n      mload(0x40)\n      tag_45\n      swap2\n      swap1\n      tag_46\n      jump\t// in\n    tag_45:\n      mload(0x40)\n      dup1\n      swap2\n      sub\n      swap1\n      return\n        /* \"contracts/yi.sol\":18069:18230  function approve(address spender, uint256 amount) public override returns (bool) {... */\n    tag_4:\n      callvalue\n      dup1\n      iszero\n      tag_47\n      jumpi\n      0x00\n      dup1\n      revert\n    tag_47:\n      pop\n      tag_48\n      0x04\n      dup1\n      calldatasize\n      sub\n      dup2\n      add\n      swap1\n      tag_49\n      swap2\n      swap1\n      tag_50\n      jump\t// in\n    tag_49:\n      tag_51\n      jump\t// in\n    tag_48:\n      mload(0x40)\n      tag_52\n      swap2\n      swap1\n      tag_53\n      jump\t// in\n    tag_52:\n      mload(0x40)\n      dup1\n      swap2\n      sub\n      swap1\n      return\n        /* \"contracts/yi.sol\":15229:15270  IUniswapV2Router02 public uniswapV2Router */\n    tag_5:\n      callvalue\n      dup1\n      iszero\n      tag_54\n      jumpi\n      0x00\n      dup1\n      revert\n    tag_54:\n      pop\n      tag_55\n      tag_56\n      jump\t// in\n    tag_55:\n      mload(0x40)\n      tag_57\n      swap2\n      swap1\n      tag_58\n      jump\t// in\n    tag_57:\n      mload(0x40)\n      dup1\n      swap2\n      sub\n      swap1\n      return\n        /* \"contracts/yi.sol\":17052:17152  function totalSupply() public view override returns (uint256) {... */\n    tag_6:\n      callvalue\n      dup1\n      iszero\n      tag_59\n      jumpi\n      0x00\n      dup1\n      revert\n    tag_59:\n      pop\n      tag_60\n      tag_61\n      jump\t// in\n    tag_60:\n      mload(0x40)\n      tag_62\n      swap2\n      swap1\n      tag_63\n      jump\t// in\n    tag_62:\n      mload(0x40)\n      dup1\n      swap2\n      sub\n      swap1\n      return\n        /* \"contracts/yi.sol\":14999:15031  uint256 public _marketingFee = 0 */\n    tag_7:\n      callvalue\n      dup1\n      iszero\n      tag_64\n      jumpi\n      0x00\n      dup1\n      revert\n    tag_64:\n      pop\n      tag_65\n      tag_66\n      jump\t// in\n    tag_65:\n      mload(0x40)\n      tag_67\n      swap2\n      swap1\n      tag_63\n      jump\t// in\n    tag_67:\n      mload(0x40)\n      dup1\n      swap2\n      sub\n      swap1\n      return\n        /* \"contracts/yi.sol\":19656:19969  function transferFrom(address sender, address recipient, uint256 amount) public override returns (bool) {... */\n    tag_8:\n      callvalue\n      dup1\n      iszero\n      tag_68\n      jumpi\n      0x00\n      dup1\n      revert\n    tag_68:\n      pop\n      tag_69\n      0x04\n      dup1\n      calldatasize\n      sub\n      dup2\n      add\n      swap1\n      tag_70\n      swap2\n      swap1\n      tag_71\n      jump\t// in\n    tag_70:\n      tag_72\n      jump\t// in\n    tag_69:\n      mload(0x40)\n      tag_73\n      swap2\n      swap1\n      tag_53\n      jump\t// in\n    tag_73:\n      mload(0x40)\n      dup1\n      swap2\n      sub\n      swap1\n      return\n        /* \"contracts/yi.sol\":14677:14748  address public deadAddress = 0x000000000000000000000000000000000000dEaD */\n    tag_9:\n      callvalue\n      dup1\n      iszero\n      tag_74\n      jumpi\n      0x00\n      dup1\n      revert\n    tag_74:\n      pop\n      tag_75\n      tag_76\n      jump\t// in\n    tag_75:\n      mload(0x40)\n      tag_77\n      swap2\n      swap1\n      tag_78\n      jump\t// in\n    tag_77:\n      mload(0x40)\n      dup1\n      swap2\n      sub\n      swap1\n      return\n        /* \"contracts/yi.sol\":19118:19246  function getCirculatingSupply() public view returns (uint256) {... */\n    tag_10:\n      callvalue\n      dup1\n      iszero\n      tag_79\n      jumpi\n      0x00\n      dup1\n      revert\n    tag_79:\n      pop\n      tag_80\n      tag_81\n      jump\t// in\n    tag_80:\n      mload(0x40)\n      tag_82\n      swap2\n      swap1\n      tag_63\n      jump\t// in\n    tag_82:\n      mload(0x40)\n      dup1\n      swap2\n      sub\n      swap1\n      return\n        /* \"contracts/yi.sol\":16961:17044  function decimals() public view returns (uint8) {... */\n    tag_11:\n      callvalue\n      dup1\n      iszero\n      tag_83\n      jumpi\n      0x00\n      dup1\n      revert\n    tag_83:\n      pop\n      tag_84\n      tag_85\n      jump\t// in\n    tag_84:\n      mload(0x40)\n      tag_86\n      swap2\n      swap1\n      tag_87\n      jump\t// in\n    tag_86:\n      mload(0x40)\n      dup1\n      swap2\n      sub\n      swap1\n      return\n        /* \"contracts/yi.sol\":17438:17656  function increaseAllowance(address spender, uint256 addedValue) public virtual returns (bool) {... */\n    tag_12:\n      callvalue\n      dup1\n      iszero\n      tag_88\n      jumpi\n      0x00\n      dup1\n      revert\n    tag_88:\n      pop\n      tag_89\n      0x04\n      dup1\n      calldatasize\n      sub\n      dup2\n      add\n      swap1\n      tag_90\n      swap2\n      swap1\n      tag_50\n      jump\t// in\n    tag_90:\n      tag_91\n      jump\t// in\n    tag_89:\n      mload(0x40)\n      tag_92\n      swap2\n      swap1\n      tag_53\n      jump\t// in\n    tag_92:\n      mload(0x40)\n      dup1\n      swap2\n      sub\n      swap1\n      return\n        /* \"contracts/yi.sol\":18863:18987  function setNumTokensBeforeSwap(uint256 newLimit) external onlyOwner() {... */\n    tag_13:\n      callvalue\n      dup1\n      iszero\n      tag_93\n      jumpi\n      0x00\n      dup1\n      revert\n    tag_93:\n      pop\n      tag_94\n      0x04\n      dup1\n      calldatasize\n      sub\n      dup2\n      add\n      swap1\n      tag_95\n      swap2\n      swap1\n      tag_96\n      jump\t// in\n    tag_95:\n      tag_97\n      jump\t// in\n    tag_94:\n      stop\n        /* \"contracts/yi.sol\":14945:14990  mapping (address => bool) public isMarketPair */\n    tag_14:\n      callvalue\n      dup1\n      iszero\n      tag_98\n      jumpi\n      0x00\n      dup1\n      revert\n    tag_98:\n      pop\n      tag_99\n      0x04\n      dup1\n      calldatasize\n      sub\n      dup2\n      add\n      swap1\n      tag_100\n      swap2\n      swap1\n      tag_101\n      jump\t// in\n    tag_100:\n      tag_102\n      jump\t// in\n    tag_99:\n      mload(0x40)\n      tag_103\n      swap2\n      swap1\n      tag_53\n      jump\t// in\n    tag_103:\n      mload(0x40)\n      dup1\n      swap2\n      sub\n      swap1\n      return\n        /* \"contracts/yi.sol\":15344:15384  bool public swapAndLiquifyEnabled = true */\n    tag_15:\n      callvalue\n      dup1\n      iszero\n      tag_104\n      jumpi\n      0x00\n      dup1\n      revert\n    tag_104:\n      pop\n      tag_105\n      tag_106\n      jump\t// in\n    tag_105:\n      mload(0x40)\n      tag_107\n      swap2\n      swap1\n      tag_53\n      jump\t// in\n    tag_107:\n      mload(0x40)\n      dup1\n      swap2\n      sub\n      swap1\n      return\n        /* \"contracts/yi.sol\":14888:14938  mapping (address => bool) public isExcludedFromFee */\n    tag_16:\n      callvalue\n      dup1\n      iszero\n      tag_108\n      jumpi\n      0x00\n      dup1\n      revert\n    tag_108:\n      pop\n      tag_109\n      0x04\n      dup1\n      calldatasize\n      sub\n      dup2\n      add\n      swap1\n      tag_110\n      swap2\n      swap1\n      tag_101\n      jump\t// in\n    tag_110:\n      tag_111\n      jump\t// in\n    tag_109:\n      mload(0x40)\n      tag_112\n      swap2\n      swap1\n      tag_53\n      jump\t// in\n    tag_112:\n      mload(0x40)\n      dup1\n      swap2\n      sub\n      swap1\n      return\n        /* \"contracts/yi.sol\":18995:19110  function setMarketingWallet(address payable account) external onlyOwner{... */\n    tag_17:\n      callvalue\n      dup1\n      iszero\n      tag_113\n      jumpi\n      0x00\n      dup1\n      revert\n    tag_113:\n      pop\n      tag_114\n      0x04\n      dup1\n      calldatasize\n      sub\n      dup2\n      add\n      swap1\n      tag_115\n      swap2\n      swap1\n      tag_116\n      jump\t// in\n    tag_115:\n      tag_117\n      jump\t// in\n    tag_114:\n      stop\n        /* \"contracts/yi.sol\":17160:17279  function balanceOf(address account) public view override returns (uint256) {... */\n    tag_18:\n      callvalue\n      dup1\n      iszero\n      tag_118\n      jumpi\n      0x00\n      dup1\n      revert\n    tag_118:\n      pop\n      tag_119\n      0x04\n      dup1\n      calldatasize\n      sub\n      dup2\n      add\n      swap1\n      tag_120\n      swap2\n      swap1\n      tag_101\n      jump\t// in\n    tag_120:\n      tag_121\n      jump\t// in\n    tag_119:\n      mload(0x40)\n      tag_122\n      swap2\n      swap1\n      tag_63\n      jump\t// in\n    tag_122:\n      mload(0x40)\n      dup1\n      swap2\n      sub\n      swap1\n      return\n        /* \"contracts/yi.sol\":14576:14668  address payable public marketingWallet = payable(0x000000000000000000000000000000000000dEaD) */\n    tag_19:\n      callvalue\n      dup1\n      iszero\n      tag_123\n      jumpi\n      0x00\n      dup1\n      revert\n    tag_123:\n      pop\n      tag_124\n      tag_125\n      jump\t// in\n    tag_124:\n      mload(0x40)\n      tag_126\n      swap2\n      swap1\n      tag_127\n      jump\t// in\n    tag_126:\n      mload(0x40)\n      dup1\n      swap2\n      sub\n      swap1\n      return\n        /* \"contracts/yi.sol\":18726:18855  function setMarketPairStatus(address account, bool newValue) public onlyOwner {... */\n    tag_20:\n      callvalue\n      dup1\n      iszero\n      tag_128\n      jumpi\n      0x00\n      dup1\n      revert\n    tag_128:\n      pop\n      tag_129\n      0x04\n      dup1\n      calldatasize\n      sub\n      dup2\n      add\n      swap1\n      tag_130\n      swap2\n      swap1\n      tag_131\n      jump\t// in\n    tag_130:\n      tag_132\n      jump\t// in\n    tag_129:\n      stop\n        /* \"contracts/yi.sol\":5873:5952  function owner() public view returns (address) {... */\n    tag_21:\n      callvalue\n      dup1\n      iszero\n      tag_133\n      jumpi\n      0x00\n      dup1\n      revert\n    tag_133:\n      pop\n      tag_134\n      tag_135\n      jump\t// in\n    tag_134:\n      mload(0x40)\n      tag_136\n      swap2\n      swap1\n      tag_78\n      jump\t// in\n    tag_136:\n      mload(0x40)\n      dup1\n      swap2\n      sub\n      swap1\n      return\n        /* \"contracts/yi.sol\":6098:6243  function waiveOwnership() public virtual onlyOwner {... */\n    tag_22:\n      callvalue\n      dup1\n      iszero\n      tag_137\n      jumpi\n      0x00\n      dup1\n      revert\n    tag_137:\n      pop\n      tag_138\n      tag_139\n      jump\t// in\n    tag_138:\n      stop\n        /* \"contracts/yi.sol\":16866:16953  function symbol() public view returns (string memory) {... */\n    tag_23:\n      callvalue\n      dup1\n      iszero\n      tag_140\n      jumpi\n      0x00\n      dup1\n      revert\n    tag_140:\n      pop\n      tag_141\n      tag_142\n      jump\t// in\n    tag_141:\n      mload(0x40)\n      tag_143\n      swap2\n      swap1\n      tag_46\n      jump\t// in\n    tag_143:\n      mload(0x40)\n      dup1\n      swap2\n      sub\n      swap1\n      return\n        /* \"contracts/yi.sol\":17941:18061  function minimumTokensBeforeSwapAmount() public view returns (uint256) {... */\n    tag_24:\n      callvalue\n      dup1\n      iszero\n      tag_144\n      jumpi\n      0x00\n      dup1\n      revert\n    tag_144:\n      pop\n      tag_145\n      tag_146\n      jump\t// in\n    tag_145:\n      mload(0x40)\n      tag_147\n      swap2\n      swap1\n      tag_63\n      jump\t// in\n    tag_147:\n      mload(0x40)\n      dup1\n      swap2\n      sub\n      swap1\n      return\n        /* \"contracts/yi.sol\":15040:15080  uint256 public _totalTax = _marketingFee */\n    tag_25:\n      callvalue\n      dup1\n      iszero\n      tag_148\n      jumpi\n      0x00\n      dup1\n      revert\n    tag_148:\n      pop\n      tag_149\n      tag_150\n      jump\t// in\n    tag_149:\n      mload(0x40)\n      tag_151\n      swap2\n      swap1\n      tag_63\n      jump\t// in\n    tag_151:\n      mload(0x40)\n      dup1\n      swap2\n      sub\n      swap1\n      return\n        /* \"contracts/yi.sol\":17664:17933  function decreaseAllowance(address spender, uint256 subtractedValue) public virtual returns (bool) {... */\n    tag_26:\n      callvalue\n      dup1\n      iszero\n      tag_152\n      jumpi\n      0x00\n      dup1\n      revert\n    tag_152:\n      pop\n      tag_153\n      0x04\n      dup1\n      calldatasize\n      sub\n      dup2\n      add\n      swap1\n      tag_154\n      swap2\n      swap1\n      tag_50\n      jump\t// in\n    tag_154:\n      tag_155\n      jump\t// in\n    tag_153:\n      mload(0x40)\n      tag_156\n      swap2\n      swap1\n      tag_53\n      jump\t// in\n    tag_156:\n      mload(0x40)\n      dup1\n      swap2\n      sub\n      swap1\n      return\n        /* \"contracts/yi.sol\":19481:19648  function transfer(address recipient, uint256 amount) public override returns (bool) {... */\n    tag_27:\n      callvalue\n      dup1\n      iszero\n      tag_157\n      jumpi\n      0x00\n      dup1\n      revert\n    tag_157:\n      pop\n      tag_158\n      0x04\n      dup1\n      calldatasize\n      sub\n      dup2\n      add\n      swap1\n      tag_159\n      swap2\n      swap1\n      tag_50\n      jump\t// in\n    tag_159:\n      tag_160\n      jump\t// in\n    tag_158:\n      mload(0x40)\n      tag_161\n      swap2\n      swap1\n      tag_53\n      jump\t// in\n    tag_161:\n      mload(0x40)\n      dup1\n      swap2\n      sub\n      swap1\n      return\n        /* \"contracts/yi.sol\":15277:15303  address public uniswapPair */\n    tag_28:\n      callvalue\n      dup1\n      iszero\n      tag_162\n      jumpi\n      0x00\n      dup1\n      revert\n    tag_162:\n      pop\n      tag_163\n      tag_164\n      jump\t// in\n    tag_163:\n      mload(0x40)\n      tag_165\n      swap2\n      swap1\n      tag_78\n      jump\t// in\n    tag_165:\n      mload(0x40)\n      dup1\n      swap2\n      sub\n      swap1\n      return\n        /* \"contracts/yi.sol\":15391:15436  bool public swapAndLiquifyByLimitOnly = false */\n    tag_29:\n      callvalue\n      dup1\n      iszero\n      tag_166\n      jumpi\n      0x00\n      dup1\n      revert\n    tag_166:\n      pop\n      tag_167\n      tag_168\n      jump\t// in\n    tag_167:\n      mload(0x40)\n      tag_169\n      swap2\n      swap1\n      tag_53\n      jump\t// in\n    tag_169:\n      mload(0x40)\n      dup1\n      swap2\n      sub\n      swap1\n      return\n        /* \"contracts/yi.sol\":17287:17430  function allowance(address owner, address spender) public view override returns (uint256) {... */\n    tag_30:\n      callvalue\n      dup1\n      iszero\n      tag_170\n      jumpi\n      0x00\n      dup1\n      revert\n    tag_170:\n      pop\n      tag_171\n      0x04\n      dup1\n      calldatasize\n      sub\n      dup2\n      add\n      swap1\n      tag_172\n      swap2\n      swap1\n      tag_173\n      jump\t// in\n    tag_172:\n      tag_174\n      jump\t// in\n    tag_171:\n      mload(0x40)\n      tag_175\n      swap2\n      swap1\n      tag_63\n      jump\t// in\n    tag_175:\n      mload(0x40)\n      dup1\n      swap2\n      sub\n      swap1\n      return\n        /* \"contracts/yi.sol\":18583:18718  function setIsExcludedFromFee(address account, bool newValue) public onlyOwner {... */\n    tag_31:\n      callvalue\n      dup1\n      iszero\n      tag_176\n      jumpi\n      0x00\n      dup1\n      revert\n    tag_176:\n      pop\n      tag_177\n      0x04\n      dup1\n      calldatasize\n      sub\n      dup2\n      add\n      swap1\n      tag_178\n      swap2\n      swap1\n      tag_131\n      jump\t// in\n    tag_178:\n      tag_179\n      jump\t// in\n    tag_177:\n      stop\n        /* \"contracts/yi.sol\":6251:6495  function transferOwnership(address newOwner) public virtual onlyOwner {... */\n    tag_32:\n      callvalue\n      dup1\n      iszero\n      tag_180\n      jumpi\n      0x00\n      dup1\n      revert\n    tag_180:\n      pop\n      tag_181\n      0x04\n      dup1\n      calldatasize\n      sub\n      dup2\n      add\n      swap1\n      tag_182\n      swap2\n      swap1\n      tag_101\n      jump\t// in\n    tag_182:\n      tag_183\n      jump\t// in\n    tag_181:\n      stop\n        /* \"contracts/yi.sol\":16775:16858  function name() public view returns (string memory) {... */\n    tag_44:\n        /* \"contracts/yi.sol\":16812:16825  string memory */\n      0x60\n        /* \"contracts/yi.sol\":16845:16850  _name */\n      0x01\n        /* \"contracts/yi.sol\":16838:16850  return _name */\n      dup1\n      sload\n      tag_185\n      swap1\n      tag_186\n      jump\t// in\n    tag_185:\n      dup1\n      0x1f\n      add\n      0x20\n      dup1\n      swap2\n      div\n      mul\n      0x20\n      add\n      mload(0x40)\n      swap1\n      dup2\n      add\n      0x40\n      mstore\n      dup1\n      swap3\n      swap2\n      swap1\n      dup2\n      dup2\n      mstore\n      0x20\n      add\n      dup3\n      dup1\n      sload\n      tag_187\n      swap1\n      tag_186\n      jump\t// in\n    tag_187:\n      dup1\n      iszero\n      tag_188\n      jumpi\n      dup1\n      0x1f\n      lt\n      tag_189\n      jumpi\n      0x0100\n      dup1\n      dup4\n      sload\n      div\n      mul\n      dup4\n      mstore\n      swap2\n      0x20\n      add\n      swap2\n      jump(tag_188)\n    tag_189:\n      dup3\n      add\n      swap2\n      swap1\n      0x00\n      mstore\n      keccak256(0x00, 0x20)\n      swap1\n    tag_190:\n      dup2\n      sload\n      dup2\n      mstore\n      swap1\n      0x01\n      add\n      swap1\n      0x20\n      add\n      dup1\n      dup4\n      gt\n      tag_190\n      jumpi\n      dup3\n      swap1\n      sub\n      0x1f\n      and\n      dup3\n      add\n      swap2\n    tag_188:\n      pop\n      pop\n      pop\n      pop\n      pop\n      swap1\n      pop\n        /* \"contracts/yi.sol\":16775:16858  function name() public view returns (string memory) {... */\n      swap1\n      jump\t// out\n        /* \"contracts/yi.sol\":18069:18230  function approve(address spender, uint256 amount) public override returns (bool) {... */\n    tag_51:\n        /* \"contracts/yi.sol\":18144:18148  bool */\n      0x00\n        /* \"contracts/yi.sol\":18161:18200  _approve(_msgSender(), spender, amount) */\n      tag_192\n        /* \"contracts/yi.sol\":18170:18182  _msgSender() */\n      tag_193\n        /* \"contracts/yi.sol\":18170:18180  _msgSender */\n      tag_194\n        /* \"contracts/yi.sol\":18170:18182  _msgSender() */\n      jump\t// in\n    tag_193:\n        /* \"contracts/yi.sol\":18184:18191  spender */\n      dup5\n        /* \"contracts/yi.sol\":18193:18199  amount */\n      dup5\n        /* \"contracts/yi.sol\":18161:18169  _approve */\n      tag_195\n        /* \"contracts/yi.sol\":18161:18200  _approve(_msgSender(), spender, amount) */\n      jump\t// in\n    tag_192:\n        /* \"contracts/yi.sol\":18218:18222  true */\n      0x01\n        /* \"contracts/yi.sol\":18211:18222  return true */\n      swap1\n      pop\n        /* \"contracts/yi.sol\":18069:18230  function approve(address spender, uint256 amount) public override returns (bool) {... */\n      swap3\n      swap2\n      pop\n      pop\n      jump\t// out\n        /* \"contracts/yi.sol\":15229:15270  IUniswapV2Router02 public uniswapV2Router */\n    tag_56:\n      0x0d\n      0x00\n      swap1\n      sload\n      swap1\n      0x0100\n      exp\n      swap1\n      div\n      0xffffffffffffffffffffffffffffffffffffffff\n      and\n      dup2\n      jump\t// out\n        /* \"contracts/yi.sol\":17052:17152  function totalSupply() public view override returns (uint256) {... */\n    tag_61:\n        /* \"contracts/yi.sol\":17105:17112  uint256 */\n      0x00\n        /* \"contracts/yi.sol\":17132:17144  _totalSupply */\n      sload(0x0b)\n        /* \"contracts/yi.sol\":17125:17144  return _totalSupply */\n      swap1\n      pop\n        /* \"contracts/yi.sol\":17052:17152  function totalSupply() public view override returns (uint256) {... */\n      swap1\n      jump\t// out\n        /* \"contracts/yi.sol\":14999:15031  uint256 public _marketingFee = 0 */\n    tag_66:\n      sload(0x09)\n      dup2\n      jump\t// out\n        /* \"contracts/yi.sol\":19656:19969  function transferFrom(address sender, address recipient, uint256 amount) public override returns (bool) {... */\n    tag_72:\n        /* \"contracts/yi.sol\":19754:19758  bool */\n      0x00\n        /* \"contracts/yi.sol\":19771:19807  _transfer(sender, recipient, amount) */\n      tag_198\n        /* \"contracts/yi.sol\":19781:19787  sender */\n      dup5\n        /* \"contracts/yi.sol\":19789:19798  recipient */\n      dup5\n        /* \"contracts/yi.sol\":19800:19806  amount */\n      dup5\n        /* \"contracts/yi.sol\":19771:19780  _transfer */\n      tag_199\n        /* \"contracts/yi.sol\":19771:19807  _transfer(sender, recipient, amount) */\n      jump\t// in\n    tag_198:\n      pop\n        /* \"contracts/yi.sol\":19818:19939  _approve(sender, _msgSender(), _allowances[sender][_msgSender()].sub(amount, \"ERC20: transfer amount exceeds allowance\")) */\n      tag_200\n        /* \"contracts/yi.sol\":19827:19833  sender */\n      dup5\n        /* \"contracts/yi.sol\":19835:19847  _msgSender() */\n      tag_201\n        /* \"contracts/yi.sol\":19835:19845  _msgSender */\n      tag_194\n        /* \"contracts/yi.sol\":19835:19847  _msgSender() */\n      jump\t// in\n    tag_201:\n        /* \"contracts/yi.sol\":19849:19938  _allowances[sender][_msgSender()].sub(amount, \"ERC20: transfer amount exceeds allowance\") */\n      tag_202\n        /* \"contracts/yi.sol\":19887:19893  amount */\n      dup6\n        /* \"contracts/yi.sol\":19849:19938  _allowances[sender][_msgSender()].sub(amount, \"ERC20: transfer amount exceeds allowance\") */\n      mload(0x40)\n      dup1\n      0x60\n      add\n      0x40\n      mstore\n      dup1\n      0x28\n      dup2\n      mstore\n      0x20\n      add\n      data_974d1b4421da69cc60b481194f0dad36a5bb4e23da810da7a7fb30cdba178330\n      0x28\n      swap2\n      codecopy\n        /* \"contracts/yi.sol\":19849:19860  _allowances */\n      0x06\n        /* \"contracts/yi.sol\":19849:19868  _allowances[sender] */\n      0x00\n        /* \"contracts/yi.sol\":19861:19867  sender */\n      dup12\n        /* \"contracts/yi.sol\":19849:19868  _allowances[sender] */\n      0xffffffffffffffffffffffffffffffffffffffff\n      and\n      0xffffffffffffffffffffffffffffffffffffffff\n      and\n      dup2\n      mstore\n      0x20\n      add\n      swap1\n      dup2\n      mstore\n      0x20\n      add\n      0x00\n      keccak256\n        /* \"contracts/yi.sol\":19849:19882  _allowances[sender][_msgSender()] */\n      0x00\n        /* \"contracts/yi.sol\":19869:19881  _msgSender() */\n      tag_203\n        /* \"contracts/yi.sol\":19869:19879  _msgSender */\n      tag_194\n        /* \"contracts/yi.sol\":19869:19881  _msgSender() */\n      jump\t// in\n    tag_203:\n        /* \"contracts/yi.sol\":19849:19882  _allowances[sender][_msgSender()] */\n      0xffffffffffffffffffffffffffffffffffffffff\n      and\n      0xffffffffffffffffffffffffffffffffffffffff\n      and\n      dup2\n      mstore\n      0x20\n      add\n      swap1\n      dup2\n      mstore\n      0x20\n      add\n      0x00\n      keccak256\n      sload\n        /* \"contracts/yi.sol\":19849:19886  _allowances[sender][_msgSender()].sub */\n      tag_204\n      swap1\n        /* \"contracts/yi.sol\":19849:19938  _allowances[sender][_msgSender()].sub(amount, \"ERC20: transfer amount exceeds allowance\") */\n      swap3\n      swap2\n      swap1\n      0xffffffff\n      and\n      jump\t// in\n    tag_202:\n        /* \"contracts/yi.sol\":19818:19826  _approve */\n      tag_195\n        /* \"contracts/yi.sol\":19818:19939  _approve(sender, _msgSender(), _allowances[sender][_msgSender()].sub(amount, \"ERC20: transfer amount exceeds allowance\")) */\n      jump\t// in\n    tag_200:\n        /* \"contracts/yi.sol\":19957:19961  true */\n      0x01\n        /* \"contracts/yi.sol\":19950:19961  return true */\n      swap1\n      pop\n        /* \"contracts/yi.sol\":19656:19969  function transferFrom(address sender, address recipient, uint256 amount) public override returns (bool) {... */\n      swap4\n      swap3\n      pop\n      pop\n      pop\n      jump\t// out\n        /* \"contracts/yi.sol\":14677:14748  address public deadAddress = 0x000000000000000000000000000000000000dEaD */\n    tag_76:\n      0x04\n      0x00\n      swap1\n      sload\n      swap1\n      0x0100\n      exp\n      swap1\n      div\n      0xffffffffffffffffffffffffffffffffffffffff\n      and\n      dup2\n      jump\t// out\n        /* \"contracts/yi.sol\":19118:19246  function getCirculatingSupply() public view returns (uint256) {... */\n    tag_81:\n        /* \"contracts/yi.sol\":19171:19178  uint256 */\n      0x00\n        /* \"contracts/yi.sol\":19198:19238  _totalSupply.sub(balanceOf(deadAddress)) */\n      tag_206\n        /* \"contracts/yi.sol\":19215:19237  balanceOf(deadAddress) */\n      tag_207\n        /* \"contracts/yi.sol\":19225:19236  deadAddress */\n      0x04\n      0x00\n      swap1\n      sload\n      swap1\n      0x0100\n      exp\n      swap1\n      div\n      0xffffffffffffffffffffffffffffffffffffffff\n      and\n        /* \"contracts/yi.sol\":19215:19224  balanceOf */\n      tag_121\n        /* \"contracts/yi.sol\":19215:19237  balanceOf(deadAddress) */\n      jump\t// in\n    tag_207:\n        /* \"contracts/yi.sol\":19198:19210  _totalSupply */\n      sload(0x0b)\n        /* \"contracts/yi.sol\":19198:19214  _totalSupply.sub */\n      tag_208\n      swap1\n        /* \"contracts/yi.sol\":19198:19238  _totalSupply.sub(balanceOf(deadAddress)) */\n      swap2\n      swap1\n      0xffffffff\n      and\n      jump\t// in\n    tag_206:\n        /* \"contracts/yi.sol\":19191:19238  return _totalSupply.sub(balanceOf(deadAddress)) */\n      swap1\n      pop\n        /* \"contracts/yi.sol\":19118:19246  function getCirculatingSupply() public view returns (uint256) {... */\n      swap1\n      jump\t// out\n        /* \"contracts/yi.sol\":16961:17044  function decimals() public view returns (uint8) {... */\n    tag_85:\n        /* \"contracts/yi.sol\":17002:17007  uint8 */\n      0x00\n        /* \"contracts/yi.sol\":17027:17036  _decimals */\n      0x03\n      0x00\n      swap1\n      sload\n      swap1\n      0x0100\n      exp\n      swap1\n      div\n      0xff\n      and\n        /* \"contracts/yi.sol\":17020:17036  return _decimals */\n      swap1\n      pop\n        /* \"contracts/yi.sol\":16961:17044  function decimals() public view returns (uint8) {... */\n      swap1\n      jump\t// out\n        /* \"contracts/yi.sol\":17438:17656  function increaseAllowance(address spender, uint256 addedValue) public virtual returns (bool) {... */\n    tag_91:\n        /* \"contracts/yi.sol\":17526:17530  bool */\n      0x00\n        /* \"contracts/yi.sol\":17543:17626  _approve(_msgSender(), spender, _allowances[_msgSender()][spender].add(addedValue)) */\n      tag_211\n        /* \"contracts/yi.sol\":17552:17564  _msgSender() */\n      tag_212\n        /* \"contracts/yi.sol\":17552:17562  _msgSender */\n      tag_194\n        /* \"contracts/yi.sol\":17552:17564  _msgSender() */\n      jump\t// in\n    tag_212:\n        /* \"contracts/yi.sol\":17566:17573  spender */\n      dup5\n        /* \"contracts/yi.sol\":17575:17625  _allowances[_msgSender()][spender].add(addedValue) */\n      tag_213\n        /* \"contracts/yi.sol\":17614:17624  addedValue */\n      dup6\n        /* \"contracts/yi.sol\":17575:17586  _allowances */\n      0x06\n        /* \"contracts/yi.sol\":17575:17600  _allowances[_msgSender()] */\n      0x00\n        /* \"contracts/yi.sol\":17587:17599  _msgSender() */\n      tag_214\n        /* \"contracts/yi.sol\":17587:17597  _msgSender */\n      tag_194\n        /* \"contracts/yi.sol\":17587:17599  _msgSender() */\n      jump\t// in\n    tag_214:\n        /* \"contracts/yi.sol\":17575:17600  _allowances[_msgSender()] */\n      0xffffffffffffffffffffffffffffffffffffffff\n      and\n      0xffffffffffffffffffffffffffffffffffffffff\n      and\n      dup2\n      mstore\n      0x20\n      add\n      swap1\n      dup2\n      mstore\n      0x20\n      add\n      0x00\n      keccak256\n        /* \"contracts/yi.sol\":17575:17609  _allowances[_msgSender()][spender] */\n      0x00\n        /* \"contracts/yi.sol\":17601:17608  spender */\n      dup10\n        /* \"contracts/yi.sol\":17575:17609  _allowances[_msgSender()][spender] */\n      0xffffffffffffffffffffffffffffffffffffffff\n      and\n      0xffffffffffffffffffffffffffffffffffffffff\n      and\n      dup2\n      mstore\n      0x20\n      add\n      swap1\n      dup2\n      mstore\n      0x20\n      add\n      0x00\n      keccak256\n      sload\n        /* \"contracts/yi.sol\":17575:17613  _allowances[_msgSender()][spender].add */\n      tag_215\n      swap1\n        /* \"contracts/yi.sol\":17575:17625  _allowances[_msgSender()][spender].add(addedValue) */\n      swap2\n      swap1\n      0xffffffff\n      and\n      jump\t// in\n    tag_213:\n        /* \"contracts/yi.sol\":17543:17551  _approve */\n      tag_195\n        /* \"contracts/yi.sol\":17543:17626  _approve(_msgSender(), spender, _allowances[_msgSender()][spender].add(addedValue)) */\n      jump\t// in\n    tag_211:\n        /* \"contracts/yi.sol\":17644:17648  true */\n      0x01\n        /* \"contracts/yi.sol\":17637:17648  return true */\n      swap1\n      pop\n        /* \"contracts/yi.sol\":17438:17656  function increaseAllowance(address spender, uint256 addedValue) public virtual returns (bool) {... */\n      swap3\n      swap2\n      pop\n      pop\n      jump\t// out\n        /* \"contracts/yi.sol\":18863:18987  function setNumTokensBeforeSwap(uint256 newLimit) external onlyOwner() {... */\n    tag_97:\n        /* \"contracts/yi.sol\":6017:6029  _msgSender() */\n      tag_217\n        /* \"contracts/yi.sol\":6017:6027  _msgSender */\n      tag_194\n        /* \"contracts/yi.sol\":6017:6029  _msgSender() */\n      jump\t// in\n    tag_217:\n        /* \"contracts/yi.sol\":6007:6029  _owner == _msgSender() */\n      0xffffffffffffffffffffffffffffffffffffffff\n      and\n        /* \"contracts/yi.sol\":6007:6013  _owner */\n      0x00\n      dup1\n      sload\n      swap1\n      0x0100\n      exp\n      swap1\n      div\n      0xffffffffffffffffffffffffffffffffffffffff\n      and\n        /* \"contracts/yi.sol\":6007:6029  _owner == _msgSender() */\n      0xffffffffffffffffffffffffffffffffffffffff\n      and\n      eq\n        /* \"contracts/yi.sol\":5999:6066  require(_owner == _msgSender(), \"Ownable: caller is not the owner\") */\n      tag_218\n      jumpi\n      mload(0x40)\n      0x08c379a000000000000000000000000000000000000000000000000000000000\n      dup2\n      mstore\n      0x04\n      add\n      tag_219\n      swap1\n      tag_220\n      jump\t// in\n    tag_219:\n      mload(0x40)\n      dup1\n      swap2\n      sub\n      swap1\n      revert\n    tag_218:\n        /* \"contracts/yi.sol\":18971:18979  newLimit */\n      dup1\n        /* \"contracts/yi.sol\":18945:18968  minimumTokensBeforeSwap */\n      0x0c\n        /* \"contracts/yi.sol\":18945:18979  minimumTokensBeforeSwap = newLimit */\n      dup2\n      swap1\n      sstore\n      pop\n        /* \"contracts/yi.sol\":18863:18987  function setNumTokensBeforeSwap(uint256 newLimit) external onlyOwner() {... */\n      pop\n      jump\t// out\n        /* \"contracts/yi.sol\":14945:14990  mapping (address => bool) public isMarketPair */\n    tag_102:\n      mstore(0x20, 0x08)\n      dup1\n      0x00\n      mstore\n      keccak256(0x00, 0x40)\n      0x00\n      swap2\n      pop\n      sload\n      swap1\n      0x0100\n      exp\n      swap1\n      div\n      0xff\n      and\n      dup2\n      jump\t// out\n        /* \"contracts/yi.sol\":15344:15384  bool public swapAndLiquifyEnabled = true */\n    tag_106:\n      0x0e\n      0x15\n      swap1\n      sload\n      swap1\n      0x0100\n      exp\n      swap1\n      div\n      0xff\n      and\n      dup2\n      jump\t// out\n        /* \"contracts/yi.sol\":14888:14938  mapping (address => bool) public isExcludedFromFee */\n    tag_111:\n      mstore(0x20, 0x07)\n      dup1\n      0x00\n      mstore\n      keccak256(0x00, 0x40)\n      0x00\n      swap2\n      pop\n      sload\n      swap1\n      0x0100\n      exp\n      swap1\n      div\n      0xff\n      and\n      dup2\n      jump\t// out\n        /* \"contracts/yi.sol\":18995:19110  function setMarketingWallet(address payable account) external onlyOwner{... */\n    tag_117:\n        /* \"contracts/yi.sol\":6017:6029  _msgSender() */\n      tag_223\n        /* \"contracts/yi.sol\":6017:6027  _msgSender */\n      tag_194\n        /* \"contracts/yi.sol\":6017:6029  _msgSender() */\n      jump\t// in\n    tag_223:\n        /* \"contracts/yi.sol\":6007:6029  _owner == _msgSender() */\n      0xffffffffffffffffffffffffffffffffffffffff\n      and\n        /* \"contracts/yi.sol\":6007:6013  _owner */\n      0x00\n      dup1\n      sload\n      swap1\n      0x0100\n      exp\n      swap1\n      div\n      0xffffffffffffffffffffffffffffffffffffffff\n      and\n        /* \"contracts/yi.sol\":6007:6029  _owner == _msgSender() */\n      0xffffffffffffffffffffffffffffffffffffffff\n      and\n      eq\n        /* \"contracts/yi.sol\":5999:6066  require(_owner == _msgSender(), \"Ownable: caller is not the owner\") */\n      tag_224\n      jumpi\n      mload(0x40)\n      0x08c379a000000000000000000000000000000000000000000000000000000000\n      dup2\n      mstore\n      0x04\n      add\n      tag_225\n      swap1\n      tag_220\n      jump\t// in\n    tag_225:\n      mload(0x40)\n      dup1\n      swap2\n      sub\n      swap1\n      revert\n    tag_224:\n        /* \"contracts/yi.sol\":19095:19102  account */\n      dup1\n        /* \"contracts/yi.sol\":19077:19092  marketingWallet */\n      0x03\n      0x01\n        /* \"contracts/yi.sol\":19077:19102  marketingWallet = account */\n      0x0100\n      exp\n      dup2\n      sload\n      dup2\n      0xffffffffffffffffffffffffffffffffffffffff\n      mul\n      not\n      and\n      swap1\n      dup4\n      0xffffffffffffffffffffffffffffffffffffffff\n      and\n      mul\n      or\n      swap1\n      sstore\n      pop\n        /* \"contracts/yi.sol\":18995:19110  function setMarketingWallet(address payable account) external onlyOwner{... */\n      pop\n      jump\t// out\n        /* \"contracts/yi.sol\":17160:17279  function balanceOf(address account) public view override returns (uint256) {... */\n    tag_121:\n        /* \"contracts/yi.sol\":17226:17233  uint256 */\n      0x00\n        /* \"contracts/yi.sol\":17253:17262  _balances */\n      0x05\n        /* \"contracts/yi.sol\":17253:17271  _balances[account] */\n      0x00\n        /* \"contracts/yi.sol\":17263:17270  account */\n      dup4\n        /* \"contracts/yi.sol\":17253:17271  _balances[account] */\n      0xffffffffffffffffffffffffffffffffffffffff\n      and\n      0xffffffffffffffffffffffffffffffffffffffff\n      and\n      dup2\n      mstore\n      0x20\n      add\n      swap1\n      dup2\n      mstore\n      0x20\n      add\n      0x00\n      keccak256\n      sload\n        /* \"contracts/yi.sol\":17246:17271  return _balances[account] */\n      swap1\n      pop\n        /* \"contracts/yi.sol\":17160:17279  function balanceOf(address account) public view override returns (uint256) {... */\n      swap2\n      swap1\n      pop\n      jump\t// out\n        /* \"contracts/yi.sol\":14576:14668  address payable public marketingWallet = payable(0x000000000000000000000000000000000000dEaD) */\n    tag_125:\n      0x03\n      0x01\n      swap1\n      sload\n      swap1\n      0x0100\n      exp\n      swap1\n      div\n      0xffffffffffffffffffffffffffffffffffffffff\n      and\n      dup2\n      jump\t// out\n        /* \"contracts/yi.sol\":18726:18855  function setMarketPairStatus(address account, bool newValue) public onlyOwner {... */\n    tag_132:\n        /* \"contracts/yi.sol\":6017:6029  _msgSender() */\n      tag_229\n        /* \"contracts/yi.sol\":6017:6027  _msgSender */\n      tag_194\n        /* \"contracts/yi.sol\":6017:6029  _msgSender() */\n      jump\t// in\n    tag_229:\n        /* \"contracts/yi.sol\":6007:6029  _owner == _msgSender() */\n      0xffffffffffffffffffffffffffffffffffffffff\n      and\n        /* \"contracts/yi.sol\":6007:6013  _owner */\n      0x00\n      dup1\n      sload\n      swap1\n      0x0100\n      exp\n      swap1\n      div\n      0xffffffffffffffffffffffffffffffffffffffff\n      and\n        /* \"contracts/yi.sol\":6007:6029  _owner == _msgSender() */\n      0xffffffffffffffffffffffffffffffffffffffff\n      and\n      eq\n        /* \"contracts/yi.sol\":5999:6066  require(_owner == _msgSender(), \"Ownable: caller is not the owner\") */\n      tag_230\n      jumpi\n      mload(0x40)\n      0x08c379a000000000000000000000000000000000000000000000000000000000\n      dup2\n      mstore\n      0x04\n      add\n      tag_231\n      swap1\n      tag_220\n      jump\t// in\n    tag_231:\n      mload(0x40)\n      dup1\n      swap2\n      sub\n      swap1\n      revert\n    tag_230:\n        /* \"contracts/yi.sol\":18839:18847  newValue */\n      dup1\n        /* \"contracts/yi.sol\":18815:18827  isMarketPair */\n      0x08\n        /* \"contracts/yi.sol\":18815:18836  isMarketPair[account] */\n      0x00\n        /* \"contracts/yi.sol\":18828:18835  account */\n      dup5\n        /* \"contracts/yi.sol\":18815:18836  isMarketPair[account] */\n      0xffffffffffffffffffffffffffffffffffffffff\n      and\n      0xffffffffffffffffffffffffffffffffffffffff\n      and\n      dup2\n      mstore\n      0x20\n      add\n      swap1\n      dup2\n      mstore\n      0x20\n      add\n      0x00\n      keccak256\n      0x00\n        /* \"contracts/yi.sol\":18815:18847  isMarketPair[account] = newValue */\n      0x0100\n      exp\n      dup2\n      sload\n      dup2\n      0xff\n      mul\n      not\n      and\n      swap1\n      dup4\n      iszero\n      iszero\n      mul\n      or\n      swap1\n      sstore\n      pop\n        /* \"contracts/yi.sol\":18726:18855  function setMarketPairStatus(address account, bool newValue) public onlyOwner {... */\n      pop\n      pop\n      jump\t// out\n        /* \"contracts/yi.sol\":5873:5952  function owner() public view returns (address) {... */\n    tag_135:\n        /* \"contracts/yi.sol\":5911:5918  address */\n      0x00\n        /* \"contracts/yi.sol\":5938:5944  _owner */\n      dup1\n      0x00\n      swap1\n      sload\n      swap1\n      0x0100\n      exp\n      swap1\n      div\n      0xffffffffffffffffffffffffffffffffffffffff\n      and\n        /* \"contracts/yi.sol\":5931:5944  return _owner */\n      swap1\n      pop\n        /* \"contracts/yi.sol\":5873:5952  function owner() public view returns (address) {... */\n      swap1\n      jump\t// out\n        /* \"contracts/yi.sol\":6098:6243  function waiveOwnership() public virtual onlyOwner {... */\n    tag_139:\n        /* \"contracts/yi.sol\":6017:6029  _msgSender() */\n      tag_235\n        /* \"contracts/yi.sol\":6017:6027  _msgSender */\n      tag_194\n        /* \"contracts/yi.sol\":6017:6029  _msgSender() */\n      jump\t// in\n    tag_235:\n        /* \"contracts/yi.sol\":6007:6029  _owner == _msgSender() */\n      0xffffffffffffffffffffffffffffffffffffffff\n      and\n        /* \"contracts/yi.sol\":6007:6013  _owner */\n      0x00\n      dup1\n      sload\n      swap1\n      0x0100\n      exp\n      swap1\n      div\n      0xffffffffffffffffffffffffffffffffffffffff\n      and\n        /* \"contracts/yi.sol\":6007:6029  _owner == _msgSender() */\n      0xffffffffffffffffffffffffffffffffffffffff\n      and\n      eq\n        /* \"contracts/yi.sol\":5999:6066  require(_owner == _msgSender(), \"Ownable: caller is not the owner\") */\n      tag_236\n      jumpi\n      mload(0x40)\n      0x08c379a000000000000000000000000000000000000000000000000000000000\n      dup2\n      mstore\n      0x04\n      add\n      tag_237\n      swap1\n      tag_220\n      jump\t// in\n    tag_237:\n      mload(0x40)\n      dup1\n      swap2\n      sub\n      swap1\n      revert\n    tag_236:\n        /* \"contracts/yi.sol\":6202:6203  0 */\n      0x00\n        /* \"contracts/yi.sol\":6165:6205  OwnershipTransferred(_owner, address(0)) */\n      0xffffffffffffffffffffffffffffffffffffffff\n      and\n        /* \"contracts/yi.sol\":6186:6192  _owner */\n      0x00\n      dup1\n      sload\n      swap1\n      0x0100\n      exp\n      swap1\n      div\n      0xffffffffffffffffffffffffffffffffffffffff\n      and\n        /* \"contracts/yi.sol\":6165:6205  OwnershipTransferred(_owner, address(0)) */\n      0xffffffffffffffffffffffffffffffffffffffff\n      and\n      0x8be0079c531659141344cd1fd0a4f28419497f9722a3daafe3b4186f6b6457e0\n      mload(0x40)\n      mload(0x40)\n      dup1\n      swap2\n      sub\n      swap1\n      log3\n        /* \"contracts/yi.sol\":6233:6234  0 */\n      0x00\n        /* \"contracts/yi.sol\":6216:6222  _owner */\n      dup1\n      0x00\n        /* \"contracts/yi.sol\":6216:6235  _owner = address(0) */\n      0x0100\n      exp\n      dup2\n      sload\n      dup2\n      0xffffffffffffffffffffffffffffffffffffffff\n      mul\n      not\n      and\n      swap1\n      dup4\n      0xffffffffffffffffffffffffffffffffffffffff\n      and\n      mul\n      or\n      swap1\n      sstore\n      pop\n        /* \"contracts/yi.sol\":6098:6243  function waiveOwnership() public virtual onlyOwner {... */\n      jump\t// out\n        /* \"contracts/yi.sol\":16866:16953  function symbol() public view returns (string memory) {... */\n    tag_142:\n        /* \"contracts/yi.sol\":16905:16918  string memory */\n      0x60\n        /* \"contracts/yi.sol\":16938:16945  _symbol */\n      0x02\n        /* \"contracts/yi.sol\":16931:16945  return _symbol */\n      dup1\n      sload\n      tag_240\n      swap1\n      tag_186\n      jump\t// in\n    tag_240:\n      dup1\n      0x1f\n      add\n      0x20\n      dup1\n      swap2\n      div\n      mul\n      0x20\n      add\n      mload(0x40)\n      swap1\n      dup2\n      add\n      0x40\n      mstore\n      dup1\n      swap3\n      swap2\n      swap1\n      dup2\n      dup2\n      mstore\n      0x20\n      add\n      dup3\n      dup1\n      sload\n      tag_241\n      swap1\n      tag_186\n      jump\t// in\n    tag_241:\n      dup1\n      iszero\n      tag_242\n      jumpi\n      dup1\n      0x1f\n      lt\n      tag_243\n      jumpi\n      0x0100\n      dup1\n      dup4\n      sload\n      div\n      mul\n      dup4\n      mstore\n      swap2\n      0x20\n      add\n      swap2\n      jump(tag_242)\n    tag_243:\n      dup3\n      add\n      swap2\n      swap1\n      0x00\n      mstore\n      keccak256(0x00, 0x20)\n      swap1\n    tag_244:\n      dup2\n      sload\n      dup2\n      mstore\n      swap1\n      0x01\n      add\n      swap1\n      0x20\n      add\n      dup1\n      dup4\n      gt\n      tag_244\n      jumpi\n      dup3\n      swap1\n      sub\n      0x1f\n      and\n      dup3\n      add\n      swap2\n    tag_242:\n      pop\n      pop\n      pop\n      pop\n      pop\n      swap1\n      pop\n        /* \"contracts/yi.sol\":16866:16953  function symbol() public view returns (string memory) {... */\n      swap1\n      jump\t// out\n        /* \"contracts/yi.sol\":17941:18061  function minimumTokensBeforeSwapAmount() public view returns (uint256) {... */\n    tag_146:\n        /* \"contracts/yi.sol\":18003:18010  uint256 */\n      0x00\n        /* \"contracts/yi.sol\":18030:18053  minimumTokensBeforeSwap */\n      sload(0x0c)\n        /* \"contracts/yi.sol\":18023:18053  return minimumTokensBeforeSwap */\n      swap1\n      pop\n        /* \"contracts/yi.sol\":17941:18061  function minimumTokensBeforeSwapAmount() public view returns (uint256) {... */\n      swap1\n      jump\t// out\n        /* \"contracts/yi.sol\":15040:15080  uint256 public _totalTax = _marketingFee */\n    tag_150:\n      sload(0x0a)\n      dup2\n      jump\t// out\n        /* \"contracts/yi.sol\":17664:17933  function decreaseAllowance(address spender, uint256 subtractedValue) public virtual returns (bool) {... */\n    tag_155:\n        /* \"contracts/yi.sol\":17757:17761  bool */\n      0x00\n        /* \"contracts/yi.sol\":17774:17903  _approve(_msgSender(), spender, _allowances[_msgSender()][spender].sub(subtractedValue, \"ERC20: decreased allowance below zero\")) */\n      tag_247\n        /* \"contracts/yi.sol\":17783:17795  _msgSender() */\n      tag_248\n        /* \"contracts/yi.sol\":17783:17793  _msgSender */\n      tag_194\n        /* \"contracts/yi.sol\":17783:17795  _msgSender() */\n      jump\t// in\n    tag_248:\n        /* \"contracts/yi.sol\":17797:17804  spender */\n      dup5\n        /* \"contracts/yi.sol\":17806:17902  _allowances[_msgSender()][spender].sub(subtractedValue, \"ERC20: decreased allowance below zero\") */\n      tag_249\n        /* \"contracts/yi.sol\":17845:17860  subtractedValue */\n      dup6\n        /* \"contracts/yi.sol\":17806:17902  _allowances[_msgSender()][spender].sub(subtractedValue, \"ERC20: decreased allowance below zero\") */\n      mload(0x40)\n      dup1\n      0x60\n      add\n      0x40\n      mstore\n      dup1\n      0x25\n      dup2\n      mstore\n      0x20\n      add\n      data_f8b476f7d28209d77d4a4ac1fe36b9f8259aa1bb6bddfa6e89de7e51615cf8a8\n      0x25\n      swap2\n      codecopy\n        /* \"contracts/yi.sol\":17806:17817  _allowances */\n      0x06\n        /* \"contracts/yi.sol\":17806:17831  _allowances[_msgSender()] */\n      0x00\n        /* \"contracts/yi.sol\":17818:17830  _msgSender() */\n      tag_250\n        /* \"contracts/yi.sol\":17818:17828  _msgSender */\n      tag_194\n        /* \"contracts/yi.sol\":17818:17830  _msgSender() */\n      jump\t// in\n    tag_250:\n        /* \"contracts/yi.sol\":17806:17831  _allowances[_msgSender()] */\n      0xffffffffffffffffffffffffffffffffffffffff\n      and\n      0xffffffffffffffffffffffffffffffffffffffff\n      and\n      dup2\n      mstore\n      0x20\n      add\n      swap1\n      dup2\n      mstore\n      0x20\n      add\n      0x00\n      keccak256\n        /* \"contracts/yi.sol\":17806:17840  _allowances[_msgSender()][spender] */\n      0x00\n        /* \"contracts/yi.sol\":17832:17839  spender */\n      dup11\n        /* \"contracts/yi.sol\":17806:17840  _allowances[_msgSender()][spender] */\n      0xffffffffffffffffffffffffffffffffffffffff\n      and\n      0xffffffffffffffffffffffffffffffffffffffff\n      and\n      dup2\n      mstore\n      0x20\n      add\n      swap1\n      dup2\n      mstore\n      0x20\n      add\n      0x00\n      keccak256\n      sload\n        /* \"contracts/yi.sol\":17806:17844  _allowances[_msgSender()][spender].sub */\n      tag_204\n      swap1\n        /* \"contracts/yi.sol\":17806:17902  _allowances[_msgSender()][spender].sub(subtractedValue, \"ERC20: decreased allowance below zero\") */\n      swap3\n      swap2\n      swap1\n      0xffffffff\n      and\n      jump\t// in\n    tag_249:\n        /* \"contracts/yi.sol\":17774:17782  _approve */\n      tag_195\n        /* \"contracts/yi.sol\":17774:17903  _approve(_msgSender(), spender, _allowances[_msgSender()][spender].sub(subtractedValue, \"ERC20: decreased allowance below zero\")) */\n      jump\t// in\n    tag_247:\n        /* \"contracts/yi.sol\":17921:17925  true */\n      0x01\n        /* \"contracts/yi.sol\":17914:17925  return true */\n      swap1\n      pop\n        /* \"contracts/yi.sol\":17664:17933  function decreaseAllowance(address spender, uint256 subtractedValue) public virtual returns (bool) {... */\n      swap3\n      swap2\n      pop\n      pop\n      jump\t// out\n        /* \"contracts/yi.sol\":19481:19648  function transfer(address recipient, uint256 amount) public override returns (bool) {... */\n    tag_160:\n        /* \"contracts/yi.sol\":19559:19563  bool */\n      0x00\n        /* \"contracts/yi.sol\":19576:19618  _transfer(_msgSender(), recipient, amount) */\n      tag_252\n        /* \"contracts/yi.sol\":19586:19598  _msgSender() */\n      tag_253\n        /* \"contracts/yi.sol\":19586:19596  _msgSender */\n      tag_194\n        /* \"contracts/yi.sol\":19586:19598  _msgSender() */\n      jump\t// in\n    tag_253:\n        /* \"contracts/yi.sol\":19600:19609  recipient */\n      dup5\n        /* \"contracts/yi.sol\":19611:19617  amount */\n      dup5\n        /* \"contracts/yi.sol\":19576:19585  _transfer */\n      tag_199\n        /* \"contracts/yi.sol\":19576:19618  _transfer(_msgSender(), recipient, amount) */\n      jump\t// in\n    tag_252:\n      pop\n        /* \"contracts/yi.sol\":19636:19640  true */\n      0x01\n        /* \"contracts/yi.sol\":19629:19640  return true */\n      swap1\n      pop\n        /* \"contracts/yi.sol\":19481:19648  function transfer(address recipient, uint256 amount) public override returns (bool) {... */\n      swap3\n      swap2\n      pop\n      pop\n      jump\t// out\n        /* \"contracts/yi.sol\":15277:15303  address public uniswapPair */\n    tag_164:\n      0x0e\n      0x00\n      swap1\n      sload\n      swap1\n      0x0100\n      exp\n      swap1\n      div\n      0xffffffffffffffffffffffffffffffffffffffff\n      and\n      dup2\n      jump\t// out\n        /* \"contracts/yi.sol\":15391:15436  bool public swapAndLiquifyByLimitOnly = false */\n    tag_168:\n      0x0e\n      0x16\n      swap1\n      sload\n      swap1\n      0x0100\n      exp\n      swap1\n      div\n      0xff\n      and\n      dup2\n      jump\t// out\n        /* \"contracts/yi.sol\":17287:17430  function allowance(address owner, address spender) public view override returns (uint256) {... */\n    tag_174:\n        /* \"contracts/yi.sol\":17368:17375  uint256 */\n      0x00\n        /* \"contracts/yi.sol\":17395:17406  _allowances */\n      0x06\n        /* \"contracts/yi.sol\":17395:17413  _allowances[owner] */\n      0x00\n        /* \"contracts/yi.sol\":17407:17412  owner */\n      dup5\n        /* \"contracts/yi.sol\":17395:17413  _allowances[owner] */\n      0xffffffffffffffffffffffffffffffffffffffff\n      and\n      0xffffffffffffffffffffffffffffffffffffffff\n      and\n      dup2\n      mstore\n      0x20\n      add\n      swap1\n      dup2\n      mstore\n      0x20\n      add\n      0x00\n      keccak256\n        /* \"contracts/yi.sol\":17395:17422  _allowances[owner][spender] */\n      0x00\n        /* \"contracts/yi.sol\":17414:17421  spender */\n      dup4\n        /* \"contracts/yi.sol\":17395:17422  _allowances[owner][spender] */\n      0xffffffffffffffffffffffffffffffffffffffff\n      and\n      0xffffffffffffffffffffffffffffffffffffffff\n      and\n      dup2\n      mstore\n      0x20\n      add\n      swap1\n      dup2\n      mstore\n      0x20\n      add\n      0x00\n      keccak256\n      sload\n        /* \"contracts/yi.sol\":17388:17422  return _allowances[owner][spender] */\n      swap1\n      pop\n        /* \"contracts/yi.sol\":17287:17430  function allowance(address owner, address spender) public view override returns (uint256) {... */\n      swap3\n      swap2\n      pop\n      pop\n      jump\t// out\n        /* \"contracts/yi.sol\":18583:18718  function setIsExcludedFromFee(address account, bool newValue) public onlyOwner {... */\n    tag_179:\n        /* \"contracts/yi.sol\":6017:6029  _msgSender() */\n      tag_256\n        /* \"contracts/yi.sol\":6017:6027  _msgSender */\n      tag_194\n        /* \"contracts/yi.sol\":6017:6029  _msgSender() */\n      jump\t// in\n    tag_256:\n        /* \"contracts/yi.sol\":6007:6029  _owner == _msgSender() */\n      0xffffffffffffffffffffffffffffffffffffffff\n      and\n        /* \"contracts/yi.sol\":6007:6013  _owner */\n      0x00\n      dup1\n      sload\n      swap1\n      0x0100\n      exp\n      swap1\n      div\n      0xffffffffffffffffffffffffffffffffffffffff\n      and\n        /* \"contracts/yi.sol\":6007:6029  _owner == _msgSender() */\n      0xffffffffffffffffffffffffffffffffffffffff\n      and\n      eq\n        /* \"contracts/yi.sol\":5999:6066  require(_owner == _msgSender(), \"Ownable: caller is not the owner\") */\n      tag_257\n      jumpi\n      mload(0x40)\n      0x08c379a000000000000000000000000000000000000000000000000000000000\n      dup2\n      mstore\n      0x04\n      add\n      tag_258\n      swap1\n      tag_220\n      jump\t// in\n    tag_258:\n      mload(0x40)\n      dup1\n      swap2\n      sub\n      swap1\n      revert\n    tag_257:\n        /* \"contracts/yi.sol\":18702:18710  newValue */\n      dup1\n        /* \"contracts/yi.sol\":18673:18690  isExcludedFromFee */\n      0x07\n        /* \"contracts/yi.sol\":18673:18699  isExcludedFromFee[account] */\n      0x00\n        /* \"contracts/yi.sol\":18691:18698  account */\n      dup5\n        /* \"contracts/yi.sol\":18673:18699  isExcludedFromFee[account] */\n      0xffffffffffffffffffffffffffffffffffffffff\n      and\n      0xffffffffffffffffffffffffffffffffffffffff\n      and\n      dup2\n      mstore\n      0x20\n      add\n      swap1\n      dup2\n      mstore\n      0x20\n      add\n      0x00\n      keccak256\n      0x00\n        /* \"contracts/yi.sol\":18673:18710  isExcludedFromFee[account] = newValue */\n      0x0100\n      exp\n      dup2\n      sload\n      dup2\n      0xff\n      mul\n      not\n      and\n      swap1\n      dup4\n      iszero\n      iszero\n      mul\n      or\n      swap1\n      sstore\n      pop\n        /* \"contracts/yi.sol\":18583:18718  function setIsExcludedFromFee(address account, bool newValue) public onlyOwner {... */\n      pop\n      pop\n      jump\t// out\n        /* \"contracts/yi.sol\":6251:6495  function transferOwnership(address newOwner) public virtual onlyOwner {... */\n    tag_183:\n        /* \"contracts/yi.sol\":6017:6029  _msgSender() */\n      tag_261\n        /* \"contracts/yi.sol\":6017:6027  _msgSender */\n      tag_194\n        /* \"contracts/yi.sol\":6017:6029  _msgSender() */\n      jump\t// in\n    tag_261:\n        /* \"contracts/yi.sol\":6007:6029  _owner == _msgSender() */\n      0xffffffffffffffffffffffffffffffffffffffff\n      and\n        /* \"contracts/yi.sol\":6007:6013  _owner */\n      0x00\n      dup1\n      sload\n      swap1\n      0x0100\n      exp\n      swap1\n      div\n      0xffffffffffffffffffffffffffffffffffffffff\n      and\n        /* \"contracts/yi.sol\":6007:6029  _owner == _msgSender() */\n      0xffffffffffffffffffffffffffffffffffffffff\n      and\n      eq\n        /* \"contracts/yi.sol\":5999:6066  require(_owner == _msgSender(), \"Ownable: caller is not the owner\") */\n      tag_262\n      jumpi\n      mload(0x40)\n      0x08c379a000000000000000000000000000000000000000000000000000000000\n      dup2\n      mstore\n      0x04\n      add\n      tag_263\n      swap1\n      tag_220\n      jump\t// in\n    tag_263:\n      mload(0x40)\n      dup1\n      swap2\n      sub\n      swap1\n      revert\n    tag_262:\n        /* \"contracts/yi.sol\":6360:6361  0 */\n      0x00\n        /* \"contracts/yi.sol\":6340:6362  newOwner != address(0) */\n      0xffffffffffffffffffffffffffffffffffffffff\n      and\n        /* \"contracts/yi.sol\":6340:6348  newOwner */\n      dup2\n        /* \"contracts/yi.sol\":6340:6362  newOwner != address(0) */\n      0xffffffffffffffffffffffffffffffffffffffff\n      and\n      sub\n        /* \"contracts/yi.sol\":6332:6405  require(newOwner != address(0), \"Ownable: new owner is the zero address\") */\n      tag_265\n      jumpi\n      mload(0x40)\n      0x08c379a000000000000000000000000000000000000000000000000000000000\n      dup2\n      mstore\n      0x04\n      add\n      tag_266\n      swap1\n      tag_267\n      jump\t// in\n    tag_266:\n      mload(0x40)\n      dup1\n      swap2\n      sub\n      swap1\n      revert\n    tag_265:\n        /* \"contracts/yi.sol\":6450:6458  newOwner */\n      dup1\n        /* \"contracts/yi.sol\":6421:6459  OwnershipTransferred(_owner, newOwner) */\n      0xffffffffffffffffffffffffffffffffffffffff\n      and\n        /* \"contracts/yi.sol\":6442:6448  _owner */\n      0x00\n      dup1\n      sload\n      swap1\n      0x0100\n      exp\n      swap1\n      div\n      0xffffffffffffffffffffffffffffffffffffffff\n      and\n        /* \"contracts/yi.sol\":6421:6459  OwnershipTransferred(_owner, newOwner) */\n      0xffffffffffffffffffffffffffffffffffffffff\n      and\n      0x8be0079c531659141344cd1fd0a4f28419497f9722a3daafe3b4186f6b6457e0\n      mload(0x40)\n      mload(0x40)\n      dup1\n      swap2\n      sub\n      swap1\n      log3\n        /* \"contracts/yi.sol\":6479:6487  newOwner */\n      dup1\n        /* \"contracts/yi.sol\":6470:6476  _owner */\n      0x00\n      dup1\n        /* \"contracts/yi.sol\":6470:6487  _owner = newOwner */\n      0x0100\n      exp\n      dup2\n      sload\n      dup2\n      0xffffffffffffffffffffffffffffffffffffffff\n      mul\n      not\n      and\n      swap1\n      dup4\n      0xffffffffffffffffffffffffffffffffffffffff\n      and\n      mul\n      or\n      swap1\n      sstore\n      pop\n        /* \"contracts/yi.sol\":6251:6495  function transferOwnership(address newOwner) public virtual onlyOwner {... */\n      pop\n      jump\t// out\n        /* \"contracts/yi.sol\":244:359  function _msgSender() internal view virtual returns (address payable) {... */\n    tag_194:\n        /* \"contracts/yi.sol\":297:312  address payable */\n      0x00\n        /* \"contracts/yi.sol\":340:350  msg.sender */\n      caller\n        /* \"contracts/yi.sol\":325:351  return payable(msg.sender) */\n      swap1\n      pop\n        /* \"contracts/yi.sol\":244:359  function _msgSender() internal view virtual returns (address payable) {... */\n      swap1\n      jump\t// out\n        /* \"contracts/yi.sol\":18238:18575  function _approve(address owner, address spender, uint256 amount) private {... */\n    tag_195:\n        /* \"contracts/yi.sol\":18348:18349  0 */\n      0x00\n        /* \"contracts/yi.sol\":18331:18350  owner != address(0) */\n      0xffffffffffffffffffffffffffffffffffffffff\n      and\n        /* \"contracts/yi.sol\":18331:18336  owner */\n      dup4\n        /* \"contracts/yi.sol\":18331:18350  owner != address(0) */\n      0xffffffffffffffffffffffffffffffffffffffff\n      and\n      sub\n        /* \"contracts/yi.sol\":18323:18391  require(owner != address(0), \"ERC20: approve from the zero address\") */\n      tag_270\n      jumpi\n      mload(0x40)\n      0x08c379a000000000000000000000000000000000000000000000000000000000\n      dup2\n      mstore\n      0x04\n      add\n      tag_271\n      swap1\n      tag_272\n      jump\t// in\n    tag_271:\n      mload(0x40)\n      dup1\n      swap2\n      sub\n      swap1\n      revert\n    tag_270:\n        /* \"contracts/yi.sol\":18429:18430  0 */\n      0x00\n        /* \"contracts/yi.sol\":18410:18431  spender != address(0) */\n      0xffffffffffffffffffffffffffffffffffffffff\n      and\n        /* \"contracts/yi.sol\":18410:18417  spender */\n      dup3\n        /* \"contracts/yi.sol\":18410:18431  spender != address(0) */\n      0xffffffffffffffffffffffffffffffffffffffff\n      and\n      sub\n        /* \"contracts/yi.sol\":18402:18470  require(spender != address(0), \"ERC20: approve to the zero address\") */\n      tag_273\n      jumpi\n      mload(0x40)\n      0x08c379a000000000000000000000000000000000000000000000000000000000\n      dup2\n      mstore\n      0x04\n      add\n      tag_274\n      swap1\n      tag_275\n      jump\t// in\n    tag_274:\n      mload(0x40)\n      dup1\n      swap2\n      sub\n      swap1\n      revert\n    tag_273:\n        /* \"contracts/yi.sol\":18513:18519  amount */\n      dup1\n        /* \"contracts/yi.sol\":18483:18494  _allowances */\n      0x06\n        /* \"contracts/yi.sol\":18483:18501  _allowances[owner] */\n      0x00\n        /* \"contracts/yi.sol\":18495:18500  owner */\n      dup6\n        /* \"contracts/yi.sol\":18483:18501  _allowances[owner] */\n      0xffffffffffffffffffffffffffffffffffffffff\n      and\n      0xffffffffffffffffffffffffffffffffffffffff\n      and\n      dup2\n      mstore\n      0x20\n      add\n      swap1\n      dup2\n      mstore\n      0x20\n      add\n      0x00\n      keccak256\n        /* \"contracts/yi.sol\":18483:18510  _allowances[owner][spender] */\n      0x00\n        /* \"contracts/yi.sol\":18502:18509  spender */\n      dup5\n        /* \"contracts/yi.sol\":18483:18510  _allowances[owner][spender] */\n      0xffffffffffffffffffffffffffffffffffffffff\n      and\n      0xffffffffffffffffffffffffffffffffffffffff\n      and\n      dup2\n      mstore\n      0x20\n      add\n      swap1\n      dup2\n      mstore\n      0x20\n      add\n      0x00\n      keccak256\n        /* \"contracts/yi.sol\":18483:18519  _allowances[owner][spender] = amount */\n      dup2\n      swap1\n      sstore\n      pop\n        /* \"contracts/yi.sol\":18551:18558  spender */\n      dup2\n        /* \"contracts/yi.sol\":18535:18567  Approval(owner, spender, amount) */\n      0xffffffffffffffffffffffffffffffffffffffff\n      and\n        /* \"contracts/yi.sol\":18544:18549  owner */\n      dup4\n        /* \"contracts/yi.sol\":18535:18567  Approval(owner, spender, amount) */\n      0xffffffffffffffffffffffffffffffffffffffff\n      and\n      0x8c5be1e5ebec7d5bd14f71427d1e84f3dd0314c0f7b2291e5b200ac8c7c3b925\n        /* \"contracts/yi.sol\":18560:18566  amount */\n      dup4\n        /* \"contracts/yi.sol\":18535:18567  Approval(owner, spender, amount) */\n      mload(0x40)\n      tag_276\n      swap2\n      swap1\n      tag_63\n      jump\t// in\n    tag_276:\n      mload(0x40)\n      dup1\n      swap2\n      sub\n      swap1\n      log3\n        /* \"contracts/yi.sol\":18238:18575  function _approve(address owner, address spender, uint256 amount) private {... */\n      pop\n      pop\n      pop\n      jump\t// out\n        /* \"contracts/yi.sol\":19981:21361  function _transfer(address sender, address recipient, uint256 amount) private returns (bool) {... */\n    tag_199:\n        /* \"contracts/yi.sol\":20068:20072  bool */\n      0x00\n        /* \"contracts/yi.sol\":20113:20114  0 */\n      dup1\n        /* \"contracts/yi.sol\":20095:20115  sender != address(0) */\n      0xffffffffffffffffffffffffffffffffffffffff\n      and\n        /* \"contracts/yi.sol\":20095:20101  sender */\n      dup5\n        /* \"contracts/yi.sol\":20095:20115  sender != address(0) */\n      0xffffffffffffffffffffffffffffffffffffffff\n      and\n      sub\n        /* \"contracts/yi.sol\":20087:20157  require(sender != address(0), \"ERC20: transfer from the zero address\") */\n      tag_278\n      jumpi\n      mload(0x40)\n      0x08c379a000000000000000000000000000000000000000000000000000000000\n      dup2\n      mstore\n      0x04\n      add\n      tag_279\n      swap1\n      tag_280\n      jump\t// in\n    tag_279:\n      mload(0x40)\n      dup1\n      swap2\n      sub\n      swap1\n      revert\n    tag_278:\n        /* \"contracts/yi.sol\":20197:20198  0 */\n      0x00\n        /* \"contracts/yi.sol\":20176:20199  recipient != address(0) */\n      0xffffffffffffffffffffffffffffffffffffffff\n      and\n        /* \"contracts/yi.sol\":20176:20185  recipient */\n      dup4\n        /* \"contracts/yi.sol\":20176:20199  recipient != address(0) */\n      0xffffffffffffffffffffffffffffffffffffffff\n      and\n      sub\n        /* \"contracts/yi.sol\":20168:20239  require(recipient != address(0), \"ERC20: transfer to the zero address\") */\n      tag_281\n      jumpi\n      mload(0x40)\n      0x08c379a000000000000000000000000000000000000000000000000000000000\n      dup2\n      mstore\n      0x04\n      add\n      tag_282\n      swap1\n      tag_283\n      jump\t// in\n    tag_282:\n      mload(0x40)\n      dup1\n      swap2\n      sub\n      swap1\n      revert\n    tag_281:\n        /* \"contracts/yi.sol\":20255:20271  inSwapAndLiquify */\n      0x0e\n      0x14\n      swap1\n      sload\n      swap1\n      0x0100\n      exp\n      swap1\n      div\n      0xff\n      and\n        /* \"contracts/yi.sol\":20252:21354  if(inSwapAndLiquify)... */\n      iszero\n      tag_284\n      jumpi\n        /* \"contracts/yi.sol\":20305:20346  _basicTransfer(sender, recipient, amount) */\n      tag_285\n        /* \"contracts/yi.sol\":20320:20326  sender */\n      dup5\n        /* \"contracts/yi.sol\":20328:20337  recipient */\n      dup5\n        /* \"contracts/yi.sol\":20339:20345  amount */\n      dup5\n        /* \"contracts/yi.sol\":20305:20319  _basicTransfer */\n      tag_286\n        /* \"contracts/yi.sol\":20305:20346  _basicTransfer(sender, recipient, amount) */\n      jump\t// in\n    tag_285:\n        /* \"contracts/yi.sol\":20298:20346  return _basicTransfer(sender, recipient, amount) */\n      swap1\n      pop\n      jump(tag_277)\n        /* \"contracts/yi.sol\":20252:21354  if(inSwapAndLiquify)... */\n    tag_284:\n        /* \"contracts/yi.sol\":20398:20426  uint256 contractTokenBalance */\n      0x00\n        /* \"contracts/yi.sol\":20429:20453  balanceOf(address(this)) */\n      tag_288\n        /* \"contracts/yi.sol\":20447:20451  this */\n      address\n        /* \"contracts/yi.sol\":20429:20438  balanceOf */\n      tag_121\n        /* \"contracts/yi.sol\":20429:20453  balanceOf(address(this)) */\n      jump\t// in\n    tag_288:\n        /* \"contracts/yi.sol\":20398:20453  uint256 contractTokenBalance = balanceOf(address(this)) */\n      swap1\n      pop\n        /* \"contracts/yi.sol\":20468:20496  bool overMinimumTokenBalance */\n      0x00\n        /* \"contracts/yi.sol\":20523:20546  minimumTokensBeforeSwap */\n      sload(0x0c)\n        /* \"contracts/yi.sol\":20499:20519  contractTokenBalance */\n      dup3\n        /* \"contracts/yi.sol\":20499:20546  contractTokenBalance >= minimumTokensBeforeSwap */\n      lt\n      iszero\n        /* \"contracts/yi.sol\":20468:20546  bool overMinimumTokenBalance = contractTokenBalance >= minimumTokensBeforeSwap */\n      swap1\n      pop\n        /* \"contracts/yi.sol\":20579:20602  overMinimumTokenBalance */\n      dup1\n        /* \"contracts/yi.sol\":20579:20623  overMinimumTokenBalance && !inSwapAndLiquify */\n      dup1\n      iszero\n      tag_289\n      jumpi\n      pop\n        /* \"contracts/yi.sol\":20607:20623  inSwapAndLiquify */\n      0x0e\n      0x14\n      swap1\n      sload\n      swap1\n      0x0100\n      exp\n      swap1\n      div\n      0xff\n      and\n        /* \"contracts/yi.sol\":20606:20623  !inSwapAndLiquify */\n      iszero\n        /* \"contracts/yi.sol\":20579:20623  overMinimumTokenBalance && !inSwapAndLiquify */\n    tag_289:\n        /* \"contracts/yi.sol\":20579:20648  overMinimumTokenBalance && !inSwapAndLiquify && !isMarketPair[sender] */\n      dup1\n      iszero\n      tag_290\n      jumpi\n      pop\n        /* \"contracts/yi.sol\":20628:20640  isMarketPair */\n      0x08\n        /* \"contracts/yi.sol\":20628:20648  isMarketPair[sender] */\n      0x00\n        /* \"contracts/yi.sol\":20641:20647  sender */\n      dup8\n        /* \"contracts/yi.sol\":20628:20648  isMarketPair[sender] */\n      0xffffffffffffffffffffffffffffffffffffffff\n      and\n      0xffffffffffffffffffffffffffffffffffffffff\n      and\n      dup2\n      mstore\n      0x20\n      add\n      swap1\n      dup2\n      mstore\n      0x20\n      add\n      0x00\n      keccak256\n      0x00\n      swap1\n      sload\n      swap1\n      0x0100\n      exp\n      swap1\n      div\n      0xff\n      and\n        /* \"contracts/yi.sol\":20627:20648  !isMarketPair[sender] */\n      iszero\n        /* \"contracts/yi.sol\":20579:20648  overMinimumTokenBalance && !inSwapAndLiquify && !isMarketPair[sender] */\n    tag_290:\n        /* \"contracts/yi.sol\":20579:20673  overMinimumTokenBalance && !inSwapAndLiquify && !isMarketPair[sender] && swapAndLiquifyEnabled */\n      dup1\n      iszero\n      tag_291\n      jumpi\n      pop\n        /* \"contracts/yi.sol\":20652:20673  swapAndLiquifyEnabled */\n      0x0e\n      0x15\n      swap1\n      sload\n      swap1\n      0x0100\n      exp\n      swap1\n      div\n      0xff\n      and\n        /* \"contracts/yi.sol\":20579:20673  overMinimumTokenBalance && !inSwapAndLiquify && !isMarketPair[sender] && swapAndLiquifyEnabled */\n    tag_291:\n        /* \"contracts/yi.sol\":20579:20695  overMinimumTokenBalance && !inSwapAndLiquify && !isMarketPair[sender] && swapAndLiquifyEnabled && recipient!=owner() */\n      dup1\n      iszero\n      tag_292\n      jumpi\n      pop\n        /* \"contracts/yi.sol\":20688:20695  owner() */\n      tag_293\n        /* \"contracts/yi.sol\":20688:20693  owner */\n      tag_135\n        /* \"contracts/yi.sol\":20688:20695  owner() */\n      jump\t// in\n    tag_293:\n        /* \"contracts/yi.sol\":20677:20695  recipient!=owner() */\n      0xffffffffffffffffffffffffffffffffffffffff\n      and\n        /* \"contracts/yi.sol\":20677:20686  recipient */\n      dup6\n        /* \"contracts/yi.sol\":20677:20695  recipient!=owner() */\n      0xffffffffffffffffffffffffffffffffffffffff\n      and\n      eq\n      iszero\n        /* \"contracts/yi.sol\":20579:20695  overMinimumTokenBalance && !inSwapAndLiquify && !isMarketPair[sender] && swapAndLiquifyEnabled && recipient!=owner() */\n    tag_292:\n        /* \"contracts/yi.sol\":20575:20902  if (overMinimumTokenBalance && !inSwapAndLiquify && !isMarketPair[sender] && swapAndLiquifyEnabled && recipient!=owner()) ... */\n      iszero\n      tag_294\n      jumpi\n        /* \"contracts/yi.sol\":20733:20758  swapAndLiquifyByLimitOnly */\n      0x0e\n      0x16\n      swap1\n      sload\n      swap1\n      0x0100\n      exp\n      swap1\n      div\n      0xff\n      and\n        /* \"contracts/yi.sol\":20730:20827  if(swapAndLiquifyByLimitOnly)... */\n      iszero\n      tag_295\n      jumpi\n        /* \"contracts/yi.sol\":20804:20827  minimumTokensBeforeSwap */\n      sload(0x0c)\n        /* \"contracts/yi.sol\":20781:20827  contractTokenBalance = minimumTokensBeforeSwap */\n      swap2\n      pop\n        /* \"contracts/yi.sol\":20730:20827  if(swapAndLiquifyByLimitOnly)... */\n    tag_295:\n        /* \"contracts/yi.sol\":20846:20882  swapAndLiquify(contractTokenBalance) */\n      tag_296\n        /* \"contracts/yi.sol\":20861:20881  contractTokenBalance */\n      dup3\n        /* \"contracts/yi.sol\":20846:20860  swapAndLiquify */\n      tag_297\n        /* \"contracts/yi.sol\":20846:20882  swapAndLiquify(contractTokenBalance) */\n      jump\t// in\n    tag_296:\n        /* \"contracts/yi.sol\":20575:20902  if (overMinimumTokenBalance && !inSwapAndLiquify && !isMarketPair[sender] && swapAndLiquifyEnabled && recipient!=owner()) ... */\n    tag_294:\n        /* \"contracts/yi.sol\":20938:20991  _balances[sender].sub(amount, \"Insufficient Balance\") */\n      tag_298\n        /* \"contracts/yi.sol\":20960:20966  amount */\n      dup5\n        /* \"contracts/yi.sol\":20938:20991  _balances[sender].sub(amount, \"Insufficient Balance\") */\n      mload(0x40)\n      dup1\n      0x40\n      add\n      0x40\n      mstore\n      dup1\n      0x14\n      dup2\n      mstore\n      0x20\n      add\n      0x496e73756666696369656e742042616c616e6365000000000000000000000000\n      dup2\n      mstore\n      pop\n        /* \"contracts/yi.sol\":20938:20947  _balances */\n      0x05\n        /* \"contracts/yi.sol\":20938:20955  _balances[sender] */\n      0x00\n        /* \"contracts/yi.sol\":20948:20954  sender */\n      dup11\n        /* \"contracts/yi.sol\":20938:20955  _balances[sender] */\n      0xffffffffffffffffffffffffffffffffffffffff\n      and\n      0xffffffffffffffffffffffffffffffffffffffff\n      and\n      dup2\n      mstore\n      0x20\n      add\n      swap1\n      dup2\n      mstore\n      0x20\n      add\n      0x00\n      keccak256\n      sload\n        /* \"contracts/yi.sol\":20938:20959  _balances[sender].sub */\n      tag_204\n      swap1\n        /* \"contracts/yi.sol\":20938:20991  _balances[sender].sub(amount, \"Insufficient Balance\") */\n      swap3\n      swap2\n      swap1\n      0xffffffff\n      and\n      jump\t// in\n    tag_298:\n        /* \"contracts/yi.sol\":20918:20927  _balances */\n      0x05\n        /* \"contracts/yi.sol\":20918:20935  _balances[sender] */\n      0x00\n        /* \"contracts/yi.sol\":20928:20934  sender */\n      dup9\n        /* \"contracts/yi.sol\":20918:20935  _balances[sender] */\n      0xffffffffffffffffffffffffffffffffffffffff\n      and\n      0xffffffffffffffffffffffffffffffffffffffff\n      and\n      dup2\n      mstore\n      0x20\n      add\n      swap1\n      dup2\n      mstore\n      0x20\n      add\n      0x00\n      keccak256\n        /* \"contracts/yi.sol\":20918:20991  _balances[sender] = _balances[sender].sub(amount, \"Insufficient Balance\") */\n      dup2\n      swap1\n      sstore\n      pop\n        /* \"contracts/yi.sol\":21008:21027  uint256 finalAmount */\n      0x00\n        /* \"contracts/yi.sol\":21031:21048  isExcludedFromFee */\n      0x07\n        /* \"contracts/yi.sol\":21031:21056  isExcludedFromFee[sender] */\n      0x00\n        /* \"contracts/yi.sol\":21049:21055  sender */\n      dup9\n        /* \"contracts/yi.sol\":21031:21056  isExcludedFromFee[sender] */\n      0xffffffffffffffffffffffffffffffffffffffff\n      and\n      0xffffffffffffffffffffffffffffffffffffffff\n      and\n      dup2\n      mstore\n      0x20\n      add\n      swap1\n      dup2\n      mstore\n      0x20\n      add\n      0x00\n      keccak256\n      0x00\n      swap1\n      sload\n      swap1\n      0x0100\n      exp\n      swap1\n      div\n      0xff\n      and\n        /* \"contracts/yi.sol\":21031:21088  isExcludedFromFee[sender] || isExcludedFromFee[recipient] */\n      dup1\n      tag_299\n      jumpi\n      pop\n        /* \"contracts/yi.sol\":21060:21077  isExcludedFromFee */\n      0x07\n        /* \"contracts/yi.sol\":21060:21088  isExcludedFromFee[recipient] */\n      0x00\n        /* \"contracts/yi.sol\":21078:21087  recipient */\n      dup8\n        /* \"contracts/yi.sol\":21060:21088  isExcludedFromFee[recipient] */\n      0xffffffffffffffffffffffffffffffffffffffff\n      and\n      0xffffffffffffffffffffffffffffffffffffffff\n      and\n      dup2\n      mstore\n      0x20\n      add\n      swap1\n      dup2\n      mstore\n      0x20\n      add\n      0x00\n      keccak256\n      0x00\n      swap1\n      sload\n      swap1\n      0x0100\n      exp\n      swap1\n      div\n      0xff\n      and\n        /* \"contracts/yi.sol\":21031:21088  isExcludedFromFee[sender] || isExcludedFromFee[recipient] */\n    tag_299:\n        /* \"contracts/yi.sol\":21030:21177  (isExcludedFromFee[sender] || isExcludedFromFee[recipient]) ? ... */\n      tag_300\n      jumpi\n        /* \"contracts/yi.sol\":21144:21177  takeFee(sender,recipient, amount) */\n      tag_301\n        /* \"contracts/yi.sol\":21152:21158  sender */\n      dup8\n        /* \"contracts/yi.sol\":21159:21168  recipient */\n      dup8\n        /* \"contracts/yi.sol\":21170:21176  amount */\n      dup8\n        /* \"contracts/yi.sol\":21144:21151  takeFee */\n      tag_302\n        /* \"contracts/yi.sol\":21144:21177  takeFee(sender,recipient, amount) */\n      jump\t// in\n    tag_301:\n        /* \"contracts/yi.sol\":21030:21177  (isExcludedFromFee[sender] || isExcludedFromFee[recipient]) ? ... */\n      jump(tag_303)\n    tag_300:\n        /* \"contracts/yi.sol\":21135:21141  amount */\n      dup5\n        /* \"contracts/yi.sol\":21030:21177  (isExcludedFromFee[sender] || isExcludedFromFee[recipient]) ? ... */\n    tag_303:\n        /* \"contracts/yi.sol\":21008:21177  uint256 finalAmount = (isExcludedFromFee[sender] || isExcludedFromFee[recipient]) ? ... */\n      swap1\n      pop\n        /* \"contracts/yi.sol\":21217:21254  _balances[recipient].add(finalAmount) */\n      tag_304\n        /* \"contracts/yi.sol\":21242:21253  finalAmount */\n      dup2\n        /* \"contracts/yi.sol\":21217:21226  _balances */\n      0x05\n        /* \"contracts/yi.sol\":21217:21237  _balances[recipient] */\n      0x00\n        /* \"contracts/yi.sol\":21227:21236  recipient */\n      dup10\n        /* \"contracts/yi.sol\":21217:21237  _balances[recipient] */\n      0xffffffffffffffffffffffffffffffffffffffff\n      and\n      0xffffffffffffffffffffffffffffffffffffffff\n      and\n      dup2\n      mstore\n      0x20\n      add\n      swap1\n      dup2\n      mstore\n      0x20\n      add\n      0x00\n      keccak256\n      sload\n        /* \"contracts/yi.sol\":21217:21241  _balances[recipient].add */\n      tag_215\n      swap1\n        /* \"contracts/yi.sol\":21217:21254  _balances[recipient].add(finalAmount) */\n      swap2\n      swap1\n      0xffffffff\n      and\n      jump\t// in\n    tag_304:\n        /* \"contracts/yi.sol\":21194:21203  _balances */\n      0x05\n        /* \"contracts/yi.sol\":21194:21214  _balances[recipient] */\n      0x00\n        /* \"contracts/yi.sol\":21204:21213  recipient */\n      dup9\n        /* \"contracts/yi.sol\":21194:21214  _balances[recipient] */\n      0xffffffffffffffffffffffffffffffffffffffff\n      and\n      0xffffffffffffffffffffffffffffffffffffffff\n      and\n      dup2\n      mstore\n      0x20\n      add\n      swap1\n      dup2\n      mstore\n      0x20\n      add\n      0x00\n      keccak256\n        /* \"contracts/yi.sol\":21194:21254  _balances[recipient] = _balances[recipient].add(finalAmount) */\n      dup2\n      swap1\n      sstore\n      pop\n        /* \"contracts/yi.sol\":21293:21302  recipient */\n      dup6\n        /* \"contracts/yi.sol\":21276:21316  Transfer(sender, recipient, finalAmount) */\n      0xffffffffffffffffffffffffffffffffffffffff\n      and\n        /* \"contracts/yi.sol\":21285:21291  sender */\n      dup8\n        /* \"contracts/yi.sol\":21276:21316  Transfer(sender, recipient, finalAmount) */\n      0xffffffffffffffffffffffffffffffffffffffff\n      and\n      0xddf252ad1be2c89b69c2b068fc378daa952ba7f163c4a11628f55a4df523b3ef\n        /* \"contracts/yi.sol\":21304:21315  finalAmount */\n      dup4\n        /* \"contracts/yi.sol\":21276:21316  Transfer(sender, recipient, finalAmount) */\n      mload(0x40)\n      tag_305\n      swap2\n      swap1\n      tag_63\n      jump\t// in\n    tag_305:\n      mload(0x40)\n      dup1\n      swap2\n      sub\n      swap1\n      log3\n        /* \"contracts/yi.sol\":21338:21342  true */\n      0x01\n        /* \"contracts/yi.sol\":21331:21342  return true */\n      swap4\n      pop\n      pop\n      pop\n      pop\n        /* \"contracts/yi.sol\":19981:21361  function _transfer(address sender, address recipient, uint256 amount) private returns (bool) {... */\n    tag_277:\n      swap4\n      swap3\n      pop\n      pop\n      pop\n      jump\t// out\n        /* \"contracts/yi.sol\":1645:1837  function sub(uint256 a, uint256 b, string memory errorMessage) internal pure returns (uint256) {... */\n    tag_204:\n        /* \"contracts/yi.sol\":1731:1738  uint256 */\n      0x00\n        /* \"contracts/yi.sol\":1764:1765  a */\n      dup4\n        /* \"contracts/yi.sol\":1759:1760  b */\n      dup4\n        /* \"contracts/yi.sol\":1759:1765  b <= a */\n      gt\n      iszero\n        /* \"contracts/yi.sol\":1767:1779  errorMessage */\n      dup3\n        /* \"contracts/yi.sol\":1751:1780  require(b <= a, errorMessage) */\n      swap1\n      tag_307\n      jumpi\n      mload(0x40)\n      0x08c379a000000000000000000000000000000000000000000000000000000000\n      dup2\n      mstore\n      0x04\n      add\n      tag_308\n      swap2\n      swap1\n      tag_46\n      jump\t// in\n    tag_308:\n      mload(0x40)\n      dup1\n      swap2\n      sub\n      swap1\n      revert\n    tag_307:\n      pop\n        /* \"contracts/yi.sol\":1791:1800  uint256 c */\n      0x00\n        /* \"contracts/yi.sol\":1807:1808  b */\n      dup4\n        /* \"contracts/yi.sol\":1803:1804  a */\n      dup6\n        /* \"contracts/yi.sol\":1803:1808  a - b */\n      tag_309\n      swap2\n      swap1\n      tag_310\n      jump\t// in\n    tag_309:\n        /* \"contracts/yi.sol\":1791:1808  uint256 c = a - b */\n      swap1\n      pop\n        /* \"contracts/yi.sol\":1828:1829  c */\n      dup1\n        /* \"contracts/yi.sol\":1821:1829  return c */\n      swap2\n      pop\n      pop\n        /* \"contracts/yi.sol\":1645:1837  function sub(uint256 a, uint256 b, string memory errorMessage) internal pure returns (uint256) {... */\n      swap4\n      swap3\n      pop\n      pop\n      pop\n      jump\t// out\n        /* \"contracts/yi.sol\":1501:1637  function sub(uint256 a, uint256 b) internal pure returns (uint256) {... */\n    tag_208:\n        /* \"contracts/yi.sol\":1559:1566  uint256 */\n      0x00\n        /* \"contracts/yi.sol\":1586:1629  sub(a, b, \"SafeMath: subtraction overflow\") */\n      tag_312\n        /* \"contracts/yi.sol\":1590:1591  a */\n      dup4\n        /* \"contracts/yi.sol\":1593:1594  b */\n      dup4\n        /* \"contracts/yi.sol\":1586:1629  sub(a, b, \"SafeMath: subtraction overflow\") */\n      mload(0x40)\n      dup1\n      0x40\n      add\n      0x40\n      mstore\n      dup1\n      0x1e\n      dup2\n      mstore\n      0x20\n      add\n      0x536166654d6174683a207375627472616374696f6e206f766572666c6f770000\n      dup2\n      mstore\n      pop\n        /* \"contracts/yi.sol\":1586:1589  sub */\n      tag_204\n        /* \"contracts/yi.sol\":1586:1629  sub(a, b, \"SafeMath: subtraction overflow\") */\n      jump\t// in\n    tag_312:\n        /* \"contracts/yi.sol\":1579:1629  return sub(a, b, \"SafeMath: subtraction overflow\") */\n      swap1\n      pop\n        /* \"contracts/yi.sol\":1501:1637  function sub(uint256 a, uint256 b) internal pure returns (uint256) {... */\n      swap3\n      swap2\n      pop\n      pop\n      jump\t// out\n        /* \"contracts/yi.sol\":1312:1493  function add(uint256 a, uint256 b) internal pure returns (uint256) {... */\n    tag_215:\n        /* \"contracts/yi.sol\":1370:1377  uint256 */\n      0x00\n        /* \"contracts/yi.sol\":1390:1399  uint256 c */\n      dup1\n        /* \"contracts/yi.sol\":1406:1407  b */\n      dup3\n        /* \"contracts/yi.sol\":1402:1403  a */\n      dup5\n        /* \"contracts/yi.sol\":1402:1407  a + b */\n      tag_314\n      swap2\n      swap1\n      tag_315\n      jump\t// in\n    tag_314:\n        /* \"contracts/yi.sol\":1390:1407  uint256 c = a + b */\n      swap1\n      pop\n        /* \"contracts/yi.sol\":1431:1432  a */\n      dup4\n        /* \"contracts/yi.sol\":1426:1427  c */\n      dup2\n        /* \"contracts/yi.sol\":1426:1432  c >= a */\n      lt\n      iszero\n        /* \"contracts/yi.sol\":1418:1464  require(c >= a, \"SafeMath: addition overflow\") */\n      tag_316\n      jumpi\n      mload(0x40)\n      0x08c379a000000000000000000000000000000000000000000000000000000000\n      dup2\n      mstore\n      0x04\n      add\n      tag_317\n      swap1\n      tag_318\n      jump\t// in\n    tag_317:\n      mload(0x40)\n      dup1\n      swap2\n      sub\n      swap1\n      revert\n    tag_316:\n        /* \"contracts/yi.sol\":1484:1485  c */\n      dup1\n        /* \"contracts/yi.sol\":1477:1485  return c */\n      swap2\n      pop\n      pop\n        /* \"contracts/yi.sol\":1312:1493  function add(uint256 a, uint256 b) internal pure returns (uint256) {... */\n      swap3\n      swap2\n      pop\n      pop\n      jump\t// out\n        /* \"contracts/yi.sol\":21369:21699  function _basicTransfer(address sender, address recipient, uint256 amount) internal returns (bool) {... */\n    tag_286:\n        /* \"contracts/yi.sol\":21462:21466  bool */\n      0x00\n        /* \"contracts/yi.sol\":21499:21552  _balances[sender].sub(amount, \"Insufficient Balance\") */\n      tag_320\n        /* \"contracts/yi.sol\":21521:21527  amount */\n      dup3\n        /* \"contracts/yi.sol\":21499:21552  _balances[sender].sub(amount, \"Insufficient Balance\") */\n      mload(0x40)\n      dup1\n      0x40\n      add\n      0x40\n      mstore\n      dup1\n      0x14\n      dup2\n      mstore\n      0x20\n      add\n      0x496e73756666696369656e742042616c616e6365000000000000000000000000\n      dup2\n      mstore\n      pop\n        /* \"contracts/yi.sol\":21499:21508  _balances */\n      0x05\n        /* \"contracts/yi.sol\":21499:21516  _balances[sender] */\n      0x00\n        /* \"contracts/yi.sol\":21509:21515  sender */\n      dup9\n        /* \"contracts/yi.sol\":21499:21516  _balances[sender] */\n      0xffffffffffffffffffffffffffffffffffffffff\n      and\n      0xffffffffffffffffffffffffffffffffffffffff\n      and\n      dup2\n      mstore\n      0x20\n      add\n      swap1\n      dup2\n      mstore\n      0x20\n      add\n      0x00\n      keccak256\n      sload\n        /* \"contracts/yi.sol\":21499:21520  _balances[sender].sub */\n      tag_204\n      swap1\n        /* \"contracts/yi.sol\":21499:21552  _balances[sender].sub(amount, \"Insufficient Balance\") */\n      swap3\n      swap2\n      swap1\n      0xffffffff\n      and\n      jump\t// in\n    tag_320:\n        /* \"contracts/yi.sol\":21479:21488  _balances */\n      0x05\n        /* \"contracts/yi.sol\":21479:21496  _balances[sender] */\n      0x00\n        /* \"contracts/yi.sol\":21489:21495  sender */\n      dup7\n        /* \"contracts/yi.sol\":21479:21496  _balances[sender] */\n      0xffffffffffffffffffffffffffffffffffffffff\n      and\n      0xffffffffffffffffffffffffffffffffffffffff\n      and\n      dup2\n      mstore\n      0x20\n      add\n      swap1\n      dup2\n      mstore\n      0x20\n      add\n      0x00\n      keccak256\n        /* \"contracts/yi.sol\":21479:21552  _balances[sender] = _balances[sender].sub(amount, \"Insufficient Balance\") */\n      dup2\n      swap1\n      sstore\n      pop\n        /* \"contracts/yi.sol\":21586:21618  _balances[recipient].add(amount) */\n      tag_321\n        /* \"contracts/yi.sol\":21611:21617  amount */\n      dup3\n        /* \"contracts/yi.sol\":21586:21595  _balances */\n      0x05\n        /* \"contracts/yi.sol\":21586:21606  _balances[recipient] */\n      0x00\n        /* \"contracts/yi.sol\":21596:21605  recipient */\n      dup7\n        /* \"contracts/yi.sol\":21586:21606  _balances[recipient] */\n      0xffffffffffffffffffffffffffffffffffffffff\n      and\n      0xffffffffffffffffffffffffffffffffffffffff\n      and\n      dup2\n      mstore\n      0x20\n      add\n      swap1\n      dup2\n      mstore\n      0x20\n      add\n      0x00\n      keccak256\n      sload\n        /* \"contracts/yi.sol\":21586:21610  _balances[recipient].add */\n      tag_215\n      swap1\n        /* \"contracts/yi.sol\":21586:21618  _balances[recipient].add(amount) */\n      swap2\n      swap1\n      0xffffffff\n      and\n      jump\t// in\n    tag_321:\n        /* \"contracts/yi.sol\":21563:21572  _balances */\n      0x05\n        /* \"contracts/yi.sol\":21563:21583  _balances[recipient] */\n      0x00\n        /* \"contracts/yi.sol\":21573:21582  recipient */\n      dup6\n        /* \"contracts/yi.sol\":21563:21583  _balances[recipient] */\n      0xffffffffffffffffffffffffffffffffffffffff\n      and\n      0xffffffffffffffffffffffffffffffffffffffff\n      and\n      dup2\n      mstore\n      0x20\n      add\n      swap1\n      dup2\n      mstore\n      0x20\n      add\n      0x00\n      keccak256\n        /* \"contracts/yi.sol\":21563:21618  _balances[recipient] = _balances[recipient].add(amount) */\n      dup2\n      swap1\n      sstore\n      pop\n        /* \"contracts/yi.sol\":21651:21660  recipient */\n      dup3\n        /* \"contracts/yi.sol\":21634:21669  Transfer(sender, recipient, amount) */\n      0xffffffffffffffffffffffffffffffffffffffff\n      and\n        /* \"contracts/yi.sol\":21643:21649  sender */\n      dup5\n        /* \"contracts/yi.sol\":21634:21669  Transfer(sender, recipient, amount) */\n      0xffffffffffffffffffffffffffffffffffffffff\n      and\n      0xddf252ad1be2c89b69c2b068fc378daa952ba7f163c4a11628f55a4df523b3ef\n        /* \"contracts/yi.sol\":21662:21668  amount */\n      dup5\n        /* \"contracts/yi.sol\":21634:21669  Transfer(sender, recipient, amount) */\n      mload(0x40)\n      tag_322\n      swap2\n      swap1\n      tag_63\n      jump\t// in\n    tag_322:\n      mload(0x40)\n      dup1\n      swap2\n      sub\n      swap1\n      log3\n        /* \"contracts/yi.sol\":21687:21691  true */\n      0x01\n        /* \"contracts/yi.sol\":21680:21691  return true */\n      swap1\n      pop\n        /* \"contracts/yi.sol\":21369:21699  function _basicTransfer(address sender, address recipient, uint256 amount) internal returns (bool) {... */\n      swap4\n      swap3\n      pop\n      pop\n      pop\n      jump\t// out\n        /* \"contracts/yi.sol\":21707:21987  function swapAndLiquify(uint256 tAmount) private lockTheSwap {... */\n    tag_297:\n        /* \"contracts/yi.sol\":15878:15882  true */\n      0x01\n        /* \"contracts/yi.sol\":15859:15875  inSwapAndLiquify */\n      0x0e\n      0x14\n        /* \"contracts/yi.sol\":15859:15882  inSwapAndLiquify = true */\n      0x0100\n      exp\n      dup2\n      sload\n      dup2\n      0xff\n      mul\n      not\n      and\n      swap1\n      dup4\n      iszero\n      iszero\n      mul\n      or\n      swap1\n      sstore\n      pop\n        /* \"contracts/yi.sol\":21789:21814  swapTokensForBNB(tAmount) */\n      tag_325\n        /* \"contracts/yi.sol\":21806:21813  tAmount */\n      dup2\n        /* \"contracts/yi.sol\":21789:21805  swapTokensForBNB */\n      tag_326\n        /* \"contracts/yi.sol\":21789:21814  swapTokensForBNB(tAmount) */\n      jump\t// in\n    tag_325:\n        /* \"contracts/yi.sol\":21825:21843  uint256 BNBBalance */\n      0x00\n        /* \"contracts/yi.sol\":21846:21867  address(this).balance */\n      selfbalance\n        /* \"contracts/yi.sol\":21825:21867  uint256 BNBBalance = address(this).balance */\n      swap1\n      pop\n        /* \"contracts/yi.sol\":21904:21905  0 */\n      0x00\n        /* \"contracts/yi.sol\":21891:21901  BNBBalance */\n      dup2\n        /* \"contracts/yi.sol\":21891:21905  BNBBalance > 0 */\n      gt\n        /* \"contracts/yi.sol\":21888:21969  if(BNBBalance > 0)... */\n      iszero\n      tag_327\n      jumpi\n        /* \"contracts/yi.sol\":21920:21969  transferToAddressETH(marketingWallet, BNBBalance) */\n      tag_328\n        /* \"contracts/yi.sol\":21941:21956  marketingWallet */\n      0x03\n      0x01\n      swap1\n      sload\n      swap1\n      0x0100\n      exp\n      swap1\n      div\n      0xffffffffffffffffffffffffffffffffffffffff\n      and\n        /* \"contracts/yi.sol\":21958:21968  BNBBalance */\n      dup3\n        /* \"contracts/yi.sol\":21920:21940  transferToAddressETH */\n      tag_329\n        /* \"contracts/yi.sol\":21920:21969  transferToAddressETH(marketingWallet, BNBBalance) */\n      jump\t// in\n    tag_328:\n        /* \"contracts/yi.sol\":21888:21969  if(BNBBalance > 0)... */\n    tag_327:\n        /* \"contracts/yi.sol\":21768:21987  {... */\n      pop\n        /* \"contracts/yi.sol\":15924:15929  false */\n      0x00\n        /* \"contracts/yi.sol\":15905:15921  inSwapAndLiquify */\n      0x0e\n      0x14\n        /* \"contracts/yi.sol\":15905:15929  inSwapAndLiquify = false */\n      0x0100\n      exp\n      dup2\n      sload\n      dup2\n      0xff\n      mul\n      not\n      and\n      swap1\n      dup4\n      iszero\n      iszero\n      mul\n      or\n      swap1\n      sstore\n      pop\n        /* \"contracts/yi.sol\":21707:21987  function swapAndLiquify(uint256 tAmount) private lockTheSwap {... */\n      pop\n      jump\t// out\n        /* \"contracts/yi.sol\":22592:23106  function takeFee(address sender,address recipient,uint256 amount) internal returns (uint256) {... */\n    tag_302:\n        /* \"contracts/yi.sol\":22676:22683  uint256 */\n      0x00\n        /* \"contracts/yi.sol\":22696:22713  uint256 feeAmount */\n      dup1\n        /* \"contracts/yi.sol\":22716:22717  0 */\n      0x00\n        /* \"contracts/yi.sol\":22696:22717  uint256 feeAmount = 0 */\n      swap1\n      pop\n        /* \"contracts/yi.sol\":22744:22756  isMarketPair */\n      0x08\n        /* \"contracts/yi.sol\":22744:22764  isMarketPair[sender] */\n      0x00\n        /* \"contracts/yi.sol\":22757:22763  sender */\n      dup7\n        /* \"contracts/yi.sol\":22744:22764  isMarketPair[sender] */\n      0xffffffffffffffffffffffffffffffffffffffff\n      and\n      0xffffffffffffffffffffffffffffffffffffffff\n      and\n      dup2\n      mstore\n      0x20\n      add\n      swap1\n      dup2\n      mstore\n      0x20\n      add\n      0x00\n      keccak256\n      0x00\n      swap1\n      sload\n      swap1\n      0x0100\n      exp\n      swap1\n      div\n      0xff\n      and\n        /* \"contracts/yi.sol\":22744:22789  isMarketPair[sender]||isMarketPair[recipient] */\n      dup1\n      tag_331\n      jumpi\n      pop\n        /* \"contracts/yi.sol\":22766:22778  isMarketPair */\n      0x08\n        /* \"contracts/yi.sol\":22766:22789  isMarketPair[recipient] */\n      0x00\n        /* \"contracts/yi.sol\":22779:22788  recipient */\n      dup6\n        /* \"contracts/yi.sol\":22766:22789  isMarketPair[recipient] */\n      0xffffffffffffffffffffffffffffffffffffffff\n      and\n      0xffffffffffffffffffffffffffffffffffffffff\n      and\n      dup2\n      mstore\n      0x20\n      add\n      swap1\n      dup2\n      mstore\n      0x20\n      add\n      0x00\n      keccak256\n      0x00\n      swap1\n      sload\n      swap1\n      0x0100\n      exp\n      swap1\n      div\n      0xff\n      and\n        /* \"contracts/yi.sol\":22744:22789  isMarketPair[sender]||isMarketPair[recipient] */\n    tag_331:\n        /* \"contracts/yi.sol\":22741:22860  if(isMarketPair[sender]||isMarketPair[recipient]) {... */\n      iszero\n      tag_332\n      jumpi\n        /* \"contracts/yi.sol\":22818:22848  amount.mul(_totalTax).div(100) */\n      tag_333\n        /* \"contracts/yi.sol\":22844:22847  100 */\n      0x64\n        /* \"contracts/yi.sol\":22818:22839  amount.mul(_totalTax) */\n      tag_334\n        /* \"contracts/yi.sol\":22829:22838  _totalTax */\n      sload(0x0a)\n        /* \"contracts/yi.sol\":22818:22824  amount */\n      dup7\n        /* \"contracts/yi.sol\":22818:22828  amount.mul */\n      tag_335\n      swap1\n        /* \"contracts/yi.sol\":22818:22839  amount.mul(_totalTax) */\n      swap2\n      swap1\n      0xffffffff\n      and\n      jump\t// in\n    tag_334:\n        /* \"contracts/yi.sol\":22818:22843  amount.mul(_totalTax).div */\n      tag_336\n      swap1\n        /* \"contracts/yi.sol\":22818:22848  amount.mul(_totalTax).div(100) */\n      swap2\n      swap1\n      0xffffffff\n      and\n      jump\t// in\n    tag_333:\n        /* \"contracts/yi.sol\":22806:22848  feeAmount = amount.mul(_totalTax).div(100) */\n      swap1\n      pop\n        /* \"contracts/yi.sol\":22741:22860  if(isMarketPair[sender]||isMarketPair[recipient]) {... */\n    tag_332:\n        /* \"contracts/yi.sol\":22895:22896  0 */\n      0x00\n        /* \"contracts/yi.sol\":22883:22892  feeAmount */\n      dup2\n        /* \"contracts/yi.sol\":22883:22896  feeAmount > 0 */\n      gt\n        /* \"contracts/yi.sol\":22880:23053  if(feeAmount > 0) {... */\n      iszero\n      tag_337\n      jumpi\n        /* \"contracts/yi.sol\":22940:22979  _balances[address(this)].add(feeAmount) */\n      tag_338\n        /* \"contracts/yi.sol\":22969:22978  feeAmount */\n      dup2\n        /* \"contracts/yi.sol\":22940:22949  _balances */\n      0x05\n        /* \"contracts/yi.sol\":22940:22964  _balances[address(this)] */\n      0x00\n        /* \"contracts/yi.sol\":22958:22962  this */\n      address\n        /* \"contracts/yi.sol\":22940:22964  _balances[address(this)] */\n      0xffffffffffffffffffffffffffffffffffffffff\n      and\n      0xffffffffffffffffffffffffffffffffffffffff\n      and\n      dup2\n      mstore\n      0x20\n      add\n      swap1\n      dup2\n      mstore\n      0x20\n      add\n      0x00\n      keccak256\n      sload\n        /* \"contracts/yi.sol\":22940:22968  _balances[address(this)].add */\n      tag_215\n      swap1\n        /* \"contracts/yi.sol\":22940:22979  _balances[address(this)].add(feeAmount) */\n      swap2\n      swap1\n      0xffffffff\n      and\n      jump\t// in\n    tag_338:\n        /* \"contracts/yi.sol\":22913:22922  _balances */\n      0x05\n        /* \"contracts/yi.sol\":22913:22937  _balances[address(this)] */\n      0x00\n        /* \"contracts/yi.sol\":22931:22935  this */\n      address\n        /* \"contracts/yi.sol\":22913:22937  _balances[address(this)] */\n      0xffffffffffffffffffffffffffffffffffffffff\n      and\n      0xffffffffffffffffffffffffffffffffffffffff\n      and\n      dup2\n      mstore\n      0x20\n      add\n      swap1\n      dup2\n      mstore\n      0x20\n      add\n      0x00\n      keccak256\n        /* \"contracts/yi.sol\":22913:22979  _balances[address(this)] = _balances[address(this)].add(feeAmount) */\n      dup2\n      swap1\n      sstore\n      pop\n        /* \"contracts/yi.sol\":23024:23028  this */\n      address\n        /* \"contracts/yi.sol\":22999:23041  Transfer(sender, address(this), feeAmount) */\n      0xffffffffffffffffffffffffffffffffffffffff\n      and\n        /* \"contracts/yi.sol\":23008:23014  sender */\n      dup6\n        /* \"contracts/yi.sol\":22999:23041  Transfer(sender, address(this), feeAmount) */\n      0xffffffffffffffffffffffffffffffffffffffff\n      and\n      0xddf252ad1be2c89b69c2b068fc378daa952ba7f163c4a11628f55a4df523b3ef\n        /* \"contracts/yi.sol\":23031:23040  feeAmount */\n      dup4\n        /* \"contracts/yi.sol\":22999:23041  Transfer(sender, address(this), feeAmount) */\n      mload(0x40)\n      tag_339\n      swap2\n      swap1\n      tag_63\n      jump\t// in\n    tag_339:\n      mload(0x40)\n      dup1\n      swap2\n      sub\n      swap1\n      log3\n        /* \"contracts/yi.sol\":22880:23053  if(feeAmount > 0) {... */\n    tag_337:\n        /* \"contracts/yi.sol\":23077:23098  amount.sub(feeAmount) */\n      tag_340\n        /* \"contracts/yi.sol\":23088:23097  feeAmount */\n      dup2\n        /* \"contracts/yi.sol\":23077:23083  amount */\n      dup5\n        /* \"contracts/yi.sol\":23077:23087  amount.sub */\n      tag_208\n      swap1\n        /* \"contracts/yi.sol\":23077:23098  amount.sub(feeAmount) */\n      swap2\n      swap1\n      0xffffffff\n      and\n      jump\t// in\n    tag_340:\n        /* \"contracts/yi.sol\":23070:23098  return amount.sub(feeAmount) */\n      swap2\n      pop\n      pop\n        /* \"contracts/yi.sol\":22592:23106  function takeFee(address sender,address recipient,uint256 amount) internal returns (uint256) {... */\n      swap4\n      swap3\n      pop\n      pop\n      pop\n      jump\t// out\n        /* \"contracts/yi.sol\":21995:22584  function swapTokensForBNB(uint256 tokenAmount) private {... */\n    tag_326:\n        /* \"contracts/yi.sol\":22121:22142  address[] memory path */\n      0x00\n        /* \"contracts/yi.sol\":22159:22160  2 */\n      0x02\n        /* \"contracts/yi.sol\":22145:22161  new address[](2) */\n      0xffffffffffffffff\n      dup2\n      gt\n      iszero\n      tag_342\n      jumpi\n      tag_343\n      tag_344\n      jump\t// in\n    tag_343:\n    tag_342:\n      mload(0x40)\n      swap1\n      dup1\n      dup3\n      mstore\n      dup1\n      0x20\n      mul\n      0x20\n      add\n      dup3\n      add\n      0x40\n      mstore\n      dup1\n      iszero\n      tag_345\n      jumpi\n      dup2\n      0x20\n      add\n      0x20\n      dup3\n      mul\n      dup1\n      calldatasize\n      dup4\n      calldatacopy\n      dup1\n      dup3\n      add\n      swap2\n      pop\n      pop\n      swap1\n      pop\n    tag_345:\n      pop\n        /* \"contracts/yi.sol\":22121:22161  address[] memory path = new address[](2) */\n      swap1\n      pop\n        /* \"contracts/yi.sol\":22190:22194  this */\n      address\n        /* \"contracts/yi.sol\":22172:22176  path */\n      dup2\n        /* \"contracts/yi.sol\":22177:22178  0 */\n      0x00\n        /* \"contracts/yi.sol\":22172:22179  path[0] */\n      dup2\n      mload\n      dup2\n      lt\n      tag_346\n      jumpi\n      tag_347\n      tag_348\n      jump\t// in\n    tag_347:\n    tag_346:\n      0x20\n      mul\n      0x20\n      add\n      add\n        /* \"contracts/yi.sol\":22172:22195  path[0] = address(this) */\n      swap1\n      0xffffffffffffffffffffffffffffffffffffffff\n      and\n      swap1\n      dup2\n      0xffffffffffffffffffffffffffffffffffffffff\n      and\n      dup2\n      mstore\n      pop\n      pop\n        /* \"contracts/yi.sol\":22216:22231  uniswapV2Router */\n      0x0d\n      0x00\n      swap1\n      sload\n      swap1\n      0x0100\n      exp\n      swap1\n      div\n      0xffffffffffffffffffffffffffffffffffffffff\n      and\n        /* \"contracts/yi.sol\":22216:22236  uniswapV2Router.WETH */\n      0xffffffffffffffffffffffffffffffffffffffff\n      and\n      0xad5c4648\n        /* \"contracts/yi.sol\":22216:22238  uniswapV2Router.WETH() */\n      mload(0x40)\n      dup2\n      0xffffffff\n      and\n      0xe0\n      shl\n      dup2\n      mstore\n      0x04\n      add\n      0x20\n      mload(0x40)\n      dup1\n      dup4\n      sub\n      dup2\n      dup7\n      gas\n      staticcall\n      iszero\n      dup1\n      iszero\n      tag_350\n      jumpi\n      returndatasize\n      0x00\n      dup1\n      returndatacopy\n      revert(0x00, returndatasize)\n    tag_350:\n      pop\n      pop\n      pop\n      pop\n      mload(0x40)\n      returndatasize\n      not(0x1f)\n      0x1f\n      dup3\n      add\n      and\n      dup3\n      add\n      dup1\n      0x40\n      mstore\n      pop\n      dup2\n      add\n      swap1\n      tag_351\n      swap2\n      swap1\n      tag_352\n      jump\t// in\n    tag_351:\n        /* \"contracts/yi.sol\":22206:22210  path */\n      dup2\n        /* \"contracts/yi.sol\":22211:22212  1 */\n      0x01\n        /* \"contracts/yi.sol\":22206:22213  path[1] */\n      dup2\n      mload\n      dup2\n      lt\n      tag_353\n      jumpi\n      tag_354\n      tag_348\n      jump\t// in\n    tag_354:\n    tag_353:\n      0x20\n      mul\n      0x20\n      add\n      add\n        /* \"contracts/yi.sol\":22206:22238  path[1] = uniswapV2Router.WETH() */\n      swap1\n      0xffffffffffffffffffffffffffffffffffffffff\n      and\n      swap1\n      dup2\n      0xffffffffffffffffffffffffffffffffffffffff\n      and\n      dup2\n      mstore\n      pop\n      pop\n        /* \"contracts/yi.sol\":22251:22313  _approve(address(this), address(uniswapV2Router), tokenAmount) */\n      tag_355\n        /* \"contracts/yi.sol\":22268:22272  this */\n      address\n        /* \"contracts/yi.sol\":22283:22298  uniswapV2Router */\n      0x0d\n      0x00\n      swap1\n      sload\n      swap1\n      0x0100\n      exp\n      swap1\n      div\n      0xffffffffffffffffffffffffffffffffffffffff\n      and\n        /* \"contracts/yi.sol\":22301:22312  tokenAmount */\n      dup5\n        /* \"contracts/yi.sol\":22251:22259  _approve */\n      tag_195\n        /* \"contracts/yi.sol\":22251:22313  _approve(address(this), address(uniswapV2Router), tokenAmount) */\n      jump\t// in\n    tag_355:\n        /* \"contracts/yi.sol\":22352:22367  uniswapV2Router */\n      0x0d\n      0x00\n      swap1\n      sload\n      swap1\n      0x0100\n      exp\n      swap1\n      div\n      0xffffffffffffffffffffffffffffffffffffffff\n      and\n        /* \"contracts/yi.sol\":22352:22418  uniswapV2Router.swapExactTokensForETHSupportingFeeOnTransferTokens */\n      0xffffffffffffffffffffffffffffffffffffffff\n      and\n      0x791ac947\n        /* \"contracts/yi.sol\":22433:22444  tokenAmount */\n      dup4\n        /* \"contracts/yi.sol\":22459:22460  0 */\n      0x00\n        /* \"contracts/yi.sol\":22503:22507  path */\n      dup5\n        /* \"contracts/yi.sol\":22530:22534  this */\n      address\n        /* \"contracts/yi.sol\":22550:22565  block.timestamp */\n      timestamp\n        /* \"contracts/yi.sol\":22352:22576  uniswapV2Router.swapExactTokensForETHSupportingFeeOnTransferTokens(... */\n      mload(0x40)\n      dup7\n      0xffffffff\n      and\n      0xe0\n      shl\n      dup2\n      mstore\n      0x04\n      add\n      tag_356\n      swap6\n      swap5\n      swap4\n      swap3\n      swap2\n      swap1\n      tag_357\n      jump\t// in\n    tag_356:\n      0x00\n      mload(0x40)\n      dup1\n      dup4\n      sub\n      dup2\n      0x00\n      dup8\n      dup1\n      extcodesize\n      iszero\n      dup1\n      iszero\n      tag_358\n      jumpi\n      0x00\n      dup1\n      revert\n    tag_358:\n      pop\n      gas\n      call\n      iszero\n      dup1\n      iszero\n      tag_360\n      jumpi\n      returndatasize\n      0x00\n      dup1\n      returndatacopy\n      revert(0x00, returndatasize)\n    tag_360:\n      pop\n      pop\n      pop\n      pop\n        /* \"contracts/yi.sol\":22050:22584  {... */\n      pop\n        /* \"contracts/yi.sol\":21995:22584  function swapTokensForBNB(uint256 tokenAmount) private {... */\n      pop\n      jump\t// out\n        /* \"contracts/yi.sol\":19254:19380  function transferToAddressETH(address payable recipient, uint256 amount) private {... */\n    tag_329:\n        /* \"contracts/yi.sol\":19346:19355  recipient */\n      dup2\n        /* \"contracts/yi.sol\":19346:19364  recipient.transfer */\n      0xffffffffffffffffffffffffffffffffffffffff\n      and\n        /* \"contracts/yi.sol\":19346:19372  recipient.transfer(amount) */\n      0x08fc\n        /* \"contracts/yi.sol\":19365:19371  amount */\n      dup3\n        /* \"contracts/yi.sol\":19346:19372  recipient.transfer(amount) */\n      swap1\n      dup2\n      iszero\n      mul\n      swap1\n      mload(0x40)\n      0x00\n      mload(0x40)\n      dup1\n      dup4\n      sub\n      dup2\n      dup6\n      dup9\n      dup9\n      call\n      swap4\n      pop\n      pop\n      pop\n      pop\n      iszero\n      dup1\n      iszero\n      tag_363\n      jumpi\n      returndatasize\n      0x00\n      dup1\n      returndatacopy\n      revert(0x00, returndatasize)\n    tag_363:\n      pop\n        /* \"contracts/yi.sol\":19254:19380  function transferToAddressETH(address payable recipient, uint256 amount) private {... */\n      pop\n      pop\n      jump\t// out\n        /* \"contracts/yi.sol\":1845:2095  function mul(uint256 a, uint256 b) internal pure returns (uint256) {... */\n    tag_335:\n        /* \"contracts/yi.sol\":1903:1910  uint256 */\n      0x00\n        /* \"contracts/yi.sol\":1932:1933  0 */\n      dup1\n        /* \"contracts/yi.sol\":1927:1928  a */\n      dup4\n        /* \"contracts/yi.sol\":1927:1933  a == 0 */\n      sub\n        /* \"contracts/yi.sol\":1923:1970  if (a == 0) {... */\n      tag_365\n      jumpi\n        /* \"contracts/yi.sol\":1957:1958  0 */\n      0x00\n        /* \"contracts/yi.sol\":1950:1958  return 0 */\n      swap1\n      pop\n      jump(tag_364)\n        /* \"contracts/yi.sol\":1923:1970  if (a == 0) {... */\n    tag_365:\n        /* \"contracts/yi.sol\":1982:1991  uint256 c */\n      0x00\n        /* \"contracts/yi.sol\":1998:1999  b */\n      dup3\n        /* \"contracts/yi.sol\":1994:1995  a */\n      dup5\n        /* \"contracts/yi.sol\":1994:1999  a * b */\n      tag_366\n      swap2\n      swap1\n      tag_367\n      jump\t// in\n    tag_366:\n        /* \"contracts/yi.sol\":1982:1999  uint256 c = a * b */\n      swap1\n      pop\n        /* \"contracts/yi.sol\":2027:2028  b */\n      dup3\n        /* \"contracts/yi.sol\":2022:2023  a */\n      dup5\n        /* \"contracts/yi.sol\":2018:2019  c */\n      dup3\n        /* \"contracts/yi.sol\":2018:2023  c / a */\n      tag_368\n      swap2\n      swap1\n      tag_369\n      jump\t// in\n    tag_368:\n        /* \"contracts/yi.sol\":2018:2028  c / a == b */\n      eq\n        /* \"contracts/yi.sol\":2010:2066  require(c / a == b, \"SafeMath: multiplication overflow\") */\n      tag_370\n      jumpi\n      mload(0x40)\n      0x08c379a000000000000000000000000000000000000000000000000000000000\n      dup2\n      mstore\n      0x04\n      add\n      tag_371\n      swap1\n      tag_372\n      jump\t// in\n    tag_371:\n      mload(0x40)\n      dup1\n      swap2\n      sub\n      swap1\n      revert\n    tag_370:\n        /* \"contracts/yi.sol\":2086:2087  c */\n      dup1\n        /* \"contracts/yi.sol\":2079:2087  return c */\n      swap2\n      pop\n      pop\n        /* \"contracts/yi.sol\":1845:2095  function mul(uint256 a, uint256 b) internal pure returns (uint256) {... */\n    tag_364:\n      swap3\n      swap2\n      pop\n      pop\n      jump\t// out\n        /* \"contracts/yi.sol\":2103:2235  function div(uint256 a, uint256 b) internal pure returns (uint256) {... */\n    tag_336:\n        /* \"contracts/yi.sol\":2161:2168  uint256 */\n      0x00\n        /* \"contracts/yi.sol\":2188:2227  div(a, b, \"SafeMath: division by zero\") */\n      tag_374\n        /* \"contracts/yi.sol\":2192:2193  a */\n      dup4\n        /* \"contracts/yi.sol\":2195:2196  b */\n      dup4\n        /* \"contracts/yi.sol\":2188:2227  div(a, b, \"SafeMath: division by zero\") */\n      mload(0x40)\n      dup1\n      0x40\n      add\n      0x40\n      mstore\n      dup1\n      0x1a\n      dup2\n      mstore\n      0x20\n      add\n      0x536166654d6174683a206469766973696f6e206279207a65726f000000000000\n      dup2\n      mstore\n      pop\n        /* \"contracts/yi.sol\":2188:2191  div */\n      tag_375\n        /* \"contracts/yi.sol\":2188:2227  div(a, b, \"SafeMath: division by zero\") */\n      jump\t// in\n    tag_374:\n        /* \"contracts/yi.sol\":2181:2227  return div(a, b, \"SafeMath: division by zero\") */\n      swap1\n      pop\n        /* \"contracts/yi.sol\":2103:2235  function div(uint256 a, uint256 b) internal pure returns (uint256) {... */\n      swap3\n      swap2\n      pop\n      pop\n      jump\t// out\n        /* \"contracts/yi.sol\":2243:2521  function div(uint256 a, uint256 b, string memory errorMessage) internal pure returns (uint256) {... */\n    tag_375:\n        /* \"contracts/yi.sol\":2329:2336  uint256 */\n      0x00\n        /* \"contracts/yi.sol\":2361:2362  0 */\n      dup1\n        /* \"contracts/yi.sol\":2357:2358  b */\n      dup4\n        /* \"contracts/yi.sol\":2357:2362  b > 0 */\n      gt\n        /* \"contracts/yi.sol\":2364:2376  errorMessage */\n      dup3\n        /* \"contracts/yi.sol\":2349:2377  require(b > 0, errorMessage) */\n      swap1\n      tag_377\n      jumpi\n      mload(0x40)\n      0x08c379a000000000000000000000000000000000000000000000000000000000\n      dup2\n      mstore\n      0x04\n      add\n      tag_378\n      swap2\n      swap1\n      tag_46\n      jump\t// in\n    tag_378:\n      mload(0x40)\n      dup1\n      swap2\n      sub\n      swap1\n      revert\n    tag_377:\n      pop\n        /* \"contracts/yi.sol\":2388:2397  uint256 c */\n      0x00\n        /* \"contracts/yi.sol\":2404:2405  b */\n      dup4\n        /* \"contracts/yi.sol\":2400:2401  a */\n      dup6\n        /* \"contracts/yi.sol\":2400:2405  a / b */\n      tag_379\n      swap2\n      swap1\n      tag_369\n      jump\t// in\n    tag_379:\n        /* \"contracts/yi.sol\":2388:2405  uint256 c = a / b */\n      swap1\n      pop\n        /* \"contracts/yi.sol\":2512:2513  c */\n      dup1\n        /* \"contracts/yi.sol\":2505:2513  return c */\n      swap2\n      pop\n      pop\n        /* \"contracts/yi.sol\":2243:2521  function div(uint256 a, uint256 b, string memory errorMessage) internal pure returns (uint256) {... */\n      swap4\n      swap3\n      pop\n      pop\n      pop\n      jump\t// out\n        /* \"#utility.yul\":7:106   */\n    tag_380:\n        /* \"#utility.yul\":59:65   */\n      0x00\n        /* \"#utility.yul\":93:98   */\n      dup2\n        /* \"#utility.yul\":87:99   */\n      mload\n        /* \"#utility.yul\":77:99   */\n      swap1\n      pop\n        /* \"#utility.yul\":7:106   */\n      swap2\n      swap1\n      pop\n      jump\t// out\n        /* \"#utility.yul\":112:281   */\n    tag_381:\n        /* \"#utility.yul\":196:207   */\n      0x00\n        /* \"#utility.yul\":230:236   */\n      dup3\n        /* \"#utility.yul\":225:228   */\n      dup3\n        /* \"#utility.yul\":218:237   */\n      mstore\n        /* \"#utility.yul\":270:274   */\n      0x20\n        /* \"#utility.yul\":265:268   */\n      dup3\n        /* \"#utility.yul\":261:275   */\n      add\n        /* \"#utility.yul\":246:275   */\n      swap1\n      pop\n        /* \"#utility.yul\":112:281   */\n      swap3\n      swap2\n      pop\n      pop\n      jump\t// out\n        /* \"#utility.yul\":287:533   */\n    tag_382:\n        /* \"#utility.yul\":368:369   */\n      0x00\n        /* \"#utility.yul\":378:491   */\n    tag_446:\n        /* \"#utility.yul\":392:398   */\n      dup4\n        /* \"#utility.yul\":389:390   */\n      dup2\n        /* \"#utility.yul\":386:399   */\n      lt\n        /* \"#utility.yul\":378:491   */\n      iszero\n      tag_448\n      jumpi\n        /* \"#utility.yul\":477:478   */\n      dup1\n        /* \"#utility.yul\":472:475   */\n      dup3\n        /* \"#utility.yul\":468:479   */\n      add\n        /* \"#utility.yul\":462:480   */\n      mload\n        /* \"#utility.yul\":458:459   */\n      dup2\n        /* \"#utility.yul\":453:456   */\n      dup5\n        /* \"#utility.yul\":449:460   */\n      add\n        /* \"#utility.yul\":442:481   */\n      mstore\n        /* \"#utility.yul\":414:416   */\n      0x20\n        /* \"#utility.yul\":411:412   */\n      dup2\n        /* \"#utility.yul\":407:417   */\n      add\n        /* \"#utility.yul\":402:417   */\n      swap1\n      pop\n        /* \"#utility.yul\":378:491   */\n      jump(tag_446)\n    tag_448:\n        /* \"#utility.yul\":525:526   */\n      0x00\n        /* \"#utility.yul\":516:522   */\n      dup5\n        /* \"#utility.yul\":511:514   */\n      dup5\n        /* \"#utility.yul\":507:523   */\n      add\n        /* \"#utility.yul\":500:527   */\n      mstore\n        /* \"#utility.yul\":349:533   */\n      pop\n        /* \"#utility.yul\":287:533   */\n      pop\n      pop\n      pop\n      jump\t// out\n        /* \"#utility.yul\":539:641   */\n    tag_383:\n        /* \"#utility.yul\":580:586   */\n      0x00\n        /* \"#utility.yul\":631:633   */\n      0x1f\n        /* \"#utility.yul\":627:634   */\n      not\n        /* \"#utility.yul\":622:624   */\n      0x1f\n        /* \"#utility.yul\":615:620   */\n      dup4\n        /* \"#utility.yul\":611:625   */\n      add\n        /* \"#utility.yul\":607:635   */\n      and\n        /* \"#utility.yul\":597:635   */\n      swap1\n      pop\n        /* \"#utility.yul\":539:641   */\n      swap2\n      swap1\n      pop\n      jump\t// out\n        /* \"#utility.yul\":647:1024   */\n    tag_384:\n        /* \"#utility.yul\":735:738   */\n      0x00\n        /* \"#utility.yul\":763:802   */\n      tag_451\n        /* \"#utility.yul\":796:801   */\n      dup3\n        /* \"#utility.yul\":763:802   */\n      tag_380\n      jump\t// in\n    tag_451:\n        /* \"#utility.yul\":818:889   */\n      tag_452\n        /* \"#utility.yul\":882:888   */\n      dup2\n        /* \"#utility.yul\":877:880   */\n      dup6\n        /* \"#utility.yul\":818:889   */\n      tag_381\n      jump\t// in\n    tag_452:\n        /* \"#utility.yul\":811:889   */\n      swap4\n      pop\n        /* \"#utility.yul\":898:963   */\n      tag_453\n        /* \"#utility.yul\":956:962   */\n      dup2\n        /* \"#utility.yul\":951:954   */\n      dup6\n        /* \"#utility.yul\":944:948   */\n      0x20\n        /* \"#utility.yul\":937:942   */\n      dup7\n        /* \"#utility.yul\":933:949   */\n      add\n        /* \"#utility.yul\":898:963   */\n      tag_382\n      jump\t// in\n    tag_453:\n        /* \"#utility.yul\":988:1017   */\n      tag_454\n        /* \"#utility.yul\":1010:1016   */\n      dup2\n        /* \"#utility.yul\":988:1017   */\n      tag_383\n      jump\t// in\n    tag_454:\n        /* \"#utility.yul\":983:986   */\n      dup5\n        /* \"#utility.yul\":979:1018   */\n      add\n        /* \"#utility.yul\":972:1018   */\n      swap2\n      pop\n        /* \"#utility.yul\":739:1024   */\n      pop\n        /* \"#utility.yul\":647:1024   */\n      swap3\n      swap2\n      pop\n      pop\n      jump\t// out\n        /* \"#utility.yul\":1030:1343   */\n    tag_46:\n        /* \"#utility.yul\":1143:1147   */\n      0x00\n        /* \"#utility.yul\":1181:1183   */\n      0x20\n        /* \"#utility.yul\":1170:1179   */\n      dup3\n        /* \"#utility.yul\":1166:1184   */\n      add\n        /* \"#utility.yul\":1158:1184   */\n      swap1\n      pop\n        /* \"#utility.yul\":1230:1239   */\n      dup2\n        /* \"#utility.yul\":1224:1228   */\n      dup2\n        /* \"#utility.yul\":1220:1240   */\n      sub\n        /* \"#utility.yul\":1216:1217   */\n      0x00\n        /* \"#utility.yul\":1205:1214   */\n      dup4\n        /* \"#utility.yul\":1201:1218   */\n      add\n        /* \"#utility.yul\":1194:1241   */\n      mstore\n        /* \"#utility.yul\":1258:1336   */\n      tag_456\n        /* \"#utility.yul\":1331:1335   */\n      dup2\n        /* \"#utility.yul\":1322:1328   */\n      dup5\n        /* \"#utility.yul\":1258:1336   */\n      tag_384\n      jump\t// in\n    tag_456:\n        /* \"#utility.yul\":1250:1336   */\n      swap1\n      pop\n        /* \"#utility.yul\":1030:1343   */\n      swap3\n      swap2\n      pop\n      pop\n      jump\t// out\n        /* \"#utility.yul\":1430:1547   */\n    tag_386:\n        /* \"#utility.yul\":1539:1540   */\n      0x00\n        /* \"#utility.yul\":1536:1537   */\n      dup1\n        /* \"#utility.yul\":1529:1541   */\n      revert\n        /* \"#utility.yul\":1676:1802   */\n    tag_388:\n        /* \"#utility.yul\":1713:1720   */\n      0x00\n        /* \"#utility.yul\":1753:1795   */\n      0xffffffffffffffffffffffffffffffffffffffff\n        /* \"#utility.yul\":1746:1751   */\n      dup3\n        /* \"#utility.yul\":1742:1796   */\n      and\n        /* \"#utility.yul\":1731:1796   */\n      swap1\n      pop\n        /* \"#utility.yul\":1676:1802   */\n      swap2\n      swap1\n      pop\n      jump\t// out\n        /* \"#utility.yul\":1808:1904   */\n    tag_389:\n        /* \"#utility.yul\":1845:1852   */\n      0x00\n        /* \"#utility.yul\":1874:1898   */\n      tag_462\n        /* \"#utility.yul\":1892:1897   */\n      dup3\n        /* \"#utility.yul\":1874:1898   */\n      tag_388\n      jump\t// in\n    tag_462:\n        /* \"#utility.yul\":1863:1898   */\n      swap1\n      pop\n        /* \"#utility.yul\":1808:1904   */\n      swap2\n      swap1\n      pop\n      jump\t// out\n        /* \"#utility.yul\":1910:2032   */\n    tag_390:\n        /* \"#utility.yul\":1983:2007   */\n      tag_464\n        /* \"#utility.yul\":2001:2006   */\n      dup2\n        /* \"#utility.yul\":1983:2007   */\n      tag_389\n      jump\t// in\n    tag_464:\n        /* \"#utility.yul\":1976:1981   */\n      dup2\n        /* \"#utility.yul\":1973:2008   */\n      eq\n        /* \"#utility.yul\":1963:2026   */\n      tag_465\n      jumpi\n        /* \"#utility.yul\":2022:2023   */\n      0x00\n        /* \"#utility.yul\":2019:2020   */\n      dup1\n        /* \"#utility.yul\":2012:2024   */\n      revert\n        /* \"#utility.yul\":1963:2026   */\n    tag_465:\n        /* \"#utility.yul\":1910:2032   */\n      pop\n      jump\t// out\n        /* \"#utility.yul\":2038:2177   */\n    tag_391:\n        /* \"#utility.yul\":2084:2089   */\n      0x00\n        /* \"#utility.yul\":2122:2128   */\n      dup2\n        /* \"#utility.yul\":2109:2129   */\n      calldataload\n        /* \"#utility.yul\":2100:2129   */\n      swap1\n      pop\n        /* \"#utility.yul\":2138:2171   */\n      tag_467\n        /* \"#utility.yul\":2165:2170   */\n      dup2\n        /* \"#utility.yul\":2138:2171   */\n      tag_390\n      jump\t// in\n    tag_467:\n        /* \"#utility.yul\":2038:2177   */\n      swap3\n      swap2\n      pop\n      pop\n      jump\t// out\n        /* \"#utility.yul\":2183:2260   */\n    tag_392:\n        /* \"#utility.yul\":2220:2227   */\n      0x00\n        /* \"#utility.yul\":2249:2254   */\n      dup2\n        /* \"#utility.yul\":2238:2254   */\n      swap1\n      pop\n        /* \"#utility.yul\":2183:2260   */\n      swap2\n      swap1\n      pop\n      jump\t// out\n        /* \"#utility.yul\":2266:2388   */\n    tag_393:\n        /* \"#utility.yul\":2339:2363   */\n      tag_470\n        /* \"#utility.yul\":2357:2362   */\n      dup2\n        /* \"#utility.yul\":2339:2363   */\n      tag_392\n      jump\t// in\n    tag_470:\n        /* \"#utility.yul\":2332:2337   */\n      dup2\n        /* \"#utility.yul\":2329:2364   */\n      eq\n        /* \"#utility.yul\":2319:2382   */\n      tag_471\n      jumpi\n        /* \"#utility.yul\":2378:2379   */\n      0x00\n        /* \"#utility.yul\":2375:2376   */\n      dup1\n        /* \"#utility.yul\":2368:2380   */\n      revert\n        /* \"#utility.yul\":2319:2382   */\n    tag_471:\n        /* \"#utility.yul\":2266:2388   */\n      pop\n      jump\t// out\n        /* \"#utility.yul\":2394:2533   */\n    tag_394:\n        /* \"#utility.yul\":2440:2445   */\n      0x00\n        /* \"#utility.yul\":2478:2484   */\n      dup2\n        /* \"#utility.yul\":2465:2485   */\n      calldataload\n        /* \"#utility.yul\":2456:2485   */\n      swap1\n      pop\n        /* \"#utility.yul\":2494:2527   */\n      tag_473\n        /* \"#utility.yul\":2521:2526   */\n      dup2\n        /* \"#utility.yul\":2494:2527   */\n      tag_393\n      jump\t// in\n    tag_473:\n        /* \"#utility.yul\":2394:2533   */\n      swap3\n      swap2\n      pop\n      pop\n      jump\t// out\n        /* \"#utility.yul\":2539:3013   */\n    tag_50:\n        /* \"#utility.yul\":2607:2613   */\n      0x00\n        /* \"#utility.yul\":2615:2621   */\n      dup1\n        /* \"#utility.yul\":2664:2666   */\n      0x40\n        /* \"#utility.yul\":2652:2661   */\n      dup4\n        /* \"#utility.yul\":2643:2650   */\n      dup6\n        /* \"#utility.yul\":2639:2662   */\n      sub\n        /* \"#utility.yul\":2635:2667   */\n      slt\n        /* \"#utility.yul\":2632:2751   */\n      iszero\n      tag_475\n      jumpi\n        /* \"#utility.yul\":2670:2749   */\n      tag_476\n      tag_386\n      jump\t// in\n    tag_476:\n        /* \"#utility.yul\":2632:2751   */\n    tag_475:\n        /* \"#utility.yul\":2790:2791   */\n      0x00\n        /* \"#utility.yul\":2815:2868   */\n      tag_477\n        /* \"#utility.yul\":2860:2867   */\n      dup6\n        /* \"#utility.yul\":2851:2857   */\n      dup3\n        /* \"#utility.yul\":2840:2849   */\n      dup7\n        /* \"#utility.yul\":2836:2858   */\n      add\n        /* \"#utility.yul\":2815:2868   */\n      tag_391\n      jump\t// in\n    tag_477:\n        /* \"#utility.yul\":2805:2868   */\n      swap3\n      pop\n        /* \"#utility.yul\":2761:2878   */\n      pop\n        /* \"#utility.yul\":2917:2919   */\n      0x20\n        /* \"#utility.yul\":2943:2996   */\n      tag_478\n        /* \"#utility.yul\":2988:2995   */\n      dup6\n        /* \"#utility.yul\":2979:2985   */\n      dup3\n        /* \"#utility.yul\":2968:2977   */\n      dup7\n        /* \"#utility.yul\":2964:2986   */\n      add\n        /* \"#utility.yul\":2943:2996   */\n      tag_394\n      jump\t// in\n    tag_478:\n        /* \"#utility.yul\":2933:2996   */\n      swap2\n      pop\n        /* \"#utility.yul\":2888:3006   */\n      pop\n        /* \"#utility.yul\":2539:3013   */\n      swap3\n      pop\n      swap3\n      swap1\n      pop\n      jump\t// out\n        /* \"#utility.yul\":3019:3109   */\n    tag_395:\n        /* \"#utility.yul\":3053:3060   */\n      0x00\n        /* \"#utility.yul\":3096:3101   */\n      dup2\n        /* \"#utility.yul\":3089:3102   */\n      iszero\n        /* \"#utility.yul\":3082:3103   */\n      iszero\n        /* \"#utility.yul\":3071:3103   */\n      swap1\n      pop\n        /* \"#utility.yul\":3019:3109   */\n      swap2\n      swap1\n      pop\n      jump\t// out\n        /* \"#utility.yul\":3115:3224   */\n    tag_396:\n        /* \"#utility.yul\":3196:3217   */\n      tag_481\n        /* \"#utility.yul\":3211:3216   */\n      dup2\n        /* \"#utility.yul\":3196:3217   */\n      tag_395\n      jump\t// in\n    tag_481:\n        /* \"#utility.yul\":3191:3194   */\n      dup3\n        /* \"#utility.yul\":3184:3218   */\n      mstore\n        /* \"#utility.yul\":3115:3224   */\n      pop\n      pop\n      jump\t// out\n        /* \"#utility.yul\":3230:3440   */\n    tag_53:\n        /* \"#utility.yul\":3317:3321   */\n      0x00\n        /* \"#utility.yul\":3355:3357   */\n      0x20\n        /* \"#utility.yul\":3344:3353   */\n      dup3\n        /* \"#utility.yul\":3340:3358   */\n      add\n        /* \"#utility.yul\":3332:3358   */\n      swap1\n      pop\n        /* \"#utility.yul\":3368:3433   */\n      tag_483\n        /* \"#utility.yul\":3430:3431   */\n      0x00\n        /* \"#utility.yul\":3419:3428   */\n      dup4\n        /* \"#utility.yul\":3415:3432   */\n      add\n        /* \"#utility.yul\":3406:3412   */\n      dup5\n        /* \"#utility.yul\":3368:3433   */\n      tag_396\n      jump\t// in\n    tag_483:\n        /* \"#utility.yul\":3230:3440   */\n      swap3\n      swap2\n      pop\n      pop\n      jump\t// out\n        /* \"#utility.yul\":3446:3506   */\n    tag_397:\n        /* \"#utility.yul\":3474:3477   */\n      0x00\n        /* \"#utility.yul\":3495:3500   */\n      dup2\n        /* \"#utility.yul\":3488:3500   */\n      swap1\n      pop\n        /* \"#utility.yul\":3446:3506   */\n      swap2\n      swap1\n      pop\n      jump\t// out\n        /* \"#utility.yul\":3512:3654   */\n    tag_398:\n        /* \"#utility.yul\":3562:3571   */\n      0x00\n        /* \"#utility.yul\":3595:3648   */\n      tag_486\n        /* \"#utility.yul\":3613:3647   */\n      tag_487\n        /* \"#utility.yul\":3622:3646   */\n      tag_488\n        /* \"#utility.yul\":3640:3645   */\n      dup5\n        /* \"#utility.yul\":3622:3646   */\n      tag_388\n      jump\t// in\n    tag_488:\n        /* \"#utility.yul\":3613:3647   */\n      tag_397\n      jump\t// in\n    tag_487:\n        /* \"#utility.yul\":3595:3648   */\n      tag_388\n      jump\t// in\n    tag_486:\n        /* \"#utility.yul\":3582:3648   */\n      swap1\n      pop\n        /* \"#utility.yul\":3512:3654   */\n      swap2\n      swap1\n      pop\n      jump\t// out\n        /* \"#utility.yul\":3660:3786   */\n    tag_399:\n        /* \"#utility.yul\":3710:3719   */\n      0x00\n        /* \"#utility.yul\":3743:3780   */\n      tag_490\n        /* \"#utility.yul\":3774:3779   */\n      dup3\n        /* \"#utility.yul\":3743:3780   */\n      tag_398\n      jump\t// in\n    tag_490:\n        /* \"#utility.yul\":3730:3780   */\n      swap1\n      pop\n        /* \"#utility.yul\":3660:3786   */\n      swap2\n      swap1\n      pop\n      jump\t// out\n        /* \"#utility.yul\":3792:3945   */\n    tag_400:\n        /* \"#utility.yul\":3869:3878   */\n      0x00\n        /* \"#utility.yul\":3902:3939   */\n      tag_492\n        /* \"#utility.yul\":3933:3938   */\n      dup3\n        /* \"#utility.yul\":3902:3939   */\n      tag_399\n      jump\t// in\n    tag_492:\n        /* \"#utility.yul\":3889:3939   */\n      swap1\n      pop\n        /* \"#utility.yul\":3792:3945   */\n      swap2\n      swap1\n      pop\n      jump\t// out\n        /* \"#utility.yul\":3951:4136   */\n    tag_401:\n        /* \"#utility.yul\":4065:4129   */\n      tag_494\n        /* \"#utility.yul\":4123:4128   */\n      dup2\n        /* \"#utility.yul\":4065:4129   */\n      tag_400\n      jump\t// in\n    tag_494:\n        /* \"#utility.yul\":4060:4063   */\n      dup3\n        /* \"#utility.yul\":4053:4130   */\n      mstore\n        /* \"#utility.yul\":3951:4136   */\n      pop\n      pop\n      jump\t// out\n        /* \"#utility.yul\":4142:4418   */\n    tag_58:\n        /* \"#utility.yul\":4262:4266   */\n      0x00\n        /* \"#utility.yul\":4300:4302   */\n      0x20\n        /* \"#utility.yul\":4289:4298   */\n      dup3\n        /* \"#utility.yul\":4285:4303   */\n      add\n        /* \"#utility.yul\":4277:4303   */\n      swap1\n      pop\n        /* \"#utility.yul\":4313:4411   */\n      tag_496\n        /* \"#utility.yul\":4408:4409   */\n      0x00\n        /* \"#utility.yul\":4397:4406   */\n      dup4\n        /* \"#utility.yul\":4393:4410   */\n      add\n        /* \"#utility.yul\":4384:4390   */\n      dup5\n        /* \"#utility.yul\":4313:4411   */\n      tag_401\n      jump\t// in\n    tag_496:\n        /* \"#utility.yul\":4142:4418   */\n      swap3\n      swap2\n      pop\n      pop\n      jump\t// out\n        /* \"#utility.yul\":4424:4542   */\n    tag_402:\n        /* \"#utility.yul\":4511:4535   */\n      tag_498\n        /* \"#utility.yul\":4529:4534   */\n      dup2\n        /* \"#utility.yul\":4511:4535   */\n      tag_392\n      jump\t// in\n    tag_498:\n        /* \"#utility.yul\":4506:4509   */\n      dup3\n        /* \"#utility.yul\":4499:4536   */\n      mstore\n        /* \"#utility.yul\":4424:4542   */\n      pop\n      pop\n      jump\t// out\n        /* \"#utility.yul\":4548:4770   */\n    tag_63:\n        /* \"#utility.yul\":4641:4645   */\n      0x00\n        /* \"#utility.yul\":4679:4681   */\n      0x20\n        /* \"#utility.yul\":4668:4677   */\n      dup3\n        /* \"#utility.yul\":4664:4682   */\n      add\n        /* \"#utility.yul\":4656:4682   */\n      swap1\n      pop\n        /* \"#utility.yul\":4692:4763   */\n      tag_500\n        /* \"#utility.yul\":4760:4761   */\n      0x00\n        /* \"#utility.yul\":4749:4758   */\n      dup4\n        /* \"#utility.yul\":4745:4762   */\n      add\n        /* \"#utility.yul\":4736:4742   */\n      dup5\n        /* \"#utility.yul\":4692:4763   */\n      tag_402\n      jump\t// in\n    tag_500:\n        /* \"#utility.yul\":4548:4770   */\n      swap3\n      swap2\n      pop\n      pop\n      jump\t// out\n        /* \"#utility.yul\":4776:5395   */\n    tag_71:\n        /* \"#utility.yul\":4853:4859   */\n      0x00\n        /* \"#utility.yul\":4861:4867   */\n      dup1\n        /* \"#utility.yul\":4869:4875   */\n      0x00\n        /* \"#utility.yul\":4918:4920   */\n      0x60\n        /* \"#utility.yul\":4906:4915   */\n      dup5\n        /* \"#utility.yul\":4897:4904   */\n      dup7\n        /* \"#utility.yul\":4893:4916   */\n      sub\n        /* \"#utility.yul\":4889:4921   */\n      slt\n        /* \"#utility.yul\":4886:5005   */\n      iszero\n      tag_502\n      jumpi\n        /* \"#utility.yul\":4924:5003   */\n      tag_503\n      tag_386\n      jump\t// in\n    tag_503:\n        /* \"#utility.yul\":4886:5005   */\n    tag_502:\n        /* \"#utility.yul\":5044:5045   */\n      0x00\n        /* \"#utility.yul\":5069:5122   */\n      tag_504\n        /* \"#utility.yul\":5114:5121   */\n      dup7\n        /* \"#utility.yul\":5105:5111   */\n      dup3\n        /* \"#utility.yul\":5094:5103   */\n      dup8\n        /* \"#utility.yul\":5090:5112   */\n      add\n        /* \"#utility.yul\":5069:5122   */\n      tag_391\n      jump\t// in\n    tag_504:\n        /* \"#utility.yul\":5059:5122   */\n      swap4\n      pop\n        /* \"#utility.yul\":5015:5132   */\n      pop\n        /* \"#utility.yul\":5171:5173   */\n      0x20\n        /* \"#utility.yul\":5197:5250   */\n      tag_505\n        /* \"#utility.yul\":5242:5249   */\n      dup7\n        /* \"#utility.yul\":5233:5239   */\n      dup3\n        /* \"#utility.yul\":5222:5231   */\n      dup8\n        /* \"#utility.yul\":5218:5240   */\n      add\n        /* \"#utility.yul\":5197:5250   */\n      tag_391\n      jump\t// in\n    tag_505:\n        /* \"#utility.yul\":5187:5250   */\n      swap3\n      pop\n        /* \"#utility.yul\":5142:5260   */\n      pop\n        /* \"#utility.yul\":5299:5301   */\n      0x40\n        /* \"#utility.yul\":5325:5378   */\n      tag_506\n        /* \"#utility.yul\":5370:5377   */\n      dup7\n        /* \"#utility.yul\":5361:5367   */\n      dup3\n        /* \"#utility.yul\":5350:5359   */\n      dup8\n        /* \"#utility.yul\":5346:5368   */\n      add\n        /* \"#utility.yul\":5325:5378   */\n      tag_394\n      jump\t// in\n    tag_506:\n        /* \"#utility.yul\":5315:5378   */\n      swap2\n      pop\n        /* \"#utility.yul\":5270:5388   */\n      pop\n        /* \"#utility.yul\":4776:5395   */\n      swap3\n      pop\n      swap3\n      pop\n      swap3\n      jump\t// out\n        /* \"#utility.yul\":5401:5519   */\n    tag_403:\n        /* \"#utility.yul\":5488:5512   */\n      tag_508\n        /* \"#utility.yul\":5506:5511   */\n      dup2\n        /* \"#utility.yul\":5488:5512   */\n      tag_389\n      jump\t// in\n    tag_508:\n        /* \"#utility.yul\":5483:5486   */\n      dup3\n        /* \"#utility.yul\":5476:5513   */\n      mstore\n        /* \"#utility.yul\":5401:5519   */\n      pop\n      pop\n      jump\t// out\n        /* \"#utility.yul\":5525:5747   */\n    tag_78:\n        /* \"#utility.yul\":5618:5622   */\n      0x00\n        /* \"#utility.yul\":5656:5658   */\n      0x20\n        /* \"#utility.yul\":5645:5654   */\n      dup3\n        /* \"#utility.yul\":5641:5659   */\n      add\n        /* \"#utility.yul\":5633:5659   */\n      swap1\n      pop\n        /* \"#utility.yul\":5669:5740   */\n      tag_510\n        /* \"#utility.yul\":5737:5738   */\n      0x00\n        /* \"#utility.yul\":5726:5735   */\n      dup4\n        /* \"#utility.yul\":5722:5739   */\n      add\n        /* \"#utility.yul\":5713:5719   */\n      dup5\n        /* \"#utility.yul\":5669:5740   */\n      tag_403\n      jump\t// in\n    tag_510:\n        /* \"#utility.yul\":5525:5747   */\n      swap3\n      swap2\n      pop\n      pop\n      jump\t// out\n        /* \"#utility.yul\":5753:5839   */\n    tag_404:\n        /* \"#utility.yul\":5788:5795   */\n      0x00\n        /* \"#utility.yul\":5828:5832   */\n      0xff\n        /* \"#utility.yul\":5821:5826   */\n      dup3\n        /* \"#utility.yul\":5817:5833   */\n      and\n        /* \"#utility.yul\":5806:5833   */\n      swap1\n      pop\n        /* \"#utility.yul\":5753:5839   */\n      swap2\n      swap1\n      pop\n      jump\t// out\n        /* \"#utility.yul\":5845:5957   */\n    tag_405:\n        /* \"#utility.yul\":5928:5950   */\n      tag_513\n        /* \"#utility.yul\":5944:5949   */\n      dup2\n        /* \"#utility.yul\":5928:5950   */\n      tag_404\n      jump\t// in\n    tag_513:\n        /* \"#utility.yul\":5923:5926   */\n      dup3\n        /* \"#utility.yul\":5916:5951   */\n      mstore\n        /* \"#utility.yul\":5845:5957   */\n      pop\n      pop\n      jump\t// out\n        /* \"#utility.yul\":5963:6177   */\n    tag_87:\n        /* \"#utility.yul\":6052:6056   */\n      0x00\n        /* \"#utility.yul\":6090:6092   */\n      0x20\n        /* \"#utility.yul\":6079:6088   */\n      dup3\n        /* \"#utility.yul\":6075:6093   */\n      add\n        /* \"#utility.yul\":6067:6093   */\n      swap1\n      pop\n        /* \"#utility.yul\":6103:6170   */\n      tag_515\n        /* \"#utility.yul\":6167:6168   */\n      0x00\n        /* \"#utility.yul\":6156:6165   */\n      dup4\n        /* \"#utility.yul\":6152:6169   */\n      add\n        /* \"#utility.yul\":6143:6149   */\n      dup5\n        /* \"#utility.yul\":6103:6170   */\n      tag_405\n      jump\t// in\n    tag_515:\n        /* \"#utility.yul\":5963:6177   */\n      swap3\n      swap2\n      pop\n      pop\n      jump\t// out\n        /* \"#utility.yul\":6183:6512   */\n    tag_96:\n        /* \"#utility.yul\":6242:6248   */\n      0x00\n        /* \"#utility.yul\":6291:6293   */\n      0x20\n        /* \"#utility.yul\":6279:6288   */\n      dup3\n        /* \"#utility.yul\":6270:6277   */\n      dup5\n        /* \"#utility.yul\":6266:6289   */\n      sub\n        /* \"#utility.yul\":6262:6294   */\n      slt\n        /* \"#utility.yul\":6259:6378   */\n      iszero\n      tag_517\n      jumpi\n        /* \"#utility.yul\":6297:6376   */\n      tag_518\n      tag_386\n      jump\t// in\n    tag_518:\n        /* \"#utility.yul\":6259:6378   */\n    tag_517:\n        /* \"#utility.yul\":6417:6418   */\n      0x00\n        /* \"#utility.yul\":6442:6495   */\n      tag_519\n        /* \"#utility.yul\":6487:6494   */\n      dup5\n        /* \"#utility.yul\":6478:6484   */\n      dup3\n        /* \"#utility.yul\":6467:6476   */\n      dup6\n        /* \"#utility.yul\":6463:6485   */\n      add\n        /* \"#utility.yul\":6442:6495   */\n      tag_394\n      jump\t// in\n    tag_519:\n        /* \"#utility.yul\":6432:6495   */\n      swap2\n      pop\n        /* \"#utility.yul\":6388:6505   */\n      pop\n        /* \"#utility.yul\":6183:6512   */\n      swap3\n      swap2\n      pop\n      pop\n      jump\t// out\n        /* \"#utility.yul\":6518:6847   */\n    tag_101:\n        /* \"#utility.yul\":6577:6583   */\n      0x00\n        /* \"#utility.yul\":6626:6628   */\n      0x20\n        /* \"#utility.yul\":6614:6623   */\n      dup3\n        /* \"#utility.yul\":6605:6612   */\n      dup5\n        /* \"#utility.yul\":6601:6624   */\n      sub\n        /* \"#utility.yul\":6597:6629   */\n      slt\n        /* \"#utility.yul\":6594:6713   */\n      iszero\n      tag_521\n      jumpi\n        /* \"#utility.yul\":6632:6711   */\n      tag_522\n      tag_386\n      jump\t// in\n    tag_522:\n        /* \"#utility.yul\":6594:6713   */\n    tag_521:\n        /* \"#utility.yul\":6752:6753   */\n      0x00\n        /* \"#utility.yul\":6777:6830   */\n      tag_523\n        /* \"#utility.yul\":6822:6829   */\n      dup5\n        /* \"#utility.yul\":6813:6819   */\n      dup3\n        /* \"#utility.yul\":6802:6811   */\n      dup6\n        /* \"#utility.yul\":6798:6820   */\n      add\n        /* \"#utility.yul\":6777:6830   */\n      tag_391\n      jump\t// in\n    tag_523:\n        /* \"#utility.yul\":6767:6830   */\n      swap2\n      pop\n        /* \"#utility.yul\":6723:6840   */\n      pop\n        /* \"#utility.yul\":6518:6847   */\n      swap3\n      swap2\n      pop\n      pop\n      jump\t// out\n        /* \"#utility.yul\":6853:6957   */\n    tag_406:\n        /* \"#utility.yul\":6898:6905   */\n      0x00\n        /* \"#utility.yul\":6927:6951   */\n      tag_525\n        /* \"#utility.yul\":6945:6950   */\n      dup3\n        /* \"#utility.yul\":6927:6951   */\n      tag_388\n      jump\t// in\n    tag_525:\n        /* \"#utility.yul\":6916:6951   */\n      swap1\n      pop\n        /* \"#utility.yul\":6853:6957   */\n      swap2\n      swap1\n      pop\n      jump\t// out\n        /* \"#utility.yul\":6963:7101   */\n    tag_407:\n        /* \"#utility.yul\":7044:7076   */\n      tag_527\n        /* \"#utility.yul\":7070:7075   */\n      dup2\n        /* \"#utility.yul\":7044:7076   */\n      tag_406\n      jump\t// in\n    tag_527:\n        /* \"#utility.yul\":7037:7042   */\n      dup2\n        /* \"#utility.yul\":7034:7077   */\n      eq\n        /* \"#utility.yul\":7024:7095   */\n      tag_528\n      jumpi\n        /* \"#utility.yul\":7091:7092   */\n      0x00\n        /* \"#utility.yul\":7088:7089   */\n      dup1\n        /* \"#utility.yul\":7081:7093   */\n      revert\n        /* \"#utility.yul\":7024:7095   */\n    tag_528:\n        /* \"#utility.yul\":6963:7101   */\n      pop\n      jump\t// out\n        /* \"#utility.yul\":7107:7262   */\n    tag_408:\n        /* \"#utility.yul\":7161:7166   */\n      0x00\n        /* \"#utility.yul\":7199:7205   */\n      dup2\n        /* \"#utility.yul\":7186:7206   */\n      calldataload\n        /* \"#utility.yul\":7177:7206   */\n      swap1\n      pop\n        /* \"#utility.yul\":7215:7256   */\n      tag_530\n        /* \"#utility.yul\":7250:7255   */\n      dup2\n        /* \"#utility.yul\":7215:7256   */\n      tag_407\n      jump\t// in\n    tag_530:\n        /* \"#utility.yul\":7107:7262   */\n      swap3\n      swap2\n      pop\n      pop\n      jump\t// out\n        /* \"#utility.yul\":7268:7613   */\n    tag_116:\n        /* \"#utility.yul\":7335:7341   */\n      0x00\n        /* \"#utility.yul\":7384:7386   */\n      0x20\n        /* \"#utility.yul\":7372:7381   */\n      dup3\n        /* \"#utility.yul\":7363:7370   */\n      dup5\n        /* \"#utility.yul\":7359:7382   */\n      sub\n        /* \"#utility.yul\":7355:7387   */\n      slt\n        /* \"#utility.yul\":7352:7471   */\n      iszero\n      tag_532\n      jumpi\n        /* \"#utility.yul\":7390:7469   */\n      tag_533\n      tag_386\n      jump\t// in\n    tag_533:\n        /* \"#utility.yul\":7352:7471   */\n    tag_532:\n        /* \"#utility.yul\":7510:7511   */\n      0x00\n        /* \"#utility.yul\":7535:7596   */\n      tag_534\n        /* \"#utility.yul\":7588:7595   */\n      dup5\n        /* \"#utility.yul\":7579:7585   */\n      dup3\n        /* \"#utility.yul\":7568:7577   */\n      dup6\n        /* \"#utility.yul\":7564:7586   */\n      add\n        /* \"#utility.yul\":7535:7596   */\n      tag_408\n      jump\t// in\n    tag_534:\n        /* \"#utility.yul\":7525:7596   */\n      swap2\n      pop\n        /* \"#utility.yul\":7481:7606   */\n      pop\n        /* \"#utility.yul\":7268:7613   */\n      swap3\n      swap2\n      pop\n      pop\n      jump\t// out\n        /* \"#utility.yul\":7619:7761   */\n    tag_409:\n        /* \"#utility.yul\":7722:7754   */\n      tag_536\n        /* \"#utility.yul\":7748:7753   */\n      dup2\n        /* \"#utility.yul\":7722:7754   */\n      tag_406\n      jump\t// in\n    tag_536:\n        /* \"#utility.yul\":7717:7720   */\n      dup3\n        /* \"#utility.yul\":7710:7755   */\n      mstore\n        /* \"#utility.yul\":7619:7761   */\n      pop\n      pop\n      jump\t// out\n        /* \"#utility.yul\":7767:8021   */\n    tag_127:\n        /* \"#utility.yul\":7876:7880   */\n      0x00\n        /* \"#utility.yul\":7914:7916   */\n      0x20\n        /* \"#utility.yul\":7903:7912   */\n      dup3\n        /* \"#utility.yul\":7899:7917   */\n      add\n        /* \"#utility.yul\":7891:7917   */\n      swap1\n      pop\n        /* \"#utility.yul\":7927:8014   */\n      tag_538\n        /* \"#utility.yul\":8011:8012   */\n      0x00\n        /* \"#utility.yul\":8000:8009   */\n      dup4\n        /* \"#utility.yul\":7996:8013   */\n      add\n        /* \"#utility.yul\":7987:7993   */\n      dup5\n        /* \"#utility.yul\":7927:8014   */\n      tag_409\n      jump\t// in\n    tag_538:\n        /* \"#utility.yul\":7767:8021   */\n      swap3\n      swap2\n      pop\n      pop\n      jump\t// out\n        /* \"#utility.yul\":8027:8143   */\n    tag_410:\n        /* \"#utility.yul\":8097:8118   */\n      tag_540\n        /* \"#utility.yul\":8112:8117   */\n      dup2\n        /* \"#utility.yul\":8097:8118   */\n      tag_395\n      jump\t// in\n    tag_540:\n        /* \"#utility.yul\":8090:8095   */\n      dup2\n        /* \"#utility.yul\":8087:8119   */\n      eq\n        /* \"#utility.yul\":8077:8137   */\n      tag_541\n      jumpi\n        /* \"#utility.yul\":8133:8134   */\n      0x00\n        /* \"#utility.yul\":8130:8131   */\n      dup1\n        /* \"#utility.yul\":8123:8135   */\n      revert\n        /* \"#utility.yul\":8077:8137   */\n    tag_541:\n        /* \"#utility.yul\":8027:8143   */\n      pop\n      jump\t// out\n        /* \"#utility.yul\":8149:8282   */\n    tag_411:\n        /* \"#utility.yul\":8192:8197   */\n      0x00\n        /* \"#utility.yul\":8230:8236   */\n      dup2\n        /* \"#utility.yul\":8217:8237   */\n      calldataload\n        /* \"#utility.yul\":8208:8237   */\n      swap1\n      pop\n        /* \"#utility.yul\":8246:8276   */\n      tag_543\n        /* \"#utility.yul\":8270:8275   */\n      dup2\n        /* \"#utility.yul\":8246:8276   */\n      tag_410\n      jump\t// in\n    tag_543:\n        /* \"#utility.yul\":8149:8282   */\n      swap3\n      swap2\n      pop\n      pop\n      jump\t// out\n        /* \"#utility.yul\":8288:8756   */\n    tag_131:\n        /* \"#utility.yul\":8353:8359   */\n      0x00\n        /* \"#utility.yul\":8361:8367   */\n      dup1\n        /* \"#utility.yul\":8410:8412   */\n      0x40\n        /* \"#utility.yul\":8398:8407   */\n      dup4\n        /* \"#utility.yul\":8389:8396   */\n      dup6\n        /* \"#utility.yul\":8385:8408   */\n      sub\n        /* \"#utility.yul\":8381:8413   */\n      slt\n        /* \"#utility.yul\":8378:8497   */\n      iszero\n      tag_545\n      jumpi\n        /* \"#utility.yul\":8416:8495   */\n      tag_546\n      tag_386\n      jump\t// in\n    tag_546:\n        /* \"#utility.yul\":8378:8497   */\n    tag_545:\n        /* \"#utility.yul\":8536:8537   */\n      0x00\n        /* \"#utility.yul\":8561:8614   */\n      tag_547\n        /* \"#utility.yul\":8606:8613   */\n      dup6\n        /* \"#utility.yul\":8597:8603   */\n      dup3\n        /* \"#utility.yul\":8586:8595   */\n      dup7\n        /* \"#utility.yul\":8582:8604   */\n      add\n        /* \"#utility.yul\":8561:8614   */\n      tag_391\n      jump\t// in\n    tag_547:\n        /* \"#utility.yul\":8551:8614   */\n      swap3\n      pop\n        /* \"#utility.yul\":8507:8624   */\n      pop\n        /* \"#utility.yul\":8663:8665   */\n      0x20\n        /* \"#utility.yul\":8689:8739   */\n      tag_548\n        /* \"#utility.yul\":8731:8738   */\n      dup6\n        /* \"#utility.yul\":8722:8728   */\n      dup3\n        /* \"#utility.yul\":8711:8720   */\n      dup7\n        /* \"#utility.yul\":8707:8729   */\n      add\n        /* \"#utility.yul\":8689:8739   */\n      tag_411\n      jump\t// in\n    tag_548:\n        /* \"#utility.yul\":8679:8739   */\n      swap2\n      pop\n        /* \"#utility.yul\":8634:8749   */\n      pop\n        /* \"#utility.yul\":8288:8756   */\n      swap3\n      pop\n      swap3\n      swap1\n      pop\n      jump\t// out\n        /* \"#utility.yul\":8762:9236   */\n    tag_173:\n        /* \"#utility.yul\":8830:8836   */\n      0x00\n        /* \"#utility.yul\":8838:8844   */\n      dup1\n        /* \"#utility.yul\":8887:8889   */\n      0x40\n        /* \"#utility.yul\":8875:8884   */\n      dup4\n        /* \"#utility.yul\":8866:8873   */\n      dup6\n        /* \"#utility.yul\":8862:8885   */\n      sub\n        /* \"#utility.yul\":8858:8890   */\n      slt\n        /* \"#utility.yul\":8855:8974   */\n      iszero\n      tag_550\n      jumpi\n        /* \"#utility.yul\":8893:8972   */\n      tag_551\n      tag_386\n      jump\t// in\n    tag_551:\n        /* \"#utility.yul\":8855:8974   */\n    tag_550:\n        /* \"#utility.yul\":9013:9014   */\n      0x00\n        /* \"#utility.yul\":9038:9091   */\n      tag_552\n        /* \"#utility.yul\":9083:9090   */\n      dup6\n        /* \"#utility.yul\":9074:9080   */\n      dup3\n        /* \"#utility.yul\":9063:9072   */\n      dup7\n        /* \"#utility.yul\":9059:9081   */\n      add\n        /* \"#utility.yul\":9038:9091   */\n      tag_391\n      jump\t// in\n    tag_552:\n        /* \"#utility.yul\":9028:9091   */\n      swap3\n      pop\n        /* \"#utility.yul\":8984:9101   */\n      pop\n        /* \"#utility.yul\":9140:9142   */\n      0x20\n        /* \"#utility.yul\":9166:9219   */\n      tag_553\n        /* \"#utility.yul\":9211:9218   */\n      dup6\n        /* \"#utility.yul\":9202:9208   */\n      dup3\n        /* \"#utility.yul\":9191:9200   */\n      dup7\n        /* \"#utility.yul\":9187:9209   */\n      add\n        /* \"#utility.yul\":9166:9219   */\n      tag_391\n      jump\t// in\n    tag_553:\n        /* \"#utility.yul\":9156:9219   */\n      swap2\n      pop\n        /* \"#utility.yul\":9111:9229   */\n      pop\n        /* \"#utility.yul\":8762:9236   */\n      swap3\n      pop\n      swap3\n      swap1\n      pop\n      jump\t// out\n        /* \"#utility.yul\":9242:9422   */\n    tag_412:\n        /* \"#utility.yul\":9290:9367   */\n      0x4e487b7100000000000000000000000000000000000000000000000000000000\n        /* \"#utility.yul\":9287:9288   */\n      0x00\n        /* \"#utility.yul\":9280:9368   */\n      mstore\n        /* \"#utility.yul\":9387:9391   */\n      0x22\n        /* \"#utility.yul\":9384:9385   */\n      0x04\n        /* \"#utility.yul\":9377:9392   */\n      mstore\n        /* \"#utility.yul\":9411:9415   */\n      0x24\n        /* \"#utility.yul\":9408:9409   */\n      0x00\n        /* \"#utility.yul\":9401:9416   */\n      revert\n        /* \"#utility.yul\":9428:9748   */\n    tag_186:\n        /* \"#utility.yul\":9472:9478   */\n      0x00\n        /* \"#utility.yul\":9509:9510   */\n      0x02\n        /* \"#utility.yul\":9503:9507   */\n      dup3\n        /* \"#utility.yul\":9499:9511   */\n      div\n        /* \"#utility.yul\":9489:9511   */\n      swap1\n      pop\n        /* \"#utility.yul\":9556:9557   */\n      0x01\n        /* \"#utility.yul\":9550:9554   */\n      dup3\n        /* \"#utility.yul\":9546:9558   */\n      and\n        /* \"#utility.yul\":9577:9595   */\n      dup1\n        /* \"#utility.yul\":9567:9648   */\n      tag_556\n      jumpi\n        /* \"#utility.yul\":9633:9637   */\n      0x7f\n        /* \"#utility.yul\":9625:9631   */\n      dup3\n        /* \"#utility.yul\":9621:9638   */\n      and\n        /* \"#utility.yul\":9611:9638   */\n      swap2\n      pop\n        /* \"#utility.yul\":9567:9648   */\n    tag_556:\n        /* \"#utility.yul\":9695:9697   */\n      0x20\n        /* \"#utility.yul\":9687:9693   */\n      dup3\n        /* \"#utility.yul\":9684:9698   */\n      lt\n        /* \"#utility.yul\":9664:9682   */\n      dup2\n        /* \"#utility.yul\":9661:9699   */\n      sub\n        /* \"#utility.yul\":9658:9742   */\n      tag_557\n      jumpi\n        /* \"#utility.yul\":9714:9732   */\n      tag_558\n      tag_412\n      jump\t// in\n    tag_558:\n        /* \"#utility.yul\":9658:9742   */\n    tag_557:\n        /* \"#utility.yul\":9479:9748   */\n      pop\n        /* \"#utility.yul\":9428:9748   */\n      swap2\n      swap1\n      pop\n      jump\t// out\n        /* \"#utility.yul\":9754:9936   */\n    tag_413:\n        /* \"#utility.yul\":9894:9928   */\n      0x4f776e61626c653a2063616c6c6572206973206e6f7420746865206f776e6572\n        /* \"#utility.yul\":9890:9891   */\n      0x00\n        /* \"#utility.yul\":9882:9888   */\n      dup3\n        /* \"#utility.yul\":9878:9892   */\n      add\n        /* \"#utility.yul\":9871:9929   */\n      mstore\n        /* \"#utility.yul\":9754:9936   */\n      pop\n      jump\t// out\n        /* \"#utility.yul\":9942:10308   */\n    tag_414:\n        /* \"#utility.yul\":10084:10087   */\n      0x00\n        /* \"#utility.yul\":10105:10172   */\n      tag_561\n        /* \"#utility.yul\":10169:10171   */\n      0x20\n        /* \"#utility.yul\":10164:10167   */\n      dup4\n        /* \"#utility.yul\":10105:10172   */\n      tag_381\n      jump\t// in\n    tag_561:\n        /* \"#utility.yul\":10098:10172   */\n      swap2\n      pop\n        /* \"#utility.yul\":10181:10274   */\n      tag_562\n        /* \"#utility.yul\":10270:10273   */\n      dup3\n        /* \"#utility.yul\":10181:10274   */\n      tag_413\n      jump\t// in\n    tag_562:\n        /* \"#utility.yul\":10299:10301   */\n      0x20\n        /* \"#utility.yul\":10294:10297   */\n      dup3\n        /* \"#utility.yul\":10290:10302   */\n      add\n        /* \"#utility.yul\":10283:10302   */\n      swap1\n      pop\n        /* \"#utility.yul\":9942:10308   */\n      swap2\n      swap1\n      pop\n      jump\t// out\n        /* \"#utility.yul\":10314:10733   */\n    tag_220:\n        /* \"#utility.yul\":10480:10484   */\n      0x00\n        /* \"#utility.yul\":10518:10520   */\n      0x20\n        /* \"#utility.yul\":10507:10516   */\n      dup3\n        /* \"#utility.yul\":10503:10521   */\n      add\n        /* \"#utility.yul\":10495:10521   */\n      swap1\n      pop\n        /* \"#utility.yul\":10567:10576   */\n      dup2\n        /* \"#utility.yul\":10561:10565   */\n      dup2\n        /* \"#utility.yul\":10557:10577   */\n      sub\n        /* \"#utility.yul\":10553:10554   */\n      0x00\n        /* \"#utility.yul\":10542:10551   */\n      dup4\n        /* \"#utility.yul\":10538:10555   */\n      add\n        /* \"#utility.yul\":10531:10578   */\n      mstore\n        /* \"#utility.yul\":10595:10726   */\n      tag_564\n        /* \"#utility.yul\":10721:10725   */\n      dup2\n        /* \"#utility.yul\":10595:10726   */\n      tag_414\n      jump\t// in\n    tag_564:\n        /* \"#utility.yul\":10587:10726   */\n      swap1\n      pop\n        /* \"#utility.yul\":10314:10733   */\n      swap2\n      swap1\n      pop\n      jump\t// out\n        /* \"#utility.yul\":10739:10964   */\n    tag_415:\n        /* \"#utility.yul\":10879:10913   */\n      0x4f776e61626c653a206e6577206f776e657220697320746865207a65726f2061\n        /* \"#utility.yul\":10875:10876   */\n      0x00\n        /* \"#utility.yul\":10867:10873   */\n      dup3\n        /* \"#utility.yul\":10863:10877   */\n      add\n        /* \"#utility.yul\":10856:10914   */\n      mstore\n        /* \"#utility.yul\":10948:10956   */\n      0x6464726573730000000000000000000000000000000000000000000000000000\n        /* \"#utility.yul\":10943:10945   */\n      0x20\n        /* \"#utility.yul\":10935:10941   */\n      dup3\n        /* \"#utility.yul\":10931:10946   */\n      add\n        /* \"#utility.yul\":10924:10957   */\n      mstore\n        /* \"#utility.yul\":10739:10964   */\n      pop\n      jump\t// out\n        /* \"#utility.yul\":10970:11336   */\n    tag_416:\n        /* \"#utility.yul\":11112:11115   */\n      0x00\n        /* \"#utility.yul\":11133:11200   */\n      tag_567\n        /* \"#utility.yul\":11197:11199   */\n      0x26\n        /* \"#utility.yul\":11192:11195   */\n      dup4\n        /* \"#utility.yul\":11133:11200   */\n      tag_381\n      jump\t// in\n    tag_567:\n        /* \"#utility.yul\":11126:11200   */\n      swap2\n      pop\n        /* \"#utility.yul\":11209:11302   */\n      tag_568\n        /* \"#utility.yul\":11298:11301   */\n      dup3\n        /* \"#utility.yul\":11209:11302   */\n      tag_415\n      jump\t// in\n    tag_568:\n        /* \"#utility.yul\":11327:11329   */\n      0x40\n        /* \"#utility.yul\":11322:11325   */\n      dup3\n        /* \"#utility.yul\":11318:11330   */\n      add\n        /* \"#utility.yul\":11311:11330   */\n      swap1\n      pop\n        /* \"#utility.yul\":10970:11336   */\n      swap2\n      swap1\n      pop\n      jump\t// out\n        /* \"#utility.yul\":11342:11761   */\n    tag_267:\n        /* \"#utility.yul\":11508:11512   */\n      0x00\n        /* \"#utility.yul\":11546:11548   */\n      0x20\n        /* \"#utility.yul\":11535:11544   */\n      dup3\n        /* \"#utility.yul\":11531:11549   */\n      add\n        /* \"#utility.yul\":11523:11549   */\n      swap1\n      pop\n        /* \"#utility.yul\":11595:11604   */\n      dup2\n        /* \"#utility.yul\":11589:11593   */\n      dup2\n        /* \"#utility.yul\":11585:11605   */\n      sub\n        /* \"#utility.yul\":11581:11582   */\n      0x00\n        /* \"#utility.yul\":11570:11579   */\n      dup4\n        /* \"#utility.yul\":11566:11583   */\n      add\n        /* \"#utility.yul\":11559:11606   */\n      mstore\n        /* \"#utility.yul\":11623:11754   */\n      tag_570\n        /* \"#utility.yul\":11749:11753   */\n      dup2\n        /* \"#utility.yul\":11623:11754   */\n      tag_416\n      jump\t// in\n    tag_570:\n        /* \"#utility.yul\":11615:11754   */\n      swap1\n      pop\n        /* \"#utility.yul\":11342:11761   */\n      swap2\n      swap1\n      pop\n      jump\t// out\n        /* \"#utility.yul\":11767:11990   */\n    tag_417:\n        /* \"#utility.yul\":11907:11941   */\n      0x45524332303a20617070726f76652066726f6d20746865207a65726f20616464\n        /* \"#utility.yul\":11903:11904   */\n      0x00\n        /* \"#utility.yul\":11895:11901   */\n      dup3\n        /* \"#utility.yul\":11891:11905   */\n      add\n        /* \"#utility.yul\":11884:11942   */\n      mstore\n        /* \"#utility.yul\":11976:11982   */\n      0x7265737300000000000000000000000000000000000000000000000000000000\n        /* \"#utility.yul\":11971:11973   */\n      0x20\n        /* \"#utility.yul\":11963:11969   */\n      dup3\n        /* \"#utility.yul\":11959:11974   */\n      add\n        /* \"#utility.yul\":11952:11983   */\n      mstore\n        /* \"#utility.yul\":11767:11990   */\n      pop\n      jump\t// out\n        /* \"#utility.yul\":11996:12362   */\n    tag_418:\n        /* \"#utility.yul\":12138:12141   */\n      0x00\n        /* \"#utility.yul\":12159:12226   */\n      tag_573\n        /* \"#utility.yul\":12223:12225   */\n      0x24\n        /* \"#utility.yul\":12218:12221   */\n      dup4\n        /* \"#utility.yul\":12159:12226   */\n      tag_381\n      jump\t// in\n    tag_573:\n        /* \"#utility.yul\":12152:12226   */\n      swap2\n      pop\n        /* \"#utility.yul\":12235:12328   */\n      tag_574\n        /* \"#utility.yul\":12324:12327   */\n      dup3\n        /* \"#utility.yul\":12235:12328   */\n      tag_417\n      jump\t// in\n    tag_574:\n        /* \"#utility.yul\":12353:12355   */\n      0x40\n        /* \"#utility.yul\":12348:12351   */\n      dup3\n        /* \"#utility.yul\":12344:12356   */\n      add\n        /* \"#utility.yul\":12337:12356   */\n      swap1\n      pop\n        /* \"#utility.yul\":11996:12362   */\n      swap2\n      swap1\n      pop\n      jump\t// out\n        /* \"#utility.yul\":12368:12787   */\n    tag_272:\n        /* \"#utility.yul\":12534:12538   */\n      0x00\n        /* \"#utility.yul\":12572:12574   */\n      0x20\n        /* \"#utility.yul\":12561:12570   */\n      dup3\n        /* \"#utility.yul\":12557:12575   */\n      add\n        /* \"#utility.yul\":12549:12575   */\n      swap1\n      pop\n        /* \"#utility.yul\":12621:12630   */\n      dup2\n        /* \"#utility.yul\":12615:12619   */\n      dup2\n        /* \"#utility.yul\":12611:12631   */\n      sub\n        /* \"#utility.yul\":12607:12608   */\n      0x00\n        /* \"#utility.yul\":12596:12605   */\n      dup4\n        /* \"#utility.yul\":12592:12609   */\n      add\n        /* \"#utility.yul\":12585:12632   */\n      mstore\n        /* \"#utility.yul\":12649:12780   */\n      tag_576\n        /* \"#utility.yul\":12775:12779   */\n      dup2\n        /* \"#utility.yul\":12649:12780   */\n      tag_418\n      jump\t// in\n    tag_576:\n        /* \"#utility.yul\":12641:12780   */\n      swap1\n      pop\n        /* \"#utility.yul\":12368:12787   */\n      swap2\n      swap1\n      pop\n      jump\t// out\n        /* \"#utility.yul\":12793:13014   */\n    tag_419:\n        /* \"#utility.yul\":12933:12967   */\n      0x45524332303a20617070726f766520746f20746865207a65726f206164647265\n        /* \"#utility.yul\":12929:12930   */\n      0x00\n        /* \"#utility.yul\":12921:12927   */\n      dup3\n        /* \"#utility.yul\":12917:12931   */\n      add\n        /* \"#utility.yul\":12910:12968   */\n      mstore\n        /* \"#utility.yul\":13002:13006   */\n      0x7373000000000000000000000000000000000000000000000000000000000000\n        /* \"#utility.yul\":12997:12999   */\n      0x20\n        /* \"#utility.yul\":12989:12995   */\n      dup3\n        /* \"#utility.yul\":12985:13000   */\n      add\n        /* \"#utility.yul\":12978:13007   */\n      mstore\n        /* \"#utility.yul\":12793:13014   */\n      pop\n      jump\t// out\n        /* \"#utility.yul\":13020:13386   */\n    tag_420:\n        /* \"#utility.yul\":13162:13165   */\n      0x00\n        /* \"#utility.yul\":13183:13250   */\n      tag_579\n        /* \"#utility.yul\":13247:13249   */\n      0x22\n        /* \"#utility.yul\":13242:13245   */\n      dup4\n        /* \"#utility.yul\":13183:13250   */\n      tag_381\n      jump\t// in\n    tag_579:\n        /* \"#utility.yul\":13176:13250   */\n      swap2\n      pop\n        /* \"#utility.yul\":13259:13352   */\n      tag_580\n        /* \"#utility.yul\":13348:13351   */\n      dup3\n        /* \"#utility.yul\":13259:13352   */\n      tag_419\n      jump\t// in\n    tag_580:\n        /* \"#utility.yul\":13377:13379   */\n      0x40\n        /* \"#utility.yul\":13372:13375   */\n      dup3\n        /* \"#utility.yul\":13368:13380   */\n      add\n        /* \"#utility.yul\":13361:13380   */\n      swap1\n      pop\n        /* \"#utility.yul\":13020:13386   */\n      swap2\n      swap1\n      pop\n      jump\t// out\n        /* \"#utility.yul\":13392:13811   */\n    tag_275:\n        /* \"#utility.yul\":13558:13562   */\n      0x00\n        /* \"#utility.yul\":13596:13598   */\n      0x20\n        /* \"#utility.yul\":13585:13594   */\n      dup3\n        /* \"#utility.yul\":13581:13599   */\n      add\n        /* \"#utility.yul\":13573:13599   */\n      swap1\n      pop\n        /* \"#utility.yul\":13645:13654   */\n      dup2\n        /* \"#utility.yul\":13639:13643   */\n      dup2\n        /* \"#utility.yul\":13635:13655   */\n      sub\n        /* \"#utility.yul\":13631:13632   */\n      0x00\n        /* \"#utility.yul\":13620:13629   */\n      dup4\n        /* \"#utility.yul\":13616:13633   */\n      add\n        /* \"#utility.yul\":13609:13656   */\n      mstore\n        /* \"#utility.yul\":13673:13804   */\n      tag_582\n        /* \"#utility.yul\":13799:13803   */\n      dup2\n        /* \"#utility.yul\":13673:13804   */\n      tag_420\n      jump\t// in\n    tag_582:\n        /* \"#utility.yul\":13665:13804   */\n      swap1\n      pop\n        /* \"#utility.yul\":13392:13811   */\n      swap2\n      swap1\n      pop\n      jump\t// out\n        /* \"#utility.yul\":13817:14041   */\n    tag_421:\n        /* \"#utility.yul\":13957:13991   */\n      0x45524332303a207472616e736665722066726f6d20746865207a65726f206164\n        /* \"#utility.yul\":13953:13954   */\n      0x00\n        /* \"#utility.yul\":13945:13951   */\n      dup3\n        /* \"#utility.yul\":13941:13955   */\n      add\n        /* \"#utility.yul\":13934:13992   */\n      mstore\n        /* \"#utility.yul\":14026:14033   */\n      0x6472657373000000000000000000000000000000000000000000000000000000\n        /* \"#utility.yul\":14021:14023   */\n      0x20\n        /* \"#utility.yul\":14013:14019   */\n      dup3\n        /* \"#utility.yul\":14009:14024   */\n      add\n        /* \"#utility.yul\":14002:14034   */\n      mstore\n        /* \"#utility.yul\":13817:14041   */\n      pop\n      jump\t// out\n        /* \"#utility.yul\":14047:14413   */\n    tag_422:\n        /* \"#utility.yul\":14189:14192   */\n      0x00\n        /* \"#utility.yul\":14210:14277   */\n      tag_585\n        /* \"#utility.yul\":14274:14276   */\n      0x25\n        /* \"#utility.yul\":14269:14272   */\n      dup4\n        /* \"#utility.yul\":14210:14277   */\n      tag_381\n      jump\t// in\n    tag_585:\n        /* \"#utility.yul\":14203:14277   */\n      swap2\n      pop\n        /* \"#utility.yul\":14286:14379   */\n      tag_586\n        /* \"#utility.yul\":14375:14378   */\n      dup3\n        /* \"#utility.yul\":14286:14379   */\n      tag_421\n      jump\t// in\n    tag_586:\n        /* \"#utility.yul\":14404:14406   */\n      0x40\n        /* \"#utility.yul\":14399:14402   */\n      dup3\n        /* \"#utility.yul\":14395:14407   */\n      add\n        /* \"#utility.yul\":14388:14407   */\n      swap1\n      pop\n        /* \"#utility.yul\":14047:14413   */\n      swap2\n      swap1\n      pop\n      jump\t// out\n        /* \"#utility.yul\":14419:14838   */\n    tag_280:\n        /* \"#utility.yul\":14585:14589   */\n      0x00\n        /* \"#utility.yul\":14623:14625   */\n      0x20\n        /* \"#utility.yul\":14612:14621   */\n      dup3\n        /* \"#utility.yul\":14608:14626   */\n      add\n        /* \"#utility.yul\":14600:14626   */\n      swap1\n      pop\n        /* \"#utility.yul\":14672:14681   */\n      dup2\n        /* \"#utility.yul\":14666:14670   */\n      dup2\n        /* \"#utility.yul\":14662:14682   */\n      sub\n        /* \"#utility.yul\":14658:14659   */\n      0x00\n        /* \"#utility.yul\":14647:14656   */\n      dup4\n        /* \"#utility.yul\":14643:14660   */\n      add\n        /* \"#utility.yul\":14636:14683   */\n      mstore\n        /* \"#utility.yul\":14700:14831   */\n      tag_588\n        /* \"#utility.yul\":14826:14830   */\n      dup2\n        /* \"#utility.yul\":14700:14831   */\n      tag_422\n      jump\t// in\n    tag_588:\n        /* \"#utility.yul\":14692:14831   */\n      swap1\n      pop\n        /* \"#utility.yul\":14419:14838   */\n      swap2\n      swap1\n      pop\n      jump\t// out\n        /* \"#utility.yul\":14844:15066   */\n    tag_423:\n        /* \"#utility.yul\":14984:15018   */\n      0x45524332303a207472616e7366657220746f20746865207a65726f2061646472\n        /* \"#utility.yul\":14980:14981   */\n      0x00\n        /* \"#utility.yul\":14972:14978   */\n      dup3\n        /* \"#utility.yul\":14968:14982   */\n      add\n        /* \"#utility.yul\":14961:15019   */\n      mstore\n        /* \"#utility.yul\":15053:15058   */\n      0x6573730000000000000000000000000000000000000000000000000000000000\n        /* \"#utility.yul\":15048:15050   */\n      0x20\n        /* \"#utility.yul\":15040:15046   */\n      dup3\n        /* \"#utility.yul\":15036:15051   */\n      add\n        /* \"#utility.yul\":15029:15059   */\n      mstore\n        /* \"#utility.yul\":14844:15066   */\n      pop\n      jump\t// out\n        /* \"#utility.yul\":15072:15438   */\n    tag_424:\n        /* \"#utility.yul\":15214:15217   */\n      0x00\n        /* \"#utility.yul\":15235:15302   */\n      tag_591\n        /* \"#utility.yul\":15299:15301   */\n      0x23\n        /* \"#utility.yul\":15294:15297   */\n      dup4\n        /* \"#utility.yul\":15235:15302   */\n      tag_381\n      jump\t// in\n    tag_591:\n        /* \"#utility.yul\":15228:15302   */\n      swap2\n      pop\n        /* \"#utility.yul\":15311:15404   */\n      tag_592\n        /* \"#utility.yul\":15400:15403   */\n      dup3\n        /* \"#utility.yul\":15311:15404   */\n      tag_423\n      jump\t// in\n    tag_592:\n        /* \"#utility.yul\":15429:15431   */\n      0x40\n        /* \"#utility.yul\":15424:15427   */\n      dup3\n        /* \"#utility.yul\":15420:15432   */\n      add\n        /* \"#utility.yul\":15413:15432   */\n      swap1\n      pop\n        /* \"#utility.yul\":15072:15438   */\n      swap2\n      swap1\n      pop\n      jump\t// out\n        /* \"#utility.yul\":15444:15863   */\n    tag_283:\n        /* \"#utility.yul\":15610:15614   */\n      0x00\n        /* \"#utility.yul\":15648:15650   */\n      0x20\n        /* \"#utility.yul\":15637:15646   */\n      dup3\n        /* \"#utility.yul\":15633:15651   */\n      add\n        /* \"#utility.yul\":15625:15651   */\n      swap1\n      pop\n        /* \"#utility.yul\":15697:15706   */\n      dup2\n        /* \"#utility.yul\":15691:15695   */\n      dup2\n        /* \"#utility.yul\":15687:15707   */\n      sub\n        /* \"#utility.yul\":15683:15684   */\n      0x00\n        /* \"#utility.yul\":15672:15681   */\n      dup4\n        /* \"#utility.yul\":15668:15685   */\n      add\n        /* \"#utility.yul\":15661:15708   */\n      mstore\n        /* \"#utility.yul\":15725:15856   */\n      tag_594\n        /* \"#utility.yul\":15851:15855   */\n      dup2\n        /* \"#utility.yul\":15725:15856   */\n      tag_424\n      jump\t// in\n    tag_594:\n        /* \"#utility.yul\":15717:15856   */\n      swap1\n      pop\n        /* \"#utility.yul\":15444:15863   */\n      swap2\n      swap1\n      pop\n      jump\t// out\n        /* \"#utility.yul\":15869:16049   */\n    tag_425:\n        /* \"#utility.yul\":15917:15994   */\n      0x4e487b7100000000000000000000000000000000000000000000000000000000\n        /* \"#utility.yul\":15914:15915   */\n      0x00\n        /* \"#utility.yul\":15907:15995   */\n      mstore\n        /* \"#utility.yul\":16014:16018   */\n      0x11\n        /* \"#utility.yul\":16011:16012   */\n      0x04\n        /* \"#utility.yul\":16004:16019   */\n      mstore\n        /* \"#utility.yul\":16038:16042   */\n      0x24\n        /* \"#utility.yul\":16035:16036   */\n      0x00\n        /* \"#utility.yul\":16028:16043   */\n      revert\n        /* \"#utility.yul\":16055:16249   */\n    tag_310:\n        /* \"#utility.yul\":16095:16099   */\n      0x00\n        /* \"#utility.yul\":16115:16135   */\n      tag_597\n        /* \"#utility.yul\":16133:16134   */\n      dup3\n        /* \"#utility.yul\":16115:16135   */\n      tag_392\n      jump\t// in\n    tag_597:\n        /* \"#utility.yul\":16110:16135   */\n      swap2\n      pop\n        /* \"#utility.yul\":16149:16169   */\n      tag_598\n        /* \"#utility.yul\":16167:16168   */\n      dup4\n        /* \"#utility.yul\":16149:16169   */\n      tag_392\n      jump\t// in\n    tag_598:\n        /* \"#utility.yul\":16144:16169   */\n      swap3\n      pop\n        /* \"#utility.yul\":16193:16194   */\n      dup3\n        /* \"#utility.yul\":16190:16191   */\n      dup3\n        /* \"#utility.yul\":16186:16195   */\n      sub\n        /* \"#utility.yul\":16178:16195   */\n      swap1\n      pop\n        /* \"#utility.yul\":16217:16218   */\n      dup2\n        /* \"#utility.yul\":16211:16215   */\n      dup2\n        /* \"#utility.yul\":16208:16219   */\n      gt\n        /* \"#utility.yul\":16205:16242   */\n      iszero\n      tag_599\n      jumpi\n        /* \"#utility.yul\":16222:16240   */\n      tag_600\n      tag_425\n      jump\t// in\n    tag_600:\n        /* \"#utility.yul\":16205:16242   */\n    tag_599:\n        /* \"#utility.yul\":16055:16249   */\n      swap3\n      swap2\n      pop\n      pop\n      jump\t// out\n        /* \"#utility.yul\":16255:16446   */\n    tag_315:\n        /* \"#utility.yul\":16295:16298   */\n      0x00\n        /* \"#utility.yul\":16314:16334   */\n      tag_602\n        /* \"#utility.yul\":16332:16333   */\n      dup3\n        /* \"#utility.yul\":16314:16334   */\n      tag_392\n      jump\t// in\n    tag_602:\n        /* \"#utility.yul\":16309:16334   */\n      swap2\n      pop\n        /* \"#utility.yul\":16348:16368   */\n      tag_603\n        /* \"#utility.yul\":16366:16367   */\n      dup4\n        /* \"#utility.yul\":16348:16368   */\n      tag_392\n      jump\t// in\n    tag_603:\n        /* \"#utility.yul\":16343:16368   */\n      swap3\n      pop\n        /* \"#utility.yul\":16391:16392   */\n      dup3\n        /* \"#utility.yul\":16388:16389   */\n      dup3\n        /* \"#utility.yul\":16384:16393   */\n      add\n        /* \"#utility.yul\":16377:16393   */\n      swap1\n      pop\n        /* \"#utility.yul\":16412:16415   */\n      dup1\n        /* \"#utility.yul\":16409:16410   */\n      dup3\n        /* \"#utility.yul\":16406:16416   */\n      gt\n        /* \"#utility.yul\":16403:16439   */\n      iszero\n      tag_604\n      jumpi\n        /* \"#utility.yul\":16419:16437   */\n      tag_605\n      tag_425\n      jump\t// in\n    tag_605:\n        /* \"#utility.yul\":16403:16439   */\n    tag_604:\n        /* \"#utility.yul\":16255:16446   */\n      swap3\n      swap2\n      pop\n      pop\n      jump\t// out\n        /* \"#utility.yul\":16452:16629   */\n    tag_426:\n        /* \"#utility.yul\":16592:16621   */\n      0x536166654d6174683a206164646974696f6e206f766572666c6f770000000000\n        /* \"#utility.yul\":16588:16589   */\n      0x00\n        /* \"#utility.yul\":16580:16586   */\n      dup3\n        /* \"#utility.yul\":16576:16590   */\n      add\n        /* \"#utility.yul\":16569:16622   */\n      mstore\n        /* \"#utility.yul\":16452:16629   */\n      pop\n      jump\t// out\n        /* \"#utility.yul\":16635:17001   */\n    tag_427:\n        /* \"#utility.yul\":16777:16780   */\n      0x00\n        /* \"#utility.yul\":16798:16865   */\n      tag_608\n        /* \"#utility.yul\":16862:16864   */\n      0x1b\n        /* \"#utility.yul\":16857:16860   */\n      dup4\n        /* \"#utility.yul\":16798:16865   */\n      tag_381\n      jump\t// in\n    tag_608:\n        /* \"#utility.yul\":16791:16865   */\n      swap2\n      pop\n        /* \"#utility.yul\":16874:16967   */\n      tag_609\n        /* \"#utility.yul\":16963:16966   */\n      dup3\n        /* \"#utility.yul\":16874:16967   */\n      tag_426\n      jump\t// in\n    tag_609:\n        /* \"#utility.yul\":16992:16994   */\n      0x20\n        /* \"#utility.yul\":16987:16990   */\n      dup3\n        /* \"#utility.yul\":16983:16995   */\n      add\n        /* \"#utility.yul\":16976:16995   */\n      swap1\n      pop\n        /* \"#utility.yul\":16635:17001   */\n      swap2\n      swap1\n      pop\n      jump\t// out\n        /* \"#utility.yul\":17007:17426   */\n    tag_318:\n        /* \"#utility.yul\":17173:17177   */\n      0x00\n        /* \"#utility.yul\":17211:17213   */\n      0x20\n        /* \"#utility.yul\":17200:17209   */\n      dup3\n        /* \"#utility.yul\":17196:17214   */\n      add\n        /* \"#utility.yul\":17188:17214   */\n      swap1\n      pop\n        /* \"#utility.yul\":17260:17269   */\n      dup2\n        /* \"#utility.yul\":17254:17258   */\n      dup2\n        /* \"#utility.yul\":17250:17270   */\n      sub\n        /* \"#utility.yul\":17246:17247   */\n      0x00\n        /* \"#utility.yul\":17235:17244   */\n      dup4\n        /* \"#utility.yul\":17231:17248   */\n      add\n        /* \"#utility.yul\":17224:17271   */\n      mstore\n        /* \"#utility.yul\":17288:17419   */\n      tag_611\n        /* \"#utility.yul\":17414:17418   */\n      dup2\n        /* \"#utility.yul\":17288:17419   */\n      tag_427\n      jump\t// in\n    tag_611:\n        /* \"#utility.yul\":17280:17419   */\n      swap1\n      pop\n        /* \"#utility.yul\":17007:17426   */\n      swap2\n      swap1\n      pop\n      jump\t// out\n        /* \"#utility.yul\":17432:17612   */\n    tag_344:\n        /* \"#utility.yul\":17480:17557   */\n      0x4e487b7100000000000000000000000000000000000000000000000000000000\n        /* \"#utility.yul\":17477:17478   */\n      0x00\n        /* \"#utility.yul\":17470:17558   */\n      mstore\n        /* \"#utility.yul\":17577:17581   */\n      0x41\n        /* \"#utility.yul\":17574:17575   */\n      0x04\n        /* \"#utility.yul\":17567:17582   */\n      mstore\n        /* \"#utility.yul\":17601:17605   */\n      0x24\n        /* \"#utility.yul\":17598:17599   */\n      0x00\n        /* \"#utility.yul\":17591:17606   */\n      revert\n        /* \"#utility.yul\":17618:17798   */\n    tag_348:\n        /* \"#utility.yul\":17666:17743   */\n      0x4e487b7100000000000000000000000000000000000000000000000000000000\n        /* \"#utility.yul\":17663:17664   */\n      0x00\n        /* \"#utility.yul\":17656:17744   */\n      mstore\n        /* \"#utility.yul\":17763:17767   */\n      0x32\n        /* \"#utility.yul\":17760:17761   */\n      0x04\n        /* \"#utility.yul\":17753:17768   */\n      mstore\n        /* \"#utility.yul\":17787:17791   */\n      0x24\n        /* \"#utility.yul\":17784:17785   */\n      0x00\n        /* \"#utility.yul\":17777:17792   */\n      revert\n        /* \"#utility.yul\":17804:17947   */\n    tag_428:\n        /* \"#utility.yul\":17861:17866   */\n      0x00\n        /* \"#utility.yul\":17892:17898   */\n      dup2\n        /* \"#utility.yul\":17886:17899   */\n      mload\n        /* \"#utility.yul\":17877:17899   */\n      swap1\n      pop\n        /* \"#utility.yul\":17908:17941   */\n      tag_615\n        /* \"#utility.yul\":17935:17940   */\n      dup2\n        /* \"#utility.yul\":17908:17941   */\n      tag_390\n      jump\t// in\n    tag_615:\n        /* \"#utility.yul\":17804:17947   */\n      swap3\n      swap2\n      pop\n      pop\n      jump\t// out\n        /* \"#utility.yul\":17953:18304   */\n    tag_352:\n        /* \"#utility.yul\":18023:18029   */\n      0x00\n        /* \"#utility.yul\":18072:18074   */\n      0x20\n        /* \"#utility.yul\":18060:18069   */\n      dup3\n        /* \"#utility.yul\":18051:18058   */\n      dup5\n        /* \"#utility.yul\":18047:18070   */\n      sub\n        /* \"#utility.yul\":18043:18075   */\n      slt\n        /* \"#utility.yul\":18040:18159   */\n      iszero\n      tag_617\n      jumpi\n        /* \"#utility.yul\":18078:18157   */\n      tag_618\n      tag_386\n      jump\t// in\n    tag_618:\n        /* \"#utility.yul\":18040:18159   */\n    tag_617:\n        /* \"#utility.yul\":18198:18199   */\n      0x00\n        /* \"#utility.yul\":18223:18287   */\n      tag_619\n        /* \"#utility.yul\":18279:18286   */\n      dup5\n        /* \"#utility.yul\":18270:18276   */\n      dup3\n        /* \"#utility.yul\":18259:18268   */\n      dup6\n        /* \"#utility.yul\":18255:18277   */\n      add\n        /* \"#utility.yul\":18223:18287   */\n      tag_428\n      jump\t// in\n    tag_619:\n        /* \"#utility.yul\":18213:18287   */\n      swap2\n      pop\n        /* \"#utility.yul\":18169:18297   */\n      pop\n        /* \"#utility.yul\":17953:18304   */\n      swap3\n      swap2\n      pop\n      pop\n      jump\t// out\n        /* \"#utility.yul\":18310:18395   */\n    tag_429:\n        /* \"#utility.yul\":18355:18362   */\n      0x00\n        /* \"#utility.yul\":18384:18389   */\n      dup2\n        /* \"#utility.yul\":18373:18389   */\n      swap1\n      pop\n        /* \"#utility.yul\":18310:18395   */\n      swap2\n      swap1\n      pop\n      jump\t// out\n        /* \"#utility.yul\":18401:18559   */\n    tag_430:\n        /* \"#utility.yul\":18459:18468   */\n      0x00\n        /* \"#utility.yul\":18492:18553   */\n      tag_622\n        /* \"#utility.yul\":18510:18552   */\n      tag_623\n        /* \"#utility.yul\":18519:18551   */\n      tag_624\n        /* \"#utility.yul\":18545:18550   */\n      dup5\n        /* \"#utility.yul\":18519:18551   */\n      tag_429\n      jump\t// in\n    tag_624:\n        /* \"#utility.yul\":18510:18552   */\n      tag_397\n      jump\t// in\n    tag_623:\n        /* \"#utility.yul\":18492:18553   */\n      tag_392\n      jump\t// in\n    tag_622:\n        /* \"#utility.yul\":18479:18553   */\n      swap1\n      pop\n        /* \"#utility.yul\":18401:18559   */\n      swap2\n      swap1\n      pop\n      jump\t// out\n        /* \"#utility.yul\":18565:18712   */\n    tag_431:\n        /* \"#utility.yul\":18660:18705   */\n      tag_626\n        /* \"#utility.yul\":18699:18704   */\n      dup2\n        /* \"#utility.yul\":18660:18705   */\n      tag_430\n      jump\t// in\n    tag_626:\n        /* \"#utility.yul\":18655:18658   */\n      dup3\n        /* \"#utility.yul\":18648:18706   */\n      mstore\n        /* \"#utility.yul\":18565:18712   */\n      pop\n      pop\n      jump\t// out\n        /* \"#utility.yul\":18718:18832   */\n    tag_432:\n        /* \"#utility.yul\":18785:18791   */\n      0x00\n        /* \"#utility.yul\":18819:18824   */\n      dup2\n        /* \"#utility.yul\":18813:18825   */\n      mload\n        /* \"#utility.yul\":18803:18825   */\n      swap1\n      pop\n        /* \"#utility.yul\":18718:18832   */\n      swap2\n      swap1\n      pop\n      jump\t// out\n        /* \"#utility.yul\":18838:19022   */\n    tag_433:\n        /* \"#utility.yul\":18937:18948   */\n      0x00\n        /* \"#utility.yul\":18971:18977   */\n      dup3\n        /* \"#utility.yul\":18966:18969   */\n      dup3\n        /* \"#utility.yul\":18959:18978   */\n      mstore\n        /* \"#utility.yul\":19011:19015   */\n      0x20\n        /* \"#utility.yul\":19006:19009   */\n      dup3\n        /* \"#utility.yul\":19002:19016   */\n      add\n        /* \"#utility.yul\":18987:19016   */\n      swap1\n      pop\n        /* \"#utility.yul\":18838:19022   */\n      swap3\n      swap2\n      pop\n      pop\n      jump\t// out\n        /* \"#utility.yul\":19028:19160   */\n    tag_434:\n        /* \"#utility.yul\":19095:19099   */\n      0x00\n        /* \"#utility.yul\":19118:19121   */\n      dup2\n        /* \"#utility.yul\":19110:19121   */\n      swap1\n      pop\n        /* \"#utility.yul\":19148:19152   */\n      0x20\n        /* \"#utility.yul\":19143:19146   */\n      dup3\n        /* \"#utility.yul\":19139:19153   */\n      add\n        /* \"#utility.yul\":19131:19153   */\n      swap1\n      pop\n        /* \"#utility.yul\":19028:19160   */\n      swap2\n      swap1\n      pop\n      jump\t// out\n        /* \"#utility.yul\":19166:19274   */\n    tag_435:\n        /* \"#utility.yul\":19243:19267   */\n      tag_631\n        /* \"#utility.yul\":19261:19266   */\n      dup2\n        /* \"#utility.yul\":19243:19267   */\n      tag_389\n      jump\t// in\n    tag_631:\n        /* \"#utility.yul\":19238:19241   */\n      dup3\n        /* \"#utility.yul\":19231:19268   */\n      mstore\n        /* \"#utility.yul\":19166:19274   */\n      pop\n      pop\n      jump\t// out\n        /* \"#utility.yul\":19280:19459   */\n    tag_436:\n        /* \"#utility.yul\":19349:19359   */\n      0x00\n        /* \"#utility.yul\":19370:19416   */\n      tag_633\n        /* \"#utility.yul\":19412:19415   */\n      dup4\n        /* \"#utility.yul\":19404:19410   */\n      dup4\n        /* \"#utility.yul\":19370:19416   */\n      tag_435\n      jump\t// in\n    tag_633:\n        /* \"#utility.yul\":19448:19452   */\n      0x20\n        /* \"#utility.yul\":19443:19446   */\n      dup4\n        /* \"#utility.yul\":19439:19453   */\n      add\n        /* \"#utility.yul\":19425:19453   */\n      swap1\n      pop\n        /* \"#utility.yul\":19280:19459   */\n      swap3\n      swap2\n      pop\n      pop\n      jump\t// out\n        /* \"#utility.yul\":19465:19578   */\n    tag_437:\n        /* \"#utility.yul\":19535:19539   */\n      0x00\n        /* \"#utility.yul\":19567:19571   */\n      0x20\n        /* \"#utility.yul\":19562:19565   */\n      dup3\n        /* \"#utility.yul\":19558:19572   */\n      add\n        /* \"#utility.yul\":19550:19572   */\n      swap1\n      pop\n        /* \"#utility.yul\":19465:19578   */\n      swap2\n      swap1\n      pop\n      jump\t// out\n        /* \"#utility.yul\":19614:20346   */\n    tag_438:\n        /* \"#utility.yul\":19733:19736   */\n      0x00\n        /* \"#utility.yul\":19762:19816   */\n      tag_636\n        /* \"#utility.yul\":19810:19815   */\n      dup3\n        /* \"#utility.yul\":19762:19816   */\n      tag_432\n      jump\t// in\n    tag_636:\n        /* \"#utility.yul\":19832:19918   */\n      tag_637\n        /* \"#utility.yul\":19911:19917   */\n      dup2\n        /* \"#utility.yul\":19906:19909   */\n      dup6\n        /* \"#utility.yul\":19832:19918   */\n      tag_433\n      jump\t// in\n    tag_637:\n        /* \"#utility.yul\":19825:19918   */\n      swap4\n      pop\n        /* \"#utility.yul\":19942:19998   */\n      tag_638\n        /* \"#utility.yul\":19992:19997   */\n      dup4\n        /* \"#utility.yul\":19942:19998   */\n      tag_434\n      jump\t// in\n    tag_638:\n        /* \"#utility.yul\":20021:20028   */\n      dup1\n        /* \"#utility.yul\":20052:20053   */\n      0x00\n        /* \"#utility.yul\":20037:20321   */\n    tag_639:\n        /* \"#utility.yul\":20062:20068   */\n      dup4\n        /* \"#utility.yul\":20059:20060   */\n      dup2\n        /* \"#utility.yul\":20056:20069   */\n      lt\n        /* \"#utility.yul\":20037:20321   */\n      iszero\n      tag_641\n      jumpi\n        /* \"#utility.yul\":20138:20144   */\n      dup2\n        /* \"#utility.yul\":20132:20145   */\n      mload\n        /* \"#utility.yul\":20165:20228   */\n      tag_642\n        /* \"#utility.yul\":20224:20227   */\n      dup9\n        /* \"#utility.yul\":20209:20222   */\n      dup3\n        /* \"#utility.yul\":20165:20228   */\n      tag_436\n      jump\t// in\n    tag_642:\n        /* \"#utility.yul\":20158:20228   */\n      swap8\n      pop\n        /* \"#utility.yul\":20251:20311   */\n      tag_643\n        /* \"#utility.yul\":20304:20310   */\n      dup4\n        /* \"#utility.yul\":20251:20311   */\n      tag_437\n      jump\t// in\n    tag_643:\n        /* \"#utility.yul\":20241:20311   */\n      swap3\n      pop\n        /* \"#utility.yul\":20097:20321   */\n      pop\n        /* \"#utility.yul\":20084:20085   */\n      0x01\n        /* \"#utility.yul\":20081:20082   */\n      dup2\n        /* \"#utility.yul\":20077:20086   */\n      add\n        /* \"#utility.yul\":20072:20086   */\n      swap1\n      pop\n        /* \"#utility.yul\":20037:20321   */\n      jump(tag_639)\n    tag_641:\n        /* \"#utility.yul\":20041:20055   */\n      pop\n        /* \"#utility.yul\":20337:20340   */\n      dup6\n        /* \"#utility.yul\":20330:20340   */\n      swap4\n      pop\n        /* \"#utility.yul\":19738:20346   */\n      pop\n      pop\n      pop\n        /* \"#utility.yul\":19614:20346   */\n      swap3\n      swap2\n      pop\n      pop\n      jump\t// out\n        /* \"#utility.yul\":20352:21183   */\n    tag_357:\n        /* \"#utility.yul\":20615:20619   */\n      0x00\n        /* \"#utility.yul\":20653:20656   */\n      0xa0\n        /* \"#utility.yul\":20642:20651   */\n      dup3\n        /* \"#utility.yul\":20638:20657   */\n      add\n        /* \"#utility.yul\":20630:20657   */\n      swap1\n      pop\n        /* \"#utility.yul\":20667:20738   */\n      tag_645\n        /* \"#utility.yul\":20735:20736   */\n      0x00\n        /* \"#utility.yul\":20724:20733   */\n      dup4\n        /* \"#utility.yul\":20720:20737   */\n      add\n        /* \"#utility.yul\":20711:20717   */\n      dup9\n        /* \"#utility.yul\":20667:20738   */\n      tag_402\n      jump\t// in\n    tag_645:\n        /* \"#utility.yul\":20748:20828   */\n      tag_646\n        /* \"#utility.yul\":20824:20826   */\n      0x20\n        /* \"#utility.yul\":20813:20822   */\n      dup4\n        /* \"#utility.yul\":20809:20827   */\n      add\n        /* \"#utility.yul\":20800:20806   */\n      dup8\n        /* \"#utility.yul\":20748:20828   */\n      tag_431\n      jump\t// in\n    tag_646:\n        /* \"#utility.yul\":20875:20884   */\n      dup2\n        /* \"#utility.yul\":20869:20873   */\n      dup2\n        /* \"#utility.yul\":20865:20885   */\n      sub\n        /* \"#utility.yul\":20860:20862   */\n      0x40\n        /* \"#utility.yul\":20849:20858   */\n      dup4\n        /* \"#utility.yul\":20845:20863   */\n      add\n        /* \"#utility.yul\":20838:20886   */\n      mstore\n        /* \"#utility.yul\":20903:21011   */\n      tag_647\n        /* \"#utility.yul\":21006:21010   */\n      dup2\n        /* \"#utility.yul\":20997:21003   */\n      dup7\n        /* \"#utility.yul\":20903:21011   */\n      tag_438\n      jump\t// in\n    tag_647:\n        /* \"#utility.yul\":20895:21011   */\n      swap1\n      pop\n        /* \"#utility.yul\":21021:21093   */\n      tag_648\n        /* \"#utility.yul\":21089:21091   */\n      0x60\n        /* \"#utility.yul\":21078:21087   */\n      dup4\n        /* \"#utility.yul\":21074:21092   */\n      add\n        /* \"#utility.yul\":21065:21071   */\n      dup6\n        /* \"#utility.yul\":21021:21093   */\n      tag_403\n      jump\t// in\n    tag_648:\n        /* \"#utility.yul\":21103:21176   */\n      tag_649\n        /* \"#utility.yul\":21171:21174   */\n      0x80\n        /* \"#utility.yul\":21160:21169   */\n      dup4\n        /* \"#utility.yul\":21156:21175   */\n      add\n        /* \"#utility.yul\":21147:21153   */\n      dup5\n        /* \"#utility.yul\":21103:21176   */\n      tag_402\n      jump\t// in\n    tag_649:\n        /* \"#utility.yul\":20352:21183   */\n      swap7\n      swap6\n      pop\n      pop\n      pop\n      pop\n      pop\n      pop\n      jump\t// out\n        /* \"#utility.yul\":21189:21599   */\n    tag_367:\n        /* \"#utility.yul\":21229:21236   */\n      0x00\n        /* \"#utility.yul\":21252:21272   */\n      tag_651\n        /* \"#utility.yul\":21270:21271   */\n      dup3\n        /* \"#utility.yul\":21252:21272   */\n      tag_392\n      jump\t// in\n    tag_651:\n        /* \"#utility.yul\":21247:21272   */\n      swap2\n      pop\n        /* \"#utility.yul\":21286:21306   */\n      tag_652\n        /* \"#utility.yul\":21304:21305   */\n      dup4\n        /* \"#utility.yul\":21286:21306   */\n      tag_392\n      jump\t// in\n    tag_652:\n        /* \"#utility.yul\":21281:21306   */\n      swap3\n      pop\n        /* \"#utility.yul\":21341:21342   */\n      dup3\n        /* \"#utility.yul\":21338:21339   */\n      dup3\n        /* \"#utility.yul\":21334:21343   */\n      mul\n        /* \"#utility.yul\":21363:21393   */\n      tag_653\n        /* \"#utility.yul\":21381:21392   */\n      dup2\n        /* \"#utility.yul\":21363:21393   */\n      tag_392\n      jump\t// in\n    tag_653:\n        /* \"#utility.yul\":21352:21393   */\n      swap2\n      pop\n        /* \"#utility.yul\":21542:21543   */\n      dup3\n        /* \"#utility.yul\":21533:21540   */\n      dup3\n        /* \"#utility.yul\":21529:21544   */\n      div\n        /* \"#utility.yul\":21526:21527   */\n      dup5\n        /* \"#utility.yul\":21523:21545   */\n      eq\n        /* \"#utility.yul\":21503:21504   */\n      dup4\n        /* \"#utility.yul\":21496:21505   */\n      iszero\n        /* \"#utility.yul\":21476:21559   */\n      or\n        /* \"#utility.yul\":21453:21592   */\n      tag_654\n      jumpi\n        /* \"#utility.yul\":21572:21590   */\n      tag_655\n      tag_425\n      jump\t// in\n    tag_655:\n        /* \"#utility.yul\":21453:21592   */\n    tag_654:\n        /* \"#utility.yul\":21237:21599   */\n      pop\n        /* \"#utility.yul\":21189:21599   */\n      swap3\n      swap2\n      pop\n      pop\n      jump\t// out\n        /* \"#utility.yul\":21605:21785   */\n    tag_439:\n        /* \"#utility.yul\":21653:21730   */\n      0x4e487b7100000000000000000000000000000000000000000000000000000000\n        /* \"#utility.yul\":21650:21651   */\n      0x00\n        /* \"#utility.yul\":21643:21731   */\n      mstore\n        /* \"#utility.yul\":21750:21754   */\n      0x12\n        /* \"#utility.yul\":21747:21748   */\n      0x04\n        /* \"#utility.yul\":21740:21755   */\n      mstore\n        /* \"#utility.yul\":21774:21778   */\n      0x24\n        /* \"#utility.yul\":21771:21772   */\n      0x00\n        /* \"#utility.yul\":21764:21779   */\n      revert\n        /* \"#utility.yul\":21791:21976   */\n    tag_369:\n        /* \"#utility.yul\":21831:21832   */\n      0x00\n        /* \"#utility.yul\":21848:21868   */\n      tag_658\n        /* \"#utility.yul\":21866:21867   */\n      dup3\n        /* \"#utility.yul\":21848:21868   */\n      tag_392\n      jump\t// in\n    tag_658:\n        /* \"#utility.yul\":21843:21868   */\n      swap2\n      pop\n        /* \"#utility.yul\":21882:21902   */\n      tag_659\n        /* \"#utility.yul\":21900:21901   */\n      dup4\n        /* \"#utility.yul\":21882:21902   */\n      tag_392\n      jump\t// in\n    tag_659:\n        /* \"#utility.yul\":21877:21902   */\n      swap3\n      pop\n        /* \"#utility.yul\":21921:21922   */\n      dup3\n        /* \"#utility.yul\":21911:21946   */\n      tag_660\n      jumpi\n        /* \"#utility.yul\":21926:21944   */\n      tag_661\n      tag_439\n      jump\t// in\n    tag_661:\n        /* \"#utility.yul\":21911:21946   */\n    tag_660:\n        /* \"#utility.yul\":21968:21969   */\n      dup3\n        /* \"#utility.yul\":21965:21966   */\n      dup3\n        /* \"#utility.yul\":21961:21970   */\n      div\n        /* \"#utility.yul\":21956:21970   */\n      swap1\n      pop\n        /* \"#utility.yul\":21791:21976   */\n      swap3\n      swap2\n      pop\n      pop\n      jump\t// out\n        /* \"#utility.yul\":21982:22202   */\n    tag_440:\n        /* \"#utility.yul\":22122:22156   */\n      0x536166654d6174683a206d756c7469706c69636174696f6e206f766572666c6f\n        /* \"#utility.yul\":22118:22119   */\n      0x00\n        /* \"#utility.yul\":22110:22116   */\n      dup3\n        /* \"#utility.yul\":22106:22120   */\n      add\n        /* \"#utility.yul\":22099:22157   */\n      mstore\n        /* \"#utility.yul\":22191:22194   */\n      0x7700000000000000000000000000000000000000000000000000000000000000\n        /* \"#utility.yul\":22186:22188   */\n      0x20\n        /* \"#utility.yul\":22178:22184   */\n      dup3\n        /* \"#utility.yul\":22174:22189   */\n      add\n        /* \"#utility.yul\":22167:22195   */\n      mstore\n        /* \"#utility.yul\":21982:22202   */\n      pop\n      jump\t// out\n        /* \"#utility.yul\":22208:22574   */\n    tag_441:\n        /* \"#utility.yul\":22350:22353   */\n      0x00\n        /* \"#utility.yul\":22371:22438   */\n      tag_664\n        /* \"#utility.yul\":22435:22437   */\n      0x21\n        /* \"#utility.yul\":22430:22433   */\n      dup4\n        /* \"#utility.yul\":22371:22438   */\n      tag_381\n      jump\t// in\n    tag_664:\n        /* \"#utility.yul\":22364:22438   */\n      swap2\n      pop\n        /* \"#utility.yul\":22447:22540   */\n      tag_665\n        /* \"#utility.yul\":22536:22539   */\n      dup3\n        /* \"#utility.yul\":22447:22540   */\n      tag_440\n      jump\t// in\n    tag_665:\n        /* \"#utility.yul\":22565:22567   */\n      0x40\n        /* \"#utility.yul\":22560:22563   */\n      dup3\n        /* \"#utility.yul\":22556:22568   */\n      add\n        /* \"#utility.yul\":22549:22568   */\n      swap1\n      pop\n        /* \"#utility.yul\":22208:22574   */\n      swap2\n      swap1\n      pop\n      jump\t// out\n        /* \"#utility.yul\":22580:22999   */\n    tag_372:\n        /* \"#utility.yul\":22746:22750   */\n      0x00\n        /* \"#utility.yul\":22784:22786   */\n      0x20\n        /* \"#utility.yul\":22773:22782   */\n      dup3\n        /* \"#utility.yul\":22769:22787   */\n      add\n        /* \"#utility.yul\":22761:22787   */\n      swap1\n      pop\n        /* \"#utility.yul\":22833:22842   */\n      dup2\n        /* \"#utility.yul\":22827:22831   */\n      dup2\n        /* \"#utility.yul\":22823:22843   */\n      sub\n        /* \"#utility.yul\":22819:22820   */\n      0x00\n        /* \"#utility.yul\":22808:22817   */\n      dup4\n        /* \"#utility.yul\":22804:22821   */\n      add\n        /* \"#utility.yul\":22797:22844   */\n      mstore\n        /* \"#utility.yul\":22861:22992   */\n      tag_667\n        /* \"#utility.yul\":22987:22991   */\n      dup2\n        /* \"#utility.yul\":22861:22992   */\n      tag_441\n      jump\t// in\n    tag_667:\n        /* \"#utility.yul\":22853:22992   */\n      swap1\n      pop\n        /* \"#utility.yul\":22580:22999   */\n      swap2\n      swap1\n      pop\n      jump\t// out\n    stop\n    data_974d1b4421da69cc60b481194f0dad36a5bb4e23da810da7a7fb30cdba178330 45524332303a207472616e7366657220616d6f756e74206578636565647320616c6c6f77616e6365\n    data_f8b476f7d28209d77d4a4ac1fe36b9f8259aa1bb6bddfa6e89de7e51615cf8a8 45524332303a2064656372656173656420616c6c6f77616e63652062656c6f77207a65726f\n\n    auxdata: 0xa2646970667358221220a57b8f4663111bcf1cd72b39744d0844e50918e707445c985eee726e59e97d4564736f6c63430008130033\n}\n",
				"bytecode": {
					"linkReferences": {},
					"object": "60806040526040518060400160405280600e81526020017f596f756e6720496e737069726564000000000000000000000000000000000000815250600190816200004a919062000aef565b506040518060400160405280600281526020017f59690000000000000000000000000000000000000000000000000000000000008152506002908162000091919062000aef565b506009600360006101000a81548160ff021916908360ff16021790555061dead600360016101000a81548173ffffffffffffffffffffffffffffffffffffffff021916908373ffffffffffffffffffffffffffffffffffffffff16021790555061dead600460006101000a81548173ffffffffffffffffffffffffffffffffffffffff021916908373ffffffffffffffffffffffffffffffffffffffff1602179055506000600955600954600a55600360009054906101000a900460ff16600a6200015d919062000d66565b64028fa6ae006200016f919062000db7565b600b55600360009054906101000a900460ff16600a62000190919062000d66565b60646200019e919062000db7565b600c556001600e60156101000a81548160ff0219169083151502179055506000600e60166101000a81548160ff021916908315150217905550348015620001e457600080fd5b506000620001f76200084460201b60201c565b9050806000806101000a81548173ffffffffffffffffffffffffffffffffffffffff021916908373ffffffffffffffffffffffffffffffffffffffff1602179055508073ffffffffffffffffffffffffffffffffffffffff16600073ffffffffffffffffffffffffffffffffffffffff167f8be0079c531659141344cd1fd0a4f28419497f9722a3daafe3b4186f6b6457e060405160405180910390a35060007310ed43c718714eb63d5aa57b78b54704e256024e90508073ffffffffffffffffffffffffffffffffffffffff1663c45a01556040518163ffffffff1660e01b8152600401602060405180830381865afa158015620002fa573d6000803e3d6000fd5b505050506040513d601f19601f8201168201806040525081019062000320919062000e6c565b73ffffffffffffffffffffffffffffffffffffffff1663c9c65396308373ffffffffffffffffffffffffffffffffffffffff1663ad5c46486040518163ffffffff1660e01b8152600401602060405180830381865afa15801562000388573d6000803e3d6000fd5b505050506040513d601f19601f82011682018060405250810190620003ae919062000e6c565b6040518363ffffffff1660e01b8152600401620003cd92919062000eaf565b6020604051808303816000875af1158015620003ed573d6000803e3d6000fd5b505050506040513d601f19601f8201168201806040525081019062000413919062000e6c565b600e60006101000a81548173ffffffffffffffffffffffffffffffffffffffff021916908373ffffffffffffffffffffffffffffffffffffffff16021790555080600d60006101000a81548173ffffffffffffffffffffffffffffffffffffffff021916908373ffffffffffffffffffffffffffffffffffffffff160217905550600b54600660003073ffffffffffffffffffffffffffffffffffffffff1673ffffffffffffffffffffffffffffffffffffffff1681526020019081526020016000206000600d60009054906101000a900473ffffffffffffffffffffffffffffffffffffffff1673ffffffffffffffffffffffffffffffffffffffff1673ffffffffffffffffffffffffffffffffffffffff168152602001908152602001600020819055506001600760006200054f6200084c60201b60201c565b73ffffffffffffffffffffffffffffffffffffffff1673ffffffffffffffffffffffffffffffffffffffff16815260200190815260200160002060006101000a81548160ff0219169083151502179055506001600760003073ffffffffffffffffffffffffffffffffffffffff1673ffffffffffffffffffffffffffffffffffffffff16815260200190815260200160002060006101000a81548160ff021916908315150217905550600160076000600460009054906101000a900473ffffffffffffffffffffffffffffffffffffffff1673ffffffffffffffffffffffffffffffffffffffff1673ffffffffffffffffffffffffffffffffffffffff16815260200190815260200160002060006101000a81548160ff021916908315150217905550600160076000600360019054906101000a900473ffffffffffffffffffffffffffffffffffffffff1673ffffffffffffffffffffffffffffffffffffffff1673ffffffffffffffffffffffffffffffffffffffff16815260200190815260200160002060006101000a81548160ff021916908315150217905550600954600a81905550600160086000600e60009054906101000a900473ffffffffffffffffffffffffffffffffffffffff1673ffffffffffffffffffffffffffffffffffffffff1673ffffffffffffffffffffffffffffffffffffffff16815260200190815260200160002060006101000a81548160ff021916908315150217905550600b5460056000620007866200084460201b60201c565b73ffffffffffffffffffffffffffffffffffffffff1673ffffffffffffffffffffffffffffffffffffffff16815260200190815260200160002081905550620007d46200084460201b60201c565b73ffffffffffffffffffffffffffffffffffffffff16600073ffffffffffffffffffffffffffffffffffffffff167fddf252ad1be2c89b69c2b068fc378daa952ba7f163c4a11628f55a4df523b3ef600b5460405162000835919062000eed565b60405180910390a35062000f0a565b600033905090565b60008060009054906101000a900473ffffffffffffffffffffffffffffffffffffffff16905090565b600081519050919050565b7f4e487b7100000000000000000000000000000000000000000000000000000000600052604160045260246000fd5b7f4e487b7100000000000000000000000000000000000000000000000000000000600052602260045260246000fd5b60006002820490506001821680620008f757607f821691505b6020821081036200090d576200090c620008af565b5b50919050565b60008190508160005260206000209050919050565b60006020601f8301049050919050565b600082821b905092915050565b600060088302620009777fffffffffffffffffffffffffffffffffffffffffffffffffffffffffffffffff8262000938565b62000983868362000938565b95508019841693508086168417925050509392505050565b6000819050919050565b6000819050919050565b6000620009d0620009ca620009c4846200099b565b620009a5565b6200099b565b9050919050565b6000819050919050565b620009ec83620009af565b62000a04620009fb82620009d7565b84845462000945565b825550505050565b600090565b62000a1b62000a0c565b62000a28818484620009e1565b505050565b5b8181101562000a505762000a4460008262000a11565b60018101905062000a2e565b5050565b601f82111562000a9f5762000a698162000913565b62000a748462000928565b8101602085101562000a84578190505b62000a9c62000a938562000928565b83018262000a2d565b50505b505050565b600082821c905092915050565b600062000ac46000198460080262000aa4565b1980831691505092915050565b600062000adf838362000ab1565b9150826002028217905092915050565b62000afa8262000875565b67ffffffffffffffff81111562000b165762000b1562000880565b5b62000b228254620008de565b62000b2f82828562000a54565b600060209050601f83116001811462000b67576000841562000b52578287015190505b62000b5e858262000ad1565b86555062000bce565b601f19841662000b778662000913565b60005b8281101562000ba15784890151825560018201915060208501945060208101905062000b7a565b8683101562000bc1578489015162000bbd601f89168262000ab1565b8355505b6001600288020188555050505b505050505050565b7f4e487b7100000000000000000000000000000000000000000000000000000000600052601160045260246000fd5b60008160011c9050919050565b6000808291508390505b600185111562000c645780860481111562000c3c5762000c3b62000bd6565b5b600185161562000c4c5780820291505b808102905062000c5c8562000c05565b945062000c1c565b94509492505050565b60008262000c7f576001905062000d52565b8162000c8f576000905062000d52565b816001811462000ca8576002811462000cb35762000ce9565b600191505062000d52565b60ff84111562000cc85762000cc762000bd6565b5b8360020a91508482111562000ce25762000ce162000bd6565b5b5062000d52565b5060208310610133831016604e8410600b841016171562000d235782820a90508381111562000d1d5762000d1c62000bd6565b5b62000d52565b62000d32848484600162000c12565b9250905081840481111562000d4c5762000d4b62000bd6565b5b81810290505b9392505050565b600060ff82169050919050565b600062000d73826200099b565b915062000d808362000d59565b925062000daf7fffffffffffffffffffffffffffffffffffffffffffffffffffffffffffffffff848462000c6d565b905092915050565b600062000dc4826200099b565b915062000dd1836200099b565b925082820262000de1816200099b565b9150828204841483151762000dfb5762000dfa62000bd6565b5b5092915050565b600080fd5b600073ffffffffffffffffffffffffffffffffffffffff82169050919050565b600062000e348262000e07565b9050919050565b62000e468162000e27565b811462000e5257600080fd5b50565b60008151905062000e668162000e3b565b92915050565b60006020828403121562000e855762000e8462000e02565b5b600062000e958482850162000e55565b91505092915050565b62000ea98162000e27565b82525050565b600060408201905062000ec6600083018562000e9e565b62000ed5602083018462000e9e565b9392505050565b62000ee7816200099b565b82525050565b600060208201905062000f04600083018462000edc565b92915050565b6130878062000f1a6000396000f3fe6080604052600436106101d15760003560e01c806370a08231116100f7578063a1ca534711610095578063da00097d11610064578063da00097d146106b1578063dd62ed3e146106dc578063ef422a1814610719578063f2fde38b14610742576101d8565b8063a1ca5347146105e1578063a457c2d71461060c578063a9059cbb14610649578063c816841b14610686576101d8565b80638da5cb5b116100d15780638da5cb5b14610549578063914eb66a1461057457806395d89b411461058b578063a073d37f146105b6576101d8565b806370a08231146104b857806375f0a874146104f5578063844d591c14610520576101d8565b80632b112e491161016f5780633ecad2711161013e5780633ecad271146103ea5780634a74bb02146104275780635342acb4146104525780635d098b381461048f576101d8565b80632b112e491461032e578063313ce5671461035957806339509351146103845780633b97084a146103c1576101d8565b806318160ddd116101ab57806318160ddd1461027057806322976e0d1461029b57806323b872dd146102c657806327c8f83514610303576101d8565b806306fdde03146101dd578063095ea7b3146102085780631694505e14610245576101d8565b366101d857005b600080fd5b3480156101e957600080fd5b506101f261076b565b6040516101ff9190612410565b60405180910390f35b34801561021457600080fd5b5061022f600480360381019061022a91906124cb565b6107fd565b60405161023c9190612526565b60405180910390f35b34801561025157600080fd5b5061025a61081b565b60405161026791906125a0565b60405180910390f35b34801561027c57600080fd5b50610285610841565b60405161029291906125ca565b60405180910390f35b3480156102a757600080fd5b506102b061084b565b6040516102bd91906125ca565b60405180910390f35b3480156102d257600080fd5b506102ed60048036038101906102e891906125e5565b610851565b6040516102fa9190612526565b60405180910390f35b34801561030f57600080fd5b5061031861092b565b6040516103259190612647565b60405180910390f35b34801561033a57600080fd5b50610343610951565b60405161035091906125ca565b60405180910390f35b34801561036557600080fd5b5061036e610997565b60405161037b919061267e565b60405180910390f35b34801561039057600080fd5b506103ab60048036038101906103a691906124cb565b6109ae565b6040516103b89190612526565b60405180910390f35b3480156103cd57600080fd5b506103e860048036038101906103e39190612699565b610a61565b005b3480156103f657600080fd5b50610411600480360381019061040c91906126c6565b610b00565b60405161041e9190612526565b60405180910390f35b34801561043357600080fd5b5061043c610b20565b6040516104499190612526565b60405180910390f35b34801561045e57600080fd5b50610479600480360381019061047491906126c6565b610b33565b6040516104869190612526565b60405180910390f35b34801561049b57600080fd5b506104b660048036038101906104b19190612731565b610b53565b005b3480156104c457600080fd5b506104df60048036038101906104da91906126c6565b610c2c565b6040516104ec91906125ca565b60405180910390f35b34801561050157600080fd5b5061050a610c75565b604051610517919061276d565b60405180910390f35b34801561052c57600080fd5b50610547600480360381019061054291906127b4565b610c9b565b005b34801561055557600080fd5b5061055e610d8b565b60405161056b9190612647565b60405180910390f35b34801561058057600080fd5b50610589610db4565b005b34801561059757600080fd5b506105a0610f07565b6040516105ad9190612410565b60405180910390f35b3480156105c257600080fd5b506105cb610f99565b6040516105d891906125ca565b60405180910390f35b3480156105ed57600080fd5b506105f6610fa3565b60405161060391906125ca565b60405180910390f35b34801561061857600080fd5b50610633600480360381019061062e91906124cb565b610fa9565b6040516106409190612526565b60405180910390f35b34801561065557600080fd5b50610670600480360381019061066b91906124cb565b611076565b60405161067d9190612526565b60405180910390f35b34801561069257600080fd5b5061069b611095565b6040516106a89190612647565b60405180910390f35b3480156106bd57600080fd5b506106c66110bb565b6040516106d39190612526565b60405180910390f35b3480156106e857600080fd5b5061070360048036038101906106fe91906127f4565b6110ce565b60405161071091906125ca565b60405180910390f35b34801561072557600080fd5b50610740600480360381019061073b91906127b4565b611155565b005b34801561074e57600080fd5b50610769600480360381019061076491906126c6565b611245565b005b60606001805461077a90612863565b80601f01602080910402602001604051908101604052809291908181526020018280546107a690612863565b80156107f35780601f106107c8576101008083540402835291602001916107f3565b820191906000526020600020905b8154815290600101906020018083116107d657829003601f168201915b5050505050905090565b600061081161080a611406565b848461140e565b6001905092915050565b600d60009054906101000a900473ffffffffffffffffffffffffffffffffffffffff1681565b6000600b54905090565b60095481565b600061085e8484846115d7565b506109208461086b611406565b61091b8560405180606001604052806028815260200161300560289139600660008b73ffffffffffffffffffffffffffffffffffffffff1673ffffffffffffffffffffffffffffffffffffffff16815260200190815260200160002060006108d1611406565b73ffffffffffffffffffffffffffffffffffffffff1673ffffffffffffffffffffffffffffffffffffffff16815260200190815260200160002054611a759092919063ffffffff16565b61140e565b600190509392505050565b600460009054906101000a900473ffffffffffffffffffffffffffffffffffffffff1681565b6000610992610981600460009054906101000a900473ffffffffffffffffffffffffffffffffffffffff16610c2c565b600b54611ad990919063ffffffff16565b905090565b6000600360009054906101000a900460ff16905090565b6000610a576109bb611406565b84610a5285600660006109cc611406565b73ffffffffffffffffffffffffffffffffffffffff1673ffffffffffffffffffffffffffffffffffffffff16815260200190815260200160002060008973ffffffffffffffffffffffffffffffffffffffff1673ffffffffffffffffffffffffffffffffffffffff16815260200190815260200160002054611b2390919063ffffffff16565b61140e565b6001905092915050565b610a69611406565b73ffffffffffffffffffffffffffffffffffffffff1660008054906101000a900473ffffffffffffffffffffffffffffffffffffffff1673ffffffffffffffffffffffffffffffffffffffff1614610af6576040517f08c379a0000000000000000000000000000000000000000000000000000000008152600401610aed906128e0565b60405180910390fd5b80600c8190555050565b60086020528060005260406000206000915054906101000a900460ff1681565b600e60159054906101000a900460ff1681565b60076020528060005260406000206000915054906101000a900460ff1681565b610b5b611406565b73ffffffffffffffffffffffffffffffffffffffff1660008054906101000a900473ffffffffffffffffffffffffffffffffffffffff1673ffffffffffffffffffffffffffffffffffffffff1614610be8576040517f08c379a0000000000000000000000000000000000000000000000000000000008152600401610bdf906128e0565b60405180910390fd5b80600360016101000a81548173ffffffffffffffffffffffffffffffffffffffff021916908373ffffffffffffffffffffffffffffffffffffffff16021790555050565b6000600560008373ffffffffffffffffffffffffffffffffffffffff1673ffffffffffffffffffffffffffffffffffffffff168152602001908152602001600020549050919050565b600360019054906101000a900473ffffffffffffffffffffffffffffffffffffffff1681565b610ca3611406565b73ffffffffffffffffffffffffffffffffffffffff1660008054906101000a900473ffffffffffffffffffffffffffffffffffffffff1673ffffffffffffffffffffffffffffffffffffffff1614610d30576040517f08c379a0000000000000000000000000000000000000000000000000000000008152600401610d27906128e0565b60405180910390fd5b80600860008473ffffffffffffffffffffffffffffffffffffffff1673ffffffffffffffffffffffffffffffffffffffff16815260200190815260200160002060006101000a81548160ff0219169083151502179055505050565b60008060009054906101000a900473ffffffffffffffffffffffffffffffffffffffff16905090565b610dbc611406565b73ffffffffffffffffffffffffffffffffffffffff1660008054906101000a900473ffffffffffffffffffffffffffffffffffffffff1673ffffffffffffffffffffffffffffffffffffffff1614610e49576040517f08c379a0000000000000000000000000000000000000000000000000000000008152600401610e40906128e0565b60405180910390fd5b600073ffffffffffffffffffffffffffffffffffffffff1660008054906101000a900473ffffffffffffffffffffffffffffffffffffffff1673ffffffffffffffffffffffffffffffffffffffff167f8be0079c531659141344cd1fd0a4f28419497f9722a3daafe3b4186f6b6457e060405160405180910390a360008060006101000a81548173ffffffffffffffffffffffffffffffffffffffff021916908373ffffffffffffffffffffffffffffffffffffffff160217905550565b606060028054610f1690612863565b80601f0160208091040260200160405190810160405280929190818152602001828054610f4290612863565b8015610f8f5780601f10610f6457610100808354040283529160200191610f8f565b820191906000526020600020905b815481529060010190602001808311610f7257829003601f168201915b5050505050905090565b6000600c54905090565b600a5481565b600061106c610fb6611406565b846110678560405180606001604052806025815260200161302d6025913960066000610fe0611406565b73ffffffffffffffffffffffffffffffffffffffff1673ffffffffffffffffffffffffffffffffffffffff16815260200190815260200160002060008a73ffffffffffffffffffffffffffffffffffffffff1673ffffffffffffffffffffffffffffffffffffffff16815260200190815260200160002054611a759092919063ffffffff16565b61140e565b6001905092915050565b600061108a611083611406565b84846115d7565b506001905092915050565b600e60009054906101000a900473ffffffffffffffffffffffffffffffffffffffff1681565b600e60169054906101000a900460ff1681565b6000600660008473ffffffffffffffffffffffffffffffffffffffff1673ffffffffffffffffffffffffffffffffffffffff16815260200190815260200160002060008373ffffffffffffffffffffffffffffffffffffffff1673ffffffffffffffffffffffffffffffffffffffff16815260200190815260200160002054905092915050565b61115d611406565b73ffffffffffffffffffffffffffffffffffffffff1660008054906101000a900473ffffffffffffffffffffffffffffffffffffffff1673ffffffffffffffffffffffffffffffffffffffff16146111ea576040517f08c379a00000000000000000000000000000000000000000000000000000000081526004016111e1906128e0565b60405180910390fd5b80600760008473ffffffffffffffffffffffffffffffffffffffff1673ffffffffffffffffffffffffffffffffffffffff16815260200190815260200160002060006101000a81548160ff0219169083151502179055505050565b61124d611406565b73ffffffffffffffffffffffffffffffffffffffff1660008054906101000a900473ffffffffffffffffffffffffffffffffffffffff1673ffffffffffffffffffffffffffffffffffffffff16146112da576040517f08c379a00000000000000000000000000000000000000000000000000000000081526004016112d1906128e0565b60405180910390fd5b600073ffffffffffffffffffffffffffffffffffffffff168173ffffffffffffffffffffffffffffffffffffffff1603611349576040517f08c379a000000000000000000000000000000000000000000000000000000000815260040161134090612972565b60405180910390fd5b8073ffffffffffffffffffffffffffffffffffffffff1660008054906101000a900473ffffffffffffffffffffffffffffffffffffffff1673ffffffffffffffffffffffffffffffffffffffff167f8be0079c531659141344cd1fd0a4f28419497f9722a3daafe3b4186f6b6457e060405160405180910390a3806000806101000a81548173ffffffffffffffffffffffffffffffffffffffff021916908373ffffffffffffffffffffffffffffffffffffffff16021790555050565b600033905090565b600073ffffffffffffffffffffffffffffffffffffffff168373ffffffffffffffffffffffffffffffffffffffff160361147d576040517f08c379a000000000000000000000000000000000000000000000000000000000815260040161147490612a04565b60405180910390fd5b600073ffffffffffffffffffffffffffffffffffffffff168273ffffffffffffffffffffffffffffffffffffffff16036114ec576040517f08c379a00000000000000000000000000000000000000000000000000000000081526004016114e390612a96565b60405180910390fd5b80600660008573ffffffffffffffffffffffffffffffffffffffff1673ffffffffffffffffffffffffffffffffffffffff16815260200190815260200160002060008473ffffffffffffffffffffffffffffffffffffffff1673ffffffffffffffffffffffffffffffffffffffff168152602001908152602001600020819055508173ffffffffffffffffffffffffffffffffffffffff168373ffffffffffffffffffffffffffffffffffffffff167f8c5be1e5ebec7d5bd14f71427d1e84f3dd0314c0f7b2291e5b200ac8c7c3b925836040516115ca91906125ca565b60405180910390a3505050565b60008073ffffffffffffffffffffffffffffffffffffffff168473ffffffffffffffffffffffffffffffffffffffff1603611647576040517f08c379a000000000000000000000000000000000000000000000000000000000815260040161163e90612b28565b60405180910390fd5b600073ffffffffffffffffffffffffffffffffffffffff168373ffffffffffffffffffffffffffffffffffffffff16036116b6576040517f08c379a00000000000000000000000000000000000000000000000000000000081526004016116ad90612bba565b60405180910390fd5b600e60149054906101000a900460ff16156116dd576116d6848484611b81565b9050611a6e565b60006116e830610c2c565b90506000600c54821015905080801561170e5750600e60149054906101000a900460ff16155b80156117645750600860008773ffffffffffffffffffffffffffffffffffffffff1673ffffffffffffffffffffffffffffffffffffffff16815260200190815260200160002060009054906101000a900460ff16155b801561177c5750600e60159054906101000a900460ff165b80156117bb575061178b610d8b565b73ffffffffffffffffffffffffffffffffffffffff168573ffffffffffffffffffffffffffffffffffffffff1614155b156117e557600e60169054906101000a900460ff16156117db57600c5491505b6117e482611d54565b5b61186e846040518060400160405280601481526020017f496e73756666696369656e742042616c616e6365000000000000000000000000815250600560008a73ffffffffffffffffffffffffffffffffffffffff1673ffffffffffffffffffffffffffffffffffffffff16815260200190815260200160002054611a759092919063ffffffff16565b600560008873ffffffffffffffffffffffffffffffffffffffff1673ffffffffffffffffffffffffffffffffffffffff168152602001908152602001600020819055506000600760008873ffffffffffffffffffffffffffffffffffffffff1673ffffffffffffffffffffffffffffffffffffffff16815260200190815260200160002060009054906101000a900460ff16806119545750600760008773ffffffffffffffffffffffffffffffffffffffff1673ffffffffffffffffffffffffffffffffffffffff16815260200190815260200160002060009054906101000a900460ff165b61196857611963878787611dd2565b61196a565b845b90506119be81600560008973ffffffffffffffffffffffffffffffffffffffff1673ffffffffffffffffffffffffffffffffffffffff16815260200190815260200160002054611b2390919063ffffffff16565b600560008873ffffffffffffffffffffffffffffffffffffffff1673ffffffffffffffffffffffffffffffffffffffff168152602001908152602001600020819055508573ffffffffffffffffffffffffffffffffffffffff168773ffffffffffffffffffffffffffffffffffffffff167fddf252ad1be2c89b69c2b068fc378daa952ba7f163c4a11628f55a4df523b3ef83604051611a5e91906125ca565b60405180910390a3600193505050505b9392505050565b6000838311158290611abd576040517f08c379a0000000000000000000000000000000000000000000000000000000008152600401611ab49190612410565b60405180910390fd5b5060008385611acc9190612c09565b9050809150509392505050565b6000611b1b83836040518060400160405280601e81526020017f536166654d6174683a207375627472616374696f6e206f766572666c6f770000815250611a75565b905092915050565b6000808284611b329190612c3d565b905083811015611b77576040517f08c379a0000000000000000000000000000000000000000000000000000000008152600401611b6e90612cbd565b60405180910390fd5b8091505092915050565b6000611c0c826040518060400160405280601481526020017f496e73756666696369656e742042616c616e6365000000000000000000000000815250600560008873ffffffffffffffffffffffffffffffffffffffff1673ffffffffffffffffffffffffffffffffffffffff16815260200190815260200160002054611a759092919063ffffffff16565b600560008673ffffffffffffffffffffffffffffffffffffffff1673ffffffffffffffffffffffffffffffffffffffff16815260200190815260200160002081905550611ca182600560008673ffffffffffffffffffffffffffffffffffffffff1673ffffffffffffffffffffffffffffffffffffffff16815260200190815260200160002054611b2390919063ffffffff16565b600560008573ffffffffffffffffffffffffffffffffffffffff1673ffffffffffffffffffffffffffffffffffffffff168152602001908152602001600020819055508273ffffffffffffffffffffffffffffffffffffffff168473ffffffffffffffffffffffffffffffffffffffff167fddf252ad1be2c89b69c2b068fc378daa952ba7f163c4a11628f55a4df523b3ef84604051611d4191906125ca565b60405180910390a3600190509392505050565b6001600e60146101000a81548160ff021916908315150217905550611d7881611fcb565b60004790506000811115611db357611db2600360019054906101000a900473ffffffffffffffffffffffffffffffffffffffff168261220e565b5b506000600e60146101000a81548160ff02191690831515021790555050565b60008060009050600860008673ffffffffffffffffffffffffffffffffffffffff1673ffffffffffffffffffffffffffffffffffffffff16815260200190815260200160002060009054906101000a900460ff1680611e7a5750600860008573ffffffffffffffffffffffffffffffffffffffff1673ffffffffffffffffffffffffffffffffffffffff16815260200190815260200160002060009054906101000a900460ff165b15611eaa57611ea76064611e99600a548661225990919063ffffffff16565b6122d390919063ffffffff16565b90505b6000811115611fae57611f0581600560003073ffffffffffffffffffffffffffffffffffffffff1673ffffffffffffffffffffffffffffffffffffffff16815260200190815260200160002054611b2390919063ffffffff16565b600560003073ffffffffffffffffffffffffffffffffffffffff1673ffffffffffffffffffffffffffffffffffffffff168152602001908152602001600020819055503073ffffffffffffffffffffffffffffffffffffffff168573ffffffffffffffffffffffffffffffffffffffff167fddf252ad1be2c89b69c2b068fc378daa952ba7f163c4a11628f55a4df523b3ef83604051611fa591906125ca565b60405180910390a35b611fc18184611ad990919063ffffffff16565b9150509392505050565b6000600267ffffffffffffffff811115611fe857611fe7612cdd565b5b6040519080825280602002602001820160405280156120165781602001602082028036833780820191505090505b509050308160008151811061202e5761202d612d0c565b5b602002602001019073ffffffffffffffffffffffffffffffffffffffff16908173ffffffffffffffffffffffffffffffffffffffff1681525050600d60009054906101000a900473ffffffffffffffffffffffffffffffffffffffff1673ffffffffffffffffffffffffffffffffffffffff1663ad5c46486040518163ffffffff1660e01b8152600401602060405180830381865afa1580156120d5573d6000803e3d6000fd5b505050506040513d601f19601f820116820180604052508101906120f99190612d50565b8160018151811061210d5761210c612d0c565b5b602002602001019073ffffffffffffffffffffffffffffffffffffffff16908173ffffffffffffffffffffffffffffffffffffffff168152505061217430600d60009054906101000a900473ffffffffffffffffffffffffffffffffffffffff168461140e565b600d60009054906101000a900473ffffffffffffffffffffffffffffffffffffffff1673ffffffffffffffffffffffffffffffffffffffff1663791ac9478360008430426040518663ffffffff1660e01b81526004016121d8959493929190612e76565b600060405180830381600087803b1580156121f257600080fd5b505af1158015612206573d6000803e3d6000fd5b505050505050565b8173ffffffffffffffffffffffffffffffffffffffff166108fc829081150290604051600060405180830381858888f19350505050158015612254573d6000803e3d6000fd5b505050565b600080830361226b57600090506122cd565b600082846122799190612ed0565b90508284826122889190612f41565b146122c8576040517f08c379a00000000000000000000000000000000000000000000000000000000081526004016122bf90612fe4565b60405180910390fd5b809150505b92915050565b600061231583836040518060400160405280601a81526020017f536166654d6174683a206469766973696f6e206279207a65726f00000000000081525061231d565b905092915050565b60008083118290612364576040517f08c379a000000000000000000000000000000000000000000000000000000000815260040161235b9190612410565b60405180910390fd5b50600083856123739190612f41565b9050809150509392505050565b600081519050919050565b600082825260208201905092915050565b60005b838110156123ba57808201518184015260208101905061239f565b60008484015250505050565b6000601f19601f8301169050919050565b60006123e282612380565b6123ec818561238b565b93506123fc81856020860161239c565b612405816123c6565b840191505092915050565b6000602082019050818103600083015261242a81846123d7565b905092915050565b600080fd5b600073ffffffffffffffffffffffffffffffffffffffff82169050919050565b600061246282612437565b9050919050565b61247281612457565b811461247d57600080fd5b50565b60008135905061248f81612469565b92915050565b6000819050919050565b6124a881612495565b81146124b357600080fd5b50565b6000813590506124c58161249f565b92915050565b600080604083850312156124e2576124e1612432565b5b60006124f085828601612480565b9250506020612501858286016124b6565b9150509250929050565b60008115159050919050565b6125208161250b565b82525050565b600060208201905061253b6000830184612517565b92915050565b6000819050919050565b600061256661256161255c84612437565b612541565b612437565b9050919050565b60006125788261254b565b9050919050565b600061258a8261256d565b9050919050565b61259a8161257f565b82525050565b60006020820190506125b56000830184612591565b92915050565b6125c481612495565b82525050565b60006020820190506125df60008301846125bb565b92915050565b6000806000606084860312156125fe576125fd612432565b5b600061260c86828701612480565b935050602061261d86828701612480565b925050604061262e868287016124b6565b9150509250925092565b61264181612457565b82525050565b600060208201905061265c6000830184612638565b92915050565b600060ff82169050919050565b61267881612662565b82525050565b6000602082019050612693600083018461266f565b92915050565b6000602082840312156126af576126ae612432565b5b60006126bd848285016124b6565b91505092915050565b6000602082840312156126dc576126db612432565b5b60006126ea84828501612480565b91505092915050565b60006126fe82612437565b9050919050565b61270e816126f3565b811461271957600080fd5b50565b60008135905061272b81612705565b92915050565b60006020828403121561274757612746612432565b5b60006127558482850161271c565b91505092915050565b612767816126f3565b82525050565b6000602082019050612782600083018461275e565b92915050565b6127918161250b565b811461279c57600080fd5b50565b6000813590506127ae81612788565b92915050565b600080604083850312156127cb576127ca612432565b5b60006127d985828601612480565b92505060206127ea8582860161279f565b9150509250929050565b6000806040838503121561280b5761280a612432565b5b600061281985828601612480565b925050602061282a85828601612480565b9150509250929050565b7f4e487b7100000000000000000000000000000000000000000000000000000000600052602260045260246000fd5b6000600282049050600182168061287b57607f821691505b60208210810361288e5761288d612834565b5b50919050565b7f4f776e61626c653a2063616c6c6572206973206e6f7420746865206f776e6572600082015250565b60006128ca60208361238b565b91506128d582612894565b602082019050919050565b600060208201905081810360008301526128f9816128bd565b9050919050565b7f4f776e61626c653a206e6577206f776e657220697320746865207a65726f206160008201527f6464726573730000000000000000000000000000000000000000000000000000602082015250565b600061295c60268361238b565b915061296782612900565b604082019050919050565b6000602082019050818103600083015261298b8161294f565b9050919050565b7f45524332303a20617070726f76652066726f6d20746865207a65726f2061646460008201527f7265737300000000000000000000000000000000000000000000000000000000602082015250565b60006129ee60248361238b565b91506129f982612992565b604082019050919050565b60006020820190508181036000830152612a1d816129e1565b9050919050565b7f45524332303a20617070726f766520746f20746865207a65726f20616464726560008201527f7373000000000000000000000000000000000000000000000000000000000000602082015250565b6000612a8060228361238b565b9150612a8b82612a24565b604082019050919050565b60006020820190508181036000830152612aaf81612a73565b9050919050565b7f45524332303a207472616e736665722066726f6d20746865207a65726f20616460008201527f6472657373000000000000000000000000000000000000000000000000000000602082015250565b6000612b1260258361238b565b9150612b1d82612ab6565b604082019050919050565b60006020820190508181036000830152612b4181612b05565b9050919050565b7f45524332303a207472616e7366657220746f20746865207a65726f206164647260008201527f6573730000000000000000000000000000000000000000000000000000000000602082015250565b6000612ba460238361238b565b9150612baf82612b48565b604082019050919050565b60006020820190508181036000830152612bd381612b97565b9050919050565b7f4e487b7100000000000000000000000000000000000000000000000000000000600052601160045260246000fd5b6000612c1482612495565b9150612c1f83612495565b9250828203905081811115612c3757612c36612bda565b5b92915050565b6000612c4882612495565b9150612c5383612495565b9250828201905080821115612c6b57612c6a612bda565b5b92915050565b7f536166654d6174683a206164646974696f6e206f766572666c6f770000000000600082015250565b6000612ca7601b8361238b565b9150612cb282612c71565b602082019050919050565b60006020820190508181036000830152612cd681612c9a565b9050919050565b7f4e487b7100000000000000000000000000000000000000000000000000000000600052604160045260246000fd5b7f4e487b7100000000000000000000000000000000000000000000000000000000600052603260045260246000fd5b600081519050612d4a81612469565b92915050565b600060208284031215612d6657612d65612432565b5b6000612d7484828501612d3b565b91505092915050565b6000819050919050565b6000612da2612d9d612d9884612d7d565b612541565b612495565b9050919050565b612db281612d87565b82525050565b600081519050919050565b600082825260208201905092915050565b6000819050602082019050919050565b612ded81612457565b82525050565b6000612dff8383612de4565b60208301905092915050565b6000602082019050919050565b6000612e2382612db8565b612e2d8185612dc3565b9350612e3883612dd4565b8060005b83811015612e69578151612e508882612df3565b9750612e5b83612e0b565b925050600181019050612e3c565b5085935050505092915050565b600060a082019050612e8b60008301886125bb565b612e986020830187612da9565b8181036040830152612eaa8186612e18565b9050612eb96060830185612638565b612ec660808301846125bb565b9695505050505050565b6000612edb82612495565b9150612ee683612495565b9250828202612ef481612495565b91508282048414831517612f0b57612f0a612bda565b5b5092915050565b7f4e487b7100000000000000000000000000000000000000000000000000000000600052601260045260246000fd5b6000612f4c82612495565b9150612f5783612495565b925082612f6757612f66612f12565b5b828204905092915050565b7f536166654d6174683a206d756c7469706c69636174696f6e206f766572666c6f60008201527f7700000000000000000000000000000000000000000000000000000000000000602082015250565b6000612fce60218361238b565b9150612fd982612f72565b604082019050919050565b60006020820190508181036000830152612ffd81612fc1565b905091905056fe45524332303a207472616e7366657220616d6f756e74206578636565647320616c6c6f77616e636545524332303a2064656372656173656420616c6c6f77616e63652062656c6f77207a65726fa2646970667358221220a57b8f4663111bcf1cd72b39744d0844e50918e707445c985eee726e59e97d4564736f6c63430008130033",
					"opcodes": "PUSH1 0x80 PUSH1 0x40 MSTORE PUSH1 0x40 MLOAD DUP1 PUSH1 0x40 ADD PUSH1 0x40 MSTORE DUP1 PUSH1 0xE DUP2 MSTORE PUSH1 0x20 ADD PUSH32 0x596F756E6720496E737069726564000000000000000000000000000000000000 DUP2 MSTORE POP PUSH1 0x1 SWAP1 DUP2 PUSH3 0x4A SWAP2 SWAP1 PUSH3 0xAEF JUMP JUMPDEST POP PUSH1 0x40 MLOAD DUP1 PUSH1 0x40 ADD PUSH1 0x40 MSTORE DUP1 PUSH1 0x2 DUP2 MSTORE PUSH1 0x20 ADD PUSH32 0x5969000000000000000000000000000000000000000000000000000000000000 DUP2 MSTORE POP PUSH1 0x2 SWAP1 DUP2 PUSH3 0x91 SWAP2 SWAP1 PUSH3 0xAEF JUMP JUMPDEST POP PUSH1 0x9 PUSH1 0x3 PUSH1 0x0 PUSH2 0x100 EXP DUP2 SLOAD DUP2 PUSH1 0xFF MUL NOT AND SWAP1 DUP4 PUSH1 0xFF AND MUL OR SWAP1 SSTORE POP PUSH2 0xDEAD PUSH1 0x3 PUSH1 0x1 PUSH2 0x100 EXP DUP2 SLOAD DUP2 PUSH20 0xFFFFFFFFFFFFFFFFFFFFFFFFFFFFFFFFFFFFFFFF MUL NOT AND SWAP1 DUP4 PUSH20 0xFFFFFFFFFFFFFFFFFFFFFFFFFFFFFFFFFFFFFFFF AND MUL OR SWAP1 SSTORE POP PUSH2 0xDEAD PUSH1 0x4 PUSH1 0x0 PUSH2 0x100 EXP DUP2 SLOAD DUP2 PUSH20 0xFFFFFFFFFFFFFFFFFFFFFFFFFFFFFFFFFFFFFFFF MUL NOT AND SWAP1 DUP4 PUSH20 0xFFFFFFFFFFFFFFFFFFFFFFFFFFFFFFFFFFFFFFFF AND MUL OR SWAP1 SSTORE POP PUSH1 0x0 PUSH1 0x9 SSTORE PUSH1 0x9 SLOAD PUSH1 0xA SSTORE PUSH1 0x3 PUSH1 0x0 SWAP1 SLOAD SWAP1 PUSH2 0x100 EXP SWAP1 DIV PUSH1 0xFF AND PUSH1 0xA PUSH3 0x15D SWAP2 SWAP1 PUSH3 0xD66 JUMP JUMPDEST PUSH5 0x28FA6AE00 PUSH3 0x16F SWAP2 SWAP1 PUSH3 0xDB7 JUMP JUMPDEST PUSH1 0xB SSTORE PUSH1 0x3 PUSH1 0x0 SWAP1 SLOAD SWAP1 PUSH2 0x100 EXP SWAP1 DIV PUSH1 0xFF AND PUSH1 0xA PUSH3 0x190 SWAP2 SWAP1 PUSH3 0xD66 JUMP JUMPDEST PUSH1 0x64 PUSH3 0x19E SWAP2 SWAP1 PUSH3 0xDB7 JUMP JUMPDEST PUSH1 0xC SSTORE PUSH1 0x1 PUSH1 0xE PUSH1 0x15 PUSH2 0x100 EXP DUP2 SLOAD DUP2 PUSH1 0xFF MUL NOT AND SWAP1 DUP4 ISZERO ISZERO MUL OR SWAP1 SSTORE POP PUSH1 0x0 PUSH1 0xE PUSH1 0x16 PUSH2 0x100 EXP DUP2 SLOAD DUP2 PUSH1 0xFF MUL NOT AND SWAP1 DUP4 ISZERO ISZERO MUL OR SWAP1 SSTORE POP CALLVALUE DUP1 ISZERO PUSH3 0x1E4 JUMPI PUSH1 0x0 DUP1 REVERT JUMPDEST POP PUSH1 0x0 PUSH3 0x1F7 PUSH3 0x844 PUSH1 0x20 SHL PUSH1 0x20 SHR JUMP JUMPDEST SWAP1 POP DUP1 PUSH1 0x0 DUP1 PUSH2 0x100 EXP DUP2 SLOAD DUP2 PUSH20 0xFFFFFFFFFFFFFFFFFFFFFFFFFFFFFFFFFFFFFFFF MUL NOT AND SWAP1 DUP4 PUSH20 0xFFFFFFFFFFFFFFFFFFFFFFFFFFFFFFFFFFFFFFFF AND MUL OR SWAP1 SSTORE POP DUP1 PUSH20 0xFFFFFFFFFFFFFFFFFFFFFFFFFFFFFFFFFFFFFFFF AND PUSH1 0x0 PUSH20 0xFFFFFFFFFFFFFFFFFFFFFFFFFFFFFFFFFFFFFFFF AND PUSH32 0x8BE0079C531659141344CD1FD0A4F28419497F9722A3DAAFE3B4186F6B6457E0 PUSH1 0x40 MLOAD PUSH1 0x40 MLOAD DUP1 SWAP2 SUB SWAP1 LOG3 POP PUSH1 0x0 PUSH20 0x10ED43C718714EB63D5AA57B78B54704E256024E SWAP1 POP DUP1 PUSH20 0xFFFFFFFFFFFFFFFFFFFFFFFFFFFFFFFFFFFFFFFF AND PUSH4 0xC45A0155 PUSH1 0x40 MLOAD DUP2 PUSH4 0xFFFFFFFF AND PUSH1 0xE0 SHL DUP2 MSTORE PUSH1 0x4 ADD PUSH1 0x20 PUSH1 0x40 MLOAD DUP1 DUP4 SUB DUP2 DUP7 GAS STATICCALL ISZERO DUP1 ISZERO PUSH3 0x2FA JUMPI RETURNDATASIZE PUSH1 0x0 DUP1 RETURNDATACOPY RETURNDATASIZE PUSH1 0x0 REVERT JUMPDEST POP POP POP POP PUSH1 0x40 MLOAD RETURNDATASIZE PUSH1 0x1F NOT PUSH1 0x1F DUP3 ADD AND DUP3 ADD DUP1 PUSH1 0x40 MSTORE POP DUP2 ADD SWAP1 PUSH3 0x320 SWAP2 SWAP1 PUSH3 0xE6C JUMP JUMPDEST PUSH20 0xFFFFFFFFFFFFFFFFFFFFFFFFFFFFFFFFFFFFFFFF AND PUSH4 0xC9C65396 ADDRESS DUP4 PUSH20 0xFFFFFFFFFFFFFFFFFFFFFFFFFFFFFFFFFFFFFFFF AND PUSH4 0xAD5C4648 PUSH1 0x40 MLOAD DUP2 PUSH4 0xFFFFFFFF AND PUSH1 0xE0 SHL DUP2 MSTORE PUSH1 0x4 ADD PUSH1 0x20 PUSH1 0x40 MLOAD DUP1 DUP4 SUB DUP2 DUP7 GAS STATICCALL ISZERO DUP1 ISZERO PUSH3 0x388 JUMPI RETURNDATASIZE PUSH1 0x0 DUP1 RETURNDATACOPY RETURNDATASIZE PUSH1 0x0 REVERT JUMPDEST POP POP POP POP PUSH1 0x40 MLOAD RETURNDATASIZE PUSH1 0x1F NOT PUSH1 0x1F DUP3 ADD AND DUP3 ADD DUP1 PUSH1 0x40 MSTORE POP DUP2 ADD SWAP1 PUSH3 0x3AE SWAP2 SWAP1 PUSH3 0xE6C JUMP JUMPDEST PUSH1 0x40 MLOAD DUP4 PUSH4 0xFFFFFFFF AND PUSH1 0xE0 SHL DUP2 MSTORE PUSH1 0x4 ADD PUSH3 0x3CD SWAP3 SWAP2 SWAP1 PUSH3 0xEAF JUMP JUMPDEST PUSH1 0x20 PUSH1 0x40 MLOAD DUP1 DUP4 SUB DUP2 PUSH1 0x0 DUP8 GAS CALL ISZERO DUP1 ISZERO PUSH3 0x3ED JUMPI RETURNDATASIZE PUSH1 0x0 DUP1 RETURNDATACOPY RETURNDATASIZE PUSH1 0x0 REVERT JUMPDEST POP POP POP POP PUSH1 0x40 MLOAD RETURNDATASIZE PUSH1 0x1F NOT PUSH1 0x1F DUP3 ADD AND DUP3 ADD DUP1 PUSH1 0x40 MSTORE POP DUP2 ADD SWAP1 PUSH3 0x413 SWAP2 SWAP1 PUSH3 0xE6C JUMP JUMPDEST PUSH1 0xE PUSH1 0x0 PUSH2 0x100 EXP DUP2 SLOAD DUP2 PUSH20 0xFFFFFFFFFFFFFFFFFFFFFFFFFFFFFFFFFFFFFFFF MUL NOT AND SWAP1 DUP4 PUSH20 0xFFFFFFFFFFFFFFFFFFFFFFFFFFFFFFFFFFFFFFFF AND MUL OR SWAP1 SSTORE POP DUP1 PUSH1 0xD PUSH1 0x0 PUSH2 0x100 EXP DUP2 SLOAD DUP2 PUSH20 0xFFFFFFFFFFFFFFFFFFFFFFFFFFFFFFFFFFFFFFFF MUL NOT AND SWAP1 DUP4 PUSH20 0xFFFFFFFFFFFFFFFFFFFFFFFFFFFFFFFFFFFFFFFF AND MUL OR SWAP1 SSTORE POP PUSH1 0xB SLOAD PUSH1 0x6 PUSH1 0x0 ADDRESS PUSH20 0xFFFFFFFFFFFFFFFFFFFFFFFFFFFFFFFFFFFFFFFF AND PUSH20 0xFFFFFFFFFFFFFFFFFFFFFFFFFFFFFFFFFFFFFFFF AND DUP2 MSTORE PUSH1 0x20 ADD SWAP1 DUP2 MSTORE PUSH1 0x20 ADD PUSH1 0x0 KECCAK256 PUSH1 0x0 PUSH1 0xD PUSH1 0x0 SWAP1 SLOAD SWAP1 PUSH2 0x100 EXP SWAP1 DIV PUSH20 0xFFFFFFFFFFFFFFFFFFFFFFFFFFFFFFFFFFFFFFFF AND PUSH20 0xFFFFFFFFFFFFFFFFFFFFFFFFFFFFFFFFFFFFFFFF AND PUSH20 0xFFFFFFFFFFFFFFFFFFFFFFFFFFFFFFFFFFFFFFFF AND DUP2 MSTORE PUSH1 0x20 ADD SWAP1 DUP2 MSTORE PUSH1 0x20 ADD PUSH1 0x0 KECCAK256 DUP2 SWAP1 SSTORE POP PUSH1 0x1 PUSH1 0x7 PUSH1 0x0 PUSH3 0x54F PUSH3 0x84C PUSH1 0x20 SHL PUSH1 0x20 SHR JUMP JUMPDEST PUSH20 0xFFFFFFFFFFFFFFFFFFFFFFFFFFFFFFFFFFFFFFFF AND PUSH20 0xFFFFFFFFFFFFFFFFFFFFFFFFFFFFFFFFFFFFFFFF AND DUP2 MSTORE PUSH1 0x20 ADD SWAP1 DUP2 MSTORE PUSH1 0x20 ADD PUSH1 0x0 KECCAK256 PUSH1 0x0 PUSH2 0x100 EXP DUP2 SLOAD DUP2 PUSH1 0xFF MUL NOT AND SWAP1 DUP4 ISZERO ISZERO MUL OR SWAP1 SSTORE POP PUSH1 0x1 PUSH1 0x7 PUSH1 0x0 ADDRESS PUSH20 0xFFFFFFFFFFFFFFFFFFFFFFFFFFFFFFFFFFFFFFFF AND PUSH20 0xFFFFFFFFFFFFFFFFFFFFFFFFFFFFFFFFFFFFFFFF AND DUP2 MSTORE PUSH1 0x20 ADD SWAP1 DUP2 MSTORE PUSH1 0x20 ADD PUSH1 0x0 KECCAK256 PUSH1 0x0 PUSH2 0x100 EXP DUP2 SLOAD DUP2 PUSH1 0xFF MUL NOT AND SWAP1 DUP4 ISZERO ISZERO MUL OR SWAP1 SSTORE POP PUSH1 0x1 PUSH1 0x7 PUSH1 0x0 PUSH1 0x4 PUSH1 0x0 SWAP1 SLOAD SWAP1 PUSH2 0x100 EXP SWAP1 DIV PUSH20 0xFFFFFFFFFFFFFFFFFFFFFFFFFFFFFFFFFFFFFFFF AND PUSH20 0xFFFFFFFFFFFFFFFFFFFFFFFFFFFFFFFFFFFFFFFF AND PUSH20 0xFFFFFFFFFFFFFFFFFFFFFFFFFFFFFFFFFFFFFFFF AND DUP2 MSTORE PUSH1 0x20 ADD SWAP1 DUP2 MSTORE PUSH1 0x20 ADD PUSH1 0x0 KECCAK256 PUSH1 0x0 PUSH2 0x100 EXP DUP2 SLOAD DUP2 PUSH1 0xFF MUL NOT AND SWAP1 DUP4 ISZERO ISZERO MUL OR SWAP1 SSTORE POP PUSH1 0x1 PUSH1 0x7 PUSH1 0x0 PUSH1 0x3 PUSH1 0x1 SWAP1 SLOAD SWAP1 PUSH2 0x100 EXP SWAP1 DIV PUSH20 0xFFFFFFFFFFFFFFFFFFFFFFFFFFFFFFFFFFFFFFFF AND PUSH20 0xFFFFFFFFFFFFFFFFFFFFFFFFFFFFFFFFFFFFFFFF AND PUSH20 0xFFFFFFFFFFFFFFFFFFFFFFFFFFFFFFFFFFFFFFFF AND DUP2 MSTORE PUSH1 0x20 ADD SWAP1 DUP2 MSTORE PUSH1 0x20 ADD PUSH1 0x0 KECCAK256 PUSH1 0x0 PUSH2 0x100 EXP DUP2 SLOAD DUP2 PUSH1 0xFF MUL NOT AND SWAP1 DUP4 ISZERO ISZERO MUL OR SWAP1 SSTORE POP PUSH1 0x9 SLOAD PUSH1 0xA DUP2 SWAP1 SSTORE POP PUSH1 0x1 PUSH1 0x8 PUSH1 0x0 PUSH1 0xE PUSH1 0x0 SWAP1 SLOAD SWAP1 PUSH2 0x100 EXP SWAP1 DIV PUSH20 0xFFFFFFFFFFFFFFFFFFFFFFFFFFFFFFFFFFFFFFFF AND PUSH20 0xFFFFFFFFFFFFFFFFFFFFFFFFFFFFFFFFFFFFFFFF AND PUSH20 0xFFFFFFFFFFFFFFFFFFFFFFFFFFFFFFFFFFFFFFFF AND DUP2 MSTORE PUSH1 0x20 ADD SWAP1 DUP2 MSTORE PUSH1 0x20 ADD PUSH1 0x0 KECCAK256 PUSH1 0x0 PUSH2 0x100 EXP DUP2 SLOAD DUP2 PUSH1 0xFF MUL NOT AND SWAP1 DUP4 ISZERO ISZERO MUL OR SWAP1 SSTORE POP PUSH1 0xB SLOAD PUSH1 0x5 PUSH1 0x0 PUSH3 0x786 PUSH3 0x844 PUSH1 0x20 SHL PUSH1 0x20 SHR JUMP JUMPDEST PUSH20 0xFFFFFFFFFFFFFFFFFFFFFFFFFFFFFFFFFFFFFFFF AND PUSH20 0xFFFFFFFFFFFFFFFFFFFFFFFFFFFFFFFFFFFFFFFF AND DUP2 MSTORE PUSH1 0x20 ADD SWAP1 DUP2 MSTORE PUSH1 0x20 ADD PUSH1 0x0 KECCAK256 DUP2 SWAP1 SSTORE POP PUSH3 0x7D4 PUSH3 0x844 PUSH1 0x20 SHL PUSH1 0x20 SHR JUMP JUMPDEST PUSH20 0xFFFFFFFFFFFFFFFFFFFFFFFFFFFFFFFFFFFFFFFF AND PUSH1 0x0 PUSH20 0xFFFFFFFFFFFFFFFFFFFFFFFFFFFFFFFFFFFFFFFF AND PUSH32 0xDDF252AD1BE2C89B69C2B068FC378DAA952BA7F163C4A11628F55A4DF523B3EF PUSH1 0xB SLOAD PUSH1 0x40 MLOAD PUSH3 0x835 SWAP2 SWAP1 PUSH3 0xEED JUMP JUMPDEST PUSH1 0x40 MLOAD DUP1 SWAP2 SUB SWAP1 LOG3 POP PUSH3 0xF0A JUMP JUMPDEST PUSH1 0x0 CALLER SWAP1 POP SWAP1 JUMP JUMPDEST PUSH1 0x0 DUP1 PUSH1 0x0 SWAP1 SLOAD SWAP1 PUSH2 0x100 EXP SWAP1 DIV PUSH20 0xFFFFFFFFFFFFFFFFFFFFFFFFFFFFFFFFFFFFFFFF AND SWAP1 POP SWAP1 JUMP JUMPDEST PUSH1 0x0 DUP2 MLOAD SWAP1 POP SWAP2 SWAP1 POP JUMP JUMPDEST PUSH32 0x4E487B7100000000000000000000000000000000000000000000000000000000 PUSH1 0x0 MSTORE PUSH1 0x41 PUSH1 0x4 MSTORE PUSH1 0x24 PUSH1 0x0 REVERT JUMPDEST PUSH32 0x4E487B7100000000000000000000000000000000000000000000000000000000 PUSH1 0x0 MSTORE PUSH1 0x22 PUSH1 0x4 MSTORE PUSH1 0x24 PUSH1 0x0 REVERT JUMPDEST PUSH1 0x0 PUSH1 0x2 DUP3 DIV SWAP1 POP PUSH1 0x1 DUP3 AND DUP1 PUSH3 0x8F7 JUMPI PUSH1 0x7F DUP3 AND SWAP2 POP JUMPDEST PUSH1 0x20 DUP3 LT DUP2 SUB PUSH3 0x90D JUMPI PUSH3 0x90C PUSH3 0x8AF JUMP JUMPDEST JUMPDEST POP SWAP2 SWAP1 POP JUMP JUMPDEST PUSH1 0x0 DUP2 SWAP1 POP DUP2 PUSH1 0x0 MSTORE PUSH1 0x20 PUSH1 0x0 KECCAK256 SWAP1 POP SWAP2 SWAP1 POP JUMP JUMPDEST PUSH1 0x0 PUSH1 0x20 PUSH1 0x1F DUP4 ADD DIV SWAP1 POP SWAP2 SWAP1 POP JUMP JUMPDEST PUSH1 0x0 DUP3 DUP3 SHL SWAP1 POP SWAP3 SWAP2 POP POP JUMP JUMPDEST PUSH1 0x0 PUSH1 0x8 DUP4 MUL PUSH3 0x977 PUSH32 0xFFFFFFFFFFFFFFFFFFFFFFFFFFFFFFFFFFFFFFFFFFFFFFFFFFFFFFFFFFFFFFFF DUP3 PUSH3 0x938 JUMP JUMPDEST PUSH3 0x983 DUP7 DUP4 PUSH3 0x938 JUMP JUMPDEST SWAP6 POP DUP1 NOT DUP5 AND SWAP4 POP DUP1 DUP7 AND DUP5 OR SWAP3 POP POP POP SWAP4 SWAP3 POP POP POP JUMP JUMPDEST PUSH1 0x0 DUP2 SWAP1 POP SWAP2 SWAP1 POP JUMP JUMPDEST PUSH1 0x0 DUP2 SWAP1 POP SWAP2 SWAP1 POP JUMP JUMPDEST PUSH1 0x0 PUSH3 0x9D0 PUSH3 0x9CA PUSH3 0x9C4 DUP5 PUSH3 0x99B JUMP JUMPDEST PUSH3 0x9A5 JUMP JUMPDEST PUSH3 0x99B JUMP JUMPDEST SWAP1 POP SWAP2 SWAP1 POP JUMP JUMPDEST PUSH1 0x0 DUP2 SWAP1 POP SWAP2 SWAP1 POP JUMP JUMPDEST PUSH3 0x9EC DUP4 PUSH3 0x9AF JUMP JUMPDEST PUSH3 0xA04 PUSH3 0x9FB DUP3 PUSH3 0x9D7 JUMP JUMPDEST DUP5 DUP5 SLOAD PUSH3 0x945 JUMP JUMPDEST DUP3 SSTORE POP POP POP POP JUMP JUMPDEST PUSH1 0x0 SWAP1 JUMP JUMPDEST PUSH3 0xA1B PUSH3 0xA0C JUMP JUMPDEST PUSH3 0xA28 DUP2 DUP5 DUP5 PUSH3 0x9E1 JUMP JUMPDEST POP POP POP JUMP JUMPDEST JUMPDEST DUP2 DUP2 LT ISZERO PUSH3 0xA50 JUMPI PUSH3 0xA44 PUSH1 0x0 DUP3 PUSH3 0xA11 JUMP JUMPDEST PUSH1 0x1 DUP2 ADD SWAP1 POP PUSH3 0xA2E JUMP JUMPDEST POP POP JUMP JUMPDEST PUSH1 0x1F DUP3 GT ISZERO PUSH3 0xA9F JUMPI PUSH3 0xA69 DUP2 PUSH3 0x913 JUMP JUMPDEST PUSH3 0xA74 DUP5 PUSH3 0x928 JUMP JUMPDEST DUP2 ADD PUSH1 0x20 DUP6 LT ISZERO PUSH3 0xA84 JUMPI DUP2 SWAP1 POP JUMPDEST PUSH3 0xA9C PUSH3 0xA93 DUP6 PUSH3 0x928 JUMP JUMPDEST DUP4 ADD DUP3 PUSH3 0xA2D JUMP JUMPDEST POP POP JUMPDEST POP POP POP JUMP JUMPDEST PUSH1 0x0 DUP3 DUP3 SHR SWAP1 POP SWAP3 SWAP2 POP POP JUMP JUMPDEST PUSH1 0x0 PUSH3 0xAC4 PUSH1 0x0 NOT DUP5 PUSH1 0x8 MUL PUSH3 0xAA4 JUMP JUMPDEST NOT DUP1 DUP4 AND SWAP2 POP POP SWAP3 SWAP2 POP POP JUMP JUMPDEST PUSH1 0x0 PUSH3 0xADF DUP4 DUP4 PUSH3 0xAB1 JUMP JUMPDEST SWAP2 POP DUP3 PUSH1 0x2 MUL DUP3 OR SWAP1 POP SWAP3 SWAP2 POP POP JUMP JUMPDEST PUSH3 0xAFA DUP3 PUSH3 0x875 JUMP JUMPDEST PUSH8 0xFFFFFFFFFFFFFFFF DUP2 GT ISZERO PUSH3 0xB16 JUMPI PUSH3 0xB15 PUSH3 0x880 JUMP JUMPDEST JUMPDEST PUSH3 0xB22 DUP3 SLOAD PUSH3 0x8DE JUMP JUMPDEST PUSH3 0xB2F DUP3 DUP3 DUP6 PUSH3 0xA54 JUMP JUMPDEST PUSH1 0x0 PUSH1 0x20 SWAP1 POP PUSH1 0x1F DUP4 GT PUSH1 0x1 DUP2 EQ PUSH3 0xB67 JUMPI PUSH1 0x0 DUP5 ISZERO PUSH3 0xB52 JUMPI DUP3 DUP8 ADD MLOAD SWAP1 POP JUMPDEST PUSH3 0xB5E DUP6 DUP3 PUSH3 0xAD1 JUMP JUMPDEST DUP7 SSTORE POP PUSH3 0xBCE JUMP JUMPDEST PUSH1 0x1F NOT DUP5 AND PUSH3 0xB77 DUP7 PUSH3 0x913 JUMP JUMPDEST PUSH1 0x0 JUMPDEST DUP3 DUP2 LT ISZERO PUSH3 0xBA1 JUMPI DUP5 DUP10 ADD MLOAD DUP3 SSTORE PUSH1 0x1 DUP3 ADD SWAP2 POP PUSH1 0x20 DUP6 ADD SWAP5 POP PUSH1 0x20 DUP2 ADD SWAP1 POP PUSH3 0xB7A JUMP JUMPDEST DUP7 DUP4 LT ISZERO PUSH3 0xBC1 JUMPI DUP5 DUP10 ADD MLOAD PUSH3 0xBBD PUSH1 0x1F DUP10 AND DUP3 PUSH3 0xAB1 JUMP JUMPDEST DUP4 SSTORE POP JUMPDEST PUSH1 0x1 PUSH1 0x2 DUP9 MUL ADD DUP9 SSTORE POP POP POP JUMPDEST POP POP POP POP POP POP JUMP JUMPDEST PUSH32 0x4E487B7100000000000000000000000000000000000000000000000000000000 PUSH1 0x0 MSTORE PUSH1 0x11 PUSH1 0x4 MSTORE PUSH1 0x24 PUSH1 0x0 REVERT JUMPDEST PUSH1 0x0 DUP2 PUSH1 0x1 SHR SWAP1 POP SWAP2 SWAP1 POP JUMP JUMPDEST PUSH1 0x0 DUP1 DUP3 SWAP2 POP DUP4 SWAP1 POP JUMPDEST PUSH1 0x1 DUP6 GT ISZERO PUSH3 0xC64 JUMPI DUP1 DUP7 DIV DUP2 GT ISZERO PUSH3 0xC3C JUMPI PUSH3 0xC3B PUSH3 0xBD6 JUMP JUMPDEST JUMPDEST PUSH1 0x1 DUP6 AND ISZERO PUSH3 0xC4C JUMPI DUP1 DUP3 MUL SWAP2 POP JUMPDEST DUP1 DUP2 MUL SWAP1 POP PUSH3 0xC5C DUP6 PUSH3 0xC05 JUMP JUMPDEST SWAP5 POP PUSH3 0xC1C JUMP JUMPDEST SWAP5 POP SWAP5 SWAP3 POP POP POP JUMP JUMPDEST PUSH1 0x0 DUP3 PUSH3 0xC7F JUMPI PUSH1 0x1 SWAP1 POP PUSH3 0xD52 JUMP JUMPDEST DUP2 PUSH3 0xC8F JUMPI PUSH1 0x0 SWAP1 POP PUSH3 0xD52 JUMP JUMPDEST DUP2 PUSH1 0x1 DUP2 EQ PUSH3 0xCA8 JUMPI PUSH1 0x2 DUP2 EQ PUSH3 0xCB3 JUMPI PUSH3 0xCE9 JUMP JUMPDEST PUSH1 0x1 SWAP2 POP POP PUSH3 0xD52 JUMP JUMPDEST PUSH1 0xFF DUP5 GT ISZERO PUSH3 0xCC8 JUMPI PUSH3 0xCC7 PUSH3 0xBD6 JUMP JUMPDEST JUMPDEST DUP4 PUSH1 0x2 EXP SWAP2 POP DUP5 DUP3 GT ISZERO PUSH3 0xCE2 JUMPI PUSH3 0xCE1 PUSH3 0xBD6 JUMP JUMPDEST JUMPDEST POP PUSH3 0xD52 JUMP JUMPDEST POP PUSH1 0x20 DUP4 LT PUSH2 0x133 DUP4 LT AND PUSH1 0x4E DUP5 LT PUSH1 0xB DUP5 LT AND OR ISZERO PUSH3 0xD23 JUMPI DUP3 DUP3 EXP SWAP1 POP DUP4 DUP2 GT ISZERO PUSH3 0xD1D JUMPI PUSH3 0xD1C PUSH3 0xBD6 JUMP JUMPDEST JUMPDEST PUSH3 0xD52 JUMP JUMPDEST PUSH3 0xD32 DUP5 DUP5 DUP5 PUSH1 0x1 PUSH3 0xC12 JUMP JUMPDEST SWAP3 POP SWAP1 POP DUP2 DUP5 DIV DUP2 GT ISZERO PUSH3 0xD4C JUMPI PUSH3 0xD4B PUSH3 0xBD6 JUMP JUMPDEST JUMPDEST DUP2 DUP2 MUL SWAP1 POP JUMPDEST SWAP4 SWAP3 POP POP POP JUMP JUMPDEST PUSH1 0x0 PUSH1 0xFF DUP3 AND SWAP1 POP SWAP2 SWAP1 POP JUMP JUMPDEST PUSH1 0x0 PUSH3 0xD73 DUP3 PUSH3 0x99B JUMP JUMPDEST SWAP2 POP PUSH3 0xD80 DUP4 PUSH3 0xD59 JUMP JUMPDEST SWAP3 POP PUSH3 0xDAF PUSH32 0xFFFFFFFFFFFFFFFFFFFFFFFFFFFFFFFFFFFFFFFFFFFFFFFFFFFFFFFFFFFFFFFF DUP5 DUP5 PUSH3 0xC6D JUMP JUMPDEST SWAP1 POP SWAP3 SWAP2 POP POP JUMP JUMPDEST PUSH1 0x0 PUSH3 0xDC4 DUP3 PUSH3 0x99B JUMP JUMPDEST SWAP2 POP PUSH3 0xDD1 DUP4 PUSH3 0x99B JUMP JUMPDEST SWAP3 POP DUP3 DUP3 MUL PUSH3 0xDE1 DUP2 PUSH3 0x99B JUMP JUMPDEST SWAP2 POP DUP3 DUP3 DIV DUP5 EQ DUP4 ISZERO OR PUSH3 0xDFB JUMPI PUSH3 0xDFA PUSH3 0xBD6 JUMP JUMPDEST JUMPDEST POP SWAP3 SWAP2 POP POP JUMP JUMPDEST PUSH1 0x0 DUP1 REVERT JUMPDEST PUSH1 0x0 PUSH20 0xFFFFFFFFFFFFFFFFFFFFFFFFFFFFFFFFFFFFFFFF DUP3 AND SWAP1 POP SWAP2 SWAP1 POP JUMP JUMPDEST PUSH1 0x0 PUSH3 0xE34 DUP3 PUSH3 0xE07 JUMP JUMPDEST SWAP1 POP SWAP2 SWAP1 POP JUMP JUMPDEST PUSH3 0xE46 DUP2 PUSH3 0xE27 JUMP JUMPDEST DUP2 EQ PUSH3 0xE52 JUMPI PUSH1 0x0 DUP1 REVERT JUMPDEST POP JUMP JUMPDEST PUSH1 0x0 DUP2 MLOAD SWAP1 POP PUSH3 0xE66 DUP2 PUSH3 0xE3B JUMP JUMPDEST SWAP3 SWAP2 POP POP JUMP JUMPDEST PUSH1 0x0 PUSH1 0x20 DUP3 DUP5 SUB SLT ISZERO PUSH3 0xE85 JUMPI PUSH3 0xE84 PUSH3 0xE02 JUMP JUMPDEST JUMPDEST PUSH1 0x0 PUSH3 0xE95 DUP5 DUP3 DUP6 ADD PUSH3 0xE55 JUMP JUMPDEST SWAP2 POP POP SWAP3 SWAP2 POP POP JUMP JUMPDEST PUSH3 0xEA9 DUP2 PUSH3 0xE27 JUMP JUMPDEST DUP3 MSTORE POP POP JUMP JUMPDEST PUSH1 0x0 PUSH1 0x40 DUP3 ADD SWAP1 POP PUSH3 0xEC6 PUSH1 0x0 DUP4 ADD DUP6 PUSH3 0xE9E JUMP JUMPDEST PUSH3 0xED5 PUSH1 0x20 DUP4 ADD DUP5 PUSH3 0xE9E JUMP JUMPDEST SWAP4 SWAP3 POP POP POP JUMP JUMPDEST PUSH3 0xEE7 DUP2 PUSH3 0x99B JUMP JUMPDEST DUP3 MSTORE POP POP JUMP JUMPDEST PUSH1 0x0 PUSH1 0x20 DUP3 ADD SWAP1 POP PUSH3 0xF04 PUSH1 0x0 DUP4 ADD DUP5 PUSH3 0xEDC JUMP JUMPDEST SWAP3 SWAP2 POP POP JUMP JUMPDEST PUSH2 0x3087 DUP1 PUSH3 0xF1A PUSH1 0x0 CODECOPY PUSH1 0x0 RETURN INVALID PUSH1 0x80 PUSH1 0x40 MSTORE PUSH1 0x4 CALLDATASIZE LT PUSH2 0x1D1 JUMPI PUSH1 0x0 CALLDATALOAD PUSH1 0xE0 SHR DUP1 PUSH4 0x70A08231 GT PUSH2 0xF7 JUMPI DUP1 PUSH4 0xA1CA5347 GT PUSH2 0x95 JUMPI DUP1 PUSH4 0xDA00097D GT PUSH2 0x64 JUMPI DUP1 PUSH4 0xDA00097D EQ PUSH2 0x6B1 JUMPI DUP1 PUSH4 0xDD62ED3E EQ PUSH2 0x6DC JUMPI DUP1 PUSH4 0xEF422A18 EQ PUSH2 0x719 JUMPI DUP1 PUSH4 0xF2FDE38B EQ PUSH2 0x742 JUMPI PUSH2 0x1D8 JUMP JUMPDEST DUP1 PUSH4 0xA1CA5347 EQ PUSH2 0x5E1 JUMPI DUP1 PUSH4 0xA457C2D7 EQ PUSH2 0x60C JUMPI DUP1 PUSH4 0xA9059CBB EQ PUSH2 0x649 JUMPI DUP1 PUSH4 0xC816841B EQ PUSH2 0x686 JUMPI PUSH2 0x1D8 JUMP JUMPDEST DUP1 PUSH4 0x8DA5CB5B GT PUSH2 0xD1 JUMPI DUP1 PUSH4 0x8DA5CB5B EQ PUSH2 0x549 JUMPI DUP1 PUSH4 0x914EB66A EQ PUSH2 0x574 JUMPI DUP1 PUSH4 0x95D89B41 EQ PUSH2 0x58B JUMPI DUP1 PUSH4 0xA073D37F EQ PUSH2 0x5B6 JUMPI PUSH2 0x1D8 JUMP JUMPDEST DUP1 PUSH4 0x70A08231 EQ PUSH2 0x4B8 JUMPI DUP1 PUSH4 0x75F0A874 EQ PUSH2 0x4F5 JUMPI DUP1 PUSH4 0x844D591C EQ PUSH2 0x520 JUMPI PUSH2 0x1D8 JUMP JUMPDEST DUP1 PUSH4 0x2B112E49 GT PUSH2 0x16F JUMPI DUP1 PUSH4 0x3ECAD271 GT PUSH2 0x13E JUMPI DUP1 PUSH4 0x3ECAD271 EQ PUSH2 0x3EA JUMPI DUP1 PUSH4 0x4A74BB02 EQ PUSH2 0x427 JUMPI DUP1 PUSH4 0x5342ACB4 EQ PUSH2 0x452 JUMPI DUP1 PUSH4 0x5D098B38 EQ PUSH2 0x48F JUMPI PUSH2 0x1D8 JUMP JUMPDEST DUP1 PUSH4 0x2B112E49 EQ PUSH2 0x32E JUMPI DUP1 PUSH4 0x313CE567 EQ PUSH2 0x359 JUMPI DUP1 PUSH4 0x39509351 EQ PUSH2 0x384 JUMPI DUP1 PUSH4 0x3B97084A EQ PUSH2 0x3C1 JUMPI PUSH2 0x1D8 JUMP JUMPDEST DUP1 PUSH4 0x18160DDD GT PUSH2 0x1AB JUMPI DUP1 PUSH4 0x18160DDD EQ PUSH2 0x270 JUMPI DUP1 PUSH4 0x22976E0D EQ PUSH2 0x29B JUMPI DUP1 PUSH4 0x23B872DD EQ PUSH2 0x2C6 JUMPI DUP1 PUSH4 0x27C8F835 EQ PUSH2 0x303 JUMPI PUSH2 0x1D8 JUMP JUMPDEST DUP1 PUSH4 0x6FDDE03 EQ PUSH2 0x1DD JUMPI DUP1 PUSH4 0x95EA7B3 EQ PUSH2 0x208 JUMPI DUP1 PUSH4 0x1694505E EQ PUSH2 0x245 JUMPI PUSH2 0x1D8 JUMP JUMPDEST CALLDATASIZE PUSH2 0x1D8 JUMPI STOP JUMPDEST PUSH1 0x0 DUP1 REVERT JUMPDEST CALLVALUE DUP1 ISZERO PUSH2 0x1E9 JUMPI PUSH1 0x0 DUP1 REVERT JUMPDEST POP PUSH2 0x1F2 PUSH2 0x76B JUMP JUMPDEST PUSH1 0x40 MLOAD PUSH2 0x1FF SWAP2 SWAP1 PUSH2 0x2410 JUMP JUMPDEST PUSH1 0x40 MLOAD DUP1 SWAP2 SUB SWAP1 RETURN JUMPDEST CALLVALUE DUP1 ISZERO PUSH2 0x214 JUMPI PUSH1 0x0 DUP1 REVERT JUMPDEST POP PUSH2 0x22F PUSH1 0x4 DUP1 CALLDATASIZE SUB DUP2 ADD SWAP1 PUSH2 0x22A SWAP2 SWAP1 PUSH2 0x24CB JUMP JUMPDEST PUSH2 0x7FD JUMP JUMPDEST PUSH1 0x40 MLOAD PUSH2 0x23C SWAP2 SWAP1 PUSH2 0x2526 JUMP JUMPDEST PUSH1 0x40 MLOAD DUP1 SWAP2 SUB SWAP1 RETURN JUMPDEST CALLVALUE DUP1 ISZERO PUSH2 0x251 JUMPI PUSH1 0x0 DUP1 REVERT JUMPDEST POP PUSH2 0x25A PUSH2 0x81B JUMP JUMPDEST PUSH1 0x40 MLOAD PUSH2 0x267 SWAP2 SWAP1 PUSH2 0x25A0 JUMP JUMPDEST PUSH1 0x40 MLOAD DUP1 SWAP2 SUB SWAP1 RETURN JUMPDEST CALLVALUE DUP1 ISZERO PUSH2 0x27C JUMPI PUSH1 0x0 DUP1 REVERT JUMPDEST POP PUSH2 0x285 PUSH2 0x841 JUMP JUMPDEST PUSH1 0x40 MLOAD PUSH2 0x292 SWAP2 SWAP1 PUSH2 0x25CA JUMP JUMPDEST PUSH1 0x40 MLOAD DUP1 SWAP2 SUB SWAP1 RETURN JUMPDEST CALLVALUE DUP1 ISZERO PUSH2 0x2A7 JUMPI PUSH1 0x0 DUP1 REVERT JUMPDEST POP PUSH2 0x2B0 PUSH2 0x84B JUMP JUMPDEST PUSH1 0x40 MLOAD PUSH2 0x2BD SWAP2 SWAP1 PUSH2 0x25CA JUMP JUMPDEST PUSH1 0x40 MLOAD DUP1 SWAP2 SUB SWAP1 RETURN JUMPDEST CALLVALUE DUP1 ISZERO PUSH2 0x2D2 JUMPI PUSH1 0x0 DUP1 REVERT JUMPDEST POP PUSH2 0x2ED PUSH1 0x4 DUP1 CALLDATASIZE SUB DUP2 ADD SWAP1 PUSH2 0x2E8 SWAP2 SWAP1 PUSH2 0x25E5 JUMP JUMPDEST PUSH2 0x851 JUMP JUMPDEST PUSH1 0x40 MLOAD PUSH2 0x2FA SWAP2 SWAP1 PUSH2 0x2526 JUMP JUMPDEST PUSH1 0x40 MLOAD DUP1 SWAP2 SUB SWAP1 RETURN JUMPDEST CALLVALUE DUP1 ISZERO PUSH2 0x30F JUMPI PUSH1 0x0 DUP1 REVERT JUMPDEST POP PUSH2 0x318 PUSH2 0x92B JUMP JUMPDEST PUSH1 0x40 MLOAD PUSH2 0x325 SWAP2 SWAP1 PUSH2 0x2647 JUMP JUMPDEST PUSH1 0x40 MLOAD DUP1 SWAP2 SUB SWAP1 RETURN JUMPDEST CALLVALUE DUP1 ISZERO PUSH2 0x33A JUMPI PUSH1 0x0 DUP1 REVERT JUMPDEST POP PUSH2 0x343 PUSH2 0x951 JUMP JUMPDEST PUSH1 0x40 MLOAD PUSH2 0x350 SWAP2 SWAP1 PUSH2 0x25CA JUMP JUMPDEST PUSH1 0x40 MLOAD DUP1 SWAP2 SUB SWAP1 RETURN JUMPDEST CALLVALUE DUP1 ISZERO PUSH2 0x365 JUMPI PUSH1 0x0 DUP1 REVERT JUMPDEST POP PUSH2 0x36E PUSH2 0x997 JUMP JUMPDEST PUSH1 0x40 MLOAD PUSH2 0x37B SWAP2 SWAP1 PUSH2 0x267E JUMP JUMPDEST PUSH1 0x40 MLOAD DUP1 SWAP2 SUB SWAP1 RETURN JUMPDEST CALLVALUE DUP1 ISZERO PUSH2 0x390 JUMPI PUSH1 0x0 DUP1 REVERT JUMPDEST POP PUSH2 0x3AB PUSH1 0x4 DUP1 CALLDATASIZE SUB DUP2 ADD SWAP1 PUSH2 0x3A6 SWAP2 SWAP1 PUSH2 0x24CB JUMP JUMPDEST PUSH2 0x9AE JUMP JUMPDEST PUSH1 0x40 MLOAD PUSH2 0x3B8 SWAP2 SWAP1 PUSH2 0x2526 JUMP JUMPDEST PUSH1 0x40 MLOAD DUP1 SWAP2 SUB SWAP1 RETURN JUMPDEST CALLVALUE DUP1 ISZERO PUSH2 0x3CD JUMPI PUSH1 0x0 DUP1 REVERT JUMPDEST POP PUSH2 0x3E8 PUSH1 0x4 DUP1 CALLDATASIZE SUB DUP2 ADD SWAP1 PUSH2 0x3E3 SWAP2 SWAP1 PUSH2 0x2699 JUMP JUMPDEST PUSH2 0xA61 JUMP JUMPDEST STOP JUMPDEST CALLVALUE DUP1 ISZERO PUSH2 0x3F6 JUMPI PUSH1 0x0 DUP1 REVERT JUMPDEST POP PUSH2 0x411 PUSH1 0x4 DUP1 CALLDATASIZE SUB DUP2 ADD SWAP1 PUSH2 0x40C SWAP2 SWAP1 PUSH2 0x26C6 JUMP JUMPDEST PUSH2 0xB00 JUMP JUMPDEST PUSH1 0x40 MLOAD PUSH2 0x41E SWAP2 SWAP1 PUSH2 0x2526 JUMP JUMPDEST PUSH1 0x40 MLOAD DUP1 SWAP2 SUB SWAP1 RETURN JUMPDEST CALLVALUE DUP1 ISZERO PUSH2 0x433 JUMPI PUSH1 0x0 DUP1 REVERT JUMPDEST POP PUSH2 0x43C PUSH2 0xB20 JUMP JUMPDEST PUSH1 0x40 MLOAD PUSH2 0x449 SWAP2 SWAP1 PUSH2 0x2526 JUMP JUMPDEST PUSH1 0x40 MLOAD DUP1 SWAP2 SUB SWAP1 RETURN JUMPDEST CALLVALUE DUP1 ISZERO PUSH2 0x45E JUMPI PUSH1 0x0 DUP1 REVERT JUMPDEST POP PUSH2 0x479 PUSH1 0x4 DUP1 CALLDATASIZE SUB DUP2 ADD SWAP1 PUSH2 0x474 SWAP2 SWAP1 PUSH2 0x26C6 JUMP JUMPDEST PUSH2 0xB33 JUMP JUMPDEST PUSH1 0x40 MLOAD PUSH2 0x486 SWAP2 SWAP1 PUSH2 0x2526 JUMP JUMPDEST PUSH1 0x40 MLOAD DUP1 SWAP2 SUB SWAP1 RETURN JUMPDEST CALLVALUE DUP1 ISZERO PUSH2 0x49B JUMPI PUSH1 0x0 DUP1 REVERT JUMPDEST POP PUSH2 0x4B6 PUSH1 0x4 DUP1 CALLDATASIZE SUB DUP2 ADD SWAP1 PUSH2 0x4B1 SWAP2 SWAP1 PUSH2 0x2731 JUMP JUMPDEST PUSH2 0xB53 JUMP JUMPDEST STOP JUMPDEST CALLVALUE DUP1 ISZERO PUSH2 0x4C4 JUMPI PUSH1 0x0 DUP1 REVERT JUMPDEST POP PUSH2 0x4DF PUSH1 0x4 DUP1 CALLDATASIZE SUB DUP2 ADD SWAP1 PUSH2 0x4DA SWAP2 SWAP1 PUSH2 0x26C6 JUMP JUMPDEST PUSH2 0xC2C JUMP JUMPDEST PUSH1 0x40 MLOAD PUSH2 0x4EC SWAP2 SWAP1 PUSH2 0x25CA JUMP JUMPDEST PUSH1 0x40 MLOAD DUP1 SWAP2 SUB SWAP1 RETURN JUMPDEST CALLVALUE DUP1 ISZERO PUSH2 0x501 JUMPI PUSH1 0x0 DUP1 REVERT JUMPDEST POP PUSH2 0x50A PUSH2 0xC75 JUMP JUMPDEST PUSH1 0x40 MLOAD PUSH2 0x517 SWAP2 SWAP1 PUSH2 0x276D JUMP JUMPDEST PUSH1 0x40 MLOAD DUP1 SWAP2 SUB SWAP1 RETURN JUMPDEST CALLVALUE DUP1 ISZERO PUSH2 0x52C JUMPI PUSH1 0x0 DUP1 REVERT JUMPDEST POP PUSH2 0x547 PUSH1 0x4 DUP1 CALLDATASIZE SUB DUP2 ADD SWAP1 PUSH2 0x542 SWAP2 SWAP1 PUSH2 0x27B4 JUMP JUMPDEST PUSH2 0xC9B JUMP JUMPDEST STOP JUMPDEST CALLVALUE DUP1 ISZERO PUSH2 0x555 JUMPI PUSH1 0x0 DUP1 REVERT JUMPDEST POP PUSH2 0x55E PUSH2 0xD8B JUMP JUMPDEST PUSH1 0x40 MLOAD PUSH2 0x56B SWAP2 SWAP1 PUSH2 0x2647 JUMP JUMPDEST PUSH1 0x40 MLOAD DUP1 SWAP2 SUB SWAP1 RETURN JUMPDEST CALLVALUE DUP1 ISZERO PUSH2 0x580 JUMPI PUSH1 0x0 DUP1 REVERT JUMPDEST POP PUSH2 0x589 PUSH2 0xDB4 JUMP JUMPDEST STOP JUMPDEST CALLVALUE DUP1 ISZERO PUSH2 0x597 JUMPI PUSH1 0x0 DUP1 REVERT JUMPDEST POP PUSH2 0x5A0 PUSH2 0xF07 JUMP JUMPDEST PUSH1 0x40 MLOAD PUSH2 0x5AD SWAP2 SWAP1 PUSH2 0x2410 JUMP JUMPDEST PUSH1 0x40 MLOAD DUP1 SWAP2 SUB SWAP1 RETURN JUMPDEST CALLVALUE DUP1 ISZERO PUSH2 0x5C2 JUMPI PUSH1 0x0 DUP1 REVERT JUMPDEST POP PUSH2 0x5CB PUSH2 0xF99 JUMP JUMPDEST PUSH1 0x40 MLOAD PUSH2 0x5D8 SWAP2 SWAP1 PUSH2 0x25CA JUMP JUMPDEST PUSH1 0x40 MLOAD DUP1 SWAP2 SUB SWAP1 RETURN JUMPDEST CALLVALUE DUP1 ISZERO PUSH2 0x5ED JUMPI PUSH1 0x0 DUP1 REVERT JUMPDEST POP PUSH2 0x5F6 PUSH2 0xFA3 JUMP JUMPDEST PUSH1 0x40 MLOAD PUSH2 0x603 SWAP2 SWAP1 PUSH2 0x25CA JUMP JUMPDEST PUSH1 0x40 MLOAD DUP1 SWAP2 SUB SWAP1 RETURN JUMPDEST CALLVALUE DUP1 ISZERO PUSH2 0x618 JUMPI PUSH1 0x0 DUP1 REVERT JUMPDEST POP PUSH2 0x633 PUSH1 0x4 DUP1 CALLDATASIZE SUB DUP2 ADD SWAP1 PUSH2 0x62E SWAP2 SWAP1 PUSH2 0x24CB JUMP JUMPDEST PUSH2 0xFA9 JUMP JUMPDEST PUSH1 0x40 MLOAD PUSH2 0x640 SWAP2 SWAP1 PUSH2 0x2526 JUMP JUMPDEST PUSH1 0x40 MLOAD DUP1 SWAP2 SUB SWAP1 RETURN JUMPDEST CALLVALUE DUP1 ISZERO PUSH2 0x655 JUMPI PUSH1 0x0 DUP1 REVERT JUMPDEST POP PUSH2 0x670 PUSH1 0x4 DUP1 CALLDATASIZE SUB DUP2 ADD SWAP1 PUSH2 0x66B SWAP2 SWAP1 PUSH2 0x24CB JUMP JUMPDEST PUSH2 0x1076 JUMP JUMPDEST PUSH1 0x40 MLOAD PUSH2 0x67D SWAP2 SWAP1 PUSH2 0x2526 JUMP JUMPDEST PUSH1 0x40 MLOAD DUP1 SWAP2 SUB SWAP1 RETURN JUMPDEST CALLVALUE DUP1 ISZERO PUSH2 0x692 JUMPI PUSH1 0x0 DUP1 REVERT JUMPDEST POP PUSH2 0x69B PUSH2 0x1095 JUMP JUMPDEST PUSH1 0x40 MLOAD PUSH2 0x6A8 SWAP2 SWAP1 PUSH2 0x2647 JUMP JUMPDEST PUSH1 0x40 MLOAD DUP1 SWAP2 SUB SWAP1 RETURN JUMPDEST CALLVALUE DUP1 ISZERO PUSH2 0x6BD JUMPI PUSH1 0x0 DUP1 REVERT JUMPDEST POP PUSH2 0x6C6 PUSH2 0x10BB JUMP JUMPDEST PUSH1 0x40 MLOAD PUSH2 0x6D3 SWAP2 SWAP1 PUSH2 0x2526 JUMP JUMPDEST PUSH1 0x40 MLOAD DUP1 SWAP2 SUB SWAP1 RETURN JUMPDEST CALLVALUE DUP1 ISZERO PUSH2 0x6E8 JUMPI PUSH1 0x0 DUP1 REVERT JUMPDEST POP PUSH2 0x703 PUSH1 0x4 DUP1 CALLDATASIZE SUB DUP2 ADD SWAP1 PUSH2 0x6FE SWAP2 SWAP1 PUSH2 0x27F4 JUMP JUMPDEST PUSH2 0x10CE JUMP JUMPDEST PUSH1 0x40 MLOAD PUSH2 0x710 SWAP2 SWAP1 PUSH2 0x25CA JUMP JUMPDEST PUSH1 0x40 MLOAD DUP1 SWAP2 SUB SWAP1 RETURN JUMPDEST CALLVALUE DUP1 ISZERO PUSH2 0x725 JUMPI PUSH1 0x0 DUP1 REVERT JUMPDEST POP PUSH2 0x740 PUSH1 0x4 DUP1 CALLDATASIZE SUB DUP2 ADD SWAP1 PUSH2 0x73B SWAP2 SWAP1 PUSH2 0x27B4 JUMP JUMPDEST PUSH2 0x1155 JUMP JUMPDEST STOP JUMPDEST CALLVALUE DUP1 ISZERO PUSH2 0x74E JUMPI PUSH1 0x0 DUP1 REVERT JUMPDEST POP PUSH2 0x769 PUSH1 0x4 DUP1 CALLDATASIZE SUB DUP2 ADD SWAP1 PUSH2 0x764 SWAP2 SWAP1 PUSH2 0x26C6 JUMP JUMPDEST PUSH2 0x1245 JUMP JUMPDEST STOP JUMPDEST PUSH1 0x60 PUSH1 0x1 DUP1 SLOAD PUSH2 0x77A SWAP1 PUSH2 0x2863 JUMP JUMPDEST DUP1 PUSH1 0x1F ADD PUSH1 0x20 DUP1 SWAP2 DIV MUL PUSH1 0x20 ADD PUSH1 0x40 MLOAD SWAP1 DUP2 ADD PUSH1 0x40 MSTORE DUP1 SWAP3 SWAP2 SWAP1 DUP2 DUP2 MSTORE PUSH1 0x20 ADD DUP3 DUP1 SLOAD PUSH2 0x7A6 SWAP1 PUSH2 0x2863 JUMP JUMPDEST DUP1 ISZERO PUSH2 0x7F3 JUMPI DUP1 PUSH1 0x1F LT PUSH2 0x7C8 JUMPI PUSH2 0x100 DUP1 DUP4 SLOAD DIV MUL DUP4 MSTORE SWAP2 PUSH1 0x20 ADD SWAP2 PUSH2 0x7F3 JUMP JUMPDEST DUP3 ADD SWAP2 SWAP1 PUSH1 0x0 MSTORE PUSH1 0x20 PUSH1 0x0 KECCAK256 SWAP1 JUMPDEST DUP2 SLOAD DUP2 MSTORE SWAP1 PUSH1 0x1 ADD SWAP1 PUSH1 0x20 ADD DUP1 DUP4 GT PUSH2 0x7D6 JUMPI DUP3 SWAP1 SUB PUSH1 0x1F AND DUP3 ADD SWAP2 JUMPDEST POP POP POP POP POP SWAP1 POP SWAP1 JUMP JUMPDEST PUSH1 0x0 PUSH2 0x811 PUSH2 0x80A PUSH2 0x1406 JUMP JUMPDEST DUP5 DUP5 PUSH2 0x140E JUMP JUMPDEST PUSH1 0x1 SWAP1 POP SWAP3 SWAP2 POP POP JUMP JUMPDEST PUSH1 0xD PUSH1 0x0 SWAP1 SLOAD SWAP1 PUSH2 0x100 EXP SWAP1 DIV PUSH20 0xFFFFFFFFFFFFFFFFFFFFFFFFFFFFFFFFFFFFFFFF AND DUP2 JUMP JUMPDEST PUSH1 0x0 PUSH1 0xB SLOAD SWAP1 POP SWAP1 JUMP JUMPDEST PUSH1 0x9 SLOAD DUP2 JUMP JUMPDEST PUSH1 0x0 PUSH2 0x85E DUP5 DUP5 DUP5 PUSH2 0x15D7 JUMP JUMPDEST POP PUSH2 0x920 DUP5 PUSH2 0x86B PUSH2 0x1406 JUMP JUMPDEST PUSH2 0x91B DUP6 PUSH1 0x40 MLOAD DUP1 PUSH1 0x60 ADD PUSH1 0x40 MSTORE DUP1 PUSH1 0x28 DUP2 MSTORE PUSH1 0x20 ADD PUSH2 0x3005 PUSH1 0x28 SWAP2 CODECOPY PUSH1 0x6 PUSH1 0x0 DUP12 PUSH20 0xFFFFFFFFFFFFFFFFFFFFFFFFFFFFFFFFFFFFFFFF AND PUSH20 0xFFFFFFFFFFFFFFFFFFFFFFFFFFFFFFFFFFFFFFFF AND DUP2 MSTORE PUSH1 0x20 ADD SWAP1 DUP2 MSTORE PUSH1 0x20 ADD PUSH1 0x0 KECCAK256 PUSH1 0x0 PUSH2 0x8D1 PUSH2 0x1406 JUMP JUMPDEST PUSH20 0xFFFFFFFFFFFFFFFFFFFFFFFFFFFFFFFFFFFFFFFF AND PUSH20 0xFFFFFFFFFFFFFFFFFFFFFFFFFFFFFFFFFFFFFFFF AND DUP2 MSTORE PUSH1 0x20 ADD SWAP1 DUP2 MSTORE PUSH1 0x20 ADD PUSH1 0x0 KECCAK256 SLOAD PUSH2 0x1A75 SWAP1 SWAP3 SWAP2 SWAP1 PUSH4 0xFFFFFFFF AND JUMP JUMPDEST PUSH2 0x140E JUMP JUMPDEST PUSH1 0x1 SWAP1 POP SWAP4 SWAP3 POP POP POP JUMP JUMPDEST PUSH1 0x4 PUSH1 0x0 SWAP1 SLOAD SWAP1 PUSH2 0x100 EXP SWAP1 DIV PUSH20 0xFFFFFFFFFFFFFFFFFFFFFFFFFFFFFFFFFFFFFFFF AND DUP2 JUMP JUMPDEST PUSH1 0x0 PUSH2 0x992 PUSH2 0x981 PUSH1 0x4 PUSH1 0x0 SWAP1 SLOAD SWAP1 PUSH2 0x100 EXP SWAP1 DIV PUSH20 0xFFFFFFFFFFFFFFFFFFFFFFFFFFFFFFFFFFFFFFFF AND PUSH2 0xC2C JUMP JUMPDEST PUSH1 0xB SLOAD PUSH2 0x1AD9 SWAP1 SWAP2 SWAP1 PUSH4 0xFFFFFFFF AND JUMP JUMPDEST SWAP1 POP SWAP1 JUMP JUMPDEST PUSH1 0x0 PUSH1 0x3 PUSH1 0x0 SWAP1 SLOAD SWAP1 PUSH2 0x100 EXP SWAP1 DIV PUSH1 0xFF AND SWAP1 POP SWAP1 JUMP JUMPDEST PUSH1 0x0 PUSH2 0xA57 PUSH2 0x9BB PUSH2 0x1406 JUMP JUMPDEST DUP5 PUSH2 0xA52 DUP6 PUSH1 0x6 PUSH1 0x0 PUSH2 0x9CC PUSH2 0x1406 JUMP JUMPDEST PUSH20 0xFFFFFFFFFFFFFFFFFFFFFFFFFFFFFFFFFFFFFFFF AND PUSH20 0xFFFFFFFFFFFFFFFFFFFFFFFFFFFFFFFFFFFFFFFF AND DUP2 MSTORE PUSH1 0x20 ADD SWAP1 DUP2 MSTORE PUSH1 0x20 ADD PUSH1 0x0 KECCAK256 PUSH1 0x0 DUP10 PUSH20 0xFFFFFFFFFFFFFFFFFFFFFFFFFFFFFFFFFFFFFFFF AND PUSH20 0xFFFFFFFFFFFFFFFFFFFFFFFFFFFFFFFFFFFFFFFF AND DUP2 MSTORE PUSH1 0x20 ADD SWAP1 DUP2 MSTORE PUSH1 0x20 ADD PUSH1 0x0 KECCAK256 SLOAD PUSH2 0x1B23 SWAP1 SWAP2 SWAP1 PUSH4 0xFFFFFFFF AND JUMP JUMPDEST PUSH2 0x140E JUMP JUMPDEST PUSH1 0x1 SWAP1 POP SWAP3 SWAP2 POP POP JUMP JUMPDEST PUSH2 0xA69 PUSH2 0x1406 JUMP JUMPDEST PUSH20 0xFFFFFFFFFFFFFFFFFFFFFFFFFFFFFFFFFFFFFFFF AND PUSH1 0x0 DUP1 SLOAD SWAP1 PUSH2 0x100 EXP SWAP1 DIV PUSH20 0xFFFFFFFFFFFFFFFFFFFFFFFFFFFFFFFFFFFFFFFF AND PUSH20 0xFFFFFFFFFFFFFFFFFFFFFFFFFFFFFFFFFFFFFFFF AND EQ PUSH2 0xAF6 JUMPI PUSH1 0x40 MLOAD PUSH32 0x8C379A000000000000000000000000000000000000000000000000000000000 DUP2 MSTORE PUSH1 0x4 ADD PUSH2 0xAED SWAP1 PUSH2 0x28E0 JUMP JUMPDEST PUSH1 0x40 MLOAD DUP1 SWAP2 SUB SWAP1 REVERT JUMPDEST DUP1 PUSH1 0xC DUP2 SWAP1 SSTORE POP POP JUMP JUMPDEST PUSH1 0x8 PUSH1 0x20 MSTORE DUP1 PUSH1 0x0 MSTORE PUSH1 0x40 PUSH1 0x0 KECCAK256 PUSH1 0x0 SWAP2 POP SLOAD SWAP1 PUSH2 0x100 EXP SWAP1 DIV PUSH1 0xFF AND DUP2 JUMP JUMPDEST PUSH1 0xE PUSH1 0x15 SWAP1 SLOAD SWAP1 PUSH2 0x100 EXP SWAP1 DIV PUSH1 0xFF AND DUP2 JUMP JUMPDEST PUSH1 0x7 PUSH1 0x20 MSTORE DUP1 PUSH1 0x0 MSTORE PUSH1 0x40 PUSH1 0x0 KECCAK256 PUSH1 0x0 SWAP2 POP SLOAD SWAP1 PUSH2 0x100 EXP SWAP1 DIV PUSH1 0xFF AND DUP2 JUMP JUMPDEST PUSH2 0xB5B PUSH2 0x1406 JUMP JUMPDEST PUSH20 0xFFFFFFFFFFFFFFFFFFFFFFFFFFFFFFFFFFFFFFFF AND PUSH1 0x0 DUP1 SLOAD SWAP1 PUSH2 0x100 EXP SWAP1 DIV PUSH20 0xFFFFFFFFFFFFFFFFFFFFFFFFFFFFFFFFFFFFFFFF AND PUSH20 0xFFFFFFFFFFFFFFFFFFFFFFFFFFFFFFFFFFFFFFFF AND EQ PUSH2 0xBE8 JUMPI PUSH1 0x40 MLOAD PUSH32 0x8C379A000000000000000000000000000000000000000000000000000000000 DUP2 MSTORE PUSH1 0x4 ADD PUSH2 0xBDF SWAP1 PUSH2 0x28E0 JUMP JUMPDEST PUSH1 0x40 MLOAD DUP1 SWAP2 SUB SWAP1 REVERT JUMPDEST DUP1 PUSH1 0x3 PUSH1 0x1 PUSH2 0x100 EXP DUP2 SLOAD DUP2 PUSH20 0xFFFFFFFFFFFFFFFFFFFFFFFFFFFFFFFFFFFFFFFF MUL NOT AND SWAP1 DUP4 PUSH20 0xFFFFFFFFFFFFFFFFFFFFFFFFFFFFFFFFFFFFFFFF AND MUL OR SWAP1 SSTORE POP POP JUMP JUMPDEST PUSH1 0x0 PUSH1 0x5 PUSH1 0x0 DUP4 PUSH20 0xFFFFFFFFFFFFFFFFFFFFFFFFFFFFFFFFFFFFFFFF AND PUSH20 0xFFFFFFFFFFFFFFFFFFFFFFFFFFFFFFFFFFFFFFFF AND DUP2 MSTORE PUSH1 0x20 ADD SWAP1 DUP2 MSTORE PUSH1 0x20 ADD PUSH1 0x0 KECCAK256 SLOAD SWAP1 POP SWAP2 SWAP1 POP JUMP JUMPDEST PUSH1 0x3 PUSH1 0x1 SWAP1 SLOAD SWAP1 PUSH2 0x100 EXP SWAP1 DIV PUSH20 0xFFFFFFFFFFFFFFFFFFFFFFFFFFFFFFFFFFFFFFFF AND DUP2 JUMP JUMPDEST PUSH2 0xCA3 PUSH2 0x1406 JUMP JUMPDEST PUSH20 0xFFFFFFFFFFFFFFFFFFFFFFFFFFFFFFFFFFFFFFFF AND PUSH1 0x0 DUP1 SLOAD SWAP1 PUSH2 0x100 EXP SWAP1 DIV PUSH20 0xFFFFFFFFFFFFFFFFFFFFFFFFFFFFFFFFFFFFFFFF AND PUSH20 0xFFFFFFFFFFFFFFFFFFFFFFFFFFFFFFFFFFFFFFFF AND EQ PUSH2 0xD30 JUMPI PUSH1 0x40 MLOAD PUSH32 0x8C379A000000000000000000000000000000000000000000000000000000000 DUP2 MSTORE PUSH1 0x4 ADD PUSH2 0xD27 SWAP1 PUSH2 0x28E0 JUMP JUMPDEST PUSH1 0x40 MLOAD DUP1 SWAP2 SUB SWAP1 REVERT JUMPDEST DUP1 PUSH1 0x8 PUSH1 0x0 DUP5 PUSH20 0xFFFFFFFFFFFFFFFFFFFFFFFFFFFFFFFFFFFFFFFF AND PUSH20 0xFFFFFFFFFFFFFFFFFFFFFFFFFFFFFFFFFFFFFFFF AND DUP2 MSTORE PUSH1 0x20 ADD SWAP1 DUP2 MSTORE PUSH1 0x20 ADD PUSH1 0x0 KECCAK256 PUSH1 0x0 PUSH2 0x100 EXP DUP2 SLOAD DUP2 PUSH1 0xFF MUL NOT AND SWAP1 DUP4 ISZERO ISZERO MUL OR SWAP1 SSTORE POP POP POP JUMP JUMPDEST PUSH1 0x0 DUP1 PUSH1 0x0 SWAP1 SLOAD SWAP1 PUSH2 0x100 EXP SWAP1 DIV PUSH20 0xFFFFFFFFFFFFFFFFFFFFFFFFFFFFFFFFFFFFFFFF AND SWAP1 POP SWAP1 JUMP JUMPDEST PUSH2 0xDBC PUSH2 0x1406 JUMP JUMPDEST PUSH20 0xFFFFFFFFFFFFFFFFFFFFFFFFFFFFFFFFFFFFFFFF AND PUSH1 0x0 DUP1 SLOAD SWAP1 PUSH2 0x100 EXP SWAP1 DIV PUSH20 0xFFFFFFFFFFFFFFFFFFFFFFFFFFFFFFFFFFFFFFFF AND PUSH20 0xFFFFFFFFFFFFFFFFFFFFFFFFFFFFFFFFFFFFFFFF AND EQ PUSH2 0xE49 JUMPI PUSH1 0x40 MLOAD PUSH32 0x8C379A000000000000000000000000000000000000000000000000000000000 DUP2 MSTORE PUSH1 0x4 ADD PUSH2 0xE40 SWAP1 PUSH2 0x28E0 JUMP JUMPDEST PUSH1 0x40 MLOAD DUP1 SWAP2 SUB SWAP1 REVERT JUMPDEST PUSH1 0x0 PUSH20 0xFFFFFFFFFFFFFFFFFFFFFFFFFFFFFFFFFFFFFFFF AND PUSH1 0x0 DUP1 SLOAD SWAP1 PUSH2 0x100 EXP SWAP1 DIV PUSH20 0xFFFFFFFFFFFFFFFFFFFFFFFFFFFFFFFFFFFFFFFF AND PUSH20 0xFFFFFFFFFFFFFFFFFFFFFFFFFFFFFFFFFFFFFFFF AND PUSH32 0x8BE0079C531659141344CD1FD0A4F28419497F9722A3DAAFE3B4186F6B6457E0 PUSH1 0x40 MLOAD PUSH1 0x40 MLOAD DUP1 SWAP2 SUB SWAP1 LOG3 PUSH1 0x0 DUP1 PUSH1 0x0 PUSH2 0x100 EXP DUP2 SLOAD DUP2 PUSH20 0xFFFFFFFFFFFFFFFFFFFFFFFFFFFFFFFFFFFFFFFF MUL NOT AND SWAP1 DUP4 PUSH20 0xFFFFFFFFFFFFFFFFFFFFFFFFFFFFFFFFFFFFFFFF AND MUL OR SWAP1 SSTORE POP JUMP JUMPDEST PUSH1 0x60 PUSH1 0x2 DUP1 SLOAD PUSH2 0xF16 SWAP1 PUSH2 0x2863 JUMP JUMPDEST DUP1 PUSH1 0x1F ADD PUSH1 0x20 DUP1 SWAP2 DIV MUL PUSH1 0x20 ADD PUSH1 0x40 MLOAD SWAP1 DUP2 ADD PUSH1 0x40 MSTORE DUP1 SWAP3 SWAP2 SWAP1 DUP2 DUP2 MSTORE PUSH1 0x20 ADD DUP3 DUP1 SLOAD PUSH2 0xF42 SWAP1 PUSH2 0x2863 JUMP JUMPDEST DUP1 ISZERO PUSH2 0xF8F JUMPI DUP1 PUSH1 0x1F LT PUSH2 0xF64 JUMPI PUSH2 0x100 DUP1 DUP4 SLOAD DIV MUL DUP4 MSTORE SWAP2 PUSH1 0x20 ADD SWAP2 PUSH2 0xF8F JUMP JUMPDEST DUP3 ADD SWAP2 SWAP1 PUSH1 0x0 MSTORE PUSH1 0x20 PUSH1 0x0 KECCAK256 SWAP1 JUMPDEST DUP2 SLOAD DUP2 MSTORE SWAP1 PUSH1 0x1 ADD SWAP1 PUSH1 0x20 ADD DUP1 DUP4 GT PUSH2 0xF72 JUMPI DUP3 SWAP1 SUB PUSH1 0x1F AND DUP3 ADD SWAP2 JUMPDEST POP POP POP POP POP SWAP1 POP SWAP1 JUMP JUMPDEST PUSH1 0x0 PUSH1 0xC SLOAD SWAP1 POP SWAP1 JUMP JUMPDEST PUSH1 0xA SLOAD DUP2 JUMP JUMPDEST PUSH1 0x0 PUSH2 0x106C PUSH2 0xFB6 PUSH2 0x1406 JUMP JUMPDEST DUP5 PUSH2 0x1067 DUP6 PUSH1 0x40 MLOAD DUP1 PUSH1 0x60 ADD PUSH1 0x40 MSTORE DUP1 PUSH1 0x25 DUP2 MSTORE PUSH1 0x20 ADD PUSH2 0x302D PUSH1 0x25 SWAP2 CODECOPY PUSH1 0x6 PUSH1 0x0 PUSH2 0xFE0 PUSH2 0x1406 JUMP JUMPDEST PUSH20 0xFFFFFFFFFFFFFFFFFFFFFFFFFFFFFFFFFFFFFFFF AND PUSH20 0xFFFFFFFFFFFFFFFFFFFFFFFFFFFFFFFFFFFFFFFF AND DUP2 MSTORE PUSH1 0x20 ADD SWAP1 DUP2 MSTORE PUSH1 0x20 ADD PUSH1 0x0 KECCAK256 PUSH1 0x0 DUP11 PUSH20 0xFFFFFFFFFFFFFFFFFFFFFFFFFFFFFFFFFFFFFFFF AND PUSH20 0xFFFFFFFFFFFFFFFFFFFFFFFFFFFFFFFFFFFFFFFF AND DUP2 MSTORE PUSH1 0x20 ADD SWAP1 DUP2 MSTORE PUSH1 0x20 ADD PUSH1 0x0 KECCAK256 SLOAD PUSH2 0x1A75 SWAP1 SWAP3 SWAP2 SWAP1 PUSH4 0xFFFFFFFF AND JUMP JUMPDEST PUSH2 0x140E JUMP JUMPDEST PUSH1 0x1 SWAP1 POP SWAP3 SWAP2 POP POP JUMP JUMPDEST PUSH1 0x0 PUSH2 0x108A PUSH2 0x1083 PUSH2 0x1406 JUMP JUMPDEST DUP5 DUP5 PUSH2 0x15D7 JUMP JUMPDEST POP PUSH1 0x1 SWAP1 POP SWAP3 SWAP2 POP POP JUMP JUMPDEST PUSH1 0xE PUSH1 0x0 SWAP1 SLOAD SWAP1 PUSH2 0x100 EXP SWAP1 DIV PUSH20 0xFFFFFFFFFFFFFFFFFFFFFFFFFFFFFFFFFFFFFFFF AND DUP2 JUMP JUMPDEST PUSH1 0xE PUSH1 0x16 SWAP1 SLOAD SWAP1 PUSH2 0x100 EXP SWAP1 DIV PUSH1 0xFF AND DUP2 JUMP JUMPDEST PUSH1 0x0 PUSH1 0x6 PUSH1 0x0 DUP5 PUSH20 0xFFFFFFFFFFFFFFFFFFFFFFFFFFFFFFFFFFFFFFFF AND PUSH20 0xFFFFFFFFFFFFFFFFFFFFFFFFFFFFFFFFFFFFFFFF AND DUP2 MSTORE PUSH1 0x20 ADD SWAP1 DUP2 MSTORE PUSH1 0x20 ADD PUSH1 0x0 KECCAK256 PUSH1 0x0 DUP4 PUSH20 0xFFFFFFFFFFFFFFFFFFFFFFFFFFFFFFFFFFFFFFFF AND PUSH20 0xFFFFFFFFFFFFFFFFFFFFFFFFFFFFFFFFFFFFFFFF AND DUP2 MSTORE PUSH1 0x20 ADD SWAP1 DUP2 MSTORE PUSH1 0x20 ADD PUSH1 0x0 KECCAK256 SLOAD SWAP1 POP SWAP3 SWAP2 POP POP JUMP JUMPDEST PUSH2 0x115D PUSH2 0x1406 JUMP JUMPDEST PUSH20 0xFFFFFFFFFFFFFFFFFFFFFFFFFFFFFFFFFFFFFFFF AND PUSH1 0x0 DUP1 SLOAD SWAP1 PUSH2 0x100 EXP SWAP1 DIV PUSH20 0xFFFFFFFFFFFFFFFFFFFFFFFFFFFFFFFFFFFFFFFF AND PUSH20 0xFFFFFFFFFFFFFFFFFFFFFFFFFFFFFFFFFFFFFFFF AND EQ PUSH2 0x11EA JUMPI PUSH1 0x40 MLOAD PUSH32 0x8C379A000000000000000000000000000000000000000000000000000000000 DUP2 MSTORE PUSH1 0x4 ADD PUSH2 0x11E1 SWAP1 PUSH2 0x28E0 JUMP JUMPDEST PUSH1 0x40 MLOAD DUP1 SWAP2 SUB SWAP1 REVERT JUMPDEST DUP1 PUSH1 0x7 PUSH1 0x0 DUP5 PUSH20 0xFFFFFFFFFFFFFFFFFFFFFFFFFFFFFFFFFFFFFFFF AND PUSH20 0xFFFFFFFFFFFFFFFFFFFFFFFFFFFFFFFFFFFFFFFF AND DUP2 MSTORE PUSH1 0x20 ADD SWAP1 DUP2 MSTORE PUSH1 0x20 ADD PUSH1 0x0 KECCAK256 PUSH1 0x0 PUSH2 0x100 EXP DUP2 SLOAD DUP2 PUSH1 0xFF MUL NOT AND SWAP1 DUP4 ISZERO ISZERO MUL OR SWAP1 SSTORE POP POP POP JUMP JUMPDEST PUSH2 0x124D PUSH2 0x1406 JUMP JUMPDEST PUSH20 0xFFFFFFFFFFFFFFFFFFFFFFFFFFFFFFFFFFFFFFFF AND PUSH1 0x0 DUP1 SLOAD SWAP1 PUSH2 0x100 EXP SWAP1 DIV PUSH20 0xFFFFFFFFFFFFFFFFFFFFFFFFFFFFFFFFFFFFFFFF AND PUSH20 0xFFFFFFFFFFFFFFFFFFFFFFFFFFFFFFFFFFFFFFFF AND EQ PUSH2 0x12DA JUMPI PUSH1 0x40 MLOAD PUSH32 0x8C379A000000000000000000000000000000000000000000000000000000000 DUP2 MSTORE PUSH1 0x4 ADD PUSH2 0x12D1 SWAP1 PUSH2 0x28E0 JUMP JUMPDEST PUSH1 0x40 MLOAD DUP1 SWAP2 SUB SWAP1 REVERT JUMPDEST PUSH1 0x0 PUSH20 0xFFFFFFFFFFFFFFFFFFFFFFFFFFFFFFFFFFFFFFFF AND DUP2 PUSH20 0xFFFFFFFFFFFFFFFFFFFFFFFFFFFFFFFFFFFFFFFF AND SUB PUSH2 0x1349 JUMPI PUSH1 0x40 MLOAD PUSH32 0x8C379A000000000000000000000000000000000000000000000000000000000 DUP2 MSTORE PUSH1 0x4 ADD PUSH2 0x1340 SWAP1 PUSH2 0x2972 JUMP JUMPDEST PUSH1 0x40 MLOAD DUP1 SWAP2 SUB SWAP1 REVERT JUMPDEST DUP1 PUSH20 0xFFFFFFFFFFFFFFFFFFFFFFFFFFFFFFFFFFFFFFFF AND PUSH1 0x0 DUP1 SLOAD SWAP1 PUSH2 0x100 EXP SWAP1 DIV PUSH20 0xFFFFFFFFFFFFFFFFFFFFFFFFFFFFFFFFFFFFFFFF AND PUSH20 0xFFFFFFFFFFFFFFFFFFFFFFFFFFFFFFFFFFFFFFFF AND PUSH32 0x8BE0079C531659141344CD1FD0A4F28419497F9722A3DAAFE3B4186F6B6457E0 PUSH1 0x40 MLOAD PUSH1 0x40 MLOAD DUP1 SWAP2 SUB SWAP1 LOG3 DUP1 PUSH1 0x0 DUP1 PUSH2 0x100 EXP DUP2 SLOAD DUP2 PUSH20 0xFFFFFFFFFFFFFFFFFFFFFFFFFFFFFFFFFFFFFFFF MUL NOT AND SWAP1 DUP4 PUSH20 0xFFFFFFFFFFFFFFFFFFFFFFFFFFFFFFFFFFFFFFFF AND MUL OR SWAP1 SSTORE POP POP JUMP JUMPDEST PUSH1 0x0 CALLER SWAP1 POP SWAP1 JUMP JUMPDEST PUSH1 0x0 PUSH20 0xFFFFFFFFFFFFFFFFFFFFFFFFFFFFFFFFFFFFFFFF AND DUP4 PUSH20 0xFFFFFFFFFFFFFFFFFFFFFFFFFFFFFFFFFFFFFFFF AND SUB PUSH2 0x147D JUMPI PUSH1 0x40 MLOAD PUSH32 0x8C379A000000000000000000000000000000000000000000000000000000000 DUP2 MSTORE PUSH1 0x4 ADD PUSH2 0x1474 SWAP1 PUSH2 0x2A04 JUMP JUMPDEST PUSH1 0x40 MLOAD DUP1 SWAP2 SUB SWAP1 REVERT JUMPDEST PUSH1 0x0 PUSH20 0xFFFFFFFFFFFFFFFFFFFFFFFFFFFFFFFFFFFFFFFF AND DUP3 PUSH20 0xFFFFFFFFFFFFFFFFFFFFFFFFFFFFFFFFFFFFFFFF AND SUB PUSH2 0x14EC JUMPI PUSH1 0x40 MLOAD PUSH32 0x8C379A000000000000000000000000000000000000000000000000000000000 DUP2 MSTORE PUSH1 0x4 ADD PUSH2 0x14E3 SWAP1 PUSH2 0x2A96 JUMP JUMPDEST PUSH1 0x40 MLOAD DUP1 SWAP2 SUB SWAP1 REVERT JUMPDEST DUP1 PUSH1 0x6 PUSH1 0x0 DUP6 PUSH20 0xFFFFFFFFFFFFFFFFFFFFFFFFFFFFFFFFFFFFFFFF AND PUSH20 0xFFFFFFFFFFFFFFFFFFFFFFFFFFFFFFFFFFFFFFFF AND DUP2 MSTORE PUSH1 0x20 ADD SWAP1 DUP2 MSTORE PUSH1 0x20 ADD PUSH1 0x0 KECCAK256 PUSH1 0x0 DUP5 PUSH20 0xFFFFFFFFFFFFFFFFFFFFFFFFFFFFFFFFFFFFFFFF AND PUSH20 0xFFFFFFFFFFFFFFFFFFFFFFFFFFFFFFFFFFFFFFFF AND DUP2 MSTORE PUSH1 0x20 ADD SWAP1 DUP2 MSTORE PUSH1 0x20 ADD PUSH1 0x0 KECCAK256 DUP2 SWAP1 SSTORE POP DUP2 PUSH20 0xFFFFFFFFFFFFFFFFFFFFFFFFFFFFFFFFFFFFFFFF AND DUP4 PUSH20 0xFFFFFFFFFFFFFFFFFFFFFFFFFFFFFFFFFFFFFFFF AND PUSH32 0x8C5BE1E5EBEC7D5BD14F71427D1E84F3DD0314C0F7B2291E5B200AC8C7C3B925 DUP4 PUSH1 0x40 MLOAD PUSH2 0x15CA SWAP2 SWAP1 PUSH2 0x25CA JUMP JUMPDEST PUSH1 0x40 MLOAD DUP1 SWAP2 SUB SWAP1 LOG3 POP POP POP JUMP JUMPDEST PUSH1 0x0 DUP1 PUSH20 0xFFFFFFFFFFFFFFFFFFFFFFFFFFFFFFFFFFFFFFFF AND DUP5 PUSH20 0xFFFFFFFFFFFFFFFFFFFFFFFFFFFFFFFFFFFFFFFF AND SUB PUSH2 0x1647 JUMPI PUSH1 0x40 MLOAD PUSH32 0x8C379A000000000000000000000000000000000000000000000000000000000 DUP2 MSTORE PUSH1 0x4 ADD PUSH2 0x163E SWAP1 PUSH2 0x2B28 JUMP JUMPDEST PUSH1 0x40 MLOAD DUP1 SWAP2 SUB SWAP1 REVERT JUMPDEST PUSH1 0x0 PUSH20 0xFFFFFFFFFFFFFFFFFFFFFFFFFFFFFFFFFFFFFFFF AND DUP4 PUSH20 0xFFFFFFFFFFFFFFFFFFFFFFFFFFFFFFFFFFFFFFFF AND SUB PUSH2 0x16B6 JUMPI PUSH1 0x40 MLOAD PUSH32 0x8C379A000000000000000000000000000000000000000000000000000000000 DUP2 MSTORE PUSH1 0x4 ADD PUSH2 0x16AD SWAP1 PUSH2 0x2BBA JUMP JUMPDEST PUSH1 0x40 MLOAD DUP1 SWAP2 SUB SWAP1 REVERT JUMPDEST PUSH1 0xE PUSH1 0x14 SWAP1 SLOAD SWAP1 PUSH2 0x100 EXP SWAP1 DIV PUSH1 0xFF AND ISZERO PUSH2 0x16DD JUMPI PUSH2 0x16D6 DUP5 DUP5 DUP5 PUSH2 0x1B81 JUMP JUMPDEST SWAP1 POP PUSH2 0x1A6E JUMP JUMPDEST PUSH1 0x0 PUSH2 0x16E8 ADDRESS PUSH2 0xC2C JUMP JUMPDEST SWAP1 POP PUSH1 0x0 PUSH1 0xC SLOAD DUP3 LT ISZERO SWAP1 POP DUP1 DUP1 ISZERO PUSH2 0x170E JUMPI POP PUSH1 0xE PUSH1 0x14 SWAP1 SLOAD SWAP1 PUSH2 0x100 EXP SWAP1 DIV PUSH1 0xFF AND ISZERO JUMPDEST DUP1 ISZERO PUSH2 0x1764 JUMPI POP PUSH1 0x8 PUSH1 0x0 DUP8 PUSH20 0xFFFFFFFFFFFFFFFFFFFFFFFFFFFFFFFFFFFFFFFF AND PUSH20 0xFFFFFFFFFFFFFFFFFFFFFFFFFFFFFFFFFFFFFFFF AND DUP2 MSTORE PUSH1 0x20 ADD SWAP1 DUP2 MSTORE PUSH1 0x20 ADD PUSH1 0x0 KECCAK256 PUSH1 0x0 SWAP1 SLOAD SWAP1 PUSH2 0x100 EXP SWAP1 DIV PUSH1 0xFF AND ISZERO JUMPDEST DUP1 ISZERO PUSH2 0x177C JUMPI POP PUSH1 0xE PUSH1 0x15 SWAP1 SLOAD SWAP1 PUSH2 0x100 EXP SWAP1 DIV PUSH1 0xFF AND JUMPDEST DUP1 ISZERO PUSH2 0x17BB JUMPI POP PUSH2 0x178B PUSH2 0xD8B JUMP JUMPDEST PUSH20 0xFFFFFFFFFFFFFFFFFFFFFFFFFFFFFFFFFFFFFFFF AND DUP6 PUSH20 0xFFFFFFFFFFFFFFFFFFFFFFFFFFFFFFFFFFFFFFFF AND EQ ISZERO JUMPDEST ISZERO PUSH2 0x17E5 JUMPI PUSH1 0xE PUSH1 0x16 SWAP1 SLOAD SWAP1 PUSH2 0x100 EXP SWAP1 DIV PUSH1 0xFF AND ISZERO PUSH2 0x17DB JUMPI PUSH1 0xC SLOAD SWAP2 POP JUMPDEST PUSH2 0x17E4 DUP3 PUSH2 0x1D54 JUMP JUMPDEST JUMPDEST PUSH2 0x186E DUP5 PUSH1 0x40 MLOAD DUP1 PUSH1 0x40 ADD PUSH1 0x40 MSTORE DUP1 PUSH1 0x14 DUP2 MSTORE PUSH1 0x20 ADD PUSH32 0x496E73756666696369656E742042616C616E6365000000000000000000000000 DUP2 MSTORE POP PUSH1 0x5 PUSH1 0x0 DUP11 PUSH20 0xFFFFFFFFFFFFFFFFFFFFFFFFFFFFFFFFFFFFFFFF AND PUSH20 0xFFFFFFFFFFFFFFFFFFFFFFFFFFFFFFFFFFFFFFFF AND DUP2 MSTORE PUSH1 0x20 ADD SWAP1 DUP2 MSTORE PUSH1 0x20 ADD PUSH1 0x0 KECCAK256 SLOAD PUSH2 0x1A75 SWAP1 SWAP3 SWAP2 SWAP1 PUSH4 0xFFFFFFFF AND JUMP JUMPDEST PUSH1 0x5 PUSH1 0x0 DUP9 PUSH20 0xFFFFFFFFFFFFFFFFFFFFFFFFFFFFFFFFFFFFFFFF AND PUSH20 0xFFFFFFFFFFFFFFFFFFFFFFFFFFFFFFFFFFFFFFFF AND DUP2 MSTORE PUSH1 0x20 ADD SWAP1 DUP2 MSTORE PUSH1 0x20 ADD PUSH1 0x0 KECCAK256 DUP2 SWAP1 SSTORE POP PUSH1 0x0 PUSH1 0x7 PUSH1 0x0 DUP9 PUSH20 0xFFFFFFFFFFFFFFFFFFFFFFFFFFFFFFFFFFFFFFFF AND PUSH20 0xFFFFFFFFFFFFFFFFFFFFFFFFFFFFFFFFFFFFFFFF AND DUP2 MSTORE PUSH1 0x20 ADD SWAP1 DUP2 MSTORE PUSH1 0x20 ADD PUSH1 0x0 KECCAK256 PUSH1 0x0 SWAP1 SLOAD SWAP1 PUSH2 0x100 EXP SWAP1 DIV PUSH1 0xFF AND DUP1 PUSH2 0x1954 JUMPI POP PUSH1 0x7 PUSH1 0x0 DUP8 PUSH20 0xFFFFFFFFFFFFFFFFFFFFFFFFFFFFFFFFFFFFFFFF AND PUSH20 0xFFFFFFFFFFFFFFFFFFFFFFFFFFFFFFFFFFFFFFFF AND DUP2 MSTORE PUSH1 0x20 ADD SWAP1 DUP2 MSTORE PUSH1 0x20 ADD PUSH1 0x0 KECCAK256 PUSH1 0x0 SWAP1 SLOAD SWAP1 PUSH2 0x100 EXP SWAP1 DIV PUSH1 0xFF AND JUMPDEST PUSH2 0x1968 JUMPI PUSH2 0x1963 DUP8 DUP8 DUP8 PUSH2 0x1DD2 JUMP JUMPDEST PUSH2 0x196A JUMP JUMPDEST DUP5 JUMPDEST SWAP1 POP PUSH2 0x19BE DUP2 PUSH1 0x5 PUSH1 0x0 DUP10 PUSH20 0xFFFFFFFFFFFFFFFFFFFFFFFFFFFFFFFFFFFFFFFF AND PUSH20 0xFFFFFFFFFFFFFFFFFFFFFFFFFFFFFFFFFFFFFFFF AND DUP2 MSTORE PUSH1 0x20 ADD SWAP1 DUP2 MSTORE PUSH1 0x20 ADD PUSH1 0x0 KECCAK256 SLOAD PUSH2 0x1B23 SWAP1 SWAP2 SWAP1 PUSH4 0xFFFFFFFF AND JUMP JUMPDEST PUSH1 0x5 PUSH1 0x0 DUP9 PUSH20 0xFFFFFFFFFFFFFFFFFFFFFFFFFFFFFFFFFFFFFFFF AND PUSH20 0xFFFFFFFFFFFFFFFFFFFFFFFFFFFFFFFFFFFFFFFF AND DUP2 MSTORE PUSH1 0x20 ADD SWAP1 DUP2 MSTORE PUSH1 0x20 ADD PUSH1 0x0 KECCAK256 DUP2 SWAP1 SSTORE POP DUP6 PUSH20 0xFFFFFFFFFFFFFFFFFFFFFFFFFFFFFFFFFFFFFFFF AND DUP8 PUSH20 0xFFFFFFFFFFFFFFFFFFFFFFFFFFFFFFFFFFFFFFFF AND PUSH32 0xDDF252AD1BE2C89B69C2B068FC378DAA952BA7F163C4A11628F55A4DF523B3EF DUP4 PUSH1 0x40 MLOAD PUSH2 0x1A5E SWAP2 SWAP1 PUSH2 0x25CA JUMP JUMPDEST PUSH1 0x40 MLOAD DUP1 SWAP2 SUB SWAP1 LOG3 PUSH1 0x1 SWAP4 POP POP POP POP JUMPDEST SWAP4 SWAP3 POP POP POP JUMP JUMPDEST PUSH1 0x0 DUP4 DUP4 GT ISZERO DUP3 SWAP1 PUSH2 0x1ABD JUMPI PUSH1 0x40 MLOAD PUSH32 0x8C379A000000000000000000000000000000000000000000000000000000000 DUP2 MSTORE PUSH1 0x4 ADD PUSH2 0x1AB4 SWAP2 SWAP1 PUSH2 0x2410 JUMP JUMPDEST PUSH1 0x40 MLOAD DUP1 SWAP2 SUB SWAP1 REVERT JUMPDEST POP PUSH1 0x0 DUP4 DUP6 PUSH2 0x1ACC SWAP2 SWAP1 PUSH2 0x2C09 JUMP JUMPDEST SWAP1 POP DUP1 SWAP2 POP POP SWAP4 SWAP3 POP POP POP JUMP JUMPDEST PUSH1 0x0 PUSH2 0x1B1B DUP4 DUP4 PUSH1 0x40 MLOAD DUP1 PUSH1 0x40 ADD PUSH1 0x40 MSTORE DUP1 PUSH1 0x1E DUP2 MSTORE PUSH1 0x20 ADD PUSH32 0x536166654D6174683A207375627472616374696F6E206F766572666C6F770000 DUP2 MSTORE POP PUSH2 0x1A75 JUMP JUMPDEST SWAP1 POP SWAP3 SWAP2 POP POP JUMP JUMPDEST PUSH1 0x0 DUP1 DUP3 DUP5 PUSH2 0x1B32 SWAP2 SWAP1 PUSH2 0x2C3D JUMP JUMPDEST SWAP1 POP DUP4 DUP2 LT ISZERO PUSH2 0x1B77 JUMPI PUSH1 0x40 MLOAD PUSH32 0x8C379A000000000000000000000000000000000000000000000000000000000 DUP2 MSTORE PUSH1 0x4 ADD PUSH2 0x1B6E SWAP1 PUSH2 0x2CBD JUMP JUMPDEST PUSH1 0x40 MLOAD DUP1 SWAP2 SUB SWAP1 REVERT JUMPDEST DUP1 SWAP2 POP POP SWAP3 SWAP2 POP POP JUMP JUMPDEST PUSH1 0x0 PUSH2 0x1C0C DUP3 PUSH1 0x40 MLOAD DUP1 PUSH1 0x40 ADD PUSH1 0x40 MSTORE DUP1 PUSH1 0x14 DUP2 MSTORE PUSH1 0x20 ADD PUSH32 0x496E73756666696369656E742042616C616E6365000000000000000000000000 DUP2 MSTORE POP PUSH1 0x5 PUSH1 0x0 DUP9 PUSH20 0xFFFFFFFFFFFFFFFFFFFFFFFFFFFFFFFFFFFFFFFF AND PUSH20 0xFFFFFFFFFFFFFFFFFFFFFFFFFFFFFFFFFFFFFFFF AND DUP2 MSTORE PUSH1 0x20 ADD SWAP1 DUP2 MSTORE PUSH1 0x20 ADD PUSH1 0x0 KECCAK256 SLOAD PUSH2 0x1A75 SWAP1 SWAP3 SWAP2 SWAP1 PUSH4 0xFFFFFFFF AND JUMP JUMPDEST PUSH1 0x5 PUSH1 0x0 DUP7 PUSH20 0xFFFFFFFFFFFFFFFFFFFFFFFFFFFFFFFFFFFFFFFF AND PUSH20 0xFFFFFFFFFFFFFFFFFFFFFFFFFFFFFFFFFFFFFFFF AND DUP2 MSTORE PUSH1 0x20 ADD SWAP1 DUP2 MSTORE PUSH1 0x20 ADD PUSH1 0x0 KECCAK256 DUP2 SWAP1 SSTORE POP PUSH2 0x1CA1 DUP3 PUSH1 0x5 PUSH1 0x0 DUP7 PUSH20 0xFFFFFFFFFFFFFFFFFFFFFFFFFFFFFFFFFFFFFFFF AND PUSH20 0xFFFFFFFFFFFFFFFFFFFFFFFFFFFFFFFFFFFFFFFF AND DUP2 MSTORE PUSH1 0x20 ADD SWAP1 DUP2 MSTORE PUSH1 0x20 ADD PUSH1 0x0 KECCAK256 SLOAD PUSH2 0x1B23 SWAP1 SWAP2 SWAP1 PUSH4 0xFFFFFFFF AND JUMP JUMPDEST PUSH1 0x5 PUSH1 0x0 DUP6 PUSH20 0xFFFFFFFFFFFFFFFFFFFFFFFFFFFFFFFFFFFFFFFF AND PUSH20 0xFFFFFFFFFFFFFFFFFFFFFFFFFFFFFFFFFFFFFFFF AND DUP2 MSTORE PUSH1 0x20 ADD SWAP1 DUP2 MSTORE PUSH1 0x20 ADD PUSH1 0x0 KECCAK256 DUP2 SWAP1 SSTORE POP DUP3 PUSH20 0xFFFFFFFFFFFFFFFFFFFFFFFFFFFFFFFFFFFFFFFF AND DUP5 PUSH20 0xFFFFFFFFFFFFFFFFFFFFFFFFFFFFFFFFFFFFFFFF AND PUSH32 0xDDF252AD1BE2C89B69C2B068FC378DAA952BA7F163C4A11628F55A4DF523B3EF DUP5 PUSH1 0x40 MLOAD PUSH2 0x1D41 SWAP2 SWAP1 PUSH2 0x25CA JUMP JUMPDEST PUSH1 0x40 MLOAD DUP1 SWAP2 SUB SWAP1 LOG3 PUSH1 0x1 SWAP1 POP SWAP4 SWAP3 POP POP POP JUMP JUMPDEST PUSH1 0x1 PUSH1 0xE PUSH1 0x14 PUSH2 0x100 EXP DUP2 SLOAD DUP2 PUSH1 0xFF MUL NOT AND SWAP1 DUP4 ISZERO ISZERO MUL OR SWAP1 SSTORE POP PUSH2 0x1D78 DUP2 PUSH2 0x1FCB JUMP JUMPDEST PUSH1 0x0 SELFBALANCE SWAP1 POP PUSH1 0x0 DUP2 GT ISZERO PUSH2 0x1DB3 JUMPI PUSH2 0x1DB2 PUSH1 0x3 PUSH1 0x1 SWAP1 SLOAD SWAP1 PUSH2 0x100 EXP SWAP1 DIV PUSH20 0xFFFFFFFFFFFFFFFFFFFFFFFFFFFFFFFFFFFFFFFF AND DUP3 PUSH2 0x220E JUMP JUMPDEST JUMPDEST POP PUSH1 0x0 PUSH1 0xE PUSH1 0x14 PUSH2 0x100 EXP DUP2 SLOAD DUP2 PUSH1 0xFF MUL NOT AND SWAP1 DUP4 ISZERO ISZERO MUL OR SWAP1 SSTORE POP POP JUMP JUMPDEST PUSH1 0x0 DUP1 PUSH1 0x0 SWAP1 POP PUSH1 0x8 PUSH1 0x0 DUP7 PUSH20 0xFFFFFFFFFFFFFFFFFFFFFFFFFFFFFFFFFFFFFFFF AND PUSH20 0xFFFFFFFFFFFFFFFFFFFFFFFFFFFFFFFFFFFFFFFF AND DUP2 MSTORE PUSH1 0x20 ADD SWAP1 DUP2 MSTORE PUSH1 0x20 ADD PUSH1 0x0 KECCAK256 PUSH1 0x0 SWAP1 SLOAD SWAP1 PUSH2 0x100 EXP SWAP1 DIV PUSH1 0xFF AND DUP1 PUSH2 0x1E7A JUMPI POP PUSH1 0x8 PUSH1 0x0 DUP6 PUSH20 0xFFFFFFFFFFFFFFFFFFFFFFFFFFFFFFFFFFFFFFFF AND PUSH20 0xFFFFFFFFFFFFFFFFFFFFFFFFFFFFFFFFFFFFFFFF AND DUP2 MSTORE PUSH1 0x20 ADD SWAP1 DUP2 MSTORE PUSH1 0x20 ADD PUSH1 0x0 KECCAK256 PUSH1 0x0 SWAP1 SLOAD SWAP1 PUSH2 0x100 EXP SWAP1 DIV PUSH1 0xFF AND JUMPDEST ISZERO PUSH2 0x1EAA JUMPI PUSH2 0x1EA7 PUSH1 0x64 PUSH2 0x1E99 PUSH1 0xA SLOAD DUP7 PUSH2 0x2259 SWAP1 SWAP2 SWAP1 PUSH4 0xFFFFFFFF AND JUMP JUMPDEST PUSH2 0x22D3 SWAP1 SWAP2 SWAP1 PUSH4 0xFFFFFFFF AND JUMP JUMPDEST SWAP1 POP JUMPDEST PUSH1 0x0 DUP2 GT ISZERO PUSH2 0x1FAE JUMPI PUSH2 0x1F05 DUP2 PUSH1 0x5 PUSH1 0x0 ADDRESS PUSH20 0xFFFFFFFFFFFFFFFFFFFFFFFFFFFFFFFFFFFFFFFF AND PUSH20 0xFFFFFFFFFFFFFFFFFFFFFFFFFFFFFFFFFFFFFFFF AND DUP2 MSTORE PUSH1 0x20 ADD SWAP1 DUP2 MSTORE PUSH1 0x20 ADD PUSH1 0x0 KECCAK256 SLOAD PUSH2 0x1B23 SWAP1 SWAP2 SWAP1 PUSH4 0xFFFFFFFF AND JUMP JUMPDEST PUSH1 0x5 PUSH1 0x0 ADDRESS PUSH20 0xFFFFFFFFFFFFFFFFFFFFFFFFFFFFFFFFFFFFFFFF AND PUSH20 0xFFFFFFFFFFFFFFFFFFFFFFFFFFFFFFFFFFFFFFFF AND DUP2 MSTORE PUSH1 0x20 ADD SWAP1 DUP2 MSTORE PUSH1 0x20 ADD PUSH1 0x0 KECCAK256 DUP2 SWAP1 SSTORE POP ADDRESS PUSH20 0xFFFFFFFFFFFFFFFFFFFFFFFFFFFFFFFFFFFFFFFF AND DUP6 PUSH20 0xFFFFFFFFFFFFFFFFFFFFFFFFFFFFFFFFFFFFFFFF AND PUSH32 0xDDF252AD1BE2C89B69C2B068FC378DAA952BA7F163C4A11628F55A4DF523B3EF DUP4 PUSH1 0x40 MLOAD PUSH2 0x1FA5 SWAP2 SWAP1 PUSH2 0x25CA JUMP JUMPDEST PUSH1 0x40 MLOAD DUP1 SWAP2 SUB SWAP1 LOG3 JUMPDEST PUSH2 0x1FC1 DUP2 DUP5 PUSH2 0x1AD9 SWAP1 SWAP2 SWAP1 PUSH4 0xFFFFFFFF AND JUMP JUMPDEST SWAP2 POP POP SWAP4 SWAP3 POP POP POP JUMP JUMPDEST PUSH1 0x0 PUSH1 0x2 PUSH8 0xFFFFFFFFFFFFFFFF DUP2 GT ISZERO PUSH2 0x1FE8 JUMPI PUSH2 0x1FE7 PUSH2 0x2CDD JUMP JUMPDEST JUMPDEST PUSH1 0x40 MLOAD SWAP1 DUP1 DUP3 MSTORE DUP1 PUSH1 0x20 MUL PUSH1 0x20 ADD DUP3 ADD PUSH1 0x40 MSTORE DUP1 ISZERO PUSH2 0x2016 JUMPI DUP2 PUSH1 0x20 ADD PUSH1 0x20 DUP3 MUL DUP1 CALLDATASIZE DUP4 CALLDATACOPY DUP1 DUP3 ADD SWAP2 POP POP SWAP1 POP JUMPDEST POP SWAP1 POP ADDRESS DUP2 PUSH1 0x0 DUP2 MLOAD DUP2 LT PUSH2 0x202E JUMPI PUSH2 0x202D PUSH2 0x2D0C JUMP JUMPDEST JUMPDEST PUSH1 0x20 MUL PUSH1 0x20 ADD ADD SWAP1 PUSH20 0xFFFFFFFFFFFFFFFFFFFFFFFFFFFFFFFFFFFFFFFF AND SWAP1 DUP2 PUSH20 0xFFFFFFFFFFFFFFFFFFFFFFFFFFFFFFFFFFFFFFFF AND DUP2 MSTORE POP POP PUSH1 0xD PUSH1 0x0 SWAP1 SLOAD SWAP1 PUSH2 0x100 EXP SWAP1 DIV PUSH20 0xFFFFFFFFFFFFFFFFFFFFFFFFFFFFFFFFFFFFFFFF AND PUSH20 0xFFFFFFFFFFFFFFFFFFFFFFFFFFFFFFFFFFFFFFFF AND PUSH4 0xAD5C4648 PUSH1 0x40 MLOAD DUP2 PUSH4 0xFFFFFFFF AND PUSH1 0xE0 SHL DUP2 MSTORE PUSH1 0x4 ADD PUSH1 0x20 PUSH1 0x40 MLOAD DUP1 DUP4 SUB DUP2 DUP7 GAS STATICCALL ISZERO DUP1 ISZERO PUSH2 0x20D5 JUMPI RETURNDATASIZE PUSH1 0x0 DUP1 RETURNDATACOPY RETURNDATASIZE PUSH1 0x0 REVERT JUMPDEST POP POP POP POP PUSH1 0x40 MLOAD RETURNDATASIZE PUSH1 0x1F NOT PUSH1 0x1F DUP3 ADD AND DUP3 ADD DUP1 PUSH1 0x40 MSTORE POP DUP2 ADD SWAP1 PUSH2 0x20F9 SWAP2 SWAP1 PUSH2 0x2D50 JUMP JUMPDEST DUP2 PUSH1 0x1 DUP2 MLOAD DUP2 LT PUSH2 0x210D JUMPI PUSH2 0x210C PUSH2 0x2D0C JUMP JUMPDEST JUMPDEST PUSH1 0x20 MUL PUSH1 0x20 ADD ADD SWAP1 PUSH20 0xFFFFFFFFFFFFFFFFFFFFFFFFFFFFFFFFFFFFFFFF AND SWAP1 DUP2 PUSH20 0xFFFFFFFFFFFFFFFFFFFFFFFFFFFFFFFFFFFFFFFF AND DUP2 MSTORE POP POP PUSH2 0x2174 ADDRESS PUSH1 0xD PUSH1 0x0 SWAP1 SLOAD SWAP1 PUSH2 0x100 EXP SWAP1 DIV PUSH20 0xFFFFFFFFFFFFFFFFFFFFFFFFFFFFFFFFFFFFFFFF AND DUP5 PUSH2 0x140E JUMP JUMPDEST PUSH1 0xD PUSH1 0x0 SWAP1 SLOAD SWAP1 PUSH2 0x100 EXP SWAP1 DIV PUSH20 0xFFFFFFFFFFFFFFFFFFFFFFFFFFFFFFFFFFFFFFFF AND PUSH20 0xFFFFFFFFFFFFFFFFFFFFFFFFFFFFFFFFFFFFFFFF AND PUSH4 0x791AC947 DUP4 PUSH1 0x0 DUP5 ADDRESS TIMESTAMP PUSH1 0x40 MLOAD DUP7 PUSH4 0xFFFFFFFF AND PUSH1 0xE0 SHL DUP2 MSTORE PUSH1 0x4 ADD PUSH2 0x21D8 SWAP6 SWAP5 SWAP4 SWAP3 SWAP2 SWAP1 PUSH2 0x2E76 JUMP JUMPDEST PUSH1 0x0 PUSH1 0x40 MLOAD DUP1 DUP4 SUB DUP2 PUSH1 0x0 DUP8 DUP1 EXTCODESIZE ISZERO DUP1 ISZERO PUSH2 0x21F2 JUMPI PUSH1 0x0 DUP1 REVERT JUMPDEST POP GAS CALL ISZERO DUP1 ISZERO PUSH2 0x2206 JUMPI RETURNDATASIZE PUSH1 0x0 DUP1 RETURNDATACOPY RETURNDATASIZE PUSH1 0x0 REVERT JUMPDEST POP POP POP POP POP POP JUMP JUMPDEST DUP2 PUSH20 0xFFFFFFFFFFFFFFFFFFFFFFFFFFFFFFFFFFFFFFFF AND PUSH2 0x8FC DUP3 SWAP1 DUP2 ISZERO MUL SWAP1 PUSH1 0x40 MLOAD PUSH1 0x0 PUSH1 0x40 MLOAD DUP1 DUP4 SUB DUP2 DUP6 DUP9 DUP9 CALL SWAP4 POP POP POP POP ISZERO DUP1 ISZERO PUSH2 0x2254 JUMPI RETURNDATASIZE PUSH1 0x0 DUP1 RETURNDATACOPY RETURNDATASIZE PUSH1 0x0 REVERT JUMPDEST POP POP POP JUMP JUMPDEST PUSH1 0x0 DUP1 DUP4 SUB PUSH2 0x226B JUMPI PUSH1 0x0 SWAP1 POP PUSH2 0x22CD JUMP JUMPDEST PUSH1 0x0 DUP3 DUP5 PUSH2 0x2279 SWAP2 SWAP1 PUSH2 0x2ED0 JUMP JUMPDEST SWAP1 POP DUP3 DUP5 DUP3 PUSH2 0x2288 SWAP2 SWAP1 PUSH2 0x2F41 JUMP JUMPDEST EQ PUSH2 0x22C8 JUMPI PUSH1 0x40 MLOAD PUSH32 0x8C379A000000000000000000000000000000000000000000000000000000000 DUP2 MSTORE PUSH1 0x4 ADD PUSH2 0x22BF SWAP1 PUSH2 0x2FE4 JUMP JUMPDEST PUSH1 0x40 MLOAD DUP1 SWAP2 SUB SWAP1 REVERT JUMPDEST DUP1 SWAP2 POP POP JUMPDEST SWAP3 SWAP2 POP POP JUMP JUMPDEST PUSH1 0x0 PUSH2 0x2315 DUP4 DUP4 PUSH1 0x40 MLOAD DUP1 PUSH1 0x40 ADD PUSH1 0x40 MSTORE DUP1 PUSH1 0x1A DUP2 MSTORE PUSH1 0x20 ADD PUSH32 0x536166654D6174683A206469766973696F6E206279207A65726F000000000000 DUP2 MSTORE POP PUSH2 0x231D JUMP JUMPDEST SWAP1 POP SWAP3 SWAP2 POP POP JUMP JUMPDEST PUSH1 0x0 DUP1 DUP4 GT DUP3 SWAP1 PUSH2 0x2364 JUMPI PUSH1 0x40 MLOAD PUSH32 0x8C379A000000000000000000000000000000000000000000000000000000000 DUP2 MSTORE PUSH1 0x4 ADD PUSH2 0x235B SWAP2 SWAP1 PUSH2 0x2410 JUMP JUMPDEST PUSH1 0x40 MLOAD DUP1 SWAP2 SUB SWAP1 REVERT JUMPDEST POP PUSH1 0x0 DUP4 DUP6 PUSH2 0x2373 SWAP2 SWAP1 PUSH2 0x2F41 JUMP JUMPDEST SWAP1 POP DUP1 SWAP2 POP POP SWAP4 SWAP3 POP POP POP JUMP JUMPDEST PUSH1 0x0 DUP2 MLOAD SWAP1 POP SWAP2 SWAP1 POP JUMP JUMPDEST PUSH1 0x0 DUP3 DUP3 MSTORE PUSH1 0x20 DUP3 ADD SWAP1 POP SWAP3 SWAP2 POP POP JUMP JUMPDEST PUSH1 0x0 JUMPDEST DUP4 DUP2 LT ISZERO PUSH2 0x23BA JUMPI DUP1 DUP3 ADD MLOAD DUP2 DUP5 ADD MSTORE PUSH1 0x20 DUP2 ADD SWAP1 POP PUSH2 0x239F JUMP JUMPDEST PUSH1 0x0 DUP5 DUP5 ADD MSTORE POP POP POP POP JUMP JUMPDEST PUSH1 0x0 PUSH1 0x1F NOT PUSH1 0x1F DUP4 ADD AND SWAP1 POP SWAP2 SWAP1 POP JUMP JUMPDEST PUSH1 0x0 PUSH2 0x23E2 DUP3 PUSH2 0x2380 JUMP JUMPDEST PUSH2 0x23EC DUP2 DUP6 PUSH2 0x238B JUMP JUMPDEST SWAP4 POP PUSH2 0x23FC DUP2 DUP6 PUSH1 0x20 DUP7 ADD PUSH2 0x239C JUMP JUMPDEST PUSH2 0x2405 DUP2 PUSH2 0x23C6 JUMP JUMPDEST DUP5 ADD SWAP2 POP POP SWAP3 SWAP2 POP POP JUMP JUMPDEST PUSH1 0x0 PUSH1 0x20 DUP3 ADD SWAP1 POP DUP2 DUP2 SUB PUSH1 0x0 DUP4 ADD MSTORE PUSH2 0x242A DUP2 DUP5 PUSH2 0x23D7 JUMP JUMPDEST SWAP1 POP SWAP3 SWAP2 POP POP JUMP JUMPDEST PUSH1 0x0 DUP1 REVERT JUMPDEST PUSH1 0x0 PUSH20 0xFFFFFFFFFFFFFFFFFFFFFFFFFFFFFFFFFFFFFFFF DUP3 AND SWAP1 POP SWAP2 SWAP1 POP JUMP JUMPDEST PUSH1 0x0 PUSH2 0x2462 DUP3 PUSH2 0x2437 JUMP JUMPDEST SWAP1 POP SWAP2 SWAP1 POP JUMP JUMPDEST PUSH2 0x2472 DUP2 PUSH2 0x2457 JUMP JUMPDEST DUP2 EQ PUSH2 0x247D JUMPI PUSH1 0x0 DUP1 REVERT JUMPDEST POP JUMP JUMPDEST PUSH1 0x0 DUP2 CALLDATALOAD SWAP1 POP PUSH2 0x248F DUP2 PUSH2 0x2469 JUMP JUMPDEST SWAP3 SWAP2 POP POP JUMP JUMPDEST PUSH1 0x0 DUP2 SWAP1 POP SWAP2 SWAP1 POP JUMP JUMPDEST PUSH2 0x24A8 DUP2 PUSH2 0x2495 JUMP JUMPDEST DUP2 EQ PUSH2 0x24B3 JUMPI PUSH1 0x0 DUP1 REVERT JUMPDEST POP JUMP JUMPDEST PUSH1 0x0 DUP2 CALLDATALOAD SWAP1 POP PUSH2 0x24C5 DUP2 PUSH2 0x249F JUMP JUMPDEST SWAP3 SWAP2 POP POP JUMP JUMPDEST PUSH1 0x0 DUP1 PUSH1 0x40 DUP4 DUP6 SUB SLT ISZERO PUSH2 0x24E2 JUMPI PUSH2 0x24E1 PUSH2 0x2432 JUMP JUMPDEST JUMPDEST PUSH1 0x0 PUSH2 0x24F0 DUP6 DUP3 DUP7 ADD PUSH2 0x2480 JUMP JUMPDEST SWAP3 POP POP PUSH1 0x20 PUSH2 0x2501 DUP6 DUP3 DUP7 ADD PUSH2 0x24B6 JUMP JUMPDEST SWAP2 POP POP SWAP3 POP SWAP3 SWAP1 POP JUMP JUMPDEST PUSH1 0x0 DUP2 ISZERO ISZERO SWAP1 POP SWAP2 SWAP1 POP JUMP JUMPDEST PUSH2 0x2520 DUP2 PUSH2 0x250B JUMP JUMPDEST DUP3 MSTORE POP POP JUMP JUMPDEST PUSH1 0x0 PUSH1 0x20 DUP3 ADD SWAP1 POP PUSH2 0x253B PUSH1 0x0 DUP4 ADD DUP5 PUSH2 0x2517 JUMP JUMPDEST SWAP3 SWAP2 POP POP JUMP JUMPDEST PUSH1 0x0 DUP2 SWAP1 POP SWAP2 SWAP1 POP JUMP JUMPDEST PUSH1 0x0 PUSH2 0x2566 PUSH2 0x2561 PUSH2 0x255C DUP5 PUSH2 0x2437 JUMP JUMPDEST PUSH2 0x2541 JUMP JUMPDEST PUSH2 0x2437 JUMP JUMPDEST SWAP1 POP SWAP2 SWAP1 POP JUMP JUMPDEST PUSH1 0x0 PUSH2 0x2578 DUP3 PUSH2 0x254B JUMP JUMPDEST SWAP1 POP SWAP2 SWAP1 POP JUMP JUMPDEST PUSH1 0x0 PUSH2 0x258A DUP3 PUSH2 0x256D JUMP JUMPDEST SWAP1 POP SWAP2 SWAP1 POP JUMP JUMPDEST PUSH2 0x259A DUP2 PUSH2 0x257F JUMP JUMPDEST DUP3 MSTORE POP POP JUMP JUMPDEST PUSH1 0x0 PUSH1 0x20 DUP3 ADD SWAP1 POP PUSH2 0x25B5 PUSH1 0x0 DUP4 ADD DUP5 PUSH2 0x2591 JUMP JUMPDEST SWAP3 SWAP2 POP POP JUMP JUMPDEST PUSH2 0x25C4 DUP2 PUSH2 0x2495 JUMP JUMPDEST DUP3 MSTORE POP POP JUMP JUMPDEST PUSH1 0x0 PUSH1 0x20 DUP3 ADD SWAP1 POP PUSH2 0x25DF PUSH1 0x0 DUP4 ADD DUP5 PUSH2 0x25BB JUMP JUMPDEST SWAP3 SWAP2 POP POP JUMP JUMPDEST PUSH1 0x0 DUP1 PUSH1 0x0 PUSH1 0x60 DUP5 DUP7 SUB SLT ISZERO PUSH2 0x25FE JUMPI PUSH2 0x25FD PUSH2 0x2432 JUMP JUMPDEST JUMPDEST PUSH1 0x0 PUSH2 0x260C DUP7 DUP3 DUP8 ADD PUSH2 0x2480 JUMP JUMPDEST SWAP4 POP POP PUSH1 0x20 PUSH2 0x261D DUP7 DUP3 DUP8 ADD PUSH2 0x2480 JUMP JUMPDEST SWAP3 POP POP PUSH1 0x40 PUSH2 0x262E DUP7 DUP3 DUP8 ADD PUSH2 0x24B6 JUMP JUMPDEST SWAP2 POP POP SWAP3 POP SWAP3 POP SWAP3 JUMP JUMPDEST PUSH2 0x2641 DUP2 PUSH2 0x2457 JUMP JUMPDEST DUP3 MSTORE POP POP JUMP JUMPDEST PUSH1 0x0 PUSH1 0x20 DUP3 ADD SWAP1 POP PUSH2 0x265C PUSH1 0x0 DUP4 ADD DUP5 PUSH2 0x2638 JUMP JUMPDEST SWAP3 SWAP2 POP POP JUMP JUMPDEST PUSH1 0x0 PUSH1 0xFF DUP3 AND SWAP1 POP SWAP2 SWAP1 POP JUMP JUMPDEST PUSH2 0x2678 DUP2 PUSH2 0x2662 JUMP JUMPDEST DUP3 MSTORE POP POP JUMP JUMPDEST PUSH1 0x0 PUSH1 0x20 DUP3 ADD SWAP1 POP PUSH2 0x2693 PUSH1 0x0 DUP4 ADD DUP5 PUSH2 0x266F JUMP JUMPDEST SWAP3 SWAP2 POP POP JUMP JUMPDEST PUSH1 0x0 PUSH1 0x20 DUP3 DUP5 SUB SLT ISZERO PUSH2 0x26AF JUMPI PUSH2 0x26AE PUSH2 0x2432 JUMP JUMPDEST JUMPDEST PUSH1 0x0 PUSH2 0x26BD DUP5 DUP3 DUP6 ADD PUSH2 0x24B6 JUMP JUMPDEST SWAP2 POP POP SWAP3 SWAP2 POP POP JUMP JUMPDEST PUSH1 0x0 PUSH1 0x20 DUP3 DUP5 SUB SLT ISZERO PUSH2 0x26DC JUMPI PUSH2 0x26DB PUSH2 0x2432 JUMP JUMPDEST JUMPDEST PUSH1 0x0 PUSH2 0x26EA DUP5 DUP3 DUP6 ADD PUSH2 0x2480 JUMP JUMPDEST SWAP2 POP POP SWAP3 SWAP2 POP POP JUMP JUMPDEST PUSH1 0x0 PUSH2 0x26FE DUP3 PUSH2 0x2437 JUMP JUMPDEST SWAP1 POP SWAP2 SWAP1 POP JUMP JUMPDEST PUSH2 0x270E DUP2 PUSH2 0x26F3 JUMP JUMPDEST DUP2 EQ PUSH2 0x2719 JUMPI PUSH1 0x0 DUP1 REVERT JUMPDEST POP JUMP JUMPDEST PUSH1 0x0 DUP2 CALLDATALOAD SWAP1 POP PUSH2 0x272B DUP2 PUSH2 0x2705 JUMP JUMPDEST SWAP3 SWAP2 POP POP JUMP JUMPDEST PUSH1 0x0 PUSH1 0x20 DUP3 DUP5 SUB SLT ISZERO PUSH2 0x2747 JUMPI PUSH2 0x2746 PUSH2 0x2432 JUMP JUMPDEST JUMPDEST PUSH1 0x0 PUSH2 0x2755 DUP5 DUP3 DUP6 ADD PUSH2 0x271C JUMP JUMPDEST SWAP2 POP POP SWAP3 SWAP2 POP POP JUMP JUMPDEST PUSH2 0x2767 DUP2 PUSH2 0x26F3 JUMP JUMPDEST DUP3 MSTORE POP POP JUMP JUMPDEST PUSH1 0x0 PUSH1 0x20 DUP3 ADD SWAP1 POP PUSH2 0x2782 PUSH1 0x0 DUP4 ADD DUP5 PUSH2 0x275E JUMP JUMPDEST SWAP3 SWAP2 POP POP JUMP JUMPDEST PUSH2 0x2791 DUP2 PUSH2 0x250B JUMP JUMPDEST DUP2 EQ PUSH2 0x279C JUMPI PUSH1 0x0 DUP1 REVERT JUMPDEST POP JUMP JUMPDEST PUSH1 0x0 DUP2 CALLDATALOAD SWAP1 POP PUSH2 0x27AE DUP2 PUSH2 0x2788 JUMP JUMPDEST SWAP3 SWAP2 POP POP JUMP JUMPDEST PUSH1 0x0 DUP1 PUSH1 0x40 DUP4 DUP6 SUB SLT ISZERO PUSH2 0x27CB JUMPI PUSH2 0x27CA PUSH2 0x2432 JUMP JUMPDEST JUMPDEST PUSH1 0x0 PUSH2 0x27D9 DUP6 DUP3 DUP7 ADD PUSH2 0x2480 JUMP JUMPDEST SWAP3 POP POP PUSH1 0x20 PUSH2 0x27EA DUP6 DUP3 DUP7 ADD PUSH2 0x279F JUMP JUMPDEST SWAP2 POP POP SWAP3 POP SWAP3 SWAP1 POP JUMP JUMPDEST PUSH1 0x0 DUP1 PUSH1 0x40 DUP4 DUP6 SUB SLT ISZERO PUSH2 0x280B JUMPI PUSH2 0x280A PUSH2 0x2432 JUMP JUMPDEST JUMPDEST PUSH1 0x0 PUSH2 0x2819 DUP6 DUP3 DUP7 ADD PUSH2 0x2480 JUMP JUMPDEST SWAP3 POP POP PUSH1 0x20 PUSH2 0x282A DUP6 DUP3 DUP7 ADD PUSH2 0x2480 JUMP JUMPDEST SWAP2 POP POP SWAP3 POP SWAP3 SWAP1 POP JUMP JUMPDEST PUSH32 0x4E487B7100000000000000000000000000000000000000000000000000000000 PUSH1 0x0 MSTORE PUSH1 0x22 PUSH1 0x4 MSTORE PUSH1 0x24 PUSH1 0x0 REVERT JUMPDEST PUSH1 0x0 PUSH1 0x2 DUP3 DIV SWAP1 POP PUSH1 0x1 DUP3 AND DUP1 PUSH2 0x287B JUMPI PUSH1 0x7F DUP3 AND SWAP2 POP JUMPDEST PUSH1 0x20 DUP3 LT DUP2 SUB PUSH2 0x288E JUMPI PUSH2 0x288D PUSH2 0x2834 JUMP JUMPDEST JUMPDEST POP SWAP2 SWAP1 POP JUMP JUMPDEST PUSH32 0x4F776E61626C653A2063616C6C6572206973206E6F7420746865206F776E6572 PUSH1 0x0 DUP3 ADD MSTORE POP JUMP JUMPDEST PUSH1 0x0 PUSH2 0x28CA PUSH1 0x20 DUP4 PUSH2 0x238B JUMP JUMPDEST SWAP2 POP PUSH2 0x28D5 DUP3 PUSH2 0x2894 JUMP JUMPDEST PUSH1 0x20 DUP3 ADD SWAP1 POP SWAP2 SWAP1 POP JUMP JUMPDEST PUSH1 0x0 PUSH1 0x20 DUP3 ADD SWAP1 POP DUP2 DUP2 SUB PUSH1 0x0 DUP4 ADD MSTORE PUSH2 0x28F9 DUP2 PUSH2 0x28BD JUMP JUMPDEST SWAP1 POP SWAP2 SWAP1 POP JUMP JUMPDEST PUSH32 0x4F776E61626C653A206E6577206F776E657220697320746865207A65726F2061 PUSH1 0x0 DUP3 ADD MSTORE PUSH32 0x6464726573730000000000000000000000000000000000000000000000000000 PUSH1 0x20 DUP3 ADD MSTORE POP JUMP JUMPDEST PUSH1 0x0 PUSH2 0x295C PUSH1 0x26 DUP4 PUSH2 0x238B JUMP JUMPDEST SWAP2 POP PUSH2 0x2967 DUP3 PUSH2 0x2900 JUMP JUMPDEST PUSH1 0x40 DUP3 ADD SWAP1 POP SWAP2 SWAP1 POP JUMP JUMPDEST PUSH1 0x0 PUSH1 0x20 DUP3 ADD SWAP1 POP DUP2 DUP2 SUB PUSH1 0x0 DUP4 ADD MSTORE PUSH2 0x298B DUP2 PUSH2 0x294F JUMP JUMPDEST SWAP1 POP SWAP2 SWAP1 POP JUMP JUMPDEST PUSH32 0x45524332303A20617070726F76652066726F6D20746865207A65726F20616464 PUSH1 0x0 DUP3 ADD MSTORE PUSH32 0x7265737300000000000000000000000000000000000000000000000000000000 PUSH1 0x20 DUP3 ADD MSTORE POP JUMP JUMPDEST PUSH1 0x0 PUSH2 0x29EE PUSH1 0x24 DUP4 PUSH2 0x238B JUMP JUMPDEST SWAP2 POP PUSH2 0x29F9 DUP3 PUSH2 0x2992 JUMP JUMPDEST PUSH1 0x40 DUP3 ADD SWAP1 POP SWAP2 SWAP1 POP JUMP JUMPDEST PUSH1 0x0 PUSH1 0x20 DUP3 ADD SWAP1 POP DUP2 DUP2 SUB PUSH1 0x0 DUP4 ADD MSTORE PUSH2 0x2A1D DUP2 PUSH2 0x29E1 JUMP JUMPDEST SWAP1 POP SWAP2 SWAP1 POP JUMP JUMPDEST PUSH32 0x45524332303A20617070726F766520746F20746865207A65726F206164647265 PUSH1 0x0 DUP3 ADD MSTORE PUSH32 0x7373000000000000000000000000000000000000000000000000000000000000 PUSH1 0x20 DUP3 ADD MSTORE POP JUMP JUMPDEST PUSH1 0x0 PUSH2 0x2A80 PUSH1 0x22 DUP4 PUSH2 0x238B JUMP JUMPDEST SWAP2 POP PUSH2 0x2A8B DUP3 PUSH2 0x2A24 JUMP JUMPDEST PUSH1 0x40 DUP3 ADD SWAP1 POP SWAP2 SWAP1 POP JUMP JUMPDEST PUSH1 0x0 PUSH1 0x20 DUP3 ADD SWAP1 POP DUP2 DUP2 SUB PUSH1 0x0 DUP4 ADD MSTORE PUSH2 0x2AAF DUP2 PUSH2 0x2A73 JUMP JUMPDEST SWAP1 POP SWAP2 SWAP1 POP JUMP JUMPDEST PUSH32 0x45524332303A207472616E736665722066726F6D20746865207A65726F206164 PUSH1 0x0 DUP3 ADD MSTORE PUSH32 0x6472657373000000000000000000000000000000000000000000000000000000 PUSH1 0x20 DUP3 ADD MSTORE POP JUMP JUMPDEST PUSH1 0x0 PUSH2 0x2B12 PUSH1 0x25 DUP4 PUSH2 0x238B JUMP JUMPDEST SWAP2 POP PUSH2 0x2B1D DUP3 PUSH2 0x2AB6 JUMP JUMPDEST PUSH1 0x40 DUP3 ADD SWAP1 POP SWAP2 SWAP1 POP JUMP JUMPDEST PUSH1 0x0 PUSH1 0x20 DUP3 ADD SWAP1 POP DUP2 DUP2 SUB PUSH1 0x0 DUP4 ADD MSTORE PUSH2 0x2B41 DUP2 PUSH2 0x2B05 JUMP JUMPDEST SWAP1 POP SWAP2 SWAP1 POP JUMP JUMPDEST PUSH32 0x45524332303A207472616E7366657220746F20746865207A65726F2061646472 PUSH1 0x0 DUP3 ADD MSTORE PUSH32 0x6573730000000000000000000000000000000000000000000000000000000000 PUSH1 0x20 DUP3 ADD MSTORE POP JUMP JUMPDEST PUSH1 0x0 PUSH2 0x2BA4 PUSH1 0x23 DUP4 PUSH2 0x238B JUMP JUMPDEST SWAP2 POP PUSH2 0x2BAF DUP3 PUSH2 0x2B48 JUMP JUMPDEST PUSH1 0x40 DUP3 ADD SWAP1 POP SWAP2 SWAP1 POP JUMP JUMPDEST PUSH1 0x0 PUSH1 0x20 DUP3 ADD SWAP1 POP DUP2 DUP2 SUB PUSH1 0x0 DUP4 ADD MSTORE PUSH2 0x2BD3 DUP2 PUSH2 0x2B97 JUMP JUMPDEST SWAP1 POP SWAP2 SWAP1 POP JUMP JUMPDEST PUSH32 0x4E487B7100000000000000000000000000000000000000000000000000000000 PUSH1 0x0 MSTORE PUSH1 0x11 PUSH1 0x4 MSTORE PUSH1 0x24 PUSH1 0x0 REVERT JUMPDEST PUSH1 0x0 PUSH2 0x2C14 DUP3 PUSH2 0x2495 JUMP JUMPDEST SWAP2 POP PUSH2 0x2C1F DUP4 PUSH2 0x2495 JUMP JUMPDEST SWAP3 POP DUP3 DUP3 SUB SWAP1 POP DUP2 DUP2 GT ISZERO PUSH2 0x2C37 JUMPI PUSH2 0x2C36 PUSH2 0x2BDA JUMP JUMPDEST JUMPDEST SWAP3 SWAP2 POP POP JUMP JUMPDEST PUSH1 0x0 PUSH2 0x2C48 DUP3 PUSH2 0x2495 JUMP JUMPDEST SWAP2 POP PUSH2 0x2C53 DUP4 PUSH2 0x2495 JUMP JUMPDEST SWAP3 POP DUP3 DUP3 ADD SWAP1 POP DUP1 DUP3 GT ISZERO PUSH2 0x2C6B JUMPI PUSH2 0x2C6A PUSH2 0x2BDA JUMP JUMPDEST JUMPDEST SWAP3 SWAP2 POP POP JUMP JUMPDEST PUSH32 0x536166654D6174683A206164646974696F6E206F766572666C6F770000000000 PUSH1 0x0 DUP3 ADD MSTORE POP JUMP JUMPDEST PUSH1 0x0 PUSH2 0x2CA7 PUSH1 0x1B DUP4 PUSH2 0x238B JUMP JUMPDEST SWAP2 POP PUSH2 0x2CB2 DUP3 PUSH2 0x2C71 JUMP JUMPDEST PUSH1 0x20 DUP3 ADD SWAP1 POP SWAP2 SWAP1 POP JUMP JUMPDEST PUSH1 0x0 PUSH1 0x20 DUP3 ADD SWAP1 POP DUP2 DUP2 SUB PUSH1 0x0 DUP4 ADD MSTORE PUSH2 0x2CD6 DUP2 PUSH2 0x2C9A JUMP JUMPDEST SWAP1 POP SWAP2 SWAP1 POP JUMP JUMPDEST PUSH32 0x4E487B7100000000000000000000000000000000000000000000000000000000 PUSH1 0x0 MSTORE PUSH1 0x41 PUSH1 0x4 MSTORE PUSH1 0x24 PUSH1 0x0 REVERT JUMPDEST PUSH32 0x4E487B7100000000000000000000000000000000000000000000000000000000 PUSH1 0x0 MSTORE PUSH1 0x32 PUSH1 0x4 MSTORE PUSH1 0x24 PUSH1 0x0 REVERT JUMPDEST PUSH1 0x0 DUP2 MLOAD SWAP1 POP PUSH2 0x2D4A DUP2 PUSH2 0x2469 JUMP JUMPDEST SWAP3 SWAP2 POP POP JUMP JUMPDEST PUSH1 0x0 PUSH1 0x20 DUP3 DUP5 SUB SLT ISZERO PUSH2 0x2D66 JUMPI PUSH2 0x2D65 PUSH2 0x2432 JUMP JUMPDEST JUMPDEST PUSH1 0x0 PUSH2 0x2D74 DUP5 DUP3 DUP6 ADD PUSH2 0x2D3B JUMP JUMPDEST SWAP2 POP POP SWAP3 SWAP2 POP POP JUMP JUMPDEST PUSH1 0x0 DUP2 SWAP1 POP SWAP2 SWAP1 POP JUMP JUMPDEST PUSH1 0x0 PUSH2 0x2DA2 PUSH2 0x2D9D PUSH2 0x2D98 DUP5 PUSH2 0x2D7D JUMP JUMPDEST PUSH2 0x2541 JUMP JUMPDEST PUSH2 0x2495 JUMP JUMPDEST SWAP1 POP SWAP2 SWAP1 POP JUMP JUMPDEST PUSH2 0x2DB2 DUP2 PUSH2 0x2D87 JUMP JUMPDEST DUP3 MSTORE POP POP JUMP JUMPDEST PUSH1 0x0 DUP2 MLOAD SWAP1 POP SWAP2 SWAP1 POP JUMP JUMPDEST PUSH1 0x0 DUP3 DUP3 MSTORE PUSH1 0x20 DUP3 ADD SWAP1 POP SWAP3 SWAP2 POP POP JUMP JUMPDEST PUSH1 0x0 DUP2 SWAP1 POP PUSH1 0x20 DUP3 ADD SWAP1 POP SWAP2 SWAP1 POP JUMP JUMPDEST PUSH2 0x2DED DUP2 PUSH2 0x2457 JUMP JUMPDEST DUP3 MSTORE POP POP JUMP JUMPDEST PUSH1 0x0 PUSH2 0x2DFF DUP4 DUP4 PUSH2 0x2DE4 JUMP JUMPDEST PUSH1 0x20 DUP4 ADD SWAP1 POP SWAP3 SWAP2 POP POP JUMP JUMPDEST PUSH1 0x0 PUSH1 0x20 DUP3 ADD SWAP1 POP SWAP2 SWAP1 POP JUMP JUMPDEST PUSH1 0x0 PUSH2 0x2E23 DUP3 PUSH2 0x2DB8 JUMP JUMPDEST PUSH2 0x2E2D DUP2 DUP6 PUSH2 0x2DC3 JUMP JUMPDEST SWAP4 POP PUSH2 0x2E38 DUP4 PUSH2 0x2DD4 JUMP JUMPDEST DUP1 PUSH1 0x0 JUMPDEST DUP4 DUP2 LT ISZERO PUSH2 0x2E69 JUMPI DUP2 MLOAD PUSH2 0x2E50 DUP9 DUP3 PUSH2 0x2DF3 JUMP JUMPDEST SWAP8 POP PUSH2 0x2E5B DUP4 PUSH2 0x2E0B JUMP JUMPDEST SWAP3 POP POP PUSH1 0x1 DUP2 ADD SWAP1 POP PUSH2 0x2E3C JUMP JUMPDEST POP DUP6 SWAP4 POP POP POP POP SWAP3 SWAP2 POP POP JUMP JUMPDEST PUSH1 0x0 PUSH1 0xA0 DUP3 ADD SWAP1 POP PUSH2 0x2E8B PUSH1 0x0 DUP4 ADD DUP9 PUSH2 0x25BB JUMP JUMPDEST PUSH2 0x2E98 PUSH1 0x20 DUP4 ADD DUP8 PUSH2 0x2DA9 JUMP JUMPDEST DUP2 DUP2 SUB PUSH1 0x40 DUP4 ADD MSTORE PUSH2 0x2EAA DUP2 DUP7 PUSH2 0x2E18 JUMP JUMPDEST SWAP1 POP PUSH2 0x2EB9 PUSH1 0x60 DUP4 ADD DUP6 PUSH2 0x2638 JUMP JUMPDEST PUSH2 0x2EC6 PUSH1 0x80 DUP4 ADD DUP5 PUSH2 0x25BB JUMP JUMPDEST SWAP7 SWAP6 POP POP POP POP POP POP JUMP JUMPDEST PUSH1 0x0 PUSH2 0x2EDB DUP3 PUSH2 0x2495 JUMP JUMPDEST SWAP2 POP PUSH2 0x2EE6 DUP4 PUSH2 0x2495 JUMP JUMPDEST SWAP3 POP DUP3 DUP3 MUL PUSH2 0x2EF4 DUP2 PUSH2 0x2495 JUMP JUMPDEST SWAP2 POP DUP3 DUP3 DIV DUP5 EQ DUP4 ISZERO OR PUSH2 0x2F0B JUMPI PUSH2 0x2F0A PUSH2 0x2BDA JUMP JUMPDEST JUMPDEST POP SWAP3 SWAP2 POP POP JUMP JUMPDEST PUSH32 0x4E487B7100000000000000000000000000000000000000000000000000000000 PUSH1 0x0 MSTORE PUSH1 0x12 PUSH1 0x4 MSTORE PUSH1 0x24 PUSH1 0x0 REVERT JUMPDEST PUSH1 0x0 PUSH2 0x2F4C DUP3 PUSH2 0x2495 JUMP JUMPDEST SWAP2 POP PUSH2 0x2F57 DUP4 PUSH2 0x2495 JUMP JUMPDEST SWAP3 POP DUP3 PUSH2 0x2F67 JUMPI PUSH2 0x2F66 PUSH2 0x2F12 JUMP JUMPDEST JUMPDEST DUP3 DUP3 DIV SWAP1 POP SWAP3 SWAP2 POP POP JUMP JUMPDEST PUSH32 0x536166654D6174683A206D756C7469706C69636174696F6E206F766572666C6F PUSH1 0x0 DUP3 ADD MSTORE PUSH32 0x7700000000000000000000000000000000000000000000000000000000000000 PUSH1 0x20 DUP3 ADD MSTORE POP JUMP JUMPDEST PUSH1 0x0 PUSH2 0x2FCE PUSH1 0x21 DUP4 PUSH2 0x238B JUMP JUMPDEST SWAP2 POP PUSH2 0x2FD9 DUP3 PUSH2 0x2F72 JUMP JUMPDEST PUSH1 0x40 DUP3 ADD SWAP1 POP SWAP2 SWAP1 POP JUMP JUMPDEST PUSH1 0x0 PUSH1 0x20 DUP3 ADD SWAP1 POP DUP2 DUP2 SUB PUSH1 0x0 DUP4 ADD MSTORE PUSH2 0x2FFD DUP2 PUSH2 0x2FC1 JUMP JUMPDEST SWAP1 POP SWAP2 SWAP1 POP JUMP INVALID GASLIMIT MSTORE NUMBER ORIGIN ADDRESS GASPRICE KECCAK256 PUSH21 0x72616E7366657220616D6F756E7420657863656564 PUSH20 0x20616C6C6F77616E636545524332303A20646563 PUSH19 0x656173656420616C6C6F77616E63652062656C PUSH16 0x77207A65726FA2646970667358221220 0xA5 PUSH28 0x8F4663111BCF1CD72B39744D0844E50918E707445C985EEE726E59E9 PUSH30 0x4564736F6C63430008130033000000000000000000000000000000000000 "
				},
				"gasEstimates": {
					"creation": {
						"codeDepositCost": "2484600",
						"executionCost": "infinite",
						"totalCost": "infinite"
					},
					"external": {
						"_marketingFee()": "2497",
						"_totalTax()": "2474",
						"allowance(address,address)": "infinite",
						"approve(address,uint256)": "infinite",
						"balanceOf(address)": "2887",
						"deadAddress()": "2626",
						"decimals()": "2547",
						"decreaseAllowance(address,uint256)": "infinite",
						"getCirculatingSupply()": "infinite",
						"increaseAllowance(address,uint256)": "infinite",
						"isExcludedFromFee(address)": "2934",
						"isMarketPair(address)": "2890",
						"marketingWallet()": "2632",
						"minimumTokensBeforeSwapAmount()": "2548",
						"name()": "infinite",
						"owner()": "2567",
						"setIsExcludedFromFee(address,bool)": "27281",
						"setMarketPairStatus(address,bool)": "27283",
						"setMarketingWallet(address)": "27085",
						"setNumTokensBeforeSwap(uint256)": "24834",
						"swapAndLiquifyByLimitOnly()": "2565",
						"swapAndLiquifyEnabled()": "2588",
						"symbol()": "infinite",
						"totalSupply()": "2483",
						"transfer(address,uint256)": "infinite",
						"transferFrom(address,address,uint256)": "infinite",
						"transferOwnership(address)": "30747",
						"uniswapPair()": "2625",
						"uniswapV2Router()": "infinite",
						"waiveOwnership()": "30358"
					},
					"internal": {
						"_approve(address,address,uint256)": "infinite",
						"_basicTransfer(address,address,uint256)": "infinite",
						"_transfer(address,address,uint256)": "infinite",
						"swapAndLiquify(uint256)": "infinite",
						"swapTokensForBNB(uint256)": "infinite",
						"takeFee(address,address,uint256)": "infinite",
						"transferToAddressETH(address payable,uint256)": "infinite"
					}
				},
				"methodIdentifiers": {
					"_marketingFee()": "22976e0d",
					"_totalTax()": "a1ca5347",
					"allowance(address,address)": "dd62ed3e",
					"approve(address,uint256)": "095ea7b3",
					"balanceOf(address)": "70a08231",
					"deadAddress()": "27c8f835",
					"decimals()": "313ce567",
					"decreaseAllowance(address,uint256)": "a457c2d7",
					"getCirculatingSupply()": "2b112e49",
					"increaseAllowance(address,uint256)": "39509351",
					"isExcludedFromFee(address)": "5342acb4",
					"isMarketPair(address)": "3ecad271",
					"marketingWallet()": "75f0a874",
					"minimumTokensBeforeSwapAmount()": "a073d37f",
					"name()": "06fdde03",
					"owner()": "8da5cb5b",
					"setIsExcludedFromFee(address,bool)": "ef422a18",
					"setMarketPairStatus(address,bool)": "844d591c",
					"setMarketingWallet(address)": "5d098b38",
					"setNumTokensBeforeSwap(uint256)": "3b97084a",
					"swapAndLiquifyByLimitOnly()": "da00097d",
					"swapAndLiquifyEnabled()": "4a74bb02",
					"symbol()": "95d89b41",
					"totalSupply()": "18160ddd",
					"transfer(address,uint256)": "a9059cbb",
					"transferFrom(address,address,uint256)": "23b872dd",
					"transferOwnership(address)": "f2fde38b",
					"uniswapPair()": "c816841b",
					"uniswapV2Router()": "1694505e",
					"waiveOwnership()": "914eb66a"
				}
			},
			"storageLayout": {
				"storage": [
					{
						"astId": 476,
						"contract": "contracts/yi.sol:YI",
						"label": "_owner",
						"offset": 0,
						"slot": "0",
						"type": "t_address"
					},
					{
						"astId": 1264,
						"contract": "contracts/yi.sol:YI",
						"label": "_name",
						"offset": 0,
						"slot": "1",
						"type": "t_string_storage"
					},
					{
						"astId": 1267,
						"contract": "contracts/yi.sol:YI",
						"label": "_symbol",
						"offset": 0,
						"slot": "2",
						"type": "t_string_storage"
					},
					{
						"astId": 1270,
						"contract": "contracts/yi.sol:YI",
						"label": "_decimals",
						"offset": 0,
						"slot": "3",
						"type": "t_uint8"
					},
					{
						"astId": 1276,
						"contract": "contracts/yi.sol:YI",
						"label": "marketingWallet",
						"offset": 1,
						"slot": "3",
						"type": "t_address_payable"
					},
					{
						"astId": 1279,
						"contract": "contracts/yi.sol:YI",
						"label": "deadAddress",
						"offset": 0,
						"slot": "4",
						"type": "t_address"
					},
					{
						"astId": 1283,
						"contract": "contracts/yi.sol:YI",
						"label": "_balances",
						"offset": 0,
						"slot": "5",
						"type": "t_mapping(t_address,t_uint256)"
					},
					{
						"astId": 1289,
						"contract": "contracts/yi.sol:YI",
						"label": "_allowances",
						"offset": 0,
						"slot": "6",
						"type": "t_mapping(t_address,t_mapping(t_address,t_uint256))"
					},
					{
						"astId": 1293,
						"contract": "contracts/yi.sol:YI",
						"label": "isExcludedFromFee",
						"offset": 0,
						"slot": "7",
						"type": "t_mapping(t_address,t_bool)"
					},
					{
						"astId": 1297,
						"contract": "contracts/yi.sol:YI",
						"label": "isMarketPair",
						"offset": 0,
						"slot": "8",
						"type": "t_mapping(t_address,t_bool)"
					},
					{
						"astId": 1300,
						"contract": "contracts/yi.sol:YI",
						"label": "_marketingFee",
						"offset": 0,
						"slot": "9",
						"type": "t_uint256"
					},
					{
						"astId": 1303,
						"contract": "contracts/yi.sol:YI",
						"label": "_totalTax",
						"offset": 0,
						"slot": "10",
						"type": "t_uint256"
					},
					{
						"astId": 1310,
						"contract": "contracts/yi.sol:YI",
						"label": "_totalSupply",
						"offset": 0,
						"slot": "11",
						"type": "t_uint256"
					},
					{
						"astId": 1317,
						"contract": "contracts/yi.sol:YI",
						"label": "minimumTokensBeforeSwap",
						"offset": 0,
						"slot": "12",
						"type": "t_uint256"
					},
					{
						"astId": 1320,
						"contract": "contracts/yi.sol:YI",
						"label": "uniswapV2Router",
						"offset": 0,
						"slot": "13",
						"type": "t_contract(IUniswapV2Router02)1249"
					},
					{
						"astId": 1322,
						"contract": "contracts/yi.sol:YI",
						"label": "uniswapPair",
						"offset": 0,
						"slot": "14",
						"type": "t_address"
					},
					{
						"astId": 1324,
						"contract": "contracts/yi.sol:YI",
						"label": "inSwapAndLiquify",
						"offset": 20,
						"slot": "14",
						"type": "t_bool"
					},
					{
						"astId": 1327,
						"contract": "contracts/yi.sol:YI",
						"label": "swapAndLiquifyEnabled",
						"offset": 21,
						"slot": "14",
						"type": "t_bool"
					},
					{
						"astId": 1330,
						"contract": "contracts/yi.sol:YI",
						"label": "swapAndLiquifyByLimitOnly",
						"offset": 22,
						"slot": "14",
						"type": "t_bool"
					}
				],
				"types": {
					"t_address": {
						"encoding": "inplace",
						"label": "address",
						"numberOfBytes": "20"
					},
					"t_address_payable": {
						"encoding": "inplace",
						"label": "address payable",
						"numberOfBytes": "20"
					},
					"t_bool": {
						"encoding": "inplace",
						"label": "bool",
						"numberOfBytes": "1"
					},
					"t_contract(IUniswapV2Router02)1249": {
						"encoding": "inplace",
						"label": "contract IUniswapV2Router02",
						"numberOfBytes": "20"
					},
					"t_mapping(t_address,t_bool)": {
						"encoding": "mapping",
						"key": "t_address",
						"label": "mapping(address => bool)",
						"numberOfBytes": "32",
						"value": "t_bool"
					},
					"t_mapping(t_address,t_mapping(t_address,t_uint256))": {
						"encoding": "mapping",
						"key": "t_address",
						"label": "mapping(address => mapping(address => uint256))",
						"numberOfBytes": "32",
						"value": "t_mapping(t_address,t_uint256)"
					},
					"t_mapping(t_address,t_uint256)": {
						"encoding": "mapping",
						"key": "t_address",
						"label": "mapping(address => uint256)",
						"numberOfBytes": "32",
						"value": "t_uint256"
					},
					"t_string_storage": {
						"encoding": "bytes",
						"label": "string",
						"numberOfBytes": "32"
					},
					"t_uint256": {
						"encoding": "inplace",
						"label": "uint256",
						"numberOfBytes": "32"
					},
					"t_uint8": {
						"encoding": "inplace",
						"label": "uint8",
						"numberOfBytes": "1"
					}
				}
			},
			"userdoc": {
				"kind": "user",
				"methods": {},
				"version": 1
			}
		}
	}
}