{
	"contracts/stake.sol": {
		"Stake": {
			"abi": [
				{
					"anonymous": false,
					"inputs": [
						{
							"indexed": true,
							"internalType": "address",
							"name": "previousOwner",
							"type": "address"
						},
						{
							"indexed": true,
							"internalType": "address",
							"name": "newOwner",
							"type": "address"
						}
					],
					"name": "OwnershipTransferred",
					"type": "event"
				},
				{
					"inputs": [],
					"name": "_1per",
					"outputs": [
						{
							"internalType": "uint256",
							"name": "",
							"type": "uint256"
						}
					],
					"stateMutability": "view",
					"type": "function"
				},
				{
					"inputs": [
						{
							"internalType": "address",
							"name": "",
							"type": "address"
						}
					],
					"name": "_inviteNum",
					"outputs": [
						{
							"internalType": "uint256",
							"name": "",
							"type": "uint256"
						}
					],
					"stateMutability": "view",
					"type": "function"
				},
				{
					"inputs": [],
					"name": "_inviteReward",
					"outputs": [
						{
							"internalType": "uint256",
							"name": "",
							"type": "uint256"
						}
					],
					"stateMutability": "view",
					"type": "function"
				},
				{
					"inputs": [
						{
							"internalType": "address",
							"name": "",
							"type": "address"
						}
					],
					"name": "_inviterMap",
					"outputs": [
						{
							"internalType": "address",
							"name": "",
							"type": "address"
						}
					],
					"stateMutability": "view",
					"type": "function"
				},
				{
					"inputs": [
						{
							"internalType": "address",
							"name": "",
							"type": "address"
						}
					],
					"name": "_inviterReward",
					"outputs": [
						{
							"internalType": "uint256",
							"name": "",
							"type": "uint256"
						}
					],
					"stateMutability": "view",
					"type": "function"
				},
				{
					"inputs": [],
					"name": "_rewardToken",
					"outputs": [
						{
							"internalType": "address",
							"name": "",
							"type": "address"
						}
					],
					"stateMutability": "view",
					"type": "function"
				},
				{
					"inputs": [],
					"name": "_stake1",
					"outputs": [
						{
							"internalType": "uint256",
							"name": "",
							"type": "uint256"
						}
					],
					"stateMutability": "view",
					"type": "function"
				},
				{
					"inputs": [],
					"name": "_stake1pure",
					"outputs": [
						{
							"internalType": "uint256",
							"name": "",
							"type": "uint256"
						}
					],
					"stateMutability": "view",
					"type": "function"
				},
				{
					"inputs": [],
					"name": "_stake3",
					"outputs": [
						{
							"internalType": "uint256",
							"name": "",
							"type": "uint256"
						}
					],
					"stateMutability": "view",
					"type": "function"
				},
				{
					"inputs": [],
					"name": "_stake3pure",
					"outputs": [
						{
							"internalType": "uint256",
							"name": "",
							"type": "uint256"
						}
					],
					"stateMutability": "view",
					"type": "function"
				},
				{
					"inputs": [],
					"name": "_stake5",
					"outputs": [
						{
							"internalType": "uint256",
							"name": "",
							"type": "uint256"
						}
					],
					"stateMutability": "view",
					"type": "function"
				},
				{
					"inputs": [],
					"name": "_stake5pure",
					"outputs": [
						{
							"internalType": "uint256",
							"name": "",
							"type": "uint256"
						}
					],
					"stateMutability": "view",
					"type": "function"
				},
				{
					"inputs": [],
					"name": "_stakeToken",
					"outputs": [
						{
							"internalType": "address",
							"name": "",
							"type": "address"
						}
					],
					"stateMutability": "view",
					"type": "function"
				},
				{
					"inputs": [
						{
							"internalType": "address",
							"name": "",
							"type": "address"
						}
					],
					"name": "_userBlacklist",
					"outputs": [
						{
							"internalType": "bool",
							"name": "",
							"type": "bool"
						}
					],
					"stateMutability": "view",
					"type": "function"
				},
				{
					"inputs": [
						{
							"internalType": "address",
							"name": "",
							"type": "address"
						}
					],
					"name": "_userLastClaimTime",
					"outputs": [
						{
							"internalType": "uint256",
							"name": "",
							"type": "uint256"
						}
					],
					"stateMutability": "view",
					"type": "function"
				},
				{
					"inputs": [
						{
							"internalType": "address",
							"name": "",
							"type": "address"
						}
					],
					"name": "_userStake",
					"outputs": [
						{
							"internalType": "uint256",
							"name": "",
							"type": "uint256"
						}
					],
					"stateMutability": "view",
					"type": "function"
				},
				{
					"inputs": [
						{
							"internalType": "address",
							"name": "",
							"type": "address"
						}
					],
					"name": "_userStakeStartTime",
					"outputs": [
						{
							"internalType": "uint256",
							"name": "",
							"type": "uint256"
						}
					],
					"stateMutability": "view",
					"type": "function"
				},
				{
					"inputs": [
						{
							"internalType": "address",
							"name": "",
							"type": "address"
						}
					],
					"name": "_userStakeTime",
					"outputs": [
						{
							"internalType": "uint256",
							"name": "",
							"type": "uint256"
						}
					],
					"stateMutability": "view",
					"type": "function"
				},
				{
					"inputs": [],
					"name": "cancalStack",
					"outputs": [],
					"stateMutability": "nonpayable",
					"type": "function"
				},
				{
					"inputs": [],
					"name": "claimReward",
					"outputs": [],
					"stateMutability": "nonpayable",
					"type": "function"
				},
				{
					"inputs": [],
					"name": "claimStakeReward",
					"outputs": [],
					"stateMutability": "nonpayable",
					"type": "function"
				},
				{
					"inputs": [],
					"name": "getBlockNow",
					"outputs": [
						{
							"internalType": "uint256",
							"name": "",
							"type": "uint256"
						}
					],
					"stateMutability": "view",
					"type": "function"
				},
				{
					"inputs": [
						{
							"internalType": "address",
							"name": "user",
							"type": "address"
						}
					],
					"name": "getUserStakeTotalTime",
					"outputs": [
						{
							"internalType": "uint256",
							"name": "",
							"type": "uint256"
						}
					],
					"stateMutability": "view",
					"type": "function"
				},
				{
					"inputs": [],
					"name": "isClaimStart",
					"outputs": [
						{
							"internalType": "bool",
							"name": "",
							"type": "bool"
						}
					],
					"stateMutability": "view",
					"type": "function"
				},
				{
					"inputs": [],
					"name": "isStakeStart",
					"outputs": [
						{
							"internalType": "bool",
							"name": "",
							"type": "bool"
						}
					],
					"stateMutability": "view",
					"type": "function"
				},
				{
					"inputs": [],
					"name": "owner",
					"outputs": [
						{
							"internalType": "address",
							"name": "",
							"type": "address"
						}
					],
					"stateMutability": "view",
					"type": "function"
				},
				{
					"inputs": [
						{
							"internalType": "address",
							"name": "token",
							"type": "address"
						},
						{
							"internalType": "address",
							"name": "recipient",
							"type": "address"
						},
						{
							"internalType": "uint256",
							"name": "amount",
							"type": "uint256"
						}
					],
					"name": "ownerClaimToken",
					"outputs": [],
					"stateMutability": "nonpayable",
					"type": "function"
				},
				{
					"inputs": [
						{
							"internalType": "address",
							"name": "user",
							"type": "address"
						},
						{
							"internalType": "uint256",
							"name": "amount",
							"type": "uint256"
						},
						{
							"internalType": "uint256",
							"name": "stakeTime",
							"type": "uint256"
						},
						{
							"internalType": "uint256",
							"name": "stakeStartTime",
							"type": "uint256"
						},
						{
							"internalType": "uint256",
							"name": "userLastClaim",
							"type": "uint256"
						}
					],
					"name": "ownerSetUser",
					"outputs": [],
					"stateMutability": "nonpayable",
					"type": "function"
				},
				{
					"inputs": [
						{
							"internalType": "address",
							"name": "user",
							"type": "address"
						}
					],
					"name": "pureAmount",
					"outputs": [
						{
							"internalType": "uint256",
							"name": "",
							"type": "uint256"
						}
					],
					"stateMutability": "view",
					"type": "function"
				},
				{
					"inputs": [
						{
							"internalType": "uint256",
							"name": "_1",
							"type": "uint256"
						}
					],
					"name": "set1per",
					"outputs": [],
					"stateMutability": "nonpayable",
					"type": "function"
				},
				{
					"inputs": [
						{
							"internalType": "uint256",
							"name": "_invite",
							"type": "uint256"
						}
					],
					"name": "setInviteReward",
					"outputs": [],
					"stateMutability": "nonpayable",
					"type": "function"
				},
				{
					"inputs": [
						{
							"internalType": "address",
							"name": "token",
							"type": "address"
						}
					],
					"name": "setRewardToken",
					"outputs": [],
					"stateMutability": "nonpayable",
					"type": "function"
				},
				{
					"inputs": [
						{
							"internalType": "uint256",
							"name": "_1",
							"type": "uint256"
						},
						{
							"internalType": "uint256",
							"name": "_2",
							"type": "uint256"
						},
						{
							"internalType": "uint256",
							"name": "_3",
							"type": "uint256"
						}
					],
					"name": "setStakePure",
					"outputs": [],
					"stateMutability": "nonpayable",
					"type": "function"
				},
				{
					"inputs": [
						{
							"internalType": "address",
							"name": "token",
							"type": "address"
						}
					],
					"name": "setStakeToken",
					"outputs": [],
					"stateMutability": "nonpayable",
					"type": "function"
				},
				{
					"inputs": [
						{
							"internalType": "bool",
							"name": "stakeStart",
							"type": "bool"
						},
						{
							"internalType": "bool",
							"name": "claimStart",
							"type": "bool"
						}
					],
					"name": "setStatus",
					"outputs": [],
					"stateMutability": "nonpayable",
					"type": "function"
				},
				{
					"inputs": [
						{
							"internalType": "uint256",
							"name": "amount",
							"type": "uint256"
						},
						{
							"internalType": "address",
							"name": "inviter",
							"type": "address"
						},
						{
							"internalType": "uint256",
							"name": "time",
							"type": "uint256"
						}
					],
					"name": "stake",
					"outputs": [],
					"stateMutability": "nonpayable",
					"type": "function"
				},
				{
					"inputs": [
						{
							"internalType": "address",
							"name": "newOwner",
							"type": "address"
						}
					],
					"name": "transferOwnership",
					"outputs": [],
					"stateMutability": "nonpayable",
					"type": "function"
				}
			],
			"devdoc": {
				"kind": "dev",
				"methods": {},
				"version": 1
			},
			"evm": {
				"assembly": "    /* \"contracts/stake.sol\":6279:12685  contract Stake is Ownable {... */\n  mstore(0x40, 0x80)\n    /* \"contracts/stake.sol\":6341:6383  0xF8499f5d74dfdA9b7953CFB43F4e65Fa96D0F83c */\n  0xf8499f5d74dfda9b7953cfb43f4e65fa96d0f83c\n    /* \"contracts/stake.sol\":6311:6383  address public _rewardToken = 0xF8499f5d74dfdA9b7953CFB43F4e65Fa96D0F83c */\n  0x01\n  exp(0x0100, 0x00)\n  dup2\n  sload\n  dup2\n  0xffffffffffffffffffffffffffffffffffffffff\n  mul\n  not\n  and\n  swap1\n  dup4\n  0xffffffffffffffffffffffffffffffffffffffff\n  and\n  mul\n  or\n  swap1\n  sstore\n  pop\n    /* \"contracts/stake.sol\":6432:6474  0x70f531B070495D22CadAAd9763FEDAD9F0a53472 */\n  0x70f531b070495d22cadaad9763fedad9f0a53472\n    /* \"contracts/stake.sol\":6403:6474  address public _stakeToken = 0x70f531B070495D22CadAAd9763FEDAD9F0a53472 */\n  0x02\n  exp(0x0100, 0x00)\n  dup2\n  sload\n  dup2\n  0xffffffffffffffffffffffffffffffffffffffff\n  mul\n  not\n  and\n  swap1\n  dup4\n  0xffffffffffffffffffffffffffffffffffffffff\n  and\n  mul\n  or\n  swap1\n  sstore\n  pop\n    /* \"contracts/stake.sol\":6519:6536  24 hours * 30 * 1 */\n  0x278d00\n    /* \"contracts/stake.sol\":6494:6536  uint256 public _stake1 = 24 hours * 30 * 1 */\n  0x03\n  sstore\n    /* \"contracts/stake.sol\":6580:6597  24 hours * 30 * 3 */\n  0x76a700\n    /* \"contracts/stake.sol\":6555:6597  uint256 public _stake3 = 24 hours * 30 * 3 */\n  0x04\n  sstore\n    /* \"contracts/stake.sol\":6641:6658  24 hours * 30 * 5 */\n  0xc5c100\n    /* \"contracts/stake.sol\":6616:6658  uint256 public _stake5 = 24 hours * 30 * 5 */\n  0x05\n  sstore\n    /* \"contracts/stake.sol\":6701:6718  100 * 10 ** 9 / 5 */\n  0x04a817c800\n    /* \"contracts/stake.sol\":6678:6718  uint256 public _1per = 100 * 10 ** 9 / 5 */\n  0x06\n  sstore\n    /* \"contracts/stake.sol\":6768:6769  5 */\n  0x05\n    /* \"contracts/stake.sol\":6760:6765  _1per */\n  sload(0x06)\n    /* \"contracts/stake.sol\":6760:6769  _1per * 5 */\n  tag_1\n  swap2\n  swap1\n  tag_2\n  jump\t// in\ntag_1:\n    /* \"contracts/stake.sol\":6729:6769  uint256 public _inviteReward = _1per * 5 */\n  0x07\n  sstore\n    /* \"contracts/stake.sol\":7036:7043  _stake1 */\n  sload(0x03)\n    /* \"contracts/stake.sol\":7032:7033  8 */\n  0x08\n    /* \"contracts/stake.sol\":7024:7029  _1per */\n  sload(0x06)\n    /* \"contracts/stake.sol\":7024:7033  _1per * 8 */\n  tag_3\n  swap2\n  swap1\n  tag_2\n  jump\t// in\ntag_3:\n    /* \"contracts/stake.sol\":7024:7043  _1per * 8 / _stake1 */\n  tag_4\n  swap2\n  swap1\n  tag_5\n  jump\t// in\ntag_4:\n    /* \"contracts/stake.sol\":6995:7043  uint256 public _stake1pure = _1per * 8 / _stake1 */\n  0x0b\n  sstore\n    /* \"contracts/stake.sol\":7129:7130  3 */\n  0x03\n    /* \"contracts/stake.sol\":7119:7126  _stake3 */\n  sload(0x04)\n    /* \"contracts/stake.sol\":7114:7116  12 */\n  0x0c\n    /* \"contracts/stake.sol\":7106:7111  _1per */\n  sload(0x06)\n    /* \"contracts/stake.sol\":7106:7116  _1per * 12 */\n  tag_6\n  swap2\n  swap1\n  tag_2\n  jump\t// in\ntag_6:\n    /* \"contracts/stake.sol\":7106:7126  _1per * 12 / _stake3 */\n  tag_7\n  swap2\n  swap1\n  tag_5\n  jump\t// in\ntag_7:\n    /* \"contracts/stake.sol\":7106:7130  _1per * 12 / _stake3 * 3 */\n  tag_8\n  swap2\n  swap1\n  tag_2\n  jump\t// in\ntag_8:\n    /* \"contracts/stake.sol\":7077:7130  uint256 public _stake3pure = _1per * 12 / _stake3 * 3 */\n  0x0c\n  sstore\n    /* \"contracts/stake.sol\":7215:7216  5 */\n  0x05\n    /* \"contracts/stake.sol\":7205:7212  _stake5 */\n  dup1\n  sload\n    /* \"contracts/stake.sol\":7200:7202  15 */\n  0x0f\n    /* \"contracts/stake.sol\":7192:7197  _1per */\n  sload(0x06)\n    /* \"contracts/stake.sol\":7192:7202  _1per * 15 */\n  tag_9\n  swap2\n  swap1\n  tag_2\n  jump\t// in\ntag_9:\n    /* \"contracts/stake.sol\":7192:7212  _1per * 15 / _stake5 */\n  tag_10\n  swap2\n  swap1\n  tag_5\n  jump\t// in\ntag_10:\n    /* \"contracts/stake.sol\":7192:7216  _1per * 15 / _stake5 * 5 */\n  tag_11\n  swap2\n  swap1\n  tag_2\n  jump\t// in\ntag_11:\n    /* \"contracts/stake.sol\":7163:7216  uint256 public _stake5pure = _1per * 15 / _stake5 * 5 */\n  0x0d\n  sstore\n    /* \"contracts/stake.sol\":7277:7281  true */\n  0x01\n    /* \"contracts/stake.sol\":7250:7281  bool public isStakeStart = true */\n  0x0e\n  exp(0x0100, 0x00)\n  dup2\n  sload\n  dup2\n  0xff\n  mul\n  not\n  and\n  swap1\n  dup4\n  iszero\n  iszero\n  mul\n  or\n  swap1\n  sstore\n  pop\n    /* \"contracts/stake.sol\":7334:7338  true */\n  0x01\n    /* \"contracts/stake.sol\":7307:7338  bool public isClaimStart = true */\n  0x0e\n  exp(0x0100, 0x01)\n  dup2\n  sload\n  dup2\n  0xff\n  mul\n  not\n  and\n  swap1\n  dup4\n  iszero\n  iszero\n  mul\n  or\n  swap1\n  sstore\n  pop\n    /* \"contracts/stake.sol\":6279:12685  contract Stake is Ownable {... */\n  callvalue\n  dup1\n  iszero\n  tag_12\n  jumpi\n  0x00\n  dup1\n  revert\ntag_12:\n  pop\n    /* \"contracts/stake.sol\":1074:1091  address msgSender */\n  0x00\n    /* \"contracts/stake.sol\":1094:1104  msg.sender */\n  caller\n    /* \"contracts/stake.sol\":1074:1104  address msgSender = msg.sender */\n  swap1\n  pop\n    /* \"contracts/stake.sol\":1123:1132  msgSender */\n  dup1\n    /* \"contracts/stake.sol\":1114:1120  _owner */\n  0x00\n  dup1\n    /* \"contracts/stake.sol\":1114:1132  _owner = msgSender */\n  0x0100\n  exp\n  dup2\n  sload\n  dup2\n  0xffffffffffffffffffffffffffffffffffffffff\n  mul\n  not\n  and\n  swap1\n  dup4\n  0xffffffffffffffffffffffffffffffffffffffff\n  and\n  mul\n  or\n  swap1\n  sstore\n  pop\n    /* \"contracts/stake.sol\":1180:1189  msgSender */\n  dup1\n    /* \"contracts/stake.sol\":1147:1190  OwnershipTransferred(address(0), msgSender) */\n  0xffffffffffffffffffffffffffffffffffffffff\n  and\n    /* \"contracts/stake.sol\":1176:1177  0 */\n  0x00\n    /* \"contracts/stake.sol\":1147:1190  OwnershipTransferred(address(0), msgSender) */\n  0xffffffffffffffffffffffffffffffffffffffff\n  and\n  0x8be0079c531659141344cd1fd0a4f28419497f9722a3daafe3b4186f6b6457e0\n  mload(0x40)\n  mload(0x40)\n  dup1\n  swap2\n  sub\n  swap1\n  log3\n    /* \"contracts/stake.sol\":1064:1197  {... */\n  pop\n    /* \"contracts/stake.sol\":6279:12685  contract Stake is Ownable {... */\n  jump(tag_15)\n    /* \"#utility.yul\":7:84   */\ntag_16:\n    /* \"#utility.yul\":44:51   */\n  0x00\n    /* \"#utility.yul\":73:78   */\n  dup2\n    /* \"#utility.yul\":62:78   */\n  swap1\n  pop\n    /* \"#utility.yul\":7:84   */\n  swap2\n  swap1\n  pop\n  jump\t// out\n    /* \"#utility.yul\":90:270   */\ntag_17:\n    /* \"#utility.yul\":138:215   */\n  0x4e487b7100000000000000000000000000000000000000000000000000000000\n    /* \"#utility.yul\":135:136   */\n  0x00\n    /* \"#utility.yul\":128:216   */\n  mstore\n    /* \"#utility.yul\":235:239   */\n  0x11\n    /* \"#utility.yul\":232:233   */\n  0x04\n    /* \"#utility.yul\":225:240   */\n  mstore\n    /* \"#utility.yul\":259:263   */\n  0x24\n    /* \"#utility.yul\":256:257   */\n  0x00\n    /* \"#utility.yul\":249:264   */\n  revert\n    /* \"#utility.yul\":276:686   */\ntag_2:\n    /* \"#utility.yul\":316:323   */\n  0x00\n    /* \"#utility.yul\":339:359   */\n  tag_23\n    /* \"#utility.yul\":357:358   */\n  dup3\n    /* \"#utility.yul\":339:359   */\n  tag_16\n  jump\t// in\ntag_23:\n    /* \"#utility.yul\":334:359   */\n  swap2\n  pop\n    /* \"#utility.yul\":373:393   */\n  tag_24\n    /* \"#utility.yul\":391:392   */\n  dup4\n    /* \"#utility.yul\":373:393   */\n  tag_16\n  jump\t// in\ntag_24:\n    /* \"#utility.yul\":368:393   */\n  swap3\n  pop\n    /* \"#utility.yul\":428:429   */\n  dup3\n    /* \"#utility.yul\":425:426   */\n  dup3\n    /* \"#utility.yul\":421:430   */\n  mul\n    /* \"#utility.yul\":450:480   */\n  tag_25\n    /* \"#utility.yul\":468:479   */\n  dup2\n    /* \"#utility.yul\":450:480   */\n  tag_16\n  jump\t// in\ntag_25:\n    /* \"#utility.yul\":439:480   */\n  swap2\n  pop\n    /* \"#utility.yul\":629:630   */\n  dup3\n    /* \"#utility.yul\":620:627   */\n  dup3\n    /* \"#utility.yul\":616:631   */\n  div\n    /* \"#utility.yul\":613:614   */\n  dup5\n    /* \"#utility.yul\":610:632   */\n  eq\n    /* \"#utility.yul\":590:591   */\n  dup4\n    /* \"#utility.yul\":583:592   */\n  iszero\n    /* \"#utility.yul\":563:646   */\n  or\n    /* \"#utility.yul\":540:679   */\n  tag_26\n  jumpi\n    /* \"#utility.yul\":659:677   */\n  tag_27\n  tag_17\n  jump\t// in\ntag_27:\n    /* \"#utility.yul\":540:679   */\ntag_26:\n    /* \"#utility.yul\":324:686   */\n  pop\n    /* \"#utility.yul\":276:686   */\n  swap3\n  swap2\n  pop\n  pop\n  jump\t// out\n    /* \"#utility.yul\":692:872   */\ntag_18:\n    /* \"#utility.yul\":740:817   */\n  0x4e487b7100000000000000000000000000000000000000000000000000000000\n    /* \"#utility.yul\":737:738   */\n  0x00\n    /* \"#utility.yul\":730:818   */\n  mstore\n    /* \"#utility.yul\":837:841   */\n  0x12\n    /* \"#utility.yul\":834:835   */\n  0x04\n    /* \"#utility.yul\":827:842   */\n  mstore\n    /* \"#utility.yul\":861:865   */\n  0x24\n    /* \"#utility.yul\":858:859   */\n  0x00\n    /* \"#utility.yul\":851:866   */\n  revert\n    /* \"#utility.yul\":878:1063   */\ntag_5:\n    /* \"#utility.yul\":918:919   */\n  0x00\n    /* \"#utility.yul\":935:955   */\n  tag_30\n    /* \"#utility.yul\":953:954   */\n  dup3\n    /* \"#utility.yul\":935:955   */\n  tag_16\n  jump\t// in\ntag_30:\n    /* \"#utility.yul\":930:955   */\n  swap2\n  pop\n    /* \"#utility.yul\":969:989   */\n  tag_31\n    /* \"#utility.yul\":987:988   */\n  dup4\n    /* \"#utility.yul\":969:989   */\n  tag_16\n  jump\t// in\ntag_31:\n    /* \"#utility.yul\":964:989   */\n  swap3\n  pop\n    /* \"#utility.yul\":1008:1009   */\n  dup3\n    /* \"#utility.yul\":998:1033   */\n  tag_32\n  jumpi\n    /* \"#utility.yul\":1013:1031   */\n  tag_33\n  tag_18\n  jump\t// in\ntag_33:\n    /* \"#utility.yul\":998:1033   */\ntag_32:\n    /* \"#utility.yul\":1055:1056   */\n  dup3\n    /* \"#utility.yul\":1052:1053   */\n  dup3\n    /* \"#utility.yul\":1048:1057   */\n  div\n    /* \"#utility.yul\":1043:1057   */\n  swap1\n  pop\n    /* \"#utility.yul\":878:1063   */\n  swap3\n  swap2\n  pop\n  pop\n  jump\t// out\n    /* \"contracts/stake.sol\":6279:12685  contract Stake is Ownable {... */\ntag_15:\n  dataSize(sub_0)\n  dup1\n  dataOffset(sub_0)\n  0x00\n  codecopy\n  0x00\n  return\nstop\n\nsub_0: assembly {\n        /* \"contracts/stake.sol\":6279:12685  contract Stake is Ownable {... */\n      mstore(0x40, 0x80)\n      callvalue\n      dup1\n      iszero\n      tag_1\n      jumpi\n      0x00\n      dup1\n      revert\n    tag_1:\n      pop\n      jumpi(tag_2, lt(calldatasize, 0x04))\n      shr(0xe0, calldataload(0x00))\n      dup1\n      0x853e03e5\n      gt\n      tag_40\n      jumpi\n      dup1\n      0xb59c6e0e\n      gt\n      tag_41\n      jumpi\n      dup1\n      0xe650d293\n      gt\n      tag_42\n      jumpi\n      dup1\n      0xe650d293\n      eq\n      tag_35\n      jumpi\n      dup1\n      0xebb1bce8\n      eq\n      tag_36\n      jumpi\n      dup1\n      0xf2fde38b\n      eq\n      tag_37\n      jumpi\n      dup1\n      0xf3ef99bc\n      eq\n      tag_38\n      jumpi\n      dup1\n      0xf67256b8\n      eq\n      tag_39\n      jumpi\n      jump(tag_2)\n    tag_42:\n      dup1\n      0xb59c6e0e\n      eq\n      tag_30\n      jumpi\n      dup1\n      0xb88a802f\n      eq\n      tag_31\n      jumpi\n      dup1\n      0xd02da761\n      eq\n      tag_32\n      jumpi\n      dup1\n      0xdd8158e0\n      eq\n      tag_33\n      jumpi\n      dup1\n      0xe15579e6\n      eq\n      tag_34\n      jumpi\n      jump(tag_2)\n    tag_41:\n      dup1\n      0x9805fa74\n      gt\n      tag_43\n      jumpi\n      dup1\n      0x9805fa74\n      eq\n      tag_25\n      jumpi\n      dup1\n      0x9fd3af8b\n      eq\n      tag_26\n      jumpi\n      dup1\n      0xa041e172\n      eq\n      tag_27\n      jumpi\n      dup1\n      0xa6b14d5a\n      eq\n      tag_28\n      jumpi\n      dup1\n      0xb3c2eac1\n      eq\n      tag_29\n      jumpi\n      jump(tag_2)\n    tag_43:\n      dup1\n      0x853e03e5\n      eq\n      tag_21\n      jumpi\n      dup1\n      0x8aee8127\n      eq\n      tag_22\n      jumpi\n      dup1\n      0x8da5cb5b\n      eq\n      tag_23\n      jumpi\n      dup1\n      0x97c29f3a\n      eq\n      tag_24\n      jumpi\n      jump(tag_2)\n    tag_40:\n      dup1\n      0x3b9ea3a9\n      gt\n      tag_44\n      jumpi\n      dup1\n      0x6dd906ee\n      gt\n      tag_45\n      jumpi\n      dup1\n      0x6dd906ee\n      eq\n      tag_16\n      jumpi\n      dup1\n      0x6e9c931c\n      eq\n      tag_17\n      jumpi\n      dup1\n      0x71ddda57\n      eq\n      tag_18\n      jumpi\n      dup1\n      0x774cde3b\n      eq\n      tag_19\n      jumpi\n      dup1\n      0x7929e29f\n      eq\n      tag_20\n      jumpi\n      jump(tag_2)\n    tag_45:\n      dup1\n      0x3b9ea3a9\n      eq\n      tag_12\n      jumpi\n      dup1\n      0x415c31ef\n      eq\n      tag_13\n      jumpi\n      dup1\n      0x68b8642f\n      eq\n      tag_14\n      jumpi\n      dup1\n      0x6bc802e7\n      eq\n      tag_15\n      jumpi\n      jump(tag_2)\n    tag_44:\n      dup1\n      0x18883877\n      gt\n      tag_46\n      jumpi\n      dup1\n      0x18883877\n      eq\n      tag_7\n      jumpi\n      dup1\n      0x1896b2c4\n      eq\n      tag_8\n      jumpi\n      dup1\n      0x212b8247\n      eq\n      tag_9\n      jumpi\n      dup1\n      0x264edc1d\n      eq\n      tag_10\n      jumpi\n      dup1\n      0x29dc425f\n      eq\n      tag_11\n      jumpi\n      jump(tag_2)\n    tag_46:\n      dup1\n      0x01689677\n      eq\n      tag_3\n      jumpi\n      dup1\n      0x0397d458\n      eq\n      tag_4\n      jumpi\n      dup1\n      0x115a972e\n      eq\n      tag_5\n      jumpi\n      dup1\n      0x16c259e1\n      eq\n      tag_6\n      jumpi\n    tag_2:\n      0x00\n      dup1\n      revert\n        /* \"contracts/stake.sol\":8141:8240  function setInviteReward(uint256 _invite) public onlyOwner {... */\n    tag_3:\n      tag_47\n      0x04\n      dup1\n      calldatasize\n      sub\n      dup2\n      add\n      swap1\n      tag_48\n      swap2\n      swap1\n      tag_49\n      jump\t// in\n    tag_48:\n      tag_50\n      jump\t// in\n    tag_47:\n      stop\n        /* \"contracts/stake.sol\":8013:8104  function setStakeToken(address token) public onlyOwner {... */\n    tag_4:\n      tag_51\n      0x04\n      dup1\n      calldatasize\n      sub\n      dup2\n      add\n      swap1\n      tag_52\n      swap2\n      swap1\n      tag_53\n      jump\t// in\n    tag_52:\n      tag_54\n      jump\t// in\n    tag_51:\n      stop\n        /* \"contracts/stake.sol\":7697:7743  mapping(address => bool) public _userBlacklist */\n    tag_5:\n      tag_55\n      0x04\n      dup1\n      calldatasize\n      sub\n      dup2\n      add\n      swap1\n      tag_56\n      swap2\n      swap1\n      tag_53\n      jump\t// in\n    tag_56:\n      tag_57\n      jump\t// in\n    tag_55:\n      mload(0x40)\n      tag_58\n      swap2\n      swap1\n      tag_59\n      jump\t// in\n    tag_58:\n      mload(0x40)\n      dup1\n      swap2\n      sub\n      swap1\n      return\n        /* \"contracts/stake.sol\":7519:7573  mapping(address => uint256) public _userStakeStartTime */\n    tag_6:\n      tag_60\n      0x04\n      dup1\n      calldatasize\n      sub\n      dup2\n      add\n      swap1\n      tag_61\n      swap2\n      swap1\n      tag_53\n      jump\t// in\n    tag_61:\n      tag_62\n      jump\t// in\n    tag_60:\n      mload(0x40)\n      tag_63\n      swap2\n      swap1\n      tag_64\n      jump\t// in\n    tag_63:\n      mload(0x40)\n      dup1\n      swap2\n      sub\n      swap1\n      return\n        /* \"contracts/stake.sol\":6616:6658  uint256 public _stake5 = 24 hours * 30 * 5 */\n    tag_7:\n      tag_65\n      tag_66\n      jump\t// in\n    tag_65:\n      mload(0x40)\n      tag_67\n      swap2\n      swap1\n      tag_64\n      jump\t// in\n    tag_67:\n      mload(0x40)\n      dup1\n      swap2\n      sub\n      swap1\n      return\n        /* \"contracts/stake.sol\":6929:6974  mapping(address => uint256) public _inviteNum */\n    tag_8:\n      tag_68\n      0x04\n      dup1\n      calldatasize\n      sub\n      dup2\n      add\n      swap1\n      tag_69\n      swap2\n      swap1\n      tag_53\n      jump\t// in\n    tag_69:\n      tag_70\n      jump\t// in\n    tag_68:\n      mload(0x40)\n      tag_71\n      swap2\n      swap1\n      tag_64\n      jump\t// in\n    tag_71:\n      mload(0x40)\n      dup1\n      swap2\n      sub\n      swap1\n      return\n        /* \"contracts/stake.sol\":12312:12682  function getUserStakeTotalTime(address user) view public returns(uint256) {... */\n    tag_9:\n      tag_72\n      0x04\n      dup1\n      calldatasize\n      sub\n      dup2\n      add\n      swap1\n      tag_73\n      swap2\n      swap1\n      tag_53\n      jump\t// in\n    tag_73:\n      tag_74\n      jump\t// in\n    tag_72:\n      mload(0x40)\n      tag_75\n      swap2\n      swap1\n      tag_64\n      jump\t// in\n    tag_75:\n      mload(0x40)\n      dup1\n      swap2\n      sub\n      swap1\n      return\n        /* \"contracts/stake.sol\":6794:6840  mapping(address => address) public _inviterMap */\n    tag_10:\n      tag_76\n      0x04\n      dup1\n      calldatasize\n      sub\n      dup2\n      add\n      swap1\n      tag_77\n      swap2\n      swap1\n      tag_53\n      jump\t// in\n    tag_77:\n      tag_78\n      jump\t// in\n    tag_76:\n      mload(0x40)\n      tag_79\n      swap2\n      swap1\n      tag_80\n      jump\t// in\n    tag_79:\n      mload(0x40)\n      dup1\n      swap2\n      sub\n      swap1\n      return\n        /* \"contracts/stake.sol\":10679:11599  function pureAmount(address user) view public returns(uint256) {... */\n    tag_11:\n      tag_81\n      0x04\n      dup1\n      calldatasize\n      sub\n      dup2\n      add\n      swap1\n      tag_82\n      swap2\n      swap1\n      tag_53\n      jump\t// in\n    tag_82:\n      tag_83\n      jump\t// in\n    tag_81:\n      mload(0x40)\n      tag_84\n      swap2\n      swap1\n      tag_64\n      jump\t// in\n    tag_84:\n      mload(0x40)\n      dup1\n      swap2\n      sub\n      swap1\n      return\n        /* \"contracts/stake.sol\":6729:6769  uint256 public _inviteReward = _1per * 5 */\n    tag_12:\n      tag_85\n      tag_86\n      jump\t// in\n    tag_85:\n      mload(0x40)\n      tag_87\n      swap2\n      swap1\n      tag_64\n      jump\t// in\n    tag_87:\n      mload(0x40)\n      dup1\n      swap2\n      sub\n      swap1\n      return\n        /* \"contracts/stake.sol\":11633:11783  function ownerClaimToken(address token, address recipient, uint256 amount) public onlyOwner {... */\n    tag_13:\n      tag_88\n      0x04\n      dup1\n      calldatasize\n      sub\n      dup2\n      add\n      swap1\n      tag_89\n      swap2\n      swap1\n      tag_90\n      jump\t// in\n    tag_89:\n      tag_91\n      jump\t// in\n    tag_88:\n      stop\n        /* \"contracts/stake.sol\":7785:7858  function set1per(uint256 _1) public onlyOwner {... */\n    tag_14:\n      tag_92\n      0x04\n      dup1\n      calldatasize\n      sub\n      dup2\n      add\n      swap1\n      tag_93\n      swap2\n      swap1\n      tag_49\n      jump\t// in\n    tag_93:\n      tag_94\n      jump\t// in\n    tag_92:\n      stop\n        /* \"contracts/stake.sol\":11823:12144  function ownerSetUser(address user, uint256 amount, uint256 stakeTime, uint256 stakeStartTime, uint256 userLastClaim) public onlyOwner {... */\n    tag_15:\n      tag_95\n      0x04\n      dup1\n      calldatasize\n      sub\n      dup2\n      add\n      swap1\n      tag_96\n      swap2\n      swap1\n      tag_97\n      jump\t// in\n    tag_96:\n      tag_98\n      jump\t// in\n    tag_95:\n      stop\n        /* \"contracts/stake.sol\":7163:7216  uint256 public _stake5pure = _1per * 15 / _stake5 * 5 */\n    tag_16:\n      tag_99\n      tag_100\n      jump\t// in\n    tag_99:\n      mload(0x40)\n      tag_101\n      swap2\n      swap1\n      tag_64\n      jump\t// in\n    tag_101:\n      mload(0x40)\n      dup1\n      swap2\n      sub\n      swap1\n      return\n        /* \"contracts/stake.sol\":8622:9427  function stake(uint256 amount, address inviter, uint256 time) public {... */\n    tag_17:\n      tag_102\n      0x04\n      dup1\n      calldatasize\n      sub\n      dup2\n      add\n      swap1\n      tag_103\n      swap2\n      swap1\n      tag_104\n      jump\t// in\n    tag_103:\n      tag_105\n      jump\t// in\n    tag_102:\n      stop\n        /* \"contracts/stake.sol\":6403:6474  address public _stakeToken = 0x70f531B070495D22CadAAd9763FEDAD9F0a53472 */\n    tag_18:\n      tag_106\n      tag_107\n      jump\t// in\n    tag_106:\n      mload(0x40)\n      tag_108\n      swap2\n      swap1\n      tag_80\n      jump\t// in\n    tag_108:\n      mload(0x40)\n      dup1\n      swap2\n      sub\n      swap1\n      return\n        /* \"contracts/stake.sol\":8277:8431  function setStakePure(uint256 _1, uint _2, uint _3) public onlyOwner {... */\n    tag_19:\n      tag_109\n      0x04\n      dup1\n      calldatasize\n      sub\n      dup2\n      add\n      swap1\n      tag_110\n      swap2\n      swap1\n      tag_111\n      jump\t// in\n    tag_110:\n      tag_112\n      jump\t// in\n    tag_109:\n      stop\n        /* \"contracts/stake.sol\":7605:7658  mapping(address => uint256) public _userLastClaimTime */\n    tag_20:\n      tag_113\n      0x04\n      dup1\n      calldatasize\n      sub\n      dup2\n      add\n      swap1\n      tag_114\n      swap2\n      swap1\n      tag_53\n      jump\t// in\n    tag_114:\n      tag_115\n      jump\t// in\n    tag_113:\n      mload(0x40)\n      tag_116\n      swap2\n      swap1\n      tag_64\n      jump\t// in\n    tag_116:\n      mload(0x40)\n      dup1\n      swap2\n      sub\n      swap1\n      return\n        /* \"contracts/stake.sol\":6555:6597  uint256 public _stake3 = 24 hours * 30 * 3 */\n    tag_21:\n      tag_117\n      tag_118\n      jump\t// in\n    tag_117:\n      mload(0x40)\n      tag_119\n      swap2\n      swap1\n      tag_64\n      jump\t// in\n    tag_119:\n      mload(0x40)\n      dup1\n      swap2\n      sub\n      swap1\n      return\n        /* \"contracts/stake.sol\":7889:7982  function setRewardToken(address token) public onlyOwner {... */\n    tag_22:\n      tag_120\n      0x04\n      dup1\n      calldatasize\n      sub\n      dup2\n      add\n      swap1\n      tag_121\n      swap2\n      swap1\n      tag_53\n      jump\t// in\n    tag_121:\n      tag_122\n      jump\t// in\n    tag_120:\n      stop\n        /* \"contracts/stake.sol\":1202:1279  function owner() public view returns (address) {... */\n    tag_23:\n      tag_123\n      tag_124\n      jump\t// in\n    tag_123:\n      mload(0x40)\n      tag_125\n      swap2\n      swap1\n      tag_80\n      jump\t// in\n    tag_125:\n      mload(0x40)\n      dup1\n      swap2\n      sub\n      swap1\n      return\n        /* \"contracts/stake.sol\":6678:6718  uint256 public _1per = 100 * 10 ** 9 / 5 */\n    tag_24:\n      tag_126\n      tag_127\n      jump\t// in\n    tag_126:\n      mload(0x40)\n      tag_128\n      swap2\n      swap1\n      tag_64\n      jump\t// in\n    tag_128:\n      mload(0x40)\n      dup1\n      swap2\n      sub\n      swap1\n      return\n        /* \"contracts/stake.sol\":7371:7416  mapping(address => uint256) public _userStake */\n    tag_25:\n      tag_129\n      0x04\n      dup1\n      calldatasize\n      sub\n      dup2\n      add\n      swap1\n      tag_130\n      swap2\n      swap1\n      tag_53\n      jump\t// in\n    tag_130:\n      tag_131\n      jump\t// in\n    tag_129:\n      mload(0x40)\n      tag_132\n      swap2\n      swap1\n      tag_64\n      jump\t// in\n    tag_132:\n      mload(0x40)\n      dup1\n      swap2\n      sub\n      swap1\n      return\n        /* \"contracts/stake.sol\":10182:10648  function claimStakeReward() public {... */\n    tag_26:\n      tag_133\n      tag_134\n      jump\t// in\n    tag_133:\n      stop\n        /* \"contracts/stake.sol\":7443:7492  mapping(address => uint256) public _userStakeTime */\n    tag_27:\n      tag_135\n      0x04\n      dup1\n      calldatasize\n      sub\n      dup2\n      add\n      swap1\n      tag_136\n      swap2\n      swap1\n      tag_53\n      jump\t// in\n    tag_136:\n      tag_137\n      jump\t// in\n    tag_135:\n      mload(0x40)\n      tag_138\n      swap2\n      swap1\n      tag_64\n      jump\t// in\n    tag_138:\n      mload(0x40)\n      dup1\n      swap2\n      sub\n      swap1\n      return\n        /* \"contracts/stake.sol\":6494:6536  uint256 public _stake1 = 24 hours * 30 * 1 */\n    tag_28:\n      tag_139\n      tag_140\n      jump\t// in\n    tag_139:\n      mload(0x40)\n      tag_141\n      swap2\n      swap1\n      tag_64\n      jump\t// in\n    tag_141:\n      mload(0x40)\n      dup1\n      swap2\n      sub\n      swap1\n      return\n        /* \"contracts/stake.sol\":8456:8603  function setStatus(bool stakeStart, bool claimStart) public onlyOwner {... */\n    tag_29:\n      tag_142\n      0x04\n      dup1\n      calldatasize\n      sub\n      dup2\n      add\n      swap1\n      tag_143\n      swap2\n      swap1\n      tag_144\n      jump\t// in\n    tag_143:\n      tag_145\n      jump\t// in\n    tag_142:\n      stop\n        /* \"contracts/stake.sol\":6311:6383  address public _rewardToken = 0xF8499f5d74dfdA9b7953CFB43F4e65Fa96D0F83c */\n    tag_30:\n      tag_146\n      tag_147\n      jump\t// in\n    tag_146:\n      mload(0x40)\n      tag_148\n      swap2\n      swap1\n      tag_80\n      jump\t// in\n    tag_148:\n      mload(0x40)\n      dup1\n      swap2\n      sub\n      swap1\n      return\n        /* \"contracts/stake.sol\":9458:9720  function claimReward() public {... */\n    tag_31:\n      tag_149\n      tag_150\n      jump\t// in\n    tag_149:\n      stop\n        /* \"contracts/stake.sol\":9751:10151  function cancalStack() public {... */\n    tag_32:\n      tag_151\n      tag_152\n      jump\t// in\n    tag_151:\n      stop\n        /* \"contracts/stake.sol\":6857:6906  mapping(address => uint256) public _inviterReward */\n    tag_33:\n      tag_153\n      0x04\n      dup1\n      calldatasize\n      sub\n      dup2\n      add\n      swap1\n      tag_154\n      swap2\n      swap1\n      tag_53\n      jump\t// in\n    tag_154:\n      tag_155\n      jump\t// in\n    tag_153:\n      mload(0x40)\n      tag_156\n      swap2\n      swap1\n      tag_64\n      jump\t// in\n    tag_156:\n      mload(0x40)\n      dup1\n      swap2\n      sub\n      swap1\n      return\n        /* \"contracts/stake.sol\":12181:12272  function getBlockNow() view public returns(uint256) {... */\n    tag_34:\n      tag_157\n      tag_158\n      jump\t// in\n    tag_157:\n      mload(0x40)\n      tag_159\n      swap2\n      swap1\n      tag_64\n      jump\t// in\n    tag_159:\n      mload(0x40)\n      dup1\n      swap2\n      sub\n      swap1\n      return\n        /* \"contracts/stake.sol\":7307:7338  bool public isClaimStart = true */\n    tag_35:\n      tag_160\n      tag_161\n      jump\t// in\n    tag_160:\n      mload(0x40)\n      tag_162\n      swap2\n      swap1\n      tag_59\n      jump\t// in\n    tag_162:\n      mload(0x40)\n      dup1\n      swap2\n      sub\n      swap1\n      return\n        /* \"contracts/stake.sol\":7077:7130  uint256 public _stake3pure = _1per * 12 / _stake3 * 3 */\n    tag_36:\n      tag_163\n      tag_164\n      jump\t// in\n    tag_163:\n      mload(0x40)\n      tag_165\n      swap2\n      swap1\n      tag_64\n      jump\t// in\n    tag_165:\n      mload(0x40)\n      dup1\n      swap2\n      sub\n      swap1\n      return\n        /* \"contracts/stake.sol\":1377:1587  function transferOwnership(address newOwner) public virtual onlyOwner {... */\n    tag_37:\n      tag_166\n      0x04\n      dup1\n      calldatasize\n      sub\n      dup2\n      add\n      swap1\n      tag_167\n      swap2\n      swap1\n      tag_53\n      jump\t// in\n    tag_167:\n      tag_168\n      jump\t// in\n    tag_166:\n      stop\n        /* \"contracts/stake.sol\":7250:7281  bool public isStakeStart = true */\n    tag_38:\n      tag_169\n      tag_170\n      jump\t// in\n    tag_169:\n      mload(0x40)\n      tag_171\n      swap2\n      swap1\n      tag_59\n      jump\t// in\n    tag_171:\n      mload(0x40)\n      dup1\n      swap2\n      sub\n      swap1\n      return\n        /* \"contracts/stake.sol\":6995:7043  uint256 public _stake1pure = _1per * 8 / _stake1 */\n    tag_39:\n      tag_172\n      tag_173\n      jump\t// in\n    tag_172:\n      mload(0x40)\n      tag_174\n      swap2\n      swap1\n      tag_64\n      jump\t// in\n    tag_174:\n      mload(0x40)\n      dup1\n      swap2\n      sub\n      swap1\n      return\n        /* \"contracts/stake.sol\":8141:8240  function setInviteReward(uint256 _invite) public onlyOwner {... */\n    tag_50:\n        /* \"contracts/stake.sol\":1333:1343  msg.sender */\n      caller\n        /* \"contracts/stake.sol\":1323:1343  _owner == msg.sender */\n      0xffffffffffffffffffffffffffffffffffffffff\n      and\n        /* \"contracts/stake.sol\":1323:1329  _owner */\n      0x00\n      dup1\n      sload\n      swap1\n      0x0100\n      exp\n      swap1\n      div\n      0xffffffffffffffffffffffffffffffffffffffff\n      and\n        /* \"contracts/stake.sol\":1323:1343  _owner == msg.sender */\n      0xffffffffffffffffffffffffffffffffffffffff\n      and\n      eq\n        /* \"contracts/stake.sol\":1315:1354  require(_owner == msg.sender, \"!owner\") */\n      tag_176\n      jumpi\n      mload(0x40)\n      0x08c379a000000000000000000000000000000000000000000000000000000000\n      dup2\n      mstore\n      0x04\n      add\n      tag_177\n      swap1\n      tag_178\n      jump\t// in\n    tag_177:\n      mload(0x40)\n      dup1\n      swap2\n      sub\n      swap1\n      revert\n    tag_176:\n        /* \"contracts/stake.sol\":8226:8233  _invite */\n      dup1\n        /* \"contracts/stake.sol\":8210:8223  _inviteReward */\n      0x07\n        /* \"contracts/stake.sol\":8210:8233  _inviteReward = _invite */\n      dup2\n      swap1\n      sstore\n      pop\n        /* \"contracts/stake.sol\":8141:8240  function setInviteReward(uint256 _invite) public onlyOwner {... */\n      pop\n      jump\t// out\n        /* \"contracts/stake.sol\":8013:8104  function setStakeToken(address token) public onlyOwner {... */\n    tag_54:\n        /* \"contracts/stake.sol\":1333:1343  msg.sender */\n      caller\n        /* \"contracts/stake.sol\":1323:1343  _owner == msg.sender */\n      0xffffffffffffffffffffffffffffffffffffffff\n      and\n        /* \"contracts/stake.sol\":1323:1329  _owner */\n      0x00\n      dup1\n      sload\n      swap1\n      0x0100\n      exp\n      swap1\n      div\n      0xffffffffffffffffffffffffffffffffffffffff\n      and\n        /* \"contracts/stake.sol\":1323:1343  _owner == msg.sender */\n      0xffffffffffffffffffffffffffffffffffffffff\n      and\n      eq\n        /* \"contracts/stake.sol\":1315:1354  require(_owner == msg.sender, \"!owner\") */\n      tag_181\n      jumpi\n      mload(0x40)\n      0x08c379a000000000000000000000000000000000000000000000000000000000\n      dup2\n      mstore\n      0x04\n      add\n      tag_182\n      swap1\n      tag_178\n      jump\t// in\n    tag_182:\n      mload(0x40)\n      dup1\n      swap2\n      sub\n      swap1\n      revert\n    tag_181:\n        /* \"contracts/stake.sol\":8092:8097  token */\n      dup1\n        /* \"contracts/stake.sol\":8078:8089  _stakeToken */\n      0x02\n      0x00\n        /* \"contracts/stake.sol\":8078:8097  _stakeToken = token */\n      0x0100\n      exp\n      dup2\n      sload\n      dup2\n      0xffffffffffffffffffffffffffffffffffffffff\n      mul\n      not\n      and\n      swap1\n      dup4\n      0xffffffffffffffffffffffffffffffffffffffff\n      and\n      mul\n      or\n      swap1\n      sstore\n      pop\n        /* \"contracts/stake.sol\":8013:8104  function setStakeToken(address token) public onlyOwner {... */\n      pop\n      jump\t// out\n        /* \"contracts/stake.sol\":7697:7743  mapping(address => bool) public _userBlacklist */\n    tag_57:\n      mstore(0x20, 0x13)\n      dup1\n      0x00\n      mstore\n      keccak256(0x00, 0x40)\n      0x00\n      swap2\n      pop\n      sload\n      swap1\n      0x0100\n      exp\n      swap1\n      div\n      0xff\n      and\n      dup2\n      jump\t// out\n        /* \"contracts/stake.sol\":7519:7573  mapping(address => uint256) public _userStakeStartTime */\n    tag_62:\n      mstore(0x20, 0x11)\n      dup1\n      0x00\n      mstore\n      keccak256(0x00, 0x40)\n      0x00\n      swap2\n      pop\n      swap1\n      pop\n      sload\n      dup2\n      jump\t// out\n        /* \"contracts/stake.sol\":6616:6658  uint256 public _stake5 = 24 hours * 30 * 5 */\n    tag_66:\n      sload(0x05)\n      dup2\n      jump\t// out\n        /* \"contracts/stake.sol\":6929:6974  mapping(address => uint256) public _inviteNum */\n    tag_70:\n      mstore(0x20, 0x0a)\n      dup1\n      0x00\n      mstore\n      keccak256(0x00, 0x40)\n      0x00\n      swap2\n      pop\n      swap1\n      pop\n      sload\n      dup2\n      jump\t// out\n        /* \"contracts/stake.sol\":12312:12682  function getUserStakeTotalTime(address user) view public returns(uint256) {... */\n    tag_74:\n        /* \"contracts/stake.sol\":12377:12384  uint256 */\n      0x00\n        /* \"contracts/stake.sol\":12428:12429  0 */\n      dup1\n        /* \"contracts/stake.sol\":12400:12418  _userLastClaimTime */\n      0x12\n        /* \"contracts/stake.sol\":12400:12424  _userLastClaimTime[user] */\n      0x00\n        /* \"contracts/stake.sol\":12419:12423  user */\n      dup5\n        /* \"contracts/stake.sol\":12400:12424  _userLastClaimTime[user] */\n      0xffffffffffffffffffffffffffffffffffffffff\n      and\n      0xffffffffffffffffffffffffffffffffffffffff\n      and\n      dup2\n      mstore\n      0x20\n      add\n      swap1\n      dup2\n      mstore\n      0x20\n      add\n      0x00\n      keccak256\n      sload\n        /* \"contracts/stake.sol\":12400:12429  _userLastClaimTime[user] == 0 */\n      eq\n        /* \"contracts/stake.sol\":12400:12453  _userLastClaimTime[user] == 0 && _userStake[user] > 0 */\n      dup1\n      iszero\n      tag_185\n      jumpi\n      pop\n        /* \"contracts/stake.sol\":12452:12453  0 */\n      0x00\n        /* \"contracts/stake.sol\":12433:12443  _userStake */\n      0x0f\n        /* \"contracts/stake.sol\":12433:12449  _userStake[user] */\n      0x00\n        /* \"contracts/stake.sol\":12444:12448  user */\n      dup5\n        /* \"contracts/stake.sol\":12433:12449  _userStake[user] */\n      0xffffffffffffffffffffffffffffffffffffffff\n      and\n      0xffffffffffffffffffffffffffffffffffffffff\n      and\n      dup2\n      mstore\n      0x20\n      add\n      swap1\n      dup2\n      mstore\n      0x20\n      add\n      0x00\n      keccak256\n      sload\n        /* \"contracts/stake.sol\":12433:12453  _userStake[user] > 0 */\n      gt\n        /* \"contracts/stake.sol\":12400:12453  _userLastClaimTime[user] == 0 && _userStake[user] > 0 */\n    tag_185:\n        /* \"contracts/stake.sol\":12396:12676  if (_userLastClaimTime[user] == 0 && _userStake[user] > 0) {... */\n      iszero\n      tag_186\n      jumpi\n        /* \"contracts/stake.sol\":12494:12513  _userStakeStartTime */\n      0x11\n        /* \"contracts/stake.sol\":12494:12519  _userStakeStartTime[user] */\n      0x00\n        /* \"contracts/stake.sol\":12514:12518  user */\n      dup4\n        /* \"contracts/stake.sol\":12494:12519  _userStakeStartTime[user] */\n      0xffffffffffffffffffffffffffffffffffffffff\n      and\n      0xffffffffffffffffffffffffffffffffffffffff\n      and\n      dup2\n      mstore\n      0x20\n      add\n      swap1\n      dup2\n      mstore\n      0x20\n      add\n      0x00\n      keccak256\n      sload\n        /* \"contracts/stake.sol\":12476:12491  block.timestamp */\n      timestamp\n        /* \"contracts/stake.sol\":12476:12519  block.timestamp - _userStakeStartTime[user] */\n      tag_187\n      swap2\n      swap1\n      tag_188\n      jump\t// in\n    tag_187:\n        /* \"contracts/stake.sol\":12469:12519  return block.timestamp - _userStakeStartTime[user] */\n      swap1\n      pop\n      jump(tag_184)\n        /* \"contracts/stake.sol\":12396:12676  if (_userLastClaimTime[user] == 0 && _userStake[user] > 0) {... */\n    tag_186:\n        /* \"contracts/stake.sol\":12560:12561  0 */\n      0x00\n        /* \"contracts/stake.sol\":12540:12550  _userStake */\n      0x0f\n        /* \"contracts/stake.sol\":12540:12556  _userStake[user] */\n      0x00\n        /* \"contracts/stake.sol\":12551:12555  user */\n      dup5\n        /* \"contracts/stake.sol\":12540:12556  _userStake[user] */\n      0xffffffffffffffffffffffffffffffffffffffff\n      and\n      0xffffffffffffffffffffffffffffffffffffffff\n      and\n      dup2\n      mstore\n      0x20\n      add\n      swap1\n      dup2\n      mstore\n      0x20\n      add\n      0x00\n      keccak256\n      sload\n        /* \"contracts/stake.sol\":12540:12561  _userStake[user] == 0 */\n      sub\n        /* \"contracts/stake.sol\":12536:12676  if (_userStake[user] == 0) {... */\n      tag_190\n      jumpi\n        /* \"contracts/stake.sol\":12584:12585  0 */\n      0x00\n        /* \"contracts/stake.sol\":12577:12585  return 0 */\n      swap1\n      pop\n      jump(tag_184)\n        /* \"contracts/stake.sol\":12536:12676  if (_userStake[user] == 0) {... */\n    tag_190:\n        /* \"contracts/stake.sol\":12641:12659  _userLastClaimTime */\n      0x12\n        /* \"contracts/stake.sol\":12641:12665  _userLastClaimTime[user] */\n      0x00\n        /* \"contracts/stake.sol\":12660:12664  user */\n      dup4\n        /* \"contracts/stake.sol\":12641:12665  _userLastClaimTime[user] */\n      0xffffffffffffffffffffffffffffffffffffffff\n      and\n      0xffffffffffffffffffffffffffffffffffffffff\n      and\n      dup2\n      mstore\n      0x20\n      add\n      swap1\n      dup2\n      mstore\n      0x20\n      add\n      0x00\n      keccak256\n      sload\n        /* \"contracts/stake.sol\":12623:12638  block.timestamp */\n      timestamp\n        /* \"contracts/stake.sol\":12623:12665  block.timestamp - _userLastClaimTime[user] */\n      tag_192\n      swap2\n      swap1\n      tag_188\n      jump\t// in\n    tag_192:\n        /* \"contracts/stake.sol\":12616:12665  return block.timestamp - _userLastClaimTime[user] */\n      swap1\n      pop\n        /* \"contracts/stake.sol\":12312:12682  function getUserStakeTotalTime(address user) view public returns(uint256) {... */\n    tag_184:\n      swap2\n      swap1\n      pop\n      jump\t// out\n        /* \"contracts/stake.sol\":6794:6840  mapping(address => address) public _inviterMap */\n    tag_78:\n      mstore(0x20, 0x08)\n      dup1\n      0x00\n      mstore\n      keccak256(0x00, 0x40)\n      0x00\n      swap2\n      pop\n      sload\n      swap1\n      0x0100\n      exp\n      swap1\n      div\n      0xffffffffffffffffffffffffffffffffffffffff\n      and\n      dup2\n      jump\t// out\n        /* \"contracts/stake.sol\":10679:11599  function pureAmount(address user) view public returns(uint256) {... */\n    tag_83:\n        /* \"contracts/stake.sol\":10733:10740  uint256 */\n      0x00\n        /* \"contracts/stake.sol\":10752:10774  uint256 stakeTotalTime */\n      dup1\n        /* \"contracts/stake.sol\":10816:10817  0 */\n      0x00\n        /* \"contracts/stake.sol\":10788:10806  _userLastClaimTime */\n      0x12\n        /* \"contracts/stake.sol\":10788:10812  _userLastClaimTime[user] */\n      0x00\n        /* \"contracts/stake.sol\":10807:10811  user */\n      dup6\n        /* \"contracts/stake.sol\":10788:10812  _userLastClaimTime[user] */\n      0xffffffffffffffffffffffffffffffffffffffff\n      and\n      0xffffffffffffffffffffffffffffffffffffffff\n      and\n      dup2\n      mstore\n      0x20\n      add\n      swap1\n      dup2\n      mstore\n      0x20\n      add\n      0x00\n      keccak256\n      sload\n        /* \"contracts/stake.sol\":10788:10817  _userLastClaimTime[user] == 0 */\n      eq\n        /* \"contracts/stake.sol\":10788:10841  _userLastClaimTime[user] == 0 && _userStake[user] > 0 */\n      dup1\n      iszero\n      tag_194\n      jumpi\n      pop\n        /* \"contracts/stake.sol\":10840:10841  0 */\n      0x00\n        /* \"contracts/stake.sol\":10821:10831  _userStake */\n      0x0f\n        /* \"contracts/stake.sol\":10821:10837  _userStake[user] */\n      0x00\n        /* \"contracts/stake.sol\":10832:10836  user */\n      dup6\n        /* \"contracts/stake.sol\":10821:10837  _userStake[user] */\n      0xffffffffffffffffffffffffffffffffffffffff\n      and\n      0xffffffffffffffffffffffffffffffffffffffff\n      and\n      dup2\n      mstore\n      0x20\n      add\n      swap1\n      dup2\n      mstore\n      0x20\n      add\n      0x00\n      keccak256\n      sload\n        /* \"contracts/stake.sol\":10821:10841  _userStake[user] > 0 */\n      gt\n        /* \"contracts/stake.sol\":10788:10841  _userLastClaimTime[user] == 0 && _userStake[user] > 0 */\n    tag_194:\n        /* \"contracts/stake.sol\":10784:11084  if (_userLastClaimTime[user] == 0 && _userStake[user] > 0) {... */\n      iszero\n      tag_195\n      jumpi\n        /* \"contracts/stake.sol\":10892:10911  _userStakeStartTime */\n      0x11\n        /* \"contracts/stake.sol\":10892:10917  _userStakeStartTime[user] */\n      0x00\n        /* \"contracts/stake.sol\":10912:10916  user */\n      dup5\n        /* \"contracts/stake.sol\":10892:10917  _userStakeStartTime[user] */\n      0xffffffffffffffffffffffffffffffffffffffff\n      and\n      0xffffffffffffffffffffffffffffffffffffffff\n      and\n      dup2\n      mstore\n      0x20\n      add\n      swap1\n      dup2\n      mstore\n      0x20\n      add\n      0x00\n      keccak256\n      sload\n        /* \"contracts/stake.sol\":10874:10889  block.timestamp */\n      timestamp\n        /* \"contracts/stake.sol\":10874:10917  block.timestamp - _userStakeStartTime[user] */\n      tag_196\n      swap2\n      swap1\n      tag_188\n      jump\t// in\n    tag_196:\n        /* \"contracts/stake.sol\":10857:10917  stakeTotalTime = block.timestamp - _userStakeStartTime[user] */\n      swap1\n      pop\n        /* \"contracts/stake.sol\":10784:11084  if (_userLastClaimTime[user] == 0 && _userStake[user] > 0) {... */\n      jump(tag_197)\n    tag_195:\n        /* \"contracts/stake.sol\":10958:10959  0 */\n      0x00\n        /* \"contracts/stake.sol\":10938:10948  _userStake */\n      0x0f\n        /* \"contracts/stake.sol\":10938:10954  _userStake[user] */\n      0x00\n        /* \"contracts/stake.sol\":10949:10953  user */\n      dup6\n        /* \"contracts/stake.sol\":10938:10954  _userStake[user] */\n      0xffffffffffffffffffffffffffffffffffffffff\n      and\n      0xffffffffffffffffffffffffffffffffffffffff\n      and\n      dup2\n      mstore\n      0x20\n      add\n      swap1\n      dup2\n      mstore\n      0x20\n      add\n      0x00\n      keccak256\n      sload\n        /* \"contracts/stake.sol\":10938:10959  _userStake[user] == 0 */\n      sub\n        /* \"contracts/stake.sol\":10934:11084  if (_userStake[user] == 0) {... */\n      tag_198\n      jumpi\n        /* \"contracts/stake.sol\":10982:10983  0 */\n      0x00\n        /* \"contracts/stake.sol\":10975:10983  return 0 */\n      swap2\n      pop\n      pop\n      jump(tag_193)\n        /* \"contracts/stake.sol\":10934:11084  if (_userStake[user] == 0) {... */\n    tag_198:\n        /* \"contracts/stake.sol\":11049:11067  _userLastClaimTime */\n      0x12\n        /* \"contracts/stake.sol\":11049:11073  _userLastClaimTime[user] */\n      0x00\n        /* \"contracts/stake.sol\":11068:11072  user */\n      dup5\n        /* \"contracts/stake.sol\":11049:11073  _userLastClaimTime[user] */\n      0xffffffffffffffffffffffffffffffffffffffff\n      and\n      0xffffffffffffffffffffffffffffffffffffffff\n      and\n      dup2\n      mstore\n      0x20\n      add\n      swap1\n      dup2\n      mstore\n      0x20\n      add\n      0x00\n      keccak256\n      sload\n        /* \"contracts/stake.sol\":11031:11046  block.timestamp */\n      timestamp\n        /* \"contracts/stake.sol\":11031:11073  block.timestamp - _userLastClaimTime[user] */\n      tag_200\n      swap2\n      swap1\n      tag_188\n      jump\t// in\n    tag_200:\n        /* \"contracts/stake.sol\":11014:11073  stakeTotalTime = block.timestamp - _userLastClaimTime[user] */\n      swap1\n      pop\n        /* \"contracts/stake.sol\":10784:11084  if (_userLastClaimTime[user] == 0 && _userStake[user] > 0) {... */\n    tag_197:\n        /* \"contracts/stake.sol\":11093:11111  uint256 stakeMonth */\n      0x00\n        /* \"contracts/stake.sol\":11121:11139  uint256 rewardPure */\n      dup1\n        /* \"contracts/stake.sol\":11177:11184  _stake1 */\n      sload(0x03)\n        /* \"contracts/stake.sol\":11153:11167  _userStakeTime */\n      0x10\n        /* \"contracts/stake.sol\":11153:11173  _userStakeTime[user] */\n      0x00\n        /* \"contracts/stake.sol\":11168:11172  user */\n      dup8\n        /* \"contracts/stake.sol\":11153:11173  _userStakeTime[user] */\n      0xffffffffffffffffffffffffffffffffffffffff\n      and\n      0xffffffffffffffffffffffffffffffffffffffff\n      and\n      dup2\n      mstore\n      0x20\n      add\n      swap1\n      dup2\n      mstore\n      0x20\n      add\n      0x00\n      keccak256\n      sload\n        /* \"contracts/stake.sol\":11153:11184  _userStakeTime[user] == _stake1 */\n      sub\n        /* \"contracts/stake.sol\":11149:11519  if (_userStakeTime[user] == _stake1) {... */\n      tag_201\n      jumpi\n        /* \"contracts/stake.sol\":11213:11224  _stake1pure */\n      sload(0x0b)\n        /* \"contracts/stake.sol\":11200:11224  rewardPure = _stake1pure */\n      swap1\n      pop\n        /* \"contracts/stake.sol\":11251:11258  _stake1 */\n      sload(0x03)\n        /* \"contracts/stake.sol\":11238:11258  stakeMonth = _stake1 */\n      swap2\n      pop\n        /* \"contracts/stake.sol\":11149:11519  if (_userStakeTime[user] == _stake1) {... */\n      jump(tag_202)\n    tag_201:\n        /* \"contracts/stake.sol\":11302:11309  _stake3 */\n      sload(0x04)\n        /* \"contracts/stake.sol\":11278:11292  _userStakeTime */\n      0x10\n        /* \"contracts/stake.sol\":11278:11298  _userStakeTime[user] */\n      0x00\n        /* \"contracts/stake.sol\":11293:11297  user */\n      dup8\n        /* \"contracts/stake.sol\":11278:11298  _userStakeTime[user] */\n      0xffffffffffffffffffffffffffffffffffffffff\n      and\n      0xffffffffffffffffffffffffffffffffffffffff\n      and\n      dup2\n      mstore\n      0x20\n      add\n      swap1\n      dup2\n      mstore\n      0x20\n      add\n      0x00\n      keccak256\n      sload\n        /* \"contracts/stake.sol\":11278:11309  _userStakeTime[user] == _stake3 */\n      sub\n        /* \"contracts/stake.sol\":11275:11519  if(_userStakeTime[user] == _stake3) {... */\n      tag_203\n      jumpi\n        /* \"contracts/stake.sol\":11338:11349  _stake3pure */\n      sload(0x0c)\n        /* \"contracts/stake.sol\":11325:11349  rewardPure = _stake3pure */\n      swap1\n      pop\n        /* \"contracts/stake.sol\":11376:11383  _stake3 */\n      sload(0x04)\n        /* \"contracts/stake.sol\":11363:11383  stakeMonth = _stake3 */\n      swap2\n      pop\n        /* \"contracts/stake.sol\":11275:11519  if(_userStakeTime[user] == _stake3) {... */\n      jump(tag_204)\n    tag_203:\n        /* \"contracts/stake.sol\":11427:11434  _stake5 */\n      sload(0x05)\n        /* \"contracts/stake.sol\":11403:11417  _userStakeTime */\n      0x10\n        /* \"contracts/stake.sol\":11403:11423  _userStakeTime[user] */\n      0x00\n        /* \"contracts/stake.sol\":11418:11422  user */\n      dup8\n        /* \"contracts/stake.sol\":11403:11423  _userStakeTime[user] */\n      0xffffffffffffffffffffffffffffffffffffffff\n      and\n      0xffffffffffffffffffffffffffffffffffffffff\n      and\n      dup2\n      mstore\n      0x20\n      add\n      swap1\n      dup2\n      mstore\n      0x20\n      add\n      0x00\n      keccak256\n      sload\n        /* \"contracts/stake.sol\":11403:11434  _userStakeTime[user] == _stake5 */\n      sub\n        /* \"contracts/stake.sol\":11400:11519  if(_userStakeTime[user] == _stake5) {... */\n      tag_205\n      jumpi\n        /* \"contracts/stake.sol\":11463:11474  _stake5pure */\n      sload(0x0d)\n        /* \"contracts/stake.sol\":11450:11474  rewardPure = _stake5pure */\n      swap1\n      pop\n        /* \"contracts/stake.sol\":11501:11508  _stake5 */\n      sload(0x05)\n        /* \"contracts/stake.sol\":11488:11508  stakeMonth = _stake5 */\n      swap2\n      pop\n        /* \"contracts/stake.sol\":11400:11519  if(_userStakeTime[user] == _stake5) {... */\n    tag_205:\n        /* \"contracts/stake.sol\":11275:11519  if(_userStakeTime[user] == _stake3) {... */\n    tag_204:\n        /* \"contracts/stake.sol\":11149:11519  if (_userStakeTime[user] == _stake1) {... */\n    tag_202:\n        /* \"contracts/stake.sol\":11584:11592  10 ** 18 */\n      0x0de0b6b3a7640000\n        /* \"contracts/stake.sol\":11565:11575  _userStake */\n      0x0f\n        /* \"contracts/stake.sol\":11565:11581  _userStake[user] */\n      0x00\n        /* \"contracts/stake.sol\":11576:11580  user */\n      dup8\n        /* \"contracts/stake.sol\":11565:11581  _userStake[user] */\n      0xffffffffffffffffffffffffffffffffffffffff\n      and\n      0xffffffffffffffffffffffffffffffffffffffff\n      and\n      dup2\n      mstore\n      0x20\n      add\n      swap1\n      dup2\n      mstore\n      0x20\n      add\n      0x00\n      keccak256\n      sload\n        /* \"contracts/stake.sol\":11548:11562  stakeTotalTime */\n      dup5\n        /* \"contracts/stake.sol\":11535:11545  rewardPure */\n      dup4\n        /* \"contracts/stake.sol\":11535:11562  rewardPure * stakeTotalTime */\n      tag_206\n      swap2\n      swap1\n      tag_207\n      jump\t// in\n    tag_206:\n        /* \"contracts/stake.sol\":11535:11581  rewardPure * stakeTotalTime * _userStake[user] */\n      tag_208\n      swap2\n      swap1\n      tag_207\n      jump\t// in\n    tag_208:\n        /* \"contracts/stake.sol\":11535:11592  rewardPure * stakeTotalTime * _userStake[user] / 10 ** 18 */\n      tag_209\n      swap2\n      swap1\n      tag_210\n      jump\t// in\n    tag_209:\n        /* \"contracts/stake.sol\":11528:11592  return rewardPure * stakeTotalTime * _userStake[user] / 10 ** 18 */\n      swap4\n      pop\n      pop\n      pop\n      pop\n        /* \"contracts/stake.sol\":10679:11599  function pureAmount(address user) view public returns(uint256) {... */\n    tag_193:\n      swap2\n      swap1\n      pop\n      jump\t// out\n        /* \"contracts/stake.sol\":6729:6769  uint256 public _inviteReward = _1per * 5 */\n    tag_86:\n      sload(0x07)\n      dup2\n      jump\t// out\n        /* \"contracts/stake.sol\":11633:11783  function ownerClaimToken(address token, address recipient, uint256 amount) public onlyOwner {... */\n    tag_91:\n        /* \"contracts/stake.sol\":1333:1343  msg.sender */\n      caller\n        /* \"contracts/stake.sol\":1323:1343  _owner == msg.sender */\n      0xffffffffffffffffffffffffffffffffffffffff\n      and\n        /* \"contracts/stake.sol\":1323:1329  _owner */\n      0x00\n      dup1\n      sload\n      swap1\n      0x0100\n      exp\n      swap1\n      div\n      0xffffffffffffffffffffffffffffffffffffffff\n      and\n        /* \"contracts/stake.sol\":1323:1343  _owner == msg.sender */\n      0xffffffffffffffffffffffffffffffffffffffff\n      and\n      eq\n        /* \"contracts/stake.sol\":1315:1354  require(_owner == msg.sender, \"!owner\") */\n      tag_212\n      jumpi\n      mload(0x40)\n      0x08c379a000000000000000000000000000000000000000000000000000000000\n      dup2\n      mstore\n      0x04\n      add\n      tag_213\n      swap1\n      tag_178\n      jump\t// in\n    tag_213:\n      mload(0x40)\n      dup1\n      swap2\n      sub\n      swap1\n      revert\n    tag_212:\n        /* \"contracts/stake.sol\":11742:11747  token */\n      dup3\n        /* \"contracts/stake.sol\":11735:11757  IERC20(token).transfer */\n      0xffffffffffffffffffffffffffffffffffffffff\n      and\n      0xa9059cbb\n        /* \"contracts/stake.sol\":11758:11767  recipient */\n      dup4\n        /* \"contracts/stake.sol\":11769:11775  amount */\n      dup4\n        /* \"contracts/stake.sol\":11735:11776  IERC20(token).transfer(recipient, amount) */\n      mload(0x40)\n      dup4\n      0xffffffff\n      and\n      0xe0\n      shl\n      dup2\n      mstore\n      0x04\n      add\n      tag_215\n      swap3\n      swap2\n      swap1\n      tag_216\n      jump\t// in\n    tag_215:\n      0x20\n      mload(0x40)\n      dup1\n      dup4\n      sub\n      dup2\n      0x00\n      dup8\n      gas\n      call\n      iszero\n      dup1\n      iszero\n      tag_218\n      jumpi\n      returndatasize\n      0x00\n      dup1\n      returndatacopy\n      revert(0x00, returndatasize)\n    tag_218:\n      pop\n      pop\n      pop\n      pop\n      mload(0x40)\n      returndatasize\n      not(0x1f)\n      0x1f\n      dup3\n      add\n      and\n      dup3\n      add\n      dup1\n      0x40\n      mstore\n      pop\n      dup2\n      add\n      swap1\n      tag_219\n      swap2\n      swap1\n      tag_220\n      jump\t// in\n    tag_219:\n      pop\n        /* \"contracts/stake.sol\":11633:11783  function ownerClaimToken(address token, address recipient, uint256 amount) public onlyOwner {... */\n      pop\n      pop\n      pop\n      jump\t// out\n        /* \"contracts/stake.sol\":7785:7858  function set1per(uint256 _1) public onlyOwner {... */\n    tag_94:\n        /* \"contracts/stake.sol\":1333:1343  msg.sender */\n      caller\n        /* \"contracts/stake.sol\":1323:1343  _owner == msg.sender */\n      0xffffffffffffffffffffffffffffffffffffffff\n      and\n        /* \"contracts/stake.sol\":1323:1329  _owner */\n      0x00\n      dup1\n      sload\n      swap1\n      0x0100\n      exp\n      swap1\n      div\n      0xffffffffffffffffffffffffffffffffffffffff\n      and\n        /* \"contracts/stake.sol\":1323:1343  _owner == msg.sender */\n      0xffffffffffffffffffffffffffffffffffffffff\n      and\n      eq\n        /* \"contracts/stake.sol\":1315:1354  require(_owner == msg.sender, \"!owner\") */\n      tag_222\n      jumpi\n      mload(0x40)\n      0x08c379a000000000000000000000000000000000000000000000000000000000\n      dup2\n      mstore\n      0x04\n      add\n      tag_223\n      swap1\n      tag_178\n      jump\t// in\n    tag_223:\n      mload(0x40)\n      dup1\n      swap2\n      sub\n      swap1\n      revert\n    tag_222:\n        /* \"contracts/stake.sol\":7849:7851  _1 */\n      dup1\n        /* \"contracts/stake.sol\":7841:7846  _1per */\n      0x06\n        /* \"contracts/stake.sol\":7841:7851  _1per = _1 */\n      dup2\n      swap1\n      sstore\n      pop\n        /* \"contracts/stake.sol\":7785:7858  function set1per(uint256 _1) public onlyOwner {... */\n      pop\n      jump\t// out\n        /* \"contracts/stake.sol\":11823:12144  function ownerSetUser(address user, uint256 amount, uint256 stakeTime, uint256 stakeStartTime, uint256 userLastClaim) public onlyOwner {... */\n    tag_98:\n        /* \"contracts/stake.sol\":1333:1343  msg.sender */\n      caller\n        /* \"contracts/stake.sol\":1323:1343  _owner == msg.sender */\n      0xffffffffffffffffffffffffffffffffffffffff\n      and\n        /* \"contracts/stake.sol\":1323:1329  _owner */\n      0x00\n      dup1\n      sload\n      swap1\n      0x0100\n      exp\n      swap1\n      div\n      0xffffffffffffffffffffffffffffffffffffffff\n      and\n        /* \"contracts/stake.sol\":1323:1343  _owner == msg.sender */\n      0xffffffffffffffffffffffffffffffffffffffff\n      and\n      eq\n        /* \"contracts/stake.sol\":1315:1354  require(_owner == msg.sender, \"!owner\") */\n      tag_226\n      jumpi\n      mload(0x40)\n      0x08c379a000000000000000000000000000000000000000000000000000000000\n      dup2\n      mstore\n      0x04\n      add\n      tag_227\n      swap1\n      tag_178\n      jump\t// in\n    tag_227:\n      mload(0x40)\n      dup1\n      swap2\n      sub\n      swap1\n      revert\n    tag_226:\n        /* \"contracts/stake.sol\":11987:11993  amount */\n      dup4\n        /* \"contracts/stake.sol\":11968:11978  _userStake */\n      0x0f\n        /* \"contracts/stake.sol\":11968:11984  _userStake[user] */\n      0x00\n        /* \"contracts/stake.sol\":11979:11983  user */\n      dup8\n        /* \"contracts/stake.sol\":11968:11984  _userStake[user] */\n      0xffffffffffffffffffffffffffffffffffffffff\n      and\n      0xffffffffffffffffffffffffffffffffffffffff\n      and\n      dup2\n      mstore\n      0x20\n      add\n      swap1\n      dup2\n      mstore\n      0x20\n      add\n      0x00\n      keccak256\n        /* \"contracts/stake.sol\":11968:11993  _userStake[user] = amount */\n      dup2\n      swap1\n      sstore\n      pop\n        /* \"contracts/stake.sol\":12026:12035  stakeTime */\n      dup3\n        /* \"contracts/stake.sol\":12003:12017  _userStakeTime */\n      0x10\n        /* \"contracts/stake.sol\":12003:12023  _userStakeTime[user] */\n      0x00\n        /* \"contracts/stake.sol\":12018:12022  user */\n      dup8\n        /* \"contracts/stake.sol\":12003:12023  _userStakeTime[user] */\n      0xffffffffffffffffffffffffffffffffffffffff\n      and\n      0xffffffffffffffffffffffffffffffffffffffff\n      and\n      dup2\n      mstore\n      0x20\n      add\n      swap1\n      dup2\n      mstore\n      0x20\n      add\n      0x00\n      keccak256\n        /* \"contracts/stake.sol\":12003:12035  _userStakeTime[user] = stakeTime */\n      dup2\n      swap1\n      sstore\n      pop\n        /* \"contracts/stake.sol\":12073:12087  stakeStartTime */\n      dup2\n        /* \"contracts/stake.sol\":12045:12064  _userStakeStartTime */\n      0x11\n        /* \"contracts/stake.sol\":12045:12070  _userStakeStartTime[user] */\n      0x00\n        /* \"contracts/stake.sol\":12065:12069  user */\n      dup8\n        /* \"contracts/stake.sol\":12045:12070  _userStakeStartTime[user] */\n      0xffffffffffffffffffffffffffffffffffffffff\n      and\n      0xffffffffffffffffffffffffffffffffffffffff\n      and\n      dup2\n      mstore\n      0x20\n      add\n      swap1\n      dup2\n      mstore\n      0x20\n      add\n      0x00\n      keccak256\n        /* \"contracts/stake.sol\":12045:12087  _userStakeStartTime[user] = stakeStartTime */\n      dup2\n      swap1\n      sstore\n      pop\n        /* \"contracts/stake.sol\":12124:12137  userLastClaim */\n      dup1\n        /* \"contracts/stake.sol\":12097:12115  _userLastClaimTime */\n      0x12\n        /* \"contracts/stake.sol\":12097:12121  _userLastClaimTime[user] */\n      0x00\n        /* \"contracts/stake.sol\":12116:12120  user */\n      dup8\n        /* \"contracts/stake.sol\":12097:12121  _userLastClaimTime[user] */\n      0xffffffffffffffffffffffffffffffffffffffff\n      and\n      0xffffffffffffffffffffffffffffffffffffffff\n      and\n      dup2\n      mstore\n      0x20\n      add\n      swap1\n      dup2\n      mstore\n      0x20\n      add\n      0x00\n      keccak256\n        /* \"contracts/stake.sol\":12097:12137  _userLastClaimTime[user] = userLastClaim */\n      dup2\n      swap1\n      sstore\n      pop\n        /* \"contracts/stake.sol\":11823:12144  function ownerSetUser(address user, uint256 amount, uint256 stakeTime, uint256 stakeStartTime, uint256 userLastClaim) public onlyOwner {... */\n      pop\n      pop\n      pop\n      pop\n      pop\n      jump\t// out\n        /* \"contracts/stake.sol\":7163:7216  uint256 public _stake5pure = _1per * 15 / _stake5 * 5 */\n    tag_100:\n      sload(0x0d)\n      dup2\n      jump\t// out\n        /* \"contracts/stake.sol\":8622:9427  function stake(uint256 amount, address inviter, uint256 time) public {... */\n    tag_105:\n        /* \"contracts/stake.sol\":8709:8721  isStakeStart */\n      0x0e\n      0x00\n      swap1\n      sload\n      swap1\n      0x0100\n      exp\n      swap1\n      div\n      0xff\n      and\n        /* \"contracts/stake.sol\":8701:8735  require(isStakeStart, \"not start\") */\n      tag_230\n      jumpi\n      mload(0x40)\n      0x08c379a000000000000000000000000000000000000000000000000000000000\n      dup2\n      mstore\n      0x04\n      add\n      tag_231\n      swap1\n      tag_232\n      jump\t// in\n    tag_231:\n      mload(0x40)\n      dup1\n      swap2\n      sub\n      swap1\n      revert\n    tag_230:\n        /* \"contracts/stake.sol\":8764:8774  msg.sender */\n      caller\n        /* \"contracts/stake.sol\":8753:8774  inviter != msg.sender */\n      0xffffffffffffffffffffffffffffffffffffffff\n      and\n        /* \"contracts/stake.sol\":8753:8760  inviter */\n      dup3\n        /* \"contracts/stake.sol\":8753:8774  inviter != msg.sender */\n      0xffffffffffffffffffffffffffffffffffffffff\n      and\n      sub\n        /* \"contracts/stake.sol\":8745:8799  require(inviter != msg.sender, \"inviter cant by self\") */\n      tag_233\n      jumpi\n      mload(0x40)\n      0x08c379a000000000000000000000000000000000000000000000000000000000\n      dup2\n      mstore\n      0x04\n      add\n      tag_234\n      swap1\n      tag_235\n      jump\t// in\n    tag_234:\n      mload(0x40)\n      dup1\n      swap2\n      sub\n      swap1\n      revert\n    tag_233:\n        /* \"contracts/stake.sol\":8843:8844  0 */\n      0x00\n        /* \"contracts/stake.sol\":8817:8827  _userStake */\n      0x0f\n        /* \"contracts/stake.sol\":8817:8839  _userStake[msg.sender] */\n      0x00\n        /* \"contracts/stake.sol\":8828:8838  msg.sender */\n      caller\n        /* \"contracts/stake.sol\":8817:8839  _userStake[msg.sender] */\n      0xffffffffffffffffffffffffffffffffffffffff\n      and\n      0xffffffffffffffffffffffffffffffffffffffff\n      and\n      dup2\n      mstore\n      0x20\n      add\n      swap1\n      dup2\n      mstore\n      0x20\n      add\n      0x00\n      keccak256\n      sload\n        /* \"contracts/stake.sol\":8817:8844  _userStake[msg.sender] == 0 */\n      eq\n        /* \"contracts/stake.sol\":8809:8862  require(_userStake[msg.sender] == 0, \"already stake\") */\n      tag_236\n      jumpi\n      mload(0x40)\n      0x08c379a000000000000000000000000000000000000000000000000000000000\n      dup2\n      mstore\n      0x04\n      add\n      tag_237\n      swap1\n      tag_238\n      jump\t// in\n    tag_237:\n      mload(0x40)\n      dup1\n      swap2\n      sub\n      swap1\n      revert\n    tag_236:\n        /* \"contracts/stake.sol\":8889:8890  0 */\n      0x00\n        /* \"contracts/stake.sol\":8880:8886  amount */\n      dup4\n        /* \"contracts/stake.sol\":8880:8890  amount > 0 */\n      gt\n        /* \"contracts/stake.sol\":8872:8905  require(amount > 0, \"zero stake\") */\n      tag_239\n      jumpi\n      mload(0x40)\n      0x08c379a000000000000000000000000000000000000000000000000000000000\n      dup2\n      mstore\n      0x04\n      add\n      tag_240\n      swap1\n      tag_241\n      jump\t// in\n    tag_240:\n      mload(0x40)\n      dup1\n      swap2\n      sub\n      swap1\n      revert\n    tag_239:\n        /* \"contracts/stake.sol\":8931:8938  _stake1 */\n      sload(0x03)\n        /* \"contracts/stake.sol\":8923:8927  time */\n      dup2\n        /* \"contracts/stake.sol\":8923:8938  time == _stake1 */\n      eq\n        /* \"contracts/stake.sol\":8923:8957  time == _stake1 || time == _stake3 */\n      dup1\n      tag_242\n      jumpi\n      pop\n        /* \"contracts/stake.sol\":8950:8957  _stake3 */\n      sload(0x04)\n        /* \"contracts/stake.sol\":8942:8946  time */\n      dup2\n        /* \"contracts/stake.sol\":8942:8957  time == _stake3 */\n      eq\n        /* \"contracts/stake.sol\":8923:8957  time == _stake1 || time == _stake3 */\n    tag_242:\n        /* \"contracts/stake.sol\":8923:8976  time == _stake1 || time == _stake3 || time == _stake5 */\n      dup1\n      tag_243\n      jumpi\n      pop\n        /* \"contracts/stake.sol\":8969:8976  _stake5 */\n      sload(0x05)\n        /* \"contracts/stake.sol\":8961:8965  time */\n      dup2\n        /* \"contracts/stake.sol\":8961:8976  time == _stake5 */\n      eq\n        /* \"contracts/stake.sol\":8923:8976  time == _stake1 || time == _stake3 || time == _stake5 */\n    tag_243:\n        /* \"contracts/stake.sol\":8915:8995  require(time == _stake1 || time == _stake3 || time == _stake5, \"not right time\") */\n      tag_244\n      jumpi\n      mload(0x40)\n      0x08c379a000000000000000000000000000000000000000000000000000000000\n      dup2\n      mstore\n      0x04\n      add\n      tag_245\n      swap1\n      tag_246\n      jump\t// in\n    tag_245:\n      mload(0x40)\n      dup1\n      swap2\n      sub\n      swap1\n      revert\n    tag_244:\n        /* \"contracts/stake.sol\":9027:9028  0 */\n      0x00\n        /* \"contracts/stake.sol\":9008:9029  inviter != address(0) */\n      0xffffffffffffffffffffffffffffffffffffffff\n      and\n        /* \"contracts/stake.sol\":9008:9015  inviter */\n      dup3\n        /* \"contracts/stake.sol\":9008:9029  inviter != address(0) */\n      0xffffffffffffffffffffffffffffffffffffffff\n      and\n      eq\n        /* \"contracts/stake.sol\":9005:9201  if(inviter != address(0)) {... */\n      tag_247\n      jumpi\n        /* \"contracts/stake.sol\":9071:9078  inviter */\n      dup2\n        /* \"contracts/stake.sol\":9045:9056  _inviterMap */\n      0x08\n        /* \"contracts/stake.sol\":9045:9068  _inviterMap[msg.sender] */\n      0x00\n        /* \"contracts/stake.sol\":9057:9067  msg.sender */\n      caller\n        /* \"contracts/stake.sol\":9045:9068  _inviterMap[msg.sender] */\n      0xffffffffffffffffffffffffffffffffffffffff\n      and\n      0xffffffffffffffffffffffffffffffffffffffff\n      and\n      dup2\n      mstore\n      0x20\n      add\n      swap1\n      dup2\n      mstore\n      0x20\n      add\n      0x00\n      keccak256\n      0x00\n        /* \"contracts/stake.sol\":9045:9078  _inviterMap[msg.sender] = inviter */\n      0x0100\n      exp\n      dup2\n      sload\n      dup2\n      0xffffffffffffffffffffffffffffffffffffffff\n      mul\n      not\n      and\n      swap1\n      dup4\n      0xffffffffffffffffffffffffffffffffffffffff\n      and\n      mul\n      or\n      swap1\n      sstore\n      pop\n        /* \"contracts/stake.sol\":9144:9152  10 ** 18 */\n      0x0de0b6b3a7640000\n        /* \"contracts/stake.sol\":9135:9141  amount */\n      dup4\n        /* \"contracts/stake.sol\":9119:9132  _inviteReward */\n      sload(0x07)\n        /* \"contracts/stake.sol\":9119:9141  _inviteReward * amount */\n      tag_248\n      swap2\n      swap1\n      tag_207\n      jump\t// in\n    tag_248:\n        /* \"contracts/stake.sol\":9119:9152  _inviteReward * amount / 10 ** 18 */\n      tag_249\n      swap2\n      swap1\n      tag_210\n      jump\t// in\n    tag_249:\n        /* \"contracts/stake.sol\":9092:9106  _inviterReward */\n      0x09\n        /* \"contracts/stake.sol\":9092:9115  _inviterReward[inviter] */\n      0x00\n        /* \"contracts/stake.sol\":9107:9114  inviter */\n      dup5\n        /* \"contracts/stake.sol\":9092:9115  _inviterReward[inviter] */\n      0xffffffffffffffffffffffffffffffffffffffff\n      and\n      0xffffffffffffffffffffffffffffffffffffffff\n      and\n      dup2\n      mstore\n      0x20\n      add\n      swap1\n      dup2\n      mstore\n      0x20\n      add\n      0x00\n      keccak256\n      0x00\n        /* \"contracts/stake.sol\":9092:9152  _inviterReward[inviter] += _inviteReward * amount / 10 ** 18 */\n      dup3\n      dup3\n      sload\n      tag_250\n      swap2\n      swap1\n      tag_251\n      jump\t// in\n    tag_250:\n      swap3\n      pop\n      pop\n      dup2\n      swap1\n      sstore\n      pop\n        /* \"contracts/stake.sol\":9189:9190  1 */\n      0x01\n        /* \"contracts/stake.sol\":9166:9176  _inviteNum */\n      0x0a\n        /* \"contracts/stake.sol\":9166:9185  _inviteNum[inviter] */\n      0x00\n        /* \"contracts/stake.sol\":9177:9184  inviter */\n      dup5\n        /* \"contracts/stake.sol\":9166:9185  _inviteNum[inviter] */\n      0xffffffffffffffffffffffffffffffffffffffff\n      and\n      0xffffffffffffffffffffffffffffffffffffffff\n      and\n      dup2\n      mstore\n      0x20\n      add\n      swap1\n      dup2\n      mstore\n      0x20\n      add\n      0x00\n      keccak256\n      0x00\n        /* \"contracts/stake.sol\":9166:9190  _inviteNum[inviter] += 1 */\n      dup3\n      dup3\n      sload\n      tag_252\n      swap2\n      swap1\n      tag_251\n      jump\t// in\n    tag_252:\n      swap3\n      pop\n      pop\n      dup2\n      swap1\n      sstore\n      pop\n        /* \"contracts/stake.sol\":9005:9201  if(inviter != address(0)) {... */\n    tag_247:\n        /* \"contracts/stake.sol\":9217:9228  _stakeToken */\n      0x02\n      0x00\n      swap1\n      sload\n      swap1\n      0x0100\n      exp\n      swap1\n      div\n      0xffffffffffffffffffffffffffffffffffffffff\n      and\n        /* \"contracts/stake.sol\":9210:9242  IERC20(_stakeToken).transferFrom */\n      0xffffffffffffffffffffffffffffffffffffffff\n      and\n      0x23b872dd\n        /* \"contracts/stake.sol\":9243:9253  msg.sender */\n      caller\n        /* \"contracts/stake.sol\":9263:9267  this */\n      address\n        /* \"contracts/stake.sol\":9270:9276  amount */\n      dup7\n        /* \"contracts/stake.sol\":9210:9277  IERC20(_stakeToken).transferFrom(msg.sender, address(this), amount) */\n      mload(0x40)\n      dup5\n      0xffffffff\n      and\n      0xe0\n      shl\n      dup2\n      mstore\n      0x04\n      add\n      tag_253\n      swap4\n      swap3\n      swap2\n      swap1\n      tag_254\n      jump\t// in\n    tag_253:\n      0x20\n      mload(0x40)\n      dup1\n      dup4\n      sub\n      dup2\n      0x00\n      dup8\n      gas\n      call\n      iszero\n      dup1\n      iszero\n      tag_256\n      jumpi\n      returndatasize\n      0x00\n      dup1\n      returndatacopy\n      revert(0x00, returndatasize)\n    tag_256:\n      pop\n      pop\n      pop\n      pop\n      mload(0x40)\n      returndatasize\n      not(0x1f)\n      0x1f\n      dup3\n      add\n      and\n      dup3\n      add\n      dup1\n      0x40\n      mstore\n      pop\n      dup2\n      add\n      swap1\n      tag_257\n      swap2\n      swap1\n      tag_220\n      jump\t// in\n    tag_257:\n      pop\n        /* \"contracts/stake.sol\":9312:9318  amount */\n      dup3\n        /* \"contracts/stake.sol\":9287:9297  _userStake */\n      0x0f\n        /* \"contracts/stake.sol\":9287:9309  _userStake[msg.sender] */\n      0x00\n        /* \"contracts/stake.sol\":9298:9308  msg.sender */\n      caller\n        /* \"contracts/stake.sol\":9287:9309  _userStake[msg.sender] */\n      0xffffffffffffffffffffffffffffffffffffffff\n      and\n      0xffffffffffffffffffffffffffffffffffffffff\n      and\n      dup2\n      mstore\n      0x20\n      add\n      swap1\n      dup2\n      mstore\n      0x20\n      add\n      0x00\n      keccak256\n        /* \"contracts/stake.sol\":9287:9318  _userStake[msg.sender] = amount */\n      dup2\n      swap1\n      sstore\n      pop\n        /* \"contracts/stake.sol\":9362:9377  block.timestamp */\n      timestamp\n        /* \"contracts/stake.sol\":9328:9347  _userStakeStartTime */\n      0x11\n        /* \"contracts/stake.sol\":9328:9359  _userStakeStartTime[msg.sender] */\n      0x00\n        /* \"contracts/stake.sol\":9348:9358  msg.sender */\n      caller\n        /* \"contracts/stake.sol\":9328:9359  _userStakeStartTime[msg.sender] */\n      0xffffffffffffffffffffffffffffffffffffffff\n      and\n      0xffffffffffffffffffffffffffffffffffffffff\n      and\n      dup2\n      mstore\n      0x20\n      add\n      swap1\n      dup2\n      mstore\n      0x20\n      add\n      0x00\n      keccak256\n        /* \"contracts/stake.sol\":9328:9377  _userStakeStartTime[msg.sender] = block.timestamp */\n      dup2\n      swap1\n      sstore\n      pop\n        /* \"contracts/stake.sol\":9416:9420  time */\n      dup1\n        /* \"contracts/stake.sol\":9387:9401  _userStakeTime */\n      0x10\n        /* \"contracts/stake.sol\":9387:9413  _userStakeTime[msg.sender] */\n      0x00\n        /* \"contracts/stake.sol\":9402:9412  msg.sender */\n      caller\n        /* \"contracts/stake.sol\":9387:9413  _userStakeTime[msg.sender] */\n      0xffffffffffffffffffffffffffffffffffffffff\n      and\n      0xffffffffffffffffffffffffffffffffffffffff\n      and\n      dup2\n      mstore\n      0x20\n      add\n      swap1\n      dup2\n      mstore\n      0x20\n      add\n      0x00\n      keccak256\n        /* \"contracts/stake.sol\":9387:9420  _userStakeTime[msg.sender] = time */\n      dup2\n      swap1\n      sstore\n      pop\n        /* \"contracts/stake.sol\":8622:9427  function stake(uint256 amount, address inviter, uint256 time) public {... */\n      pop\n      pop\n      pop\n      jump\t// out\n        /* \"contracts/stake.sol\":6403:6474  address public _stakeToken = 0x70f531B070495D22CadAAd9763FEDAD9F0a53472 */\n    tag_107:\n      0x02\n      0x00\n      swap1\n      sload\n      swap1\n      0x0100\n      exp\n      swap1\n      div\n      0xffffffffffffffffffffffffffffffffffffffff\n      and\n      dup2\n      jump\t// out\n        /* \"contracts/stake.sol\":8277:8431  function setStakePure(uint256 _1, uint _2, uint _3) public onlyOwner {... */\n    tag_112:\n        /* \"contracts/stake.sol\":1333:1343  msg.sender */\n      caller\n        /* \"contracts/stake.sol\":1323:1343  _owner == msg.sender */\n      0xffffffffffffffffffffffffffffffffffffffff\n      and\n        /* \"contracts/stake.sol\":1323:1329  _owner */\n      0x00\n      dup1\n      sload\n      swap1\n      0x0100\n      exp\n      swap1\n      div\n      0xffffffffffffffffffffffffffffffffffffffff\n      and\n        /* \"contracts/stake.sol\":1323:1343  _owner == msg.sender */\n      0xffffffffffffffffffffffffffffffffffffffff\n      and\n      eq\n        /* \"contracts/stake.sol\":1315:1354  require(_owner == msg.sender, \"!owner\") */\n      tag_259\n      jumpi\n      mload(0x40)\n      0x08c379a000000000000000000000000000000000000000000000000000000000\n      dup2\n      mstore\n      0x04\n      add\n      tag_260\n      swap1\n      tag_178\n      jump\t// in\n    tag_260:\n      mload(0x40)\n      dup1\n      swap2\n      sub\n      swap1\n      revert\n    tag_259:\n        /* \"contracts/stake.sol\":8370:8372  _1 */\n      dup3\n        /* \"contracts/stake.sol\":8356:8367  _stake1pure */\n      0x0b\n        /* \"contracts/stake.sol\":8356:8372  _stake1pure = _1 */\n      dup2\n      swap1\n      sstore\n      pop\n        /* \"contracts/stake.sol\":8396:8398  _2 */\n      dup2\n        /* \"contracts/stake.sol\":8382:8393  _stake3pure */\n      0x0c\n        /* \"contracts/stake.sol\":8382:8398  _stake3pure = _2 */\n      dup2\n      swap1\n      sstore\n      pop\n        /* \"contracts/stake.sol\":8422:8424  _3 */\n      dup1\n        /* \"contracts/stake.sol\":8408:8419  _stake5pure */\n      0x0d\n        /* \"contracts/stake.sol\":8408:8424  _stake5pure = _3 */\n      dup2\n      swap1\n      sstore\n      pop\n        /* \"contracts/stake.sol\":8277:8431  function setStakePure(uint256 _1, uint _2, uint _3) public onlyOwner {... */\n      pop\n      pop\n      pop\n      jump\t// out\n        /* \"contracts/stake.sol\":7605:7658  mapping(address => uint256) public _userLastClaimTime */\n    tag_115:\n      mstore(0x20, 0x12)\n      dup1\n      0x00\n      mstore\n      keccak256(0x00, 0x40)\n      0x00\n      swap2\n      pop\n      swap1\n      pop\n      sload\n      dup2\n      jump\t// out\n        /* \"contracts/stake.sol\":6555:6597  uint256 public _stake3 = 24 hours * 30 * 3 */\n    tag_118:\n      sload(0x04)\n      dup2\n      jump\t// out\n        /* \"contracts/stake.sol\":7889:7982  function setRewardToken(address token) public onlyOwner {... */\n    tag_122:\n        /* \"contracts/stake.sol\":1333:1343  msg.sender */\n      caller\n        /* \"contracts/stake.sol\":1323:1343  _owner == msg.sender */\n      0xffffffffffffffffffffffffffffffffffffffff\n      and\n        /* \"contracts/stake.sol\":1323:1329  _owner */\n      0x00\n      dup1\n      sload\n      swap1\n      0x0100\n      exp\n      swap1\n      div\n      0xffffffffffffffffffffffffffffffffffffffff\n      and\n        /* \"contracts/stake.sol\":1323:1343  _owner == msg.sender */\n      0xffffffffffffffffffffffffffffffffffffffff\n      and\n      eq\n        /* \"contracts/stake.sol\":1315:1354  require(_owner == msg.sender, \"!owner\") */\n      tag_263\n      jumpi\n      mload(0x40)\n      0x08c379a000000000000000000000000000000000000000000000000000000000\n      dup2\n      mstore\n      0x04\n      add\n      tag_264\n      swap1\n      tag_178\n      jump\t// in\n    tag_264:\n      mload(0x40)\n      dup1\n      swap2\n      sub\n      swap1\n      revert\n    tag_263:\n        /* \"contracts/stake.sol\":7970:7975  token */\n      dup1\n        /* \"contracts/stake.sol\":7955:7967  _rewardToken */\n      0x01\n      0x00\n        /* \"contracts/stake.sol\":7955:7975  _rewardToken = token */\n      0x0100\n      exp\n      dup2\n      sload\n      dup2\n      0xffffffffffffffffffffffffffffffffffffffff\n      mul\n      not\n      and\n      swap1\n      dup4\n      0xffffffffffffffffffffffffffffffffffffffff\n      and\n      mul\n      or\n      swap1\n      sstore\n      pop\n        /* \"contracts/stake.sol\":7889:7982  function setRewardToken(address token) public onlyOwner {... */\n      pop\n      jump\t// out\n        /* \"contracts/stake.sol\":1202:1279  function owner() public view returns (address) {... */\n    tag_124:\n        /* \"contracts/stake.sol\":1240:1247  address */\n      0x00\n        /* \"contracts/stake.sol\":1266:1272  _owner */\n      dup1\n      0x00\n      swap1\n      sload\n      swap1\n      0x0100\n      exp\n      swap1\n      div\n      0xffffffffffffffffffffffffffffffffffffffff\n      and\n        /* \"contracts/stake.sol\":1259:1272  return _owner */\n      swap1\n      pop\n        /* \"contracts/stake.sol\":1202:1279  function owner() public view returns (address) {... */\n      swap1\n      jump\t// out\n        /* \"contracts/stake.sol\":6678:6718  uint256 public _1per = 100 * 10 ** 9 / 5 */\n    tag_127:\n      sload(0x06)\n      dup2\n      jump\t// out\n        /* \"contracts/stake.sol\":7371:7416  mapping(address => uint256) public _userStake */\n    tag_131:\n      mstore(0x20, 0x0f)\n      dup1\n      0x00\n      mstore\n      keccak256(0x00, 0x40)\n      0x00\n      swap2\n      pop\n      swap1\n      pop\n      sload\n      dup2\n      jump\t// out\n        /* \"contracts/stake.sol\":10182:10648  function claimStakeReward() public {... */\n    tag_134:\n        /* \"contracts/stake.sol\":10235:10247  isClaimStart */\n      0x0e\n      0x01\n      swap1\n      sload\n      swap1\n      0x0100\n      exp\n      swap1\n      div\n      0xff\n      and\n        /* \"contracts/stake.sol\":10227:10261  require(isClaimStart, \"not start\") */\n      tag_268\n      jumpi\n      mload(0x40)\n      0x08c379a000000000000000000000000000000000000000000000000000000000\n      dup2\n      mstore\n      0x04\n      add\n      tag_269\n      swap1\n      tag_232\n      jump\t// in\n    tag_269:\n      mload(0x40)\n      dup1\n      swap2\n      sub\n      swap1\n      revert\n    tag_268:\n        /* \"contracts/stake.sol\":10304:10305  0 */\n      0x00\n        /* \"contracts/stake.sol\":10279:10289  _userStake */\n      0x0f\n        /* \"contracts/stake.sol\":10279:10301  _userStake[msg.sender] */\n      0x00\n        /* \"contracts/stake.sol\":10290:10300  msg.sender */\n      caller\n        /* \"contracts/stake.sol\":10279:10301  _userStake[msg.sender] */\n      0xffffffffffffffffffffffffffffffffffffffff\n      and\n      0xffffffffffffffffffffffffffffffffffffffff\n      and\n      dup2\n      mstore\n      0x20\n      add\n      swap1\n      dup2\n      mstore\n      0x20\n      add\n      0x00\n      keccak256\n      sload\n        /* \"contracts/stake.sol\":10279:10305  _userStake[msg.sender] > 0 */\n      gt\n        /* \"contracts/stake.sol\":10271:10319  require(_userStake[msg.sender] > 0, \"not stake\") */\n      tag_270\n      jumpi\n      mload(0x40)\n      0x08c379a000000000000000000000000000000000000000000000000000000000\n      dup2\n      mstore\n      0x04\n      add\n      tag_271\n      swap1\n      tag_272\n      jump\t// in\n    tag_271:\n      mload(0x40)\n      dup1\n      swap2\n      sub\n      swap1\n      revert\n    tag_270:\n        /* \"contracts/stake.sol\":10338:10352  _userBlacklist */\n      0x13\n        /* \"contracts/stake.sol\":10338:10364  _userBlacklist[msg.sender] */\n      0x00\n        /* \"contracts/stake.sol\":10353:10363  msg.sender */\n      caller\n        /* \"contracts/stake.sol\":10338:10364  _userBlacklist[msg.sender] */\n      0xffffffffffffffffffffffffffffffffffffffff\n      and\n      0xffffffffffffffffffffffffffffffffffffffff\n      and\n      dup2\n      mstore\n      0x20\n      add\n      swap1\n      dup2\n      mstore\n      0x20\n      add\n      0x00\n      keccak256\n      0x00\n      swap1\n      sload\n      swap1\n      0x0100\n      exp\n      swap1\n      div\n      0xff\n      and\n        /* \"contracts/stake.sol\":10337:10364  !_userBlacklist[msg.sender] */\n      iszero\n        /* \"contracts/stake.sol\":10329:10389  require(!_userBlacklist[msg.sender], \"user is in blacklist\") */\n      tag_273\n      jumpi\n      mload(0x40)\n      0x08c379a000000000000000000000000000000000000000000000000000000000\n      dup2\n      mstore\n      0x04\n      add\n      tag_274\n      swap1\n      tag_275\n      jump\t// in\n    tag_274:\n      mload(0x40)\n      dup1\n      swap2\n      sub\n      swap1\n      revert\n    tag_273:\n        /* \"contracts/stake.sol\":10440:10455  block.timestamp */\n      timestamp\n        /* \"contracts/stake.sol\":10407:10425  _userLastClaimTime */\n      0x12\n        /* \"contracts/stake.sol\":10407:10437  _userLastClaimTime[msg.sender] */\n      0x00\n        /* \"contracts/stake.sol\":10426:10436  msg.sender */\n      caller\n        /* \"contracts/stake.sol\":10407:10437  _userLastClaimTime[msg.sender] */\n      0xffffffffffffffffffffffffffffffffffffffff\n      and\n      0xffffffffffffffffffffffffffffffffffffffff\n      and\n      dup2\n      mstore\n      0x20\n      add\n      swap1\n      dup2\n      mstore\n      0x20\n      add\n      0x00\n      keccak256\n      sload\n        /* \"contracts/stake.sol\":10407:10455  _userLastClaimTime[msg.sender] < block.timestamp */\n      lt\n        /* \"contracts/stake.sol\":10399:10475  require(_userLastClaimTime[msg.sender] < block.timestamp, \"already claimed\") */\n      tag_276\n      jumpi\n      mload(0x40)\n      0x08c379a000000000000000000000000000000000000000000000000000000000\n      dup2\n      mstore\n      0x04\n      add\n      tag_277\n      swap1\n      tag_278\n      jump\t// in\n    tag_277:\n      mload(0x40)\n      dup1\n      swap2\n      sub\n      swap1\n      revert\n    tag_276:\n        /* \"contracts/stake.sol\":10485:10499  uint256 amount */\n      0x00\n        /* \"contracts/stake.sol\":10502:10524  pureAmount(msg.sender) */\n      tag_279\n        /* \"contracts/stake.sol\":10513:10523  msg.sender */\n      caller\n        /* \"contracts/stake.sol\":10502:10512  pureAmount */\n      tag_83\n        /* \"contracts/stake.sol\":10502:10524  pureAmount(msg.sender) */\n      jump\t// in\n    tag_279:\n        /* \"contracts/stake.sol\":10485:10524  uint256 amount = pureAmount(msg.sender) */\n      swap1\n      pop\n        /* \"contracts/stake.sol\":10567:10582  block.timestamp */\n      timestamp\n        /* \"contracts/stake.sol\":10534:10552  _userLastClaimTime */\n      0x12\n        /* \"contracts/stake.sol\":10534:10564  _userLastClaimTime[msg.sender] */\n      0x00\n        /* \"contracts/stake.sol\":10553:10563  msg.sender */\n      caller\n        /* \"contracts/stake.sol\":10534:10564  _userLastClaimTime[msg.sender] */\n      0xffffffffffffffffffffffffffffffffffffffff\n      and\n      0xffffffffffffffffffffffffffffffffffffffff\n      and\n      dup2\n      mstore\n      0x20\n      add\n      swap1\n      dup2\n      mstore\n      0x20\n      add\n      0x00\n      keccak256\n        /* \"contracts/stake.sol\":10534:10582  _userLastClaimTime[msg.sender] = block.timestamp */\n      dup2\n      swap1\n      sstore\n      pop\n        /* \"contracts/stake.sol\":10599:10611  _rewardToken */\n      0x01\n      0x00\n      swap1\n      sload\n      swap1\n      0x0100\n      exp\n      swap1\n      div\n      0xffffffffffffffffffffffffffffffffffffffff\n      and\n        /* \"contracts/stake.sol\":10592:10621  IERC20(_rewardToken).transfer */\n      0xffffffffffffffffffffffffffffffffffffffff\n      and\n      0xa9059cbb\n        /* \"contracts/stake.sol\":10622:10632  msg.sender */\n      caller\n        /* \"contracts/stake.sol\":10634:10640  amount */\n      dup4\n        /* \"contracts/stake.sol\":10592:10641  IERC20(_rewardToken).transfer(msg.sender, amount) */\n      mload(0x40)\n      dup4\n      0xffffffff\n      and\n      0xe0\n      shl\n      dup2\n      mstore\n      0x04\n      add\n      tag_280\n      swap3\n      swap2\n      swap1\n      tag_216\n      jump\t// in\n    tag_280:\n      0x20\n      mload(0x40)\n      dup1\n      dup4\n      sub\n      dup2\n      0x00\n      dup8\n      gas\n      call\n      iszero\n      dup1\n      iszero\n      tag_282\n      jumpi\n      returndatasize\n      0x00\n      dup1\n      returndatacopy\n      revert(0x00, returndatasize)\n    tag_282:\n      pop\n      pop\n      pop\n      pop\n      mload(0x40)\n      returndatasize\n      not(0x1f)\n      0x1f\n      dup3\n      add\n      and\n      dup3\n      add\n      dup1\n      0x40\n      mstore\n      pop\n      dup2\n      add\n      swap1\n      tag_283\n      swap2\n      swap1\n      tag_220\n      jump\t// in\n    tag_283:\n      pop\n        /* \"contracts/stake.sol\":10217:10648  {... */\n      pop\n        /* \"contracts/stake.sol\":10182:10648  function claimStakeReward() public {... */\n      jump\t// out\n        /* \"contracts/stake.sol\":7443:7492  mapping(address => uint256) public _userStakeTime */\n    tag_137:\n      mstore(0x20, 0x10)\n      dup1\n      0x00\n      mstore\n      keccak256(0x00, 0x40)\n      0x00\n      swap2\n      pop\n      swap1\n      pop\n      sload\n      dup2\n      jump\t// out\n        /* \"contracts/stake.sol\":6494:6536  uint256 public _stake1 = 24 hours * 30 * 1 */\n    tag_140:\n      sload(0x03)\n      dup2\n      jump\t// out\n        /* \"contracts/stake.sol\":8456:8603  function setStatus(bool stakeStart, bool claimStart) public onlyOwner {... */\n    tag_145:\n        /* \"contracts/stake.sol\":1333:1343  msg.sender */\n      caller\n        /* \"contracts/stake.sol\":1323:1343  _owner == msg.sender */\n      0xffffffffffffffffffffffffffffffffffffffff\n      and\n        /* \"contracts/stake.sol\":1323:1329  _owner */\n      0x00\n      dup1\n      sload\n      swap1\n      0x0100\n      exp\n      swap1\n      div\n      0xffffffffffffffffffffffffffffffffffffffff\n      and\n        /* \"contracts/stake.sol\":1323:1343  _owner == msg.sender */\n      0xffffffffffffffffffffffffffffffffffffffff\n      and\n      eq\n        /* \"contracts/stake.sol\":1315:1354  require(_owner == msg.sender, \"!owner\") */\n      tag_285\n      jumpi\n      mload(0x40)\n      0x08c379a000000000000000000000000000000000000000000000000000000000\n      dup2\n      mstore\n      0x04\n      add\n      tag_286\n      swap1\n      tag_178\n      jump\t// in\n    tag_286:\n      mload(0x40)\n      dup1\n      swap2\n      sub\n      swap1\n      revert\n    tag_285:\n        /* \"contracts/stake.sol\":8551:8561  stakeStart */\n      dup2\n        /* \"contracts/stake.sol\":8536:8548  isStakeStart */\n      0x0e\n      0x00\n        /* \"contracts/stake.sol\":8536:8561  isStakeStart = stakeStart */\n      0x0100\n      exp\n      dup2\n      sload\n      dup2\n      0xff\n      mul\n      not\n      and\n      swap1\n      dup4\n      iszero\n      iszero\n      mul\n      or\n      swap1\n      sstore\n      pop\n        /* \"contracts/stake.sol\":8586:8596  claimStart */\n      dup1\n        /* \"contracts/stake.sol\":8571:8583  isClaimStart */\n      0x0e\n      0x01\n        /* \"contracts/stake.sol\":8571:8596  isClaimStart = claimStart */\n      0x0100\n      exp\n      dup2\n      sload\n      dup2\n      0xff\n      mul\n      not\n      and\n      swap1\n      dup4\n      iszero\n      iszero\n      mul\n      or\n      swap1\n      sstore\n      pop\n        /* \"contracts/stake.sol\":8456:8603  function setStatus(bool stakeStart, bool claimStart) public onlyOwner {... */\n      pop\n      pop\n      jump\t// out\n        /* \"contracts/stake.sol\":6311:6383  address public _rewardToken = 0xF8499f5d74dfdA9b7953CFB43F4e65Fa96D0F83c */\n    tag_147:\n      0x01\n      0x00\n      swap1\n      sload\n      swap1\n      0x0100\n      exp\n      swap1\n      div\n      0xffffffffffffffffffffffffffffffffffffffff\n      and\n      dup2\n      jump\t// out\n        /* \"contracts/stake.sol\":9458:9720  function claimReward() public {... */\n    tag_150:\n        /* \"contracts/stake.sol\":9506:9518  isClaimStart */\n      0x0e\n      0x01\n      swap1\n      sload\n      swap1\n      0x0100\n      exp\n      swap1\n      div\n      0xff\n      and\n        /* \"contracts/stake.sol\":9498:9532  require(isClaimStart, \"not start\") */\n      tag_289\n      jumpi\n      mload(0x40)\n      0x08c379a000000000000000000000000000000000000000000000000000000000\n      dup2\n      mstore\n      0x04\n      add\n      tag_290\n      swap1\n      tag_232\n      jump\t// in\n    tag_290:\n      mload(0x40)\n      dup1\n      swap2\n      sub\n      swap1\n      revert\n    tag_289:\n        /* \"contracts/stake.sol\":9579:9580  0 */\n      0x00\n        /* \"contracts/stake.sol\":9550:9564  _inviterReward */\n      0x09\n        /* \"contracts/stake.sol\":9550:9576  _inviterReward[msg.sender] */\n      0x00\n        /* \"contracts/stake.sol\":9565:9575  msg.sender */\n      caller\n        /* \"contracts/stake.sol\":9550:9576  _inviterReward[msg.sender] */\n      0xffffffffffffffffffffffffffffffffffffffff\n      and\n      0xffffffffffffffffffffffffffffffffffffffff\n      and\n      dup2\n      mstore\n      0x20\n      add\n      swap1\n      dup2\n      mstore\n      0x20\n      add\n      0x00\n      keccak256\n      sload\n        /* \"contracts/stake.sol\":9550:9580  _inviterReward[msg.sender] > 0 */\n      gt\n        /* \"contracts/stake.sol\":9542:9594  require(_inviterReward[msg.sender] > 0, \"no reward\") */\n      tag_291\n      jumpi\n      mload(0x40)\n      0x08c379a000000000000000000000000000000000000000000000000000000000\n      dup2\n      mstore\n      0x04\n      add\n      tag_292\n      swap1\n      tag_293\n      jump\t// in\n    tag_292:\n      mload(0x40)\n      dup1\n      swap2\n      sub\n      swap1\n      revert\n    tag_291:\n        /* \"contracts/stake.sol\":9611:9623  _rewardToken */\n      0x01\n      0x00\n      swap1\n      sload\n      swap1\n      0x0100\n      exp\n      swap1\n      div\n      0xffffffffffffffffffffffffffffffffffffffff\n      and\n        /* \"contracts/stake.sol\":9604:9633  IERC20(_rewardToken).transfer */\n      0xffffffffffffffffffffffffffffffffffffffff\n      and\n      0xa9059cbb\n        /* \"contracts/stake.sol\":9634:9644  msg.sender */\n      caller\n        /* \"contracts/stake.sol\":9646:9660  _inviterReward */\n      0x09\n        /* \"contracts/stake.sol\":9646:9672  _inviterReward[msg.sender] */\n      0x00\n        /* \"contracts/stake.sol\":9661:9671  msg.sender */\n      caller\n        /* \"contracts/stake.sol\":9646:9672  _inviterReward[msg.sender] */\n      0xffffffffffffffffffffffffffffffffffffffff\n      and\n      0xffffffffffffffffffffffffffffffffffffffff\n      and\n      dup2\n      mstore\n      0x20\n      add\n      swap1\n      dup2\n      mstore\n      0x20\n      add\n      0x00\n      keccak256\n      sload\n        /* \"contracts/stake.sol\":9604:9673  IERC20(_rewardToken).transfer(msg.sender, _inviterReward[msg.sender]) */\n      mload(0x40)\n      dup4\n      0xffffffff\n      and\n      0xe0\n      shl\n      dup2\n      mstore\n      0x04\n      add\n      tag_294\n      swap3\n      swap2\n      swap1\n      tag_216\n      jump\t// in\n    tag_294:\n      0x20\n      mload(0x40)\n      dup1\n      dup4\n      sub\n      dup2\n      0x00\n      dup8\n      gas\n      call\n      iszero\n      dup1\n      iszero\n      tag_296\n      jumpi\n      returndatasize\n      0x00\n      dup1\n      returndatacopy\n      revert(0x00, returndatasize)\n    tag_296:\n      pop\n      pop\n      pop\n      pop\n      mload(0x40)\n      returndatasize\n      not(0x1f)\n      0x1f\n      dup3\n      add\n      and\n      dup3\n      add\n      dup1\n      0x40\n      mstore\n      pop\n      dup2\n      add\n      swap1\n      tag_297\n      swap2\n      swap1\n      tag_220\n      jump\t// in\n    tag_297:\n      pop\n        /* \"contracts/stake.sol\":9712:9713  0 */\n      0x00\n        /* \"contracts/stake.sol\":9683:9697  _inviterReward */\n      0x09\n        /* \"contracts/stake.sol\":9683:9709  _inviterReward[msg.sender] */\n      0x00\n        /* \"contracts/stake.sol\":9698:9708  msg.sender */\n      caller\n        /* \"contracts/stake.sol\":9683:9709  _inviterReward[msg.sender] */\n      0xffffffffffffffffffffffffffffffffffffffff\n      and\n      0xffffffffffffffffffffffffffffffffffffffff\n      and\n      dup2\n      mstore\n      0x20\n      add\n      swap1\n      dup2\n      mstore\n      0x20\n      add\n      0x00\n      keccak256\n        /* \"contracts/stake.sol\":9683:9713  _inviterReward[msg.sender] = 0 */\n      dup2\n      swap1\n      sstore\n      pop\n        /* \"contracts/stake.sol\":9458:9720  function claimReward() public {... */\n      jump\t// out\n        /* \"contracts/stake.sol\":9751:10151  function cancalStack() public {... */\n    tag_152:\n        /* \"contracts/stake.sol\":9852:9866  _userStakeTime */\n      0x10\n        /* \"contracts/stake.sol\":9852:9878  _userStakeTime[msg.sender] */\n      0x00\n        /* \"contracts/stake.sol\":9867:9877  msg.sender */\n      caller\n        /* \"contracts/stake.sol\":9852:9878  _userStakeTime[msg.sender] */\n      0xffffffffffffffffffffffffffffffffffffffff\n      and\n      0xffffffffffffffffffffffffffffffffffffffff\n      and\n      dup2\n      mstore\n      0x20\n      add\n      swap1\n      dup2\n      mstore\n      0x20\n      add\n      0x00\n      keccak256\n      sload\n        /* \"contracts/stake.sol\":9817:9836  _userStakeStartTime */\n      0x11\n        /* \"contracts/stake.sol\":9817:9848  _userStakeStartTime[msg.sender] */\n      0x00\n        /* \"contracts/stake.sol\":9837:9847  msg.sender */\n      caller\n        /* \"contracts/stake.sol\":9817:9848  _userStakeStartTime[msg.sender] */\n      0xffffffffffffffffffffffffffffffffffffffff\n      and\n      0xffffffffffffffffffffffffffffffffffffffff\n      and\n      dup2\n      mstore\n      0x20\n      add\n      swap1\n      dup2\n      mstore\n      0x20\n      add\n      0x00\n      keccak256\n      sload\n        /* \"contracts/stake.sol\":9799:9814  block.timestamp */\n      timestamp\n        /* \"contracts/stake.sol\":9799:9848  block.timestamp - _userStakeStartTime[msg.sender] */\n      tag_299\n      swap2\n      swap1\n      tag_188\n      jump\t// in\n    tag_299:\n        /* \"contracts/stake.sol\":9799:9878  block.timestamp - _userStakeStartTime[msg.sender] >= _userStakeTime[msg.sender] */\n      lt\n      iszero\n        /* \"contracts/stake.sol\":9791:9891  require(block.timestamp - _userStakeStartTime[msg.sender] >= _userStakeTime[msg.sender], \"not time\") */\n      tag_300\n      jumpi\n      mload(0x40)\n      0x08c379a000000000000000000000000000000000000000000000000000000000\n      dup2\n      mstore\n      0x04\n      add\n      tag_301\n      swap1\n      tag_302\n      jump\t// in\n    tag_301:\n      mload(0x40)\n      dup1\n      swap2\n      sub\n      swap1\n      revert\n    tag_300:\n        /* \"contracts/stake.sol\":9934:9935  0 */\n      0x00\n        /* \"contracts/stake.sol\":9909:9919  _userStake */\n      0x0f\n        /* \"contracts/stake.sol\":9909:9931  _userStake[msg.sender] */\n      0x00\n        /* \"contracts/stake.sol\":9920:9930  msg.sender */\n      caller\n        /* \"contracts/stake.sol\":9909:9931  _userStake[msg.sender] */\n      0xffffffffffffffffffffffffffffffffffffffff\n      and\n      0xffffffffffffffffffffffffffffffffffffffff\n      and\n      dup2\n      mstore\n      0x20\n      add\n      swap1\n      dup2\n      mstore\n      0x20\n      add\n      0x00\n      keccak256\n      sload\n        /* \"contracts/stake.sol\":9909:9935  _userStake[msg.sender] > 0 */\n      gt\n        /* \"contracts/stake.sol\":9901:9949  require(_userStake[msg.sender] > 0, \"not stake\") */\n      tag_303\n      jumpi\n      mload(0x40)\n      0x08c379a000000000000000000000000000000000000000000000000000000000\n      dup2\n      mstore\n      0x04\n      add\n      tag_304\n      swap1\n      tag_272\n      jump\t// in\n    tag_304:\n      mload(0x40)\n      dup1\n      swap2\n      sub\n      swap1\n      revert\n    tag_303:\n        /* \"contracts/stake.sol\":9966:9977  _stakeToken */\n      0x02\n      0x00\n      swap1\n      sload\n      swap1\n      0x0100\n      exp\n      swap1\n      div\n      0xffffffffffffffffffffffffffffffffffffffff\n      and\n        /* \"contracts/stake.sol\":9959:9987  IERC20(_stakeToken).transfer */\n      0xffffffffffffffffffffffffffffffffffffffff\n      and\n      0xa9059cbb\n        /* \"contracts/stake.sol\":9988:9998  msg.sender */\n      caller\n        /* \"contracts/stake.sol\":10000:10010  _userStake */\n      0x0f\n        /* \"contracts/stake.sol\":10000:10022  _userStake[msg.sender] */\n      0x00\n        /* \"contracts/stake.sol\":10011:10021  msg.sender */\n      caller\n        /* \"contracts/stake.sol\":10000:10022  _userStake[msg.sender] */\n      0xffffffffffffffffffffffffffffffffffffffff\n      and\n      0xffffffffffffffffffffffffffffffffffffffff\n      and\n      dup2\n      mstore\n      0x20\n      add\n      swap1\n      dup2\n      mstore\n      0x20\n      add\n      0x00\n      keccak256\n      sload\n        /* \"contracts/stake.sol\":9959:10023  IERC20(_stakeToken).transfer(msg.sender, _userStake[msg.sender]) */\n      mload(0x40)\n      dup4\n      0xffffffff\n      and\n      0xe0\n      shl\n      dup2\n      mstore\n      0x04\n      add\n      tag_305\n      swap3\n      swap2\n      swap1\n      tag_216\n      jump\t// in\n    tag_305:\n      0x20\n      mload(0x40)\n      dup1\n      dup4\n      sub\n      dup2\n      0x00\n      dup8\n      gas\n      call\n      iszero\n      dup1\n      iszero\n      tag_307\n      jumpi\n      returndatasize\n      0x00\n      dup1\n      returndatacopy\n      revert(0x00, returndatasize)\n    tag_307:\n      pop\n      pop\n      pop\n      pop\n      mload(0x40)\n      returndatasize\n      not(0x1f)\n      0x1f\n      dup3\n      add\n      and\n      dup3\n      add\n      dup1\n      0x40\n      mstore\n      pop\n      dup2\n      add\n      swap1\n      tag_308\n      swap2\n      swap1\n      tag_220\n      jump\t// in\n    tag_308:\n      pop\n        /* \"contracts/stake.sol\":10058:10059  0 */\n      0x00\n        /* \"contracts/stake.sol\":10033:10043  _userStake */\n      0x0f\n        /* \"contracts/stake.sol\":10033:10055  _userStake[msg.sender] */\n      0x00\n        /* \"contracts/stake.sol\":10044:10054  msg.sender */\n      caller\n        /* \"contracts/stake.sol\":10033:10055  _userStake[msg.sender] */\n      0xffffffffffffffffffffffffffffffffffffffff\n      and\n      0xffffffffffffffffffffffffffffffffffffffff\n      and\n      dup2\n      mstore\n      0x20\n      add\n      swap1\n      dup2\n      mstore\n      0x20\n      add\n      0x00\n      keccak256\n        /* \"contracts/stake.sol\":10033:10059  _userStake[msg.sender] = 0 */\n      dup2\n      swap1\n      sstore\n      pop\n        /* \"contracts/stake.sol\":10103:10104  0 */\n      0x00\n        /* \"contracts/stake.sol\":10069:10088  _userStakeStartTime */\n      0x11\n        /* \"contracts/stake.sol\":10069:10100  _userStakeStartTime[msg.sender] */\n      0x00\n        /* \"contracts/stake.sol\":10089:10099  msg.sender */\n      caller\n        /* \"contracts/stake.sol\":10069:10100  _userStakeStartTime[msg.sender] */\n      0xffffffffffffffffffffffffffffffffffffffff\n      and\n      0xffffffffffffffffffffffffffffffffffffffff\n      and\n      dup2\n      mstore\n      0x20\n      add\n      swap1\n      dup2\n      mstore\n      0x20\n      add\n      0x00\n      keccak256\n        /* \"contracts/stake.sol\":10069:10104  _userStakeStartTime[msg.sender] = 0 */\n      dup2\n      swap1\n      sstore\n      pop\n        /* \"contracts/stake.sol\":10143:10144  0 */\n      0x00\n        /* \"contracts/stake.sol\":10114:10128  _userStakeTime */\n      0x10\n        /* \"contracts/stake.sol\":10114:10140  _userStakeTime[msg.sender] */\n      0x00\n        /* \"contracts/stake.sol\":10129:10139  msg.sender */\n      caller\n        /* \"contracts/stake.sol\":10114:10140  _userStakeTime[msg.sender] */\n      0xffffffffffffffffffffffffffffffffffffffff\n      and\n      0xffffffffffffffffffffffffffffffffffffffff\n      and\n      dup2\n      mstore\n      0x20\n      add\n      swap1\n      dup2\n      mstore\n      0x20\n      add\n      0x00\n      keccak256\n        /* \"contracts/stake.sol\":10114:10144  _userStakeTime[msg.sender] = 0 */\n      dup2\n      swap1\n      sstore\n      pop\n        /* \"contracts/stake.sol\":9751:10151  function cancalStack() public {... */\n      jump\t// out\n        /* \"contracts/stake.sol\":6857:6906  mapping(address => uint256) public _inviterReward */\n    tag_155:\n      mstore(0x20, 0x09)\n      dup1\n      0x00\n      mstore\n      keccak256(0x00, 0x40)\n      0x00\n      swap2\n      pop\n      swap1\n      pop\n      sload\n      dup2\n      jump\t// out\n        /* \"contracts/stake.sol\":12181:12272  function getBlockNow() view public returns(uint256) {... */\n    tag_158:\n        /* \"contracts/stake.sol\":12224:12231  uint256 */\n      0x00\n        /* \"contracts/stake.sol\":12250:12265  block.timestamp */\n      timestamp\n        /* \"contracts/stake.sol\":12243:12265  return block.timestamp */\n      swap1\n      pop\n        /* \"contracts/stake.sol\":12181:12272  function getBlockNow() view public returns(uint256) {... */\n      swap1\n      jump\t// out\n        /* \"contracts/stake.sol\":7307:7338  bool public isClaimStart = true */\n    tag_161:\n      0x0e\n      0x01\n      swap1\n      sload\n      swap1\n      0x0100\n      exp\n      swap1\n      div\n      0xff\n      and\n      dup2\n      jump\t// out\n        /* \"contracts/stake.sol\":7077:7130  uint256 public _stake3pure = _1per * 12 / _stake3 * 3 */\n    tag_164:\n      sload(0x0c)\n      dup2\n      jump\t// out\n        /* \"contracts/stake.sol\":1377:1587  function transferOwnership(address newOwner) public virtual onlyOwner {... */\n    tag_168:\n        /* \"contracts/stake.sol\":1333:1343  msg.sender */\n      caller\n        /* \"contracts/stake.sol\":1323:1343  _owner == msg.sender */\n      0xffffffffffffffffffffffffffffffffffffffff\n      and\n        /* \"contracts/stake.sol\":1323:1329  _owner */\n      0x00\n      dup1\n      sload\n      swap1\n      0x0100\n      exp\n      swap1\n      div\n      0xffffffffffffffffffffffffffffffffffffffff\n      and\n        /* \"contracts/stake.sol\":1323:1343  _owner == msg.sender */\n      0xffffffffffffffffffffffffffffffffffffffff\n      and\n      eq\n        /* \"contracts/stake.sol\":1315:1354  require(_owner == msg.sender, \"!owner\") */\n      tag_311\n      jumpi\n      mload(0x40)\n      0x08c379a000000000000000000000000000000000000000000000000000000000\n      dup2\n      mstore\n      0x04\n      add\n      tag_312\n      swap1\n      tag_178\n      jump\t// in\n    tag_312:\n      mload(0x40)\n      dup1\n      swap2\n      sub\n      swap1\n      revert\n    tag_311:\n        /* \"contracts/stake.sol\":1485:1486  0 */\n      0x00\n        /* \"contracts/stake.sol\":1465:1487  newOwner != address(0) */\n      0xffffffffffffffffffffffffffffffffffffffff\n      and\n        /* \"contracts/stake.sol\":1465:1473  newOwner */\n      dup2\n        /* \"contracts/stake.sol\":1465:1487  newOwner != address(0) */\n      0xffffffffffffffffffffffffffffffffffffffff\n      and\n      sub\n        /* \"contracts/stake.sol\":1457:1500  require(newOwner != address(0), \"new is 0\") */\n      tag_314\n      jumpi\n      mload(0x40)\n      0x08c379a000000000000000000000000000000000000000000000000000000000\n      dup2\n      mstore\n      0x04\n      add\n      tag_315\n      swap1\n      tag_316\n      jump\t// in\n    tag_315:\n      mload(0x40)\n      dup1\n      swap2\n      sub\n      swap1\n      revert\n    tag_314:\n        /* \"contracts/stake.sol\":1544:1552  newOwner */\n      dup1\n        /* \"contracts/stake.sol\":1515:1553  OwnershipTransferred(_owner, newOwner) */\n      0xffffffffffffffffffffffffffffffffffffffff\n      and\n        /* \"contracts/stake.sol\":1536:1542  _owner */\n      0x00\n      dup1\n      sload\n      swap1\n      0x0100\n      exp\n      swap1\n      div\n      0xffffffffffffffffffffffffffffffffffffffff\n      and\n        /* \"contracts/stake.sol\":1515:1553  OwnershipTransferred(_owner, newOwner) */\n      0xffffffffffffffffffffffffffffffffffffffff\n      and\n      0x8be0079c531659141344cd1fd0a4f28419497f9722a3daafe3b4186f6b6457e0\n      mload(0x40)\n      mload(0x40)\n      dup1\n      swap2\n      sub\n      swap1\n      log3\n        /* \"contracts/stake.sol\":1572:1580  newOwner */\n      dup1\n        /* \"contracts/stake.sol\":1563:1569  _owner */\n      0x00\n      dup1\n        /* \"contracts/stake.sol\":1563:1580  _owner = newOwner */\n      0x0100\n      exp\n      dup2\n      sload\n      dup2\n      0xffffffffffffffffffffffffffffffffffffffff\n      mul\n      not\n      and\n      swap1\n      dup4\n      0xffffffffffffffffffffffffffffffffffffffff\n      and\n      mul\n      or\n      swap1\n      sstore\n      pop\n        /* \"contracts/stake.sol\":1377:1587  function transferOwnership(address newOwner) public virtual onlyOwner {... */\n      pop\n      jump\t// out\n        /* \"contracts/stake.sol\":7250:7281  bool public isStakeStart = true */\n    tag_170:\n      0x0e\n      0x00\n      swap1\n      sload\n      swap1\n      0x0100\n      exp\n      swap1\n      div\n      0xff\n      and\n      dup2\n      jump\t// out\n        /* \"contracts/stake.sol\":6995:7043  uint256 public _stake1pure = _1per * 8 / _stake1 */\n    tag_173:\n      sload(0x0b)\n      dup2\n      jump\t// out\n        /* \"#utility.yul\":88:205   */\n    tag_318:\n        /* \"#utility.yul\":197:198   */\n      0x00\n        /* \"#utility.yul\":194:195   */\n      dup1\n        /* \"#utility.yul\":187:199   */\n      revert\n        /* \"#utility.yul\":334:411   */\n    tag_320:\n        /* \"#utility.yul\":371:378   */\n      0x00\n        /* \"#utility.yul\":400:405   */\n      dup2\n        /* \"#utility.yul\":389:405   */\n      swap1\n      pop\n        /* \"#utility.yul\":334:411   */\n      swap2\n      swap1\n      pop\n      jump\t// out\n        /* \"#utility.yul\":417:539   */\n    tag_321:\n        /* \"#utility.yul\":490:514   */\n      tag_367\n        /* \"#utility.yul\":508:513   */\n      dup2\n        /* \"#utility.yul\":490:514   */\n      tag_320\n      jump\t// in\n    tag_367:\n        /* \"#utility.yul\":483:488   */\n      dup2\n        /* \"#utility.yul\":480:515   */\n      eq\n        /* \"#utility.yul\":470:533   */\n      tag_368\n      jumpi\n        /* \"#utility.yul\":529:530   */\n      0x00\n        /* \"#utility.yul\":526:527   */\n      dup1\n        /* \"#utility.yul\":519:531   */\n      revert\n        /* \"#utility.yul\":470:533   */\n    tag_368:\n        /* \"#utility.yul\":417:539   */\n      pop\n      jump\t// out\n        /* \"#utility.yul\":545:684   */\n    tag_322:\n        /* \"#utility.yul\":591:596   */\n      0x00\n        /* \"#utility.yul\":629:635   */\n      dup2\n        /* \"#utility.yul\":616:636   */\n      calldataload\n        /* \"#utility.yul\":607:636   */\n      swap1\n      pop\n        /* \"#utility.yul\":645:678   */\n      tag_370\n        /* \"#utility.yul\":672:677   */\n      dup2\n        /* \"#utility.yul\":645:678   */\n      tag_321\n      jump\t// in\n    tag_370:\n        /* \"#utility.yul\":545:684   */\n      swap3\n      swap2\n      pop\n      pop\n      jump\t// out\n        /* \"#utility.yul\":690:1019   */\n    tag_49:\n        /* \"#utility.yul\":749:755   */\n      0x00\n        /* \"#utility.yul\":798:800   */\n      0x20\n        /* \"#utility.yul\":786:795   */\n      dup3\n        /* \"#utility.yul\":777:784   */\n      dup5\n        /* \"#utility.yul\":773:796   */\n      sub\n        /* \"#utility.yul\":769:801   */\n      slt\n        /* \"#utility.yul\":766:885   */\n      iszero\n      tag_372\n      jumpi\n        /* \"#utility.yul\":804:883   */\n      tag_373\n      tag_318\n      jump\t// in\n    tag_373:\n        /* \"#utility.yul\":766:885   */\n    tag_372:\n        /* \"#utility.yul\":924:925   */\n      0x00\n        /* \"#utility.yul\":949:1002   */\n      tag_374\n        /* \"#utility.yul\":994:1001   */\n      dup5\n        /* \"#utility.yul\":985:991   */\n      dup3\n        /* \"#utility.yul\":974:983   */\n      dup6\n        /* \"#utility.yul\":970:992   */\n      add\n        /* \"#utility.yul\":949:1002   */\n      tag_322\n      jump\t// in\n    tag_374:\n        /* \"#utility.yul\":939:1002   */\n      swap2\n      pop\n        /* \"#utility.yul\":895:1012   */\n      pop\n        /* \"#utility.yul\":690:1019   */\n      swap3\n      swap2\n      pop\n      pop\n      jump\t// out\n        /* \"#utility.yul\":1025:1151   */\n    tag_323:\n        /* \"#utility.yul\":1062:1069   */\n      0x00\n        /* \"#utility.yul\":1102:1144   */\n      0xffffffffffffffffffffffffffffffffffffffff\n        /* \"#utility.yul\":1095:1100   */\n      dup3\n        /* \"#utility.yul\":1091:1145   */\n      and\n        /* \"#utility.yul\":1080:1145   */\n      swap1\n      pop\n        /* \"#utility.yul\":1025:1151   */\n      swap2\n      swap1\n      pop\n      jump\t// out\n        /* \"#utility.yul\":1157:1253   */\n    tag_324:\n        /* \"#utility.yul\":1194:1201   */\n      0x00\n        /* \"#utility.yul\":1223:1247   */\n      tag_377\n        /* \"#utility.yul\":1241:1246   */\n      dup3\n        /* \"#utility.yul\":1223:1247   */\n      tag_323\n      jump\t// in\n    tag_377:\n        /* \"#utility.yul\":1212:1247   */\n      swap1\n      pop\n        /* \"#utility.yul\":1157:1253   */\n      swap2\n      swap1\n      pop\n      jump\t// out\n        /* \"#utility.yul\":1259:1381   */\n    tag_325:\n        /* \"#utility.yul\":1332:1356   */\n      tag_379\n        /* \"#utility.yul\":1350:1355   */\n      dup2\n        /* \"#utility.yul\":1332:1356   */\n      tag_324\n      jump\t// in\n    tag_379:\n        /* \"#utility.yul\":1325:1330   */\n      dup2\n        /* \"#utility.yul\":1322:1357   */\n      eq\n        /* \"#utility.yul\":1312:1375   */\n      tag_380\n      jumpi\n        /* \"#utility.yul\":1371:1372   */\n      0x00\n        /* \"#utility.yul\":1368:1369   */\n      dup1\n        /* \"#utility.yul\":1361:1373   */\n      revert\n        /* \"#utility.yul\":1312:1375   */\n    tag_380:\n        /* \"#utility.yul\":1259:1381   */\n      pop\n      jump\t// out\n        /* \"#utility.yul\":1387:1526   */\n    tag_326:\n        /* \"#utility.yul\":1433:1438   */\n      0x00\n        /* \"#utility.yul\":1471:1477   */\n      dup2\n        /* \"#utility.yul\":1458:1478   */\n      calldataload\n        /* \"#utility.yul\":1449:1478   */\n      swap1\n      pop\n        /* \"#utility.yul\":1487:1520   */\n      tag_382\n        /* \"#utility.yul\":1514:1519   */\n      dup2\n        /* \"#utility.yul\":1487:1520   */\n      tag_325\n      jump\t// in\n    tag_382:\n        /* \"#utility.yul\":1387:1526   */\n      swap3\n      swap2\n      pop\n      pop\n      jump\t// out\n        /* \"#utility.yul\":1532:1861   */\n    tag_53:\n        /* \"#utility.yul\":1591:1597   */\n      0x00\n        /* \"#utility.yul\":1640:1642   */\n      0x20\n        /* \"#utility.yul\":1628:1637   */\n      dup3\n        /* \"#utility.yul\":1619:1626   */\n      dup5\n        /* \"#utility.yul\":1615:1638   */\n      sub\n        /* \"#utility.yul\":1611:1643   */\n      slt\n        /* \"#utility.yul\":1608:1727   */\n      iszero\n      tag_384\n      jumpi\n        /* \"#utility.yul\":1646:1725   */\n      tag_385\n      tag_318\n      jump\t// in\n    tag_385:\n        /* \"#utility.yul\":1608:1727   */\n    tag_384:\n        /* \"#utility.yul\":1766:1767   */\n      0x00\n        /* \"#utility.yul\":1791:1844   */\n      tag_386\n        /* \"#utility.yul\":1836:1843   */\n      dup5\n        /* \"#utility.yul\":1827:1833   */\n      dup3\n        /* \"#utility.yul\":1816:1825   */\n      dup6\n        /* \"#utility.yul\":1812:1834   */\n      add\n        /* \"#utility.yul\":1791:1844   */\n      tag_326\n      jump\t// in\n    tag_386:\n        /* \"#utility.yul\":1781:1844   */\n      swap2\n      pop\n        /* \"#utility.yul\":1737:1854   */\n      pop\n        /* \"#utility.yul\":1532:1861   */\n      swap3\n      swap2\n      pop\n      pop\n      jump\t// out\n        /* \"#utility.yul\":1867:1957   */\n    tag_327:\n        /* \"#utility.yul\":1901:1908   */\n      0x00\n        /* \"#utility.yul\":1944:1949   */\n      dup2\n        /* \"#utility.yul\":1937:1950   */\n      iszero\n        /* \"#utility.yul\":1930:1951   */\n      iszero\n        /* \"#utility.yul\":1919:1951   */\n      swap1\n      pop\n        /* \"#utility.yul\":1867:1957   */\n      swap2\n      swap1\n      pop\n      jump\t// out\n        /* \"#utility.yul\":1963:2072   */\n    tag_328:\n        /* \"#utility.yul\":2044:2065   */\n      tag_389\n        /* \"#utility.yul\":2059:2064   */\n      dup2\n        /* \"#utility.yul\":2044:2065   */\n      tag_327\n      jump\t// in\n    tag_389:\n        /* \"#utility.yul\":2039:2042   */\n      dup3\n        /* \"#utility.yul\":2032:2066   */\n      mstore\n        /* \"#utility.yul\":1963:2072   */\n      pop\n      pop\n      jump\t// out\n        /* \"#utility.yul\":2078:2288   */\n    tag_59:\n        /* \"#utility.yul\":2165:2169   */\n      0x00\n        /* \"#utility.yul\":2203:2205   */\n      0x20\n        /* \"#utility.yul\":2192:2201   */\n      dup3\n        /* \"#utility.yul\":2188:2206   */\n      add\n        /* \"#utility.yul\":2180:2206   */\n      swap1\n      pop\n        /* \"#utility.yul\":2216:2281   */\n      tag_391\n        /* \"#utility.yul\":2278:2279   */\n      0x00\n        /* \"#utility.yul\":2267:2276   */\n      dup4\n        /* \"#utility.yul\":2263:2280   */\n      add\n        /* \"#utility.yul\":2254:2260   */\n      dup5\n        /* \"#utility.yul\":2216:2281   */\n      tag_328\n      jump\t// in\n    tag_391:\n        /* \"#utility.yul\":2078:2288   */\n      swap3\n      swap2\n      pop\n      pop\n      jump\t// out\n        /* \"#utility.yul\":2294:2412   */\n    tag_329:\n        /* \"#utility.yul\":2381:2405   */\n      tag_393\n        /* \"#utility.yul\":2399:2404   */\n      dup2\n        /* \"#utility.yul\":2381:2405   */\n      tag_320\n      jump\t// in\n    tag_393:\n        /* \"#utility.yul\":2376:2379   */\n      dup3\n        /* \"#utility.yul\":2369:2406   */\n      mstore\n        /* \"#utility.yul\":2294:2412   */\n      pop\n      pop\n      jump\t// out\n        /* \"#utility.yul\":2418:2640   */\n    tag_64:\n        /* \"#utility.yul\":2511:2515   */\n      0x00\n        /* \"#utility.yul\":2549:2551   */\n      0x20\n        /* \"#utility.yul\":2538:2547   */\n      dup3\n        /* \"#utility.yul\":2534:2552   */\n      add\n        /* \"#utility.yul\":2526:2552   */\n      swap1\n      pop\n        /* \"#utility.yul\":2562:2633   */\n      tag_395\n        /* \"#utility.yul\":2630:2631   */\n      0x00\n        /* \"#utility.yul\":2619:2628   */\n      dup4\n        /* \"#utility.yul\":2615:2632   */\n      add\n        /* \"#utility.yul\":2606:2612   */\n      dup5\n        /* \"#utility.yul\":2562:2633   */\n      tag_329\n      jump\t// in\n    tag_395:\n        /* \"#utility.yul\":2418:2640   */\n      swap3\n      swap2\n      pop\n      pop\n      jump\t// out\n        /* \"#utility.yul\":2646:2764   */\n    tag_330:\n        /* \"#utility.yul\":2733:2757   */\n      tag_397\n        /* \"#utility.yul\":2751:2756   */\n      dup2\n        /* \"#utility.yul\":2733:2757   */\n      tag_324\n      jump\t// in\n    tag_397:\n        /* \"#utility.yul\":2728:2731   */\n      dup3\n        /* \"#utility.yul\":2721:2758   */\n      mstore\n        /* \"#utility.yul\":2646:2764   */\n      pop\n      pop\n      jump\t// out\n        /* \"#utility.yul\":2770:2992   */\n    tag_80:\n        /* \"#utility.yul\":2863:2867   */\n      0x00\n        /* \"#utility.yul\":2901:2903   */\n      0x20\n        /* \"#utility.yul\":2890:2899   */\n      dup3\n        /* \"#utility.yul\":2886:2904   */\n      add\n        /* \"#utility.yul\":2878:2904   */\n      swap1\n      pop\n        /* \"#utility.yul\":2914:2985   */\n      tag_399\n        /* \"#utility.yul\":2982:2983   */\n      0x00\n        /* \"#utility.yul\":2971:2980   */\n      dup4\n        /* \"#utility.yul\":2967:2984   */\n      add\n        /* \"#utility.yul\":2958:2964   */\n      dup5\n        /* \"#utility.yul\":2914:2985   */\n      tag_330\n      jump\t// in\n    tag_399:\n        /* \"#utility.yul\":2770:2992   */\n      swap3\n      swap2\n      pop\n      pop\n      jump\t// out\n        /* \"#utility.yul\":2998:3617   */\n    tag_90:\n        /* \"#utility.yul\":3075:3081   */\n      0x00\n        /* \"#utility.yul\":3083:3089   */\n      dup1\n        /* \"#utility.yul\":3091:3097   */\n      0x00\n        /* \"#utility.yul\":3140:3142   */\n      0x60\n        /* \"#utility.yul\":3128:3137   */\n      dup5\n        /* \"#utility.yul\":3119:3126   */\n      dup7\n        /* \"#utility.yul\":3115:3138   */\n      sub\n        /* \"#utility.yul\":3111:3143   */\n      slt\n        /* \"#utility.yul\":3108:3227   */\n      iszero\n      tag_401\n      jumpi\n        /* \"#utility.yul\":3146:3225   */\n      tag_402\n      tag_318\n      jump\t// in\n    tag_402:\n        /* \"#utility.yul\":3108:3227   */\n    tag_401:\n        /* \"#utility.yul\":3266:3267   */\n      0x00\n        /* \"#utility.yul\":3291:3344   */\n      tag_403\n        /* \"#utility.yul\":3336:3343   */\n      dup7\n        /* \"#utility.yul\":3327:3333   */\n      dup3\n        /* \"#utility.yul\":3316:3325   */\n      dup8\n        /* \"#utility.yul\":3312:3334   */\n      add\n        /* \"#utility.yul\":3291:3344   */\n      tag_326\n      jump\t// in\n    tag_403:\n        /* \"#utility.yul\":3281:3344   */\n      swap4\n      pop\n        /* \"#utility.yul\":3237:3354   */\n      pop\n        /* \"#utility.yul\":3393:3395   */\n      0x20\n        /* \"#utility.yul\":3419:3472   */\n      tag_404\n        /* \"#utility.yul\":3464:3471   */\n      dup7\n        /* \"#utility.yul\":3455:3461   */\n      dup3\n        /* \"#utility.yul\":3444:3453   */\n      dup8\n        /* \"#utility.yul\":3440:3462   */\n      add\n        /* \"#utility.yul\":3419:3472   */\n      tag_326\n      jump\t// in\n    tag_404:\n        /* \"#utility.yul\":3409:3472   */\n      swap3\n      pop\n        /* \"#utility.yul\":3364:3482   */\n      pop\n        /* \"#utility.yul\":3521:3523   */\n      0x40\n        /* \"#utility.yul\":3547:3600   */\n      tag_405\n        /* \"#utility.yul\":3592:3599   */\n      dup7\n        /* \"#utility.yul\":3583:3589   */\n      dup3\n        /* \"#utility.yul\":3572:3581   */\n      dup8\n        /* \"#utility.yul\":3568:3590   */\n      add\n        /* \"#utility.yul\":3547:3600   */\n      tag_322\n      jump\t// in\n    tag_405:\n        /* \"#utility.yul\":3537:3600   */\n      swap2\n      pop\n        /* \"#utility.yul\":3492:3610   */\n      pop\n        /* \"#utility.yul\":2998:3617   */\n      swap3\n      pop\n      swap3\n      pop\n      swap3\n      jump\t// out\n        /* \"#utility.yul\":3623:4534   */\n    tag_97:\n        /* \"#utility.yul\":3718:3724   */\n      0x00\n        /* \"#utility.yul\":3726:3732   */\n      dup1\n        /* \"#utility.yul\":3734:3740   */\n      0x00\n        /* \"#utility.yul\":3742:3748   */\n      dup1\n        /* \"#utility.yul\":3750:3756   */\n      0x00\n        /* \"#utility.yul\":3799:3802   */\n      0xa0\n        /* \"#utility.yul\":3787:3796   */\n      dup7\n        /* \"#utility.yul\":3778:3785   */\n      dup9\n        /* \"#utility.yul\":3774:3797   */\n      sub\n        /* \"#utility.yul\":3770:3803   */\n      slt\n        /* \"#utility.yul\":3767:3887   */\n      iszero\n      tag_407\n      jumpi\n        /* \"#utility.yul\":3806:3885   */\n      tag_408\n      tag_318\n      jump\t// in\n    tag_408:\n        /* \"#utility.yul\":3767:3887   */\n    tag_407:\n        /* \"#utility.yul\":3926:3927   */\n      0x00\n        /* \"#utility.yul\":3951:4004   */\n      tag_409\n        /* \"#utility.yul\":3996:4003   */\n      dup9\n        /* \"#utility.yul\":3987:3993   */\n      dup3\n        /* \"#utility.yul\":3976:3985   */\n      dup10\n        /* \"#utility.yul\":3972:3994   */\n      add\n        /* \"#utility.yul\":3951:4004   */\n      tag_326\n      jump\t// in\n    tag_409:\n        /* \"#utility.yul\":3941:4004   */\n      swap6\n      pop\n        /* \"#utility.yul\":3897:4014   */\n      pop\n        /* \"#utility.yul\":4053:4055   */\n      0x20\n        /* \"#utility.yul\":4079:4132   */\n      tag_410\n        /* \"#utility.yul\":4124:4131   */\n      dup9\n        /* \"#utility.yul\":4115:4121   */\n      dup3\n        /* \"#utility.yul\":4104:4113   */\n      dup10\n        /* \"#utility.yul\":4100:4122   */\n      add\n        /* \"#utility.yul\":4079:4132   */\n      tag_322\n      jump\t// in\n    tag_410:\n        /* \"#utility.yul\":4069:4132   */\n      swap5\n      pop\n        /* \"#utility.yul\":4024:4142   */\n      pop\n        /* \"#utility.yul\":4181:4183   */\n      0x40\n        /* \"#utility.yul\":4207:4260   */\n      tag_411\n        /* \"#utility.yul\":4252:4259   */\n      dup9\n        /* \"#utility.yul\":4243:4249   */\n      dup3\n        /* \"#utility.yul\":4232:4241   */\n      dup10\n        /* \"#utility.yul\":4228:4250   */\n      add\n        /* \"#utility.yul\":4207:4260   */\n      tag_322\n      jump\t// in\n    tag_411:\n        /* \"#utility.yul\":4197:4260   */\n      swap4\n      pop\n        /* \"#utility.yul\":4152:4270   */\n      pop\n        /* \"#utility.yul\":4309:4311   */\n      0x60\n        /* \"#utility.yul\":4335:4388   */\n      tag_412\n        /* \"#utility.yul\":4380:4387   */\n      dup9\n        /* \"#utility.yul\":4371:4377   */\n      dup3\n        /* \"#utility.yul\":4360:4369   */\n      dup10\n        /* \"#utility.yul\":4356:4378   */\n      add\n        /* \"#utility.yul\":4335:4388   */\n      tag_322\n      jump\t// in\n    tag_412:\n        /* \"#utility.yul\":4325:4388   */\n      swap3\n      pop\n        /* \"#utility.yul\":4280:4398   */\n      pop\n        /* \"#utility.yul\":4437:4440   */\n      0x80\n        /* \"#utility.yul\":4464:4517   */\n      tag_413\n        /* \"#utility.yul\":4509:4516   */\n      dup9\n        /* \"#utility.yul\":4500:4506   */\n      dup3\n        /* \"#utility.yul\":4489:4498   */\n      dup10\n        /* \"#utility.yul\":4485:4507   */\n      add\n        /* \"#utility.yul\":4464:4517   */\n      tag_322\n      jump\t// in\n    tag_413:\n        /* \"#utility.yul\":4454:4517   */\n      swap2\n      pop\n        /* \"#utility.yul\":4408:4527   */\n      pop\n        /* \"#utility.yul\":3623:4534   */\n      swap3\n      swap6\n      pop\n      swap3\n      swap6\n      swap1\n      swap4\n      pop\n      jump\t// out\n        /* \"#utility.yul\":4540:5159   */\n    tag_104:\n        /* \"#utility.yul\":4617:4623   */\n      0x00\n        /* \"#utility.yul\":4625:4631   */\n      dup1\n        /* \"#utility.yul\":4633:4639   */\n      0x00\n        /* \"#utility.yul\":4682:4684   */\n      0x60\n        /* \"#utility.yul\":4670:4679   */\n      dup5\n        /* \"#utility.yul\":4661:4668   */\n      dup7\n        /* \"#utility.yul\":4657:4680   */\n      sub\n        /* \"#utility.yul\":4653:4685   */\n      slt\n        /* \"#utility.yul\":4650:4769   */\n      iszero\n      tag_415\n      jumpi\n        /* \"#utility.yul\":4688:4767   */\n      tag_416\n      tag_318\n      jump\t// in\n    tag_416:\n        /* \"#utility.yul\":4650:4769   */\n    tag_415:\n        /* \"#utility.yul\":4808:4809   */\n      0x00\n        /* \"#utility.yul\":4833:4886   */\n      tag_417\n        /* \"#utility.yul\":4878:4885   */\n      dup7\n        /* \"#utility.yul\":4869:4875   */\n      dup3\n        /* \"#utility.yul\":4858:4867   */\n      dup8\n        /* \"#utility.yul\":4854:4876   */\n      add\n        /* \"#utility.yul\":4833:4886   */\n      tag_322\n      jump\t// in\n    tag_417:\n        /* \"#utility.yul\":4823:4886   */\n      swap4\n      pop\n        /* \"#utility.yul\":4779:4896   */\n      pop\n        /* \"#utility.yul\":4935:4937   */\n      0x20\n        /* \"#utility.yul\":4961:5014   */\n      tag_418\n        /* \"#utility.yul\":5006:5013   */\n      dup7\n        /* \"#utility.yul\":4997:5003   */\n      dup3\n        /* \"#utility.yul\":4986:4995   */\n      dup8\n        /* \"#utility.yul\":4982:5004   */\n      add\n        /* \"#utility.yul\":4961:5014   */\n      tag_326\n      jump\t// in\n    tag_418:\n        /* \"#utility.yul\":4951:5014   */\n      swap3\n      pop\n        /* \"#utility.yul\":4906:5024   */\n      pop\n        /* \"#utility.yul\":5063:5065   */\n      0x40\n        /* \"#utility.yul\":5089:5142   */\n      tag_419\n        /* \"#utility.yul\":5134:5141   */\n      dup7\n        /* \"#utility.yul\":5125:5131   */\n      dup3\n        /* \"#utility.yul\":5114:5123   */\n      dup8\n        /* \"#utility.yul\":5110:5132   */\n      add\n        /* \"#utility.yul\":5089:5142   */\n      tag_322\n      jump\t// in\n    tag_419:\n        /* \"#utility.yul\":5079:5142   */\n      swap2\n      pop\n        /* \"#utility.yul\":5034:5152   */\n      pop\n        /* \"#utility.yul\":4540:5159   */\n      swap3\n      pop\n      swap3\n      pop\n      swap3\n      jump\t// out\n        /* \"#utility.yul\":5165:5784   */\n    tag_111:\n        /* \"#utility.yul\":5242:5248   */\n      0x00\n        /* \"#utility.yul\":5250:5256   */\n      dup1\n        /* \"#utility.yul\":5258:5264   */\n      0x00\n        /* \"#utility.yul\":5307:5309   */\n      0x60\n        /* \"#utility.yul\":5295:5304   */\n      dup5\n        /* \"#utility.yul\":5286:5293   */\n      dup7\n        /* \"#utility.yul\":5282:5305   */\n      sub\n        /* \"#utility.yul\":5278:5310   */\n      slt\n        /* \"#utility.yul\":5275:5394   */\n      iszero\n      tag_421\n      jumpi\n        /* \"#utility.yul\":5313:5392   */\n      tag_422\n      tag_318\n      jump\t// in\n    tag_422:\n        /* \"#utility.yul\":5275:5394   */\n    tag_421:\n        /* \"#utility.yul\":5433:5434   */\n      0x00\n        /* \"#utility.yul\":5458:5511   */\n      tag_423\n        /* \"#utility.yul\":5503:5510   */\n      dup7\n        /* \"#utility.yul\":5494:5500   */\n      dup3\n        /* \"#utility.yul\":5483:5492   */\n      dup8\n        /* \"#utility.yul\":5479:5501   */\n      add\n        /* \"#utility.yul\":5458:5511   */\n      tag_322\n      jump\t// in\n    tag_423:\n        /* \"#utility.yul\":5448:5511   */\n      swap4\n      pop\n        /* \"#utility.yul\":5404:5521   */\n      pop\n        /* \"#utility.yul\":5560:5562   */\n      0x20\n        /* \"#utility.yul\":5586:5639   */\n      tag_424\n        /* \"#utility.yul\":5631:5638   */\n      dup7\n        /* \"#utility.yul\":5622:5628   */\n      dup3\n        /* \"#utility.yul\":5611:5620   */\n      dup8\n        /* \"#utility.yul\":5607:5629   */\n      add\n        /* \"#utility.yul\":5586:5639   */\n      tag_322\n      jump\t// in\n    tag_424:\n        /* \"#utility.yul\":5576:5639   */\n      swap3\n      pop\n        /* \"#utility.yul\":5531:5649   */\n      pop\n        /* \"#utility.yul\":5688:5690   */\n      0x40\n        /* \"#utility.yul\":5714:5767   */\n      tag_425\n        /* \"#utility.yul\":5759:5766   */\n      dup7\n        /* \"#utility.yul\":5750:5756   */\n      dup3\n        /* \"#utility.yul\":5739:5748   */\n      dup8\n        /* \"#utility.yul\":5735:5757   */\n      add\n        /* \"#utility.yul\":5714:5767   */\n      tag_322\n      jump\t// in\n    tag_425:\n        /* \"#utility.yul\":5704:5767   */\n      swap2\n      pop\n        /* \"#utility.yul\":5659:5777   */\n      pop\n        /* \"#utility.yul\":5165:5784   */\n      swap3\n      pop\n      swap3\n      pop\n      swap3\n      jump\t// out\n        /* \"#utility.yul\":5790:5906   */\n    tag_331:\n        /* \"#utility.yul\":5860:5881   */\n      tag_427\n        /* \"#utility.yul\":5875:5880   */\n      dup2\n        /* \"#utility.yul\":5860:5881   */\n      tag_327\n      jump\t// in\n    tag_427:\n        /* \"#utility.yul\":5853:5858   */\n      dup2\n        /* \"#utility.yul\":5850:5882   */\n      eq\n        /* \"#utility.yul\":5840:5900   */\n      tag_428\n      jumpi\n        /* \"#utility.yul\":5896:5897   */\n      0x00\n        /* \"#utility.yul\":5893:5894   */\n      dup1\n        /* \"#utility.yul\":5886:5898   */\n      revert\n        /* \"#utility.yul\":5840:5900   */\n    tag_428:\n        /* \"#utility.yul\":5790:5906   */\n      pop\n      jump\t// out\n        /* \"#utility.yul\":5912:6045   */\n    tag_332:\n        /* \"#utility.yul\":5955:5960   */\n      0x00\n        /* \"#utility.yul\":5993:5999   */\n      dup2\n        /* \"#utility.yul\":5980:6000   */\n      calldataload\n        /* \"#utility.yul\":5971:6000   */\n      swap1\n      pop\n        /* \"#utility.yul\":6009:6039   */\n      tag_430\n        /* \"#utility.yul\":6033:6038   */\n      dup2\n        /* \"#utility.yul\":6009:6039   */\n      tag_331\n      jump\t// in\n    tag_430:\n        /* \"#utility.yul\":5912:6045   */\n      swap3\n      swap2\n      pop\n      pop\n      jump\t// out\n        /* \"#utility.yul\":6051:6513   */\n    tag_144:\n        /* \"#utility.yul\":6113:6119   */\n      0x00\n        /* \"#utility.yul\":6121:6127   */\n      dup1\n        /* \"#utility.yul\":6170:6172   */\n      0x40\n        /* \"#utility.yul\":6158:6167   */\n      dup4\n        /* \"#utility.yul\":6149:6156   */\n      dup6\n        /* \"#utility.yul\":6145:6168   */\n      sub\n        /* \"#utility.yul\":6141:6173   */\n      slt\n        /* \"#utility.yul\":6138:6257   */\n      iszero\n      tag_432\n      jumpi\n        /* \"#utility.yul\":6176:6255   */\n      tag_433\n      tag_318\n      jump\t// in\n    tag_433:\n        /* \"#utility.yul\":6138:6257   */\n    tag_432:\n        /* \"#utility.yul\":6296:6297   */\n      0x00\n        /* \"#utility.yul\":6321:6371   */\n      tag_434\n        /* \"#utility.yul\":6363:6370   */\n      dup6\n        /* \"#utility.yul\":6354:6360   */\n      dup3\n        /* \"#utility.yul\":6343:6352   */\n      dup7\n        /* \"#utility.yul\":6339:6361   */\n      add\n        /* \"#utility.yul\":6321:6371   */\n      tag_332\n      jump\t// in\n    tag_434:\n        /* \"#utility.yul\":6311:6371   */\n      swap3\n      pop\n        /* \"#utility.yul\":6267:6381   */\n      pop\n        /* \"#utility.yul\":6420:6422   */\n      0x20\n        /* \"#utility.yul\":6446:6496   */\n      tag_435\n        /* \"#utility.yul\":6488:6495   */\n      dup6\n        /* \"#utility.yul\":6479:6485   */\n      dup3\n        /* \"#utility.yul\":6468:6477   */\n      dup7\n        /* \"#utility.yul\":6464:6486   */\n      add\n        /* \"#utility.yul\":6446:6496   */\n      tag_332\n      jump\t// in\n    tag_435:\n        /* \"#utility.yul\":6436:6496   */\n      swap2\n      pop\n        /* \"#utility.yul\":6391:6506   */\n      pop\n        /* \"#utility.yul\":6051:6513   */\n      swap3\n      pop\n      swap3\n      swap1\n      pop\n      jump\t// out\n        /* \"#utility.yul\":6519:6688   */\n    tag_333:\n        /* \"#utility.yul\":6603:6614   */\n      0x00\n        /* \"#utility.yul\":6637:6643   */\n      dup3\n        /* \"#utility.yul\":6632:6635   */\n      dup3\n        /* \"#utility.yul\":6625:6644   */\n      mstore\n        /* \"#utility.yul\":6677:6681   */\n      0x20\n        /* \"#utility.yul\":6672:6675   */\n      dup3\n        /* \"#utility.yul\":6668:6682   */\n      add\n        /* \"#utility.yul\":6653:6682   */\n      swap1\n      pop\n        /* \"#utility.yul\":6519:6688   */\n      swap3\n      swap2\n      pop\n      pop\n      jump\t// out\n        /* \"#utility.yul\":6694:6850   */\n    tag_334:\n        /* \"#utility.yul\":6834:6842   */\n      0x216f776e65720000000000000000000000000000000000000000000000000000\n        /* \"#utility.yul\":6830:6831   */\n      0x00\n        /* \"#utility.yul\":6822:6828   */\n      dup3\n        /* \"#utility.yul\":6818:6832   */\n      add\n        /* \"#utility.yul\":6811:6843   */\n      mstore\n        /* \"#utility.yul\":6694:6850   */\n      pop\n      jump\t// out\n        /* \"#utility.yul\":6856:7221   */\n    tag_335:\n        /* \"#utility.yul\":6998:7001   */\n      0x00\n        /* \"#utility.yul\":7019:7085   */\n      tag_439\n        /* \"#utility.yul\":7083:7084   */\n      0x06\n        /* \"#utility.yul\":7078:7081   */\n      dup4\n        /* \"#utility.yul\":7019:7085   */\n      tag_333\n      jump\t// in\n    tag_439:\n        /* \"#utility.yul\":7012:7085   */\n      swap2\n      pop\n        /* \"#utility.yul\":7094:7187   */\n      tag_440\n        /* \"#utility.yul\":7183:7186   */\n      dup3\n        /* \"#utility.yul\":7094:7187   */\n      tag_334\n      jump\t// in\n    tag_440:\n        /* \"#utility.yul\":7212:7214   */\n      0x20\n        /* \"#utility.yul\":7207:7210   */\n      dup3\n        /* \"#utility.yul\":7203:7215   */\n      add\n        /* \"#utility.yul\":7196:7215   */\n      swap1\n      pop\n        /* \"#utility.yul\":6856:7221   */\n      swap2\n      swap1\n      pop\n      jump\t// out\n        /* \"#utility.yul\":7227:7646   */\n    tag_178:\n        /* \"#utility.yul\":7393:7397   */\n      0x00\n        /* \"#utility.yul\":7431:7433   */\n      0x20\n        /* \"#utility.yul\":7420:7429   */\n      dup3\n        /* \"#utility.yul\":7416:7434   */\n      add\n        /* \"#utility.yul\":7408:7434   */\n      swap1\n      pop\n        /* \"#utility.yul\":7480:7489   */\n      dup2\n        /* \"#utility.yul\":7474:7478   */\n      dup2\n        /* \"#utility.yul\":7470:7490   */\n      sub\n        /* \"#utility.yul\":7466:7467   */\n      0x00\n        /* \"#utility.yul\":7455:7464   */\n      dup4\n        /* \"#utility.yul\":7451:7468   */\n      add\n        /* \"#utility.yul\":7444:7491   */\n      mstore\n        /* \"#utility.yul\":7508:7639   */\n      tag_442\n        /* \"#utility.yul\":7634:7638   */\n      dup2\n        /* \"#utility.yul\":7508:7639   */\n      tag_335\n      jump\t// in\n    tag_442:\n        /* \"#utility.yul\":7500:7639   */\n      swap1\n      pop\n        /* \"#utility.yul\":7227:7646   */\n      swap2\n      swap1\n      pop\n      jump\t// out\n        /* \"#utility.yul\":7652:7832   */\n    tag_336:\n        /* \"#utility.yul\":7700:7777   */\n      0x4e487b7100000000000000000000000000000000000000000000000000000000\n        /* \"#utility.yul\":7697:7698   */\n      0x00\n        /* \"#utility.yul\":7690:7778   */\n      mstore\n        /* \"#utility.yul\":7797:7801   */\n      0x11\n        /* \"#utility.yul\":7794:7795   */\n      0x04\n        /* \"#utility.yul\":7787:7802   */\n      mstore\n        /* \"#utility.yul\":7821:7825   */\n      0x24\n        /* \"#utility.yul\":7818:7819   */\n      0x00\n        /* \"#utility.yul\":7811:7826   */\n      revert\n        /* \"#utility.yul\":7838:8032   */\n    tag_188:\n        /* \"#utility.yul\":7878:7882   */\n      0x00\n        /* \"#utility.yul\":7898:7918   */\n      tag_445\n        /* \"#utility.yul\":7916:7917   */\n      dup3\n        /* \"#utility.yul\":7898:7918   */\n      tag_320\n      jump\t// in\n    tag_445:\n        /* \"#utility.yul\":7893:7918   */\n      swap2\n      pop\n        /* \"#utility.yul\":7932:7952   */\n      tag_446\n        /* \"#utility.yul\":7950:7951   */\n      dup4\n        /* \"#utility.yul\":7932:7952   */\n      tag_320\n      jump\t// in\n    tag_446:\n        /* \"#utility.yul\":7927:7952   */\n      swap3\n      pop\n        /* \"#utility.yul\":7976:7977   */\n      dup3\n        /* \"#utility.yul\":7973:7974   */\n      dup3\n        /* \"#utility.yul\":7969:7978   */\n      sub\n        /* \"#utility.yul\":7961:7978   */\n      swap1\n      pop\n        /* \"#utility.yul\":8000:8001   */\n      dup2\n        /* \"#utility.yul\":7994:7998   */\n      dup2\n        /* \"#utility.yul\":7991:8002   */\n      gt\n        /* \"#utility.yul\":7988:8025   */\n      iszero\n      tag_447\n      jumpi\n        /* \"#utility.yul\":8005:8023   */\n      tag_448\n      tag_336\n      jump\t// in\n    tag_448:\n        /* \"#utility.yul\":7988:8025   */\n    tag_447:\n        /* \"#utility.yul\":7838:8032   */\n      swap3\n      swap2\n      pop\n      pop\n      jump\t// out\n        /* \"#utility.yul\":8038:8448   */\n    tag_207:\n        /* \"#utility.yul\":8078:8085   */\n      0x00\n        /* \"#utility.yul\":8101:8121   */\n      tag_450\n        /* \"#utility.yul\":8119:8120   */\n      dup3\n        /* \"#utility.yul\":8101:8121   */\n      tag_320\n      jump\t// in\n    tag_450:\n        /* \"#utility.yul\":8096:8121   */\n      swap2\n      pop\n        /* \"#utility.yul\":8135:8155   */\n      tag_451\n        /* \"#utility.yul\":8153:8154   */\n      dup4\n        /* \"#utility.yul\":8135:8155   */\n      tag_320\n      jump\t// in\n    tag_451:\n        /* \"#utility.yul\":8130:8155   */\n      swap3\n      pop\n        /* \"#utility.yul\":8190:8191   */\n      dup3\n        /* \"#utility.yul\":8187:8188   */\n      dup3\n        /* \"#utility.yul\":8183:8192   */\n      mul\n        /* \"#utility.yul\":8212:8242   */\n      tag_452\n        /* \"#utility.yul\":8230:8241   */\n      dup2\n        /* \"#utility.yul\":8212:8242   */\n      tag_320\n      jump\t// in\n    tag_452:\n        /* \"#utility.yul\":8201:8242   */\n      swap2\n      pop\n        /* \"#utility.yul\":8391:8392   */\n      dup3\n        /* \"#utility.yul\":8382:8389   */\n      dup3\n        /* \"#utility.yul\":8378:8393   */\n      div\n        /* \"#utility.yul\":8375:8376   */\n      dup5\n        /* \"#utility.yul\":8372:8394   */\n      eq\n        /* \"#utility.yul\":8352:8353   */\n      dup4\n        /* \"#utility.yul\":8345:8354   */\n      iszero\n        /* \"#utility.yul\":8325:8408   */\n      or\n        /* \"#utility.yul\":8302:8441   */\n      tag_453\n      jumpi\n        /* \"#utility.yul\":8421:8439   */\n      tag_454\n      tag_336\n      jump\t// in\n    tag_454:\n        /* \"#utility.yul\":8302:8441   */\n    tag_453:\n        /* \"#utility.yul\":8086:8448   */\n      pop\n        /* \"#utility.yul\":8038:8448   */\n      swap3\n      swap2\n      pop\n      pop\n      jump\t// out\n        /* \"#utility.yul\":8454:8634   */\n    tag_337:\n        /* \"#utility.yul\":8502:8579   */\n      0x4e487b7100000000000000000000000000000000000000000000000000000000\n        /* \"#utility.yul\":8499:8500   */\n      0x00\n        /* \"#utility.yul\":8492:8580   */\n      mstore\n        /* \"#utility.yul\":8599:8603   */\n      0x12\n        /* \"#utility.yul\":8596:8597   */\n      0x04\n        /* \"#utility.yul\":8589:8604   */\n      mstore\n        /* \"#utility.yul\":8623:8627   */\n      0x24\n        /* \"#utility.yul\":8620:8621   */\n      0x00\n        /* \"#utility.yul\":8613:8628   */\n      revert\n        /* \"#utility.yul\":8640:8825   */\n    tag_210:\n        /* \"#utility.yul\":8680:8681   */\n      0x00\n        /* \"#utility.yul\":8697:8717   */\n      tag_457\n        /* \"#utility.yul\":8715:8716   */\n      dup3\n        /* \"#utility.yul\":8697:8717   */\n      tag_320\n      jump\t// in\n    tag_457:\n        /* \"#utility.yul\":8692:8717   */\n      swap2\n      pop\n        /* \"#utility.yul\":8731:8751   */\n      tag_458\n        /* \"#utility.yul\":8749:8750   */\n      dup4\n        /* \"#utility.yul\":8731:8751   */\n      tag_320\n      jump\t// in\n    tag_458:\n        /* \"#utility.yul\":8726:8751   */\n      swap3\n      pop\n        /* \"#utility.yul\":8770:8771   */\n      dup3\n        /* \"#utility.yul\":8760:8795   */\n      tag_459\n      jumpi\n        /* \"#utility.yul\":8775:8793   */\n      tag_460\n      tag_337\n      jump\t// in\n    tag_460:\n        /* \"#utility.yul\":8760:8795   */\n    tag_459:\n        /* \"#utility.yul\":8817:8818   */\n      dup3\n        /* \"#utility.yul\":8814:8815   */\n      dup3\n        /* \"#utility.yul\":8810:8819   */\n      div\n        /* \"#utility.yul\":8805:8819   */\n      swap1\n      pop\n        /* \"#utility.yul\":8640:8825   */\n      swap3\n      swap2\n      pop\n      pop\n      jump\t// out\n        /* \"#utility.yul\":8831:9163   */\n    tag_216:\n        /* \"#utility.yul\":8952:8956   */\n      0x00\n        /* \"#utility.yul\":8990:8992   */\n      0x40\n        /* \"#utility.yul\":8979:8988   */\n      dup3\n        /* \"#utility.yul\":8975:8993   */\n      add\n        /* \"#utility.yul\":8967:8993   */\n      swap1\n      pop\n        /* \"#utility.yul\":9003:9074   */\n      tag_462\n        /* \"#utility.yul\":9071:9072   */\n      0x00\n        /* \"#utility.yul\":9060:9069   */\n      dup4\n        /* \"#utility.yul\":9056:9073   */\n      add\n        /* \"#utility.yul\":9047:9053   */\n      dup6\n        /* \"#utility.yul\":9003:9074   */\n      tag_330\n      jump\t// in\n    tag_462:\n        /* \"#utility.yul\":9084:9156   */\n      tag_463\n        /* \"#utility.yul\":9152:9154   */\n      0x20\n        /* \"#utility.yul\":9141:9150   */\n      dup4\n        /* \"#utility.yul\":9137:9155   */\n      add\n        /* \"#utility.yul\":9128:9134   */\n      dup5\n        /* \"#utility.yul\":9084:9156   */\n      tag_329\n      jump\t// in\n    tag_463:\n        /* \"#utility.yul\":8831:9163   */\n      swap4\n      swap3\n      pop\n      pop\n      pop\n      jump\t// out\n        /* \"#utility.yul\":9169:9306   */\n    tag_338:\n        /* \"#utility.yul\":9223:9228   */\n      0x00\n        /* \"#utility.yul\":9254:9260   */\n      dup2\n        /* \"#utility.yul\":9248:9261   */\n      mload\n        /* \"#utility.yul\":9239:9261   */\n      swap1\n      pop\n        /* \"#utility.yul\":9270:9300   */\n      tag_465\n        /* \"#utility.yul\":9294:9299   */\n      dup2\n        /* \"#utility.yul\":9270:9300   */\n      tag_331\n      jump\t// in\n    tag_465:\n        /* \"#utility.yul\":9169:9306   */\n      swap3\n      swap2\n      pop\n      pop\n      jump\t// out\n        /* \"#utility.yul\":9312:9657   */\n    tag_220:\n        /* \"#utility.yul\":9379:9385   */\n      0x00\n        /* \"#utility.yul\":9428:9430   */\n      0x20\n        /* \"#utility.yul\":9416:9425   */\n      dup3\n        /* \"#utility.yul\":9407:9414   */\n      dup5\n        /* \"#utility.yul\":9403:9426   */\n      sub\n        /* \"#utility.yul\":9399:9431   */\n      slt\n        /* \"#utility.yul\":9396:9515   */\n      iszero\n      tag_467\n      jumpi\n        /* \"#utility.yul\":9434:9513   */\n      tag_468\n      tag_318\n      jump\t// in\n    tag_468:\n        /* \"#utility.yul\":9396:9515   */\n    tag_467:\n        /* \"#utility.yul\":9554:9555   */\n      0x00\n        /* \"#utility.yul\":9579:9640   */\n      tag_469\n        /* \"#utility.yul\":9632:9639   */\n      dup5\n        /* \"#utility.yul\":9623:9629   */\n      dup3\n        /* \"#utility.yul\":9612:9621   */\n      dup6\n        /* \"#utility.yul\":9608:9630   */\n      add\n        /* \"#utility.yul\":9579:9640   */\n      tag_338\n      jump\t// in\n    tag_469:\n        /* \"#utility.yul\":9569:9640   */\n      swap2\n      pop\n        /* \"#utility.yul\":9525:9650   */\n      pop\n        /* \"#utility.yul\":9312:9657   */\n      swap3\n      swap2\n      pop\n      pop\n      jump\t// out\n        /* \"#utility.yul\":9663:9822   */\n    tag_339:\n        /* \"#utility.yul\":9803:9814   */\n      0x6e6f742073746172740000000000000000000000000000000000000000000000\n        /* \"#utility.yul\":9799:9800   */\n      0x00\n        /* \"#utility.yul\":9791:9797   */\n      dup3\n        /* \"#utility.yul\":9787:9801   */\n      add\n        /* \"#utility.yul\":9780:9815   */\n      mstore\n        /* \"#utility.yul\":9663:9822   */\n      pop\n      jump\t// out\n        /* \"#utility.yul\":9828:10193   */\n    tag_340:\n        /* \"#utility.yul\":9970:9973   */\n      0x00\n        /* \"#utility.yul\":9991:10057   */\n      tag_472\n        /* \"#utility.yul\":10055:10056   */\n      0x09\n        /* \"#utility.yul\":10050:10053   */\n      dup4\n        /* \"#utility.yul\":9991:10057   */\n      tag_333\n      jump\t// in\n    tag_472:\n        /* \"#utility.yul\":9984:10057   */\n      swap2\n      pop\n        /* \"#utility.yul\":10066:10159   */\n      tag_473\n        /* \"#utility.yul\":10155:10158   */\n      dup3\n        /* \"#utility.yul\":10066:10159   */\n      tag_339\n      jump\t// in\n    tag_473:\n        /* \"#utility.yul\":10184:10186   */\n      0x20\n        /* \"#utility.yul\":10179:10182   */\n      dup3\n        /* \"#utility.yul\":10175:10187   */\n      add\n        /* \"#utility.yul\":10168:10187   */\n      swap1\n      pop\n        /* \"#utility.yul\":9828:10193   */\n      swap2\n      swap1\n      pop\n      jump\t// out\n        /* \"#utility.yul\":10199:10618   */\n    tag_232:\n        /* \"#utility.yul\":10365:10369   */\n      0x00\n        /* \"#utility.yul\":10403:10405   */\n      0x20\n        /* \"#utility.yul\":10392:10401   */\n      dup3\n        /* \"#utility.yul\":10388:10406   */\n      add\n        /* \"#utility.yul\":10380:10406   */\n      swap1\n      pop\n        /* \"#utility.yul\":10452:10461   */\n      dup2\n        /* \"#utility.yul\":10446:10450   */\n      dup2\n        /* \"#utility.yul\":10442:10462   */\n      sub\n        /* \"#utility.yul\":10438:10439   */\n      0x00\n        /* \"#utility.yul\":10427:10436   */\n      dup4\n        /* \"#utility.yul\":10423:10440   */\n      add\n        /* \"#utility.yul\":10416:10463   */\n      mstore\n        /* \"#utility.yul\":10480:10611   */\n      tag_475\n        /* \"#utility.yul\":10606:10610   */\n      dup2\n        /* \"#utility.yul\":10480:10611   */\n      tag_340\n      jump\t// in\n    tag_475:\n        /* \"#utility.yul\":10472:10611   */\n      swap1\n      pop\n        /* \"#utility.yul\":10199:10618   */\n      swap2\n      swap1\n      pop\n      jump\t// out\n        /* \"#utility.yul\":10624:10794   */\n    tag_341:\n        /* \"#utility.yul\":10764:10786   */\n      0x696e76697465722063616e742062792073656c66000000000000000000000000\n        /* \"#utility.yul\":10760:10761   */\n      0x00\n        /* \"#utility.yul\":10752:10758   */\n      dup3\n        /* \"#utility.yul\":10748:10762   */\n      add\n        /* \"#utility.yul\":10741:10787   */\n      mstore\n        /* \"#utility.yul\":10624:10794   */\n      pop\n      jump\t// out\n        /* \"#utility.yul\":10800:11166   */\n    tag_342:\n        /* \"#utility.yul\":10942:10945   */\n      0x00\n        /* \"#utility.yul\":10963:11030   */\n      tag_478\n        /* \"#utility.yul\":11027:11029   */\n      0x14\n        /* \"#utility.yul\":11022:11025   */\n      dup4\n        /* \"#utility.yul\":10963:11030   */\n      tag_333\n      jump\t// in\n    tag_478:\n        /* \"#utility.yul\":10956:11030   */\n      swap2\n      pop\n        /* \"#utility.yul\":11039:11132   */\n      tag_479\n        /* \"#utility.yul\":11128:11131   */\n      dup3\n        /* \"#utility.yul\":11039:11132   */\n      tag_341\n      jump\t// in\n    tag_479:\n        /* \"#utility.yul\":11157:11159   */\n      0x20\n        /* \"#utility.yul\":11152:11155   */\n      dup3\n        /* \"#utility.yul\":11148:11160   */\n      add\n        /* \"#utility.yul\":11141:11160   */\n      swap1\n      pop\n        /* \"#utility.yul\":10800:11166   */\n      swap2\n      swap1\n      pop\n      jump\t// out\n        /* \"#utility.yul\":11172:11591   */\n    tag_235:\n        /* \"#utility.yul\":11338:11342   */\n      0x00\n        /* \"#utility.yul\":11376:11378   */\n      0x20\n        /* \"#utility.yul\":11365:11374   */\n      dup3\n        /* \"#utility.yul\":11361:11379   */\n      add\n        /* \"#utility.yul\":11353:11379   */\n      swap1\n      pop\n        /* \"#utility.yul\":11425:11434   */\n      dup2\n        /* \"#utility.yul\":11419:11423   */\n      dup2\n        /* \"#utility.yul\":11415:11435   */\n      sub\n        /* \"#utility.yul\":11411:11412   */\n      0x00\n        /* \"#utility.yul\":11400:11409   */\n      dup4\n        /* \"#utility.yul\":11396:11413   */\n      add\n        /* \"#utility.yul\":11389:11436   */\n      mstore\n        /* \"#utility.yul\":11453:11584   */\n      tag_481\n        /* \"#utility.yul\":11579:11583   */\n      dup2\n        /* \"#utility.yul\":11453:11584   */\n      tag_342\n      jump\t// in\n    tag_481:\n        /* \"#utility.yul\":11445:11584   */\n      swap1\n      pop\n        /* \"#utility.yul\":11172:11591   */\n      swap2\n      swap1\n      pop\n      jump\t// out\n        /* \"#utility.yul\":11597:11760   */\n    tag_343:\n        /* \"#utility.yul\":11737:11752   */\n      0x616c7265616479207374616b6500000000000000000000000000000000000000\n        /* \"#utility.yul\":11733:11734   */\n      0x00\n        /* \"#utility.yul\":11725:11731   */\n      dup3\n        /* \"#utility.yul\":11721:11735   */\n      add\n        /* \"#utility.yul\":11714:11753   */\n      mstore\n        /* \"#utility.yul\":11597:11760   */\n      pop\n      jump\t// out\n        /* \"#utility.yul\":11766:12132   */\n    tag_344:\n        /* \"#utility.yul\":11908:11911   */\n      0x00\n        /* \"#utility.yul\":11929:11996   */\n      tag_484\n        /* \"#utility.yul\":11993:11995   */\n      0x0d\n        /* \"#utility.yul\":11988:11991   */\n      dup4\n        /* \"#utility.yul\":11929:11996   */\n      tag_333\n      jump\t// in\n    tag_484:\n        /* \"#utility.yul\":11922:11996   */\n      swap2\n      pop\n        /* \"#utility.yul\":12005:12098   */\n      tag_485\n        /* \"#utility.yul\":12094:12097   */\n      dup3\n        /* \"#utility.yul\":12005:12098   */\n      tag_343\n      jump\t// in\n    tag_485:\n        /* \"#utility.yul\":12123:12125   */\n      0x20\n        /* \"#utility.yul\":12118:12121   */\n      dup3\n        /* \"#utility.yul\":12114:12126   */\n      add\n        /* \"#utility.yul\":12107:12126   */\n      swap1\n      pop\n        /* \"#utility.yul\":11766:12132   */\n      swap2\n      swap1\n      pop\n      jump\t// out\n        /* \"#utility.yul\":12138:12557   */\n    tag_238:\n        /* \"#utility.yul\":12304:12308   */\n      0x00\n        /* \"#utility.yul\":12342:12344   */\n      0x20\n        /* \"#utility.yul\":12331:12340   */\n      dup3\n        /* \"#utility.yul\":12327:12345   */\n      add\n        /* \"#utility.yul\":12319:12345   */\n      swap1\n      pop\n        /* \"#utility.yul\":12391:12400   */\n      dup2\n        /* \"#utility.yul\":12385:12389   */\n      dup2\n        /* \"#utility.yul\":12381:12401   */\n      sub\n        /* \"#utility.yul\":12377:12378   */\n      0x00\n        /* \"#utility.yul\":12366:12375   */\n      dup4\n        /* \"#utility.yul\":12362:12379   */\n      add\n        /* \"#utility.yul\":12355:12402   */\n      mstore\n        /* \"#utility.yul\":12419:12550   */\n      tag_487\n        /* \"#utility.yul\":12545:12549   */\n      dup2\n        /* \"#utility.yul\":12419:12550   */\n      tag_344\n      jump\t// in\n    tag_487:\n        /* \"#utility.yul\":12411:12550   */\n      swap1\n      pop\n        /* \"#utility.yul\":12138:12557   */\n      swap2\n      swap1\n      pop\n      jump\t// out\n        /* \"#utility.yul\":12563:12723   */\n    tag_345:\n        /* \"#utility.yul\":12703:12715   */\n      0x7a65726f207374616b6500000000000000000000000000000000000000000000\n        /* \"#utility.yul\":12699:12700   */\n      0x00\n        /* \"#utility.yul\":12691:12697   */\n      dup3\n        /* \"#utility.yul\":12687:12701   */\n      add\n        /* \"#utility.yul\":12680:12716   */\n      mstore\n        /* \"#utility.yul\":12563:12723   */\n      pop\n      jump\t// out\n        /* \"#utility.yul\":12729:13095   */\n    tag_346:\n        /* \"#utility.yul\":12871:12874   */\n      0x00\n        /* \"#utility.yul\":12892:12959   */\n      tag_490\n        /* \"#utility.yul\":12956:12958   */\n      0x0a\n        /* \"#utility.yul\":12951:12954   */\n      dup4\n        /* \"#utility.yul\":12892:12959   */\n      tag_333\n      jump\t// in\n    tag_490:\n        /* \"#utility.yul\":12885:12959   */\n      swap2\n      pop\n        /* \"#utility.yul\":12968:13061   */\n      tag_491\n        /* \"#utility.yul\":13057:13060   */\n      dup3\n        /* \"#utility.yul\":12968:13061   */\n      tag_345\n      jump\t// in\n    tag_491:\n        /* \"#utility.yul\":13086:13088   */\n      0x20\n        /* \"#utility.yul\":13081:13084   */\n      dup3\n        /* \"#utility.yul\":13077:13089   */\n      add\n        /* \"#utility.yul\":13070:13089   */\n      swap1\n      pop\n        /* \"#utility.yul\":12729:13095   */\n      swap2\n      swap1\n      pop\n      jump\t// out\n        /* \"#utility.yul\":13101:13520   */\n    tag_241:\n        /* \"#utility.yul\":13267:13271   */\n      0x00\n        /* \"#utility.yul\":13305:13307   */\n      0x20\n        /* \"#utility.yul\":13294:13303   */\n      dup3\n        /* \"#utility.yul\":13290:13308   */\n      add\n        /* \"#utility.yul\":13282:13308   */\n      swap1\n      pop\n        /* \"#utility.yul\":13354:13363   */\n      dup2\n        /* \"#utility.yul\":13348:13352   */\n      dup2\n        /* \"#utility.yul\":13344:13364   */\n      sub\n        /* \"#utility.yul\":13340:13341   */\n      0x00\n        /* \"#utility.yul\":13329:13338   */\n      dup4\n        /* \"#utility.yul\":13325:13342   */\n      add\n        /* \"#utility.yul\":13318:13365   */\n      mstore\n        /* \"#utility.yul\":13382:13513   */\n      tag_493\n        /* \"#utility.yul\":13508:13512   */\n      dup2\n        /* \"#utility.yul\":13382:13513   */\n      tag_346\n      jump\t// in\n    tag_493:\n        /* \"#utility.yul\":13374:13513   */\n      swap1\n      pop\n        /* \"#utility.yul\":13101:13520   */\n      swap2\n      swap1\n      pop\n      jump\t// out\n        /* \"#utility.yul\":13526:13690   */\n    tag_347:\n        /* \"#utility.yul\":13666:13682   */\n      0x6e6f742072696768742074696d65000000000000000000000000000000000000\n        /* \"#utility.yul\":13662:13663   */\n      0x00\n        /* \"#utility.yul\":13654:13660   */\n      dup3\n        /* \"#utility.yul\":13650:13664   */\n      add\n        /* \"#utility.yul\":13643:13683   */\n      mstore\n        /* \"#utility.yul\":13526:13690   */\n      pop\n      jump\t// out\n        /* \"#utility.yul\":13696:14062   */\n    tag_348:\n        /* \"#utility.yul\":13838:13841   */\n      0x00\n        /* \"#utility.yul\":13859:13926   */\n      tag_496\n        /* \"#utility.yul\":13923:13925   */\n      0x0e\n        /* \"#utility.yul\":13918:13921   */\n      dup4\n        /* \"#utility.yul\":13859:13926   */\n      tag_333\n      jump\t// in\n    tag_496:\n        /* \"#utility.yul\":13852:13926   */\n      swap2\n      pop\n        /* \"#utility.yul\":13935:14028   */\n      tag_497\n        /* \"#utility.yul\":14024:14027   */\n      dup3\n        /* \"#utility.yul\":13935:14028   */\n      tag_347\n      jump\t// in\n    tag_497:\n        /* \"#utility.yul\":14053:14055   */\n      0x20\n        /* \"#utility.yul\":14048:14051   */\n      dup3\n        /* \"#utility.yul\":14044:14056   */\n      add\n        /* \"#utility.yul\":14037:14056   */\n      swap1\n      pop\n        /* \"#utility.yul\":13696:14062   */\n      swap2\n      swap1\n      pop\n      jump\t// out\n        /* \"#utility.yul\":14068:14487   */\n    tag_246:\n        /* \"#utility.yul\":14234:14238   */\n      0x00\n        /* \"#utility.yul\":14272:14274   */\n      0x20\n        /* \"#utility.yul\":14261:14270   */\n      dup3\n        /* \"#utility.yul\":14257:14275   */\n      add\n        /* \"#utility.yul\":14249:14275   */\n      swap1\n      pop\n        /* \"#utility.yul\":14321:14330   */\n      dup2\n        /* \"#utility.yul\":14315:14319   */\n      dup2\n        /* \"#utility.yul\":14311:14331   */\n      sub\n        /* \"#utility.yul\":14307:14308   */\n      0x00\n        /* \"#utility.yul\":14296:14305   */\n      dup4\n        /* \"#utility.yul\":14292:14309   */\n      add\n        /* \"#utility.yul\":14285:14332   */\n      mstore\n        /* \"#utility.yul\":14349:14480   */\n      tag_499\n        /* \"#utility.yul\":14475:14479   */\n      dup2\n        /* \"#utility.yul\":14349:14480   */\n      tag_348\n      jump\t// in\n    tag_499:\n        /* \"#utility.yul\":14341:14480   */\n      swap1\n      pop\n        /* \"#utility.yul\":14068:14487   */\n      swap2\n      swap1\n      pop\n      jump\t// out\n        /* \"#utility.yul\":14493:14684   */\n    tag_251:\n        /* \"#utility.yul\":14533:14536   */\n      0x00\n        /* \"#utility.yul\":14552:14572   */\n      tag_501\n        /* \"#utility.yul\":14570:14571   */\n      dup3\n        /* \"#utility.yul\":14552:14572   */\n      tag_320\n      jump\t// in\n    tag_501:\n        /* \"#utility.yul\":14547:14572   */\n      swap2\n      pop\n        /* \"#utility.yul\":14586:14606   */\n      tag_502\n        /* \"#utility.yul\":14604:14605   */\n      dup4\n        /* \"#utility.yul\":14586:14606   */\n      tag_320\n      jump\t// in\n    tag_502:\n        /* \"#utility.yul\":14581:14606   */\n      swap3\n      pop\n        /* \"#utility.yul\":14629:14630   */\n      dup3\n        /* \"#utility.yul\":14626:14627   */\n      dup3\n        /* \"#utility.yul\":14622:14631   */\n      add\n        /* \"#utility.yul\":14615:14631   */\n      swap1\n      pop\n        /* \"#utility.yul\":14650:14653   */\n      dup1\n        /* \"#utility.yul\":14647:14648   */\n      dup3\n        /* \"#utility.yul\":14644:14654   */\n      gt\n        /* \"#utility.yul\":14641:14677   */\n      iszero\n      tag_503\n      jumpi\n        /* \"#utility.yul\":14657:14675   */\n      tag_504\n      tag_336\n      jump\t// in\n    tag_504:\n        /* \"#utility.yul\":14641:14677   */\n    tag_503:\n        /* \"#utility.yul\":14493:14684   */\n      swap3\n      swap2\n      pop\n      pop\n      jump\t// out\n        /* \"#utility.yul\":14690:15132   */\n    tag_254:\n        /* \"#utility.yul\":14839:14843   */\n      0x00\n        /* \"#utility.yul\":14877:14879   */\n      0x60\n        /* \"#utility.yul\":14866:14875   */\n      dup3\n        /* \"#utility.yul\":14862:14880   */\n      add\n        /* \"#utility.yul\":14854:14880   */\n      swap1\n      pop\n        /* \"#utility.yul\":14890:14961   */\n      tag_506\n        /* \"#utility.yul\":14958:14959   */\n      0x00\n        /* \"#utility.yul\":14947:14956   */\n      dup4\n        /* \"#utility.yul\":14943:14960   */\n      add\n        /* \"#utility.yul\":14934:14940   */\n      dup7\n        /* \"#utility.yul\":14890:14961   */\n      tag_330\n      jump\t// in\n    tag_506:\n        /* \"#utility.yul\":14971:15043   */\n      tag_507\n        /* \"#utility.yul\":15039:15041   */\n      0x20\n        /* \"#utility.yul\":15028:15037   */\n      dup4\n        /* \"#utility.yul\":15024:15042   */\n      add\n        /* \"#utility.yul\":15015:15021   */\n      dup6\n        /* \"#utility.yul\":14971:15043   */\n      tag_330\n      jump\t// in\n    tag_507:\n        /* \"#utility.yul\":15053:15125   */\n      tag_508\n        /* \"#utility.yul\":15121:15123   */\n      0x40\n        /* \"#utility.yul\":15110:15119   */\n      dup4\n        /* \"#utility.yul\":15106:15124   */\n      add\n        /* \"#utility.yul\":15097:15103   */\n      dup5\n        /* \"#utility.yul\":15053:15125   */\n      tag_329\n      jump\t// in\n    tag_508:\n        /* \"#utility.yul\":14690:15132   */\n      swap5\n      swap4\n      pop\n      pop\n      pop\n      pop\n      jump\t// out\n        /* \"#utility.yul\":15138:15297   */\n    tag_349:\n        /* \"#utility.yul\":15278:15289   */\n      0x6e6f74207374616b650000000000000000000000000000000000000000000000\n        /* \"#utility.yul\":15274:15275   */\n      0x00\n        /* \"#utility.yul\":15266:15272   */\n      dup3\n        /* \"#utility.yul\":15262:15276   */\n      add\n        /* \"#utility.yul\":15255:15290   */\n      mstore\n        /* \"#utility.yul\":15138:15297   */\n      pop\n      jump\t// out\n        /* \"#utility.yul\":15303:15668   */\n    tag_350:\n        /* \"#utility.yul\":15445:15448   */\n      0x00\n        /* \"#utility.yul\":15466:15532   */\n      tag_511\n        /* \"#utility.yul\":15530:15531   */\n      0x09\n        /* \"#utility.yul\":15525:15528   */\n      dup4\n        /* \"#utility.yul\":15466:15532   */\n      tag_333\n      jump\t// in\n    tag_511:\n        /* \"#utility.yul\":15459:15532   */\n      swap2\n      pop\n        /* \"#utility.yul\":15541:15634   */\n      tag_512\n        /* \"#utility.yul\":15630:15633   */\n      dup3\n        /* \"#utility.yul\":15541:15634   */\n      tag_349\n      jump\t// in\n    tag_512:\n        /* \"#utility.yul\":15659:15661   */\n      0x20\n        /* \"#utility.yul\":15654:15657   */\n      dup3\n        /* \"#utility.yul\":15650:15662   */\n      add\n        /* \"#utility.yul\":15643:15662   */\n      swap1\n      pop\n        /* \"#utility.yul\":15303:15668   */\n      swap2\n      swap1\n      pop\n      jump\t// out\n        /* \"#utility.yul\":15674:16093   */\n    tag_272:\n        /* \"#utility.yul\":15840:15844   */\n      0x00\n        /* \"#utility.yul\":15878:15880   */\n      0x20\n        /* \"#utility.yul\":15867:15876   */\n      dup3\n        /* \"#utility.yul\":15863:15881   */\n      add\n        /* \"#utility.yul\":15855:15881   */\n      swap1\n      pop\n        /* \"#utility.yul\":15927:15936   */\n      dup2\n        /* \"#utility.yul\":15921:15925   */\n      dup2\n        /* \"#utility.yul\":15917:15937   */\n      sub\n        /* \"#utility.yul\":15913:15914   */\n      0x00\n        /* \"#utility.yul\":15902:15911   */\n      dup4\n        /* \"#utility.yul\":15898:15915   */\n      add\n        /* \"#utility.yul\":15891:15938   */\n      mstore\n        /* \"#utility.yul\":15955:16086   */\n      tag_514\n        /* \"#utility.yul\":16081:16085   */\n      dup2\n        /* \"#utility.yul\":15955:16086   */\n      tag_350\n      jump\t// in\n    tag_514:\n        /* \"#utility.yul\":15947:16086   */\n      swap1\n      pop\n        /* \"#utility.yul\":15674:16093   */\n      swap2\n      swap1\n      pop\n      jump\t// out\n        /* \"#utility.yul\":16099:16269   */\n    tag_351:\n        /* \"#utility.yul\":16239:16261   */\n      0x7573657220697320696e20626c61636b6c697374000000000000000000000000\n        /* \"#utility.yul\":16235:16236   */\n      0x00\n        /* \"#utility.yul\":16227:16233   */\n      dup3\n        /* \"#utility.yul\":16223:16237   */\n      add\n        /* \"#utility.yul\":16216:16262   */\n      mstore\n        /* \"#utility.yul\":16099:16269   */\n      pop\n      jump\t// out\n        /* \"#utility.yul\":16275:16641   */\n    tag_352:\n        /* \"#utility.yul\":16417:16420   */\n      0x00\n        /* \"#utility.yul\":16438:16505   */\n      tag_517\n        /* \"#utility.yul\":16502:16504   */\n      0x14\n        /* \"#utility.yul\":16497:16500   */\n      dup4\n        /* \"#utility.yul\":16438:16505   */\n      tag_333\n      jump\t// in\n    tag_517:\n        /* \"#utility.yul\":16431:16505   */\n      swap2\n      pop\n        /* \"#utility.yul\":16514:16607   */\n      tag_518\n        /* \"#utility.yul\":16603:16606   */\n      dup3\n        /* \"#utility.yul\":16514:16607   */\n      tag_351\n      jump\t// in\n    tag_518:\n        /* \"#utility.yul\":16632:16634   */\n      0x20\n        /* \"#utility.yul\":16627:16630   */\n      dup3\n        /* \"#utility.yul\":16623:16635   */\n      add\n        /* \"#utility.yul\":16616:16635   */\n      swap1\n      pop\n        /* \"#utility.yul\":16275:16641   */\n      swap2\n      swap1\n      pop\n      jump\t// out\n        /* \"#utility.yul\":16647:17066   */\n    tag_275:\n        /* \"#utility.yul\":16813:16817   */\n      0x00\n        /* \"#utility.yul\":16851:16853   */\n      0x20\n        /* \"#utility.yul\":16840:16849   */\n      dup3\n        /* \"#utility.yul\":16836:16854   */\n      add\n        /* \"#utility.yul\":16828:16854   */\n      swap1\n      pop\n        /* \"#utility.yul\":16900:16909   */\n      dup2\n        /* \"#utility.yul\":16894:16898   */\n      dup2\n        /* \"#utility.yul\":16890:16910   */\n      sub\n        /* \"#utility.yul\":16886:16887   */\n      0x00\n        /* \"#utility.yul\":16875:16884   */\n      dup4\n        /* \"#utility.yul\":16871:16888   */\n      add\n        /* \"#utility.yul\":16864:16911   */\n      mstore\n        /* \"#utility.yul\":16928:17059   */\n      tag_520\n        /* \"#utility.yul\":17054:17058   */\n      dup2\n        /* \"#utility.yul\":16928:17059   */\n      tag_352\n      jump\t// in\n    tag_520:\n        /* \"#utility.yul\":16920:17059   */\n      swap1\n      pop\n        /* \"#utility.yul\":16647:17066   */\n      swap2\n      swap1\n      pop\n      jump\t// out\n        /* \"#utility.yul\":17072:17237   */\n    tag_353:\n        /* \"#utility.yul\":17212:17229   */\n      0x616c726561647920636c61696d65640000000000000000000000000000000000\n        /* \"#utility.yul\":17208:17209   */\n      0x00\n        /* \"#utility.yul\":17200:17206   */\n      dup3\n        /* \"#utility.yul\":17196:17210   */\n      add\n        /* \"#utility.yul\":17189:17230   */\n      mstore\n        /* \"#utility.yul\":17072:17237   */\n      pop\n      jump\t// out\n        /* \"#utility.yul\":17243:17609   */\n    tag_354:\n        /* \"#utility.yul\":17385:17388   */\n      0x00\n        /* \"#utility.yul\":17406:17473   */\n      tag_523\n        /* \"#utility.yul\":17470:17472   */\n      0x0f\n        /* \"#utility.yul\":17465:17468   */\n      dup4\n        /* \"#utility.yul\":17406:17473   */\n      tag_333\n      jump\t// in\n    tag_523:\n        /* \"#utility.yul\":17399:17473   */\n      swap2\n      pop\n        /* \"#utility.yul\":17482:17575   */\n      tag_524\n        /* \"#utility.yul\":17571:17574   */\n      dup3\n        /* \"#utility.yul\":17482:17575   */\n      tag_353\n      jump\t// in\n    tag_524:\n        /* \"#utility.yul\":17600:17602   */\n      0x20\n        /* \"#utility.yul\":17595:17598   */\n      dup3\n        /* \"#utility.yul\":17591:17603   */\n      add\n        /* \"#utility.yul\":17584:17603   */\n      swap1\n      pop\n        /* \"#utility.yul\":17243:17609   */\n      swap2\n      swap1\n      pop\n      jump\t// out\n        /* \"#utility.yul\":17615:18034   */\n    tag_278:\n        /* \"#utility.yul\":17781:17785   */\n      0x00\n        /* \"#utility.yul\":17819:17821   */\n      0x20\n        /* \"#utility.yul\":17808:17817   */\n      dup3\n        /* \"#utility.yul\":17804:17822   */\n      add\n        /* \"#utility.yul\":17796:17822   */\n      swap1\n      pop\n        /* \"#utility.yul\":17868:17877   */\n      dup2\n        /* \"#utility.yul\":17862:17866   */\n      dup2\n        /* \"#utility.yul\":17858:17878   */\n      sub\n        /* \"#utility.yul\":17854:17855   */\n      0x00\n        /* \"#utility.yul\":17843:17852   */\n      dup4\n        /* \"#utility.yul\":17839:17856   */\n      add\n        /* \"#utility.yul\":17832:17879   */\n      mstore\n        /* \"#utility.yul\":17896:18027   */\n      tag_526\n        /* \"#utility.yul\":18022:18026   */\n      dup2\n        /* \"#utility.yul\":17896:18027   */\n      tag_354\n      jump\t// in\n    tag_526:\n        /* \"#utility.yul\":17888:18027   */\n      swap1\n      pop\n        /* \"#utility.yul\":17615:18034   */\n      swap2\n      swap1\n      pop\n      jump\t// out\n        /* \"#utility.yul\":18040:18199   */\n    tag_355:\n        /* \"#utility.yul\":18180:18191   */\n      0x6e6f207265776172640000000000000000000000000000000000000000000000\n        /* \"#utility.yul\":18176:18177   */\n      0x00\n        /* \"#utility.yul\":18168:18174   */\n      dup3\n        /* \"#utility.yul\":18164:18178   */\n      add\n        /* \"#utility.yul\":18157:18192   */\n      mstore\n        /* \"#utility.yul\":18040:18199   */\n      pop\n      jump\t// out\n        /* \"#utility.yul\":18205:18570   */\n    tag_356:\n        /* \"#utility.yul\":18347:18350   */\n      0x00\n        /* \"#utility.yul\":18368:18434   */\n      tag_529\n        /* \"#utility.yul\":18432:18433   */\n      0x09\n        /* \"#utility.yul\":18427:18430   */\n      dup4\n        /* \"#utility.yul\":18368:18434   */\n      tag_333\n      jump\t// in\n    tag_529:\n        /* \"#utility.yul\":18361:18434   */\n      swap2\n      pop\n        /* \"#utility.yul\":18443:18536   */\n      tag_530\n        /* \"#utility.yul\":18532:18535   */\n      dup3\n        /* \"#utility.yul\":18443:18536   */\n      tag_355\n      jump\t// in\n    tag_530:\n        /* \"#utility.yul\":18561:18563   */\n      0x20\n        /* \"#utility.yul\":18556:18559   */\n      dup3\n        /* \"#utility.yul\":18552:18564   */\n      add\n        /* \"#utility.yul\":18545:18564   */\n      swap1\n      pop\n        /* \"#utility.yul\":18205:18570   */\n      swap2\n      swap1\n      pop\n      jump\t// out\n        /* \"#utility.yul\":18576:18995   */\n    tag_293:\n        /* \"#utility.yul\":18742:18746   */\n      0x00\n        /* \"#utility.yul\":18780:18782   */\n      0x20\n        /* \"#utility.yul\":18769:18778   */\n      dup3\n        /* \"#utility.yul\":18765:18783   */\n      add\n        /* \"#utility.yul\":18757:18783   */\n      swap1\n      pop\n        /* \"#utility.yul\":18829:18838   */\n      dup2\n        /* \"#utility.yul\":18823:18827   */\n      dup2\n        /* \"#utility.yul\":18819:18839   */\n      sub\n        /* \"#utility.yul\":18815:18816   */\n      0x00\n        /* \"#utility.yul\":18804:18813   */\n      dup4\n        /* \"#utility.yul\":18800:18817   */\n      add\n        /* \"#utility.yul\":18793:18840   */\n      mstore\n        /* \"#utility.yul\":18857:18988   */\n      tag_532\n        /* \"#utility.yul\":18983:18987   */\n      dup2\n        /* \"#utility.yul\":18857:18988   */\n      tag_356\n      jump\t// in\n    tag_532:\n        /* \"#utility.yul\":18849:18988   */\n      swap1\n      pop\n        /* \"#utility.yul\":18576:18995   */\n      swap2\n      swap1\n      pop\n      jump\t// out\n        /* \"#utility.yul\":19001:19159   */\n    tag_357:\n        /* \"#utility.yul\":19141:19151   */\n      0x6e6f742074696d65000000000000000000000000000000000000000000000000\n        /* \"#utility.yul\":19137:19138   */\n      0x00\n        /* \"#utility.yul\":19129:19135   */\n      dup3\n        /* \"#utility.yul\":19125:19139   */\n      add\n        /* \"#utility.yul\":19118:19152   */\n      mstore\n        /* \"#utility.yul\":19001:19159   */\n      pop\n      jump\t// out\n        /* \"#utility.yul\":19165:19530   */\n    tag_358:\n        /* \"#utility.yul\":19307:19310   */\n      0x00\n        /* \"#utility.yul\":19328:19394   */\n      tag_535\n        /* \"#utility.yul\":19392:19393   */\n      0x08\n        /* \"#utility.yul\":19387:19390   */\n      dup4\n        /* \"#utility.yul\":19328:19394   */\n      tag_333\n      jump\t// in\n    tag_535:\n        /* \"#utility.yul\":19321:19394   */\n      swap2\n      pop\n        /* \"#utility.yul\":19403:19496   */\n      tag_536\n        /* \"#utility.yul\":19492:19495   */\n      dup3\n        /* \"#utility.yul\":19403:19496   */\n      tag_357\n      jump\t// in\n    tag_536:\n        /* \"#utility.yul\":19521:19523   */\n      0x20\n        /* \"#utility.yul\":19516:19519   */\n      dup3\n        /* \"#utility.yul\":19512:19524   */\n      add\n        /* \"#utility.yul\":19505:19524   */\n      swap1\n      pop\n        /* \"#utility.yul\":19165:19530   */\n      swap2\n      swap1\n      pop\n      jump\t// out\n        /* \"#utility.yul\":19536:19955   */\n    tag_302:\n        /* \"#utility.yul\":19702:19706   */\n      0x00\n        /* \"#utility.yul\":19740:19742   */\n      0x20\n        /* \"#utility.yul\":19729:19738   */\n      dup3\n        /* \"#utility.yul\":19725:19743   */\n      add\n        /* \"#utility.yul\":19717:19743   */\n      swap1\n      pop\n        /* \"#utility.yul\":19789:19798   */\n      dup2\n        /* \"#utility.yul\":19783:19787   */\n      dup2\n        /* \"#utility.yul\":19779:19799   */\n      sub\n        /* \"#utility.yul\":19775:19776   */\n      0x00\n        /* \"#utility.yul\":19764:19773   */\n      dup4\n        /* \"#utility.yul\":19760:19777   */\n      add\n        /* \"#utility.yul\":19753:19800   */\n      mstore\n        /* \"#utility.yul\":19817:19948   */\n      tag_538\n        /* \"#utility.yul\":19943:19947   */\n      dup2\n        /* \"#utility.yul\":19817:19948   */\n      tag_358\n      jump\t// in\n    tag_538:\n        /* \"#utility.yul\":19809:19948   */\n      swap1\n      pop\n        /* \"#utility.yul\":19536:19955   */\n      swap2\n      swap1\n      pop\n      jump\t// out\n        /* \"#utility.yul\":19961:20119   */\n    tag_359:\n        /* \"#utility.yul\":20101:20111   */\n      0x6e65772069732030000000000000000000000000000000000000000000000000\n        /* \"#utility.yul\":20097:20098   */\n      0x00\n        /* \"#utility.yul\":20089:20095   */\n      dup3\n        /* \"#utility.yul\":20085:20099   */\n      add\n        /* \"#utility.yul\":20078:20112   */\n      mstore\n        /* \"#utility.yul\":19961:20119   */\n      pop\n      jump\t// out\n        /* \"#utility.yul\":20125:20490   */\n    tag_360:\n        /* \"#utility.yul\":20267:20270   */\n      0x00\n        /* \"#utility.yul\":20288:20354   */\n      tag_541\n        /* \"#utility.yul\":20352:20353   */\n      0x08\n        /* \"#utility.yul\":20347:20350   */\n      dup4\n        /* \"#utility.yul\":20288:20354   */\n      tag_333\n      jump\t// in\n    tag_541:\n        /* \"#utility.yul\":20281:20354   */\n      swap2\n      pop\n        /* \"#utility.yul\":20363:20456   */\n      tag_542\n        /* \"#utility.yul\":20452:20455   */\n      dup3\n        /* \"#utility.yul\":20363:20456   */\n      tag_359\n      jump\t// in\n    tag_542:\n        /* \"#utility.yul\":20481:20483   */\n      0x20\n        /* \"#utility.yul\":20476:20479   */\n      dup3\n        /* \"#utility.yul\":20472:20484   */\n      add\n        /* \"#utility.yul\":20465:20484   */\n      swap1\n      pop\n        /* \"#utility.yul\":20125:20490   */\n      swap2\n      swap1\n      pop\n      jump\t// out\n        /* \"#utility.yul\":20496:20915   */\n    tag_316:\n        /* \"#utility.yul\":20662:20666   */\n      0x00\n        /* \"#utility.yul\":20700:20702   */\n      0x20\n        /* \"#utility.yul\":20689:20698   */\n      dup3\n        /* \"#utility.yul\":20685:20703   */\n      add\n        /* \"#utility.yul\":20677:20703   */\n      swap1\n      pop\n        /* \"#utility.yul\":20749:20758   */\n      dup2\n        /* \"#utility.yul\":20743:20747   */\n      dup2\n        /* \"#utility.yul\":20739:20759   */\n      sub\n        /* \"#utility.yul\":20735:20736   */\n      0x00\n        /* \"#utility.yul\":20724:20733   */\n      dup4\n        /* \"#utility.yul\":20720:20737   */\n      add\n        /* \"#utility.yul\":20713:20760   */\n      mstore\n        /* \"#utility.yul\":20777:20908   */\n      tag_544\n        /* \"#utility.yul\":20903:20907   */\n      dup2\n        /* \"#utility.yul\":20777:20908   */\n      tag_360\n      jump\t// in\n    tag_544:\n        /* \"#utility.yul\":20769:20908   */\n      swap1\n      pop\n        /* \"#utility.yul\":20496:20915   */\n      swap2\n      swap1\n      pop\n      jump\t// out\n\n    auxdata: 0xa2646970667358221220f594ff16e75db7c930cd471f7f0e8c1ab6444755519c0f1d0f19e394d162385d64736f6c63430008130033\n}\n",
				"bytecode": {
					"linkReferences": {},
					"object": "608060405273f8499f5d74dfda9b7953cfb43f4e65fa96d0f83c600160006101000a81548173ffffffffffffffffffffffffffffffffffffffff021916908373ffffffffffffffffffffffffffffffffffffffff1602179055507370f531b070495d22cadaad9763fedad9f0a53472600260006101000a81548173ffffffffffffffffffffffffffffffffffffffff021916908373ffffffffffffffffffffffffffffffffffffffff16021790555062278d006003556276a70060045562c5c1006005556404a817c8006006556005600654620000dd919062000288565b6007556003546008600654620000f4919062000288565b62000100919062000302565b600b556003600454600c60065462000119919062000288565b62000125919062000302565b62000131919062000288565b600c5560058054600f60065462000149919062000288565b62000155919062000302565b62000161919062000288565b600d556001600e60006101000a81548160ff0219169083151502179055506001600e60016101000a81548160ff021916908315150217905550348015620001a757600080fd5b506000339050806000806101000a81548173ffffffffffffffffffffffffffffffffffffffff021916908373ffffffffffffffffffffffffffffffffffffffff1602179055508073ffffffffffffffffffffffffffffffffffffffff16600073ffffffffffffffffffffffffffffffffffffffff167f8be0079c531659141344cd1fd0a4f28419497f9722a3daafe3b4186f6b6457e060405160405180910390a3506200033a565b6000819050919050565b7f4e487b7100000000000000000000000000000000000000000000000000000000600052601160045260246000fd5b600062000295826200024f565b9150620002a2836200024f565b9250828202620002b2816200024f565b91508282048414831517620002cc57620002cb62000259565b5b5092915050565b7f4e487b7100000000000000000000000000000000000000000000000000000000600052601260045260246000fd5b60006200030f826200024f565b91506200031c836200024f565b9250826200032f576200032e620002d3565b5b828204905092915050565b612d05806200034a6000396000f3fe608060405234801561001057600080fd5b50600436106102275760003560e01c8063853e03e511610130578063b59c6e0e116100b8578063e650d2931161007c578063e650d29314610652578063ebb1bce814610670578063f2fde38b1461068e578063f3ef99bc146106aa578063f67256b8146106c857610227565b8063b59c6e0e146105d2578063b88a802f146105f0578063d02da761146105fa578063dd8158e014610604578063e15579e61461063457610227565b80639805fa74116100ff5780639805fa741461052e5780639fd3af8b1461055e578063a041e17214610568578063a6b14d5a14610598578063b3c2eac1146105b657610227565b8063853e03e5146104b85780638aee8127146104d65780638da5cb5b146104f257806397c29f3a1461051057610227565b80633b9ea3a9116101b35780636dd906ee116101825780636dd906ee146104145780636e9c931c1461043257806371ddda571461044e578063774cde3b1461046c5780637929e29f1461048857610227565b80633b9ea3a9146103a2578063415c31ef146103c057806368b8642f146103dc5780636bc802e7146103f857610227565b806318883877116101fa57806318883877146102c45780631896b2c4146102e2578063212b824714610312578063264edc1d1461034257806329dc425f1461037257610227565b8063016896771461022c5780630397d45814610248578063115a972e1461026457806316c259e114610294575b600080fd5b610246600480360381019061024191906122b1565b6106e6565b005b610262600480360381019061025d919061233c565b61077e565b005b61027e6004803603810190610279919061233c565b610850565b60405161028b9190612384565b60405180910390f35b6102ae60048036038101906102a9919061233c565b610870565b6040516102bb91906123ae565b60405180910390f35b6102cc610888565b6040516102d991906123ae565b60405180910390f35b6102fc60048036038101906102f7919061233c565b61088e565b60405161030991906123ae565b60405180910390f35b61032c6004803603810190610327919061233c565b6108a6565b60405161033991906123ae565b60405180910390f35b61035c6004803603810190610357919061233c565b610a2f565b60405161036991906123d8565b60405180910390f35b61038c6004803603810190610387919061233c565b610a62565b60405161039991906123ae565b60405180910390f35b6103aa610d63565b6040516103b791906123ae565b60405180910390f35b6103da60048036038101906103d591906123f3565b610d69565b005b6103f660048036038101906103f191906122b1565b610e7b565b005b610412600480360381019061040d9190612446565b610f13565b005b61041c6110b8565b60405161042991906123ae565b60405180910390f35b61044c600480360381019061044791906124c1565b6110be565b005b610456611590565b60405161046391906123d8565b60405180910390f35b61048660048036038101906104819190612514565b6115b6565b005b6104a2600480360381019061049d919061233c565b61165e565b6040516104af91906123ae565b60405180910390f35b6104c0611676565b6040516104cd91906123ae565b60405180910390f35b6104f060048036038101906104eb919061233c565b61167c565b005b6104fa61174e565b60405161050791906123d8565b60405180910390f35b610518611777565b60405161052591906123ae565b60405180910390f35b6105486004803603810190610543919061233c565b61177d565b60405161055591906123ae565b60405180910390f35b610566611795565b005b610582600480360381019061057d919061233c565b611a69565b60405161058f91906123ae565b60405180910390f35b6105a0611a81565b6040516105ad91906123ae565b60405180910390f35b6105d060048036038101906105cb9190612593565b611a87565b005b6105da611b4d565b6040516105e791906123d8565b60405180910390f35b6105f8611b73565b005b610602611d6b565b005b61061e6004803603810190610619919061233c565b61206a565b60405161062b91906123ae565b60405180910390f35b61063c612082565b60405161064991906123ae565b60405180910390f35b61065a61208a565b6040516106679190612384565b60405180910390f35b61067861209d565b60405161068591906123ae565b60405180910390f35b6106a860048036038101906106a3919061233c565b6120a3565b005b6106b261225d565b6040516106bf9190612384565b60405180910390f35b6106d0612270565b6040516106dd91906123ae565b60405180910390f35b3373ffffffffffffffffffffffffffffffffffffffff1660008054906101000a900473ffffffffffffffffffffffffffffffffffffffff1673ffffffffffffffffffffffffffffffffffffffff1614610774576040517f08c379a000000000000000000000000000000000000000000000000000000000815260040161076b90612630565b60405180910390fd5b8060078190555050565b3373ffffffffffffffffffffffffffffffffffffffff1660008054906101000a900473ffffffffffffffffffffffffffffffffffffffff1673ffffffffffffffffffffffffffffffffffffffff161461080c576040517f08c379a000000000000000000000000000000000000000000000000000000000815260040161080390612630565b60405180910390fd5b80600260006101000a81548173ffffffffffffffffffffffffffffffffffffffff021916908373ffffffffffffffffffffffffffffffffffffffff16021790555050565b60136020528060005260406000206000915054906101000a900460ff1681565b60116020528060005260406000206000915090505481565b60055481565b600a6020528060005260406000206000915090505481565b600080601260008473ffffffffffffffffffffffffffffffffffffffff1673ffffffffffffffffffffffffffffffffffffffff1681526020019081526020016000205414801561093557506000600f60008473ffffffffffffffffffffffffffffffffffffffff1673ffffffffffffffffffffffffffffffffffffffff16815260200190815260200160002054115b1561098c57601160008373ffffffffffffffffffffffffffffffffffffffff1673ffffffffffffffffffffffffffffffffffffffff1681526020019081526020016000205442610985919061267f565b9050610a2a565b6000600f60008473ffffffffffffffffffffffffffffffffffffffff1673ffffffffffffffffffffffffffffffffffffffff16815260200190815260200160002054036109dc5760009050610a2a565b601260008373ffffffffffffffffffffffffffffffffffffffff1673ffffffffffffffffffffffffffffffffffffffff1681526020019081526020016000205442610a27919061267f565b90505b919050565b60086020528060005260406000206000915054906101000a900473ffffffffffffffffffffffffffffffffffffffff1681565b6000806000601260008573ffffffffffffffffffffffffffffffffffffffff1673ffffffffffffffffffffffffffffffffffffffff16815260200190815260200160002054148015610af357506000600f60008573ffffffffffffffffffffffffffffffffffffffff1673ffffffffffffffffffffffffffffffffffffffff16815260200190815260200160002054115b15610b4a57601160008473ffffffffffffffffffffffffffffffffffffffff1673ffffffffffffffffffffffffffffffffffffffff1681526020019081526020016000205442610b43919061267f565b9050610be9565b6000600f60008573ffffffffffffffffffffffffffffffffffffffff1673ffffffffffffffffffffffffffffffffffffffff1681526020019081526020016000205403610b9b576000915050610d5e565b601260008473ffffffffffffffffffffffffffffffffffffffff1673ffffffffffffffffffffffffffffffffffffffff1681526020019081526020016000205442610be6919061267f565b90505b600080600354601060008773ffffffffffffffffffffffffffffffffffffffff1673ffffffffffffffffffffffffffffffffffffffff1681526020019081526020016000205403610c4357600b5490506003549150610cef565b600454601060008773ffffffffffffffffffffffffffffffffffffffff1673ffffffffffffffffffffffffffffffffffffffff1681526020019081526020016000205403610c9a57600c5490506004549150610cee565b600554601060008773ffffffffffffffffffffffffffffffffffffffff1673ffffffffffffffffffffffffffffffffffffffff1681526020019081526020016000205403610ced57600d54905060055491505b5b5b670de0b6b3a7640000600f60008773ffffffffffffffffffffffffffffffffffffffff1673ffffffffffffffffffffffffffffffffffffffff168152602001908152602001600020548483610d4491906126b3565b610d4e91906126b3565b610d589190612724565b93505050505b919050565b60075481565b3373ffffffffffffffffffffffffffffffffffffffff1660008054906101000a900473ffffffffffffffffffffffffffffffffffffffff1673ffffffffffffffffffffffffffffffffffffffff1614610df7576040517f08c379a0000000000000000000000000000000000000000000000000000000008152600401610dee90612630565b60405180910390fd5b8273ffffffffffffffffffffffffffffffffffffffff1663a9059cbb83836040518363ffffffff1660e01b8152600401610e32929190612755565b6020604051808303816000875af1158015610e51573d6000803e3d6000fd5b505050506040513d601f19601f82011682018060405250810190610e759190612793565b50505050565b3373ffffffffffffffffffffffffffffffffffffffff1660008054906101000a900473ffffffffffffffffffffffffffffffffffffffff1673ffffffffffffffffffffffffffffffffffffffff1614610f09576040517f08c379a0000000000000000000000000000000000000000000000000000000008152600401610f0090612630565b60405180910390fd5b8060068190555050565b3373ffffffffffffffffffffffffffffffffffffffff1660008054906101000a900473ffffffffffffffffffffffffffffffffffffffff1673ffffffffffffffffffffffffffffffffffffffff1614610fa1576040517f08c379a0000000000000000000000000000000000000000000000000000000008152600401610f9890612630565b60405180910390fd5b83600f60008773ffffffffffffffffffffffffffffffffffffffff1673ffffffffffffffffffffffffffffffffffffffff1681526020019081526020016000208190555082601060008773ffffffffffffffffffffffffffffffffffffffff1673ffffffffffffffffffffffffffffffffffffffff1681526020019081526020016000208190555081601160008773ffffffffffffffffffffffffffffffffffffffff1673ffffffffffffffffffffffffffffffffffffffff1681526020019081526020016000208190555080601260008773ffffffffffffffffffffffffffffffffffffffff1673ffffffffffffffffffffffffffffffffffffffff168152602001908152602001600020819055505050505050565b600d5481565b600e60009054906101000a900460ff1661110d576040517f08c379a00000000000000000000000000000000000000000000000000000000081526004016111049061280c565b60405180910390fd5b3373ffffffffffffffffffffffffffffffffffffffff168273ffffffffffffffffffffffffffffffffffffffff160361117b576040517f08c379a000000000000000000000000000000000000000000000000000000000815260040161117290612878565b60405180910390fd5b6000600f60003373ffffffffffffffffffffffffffffffffffffffff1673ffffffffffffffffffffffffffffffffffffffff16815260200190815260200160002054146111fd576040517f08c379a00000000000000000000000000000000000000000000000000000000081526004016111f4906128e4565b60405180910390fd5b60008311611240576040517f08c379a000000000000000000000000000000000000000000000000000000000815260040161123790612950565b60405180910390fd5b600354811480611251575060045481145b8061125d575060055481145b61129c576040517f08c379a0000000000000000000000000000000000000000000000000000000008152600401611293906129bc565b60405180910390fd5b600073ffffffffffffffffffffffffffffffffffffffff168273ffffffffffffffffffffffffffffffffffffffff161461141c5781600860003373ffffffffffffffffffffffffffffffffffffffff1673ffffffffffffffffffffffffffffffffffffffff16815260200190815260200160002060006101000a81548173ffffffffffffffffffffffffffffffffffffffff021916908373ffffffffffffffffffffffffffffffffffffffff160217905550670de0b6b3a76400008360075461136591906126b3565b61136f9190612724565b600960008473ffffffffffffffffffffffffffffffffffffffff1673ffffffffffffffffffffffffffffffffffffffff16815260200190815260200160002060008282546113bd91906129dc565b925050819055506001600a60008473ffffffffffffffffffffffffffffffffffffffff1673ffffffffffffffffffffffffffffffffffffffff168152602001908152602001600020600082825461141491906129dc565b925050819055505b600260009054906101000a900473ffffffffffffffffffffffffffffffffffffffff1673ffffffffffffffffffffffffffffffffffffffff166323b872dd3330866040518463ffffffff1660e01b815260040161147b93929190612a10565b6020604051808303816000875af115801561149a573d6000803e3d6000fd5b505050506040513d601f19601f820116820180604052508101906114be9190612793565b5082600f60003373ffffffffffffffffffffffffffffffffffffffff1673ffffffffffffffffffffffffffffffffffffffff1681526020019081526020016000208190555042601160003373ffffffffffffffffffffffffffffffffffffffff1673ffffffffffffffffffffffffffffffffffffffff1681526020019081526020016000208190555080601060003373ffffffffffffffffffffffffffffffffffffffff1673ffffffffffffffffffffffffffffffffffffffff16815260200190815260200160002081905550505050565b600260009054906101000a900473ffffffffffffffffffffffffffffffffffffffff1681565b3373ffffffffffffffffffffffffffffffffffffffff1660008054906101000a900473ffffffffffffffffffffffffffffffffffffffff1673ffffffffffffffffffffffffffffffffffffffff1614611644576040517f08c379a000000000000000000000000000000000000000000000000000000000815260040161163b90612630565b60405180910390fd5b82600b8190555081600c8190555080600d81905550505050565b60126020528060005260406000206000915090505481565b60045481565b3373ffffffffffffffffffffffffffffffffffffffff1660008054906101000a900473ffffffffffffffffffffffffffffffffffffffff1673ffffffffffffffffffffffffffffffffffffffff161461170a576040517f08c379a000000000000000000000000000000000000000000000000000000000815260040161170190612630565b60405180910390fd5b80600160006101000a81548173ffffffffffffffffffffffffffffffffffffffff021916908373ffffffffffffffffffffffffffffffffffffffff16021790555050565b60008060009054906101000a900473ffffffffffffffffffffffffffffffffffffffff16905090565b60065481565b600f6020528060005260406000206000915090505481565b600e60019054906101000a900460ff166117e4576040517f08c379a00000000000000000000000000000000000000000000000000000000081526004016117db9061280c565b60405180910390fd5b6000600f60003373ffffffffffffffffffffffffffffffffffffffff1673ffffffffffffffffffffffffffffffffffffffff1681526020019081526020016000205411611866576040517f08c379a000000000000000000000000000000000000000000000000000000000815260040161185d90612a93565b60405180910390fd5b601360003373ffffffffffffffffffffffffffffffffffffffff1673ffffffffffffffffffffffffffffffffffffffff16815260200190815260200160002060009054906101000a900460ff16156118f3576040517f08c379a00000000000000000000000000000000000000000000000000000000081526004016118ea90612aff565b60405180910390fd5b42601260003373ffffffffffffffffffffffffffffffffffffffff1673ffffffffffffffffffffffffffffffffffffffff1681526020019081526020016000205410611974576040517f08c379a000000000000000000000000000000000000000000000000000000000815260040161196b90612b6b565b60405180910390fd5b600061197f33610a62565b905042601260003373ffffffffffffffffffffffffffffffffffffffff1673ffffffffffffffffffffffffffffffffffffffff16815260200190815260200160002081905550600160009054906101000a900473ffffffffffffffffffffffffffffffffffffffff1673ffffffffffffffffffffffffffffffffffffffff1663a9059cbb33836040518363ffffffff1660e01b8152600401611a22929190612755565b6020604051808303816000875af1158015611a41573d6000803e3d6000fd5b505050506040513d601f19601f82011682018060405250810190611a659190612793565b5050565b60106020528060005260406000206000915090505481565b60035481565b3373ffffffffffffffffffffffffffffffffffffffff1660008054906101000a900473ffffffffffffffffffffffffffffffffffffffff1673ffffffffffffffffffffffffffffffffffffffff1614611b15576040517f08c379a0000000000000000000000000000000000000000000000000000000008152600401611b0c90612630565b60405180910390fd5b81600e60006101000a81548160ff02191690831515021790555080600e60016101000a81548160ff0219169083151502179055505050565b600160009054906101000a900473ffffffffffffffffffffffffffffffffffffffff1681565b600e60019054906101000a900460ff16611bc2576040517f08c379a0000000000000000000000000000000000000000000000000000000008152600401611bb99061280c565b60405180910390fd5b6000600960003373ffffffffffffffffffffffffffffffffffffffff1673ffffffffffffffffffffffffffffffffffffffff1681526020019081526020016000205411611c44576040517f08c379a0000000000000000000000000000000000000000000000000000000008152600401611c3b90612bd7565b60405180910390fd5b600160009054906101000a900473ffffffffffffffffffffffffffffffffffffffff1673ffffffffffffffffffffffffffffffffffffffff1663a9059cbb33600960003373ffffffffffffffffffffffffffffffffffffffff1673ffffffffffffffffffffffffffffffffffffffff168152602001908152602001600020546040518363ffffffff1660e01b8152600401611ce0929190612755565b6020604051808303816000875af1158015611cff573d6000803e3d6000fd5b505050506040513d601f19601f82011682018060405250810190611d239190612793565b506000600960003373ffffffffffffffffffffffffffffffffffffffff1673ffffffffffffffffffffffffffffffffffffffff16815260200190815260200160002081905550565b601060003373ffffffffffffffffffffffffffffffffffffffff1673ffffffffffffffffffffffffffffffffffffffff16815260200190815260200160002054601160003373ffffffffffffffffffffffffffffffffffffffff1673ffffffffffffffffffffffffffffffffffffffff1681526020019081526020016000205442611df6919061267f565b1015611e37576040517f08c379a0000000000000000000000000000000000000000000000000000000008152600401611e2e90612c43565b60405180910390fd5b6000600f60003373ffffffffffffffffffffffffffffffffffffffff1673ffffffffffffffffffffffffffffffffffffffff1681526020019081526020016000205411611eb9576040517f08c379a0000000000000000000000000000000000000000000000000000000008152600401611eb090612a93565b60405180910390fd5b600260009054906101000a900473ffffffffffffffffffffffffffffffffffffffff1673ffffffffffffffffffffffffffffffffffffffff1663a9059cbb33600f60003373ffffffffffffffffffffffffffffffffffffffff1673ffffffffffffffffffffffffffffffffffffffff168152602001908152602001600020546040518363ffffffff1660e01b8152600401611f55929190612755565b6020604051808303816000875af1158015611f74573d6000803e3d6000fd5b505050506040513d601f19601f82011682018060405250810190611f989190612793565b506000600f60003373ffffffffffffffffffffffffffffffffffffffff1673ffffffffffffffffffffffffffffffffffffffff168152602001908152602001600020819055506000601160003373ffffffffffffffffffffffffffffffffffffffff1673ffffffffffffffffffffffffffffffffffffffff168152602001908152602001600020819055506000601060003373ffffffffffffffffffffffffffffffffffffffff1673ffffffffffffffffffffffffffffffffffffffff16815260200190815260200160002081905550565b60096020528060005260406000206000915090505481565b600042905090565b600e60019054906101000a900460ff1681565b600c5481565b3373ffffffffffffffffffffffffffffffffffffffff1660008054906101000a900473ffffffffffffffffffffffffffffffffffffffff1673ffffffffffffffffffffffffffffffffffffffff1614612131576040517f08c379a000000000000000000000000000000000000000000000000000000000815260040161212890612630565b60405180910390fd5b600073ffffffffffffffffffffffffffffffffffffffff168173ffffffffffffffffffffffffffffffffffffffff16036121a0576040517f08c379a000000000000000000000000000000000000000000000000000000000815260040161219790612caf565b60405180910390fd5b8073ffffffffffffffffffffffffffffffffffffffff1660008054906101000a900473ffffffffffffffffffffffffffffffffffffffff1673ffffffffffffffffffffffffffffffffffffffff167f8be0079c531659141344cd1fd0a4f28419497f9722a3daafe3b4186f6b6457e060405160405180910390a3806000806101000a81548173ffffffffffffffffffffffffffffffffffffffff021916908373ffffffffffffffffffffffffffffffffffffffff16021790555050565b600e60009054906101000a900460ff1681565b600b5481565b600080fd5b6000819050919050565b61228e8161227b565b811461229957600080fd5b50565b6000813590506122ab81612285565b92915050565b6000602082840312156122c7576122c6612276565b5b60006122d58482850161229c565b91505092915050565b600073ffffffffffffffffffffffffffffffffffffffff82169050919050565b6000612309826122de565b9050919050565b612319816122fe565b811461232457600080fd5b50565b60008135905061233681612310565b92915050565b60006020828403121561235257612351612276565b5b600061236084828501612327565b91505092915050565b60008115159050919050565b61237e81612369565b82525050565b60006020820190506123996000830184612375565b92915050565b6123a88161227b565b82525050565b60006020820190506123c3600083018461239f565b92915050565b6123d2816122fe565b82525050565b60006020820190506123ed60008301846123c9565b92915050565b60008060006060848603121561240c5761240b612276565b5b600061241a86828701612327565b935050602061242b86828701612327565b925050604061243c8682870161229c565b9150509250925092565b600080600080600060a0868803121561246257612461612276565b5b600061247088828901612327565b95505060206124818882890161229c565b94505060406124928882890161229c565b93505060606124a38882890161229c565b92505060806124b48882890161229c565b9150509295509295909350565b6000806000606084860312156124da576124d9612276565b5b60006124e88682870161229c565b93505060206124f986828701612327565b925050604061250a8682870161229c565b9150509250925092565b60008060006060848603121561252d5761252c612276565b5b600061253b8682870161229c565b935050602061254c8682870161229c565b925050604061255d8682870161229c565b9150509250925092565b61257081612369565b811461257b57600080fd5b50565b60008135905061258d81612567565b92915050565b600080604083850312156125aa576125a9612276565b5b60006125b88582860161257e565b92505060206125c98582860161257e565b9150509250929050565b600082825260208201905092915050565b7f216f776e65720000000000000000000000000000000000000000000000000000600082015250565b600061261a6006836125d3565b9150612625826125e4565b602082019050919050565b600060208201905081810360008301526126498161260d565b9050919050565b7f4e487b7100000000000000000000000000000000000000000000000000000000600052601160045260246000fd5b600061268a8261227b565b91506126958361227b565b92508282039050818111156126ad576126ac612650565b5b92915050565b60006126be8261227b565b91506126c98361227b565b92508282026126d78161227b565b915082820484148315176126ee576126ed612650565b5b5092915050565b7f4e487b7100000000000000000000000000000000000000000000000000000000600052601260045260246000fd5b600061272f8261227b565b915061273a8361227b565b92508261274a576127496126f5565b5b828204905092915050565b600060408201905061276a60008301856123c9565b612777602083018461239f565b9392505050565b60008151905061278d81612567565b92915050565b6000602082840312156127a9576127a8612276565b5b60006127b78482850161277e565b91505092915050565b7f6e6f742073746172740000000000000000000000000000000000000000000000600082015250565b60006127f66009836125d3565b9150612801826127c0565b602082019050919050565b60006020820190508181036000830152612825816127e9565b9050919050565b7f696e76697465722063616e742062792073656c66000000000000000000000000600082015250565b60006128626014836125d3565b915061286d8261282c565b602082019050919050565b6000602082019050818103600083015261289181612855565b9050919050565b7f616c7265616479207374616b6500000000000000000000000000000000000000600082015250565b60006128ce600d836125d3565b91506128d982612898565b602082019050919050565b600060208201905081810360008301526128fd816128c1565b9050919050565b7f7a65726f207374616b6500000000000000000000000000000000000000000000600082015250565b600061293a600a836125d3565b915061294582612904565b602082019050919050565b600060208201905081810360008301526129698161292d565b9050919050565b7f6e6f742072696768742074696d65000000000000000000000000000000000000600082015250565b60006129a6600e836125d3565b91506129b182612970565b602082019050919050565b600060208201905081810360008301526129d581612999565b9050919050565b60006129e78261227b565b91506129f28361227b565b9250828201905080821115612a0a57612a09612650565b5b92915050565b6000606082019050612a2560008301866123c9565b612a3260208301856123c9565b612a3f604083018461239f565b949350505050565b7f6e6f74207374616b650000000000000000000000000000000000000000000000600082015250565b6000612a7d6009836125d3565b9150612a8882612a47565b602082019050919050565b60006020820190508181036000830152612aac81612a70565b9050919050565b7f7573657220697320696e20626c61636b6c697374000000000000000000000000600082015250565b6000612ae96014836125d3565b9150612af482612ab3565b602082019050919050565b60006020820190508181036000830152612b1881612adc565b9050919050565b7f616c726561647920636c61696d65640000000000000000000000000000000000600082015250565b6000612b55600f836125d3565b9150612b6082612b1f565b602082019050919050565b60006020820190508181036000830152612b8481612b48565b9050919050565b7f6e6f207265776172640000000000000000000000000000000000000000000000600082015250565b6000612bc16009836125d3565b9150612bcc82612b8b565b602082019050919050565b60006020820190508181036000830152612bf081612bb4565b9050919050565b7f6e6f742074696d65000000000000000000000000000000000000000000000000600082015250565b6000612c2d6008836125d3565b9150612c3882612bf7565b602082019050919050565b60006020820190508181036000830152612c5c81612c20565b9050919050565b7f6e65772069732030000000000000000000000000000000000000000000000000600082015250565b6000612c996008836125d3565b9150612ca482612c63565b602082019050919050565b60006020820190508181036000830152612cc881612c8c565b905091905056fea2646970667358221220f594ff16e75db7c930cd471f7f0e8c1ab6444755519c0f1d0f19e394d162385d64736f6c63430008130033",
					"opcodes": "PUSH1 0x80 PUSH1 0x40 MSTORE PUSH20 0xF8499F5D74DFDA9B7953CFB43F4E65FA96D0F83C PUSH1 0x1 PUSH1 0x0 PUSH2 0x100 EXP DUP2 SLOAD DUP2 PUSH20 0xFFFFFFFFFFFFFFFFFFFFFFFFFFFFFFFFFFFFFFFF MUL NOT AND SWAP1 DUP4 PUSH20 0xFFFFFFFFFFFFFFFFFFFFFFFFFFFFFFFFFFFFFFFF AND MUL OR SWAP1 SSTORE POP PUSH20 0x70F531B070495D22CADAAD9763FEDAD9F0A53472 PUSH1 0x2 PUSH1 0x0 PUSH2 0x100 EXP DUP2 SLOAD DUP2 PUSH20 0xFFFFFFFFFFFFFFFFFFFFFFFFFFFFFFFFFFFFFFFF MUL NOT AND SWAP1 DUP4 PUSH20 0xFFFFFFFFFFFFFFFFFFFFFFFFFFFFFFFFFFFFFFFF AND MUL OR SWAP1 SSTORE POP PUSH3 0x278D00 PUSH1 0x3 SSTORE PUSH3 0x76A700 PUSH1 0x4 SSTORE PUSH3 0xC5C100 PUSH1 0x5 SSTORE PUSH5 0x4A817C800 PUSH1 0x6 SSTORE PUSH1 0x5 PUSH1 0x6 SLOAD PUSH3 0xDD SWAP2 SWAP1 PUSH3 0x288 JUMP JUMPDEST PUSH1 0x7 SSTORE PUSH1 0x3 SLOAD PUSH1 0x8 PUSH1 0x6 SLOAD PUSH3 0xF4 SWAP2 SWAP1 PUSH3 0x288 JUMP JUMPDEST PUSH3 0x100 SWAP2 SWAP1 PUSH3 0x302 JUMP JUMPDEST PUSH1 0xB SSTORE PUSH1 0x3 PUSH1 0x4 SLOAD PUSH1 0xC PUSH1 0x6 SLOAD PUSH3 0x119 SWAP2 SWAP1 PUSH3 0x288 JUMP JUMPDEST PUSH3 0x125 SWAP2 SWAP1 PUSH3 0x302 JUMP JUMPDEST PUSH3 0x131 SWAP2 SWAP1 PUSH3 0x288 JUMP JUMPDEST PUSH1 0xC SSTORE PUSH1 0x5 DUP1 SLOAD PUSH1 0xF PUSH1 0x6 SLOAD PUSH3 0x149 SWAP2 SWAP1 PUSH3 0x288 JUMP JUMPDEST PUSH3 0x155 SWAP2 SWAP1 PUSH3 0x302 JUMP JUMPDEST PUSH3 0x161 SWAP2 SWAP1 PUSH3 0x288 JUMP JUMPDEST PUSH1 0xD SSTORE PUSH1 0x1 PUSH1 0xE PUSH1 0x0 PUSH2 0x100 EXP DUP2 SLOAD DUP2 PUSH1 0xFF MUL NOT AND SWAP1 DUP4 ISZERO ISZERO MUL OR SWAP1 SSTORE POP PUSH1 0x1 PUSH1 0xE PUSH1 0x1 PUSH2 0x100 EXP DUP2 SLOAD DUP2 PUSH1 0xFF MUL NOT AND SWAP1 DUP4 ISZERO ISZERO MUL OR SWAP1 SSTORE POP CALLVALUE DUP1 ISZERO PUSH3 0x1A7 JUMPI PUSH1 0x0 DUP1 REVERT JUMPDEST POP PUSH1 0x0 CALLER SWAP1 POP DUP1 PUSH1 0x0 DUP1 PUSH2 0x100 EXP DUP2 SLOAD DUP2 PUSH20 0xFFFFFFFFFFFFFFFFFFFFFFFFFFFFFFFFFFFFFFFF MUL NOT AND SWAP1 DUP4 PUSH20 0xFFFFFFFFFFFFFFFFFFFFFFFFFFFFFFFFFFFFFFFF AND MUL OR SWAP1 SSTORE POP DUP1 PUSH20 0xFFFFFFFFFFFFFFFFFFFFFFFFFFFFFFFFFFFFFFFF AND PUSH1 0x0 PUSH20 0xFFFFFFFFFFFFFFFFFFFFFFFFFFFFFFFFFFFFFFFF AND PUSH32 0x8BE0079C531659141344CD1FD0A4F28419497F9722A3DAAFE3B4186F6B6457E0 PUSH1 0x40 MLOAD PUSH1 0x40 MLOAD DUP1 SWAP2 SUB SWAP1 LOG3 POP PUSH3 0x33A JUMP JUMPDEST PUSH1 0x0 DUP2 SWAP1 POP SWAP2 SWAP1 POP JUMP JUMPDEST PUSH32 0x4E487B7100000000000000000000000000000000000000000000000000000000 PUSH1 0x0 MSTORE PUSH1 0x11 PUSH1 0x4 MSTORE PUSH1 0x24 PUSH1 0x0 REVERT JUMPDEST PUSH1 0x0 PUSH3 0x295 DUP3 PUSH3 0x24F JUMP JUMPDEST SWAP2 POP PUSH3 0x2A2 DUP4 PUSH3 0x24F JUMP JUMPDEST SWAP3 POP DUP3 DUP3 MUL PUSH3 0x2B2 DUP2 PUSH3 0x24F JUMP JUMPDEST SWAP2 POP DUP3 DUP3 DIV DUP5 EQ DUP4 ISZERO OR PUSH3 0x2CC JUMPI PUSH3 0x2CB PUSH3 0x259 JUMP JUMPDEST JUMPDEST POP SWAP3 SWAP2 POP POP JUMP JUMPDEST PUSH32 0x4E487B7100000000000000000000000000000000000000000000000000000000 PUSH1 0x0 MSTORE PUSH1 0x12 PUSH1 0x4 MSTORE PUSH1 0x24 PUSH1 0x0 REVERT JUMPDEST PUSH1 0x0 PUSH3 0x30F DUP3 PUSH3 0x24F JUMP JUMPDEST SWAP2 POP PUSH3 0x31C DUP4 PUSH3 0x24F JUMP JUMPDEST SWAP3 POP DUP3 PUSH3 0x32F JUMPI PUSH3 0x32E PUSH3 0x2D3 JUMP JUMPDEST JUMPDEST DUP3 DUP3 DIV SWAP1 POP SWAP3 SWAP2 POP POP JUMP JUMPDEST PUSH2 0x2D05 DUP1 PUSH3 0x34A PUSH1 0x0 CODECOPY PUSH1 0x0 RETURN INVALID PUSH1 0x80 PUSH1 0x40 MSTORE CALLVALUE DUP1 ISZERO PUSH2 0x10 JUMPI PUSH1 0x0 DUP1 REVERT JUMPDEST POP PUSH1 0x4 CALLDATASIZE LT PUSH2 0x227 JUMPI PUSH1 0x0 CALLDATALOAD PUSH1 0xE0 SHR DUP1 PUSH4 0x853E03E5 GT PUSH2 0x130 JUMPI DUP1 PUSH4 0xB59C6E0E GT PUSH2 0xB8 JUMPI DUP1 PUSH4 0xE650D293 GT PUSH2 0x7C JUMPI DUP1 PUSH4 0xE650D293 EQ PUSH2 0x652 JUMPI DUP1 PUSH4 0xEBB1BCE8 EQ PUSH2 0x670 JUMPI DUP1 PUSH4 0xF2FDE38B EQ PUSH2 0x68E JUMPI DUP1 PUSH4 0xF3EF99BC EQ PUSH2 0x6AA JUMPI DUP1 PUSH4 0xF67256B8 EQ PUSH2 0x6C8 JUMPI PUSH2 0x227 JUMP JUMPDEST DUP1 PUSH4 0xB59C6E0E EQ PUSH2 0x5D2 JUMPI DUP1 PUSH4 0xB88A802F EQ PUSH2 0x5F0 JUMPI DUP1 PUSH4 0xD02DA761 EQ PUSH2 0x5FA JUMPI DUP1 PUSH4 0xDD8158E0 EQ PUSH2 0x604 JUMPI DUP1 PUSH4 0xE15579E6 EQ PUSH2 0x634 JUMPI PUSH2 0x227 JUMP JUMPDEST DUP1 PUSH4 0x9805FA74 GT PUSH2 0xFF JUMPI DUP1 PUSH4 0x9805FA74 EQ PUSH2 0x52E JUMPI DUP1 PUSH4 0x9FD3AF8B EQ PUSH2 0x55E JUMPI DUP1 PUSH4 0xA041E172 EQ PUSH2 0x568 JUMPI DUP1 PUSH4 0xA6B14D5A EQ PUSH2 0x598 JUMPI DUP1 PUSH4 0xB3C2EAC1 EQ PUSH2 0x5B6 JUMPI PUSH2 0x227 JUMP JUMPDEST DUP1 PUSH4 0x853E03E5 EQ PUSH2 0x4B8 JUMPI DUP1 PUSH4 0x8AEE8127 EQ PUSH2 0x4D6 JUMPI DUP1 PUSH4 0x8DA5CB5B EQ PUSH2 0x4F2 JUMPI DUP1 PUSH4 0x97C29F3A EQ PUSH2 0x510 JUMPI PUSH2 0x227 JUMP JUMPDEST DUP1 PUSH4 0x3B9EA3A9 GT PUSH2 0x1B3 JUMPI DUP1 PUSH4 0x6DD906EE GT PUSH2 0x182 JUMPI DUP1 PUSH4 0x6DD906EE EQ PUSH2 0x414 JUMPI DUP1 PUSH4 0x6E9C931C EQ PUSH2 0x432 JUMPI DUP1 PUSH4 0x71DDDA57 EQ PUSH2 0x44E JUMPI DUP1 PUSH4 0x774CDE3B EQ PUSH2 0x46C JUMPI DUP1 PUSH4 0x7929E29F EQ PUSH2 0x488 JUMPI PUSH2 0x227 JUMP JUMPDEST DUP1 PUSH4 0x3B9EA3A9 EQ PUSH2 0x3A2 JUMPI DUP1 PUSH4 0x415C31EF EQ PUSH2 0x3C0 JUMPI DUP1 PUSH4 0x68B8642F EQ PUSH2 0x3DC JUMPI DUP1 PUSH4 0x6BC802E7 EQ PUSH2 0x3F8 JUMPI PUSH2 0x227 JUMP JUMPDEST DUP1 PUSH4 0x18883877 GT PUSH2 0x1FA JUMPI DUP1 PUSH4 0x18883877 EQ PUSH2 0x2C4 JUMPI DUP1 PUSH4 0x1896B2C4 EQ PUSH2 0x2E2 JUMPI DUP1 PUSH4 0x212B8247 EQ PUSH2 0x312 JUMPI DUP1 PUSH4 0x264EDC1D EQ PUSH2 0x342 JUMPI DUP1 PUSH4 0x29DC425F EQ PUSH2 0x372 JUMPI PUSH2 0x227 JUMP JUMPDEST DUP1 PUSH4 0x1689677 EQ PUSH2 0x22C JUMPI DUP1 PUSH4 0x397D458 EQ PUSH2 0x248 JUMPI DUP1 PUSH4 0x115A972E EQ PUSH2 0x264 JUMPI DUP1 PUSH4 0x16C259E1 EQ PUSH2 0x294 JUMPI JUMPDEST PUSH1 0x0 DUP1 REVERT JUMPDEST PUSH2 0x246 PUSH1 0x4 DUP1 CALLDATASIZE SUB DUP2 ADD SWAP1 PUSH2 0x241 SWAP2 SWAP1 PUSH2 0x22B1 JUMP JUMPDEST PUSH2 0x6E6 JUMP JUMPDEST STOP JUMPDEST PUSH2 0x262 PUSH1 0x4 DUP1 CALLDATASIZE SUB DUP2 ADD SWAP1 PUSH2 0x25D SWAP2 SWAP1 PUSH2 0x233C JUMP JUMPDEST PUSH2 0x77E JUMP JUMPDEST STOP JUMPDEST PUSH2 0x27E PUSH1 0x4 DUP1 CALLDATASIZE SUB DUP2 ADD SWAP1 PUSH2 0x279 SWAP2 SWAP1 PUSH2 0x233C JUMP JUMPDEST PUSH2 0x850 JUMP JUMPDEST PUSH1 0x40 MLOAD PUSH2 0x28B SWAP2 SWAP1 PUSH2 0x2384 JUMP JUMPDEST PUSH1 0x40 MLOAD DUP1 SWAP2 SUB SWAP1 RETURN JUMPDEST PUSH2 0x2AE PUSH1 0x4 DUP1 CALLDATASIZE SUB DUP2 ADD SWAP1 PUSH2 0x2A9 SWAP2 SWAP1 PUSH2 0x233C JUMP JUMPDEST PUSH2 0x870 JUMP JUMPDEST PUSH1 0x40 MLOAD PUSH2 0x2BB SWAP2 SWAP1 PUSH2 0x23AE JUMP JUMPDEST PUSH1 0x40 MLOAD DUP1 SWAP2 SUB SWAP1 RETURN JUMPDEST PUSH2 0x2CC PUSH2 0x888 JUMP JUMPDEST PUSH1 0x40 MLOAD PUSH2 0x2D9 SWAP2 SWAP1 PUSH2 0x23AE JUMP JUMPDEST PUSH1 0x40 MLOAD DUP1 SWAP2 SUB SWAP1 RETURN JUMPDEST PUSH2 0x2FC PUSH1 0x4 DUP1 CALLDATASIZE SUB DUP2 ADD SWAP1 PUSH2 0x2F7 SWAP2 SWAP1 PUSH2 0x233C JUMP JUMPDEST PUSH2 0x88E JUMP JUMPDEST PUSH1 0x40 MLOAD PUSH2 0x309 SWAP2 SWAP1 PUSH2 0x23AE JUMP JUMPDEST PUSH1 0x40 MLOAD DUP1 SWAP2 SUB SWAP1 RETURN JUMPDEST PUSH2 0x32C PUSH1 0x4 DUP1 CALLDATASIZE SUB DUP2 ADD SWAP1 PUSH2 0x327 SWAP2 SWAP1 PUSH2 0x233C JUMP JUMPDEST PUSH2 0x8A6 JUMP JUMPDEST PUSH1 0x40 MLOAD PUSH2 0x339 SWAP2 SWAP1 PUSH2 0x23AE JUMP JUMPDEST PUSH1 0x40 MLOAD DUP1 SWAP2 SUB SWAP1 RETURN JUMPDEST PUSH2 0x35C PUSH1 0x4 DUP1 CALLDATASIZE SUB DUP2 ADD SWAP1 PUSH2 0x357 SWAP2 SWAP1 PUSH2 0x233C JUMP JUMPDEST PUSH2 0xA2F JUMP JUMPDEST PUSH1 0x40 MLOAD PUSH2 0x369 SWAP2 SWAP1 PUSH2 0x23D8 JUMP JUMPDEST PUSH1 0x40 MLOAD DUP1 SWAP2 SUB SWAP1 RETURN JUMPDEST PUSH2 0x38C PUSH1 0x4 DUP1 CALLDATASIZE SUB DUP2 ADD SWAP1 PUSH2 0x387 SWAP2 SWAP1 PUSH2 0x233C JUMP JUMPDEST PUSH2 0xA62 JUMP JUMPDEST PUSH1 0x40 MLOAD PUSH2 0x399 SWAP2 SWAP1 PUSH2 0x23AE JUMP JUMPDEST PUSH1 0x40 MLOAD DUP1 SWAP2 SUB SWAP1 RETURN JUMPDEST PUSH2 0x3AA PUSH2 0xD63 JUMP JUMPDEST PUSH1 0x40 MLOAD PUSH2 0x3B7 SWAP2 SWAP1 PUSH2 0x23AE JUMP JUMPDEST PUSH1 0x40 MLOAD DUP1 SWAP2 SUB SWAP1 RETURN JUMPDEST PUSH2 0x3DA PUSH1 0x4 DUP1 CALLDATASIZE SUB DUP2 ADD SWAP1 PUSH2 0x3D5 SWAP2 SWAP1 PUSH2 0x23F3 JUMP JUMPDEST PUSH2 0xD69 JUMP JUMPDEST STOP JUMPDEST PUSH2 0x3F6 PUSH1 0x4 DUP1 CALLDATASIZE SUB DUP2 ADD SWAP1 PUSH2 0x3F1 SWAP2 SWAP1 PUSH2 0x22B1 JUMP JUMPDEST PUSH2 0xE7B JUMP JUMPDEST STOP JUMPDEST PUSH2 0x412 PUSH1 0x4 DUP1 CALLDATASIZE SUB DUP2 ADD SWAP1 PUSH2 0x40D SWAP2 SWAP1 PUSH2 0x2446 JUMP JUMPDEST PUSH2 0xF13 JUMP JUMPDEST STOP JUMPDEST PUSH2 0x41C PUSH2 0x10B8 JUMP JUMPDEST PUSH1 0x40 MLOAD PUSH2 0x429 SWAP2 SWAP1 PUSH2 0x23AE JUMP JUMPDEST PUSH1 0x40 MLOAD DUP1 SWAP2 SUB SWAP1 RETURN JUMPDEST PUSH2 0x44C PUSH1 0x4 DUP1 CALLDATASIZE SUB DUP2 ADD SWAP1 PUSH2 0x447 SWAP2 SWAP1 PUSH2 0x24C1 JUMP JUMPDEST PUSH2 0x10BE JUMP JUMPDEST STOP JUMPDEST PUSH2 0x456 PUSH2 0x1590 JUMP JUMPDEST PUSH1 0x40 MLOAD PUSH2 0x463 SWAP2 SWAP1 PUSH2 0x23D8 JUMP JUMPDEST PUSH1 0x40 MLOAD DUP1 SWAP2 SUB SWAP1 RETURN JUMPDEST PUSH2 0x486 PUSH1 0x4 DUP1 CALLDATASIZE SUB DUP2 ADD SWAP1 PUSH2 0x481 SWAP2 SWAP1 PUSH2 0x2514 JUMP JUMPDEST PUSH2 0x15B6 JUMP JUMPDEST STOP JUMPDEST PUSH2 0x4A2 PUSH1 0x4 DUP1 CALLDATASIZE SUB DUP2 ADD SWAP1 PUSH2 0x49D SWAP2 SWAP1 PUSH2 0x233C JUMP JUMPDEST PUSH2 0x165E JUMP JUMPDEST PUSH1 0x40 MLOAD PUSH2 0x4AF SWAP2 SWAP1 PUSH2 0x23AE JUMP JUMPDEST PUSH1 0x40 MLOAD DUP1 SWAP2 SUB SWAP1 RETURN JUMPDEST PUSH2 0x4C0 PUSH2 0x1676 JUMP JUMPDEST PUSH1 0x40 MLOAD PUSH2 0x4CD SWAP2 SWAP1 PUSH2 0x23AE JUMP JUMPDEST PUSH1 0x40 MLOAD DUP1 SWAP2 SUB SWAP1 RETURN JUMPDEST PUSH2 0x4F0 PUSH1 0x4 DUP1 CALLDATASIZE SUB DUP2 ADD SWAP1 PUSH2 0x4EB SWAP2 SWAP1 PUSH2 0x233C JUMP JUMPDEST PUSH2 0x167C JUMP JUMPDEST STOP JUMPDEST PUSH2 0x4FA PUSH2 0x174E JUMP JUMPDEST PUSH1 0x40 MLOAD PUSH2 0x507 SWAP2 SWAP1 PUSH2 0x23D8 JUMP JUMPDEST PUSH1 0x40 MLOAD DUP1 SWAP2 SUB SWAP1 RETURN JUMPDEST PUSH2 0x518 PUSH2 0x1777 JUMP JUMPDEST PUSH1 0x40 MLOAD PUSH2 0x525 SWAP2 SWAP1 PUSH2 0x23AE JUMP JUMPDEST PUSH1 0x40 MLOAD DUP1 SWAP2 SUB SWAP1 RETURN JUMPDEST PUSH2 0x548 PUSH1 0x4 DUP1 CALLDATASIZE SUB DUP2 ADD SWAP1 PUSH2 0x543 SWAP2 SWAP1 PUSH2 0x233C JUMP JUMPDEST PUSH2 0x177D JUMP JUMPDEST PUSH1 0x40 MLOAD PUSH2 0x555 SWAP2 SWAP1 PUSH2 0x23AE JUMP JUMPDEST PUSH1 0x40 MLOAD DUP1 SWAP2 SUB SWAP1 RETURN JUMPDEST PUSH2 0x566 PUSH2 0x1795 JUMP JUMPDEST STOP JUMPDEST PUSH2 0x582 PUSH1 0x4 DUP1 CALLDATASIZE SUB DUP2 ADD SWAP1 PUSH2 0x57D SWAP2 SWAP1 PUSH2 0x233C JUMP JUMPDEST PUSH2 0x1A69 JUMP JUMPDEST PUSH1 0x40 MLOAD PUSH2 0x58F SWAP2 SWAP1 PUSH2 0x23AE JUMP JUMPDEST PUSH1 0x40 MLOAD DUP1 SWAP2 SUB SWAP1 RETURN JUMPDEST PUSH2 0x5A0 PUSH2 0x1A81 JUMP JUMPDEST PUSH1 0x40 MLOAD PUSH2 0x5AD SWAP2 SWAP1 PUSH2 0x23AE JUMP JUMPDEST PUSH1 0x40 MLOAD DUP1 SWAP2 SUB SWAP1 RETURN JUMPDEST PUSH2 0x5D0 PUSH1 0x4 DUP1 CALLDATASIZE SUB DUP2 ADD SWAP1 PUSH2 0x5CB SWAP2 SWAP1 PUSH2 0x2593 JUMP JUMPDEST PUSH2 0x1A87 JUMP JUMPDEST STOP JUMPDEST PUSH2 0x5DA PUSH2 0x1B4D JUMP JUMPDEST PUSH1 0x40 MLOAD PUSH2 0x5E7 SWAP2 SWAP1 PUSH2 0x23D8 JUMP JUMPDEST PUSH1 0x40 MLOAD DUP1 SWAP2 SUB SWAP1 RETURN JUMPDEST PUSH2 0x5F8 PUSH2 0x1B73 JUMP JUMPDEST STOP JUMPDEST PUSH2 0x602 PUSH2 0x1D6B JUMP JUMPDEST STOP JUMPDEST PUSH2 0x61E PUSH1 0x4 DUP1 CALLDATASIZE SUB DUP2 ADD SWAP1 PUSH2 0x619 SWAP2 SWAP1 PUSH2 0x233C JUMP JUMPDEST PUSH2 0x206A JUMP JUMPDEST PUSH1 0x40 MLOAD PUSH2 0x62B SWAP2 SWAP1 PUSH2 0x23AE JUMP JUMPDEST PUSH1 0x40 MLOAD DUP1 SWAP2 SUB SWAP1 RETURN JUMPDEST PUSH2 0x63C PUSH2 0x2082 JUMP JUMPDEST PUSH1 0x40 MLOAD PUSH2 0x649 SWAP2 SWAP1 PUSH2 0x23AE JUMP JUMPDEST PUSH1 0x40 MLOAD DUP1 SWAP2 SUB SWAP1 RETURN JUMPDEST PUSH2 0x65A PUSH2 0x208A JUMP JUMPDEST PUSH1 0x40 MLOAD PUSH2 0x667 SWAP2 SWAP1 PUSH2 0x2384 JUMP JUMPDEST PUSH1 0x40 MLOAD DUP1 SWAP2 SUB SWAP1 RETURN JUMPDEST PUSH2 0x678 PUSH2 0x209D JUMP JUMPDEST PUSH1 0x40 MLOAD PUSH2 0x685 SWAP2 SWAP1 PUSH2 0x23AE JUMP JUMPDEST PUSH1 0x40 MLOAD DUP1 SWAP2 SUB SWAP1 RETURN JUMPDEST PUSH2 0x6A8 PUSH1 0x4 DUP1 CALLDATASIZE SUB DUP2 ADD SWAP1 PUSH2 0x6A3 SWAP2 SWAP1 PUSH2 0x233C JUMP JUMPDEST PUSH2 0x20A3 JUMP JUMPDEST STOP JUMPDEST PUSH2 0x6B2 PUSH2 0x225D JUMP JUMPDEST PUSH1 0x40 MLOAD PUSH2 0x6BF SWAP2 SWAP1 PUSH2 0x2384 JUMP JUMPDEST PUSH1 0x40 MLOAD DUP1 SWAP2 SUB SWAP1 RETURN JUMPDEST PUSH2 0x6D0 PUSH2 0x2270 JUMP JUMPDEST PUSH1 0x40 MLOAD PUSH2 0x6DD SWAP2 SWAP1 PUSH2 0x23AE JUMP JUMPDEST PUSH1 0x40 MLOAD DUP1 SWAP2 SUB SWAP1 RETURN JUMPDEST CALLER PUSH20 0xFFFFFFFFFFFFFFFFFFFFFFFFFFFFFFFFFFFFFFFF AND PUSH1 0x0 DUP1 SLOAD SWAP1 PUSH2 0x100 EXP SWAP1 DIV PUSH20 0xFFFFFFFFFFFFFFFFFFFFFFFFFFFFFFFFFFFFFFFF AND PUSH20 0xFFFFFFFFFFFFFFFFFFFFFFFFFFFFFFFFFFFFFFFF AND EQ PUSH2 0x774 JUMPI PUSH1 0x40 MLOAD PUSH32 0x8C379A000000000000000000000000000000000000000000000000000000000 DUP2 MSTORE PUSH1 0x4 ADD PUSH2 0x76B SWAP1 PUSH2 0x2630 JUMP JUMPDEST PUSH1 0x40 MLOAD DUP1 SWAP2 SUB SWAP1 REVERT JUMPDEST DUP1 PUSH1 0x7 DUP2 SWAP1 SSTORE POP POP JUMP JUMPDEST CALLER PUSH20 0xFFFFFFFFFFFFFFFFFFFFFFFFFFFFFFFFFFFFFFFF AND PUSH1 0x0 DUP1 SLOAD SWAP1 PUSH2 0x100 EXP SWAP1 DIV PUSH20 0xFFFFFFFFFFFFFFFFFFFFFFFFFFFFFFFFFFFFFFFF AND PUSH20 0xFFFFFFFFFFFFFFFFFFFFFFFFFFFFFFFFFFFFFFFF AND EQ PUSH2 0x80C JUMPI PUSH1 0x40 MLOAD PUSH32 0x8C379A000000000000000000000000000000000000000000000000000000000 DUP2 MSTORE PUSH1 0x4 ADD PUSH2 0x803 SWAP1 PUSH2 0x2630 JUMP JUMPDEST PUSH1 0x40 MLOAD DUP1 SWAP2 SUB SWAP1 REVERT JUMPDEST DUP1 PUSH1 0x2 PUSH1 0x0 PUSH2 0x100 EXP DUP2 SLOAD DUP2 PUSH20 0xFFFFFFFFFFFFFFFFFFFFFFFFFFFFFFFFFFFFFFFF MUL NOT AND SWAP1 DUP4 PUSH20 0xFFFFFFFFFFFFFFFFFFFFFFFFFFFFFFFFFFFFFFFF AND MUL OR SWAP1 SSTORE POP POP JUMP JUMPDEST PUSH1 0x13 PUSH1 0x20 MSTORE DUP1 PUSH1 0x0 MSTORE PUSH1 0x40 PUSH1 0x0 KECCAK256 PUSH1 0x0 SWAP2 POP SLOAD SWAP1 PUSH2 0x100 EXP SWAP1 DIV PUSH1 0xFF AND DUP2 JUMP JUMPDEST PUSH1 0x11 PUSH1 0x20 MSTORE DUP1 PUSH1 0x0 MSTORE PUSH1 0x40 PUSH1 0x0 KECCAK256 PUSH1 0x0 SWAP2 POP SWAP1 POP SLOAD DUP2 JUMP JUMPDEST PUSH1 0x5 SLOAD DUP2 JUMP JUMPDEST PUSH1 0xA PUSH1 0x20 MSTORE DUP1 PUSH1 0x0 MSTORE PUSH1 0x40 PUSH1 0x0 KECCAK256 PUSH1 0x0 SWAP2 POP SWAP1 POP SLOAD DUP2 JUMP JUMPDEST PUSH1 0x0 DUP1 PUSH1 0x12 PUSH1 0x0 DUP5 PUSH20 0xFFFFFFFFFFFFFFFFFFFFFFFFFFFFFFFFFFFFFFFF AND PUSH20 0xFFFFFFFFFFFFFFFFFFFFFFFFFFFFFFFFFFFFFFFF AND DUP2 MSTORE PUSH1 0x20 ADD SWAP1 DUP2 MSTORE PUSH1 0x20 ADD PUSH1 0x0 KECCAK256 SLOAD EQ DUP1 ISZERO PUSH2 0x935 JUMPI POP PUSH1 0x0 PUSH1 0xF PUSH1 0x0 DUP5 PUSH20 0xFFFFFFFFFFFFFFFFFFFFFFFFFFFFFFFFFFFFFFFF AND PUSH20 0xFFFFFFFFFFFFFFFFFFFFFFFFFFFFFFFFFFFFFFFF AND DUP2 MSTORE PUSH1 0x20 ADD SWAP1 DUP2 MSTORE PUSH1 0x20 ADD PUSH1 0x0 KECCAK256 SLOAD GT JUMPDEST ISZERO PUSH2 0x98C JUMPI PUSH1 0x11 PUSH1 0x0 DUP4 PUSH20 0xFFFFFFFFFFFFFFFFFFFFFFFFFFFFFFFFFFFFFFFF AND PUSH20 0xFFFFFFFFFFFFFFFFFFFFFFFFFFFFFFFFFFFFFFFF AND DUP2 MSTORE PUSH1 0x20 ADD SWAP1 DUP2 MSTORE PUSH1 0x20 ADD PUSH1 0x0 KECCAK256 SLOAD TIMESTAMP PUSH2 0x985 SWAP2 SWAP1 PUSH2 0x267F JUMP JUMPDEST SWAP1 POP PUSH2 0xA2A JUMP JUMPDEST PUSH1 0x0 PUSH1 0xF PUSH1 0x0 DUP5 PUSH20 0xFFFFFFFFFFFFFFFFFFFFFFFFFFFFFFFFFFFFFFFF AND PUSH20 0xFFFFFFFFFFFFFFFFFFFFFFFFFFFFFFFFFFFFFFFF AND DUP2 MSTORE PUSH1 0x20 ADD SWAP1 DUP2 MSTORE PUSH1 0x20 ADD PUSH1 0x0 KECCAK256 SLOAD SUB PUSH2 0x9DC JUMPI PUSH1 0x0 SWAP1 POP PUSH2 0xA2A JUMP JUMPDEST PUSH1 0x12 PUSH1 0x0 DUP4 PUSH20 0xFFFFFFFFFFFFFFFFFFFFFFFFFFFFFFFFFFFFFFFF AND PUSH20 0xFFFFFFFFFFFFFFFFFFFFFFFFFFFFFFFFFFFFFFFF AND DUP2 MSTORE PUSH1 0x20 ADD SWAP1 DUP2 MSTORE PUSH1 0x20 ADD PUSH1 0x0 KECCAK256 SLOAD TIMESTAMP PUSH2 0xA27 SWAP2 SWAP1 PUSH2 0x267F JUMP JUMPDEST SWAP1 POP JUMPDEST SWAP2 SWAP1 POP JUMP JUMPDEST PUSH1 0x8 PUSH1 0x20 MSTORE DUP1 PUSH1 0x0 MSTORE PUSH1 0x40 PUSH1 0x0 KECCAK256 PUSH1 0x0 SWAP2 POP SLOAD SWAP1 PUSH2 0x100 EXP SWAP1 DIV PUSH20 0xFFFFFFFFFFFFFFFFFFFFFFFFFFFFFFFFFFFFFFFF AND DUP2 JUMP JUMPDEST PUSH1 0x0 DUP1 PUSH1 0x0 PUSH1 0x12 PUSH1 0x0 DUP6 PUSH20 0xFFFFFFFFFFFFFFFFFFFFFFFFFFFFFFFFFFFFFFFF AND PUSH20 0xFFFFFFFFFFFFFFFFFFFFFFFFFFFFFFFFFFFFFFFF AND DUP2 MSTORE PUSH1 0x20 ADD SWAP1 DUP2 MSTORE PUSH1 0x20 ADD PUSH1 0x0 KECCAK256 SLOAD EQ DUP1 ISZERO PUSH2 0xAF3 JUMPI POP PUSH1 0x0 PUSH1 0xF PUSH1 0x0 DUP6 PUSH20 0xFFFFFFFFFFFFFFFFFFFFFFFFFFFFFFFFFFFFFFFF AND PUSH20 0xFFFFFFFFFFFFFFFFFFFFFFFFFFFFFFFFFFFFFFFF AND DUP2 MSTORE PUSH1 0x20 ADD SWAP1 DUP2 MSTORE PUSH1 0x20 ADD PUSH1 0x0 KECCAK256 SLOAD GT JUMPDEST ISZERO PUSH2 0xB4A JUMPI PUSH1 0x11 PUSH1 0x0 DUP5 PUSH20 0xFFFFFFFFFFFFFFFFFFFFFFFFFFFFFFFFFFFFFFFF AND PUSH20 0xFFFFFFFFFFFFFFFFFFFFFFFFFFFFFFFFFFFFFFFF AND DUP2 MSTORE PUSH1 0x20 ADD SWAP1 DUP2 MSTORE PUSH1 0x20 ADD PUSH1 0x0 KECCAK256 SLOAD TIMESTAMP PUSH2 0xB43 SWAP2 SWAP1 PUSH2 0x267F JUMP JUMPDEST SWAP1 POP PUSH2 0xBE9 JUMP JUMPDEST PUSH1 0x0 PUSH1 0xF PUSH1 0x0 DUP6 PUSH20 0xFFFFFFFFFFFFFFFFFFFFFFFFFFFFFFFFFFFFFFFF AND PUSH20 0xFFFFFFFFFFFFFFFFFFFFFFFFFFFFFFFFFFFFFFFF AND DUP2 MSTORE PUSH1 0x20 ADD SWAP1 DUP2 MSTORE PUSH1 0x20 ADD PUSH1 0x0 KECCAK256 SLOAD SUB PUSH2 0xB9B JUMPI PUSH1 0x0 SWAP2 POP POP PUSH2 0xD5E JUMP JUMPDEST PUSH1 0x12 PUSH1 0x0 DUP5 PUSH20 0xFFFFFFFFFFFFFFFFFFFFFFFFFFFFFFFFFFFFFFFF AND PUSH20 0xFFFFFFFFFFFFFFFFFFFFFFFFFFFFFFFFFFFFFFFF AND DUP2 MSTORE PUSH1 0x20 ADD SWAP1 DUP2 MSTORE PUSH1 0x20 ADD PUSH1 0x0 KECCAK256 SLOAD TIMESTAMP PUSH2 0xBE6 SWAP2 SWAP1 PUSH2 0x267F JUMP JUMPDEST SWAP1 POP JUMPDEST PUSH1 0x0 DUP1 PUSH1 0x3 SLOAD PUSH1 0x10 PUSH1 0x0 DUP8 PUSH20 0xFFFFFFFFFFFFFFFFFFFFFFFFFFFFFFFFFFFFFFFF AND PUSH20 0xFFFFFFFFFFFFFFFFFFFFFFFFFFFFFFFFFFFFFFFF AND DUP2 MSTORE PUSH1 0x20 ADD SWAP1 DUP2 MSTORE PUSH1 0x20 ADD PUSH1 0x0 KECCAK256 SLOAD SUB PUSH2 0xC43 JUMPI PUSH1 0xB SLOAD SWAP1 POP PUSH1 0x3 SLOAD SWAP2 POP PUSH2 0xCEF JUMP JUMPDEST PUSH1 0x4 SLOAD PUSH1 0x10 PUSH1 0x0 DUP8 PUSH20 0xFFFFFFFFFFFFFFFFFFFFFFFFFFFFFFFFFFFFFFFF AND PUSH20 0xFFFFFFFFFFFFFFFFFFFFFFFFFFFFFFFFFFFFFFFF AND DUP2 MSTORE PUSH1 0x20 ADD SWAP1 DUP2 MSTORE PUSH1 0x20 ADD PUSH1 0x0 KECCAK256 SLOAD SUB PUSH2 0xC9A JUMPI PUSH1 0xC SLOAD SWAP1 POP PUSH1 0x4 SLOAD SWAP2 POP PUSH2 0xCEE JUMP JUMPDEST PUSH1 0x5 SLOAD PUSH1 0x10 PUSH1 0x0 DUP8 PUSH20 0xFFFFFFFFFFFFFFFFFFFFFFFFFFFFFFFFFFFFFFFF AND PUSH20 0xFFFFFFFFFFFFFFFFFFFFFFFFFFFFFFFFFFFFFFFF AND DUP2 MSTORE PUSH1 0x20 ADD SWAP1 DUP2 MSTORE PUSH1 0x20 ADD PUSH1 0x0 KECCAK256 SLOAD SUB PUSH2 0xCED JUMPI PUSH1 0xD SLOAD SWAP1 POP PUSH1 0x5 SLOAD SWAP2 POP JUMPDEST JUMPDEST JUMPDEST PUSH8 0xDE0B6B3A7640000 PUSH1 0xF PUSH1 0x0 DUP8 PUSH20 0xFFFFFFFFFFFFFFFFFFFFFFFFFFFFFFFFFFFFFFFF AND PUSH20 0xFFFFFFFFFFFFFFFFFFFFFFFFFFFFFFFFFFFFFFFF AND DUP2 MSTORE PUSH1 0x20 ADD SWAP1 DUP2 MSTORE PUSH1 0x20 ADD PUSH1 0x0 KECCAK256 SLOAD DUP5 DUP4 PUSH2 0xD44 SWAP2 SWAP1 PUSH2 0x26B3 JUMP JUMPDEST PUSH2 0xD4E SWAP2 SWAP1 PUSH2 0x26B3 JUMP JUMPDEST PUSH2 0xD58 SWAP2 SWAP1 PUSH2 0x2724 JUMP JUMPDEST SWAP4 POP POP POP POP JUMPDEST SWAP2 SWAP1 POP JUMP JUMPDEST PUSH1 0x7 SLOAD DUP2 JUMP JUMPDEST CALLER PUSH20 0xFFFFFFFFFFFFFFFFFFFFFFFFFFFFFFFFFFFFFFFF AND PUSH1 0x0 DUP1 SLOAD SWAP1 PUSH2 0x100 EXP SWAP1 DIV PUSH20 0xFFFFFFFFFFFFFFFFFFFFFFFFFFFFFFFFFFFFFFFF AND PUSH20 0xFFFFFFFFFFFFFFFFFFFFFFFFFFFFFFFFFFFFFFFF AND EQ PUSH2 0xDF7 JUMPI PUSH1 0x40 MLOAD PUSH32 0x8C379A000000000000000000000000000000000000000000000000000000000 DUP2 MSTORE PUSH1 0x4 ADD PUSH2 0xDEE SWAP1 PUSH2 0x2630 JUMP JUMPDEST PUSH1 0x40 MLOAD DUP1 SWAP2 SUB SWAP1 REVERT JUMPDEST DUP3 PUSH20 0xFFFFFFFFFFFFFFFFFFFFFFFFFFFFFFFFFFFFFFFF AND PUSH4 0xA9059CBB DUP4 DUP4 PUSH1 0x40 MLOAD DUP4 PUSH4 0xFFFFFFFF AND PUSH1 0xE0 SHL DUP2 MSTORE PUSH1 0x4 ADD PUSH2 0xE32 SWAP3 SWAP2 SWAP1 PUSH2 0x2755 JUMP JUMPDEST PUSH1 0x20 PUSH1 0x40 MLOAD DUP1 DUP4 SUB DUP2 PUSH1 0x0 DUP8 GAS CALL ISZERO DUP1 ISZERO PUSH2 0xE51 JUMPI RETURNDATASIZE PUSH1 0x0 DUP1 RETURNDATACOPY RETURNDATASIZE PUSH1 0x0 REVERT JUMPDEST POP POP POP POP PUSH1 0x40 MLOAD RETURNDATASIZE PUSH1 0x1F NOT PUSH1 0x1F DUP3 ADD AND DUP3 ADD DUP1 PUSH1 0x40 MSTORE POP DUP2 ADD SWAP1 PUSH2 0xE75 SWAP2 SWAP1 PUSH2 0x2793 JUMP JUMPDEST POP POP POP POP JUMP JUMPDEST CALLER PUSH20 0xFFFFFFFFFFFFFFFFFFFFFFFFFFFFFFFFFFFFFFFF AND PUSH1 0x0 DUP1 SLOAD SWAP1 PUSH2 0x100 EXP SWAP1 DIV PUSH20 0xFFFFFFFFFFFFFFFFFFFFFFFFFFFFFFFFFFFFFFFF AND PUSH20 0xFFFFFFFFFFFFFFFFFFFFFFFFFFFFFFFFFFFFFFFF AND EQ PUSH2 0xF09 JUMPI PUSH1 0x40 MLOAD PUSH32 0x8C379A000000000000000000000000000000000000000000000000000000000 DUP2 MSTORE PUSH1 0x4 ADD PUSH2 0xF00 SWAP1 PUSH2 0x2630 JUMP JUMPDEST PUSH1 0x40 MLOAD DUP1 SWAP2 SUB SWAP1 REVERT JUMPDEST DUP1 PUSH1 0x6 DUP2 SWAP1 SSTORE POP POP JUMP JUMPDEST CALLER PUSH20 0xFFFFFFFFFFFFFFFFFFFFFFFFFFFFFFFFFFFFFFFF AND PUSH1 0x0 DUP1 SLOAD SWAP1 PUSH2 0x100 EXP SWAP1 DIV PUSH20 0xFFFFFFFFFFFFFFFFFFFFFFFFFFFFFFFFFFFFFFFF AND PUSH20 0xFFFFFFFFFFFFFFFFFFFFFFFFFFFFFFFFFFFFFFFF AND EQ PUSH2 0xFA1 JUMPI PUSH1 0x40 MLOAD PUSH32 0x8C379A000000000000000000000000000000000000000000000000000000000 DUP2 MSTORE PUSH1 0x4 ADD PUSH2 0xF98 SWAP1 PUSH2 0x2630 JUMP JUMPDEST PUSH1 0x40 MLOAD DUP1 SWAP2 SUB SWAP1 REVERT JUMPDEST DUP4 PUSH1 0xF PUSH1 0x0 DUP8 PUSH20 0xFFFFFFFFFFFFFFFFFFFFFFFFFFFFFFFFFFFFFFFF AND PUSH20 0xFFFFFFFFFFFFFFFFFFFFFFFFFFFFFFFFFFFFFFFF AND DUP2 MSTORE PUSH1 0x20 ADD SWAP1 DUP2 MSTORE PUSH1 0x20 ADD PUSH1 0x0 KECCAK256 DUP2 SWAP1 SSTORE POP DUP3 PUSH1 0x10 PUSH1 0x0 DUP8 PUSH20 0xFFFFFFFFFFFFFFFFFFFFFFFFFFFFFFFFFFFFFFFF AND PUSH20 0xFFFFFFFFFFFFFFFFFFFFFFFFFFFFFFFFFFFFFFFF AND DUP2 MSTORE PUSH1 0x20 ADD SWAP1 DUP2 MSTORE PUSH1 0x20 ADD PUSH1 0x0 KECCAK256 DUP2 SWAP1 SSTORE POP DUP2 PUSH1 0x11 PUSH1 0x0 DUP8 PUSH20 0xFFFFFFFFFFFFFFFFFFFFFFFFFFFFFFFFFFFFFFFF AND PUSH20 0xFFFFFFFFFFFFFFFFFFFFFFFFFFFFFFFFFFFFFFFF AND DUP2 MSTORE PUSH1 0x20 ADD SWAP1 DUP2 MSTORE PUSH1 0x20 ADD PUSH1 0x0 KECCAK256 DUP2 SWAP1 SSTORE POP DUP1 PUSH1 0x12 PUSH1 0x0 DUP8 PUSH20 0xFFFFFFFFFFFFFFFFFFFFFFFFFFFFFFFFFFFFFFFF AND PUSH20 0xFFFFFFFFFFFFFFFFFFFFFFFFFFFFFFFFFFFFFFFF AND DUP2 MSTORE PUSH1 0x20 ADD SWAP1 DUP2 MSTORE PUSH1 0x20 ADD PUSH1 0x0 KECCAK256 DUP2 SWAP1 SSTORE POP POP POP POP POP POP JUMP JUMPDEST PUSH1 0xD SLOAD DUP2 JUMP JUMPDEST PUSH1 0xE PUSH1 0x0 SWAP1 SLOAD SWAP1 PUSH2 0x100 EXP SWAP1 DIV PUSH1 0xFF AND PUSH2 0x110D JUMPI PUSH1 0x40 MLOAD PUSH32 0x8C379A000000000000000000000000000000000000000000000000000000000 DUP2 MSTORE PUSH1 0x4 ADD PUSH2 0x1104 SWAP1 PUSH2 0x280C JUMP JUMPDEST PUSH1 0x40 MLOAD DUP1 SWAP2 SUB SWAP1 REVERT JUMPDEST CALLER PUSH20 0xFFFFFFFFFFFFFFFFFFFFFFFFFFFFFFFFFFFFFFFF AND DUP3 PUSH20 0xFFFFFFFFFFFFFFFFFFFFFFFFFFFFFFFFFFFFFFFF AND SUB PUSH2 0x117B JUMPI PUSH1 0x40 MLOAD PUSH32 0x8C379A000000000000000000000000000000000000000000000000000000000 DUP2 MSTORE PUSH1 0x4 ADD PUSH2 0x1172 SWAP1 PUSH2 0x2878 JUMP JUMPDEST PUSH1 0x40 MLOAD DUP1 SWAP2 SUB SWAP1 REVERT JUMPDEST PUSH1 0x0 PUSH1 0xF PUSH1 0x0 CALLER PUSH20 0xFFFFFFFFFFFFFFFFFFFFFFFFFFFFFFFFFFFFFFFF AND PUSH20 0xFFFFFFFFFFFFFFFFFFFFFFFFFFFFFFFFFFFFFFFF AND DUP2 MSTORE PUSH1 0x20 ADD SWAP1 DUP2 MSTORE PUSH1 0x20 ADD PUSH1 0x0 KECCAK256 SLOAD EQ PUSH2 0x11FD JUMPI PUSH1 0x40 MLOAD PUSH32 0x8C379A000000000000000000000000000000000000000000000000000000000 DUP2 MSTORE PUSH1 0x4 ADD PUSH2 0x11F4 SWAP1 PUSH2 0x28E4 JUMP JUMPDEST PUSH1 0x40 MLOAD DUP1 SWAP2 SUB SWAP1 REVERT JUMPDEST PUSH1 0x0 DUP4 GT PUSH2 0x1240 JUMPI PUSH1 0x40 MLOAD PUSH32 0x8C379A000000000000000000000000000000000000000000000000000000000 DUP2 MSTORE PUSH1 0x4 ADD PUSH2 0x1237 SWAP1 PUSH2 0x2950 JUMP JUMPDEST PUSH1 0x40 MLOAD DUP1 SWAP2 SUB SWAP1 REVERT JUMPDEST PUSH1 0x3 SLOAD DUP2 EQ DUP1 PUSH2 0x1251 JUMPI POP PUSH1 0x4 SLOAD DUP2 EQ JUMPDEST DUP1 PUSH2 0x125D JUMPI POP PUSH1 0x5 SLOAD DUP2 EQ JUMPDEST PUSH2 0x129C JUMPI PUSH1 0x40 MLOAD PUSH32 0x8C379A000000000000000000000000000000000000000000000000000000000 DUP2 MSTORE PUSH1 0x4 ADD PUSH2 0x1293 SWAP1 PUSH2 0x29BC JUMP JUMPDEST PUSH1 0x40 MLOAD DUP1 SWAP2 SUB SWAP1 REVERT JUMPDEST PUSH1 0x0 PUSH20 0xFFFFFFFFFFFFFFFFFFFFFFFFFFFFFFFFFFFFFFFF AND DUP3 PUSH20 0xFFFFFFFFFFFFFFFFFFFFFFFFFFFFFFFFFFFFFFFF AND EQ PUSH2 0x141C JUMPI DUP2 PUSH1 0x8 PUSH1 0x0 CALLER PUSH20 0xFFFFFFFFFFFFFFFFFFFFFFFFFFFFFFFFFFFFFFFF AND PUSH20 0xFFFFFFFFFFFFFFFFFFFFFFFFFFFFFFFFFFFFFFFF AND DUP2 MSTORE PUSH1 0x20 ADD SWAP1 DUP2 MSTORE PUSH1 0x20 ADD PUSH1 0x0 KECCAK256 PUSH1 0x0 PUSH2 0x100 EXP DUP2 SLOAD DUP2 PUSH20 0xFFFFFFFFFFFFFFFFFFFFFFFFFFFFFFFFFFFFFFFF MUL NOT AND SWAP1 DUP4 PUSH20 0xFFFFFFFFFFFFFFFFFFFFFFFFFFFFFFFFFFFFFFFF AND MUL OR SWAP1 SSTORE POP PUSH8 0xDE0B6B3A7640000 DUP4 PUSH1 0x7 SLOAD PUSH2 0x1365 SWAP2 SWAP1 PUSH2 0x26B3 JUMP JUMPDEST PUSH2 0x136F SWAP2 SWAP1 PUSH2 0x2724 JUMP JUMPDEST PUSH1 0x9 PUSH1 0x0 DUP5 PUSH20 0xFFFFFFFFFFFFFFFFFFFFFFFFFFFFFFFFFFFFFFFF AND PUSH20 0xFFFFFFFFFFFFFFFFFFFFFFFFFFFFFFFFFFFFFFFF AND DUP2 MSTORE PUSH1 0x20 ADD SWAP1 DUP2 MSTORE PUSH1 0x20 ADD PUSH1 0x0 KECCAK256 PUSH1 0x0 DUP3 DUP3 SLOAD PUSH2 0x13BD SWAP2 SWAP1 PUSH2 0x29DC JUMP JUMPDEST SWAP3 POP POP DUP2 SWAP1 SSTORE POP PUSH1 0x1 PUSH1 0xA PUSH1 0x0 DUP5 PUSH20 0xFFFFFFFFFFFFFFFFFFFFFFFFFFFFFFFFFFFFFFFF AND PUSH20 0xFFFFFFFFFFFFFFFFFFFFFFFFFFFFFFFFFFFFFFFF AND DUP2 MSTORE PUSH1 0x20 ADD SWAP1 DUP2 MSTORE PUSH1 0x20 ADD PUSH1 0x0 KECCAK256 PUSH1 0x0 DUP3 DUP3 SLOAD PUSH2 0x1414 SWAP2 SWAP1 PUSH2 0x29DC JUMP JUMPDEST SWAP3 POP POP DUP2 SWAP1 SSTORE POP JUMPDEST PUSH1 0x2 PUSH1 0x0 SWAP1 SLOAD SWAP1 PUSH2 0x100 EXP SWAP1 DIV PUSH20 0xFFFFFFFFFFFFFFFFFFFFFFFFFFFFFFFFFFFFFFFF AND PUSH20 0xFFFFFFFFFFFFFFFFFFFFFFFFFFFFFFFFFFFFFFFF AND PUSH4 0x23B872DD CALLER ADDRESS DUP7 PUSH1 0x40 MLOAD DUP5 PUSH4 0xFFFFFFFF AND PUSH1 0xE0 SHL DUP2 MSTORE PUSH1 0x4 ADD PUSH2 0x147B SWAP4 SWAP3 SWAP2 SWAP1 PUSH2 0x2A10 JUMP JUMPDEST PUSH1 0x20 PUSH1 0x40 MLOAD DUP1 DUP4 SUB DUP2 PUSH1 0x0 DUP8 GAS CALL ISZERO DUP1 ISZERO PUSH2 0x149A JUMPI RETURNDATASIZE PUSH1 0x0 DUP1 RETURNDATACOPY RETURNDATASIZE PUSH1 0x0 REVERT JUMPDEST POP POP POP POP PUSH1 0x40 MLOAD RETURNDATASIZE PUSH1 0x1F NOT PUSH1 0x1F DUP3 ADD AND DUP3 ADD DUP1 PUSH1 0x40 MSTORE POP DUP2 ADD SWAP1 PUSH2 0x14BE SWAP2 SWAP1 PUSH2 0x2793 JUMP JUMPDEST POP DUP3 PUSH1 0xF PUSH1 0x0 CALLER PUSH20 0xFFFFFFFFFFFFFFFFFFFFFFFFFFFFFFFFFFFFFFFF AND PUSH20 0xFFFFFFFFFFFFFFFFFFFFFFFFFFFFFFFFFFFFFFFF AND DUP2 MSTORE PUSH1 0x20 ADD SWAP1 DUP2 MSTORE PUSH1 0x20 ADD PUSH1 0x0 KECCAK256 DUP2 SWAP1 SSTORE POP TIMESTAMP PUSH1 0x11 PUSH1 0x0 CALLER PUSH20 0xFFFFFFFFFFFFFFFFFFFFFFFFFFFFFFFFFFFFFFFF AND PUSH20 0xFFFFFFFFFFFFFFFFFFFFFFFFFFFFFFFFFFFFFFFF AND DUP2 MSTORE PUSH1 0x20 ADD SWAP1 DUP2 MSTORE PUSH1 0x20 ADD PUSH1 0x0 KECCAK256 DUP2 SWAP1 SSTORE POP DUP1 PUSH1 0x10 PUSH1 0x0 CALLER PUSH20 0xFFFFFFFFFFFFFFFFFFFFFFFFFFFFFFFFFFFFFFFF AND PUSH20 0xFFFFFFFFFFFFFFFFFFFFFFFFFFFFFFFFFFFFFFFF AND DUP2 MSTORE PUSH1 0x20 ADD SWAP1 DUP2 MSTORE PUSH1 0x20 ADD PUSH1 0x0 KECCAK256 DUP2 SWAP1 SSTORE POP POP POP POP JUMP JUMPDEST PUSH1 0x2 PUSH1 0x0 SWAP1 SLOAD SWAP1 PUSH2 0x100 EXP SWAP1 DIV PUSH20 0xFFFFFFFFFFFFFFFFFFFFFFFFFFFFFFFFFFFFFFFF AND DUP2 JUMP JUMPDEST CALLER PUSH20 0xFFFFFFFFFFFFFFFFFFFFFFFFFFFFFFFFFFFFFFFF AND PUSH1 0x0 DUP1 SLOAD SWAP1 PUSH2 0x100 EXP SWAP1 DIV PUSH20 0xFFFFFFFFFFFFFFFFFFFFFFFFFFFFFFFFFFFFFFFF AND PUSH20 0xFFFFFFFFFFFFFFFFFFFFFFFFFFFFFFFFFFFFFFFF AND EQ PUSH2 0x1644 JUMPI PUSH1 0x40 MLOAD PUSH32 0x8C379A000000000000000000000000000000000000000000000000000000000 DUP2 MSTORE PUSH1 0x4 ADD PUSH2 0x163B SWAP1 PUSH2 0x2630 JUMP JUMPDEST PUSH1 0x40 MLOAD DUP1 SWAP2 SUB SWAP1 REVERT JUMPDEST DUP3 PUSH1 0xB DUP2 SWAP1 SSTORE POP DUP2 PUSH1 0xC DUP2 SWAP1 SSTORE POP DUP1 PUSH1 0xD DUP2 SWAP1 SSTORE POP POP POP POP JUMP JUMPDEST PUSH1 0x12 PUSH1 0x20 MSTORE DUP1 PUSH1 0x0 MSTORE PUSH1 0x40 PUSH1 0x0 KECCAK256 PUSH1 0x0 SWAP2 POP SWAP1 POP SLOAD DUP2 JUMP JUMPDEST PUSH1 0x4 SLOAD DUP2 JUMP JUMPDEST CALLER PUSH20 0xFFFFFFFFFFFFFFFFFFFFFFFFFFFFFFFFFFFFFFFF AND PUSH1 0x0 DUP1 SLOAD SWAP1 PUSH2 0x100 EXP SWAP1 DIV PUSH20 0xFFFFFFFFFFFFFFFFFFFFFFFFFFFFFFFFFFFFFFFF AND PUSH20 0xFFFFFFFFFFFFFFFFFFFFFFFFFFFFFFFFFFFFFFFF AND EQ PUSH2 0x170A JUMPI PUSH1 0x40 MLOAD PUSH32 0x8C379A000000000000000000000000000000000000000000000000000000000 DUP2 MSTORE PUSH1 0x4 ADD PUSH2 0x1701 SWAP1 PUSH2 0x2630 JUMP JUMPDEST PUSH1 0x40 MLOAD DUP1 SWAP2 SUB SWAP1 REVERT JUMPDEST DUP1 PUSH1 0x1 PUSH1 0x0 PUSH2 0x100 EXP DUP2 SLOAD DUP2 PUSH20 0xFFFFFFFFFFFFFFFFFFFFFFFFFFFFFFFFFFFFFFFF MUL NOT AND SWAP1 DUP4 PUSH20 0xFFFFFFFFFFFFFFFFFFFFFFFFFFFFFFFFFFFFFFFF AND MUL OR SWAP1 SSTORE POP POP JUMP JUMPDEST PUSH1 0x0 DUP1 PUSH1 0x0 SWAP1 SLOAD SWAP1 PUSH2 0x100 EXP SWAP1 DIV PUSH20 0xFFFFFFFFFFFFFFFFFFFFFFFFFFFFFFFFFFFFFFFF AND SWAP1 POP SWAP1 JUMP JUMPDEST PUSH1 0x6 SLOAD DUP2 JUMP JUMPDEST PUSH1 0xF PUSH1 0x20 MSTORE DUP1 PUSH1 0x0 MSTORE PUSH1 0x40 PUSH1 0x0 KECCAK256 PUSH1 0x0 SWAP2 POP SWAP1 POP SLOAD DUP2 JUMP JUMPDEST PUSH1 0xE PUSH1 0x1 SWAP1 SLOAD SWAP1 PUSH2 0x100 EXP SWAP1 DIV PUSH1 0xFF AND PUSH2 0x17E4 JUMPI PUSH1 0x40 MLOAD PUSH32 0x8C379A000000000000000000000000000000000000000000000000000000000 DUP2 MSTORE PUSH1 0x4 ADD PUSH2 0x17DB SWAP1 PUSH2 0x280C JUMP JUMPDEST PUSH1 0x40 MLOAD DUP1 SWAP2 SUB SWAP1 REVERT JUMPDEST PUSH1 0x0 PUSH1 0xF PUSH1 0x0 CALLER PUSH20 0xFFFFFFFFFFFFFFFFFFFFFFFFFFFFFFFFFFFFFFFF AND PUSH20 0xFFFFFFFFFFFFFFFFFFFFFFFFFFFFFFFFFFFFFFFF AND DUP2 MSTORE PUSH1 0x20 ADD SWAP1 DUP2 MSTORE PUSH1 0x20 ADD PUSH1 0x0 KECCAK256 SLOAD GT PUSH2 0x1866 JUMPI PUSH1 0x40 MLOAD PUSH32 0x8C379A000000000000000000000000000000000000000000000000000000000 DUP2 MSTORE PUSH1 0x4 ADD PUSH2 0x185D SWAP1 PUSH2 0x2A93 JUMP JUMPDEST PUSH1 0x40 MLOAD DUP1 SWAP2 SUB SWAP1 REVERT JUMPDEST PUSH1 0x13 PUSH1 0x0 CALLER PUSH20 0xFFFFFFFFFFFFFFFFFFFFFFFFFFFFFFFFFFFFFFFF AND PUSH20 0xFFFFFFFFFFFFFFFFFFFFFFFFFFFFFFFFFFFFFFFF AND DUP2 MSTORE PUSH1 0x20 ADD SWAP1 DUP2 MSTORE PUSH1 0x20 ADD PUSH1 0x0 KECCAK256 PUSH1 0x0 SWAP1 SLOAD SWAP1 PUSH2 0x100 EXP SWAP1 DIV PUSH1 0xFF AND ISZERO PUSH2 0x18F3 JUMPI PUSH1 0x40 MLOAD PUSH32 0x8C379A000000000000000000000000000000000000000000000000000000000 DUP2 MSTORE PUSH1 0x4 ADD PUSH2 0x18EA SWAP1 PUSH2 0x2AFF JUMP JUMPDEST PUSH1 0x40 MLOAD DUP1 SWAP2 SUB SWAP1 REVERT JUMPDEST TIMESTAMP PUSH1 0x12 PUSH1 0x0 CALLER PUSH20 0xFFFFFFFFFFFFFFFFFFFFFFFFFFFFFFFFFFFFFFFF AND PUSH20 0xFFFFFFFFFFFFFFFFFFFFFFFFFFFFFFFFFFFFFFFF AND DUP2 MSTORE PUSH1 0x20 ADD SWAP1 DUP2 MSTORE PUSH1 0x20 ADD PUSH1 0x0 KECCAK256 SLOAD LT PUSH2 0x1974 JUMPI PUSH1 0x40 MLOAD PUSH32 0x8C379A000000000000000000000000000000000000000000000000000000000 DUP2 MSTORE PUSH1 0x4 ADD PUSH2 0x196B SWAP1 PUSH2 0x2B6B JUMP JUMPDEST PUSH1 0x40 MLOAD DUP1 SWAP2 SUB SWAP1 REVERT JUMPDEST PUSH1 0x0 PUSH2 0x197F CALLER PUSH2 0xA62 JUMP JUMPDEST SWAP1 POP TIMESTAMP PUSH1 0x12 PUSH1 0x0 CALLER PUSH20 0xFFFFFFFFFFFFFFFFFFFFFFFFFFFFFFFFFFFFFFFF AND PUSH20 0xFFFFFFFFFFFFFFFFFFFFFFFFFFFFFFFFFFFFFFFF AND DUP2 MSTORE PUSH1 0x20 ADD SWAP1 DUP2 MSTORE PUSH1 0x20 ADD PUSH1 0x0 KECCAK256 DUP2 SWAP1 SSTORE POP PUSH1 0x1 PUSH1 0x0 SWAP1 SLOAD SWAP1 PUSH2 0x100 EXP SWAP1 DIV PUSH20 0xFFFFFFFFFFFFFFFFFFFFFFFFFFFFFFFFFFFFFFFF AND PUSH20 0xFFFFFFFFFFFFFFFFFFFFFFFFFFFFFFFFFFFFFFFF AND PUSH4 0xA9059CBB CALLER DUP4 PUSH1 0x40 MLOAD DUP4 PUSH4 0xFFFFFFFF AND PUSH1 0xE0 SHL DUP2 MSTORE PUSH1 0x4 ADD PUSH2 0x1A22 SWAP3 SWAP2 SWAP1 PUSH2 0x2755 JUMP JUMPDEST PUSH1 0x20 PUSH1 0x40 MLOAD DUP1 DUP4 SUB DUP2 PUSH1 0x0 DUP8 GAS CALL ISZERO DUP1 ISZERO PUSH2 0x1A41 JUMPI RETURNDATASIZE PUSH1 0x0 DUP1 RETURNDATACOPY RETURNDATASIZE PUSH1 0x0 REVERT JUMPDEST POP POP POP POP PUSH1 0x40 MLOAD RETURNDATASIZE PUSH1 0x1F NOT PUSH1 0x1F DUP3 ADD AND DUP3 ADD DUP1 PUSH1 0x40 MSTORE POP DUP2 ADD SWAP1 PUSH2 0x1A65 SWAP2 SWAP1 PUSH2 0x2793 JUMP JUMPDEST POP POP JUMP JUMPDEST PUSH1 0x10 PUSH1 0x20 MSTORE DUP1 PUSH1 0x0 MSTORE PUSH1 0x40 PUSH1 0x0 KECCAK256 PUSH1 0x0 SWAP2 POP SWAP1 POP SLOAD DUP2 JUMP JUMPDEST PUSH1 0x3 SLOAD DUP2 JUMP JUMPDEST CALLER PUSH20 0xFFFFFFFFFFFFFFFFFFFFFFFFFFFFFFFFFFFFFFFF AND PUSH1 0x0 DUP1 SLOAD SWAP1 PUSH2 0x100 EXP SWAP1 DIV PUSH20 0xFFFFFFFFFFFFFFFFFFFFFFFFFFFFFFFFFFFFFFFF AND PUSH20 0xFFFFFFFFFFFFFFFFFFFFFFFFFFFFFFFFFFFFFFFF AND EQ PUSH2 0x1B15 JUMPI PUSH1 0x40 MLOAD PUSH32 0x8C379A000000000000000000000000000000000000000000000000000000000 DUP2 MSTORE PUSH1 0x4 ADD PUSH2 0x1B0C SWAP1 PUSH2 0x2630 JUMP JUMPDEST PUSH1 0x40 MLOAD DUP1 SWAP2 SUB SWAP1 REVERT JUMPDEST DUP2 PUSH1 0xE PUSH1 0x0 PUSH2 0x100 EXP DUP2 SLOAD DUP2 PUSH1 0xFF MUL NOT AND SWAP1 DUP4 ISZERO ISZERO MUL OR SWAP1 SSTORE POP DUP1 PUSH1 0xE PUSH1 0x1 PUSH2 0x100 EXP DUP2 SLOAD DUP2 PUSH1 0xFF MUL NOT AND SWAP1 DUP4 ISZERO ISZERO MUL OR SWAP1 SSTORE POP POP POP JUMP JUMPDEST PUSH1 0x1 PUSH1 0x0 SWAP1 SLOAD SWAP1 PUSH2 0x100 EXP SWAP1 DIV PUSH20 0xFFFFFFFFFFFFFFFFFFFFFFFFFFFFFFFFFFFFFFFF AND DUP2 JUMP JUMPDEST PUSH1 0xE PUSH1 0x1 SWAP1 SLOAD SWAP1 PUSH2 0x100 EXP SWAP1 DIV PUSH1 0xFF AND PUSH2 0x1BC2 JUMPI PUSH1 0x40 MLOAD PUSH32 0x8C379A000000000000000000000000000000000000000000000000000000000 DUP2 MSTORE PUSH1 0x4 ADD PUSH2 0x1BB9 SWAP1 PUSH2 0x280C JUMP JUMPDEST PUSH1 0x40 MLOAD DUP1 SWAP2 SUB SWAP1 REVERT JUMPDEST PUSH1 0x0 PUSH1 0x9 PUSH1 0x0 CALLER PUSH20 0xFFFFFFFFFFFFFFFFFFFFFFFFFFFFFFFFFFFFFFFF AND PUSH20 0xFFFFFFFFFFFFFFFFFFFFFFFFFFFFFFFFFFFFFFFF AND DUP2 MSTORE PUSH1 0x20 ADD SWAP1 DUP2 MSTORE PUSH1 0x20 ADD PUSH1 0x0 KECCAK256 SLOAD GT PUSH2 0x1C44 JUMPI PUSH1 0x40 MLOAD PUSH32 0x8C379A000000000000000000000000000000000000000000000000000000000 DUP2 MSTORE PUSH1 0x4 ADD PUSH2 0x1C3B SWAP1 PUSH2 0x2BD7 JUMP JUMPDEST PUSH1 0x40 MLOAD DUP1 SWAP2 SUB SWAP1 REVERT JUMPDEST PUSH1 0x1 PUSH1 0x0 SWAP1 SLOAD SWAP1 PUSH2 0x100 EXP SWAP1 DIV PUSH20 0xFFFFFFFFFFFFFFFFFFFFFFFFFFFFFFFFFFFFFFFF AND PUSH20 0xFFFFFFFFFFFFFFFFFFFFFFFFFFFFFFFFFFFFFFFF AND PUSH4 0xA9059CBB CALLER PUSH1 0x9 PUSH1 0x0 CALLER PUSH20 0xFFFFFFFFFFFFFFFFFFFFFFFFFFFFFFFFFFFFFFFF AND PUSH20 0xFFFFFFFFFFFFFFFFFFFFFFFFFFFFFFFFFFFFFFFF AND DUP2 MSTORE PUSH1 0x20 ADD SWAP1 DUP2 MSTORE PUSH1 0x20 ADD PUSH1 0x0 KECCAK256 SLOAD PUSH1 0x40 MLOAD DUP4 PUSH4 0xFFFFFFFF AND PUSH1 0xE0 SHL DUP2 MSTORE PUSH1 0x4 ADD PUSH2 0x1CE0 SWAP3 SWAP2 SWAP1 PUSH2 0x2755 JUMP JUMPDEST PUSH1 0x20 PUSH1 0x40 MLOAD DUP1 DUP4 SUB DUP2 PUSH1 0x0 DUP8 GAS CALL ISZERO DUP1 ISZERO PUSH2 0x1CFF JUMPI RETURNDATASIZE PUSH1 0x0 DUP1 RETURNDATACOPY RETURNDATASIZE PUSH1 0x0 REVERT JUMPDEST POP POP POP POP PUSH1 0x40 MLOAD RETURNDATASIZE PUSH1 0x1F NOT PUSH1 0x1F DUP3 ADD AND DUP3 ADD DUP1 PUSH1 0x40 MSTORE POP DUP2 ADD SWAP1 PUSH2 0x1D23 SWAP2 SWAP1 PUSH2 0x2793 JUMP JUMPDEST POP PUSH1 0x0 PUSH1 0x9 PUSH1 0x0 CALLER PUSH20 0xFFFFFFFFFFFFFFFFFFFFFFFFFFFFFFFFFFFFFFFF AND PUSH20 0xFFFFFFFFFFFFFFFFFFFFFFFFFFFFFFFFFFFFFFFF AND DUP2 MSTORE PUSH1 0x20 ADD SWAP1 DUP2 MSTORE PUSH1 0x20 ADD PUSH1 0x0 KECCAK256 DUP2 SWAP1 SSTORE POP JUMP JUMPDEST PUSH1 0x10 PUSH1 0x0 CALLER PUSH20 0xFFFFFFFFFFFFFFFFFFFFFFFFFFFFFFFFFFFFFFFF AND PUSH20 0xFFFFFFFFFFFFFFFFFFFFFFFFFFFFFFFFFFFFFFFF AND DUP2 MSTORE PUSH1 0x20 ADD SWAP1 DUP2 MSTORE PUSH1 0x20 ADD PUSH1 0x0 KECCAK256 SLOAD PUSH1 0x11 PUSH1 0x0 CALLER PUSH20 0xFFFFFFFFFFFFFFFFFFFFFFFFFFFFFFFFFFFFFFFF AND PUSH20 0xFFFFFFFFFFFFFFFFFFFFFFFFFFFFFFFFFFFFFFFF AND DUP2 MSTORE PUSH1 0x20 ADD SWAP1 DUP2 MSTORE PUSH1 0x20 ADD PUSH1 0x0 KECCAK256 SLOAD TIMESTAMP PUSH2 0x1DF6 SWAP2 SWAP1 PUSH2 0x267F JUMP JUMPDEST LT ISZERO PUSH2 0x1E37 JUMPI PUSH1 0x40 MLOAD PUSH32 0x8C379A000000000000000000000000000000000000000000000000000000000 DUP2 MSTORE PUSH1 0x4 ADD PUSH2 0x1E2E SWAP1 PUSH2 0x2C43 JUMP JUMPDEST PUSH1 0x40 MLOAD DUP1 SWAP2 SUB SWAP1 REVERT JUMPDEST PUSH1 0x0 PUSH1 0xF PUSH1 0x0 CALLER PUSH20 0xFFFFFFFFFFFFFFFFFFFFFFFFFFFFFFFFFFFFFFFF AND PUSH20 0xFFFFFFFFFFFFFFFFFFFFFFFFFFFFFFFFFFFFFFFF AND DUP2 MSTORE PUSH1 0x20 ADD SWAP1 DUP2 MSTORE PUSH1 0x20 ADD PUSH1 0x0 KECCAK256 SLOAD GT PUSH2 0x1EB9 JUMPI PUSH1 0x40 MLOAD PUSH32 0x8C379A000000000000000000000000000000000000000000000000000000000 DUP2 MSTORE PUSH1 0x4 ADD PUSH2 0x1EB0 SWAP1 PUSH2 0x2A93 JUMP JUMPDEST PUSH1 0x40 MLOAD DUP1 SWAP2 SUB SWAP1 REVERT JUMPDEST PUSH1 0x2 PUSH1 0x0 SWAP1 SLOAD SWAP1 PUSH2 0x100 EXP SWAP1 DIV PUSH20 0xFFFFFFFFFFFFFFFFFFFFFFFFFFFFFFFFFFFFFFFF AND PUSH20 0xFFFFFFFFFFFFFFFFFFFFFFFFFFFFFFFFFFFFFFFF AND PUSH4 0xA9059CBB CALLER PUSH1 0xF PUSH1 0x0 CALLER PUSH20 0xFFFFFFFFFFFFFFFFFFFFFFFFFFFFFFFFFFFFFFFF AND PUSH20 0xFFFFFFFFFFFFFFFFFFFFFFFFFFFFFFFFFFFFFFFF AND DUP2 MSTORE PUSH1 0x20 ADD SWAP1 DUP2 MSTORE PUSH1 0x20 ADD PUSH1 0x0 KECCAK256 SLOAD PUSH1 0x40 MLOAD DUP4 PUSH4 0xFFFFFFFF AND PUSH1 0xE0 SHL DUP2 MSTORE PUSH1 0x4 ADD PUSH2 0x1F55 SWAP3 SWAP2 SWAP1 PUSH2 0x2755 JUMP JUMPDEST PUSH1 0x20 PUSH1 0x40 MLOAD DUP1 DUP4 SUB DUP2 PUSH1 0x0 DUP8 GAS CALL ISZERO DUP1 ISZERO PUSH2 0x1F74 JUMPI RETURNDATASIZE PUSH1 0x0 DUP1 RETURNDATACOPY RETURNDATASIZE PUSH1 0x0 REVERT JUMPDEST POP POP POP POP PUSH1 0x40 MLOAD RETURNDATASIZE PUSH1 0x1F NOT PUSH1 0x1F DUP3 ADD AND DUP3 ADD DUP1 PUSH1 0x40 MSTORE POP DUP2 ADD SWAP1 PUSH2 0x1F98 SWAP2 SWAP1 PUSH2 0x2793 JUMP JUMPDEST POP PUSH1 0x0 PUSH1 0xF PUSH1 0x0 CALLER PUSH20 0xFFFFFFFFFFFFFFFFFFFFFFFFFFFFFFFFFFFFFFFF AND PUSH20 0xFFFFFFFFFFFFFFFFFFFFFFFFFFFFFFFFFFFFFFFF AND DUP2 MSTORE PUSH1 0x20 ADD SWAP1 DUP2 MSTORE PUSH1 0x20 ADD PUSH1 0x0 KECCAK256 DUP2 SWAP1 SSTORE POP PUSH1 0x0 PUSH1 0x11 PUSH1 0x0 CALLER PUSH20 0xFFFFFFFFFFFFFFFFFFFFFFFFFFFFFFFFFFFFFFFF AND PUSH20 0xFFFFFFFFFFFFFFFFFFFFFFFFFFFFFFFFFFFFFFFF AND DUP2 MSTORE PUSH1 0x20 ADD SWAP1 DUP2 MSTORE PUSH1 0x20 ADD PUSH1 0x0 KECCAK256 DUP2 SWAP1 SSTORE POP PUSH1 0x0 PUSH1 0x10 PUSH1 0x0 CALLER PUSH20 0xFFFFFFFFFFFFFFFFFFFFFFFFFFFFFFFFFFFFFFFF AND PUSH20 0xFFFFFFFFFFFFFFFFFFFFFFFFFFFFFFFFFFFFFFFF AND DUP2 MSTORE PUSH1 0x20 ADD SWAP1 DUP2 MSTORE PUSH1 0x20 ADD PUSH1 0x0 KECCAK256 DUP2 SWAP1 SSTORE POP JUMP JUMPDEST PUSH1 0x9 PUSH1 0x20 MSTORE DUP1 PUSH1 0x0 MSTORE PUSH1 0x40 PUSH1 0x0 KECCAK256 PUSH1 0x0 SWAP2 POP SWAP1 POP SLOAD DUP2 JUMP JUMPDEST PUSH1 0x0 TIMESTAMP SWAP1 POP SWAP1 JUMP JUMPDEST PUSH1 0xE PUSH1 0x1 SWAP1 SLOAD SWAP1 PUSH2 0x100 EXP SWAP1 DIV PUSH1 0xFF AND DUP2 JUMP JUMPDEST PUSH1 0xC SLOAD DUP2 JUMP JUMPDEST CALLER PUSH20 0xFFFFFFFFFFFFFFFFFFFFFFFFFFFFFFFFFFFFFFFF AND PUSH1 0x0 DUP1 SLOAD SWAP1 PUSH2 0x100 EXP SWAP1 DIV PUSH20 0xFFFFFFFFFFFFFFFFFFFFFFFFFFFFFFFFFFFFFFFF AND PUSH20 0xFFFFFFFFFFFFFFFFFFFFFFFFFFFFFFFFFFFFFFFF AND EQ PUSH2 0x2131 JUMPI PUSH1 0x40 MLOAD PUSH32 0x8C379A000000000000000000000000000000000000000000000000000000000 DUP2 MSTORE PUSH1 0x4 ADD PUSH2 0x2128 SWAP1 PUSH2 0x2630 JUMP JUMPDEST PUSH1 0x40 MLOAD DUP1 SWAP2 SUB SWAP1 REVERT JUMPDEST PUSH1 0x0 PUSH20 0xFFFFFFFFFFFFFFFFFFFFFFFFFFFFFFFFFFFFFFFF AND DUP2 PUSH20 0xFFFFFFFFFFFFFFFFFFFFFFFFFFFFFFFFFFFFFFFF AND SUB PUSH2 0x21A0 JUMPI PUSH1 0x40 MLOAD PUSH32 0x8C379A000000000000000000000000000000000000000000000000000000000 DUP2 MSTORE PUSH1 0x4 ADD PUSH2 0x2197 SWAP1 PUSH2 0x2CAF JUMP JUMPDEST PUSH1 0x40 MLOAD DUP1 SWAP2 SUB SWAP1 REVERT JUMPDEST DUP1 PUSH20 0xFFFFFFFFFFFFFFFFFFFFFFFFFFFFFFFFFFFFFFFF AND PUSH1 0x0 DUP1 SLOAD SWAP1 PUSH2 0x100 EXP SWAP1 DIV PUSH20 0xFFFFFFFFFFFFFFFFFFFFFFFFFFFFFFFFFFFFFFFF AND PUSH20 0xFFFFFFFFFFFFFFFFFFFFFFFFFFFFFFFFFFFFFFFF AND PUSH32 0x8BE0079C531659141344CD1FD0A4F28419497F9722A3DAAFE3B4186F6B6457E0 PUSH1 0x40 MLOAD PUSH1 0x40 MLOAD DUP1 SWAP2 SUB SWAP1 LOG3 DUP1 PUSH1 0x0 DUP1 PUSH2 0x100 EXP DUP2 SLOAD DUP2 PUSH20 0xFFFFFFFFFFFFFFFFFFFFFFFFFFFFFFFFFFFFFFFF MUL NOT AND SWAP1 DUP4 PUSH20 0xFFFFFFFFFFFFFFFFFFFFFFFFFFFFFFFFFFFFFFFF AND MUL OR SWAP1 SSTORE POP POP JUMP JUMPDEST PUSH1 0xE PUSH1 0x0 SWAP1 SLOAD SWAP1 PUSH2 0x100 EXP SWAP1 DIV PUSH1 0xFF AND DUP2 JUMP JUMPDEST PUSH1 0xB SLOAD DUP2 JUMP JUMPDEST PUSH1 0x0 DUP1 REVERT JUMPDEST PUSH1 0x0 DUP2 SWAP1 POP SWAP2 SWAP1 POP JUMP JUMPDEST PUSH2 0x228E DUP2 PUSH2 0x227B JUMP JUMPDEST DUP2 EQ PUSH2 0x2299 JUMPI PUSH1 0x0 DUP1 REVERT JUMPDEST POP JUMP JUMPDEST PUSH1 0x0 DUP2 CALLDATALOAD SWAP1 POP PUSH2 0x22AB DUP2 PUSH2 0x2285 JUMP JUMPDEST SWAP3 SWAP2 POP POP JUMP JUMPDEST PUSH1 0x0 PUSH1 0x20 DUP3 DUP5 SUB SLT ISZERO PUSH2 0x22C7 JUMPI PUSH2 0x22C6 PUSH2 0x2276 JUMP JUMPDEST JUMPDEST PUSH1 0x0 PUSH2 0x22D5 DUP5 DUP3 DUP6 ADD PUSH2 0x229C JUMP JUMPDEST SWAP2 POP POP SWAP3 SWAP2 POP POP JUMP JUMPDEST PUSH1 0x0 PUSH20 0xFFFFFFFFFFFFFFFFFFFFFFFFFFFFFFFFFFFFFFFF DUP3 AND SWAP1 POP SWAP2 SWAP1 POP JUMP JUMPDEST PUSH1 0x0 PUSH2 0x2309 DUP3 PUSH2 0x22DE JUMP JUMPDEST SWAP1 POP SWAP2 SWAP1 POP JUMP JUMPDEST PUSH2 0x2319 DUP2 PUSH2 0x22FE JUMP JUMPDEST DUP2 EQ PUSH2 0x2324 JUMPI PUSH1 0x0 DUP1 REVERT JUMPDEST POP JUMP JUMPDEST PUSH1 0x0 DUP2 CALLDATALOAD SWAP1 POP PUSH2 0x2336 DUP2 PUSH2 0x2310 JUMP JUMPDEST SWAP3 SWAP2 POP POP JUMP JUMPDEST PUSH1 0x0 PUSH1 0x20 DUP3 DUP5 SUB SLT ISZERO PUSH2 0x2352 JUMPI PUSH2 0x2351 PUSH2 0x2276 JUMP JUMPDEST JUMPDEST PUSH1 0x0 PUSH2 0x2360 DUP5 DUP3 DUP6 ADD PUSH2 0x2327 JUMP JUMPDEST SWAP2 POP POP SWAP3 SWAP2 POP POP JUMP JUMPDEST PUSH1 0x0 DUP2 ISZERO ISZERO SWAP1 POP SWAP2 SWAP1 POP JUMP JUMPDEST PUSH2 0x237E DUP2 PUSH2 0x2369 JUMP JUMPDEST DUP3 MSTORE POP POP JUMP JUMPDEST PUSH1 0x0 PUSH1 0x20 DUP3 ADD SWAP1 POP PUSH2 0x2399 PUSH1 0x0 DUP4 ADD DUP5 PUSH2 0x2375 JUMP JUMPDEST SWAP3 SWAP2 POP POP JUMP JUMPDEST PUSH2 0x23A8 DUP2 PUSH2 0x227B JUMP JUMPDEST DUP3 MSTORE POP POP JUMP JUMPDEST PUSH1 0x0 PUSH1 0x20 DUP3 ADD SWAP1 POP PUSH2 0x23C3 PUSH1 0x0 DUP4 ADD DUP5 PUSH2 0x239F JUMP JUMPDEST SWAP3 SWAP2 POP POP JUMP JUMPDEST PUSH2 0x23D2 DUP2 PUSH2 0x22FE JUMP JUMPDEST DUP3 MSTORE POP POP JUMP JUMPDEST PUSH1 0x0 PUSH1 0x20 DUP3 ADD SWAP1 POP PUSH2 0x23ED PUSH1 0x0 DUP4 ADD DUP5 PUSH2 0x23C9 JUMP JUMPDEST SWAP3 SWAP2 POP POP JUMP JUMPDEST PUSH1 0x0 DUP1 PUSH1 0x0 PUSH1 0x60 DUP5 DUP7 SUB SLT ISZERO PUSH2 0x240C JUMPI PUSH2 0x240B PUSH2 0x2276 JUMP JUMPDEST JUMPDEST PUSH1 0x0 PUSH2 0x241A DUP7 DUP3 DUP8 ADD PUSH2 0x2327 JUMP JUMPDEST SWAP4 POP POP PUSH1 0x20 PUSH2 0x242B DUP7 DUP3 DUP8 ADD PUSH2 0x2327 JUMP JUMPDEST SWAP3 POP POP PUSH1 0x40 PUSH2 0x243C DUP7 DUP3 DUP8 ADD PUSH2 0x229C JUMP JUMPDEST SWAP2 POP POP SWAP3 POP SWAP3 POP SWAP3 JUMP JUMPDEST PUSH1 0x0 DUP1 PUSH1 0x0 DUP1 PUSH1 0x0 PUSH1 0xA0 DUP7 DUP9 SUB SLT ISZERO PUSH2 0x2462 JUMPI PUSH2 0x2461 PUSH2 0x2276 JUMP JUMPDEST JUMPDEST PUSH1 0x0 PUSH2 0x2470 DUP9 DUP3 DUP10 ADD PUSH2 0x2327 JUMP JUMPDEST SWAP6 POP POP PUSH1 0x20 PUSH2 0x2481 DUP9 DUP3 DUP10 ADD PUSH2 0x229C JUMP JUMPDEST SWAP5 POP POP PUSH1 0x40 PUSH2 0x2492 DUP9 DUP3 DUP10 ADD PUSH2 0x229C JUMP JUMPDEST SWAP4 POP POP PUSH1 0x60 PUSH2 0x24A3 DUP9 DUP3 DUP10 ADD PUSH2 0x229C JUMP JUMPDEST SWAP3 POP POP PUSH1 0x80 PUSH2 0x24B4 DUP9 DUP3 DUP10 ADD PUSH2 0x229C JUMP JUMPDEST SWAP2 POP POP SWAP3 SWAP6 POP SWAP3 SWAP6 SWAP1 SWAP4 POP JUMP JUMPDEST PUSH1 0x0 DUP1 PUSH1 0x0 PUSH1 0x60 DUP5 DUP7 SUB SLT ISZERO PUSH2 0x24DA JUMPI PUSH2 0x24D9 PUSH2 0x2276 JUMP JUMPDEST JUMPDEST PUSH1 0x0 PUSH2 0x24E8 DUP7 DUP3 DUP8 ADD PUSH2 0x229C JUMP JUMPDEST SWAP4 POP POP PUSH1 0x20 PUSH2 0x24F9 DUP7 DUP3 DUP8 ADD PUSH2 0x2327 JUMP JUMPDEST SWAP3 POP POP PUSH1 0x40 PUSH2 0x250A DUP7 DUP3 DUP8 ADD PUSH2 0x229C JUMP JUMPDEST SWAP2 POP POP SWAP3 POP SWAP3 POP SWAP3 JUMP JUMPDEST PUSH1 0x0 DUP1 PUSH1 0x0 PUSH1 0x60 DUP5 DUP7 SUB SLT ISZERO PUSH2 0x252D JUMPI PUSH2 0x252C PUSH2 0x2276 JUMP JUMPDEST JUMPDEST PUSH1 0x0 PUSH2 0x253B DUP7 DUP3 DUP8 ADD PUSH2 0x229C JUMP JUMPDEST SWAP4 POP POP PUSH1 0x20 PUSH2 0x254C DUP7 DUP3 DUP8 ADD PUSH2 0x229C JUMP JUMPDEST SWAP3 POP POP PUSH1 0x40 PUSH2 0x255D DUP7 DUP3 DUP8 ADD PUSH2 0x229C JUMP JUMPDEST SWAP2 POP POP SWAP3 POP SWAP3 POP SWAP3 JUMP JUMPDEST PUSH2 0x2570 DUP2 PUSH2 0x2369 JUMP JUMPDEST DUP2 EQ PUSH2 0x257B JUMPI PUSH1 0x0 DUP1 REVERT JUMPDEST POP JUMP JUMPDEST PUSH1 0x0 DUP2 CALLDATALOAD SWAP1 POP PUSH2 0x258D DUP2 PUSH2 0x2567 JUMP JUMPDEST SWAP3 SWAP2 POP POP JUMP JUMPDEST PUSH1 0x0 DUP1 PUSH1 0x40 DUP4 DUP6 SUB SLT ISZERO PUSH2 0x25AA JUMPI PUSH2 0x25A9 PUSH2 0x2276 JUMP JUMPDEST JUMPDEST PUSH1 0x0 PUSH2 0x25B8 DUP6 DUP3 DUP7 ADD PUSH2 0x257E JUMP JUMPDEST SWAP3 POP POP PUSH1 0x20 PUSH2 0x25C9 DUP6 DUP3 DUP7 ADD PUSH2 0x257E JUMP JUMPDEST SWAP2 POP POP SWAP3 POP SWAP3 SWAP1 POP JUMP JUMPDEST PUSH1 0x0 DUP3 DUP3 MSTORE PUSH1 0x20 DUP3 ADD SWAP1 POP SWAP3 SWAP2 POP POP JUMP JUMPDEST PUSH32 0x216F776E65720000000000000000000000000000000000000000000000000000 PUSH1 0x0 DUP3 ADD MSTORE POP JUMP JUMPDEST PUSH1 0x0 PUSH2 0x261A PUSH1 0x6 DUP4 PUSH2 0x25D3 JUMP JUMPDEST SWAP2 POP PUSH2 0x2625 DUP3 PUSH2 0x25E4 JUMP JUMPDEST PUSH1 0x20 DUP3 ADD SWAP1 POP SWAP2 SWAP1 POP JUMP JUMPDEST PUSH1 0x0 PUSH1 0x20 DUP3 ADD SWAP1 POP DUP2 DUP2 SUB PUSH1 0x0 DUP4 ADD MSTORE PUSH2 0x2649 DUP2 PUSH2 0x260D JUMP JUMPDEST SWAP1 POP SWAP2 SWAP1 POP JUMP JUMPDEST PUSH32 0x4E487B7100000000000000000000000000000000000000000000000000000000 PUSH1 0x0 MSTORE PUSH1 0x11 PUSH1 0x4 MSTORE PUSH1 0x24 PUSH1 0x0 REVERT JUMPDEST PUSH1 0x0 PUSH2 0x268A DUP3 PUSH2 0x227B JUMP JUMPDEST SWAP2 POP PUSH2 0x2695 DUP4 PUSH2 0x227B JUMP JUMPDEST SWAP3 POP DUP3 DUP3 SUB SWAP1 POP DUP2 DUP2 GT ISZERO PUSH2 0x26AD JUMPI PUSH2 0x26AC PUSH2 0x2650 JUMP JUMPDEST JUMPDEST SWAP3 SWAP2 POP POP JUMP JUMPDEST PUSH1 0x0 PUSH2 0x26BE DUP3 PUSH2 0x227B JUMP JUMPDEST SWAP2 POP PUSH2 0x26C9 DUP4 PUSH2 0x227B JUMP JUMPDEST SWAP3 POP DUP3 DUP3 MUL PUSH2 0x26D7 DUP2 PUSH2 0x227B JUMP JUMPDEST SWAP2 POP DUP3 DUP3 DIV DUP5 EQ DUP4 ISZERO OR PUSH2 0x26EE JUMPI PUSH2 0x26ED PUSH2 0x2650 JUMP JUMPDEST JUMPDEST POP SWAP3 SWAP2 POP POP JUMP JUMPDEST PUSH32 0x4E487B7100000000000000000000000000000000000000000000000000000000 PUSH1 0x0 MSTORE PUSH1 0x12 PUSH1 0x4 MSTORE PUSH1 0x24 PUSH1 0x0 REVERT JUMPDEST PUSH1 0x0 PUSH2 0x272F DUP3 PUSH2 0x227B JUMP JUMPDEST SWAP2 POP PUSH2 0x273A DUP4 PUSH2 0x227B JUMP JUMPDEST SWAP3 POP DUP3 PUSH2 0x274A JUMPI PUSH2 0x2749 PUSH2 0x26F5 JUMP JUMPDEST JUMPDEST DUP3 DUP3 DIV SWAP1 POP SWAP3 SWAP2 POP POP JUMP JUMPDEST PUSH1 0x0 PUSH1 0x40 DUP3 ADD SWAP1 POP PUSH2 0x276A PUSH1 0x0 DUP4 ADD DUP6 PUSH2 0x23C9 JUMP JUMPDEST PUSH2 0x2777 PUSH1 0x20 DUP4 ADD DUP5 PUSH2 0x239F JUMP JUMPDEST SWAP4 SWAP3 POP POP POP JUMP JUMPDEST PUSH1 0x0 DUP2 MLOAD SWAP1 POP PUSH2 0x278D DUP2 PUSH2 0x2567 JUMP JUMPDEST SWAP3 SWAP2 POP POP JUMP JUMPDEST PUSH1 0x0 PUSH1 0x20 DUP3 DUP5 SUB SLT ISZERO PUSH2 0x27A9 JUMPI PUSH2 0x27A8 PUSH2 0x2276 JUMP JUMPDEST JUMPDEST PUSH1 0x0 PUSH2 0x27B7 DUP5 DUP3 DUP6 ADD PUSH2 0x277E JUMP JUMPDEST SWAP2 POP POP SWAP3 SWAP2 POP POP JUMP JUMPDEST PUSH32 0x6E6F742073746172740000000000000000000000000000000000000000000000 PUSH1 0x0 DUP3 ADD MSTORE POP JUMP JUMPDEST PUSH1 0x0 PUSH2 0x27F6 PUSH1 0x9 DUP4 PUSH2 0x25D3 JUMP JUMPDEST SWAP2 POP PUSH2 0x2801 DUP3 PUSH2 0x27C0 JUMP JUMPDEST PUSH1 0x20 DUP3 ADD SWAP1 POP SWAP2 SWAP1 POP JUMP JUMPDEST PUSH1 0x0 PUSH1 0x20 DUP3 ADD SWAP1 POP DUP2 DUP2 SUB PUSH1 0x0 DUP4 ADD MSTORE PUSH2 0x2825 DUP2 PUSH2 0x27E9 JUMP JUMPDEST SWAP1 POP SWAP2 SWAP1 POP JUMP JUMPDEST PUSH32 0x696E76697465722063616E742062792073656C66000000000000000000000000 PUSH1 0x0 DUP3 ADD MSTORE POP JUMP JUMPDEST PUSH1 0x0 PUSH2 0x2862 PUSH1 0x14 DUP4 PUSH2 0x25D3 JUMP JUMPDEST SWAP2 POP PUSH2 0x286D DUP3 PUSH2 0x282C JUMP JUMPDEST PUSH1 0x20 DUP3 ADD SWAP1 POP SWAP2 SWAP1 POP JUMP JUMPDEST PUSH1 0x0 PUSH1 0x20 DUP3 ADD SWAP1 POP DUP2 DUP2 SUB PUSH1 0x0 DUP4 ADD MSTORE PUSH2 0x2891 DUP2 PUSH2 0x2855 JUMP JUMPDEST SWAP1 POP SWAP2 SWAP1 POP JUMP JUMPDEST PUSH32 0x616C7265616479207374616B6500000000000000000000000000000000000000 PUSH1 0x0 DUP3 ADD MSTORE POP JUMP JUMPDEST PUSH1 0x0 PUSH2 0x28CE PUSH1 0xD DUP4 PUSH2 0x25D3 JUMP JUMPDEST SWAP2 POP PUSH2 0x28D9 DUP3 PUSH2 0x2898 JUMP JUMPDEST PUSH1 0x20 DUP3 ADD SWAP1 POP SWAP2 SWAP1 POP JUMP JUMPDEST PUSH1 0x0 PUSH1 0x20 DUP3 ADD SWAP1 POP DUP2 DUP2 SUB PUSH1 0x0 DUP4 ADD MSTORE PUSH2 0x28FD DUP2 PUSH2 0x28C1 JUMP JUMPDEST SWAP1 POP SWAP2 SWAP1 POP JUMP JUMPDEST PUSH32 0x7A65726F207374616B6500000000000000000000000000000000000000000000 PUSH1 0x0 DUP3 ADD MSTORE POP JUMP JUMPDEST PUSH1 0x0 PUSH2 0x293A PUSH1 0xA DUP4 PUSH2 0x25D3 JUMP JUMPDEST SWAP2 POP PUSH2 0x2945 DUP3 PUSH2 0x2904 JUMP JUMPDEST PUSH1 0x20 DUP3 ADD SWAP1 POP SWAP2 SWAP1 POP JUMP JUMPDEST PUSH1 0x0 PUSH1 0x20 DUP3 ADD SWAP1 POP DUP2 DUP2 SUB PUSH1 0x0 DUP4 ADD MSTORE PUSH2 0x2969 DUP2 PUSH2 0x292D JUMP JUMPDEST SWAP1 POP SWAP2 SWAP1 POP JUMP JUMPDEST PUSH32 0x6E6F742072696768742074696D65000000000000000000000000000000000000 PUSH1 0x0 DUP3 ADD MSTORE POP JUMP JUMPDEST PUSH1 0x0 PUSH2 0x29A6 PUSH1 0xE DUP4 PUSH2 0x25D3 JUMP JUMPDEST SWAP2 POP PUSH2 0x29B1 DUP3 PUSH2 0x2970 JUMP JUMPDEST PUSH1 0x20 DUP3 ADD SWAP1 POP SWAP2 SWAP1 POP JUMP JUMPDEST PUSH1 0x0 PUSH1 0x20 DUP3 ADD SWAP1 POP DUP2 DUP2 SUB PUSH1 0x0 DUP4 ADD MSTORE PUSH2 0x29D5 DUP2 PUSH2 0x2999 JUMP JUMPDEST SWAP1 POP SWAP2 SWAP1 POP JUMP JUMPDEST PUSH1 0x0 PUSH2 0x29E7 DUP3 PUSH2 0x227B JUMP JUMPDEST SWAP2 POP PUSH2 0x29F2 DUP4 PUSH2 0x227B JUMP JUMPDEST SWAP3 POP DUP3 DUP3 ADD SWAP1 POP DUP1 DUP3 GT ISZERO PUSH2 0x2A0A JUMPI PUSH2 0x2A09 PUSH2 0x2650 JUMP JUMPDEST JUMPDEST SWAP3 SWAP2 POP POP JUMP JUMPDEST PUSH1 0x0 PUSH1 0x60 DUP3 ADD SWAP1 POP PUSH2 0x2A25 PUSH1 0x0 DUP4 ADD DUP7 PUSH2 0x23C9 JUMP JUMPDEST PUSH2 0x2A32 PUSH1 0x20 DUP4 ADD DUP6 PUSH2 0x23C9 JUMP JUMPDEST PUSH2 0x2A3F PUSH1 0x40 DUP4 ADD DUP5 PUSH2 0x239F JUMP JUMPDEST SWAP5 SWAP4 POP POP POP POP JUMP JUMPDEST PUSH32 0x6E6F74207374616B650000000000000000000000000000000000000000000000 PUSH1 0x0 DUP3 ADD MSTORE POP JUMP JUMPDEST PUSH1 0x0 PUSH2 0x2A7D PUSH1 0x9 DUP4 PUSH2 0x25D3 JUMP JUMPDEST SWAP2 POP PUSH2 0x2A88 DUP3 PUSH2 0x2A47 JUMP JUMPDEST PUSH1 0x20 DUP3 ADD SWAP1 POP SWAP2 SWAP1 POP JUMP JUMPDEST PUSH1 0x0 PUSH1 0x20 DUP3 ADD SWAP1 POP DUP2 DUP2 SUB PUSH1 0x0 DUP4 ADD MSTORE PUSH2 0x2AAC DUP2 PUSH2 0x2A70 JUMP JUMPDEST SWAP1 POP SWAP2 SWAP1 POP JUMP JUMPDEST PUSH32 0x7573657220697320696E20626C61636B6C697374000000000000000000000000 PUSH1 0x0 DUP3 ADD MSTORE POP JUMP JUMPDEST PUSH1 0x0 PUSH2 0x2AE9 PUSH1 0x14 DUP4 PUSH2 0x25D3 JUMP JUMPDEST SWAP2 POP PUSH2 0x2AF4 DUP3 PUSH2 0x2AB3 JUMP JUMPDEST PUSH1 0x20 DUP3 ADD SWAP1 POP SWAP2 SWAP1 POP JUMP JUMPDEST PUSH1 0x0 PUSH1 0x20 DUP3 ADD SWAP1 POP DUP2 DUP2 SUB PUSH1 0x0 DUP4 ADD MSTORE PUSH2 0x2B18 DUP2 PUSH2 0x2ADC JUMP JUMPDEST SWAP1 POP SWAP2 SWAP1 POP JUMP JUMPDEST PUSH32 0x616C726561647920636C61696D65640000000000000000000000000000000000 PUSH1 0x0 DUP3 ADD MSTORE POP JUMP JUMPDEST PUSH1 0x0 PUSH2 0x2B55 PUSH1 0xF DUP4 PUSH2 0x25D3 JUMP JUMPDEST SWAP2 POP PUSH2 0x2B60 DUP3 PUSH2 0x2B1F JUMP JUMPDEST PUSH1 0x20 DUP3 ADD SWAP1 POP SWAP2 SWAP1 POP JUMP JUMPDEST PUSH1 0x0 PUSH1 0x20 DUP3 ADD SWAP1 POP DUP2 DUP2 SUB PUSH1 0x0 DUP4 ADD MSTORE PUSH2 0x2B84 DUP2 PUSH2 0x2B48 JUMP JUMPDEST SWAP1 POP SWAP2 SWAP1 POP JUMP JUMPDEST PUSH32 0x6E6F207265776172640000000000000000000000000000000000000000000000 PUSH1 0x0 DUP3 ADD MSTORE POP JUMP JUMPDEST PUSH1 0x0 PUSH2 0x2BC1 PUSH1 0x9 DUP4 PUSH2 0x25D3 JUMP JUMPDEST SWAP2 POP PUSH2 0x2BCC DUP3 PUSH2 0x2B8B JUMP JUMPDEST PUSH1 0x20 DUP3 ADD SWAP1 POP SWAP2 SWAP1 POP JUMP JUMPDEST PUSH1 0x0 PUSH1 0x20 DUP3 ADD SWAP1 POP DUP2 DUP2 SUB PUSH1 0x0 DUP4 ADD MSTORE PUSH2 0x2BF0 DUP2 PUSH2 0x2BB4 JUMP JUMPDEST SWAP1 POP SWAP2 SWAP1 POP JUMP JUMPDEST PUSH32 0x6E6F742074696D65000000000000000000000000000000000000000000000000 PUSH1 0x0 DUP3 ADD MSTORE POP JUMP JUMPDEST PUSH1 0x0 PUSH2 0x2C2D PUSH1 0x8 DUP4 PUSH2 0x25D3 JUMP JUMPDEST SWAP2 POP PUSH2 0x2C38 DUP3 PUSH2 0x2BF7 JUMP JUMPDEST PUSH1 0x20 DUP3 ADD SWAP1 POP SWAP2 SWAP1 POP JUMP JUMPDEST PUSH1 0x0 PUSH1 0x20 DUP3 ADD SWAP1 POP DUP2 DUP2 SUB PUSH1 0x0 DUP4 ADD MSTORE PUSH2 0x2C5C DUP2 PUSH2 0x2C20 JUMP JUMPDEST SWAP1 POP SWAP2 SWAP1 POP JUMP JUMPDEST PUSH32 0x6E65772069732030000000000000000000000000000000000000000000000000 PUSH1 0x0 DUP3 ADD MSTORE POP JUMP JUMPDEST PUSH1 0x0 PUSH2 0x2C99 PUSH1 0x8 DUP4 PUSH2 0x25D3 JUMP JUMPDEST SWAP2 POP PUSH2 0x2CA4 DUP3 PUSH2 0x2C63 JUMP JUMPDEST PUSH1 0x20 DUP3 ADD SWAP1 POP SWAP2 SWAP1 POP JUMP JUMPDEST PUSH1 0x0 PUSH1 0x20 DUP3 ADD SWAP1 POP DUP2 DUP2 SUB PUSH1 0x0 DUP4 ADD MSTORE PUSH2 0x2CC8 DUP2 PUSH2 0x2C8C JUMP JUMPDEST SWAP1 POP SWAP2 SWAP1 POP JUMP INVALID LOG2 PUSH5 0x6970667358 0x22 SLT KECCAK256 CREATE2 SWAP5 SELFDESTRUCT AND 0xE7 0x5D 0xB7 0xC9 ADDRESS 0xCD SELFBALANCE 0x1F PUSH32 0xE8C1AB6444755519C0F1D0F19E394D162385D64736F6C634300081300330000 "
				},
				"gasEstimates": {
					"creation": {
						"codeDepositCost": "2305000",
						"executionCost": "infinite",
						"totalCost": "infinite"
					},
					"external": {
						"_1per()": "2541",
						"_inviteNum(address)": "2882",
						"_inviteReward()": "2475",
						"_inviterMap(address)": "infinite",
						"_inviterReward(address)": "2925",
						"_rewardToken()": "2559",
						"_stake1()": "2540",
						"_stake1pure()": "2561",
						"_stake3()": "2475",
						"_stake3pure()": "2495",
						"_stake5()": "2475",
						"_stake5pure()": "2474",
						"_stakeToken()": "2603",
						"_userBlacklist(address)": "2936",
						"_userLastClaimTime(address)": "2947",
						"_userStake(address)": "2859",
						"_userStakeStartTime(address)": "2927",
						"_userStakeTime(address)": "2903",
						"cancalStack()": "infinite",
						"claimReward()": "infinite",
						"claimStakeReward()": "infinite",
						"getBlockNow()": "469",
						"getUserStakeTotalTime(address)": "infinite",
						"isClaimStart()": "2565",
						"isStakeStart()": "2581",
						"owner()": "2612",
						"ownerClaimToken(address,address,uint256)": "infinite",
						"ownerSetUser(address,uint256,uint256,uint256,uint256)": "infinite",
						"pureAmount(address)": "infinite",
						"set1per(uint256)": "24777",
						"setInviteReward(uint256)": "24734",
						"setRewardToken(address)": "26957",
						"setStakePure(uint256,uint256,uint256)": "infinite",
						"setStakeToken(address)": "26958",
						"setStatus(bool,bool)": "infinite",
						"stake(uint256,address,uint256)": "infinite",
						"transferOwnership(address)": "30690"
					}
				},
				"methodIdentifiers": {
					"_1per()": "97c29f3a",
					"_inviteNum(address)": "1896b2c4",
					"_inviteReward()": "3b9ea3a9",
					"_inviterMap(address)": "264edc1d",
					"_inviterReward(address)": "dd8158e0",
					"_rewardToken()": "b59c6e0e",
					"_stake1()": "a6b14d5a",
					"_stake1pure()": "f67256b8",
					"_stake3()": "853e03e5",
					"_stake3pure()": "ebb1bce8",
					"_stake5()": "18883877",
					"_stake5pure()": "6dd906ee",
					"_stakeToken()": "71ddda57",
					"_userBlacklist(address)": "115a972e",
					"_userLastClaimTime(address)": "7929e29f",
					"_userStake(address)": "9805fa74",
					"_userStakeStartTime(address)": "16c259e1",
					"_userStakeTime(address)": "a041e172",
					"cancalStack()": "d02da761",
					"claimReward()": "b88a802f",
					"claimStakeReward()": "9fd3af8b",
					"getBlockNow()": "e15579e6",
					"getUserStakeTotalTime(address)": "212b8247",
					"isClaimStart()": "e650d293",
					"isStakeStart()": "f3ef99bc",
					"owner()": "8da5cb5b",
					"ownerClaimToken(address,address,uint256)": "415c31ef",
					"ownerSetUser(address,uint256,uint256,uint256,uint256)": "6bc802e7",
					"pureAmount(address)": "29dc425f",
					"set1per(uint256)": "68b8642f",
					"setInviteReward(uint256)": "01689677",
					"setRewardToken(address)": "8aee8127",
					"setStakePure(uint256,uint256,uint256)": "774cde3b",
					"setStakeToken(address)": "0397d458",
					"setStatus(bool,bool)": "b3c2eac1",
					"stake(uint256,address,uint256)": "6e9c931c",
					"transferOwnership(address)": "f2fde38b"
				}
			},
			"storageLayout": {
				"storage": [
					{
						"astId": 85,
						"contract": "contracts/stake.sol:Stake",
						"label": "_owner",
						"offset": 0,
						"slot": "0",
						"type": "t_address"
					},
					{
						"astId": 282,
						"contract": "contracts/stake.sol:Stake",
						"label": "_rewardToken",
						"offset": 0,
						"slot": "1",
						"type": "t_address"
					},
					{
						"astId": 285,
						"contract": "contracts/stake.sol:Stake",
						"label": "_stakeToken",
						"offset": 0,
						"slot": "2",
						"type": "t_address"
					},
					{
						"astId": 292,
						"contract": "contracts/stake.sol:Stake",
						"label": "_stake1",
						"offset": 0,
						"slot": "3",
						"type": "t_uint256"
					},
					{
						"astId": 299,
						"contract": "contracts/stake.sol:Stake",
						"label": "_stake3",
						"offset": 0,
						"slot": "4",
						"type": "t_uint256"
					},
					{
						"astId": 306,
						"contract": "contracts/stake.sol:Stake",
						"label": "_stake5",
						"offset": 0,
						"slot": "5",
						"type": "t_uint256"
					},
					{
						"astId": 315,
						"contract": "contracts/stake.sol:Stake",
						"label": "_1per",
						"offset": 0,
						"slot": "6",
						"type": "t_uint256"
					},
					{
						"astId": 320,
						"contract": "contracts/stake.sol:Stake",
						"label": "_inviteReward",
						"offset": 0,
						"slot": "7",
						"type": "t_uint256"
					},
					{
						"astId": 324,
						"contract": "contracts/stake.sol:Stake",
						"label": "_inviterMap",
						"offset": 0,
						"slot": "8",
						"type": "t_mapping(t_address,t_address)"
					},
					{
						"astId": 328,
						"contract": "contracts/stake.sol:Stake",
						"label": "_inviterReward",
						"offset": 0,
						"slot": "9",
						"type": "t_mapping(t_address,t_uint256)"
					},
					{
						"astId": 332,
						"contract": "contracts/stake.sol:Stake",
						"label": "_inviteNum",
						"offset": 0,
						"slot": "10",
						"type": "t_mapping(t_address,t_uint256)"
					},
					{
						"astId": 339,
						"contract": "contracts/stake.sol:Stake",
						"label": "_stake1pure",
						"offset": 0,
						"slot": "11",
						"type": "t_uint256"
					},
					{
						"astId": 348,
						"contract": "contracts/stake.sol:Stake",
						"label": "_stake3pure",
						"offset": 0,
						"slot": "12",
						"type": "t_uint256"
					},
					{
						"astId": 357,
						"contract": "contracts/stake.sol:Stake",
						"label": "_stake5pure",
						"offset": 0,
						"slot": "13",
						"type": "t_uint256"
					},
					{
						"astId": 360,
						"contract": "contracts/stake.sol:Stake",
						"label": "isStakeStart",
						"offset": 0,
						"slot": "14",
						"type": "t_bool"
					},
					{
						"astId": 363,
						"contract": "contracts/stake.sol:Stake",
						"label": "isClaimStart",
						"offset": 1,
						"slot": "14",
						"type": "t_bool"
					},
					{
						"astId": 367,
						"contract": "contracts/stake.sol:Stake",
						"label": "_userStake",
						"offset": 0,
						"slot": "15",
						"type": "t_mapping(t_address,t_uint256)"
					},
					{
						"astId": 371,
						"contract": "contracts/stake.sol:Stake",
						"label": "_userStakeTime",
						"offset": 0,
						"slot": "16",
						"type": "t_mapping(t_address,t_uint256)"
					},
					{
						"astId": 375,
						"contract": "contracts/stake.sol:Stake",
						"label": "_userStakeStartTime",
						"offset": 0,
						"slot": "17",
						"type": "t_mapping(t_address,t_uint256)"
					},
					{
						"astId": 379,
						"contract": "contracts/stake.sol:Stake",
						"label": "_userLastClaimTime",
						"offset": 0,
						"slot": "18",
						"type": "t_mapping(t_address,t_uint256)"
					},
					{
						"astId": 383,
						"contract": "contracts/stake.sol:Stake",
						"label": "_userBlacklist",
						"offset": 0,
						"slot": "19",
						"type": "t_mapping(t_address,t_bool)"
					}
				],
				"types": {
					"t_address": {
						"encoding": "inplace",
						"label": "address",
						"numberOfBytes": "20"
					},
					"t_bool": {
						"encoding": "inplace",
						"label": "bool",
						"numberOfBytes": "1"
					},
					"t_mapping(t_address,t_address)": {
						"encoding": "mapping",
						"key": "t_address",
						"label": "mapping(address => address)",
						"numberOfBytes": "32",
						"value": "t_address"
					},
					"t_mapping(t_address,t_bool)": {
						"encoding": "mapping",
						"key": "t_address",
						"label": "mapping(address => bool)",
						"numberOfBytes": "32",
						"value": "t_bool"
					},
					"t_mapping(t_address,t_uint256)": {
						"encoding": "mapping",
						"key": "t_address",
						"label": "mapping(address => uint256)",
						"numberOfBytes": "32",
						"value": "t_uint256"
					},
					"t_uint256": {
						"encoding": "inplace",
						"label": "uint256",
						"numberOfBytes": "32"
					}
				}
			},
			"userdoc": {
				"kind": "user",
				"methods": {},
				"version": 1
			}
		}
	}
}