{
	"contracts/ebc/Copy_TransparentProxy.sol": {
		"TransparentProxy": {
			"abi": [
				{
					"inputs": [
						{
							"internalType": "address",
							"name": "_implementation",
							"type": "address"
						}
					],
					"stateMutability": "nonpayable",
					"type": "constructor"
				},
				{
					"stateMutability": "payable",
					"type": "fallback"
				},
				{
					"inputs": [],
					"name": "selector",
					"outputs": [
						{
							"internalType": "bytes",
							"name": "",
							"type": "bytes"
						}
					],
					"stateMutability": "view",
					"type": "function"
				},
				{
					"inputs": [
						{
							"internalType": "address",
							"name": "newImplementation",
							"type": "address"
						}
					],
					"name": "upgrade",
					"outputs": [],
					"stateMutability": "nonpayable",
					"type": "function"
				},
				{
					"inputs": [],
					"name": "words",
					"outputs": [
						{
							"internalType": "string",
							"name": "",
							"type": "string"
						}
					],
					"stateMutability": "view",
					"type": "function"
				}
			],
			"devdoc": {
				"kind": "dev",
				"methods": {},
				"version": 1
			},
			"evm": {
				"assembly": "    /* \"contracts/ebc/Copy_TransparentProxy.sol\":610:1589  contract TransparentProxy {... */\n  mstore(0x40, 0x80)\n    /* \"contracts/ebc/Copy_TransparentProxy.sol\":896:1066  constructor(address _implementation){... */\n  callvalue\n  dup1\n  iszero\n  tag_1\n  jumpi\n  0x00\n  dup1\n  revert\ntag_1:\n  pop\n  mload(0x40)\n  sub(codesize, bytecodeSize)\n  dup1\n  bytecodeSize\n  dup4\n  codecopy\n  dup2\n  dup2\n  add\n  0x40\n  mstore\n  dup2\n  add\n  swap1\n  tag_2\n  swap2\n  swap1\n  tag_3\n  jump\t// in\ntag_2:\n    /* \"contracts/ebc/Copy_TransparentProxy.sol\":951:961  msg.sender */\n  caller\n    /* \"contracts/ebc/Copy_TransparentProxy.sol\":943:948  admin */\n  0x01\n  0x00\n    /* \"contracts/ebc/Copy_TransparentProxy.sol\":943:961  admin = msg.sender */\n  0x0100\n  exp\n  dup2\n  sload\n  dup2\n  0xffffffffffffffffffffffffffffffffffffffff\n  mul\n  not\n  and\n  swap1\n  dup4\n  0xffffffffffffffffffffffffffffffffffffffff\n  and\n  mul\n  or\n  swap1\n  sstore\n  pop\n    /* \"contracts/ebc/Copy_TransparentProxy.sol\":989:1004  _implementation */\n  dup1\n    /* \"contracts/ebc/Copy_TransparentProxy.sol\":972:986  implementation */\n  0x00\n  dup1\n    /* \"contracts/ebc/Copy_TransparentProxy.sol\":972:1004  implementation = _implementation */\n  0x0100\n  exp\n  dup2\n  sload\n  dup2\n  0xffffffffffffffffffffffffffffffffffffffff\n  mul\n  not\n  and\n  swap1\n  dup4\n  0xffffffffffffffffffffffffffffffffffffffff\n  and\n  mul\n  or\n  swap1\n  sstore\n  pop\n    /* \"contracts/ebc/Copy_TransparentProxy.sol\":1024:1056  abi.encodeWithSignature(\"foo()\") */\n  add(0x24, mload(0x40))\n  mload(0x40)\n  0x20\n  dup2\n  dup4\n  sub\n  sub\n  dup2\n  mstore\n  swap1\n  0x40\n  mstore\n  and(not(0xffffffffffffffffffffffffffffffffffffffffffffffffffffffff), 0xc298557800000000000000000000000000000000000000000000000000000000)\n  0x20\n  dup3\n  add\n  dup1\n  mload\n  0xffffffffffffffffffffffffffffffffffffffffffffffffffffffff\n  dup4\n  dup2\n  dup4\n  and\n  or\n  dup4\n  mstore\n  pop\n  pop\n  pop\n  pop\n    /* \"contracts/ebc/Copy_TransparentProxy.sol\":1015:1023  selector */\n  0x03\n    /* \"contracts/ebc/Copy_TransparentProxy.sol\":1015:1056  selector=abi.encodeWithSignature(\"foo()\") */\n  swap1\n  dup2\n  tag_6\n  swap2\n  swap1\n  tag_7\n  jump\t// in\ntag_6:\n  pop\n    /* \"contracts/ebc/Copy_TransparentProxy.sol\":896:1066  constructor(address _implementation){... */\n  pop\n    /* \"contracts/ebc/Copy_TransparentProxy.sol\":610:1589  contract TransparentProxy {... */\n  jump(tag_8)\n    /* \"#utility.yul\":88:205   */\ntag_10:\n    /* \"#utility.yul\":197:198   */\n  0x00\n    /* \"#utility.yul\":194:195   */\n  dup1\n    /* \"#utility.yul\":187:199   */\n  revert\n    /* \"#utility.yul\":334:460   */\ntag_12:\n    /* \"#utility.yul\":371:378   */\n  0x00\n    /* \"#utility.yul\":411:453   */\n  0xffffffffffffffffffffffffffffffffffffffff\n    /* \"#utility.yul\":404:409   */\n  dup3\n    /* \"#utility.yul\":400:454   */\n  and\n    /* \"#utility.yul\":389:454   */\n  swap1\n  pop\n    /* \"#utility.yul\":334:460   */\n  swap2\n  swap1\n  pop\n  jump\t// out\n    /* \"#utility.yul\":466:562   */\ntag_13:\n    /* \"#utility.yul\":503:510   */\n  0x00\n    /* \"#utility.yul\":532:556   */\n  tag_42\n    /* \"#utility.yul\":550:555   */\n  dup3\n    /* \"#utility.yul\":532:556   */\n  tag_12\n  jump\t// in\ntag_42:\n    /* \"#utility.yul\":521:556   */\n  swap1\n  pop\n    /* \"#utility.yul\":466:562   */\n  swap2\n  swap1\n  pop\n  jump\t// out\n    /* \"#utility.yul\":568:690   */\ntag_14:\n    /* \"#utility.yul\":641:665   */\n  tag_44\n    /* \"#utility.yul\":659:664   */\n  dup2\n    /* \"#utility.yul\":641:665   */\n  tag_13\n  jump\t// in\ntag_44:\n    /* \"#utility.yul\":634:639   */\n  dup2\n    /* \"#utility.yul\":631:666   */\n  eq\n    /* \"#utility.yul\":621:684   */\n  tag_45\n  jumpi\n    /* \"#utility.yul\":680:681   */\n  0x00\n    /* \"#utility.yul\":677:678   */\n  dup1\n    /* \"#utility.yul\":670:682   */\n  revert\n    /* \"#utility.yul\":621:684   */\ntag_45:\n    /* \"#utility.yul\":568:690   */\n  pop\n  jump\t// out\n    /* \"#utility.yul\":696:839   */\ntag_15:\n    /* \"#utility.yul\":753:758   */\n  0x00\n    /* \"#utility.yul\":784:790   */\n  dup2\n    /* \"#utility.yul\":778:791   */\n  mload\n    /* \"#utility.yul\":769:791   */\n  swap1\n  pop\n    /* \"#utility.yul\":800:833   */\n  tag_47\n    /* \"#utility.yul\":827:832   */\n  dup2\n    /* \"#utility.yul\":800:833   */\n  tag_14\n  jump\t// in\ntag_47:\n    /* \"#utility.yul\":696:839   */\n  swap3\n  swap2\n  pop\n  pop\n  jump\t// out\n    /* \"#utility.yul\":845:1196   */\ntag_3:\n    /* \"#utility.yul\":915:921   */\n  0x00\n    /* \"#utility.yul\":964:966   */\n  0x20\n    /* \"#utility.yul\":952:961   */\n  dup3\n    /* \"#utility.yul\":943:950   */\n  dup5\n    /* \"#utility.yul\":939:962   */\n  sub\n    /* \"#utility.yul\":935:967   */\n  slt\n    /* \"#utility.yul\":932:1051   */\n  iszero\n  tag_49\n  jumpi\n    /* \"#utility.yul\":970:1049   */\n  tag_50\n  tag_10\n  jump\t// in\ntag_50:\n    /* \"#utility.yul\":932:1051   */\ntag_49:\n    /* \"#utility.yul\":1090:1091   */\n  0x00\n    /* \"#utility.yul\":1115:1179   */\n  tag_51\n    /* \"#utility.yul\":1171:1178   */\n  dup5\n    /* \"#utility.yul\":1162:1168   */\n  dup3\n    /* \"#utility.yul\":1151:1160   */\n  dup6\n    /* \"#utility.yul\":1147:1169   */\n  add\n    /* \"#utility.yul\":1115:1179   */\n  tag_15\n  jump\t// in\ntag_51:\n    /* \"#utility.yul\":1105:1179   */\n  swap2\n  pop\n    /* \"#utility.yul\":1061:1189   */\n  pop\n    /* \"#utility.yul\":845:1196   */\n  swap3\n  swap2\n  pop\n  pop\n  jump\t// out\n    /* \"#utility.yul\":1202:1300   */\ntag_16:\n    /* \"#utility.yul\":1253:1259   */\n  0x00\n    /* \"#utility.yul\":1287:1292   */\n  dup2\n    /* \"#utility.yul\":1281:1293   */\n  mload\n    /* \"#utility.yul\":1271:1293   */\n  swap1\n  pop\n    /* \"#utility.yul\":1202:1300   */\n  swap2\n  swap1\n  pop\n  jump\t// out\n    /* \"#utility.yul\":1306:1486   */\ntag_17:\n    /* \"#utility.yul\":1354:1431   */\n  0x4e487b7100000000000000000000000000000000000000000000000000000000\n    /* \"#utility.yul\":1351:1352   */\n  0x00\n    /* \"#utility.yul\":1344:1432   */\n  mstore\n    /* \"#utility.yul\":1451:1455   */\n  0x41\n    /* \"#utility.yul\":1448:1449   */\n  0x04\n    /* \"#utility.yul\":1441:1456   */\n  mstore\n    /* \"#utility.yul\":1475:1479   */\n  0x24\n    /* \"#utility.yul\":1472:1473   */\n  0x00\n    /* \"#utility.yul\":1465:1480   */\n  revert\n    /* \"#utility.yul\":1492:1672   */\ntag_18:\n    /* \"#utility.yul\":1540:1617   */\n  0x4e487b7100000000000000000000000000000000000000000000000000000000\n    /* \"#utility.yul\":1537:1538   */\n  0x00\n    /* \"#utility.yul\":1530:1618   */\n  mstore\n    /* \"#utility.yul\":1637:1641   */\n  0x22\n    /* \"#utility.yul\":1634:1635   */\n  0x04\n    /* \"#utility.yul\":1627:1642   */\n  mstore\n    /* \"#utility.yul\":1661:1665   */\n  0x24\n    /* \"#utility.yul\":1658:1659   */\n  0x00\n    /* \"#utility.yul\":1651:1666   */\n  revert\n    /* \"#utility.yul\":1678:1998   */\ntag_19:\n    /* \"#utility.yul\":1722:1728   */\n  0x00\n    /* \"#utility.yul\":1759:1760   */\n  0x02\n    /* \"#utility.yul\":1753:1757   */\n  dup3\n    /* \"#utility.yul\":1749:1761   */\n  div\n    /* \"#utility.yul\":1739:1761   */\n  swap1\n  pop\n    /* \"#utility.yul\":1806:1807   */\n  0x01\n    /* \"#utility.yul\":1800:1804   */\n  dup3\n    /* \"#utility.yul\":1796:1808   */\n  and\n    /* \"#utility.yul\":1827:1845   */\n  dup1\n    /* \"#utility.yul\":1817:1898   */\n  tag_56\n  jumpi\n    /* \"#utility.yul\":1883:1887   */\n  0x7f\n    /* \"#utility.yul\":1875:1881   */\n  dup3\n    /* \"#utility.yul\":1871:1888   */\n  and\n    /* \"#utility.yul\":1861:1888   */\n  swap2\n  pop\n    /* \"#utility.yul\":1817:1898   */\ntag_56:\n    /* \"#utility.yul\":1945:1947   */\n  0x20\n    /* \"#utility.yul\":1937:1943   */\n  dup3\n    /* \"#utility.yul\":1934:1948   */\n  lt\n    /* \"#utility.yul\":1914:1932   */\n  dup2\n    /* \"#utility.yul\":1911:1949   */\n  sub\n    /* \"#utility.yul\":1908:1992   */\n  tag_57\n  jumpi\n    /* \"#utility.yul\":1964:1982   */\n  tag_58\n  tag_18\n  jump\t// in\ntag_58:\n    /* \"#utility.yul\":1908:1992   */\ntag_57:\n    /* \"#utility.yul\":1729:1998   */\n  pop\n    /* \"#utility.yul\":1678:1998   */\n  swap2\n  swap1\n  pop\n  jump\t// out\n    /* \"#utility.yul\":2004:2144   */\ntag_20:\n    /* \"#utility.yul\":2052:2056   */\n  0x00\n    /* \"#utility.yul\":2075:2078   */\n  dup2\n    /* \"#utility.yul\":2067:2078   */\n  swap1\n  pop\n    /* \"#utility.yul\":2098:2101   */\n  dup2\n    /* \"#utility.yul\":2095:2096   */\n  0x00\n    /* \"#utility.yul\":2088:2102   */\n  mstore\n    /* \"#utility.yul\":2132:2136   */\n  0x20\n    /* \"#utility.yul\":2129:2130   */\n  0x00\n    /* \"#utility.yul\":2119:2137   */\n  keccak256\n    /* \"#utility.yul\":2111:2137   */\n  swap1\n  pop\n    /* \"#utility.yul\":2004:2144   */\n  swap2\n  swap1\n  pop\n  jump\t// out\n    /* \"#utility.yul\":2150:2243   */\ntag_21:\n    /* \"#utility.yul\":2187:2193   */\n  0x00\n    /* \"#utility.yul\":2234:2236   */\n  0x20\n    /* \"#utility.yul\":2229:2231   */\n  0x1f\n    /* \"#utility.yul\":2222:2227   */\n  dup4\n    /* \"#utility.yul\":2218:2232   */\n  add\n    /* \"#utility.yul\":2214:2237   */\n  div\n    /* \"#utility.yul\":2204:2237   */\n  swap1\n  pop\n    /* \"#utility.yul\":2150:2243   */\n  swap2\n  swap1\n  pop\n  jump\t// out\n    /* \"#utility.yul\":2249:2356   */\ntag_22:\n    /* \"#utility.yul\":2293:2301   */\n  0x00\n    /* \"#utility.yul\":2343:2348   */\n  dup3\n    /* \"#utility.yul\":2337:2341   */\n  dup3\n    /* \"#utility.yul\":2333:2349   */\n  shl\n    /* \"#utility.yul\":2312:2349   */\n  swap1\n  pop\n    /* \"#utility.yul\":2249:2356   */\n  swap3\n  swap2\n  pop\n  pop\n  jump\t// out\n    /* \"#utility.yul\":2362:2755   */\ntag_23:\n    /* \"#utility.yul\":2431:2437   */\n  0x00\n    /* \"#utility.yul\":2481:2482   */\n  0x08\n    /* \"#utility.yul\":2469:2479   */\n  dup4\n    /* \"#utility.yul\":2465:2483   */\n  mul\n    /* \"#utility.yul\":2504:2601   */\n  tag_63\n    /* \"#utility.yul\":2534:2600   */\n  0xffffffffffffffffffffffffffffffffffffffffffffffffffffffffffffffff\n    /* \"#utility.yul\":2523:2532   */\n  dup3\n    /* \"#utility.yul\":2504:2601   */\n  tag_22\n  jump\t// in\ntag_63:\n    /* \"#utility.yul\":2622:2661   */\n  tag_64\n    /* \"#utility.yul\":2652:2660   */\n  dup7\n    /* \"#utility.yul\":2641:2650   */\n  dup4\n    /* \"#utility.yul\":2622:2661   */\n  tag_22\n  jump\t// in\ntag_64:\n    /* \"#utility.yul\":2610:2661   */\n  swap6\n  pop\n    /* \"#utility.yul\":2694:2698   */\n  dup1\n    /* \"#utility.yul\":2690:2699   */\n  not\n    /* \"#utility.yul\":2683:2688   */\n  dup5\n    /* \"#utility.yul\":2679:2700   */\n  and\n    /* \"#utility.yul\":2670:2700   */\n  swap4\n  pop\n    /* \"#utility.yul\":2743:2747   */\n  dup1\n    /* \"#utility.yul\":2733:2741   */\n  dup7\n    /* \"#utility.yul\":2729:2748   */\n  and\n    /* \"#utility.yul\":2722:2727   */\n  dup5\n    /* \"#utility.yul\":2719:2749   */\n  or\n    /* \"#utility.yul\":2709:2749   */\n  swap3\n  pop\n    /* \"#utility.yul\":2438:2755   */\n  pop\n  pop\n    /* \"#utility.yul\":2362:2755   */\n  swap4\n  swap3\n  pop\n  pop\n  pop\n  jump\t// out\n    /* \"#utility.yul\":2761:2838   */\ntag_24:\n    /* \"#utility.yul\":2798:2805   */\n  0x00\n    /* \"#utility.yul\":2827:2832   */\n  dup2\n    /* \"#utility.yul\":2816:2832   */\n  swap1\n  pop\n    /* \"#utility.yul\":2761:2838   */\n  swap2\n  swap1\n  pop\n  jump\t// out\n    /* \"#utility.yul\":2844:2904   */\ntag_25:\n    /* \"#utility.yul\":2872:2875   */\n  0x00\n    /* \"#utility.yul\":2893:2898   */\n  dup2\n    /* \"#utility.yul\":2886:2898   */\n  swap1\n  pop\n    /* \"#utility.yul\":2844:2904   */\n  swap2\n  swap1\n  pop\n  jump\t// out\n    /* \"#utility.yul\":2910:3052   */\ntag_26:\n    /* \"#utility.yul\":2960:2969   */\n  0x00\n    /* \"#utility.yul\":2993:3046   */\n  tag_68\n    /* \"#utility.yul\":3011:3045   */\n  tag_69\n    /* \"#utility.yul\":3020:3044   */\n  tag_70\n    /* \"#utility.yul\":3038:3043   */\n  dup5\n    /* \"#utility.yul\":3020:3044   */\n  tag_24\n  jump\t// in\ntag_70:\n    /* \"#utility.yul\":3011:3045   */\n  tag_25\n  jump\t// in\ntag_69:\n    /* \"#utility.yul\":2993:3046   */\n  tag_24\n  jump\t// in\ntag_68:\n    /* \"#utility.yul\":2980:3046   */\n  swap1\n  pop\n    /* \"#utility.yul\":2910:3052   */\n  swap2\n  swap1\n  pop\n  jump\t// out\n    /* \"#utility.yul\":3058:3133   */\ntag_27:\n    /* \"#utility.yul\":3101:3104   */\n  0x00\n    /* \"#utility.yul\":3122:3127   */\n  dup2\n    /* \"#utility.yul\":3115:3127   */\n  swap1\n  pop\n    /* \"#utility.yul\":3058:3133   */\n  swap2\n  swap1\n  pop\n  jump\t// out\n    /* \"#utility.yul\":3139:3408   */\ntag_28:\n    /* \"#utility.yul\":3249:3288   */\n  tag_73\n    /* \"#utility.yul\":3280:3287   */\n  dup4\n    /* \"#utility.yul\":3249:3288   */\n  tag_26\n  jump\t// in\ntag_73:\n    /* \"#utility.yul\":3310:3401   */\n  tag_74\n    /* \"#utility.yul\":3359:3400   */\n  tag_75\n    /* \"#utility.yul\":3383:3399   */\n  dup3\n    /* \"#utility.yul\":3359:3400   */\n  tag_27\n  jump\t// in\ntag_75:\n    /* \"#utility.yul\":3351:3357   */\n  dup5\n    /* \"#utility.yul\":3344:3348   */\n  dup5\n    /* \"#utility.yul\":3338:3349   */\n  sload\n    /* \"#utility.yul\":3310:3401   */\n  tag_23\n  jump\t// in\ntag_74:\n    /* \"#utility.yul\":3304:3308   */\n  dup3\n    /* \"#utility.yul\":3297:3402   */\n  sstore\n    /* \"#utility.yul\":3215:3408   */\n  pop\n    /* \"#utility.yul\":3139:3408   */\n  pop\n  pop\n  pop\n  jump\t// out\n    /* \"#utility.yul\":3414:3487   */\ntag_29:\n    /* \"#utility.yul\":3459:3462   */\n  0x00\n    /* \"#utility.yul\":3414:3487   */\n  swap1\n  jump\t// out\n    /* \"#utility.yul\":3493:3682   */\ntag_30:\n    /* \"#utility.yul\":3570:3602   */\n  tag_78\n  tag_29\n  jump\t// in\ntag_78:\n    /* \"#utility.yul\":3611:3676   */\n  tag_79\n    /* \"#utility.yul\":3669:3675   */\n  dup2\n    /* \"#utility.yul\":3661:3667   */\n  dup5\n    /* \"#utility.yul\":3655:3659   */\n  dup5\n    /* \"#utility.yul\":3611:3676   */\n  tag_28\n  jump\t// in\ntag_79:\n    /* \"#utility.yul\":3546:3682   */\n  pop\n    /* \"#utility.yul\":3493:3682   */\n  pop\n  pop\n  jump\t// out\n    /* \"#utility.yul\":3688:3874   */\ntag_31:\n    /* \"#utility.yul\":3748:3868   */\ntag_81:\n    /* \"#utility.yul\":3765:3768   */\n  dup2\n    /* \"#utility.yul\":3758:3763   */\n  dup2\n    /* \"#utility.yul\":3755:3769   */\n  lt\n    /* \"#utility.yul\":3748:3868   */\n  iszero\n  tag_83\n  jumpi\n    /* \"#utility.yul\":3819:3858   */\n  tag_84\n    /* \"#utility.yul\":3856:3857   */\n  0x00\n    /* \"#utility.yul\":3849:3854   */\n  dup3\n    /* \"#utility.yul\":3819:3858   */\n  tag_30\n  jump\t// in\ntag_84:\n    /* \"#utility.yul\":3792:3793   */\n  0x01\n    /* \"#utility.yul\":3785:3790   */\n  dup2\n    /* \"#utility.yul\":3781:3794   */\n  add\n    /* \"#utility.yul\":3772:3794   */\n  swap1\n  pop\n    /* \"#utility.yul\":3748:3868   */\n  jump(tag_81)\ntag_83:\n    /* \"#utility.yul\":3688:3874   */\n  pop\n  pop\n  jump\t// out\n    /* \"#utility.yul\":3880:4421   */\ntag_32:\n    /* \"#utility.yul\":3980:3982   */\n  0x1f\n    /* \"#utility.yul\":3975:3978   */\n  dup3\n    /* \"#utility.yul\":3972:3983   */\n  gt\n    /* \"#utility.yul\":3969:4414   */\n  iszero\n  tag_86\n  jumpi\n    /* \"#utility.yul\":4014:4051   */\n  tag_87\n    /* \"#utility.yul\":4045:4050   */\n  dup2\n    /* \"#utility.yul\":4014:4051   */\n  tag_20\n  jump\t// in\ntag_87:\n    /* \"#utility.yul\":4097:4126   */\n  tag_88\n    /* \"#utility.yul\":4115:4125   */\n  dup5\n    /* \"#utility.yul\":4097:4126   */\n  tag_21\n  jump\t// in\ntag_88:\n    /* \"#utility.yul\":4087:4095   */\n  dup2\n    /* \"#utility.yul\":4083:4127   */\n  add\n    /* \"#utility.yul\":4280:4282   */\n  0x20\n    /* \"#utility.yul\":4268:4278   */\n  dup6\n    /* \"#utility.yul\":4265:4283   */\n  lt\n    /* \"#utility.yul\":4262:4311   */\n  iszero\n  tag_89\n  jumpi\n    /* \"#utility.yul\":4301:4309   */\n  dup2\n    /* \"#utility.yul\":4286:4309   */\n  swap1\n  pop\n    /* \"#utility.yul\":4262:4311   */\ntag_89:\n    /* \"#utility.yul\":4324:4404   */\n  tag_90\n    /* \"#utility.yul\":4380:4402   */\n  tag_91\n    /* \"#utility.yul\":4398:4401   */\n  dup6\n    /* \"#utility.yul\":4380:4402   */\n  tag_21\n  jump\t// in\ntag_91:\n    /* \"#utility.yul\":4370:4378   */\n  dup4\n    /* \"#utility.yul\":4366:4403   */\n  add\n    /* \"#utility.yul\":4353:4364   */\n  dup3\n    /* \"#utility.yul\":4324:4404   */\n  tag_31\n  jump\t// in\ntag_90:\n    /* \"#utility.yul\":3984:4414   */\n  pop\n  pop\n    /* \"#utility.yul\":3969:4414   */\ntag_86:\n    /* \"#utility.yul\":3880:4421   */\n  pop\n  pop\n  pop\n  jump\t// out\n    /* \"#utility.yul\":4427:4544   */\ntag_33:\n    /* \"#utility.yul\":4481:4489   */\n  0x00\n    /* \"#utility.yul\":4531:4536   */\n  dup3\n    /* \"#utility.yul\":4525:4529   */\n  dup3\n    /* \"#utility.yul\":4521:4537   */\n  shr\n    /* \"#utility.yul\":4500:4537   */\n  swap1\n  pop\n    /* \"#utility.yul\":4427:4544   */\n  swap3\n  swap2\n  pop\n  pop\n  jump\t// out\n    /* \"#utility.yul\":4550:4719   */\ntag_34:\n    /* \"#utility.yul\":4594:4600   */\n  0x00\n    /* \"#utility.yul\":4627:4678   */\n  tag_94\n    /* \"#utility.yul\":4675:4676   */\n  0x00\n    /* \"#utility.yul\":4671:4677   */\n  not\n    /* \"#utility.yul\":4663:4668   */\n  dup5\n    /* \"#utility.yul\":4660:4661   */\n  0x08\n    /* \"#utility.yul\":4656:4669   */\n  mul\n    /* \"#utility.yul\":4627:4678   */\n  tag_33\n  jump\t// in\ntag_94:\n    /* \"#utility.yul\":4623:4679   */\n  not\n    /* \"#utility.yul\":4708:4712   */\n  dup1\n    /* \"#utility.yul\":4702:4706   */\n  dup4\n    /* \"#utility.yul\":4698:4713   */\n  and\n    /* \"#utility.yul\":4688:4713   */\n  swap2\n  pop\n    /* \"#utility.yul\":4601:4719   */\n  pop\n    /* \"#utility.yul\":4550:4719   */\n  swap3\n  swap2\n  pop\n  pop\n  jump\t// out\n    /* \"#utility.yul\":4724:5019   */\ntag_35:\n    /* \"#utility.yul\":4800:4804   */\n  0x00\n    /* \"#utility.yul\":4946:4975   */\n  tag_96\n    /* \"#utility.yul\":4971:4974   */\n  dup4\n    /* \"#utility.yul\":4965:4969   */\n  dup4\n    /* \"#utility.yul\":4946:4975   */\n  tag_34\n  jump\t// in\ntag_96:\n    /* \"#utility.yul\":4938:4975   */\n  swap2\n  pop\n    /* \"#utility.yul\":5008:5011   */\n  dup3\n    /* \"#utility.yul\":5005:5006   */\n  0x02\n    /* \"#utility.yul\":5001:5012   */\n  mul\n    /* \"#utility.yul\":4995:4999   */\n  dup3\n    /* \"#utility.yul\":4992:5013   */\n  or\n    /* \"#utility.yul\":4984:5013   */\n  swap1\n  pop\n    /* \"#utility.yul\":4724:5019   */\n  swap3\n  swap2\n  pop\n  pop\n  jump\t// out\n    /* \"#utility.yul\":5024:6414   */\ntag_7:\n    /* \"#utility.yul\":5139:5175   */\n  tag_98\n    /* \"#utility.yul\":5171:5174   */\n  dup3\n    /* \"#utility.yul\":5139:5175   */\n  tag_16\n  jump\t// in\ntag_98:\n    /* \"#utility.yul\":5240:5258   */\n  0xffffffffffffffff\n    /* \"#utility.yul\":5232:5238   */\n  dup2\n    /* \"#utility.yul\":5229:5259   */\n  gt\n    /* \"#utility.yul\":5226:5282   */\n  iszero\n  tag_99\n  jumpi\n    /* \"#utility.yul\":5262:5280   */\n  tag_100\n  tag_17\n  jump\t// in\ntag_100:\n    /* \"#utility.yul\":5226:5282   */\ntag_99:\n    /* \"#utility.yul\":5306:5344   */\n  tag_101\n    /* \"#utility.yul\":5338:5342   */\n  dup3\n    /* \"#utility.yul\":5332:5343   */\n  sload\n    /* \"#utility.yul\":5306:5344   */\n  tag_19\n  jump\t// in\ntag_101:\n    /* \"#utility.yul\":5391:5457   */\n  tag_102\n    /* \"#utility.yul\":5450:5456   */\n  dup3\n    /* \"#utility.yul\":5442:5448   */\n  dup3\n    /* \"#utility.yul\":5436:5440   */\n  dup6\n    /* \"#utility.yul\":5391:5457   */\n  tag_32\n  jump\t// in\ntag_102:\n    /* \"#utility.yul\":5484:5485   */\n  0x00\n    /* \"#utility.yul\":5508:5512   */\n  0x20\n    /* \"#utility.yul\":5495:5512   */\n  swap1\n  pop\n    /* \"#utility.yul\":5540:5542   */\n  0x1f\n    /* \"#utility.yul\":5532:5538   */\n  dup4\n    /* \"#utility.yul\":5529:5543   */\n  gt\n    /* \"#utility.yul\":5557:5558   */\n  0x01\n    /* \"#utility.yul\":5552:6169   */\n  dup2\n  eq\n  tag_104\n  jumpi\n    /* \"#utility.yul\":6213:6214   */\n  0x00\n    /* \"#utility.yul\":6230:6236   */\n  dup5\n    /* \"#utility.yul\":6227:6304   */\n  iszero\n  tag_105\n  jumpi\n    /* \"#utility.yul\":6279:6288   */\n  dup3\n    /* \"#utility.yul\":6274:6277   */\n  dup8\n    /* \"#utility.yul\":6270:6289   */\n  add\n    /* \"#utility.yul\":6264:6290   */\n  mload\n    /* \"#utility.yul\":6255:6290   */\n  swap1\n  pop\n    /* \"#utility.yul\":6227:6304   */\ntag_105:\n    /* \"#utility.yul\":6330:6397   */\n  tag_106\n    /* \"#utility.yul\":6390:6396   */\n  dup6\n    /* \"#utility.yul\":6383:6388   */\n  dup3\n    /* \"#utility.yul\":6330:6397   */\n  tag_35\n  jump\t// in\ntag_106:\n    /* \"#utility.yul\":6324:6328   */\n  dup7\n    /* \"#utility.yul\":6317:6398   */\n  sstore\n    /* \"#utility.yul\":6186:6408   */\n  pop\n    /* \"#utility.yul\":5522:6408   */\n  jump(tag_103)\n    /* \"#utility.yul\":5552:6169   */\ntag_104:\n    /* \"#utility.yul\":5604:5608   */\n  0x1f\n    /* \"#utility.yul\":5600:5609   */\n  not\n    /* \"#utility.yul\":5592:5598   */\n  dup5\n    /* \"#utility.yul\":5588:5610   */\n  and\n    /* \"#utility.yul\":5638:5674   */\n  tag_107\n    /* \"#utility.yul\":5669:5673   */\n  dup7\n    /* \"#utility.yul\":5638:5674   */\n  tag_20\n  jump\t// in\ntag_107:\n    /* \"#utility.yul\":5696:5697   */\n  0x00\n    /* \"#utility.yul\":5710:5918   */\ntag_108:\n    /* \"#utility.yul\":5724:5731   */\n  dup3\n    /* \"#utility.yul\":5721:5722   */\n  dup2\n    /* \"#utility.yul\":5718:5732   */\n  lt\n    /* \"#utility.yul\":5710:5918   */\n  iszero\n  tag_110\n  jumpi\n    /* \"#utility.yul\":5803:5812   */\n  dup5\n    /* \"#utility.yul\":5798:5801   */\n  dup10\n    /* \"#utility.yul\":5794:5813   */\n  add\n    /* \"#utility.yul\":5788:5814   */\n  mload\n    /* \"#utility.yul\":5780:5786   */\n  dup3\n    /* \"#utility.yul\":5773:5815   */\n  sstore\n    /* \"#utility.yul\":5854:5855   */\n  0x01\n    /* \"#utility.yul\":5846:5852   */\n  dup3\n    /* \"#utility.yul\":5842:5856   */\n  add\n    /* \"#utility.yul\":5832:5856   */\n  swap2\n  pop\n    /* \"#utility.yul\":5901:5903   */\n  0x20\n    /* \"#utility.yul\":5890:5899   */\n  dup6\n    /* \"#utility.yul\":5886:5904   */\n  add\n    /* \"#utility.yul\":5873:5904   */\n  swap5\n  pop\n    /* \"#utility.yul\":5747:5751   */\n  0x20\n    /* \"#utility.yul\":5744:5745   */\n  dup2\n    /* \"#utility.yul\":5740:5752   */\n  add\n    /* \"#utility.yul\":5735:5752   */\n  swap1\n  pop\n    /* \"#utility.yul\":5710:5918   */\n  jump(tag_108)\ntag_110:\n    /* \"#utility.yul\":5946:5952   */\n  dup7\n    /* \"#utility.yul\":5937:5944   */\n  dup4\n    /* \"#utility.yul\":5934:5953   */\n  lt\n    /* \"#utility.yul\":5931:6110   */\n  iszero\n  tag_111\n  jumpi\n    /* \"#utility.yul\":6004:6013   */\n  dup5\n    /* \"#utility.yul\":5999:6002   */\n  dup10\n    /* \"#utility.yul\":5995:6014   */\n  add\n    /* \"#utility.yul\":5989:6015   */\n  mload\n    /* \"#utility.yul\":6047:6095   */\n  tag_112\n    /* \"#utility.yul\":6089:6093   */\n  0x1f\n    /* \"#utility.yul\":6081:6087   */\n  dup10\n    /* \"#utility.yul\":6077:6094   */\n  and\n    /* \"#utility.yul\":6066:6075   */\n  dup3\n    /* \"#utility.yul\":6047:6095   */\n  tag_34\n  jump\t// in\ntag_112:\n    /* \"#utility.yul\":6039:6045   */\n  dup4\n    /* \"#utility.yul\":6032:6096   */\n  sstore\n    /* \"#utility.yul\":5954:6110   */\n  pop\n    /* \"#utility.yul\":5931:6110   */\ntag_111:\n    /* \"#utility.yul\":6156:6157   */\n  0x01\n    /* \"#utility.yul\":6152:6153   */\n  0x02\n    /* \"#utility.yul\":6144:6150   */\n  dup9\n    /* \"#utility.yul\":6140:6154   */\n  mul\n    /* \"#utility.yul\":6136:6158   */\n  add\n    /* \"#utility.yul\":6130:6134   */\n  dup9\n    /* \"#utility.yul\":6123:6159   */\n  sstore\n    /* \"#utility.yul\":5559:6169   */\n  pop\n  pop\n  pop\n    /* \"#utility.yul\":5522:6408   */\ntag_103:\n  pop\n    /* \"#utility.yul\":5114:6414   */\n  pop\n  pop\n  pop\n    /* \"#utility.yul\":5024:6414   */\n  pop\n  pop\n  jump\t// out\n    /* \"contracts/ebc/Copy_TransparentProxy.sol\":610:1589  contract TransparentProxy {... */\ntag_8:\n  dataSize(sub_0)\n  dup1\n  dataOffset(sub_0)\n  0x00\n  codecopy\n  0x00\n  return\nstop\n\nsub_0: assembly {\n        /* \"contracts/ebc/Copy_TransparentProxy.sol\":610:1589  contract TransparentProxy {... */\n      mstore(0x40, 0x80)\n      jumpi(tag_1, lt(calldatasize, 0x04))\n      shr(0xe0, calldataload(0x00))\n      dup1\n      0x0900f010\n      eq\n      tag_3\n      jumpi\n      dup1\n      0xea3d508a\n      eq\n      tag_4\n      jumpi\n      dup1\n      0xf2c31bd9\n      eq\n      tag_5\n      jumpi\n      jump(tag_2)\n    tag_1:\n    tag_2:\n        /* \"contracts/ebc/Copy_TransparentProxy.sol\":1277:1289  bool success */\n      0x00\n        /* \"contracts/ebc/Copy_TransparentProxy.sol\":1291:1308  bytes memory data */\n      dup1\n        /* \"contracts/ebc/Copy_TransparentProxy.sol\":1312:1326  implementation */\n      0x00\n      dup1\n      sload\n      swap1\n      0x0100\n      exp\n      swap1\n      div\n      0xffffffffffffffffffffffffffffffffffffffff\n      and\n        /* \"contracts/ebc/Copy_TransparentProxy.sol\":1312:1339  implementation.delegatecall */\n      0xffffffffffffffffffffffffffffffffffffffff\n      and\n        /* \"contracts/ebc/Copy_TransparentProxy.sol\":1340:1348  msg.data */\n      0x00\n      calldatasize\n        /* \"contracts/ebc/Copy_TransparentProxy.sol\":1312:1349  implementation.delegatecall(msg.data) */\n      mload(0x40)\n      tag_8\n      swap3\n      swap2\n      swap1\n      tag_9\n      jump\t// in\n    tag_8:\n      0x00\n      mload(0x40)\n      dup1\n      dup4\n      sub\n      dup2\n      dup6\n      gas\n      delegatecall\n      swap2\n      pop\n      pop\n      returndatasize\n      dup1\n      0x00\n      dup2\n      eq\n      tag_12\n      jumpi\n      mload(0x40)\n      swap2\n      pop\n      and(add(returndatasize, 0x3f), not(0x1f))\n      dup3\n      add\n      0x40\n      mstore\n      returndatasize\n      dup3\n      mstore\n      returndatasize\n      0x00\n      0x20\n      dup5\n      add\n      returndatacopy\n      jump(tag_11)\n    tag_12:\n      0x60\n      swap2\n      pop\n    tag_11:\n      stop\n        /* \"contracts/ebc/Copy_TransparentProxy.sol\":1436:1586  function upgrade(address newImplementation) external {... */\n    tag_3:\n      callvalue\n      dup1\n      iszero\n      tag_13\n      jumpi\n      0x00\n      dup1\n      revert\n    tag_13:\n      pop\n      tag_14\n      0x04\n      dup1\n      calldatasize\n      sub\n      dup2\n      add\n      swap1\n      tag_15\n      swap2\n      swap1\n      tag_16\n      jump\t// in\n    tag_15:\n      tag_17\n      jump\t// in\n    tag_14:\n      stop\n        /* \"contracts/ebc/Copy_TransparentProxy.sol\":807:828  bytes public selector */\n    tag_4:\n      callvalue\n      dup1\n      iszero\n      tag_18\n      jumpi\n      0x00\n      dup1\n      revert\n    tag_18:\n      pop\n      tag_19\n      tag_20\n      jump\t// in\n    tag_19:\n      mload(0x40)\n      tag_21\n      swap2\n      swap1\n      tag_22\n      jump\t// in\n    tag_21:\n      mload(0x40)\n      dup1\n      swap2\n      sub\n      swap1\n      return\n        /* \"contracts/ebc/Copy_TransparentProxy.sol\":726:745  string public words */\n    tag_5:\n      callvalue\n      dup1\n      iszero\n      tag_23\n      jumpi\n      0x00\n      dup1\n      revert\n    tag_23:\n      pop\n      tag_24\n      tag_25\n      jump\t// in\n    tag_24:\n      mload(0x40)\n      tag_26\n      swap2\n      swap1\n      tag_27\n      jump\t// in\n    tag_26:\n      mload(0x40)\n      dup1\n      swap2\n      sub\n      swap1\n      return\n        /* \"contracts/ebc/Copy_TransparentProxy.sol\":1436:1586  function upgrade(address newImplementation) external {... */\n    tag_17:\n        /* \"contracts/ebc/Copy_TransparentProxy.sol\":1518:1523  admin */\n      0x01\n      0x00\n      swap1\n      sload\n      swap1\n      0x0100\n      exp\n      swap1\n      div\n      0xffffffffffffffffffffffffffffffffffffffff\n      and\n        /* \"contracts/ebc/Copy_TransparentProxy.sol\":1504:1523  msg.sender != admin */\n      0xffffffffffffffffffffffffffffffffffffffff\n      and\n        /* \"contracts/ebc/Copy_TransparentProxy.sol\":1504:1514  msg.sender */\n      caller\n        /* \"contracts/ebc/Copy_TransparentProxy.sol\":1504:1523  msg.sender != admin */\n      0xffffffffffffffffffffffffffffffffffffffff\n      and\n      eq\n        /* \"contracts/ebc/Copy_TransparentProxy.sol\":1500:1533  if (msg.sender != admin) revert() */\n      tag_29\n      jumpi\n        /* \"contracts/ebc/Copy_TransparentProxy.sol\":1525:1533  revert() */\n      0x00\n      dup1\n      revert\n        /* \"contracts/ebc/Copy_TransparentProxy.sol\":1500:1533  if (msg.sender != admin) revert() */\n    tag_29:\n        /* \"contracts/ebc/Copy_TransparentProxy.sol\":1561:1578  newImplementation */\n      dup1\n        /* \"contracts/ebc/Copy_TransparentProxy.sol\":1544:1558  implementation */\n      0x00\n      dup1\n        /* \"contracts/ebc/Copy_TransparentProxy.sol\":1544:1578  implementation = newImplementation */\n      0x0100\n      exp\n      dup2\n      sload\n      dup2\n      0xffffffffffffffffffffffffffffffffffffffff\n      mul\n      not\n      and\n      swap1\n      dup4\n      0xffffffffffffffffffffffffffffffffffffffff\n      and\n      mul\n      or\n      swap1\n      sstore\n      pop\n        /* \"contracts/ebc/Copy_TransparentProxy.sol\":1436:1586  function upgrade(address newImplementation) external {... */\n      pop\n      jump\t// out\n        /* \"contracts/ebc/Copy_TransparentProxy.sol\":807:828  bytes public selector */\n    tag_20:\n      0x03\n      dup1\n      sload\n      tag_30\n      swap1\n      tag_31\n      jump\t// in\n    tag_30:\n      dup1\n      0x1f\n      add\n      0x20\n      dup1\n      swap2\n      div\n      mul\n      0x20\n      add\n      mload(0x40)\n      swap1\n      dup2\n      add\n      0x40\n      mstore\n      dup1\n      swap3\n      swap2\n      swap1\n      dup2\n      dup2\n      mstore\n      0x20\n      add\n      dup3\n      dup1\n      sload\n      tag_32\n      swap1\n      tag_31\n      jump\t// in\n    tag_32:\n      dup1\n      iszero\n      tag_33\n      jumpi\n      dup1\n      0x1f\n      lt\n      tag_34\n      jumpi\n      0x0100\n      dup1\n      dup4\n      sload\n      div\n      mul\n      dup4\n      mstore\n      swap2\n      0x20\n      add\n      swap2\n      jump(tag_33)\n    tag_34:\n      dup3\n      add\n      swap2\n      swap1\n      0x00\n      mstore\n      keccak256(0x00, 0x20)\n      swap1\n    tag_35:\n      dup2\n      sload\n      dup2\n      mstore\n      swap1\n      0x01\n      add\n      swap1\n      0x20\n      add\n      dup1\n      dup4\n      gt\n      tag_35\n      jumpi\n      dup3\n      swap1\n      sub\n      0x1f\n      and\n      dup3\n      add\n      swap2\n    tag_33:\n      pop\n      pop\n      pop\n      pop\n      pop\n      dup2\n      jump\t// out\n        /* \"contracts/ebc/Copy_TransparentProxy.sol\":726:745  string public words */\n    tag_25:\n      0x02\n      dup1\n      sload\n      tag_36\n      swap1\n      tag_31\n      jump\t// in\n    tag_36:\n      dup1\n      0x1f\n      add\n      0x20\n      dup1\n      swap2\n      div\n      mul\n      0x20\n      add\n      mload(0x40)\n      swap1\n      dup2\n      add\n      0x40\n      mstore\n      dup1\n      swap3\n      swap2\n      swap1\n      dup2\n      dup2\n      mstore\n      0x20\n      add\n      dup3\n      dup1\n      sload\n      tag_37\n      swap1\n      tag_31\n      jump\t// in\n    tag_37:\n      dup1\n      iszero\n      tag_38\n      jumpi\n      dup1\n      0x1f\n      lt\n      tag_39\n      jumpi\n      0x0100\n      dup1\n      dup4\n      sload\n      div\n      mul\n      dup4\n      mstore\n      swap2\n      0x20\n      add\n      swap2\n      jump(tag_38)\n    tag_39:\n      dup3\n      add\n      swap2\n      swap1\n      0x00\n      mstore\n      keccak256(0x00, 0x20)\n      swap1\n    tag_40:\n      dup2\n      sload\n      dup2\n      mstore\n      swap1\n      0x01\n      add\n      swap1\n      0x20\n      add\n      dup1\n      dup4\n      gt\n      tag_40\n      jumpi\n      dup3\n      swap1\n      sub\n      0x1f\n      and\n      dup3\n      add\n      swap2\n    tag_38:\n      pop\n      pop\n      pop\n      pop\n      pop\n      dup2\n      jump\t// out\n        /* \"#utility.yul\":7:154   */\n    tag_41:\n        /* \"#utility.yul\":108:119   */\n      0x00\n        /* \"#utility.yul\":145:148   */\n      dup2\n        /* \"#utility.yul\":130:148   */\n      swap1\n      pop\n        /* \"#utility.yul\":7:154   */\n      swap3\n      swap2\n      pop\n      pop\n      jump\t// out\n        /* \"#utility.yul\":160:306   */\n    tag_42:\n        /* \"#utility.yul\":257:263   */\n      dup3\n        /* \"#utility.yul\":252:255   */\n      dup2\n        /* \"#utility.yul\":247:250   */\n      dup4\n        /* \"#utility.yul\":234:264   */\n      calldatacopy\n        /* \"#utility.yul\":298:299   */\n      0x00\n        /* \"#utility.yul\":289:295   */\n      dup4\n        /* \"#utility.yul\":284:287   */\n      dup4\n        /* \"#utility.yul\":280:296   */\n      add\n        /* \"#utility.yul\":273:300   */\n      mstore\n        /* \"#utility.yul\":160:306   */\n      pop\n      pop\n      pop\n      jump\t// out\n        /* \"#utility.yul\":334:661   */\n    tag_43:\n        /* \"#utility.yul\":448:451   */\n      0x00\n        /* \"#utility.yul\":469:557   */\n      tag_64\n        /* \"#utility.yul\":550:556   */\n      dup4\n        /* \"#utility.yul\":545:548   */\n      dup6\n        /* \"#utility.yul\":469:557   */\n      tag_41\n      jump\t// in\n    tag_64:\n        /* \"#utility.yul\":462:557   */\n      swap4\n      pop\n        /* \"#utility.yul\":567:623   */\n      tag_65\n        /* \"#utility.yul\":616:622   */\n      dup4\n        /* \"#utility.yul\":611:614   */\n      dup6\n        /* \"#utility.yul\":604:609   */\n      dup5\n        /* \"#utility.yul\":567:623   */\n      tag_42\n      jump\t// in\n    tag_65:\n        /* \"#utility.yul\":648:654   */\n      dup3\n        /* \"#utility.yul\":643:646   */\n      dup5\n        /* \"#utility.yul\":639:655   */\n      add\n        /* \"#utility.yul\":632:655   */\n      swap1\n      pop\n        /* \"#utility.yul\":334:661   */\n      swap4\n      swap3\n      pop\n      pop\n      pop\n      jump\t// out\n        /* \"#utility.yul\":667:958   */\n    tag_9:\n        /* \"#utility.yul\":807:810   */\n      0x00\n        /* \"#utility.yul\":829:932   */\n      tag_67\n        /* \"#utility.yul\":928:931   */\n      dup3\n        /* \"#utility.yul\":919:925   */\n      dup5\n        /* \"#utility.yul\":911:917   */\n      dup7\n        /* \"#utility.yul\":829:932   */\n      tag_43\n      jump\t// in\n    tag_67:\n        /* \"#utility.yul\":822:932   */\n      swap2\n      pop\n        /* \"#utility.yul\":949:952   */\n      dup2\n        /* \"#utility.yul\":942:952   */\n      swap1\n      pop\n        /* \"#utility.yul\":667:958   */\n      swap4\n      swap3\n      pop\n      pop\n      pop\n      jump\t// out\n        /* \"#utility.yul\":1045:1162   */\n    tag_45:\n        /* \"#utility.yul\":1154:1155   */\n      0x00\n        /* \"#utility.yul\":1151:1152   */\n      dup1\n        /* \"#utility.yul\":1144:1156   */\n      revert\n        /* \"#utility.yul\":1291:1417   */\n    tag_47:\n        /* \"#utility.yul\":1328:1335   */\n      0x00\n        /* \"#utility.yul\":1368:1410   */\n      0xffffffffffffffffffffffffffffffffffffffff\n        /* \"#utility.yul\":1361:1366   */\n      dup3\n        /* \"#utility.yul\":1357:1411   */\n      and\n        /* \"#utility.yul\":1346:1411   */\n      swap1\n      pop\n        /* \"#utility.yul\":1291:1417   */\n      swap2\n      swap1\n      pop\n      jump\t// out\n        /* \"#utility.yul\":1423:1519   */\n    tag_48:\n        /* \"#utility.yul\":1460:1467   */\n      0x00\n        /* \"#utility.yul\":1489:1513   */\n      tag_73\n        /* \"#utility.yul\":1507:1512   */\n      dup3\n        /* \"#utility.yul\":1489:1513   */\n      tag_47\n      jump\t// in\n    tag_73:\n        /* \"#utility.yul\":1478:1513   */\n      swap1\n      pop\n        /* \"#utility.yul\":1423:1519   */\n      swap2\n      swap1\n      pop\n      jump\t// out\n        /* \"#utility.yul\":1525:1647   */\n    tag_49:\n        /* \"#utility.yul\":1598:1622   */\n      tag_75\n        /* \"#utility.yul\":1616:1621   */\n      dup2\n        /* \"#utility.yul\":1598:1622   */\n      tag_48\n      jump\t// in\n    tag_75:\n        /* \"#utility.yul\":1591:1596   */\n      dup2\n        /* \"#utility.yul\":1588:1623   */\n      eq\n        /* \"#utility.yul\":1578:1641   */\n      tag_76\n      jumpi\n        /* \"#utility.yul\":1637:1638   */\n      0x00\n        /* \"#utility.yul\":1634:1635   */\n      dup1\n        /* \"#utility.yul\":1627:1639   */\n      revert\n        /* \"#utility.yul\":1578:1641   */\n    tag_76:\n        /* \"#utility.yul\":1525:1647   */\n      pop\n      jump\t// out\n        /* \"#utility.yul\":1653:1792   */\n    tag_50:\n        /* \"#utility.yul\":1699:1704   */\n      0x00\n        /* \"#utility.yul\":1737:1743   */\n      dup2\n        /* \"#utility.yul\":1724:1744   */\n      calldataload\n        /* \"#utility.yul\":1715:1744   */\n      swap1\n      pop\n        /* \"#utility.yul\":1753:1786   */\n      tag_78\n        /* \"#utility.yul\":1780:1785   */\n      dup2\n        /* \"#utility.yul\":1753:1786   */\n      tag_49\n      jump\t// in\n    tag_78:\n        /* \"#utility.yul\":1653:1792   */\n      swap3\n      swap2\n      pop\n      pop\n      jump\t// out\n        /* \"#utility.yul\":1798:2127   */\n    tag_16:\n        /* \"#utility.yul\":1857:1863   */\n      0x00\n        /* \"#utility.yul\":1906:1908   */\n      0x20\n        /* \"#utility.yul\":1894:1903   */\n      dup3\n        /* \"#utility.yul\":1885:1892   */\n      dup5\n        /* \"#utility.yul\":1881:1904   */\n      sub\n        /* \"#utility.yul\":1877:1909   */\n      slt\n        /* \"#utility.yul\":1874:1993   */\n      iszero\n      tag_80\n      jumpi\n        /* \"#utility.yul\":1912:1991   */\n      tag_81\n      tag_45\n      jump\t// in\n    tag_81:\n        /* \"#utility.yul\":1874:1993   */\n    tag_80:\n        /* \"#utility.yul\":2032:2033   */\n      0x00\n        /* \"#utility.yul\":2057:2110   */\n      tag_82\n        /* \"#utility.yul\":2102:2109   */\n      dup5\n        /* \"#utility.yul\":2093:2099   */\n      dup3\n        /* \"#utility.yul\":2082:2091   */\n      dup6\n        /* \"#utility.yul\":2078:2100   */\n      add\n        /* \"#utility.yul\":2057:2110   */\n      tag_50\n      jump\t// in\n    tag_82:\n        /* \"#utility.yul\":2047:2110   */\n      swap2\n      pop\n        /* \"#utility.yul\":2003:2120   */\n      pop\n        /* \"#utility.yul\":1798:2127   */\n      swap3\n      swap2\n      pop\n      pop\n      jump\t// out\n        /* \"#utility.yul\":2133:2231   */\n    tag_51:\n        /* \"#utility.yul\":2184:2190   */\n      0x00\n        /* \"#utility.yul\":2218:2223   */\n      dup2\n        /* \"#utility.yul\":2212:2224   */\n      mload\n        /* \"#utility.yul\":2202:2224   */\n      swap1\n      pop\n        /* \"#utility.yul\":2133:2231   */\n      swap2\n      swap1\n      pop\n      jump\t// out\n        /* \"#utility.yul\":2237:2405   */\n    tag_52:\n        /* \"#utility.yul\":2320:2331   */\n      0x00\n        /* \"#utility.yul\":2354:2360   */\n      dup3\n        /* \"#utility.yul\":2349:2352   */\n      dup3\n        /* \"#utility.yul\":2342:2361   */\n      mstore\n        /* \"#utility.yul\":2394:2398   */\n      0x20\n        /* \"#utility.yul\":2389:2392   */\n      dup3\n        /* \"#utility.yul\":2385:2399   */\n      add\n        /* \"#utility.yul\":2370:2399   */\n      swap1\n      pop\n        /* \"#utility.yul\":2237:2405   */\n      swap3\n      swap2\n      pop\n      pop\n      jump\t// out\n        /* \"#utility.yul\":2411:2657   */\n    tag_53:\n        /* \"#utility.yul\":2492:2493   */\n      0x00\n        /* \"#utility.yul\":2502:2615   */\n    tag_86:\n        /* \"#utility.yul\":2516:2522   */\n      dup4\n        /* \"#utility.yul\":2513:2514   */\n      dup2\n        /* \"#utility.yul\":2510:2523   */\n      lt\n        /* \"#utility.yul\":2502:2615   */\n      iszero\n      tag_88\n      jumpi\n        /* \"#utility.yul\":2601:2602   */\n      dup1\n        /* \"#utility.yul\":2596:2599   */\n      dup3\n        /* \"#utility.yul\":2592:2603   */\n      add\n        /* \"#utility.yul\":2586:2604   */\n      mload\n        /* \"#utility.yul\":2582:2583   */\n      dup2\n        /* \"#utility.yul\":2577:2580   */\n      dup5\n        /* \"#utility.yul\":2573:2584   */\n      add\n        /* \"#utility.yul\":2566:2605   */\n      mstore\n        /* \"#utility.yul\":2538:2540   */\n      0x20\n        /* \"#utility.yul\":2535:2536   */\n      dup2\n        /* \"#utility.yul\":2531:2541   */\n      add\n        /* \"#utility.yul\":2526:2541   */\n      swap1\n      pop\n        /* \"#utility.yul\":2502:2615   */\n      jump(tag_86)\n    tag_88:\n        /* \"#utility.yul\":2649:2650   */\n      0x00\n        /* \"#utility.yul\":2640:2646   */\n      dup5\n        /* \"#utility.yul\":2635:2638   */\n      dup5\n        /* \"#utility.yul\":2631:2647   */\n      add\n        /* \"#utility.yul\":2624:2651   */\n      mstore\n        /* \"#utility.yul\":2473:2657   */\n      pop\n        /* \"#utility.yul\":2411:2657   */\n      pop\n      pop\n      pop\n      jump\t// out\n        /* \"#utility.yul\":2663:2765   */\n    tag_54:\n        /* \"#utility.yul\":2704:2710   */\n      0x00\n        /* \"#utility.yul\":2755:2757   */\n      0x1f\n        /* \"#utility.yul\":2751:2758   */\n      not\n        /* \"#utility.yul\":2746:2748   */\n      0x1f\n        /* \"#utility.yul\":2739:2744   */\n      dup4\n        /* \"#utility.yul\":2735:2749   */\n      add\n        /* \"#utility.yul\":2731:2759   */\n      and\n        /* \"#utility.yul\":2721:2759   */\n      swap1\n      pop\n        /* \"#utility.yul\":2663:2765   */\n      swap2\n      swap1\n      pop\n      jump\t// out\n        /* \"#utility.yul\":2771:3144   */\n    tag_55:\n        /* \"#utility.yul\":2857:2860   */\n      0x00\n        /* \"#utility.yul\":2885:2923   */\n      tag_91\n        /* \"#utility.yul\":2917:2922   */\n      dup3\n        /* \"#utility.yul\":2885:2923   */\n      tag_51\n      jump\t// in\n    tag_91:\n        /* \"#utility.yul\":2939:3009   */\n      tag_92\n        /* \"#utility.yul\":3002:3008   */\n      dup2\n        /* \"#utility.yul\":2997:3000   */\n      dup6\n        /* \"#utility.yul\":2939:3009   */\n      tag_52\n      jump\t// in\n    tag_92:\n        /* \"#utility.yul\":2932:3009   */\n      swap4\n      pop\n        /* \"#utility.yul\":3018:3083   */\n      tag_93\n        /* \"#utility.yul\":3076:3082   */\n      dup2\n        /* \"#utility.yul\":3071:3074   */\n      dup6\n        /* \"#utility.yul\":3064:3068   */\n      0x20\n        /* \"#utility.yul\":3057:3062   */\n      dup7\n        /* \"#utility.yul\":3053:3069   */\n      add\n        /* \"#utility.yul\":3018:3083   */\n      tag_53\n      jump\t// in\n    tag_93:\n        /* \"#utility.yul\":3108:3137   */\n      tag_94\n        /* \"#utility.yul\":3130:3136   */\n      dup2\n        /* \"#utility.yul\":3108:3137   */\n      tag_54\n      jump\t// in\n    tag_94:\n        /* \"#utility.yul\":3103:3106   */\n      dup5\n        /* \"#utility.yul\":3099:3138   */\n      add\n        /* \"#utility.yul\":3092:3138   */\n      swap2\n      pop\n        /* \"#utility.yul\":2861:3144   */\n      pop\n        /* \"#utility.yul\":2771:3144   */\n      swap3\n      swap2\n      pop\n      pop\n      jump\t// out\n        /* \"#utility.yul\":3150:3459   */\n    tag_22:\n        /* \"#utility.yul\":3261:3265   */\n      0x00\n        /* \"#utility.yul\":3299:3301   */\n      0x20\n        /* \"#utility.yul\":3288:3297   */\n      dup3\n        /* \"#utility.yul\":3284:3302   */\n      add\n        /* \"#utility.yul\":3276:3302   */\n      swap1\n      pop\n        /* \"#utility.yul\":3348:3357   */\n      dup2\n        /* \"#utility.yul\":3342:3346   */\n      dup2\n        /* \"#utility.yul\":3338:3358   */\n      sub\n        /* \"#utility.yul\":3334:3335   */\n      0x00\n        /* \"#utility.yul\":3323:3332   */\n      dup4\n        /* \"#utility.yul\":3319:3336   */\n      add\n        /* \"#utility.yul\":3312:3359   */\n      mstore\n        /* \"#utility.yul\":3376:3452   */\n      tag_96\n        /* \"#utility.yul\":3447:3451   */\n      dup2\n        /* \"#utility.yul\":3438:3444   */\n      dup5\n        /* \"#utility.yul\":3376:3452   */\n      tag_55\n      jump\t// in\n    tag_96:\n        /* \"#utility.yul\":3368:3452   */\n      swap1\n      pop\n        /* \"#utility.yul\":3150:3459   */\n      swap3\n      swap2\n      pop\n      pop\n      jump\t// out\n        /* \"#utility.yul\":3465:3564   */\n    tag_56:\n        /* \"#utility.yul\":3517:3523   */\n      0x00\n        /* \"#utility.yul\":3551:3556   */\n      dup2\n        /* \"#utility.yul\":3545:3557   */\n      mload\n        /* \"#utility.yul\":3535:3557   */\n      swap1\n      pop\n        /* \"#utility.yul\":3465:3564   */\n      swap2\n      swap1\n      pop\n      jump\t// out\n        /* \"#utility.yul\":3570:3739   */\n    tag_57:\n        /* \"#utility.yul\":3654:3665   */\n      0x00\n        /* \"#utility.yul\":3688:3694   */\n      dup3\n        /* \"#utility.yul\":3683:3686   */\n      dup3\n        /* \"#utility.yul\":3676:3695   */\n      mstore\n        /* \"#utility.yul\":3728:3732   */\n      0x20\n        /* \"#utility.yul\":3723:3726   */\n      dup3\n        /* \"#utility.yul\":3719:3733   */\n      add\n        /* \"#utility.yul\":3704:3733   */\n      swap1\n      pop\n        /* \"#utility.yul\":3570:3739   */\n      swap3\n      swap2\n      pop\n      pop\n      jump\t// out\n        /* \"#utility.yul\":3745:4122   */\n    tag_58:\n        /* \"#utility.yul\":3833:3836   */\n      0x00\n        /* \"#utility.yul\":3861:3900   */\n      tag_100\n        /* \"#utility.yul\":3894:3899   */\n      dup3\n        /* \"#utility.yul\":3861:3900   */\n      tag_56\n      jump\t// in\n    tag_100:\n        /* \"#utility.yul\":3916:3987   */\n      tag_101\n        /* \"#utility.yul\":3980:3986   */\n      dup2\n        /* \"#utility.yul\":3975:3978   */\n      dup6\n        /* \"#utility.yul\":3916:3987   */\n      tag_57\n      jump\t// in\n    tag_101:\n        /* \"#utility.yul\":3909:3987   */\n      swap4\n      pop\n        /* \"#utility.yul\":3996:4061   */\n      tag_102\n        /* \"#utility.yul\":4054:4060   */\n      dup2\n        /* \"#utility.yul\":4049:4052   */\n      dup6\n        /* \"#utility.yul\":4042:4046   */\n      0x20\n        /* \"#utility.yul\":4035:4040   */\n      dup7\n        /* \"#utility.yul\":4031:4047   */\n      add\n        /* \"#utility.yul\":3996:4061   */\n      tag_53\n      jump\t// in\n    tag_102:\n        /* \"#utility.yul\":4086:4115   */\n      tag_103\n        /* \"#utility.yul\":4108:4114   */\n      dup2\n        /* \"#utility.yul\":4086:4115   */\n      tag_54\n      jump\t// in\n    tag_103:\n        /* \"#utility.yul\":4081:4084   */\n      dup5\n        /* \"#utility.yul\":4077:4116   */\n      add\n        /* \"#utility.yul\":4070:4116   */\n      swap2\n      pop\n        /* \"#utility.yul\":3837:4122   */\n      pop\n        /* \"#utility.yul\":3745:4122   */\n      swap3\n      swap2\n      pop\n      pop\n      jump\t// out\n        /* \"#utility.yul\":4128:4441   */\n    tag_27:\n        /* \"#utility.yul\":4241:4245   */\n      0x00\n        /* \"#utility.yul\":4279:4281   */\n      0x20\n        /* \"#utility.yul\":4268:4277   */\n      dup3\n        /* \"#utility.yul\":4264:4282   */\n      add\n        /* \"#utility.yul\":4256:4282   */\n      swap1\n      pop\n        /* \"#utility.yul\":4328:4337   */\n      dup2\n        /* \"#utility.yul\":4322:4326   */\n      dup2\n        /* \"#utility.yul\":4318:4338   */\n      sub\n        /* \"#utility.yul\":4314:4315   */\n      0x00\n        /* \"#utility.yul\":4303:4312   */\n      dup4\n        /* \"#utility.yul\":4299:4316   */\n      add\n        /* \"#utility.yul\":4292:4339   */\n      mstore\n        /* \"#utility.yul\":4356:4434   */\n      tag_105\n        /* \"#utility.yul\":4429:4433   */\n      dup2\n        /* \"#utility.yul\":4420:4426   */\n      dup5\n        /* \"#utility.yul\":4356:4434   */\n      tag_58\n      jump\t// in\n    tag_105:\n        /* \"#utility.yul\":4348:4434   */\n      swap1\n      pop\n        /* \"#utility.yul\":4128:4441   */\n      swap3\n      swap2\n      pop\n      pop\n      jump\t// out\n        /* \"#utility.yul\":4447:4627   */\n    tag_59:\n        /* \"#utility.yul\":4495:4572   */\n      0x4e487b7100000000000000000000000000000000000000000000000000000000\n        /* \"#utility.yul\":4492:4493   */\n      0x00\n        /* \"#utility.yul\":4485:4573   */\n      mstore\n        /* \"#utility.yul\":4592:4596   */\n      0x22\n        /* \"#utility.yul\":4589:4590   */\n      0x04\n        /* \"#utility.yul\":4582:4597   */\n      mstore\n        /* \"#utility.yul\":4616:4620   */\n      0x24\n        /* \"#utility.yul\":4613:4614   */\n      0x00\n        /* \"#utility.yul\":4606:4621   */\n      revert\n        /* \"#utility.yul\":4633:4953   */\n    tag_31:\n        /* \"#utility.yul\":4677:4683   */\n      0x00\n        /* \"#utility.yul\":4714:4715   */\n      0x02\n        /* \"#utility.yul\":4708:4712   */\n      dup3\n        /* \"#utility.yul\":4704:4716   */\n      div\n        /* \"#utility.yul\":4694:4716   */\n      swap1\n      pop\n        /* \"#utility.yul\":4761:4762   */\n      0x01\n        /* \"#utility.yul\":4755:4759   */\n      dup3\n        /* \"#utility.yul\":4751:4763   */\n      and\n        /* \"#utility.yul\":4782:4800   */\n      dup1\n        /* \"#utility.yul\":4772:4853   */\n      tag_108\n      jumpi\n        /* \"#utility.yul\":4838:4842   */\n      0x7f\n        /* \"#utility.yul\":4830:4836   */\n      dup3\n        /* \"#utility.yul\":4826:4843   */\n      and\n        /* \"#utility.yul\":4816:4843   */\n      swap2\n      pop\n        /* \"#utility.yul\":4772:4853   */\n    tag_108:\n        /* \"#utility.yul\":4900:4902   */\n      0x20\n        /* \"#utility.yul\":4892:4898   */\n      dup3\n        /* \"#utility.yul\":4889:4903   */\n      lt\n        /* \"#utility.yul\":4869:4887   */\n      dup2\n        /* \"#utility.yul\":4866:4904   */\n      sub\n        /* \"#utility.yul\":4863:4947   */\n      tag_109\n      jumpi\n        /* \"#utility.yul\":4919:4937   */\n      tag_110\n      tag_59\n      jump\t// in\n    tag_110:\n        /* \"#utility.yul\":4863:4947   */\n    tag_109:\n        /* \"#utility.yul\":4684:4953   */\n      pop\n        /* \"#utility.yul\":4633:4953   */\n      swap2\n      swap1\n      pop\n      jump\t// out\n\n    auxdata: 0xa264697066735822122039f74f54492eabb1e0583110a5bcc8e64960cfff91a09271bf97cdf078769a1a64736f6c63430008130033\n}\n",
				"bytecode": {
					"linkReferences": {},
					"object": "60806040523480156200001157600080fd5b5060405162000b0538038062000b058339818101604052810190620000379190620001bd565b33600160006101000a81548173ffffffffffffffffffffffffffffffffffffffff021916908373ffffffffffffffffffffffffffffffffffffffff160217905550806000806101000a81548173ffffffffffffffffffffffffffffffffffffffff021916908373ffffffffffffffffffffffffffffffffffffffff1602179055506040516024016040516020818303038152906040527fc2985578000000000000000000000000000000000000000000000000000000007bffffffffffffffffffffffffffffffffffffffffffffffffffffffff19166020820180517bffffffffffffffffffffffffffffffffffffffffffffffffffffffff8381831617835250505050600390816200014b919062000469565b505062000550565b600080fd5b600073ffffffffffffffffffffffffffffffffffffffff82169050919050565b6000620001858262000158565b9050919050565b620001978162000178565b8114620001a357600080fd5b50565b600081519050620001b7816200018c565b92915050565b600060208284031215620001d657620001d562000153565b5b6000620001e684828501620001a6565b91505092915050565b600081519050919050565b7f4e487b7100000000000000000000000000000000000000000000000000000000600052604160045260246000fd5b7f4e487b7100000000000000000000000000000000000000000000000000000000600052602260045260246000fd5b600060028204905060018216806200027157607f821691505b60208210810362000287576200028662000229565b5b50919050565b60008190508160005260206000209050919050565b60006020601f8301049050919050565b600082821b905092915050565b600060088302620002f17fffffffffffffffffffffffffffffffffffffffffffffffffffffffffffffffff82620002b2565b620002fd8683620002b2565b95508019841693508086168417925050509392505050565b6000819050919050565b6000819050919050565b60006200034a620003446200033e8462000315565b6200031f565b62000315565b9050919050565b6000819050919050565b620003668362000329565b6200037e620003758262000351565b848454620002bf565b825550505050565b600090565b6200039562000386565b620003a28184846200035b565b505050565b5b81811015620003ca57620003be6000826200038b565b600181019050620003a8565b5050565b601f8211156200041957620003e3816200028d565b620003ee84620002a2565b81016020851015620003fe578190505b620004166200040d85620002a2565b830182620003a7565b50505b505050565b600082821c905092915050565b60006200043e600019846008026200041e565b1980831691505092915050565b60006200045983836200042b565b9150826002028217905092915050565b6200047482620001ef565b67ffffffffffffffff81111562000490576200048f620001fa565b5b6200049c825462000258565b620004a9828285620003ce565b600060209050601f831160018114620004e15760008415620004cc578287015190505b620004d885826200044b565b86555062000548565b601f198416620004f1866200028d565b60005b828110156200051b57848901518255600182019150602085019450602081019050620004f4565b868310156200053b578489015162000537601f8916826200042b565b8355505b6001600288020188555050505b505050505050565b6105a580620005606000396000f3fe6080604052600436106100385760003560e01c80630900f010146100c6578063ea3d508a146100ef578063f2c31bd91461011a57610039565b5b60008060008054906101000a900473ffffffffffffffffffffffffffffffffffffffff1673ffffffffffffffffffffffffffffffffffffffff1660003660405161008492919061033d565b600060405180830381855af49150503d80600081146100bf576040519150601f19603f3d011682016040523d82523d6000602084013e6100c4565b606091505b005b3480156100d257600080fd5b506100ed60048036038101906100e891906103b9565b610145565b005b3480156100fb57600080fd5b506101046101e2565b6040516101119190610476565b60405180910390f35b34801561012657600080fd5b5061012f610270565b60405161013c91906104ed565b60405180910390f35b600160009054906101000a900473ffffffffffffffffffffffffffffffffffffffff1673ffffffffffffffffffffffffffffffffffffffff163373ffffffffffffffffffffffffffffffffffffffff161461019f57600080fd5b806000806101000a81548173ffffffffffffffffffffffffffffffffffffffff021916908373ffffffffffffffffffffffffffffffffffffffff16021790555050565b600380546101ef9061053e565b80601f016020809104026020016040519081016040528092919081815260200182805461021b9061053e565b80156102685780601f1061023d57610100808354040283529160200191610268565b820191906000526020600020905b81548152906001019060200180831161024b57829003601f168201915b505050505081565b6002805461027d9061053e565b80601f01602080910402602001604051908101604052809291908181526020018280546102a99061053e565b80156102f65780601f106102cb576101008083540402835291602001916102f6565b820191906000526020600020905b8154815290600101906020018083116102d957829003601f168201915b505050505081565b600081905092915050565b82818337600083830152505050565b600061032483856102fe565b9350610331838584610309565b82840190509392505050565b600061034a828486610318565b91508190509392505050565b600080fd5b600073ffffffffffffffffffffffffffffffffffffffff82169050919050565b60006103868261035b565b9050919050565b6103968161037b565b81146103a157600080fd5b50565b6000813590506103b38161038d565b92915050565b6000602082840312156103cf576103ce610356565b5b60006103dd848285016103a4565b91505092915050565b600081519050919050565b600082825260208201905092915050565b60005b83811015610420578082015181840152602081019050610405565b60008484015250505050565b6000601f19601f8301169050919050565b6000610448826103e6565b61045281856103f1565b9350610462818560208601610402565b61046b8161042c565b840191505092915050565b60006020820190508181036000830152610490818461043d565b905092915050565b600081519050919050565b600082825260208201905092915050565b60006104bf82610498565b6104c981856104a3565b93506104d9818560208601610402565b6104e28161042c565b840191505092915050565b6000602082019050818103600083015261050781846104b4565b905092915050565b7f4e487b7100000000000000000000000000000000000000000000000000000000600052602260045260246000fd5b6000600282049050600182168061055657607f821691505b6020821081036105695761056861050f565b5b5091905056fea264697066735822122039f74f54492eabb1e0583110a5bcc8e64960cfff91a09271bf97cdf078769a1a64736f6c63430008130033",
					"opcodes": "PUSH1 0x80 PUSH1 0x40 MSTORE CALLVALUE DUP1 ISZERO PUSH3 0x11 JUMPI PUSH1 0x0 DUP1 REVERT JUMPDEST POP PUSH1 0x40 MLOAD PUSH3 0xB05 CODESIZE SUB DUP1 PUSH3 0xB05 DUP4 CODECOPY DUP2 DUP2 ADD PUSH1 0x40 MSTORE DUP2 ADD SWAP1 PUSH3 0x37 SWAP2 SWAP1 PUSH3 0x1BD JUMP JUMPDEST CALLER PUSH1 0x1 PUSH1 0x0 PUSH2 0x100 EXP DUP2 SLOAD DUP2 PUSH20 0xFFFFFFFFFFFFFFFFFFFFFFFFFFFFFFFFFFFFFFFF MUL NOT AND SWAP1 DUP4 PUSH20 0xFFFFFFFFFFFFFFFFFFFFFFFFFFFFFFFFFFFFFFFF AND MUL OR SWAP1 SSTORE POP DUP1 PUSH1 0x0 DUP1 PUSH2 0x100 EXP DUP2 SLOAD DUP2 PUSH20 0xFFFFFFFFFFFFFFFFFFFFFFFFFFFFFFFFFFFFFFFF MUL NOT AND SWAP1 DUP4 PUSH20 0xFFFFFFFFFFFFFFFFFFFFFFFFFFFFFFFFFFFFFFFF AND MUL OR SWAP1 SSTORE POP PUSH1 0x40 MLOAD PUSH1 0x24 ADD PUSH1 0x40 MLOAD PUSH1 0x20 DUP2 DUP4 SUB SUB DUP2 MSTORE SWAP1 PUSH1 0x40 MSTORE PUSH32 0xC298557800000000000000000000000000000000000000000000000000000000 PUSH28 0xFFFFFFFFFFFFFFFFFFFFFFFFFFFFFFFFFFFFFFFFFFFFFFFFFFFFFFFF NOT AND PUSH1 0x20 DUP3 ADD DUP1 MLOAD PUSH28 0xFFFFFFFFFFFFFFFFFFFFFFFFFFFFFFFFFFFFFFFFFFFFFFFFFFFFFFFF DUP4 DUP2 DUP4 AND OR DUP4 MSTORE POP POP POP POP PUSH1 0x3 SWAP1 DUP2 PUSH3 0x14B SWAP2 SWAP1 PUSH3 0x469 JUMP JUMPDEST POP POP PUSH3 0x550 JUMP JUMPDEST PUSH1 0x0 DUP1 REVERT JUMPDEST PUSH1 0x0 PUSH20 0xFFFFFFFFFFFFFFFFFFFFFFFFFFFFFFFFFFFFFFFF DUP3 AND SWAP1 POP SWAP2 SWAP1 POP JUMP JUMPDEST PUSH1 0x0 PUSH3 0x185 DUP3 PUSH3 0x158 JUMP JUMPDEST SWAP1 POP SWAP2 SWAP1 POP JUMP JUMPDEST PUSH3 0x197 DUP2 PUSH3 0x178 JUMP JUMPDEST DUP2 EQ PUSH3 0x1A3 JUMPI PUSH1 0x0 DUP1 REVERT JUMPDEST POP JUMP JUMPDEST PUSH1 0x0 DUP2 MLOAD SWAP1 POP PUSH3 0x1B7 DUP2 PUSH3 0x18C JUMP JUMPDEST SWAP3 SWAP2 POP POP JUMP JUMPDEST PUSH1 0x0 PUSH1 0x20 DUP3 DUP5 SUB SLT ISZERO PUSH3 0x1D6 JUMPI PUSH3 0x1D5 PUSH3 0x153 JUMP JUMPDEST JUMPDEST PUSH1 0x0 PUSH3 0x1E6 DUP5 DUP3 DUP6 ADD PUSH3 0x1A6 JUMP JUMPDEST SWAP2 POP POP SWAP3 SWAP2 POP POP JUMP JUMPDEST PUSH1 0x0 DUP2 MLOAD SWAP1 POP SWAP2 SWAP1 POP JUMP JUMPDEST PUSH32 0x4E487B7100000000000000000000000000000000000000000000000000000000 PUSH1 0x0 MSTORE PUSH1 0x41 PUSH1 0x4 MSTORE PUSH1 0x24 PUSH1 0x0 REVERT JUMPDEST PUSH32 0x4E487B7100000000000000000000000000000000000000000000000000000000 PUSH1 0x0 MSTORE PUSH1 0x22 PUSH1 0x4 MSTORE PUSH1 0x24 PUSH1 0x0 REVERT JUMPDEST PUSH1 0x0 PUSH1 0x2 DUP3 DIV SWAP1 POP PUSH1 0x1 DUP3 AND DUP1 PUSH3 0x271 JUMPI PUSH1 0x7F DUP3 AND SWAP2 POP JUMPDEST PUSH1 0x20 DUP3 LT DUP2 SUB PUSH3 0x287 JUMPI PUSH3 0x286 PUSH3 0x229 JUMP JUMPDEST JUMPDEST POP SWAP2 SWAP1 POP JUMP JUMPDEST PUSH1 0x0 DUP2 SWAP1 POP DUP2 PUSH1 0x0 MSTORE PUSH1 0x20 PUSH1 0x0 KECCAK256 SWAP1 POP SWAP2 SWAP1 POP JUMP JUMPDEST PUSH1 0x0 PUSH1 0x20 PUSH1 0x1F DUP4 ADD DIV SWAP1 POP SWAP2 SWAP1 POP JUMP JUMPDEST PUSH1 0x0 DUP3 DUP3 SHL SWAP1 POP SWAP3 SWAP2 POP POP JUMP JUMPDEST PUSH1 0x0 PUSH1 0x8 DUP4 MUL PUSH3 0x2F1 PUSH32 0xFFFFFFFFFFFFFFFFFFFFFFFFFFFFFFFFFFFFFFFFFFFFFFFFFFFFFFFFFFFFFFFF DUP3 PUSH3 0x2B2 JUMP JUMPDEST PUSH3 0x2FD DUP7 DUP4 PUSH3 0x2B2 JUMP JUMPDEST SWAP6 POP DUP1 NOT DUP5 AND SWAP4 POP DUP1 DUP7 AND DUP5 OR SWAP3 POP POP POP SWAP4 SWAP3 POP POP POP JUMP JUMPDEST PUSH1 0x0 DUP2 SWAP1 POP SWAP2 SWAP1 POP JUMP JUMPDEST PUSH1 0x0 DUP2 SWAP1 POP SWAP2 SWAP1 POP JUMP JUMPDEST PUSH1 0x0 PUSH3 0x34A PUSH3 0x344 PUSH3 0x33E DUP5 PUSH3 0x315 JUMP JUMPDEST PUSH3 0x31F JUMP JUMPDEST PUSH3 0x315 JUMP JUMPDEST SWAP1 POP SWAP2 SWAP1 POP JUMP JUMPDEST PUSH1 0x0 DUP2 SWAP1 POP SWAP2 SWAP1 POP JUMP JUMPDEST PUSH3 0x366 DUP4 PUSH3 0x329 JUMP JUMPDEST PUSH3 0x37E PUSH3 0x375 DUP3 PUSH3 0x351 JUMP JUMPDEST DUP5 DUP5 SLOAD PUSH3 0x2BF JUMP JUMPDEST DUP3 SSTORE POP POP POP POP JUMP JUMPDEST PUSH1 0x0 SWAP1 JUMP JUMPDEST PUSH3 0x395 PUSH3 0x386 JUMP JUMPDEST PUSH3 0x3A2 DUP2 DUP5 DUP5 PUSH3 0x35B JUMP JUMPDEST POP POP POP JUMP JUMPDEST JUMPDEST DUP2 DUP2 LT ISZERO PUSH3 0x3CA JUMPI PUSH3 0x3BE PUSH1 0x0 DUP3 PUSH3 0x38B JUMP JUMPDEST PUSH1 0x1 DUP2 ADD SWAP1 POP PUSH3 0x3A8 JUMP JUMPDEST POP POP JUMP JUMPDEST PUSH1 0x1F DUP3 GT ISZERO PUSH3 0x419 JUMPI PUSH3 0x3E3 DUP2 PUSH3 0x28D JUMP JUMPDEST PUSH3 0x3EE DUP5 PUSH3 0x2A2 JUMP JUMPDEST DUP2 ADD PUSH1 0x20 DUP6 LT ISZERO PUSH3 0x3FE JUMPI DUP2 SWAP1 POP JUMPDEST PUSH3 0x416 PUSH3 0x40D DUP6 PUSH3 0x2A2 JUMP JUMPDEST DUP4 ADD DUP3 PUSH3 0x3A7 JUMP JUMPDEST POP POP JUMPDEST POP POP POP JUMP JUMPDEST PUSH1 0x0 DUP3 DUP3 SHR SWAP1 POP SWAP3 SWAP2 POP POP JUMP JUMPDEST PUSH1 0x0 PUSH3 0x43E PUSH1 0x0 NOT DUP5 PUSH1 0x8 MUL PUSH3 0x41E JUMP JUMPDEST NOT DUP1 DUP4 AND SWAP2 POP POP SWAP3 SWAP2 POP POP JUMP JUMPDEST PUSH1 0x0 PUSH3 0x459 DUP4 DUP4 PUSH3 0x42B JUMP JUMPDEST SWAP2 POP DUP3 PUSH1 0x2 MUL DUP3 OR SWAP1 POP SWAP3 SWAP2 POP POP JUMP JUMPDEST PUSH3 0x474 DUP3 PUSH3 0x1EF JUMP JUMPDEST PUSH8 0xFFFFFFFFFFFFFFFF DUP2 GT ISZERO PUSH3 0x490 JUMPI PUSH3 0x48F PUSH3 0x1FA JUMP JUMPDEST JUMPDEST PUSH3 0x49C DUP3 SLOAD PUSH3 0x258 JUMP JUMPDEST PUSH3 0x4A9 DUP3 DUP3 DUP6 PUSH3 0x3CE JUMP JUMPDEST PUSH1 0x0 PUSH1 0x20 SWAP1 POP PUSH1 0x1F DUP4 GT PUSH1 0x1 DUP2 EQ PUSH3 0x4E1 JUMPI PUSH1 0x0 DUP5 ISZERO PUSH3 0x4CC JUMPI DUP3 DUP8 ADD MLOAD SWAP1 POP JUMPDEST PUSH3 0x4D8 DUP6 DUP3 PUSH3 0x44B JUMP JUMPDEST DUP7 SSTORE POP PUSH3 0x548 JUMP JUMPDEST PUSH1 0x1F NOT DUP5 AND PUSH3 0x4F1 DUP7 PUSH3 0x28D JUMP JUMPDEST PUSH1 0x0 JUMPDEST DUP3 DUP2 LT ISZERO PUSH3 0x51B JUMPI DUP5 DUP10 ADD MLOAD DUP3 SSTORE PUSH1 0x1 DUP3 ADD SWAP2 POP PUSH1 0x20 DUP6 ADD SWAP5 POP PUSH1 0x20 DUP2 ADD SWAP1 POP PUSH3 0x4F4 JUMP JUMPDEST DUP7 DUP4 LT ISZERO PUSH3 0x53B JUMPI DUP5 DUP10 ADD MLOAD PUSH3 0x537 PUSH1 0x1F DUP10 AND DUP3 PUSH3 0x42B JUMP JUMPDEST DUP4 SSTORE POP JUMPDEST PUSH1 0x1 PUSH1 0x2 DUP9 MUL ADD DUP9 SSTORE POP POP POP JUMPDEST POP POP POP POP POP POP JUMP JUMPDEST PUSH2 0x5A5 DUP1 PUSH3 0x560 PUSH1 0x0 CODECOPY PUSH1 0x0 RETURN INVALID PUSH1 0x80 PUSH1 0x40 MSTORE PUSH1 0x4 CALLDATASIZE LT PUSH2 0x38 JUMPI PUSH1 0x0 CALLDATALOAD PUSH1 0xE0 SHR DUP1 PUSH4 0x900F010 EQ PUSH2 0xC6 JUMPI DUP1 PUSH4 0xEA3D508A EQ PUSH2 0xEF JUMPI DUP1 PUSH4 0xF2C31BD9 EQ PUSH2 0x11A JUMPI PUSH2 0x39 JUMP JUMPDEST JUMPDEST PUSH1 0x0 DUP1 PUSH1 0x0 DUP1 SLOAD SWAP1 PUSH2 0x100 EXP SWAP1 DIV PUSH20 0xFFFFFFFFFFFFFFFFFFFFFFFFFFFFFFFFFFFFFFFF AND PUSH20 0xFFFFFFFFFFFFFFFFFFFFFFFFFFFFFFFFFFFFFFFF AND PUSH1 0x0 CALLDATASIZE PUSH1 0x40 MLOAD PUSH2 0x84 SWAP3 SWAP2 SWAP1 PUSH2 0x33D JUMP JUMPDEST PUSH1 0x0 PUSH1 0x40 MLOAD DUP1 DUP4 SUB DUP2 DUP6 GAS DELEGATECALL SWAP2 POP POP RETURNDATASIZE DUP1 PUSH1 0x0 DUP2 EQ PUSH2 0xBF JUMPI PUSH1 0x40 MLOAD SWAP2 POP PUSH1 0x1F NOT PUSH1 0x3F RETURNDATASIZE ADD AND DUP3 ADD PUSH1 0x40 MSTORE RETURNDATASIZE DUP3 MSTORE RETURNDATASIZE PUSH1 0x0 PUSH1 0x20 DUP5 ADD RETURNDATACOPY PUSH2 0xC4 JUMP JUMPDEST PUSH1 0x60 SWAP2 POP JUMPDEST STOP JUMPDEST CALLVALUE DUP1 ISZERO PUSH2 0xD2 JUMPI PUSH1 0x0 DUP1 REVERT JUMPDEST POP PUSH2 0xED PUSH1 0x4 DUP1 CALLDATASIZE SUB DUP2 ADD SWAP1 PUSH2 0xE8 SWAP2 SWAP1 PUSH2 0x3B9 JUMP JUMPDEST PUSH2 0x145 JUMP JUMPDEST STOP JUMPDEST CALLVALUE DUP1 ISZERO PUSH2 0xFB JUMPI PUSH1 0x0 DUP1 REVERT JUMPDEST POP PUSH2 0x104 PUSH2 0x1E2 JUMP JUMPDEST PUSH1 0x40 MLOAD PUSH2 0x111 SWAP2 SWAP1 PUSH2 0x476 JUMP JUMPDEST PUSH1 0x40 MLOAD DUP1 SWAP2 SUB SWAP1 RETURN JUMPDEST CALLVALUE DUP1 ISZERO PUSH2 0x126 JUMPI PUSH1 0x0 DUP1 REVERT JUMPDEST POP PUSH2 0x12F PUSH2 0x270 JUMP JUMPDEST PUSH1 0x40 MLOAD PUSH2 0x13C SWAP2 SWAP1 PUSH2 0x4ED JUMP JUMPDEST PUSH1 0x40 MLOAD DUP1 SWAP2 SUB SWAP1 RETURN JUMPDEST PUSH1 0x1 PUSH1 0x0 SWAP1 SLOAD SWAP1 PUSH2 0x100 EXP SWAP1 DIV PUSH20 0xFFFFFFFFFFFFFFFFFFFFFFFFFFFFFFFFFFFFFFFF AND PUSH20 0xFFFFFFFFFFFFFFFFFFFFFFFFFFFFFFFFFFFFFFFF AND CALLER PUSH20 0xFFFFFFFFFFFFFFFFFFFFFFFFFFFFFFFFFFFFFFFF AND EQ PUSH2 0x19F JUMPI PUSH1 0x0 DUP1 REVERT JUMPDEST DUP1 PUSH1 0x0 DUP1 PUSH2 0x100 EXP DUP2 SLOAD DUP2 PUSH20 0xFFFFFFFFFFFFFFFFFFFFFFFFFFFFFFFFFFFFFFFF MUL NOT AND SWAP1 DUP4 PUSH20 0xFFFFFFFFFFFFFFFFFFFFFFFFFFFFFFFFFFFFFFFF AND MUL OR SWAP1 SSTORE POP POP JUMP JUMPDEST PUSH1 0x3 DUP1 SLOAD PUSH2 0x1EF SWAP1 PUSH2 0x53E JUMP JUMPDEST DUP1 PUSH1 0x1F ADD PUSH1 0x20 DUP1 SWAP2 DIV MUL PUSH1 0x20 ADD PUSH1 0x40 MLOAD SWAP1 DUP2 ADD PUSH1 0x40 MSTORE DUP1 SWAP3 SWAP2 SWAP1 DUP2 DUP2 MSTORE PUSH1 0x20 ADD DUP3 DUP1 SLOAD PUSH2 0x21B SWAP1 PUSH2 0x53E JUMP JUMPDEST DUP1 ISZERO PUSH2 0x268 JUMPI DUP1 PUSH1 0x1F LT PUSH2 0x23D JUMPI PUSH2 0x100 DUP1 DUP4 SLOAD DIV MUL DUP4 MSTORE SWAP2 PUSH1 0x20 ADD SWAP2 PUSH2 0x268 JUMP JUMPDEST DUP3 ADD SWAP2 SWAP1 PUSH1 0x0 MSTORE PUSH1 0x20 PUSH1 0x0 KECCAK256 SWAP1 JUMPDEST DUP2 SLOAD DUP2 MSTORE SWAP1 PUSH1 0x1 ADD SWAP1 PUSH1 0x20 ADD DUP1 DUP4 GT PUSH2 0x24B JUMPI DUP3 SWAP1 SUB PUSH1 0x1F AND DUP3 ADD SWAP2 JUMPDEST POP POP POP POP POP DUP2 JUMP JUMPDEST PUSH1 0x2 DUP1 SLOAD PUSH2 0x27D SWAP1 PUSH2 0x53E JUMP JUMPDEST DUP1 PUSH1 0x1F ADD PUSH1 0x20 DUP1 SWAP2 DIV MUL PUSH1 0x20 ADD PUSH1 0x40 MLOAD SWAP1 DUP2 ADD PUSH1 0x40 MSTORE DUP1 SWAP3 SWAP2 SWAP1 DUP2 DUP2 MSTORE PUSH1 0x20 ADD DUP3 DUP1 SLOAD PUSH2 0x2A9 SWAP1 PUSH2 0x53E JUMP JUMPDEST DUP1 ISZERO PUSH2 0x2F6 JUMPI DUP1 PUSH1 0x1F LT PUSH2 0x2CB JUMPI PUSH2 0x100 DUP1 DUP4 SLOAD DIV MUL DUP4 MSTORE SWAP2 PUSH1 0x20 ADD SWAP2 PUSH2 0x2F6 JUMP JUMPDEST DUP3 ADD SWAP2 SWAP1 PUSH1 0x0 MSTORE PUSH1 0x20 PUSH1 0x0 KECCAK256 SWAP1 JUMPDEST DUP2 SLOAD DUP2 MSTORE SWAP1 PUSH1 0x1 ADD SWAP1 PUSH1 0x20 ADD DUP1 DUP4 GT PUSH2 0x2D9 JUMPI DUP3 SWAP1 SUB PUSH1 0x1F AND DUP3 ADD SWAP2 JUMPDEST POP POP POP POP POP DUP2 JUMP JUMPDEST PUSH1 0x0 DUP2 SWAP1 POP SWAP3 SWAP2 POP POP JUMP JUMPDEST DUP3 DUP2 DUP4 CALLDATACOPY PUSH1 0x0 DUP4 DUP4 ADD MSTORE POP POP POP JUMP JUMPDEST PUSH1 0x0 PUSH2 0x324 DUP4 DUP6 PUSH2 0x2FE JUMP JUMPDEST SWAP4 POP PUSH2 0x331 DUP4 DUP6 DUP5 PUSH2 0x309 JUMP JUMPDEST DUP3 DUP5 ADD SWAP1 POP SWAP4 SWAP3 POP POP POP JUMP JUMPDEST PUSH1 0x0 PUSH2 0x34A DUP3 DUP5 DUP7 PUSH2 0x318 JUMP JUMPDEST SWAP2 POP DUP2 SWAP1 POP SWAP4 SWAP3 POP POP POP JUMP JUMPDEST PUSH1 0x0 DUP1 REVERT JUMPDEST PUSH1 0x0 PUSH20 0xFFFFFFFFFFFFFFFFFFFFFFFFFFFFFFFFFFFFFFFF DUP3 AND SWAP1 POP SWAP2 SWAP1 POP JUMP JUMPDEST PUSH1 0x0 PUSH2 0x386 DUP3 PUSH2 0x35B JUMP JUMPDEST SWAP1 POP SWAP2 SWAP1 POP JUMP JUMPDEST PUSH2 0x396 DUP2 PUSH2 0x37B JUMP JUMPDEST DUP2 EQ PUSH2 0x3A1 JUMPI PUSH1 0x0 DUP1 REVERT JUMPDEST POP JUMP JUMPDEST PUSH1 0x0 DUP2 CALLDATALOAD SWAP1 POP PUSH2 0x3B3 DUP2 PUSH2 0x38D JUMP JUMPDEST SWAP3 SWAP2 POP POP JUMP JUMPDEST PUSH1 0x0 PUSH1 0x20 DUP3 DUP5 SUB SLT ISZERO PUSH2 0x3CF JUMPI PUSH2 0x3CE PUSH2 0x356 JUMP JUMPDEST JUMPDEST PUSH1 0x0 PUSH2 0x3DD DUP5 DUP3 DUP6 ADD PUSH2 0x3A4 JUMP JUMPDEST SWAP2 POP POP SWAP3 SWAP2 POP POP JUMP JUMPDEST PUSH1 0x0 DUP2 MLOAD SWAP1 POP SWAP2 SWAP1 POP JUMP JUMPDEST PUSH1 0x0 DUP3 DUP3 MSTORE PUSH1 0x20 DUP3 ADD SWAP1 POP SWAP3 SWAP2 POP POP JUMP JUMPDEST PUSH1 0x0 JUMPDEST DUP4 DUP2 LT ISZERO PUSH2 0x420 JUMPI DUP1 DUP3 ADD MLOAD DUP2 DUP5 ADD MSTORE PUSH1 0x20 DUP2 ADD SWAP1 POP PUSH2 0x405 JUMP JUMPDEST PUSH1 0x0 DUP5 DUP5 ADD MSTORE POP POP POP POP JUMP JUMPDEST PUSH1 0x0 PUSH1 0x1F NOT PUSH1 0x1F DUP4 ADD AND SWAP1 POP SWAP2 SWAP1 POP JUMP JUMPDEST PUSH1 0x0 PUSH2 0x448 DUP3 PUSH2 0x3E6 JUMP JUMPDEST PUSH2 0x452 DUP2 DUP6 PUSH2 0x3F1 JUMP JUMPDEST SWAP4 POP PUSH2 0x462 DUP2 DUP6 PUSH1 0x20 DUP7 ADD PUSH2 0x402 JUMP JUMPDEST PUSH2 0x46B DUP2 PUSH2 0x42C JUMP JUMPDEST DUP5 ADD SWAP2 POP POP SWAP3 SWAP2 POP POP JUMP JUMPDEST PUSH1 0x0 PUSH1 0x20 DUP3 ADD SWAP1 POP DUP2 DUP2 SUB PUSH1 0x0 DUP4 ADD MSTORE PUSH2 0x490 DUP2 DUP5 PUSH2 0x43D JUMP JUMPDEST SWAP1 POP SWAP3 SWAP2 POP POP JUMP JUMPDEST PUSH1 0x0 DUP2 MLOAD SWAP1 POP SWAP2 SWAP1 POP JUMP JUMPDEST PUSH1 0x0 DUP3 DUP3 MSTORE PUSH1 0x20 DUP3 ADD SWAP1 POP SWAP3 SWAP2 POP POP JUMP JUMPDEST PUSH1 0x0 PUSH2 0x4BF DUP3 PUSH2 0x498 JUMP JUMPDEST PUSH2 0x4C9 DUP2 DUP6 PUSH2 0x4A3 JUMP JUMPDEST SWAP4 POP PUSH2 0x4D9 DUP2 DUP6 PUSH1 0x20 DUP7 ADD PUSH2 0x402 JUMP JUMPDEST PUSH2 0x4E2 DUP2 PUSH2 0x42C JUMP JUMPDEST DUP5 ADD SWAP2 POP POP SWAP3 SWAP2 POP POP JUMP JUMPDEST PUSH1 0x0 PUSH1 0x20 DUP3 ADD SWAP1 POP DUP2 DUP2 SUB PUSH1 0x0 DUP4 ADD MSTORE PUSH2 0x507 DUP2 DUP5 PUSH2 0x4B4 JUMP JUMPDEST SWAP1 POP SWAP3 SWAP2 POP POP JUMP JUMPDEST PUSH32 0x4E487B7100000000000000000000000000000000000000000000000000000000 PUSH1 0x0 MSTORE PUSH1 0x22 PUSH1 0x4 MSTORE PUSH1 0x24 PUSH1 0x0 REVERT JUMPDEST PUSH1 0x0 PUSH1 0x2 DUP3 DIV SWAP1 POP PUSH1 0x1 DUP3 AND DUP1 PUSH2 0x556 JUMPI PUSH1 0x7F DUP3 AND SWAP2 POP JUMPDEST PUSH1 0x20 DUP3 LT DUP2 SUB PUSH2 0x569 JUMPI PUSH2 0x568 PUSH2 0x50F JUMP JUMPDEST JUMPDEST POP SWAP2 SWAP1 POP JUMP INVALID LOG2 PUSH5 0x6970667358 0x22 SLT KECCAK256 CODECOPY 0xF7 0x4F SLOAD 0x49 0x2E 0xAB 0xB1 0xE0 PC BALANCE LT 0xA5 0xBC 0xC8 0xE6 0x49 PUSH1 0xCF SELFDESTRUCT SWAP2 LOG0 SWAP3 PUSH18 0xBF97CDF078769A1A64736F6C634300081300 CALLER "
				},
				"gasEstimates": {
					"creation": {
						"codeDepositCost": "289000",
						"executionCost": "infinite",
						"totalCost": "infinite"
					},
					"external": {
						"": "infinite",
						"selector()": "infinite",
						"upgrade(address)": "26870",
						"words()": "infinite"
					}
				},
				"methodIdentifiers": {
					"selector()": "ea3d508a",
					"upgrade(address)": "0900f010",
					"words()": "f2c31bd9"
				}
			},
			"storageLayout": {
				"storage": [
					{
						"astId": 26,
						"contract": "contracts/ebc/Copy_TransparentProxy.sol:TransparentProxy",
						"label": "implementation",
						"offset": 0,
						"slot": "0",
						"type": "t_address"
					},
					{
						"astId": 28,
						"contract": "contracts/ebc/Copy_TransparentProxy.sol:TransparentProxy",
						"label": "admin",
						"offset": 0,
						"slot": "1",
						"type": "t_address"
					},
					{
						"astId": 30,
						"contract": "contracts/ebc/Copy_TransparentProxy.sol:TransparentProxy",
						"label": "words",
						"offset": 0,
						"slot": "2",
						"type": "t_string_storage"
					},
					{
						"astId": 32,
						"contract": "contracts/ebc/Copy_TransparentProxy.sol:TransparentProxy",
						"label": "selector",
						"offset": 0,
						"slot": "3",
						"type": "t_bytes_storage"
					}
				],
				"types": {
					"t_address": {
						"encoding": "inplace",
						"label": "address",
						"numberOfBytes": "20"
					},
					"t_bytes_storage": {
						"encoding": "bytes",
						"label": "bytes",
						"numberOfBytes": "32"
					},
					"t_string_storage": {
						"encoding": "bytes",
						"label": "string",
						"numberOfBytes": "32"
					}
				}
			},
			"userdoc": {
				"kind": "user",
				"methods": {},
				"version": 1
			}
		}
	}
}