{
  "_format": "hh-sol-artifact-1",
  "contractName": "ERC20",
  "sourceName": "contracts/yyi.sol",
  "abi": [
    {
      "inputs": [
        {
          "internalType": "string",
          "name": "tokenName",
          "type": "string"
        },
        {
          "internalType": "string",
          "name": "symbolName",
          "type": "string"
        },
        {
          "internalType": "uint8",
          "name": "tokenDecimals",
          "type": "uint8"
        },
        {
          "internalType": "uint256",
          "name": "startTotal",
          "type": "uint256"
        },
        {
          "internalType": "address",
          "name": "account",
          "type": "address"
        }
      ],
      "stateMutability": "payable",
      "type": "constructor"
    },
    {
      "anonymous": false,
      "inputs": [
        {
          "indexed": true,
          "internalType": "address",
          "name": "owner",
          "type": "address"
        },
        {
          "indexed": true,
          "internalType": "address",
          "name": "spender",
          "type": "address"
        },
        {
          "indexed": false,
          "internalType": "uint256",
          "name": "value",
          "type": "uint256"
        }
      ],
      "name": "Approval",
      "type": "event"
    },
    {
      "anonymous": false,
      "inputs": [
        {
          "indexed": true,
          "internalType": "address",
          "name": "from",
          "type": "address"
        },
        {
          "indexed": true,
          "internalType": "address",
          "name": "to",
          "type": "address"
        },
        {
          "indexed": false,
          "internalType": "uint256",
          "name": "value",
          "type": "uint256"
        }
      ],
      "name": "Transfer",
      "type": "event"
    },
    {
      "stateMutability": "payable",
      "type": "fallback"
    },
    {
      "inputs": [],
      "name": "adminAddress",
      "outputs": [
        {
          "internalType": "address payable",
          "name": "",
          "type": "address"
        }
      ],
      "stateMutability": "view",
      "type": "function"
    },
    {
      "inputs": [
        {
          "internalType": "address",
          "name": "owner",
          "type": "address"
        },
        {
          "internalType": "address",
          "name": "spender",
          "type": "address"
        }
      ],
      "name": "allowance",
      "outputs": [
        {
          "internalType": "uint256",
          "name": "",
          "type": "uint256"
        }
      ],
      "stateMutability": "view",
      "type": "function"
    },
    {
      "inputs": [
        {
          "internalType": "address",
          "name": "spender",
          "type": "address"
        },
        {
          "internalType": "uint256",
          "name": "amount",
          "type": "uint256"
        }
      ],
      "name": "approve",
      "outputs": [
        {
          "internalType": "bool",
          "name": "",
          "type": "bool"
        }
      ],
      "stateMutability": "nonpayable",
      "type": "function"
    },
    {
      "inputs": [
        {
          "internalType": "address",
          "name": "account",
          "type": "address"
        }
      ],
      "name": "balanceOf",
      "outputs": [
        {
          "internalType": "uint256",
          "name": "",
          "type": "uint256"
        }
      ],
      "stateMutability": "view",
      "type": "function"
    },
    {
      "inputs": [],
      "name": "decimals",
      "outputs": [
        {
          "internalType": "uint8",
          "name": "",
          "type": "uint8"
        }
      ],
      "stateMutability": "view",
      "type": "function"
    },
    {
      "inputs": [
        {
          "internalType": "address",
          "name": "spender",
          "type": "address"
        },
        {
          "internalType": "uint256",
          "name": "substractedValue",
          "type": "uint256"
        }
      ],
      "name": "decreaseAllowance",
      "outputs": [
        {
          "internalType": "bool",
          "name": "",
          "type": "bool"
        }
      ],
      "stateMutability": "nonpayable",
      "type": "function"
    },
    {
      "inputs": [
        {
          "internalType": "address",
          "name": "newAddress",
          "type": "address"
        }
      ],
      "name": "editAdmin",
      "outputs": [],
      "stateMutability": "nonpayable",
      "type": "function"
    },
    {
      "inputs": [
        {
          "internalType": "address",
          "name": "spender",
          "type": "address"
        },
        {
          "internalType": "uint256",
          "name": "addedValue",
          "type": "uint256"
        }
      ],
      "name": "increaseAllowance",
      "outputs": [
        {
          "internalType": "bool",
          "name": "",
          "type": "bool"
        }
      ],
      "stateMutability": "nonpayable",
      "type": "function"
    },
    {
      "inputs": [
        {
          "internalType": "address",
          "name": "account",
          "type": "address"
        },
        {
          "internalType": "uint256",
          "name": "amount",
          "type": "uint256"
        }
      ],
      "name": "mint",
      "outputs": [],
      "stateMutability": "nonpayable",
      "type": "function"
    },
    {
      "inputs": [],
      "name": "name",
      "outputs": [
        {
          "internalType": "string",
          "name": "",
          "type": "string"
        }
      ],
      "stateMutability": "view",
      "type": "function"
    },
    {
      "inputs": [],
      "name": "symbol",
      "outputs": [
        {
          "internalType": "string",
          "name": "",
          "type": "string"
        }
      ],
      "stateMutability": "view",
      "type": "function"
    },
    {
      "inputs": [],
      "name": "totalSupply",
      "outputs": [
        {
          "internalType": "uint256",
          "name": "",
          "type": "uint256"
        }
      ],
      "stateMutability": "view",
      "type": "function"
    },
    {
      "inputs": [
        {
          "internalType": "address",
          "name": "to",
          "type": "address"
        },
        {
          "internalType": "uint256",
          "name": "amount",
          "type": "uint256"
        }
      ],
      "name": "transfer",
      "outputs": [
        {
          "internalType": "bool",
          "name": "",
          "type": "bool"
        }
      ],
      "stateMutability": "nonpayable",
      "type": "function"
    },
    {
      "inputs": [
        {
          "internalType": "address",
          "name": "from",
          "type": "address"
        },
        {
          "internalType": "address",
          "name": "to",
          "type": "address"
        },
        {
          "internalType": "uint256",
          "name": "amount",
          "type": "uint256"
        }
      ],
      "name": "transferFrom",
      "outputs": [
        {
          "internalType": "bool",
          "name": "",
          "type": "bool"
        }
      ],
      "stateMutability": "nonpayable",
      "type": "function"
    },
    {
      "inputs": [],
      "name": "withdraw",
      "outputs": [],
      "stateMutability": "nonpayable",
      "type": "function"
    },
    {
      "inputs": [
        {
          "internalType": "contract IERC20",
          "name": "token",
          "type": "address"
        }
      ],
      "name": "withdrawToken",
      "outputs": [],
      "stateMutability": "payable",
      "type": "function"
    },
    {
      "stateMutability": "payable",
      "type": "receive"
    }
  ],
  "bytecode": "0x608060405260405162002a2c38038062002a2c8339818101604052810190620000299190620004e3565b84600390816200003a9190620007ea565b5083600490816200004c9190620007ea565b5082600560006101000a81548160ff021916908360ff160217905550620000a481600560009054906101000a900460ff16600a6200008b919062000a54565b8462000098919062000aa5565b620000f060201b60201c565b33600560016101000a81548173ffffffffffffffffffffffffffffffffffffffff021916908373ffffffffffffffffffffffffffffffffffffffff160217905550505050505062000bdc565b600073ffffffffffffffffffffffffffffffffffffffff168273ffffffffffffffffffffffffffffffffffffffff160362000162576040517f08c379a0000000000000000000000000000000000000000000000000000000008152600401620001599062000b51565b60405180910390fd5b62000176600083836200026860201b60201c565b80600260008282546200018a919062000b73565b92505081905550806000808473ffffffffffffffffffffffffffffffffffffffff1673ffffffffffffffffffffffffffffffffffffffff1681526020019081526020016000206000828254620001e1919062000b73565b925050819055508173ffffffffffffffffffffffffffffffffffffffff16600073ffffffffffffffffffffffffffffffffffffffff167fddf252ad1be2c89b69c2b068fc378daa952ba7f163c4a11628f55a4df523b3ef8360405162000248919062000bbf565b60405180910390a362000264600083836200026d60201b60201c565b5050565b505050565b505050565b6000604051905090565b600080fd5b600080fd5b600080fd5b600080fd5b6000601f19601f8301169050919050565b7f4e487b7100000000000000000000000000000000000000000000000000000000600052604160045260246000fd5b620002db8262000290565b810181811067ffffffffffffffff82111715620002fd57620002fc620002a1565b5b80604052505050565b60006200031262000272565b9050620003208282620002d0565b919050565b600067ffffffffffffffff821115620003435762000342620002a1565b5b6200034e8262000290565b9050602081019050919050565b60005b838110156200037b5780820151818401526020810190506200035e565b60008484015250505050565b60006200039e620003988462000325565b62000306565b905082815260208101848484011115620003bd57620003bc6200028b565b5b620003ca8482856200035b565b509392505050565b600082601f830112620003ea57620003e962000286565b5b8151620003fc84826020860162000387565b91505092915050565b600060ff82169050919050565b6200041d8162000405565b81146200042957600080fd5b50565b6000815190506200043d8162000412565b92915050565b6000819050919050565b620004588162000443565b81146200046457600080fd5b50565b60008151905062000478816200044d565b92915050565b600073ffffffffffffffffffffffffffffffffffffffff82169050919050565b6000620004ab826200047e565b9050919050565b620004bd816200049e565b8114620004c957600080fd5b50565b600081519050620004dd81620004b2565b92915050565b600080600080600060a086880312156200050257620005016200027c565b5b600086015167ffffffffffffffff81111562000523576200052262000281565b5b6200053188828901620003d2565b955050602086015167ffffffffffffffff81111562000555576200055462000281565b5b6200056388828901620003d2565b945050604062000576888289016200042c565b9350506060620005898882890162000467565b92505060806200059c88828901620004cc565b9150509295509295909350565b600081519050919050565b7f4e487b7100000000000000000000000000000000000000000000000000000000600052602260045260246000fd5b60006002820490506001821680620005fc57607f821691505b602082108103620006125762000611620005b4565b5b50919050565b60008190508160005260206000209050919050565b60006020601f8301049050919050565b600082821b905092915050565b6000600883026200067c7fffffffffffffffffffffffffffffffffffffffffffffffffffffffffffffffff826200063d565b6200068886836200063d565b95508019841693508086168417925050509392505050565b6000819050919050565b6000620006cb620006c5620006bf8462000443565b620006a0565b62000443565b9050919050565b6000819050919050565b620006e783620006aa565b620006ff620006f682620006d2565b8484546200064a565b825550505050565b600090565b6200071662000707565b62000723818484620006dc565b505050565b5b818110156200074b576200073f6000826200070c565b60018101905062000729565b5050565b601f8211156200079a57620007648162000618565b6200076f846200062d565b810160208510156200077f578190505b620007976200078e856200062d565b83018262000728565b50505b505050565b600082821c905092915050565b6000620007bf600019846008026200079f565b1980831691505092915050565b6000620007da8383620007ac565b9150826002028217905092915050565b620007f582620005a9565b67ffffffffffffffff811115620008115762000810620002a1565b5b6200081d8254620005e3565b6200082a8282856200074f565b600060209050601f8311600181146200086257600084156200084d578287015190505b620008598582620007cc565b865550620008c9565b601f198416620008728662000618565b60005b828110156200089c5784890151825560018201915060208501945060208101905062000875565b86831015620008bc5784890151620008b8601f891682620007ac565b8355505b6001600288020188555050505b505050505050565b7f4e487b7100000000000000000000000000000000000000000000000000000000600052601160045260246000fd5b60008160011c9050919050565b6000808291508390505b60018511156200095f57808604811115620009375762000936620008d1565b5b6001851615620009475780820291505b8081029050620009578562000900565b945062000917565b94509492505050565b6000826200097a576001905062000a4d565b816200098a576000905062000a4d565b8160018114620009a35760028114620009ae57620009e4565b600191505062000a4d565b60ff841115620009c357620009c2620008d1565b5b8360020a915084821115620009dd57620009dc620008d1565b5b5062000a4d565b5060208310610133831016604e8410600b841016171562000a1e5782820a90508381111562000a185762000a17620008d1565b5b62000a4d565b62000a2d84848460016200090d565b9250905081840481111562000a475762000a46620008d1565b5b81810290505b9392505050565b600062000a618262000443565b915062000a6e8362000405565b925062000a9d7fffffffffffffffffffffffffffffffffffffffffffffffffffffffffffffffff848462000968565b905092915050565b600062000ab28262000443565b915062000abf8362000443565b925082820262000acf8162000443565b9150828204841483151762000ae95762000ae8620008d1565b5b5092915050565b600082825260208201905092915050565b7f45524332303a206d696e7420746f20746865207a65726f206164647265737300600082015250565b600062000b39601f8362000af0565b915062000b468262000b01565b602082019050919050565b6000602082019050818103600083015262000b6c8162000b2a565b9050919050565b600062000b808262000443565b915062000b8d8362000443565b925082820190508082111562000ba85762000ba7620008d1565b5b92915050565b62000bb98162000443565b82525050565b600060208201905062000bd6600083018462000bae565b92915050565b611e408062000bec6000396000f3fe6080604052600436106100f75760003560e01c806340c10f191161008a578063a457c2d711610059578063a457c2d714610325578063a9059cbb14610362578063dd62ed3e1461039f578063fc6f9468146103dc576100fe565b806340c10f191461027857806370a08231146102a157806389476069146102de57806395d89b41146102fa576100fe565b8063313ce567116100c6578063313ce567146101d057806339509351146101fb5780633ccfd60b146102385780633d128eec1461024f576100fe565b806306fdde0314610100578063095ea7b31461012b57806318160ddd1461016857806323b872dd14610193576100fe565b366100fe57005b005b34801561010c57600080fd5b50610115610407565b60405161012291906112f0565b60405180910390f35b34801561013757600080fd5b50610152600480360381019061014d91906113ab565b610499565b60405161015f9190611406565b60405180910390f35b34801561017457600080fd5b5061017d6104b5565b60405161018a9190611430565b60405180910390f35b34801561019f57600080fd5b506101ba60048036038101906101b5919061144b565b6104bf565b6040516101c79190611406565b60405180910390f35b3480156101dc57600080fd5b506101e56104e7565b6040516101f291906114ba565b60405180910390f35b34801561020757600080fd5b50610222600480360381019061021d91906113ab565b6104fe565b60405161022f9190611406565b60405180910390f35b34801561024457600080fd5b5061024d6105a1565b005b34801561025b57600080fd5b50610276600480360381019061027191906114d5565b61067a565b005b34801561028457600080fd5b5061029f600480360381019061029a91906113ab565b61074e565b005b3480156102ad57600080fd5b506102c860048036038101906102c391906114d5565b610812565b6040516102d59190611430565b60405180910390f35b6102f860048036038101906102f39190611540565b61085a565b005b34801561030657600080fd5b5061030f6109e5565b60405161031c91906112f0565b60405180910390f35b34801561033157600080fd5b5061034c600480360381019061034791906113ab565b610a77565b6040516103599190611406565b60405180910390f35b34801561036e57600080fd5b50610389600480360381019061038491906113ab565b610b5a565b6040516103969190611406565b60405180910390f35b3480156103ab57600080fd5b506103c660048036038101906103c1919061156d565b610b76565b6040516103d39190611430565b60405180910390f35b3480156103e857600080fd5b506103f1610bfd565b6040516103fe91906115ce565b60405180910390f35b60606003805461041690611618565b80601f016020809104026020016040519081016040528092919081815260200182805461044290611618565b801561048f5780601f106104645761010080835404028352916020019161048f565b820191906000526020600020905b81548152906001019060200180831161047257829003601f168201915b5050505050905090565b6000803390506104aa818585610c23565b600191505092915050565b6000600254905090565b6000803390506104d0858285610dec565b6104db858585610e78565b60019150509392505050565b6000600560009054906101000a900460ff16905090565b600080339050610596818585600160008673ffffffffffffffffffffffffffffffffffffffff1673ffffffffffffffffffffffffffffffffffffffff16815260200190815260200160002060008973ffffffffffffffffffffffffffffffffffffffff1673ffffffffffffffffffffffffffffffffffffffff168152602001908152602001600020546105919190611678565b610c23565b600191505092915050565b600560019054906101000a900473ffffffffffffffffffffffffffffffffffffffff1673ffffffffffffffffffffffffffffffffffffffff163373ffffffffffffffffffffffffffffffffffffffff1614610631576040517f08c379a0000000000000000000000000000000000000000000000000000000008152600401610628906116f8565b60405180910390fd5b3373ffffffffffffffffffffffffffffffffffffffff166108fc479081150290604051600060405180830381858888f19350505050158015610677573d6000803e3d6000fd5b50565b600560019054906101000a900473ffffffffffffffffffffffffffffffffffffffff1673ffffffffffffffffffffffffffffffffffffffff163373ffffffffffffffffffffffffffffffffffffffff161461070a576040517f08c379a0000000000000000000000000000000000000000000000000000000008152600401610701906116f8565b60405180910390fd5b80600560016101000a81548173ffffffffffffffffffffffffffffffffffffffff021916908373ffffffffffffffffffffffffffffffffffffffff16021790555050565b600560019054906101000a900473ffffffffffffffffffffffffffffffffffffffff1673ffffffffffffffffffffffffffffffffffffffff163373ffffffffffffffffffffffffffffffffffffffff16146107de576040517f08c379a00000000000000000000000000000000000000000000000000000000081526004016107d5906116f8565b60405180910390fd5b61080e82600560009054906101000a900460ff16600a6107fe919061184b565b836108099190611896565b6110f7565b5050565b60008060008373ffffffffffffffffffffffffffffffffffffffff1673ffffffffffffffffffffffffffffffffffffffff168152602001908152602001600020549050919050565b600560019054906101000a900473ffffffffffffffffffffffffffffffffffffffff1673ffffffffffffffffffffffffffffffffffffffff163373ffffffffffffffffffffffffffffffffffffffff16146108ea576040517f08c379a00000000000000000000000000000000000000000000000000000000081526004016108e1906116f8565b60405180910390fd5b8073ffffffffffffffffffffffffffffffffffffffff1663a9059cbb338373ffffffffffffffffffffffffffffffffffffffff166370a08231306040518263ffffffff1660e01b815260040161094091906118e7565b602060405180830381865afa15801561095d573d6000803e3d6000fd5b505050506040513d601f19601f820116820180604052508101906109819190611917565b6040518363ffffffff1660e01b815260040161099e929190611944565b6020604051808303816000875af11580156109bd573d6000803e3d6000fd5b505050506040513d601f19601f820116820180604052508101906109e19190611999565b5050565b6060600480546109f490611618565b80601f0160208091040260200160405190810160405280929190818152602001828054610a2090611618565b8015610a6d5780601f10610a4257610100808354040283529160200191610a6d565b820191906000526020600020905b815481529060010190602001808311610a5057829003601f168201915b5050505050905090565b6000803390506000600160008373ffffffffffffffffffffffffffffffffffffffff1673ffffffffffffffffffffffffffffffffffffffff16815260200190815260200160002060008673ffffffffffffffffffffffffffffffffffffffff1673ffffffffffffffffffffffffffffffffffffffff16815260200190815260200160002054905083811015610b41576040517f08c379a0000000000000000000000000000000000000000000000000000000008152600401610b3890611a38565b60405180910390fd5b610b4e8286868403610c23565b60019250505092915050565b600080339050610b6b818585610e78565b600191505092915050565b6000600160008473ffffffffffffffffffffffffffffffffffffffff1673ffffffffffffffffffffffffffffffffffffffff16815260200190815260200160002060008373ffffffffffffffffffffffffffffffffffffffff1673ffffffffffffffffffffffffffffffffffffffff16815260200190815260200160002054905092915050565b600560019054906101000a900473ffffffffffffffffffffffffffffffffffffffff1681565b600073ffffffffffffffffffffffffffffffffffffffff168373ffffffffffffffffffffffffffffffffffffffff1603610c92576040517f08c379a0000000000000000000000000000000000000000000000000000000008152600401610c8990611aca565b60405180910390fd5b600073ffffffffffffffffffffffffffffffffffffffff168273ffffffffffffffffffffffffffffffffffffffff1603610d01576040517f08c379a0000000000000000000000000000000000000000000000000000000008152600401610cf890611b5c565b60405180910390fd5b80600160008573ffffffffffffffffffffffffffffffffffffffff1673ffffffffffffffffffffffffffffffffffffffff16815260200190815260200160002060008473ffffffffffffffffffffffffffffffffffffffff1673ffffffffffffffffffffffffffffffffffffffff168152602001908152602001600020819055508173ffffffffffffffffffffffffffffffffffffffff168373ffffffffffffffffffffffffffffffffffffffff167f8c5be1e5ebec7d5bd14f71427d1e84f3dd0314c0f7b2291e5b200ac8c7c3b92583604051610ddf9190611430565b60405180910390a3505050565b6000610df88484610b76565b90507fffffffffffffffffffffffffffffffffffffffffffffffffffffffffffffffff8114610e725781811015610e64576040517f08c379a0000000000000000000000000000000000000000000000000000000008152600401610e5b90611bc8565b60405180910390fd5b610e718484848403610c23565b5b50505050565b600073ffffffffffffffffffffffffffffffffffffffff168373ffffffffffffffffffffffffffffffffffffffff1603610ee7576040517f08c379a0000000000000000000000000000000000000000000000000000000008152600401610ede90611c5a565b60405180910390fd5b600073ffffffffffffffffffffffffffffffffffffffff168273ffffffffffffffffffffffffffffffffffffffff1603610f56576040517f08c379a0000000000000000000000000000000000000000000000000000000008152600401610f4d90611cec565b60405180910390fd5b610f61838383611256565b60008060008573ffffffffffffffffffffffffffffffffffffffff1673ffffffffffffffffffffffffffffffffffffffff16815260200190815260200160002054905081811015610fe7576040517f08c379a0000000000000000000000000000000000000000000000000000000008152600401610fde90611d7e565b60405180910390fd5b8181036000808673ffffffffffffffffffffffffffffffffffffffff1673ffffffffffffffffffffffffffffffffffffffff16815260200190815260200160002081905550816000808573ffffffffffffffffffffffffffffffffffffffff1673ffffffffffffffffffffffffffffffffffffffff168152602001908152602001600020600082825461107a9190611678565b925050819055508273ffffffffffffffffffffffffffffffffffffffff168473ffffffffffffffffffffffffffffffffffffffff167fddf252ad1be2c89b69c2b068fc378daa952ba7f163c4a11628f55a4df523b3ef846040516110de9190611430565b60405180910390a36110f184848461125b565b50505050565b600073ffffffffffffffffffffffffffffffffffffffff168273ffffffffffffffffffffffffffffffffffffffff1603611166576040517f08c379a000000000000000000000000000000000000000000000000000000000815260040161115d90611dea565b60405180910390fd5b61117260008383611256565b80600260008282546111849190611678565b92505081905550806000808473ffffffffffffffffffffffffffffffffffffffff1673ffffffffffffffffffffffffffffffffffffffff16815260200190815260200160002060008282546111d99190611678565b925050819055508173ffffffffffffffffffffffffffffffffffffffff16600073ffffffffffffffffffffffffffffffffffffffff167fddf252ad1be2c89b69c2b068fc378daa952ba7f163c4a11628f55a4df523b3ef8360405161123e9190611430565b60405180910390a36112526000838361125b565b5050565b505050565b505050565b600081519050919050565b600082825260208201905092915050565b60005b8381101561129a57808201518184015260208101905061127f565b60008484015250505050565b6000601f19601f8301169050919050565b60006112c282611260565b6112cc818561126b565b93506112dc81856020860161127c565b6112e5816112a6565b840191505092915050565b6000602082019050818103600083015261130a81846112b7565b905092915050565b600080fd5b600073ffffffffffffffffffffffffffffffffffffffff82169050919050565b600061134282611317565b9050919050565b61135281611337565b811461135d57600080fd5b50565b60008135905061136f81611349565b92915050565b6000819050919050565b61138881611375565b811461139357600080fd5b50565b6000813590506113a58161137f565b92915050565b600080604083850312156113c2576113c1611312565b5b60006113d085828601611360565b92505060206113e185828601611396565b9150509250929050565b60008115159050919050565b611400816113eb565b82525050565b600060208201905061141b60008301846113f7565b92915050565b61142a81611375565b82525050565b60006020820190506114456000830184611421565b92915050565b60008060006060848603121561146457611463611312565b5b600061147286828701611360565b935050602061148386828701611360565b925050604061149486828701611396565b9150509250925092565b600060ff82169050919050565b6114b48161149e565b82525050565b60006020820190506114cf60008301846114ab565b92915050565b6000602082840312156114eb576114ea611312565b5b60006114f984828501611360565b91505092915050565b600061150d82611337565b9050919050565b61151d81611502565b811461152857600080fd5b50565b60008135905061153a81611514565b92915050565b60006020828403121561155657611555611312565b5b60006115648482850161152b565b91505092915050565b6000806040838503121561158457611583611312565b5b600061159285828601611360565b92505060206115a385828601611360565b9150509250929050565b60006115b882611317565b9050919050565b6115c8816115ad565b82525050565b60006020820190506115e360008301846115bf565b92915050565b7f4e487b7100000000000000000000000000000000000000000000000000000000600052602260045260246000fd5b6000600282049050600182168061163057607f821691505b602082108103611643576116426115e9565b5b50919050565b7f4e487b7100000000000000000000000000000000000000000000000000000000600052601160045260246000fd5b600061168382611375565b915061168e83611375565b92508282019050808211156116a6576116a5611649565b5b92915050565b7f6e6f2061646d696e000000000000000000000000000000000000000000000000600082015250565b60006116e260088361126b565b91506116ed826116ac565b602082019050919050565b60006020820190508181036000830152611711816116d5565b9050919050565b60008160011c9050919050565b6000808291508390505b600185111561176f5780860481111561174b5761174a611649565b5b600185161561175a5780820291505b808102905061176885611718565b945061172f565b94509492505050565b6000826117885760019050611844565b816117965760009050611844565b81600181146117ac57600281146117b6576117e5565b6001915050611844565b60ff8411156117c8576117c7611649565b5b8360020a9150848211156117df576117de611649565b5b50611844565b5060208310610133831016604e8410600b841016171561181a5782820a90508381111561181557611814611649565b5b611844565b6118278484846001611725565b9250905081840481111561183e5761183d611649565b5b81810290505b9392505050565b600061185682611375565b91506118618361149e565b925061188e7fffffffffffffffffffffffffffffffffffffffffffffffffffffffffffffffff8484611778565b905092915050565b60006118a182611375565b91506118ac83611375565b92508282026118ba81611375565b915082820484148315176118d1576118d0611649565b5b5092915050565b6118e181611337565b82525050565b60006020820190506118fc60008301846118d8565b92915050565b6000815190506119118161137f565b92915050565b60006020828403121561192d5761192c611312565b5b600061193b84828501611902565b91505092915050565b600060408201905061195960008301856118d8565b6119666020830184611421565b9392505050565b611976816113eb565b811461198157600080fd5b50565b6000815190506119938161196d565b92915050565b6000602082840312156119af576119ae611312565b5b60006119bd84828501611984565b91505092915050565b7f45524332303a2064656372656173656420616c6c6f77616e63652062656c6f7760008201527f207a65726f000000000000000000000000000000000000000000000000000000602082015250565b6000611a2260258361126b565b9150611a2d826119c6565b604082019050919050565b60006020820190508181036000830152611a5181611a15565b9050919050565b7f45524332303a20617070726f76652066726f6d20746865207a65726f2061646460008201527f7265737300000000000000000000000000000000000000000000000000000000602082015250565b6000611ab460248361126b565b9150611abf82611a58565b604082019050919050565b60006020820190508181036000830152611ae381611aa7565b9050919050565b7f45524332303a20617070726f76652020746f20746865207a65726f206164647260008201527f6573730000000000000000000000000000000000000000000000000000000000602082015250565b6000611b4660238361126b565b9150611b5182611aea565b604082019050919050565b60006020820190508181036000830152611b7581611b39565b9050919050565b7f45524332303a20696e73756666696369656e7420616c6c6f77616e6365000000600082015250565b6000611bb2601d8361126b565b9150611bbd82611b7c565b602082019050919050565b60006020820190508181036000830152611be181611ba5565b9050919050565b7f45524332303a207472616e736665722066726f6d20746865207a65726f20616460008201527f6472657373000000000000000000000000000000000000000000000000000000602082015250565b6000611c4460258361126b565b9150611c4f82611be8565b604082019050919050565b60006020820190508181036000830152611c7381611c37565b9050919050565b7f45524332303a207472616e7366657220746f20746865207a65726f206164647260008201527f6573730000000000000000000000000000000000000000000000000000000000602082015250565b6000611cd660238361126b565b9150611ce182611c7a565b604082019050919050565b60006020820190508181036000830152611d0581611cc9565b9050919050565b7f45524332303a207472616e7366657220616d6f756e742065786365656473206260008201527f616c616e63650000000000000000000000000000000000000000000000000000602082015250565b6000611d6860268361126b565b9150611d7382611d0c565b604082019050919050565b60006020820190508181036000830152611d9781611d5b565b9050919050565b7f45524332303a206d696e7420746f20746865207a65726f206164647265737300600082015250565b6000611dd4601f8361126b565b9150611ddf82611d9e565b602082019050919050565b60006020820190508181036000830152611e0381611dc7565b905091905056fea2646970667358221220d6af7b43bf4b8b0591f2d22909e37395409cf6d162e41187b0c2f0148573b25e64736f6c63430008110033",
  "linkReferences": {},
  "deployedLinkReferences": {}
}