{
  "_format": "hh-sol-artifact-1",
  "contractName": "swap",
  "sourceName": "contracts/swap.sol",
  "abi": [
    {
      "inputs": [],
      "stateMutability": "nonpayable",
      "type": "constructor"
    },
    {
      "anonymous": false,
      "inputs": [
        {
          "indexed": false,
          "internalType": "uint256",
          "name": "_id",
          "type": "uint256"
        },
        {
          "indexed": false,
          "internalType": "address",
          "name": "from",
          "type": "address"
        },
        {
          "indexed": false,
          "internalType": "uint256",
          "name": "balance",
          "type": "uint256"
        }
      ],
      "name": "exchangeTokenlgo",
      "type": "event"
    },
    {
      "anonymous": false,
      "inputs": [
        {
          "indexed": false,
          "internalType": "address",
          "name": "from",
          "type": "address"
        },
        {
          "indexed": false,
          "internalType": "uint256",
          "name": "amount",
          "type": "uint256"
        },
        {
          "indexed": false,
          "internalType": "uint256",
          "name": "price",
          "type": "uint256"
        }
      ],
      "name": "swapToken",
      "type": "event"
    },
    {
      "inputs": [],
      "name": "_aToken",
      "outputs": [
        {
          "internalType": "contract ERC20",
          "name": "",
          "type": "address"
        }
      ],
      "stateMutability": "view",
      "type": "function"
    },
    {
      "inputs": [],
      "name": "_minAmount",
      "outputs": [
        {
          "internalType": "uint256",
          "name": "",
          "type": "uint256"
        }
      ],
      "stateMutability": "view",
      "type": "function"
    },
    {
      "inputs": [],
      "name": "_toToken",
      "outputs": [
        {
          "internalType": "contract ERC20",
          "name": "",
          "type": "address"
        }
      ],
      "stateMutability": "view",
      "type": "function"
    },
    {
      "inputs": [
        {
          "internalType": "uint256",
          "name": "_amount",
          "type": "uint256"
        }
      ],
      "name": "exchangeToken",
      "outputs": [],
      "stateMutability": "nonpayable",
      "type": "function"
    },
    {
      "inputs": [],
      "name": "getOwner",
      "outputs": [
        {
          "internalType": "address",
          "name": "",
          "type": "address"
        }
      ],
      "stateMutability": "view",
      "type": "function"
    },
    {
      "inputs": [],
      "name": "price",
      "outputs": [
        {
          "internalType": "uint256",
          "name": "",
          "type": "uint256"
        }
      ],
      "stateMutability": "view",
      "type": "function"
    },
    {
      "inputs": [
        {
          "internalType": "uint256",
          "name": "minAmount_",
          "type": "uint256"
        }
      ],
      "name": "setMinAmount",
      "outputs": [],
      "stateMutability": "nonpayable",
      "type": "function"
    },
    {
      "inputs": [
        {
          "internalType": "address",
          "name": "paramOwner",
          "type": "address"
        }
      ],
      "name": "setOwner",
      "outputs": [],
      "stateMutability": "nonpayable",
      "type": "function"
    },
    {
      "inputs": [
        {
          "internalType": "uint256",
          "name": "_price",
          "type": "uint256"
        }
      ],
      "name": "setPrice",
      "outputs": [],
      "stateMutability": "nonpayable",
      "type": "function"
    },
    {
      "inputs": [],
      "name": "withdraw",
      "outputs": [],
      "stateMutability": "nonpayable",
      "type": "function"
    },
    {
      "inputs": [
        {
          "internalType": "address",
          "name": "_token",
          "type": "address"
        },
        {
          "internalType": "address",
          "name": "_to",
          "type": "address"
        },
        {
          "internalType": "uint256",
          "name": "_amount",
          "type": "uint256"
        }
      ],
      "name": "withdraw",
      "outputs": [],
      "stateMutability": "nonpayable",
      "type": "function"
    },
    {
      "inputs": [
        {
          "internalType": "address",
          "name": "_token",
          "type": "address"
        },
        {
          "internalType": "address",
          "name": "_to",
          "type": "address"
        }
      ],
      "name": "withdrawAll",
      "outputs": [],
      "stateMutability": "nonpayable",
      "type": "function"
    }
  ],
  "bytecode": "0x6080604052731c01b630e32303a03d04f52c4be944ba04706bdf600160006101000a81548173ffffffffffffffffffffffffffffffffffffffff021916908373ffffffffffffffffffffffffffffffffffffffff1602179055507303842fb1da26647f5beef727d5ec73bfadaea7a2600260006101000a81548173ffffffffffffffffffffffffffffffffffffffff021916908373ffffffffffffffffffffffffffffffffffffffff1602179055506103e86003553480156100c057600080fd5b50336000806101000a81548173ffffffffffffffffffffffffffffffffffffffff021916908373ffffffffffffffffffffffffffffffffffffffff1602179055506103e860058190555061181a806101196000396000f3fe608060405234801561001057600080fd5b50600436106100b45760003560e01c8063893d20e811610071578063893d20e814610155578063897b0637146101735780638f78c3111461018f57806391b7f5ed146101ab578063a035b1fe146101c7578063d9caed12146101e5576100b4565b8063064d4d7c146100b957806309cae2c8146100d757806313af4035146100f35780633ccfd60b1461010f57806356d0b9e5146101195780637a1a959b14610137575b600080fd5b6100c1610201565b6040516100ce9190610dad565b60405180910390f35b6100f160048036038101906100ec9190610e2b565b610207565b005b61010d60048036038101906101089190610e6b565b610307565b005b6101176103a2565b005b610121610443565b60405161012e9190610ef7565b60405180910390f35b61013f610469565b60405161014c9190610ef7565b60405180910390f35b61015d61048f565b60405161016a9190610f21565b60405180910390f35b61018d60048036038101906101889190610f68565b6104b8565b005b6101a960048036038101906101a49190610f68565b61051a565b005b6101c560048036038101906101c09190610f68565b61094e565b005b6101cf6109b0565b6040516101dc9190610dad565b60405180910390f35b6101ff60048036038101906101fa9190610f95565b6109b6565b005b60035481565b60008054906101000a900473ffffffffffffffffffffffffffffffffffffffff1673ffffffffffffffffffffffffffffffffffffffff163373ffffffffffffffffffffffffffffffffffffffff161461025f57600080fd5b610303818373ffffffffffffffffffffffffffffffffffffffff166370a08231306040518263ffffffff1660e01b815260040161029c9190610f21565b602060405180830381865afa1580156102b9573d6000803e3d6000fd5b505050506040513d601f19601f820116820180604052508101906102dd9190610ffd565b8473ffffffffffffffffffffffffffffffffffffffff16610afa9092919063ffffffff16565b5050565b60008054906101000a900473ffffffffffffffffffffffffffffffffffffffff1673ffffffffffffffffffffffffffffffffffffffff163373ffffffffffffffffffffffffffffffffffffffff161461035f57600080fd5b806000806101000a81548173ffffffffffffffffffffffffffffffffffffffff021916908373ffffffffffffffffffffffffffffffffffffffff16021790555050565b60008054906101000a900473ffffffffffffffffffffffffffffffffffffffff1673ffffffffffffffffffffffffffffffffffffffff163373ffffffffffffffffffffffffffffffffffffffff16146103fa57600080fd5b3373ffffffffffffffffffffffffffffffffffffffff166108fc479081150290604051600060405180830381858888f19350505050158015610440573d6000803e3d6000fd5b50565b600260009054906101000a900473ffffffffffffffffffffffffffffffffffffffff1681565b600160009054906101000a900473ffffffffffffffffffffffffffffffffffffffff1681565b60008060009054906101000a900473ffffffffffffffffffffffffffffffffffffffff16905090565b60008054906101000a900473ffffffffffffffffffffffffffffffffffffffff1673ffffffffffffffffffffffffffffffffffffffff163373ffffffffffffffffffffffffffffffffffffffff161461051057600080fd5b8060038190555050565b60035481101561055f576040517f08c379a000000000000000000000000000000000000000000000000000000000815260040161055690611087565b60405180910390fd5b6005548110156105a4576040517f08c379a000000000000000000000000000000000000000000000000000000000815260040161059b90611087565b60405180910390fd5b600160009054906101000a900473ffffffffffffffffffffffffffffffffffffffff1673ffffffffffffffffffffffffffffffffffffffff166323b872dd333061068a85600160009054906101000a900473ffffffffffffffffffffffffffffffffffffffff1673ffffffffffffffffffffffffffffffffffffffff1663313ce5676040518163ffffffff1660e01b8152600401602060405180830381865afa158015610655573d6000803e3d6000fd5b505050506040513d601f19601f8201168201806040525081019061067991906110e0565b600a610685919061126f565b610b80565b6040518463ffffffff1660e01b81526004016106a8939291906112ba565b6020604051808303816000875af11580156106c7573d6000803e3d6000fd5b505050506040513d601f19601f820116820180604052508101906106eb9190611329565b506000600260009054906101000a900473ffffffffffffffffffffffffffffffffffffffff1673ffffffffffffffffffffffffffffffffffffffff166370a08231306040518263ffffffff1660e01b81526004016107499190610f21565b602060405180830381865afa158015610766573d6000803e3d6000fd5b505050506040513d601f19601f8201168201806040525081019061078a9190610ffd565b9050600061083f61079d84600554610bc2565b600260009054906101000a900473ffffffffffffffffffffffffffffffffffffffff1673ffffffffffffffffffffffffffffffffffffffff1663313ce5676040518163ffffffff1660e01b8152600401602060405180830381865afa15801561080a573d6000803e3d6000fd5b505050506040513d601f19601f8201168201806040525081019061082e91906110e0565b600a61083a919061126f565b610b80565b9050808211610883576040517f08c379a000000000000000000000000000000000000000000000000000000000815260040161087a906113a2565b60405180910390fd5b6108d03382600260009054906101000a900473ffffffffffffffffffffffffffffffffffffffff1673ffffffffffffffffffffffffffffffffffffffff16610afa9092919063ffffffff16565b7f72618aac6153de738afc38e23808ef8af65f21cd360c305f46582d347fb3ee353384600554604051610905939291906113c2565b60405180910390a17fde5b6799d3f30d51dcc5f92fee98b8dc5b080ea09d59e1c763b755655befe8d16001308460405161094193929190611434565b60405180910390a1505050565b60008054906101000a900473ffffffffffffffffffffffffffffffffffffffff1673ffffffffffffffffffffffffffffffffffffffff163373ffffffffffffffffffffffffffffffffffffffff16146109a657600080fd5b8060058190555050565b60055481565b60008054906101000a900473ffffffffffffffffffffffffffffffffffffffff1673ffffffffffffffffffffffffffffffffffffffff163373ffffffffffffffffffffffffffffffffffffffff1614610a0e57600080fd5b808373ffffffffffffffffffffffffffffffffffffffff166370a08231306040518263ffffffff1660e01b8152600401610a489190610f21565b602060405180830381865afa158015610a65573d6000803e3d6000fd5b505050506040513d601f19601f82011682018060405250810190610a899190610ffd565b1015610aca576040517f08c379a0000000000000000000000000000000000000000000000000000000008152600401610ac1906114b7565b60405180910390fd5b610af582828573ffffffffffffffffffffffffffffffffffffffff16610afa9092919063ffffffff16565b505050565b610b7b8363a9059cbb60e01b8484604051602401610b199291906114d7565b604051602081830303815290604052907bffffffffffffffffffffffffffffffffffffffffffffffffffffffff19166020820180517bffffffffffffffffffffffffffffffffffffffffffffffffffffffff8381831617835250505050610bd8565b505050565b6000808303610b925760009050610bbc565b8183610b9e9190611500565b9050818382610bad9190611589565b14610bbb57610bba6115ba565b5b5b92915050565b60008183610bd09190611589565b905092915050565b610bf78273ffffffffffffffffffffffffffffffffffffffff16610d49565b610c36576040517f08c379a0000000000000000000000000000000000000000000000000000000008152600401610c2d90611635565b60405180910390fd5b6000808373ffffffffffffffffffffffffffffffffffffffff1683604051610c5e91906116cf565b6000604051808303816000865af19150503d8060008114610c9b576040519150601f19603f3d011682016040523d82523d6000602084013e610ca0565b606091505b509150915081610ce5576040517f08c379a0000000000000000000000000000000000000000000000000000000008152600401610cdc90611732565b60405180910390fd5b600081511115610d435780806020019051810190610d039190611329565b610d42576040517f08c379a0000000000000000000000000000000000000000000000000000000008152600401610d39906117c4565b60405180910390fd5b5b50505050565b60008060007fc5d2460186f7233c927e7db2dcc703c0e500b653ca82273b7bfad8045d85a47060001b9050833f9150808214158015610d8b57506000801b8214155b92505050919050565b6000819050919050565b610da781610d94565b82525050565b6000602082019050610dc26000830184610d9e565b92915050565b600080fd5b600073ffffffffffffffffffffffffffffffffffffffff82169050919050565b6000610df882610dcd565b9050919050565b610e0881610ded565b8114610e1357600080fd5b50565b600081359050610e2581610dff565b92915050565b60008060408385031215610e4257610e41610dc8565b5b6000610e5085828601610e16565b9250506020610e6185828601610e16565b9150509250929050565b600060208284031215610e8157610e80610dc8565b5b6000610e8f84828501610e16565b91505092915050565b6000819050919050565b6000610ebd610eb8610eb384610dcd565b610e98565b610dcd565b9050919050565b6000610ecf82610ea2565b9050919050565b6000610ee182610ec4565b9050919050565b610ef181610ed6565b82525050565b6000602082019050610f0c6000830184610ee8565b92915050565b610f1b81610ded565b82525050565b6000602082019050610f366000830184610f12565b92915050565b610f4581610d94565b8114610f5057600080fd5b50565b600081359050610f6281610f3c565b92915050565b600060208284031215610f7e57610f7d610dc8565b5b6000610f8c84828501610f53565b91505092915050565b600080600060608486031215610fae57610fad610dc8565b5b6000610fbc86828701610e16565b9350506020610fcd86828701610e16565b9250506040610fde86828701610f53565b9150509250925092565b600081519050610ff781610f3c565b92915050565b60006020828403121561101357611012610dc8565b5b600061102184828501610fe8565b91505092915050565b600082825260208201905092915050565b7f616d6f756e7420746f6f206c6974746c65000000000000000000000000000000600082015250565b600061107160118361102a565b915061107c8261103b565b602082019050919050565b600060208201905081810360008301526110a081611064565b9050919050565b600060ff82169050919050565b6110bd816110a7565b81146110c857600080fd5b50565b6000815190506110da816110b4565b92915050565b6000602082840312156110f6576110f5610dc8565b5b6000611104848285016110cb565b91505092915050565b7f4e487b7100000000000000000000000000000000000000000000000000000000600052601160045260246000fd5b60008160011c9050919050565b6000808291508390505b60018511156111935780860481111561116f5761116e61110d565b5b600185161561117e5780820291505b808102905061118c8561113c565b9450611153565b94509492505050565b6000826111ac5760019050611268565b816111ba5760009050611268565b81600181146111d057600281146111da57611209565b6001915050611268565b60ff8411156111ec576111eb61110d565b5b8360020a9150848211156112035761120261110d565b5b50611268565b5060208310610133831016604e8410600b841016171561123e5782820a9050838111156112395761123861110d565b5b611268565b61124b8484846001611149565b925090508184048111156112625761126161110d565b5b81810290505b9392505050565b600061127a82610d94565b9150611285836110a7565b92506112b27fffffffffffffffffffffffffffffffffffffffffffffffffffffffffffffffff848461119c565b905092915050565b60006060820190506112cf6000830186610f12565b6112dc6020830185610f12565b6112e96040830184610d9e565b949350505050565b60008115159050919050565b611306816112f1565b811461131157600080fd5b50565b600081519050611323816112fd565b92915050565b60006020828403121561133f5761133e610dc8565b5b600061134d84828501611314565b91505092915050565b7f496e73756666696369656e742062616c616e6365000000000000000000000000600082015250565b600061138c60148361102a565b915061139782611356565b602082019050919050565b600060208201905081810360008301526113bb8161137f565b9050919050565b60006060820190506113d76000830186610f12565b6113e46020830185610d9e565b6113f16040830184610d9e565b949350505050565b6000819050919050565b600061141e611419611414846113f9565b610e98565b610d94565b9050919050565b61142e81611403565b82525050565b60006060820190506114496000830186611425565b6114566020830185610f12565b6114636040830184610d9e565b949350505050565b7f6e6f2062616c616e636500000000000000000000000000000000000000000000600082015250565b60006114a1600a8361102a565b91506114ac8261146b565b602082019050919050565b600060208201905081810360008301526114d081611494565b9050919050565b60006040820190506114ec6000830185610f12565b6114f96020830184610d9e565b9392505050565b600061150b82610d94565b915061151683610d94565b9250817fffffffffffffffffffffffffffffffffffffffffffffffffffffffffffffffff048311821515161561154f5761154e61110d565b5b828202905092915050565b7f4e487b7100000000000000000000000000000000000000000000000000000000600052601260045260246000fd5b600061159482610d94565b915061159f83610d94565b9250826115af576115ae61155a565b5b828204905092915050565b7f4e487b7100000000000000000000000000000000000000000000000000000000600052600160045260246000fd5b7f5361666545524332303a2063616c6c20746f206e6f6e2d636f6e747261637400600082015250565b600061161f601f8361102a565b915061162a826115e9565b602082019050919050565b6000602082019050818103600083015261164e81611612565b9050919050565b600081519050919050565b600081905092915050565b60005b8381101561168957808201518184015260208101905061166e565b83811115611698576000848401525b50505050565b60006116a982611655565b6116b38185611660565b93506116c381856020860161166b565b80840191505092915050565b60006116db828461169e565b915081905092915050565b7f5361666545524332303a206c6f772d6c6576656c2063616c6c206661696c6564600082015250565b600061171c60208361102a565b9150611727826116e6565b602082019050919050565b6000602082019050818103600083015261174b8161170f565b9050919050565b7f5361666545524332303a204552433230206f7065726174696f6e20646964206e60008201527f6f74207375636365656400000000000000000000000000000000000000000000602082015250565b60006117ae602a8361102a565b91506117b982611752565b604082019050919050565b600060208201905081810360008301526117dd816117a1565b905091905056fea2646970667358221220f921f890f026e7fac7ac664aa99d6ea5a42e7e1d3881aee0e7842fc00e4a014764736f6c634300080d0033",
  "linkReferences": {},
  "deployedLinkReferences": {}
}